{
	"contracts/ElectronicVoting.sol": {
		"ElectronicVoting": {
			"abi": [
				{
					"inputs": [
						{
							"internalType": "uint256",
							"name": "startTime_",
							"type": "uint256"
						},
						{
							"internalType": "uint256",
							"name": "endTime_",
							"type": "uint256"
						}
					],
					"stateMutability": "nonpayable",
					"type": "constructor"
				},
				{
					"inputs": [
						{
							"internalType": "uint256",
							"name": "",
							"type": "uint256"
						}
					],
					"name": "candidates",
					"outputs": [
						{
							"internalType": "string",
							"name": "name",
							"type": "string"
						},
						{
							"internalType": "uint256",
							"name": "candidateId",
							"type": "uint256"
						}
					],
					"stateMutability": "view",
					"type": "function"
				},
				{
					"inputs": [
						{
							"internalType": "uint256",
							"name": "voterId",
							"type": "uint256"
						}
					],
					"name": "didCurrentVoterVoted",
					"outputs": [
						{
							"internalType": "bool",
							"name": "userVoted_",
							"type": "bool"
						},
						{
							"components": [
								{
									"internalType": "string",
									"name": "name",
									"type": "string"
								},
								{
									"internalType": "uint256",
									"name": "candidateId",
									"type": "uint256"
								}
							],
							"internalType": "struct Types.Candidate",
							"name": "candidate_",
							"type": "tuple"
						}
					],
					"stateMutability": "view",
					"type": "function"
				},
				{
					"inputs": [
						{
							"internalType": "uint256",
							"name": "endTime_",
							"type": "uint256"
						},
						{
							"internalType": "uint256",
							"name": "currentTime_",
							"type": "uint256"
						}
					],
					"name": "extendVotingTime",
					"outputs": [],
					"stateMutability": "nonpayable",
					"type": "function"
				},
				{
					"inputs": [],
					"name": "getCandidateList",
					"outputs": [
						{
							"components": [
								{
									"internalType": "string",
									"name": "name",
									"type": "string"
								},
								{
									"internalType": "uint256",
									"name": "candidateId",
									"type": "uint256"
								}
							],
							"internalType": "struct Types.Candidate[]",
							"name": "",
							"type": "tuple[]"
						}
					],
					"stateMutability": "view",
					"type": "function"
				},
				{
					"inputs": [
						{
							"internalType": "uint256",
							"name": "currentTime_",
							"type": "uint256"
						}
					],
					"name": "getResults",
					"outputs": [
						{
							"components": [
								{
									"internalType": "string",
									"name": "name",
									"type": "string"
								},
								{
									"internalType": "uint256",
									"name": "voteCount",
									"type": "uint256"
								},
								{
									"internalType": "uint256",
									"name": "candidateId",
									"type": "uint256"
								}
							],
							"internalType": "struct Types.Results[]",
							"name": "",
							"type": "tuple[]"
						}
					],
					"stateMutability": "view",
					"type": "function"
				},
				{
					"inputs": [],
					"name": "getVotingEndTime",
					"outputs": [
						{
							"internalType": "uint256",
							"name": "endTime_",
							"type": "uint256"
						}
					],
					"stateMutability": "view",
					"type": "function"
				},
				{
					"inputs": [
						{
							"internalType": "uint256",
							"name": "voterId",
							"type": "uint256"
						}
					],
					"name": "isVoterEligible",
					"outputs": [
						{
							"internalType": "bool",
							"name": "voterEligible_",
							"type": "bool"
						}
					],
					"stateMutability": "view",
					"type": "function"
				},
				{
					"inputs": [
						{
							"internalType": "uint256",
							"name": "startTime_",
							"type": "uint256"
						},
						{
							"internalType": "uint256",
							"name": "currentTime_",
							"type": "uint256"
						}
					],
					"name": "updateVotingStartTime",
					"outputs": [],
					"stateMutability": "nonpayable",
					"type": "function"
				},
				{
					"inputs": [
						{
							"internalType": "uint256",
							"name": "candidateId",
							"type": "uint256"
						},
						{
							"internalType": "uint256",
							"name": "voterId",
							"type": "uint256"
						},
						{
							"internalType": "uint256",
							"name": "currentTime_",
							"type": "uint256"
						}
					],
					"name": "vote",
					"outputs": [],
					"stateMutability": "nonpayable",
					"type": "function"
				}
			],
			"devdoc": {
				"author": "Ankit Bhardwaj",
				"details": "Impelements replacement for traditional electronic voting  solutions with distributed, non-repudiation, and security  protection characteristics",
				"kind": "dev",
				"methods": {
					"constructor": {
						"details": "Creates a new voting system to choose one of 'candidates'",
						"params": {
							"endTime_": "Voting end time",
							"startTime_": "Voting start time"
						}
					},
					"didCurrentVoterVoted(uint256)": {
						"details": "Know whether the voter casted their vote or not. If casted get candidate object.",
						"params": {
							"voterId": "Aadhar number of the current voter"
						},
						"returns": {
							"candidate_": "Candidate details to whom voter casted his/her vote",
							"userVoted_": "Boolean value which gives whether current voter casted vote or not"
						}
					},
					"extendVotingTime(uint256,uint256)": {
						"details": "To extend the end of the voting",
						"params": {
							"currentTime_": "Current time that needs to be updated",
							"endTime_": "End time that needs to be updated"
						}
					},
					"getCandidateList()": {
						"details": "Get candidate list.",
						"returns": {
							"_0": "candidatesList_ All the candidates who participate in the election"
						}
					},
					"getResults(uint256)": {
						"details": "sends all candidate list with their votes count",
						"params": {
							"currentTime_": "Current epoch time of length 10."
						},
						"returns": {
							"_0": "candidateList_ List of Candidate objects with votes count"
						}
					},
					"getVotingEndTime()": {
						"details": "Gives ending epoch time of voting",
						"returns": {
							"endTime_": "When the voting ends"
						}
					},
					"isVoterEligible(uint256)": {
						"details": "To find eligibility of the voter.",
						"params": {
							"voterId": "of the current voter"
						},
						"returns": {
							"voterEligible_": "Whether the voter with provided voterId is eligible or not"
						}
					},
					"updateVotingStartTime(uint256,uint256)": {
						"details": "used to update the voting start & end times",
						"params": {
							"currentTime_": "Current time that needs to be updated",
							"startTime_": "Start time that needs to be updated"
						}
					},
					"vote(uint256,uint256,uint256)": {
						"details": "Give your vote to candidate.",
						"params": {
							"candidateId": "of the candidate",
							"currentTime_": "To check if the election has started or not",
							"voterId": "of the voter to avoid re-entry"
						}
					}
				},
				"title": "Electronic Voting System",
				"version": 1
			},
			"evm": {
				"assembly": "    /* \"contracts/ElectronicVoting.sol\":335:6450  contract ElectronicVoting {... */\n  mstore(0x40, 0x80)\n    /* \"contracts/ElectronicVoting.sol\":831:992  constructor(uint256 startTime_, uint256 endTime_) {... */\n  callvalue\n  dup1\n  iszero\n  tag_1\n  jumpi\n  0x00\n  dup1\n  revert\ntag_1:\n  pop\n  mload(0x40)\n  sub(codesize, bytecodeSize)\n  dup1\n  bytecodeSize\n  dup4\n  codecopy\n  dup2\n  dup2\n  add\n  0x40\n  mstore\n  dup2\n  add\n  swap1\n  tag_2\n  swap2\n  swap1\n  tag_3\n  jump\t// in\ntag_2:\n    /* \"contracts/ElectronicVoting.sol\":910:920  startTime_ */\n  dup2\n    /* \"contracts/ElectronicVoting.sol\":892:907  votingStartTime */\n  0x05\n    /* \"contracts/ElectronicVoting.sol\":892:920  votingStartTime = startTime_ */\n  dup2\n  swap1\n  sstore\n  pop\n    /* \"contracts/ElectronicVoting.sol\":947:955  endTime_ */\n  dup1\n    /* \"contracts/ElectronicVoting.sol\":931:944  votingEndTime */\n  0x06\n    /* \"contracts/ElectronicVoting.sol\":931:955  votingEndTime = endTime_ */\n  dup2\n  swap1\n  sstore\n  pop\n    /* \"contracts/ElectronicVoting.sol\":974:984  msg.sender */\n  caller\n    /* \"contracts/ElectronicVoting.sol\":966:971  admin */\n  0x04\n  0x00\n    /* \"contracts/ElectronicVoting.sol\":966:984  admin = msg.sender */\n  0x0100\n  exp\n  dup2\n  sload\n  dup2\n  0xffffffffffffffffffffffffffffffffffffffff\n  mul\n  not\n  and\n  swap1\n  dup4\n  0xffffffffffffffffffffffffffffffffffffffff\n  and\n  mul\n  or\n  swap1\n  sstore\n  pop\n    /* \"contracts/ElectronicVoting.sol\":831:992  constructor(uint256 startTime_, uint256 endTime_) {... */\n  pop\n  pop\n    /* \"contracts/ElectronicVoting.sol\":335:6450  contract ElectronicVoting {... */\n  jump(tag_6)\n    /* \"#utility.yul\":88:205   */\ntag_8:\n    /* \"#utility.yul\":197:198   */\n  0x00\n    /* \"#utility.yul\":194:195   */\n  dup1\n    /* \"#utility.yul\":187:199   */\n  revert\n    /* \"#utility.yul\":334:411   */\ntag_10:\n    /* \"#utility.yul\":371:378   */\n  0x00\n    /* \"#utility.yul\":400:405   */\n  dup2\n    /* \"#utility.yul\":389:405   */\n  swap1\n  pop\n    /* \"#utility.yul\":334:411   */\n  swap2\n  swap1\n  pop\n  jump\t// out\n    /* \"#utility.yul\":417:539   */\ntag_11:\n    /* \"#utility.yul\":490:514   */\n  tag_19\n    /* \"#utility.yul\":508:513   */\n  dup2\n    /* \"#utility.yul\":490:514   */\n  tag_10\n  jump\t// in\ntag_19:\n    /* \"#utility.yul\":483:488   */\n  dup2\n    /* \"#utility.yul\":480:515   */\n  eq\n    /* \"#utility.yul\":470:533   */\n  tag_20\n  jumpi\n    /* \"#utility.yul\":529:530   */\n  0x00\n    /* \"#utility.yul\":526:527   */\n  dup1\n    /* \"#utility.yul\":519:531   */\n  revert\n    /* \"#utility.yul\":470:533   */\ntag_20:\n    /* \"#utility.yul\":417:539   */\n  pop\n  jump\t// out\n    /* \"#utility.yul\":545:688   */\ntag_12:\n    /* \"#utility.yul\":602:607   */\n  0x00\n    /* \"#utility.yul\":633:639   */\n  dup2\n    /* \"#utility.yul\":627:640   */\n  mload\n    /* \"#utility.yul\":618:640   */\n  swap1\n  pop\n    /* \"#utility.yul\":649:682   */\n  tag_22\n    /* \"#utility.yul\":676:681   */\n  dup2\n    /* \"#utility.yul\":649:682   */\n  tag_11\n  jump\t// in\ntag_22:\n    /* \"#utility.yul\":545:688   */\n  swap3\n  swap2\n  pop\n  pop\n  jump\t// out\n    /* \"#utility.yul\":694:1201   */\ntag_3:\n    /* \"#utility.yul\":773:779   */\n  0x00\n    /* \"#utility.yul\":781:787   */\n  dup1\n    /* \"#utility.yul\":830:832   */\n  0x40\n    /* \"#utility.yul\":818:827   */\n  dup4\n    /* \"#utility.yul\":809:816   */\n  dup6\n    /* \"#utility.yul\":805:828   */\n  sub\n    /* \"#utility.yul\":801:833   */\n  slt\n    /* \"#utility.yul\":798:917   */\n  iszero\n  tag_24\n  jumpi\n    /* \"#utility.yul\":836:915   */\n  tag_25\n  tag_8\n  jump\t// in\ntag_25:\n    /* \"#utility.yul\":798:917   */\ntag_24:\n    /* \"#utility.yul\":956:957   */\n  0x00\n    /* \"#utility.yul\":981:1045   */\n  tag_26\n    /* \"#utility.yul\":1037:1044   */\n  dup6\n    /* \"#utility.yul\":1028:1034   */\n  dup3\n    /* \"#utility.yul\":1017:1026   */\n  dup7\n    /* \"#utility.yul\":1013:1035   */\n  add\n    /* \"#utility.yul\":981:1045   */\n  tag_12\n  jump\t// in\ntag_26:\n    /* \"#utility.yul\":971:1045   */\n  swap3\n  pop\n    /* \"#utility.yul\":927:1055   */\n  pop\n    /* \"#utility.yul\":1094:1096   */\n  0x20\n    /* \"#utility.yul\":1120:1184   */\n  tag_27\n    /* \"#utility.yul\":1176:1183   */\n  dup6\n    /* \"#utility.yul\":1167:1173   */\n  dup3\n    /* \"#utility.yul\":1156:1165   */\n  dup7\n    /* \"#utility.yul\":1152:1174   */\n  add\n    /* \"#utility.yul\":1120:1184   */\n  tag_12\n  jump\t// in\ntag_27:\n    /* \"#utility.yul\":1110:1184   */\n  swap2\n  pop\n    /* \"#utility.yul\":1065:1194   */\n  pop\n    /* \"#utility.yul\":694:1201   */\n  swap3\n  pop\n  swap3\n  swap1\n  pop\n  jump\t// out\n    /* \"contracts/ElectronicVoting.sol\":335:6450  contract ElectronicVoting {... */\ntag_6:\n  dataSize(sub_0)\n  dup1\n  dataOffset(sub_0)\n  0x00\n  codecopy\n  0x00\n  return\nstop\n\nsub_0: assembly {\n        /* \"contracts/ElectronicVoting.sol\":335:6450  contract ElectronicVoting {... */\n      mstore(0x40, 0x80)\n      callvalue\n      dup1\n      iszero\n      tag_1\n      jumpi\n      0x00\n      dup1\n      revert\n    tag_1:\n      pop\n      jumpi(tag_2, lt(calldatasize, 0x04))\n      shr(0xe0, calldataload(0x00))\n      dup1\n      0x8a6655d6\n      gt\n      tag_12\n      jumpi\n      dup1\n      0x8a6655d6\n      eq\n      tag_7\n      jumpi\n      dup1\n      0xb1bf87b0\n      eq\n      tag_8\n      jumpi\n      dup1\n      0xb9d84552\n      eq\n      tag_9\n      jumpi\n      dup1\n      0xdce8d8a3\n      eq\n      tag_10\n      jumpi\n      dup1\n      0xfdbc4006\n      eq\n      tag_11\n      jumpi\n      jump(tag_2)\n    tag_12:\n      dup1\n      0x3477ee2e\n      eq\n      tag_3\n      jumpi\n      dup1\n      0x5d816e22\n      eq\n      tag_4\n      jumpi\n      dup1\n      0x5e23c37c\n      eq\n      tag_5\n      jumpi\n      dup1\n      0x81a60c0d\n      eq\n      tag_6\n      jumpi\n    tag_2:\n      0x00\n      dup1\n      revert\n        /* \"contracts/ElectronicVoting.sol\":368:403  Types.Candidate[] public candidates */\n    tag_3:\n      tag_13\n      0x04\n      dup1\n      calldatasize\n      sub\n      dup2\n      add\n      swap1\n      tag_14\n      swap2\n      swap1\n      tag_15\n      jump\t// in\n    tag_14:\n      tag_16\n      jump\t// in\n    tag_13:\n      mload(0x40)\n      tag_17\n      swap3\n      swap2\n      swap1\n      tag_18\n      jump\t// in\n    tag_17:\n      mload(0x40)\n      dup1\n      swap2\n      sub\n      swap1\n      return\n        /* \"contracts/ElectronicVoting.sol\":4418:4663  function extendVotingTime(uint256 endTime_, uint256 currentTime_)... */\n    tag_4:\n      tag_19\n      0x04\n      dup1\n      calldatasize\n      sub\n      dup2\n      add\n      swap1\n      tag_20\n      swap2\n      swap1\n      tag_21\n      jump\t// in\n    tag_20:\n      tag_22\n      jump\t// in\n    tag_19:\n      stop\n        /* \"contracts/ElectronicVoting.sol\":2565:2864  function didCurrentVoterVoted(uint256 voterId)... */\n    tag_5:\n      tag_23\n      0x04\n      dup1\n      calldatasize\n      sub\n      dup2\n      add\n      swap1\n      tag_24\n      swap2\n      swap1\n      tag_15\n      jump\t// in\n    tag_24:\n      tag_25\n      jump\t// in\n    tag_23:\n      mload(0x40)\n      tag_26\n      swap3\n      swap2\n      swap1\n      tag_27\n      jump\t// in\n    tag_26:\n      mload(0x40)\n      dup1\n      swap2\n      sub\n      swap1\n      return\n        /* \"contracts/ElectronicVoting.sol\":4885:5501  function getResults(uint256 currentTime_)... */\n    tag_6:\n      tag_28\n      0x04\n      dup1\n      calldatasize\n      sub\n      dup2\n      add\n      swap1\n      tag_29\n      swap2\n      swap1\n      tag_15\n      jump\t// in\n    tag_29:\n      tag_30\n      jump\t// in\n    tag_28:\n      mload(0x40)\n      tag_31\n      swap2\n      swap1\n      tag_32\n      jump\t// in\n    tag_31:\n      mload(0x40)\n      dup1\n      swap2\n      sub\n      swap1\n      return\n        /* \"contracts/ElectronicVoting.sol\":3102:3575  function vote(... */\n    tag_7:\n      tag_33\n      0x04\n      dup1\n      calldatasize\n      sub\n      dup2\n      add\n      swap1\n      tag_34\n      swap2\n      swap1\n      tag_35\n      jump\t// in\n    tag_34:\n      tag_36\n      jump\t// in\n    tag_33:\n      stop\n        /* \"contracts/ElectronicVoting.sol\":3694:3804  function getVotingEndTime() public view returns (uint256 endTime_) {... */\n    tag_8:\n      tag_37\n      tag_38\n      jump\t// in\n    tag_37:\n      mload(0x40)\n      tag_39\n      swap2\n      swap1\n      tag_40\n      jump\t// in\n    tag_39:\n      mload(0x40)\n      dup1\n      swap2\n      sub\n      swap1\n      return\n        /* \"contracts/ElectronicVoting.sol\":4015:4223  function updateVotingStartTime(uint256 startTime_, uint256 currentTime_)... */\n    tag_9:\n      tag_41\n      0x04\n      dup1\n      calldatasize\n      sub\n      dup2\n      add\n      swap1\n      tag_42\n      swap2\n      swap1\n      tag_21\n      jump\t// in\n    tag_42:\n      tag_43\n      jump\t// in\n    tag_41:\n      stop\n        /* \"contracts/ElectronicVoting.sol\":1959:2214  function isVoterEligible(uint256 voterId)... */\n    tag_10:\n      tag_44\n      0x04\n      dup1\n      calldatasize\n      sub\n      dup2\n      add\n      swap1\n      tag_45\n      swap2\n      swap1\n      tag_15\n      jump\t// in\n    tag_45:\n      tag_46\n      jump\t// in\n    tag_44:\n      mload(0x40)\n      tag_47\n      swap2\n      swap1\n      tag_48\n      jump\t// in\n    tag_47:\n      mload(0x40)\n      dup1\n      swap2\n      sub\n      swap1\n      return\n        /* \"contracts/ElectronicVoting.sol\":1134:1752  function getCandidateList()... */\n    tag_11:\n      tag_49\n      tag_50\n      jump\t// in\n    tag_49:\n      mload(0x40)\n      tag_51\n      swap2\n      swap1\n      tag_52\n      jump\t// in\n    tag_51:\n      mload(0x40)\n      dup1\n      swap2\n      sub\n      swap1\n      return\n        /* \"contracts/ElectronicVoting.sol\":368:403  Types.Candidate[] public candidates */\n    tag_16:\n      0x00\n      dup2\n      dup2\n      sload\n      dup2\n      lt\n      tag_53\n      jumpi\n      0x00\n      dup1\n      revert\n    tag_53:\n      swap1\n      0x00\n      mstore\n      keccak256(0x00, 0x20)\n      swap1\n      0x02\n      mul\n      add\n      0x00\n      swap2\n      pop\n      swap1\n      pop\n      dup1\n      0x00\n      add\n      dup1\n      sload\n      tag_55\n      swap1\n      tag_56\n      jump\t// in\n    tag_55:\n      dup1\n      0x1f\n      add\n      0x20\n      dup1\n      swap2\n      div\n      mul\n      0x20\n      add\n      mload(0x40)\n      swap1\n      dup2\n      add\n      0x40\n      mstore\n      dup1\n      swap3\n      swap2\n      swap1\n      dup2\n      dup2\n      mstore\n      0x20\n      add\n      dup3\n      dup1\n      sload\n      tag_57\n      swap1\n      tag_56\n      jump\t// in\n    tag_57:\n      dup1\n      iszero\n      tag_58\n      jumpi\n      dup1\n      0x1f\n      lt\n      tag_59\n      jumpi\n      0x0100\n      dup1\n      dup4\n      sload\n      div\n      mul\n      dup4\n      mstore\n      swap2\n      0x20\n      add\n      swap2\n      jump(tag_58)\n    tag_59:\n      dup3\n      add\n      swap2\n      swap1\n      0x00\n      mstore\n      keccak256(0x00, 0x20)\n      swap1\n    tag_60:\n      dup2\n      sload\n      dup2\n      mstore\n      swap1\n      0x01\n      add\n      swap1\n      0x20\n      add\n      dup1\n      dup4\n      gt\n      tag_60\n      jumpi\n      dup3\n      swap1\n      sub\n      0x1f\n      and\n      dup3\n      add\n      swap2\n    tag_58:\n      pop\n      pop\n      pop\n      pop\n      pop\n      swap1\n      dup1\n      0x01\n      add\n      sload\n      swap1\n      pop\n      dup3\n      jump\t// out\n        /* \"contracts/ElectronicVoting.sol\":4418:4663  function extendVotingTime(uint256 endTime_, uint256 currentTime_)... */\n    tag_22:\n        /* \"contracts/ElectronicVoting.sol\":6421:6426  admin */\n      0x04\n      0x00\n      swap1\n      sload\n      swap1\n      0x0100\n      exp\n      swap1\n      div\n      0xffffffffffffffffffffffffffffffffffffffff\n      and\n        /* \"contracts/ElectronicVoting.sol\":6407:6426  msg.sender == admin */\n      0xffffffffffffffffffffffffffffffffffffffff\n      and\n        /* \"contracts/ElectronicVoting.sol\":6407:6417  msg.sender */\n      caller\n        /* \"contracts/ElectronicVoting.sol\":6407:6426  msg.sender == admin */\n      0xffffffffffffffffffffffffffffffffffffffff\n      and\n      eq\n        /* \"contracts/ElectronicVoting.sol\":6399:6427  require(msg.sender == admin) */\n      tag_62\n      jumpi\n      0x00\n      dup1\n      revert\n    tag_62:\n        /* \"contracts/ElectronicVoting.sol\":4559:4571  currentTime_ */\n      dup1\n        /* \"contracts/ElectronicVoting.sol\":4541:4556  votingStartTime */\n      sload(0x05)\n        /* \"contracts/ElectronicVoting.sol\":4541:4571  votingStartTime < currentTime_ */\n      lt\n        /* \"contracts/ElectronicVoting.sol\":4533:4572  require(votingStartTime < currentTime_) */\n      tag_64\n      jumpi\n      0x00\n      dup1\n      revert\n    tag_64:\n        /* \"contracts/ElectronicVoting.sol\":4607:4619  currentTime_ */\n      dup1\n        /* \"contracts/ElectronicVoting.sol\":4591:4604  votingEndTime */\n      sload(0x06)\n        /* \"contracts/ElectronicVoting.sol\":4591:4619  votingEndTime > currentTime_ */\n      gt\n        /* \"contracts/ElectronicVoting.sol\":4583:4620  require(votingEndTime > currentTime_) */\n      tag_65\n      jumpi\n      0x00\n      dup1\n      revert\n    tag_65:\n        /* \"contracts/ElectronicVoting.sol\":4647:4655  endTime_ */\n      dup2\n        /* \"contracts/ElectronicVoting.sol\":4631:4644  votingEndTime */\n      0x06\n        /* \"contracts/ElectronicVoting.sol\":4631:4655  votingEndTime = endTime_ */\n      dup2\n      swap1\n      sstore\n      pop\n        /* \"contracts/ElectronicVoting.sol\":4418:4663  function extendVotingTime(uint256 endTime_, uint256 currentTime_)... */\n      pop\n      pop\n      jump\t// out\n        /* \"contracts/ElectronicVoting.sol\":2565:2864  function didCurrentVoterVoted(uint256 voterId)... */\n    tag_25:\n        /* \"contracts/ElectronicVoting.sol\":2660:2675  bool userVoted_ */\n      0x00\n        /* \"contracts/ElectronicVoting.sol\":2677:2710  Types.Candidate memory candidate_ */\n      tag_66\n      tag_67\n      jump\t// in\n    tag_66:\n        /* \"contracts/ElectronicVoting.sol\":2768:2769  0 */\n      0x00\n        /* \"contracts/ElectronicVoting.sol\":2742:2747  voter */\n      0x01\n        /* \"contracts/ElectronicVoting.sol\":2742:2756  voter[voterId] */\n      0x00\n        /* \"contracts/ElectronicVoting.sol\":2748:2755  voterId */\n      dup6\n        /* \"contracts/ElectronicVoting.sol\":2742:2756  voter[voterId] */\n      dup2\n      mstore\n      0x20\n      add\n      swap1\n      dup2\n      mstore\n      0x20\n      add\n      0x00\n      keccak256\n        /* \"contracts/ElectronicVoting.sol\":2742:2764  voter[voterId].votedTo */\n      0x03\n      add\n      sload\n        /* \"contracts/ElectronicVoting.sol\":2742:2769  voter[voterId].votedTo != 0 */\n      eq\n      iszero\n        /* \"contracts/ElectronicVoting.sol\":2728:2770  userVoted_ = (voter[voterId].votedTo != 0) */\n      swap2\n      pop\n        /* \"contracts/ElectronicVoting.sol\":2785:2795  userVoted_ */\n      dup2\n        /* \"contracts/ElectronicVoting.sol\":2781:2856  if (userVoted_)... */\n      iszero\n      tag_69\n      jumpi\n        /* \"contracts/ElectronicVoting.sol\":2823:2832  candidate */\n      0x02\n        /* \"contracts/ElectronicVoting.sol\":2823:2856  candidate[voter[voterId].votedTo] */\n      0x00\n        /* \"contracts/ElectronicVoting.sol\":2833:2838  voter */\n      0x01\n        /* \"contracts/ElectronicVoting.sol\":2833:2847  voter[voterId] */\n      0x00\n        /* \"contracts/ElectronicVoting.sol\":2839:2846  voterId */\n      dup7\n        /* \"contracts/ElectronicVoting.sol\":2833:2847  voter[voterId] */\n      dup2\n      mstore\n      0x20\n      add\n      swap1\n      dup2\n      mstore\n      0x20\n      add\n      0x00\n      keccak256\n        /* \"contracts/ElectronicVoting.sol\":2833:2855  voter[voterId].votedTo */\n      0x03\n      add\n      sload\n        /* \"contracts/ElectronicVoting.sol\":2823:2856  candidate[voter[voterId].votedTo] */\n      dup2\n      mstore\n      0x20\n      add\n      swap1\n      dup2\n      mstore\n      0x20\n      add\n      0x00\n      keccak256\n        /* \"contracts/ElectronicVoting.sol\":2810:2856  candidate_ = candidate[voter[voterId].votedTo] */\n      mload(0x40)\n      dup1\n      0x40\n      add\n      0x40\n      mstore\n      swap1\n      dup2\n      0x00\n      dup3\n      add\n      dup1\n      sload\n      tag_70\n      swap1\n      tag_56\n      jump\t// in\n    tag_70:\n      dup1\n      0x1f\n      add\n      0x20\n      dup1\n      swap2\n      div\n      mul\n      0x20\n      add\n      mload(0x40)\n      swap1\n      dup2\n      add\n      0x40\n      mstore\n      dup1\n      swap3\n      swap2\n      swap1\n      dup2\n      dup2\n      mstore\n      0x20\n      add\n      dup3\n      dup1\n      sload\n      tag_71\n      swap1\n      tag_56\n      jump\t// in\n    tag_71:\n      dup1\n      iszero\n      tag_72\n      jumpi\n      dup1\n      0x1f\n      lt\n      tag_73\n      jumpi\n      0x0100\n      dup1\n      dup4\n      sload\n      div\n      mul\n      dup4\n      mstore\n      swap2\n      0x20\n      add\n      swap2\n      jump(tag_72)\n    tag_73:\n      dup3\n      add\n      swap2\n      swap1\n      0x00\n      mstore\n      keccak256(0x00, 0x20)\n      swap1\n    tag_74:\n      dup2\n      sload\n      dup2\n      mstore\n      swap1\n      0x01\n      add\n      swap1\n      0x20\n      add\n      dup1\n      dup4\n      gt\n      tag_74\n      jumpi\n      dup3\n      swap1\n      sub\n      0x1f\n      and\n      dup3\n      add\n      swap2\n    tag_72:\n      pop\n      pop\n      pop\n      pop\n      pop\n      dup2\n      mstore\n      0x20\n      add\n      0x01\n      dup3\n      add\n      sload\n      dup2\n      mstore\n      pop\n      pop\n      swap1\n      pop\n        /* \"contracts/ElectronicVoting.sol\":2781:2856  if (userVoted_)... */\n    tag_69:\n        /* \"contracts/ElectronicVoting.sol\":2565:2864  function didCurrentVoterVoted(uint256 voterId)... */\n      swap2\n      pop\n      swap2\n      jump\t// out\n        /* \"contracts/ElectronicVoting.sol\":4885:5501  function getResults(uint256 currentTime_)... */\n    tag_30:\n        /* \"contracts/ElectronicVoting.sol\":4975:4997  Types.Results[] memory */\n      0x60\n        /* \"contracts/ElectronicVoting.sol\":5039:5051  currentTime_ */\n      dup2\n        /* \"contracts/ElectronicVoting.sol\":5023:5036  votingEndTime */\n      sload(0x06)\n        /* \"contracts/ElectronicVoting.sol\":5023:5051  votingEndTime < currentTime_ */\n      lt\n        /* \"contracts/ElectronicVoting.sol\":5015:5052  require(votingEndTime < currentTime_) */\n      tag_76\n      jumpi\n      0x00\n      dup1\n      revert\n    tag_76:\n        /* \"contracts/ElectronicVoting.sol\":5063:5098  Types.Results[] memory resultsList_ */\n      0x00\n        /* \"contracts/ElectronicVoting.sol\":5135:5145  candidates */\n      dup1\n        /* \"contracts/ElectronicVoting.sol\":5135:5152  candidates.length */\n      dup1\n      sload\n      swap1\n      pop\n        /* \"contracts/ElectronicVoting.sol\":5101:5163  new Types.Results[](... */\n      0xffffffffffffffff\n      dup2\n      gt\n      iszero\n      tag_77\n      jumpi\n      tag_78\n      tag_79\n      jump\t// in\n    tag_78:\n    tag_77:\n      mload(0x40)\n      swap1\n      dup1\n      dup3\n      mstore\n      dup1\n      0x20\n      mul\n      0x20\n      add\n      dup3\n      add\n      0x40\n      mstore\n      dup1\n      iszero\n      tag_80\n      jumpi\n      dup2\n      0x20\n      add\n    tag_81:\n      tag_82\n      tag_83\n      jump\t// in\n    tag_82:\n      dup2\n      mstore\n      0x20\n      add\n      swap1\n      0x01\n      swap1\n      sub\n      swap1\n      dup2\n      tag_81\n      jumpi\n      swap1\n      pop\n    tag_80:\n      pop\n        /* \"contracts/ElectronicVoting.sol\":5063:5163  Types.Results[] memory resultsList_ = new Types.Results[](... */\n      swap1\n      pop\n        /* \"contracts/ElectronicVoting.sol\":5179:5188  uint256 i */\n      0x00\n        /* \"contracts/ElectronicVoting.sol\":5174:5464  for (uint256 i = 0; i < candidates.length; i++) {... */\n    tag_84:\n        /* \"contracts/ElectronicVoting.sol\":5198:5208  candidates */\n      0x00\n        /* \"contracts/ElectronicVoting.sol\":5198:5215  candidates.length */\n      dup1\n      sload\n      swap1\n      pop\n        /* \"contracts/ElectronicVoting.sol\":5194:5195  i */\n      dup2\n        /* \"contracts/ElectronicVoting.sol\":5194:5215  i < candidates.length */\n      lt\n        /* \"contracts/ElectronicVoting.sol\":5174:5464  for (uint256 i = 0; i < candidates.length; i++) {... */\n      iszero\n      tag_85\n      jumpi\n        /* \"contracts/ElectronicVoting.sol\":5255:5452  Types.Results({... */\n      mload(0x40)\n      dup1\n      0x60\n      add\n      0x40\n      mstore\n      dup1\n        /* \"contracts/ElectronicVoting.sol\":5294:5304  candidates */\n      0x00\n        /* \"contracts/ElectronicVoting.sol\":5305:5306  i */\n      dup4\n        /* \"contracts/ElectronicVoting.sol\":5294:5307  candidates[i] */\n      dup2\n      sload\n      dup2\n      lt\n      tag_87\n      jumpi\n      tag_88\n      tag_89\n      jump\t// in\n    tag_88:\n    tag_87:\n      swap1\n      0x00\n      mstore\n      keccak256(0x00, 0x20)\n      swap1\n      0x02\n      mul\n      add\n        /* \"contracts/ElectronicVoting.sol\":5294:5312  candidates[i].name */\n      0x00\n      add\n        /* \"contracts/ElectronicVoting.sol\":5255:5452  Types.Results({... */\n      dup1\n      sload\n      tag_91\n      swap1\n      tag_56\n      jump\t// in\n    tag_91:\n      dup1\n      0x1f\n      add\n      0x20\n      dup1\n      swap2\n      div\n      mul\n      0x20\n      add\n      mload(0x40)\n      swap1\n      dup2\n      add\n      0x40\n      mstore\n      dup1\n      swap3\n      swap2\n      swap1\n      dup2\n      dup2\n      mstore\n      0x20\n      add\n      dup3\n      dup1\n      sload\n      tag_92\n      swap1\n      tag_56\n      jump\t// in\n    tag_92:\n      dup1\n      iszero\n      tag_93\n      jumpi\n      dup1\n      0x1f\n      lt\n      tag_94\n      jumpi\n      0x0100\n      dup1\n      dup4\n      sload\n      div\n      mul\n      dup4\n      mstore\n      swap2\n      0x20\n      add\n      swap2\n      jump(tag_93)\n    tag_94:\n      dup3\n      add\n      swap2\n      swap1\n      0x00\n      mstore\n      keccak256(0x00, 0x20)\n      swap1\n    tag_95:\n      dup2\n      sload\n      dup2\n      mstore\n      swap1\n      0x01\n      add\n      swap1\n      0x20\n      add\n      dup1\n      dup4\n      gt\n      tag_95\n      jumpi\n      dup3\n      swap1\n      sub\n      0x1f\n      and\n      dup3\n      add\n      swap2\n    tag_93:\n      pop\n      pop\n      pop\n      pop\n      pop\n      dup2\n      mstore\n      0x20\n      add\n        /* \"contracts/ElectronicVoting.sol\":5399:5409  votesCount */\n      0x03\n        /* \"contracts/ElectronicVoting.sol\":5399:5436  votesCount[candidates[i].candidateId] */\n      0x00\n        /* \"contracts/ElectronicVoting.sol\":5410:5420  candidates */\n      dup1\n        /* \"contracts/ElectronicVoting.sol\":5421:5422  i */\n      dup6\n        /* \"contracts/ElectronicVoting.sol\":5410:5423  candidates[i] */\n      dup2\n      sload\n      dup2\n      lt\n      tag_96\n      jumpi\n      tag_97\n      tag_89\n      jump\t// in\n    tag_97:\n    tag_96:\n      swap1\n      0x00\n      mstore\n      keccak256(0x00, 0x20)\n      swap1\n      0x02\n      mul\n      add\n        /* \"contracts/ElectronicVoting.sol\":5410:5435  candidates[i].candidateId */\n      0x01\n      add\n      sload\n        /* \"contracts/ElectronicVoting.sol\":5399:5436  votesCount[candidates[i].candidateId] */\n      dup2\n      mstore\n      0x20\n      add\n      swap1\n      dup2\n      mstore\n      0x20\n      add\n      0x00\n      keccak256\n      sload\n        /* \"contracts/ElectronicVoting.sol\":5255:5452  Types.Results({... */\n      dup2\n      mstore\n      0x20\n      add\n        /* \"contracts/ElectronicVoting.sol\":5344:5354  candidates */\n      0x00\n        /* \"contracts/ElectronicVoting.sol\":5355:5356  i */\n      dup4\n        /* \"contracts/ElectronicVoting.sol\":5344:5357  candidates[i] */\n      dup2\n      sload\n      dup2\n      lt\n      tag_99\n      jumpi\n      tag_100\n      tag_89\n      jump\t// in\n    tag_100:\n    tag_99:\n      swap1\n      0x00\n      mstore\n      keccak256(0x00, 0x20)\n      swap1\n      0x02\n      mul\n      add\n        /* \"contracts/ElectronicVoting.sol\":5344:5369  candidates[i].candidateId */\n      0x01\n      add\n      sload\n        /* \"contracts/ElectronicVoting.sol\":5255:5452  Types.Results({... */\n      dup2\n      mstore\n      pop\n        /* \"contracts/ElectronicVoting.sol\":5237:5249  resultsList_ */\n      dup3\n        /* \"contracts/ElectronicVoting.sol\":5250:5251  i */\n      dup3\n        /* \"contracts/ElectronicVoting.sol\":5237:5252  resultsList_[i] */\n      dup2\n      mload\n      dup2\n      lt\n      tag_102\n      jumpi\n      tag_103\n      tag_89\n      jump\t// in\n    tag_103:\n    tag_102:\n      0x20\n      mul\n      0x20\n      add\n      add\n        /* \"contracts/ElectronicVoting.sol\":5237:5452  resultsList_[i] = Types.Results({... */\n      dup2\n      swap1\n      mstore\n      pop\n        /* \"contracts/ElectronicVoting.sol\":5217:5220  i++ */\n      dup1\n      dup1\n      tag_104\n      swap1\n      tag_105\n      jump\t// in\n    tag_104:\n      swap2\n      pop\n      pop\n        /* \"contracts/ElectronicVoting.sol\":5174:5464  for (uint256 i = 0; i < candidates.length; i++) {... */\n      jump(tag_84)\n    tag_85:\n      pop\n        /* \"contracts/ElectronicVoting.sol\":5481:5493  resultsList_ */\n      dup1\n        /* \"contracts/ElectronicVoting.sol\":5474:5493  return resultsList_ */\n      swap2\n      pop\n      pop\n        /* \"contracts/ElectronicVoting.sol\":4885:5501  function getResults(uint256 currentTime_)... */\n      swap2\n      swap1\n      pop\n      jump\t// out\n        /* \"contracts/ElectronicVoting.sol\":3102:3575  function vote(... */\n    tag_36:\n        /* \"contracts/ElectronicVoting.sol\":3254:3266  currentTime_ */\n      dup1\n        /* \"contracts/ElectronicVoting.sol\":5719:5734  votingStartTime */\n      sload(0x05)\n        /* \"contracts/ElectronicVoting.sol\":5703:5715  currentTime_ */\n      dup2\n        /* \"contracts/ElectronicVoting.sol\":5703:5734  currentTime_ >= votingStartTime */\n      lt\n      iszero\n        /* \"contracts/ElectronicVoting.sol\":5695:5735  require(currentTime_ >= votingStartTime) */\n      tag_107\n      jumpi\n      0x00\n      dup1\n      revert\n    tag_107:\n        /* \"contracts/ElectronicVoting.sol\":5770:5783  votingEndTime */\n      sload(0x06)\n        /* \"contracts/ElectronicVoting.sol\":5754:5766  currentTime_ */\n      dup2\n        /* \"contracts/ElectronicVoting.sol\":5754:5783  currentTime_ <= votingEndTime */\n      gt\n      iszero\n        /* \"contracts/ElectronicVoting.sol\":5746:5784  require(currentTime_ <= votingEndTime) */\n      tag_108\n      jumpi\n      0x00\n      dup1\n      revert\n    tag_108:\n        /* \"contracts/ElectronicVoting.sol\":3292:3299  voterId */\n      dup3\n        /* \"contracts/ElectronicVoting.sol\":3301:3312  candidateId */\n      dup5\n        /* \"contracts/ElectronicVoting.sol\":6084:6109  Types.Voter memory voter_ */\n      0x00\n        /* \"contracts/ElectronicVoting.sol\":6112:6117  voter */\n      0x01\n        /* \"contracts/ElectronicVoting.sol\":6112:6126  voter[voterId] */\n      0x00\n        /* \"contracts/ElectronicVoting.sol\":6118:6125  voterId */\n      dup5\n        /* \"contracts/ElectronicVoting.sol\":6112:6126  voter[voterId] */\n      dup2\n      mstore\n      0x20\n      add\n      swap1\n      dup2\n      mstore\n      0x20\n      add\n      0x00\n      keccak256\n        /* \"contracts/ElectronicVoting.sol\":6084:6126  Types.Voter memory voter_ = voter[voterId] */\n      mload(0x40)\n      dup1\n      0x80\n      add\n      0x40\n      mstore\n      swap1\n      dup2\n      0x00\n      dup3\n      add\n      sload\n      dup2\n      mstore\n      0x20\n      add\n      0x01\n      dup3\n      add\n      dup1\n      sload\n      tag_110\n      swap1\n      tag_56\n      jump\t// in\n    tag_110:\n      dup1\n      0x1f\n      add\n      0x20\n      dup1\n      swap2\n      div\n      mul\n      0x20\n      add\n      mload(0x40)\n      swap1\n      dup2\n      add\n      0x40\n      mstore\n      dup1\n      swap3\n      swap2\n      swap1\n      dup2\n      dup2\n      mstore\n      0x20\n      add\n      dup3\n      dup1\n      sload\n      tag_111\n      swap1\n      tag_56\n      jump\t// in\n    tag_111:\n      dup1\n      iszero\n      tag_112\n      jumpi\n      dup1\n      0x1f\n      lt\n      tag_113\n      jumpi\n      0x0100\n      dup1\n      dup4\n      sload\n      div\n      mul\n      dup4\n      mstore\n      swap2\n      0x20\n      add\n      swap2\n      jump(tag_112)\n    tag_113:\n      dup3\n      add\n      swap2\n      swap1\n      0x00\n      mstore\n      keccak256(0x00, 0x20)\n      swap1\n    tag_114:\n      dup2\n      sload\n      dup2\n      mstore\n      swap1\n      0x01\n      add\n      swap1\n      0x20\n      add\n      dup1\n      dup4\n      gt\n      tag_114\n      jumpi\n      dup3\n      swap1\n      sub\n      0x1f\n      and\n      dup3\n      add\n      swap2\n    tag_112:\n      pop\n      pop\n      pop\n      pop\n      pop\n      dup2\n      mstore\n      0x20\n      add\n      0x02\n      dup3\n      add\n      0x00\n      swap1\n      sload\n      swap1\n      0x0100\n      exp\n      swap1\n      div\n      0xff\n      and\n      0xff\n      and\n      0xff\n      and\n      dup2\n      mstore\n      0x20\n      add\n      0x03\n      dup3\n      add\n      sload\n      dup2\n      mstore\n      pop\n      pop\n      swap1\n      pop\n        /* \"contracts/ElectronicVoting.sol\":6137:6170  Types.Candidate memory candidate_ */\n      0x00\n        /* \"contracts/ElectronicVoting.sol\":6173:6182  candidate */\n      0x02\n        /* \"contracts/ElectronicVoting.sol\":6173:6195  candidate[candidateId] */\n      0x00\n        /* \"contracts/ElectronicVoting.sol\":6183:6194  candidateId */\n      dup5\n        /* \"contracts/ElectronicVoting.sol\":6173:6195  candidate[candidateId] */\n      dup2\n      mstore\n      0x20\n      add\n      swap1\n      dup2\n      mstore\n      0x20\n      add\n      0x00\n      keccak256\n        /* \"contracts/ElectronicVoting.sol\":6137:6195  Types.Candidate memory candidate_ = candidate[candidateId] */\n      mload(0x40)\n      dup1\n      0x40\n      add\n      0x40\n      mstore\n      swap1\n      dup2\n      0x00\n      dup3\n      add\n      dup1\n      sload\n      tag_115\n      swap1\n      tag_56\n      jump\t// in\n    tag_115:\n      dup1\n      0x1f\n      add\n      0x20\n      dup1\n      swap2\n      div\n      mul\n      0x20\n      add\n      mload(0x40)\n      swap1\n      dup2\n      add\n      0x40\n      mstore\n      dup1\n      swap3\n      swap2\n      swap1\n      dup2\n      dup2\n      mstore\n      0x20\n      add\n      dup3\n      dup1\n      sload\n      tag_116\n      swap1\n      tag_56\n      jump\t// in\n    tag_116:\n      dup1\n      iszero\n      tag_117\n      jumpi\n      dup1\n      0x1f\n      lt\n      tag_118\n      jumpi\n      0x0100\n      dup1\n      dup4\n      sload\n      div\n      mul\n      dup4\n      mstore\n      swap2\n      0x20\n      add\n      swap2\n      jump(tag_117)\n    tag_118:\n      dup3\n      add\n      swap2\n      swap1\n      0x00\n      mstore\n      keccak256(0x00, 0x20)\n      swap1\n    tag_119:\n      dup2\n      sload\n      dup2\n      mstore\n      swap1\n      0x01\n      add\n      swap1\n      0x20\n      add\n      dup1\n      dup4\n      gt\n      tag_119\n      jumpi\n      dup3\n      swap1\n      sub\n      0x1f\n      and\n      dup3\n      add\n      swap2\n    tag_117:\n      pop\n      pop\n      pop\n      pop\n      pop\n      dup2\n      mstore\n      0x20\n      add\n      0x01\n      dup3\n      add\n      sload\n      dup2\n      mstore\n      pop\n      pop\n      swap1\n      pop\n        /* \"contracts/ElectronicVoting.sol\":6228:6230  18 */\n      0x12\n        /* \"contracts/ElectronicVoting.sol\":6214:6220  voter_ */\n      dup3\n        /* \"contracts/ElectronicVoting.sol\":6214:6224  voter_.age */\n      0x40\n      add\n      mload\n        /* \"contracts/ElectronicVoting.sol\":6214:6230  voter_.age >= 18 */\n      0xff\n      and\n      lt\n      iszero\n        /* \"contracts/ElectronicVoting.sol\":6206:6231  require(voter_.age >= 18) */\n      tag_120\n      jumpi\n      0x00\n      dup1\n      revert\n    tag_120:\n        /* \"contracts/ElectronicVoting.sol\":6268:6269  0 */\n      0x00\n        /* \"contracts/ElectronicVoting.sol\":6250:6256  voter_ */\n      dup3\n        /* \"contracts/ElectronicVoting.sol\":6250:6264  voter_.votedTo */\n      0x60\n      add\n      mload\n        /* \"contracts/ElectronicVoting.sol\":6250:6269  voter_.votedTo == 0 */\n      eq\n        /* \"contracts/ElectronicVoting.sol\":6242:6270  require(voter_.votedTo == 0) */\n      tag_121\n      jumpi\n      0x00\n      dup1\n      revert\n    tag_121:\n        /* \"contracts/ElectronicVoting.sol\":3401:3412  candidateId */\n      dup8\n        /* \"contracts/ElectronicVoting.sol\":3376:3381  voter */\n      0x01\n        /* \"contracts/ElectronicVoting.sol\":3376:3390  voter[voterId] */\n      0x00\n        /* \"contracts/ElectronicVoting.sol\":3382:3389  voterId */\n      dup10\n        /* \"contracts/ElectronicVoting.sol\":3376:3390  voter[voterId] */\n      dup2\n      mstore\n      0x20\n      add\n      swap1\n      dup2\n      mstore\n      0x20\n      add\n      0x00\n      keccak256\n        /* \"contracts/ElectronicVoting.sol\":3376:3398  voter[voterId].votedTo */\n      0x03\n      add\n        /* \"contracts/ElectronicVoting.sol\":3376:3412  voter[voterId].votedTo = candidateId */\n      dup2\n      swap1\n      sstore\n      pop\n        /* \"contracts/ElectronicVoting.sol\":3472:3490  uint256 voteCount_ */\n      0x00\n        /* \"contracts/ElectronicVoting.sol\":3493:3503  votesCount */\n      0x03\n        /* \"contracts/ElectronicVoting.sol\":3493:3516  votesCount[candidateId] */\n      0x00\n        /* \"contracts/ElectronicVoting.sol\":3504:3515  candidateId */\n      dup11\n        /* \"contracts/ElectronicVoting.sol\":3493:3516  votesCount[candidateId] */\n      dup2\n      mstore\n      0x20\n      add\n      swap1\n      dup2\n      mstore\n      0x20\n      add\n      0x00\n      keccak256\n      sload\n        /* \"contracts/ElectronicVoting.sol\":3472:3516  uint256 voteCount_ = votesCount[candidateId] */\n      swap1\n      pop\n        /* \"contracts/ElectronicVoting.sol\":3566:3567  1 */\n      0x01\n        /* \"contracts/ElectronicVoting.sol\":3553:3563  voteCount_ */\n      dup2\n        /* \"contracts/ElectronicVoting.sol\":3553:3567  voteCount_ + 1 */\n      tag_123\n      swap2\n      swap1\n      tag_124\n      jump\t// in\n    tag_123:\n        /* \"contracts/ElectronicVoting.sol\":3527:3537  votesCount */\n      0x03\n        /* \"contracts/ElectronicVoting.sol\":3527:3550  votesCount[candidateId] */\n      0x00\n        /* \"contracts/ElectronicVoting.sol\":3538:3549  candidateId */\n      dup12\n        /* \"contracts/ElectronicVoting.sol\":3527:3550  votesCount[candidateId] */\n      dup2\n      mstore\n      0x20\n      add\n      swap1\n      dup2\n      mstore\n      0x20\n      add\n      0x00\n      keccak256\n        /* \"contracts/ElectronicVoting.sol\":3527:3567  votesCount[candidateId] = voteCount_ + 1 */\n      dup2\n      swap1\n      sstore\n      pop\n        /* \"contracts/ElectronicVoting.sol\":3319:3575  {... */\n      pop\n        /* \"contracts/ElectronicVoting.sol\":6073:6290  {... */\n      pop\n      pop\n        /* \"contracts/ElectronicVoting.sol\":5795:5796  _ */\n      pop\n      pop\n        /* \"contracts/ElectronicVoting.sol\":3102:3575  function vote(... */\n      pop\n      pop\n      pop\n      pop\n      jump\t// out\n        /* \"contracts/ElectronicVoting.sol\":3694:3804  function getVotingEndTime() public view returns (uint256 endTime_) {... */\n    tag_38:\n        /* \"contracts/ElectronicVoting.sol\":3743:3759  uint256 endTime_ */\n      0x00\n        /* \"contracts/ElectronicVoting.sol\":3783:3796  votingEndTime */\n      sload(0x06)\n        /* \"contracts/ElectronicVoting.sol\":3772:3796  endTime_ = votingEndTime */\n      swap1\n      pop\n        /* \"contracts/ElectronicVoting.sol\":3694:3804  function getVotingEndTime() public view returns (uint256 endTime_) {... */\n      swap1\n      jump\t// out\n        /* \"contracts/ElectronicVoting.sol\":4015:4223  function updateVotingStartTime(uint256 startTime_, uint256 currentTime_)... */\n    tag_43:\n        /* \"contracts/ElectronicVoting.sol\":6421:6426  admin */\n      0x04\n      0x00\n      swap1\n      sload\n      swap1\n      0x0100\n      exp\n      swap1\n      div\n      0xffffffffffffffffffffffffffffffffffffffff\n      and\n        /* \"contracts/ElectronicVoting.sol\":6407:6426  msg.sender == admin */\n      0xffffffffffffffffffffffffffffffffffffffff\n      and\n        /* \"contracts/ElectronicVoting.sol\":6407:6417  msg.sender */\n      caller\n        /* \"contracts/ElectronicVoting.sol\":6407:6426  msg.sender == admin */\n      0xffffffffffffffffffffffffffffffffffffffff\n      and\n      eq\n        /* \"contracts/ElectronicVoting.sol\":6399:6427  require(msg.sender == admin) */\n      tag_127\n      jumpi\n      0x00\n      dup1\n      revert\n    tag_127:\n        /* \"contracts/ElectronicVoting.sol\":4163:4175  currentTime_ */\n      dup1\n        /* \"contracts/ElectronicVoting.sol\":4145:4160  votingStartTime */\n      sload(0x05)\n        /* \"contracts/ElectronicVoting.sol\":4145:4175  votingStartTime > currentTime_ */\n      gt\n        /* \"contracts/ElectronicVoting.sol\":4137:4176  require(votingStartTime > currentTime_) */\n      tag_129\n      jumpi\n      0x00\n      dup1\n      revert\n    tag_129:\n        /* \"contracts/ElectronicVoting.sol\":4205:4215  startTime_ */\n      dup2\n        /* \"contracts/ElectronicVoting.sol\":4187:4202  votingStartTime */\n      0x05\n        /* \"contracts/ElectronicVoting.sol\":4187:4215  votingStartTime = startTime_ */\n      dup2\n      swap1\n      sstore\n      pop\n        /* \"contracts/ElectronicVoting.sol\":4015:4223  function updateVotingStartTime(uint256 startTime_, uint256 currentTime_)... */\n      pop\n      pop\n      jump\t// out\n        /* \"contracts/ElectronicVoting.sol\":1959:2214  function isVoterEligible(uint256 voterId)... */\n    tag_46:\n        /* \"contracts/ElectronicVoting.sol\":2049:2068  bool voterEligible_ */\n      0x00\n        /* \"contracts/ElectronicVoting.sol\":2086:2112  Types.Voter storage voter_ */\n      dup1\n        /* \"contracts/ElectronicVoting.sol\":2115:2120  voter */\n      0x01\n        /* \"contracts/ElectronicVoting.sol\":2115:2129  voter[voterId] */\n      0x00\n        /* \"contracts/ElectronicVoting.sol\":2121:2128  voterId */\n      dup5\n        /* \"contracts/ElectronicVoting.sol\":2115:2129  voter[voterId] */\n      dup2\n      mstore\n      0x20\n      add\n      swap1\n      dup2\n      mstore\n      0x20\n      add\n      0x00\n      keccak256\n        /* \"contracts/ElectronicVoting.sol\":2086:2129  Types.Voter storage voter_ = voter[voterId] */\n      swap1\n      pop\n        /* \"contracts/ElectronicVoting.sol\":2158:2160  18 */\n      0x12\n        /* \"contracts/ElectronicVoting.sol\":2144:2150  voter_ */\n      dup2\n        /* \"contracts/ElectronicVoting.sol\":2144:2154  voter_.age */\n      0x02\n      add\n      0x00\n      swap1\n      sload\n      swap1\n      0x0100\n      exp\n      swap1\n      div\n      0xff\n      and\n        /* \"contracts/ElectronicVoting.sol\":2144:2160  voter_.age >= 18 */\n      0xff\n      and\n      lt\n      iszero\n        /* \"contracts/ElectronicVoting.sol\":2144:2183  voter_.age >= 18 && voter_.votedTo == 0 */\n      dup1\n      iszero\n      tag_131\n      jumpi\n      pop\n        /* \"contracts/ElectronicVoting.sol\":2182:2183  0 */\n      0x00\n        /* \"contracts/ElectronicVoting.sol\":2164:2170  voter_ */\n      dup2\n        /* \"contracts/ElectronicVoting.sol\":2164:2178  voter_.votedTo */\n      0x03\n      add\n      sload\n        /* \"contracts/ElectronicVoting.sol\":2164:2183  voter_.votedTo == 0 */\n      eq\n        /* \"contracts/ElectronicVoting.sol\":2144:2183  voter_.age >= 18 && voter_.votedTo == 0 */\n    tag_131:\n        /* \"contracts/ElectronicVoting.sol\":2140:2206  if (voter_.age >= 18 && voter_.votedTo == 0) voterEligible_ = true */\n      iszero\n      tag_132\n      jumpi\n        /* \"contracts/ElectronicVoting.sol\":2202:2206  true */\n      0x01\n        /* \"contracts/ElectronicVoting.sol\":2185:2206  voterEligible_ = true */\n      swap2\n      pop\n        /* \"contracts/ElectronicVoting.sol\":2140:2206  if (voter_.age >= 18 && voter_.votedTo == 0) voterEligible_ = true */\n    tag_132:\n        /* \"contracts/ElectronicVoting.sol\":2075:2214  {... */\n      pop\n        /* \"contracts/ElectronicVoting.sol\":1959:2214  function isVoterEligible(uint256 voterId)... */\n      swap2\n      swap1\n      pop\n      jump\t// out\n        /* \"contracts/ElectronicVoting.sol\":1134:1752  function getCandidateList()... */\n    tag_50:\n        /* \"contracts/ElectronicVoting.sol\":1210:1234  Types.Candidate[] memory */\n      0x60\n        /* \"contracts/ElectronicVoting.sol\":1252:1293  uint256 _politicianOfMyConstituencyLength */\n      0x00\n        /* \"contracts/ElectronicVoting.sol\":1315:1324  uint256 i */\n      dup1\n        /* \"contracts/ElectronicVoting.sol\":1310:1420  for (uint256 i = 0; i < candidates.length; i++) {... */\n    tag_134:\n        /* \"contracts/ElectronicVoting.sol\":1334:1344  candidates */\n      0x00\n        /* \"contracts/ElectronicVoting.sol\":1334:1351  candidates.length */\n      dup1\n      sload\n      swap1\n      pop\n        /* \"contracts/ElectronicVoting.sol\":1330:1331  i */\n      dup2\n        /* \"contracts/ElectronicVoting.sol\":1330:1351  i < candidates.length */\n      lt\n        /* \"contracts/ElectronicVoting.sol\":1310:1420  for (uint256 i = 0; i < candidates.length; i++) {... */\n      iszero\n      tag_135\n      jumpi\n        /* \"contracts/ElectronicVoting.sol\":1373:1408  _politicianOfMyConstituencyLength++ */\n      dup2\n      dup1\n      tag_137\n      swap1\n      tag_105\n      jump\t// in\n    tag_137:\n      swap3\n      pop\n      pop\n        /* \"contracts/ElectronicVoting.sol\":1353:1356  i++ */\n      dup1\n      dup1\n      tag_138\n      swap1\n      tag_105\n      jump\t// in\n    tag_138:\n      swap2\n      pop\n      pop\n        /* \"contracts/ElectronicVoting.sol\":1310:1420  for (uint256 i = 0; i < candidates.length; i++) {... */\n      jump(tag_134)\n    tag_135:\n      pop\n        /* \"contracts/ElectronicVoting.sol\":1430:1457  Types.Candidate[] memory cc */\n      0x00\n        /* \"contracts/ElectronicVoting.sol\":1496:1529  _politicianOfMyConstituencyLength */\n      dup2\n        /* \"contracts/ElectronicVoting.sol\":1460:1540  new Types.Candidate[](... */\n      0xffffffffffffffff\n      dup2\n      gt\n      iszero\n      tag_139\n      jumpi\n      tag_140\n      tag_79\n      jump\t// in\n    tag_140:\n    tag_139:\n      mload(0x40)\n      swap1\n      dup1\n      dup3\n      mstore\n      dup1\n      0x20\n      mul\n      0x20\n      add\n      dup3\n      add\n      0x40\n      mstore\n      dup1\n      iszero\n      tag_141\n      jumpi\n      dup2\n      0x20\n      add\n    tag_142:\n      tag_143\n      tag_67\n      jump\t// in\n    tag_143:\n      dup2\n      mstore\n      0x20\n      add\n      swap1\n      0x01\n      swap1\n      sub\n      swap1\n      dup2\n      tag_142\n      jumpi\n      swap1\n      pop\n    tag_141:\n      pop\n        /* \"contracts/ElectronicVoting.sol\":1430:1540  Types.Candidate[] memory cc = new Types.Candidate[](... */\n      swap1\n      pop\n        /* \"contracts/ElectronicVoting.sol\":1553:1566  uint256 _indx */\n      0x00\n        /* \"contracts/ElectronicVoting.sol\":1586:1595  uint256 i */\n      dup1\n        /* \"contracts/ElectronicVoting.sol\":1581:1725  for (uint256 i = 0; i < candidates.length; i++) {... */\n    tag_144:\n        /* \"contracts/ElectronicVoting.sol\":1605:1615  candidates */\n      0x00\n        /* \"contracts/ElectronicVoting.sol\":1605:1622  candidates.length */\n      dup1\n      sload\n      swap1\n      pop\n        /* \"contracts/ElectronicVoting.sol\":1601:1602  i */\n      dup2\n        /* \"contracts/ElectronicVoting.sol\":1601:1622  i < candidates.length */\n      lt\n        /* \"contracts/ElectronicVoting.sol\":1581:1725  for (uint256 i = 0; i < candidates.length; i++) {... */\n      iszero\n      tag_145\n      jumpi\n        /* \"contracts/ElectronicVoting.sol\":1674:1684  candidates */\n      0x00\n        /* \"contracts/ElectronicVoting.sol\":1685:1686  i */\n      dup2\n        /* \"contracts/ElectronicVoting.sol\":1674:1687  candidates[i] */\n      dup2\n      sload\n      dup2\n      lt\n      tag_147\n      jumpi\n      tag_148\n      tag_89\n      jump\t// in\n    tag_148:\n    tag_147:\n      swap1\n      0x00\n      mstore\n      keccak256(0x00, 0x20)\n      swap1\n      0x02\n      mul\n      add\n        /* \"contracts/ElectronicVoting.sol\":1662:1687  cc[_indx] = candidates[i] */\n      mload(0x40)\n      dup1\n      0x40\n      add\n      0x40\n      mstore\n      swap1\n      dup2\n      0x00\n      dup3\n      add\n      dup1\n      sload\n      tag_150\n      swap1\n      tag_56\n      jump\t// in\n    tag_150:\n      dup1\n      0x1f\n      add\n      0x20\n      dup1\n      swap2\n      div\n      mul\n      0x20\n      add\n      mload(0x40)\n      swap1\n      dup2\n      add\n      0x40\n      mstore\n      dup1\n      swap3\n      swap2\n      swap1\n      dup2\n      dup2\n      mstore\n      0x20\n      add\n      dup3\n      dup1\n      sload\n      tag_151\n      swap1\n      tag_56\n      jump\t// in\n    tag_151:\n      dup1\n      iszero\n      tag_152\n      jumpi\n      dup1\n      0x1f\n      lt\n      tag_153\n      jumpi\n      0x0100\n      dup1\n      dup4\n      sload\n      div\n      mul\n      dup4\n      mstore\n      swap2\n      0x20\n      add\n      swap2\n      jump(tag_152)\n    tag_153:\n      dup3\n      add\n      swap2\n      swap1\n      0x00\n      mstore\n      keccak256(0x00, 0x20)\n      swap1\n    tag_154:\n      dup2\n      sload\n      dup2\n      mstore\n      swap1\n      0x01\n      add\n      swap1\n      0x20\n      add\n      dup1\n      dup4\n      gt\n      tag_154\n      jumpi\n      dup3\n      swap1\n      sub\n      0x1f\n      and\n      dup3\n      add\n      swap2\n    tag_152:\n      pop\n      pop\n      pop\n      pop\n      pop\n      dup2\n      mstore\n      0x20\n      add\n      0x01\n      dup3\n      add\n      sload\n      dup2\n      mstore\n      pop\n      pop\n        /* \"contracts/ElectronicVoting.sol\":1662:1664  cc */\n      dup4\n        /* \"contracts/ElectronicVoting.sol\":1665:1670  _indx */\n      dup4\n        /* \"contracts/ElectronicVoting.sol\":1662:1671  cc[_indx] */\n      dup2\n      mload\n      dup2\n      lt\n      tag_155\n      jumpi\n      tag_156\n      tag_89\n      jump\t// in\n    tag_156:\n    tag_155:\n      0x20\n      mul\n      0x20\n      add\n      add\n        /* \"contracts/ElectronicVoting.sol\":1662:1687  cc[_indx] = candidates[i] */\n      dup2\n      swap1\n      mstore\n      pop\n        /* \"contracts/ElectronicVoting.sol\":1706:1713  _indx++ */\n      dup2\n      dup1\n      tag_157\n      swap1\n      tag_105\n      jump\t// in\n    tag_157:\n      swap3\n      pop\n      pop\n        /* \"contracts/ElectronicVoting.sol\":1624:1627  i++ */\n      dup1\n      dup1\n      tag_158\n      swap1\n      tag_105\n      jump\t// in\n    tag_158:\n      swap2\n      pop\n      pop\n        /* \"contracts/ElectronicVoting.sol\":1581:1725  for (uint256 i = 0; i < candidates.length; i++) {... */\n      jump(tag_144)\n    tag_145:\n      pop\n        /* \"contracts/ElectronicVoting.sol\":1742:1744  cc */\n      dup2\n        /* \"contracts/ElectronicVoting.sol\":1735:1744  return cc */\n      swap4\n      pop\n      pop\n      pop\n      pop\n        /* \"contracts/ElectronicVoting.sol\":1134:1752  function getCandidateList()... */\n      swap1\n      jump\t// out\n    tag_67:\n      mload(0x40)\n      dup1\n      0x40\n      add\n      0x40\n      mstore\n      dup1\n      0x60\n      dup2\n      mstore\n      0x20\n      add\n      0x00\n      dup2\n      mstore\n      pop\n      swap1\n      jump\t// out\n    tag_83:\n      mload(0x40)\n      dup1\n      0x60\n      add\n      0x40\n      mstore\n      dup1\n      0x60\n      dup2\n      mstore\n      0x20\n      add\n      0x00\n      dup2\n      mstore\n      0x20\n      add\n      0x00\n      dup2\n      mstore\n      pop\n      swap1\n      jump\t// out\n        /* \"#utility.yul\":88:205   */\n    tag_160:\n        /* \"#utility.yul\":197:198   */\n      0x00\n        /* \"#utility.yul\":194:195   */\n      dup1\n        /* \"#utility.yul\":187:199   */\n      revert\n        /* \"#utility.yul\":334:411   */\n    tag_162:\n        /* \"#utility.yul\":371:378   */\n      0x00\n        /* \"#utility.yul\":400:405   */\n      dup2\n        /* \"#utility.yul\":389:405   */\n      swap1\n      pop\n        /* \"#utility.yul\":334:411   */\n      swap2\n      swap1\n      pop\n      jump\t// out\n        /* \"#utility.yul\":417:539   */\n    tag_163:\n        /* \"#utility.yul\":490:514   */\n      tag_199\n        /* \"#utility.yul\":508:513   */\n      dup2\n        /* \"#utility.yul\":490:514   */\n      tag_162\n      jump\t// in\n    tag_199:\n        /* \"#utility.yul\":483:488   */\n      dup2\n        /* \"#utility.yul\":480:515   */\n      eq\n        /* \"#utility.yul\":470:533   */\n      tag_200\n      jumpi\n        /* \"#utility.yul\":529:530   */\n      0x00\n        /* \"#utility.yul\":526:527   */\n      dup1\n        /* \"#utility.yul\":519:531   */\n      revert\n        /* \"#utility.yul\":470:533   */\n    tag_200:\n        /* \"#utility.yul\":417:539   */\n      pop\n      jump\t// out\n        /* \"#utility.yul\":545:684   */\n    tag_164:\n        /* \"#utility.yul\":591:596   */\n      0x00\n        /* \"#utility.yul\":629:635   */\n      dup2\n        /* \"#utility.yul\":616:636   */\n      calldataload\n        /* \"#utility.yul\":607:636   */\n      swap1\n      pop\n        /* \"#utility.yul\":645:678   */\n      tag_202\n        /* \"#utility.yul\":672:677   */\n      dup2\n        /* \"#utility.yul\":645:678   */\n      tag_163\n      jump\t// in\n    tag_202:\n        /* \"#utility.yul\":545:684   */\n      swap3\n      swap2\n      pop\n      pop\n      jump\t// out\n        /* \"#utility.yul\":690:1019   */\n    tag_15:\n        /* \"#utility.yul\":749:755   */\n      0x00\n        /* \"#utility.yul\":798:800   */\n      0x20\n        /* \"#utility.yul\":786:795   */\n      dup3\n        /* \"#utility.yul\":777:784   */\n      dup5\n        /* \"#utility.yul\":773:796   */\n      sub\n        /* \"#utility.yul\":769:801   */\n      slt\n        /* \"#utility.yul\":766:885   */\n      iszero\n      tag_204\n      jumpi\n        /* \"#utility.yul\":804:883   */\n      tag_205\n      tag_160\n      jump\t// in\n    tag_205:\n        /* \"#utility.yul\":766:885   */\n    tag_204:\n        /* \"#utility.yul\":924:925   */\n      0x00\n        /* \"#utility.yul\":949:1002   */\n      tag_206\n        /* \"#utility.yul\":994:1001   */\n      dup5\n        /* \"#utility.yul\":985:991   */\n      dup3\n        /* \"#utility.yul\":974:983   */\n      dup6\n        /* \"#utility.yul\":970:992   */\n      add\n        /* \"#utility.yul\":949:1002   */\n      tag_164\n      jump\t// in\n    tag_206:\n        /* \"#utility.yul\":939:1002   */\n      swap2\n      pop\n        /* \"#utility.yul\":895:1012   */\n      pop\n        /* \"#utility.yul\":690:1019   */\n      swap3\n      swap2\n      pop\n      pop\n      jump\t// out\n        /* \"#utility.yul\":1025:1124   */\n    tag_165:\n        /* \"#utility.yul\":1077:1083   */\n      0x00\n        /* \"#utility.yul\":1111:1116   */\n      dup2\n        /* \"#utility.yul\":1105:1117   */\n      mload\n        /* \"#utility.yul\":1095:1117   */\n      swap1\n      pop\n        /* \"#utility.yul\":1025:1124   */\n      swap2\n      swap1\n      pop\n      jump\t// out\n        /* \"#utility.yul\":1130:1299   */\n    tag_166:\n        /* \"#utility.yul\":1214:1225   */\n      0x00\n        /* \"#utility.yul\":1248:1254   */\n      dup3\n        /* \"#utility.yul\":1243:1246   */\n      dup3\n        /* \"#utility.yul\":1236:1255   */\n      mstore\n        /* \"#utility.yul\":1288:1292   */\n      0x20\n        /* \"#utility.yul\":1283:1286   */\n      dup3\n        /* \"#utility.yul\":1279:1293   */\n      add\n        /* \"#utility.yul\":1264:1293   */\n      swap1\n      pop\n        /* \"#utility.yul\":1130:1299   */\n      swap3\n      swap2\n      pop\n      pop\n      jump\t// out\n        /* \"#utility.yul\":1305:1551   */\n    tag_167:\n        /* \"#utility.yul\":1386:1387   */\n      0x00\n        /* \"#utility.yul\":1396:1509   */\n    tag_210:\n        /* \"#utility.yul\":1410:1416   */\n      dup4\n        /* \"#utility.yul\":1407:1408   */\n      dup2\n        /* \"#utility.yul\":1404:1417   */\n      lt\n        /* \"#utility.yul\":1396:1509   */\n      iszero\n      tag_212\n      jumpi\n        /* \"#utility.yul\":1495:1496   */\n      dup1\n        /* \"#utility.yul\":1490:1493   */\n      dup3\n        /* \"#utility.yul\":1486:1497   */\n      add\n        /* \"#utility.yul\":1480:1498   */\n      mload\n        /* \"#utility.yul\":1476:1477   */\n      dup2\n        /* \"#utility.yul\":1471:1474   */\n      dup5\n        /* \"#utility.yul\":1467:1478   */\n      add\n        /* \"#utility.yul\":1460:1499   */\n      mstore\n        /* \"#utility.yul\":1432:1434   */\n      0x20\n        /* \"#utility.yul\":1429:1430   */\n      dup2\n        /* \"#utility.yul\":1425:1435   */\n      add\n        /* \"#utility.yul\":1420:1435   */\n      swap1\n      pop\n        /* \"#utility.yul\":1396:1509   */\n      jump(tag_210)\n    tag_212:\n        /* \"#utility.yul\":1543:1544   */\n      0x00\n        /* \"#utility.yul\":1534:1540   */\n      dup5\n        /* \"#utility.yul\":1529:1532   */\n      dup5\n        /* \"#utility.yul\":1525:1541   */\n      add\n        /* \"#utility.yul\":1518:1545   */\n      mstore\n        /* \"#utility.yul\":1367:1551   */\n      pop\n        /* \"#utility.yul\":1305:1551   */\n      pop\n      pop\n      pop\n      jump\t// out\n        /* \"#utility.yul\":1557:1659   */\n    tag_168:\n        /* \"#utility.yul\":1598:1604   */\n      0x00\n        /* \"#utility.yul\":1649:1651   */\n      0x1f\n        /* \"#utility.yul\":1645:1652   */\n      not\n        /* \"#utility.yul\":1640:1642   */\n      0x1f\n        /* \"#utility.yul\":1633:1638   */\n      dup4\n        /* \"#utility.yul\":1629:1643   */\n      add\n        /* \"#utility.yul\":1625:1653   */\n      and\n        /* \"#utility.yul\":1615:1653   */\n      swap1\n      pop\n        /* \"#utility.yul\":1557:1659   */\n      swap2\n      swap1\n      pop\n      jump\t// out\n        /* \"#utility.yul\":1665:2042   */\n    tag_169:\n        /* \"#utility.yul\":1753:1756   */\n      0x00\n        /* \"#utility.yul\":1781:1820   */\n      tag_215\n        /* \"#utility.yul\":1814:1819   */\n      dup3\n        /* \"#utility.yul\":1781:1820   */\n      tag_165\n      jump\t// in\n    tag_215:\n        /* \"#utility.yul\":1836:1907   */\n      tag_216\n        /* \"#utility.yul\":1900:1906   */\n      dup2\n        /* \"#utility.yul\":1895:1898   */\n      dup6\n        /* \"#utility.yul\":1836:1907   */\n      tag_166\n      jump\t// in\n    tag_216:\n        /* \"#utility.yul\":1829:1907   */\n      swap4\n      pop\n        /* \"#utility.yul\":1916:1981   */\n      tag_217\n        /* \"#utility.yul\":1974:1980   */\n      dup2\n        /* \"#utility.yul\":1969:1972   */\n      dup6\n        /* \"#utility.yul\":1962:1966   */\n      0x20\n        /* \"#utility.yul\":1955:1960   */\n      dup7\n        /* \"#utility.yul\":1951:1967   */\n      add\n        /* \"#utility.yul\":1916:1981   */\n      tag_167\n      jump\t// in\n    tag_217:\n        /* \"#utility.yul\":2006:2035   */\n      tag_218\n        /* \"#utility.yul\":2028:2034   */\n      dup2\n        /* \"#utility.yul\":2006:2035   */\n      tag_168\n      jump\t// in\n    tag_218:\n        /* \"#utility.yul\":2001:2004   */\n      dup5\n        /* \"#utility.yul\":1997:2036   */\n      add\n        /* \"#utility.yul\":1990:2036   */\n      swap2\n      pop\n        /* \"#utility.yul\":1757:2042   */\n      pop\n        /* \"#utility.yul\":1665:2042   */\n      swap3\n      swap2\n      pop\n      pop\n      jump\t// out\n        /* \"#utility.yul\":2048:2166   */\n    tag_170:\n        /* \"#utility.yul\":2135:2159   */\n      tag_220\n        /* \"#utility.yul\":2153:2158   */\n      dup2\n        /* \"#utility.yul\":2135:2159   */\n      tag_162\n      jump\t// in\n    tag_220:\n        /* \"#utility.yul\":2130:2133   */\n      dup3\n        /* \"#utility.yul\":2123:2160   */\n      mstore\n        /* \"#utility.yul\":2048:2166   */\n      pop\n      pop\n      jump\t// out\n        /* \"#utility.yul\":2172:2595   */\n    tag_18:\n        /* \"#utility.yul\":2313:2317   */\n      0x00\n        /* \"#utility.yul\":2351:2353   */\n      0x40\n        /* \"#utility.yul\":2340:2349   */\n      dup3\n        /* \"#utility.yul\":2336:2354   */\n      add\n        /* \"#utility.yul\":2328:2354   */\n      swap1\n      pop\n        /* \"#utility.yul\":2400:2409   */\n      dup2\n        /* \"#utility.yul\":2394:2398   */\n      dup2\n        /* \"#utility.yul\":2390:2410   */\n      sub\n        /* \"#utility.yul\":2386:2387   */\n      0x00\n        /* \"#utility.yul\":2375:2384   */\n      dup4\n        /* \"#utility.yul\":2371:2388   */\n      add\n        /* \"#utility.yul\":2364:2411   */\n      mstore\n        /* \"#utility.yul\":2428:2506   */\n      tag_222\n        /* \"#utility.yul\":2501:2505   */\n      dup2\n        /* \"#utility.yul\":2492:2498   */\n      dup6\n        /* \"#utility.yul\":2428:2506   */\n      tag_169\n      jump\t// in\n    tag_222:\n        /* \"#utility.yul\":2420:2506   */\n      swap1\n      pop\n        /* \"#utility.yul\":2516:2588   */\n      tag_223\n        /* \"#utility.yul\":2584:2586   */\n      0x20\n        /* \"#utility.yul\":2573:2582   */\n      dup4\n        /* \"#utility.yul\":2569:2587   */\n      add\n        /* \"#utility.yul\":2560:2566   */\n      dup5\n        /* \"#utility.yul\":2516:2588   */\n      tag_170\n      jump\t// in\n    tag_223:\n        /* \"#utility.yul\":2172:2595   */\n      swap4\n      swap3\n      pop\n      pop\n      pop\n      jump\t// out\n        /* \"#utility.yul\":2601:3075   */\n    tag_21:\n        /* \"#utility.yul\":2669:2675   */\n      0x00\n        /* \"#utility.yul\":2677:2683   */\n      dup1\n        /* \"#utility.yul\":2726:2728   */\n      0x40\n        /* \"#utility.yul\":2714:2723   */\n      dup4\n        /* \"#utility.yul\":2705:2712   */\n      dup6\n        /* \"#utility.yul\":2701:2724   */\n      sub\n        /* \"#utility.yul\":2697:2729   */\n      slt\n        /* \"#utility.yul\":2694:2813   */\n      iszero\n      tag_225\n      jumpi\n        /* \"#utility.yul\":2732:2811   */\n      tag_226\n      tag_160\n      jump\t// in\n    tag_226:\n        /* \"#utility.yul\":2694:2813   */\n    tag_225:\n        /* \"#utility.yul\":2852:2853   */\n      0x00\n        /* \"#utility.yul\":2877:2930   */\n      tag_227\n        /* \"#utility.yul\":2922:2929   */\n      dup6\n        /* \"#utility.yul\":2913:2919   */\n      dup3\n        /* \"#utility.yul\":2902:2911   */\n      dup7\n        /* \"#utility.yul\":2898:2920   */\n      add\n        /* \"#utility.yul\":2877:2930   */\n      tag_164\n      jump\t// in\n    tag_227:\n        /* \"#utility.yul\":2867:2930   */\n      swap3\n      pop\n        /* \"#utility.yul\":2823:2940   */\n      pop\n        /* \"#utility.yul\":2979:2981   */\n      0x20\n        /* \"#utility.yul\":3005:3058   */\n      tag_228\n        /* \"#utility.yul\":3050:3057   */\n      dup6\n        /* \"#utility.yul\":3041:3047   */\n      dup3\n        /* \"#utility.yul\":3030:3039   */\n      dup7\n        /* \"#utility.yul\":3026:3048   */\n      add\n        /* \"#utility.yul\":3005:3058   */\n      tag_164\n      jump\t// in\n    tag_228:\n        /* \"#utility.yul\":2995:3058   */\n      swap2\n      pop\n        /* \"#utility.yul\":2950:3068   */\n      pop\n        /* \"#utility.yul\":2601:3075   */\n      swap3\n      pop\n      swap3\n      swap1\n      pop\n      jump\t// out\n        /* \"#utility.yul\":3081:3171   */\n    tag_171:\n        /* \"#utility.yul\":3115:3122   */\n      0x00\n        /* \"#utility.yul\":3158:3163   */\n      dup2\n        /* \"#utility.yul\":3151:3164   */\n      iszero\n        /* \"#utility.yul\":3144:3165   */\n      iszero\n        /* \"#utility.yul\":3133:3165   */\n      swap1\n      pop\n        /* \"#utility.yul\":3081:3171   */\n      swap2\n      swap1\n      pop\n      jump\t// out\n        /* \"#utility.yul\":3177:3286   */\n    tag_172:\n        /* \"#utility.yul\":3258:3279   */\n      tag_231\n        /* \"#utility.yul\":3273:3278   */\n      dup2\n        /* \"#utility.yul\":3258:3279   */\n      tag_171\n      jump\t// in\n    tag_231:\n        /* \"#utility.yul\":3253:3256   */\n      dup3\n        /* \"#utility.yul\":3246:3280   */\n      mstore\n        /* \"#utility.yul\":3177:3286   */\n      pop\n      pop\n      jump\t// out\n        /* \"#utility.yul\":3292:3451   */\n    tag_173:\n        /* \"#utility.yul\":3366:3377   */\n      0x00\n        /* \"#utility.yul\":3400:3406   */\n      dup3\n        /* \"#utility.yul\":3395:3398   */\n      dup3\n        /* \"#utility.yul\":3388:3407   */\n      mstore\n        /* \"#utility.yul\":3440:3444   */\n      0x20\n        /* \"#utility.yul\":3435:3438   */\n      dup3\n        /* \"#utility.yul\":3431:3445   */\n      add\n        /* \"#utility.yul\":3416:3445   */\n      swap1\n      pop\n        /* \"#utility.yul\":3292:3451   */\n      swap3\n      swap2\n      pop\n      pop\n      jump\t// out\n        /* \"#utility.yul\":3457:3814   */\n    tag_174:\n        /* \"#utility.yul\":3535:3538   */\n      0x00\n        /* \"#utility.yul\":3563:3602   */\n      tag_234\n        /* \"#utility.yul\":3596:3601   */\n      dup3\n        /* \"#utility.yul\":3563:3602   */\n      tag_165\n      jump\t// in\n    tag_234:\n        /* \"#utility.yul\":3618:3679   */\n      tag_235\n        /* \"#utility.yul\":3672:3678   */\n      dup2\n        /* \"#utility.yul\":3667:3670   */\n      dup6\n        /* \"#utility.yul\":3618:3679   */\n      tag_173\n      jump\t// in\n    tag_235:\n        /* \"#utility.yul\":3611:3679   */\n      swap4\n      pop\n        /* \"#utility.yul\":3688:3753   */\n      tag_236\n        /* \"#utility.yul\":3746:3752   */\n      dup2\n        /* \"#utility.yul\":3741:3744   */\n      dup6\n        /* \"#utility.yul\":3734:3738   */\n      0x20\n        /* \"#utility.yul\":3727:3732   */\n      dup7\n        /* \"#utility.yul\":3723:3739   */\n      add\n        /* \"#utility.yul\":3688:3753   */\n      tag_167\n      jump\t// in\n    tag_236:\n        /* \"#utility.yul\":3778:3807   */\n      tag_237\n        /* \"#utility.yul\":3800:3806   */\n      dup2\n        /* \"#utility.yul\":3778:3807   */\n      tag_168\n      jump\t// in\n    tag_237:\n        /* \"#utility.yul\":3773:3776   */\n      dup5\n        /* \"#utility.yul\":3769:3808   */\n      add\n        /* \"#utility.yul\":3762:3808   */\n      swap2\n      pop\n        /* \"#utility.yul\":3539:3814   */\n      pop\n        /* \"#utility.yul\":3457:3814   */\n      swap3\n      swap2\n      pop\n      pop\n      jump\t// out\n        /* \"#utility.yul\":3820:3928   */\n    tag_175:\n        /* \"#utility.yul\":3897:3921   */\n      tag_239\n        /* \"#utility.yul\":3915:3920   */\n      dup2\n        /* \"#utility.yul\":3897:3921   */\n      tag_162\n      jump\t// in\n    tag_239:\n        /* \"#utility.yul\":3892:3895   */\n      dup3\n        /* \"#utility.yul\":3885:3922   */\n      mstore\n        /* \"#utility.yul\":3820:3928   */\n      pop\n      pop\n      jump\t// out\n        /* \"#utility.yul\":3990:4605   */\n    tag_176:\n        /* \"#utility.yul\":4111:4114   */\n      0x00\n        /* \"#utility.yul\":4147:4151   */\n      0x40\n        /* \"#utility.yul\":4142:4145   */\n      dup4\n        /* \"#utility.yul\":4138:4152   */\n      add\n        /* \"#utility.yul\":4234:4238   */\n      0x00\n        /* \"#utility.yul\":4227:4232   */\n      dup4\n        /* \"#utility.yul\":4223:4239   */\n      add\n        /* \"#utility.yul\":4217:4240   */\n      mload\n        /* \"#utility.yul\":4287:4290   */\n      dup5\n        /* \"#utility.yul\":4281:4285   */\n      dup3\n        /* \"#utility.yul\":4277:4291   */\n      sub\n        /* \"#utility.yul\":4270:4274   */\n      0x00\n        /* \"#utility.yul\":4265:4268   */\n      dup7\n        /* \"#utility.yul\":4261:4275   */\n      add\n        /* \"#utility.yul\":4254:4292   */\n      mstore\n        /* \"#utility.yul\":4313:4386   */\n      tag_241\n        /* \"#utility.yul\":4381:4385   */\n      dup3\n        /* \"#utility.yul\":4367:4379   */\n      dup3\n        /* \"#utility.yul\":4313:4386   */\n      tag_174\n      jump\t// in\n    tag_241:\n        /* \"#utility.yul\":4305:4386   */\n      swap2\n      pop\n        /* \"#utility.yul\":4162:4397   */\n      pop\n        /* \"#utility.yul\":4486:4490   */\n      0x20\n        /* \"#utility.yul\":4479:4484   */\n      dup4\n        /* \"#utility.yul\":4475:4491   */\n      add\n        /* \"#utility.yul\":4469:4492   */\n      mload\n        /* \"#utility.yul\":4505:4568   */\n      tag_242\n        /* \"#utility.yul\":4562:4566   */\n      0x20\n        /* \"#utility.yul\":4557:4560   */\n      dup7\n        /* \"#utility.yul\":4553:4567   */\n      add\n        /* \"#utility.yul\":4539:4551   */\n      dup3\n        /* \"#utility.yul\":4505:4568   */\n      tag_175\n      jump\t// in\n    tag_242:\n        /* \"#utility.yul\":4407:4578   */\n      pop\n        /* \"#utility.yul\":4595:4599   */\n      dup1\n        /* \"#utility.yul\":4588:4599   */\n      swap2\n      pop\n        /* \"#utility.yul\":4116:4605   */\n      pop\n        /* \"#utility.yul\":3990:4605   */\n      swap3\n      swap2\n      pop\n      pop\n      jump\t// out\n        /* \"#utility.yul\":4611:5086   */\n    tag_27:\n        /* \"#utility.yul\":4778:4782   */\n      0x00\n        /* \"#utility.yul\":4816:4818   */\n      0x40\n        /* \"#utility.yul\":4805:4814   */\n      dup3\n        /* \"#utility.yul\":4801:4819   */\n      add\n        /* \"#utility.yul\":4793:4819   */\n      swap1\n      pop\n        /* \"#utility.yul\":4829:4894   */\n      tag_244\n        /* \"#utility.yul\":4891:4892   */\n      0x00\n        /* \"#utility.yul\":4880:4889   */\n      dup4\n        /* \"#utility.yul\":4876:4893   */\n      add\n        /* \"#utility.yul\":4867:4873   */\n      dup6\n        /* \"#utility.yul\":4829:4894   */\n      tag_172\n      jump\t// in\n    tag_244:\n        /* \"#utility.yul\":4941:4950   */\n      dup2\n        /* \"#utility.yul\":4935:4939   */\n      dup2\n        /* \"#utility.yul\":4931:4951   */\n      sub\n        /* \"#utility.yul\":4926:4928   */\n      0x20\n        /* \"#utility.yul\":4915:4924   */\n      dup4\n        /* \"#utility.yul\":4911:4929   */\n      add\n        /* \"#utility.yul\":4904:4952   */\n      mstore\n        /* \"#utility.yul\":4969:5079   */\n      tag_245\n        /* \"#utility.yul\":5074:5078   */\n      dup2\n        /* \"#utility.yul\":5065:5071   */\n      dup5\n        /* \"#utility.yul\":4969:5079   */\n      tag_176\n      jump\t// in\n    tag_245:\n        /* \"#utility.yul\":4961:5079   */\n      swap1\n      pop\n        /* \"#utility.yul\":4611:5086   */\n      swap4\n      swap3\n      pop\n      pop\n      pop\n      jump\t// out\n        /* \"#utility.yul\":5092:5230   */\n    tag_177:\n        /* \"#utility.yul\":5183:5189   */\n      0x00\n        /* \"#utility.yul\":5217:5222   */\n      dup2\n        /* \"#utility.yul\":5211:5223   */\n      mload\n        /* \"#utility.yul\":5201:5223   */\n      swap1\n      pop\n        /* \"#utility.yul\":5092:5230   */\n      swap2\n      swap1\n      pop\n      jump\t// out\n        /* \"#utility.yul\":5236:5444   */\n    tag_178:\n        /* \"#utility.yul\":5359:5370   */\n      0x00\n        /* \"#utility.yul\":5393:5399   */\n      dup3\n        /* \"#utility.yul\":5388:5391   */\n      dup3\n        /* \"#utility.yul\":5381:5400   */\n      mstore\n        /* \"#utility.yul\":5433:5437   */\n      0x20\n        /* \"#utility.yul\":5428:5431   */\n      dup3\n        /* \"#utility.yul\":5424:5438   */\n      add\n        /* \"#utility.yul\":5409:5438   */\n      swap1\n      pop\n        /* \"#utility.yul\":5236:5444   */\n      swap3\n      swap2\n      pop\n      pop\n      jump\t// out\n        /* \"#utility.yul\":5450:5606   */\n    tag_179:\n        /* \"#utility.yul\":5541:5545   */\n      0x00\n        /* \"#utility.yul\":5564:5567   */\n      dup2\n        /* \"#utility.yul\":5556:5567   */\n      swap1\n      pop\n        /* \"#utility.yul\":5594:5598   */\n      0x20\n        /* \"#utility.yul\":5589:5592   */\n      dup3\n        /* \"#utility.yul\":5585:5599   */\n      add\n        /* \"#utility.yul\":5577:5599   */\n      swap1\n      pop\n        /* \"#utility.yul\":5450:5606   */\n      swap2\n      swap1\n      pop\n      jump\t// out\n        /* \"#utility.yul\":5664:6444   */\n    tag_180:\n        /* \"#utility.yul\":5771:5774   */\n      0x00\n        /* \"#utility.yul\":5807:5811   */\n      0x60\n        /* \"#utility.yul\":5802:5805   */\n      dup4\n        /* \"#utility.yul\":5798:5812   */\n      add\n        /* \"#utility.yul\":5894:5898   */\n      0x00\n        /* \"#utility.yul\":5887:5892   */\n      dup4\n        /* \"#utility.yul\":5883:5899   */\n      add\n        /* \"#utility.yul\":5877:5900   */\n      mload\n        /* \"#utility.yul\":5947:5950   */\n      dup5\n        /* \"#utility.yul\":5941:5945   */\n      dup3\n        /* \"#utility.yul\":5937:5951   */\n      sub\n        /* \"#utility.yul\":5930:5934   */\n      0x00\n        /* \"#utility.yul\":5925:5928   */\n      dup7\n        /* \"#utility.yul\":5921:5935   */\n      add\n        /* \"#utility.yul\":5914:5952   */\n      mstore\n        /* \"#utility.yul\":5973:6046   */\n      tag_250\n        /* \"#utility.yul\":6041:6045   */\n      dup3\n        /* \"#utility.yul\":6027:6039   */\n      dup3\n        /* \"#utility.yul\":5973:6046   */\n      tag_174\n      jump\t// in\n    tag_250:\n        /* \"#utility.yul\":5965:6046   */\n      swap2\n      pop\n        /* \"#utility.yul\":5822:6057   */\n      pop\n        /* \"#utility.yul\":6144:6148   */\n      0x20\n        /* \"#utility.yul\":6137:6142   */\n      dup4\n        /* \"#utility.yul\":6133:6149   */\n      add\n        /* \"#utility.yul\":6127:6150   */\n      mload\n        /* \"#utility.yul\":6163:6226   */\n      tag_251\n        /* \"#utility.yul\":6220:6224   */\n      0x20\n        /* \"#utility.yul\":6215:6218   */\n      dup7\n        /* \"#utility.yul\":6211:6225   */\n      add\n        /* \"#utility.yul\":6197:6209   */\n      dup3\n        /* \"#utility.yul\":6163:6226   */\n      tag_175\n      jump\t// in\n    tag_251:\n        /* \"#utility.yul\":6067:6236   */\n      pop\n        /* \"#utility.yul\":6325:6329   */\n      0x40\n        /* \"#utility.yul\":6318:6323   */\n      dup4\n        /* \"#utility.yul\":6314:6330   */\n      add\n        /* \"#utility.yul\":6308:6331   */\n      mload\n        /* \"#utility.yul\":6344:6407   */\n      tag_252\n        /* \"#utility.yul\":6401:6405   */\n      0x40\n        /* \"#utility.yul\":6396:6399   */\n      dup7\n        /* \"#utility.yul\":6392:6406   */\n      add\n        /* \"#utility.yul\":6378:6390   */\n      dup3\n        /* \"#utility.yul\":6344:6407   */\n      tag_175\n      jump\t// in\n    tag_252:\n        /* \"#utility.yul\":6246:6417   */\n      pop\n        /* \"#utility.yul\":6434:6438   */\n      dup1\n        /* \"#utility.yul\":6427:6438   */\n      swap2\n      pop\n        /* \"#utility.yul\":5776:6444   */\n      pop\n        /* \"#utility.yul\":5664:6444   */\n      swap3\n      swap2\n      pop\n      pop\n      jump\t// out\n        /* \"#utility.yul\":6450:6702   */\n    tag_181:\n        /* \"#utility.yul\":6567:6577   */\n      0x00\n        /* \"#utility.yul\":6602:6696   */\n      tag_254\n        /* \"#utility.yul\":6692:6695   */\n      dup4\n        /* \"#utility.yul\":6684:6690   */\n      dup4\n        /* \"#utility.yul\":6602:6696   */\n      tag_180\n      jump\t// in\n    tag_254:\n        /* \"#utility.yul\":6588:6696   */\n      swap1\n      pop\n        /* \"#utility.yul\":6450:6702   */\n      swap3\n      swap2\n      pop\n      pop\n      jump\t// out\n        /* \"#utility.yul\":6708:6845   */\n    tag_182:\n        /* \"#utility.yul\":6802:6806   */\n      0x00\n        /* \"#utility.yul\":6834:6838   */\n      0x20\n        /* \"#utility.yul\":6829:6832   */\n      dup3\n        /* \"#utility.yul\":6825:6839   */\n      add\n        /* \"#utility.yul\":6817:6839   */\n      swap1\n      pop\n        /* \"#utility.yul\":6708:6845   */\n      swap2\n      swap1\n      pop\n      jump\t// out\n        /* \"#utility.yul\":6907:8010   */\n    tag_183:\n        /* \"#utility.yul\":7074:7077   */\n      0x00\n        /* \"#utility.yul\":7103:7181   */\n      tag_257\n        /* \"#utility.yul\":7175:7180   */\n      dup3\n        /* \"#utility.yul\":7103:7181   */\n      tag_177\n      jump\t// in\n    tag_257:\n        /* \"#utility.yul\":7197:7307   */\n      tag_258\n        /* \"#utility.yul\":7300:7306   */\n      dup2\n        /* \"#utility.yul\":7295:7298   */\n      dup6\n        /* \"#utility.yul\":7197:7307   */\n      tag_178\n      jump\t// in\n    tag_258:\n        /* \"#utility.yul\":7190:7307   */\n      swap4\n      pop\n        /* \"#utility.yul\":7333:7336   */\n      dup4\n        /* \"#utility.yul\":7378:7382   */\n      0x20\n        /* \"#utility.yul\":7370:7376   */\n      dup3\n        /* \"#utility.yul\":7366:7383   */\n      mul\n        /* \"#utility.yul\":7361:7364   */\n      dup6\n        /* \"#utility.yul\":7357:7384   */\n      add\n        /* \"#utility.yul\":7408:7488   */\n      tag_259\n        /* \"#utility.yul\":7482:7487   */\n      dup6\n        /* \"#utility.yul\":7408:7488   */\n      tag_179\n      jump\t// in\n    tag_259:\n        /* \"#utility.yul\":7511:7518   */\n      dup1\n        /* \"#utility.yul\":7542:7543   */\n      0x00\n        /* \"#utility.yul\":7527:7965   */\n    tag_260:\n        /* \"#utility.yul\":7552:7558   */\n      dup6\n        /* \"#utility.yul\":7549:7550   */\n      dup2\n        /* \"#utility.yul\":7546:7559   */\n      lt\n        /* \"#utility.yul\":7527:7965   */\n      iszero\n      tag_262\n      jumpi\n        /* \"#utility.yul\":7623:7632   */\n      dup5\n        /* \"#utility.yul\":7617:7621   */\n      dup5\n        /* \"#utility.yul\":7613:7633   */\n      sub\n        /* \"#utility.yul\":7608:7611   */\n      dup10\n        /* \"#utility.yul\":7601:7634   */\n      mstore\n        /* \"#utility.yul\":7674:7680   */\n      dup2\n        /* \"#utility.yul\":7668:7681   */\n      mload\n        /* \"#utility.yul\":7702:7814   */\n      tag_263\n        /* \"#utility.yul\":7809:7813   */\n      dup6\n        /* \"#utility.yul\":7794:7807   */\n      dup3\n        /* \"#utility.yul\":7702:7814   */\n      tag_181\n      jump\t// in\n    tag_263:\n        /* \"#utility.yul\":7694:7814   */\n      swap5\n      pop\n        /* \"#utility.yul\":7837:7921   */\n      tag_264\n        /* \"#utility.yul\":7914:7920   */\n      dup4\n        /* \"#utility.yul\":7837:7921   */\n      tag_182\n      jump\t// in\n    tag_264:\n        /* \"#utility.yul\":7827:7921   */\n      swap3\n      pop\n        /* \"#utility.yul\":7950:7954   */\n      0x20\n        /* \"#utility.yul\":7945:7948   */\n      dup11\n        /* \"#utility.yul\":7941:7955   */\n      add\n        /* \"#utility.yul\":7934:7955   */\n      swap10\n      pop\n        /* \"#utility.yul\":7587:7965   */\n      pop\n        /* \"#utility.yul\":7574:7575   */\n      0x01\n        /* \"#utility.yul\":7571:7572   */\n      dup2\n        /* \"#utility.yul\":7567:7576   */\n      add\n        /* \"#utility.yul\":7562:7576   */\n      swap1\n      pop\n        /* \"#utility.yul\":7527:7965   */\n      jump(tag_260)\n    tag_262:\n        /* \"#utility.yul\":7531:7545   */\n      pop\n        /* \"#utility.yul\":7981:7985   */\n      dup3\n        /* \"#utility.yul\":7974:7985   */\n      swap8\n      pop\n        /* \"#utility.yul\":8001:8004   */\n      dup8\n        /* \"#utility.yul\":7994:8004   */\n      swap6\n      pop\n        /* \"#utility.yul\":7079:8010   */\n      pop\n      pop\n      pop\n      pop\n      pop\n        /* \"#utility.yul\":6907:8010   */\n      swap3\n      swap2\n      pop\n      pop\n      jump\t// out\n        /* \"#utility.yul\":8016:8485   */\n    tag_32:\n        /* \"#utility.yul\":8207:8211   */\n      0x00\n        /* \"#utility.yul\":8245:8247   */\n      0x20\n        /* \"#utility.yul\":8234:8243   */\n      dup3\n        /* \"#utility.yul\":8230:8248   */\n      add\n        /* \"#utility.yul\":8222:8248   */\n      swap1\n      pop\n        /* \"#utility.yul\":8294:8303   */\n      dup2\n        /* \"#utility.yul\":8288:8292   */\n      dup2\n        /* \"#utility.yul\":8284:8304   */\n      sub\n        /* \"#utility.yul\":8280:8281   */\n      0x00\n        /* \"#utility.yul\":8269:8278   */\n      dup4\n        /* \"#utility.yul\":8265:8282   */\n      add\n        /* \"#utility.yul\":8258:8305   */\n      mstore\n        /* \"#utility.yul\":8322:8478   */\n      tag_266\n        /* \"#utility.yul\":8473:8477   */\n      dup2\n        /* \"#utility.yul\":8464:8470   */\n      dup5\n        /* \"#utility.yul\":8322:8478   */\n      tag_183\n      jump\t// in\n    tag_266:\n        /* \"#utility.yul\":8314:8478   */\n      swap1\n      pop\n        /* \"#utility.yul\":8016:8485   */\n      swap3\n      swap2\n      pop\n      pop\n      jump\t// out\n        /* \"#utility.yul\":8491:9110   */\n    tag_35:\n        /* \"#utility.yul\":8568:8574   */\n      0x00\n        /* \"#utility.yul\":8576:8582   */\n      dup1\n        /* \"#utility.yul\":8584:8590   */\n      0x00\n        /* \"#utility.yul\":8633:8635   */\n      0x60\n        /* \"#utility.yul\":8621:8630   */\n      dup5\n        /* \"#utility.yul\":8612:8619   */\n      dup7\n        /* \"#utility.yul\":8608:8631   */\n      sub\n        /* \"#utility.yul\":8604:8636   */\n      slt\n        /* \"#utility.yul\":8601:8720   */\n      iszero\n      tag_268\n      jumpi\n        /* \"#utility.yul\":8639:8718   */\n      tag_269\n      tag_160\n      jump\t// in\n    tag_269:\n        /* \"#utility.yul\":8601:8720   */\n    tag_268:\n        /* \"#utility.yul\":8759:8760   */\n      0x00\n        /* \"#utility.yul\":8784:8837   */\n      tag_270\n        /* \"#utility.yul\":8829:8836   */\n      dup7\n        /* \"#utility.yul\":8820:8826   */\n      dup3\n        /* \"#utility.yul\":8809:8818   */\n      dup8\n        /* \"#utility.yul\":8805:8827   */\n      add\n        /* \"#utility.yul\":8784:8837   */\n      tag_164\n      jump\t// in\n    tag_270:\n        /* \"#utility.yul\":8774:8837   */\n      swap4\n      pop\n        /* \"#utility.yul\":8730:8847   */\n      pop\n        /* \"#utility.yul\":8886:8888   */\n      0x20\n        /* \"#utility.yul\":8912:8965   */\n      tag_271\n        /* \"#utility.yul\":8957:8964   */\n      dup7\n        /* \"#utility.yul\":8948:8954   */\n      dup3\n        /* \"#utility.yul\":8937:8946   */\n      dup8\n        /* \"#utility.yul\":8933:8955   */\n      add\n        /* \"#utility.yul\":8912:8965   */\n      tag_164\n      jump\t// in\n    tag_271:\n        /* \"#utility.yul\":8902:8965   */\n      swap3\n      pop\n        /* \"#utility.yul\":8857:8975   */\n      pop\n        /* \"#utility.yul\":9014:9016   */\n      0x40\n        /* \"#utility.yul\":9040:9093   */\n      tag_272\n        /* \"#utility.yul\":9085:9092   */\n      dup7\n        /* \"#utility.yul\":9076:9082   */\n      dup3\n        /* \"#utility.yul\":9065:9074   */\n      dup8\n        /* \"#utility.yul\":9061:9083   */\n      add\n        /* \"#utility.yul\":9040:9093   */\n      tag_164\n      jump\t// in\n    tag_272:\n        /* \"#utility.yul\":9030:9093   */\n      swap2\n      pop\n        /* \"#utility.yul\":8985:9103   */\n      pop\n        /* \"#utility.yul\":8491:9110   */\n      swap3\n      pop\n      swap3\n      pop\n      swap3\n      jump\t// out\n        /* \"#utility.yul\":9116:9338   */\n    tag_40:\n        /* \"#utility.yul\":9209:9213   */\n      0x00\n        /* \"#utility.yul\":9247:9249   */\n      0x20\n        /* \"#utility.yul\":9236:9245   */\n      dup3\n        /* \"#utility.yul\":9232:9250   */\n      add\n        /* \"#utility.yul\":9224:9250   */\n      swap1\n      pop\n        /* \"#utility.yul\":9260:9331   */\n      tag_274\n        /* \"#utility.yul\":9328:9329   */\n      0x00\n        /* \"#utility.yul\":9317:9326   */\n      dup4\n        /* \"#utility.yul\":9313:9330   */\n      add\n        /* \"#utility.yul\":9304:9310   */\n      dup5\n        /* \"#utility.yul\":9260:9331   */\n      tag_170\n      jump\t// in\n    tag_274:\n        /* \"#utility.yul\":9116:9338   */\n      swap3\n      swap2\n      pop\n      pop\n      jump\t// out\n        /* \"#utility.yul\":9344:9554   */\n    tag_48:\n        /* \"#utility.yul\":9431:9435   */\n      0x00\n        /* \"#utility.yul\":9469:9471   */\n      0x20\n        /* \"#utility.yul\":9458:9467   */\n      dup3\n        /* \"#utility.yul\":9454:9472   */\n      add\n        /* \"#utility.yul\":9446:9472   */\n      swap1\n      pop\n        /* \"#utility.yul\":9482:9547   */\n      tag_276\n        /* \"#utility.yul\":9544:9545   */\n      0x00\n        /* \"#utility.yul\":9533:9542   */\n      dup4\n        /* \"#utility.yul\":9529:9546   */\n      add\n        /* \"#utility.yul\":9520:9526   */\n      dup5\n        /* \"#utility.yul\":9482:9547   */\n      tag_172\n      jump\t// in\n    tag_276:\n        /* \"#utility.yul\":9344:9554   */\n      swap3\n      swap2\n      pop\n      pop\n      jump\t// out\n        /* \"#utility.yul\":9560:9700   */\n    tag_184:\n        /* \"#utility.yul\":9653:9659   */\n      0x00\n        /* \"#utility.yul\":9687:9692   */\n      dup2\n        /* \"#utility.yul\":9681:9693   */\n      mload\n        /* \"#utility.yul\":9671:9693   */\n      swap1\n      pop\n        /* \"#utility.yul\":9560:9700   */\n      swap2\n      swap1\n      pop\n      jump\t// out\n        /* \"#utility.yul\":9706:9916   */\n    tag_185:\n        /* \"#utility.yul\":9831:9842   */\n      0x00\n        /* \"#utility.yul\":9865:9871   */\n      dup3\n        /* \"#utility.yul\":9860:9863   */\n      dup3\n        /* \"#utility.yul\":9853:9872   */\n      mstore\n        /* \"#utility.yul\":9905:9909   */\n      0x20\n        /* \"#utility.yul\":9900:9903   */\n      dup3\n        /* \"#utility.yul\":9896:9910   */\n      add\n        /* \"#utility.yul\":9881:9910   */\n      swap1\n      pop\n        /* \"#utility.yul\":9706:9916   */\n      swap3\n      swap2\n      pop\n      pop\n      jump\t// out\n        /* \"#utility.yul\":9922:10080   */\n    tag_186:\n        /* \"#utility.yul\":10015:10019   */\n      0x00\n        /* \"#utility.yul\":10038:10041   */\n      dup2\n        /* \"#utility.yul\":10030:10041   */\n      swap1\n      pop\n        /* \"#utility.yul\":10068:10072   */\n      0x20\n        /* \"#utility.yul\":10063:10066   */\n      dup3\n        /* \"#utility.yul\":10059:10073   */\n      add\n        /* \"#utility.yul\":10051:10073   */\n      swap1\n      pop\n        /* \"#utility.yul\":9922:10080   */\n      swap2\n      swap1\n      pop\n      jump\t// out\n        /* \"#utility.yul\":10142:10747   */\n    tag_187:\n        /* \"#utility.yul\":10253:10256   */\n      0x00\n        /* \"#utility.yul\":10289:10293   */\n      0x40\n        /* \"#utility.yul\":10284:10287   */\n      dup4\n        /* \"#utility.yul\":10280:10294   */\n      add\n        /* \"#utility.yul\":10376:10380   */\n      0x00\n        /* \"#utility.yul\":10369:10374   */\n      dup4\n        /* \"#utility.yul\":10365:10381   */\n      add\n        /* \"#utility.yul\":10359:10382   */\n      mload\n        /* \"#utility.yul\":10429:10432   */\n      dup5\n        /* \"#utility.yul\":10423:10427   */\n      dup3\n        /* \"#utility.yul\":10419:10433   */\n      sub\n        /* \"#utility.yul\":10412:10416   */\n      0x00\n        /* \"#utility.yul\":10407:10410   */\n      dup7\n        /* \"#utility.yul\":10403:10417   */\n      add\n        /* \"#utility.yul\":10396:10434   */\n      mstore\n        /* \"#utility.yul\":10455:10528   */\n      tag_281\n        /* \"#utility.yul\":10523:10527   */\n      dup3\n        /* \"#utility.yul\":10509:10521   */\n      dup3\n        /* \"#utility.yul\":10455:10528   */\n      tag_174\n      jump\t// in\n    tag_281:\n        /* \"#utility.yul\":10447:10528   */\n      swap2\n      pop\n        /* \"#utility.yul\":10304:10539   */\n      pop\n        /* \"#utility.yul\":10628:10632   */\n      0x20\n        /* \"#utility.yul\":10621:10626   */\n      dup4\n        /* \"#utility.yul\":10617:10633   */\n      add\n        /* \"#utility.yul\":10611:10634   */\n      mload\n        /* \"#utility.yul\":10647:10710   */\n      tag_282\n        /* \"#utility.yul\":10704:10708   */\n      0x20\n        /* \"#utility.yul\":10699:10702   */\n      dup7\n        /* \"#utility.yul\":10695:10709   */\n      add\n        /* \"#utility.yul\":10681:10693   */\n      dup3\n        /* \"#utility.yul\":10647:10710   */\n      tag_175\n      jump\t// in\n    tag_282:\n        /* \"#utility.yul\":10549:10720   */\n      pop\n        /* \"#utility.yul\":10737:10741   */\n      dup1\n        /* \"#utility.yul\":10730:10741   */\n      swap2\n      pop\n        /* \"#utility.yul\":10258:10747   */\n      pop\n        /* \"#utility.yul\":10142:10747   */\n      swap3\n      swap2\n      pop\n      pop\n      jump\t// out\n        /* \"#utility.yul\":10753:11013   */\n    tag_188:\n        /* \"#utility.yul\":10874:10884   */\n      0x00\n        /* \"#utility.yul\":10909:11007   */\n      tag_284\n        /* \"#utility.yul\":11003:11006   */\n      dup4\n        /* \"#utility.yul\":10995:11001   */\n      dup4\n        /* \"#utility.yul\":10909:11007   */\n      tag_187\n      jump\t// in\n    tag_284:\n        /* \"#utility.yul\":10895:11007   */\n      swap1\n      pop\n        /* \"#utility.yul\":10753:11013   */\n      swap3\n      swap2\n      pop\n      pop\n      jump\t// out\n        /* \"#utility.yul\":11019:11158   */\n    tag_189:\n        /* \"#utility.yul\":11115:11119   */\n      0x00\n        /* \"#utility.yul\":11147:11151   */\n      0x20\n        /* \"#utility.yul\":11142:11145   */\n      dup3\n        /* \"#utility.yul\":11138:11152   */\n      add\n        /* \"#utility.yul\":11130:11152   */\n      swap1\n      pop\n        /* \"#utility.yul\":11019:11158   */\n      swap2\n      swap1\n      pop\n      jump\t// out\n        /* \"#utility.yul\":11224:12343   */\n    tag_190:\n        /* \"#utility.yul\":11395:11398   */\n      0x00\n        /* \"#utility.yul\":11424:11504   */\n      tag_287\n        /* \"#utility.yul\":11498:11503   */\n      dup3\n        /* \"#utility.yul\":11424:11504   */\n      tag_184\n      jump\t// in\n    tag_287:\n        /* \"#utility.yul\":11520:11632   */\n      tag_288\n        /* \"#utility.yul\":11625:11631   */\n      dup2\n        /* \"#utility.yul\":11620:11623   */\n      dup6\n        /* \"#utility.yul\":11520:11632   */\n      tag_185\n      jump\t// in\n    tag_288:\n        /* \"#utility.yul\":11513:11632   */\n      swap4\n      pop\n        /* \"#utility.yul\":11658:11661   */\n      dup4\n        /* \"#utility.yul\":11703:11707   */\n      0x20\n        /* \"#utility.yul\":11695:11701   */\n      dup3\n        /* \"#utility.yul\":11691:11708   */\n      mul\n        /* \"#utility.yul\":11686:11689   */\n      dup6\n        /* \"#utility.yul\":11682:11709   */\n      add\n        /* \"#utility.yul\":11733:11815   */\n      tag_289\n        /* \"#utility.yul\":11809:11814   */\n      dup6\n        /* \"#utility.yul\":11733:11815   */\n      tag_186\n      jump\t// in\n    tag_289:\n        /* \"#utility.yul\":11838:11845   */\n      dup1\n        /* \"#utility.yul\":11869:11870   */\n      0x00\n        /* \"#utility.yul\":11854:12298   */\n    tag_290:\n        /* \"#utility.yul\":11879:11885   */\n      dup6\n        /* \"#utility.yul\":11876:11877   */\n      dup2\n        /* \"#utility.yul\":11873:11886   */\n      lt\n        /* \"#utility.yul\":11854:12298   */\n      iszero\n      tag_292\n      jumpi\n        /* \"#utility.yul\":11950:11959   */\n      dup5\n        /* \"#utility.yul\":11944:11948   */\n      dup5\n        /* \"#utility.yul\":11940:11960   */\n      sub\n        /* \"#utility.yul\":11935:11938   */\n      dup10\n        /* \"#utility.yul\":11928:11961   */\n      mstore\n        /* \"#utility.yul\":12001:12007   */\n      dup2\n        /* \"#utility.yul\":11995:12008   */\n      mload\n        /* \"#utility.yul\":12029:12145   */\n      tag_293\n        /* \"#utility.yul\":12140:12144   */\n      dup6\n        /* \"#utility.yul\":12125:12138   */\n      dup3\n        /* \"#utility.yul\":12029:12145   */\n      tag_188\n      jump\t// in\n    tag_293:\n        /* \"#utility.yul\":12021:12145   */\n      swap5\n      pop\n        /* \"#utility.yul\":12168:12254   */\n      tag_294\n        /* \"#utility.yul\":12247:12253   */\n      dup4\n        /* \"#utility.yul\":12168:12254   */\n      tag_189\n      jump\t// in\n    tag_294:\n        /* \"#utility.yul\":12158:12254   */\n      swap3\n      pop\n        /* \"#utility.yul\":12283:12287   */\n      0x20\n        /* \"#utility.yul\":12278:12281   */\n      dup11\n        /* \"#utility.yul\":12274:12288   */\n      add\n        /* \"#utility.yul\":12267:12288   */\n      swap10\n      pop\n        /* \"#utility.yul\":11914:12298   */\n      pop\n        /* \"#utility.yul\":11901:11902   */\n      0x01\n        /* \"#utility.yul\":11898:11899   */\n      dup2\n        /* \"#utility.yul\":11894:11903   */\n      add\n        /* \"#utility.yul\":11889:11903   */\n      swap1\n      pop\n        /* \"#utility.yul\":11854:12298   */\n      jump(tag_290)\n    tag_292:\n        /* \"#utility.yul\":11858:11872   */\n      pop\n        /* \"#utility.yul\":12314:12318   */\n      dup3\n        /* \"#utility.yul\":12307:12318   */\n      swap8\n      pop\n        /* \"#utility.yul\":12334:12337   */\n      dup8\n        /* \"#utility.yul\":12327:12337   */\n      swap6\n      pop\n        /* \"#utility.yul\":11400:12343   */\n      pop\n      pop\n      pop\n      pop\n      pop\n        /* \"#utility.yul\":11224:12343   */\n      swap3\n      swap2\n      pop\n      pop\n      jump\t// out\n        /* \"#utility.yul\":12349:12826   */\n    tag_52:\n        /* \"#utility.yul\":12544:12548   */\n      0x00\n        /* \"#utility.yul\":12582:12584   */\n      0x20\n        /* \"#utility.yul\":12571:12580   */\n      dup3\n        /* \"#utility.yul\":12567:12585   */\n      add\n        /* \"#utility.yul\":12559:12585   */\n      swap1\n      pop\n        /* \"#utility.yul\":12631:12640   */\n      dup2\n        /* \"#utility.yul\":12625:12629   */\n      dup2\n        /* \"#utility.yul\":12621:12641   */\n      sub\n        /* \"#utility.yul\":12617:12618   */\n      0x00\n        /* \"#utility.yul\":12606:12615   */\n      dup4\n        /* \"#utility.yul\":12602:12619   */\n      add\n        /* \"#utility.yul\":12595:12642   */\n      mstore\n        /* \"#utility.yul\":12659:12819   */\n      tag_296\n        /* \"#utility.yul\":12814:12818   */\n      dup2\n        /* \"#utility.yul\":12805:12811   */\n      dup5\n        /* \"#utility.yul\":12659:12819   */\n      tag_190\n      jump\t// in\n    tag_296:\n        /* \"#utility.yul\":12651:12819   */\n      swap1\n      pop\n        /* \"#utility.yul\":12349:12826   */\n      swap3\n      swap2\n      pop\n      pop\n      jump\t// out\n        /* \"#utility.yul\":12832:13012   */\n    tag_191:\n        /* \"#utility.yul\":12880:12957   */\n      0x4e487b7100000000000000000000000000000000000000000000000000000000\n        /* \"#utility.yul\":12877:12878   */\n      0x00\n        /* \"#utility.yul\":12870:12958   */\n      mstore\n        /* \"#utility.yul\":12977:12981   */\n      0x22\n        /* \"#utility.yul\":12974:12975   */\n      0x04\n        /* \"#utility.yul\":12967:12982   */\n      mstore\n        /* \"#utility.yul\":13001:13005   */\n      0x24\n        /* \"#utility.yul\":12998:12999   */\n      0x00\n        /* \"#utility.yul\":12991:13006   */\n      revert\n        /* \"#utility.yul\":13018:13338   */\n    tag_56:\n        /* \"#utility.yul\":13062:13068   */\n      0x00\n        /* \"#utility.yul\":13099:13100   */\n      0x02\n        /* \"#utility.yul\":13093:13097   */\n      dup3\n        /* \"#utility.yul\":13089:13101   */\n      div\n        /* \"#utility.yul\":13079:13101   */\n      swap1\n      pop\n        /* \"#utility.yul\":13146:13147   */\n      0x01\n        /* \"#utility.yul\":13140:13144   */\n      dup3\n        /* \"#utility.yul\":13136:13148   */\n      and\n        /* \"#utility.yul\":13167:13185   */\n      dup1\n        /* \"#utility.yul\":13157:13238   */\n      tag_299\n      jumpi\n        /* \"#utility.yul\":13223:13227   */\n      0x7f\n        /* \"#utility.yul\":13215:13221   */\n      dup3\n        /* \"#utility.yul\":13211:13228   */\n      and\n        /* \"#utility.yul\":13201:13228   */\n      swap2\n      pop\n        /* \"#utility.yul\":13157:13238   */\n    tag_299:\n        /* \"#utility.yul\":13285:13287   */\n      0x20\n        /* \"#utility.yul\":13277:13283   */\n      dup3\n        /* \"#utility.yul\":13274:13288   */\n      lt\n        /* \"#utility.yul\":13254:13272   */\n      dup2\n        /* \"#utility.yul\":13251:13289   */\n      sub\n        /* \"#utility.yul\":13248:13332   */\n      tag_300\n      jumpi\n        /* \"#utility.yul\":13304:13322   */\n      tag_301\n      tag_191\n      jump\t// in\n    tag_301:\n        /* \"#utility.yul\":13248:13332   */\n    tag_300:\n        /* \"#utility.yul\":13069:13338   */\n      pop\n        /* \"#utility.yul\":13018:13338   */\n      swap2\n      swap1\n      pop\n      jump\t// out\n        /* \"#utility.yul\":13344:13524   */\n    tag_79:\n        /* \"#utility.yul\":13392:13469   */\n      0x4e487b7100000000000000000000000000000000000000000000000000000000\n        /* \"#utility.yul\":13389:13390   */\n      0x00\n        /* \"#utility.yul\":13382:13470   */\n      mstore\n        /* \"#utility.yul\":13489:13493   */\n      0x41\n        /* \"#utility.yul\":13486:13487   */\n      0x04\n        /* \"#utility.yul\":13479:13494   */\n      mstore\n        /* \"#utility.yul\":13513:13517   */\n      0x24\n        /* \"#utility.yul\":13510:13511   */\n      0x00\n        /* \"#utility.yul\":13503:13518   */\n      revert\n        /* \"#utility.yul\":13530:13710   */\n    tag_89:\n        /* \"#utility.yul\":13578:13655   */\n      0x4e487b7100000000000000000000000000000000000000000000000000000000\n        /* \"#utility.yul\":13575:13576   */\n      0x00\n        /* \"#utility.yul\":13568:13656   */\n      mstore\n        /* \"#utility.yul\":13675:13679   */\n      0x32\n        /* \"#utility.yul\":13672:13673   */\n      0x04\n        /* \"#utility.yul\":13665:13680   */\n      mstore\n        /* \"#utility.yul\":13699:13703   */\n      0x24\n        /* \"#utility.yul\":13696:13697   */\n      0x00\n        /* \"#utility.yul\":13689:13704   */\n      revert\n        /* \"#utility.yul\":13716:13896   */\n    tag_192:\n        /* \"#utility.yul\":13764:13841   */\n      0x4e487b7100000000000000000000000000000000000000000000000000000000\n        /* \"#utility.yul\":13761:13762   */\n      0x00\n        /* \"#utility.yul\":13754:13842   */\n      mstore\n        /* \"#utility.yul\":13861:13865   */\n      0x11\n        /* \"#utility.yul\":13858:13859   */\n      0x04\n        /* \"#utility.yul\":13851:13866   */\n      mstore\n        /* \"#utility.yul\":13885:13889   */\n      0x24\n        /* \"#utility.yul\":13882:13883   */\n      0x00\n        /* \"#utility.yul\":13875:13890   */\n      revert\n        /* \"#utility.yul\":13902:14135   */\n    tag_105:\n        /* \"#utility.yul\":13941:13944   */\n      0x00\n        /* \"#utility.yul\":13964:13988   */\n      tag_306\n        /* \"#utility.yul\":13982:13987   */\n      dup3\n        /* \"#utility.yul\":13964:13988   */\n      tag_162\n      jump\t// in\n    tag_306:\n        /* \"#utility.yul\":13955:13988   */\n      swap2\n      pop\n        /* \"#utility.yul\":14010:14076   */\n      0xffffffffffffffffffffffffffffffffffffffffffffffffffffffffffffffff\n        /* \"#utility.yul\":14003:14008   */\n      dup3\n        /* \"#utility.yul\":14000:14077   */\n      sub\n        /* \"#utility.yul\":13997:14100   */\n      tag_307\n      jumpi\n        /* \"#utility.yul\":14080:14098   */\n      tag_308\n      tag_192\n      jump\t// in\n    tag_308:\n        /* \"#utility.yul\":13997:14100   */\n    tag_307:\n        /* \"#utility.yul\":14127:14128   */\n      0x01\n        /* \"#utility.yul\":14120:14125   */\n      dup3\n        /* \"#utility.yul\":14116:14129   */\n      add\n        /* \"#utility.yul\":14109:14129   */\n      swap1\n      pop\n        /* \"#utility.yul\":13902:14135   */\n      swap2\n      swap1\n      pop\n      jump\t// out\n        /* \"#utility.yul\":14141:14332   */\n    tag_124:\n        /* \"#utility.yul\":14181:14184   */\n      0x00\n        /* \"#utility.yul\":14200:14220   */\n      tag_310\n        /* \"#utility.yul\":14218:14219   */\n      dup3\n        /* \"#utility.yul\":14200:14220   */\n      tag_162\n      jump\t// in\n    tag_310:\n        /* \"#utility.yul\":14195:14220   */\n      swap2\n      pop\n        /* \"#utility.yul\":14234:14254   */\n      tag_311\n        /* \"#utility.yul\":14252:14253   */\n      dup4\n        /* \"#utility.yul\":14234:14254   */\n      tag_162\n      jump\t// in\n    tag_311:\n        /* \"#utility.yul\":14229:14254   */\n      swap3\n      pop\n        /* \"#utility.yul\":14277:14278   */\n      dup3\n        /* \"#utility.yul\":14274:14275   */\n      dup3\n        /* \"#utility.yul\":14270:14279   */\n      add\n        /* \"#utility.yul\":14263:14279   */\n      swap1\n      pop\n        /* \"#utility.yul\":14298:14301   */\n      dup1\n        /* \"#utility.yul\":14295:14296   */\n      dup3\n        /* \"#utility.yul\":14292:14302   */\n      gt\n        /* \"#utility.yul\":14289:14325   */\n      iszero\n      tag_312\n      jumpi\n        /* \"#utility.yul\":14305:14323   */\n      tag_313\n      tag_192\n      jump\t// in\n    tag_313:\n        /* \"#utility.yul\":14289:14325   */\n    tag_312:\n        /* \"#utility.yul\":14141:14332   */\n      swap3\n      swap2\n      pop\n      pop\n      jump\t// out\n\n    auxdata: 0xa26469706673582212205734397a59c8cd7f7081581d94f9d872c97507c3c70a978d6a17159558391f5464736f6c63430008140033\n}\n",
				"bytecode": {
					"linkReferences": {},
					"object": "608060405234801562000010575f80fd5b506040516200125f3803806200125f8339818101604052810190620000369190620000c8565b81600581905550806006819055503360045f6101000a81548173ffffffffffffffffffffffffffffffffffffffff021916908373ffffffffffffffffffffffffffffffffffffffff16021790555050506200010d565b5f80fd5b5f819050919050565b620000a48162000090565b8114620000af575f80fd5b50565b5f81519050620000c28162000099565b92915050565b5f8060408385031215620000e157620000e06200008c565b5b5f620000f085828601620000b2565b92505060206200010385828601620000b2565b9150509250929050565b611144806200011b5f395ff3fe608060405234801561000f575f80fd5b5060043610610091575f3560e01c80638a6655d6116100645780638a6655d614610143578063b1bf87b01461015f578063b9d845521461017d578063dce8d8a314610199578063fdbc4006146101c957610091565b80633477ee2e146100955780635d816e22146100c65780635e23c37c146100e257806381a60c0d14610113575b5f80fd5b6100af60048036038101906100aa9190610ae8565b6101e7565b6040516100bd929190610bac565b60405180910390f35b6100e060048036038101906100db9190610bda565b61029b565b005b6100fc60048036038101906100f79190610ae8565b610318565b60405161010a929190610cc3565b60405180910390f35b61012d60048036038101906101289190610ae8565b610412565b60405161013a9190610df9565b60405180910390f35b61015d60048036038101906101589190610e19565b6105dc565b005b61016761080f565b6040516101749190610e69565b60405180910390f35b61019760048036038101906101929190610bda565b610818565b005b6101b360048036038101906101ae9190610ae8565b610888565b6040516101c09190610e82565b60405180910390f35b6101d16108d4565b6040516101de9190610f90565b60405180910390f35b5f81815481106101f5575f80fd5b905f5260205f2090600202015f91509050805f01805461021490610fdd565b80601f016020809104026020016040519081016040528092919081815260200182805461024090610fdd565b801561028b5780601f106102625761010080835404028352916020019161028b565b820191905f5260205f20905b81548152906001019060200180831161026e57829003601f168201915b5050505050908060010154905082565b60045f9054906101000a900473ffffffffffffffffffffffffffffffffffffffff1673ffffffffffffffffffffffffffffffffffffffff163373ffffffffffffffffffffffffffffffffffffffff16146102f3575f80fd5b8060055410610300575f80fd5b806006541161030d575f80fd5b816006819055505050565b5f610321610a79565b5f60015f8581526020019081526020015f206003015414159150811561040d5760025f60015f8681526020019081526020015f206003015481526020019081526020015f206040518060400160405290815f8201805461038090610fdd565b80601f01602080910402602001604051908101604052809291908181526020018280546103ac90610fdd565b80156103f75780601f106103ce576101008083540402835291602001916103f7565b820191905f5260205f20905b8154815290600101906020018083116103da57829003601f168201915b5050505050815260200160018201548152505090505b915091565b60608160065410610421575f80fd5b5f808054905067ffffffffffffffff8111156104405761043f61100d565b5b60405190808252806020026020018201604052801561047957816020015b610466610a92565b81526020019060019003908161045e5790505b5090505f5b5f805490508110156105d25760405180606001604052805f83815481106104a8576104a761103a565b5b905f5260205f2090600202015f0180546104c190610fdd565b80601f01602080910402602001604051908101604052809291908181526020018280546104ed90610fdd565b80156105385780601f1061050f57610100808354040283529160200191610538565b820191905f5260205f20905b81548152906001019060200180831161051b57829003601f168201915b5050505050815260200160035f8085815481106105585761055761103a565b5b905f5260205f2090600202016001015481526020019081526020015f205481526020015f838154811061058e5761058d61103a565b5b905f5260205f209060020201600101548152508282815181106105b4576105b361103a565b5b602002602001018190525080806105ca90611094565b91505061047e565b5080915050919050565b806005548110156105eb575f80fd5b6006548111156105f9575f80fd5b82845f60015f8481526020019081526020015f206040518060800160405290815f820154815260200160018201805461063190610fdd565b80601f016020809104026020016040519081016040528092919081815260200182805461065d90610fdd565b80156106a85780601f1061067f576101008083540402835291602001916106a8565b820191905f5260205f20905b81548152906001019060200180831161068b57829003601f168201915b50505050508152602001600282015f9054906101000a900460ff1660ff1660ff16815260200160038201548152505090505f60025f8481526020019081526020015f206040518060400160405290815f8201805461070590610fdd565b80601f016020809104026020016040519081016040528092919081815260200182805461073190610fdd565b801561077c5780601f106107535761010080835404028352916020019161077c565b820191905f5260205f20905b81548152906001019060200180831161075f57829003601f168201915b5050505050815260200160018201548152505090506012826040015160ff1610156107a5575f80fd5b5f8260600151146107b4575f80fd5b8760015f8981526020019081526020015f20600301819055505f60035f8a81526020019081526020015f205490506001816107ef91906110db565b60035f8b81526020019081526020015f2081905550505050505050505050565b5f600654905090565b60045f9054906101000a900473ffffffffffffffffffffffffffffffffffffffff1673ffffffffffffffffffffffffffffffffffffffff163373ffffffffffffffffffffffffffffffffffffffff1614610870575f80fd5b806005541161087d575f80fd5b816005819055505050565b5f8060015f8481526020019081526020015f2090506012816002015f9054906101000a900460ff1660ff16101580156108c457505f8160030154145b156108ce57600191505b50919050565b60605f805b5f805490508110156109065781806108f090611094565b92505080806108fe90611094565b9150506108d9565b505f8167ffffffffffffffff8111156109225761092161100d565b5b60405190808252806020026020018201604052801561095b57816020015b610948610a79565b8152602001906001900390816109405790505b5090505f805b5f80549050811015610a6f575f81815481106109805761097f61103a565b5b905f5260205f2090600202016040518060400160405290815f820180546109a690610fdd565b80601f01602080910402602001604051908101604052809291908181526020018280546109d290610fdd565b8015610a1d5780601f106109f457610100808354040283529160200191610a1d565b820191905f5260205f20905b815481529060010190602001808311610a0057829003601f168201915b50505050508152602001600182015481525050838381518110610a4357610a4261103a565b5b60200260200101819052508180610a5990611094565b9250508080610a6790611094565b915050610961565b5081935050505090565b6040518060400160405280606081526020015f81525090565b6040518060600160405280606081526020015f81526020015f81525090565b5f80fd5b5f819050919050565b610ac781610ab5565b8114610ad1575f80fd5b50565b5f81359050610ae281610abe565b92915050565b5f60208284031215610afd57610afc610ab1565b5b5f610b0a84828501610ad4565b91505092915050565b5f81519050919050565b5f82825260208201905092915050565b5f5b83811015610b4a578082015181840152602081019050610b2f565b5f8484015250505050565b5f601f19601f8301169050919050565b5f610b6f82610b13565b610b798185610b1d565b9350610b89818560208601610b2d565b610b9281610b55565b840191505092915050565b610ba681610ab5565b82525050565b5f6040820190508181035f830152610bc48185610b65565b9050610bd36020830184610b9d565b9392505050565b5f8060408385031215610bf057610bef610ab1565b5b5f610bfd85828601610ad4565b9250506020610c0e85828601610ad4565b9150509250929050565b5f8115159050919050565b610c2c81610c18565b82525050565b5f82825260208201905092915050565b5f610c4c82610b13565b610c568185610c32565b9350610c66818560208601610b2d565b610c6f81610b55565b840191505092915050565b610c8381610ab5565b82525050565b5f604083015f8301518482035f860152610ca38282610c42565b9150506020830151610cb86020860182610c7a565b508091505092915050565b5f604082019050610cd65f830185610c23565b8181036020830152610ce88184610c89565b90509392505050565b5f81519050919050565b5f82825260208201905092915050565b5f819050602082019050919050565b5f606083015f8301518482035f860152610d348282610c42565b9150506020830151610d496020860182610c7a565b506040830151610d5c6040860182610c7a565b508091505092915050565b5f610d728383610d1a565b905092915050565b5f602082019050919050565b5f610d9082610cf1565b610d9a8185610cfb565b935083602082028501610dac85610d0b565b805f5b85811015610de75784840389528151610dc88582610d67565b9450610dd383610d7a565b925060208a01995050600181019050610daf565b50829750879550505050505092915050565b5f6020820190508181035f830152610e118184610d86565b905092915050565b5f805f60608486031215610e3057610e2f610ab1565b5b5f610e3d86828701610ad4565b9350506020610e4e86828701610ad4565b9250506040610e5f86828701610ad4565b9150509250925092565b5f602082019050610e7c5f830184610b9d565b92915050565b5f602082019050610e955f830184610c23565b92915050565b5f81519050919050565b5f82825260208201905092915050565b5f819050602082019050919050565b5f604083015f8301518482035f860152610ede8282610c42565b9150506020830151610ef36020860182610c7a565b508091505092915050565b5f610f098383610ec4565b905092915050565b5f602082019050919050565b5f610f2782610e9b565b610f318185610ea5565b935083602082028501610f4385610eb5565b805f5b85811015610f7e5784840389528151610f5f8582610efe565b9450610f6a83610f11565b925060208a01995050600181019050610f46565b50829750879550505050505092915050565b5f6020820190508181035f830152610fa88184610f1d565b905092915050565b7f4e487b71000000000000000000000000000000000000000000000000000000005f52602260045260245ffd5b5f6002820490506001821680610ff457607f821691505b60208210810361100757611006610fb0565b5b50919050565b7f4e487b71000000000000000000000000000000000000000000000000000000005f52604160045260245ffd5b7f4e487b71000000000000000000000000000000000000000000000000000000005f52603260045260245ffd5b7f4e487b71000000000000000000000000000000000000000000000000000000005f52601160045260245ffd5b5f61109e82610ab5565b91507fffffffffffffffffffffffffffffffffffffffffffffffffffffffffffffffff82036110d0576110cf611067565b5b600182019050919050565b5f6110e582610ab5565b91506110f083610ab5565b925082820190508082111561110857611107611067565b5b9291505056fea26469706673582212205734397a59c8cd7f7081581d94f9d872c97507c3c70a978d6a17159558391f5464736f6c63430008140033",
					"opcodes": "PUSH1 0x80 PUSH1 0x40 MSTORE CALLVALUE DUP1 ISZERO PUSH3 0x10 JUMPI PUSH0 DUP1 REVERT JUMPDEST POP PUSH1 0x40 MLOAD PUSH3 0x125F CODESIZE SUB DUP1 PUSH3 0x125F DUP4 CODECOPY DUP2 DUP2 ADD PUSH1 0x40 MSTORE DUP2 ADD SWAP1 PUSH3 0x36 SWAP2 SWAP1 PUSH3 0xC8 JUMP JUMPDEST DUP2 PUSH1 0x5 DUP2 SWAP1 SSTORE POP DUP1 PUSH1 0x6 DUP2 SWAP1 SSTORE POP CALLER PUSH1 0x4 PUSH0 PUSH2 0x100 EXP DUP2 SLOAD DUP2 PUSH20 0xFFFFFFFFFFFFFFFFFFFFFFFFFFFFFFFFFFFFFFFF MUL NOT AND SWAP1 DUP4 PUSH20 0xFFFFFFFFFFFFFFFFFFFFFFFFFFFFFFFFFFFFFFFF AND MUL OR SWAP1 SSTORE POP POP POP PUSH3 0x10D JUMP JUMPDEST PUSH0 DUP1 REVERT JUMPDEST PUSH0 DUP2 SWAP1 POP SWAP2 SWAP1 POP JUMP JUMPDEST PUSH3 0xA4 DUP2 PUSH3 0x90 JUMP JUMPDEST DUP2 EQ PUSH3 0xAF JUMPI PUSH0 DUP1 REVERT JUMPDEST POP JUMP JUMPDEST PUSH0 DUP2 MLOAD SWAP1 POP PUSH3 0xC2 DUP2 PUSH3 0x99 JUMP JUMPDEST SWAP3 SWAP2 POP POP JUMP JUMPDEST PUSH0 DUP1 PUSH1 0x40 DUP4 DUP6 SUB SLT ISZERO PUSH3 0xE1 JUMPI PUSH3 0xE0 PUSH3 0x8C JUMP JUMPDEST JUMPDEST PUSH0 PUSH3 0xF0 DUP6 DUP3 DUP7 ADD PUSH3 0xB2 JUMP JUMPDEST SWAP3 POP POP PUSH1 0x20 PUSH3 0x103 DUP6 DUP3 DUP7 ADD PUSH3 0xB2 JUMP JUMPDEST SWAP2 POP POP SWAP3 POP SWAP3 SWAP1 POP JUMP JUMPDEST PUSH2 0x1144 DUP1 PUSH3 0x11B PUSH0 CODECOPY PUSH0 RETURN INVALID PUSH1 0x80 PUSH1 0x40 MSTORE CALLVALUE DUP1 ISZERO PUSH2 0xF JUMPI PUSH0 DUP1 REVERT JUMPDEST POP PUSH1 0x4 CALLDATASIZE LT PUSH2 0x91 JUMPI PUSH0 CALLDATALOAD PUSH1 0xE0 SHR DUP1 PUSH4 0x8A6655D6 GT PUSH2 0x64 JUMPI DUP1 PUSH4 0x8A6655D6 EQ PUSH2 0x143 JUMPI DUP1 PUSH4 0xB1BF87B0 EQ PUSH2 0x15F JUMPI DUP1 PUSH4 0xB9D84552 EQ PUSH2 0x17D JUMPI DUP1 PUSH4 0xDCE8D8A3 EQ PUSH2 0x199 JUMPI DUP1 PUSH4 0xFDBC4006 EQ PUSH2 0x1C9 JUMPI PUSH2 0x91 JUMP JUMPDEST DUP1 PUSH4 0x3477EE2E EQ PUSH2 0x95 JUMPI DUP1 PUSH4 0x5D816E22 EQ PUSH2 0xC6 JUMPI DUP1 PUSH4 0x5E23C37C EQ PUSH2 0xE2 JUMPI DUP1 PUSH4 0x81A60C0D EQ PUSH2 0x113 JUMPI JUMPDEST PUSH0 DUP1 REVERT JUMPDEST PUSH2 0xAF PUSH1 0x4 DUP1 CALLDATASIZE SUB DUP2 ADD SWAP1 PUSH2 0xAA SWAP2 SWAP1 PUSH2 0xAE8 JUMP JUMPDEST PUSH2 0x1E7 JUMP JUMPDEST PUSH1 0x40 MLOAD PUSH2 0xBD SWAP3 SWAP2 SWAP1 PUSH2 0xBAC JUMP JUMPDEST PUSH1 0x40 MLOAD DUP1 SWAP2 SUB SWAP1 RETURN JUMPDEST PUSH2 0xE0 PUSH1 0x4 DUP1 CALLDATASIZE SUB DUP2 ADD SWAP1 PUSH2 0xDB SWAP2 SWAP1 PUSH2 0xBDA JUMP JUMPDEST PUSH2 0x29B JUMP JUMPDEST STOP JUMPDEST PUSH2 0xFC PUSH1 0x4 DUP1 CALLDATASIZE SUB DUP2 ADD SWAP1 PUSH2 0xF7 SWAP2 SWAP1 PUSH2 0xAE8 JUMP JUMPDEST PUSH2 0x318 JUMP JUMPDEST PUSH1 0x40 MLOAD PUSH2 0x10A SWAP3 SWAP2 SWAP1 PUSH2 0xCC3 JUMP JUMPDEST PUSH1 0x40 MLOAD DUP1 SWAP2 SUB SWAP1 RETURN JUMPDEST PUSH2 0x12D PUSH1 0x4 DUP1 CALLDATASIZE SUB DUP2 ADD SWAP1 PUSH2 0x128 SWAP2 SWAP1 PUSH2 0xAE8 JUMP JUMPDEST PUSH2 0x412 JUMP JUMPDEST PUSH1 0x40 MLOAD PUSH2 0x13A SWAP2 SWAP1 PUSH2 0xDF9 JUMP JUMPDEST PUSH1 0x40 MLOAD DUP1 SWAP2 SUB SWAP1 RETURN JUMPDEST PUSH2 0x15D PUSH1 0x4 DUP1 CALLDATASIZE SUB DUP2 ADD SWAP1 PUSH2 0x158 SWAP2 SWAP1 PUSH2 0xE19 JUMP JUMPDEST PUSH2 0x5DC JUMP JUMPDEST STOP JUMPDEST PUSH2 0x167 PUSH2 0x80F JUMP JUMPDEST PUSH1 0x40 MLOAD PUSH2 0x174 SWAP2 SWAP1 PUSH2 0xE69 JUMP JUMPDEST PUSH1 0x40 MLOAD DUP1 SWAP2 SUB SWAP1 RETURN JUMPDEST PUSH2 0x197 PUSH1 0x4 DUP1 CALLDATASIZE SUB DUP2 ADD SWAP1 PUSH2 0x192 SWAP2 SWAP1 PUSH2 0xBDA JUMP JUMPDEST PUSH2 0x818 JUMP JUMPDEST STOP JUMPDEST PUSH2 0x1B3 PUSH1 0x4 DUP1 CALLDATASIZE SUB DUP2 ADD SWAP1 PUSH2 0x1AE SWAP2 SWAP1 PUSH2 0xAE8 JUMP JUMPDEST PUSH2 0x888 JUMP JUMPDEST PUSH1 0x40 MLOAD PUSH2 0x1C0 SWAP2 SWAP1 PUSH2 0xE82 JUMP JUMPDEST PUSH1 0x40 MLOAD DUP1 SWAP2 SUB SWAP1 RETURN JUMPDEST PUSH2 0x1D1 PUSH2 0x8D4 JUMP JUMPDEST PUSH1 0x40 MLOAD PUSH2 0x1DE SWAP2 SWAP1 PUSH2 0xF90 JUMP JUMPDEST PUSH1 0x40 MLOAD DUP1 SWAP2 SUB SWAP1 RETURN JUMPDEST PUSH0 DUP2 DUP2 SLOAD DUP2 LT PUSH2 0x1F5 JUMPI PUSH0 DUP1 REVERT JUMPDEST SWAP1 PUSH0 MSTORE PUSH1 0x20 PUSH0 KECCAK256 SWAP1 PUSH1 0x2 MUL ADD PUSH0 SWAP2 POP SWAP1 POP DUP1 PUSH0 ADD DUP1 SLOAD PUSH2 0x214 SWAP1 PUSH2 0xFDD JUMP JUMPDEST DUP1 PUSH1 0x1F ADD PUSH1 0x20 DUP1 SWAP2 DIV MUL PUSH1 0x20 ADD PUSH1 0x40 MLOAD SWAP1 DUP2 ADD PUSH1 0x40 MSTORE DUP1 SWAP3 SWAP2 SWAP1 DUP2 DUP2 MSTORE PUSH1 0x20 ADD DUP3 DUP1 SLOAD PUSH2 0x240 SWAP1 PUSH2 0xFDD JUMP JUMPDEST DUP1 ISZERO PUSH2 0x28B JUMPI DUP1 PUSH1 0x1F LT PUSH2 0x262 JUMPI PUSH2 0x100 DUP1 DUP4 SLOAD DIV MUL DUP4 MSTORE SWAP2 PUSH1 0x20 ADD SWAP2 PUSH2 0x28B JUMP JUMPDEST DUP3 ADD SWAP2 SWAP1 PUSH0 MSTORE PUSH1 0x20 PUSH0 KECCAK256 SWAP1 JUMPDEST DUP2 SLOAD DUP2 MSTORE SWAP1 PUSH1 0x1 ADD SWAP1 PUSH1 0x20 ADD DUP1 DUP4 GT PUSH2 0x26E JUMPI DUP3 SWAP1 SUB PUSH1 0x1F AND DUP3 ADD SWAP2 JUMPDEST POP POP POP POP POP SWAP1 DUP1 PUSH1 0x1 ADD SLOAD SWAP1 POP DUP3 JUMP JUMPDEST PUSH1 0x4 PUSH0 SWAP1 SLOAD SWAP1 PUSH2 0x100 EXP SWAP1 DIV PUSH20 0xFFFFFFFFFFFFFFFFFFFFFFFFFFFFFFFFFFFFFFFF AND PUSH20 0xFFFFFFFFFFFFFFFFFFFFFFFFFFFFFFFFFFFFFFFF AND CALLER PUSH20 0xFFFFFFFFFFFFFFFFFFFFFFFFFFFFFFFFFFFFFFFF AND EQ PUSH2 0x2F3 JUMPI PUSH0 DUP1 REVERT JUMPDEST DUP1 PUSH1 0x5 SLOAD LT PUSH2 0x300 JUMPI PUSH0 DUP1 REVERT JUMPDEST DUP1 PUSH1 0x6 SLOAD GT PUSH2 0x30D JUMPI PUSH0 DUP1 REVERT JUMPDEST DUP2 PUSH1 0x6 DUP2 SWAP1 SSTORE POP POP POP JUMP JUMPDEST PUSH0 PUSH2 0x321 PUSH2 0xA79 JUMP JUMPDEST PUSH0 PUSH1 0x1 PUSH0 DUP6 DUP2 MSTORE PUSH1 0x20 ADD SWAP1 DUP2 MSTORE PUSH1 0x20 ADD PUSH0 KECCAK256 PUSH1 0x3 ADD SLOAD EQ ISZERO SWAP2 POP DUP2 ISZERO PUSH2 0x40D JUMPI PUSH1 0x2 PUSH0 PUSH1 0x1 PUSH0 DUP7 DUP2 MSTORE PUSH1 0x20 ADD SWAP1 DUP2 MSTORE PUSH1 0x20 ADD PUSH0 KECCAK256 PUSH1 0x3 ADD SLOAD DUP2 MSTORE PUSH1 0x20 ADD SWAP1 DUP2 MSTORE PUSH1 0x20 ADD PUSH0 KECCAK256 PUSH1 0x40 MLOAD DUP1 PUSH1 0x40 ADD PUSH1 0x40 MSTORE SWAP1 DUP2 PUSH0 DUP3 ADD DUP1 SLOAD PUSH2 0x380 SWAP1 PUSH2 0xFDD JUMP JUMPDEST DUP1 PUSH1 0x1F ADD PUSH1 0x20 DUP1 SWAP2 DIV MUL PUSH1 0x20 ADD PUSH1 0x40 MLOAD SWAP1 DUP2 ADD PUSH1 0x40 MSTORE DUP1 SWAP3 SWAP2 SWAP1 DUP2 DUP2 MSTORE PUSH1 0x20 ADD DUP3 DUP1 SLOAD PUSH2 0x3AC SWAP1 PUSH2 0xFDD JUMP JUMPDEST DUP1 ISZERO PUSH2 0x3F7 JUMPI DUP1 PUSH1 0x1F LT PUSH2 0x3CE JUMPI PUSH2 0x100 DUP1 DUP4 SLOAD DIV MUL DUP4 MSTORE SWAP2 PUSH1 0x20 ADD SWAP2 PUSH2 0x3F7 JUMP JUMPDEST DUP3 ADD SWAP2 SWAP1 PUSH0 MSTORE PUSH1 0x20 PUSH0 KECCAK256 SWAP1 JUMPDEST DUP2 SLOAD DUP2 MSTORE SWAP1 PUSH1 0x1 ADD SWAP1 PUSH1 0x20 ADD DUP1 DUP4 GT PUSH2 0x3DA JUMPI DUP3 SWAP1 SUB PUSH1 0x1F AND DUP3 ADD SWAP2 JUMPDEST POP POP POP POP POP DUP2 MSTORE PUSH1 0x20 ADD PUSH1 0x1 DUP3 ADD SLOAD DUP2 MSTORE POP POP SWAP1 POP JUMPDEST SWAP2 POP SWAP2 JUMP JUMPDEST PUSH1 0x60 DUP2 PUSH1 0x6 SLOAD LT PUSH2 0x421 JUMPI PUSH0 DUP1 REVERT JUMPDEST PUSH0 DUP1 DUP1 SLOAD SWAP1 POP PUSH8 0xFFFFFFFFFFFFFFFF DUP2 GT ISZERO PUSH2 0x440 JUMPI PUSH2 0x43F PUSH2 0x100D JUMP JUMPDEST JUMPDEST PUSH1 0x40 MLOAD SWAP1 DUP1 DUP3 MSTORE DUP1 PUSH1 0x20 MUL PUSH1 0x20 ADD DUP3 ADD PUSH1 0x40 MSTORE DUP1 ISZERO PUSH2 0x479 JUMPI DUP2 PUSH1 0x20 ADD JUMPDEST PUSH2 0x466 PUSH2 0xA92 JUMP JUMPDEST DUP2 MSTORE PUSH1 0x20 ADD SWAP1 PUSH1 0x1 SWAP1 SUB SWAP1 DUP2 PUSH2 0x45E JUMPI SWAP1 POP JUMPDEST POP SWAP1 POP PUSH0 JUMPDEST PUSH0 DUP1 SLOAD SWAP1 POP DUP2 LT ISZERO PUSH2 0x5D2 JUMPI PUSH1 0x40 MLOAD DUP1 PUSH1 0x60 ADD PUSH1 0x40 MSTORE DUP1 PUSH0 DUP4 DUP2 SLOAD DUP2 LT PUSH2 0x4A8 JUMPI PUSH2 0x4A7 PUSH2 0x103A JUMP JUMPDEST JUMPDEST SWAP1 PUSH0 MSTORE PUSH1 0x20 PUSH0 KECCAK256 SWAP1 PUSH1 0x2 MUL ADD PUSH0 ADD DUP1 SLOAD PUSH2 0x4C1 SWAP1 PUSH2 0xFDD JUMP JUMPDEST DUP1 PUSH1 0x1F ADD PUSH1 0x20 DUP1 SWAP2 DIV MUL PUSH1 0x20 ADD PUSH1 0x40 MLOAD SWAP1 DUP2 ADD PUSH1 0x40 MSTORE DUP1 SWAP3 SWAP2 SWAP1 DUP2 DUP2 MSTORE PUSH1 0x20 ADD DUP3 DUP1 SLOAD PUSH2 0x4ED SWAP1 PUSH2 0xFDD JUMP JUMPDEST DUP1 ISZERO PUSH2 0x538 JUMPI DUP1 PUSH1 0x1F LT PUSH2 0x50F JUMPI PUSH2 0x100 DUP1 DUP4 SLOAD DIV MUL DUP4 MSTORE SWAP2 PUSH1 0x20 ADD SWAP2 PUSH2 0x538 JUMP JUMPDEST DUP3 ADD SWAP2 SWAP1 PUSH0 MSTORE PUSH1 0x20 PUSH0 KECCAK256 SWAP1 JUMPDEST DUP2 SLOAD DUP2 MSTORE SWAP1 PUSH1 0x1 ADD SWAP1 PUSH1 0x20 ADD DUP1 DUP4 GT PUSH2 0x51B JUMPI DUP3 SWAP1 SUB PUSH1 0x1F AND DUP3 ADD SWAP2 JUMPDEST POP POP POP POP POP DUP2 MSTORE PUSH1 0x20 ADD PUSH1 0x3 PUSH0 DUP1 DUP6 DUP2 SLOAD DUP2 LT PUSH2 0x558 JUMPI PUSH2 0x557 PUSH2 0x103A JUMP JUMPDEST JUMPDEST SWAP1 PUSH0 MSTORE PUSH1 0x20 PUSH0 KECCAK256 SWAP1 PUSH1 0x2 MUL ADD PUSH1 0x1 ADD SLOAD DUP2 MSTORE PUSH1 0x20 ADD SWAP1 DUP2 MSTORE PUSH1 0x20 ADD PUSH0 KECCAK256 SLOAD DUP2 MSTORE PUSH1 0x20 ADD PUSH0 DUP4 DUP2 SLOAD DUP2 LT PUSH2 0x58E JUMPI PUSH2 0x58D PUSH2 0x103A JUMP JUMPDEST JUMPDEST SWAP1 PUSH0 MSTORE PUSH1 0x20 PUSH0 KECCAK256 SWAP1 PUSH1 0x2 MUL ADD PUSH1 0x1 ADD SLOAD DUP2 MSTORE POP DUP3 DUP3 DUP2 MLOAD DUP2 LT PUSH2 0x5B4 JUMPI PUSH2 0x5B3 PUSH2 0x103A JUMP JUMPDEST JUMPDEST PUSH1 0x20 MUL PUSH1 0x20 ADD ADD DUP2 SWAP1 MSTORE POP DUP1 DUP1 PUSH2 0x5CA SWAP1 PUSH2 0x1094 JUMP JUMPDEST SWAP2 POP POP PUSH2 0x47E JUMP JUMPDEST POP DUP1 SWAP2 POP POP SWAP2 SWAP1 POP JUMP JUMPDEST DUP1 PUSH1 0x5 SLOAD DUP2 LT ISZERO PUSH2 0x5EB JUMPI PUSH0 DUP1 REVERT JUMPDEST PUSH1 0x6 SLOAD DUP2 GT ISZERO PUSH2 0x5F9 JUMPI PUSH0 DUP1 REVERT JUMPDEST DUP3 DUP5 PUSH0 PUSH1 0x1 PUSH0 DUP5 DUP2 MSTORE PUSH1 0x20 ADD SWAP1 DUP2 MSTORE PUSH1 0x20 ADD PUSH0 KECCAK256 PUSH1 0x40 MLOAD DUP1 PUSH1 0x80 ADD PUSH1 0x40 MSTORE SWAP1 DUP2 PUSH0 DUP3 ADD SLOAD DUP2 MSTORE PUSH1 0x20 ADD PUSH1 0x1 DUP3 ADD DUP1 SLOAD PUSH2 0x631 SWAP1 PUSH2 0xFDD JUMP JUMPDEST DUP1 PUSH1 0x1F ADD PUSH1 0x20 DUP1 SWAP2 DIV MUL PUSH1 0x20 ADD PUSH1 0x40 MLOAD SWAP1 DUP2 ADD PUSH1 0x40 MSTORE DUP1 SWAP3 SWAP2 SWAP1 DUP2 DUP2 MSTORE PUSH1 0x20 ADD DUP3 DUP1 SLOAD PUSH2 0x65D SWAP1 PUSH2 0xFDD JUMP JUMPDEST DUP1 ISZERO PUSH2 0x6A8 JUMPI DUP1 PUSH1 0x1F LT PUSH2 0x67F JUMPI PUSH2 0x100 DUP1 DUP4 SLOAD DIV MUL DUP4 MSTORE SWAP2 PUSH1 0x20 ADD SWAP2 PUSH2 0x6A8 JUMP JUMPDEST DUP3 ADD SWAP2 SWAP1 PUSH0 MSTORE PUSH1 0x20 PUSH0 KECCAK256 SWAP1 JUMPDEST DUP2 SLOAD DUP2 MSTORE SWAP1 PUSH1 0x1 ADD SWAP1 PUSH1 0x20 ADD DUP1 DUP4 GT PUSH2 0x68B JUMPI DUP3 SWAP1 SUB PUSH1 0x1F AND DUP3 ADD SWAP2 JUMPDEST POP POP POP POP POP DUP2 MSTORE PUSH1 0x20 ADD PUSH1 0x2 DUP3 ADD PUSH0 SWAP1 SLOAD SWAP1 PUSH2 0x100 EXP SWAP1 DIV PUSH1 0xFF AND PUSH1 0xFF AND PUSH1 0xFF AND DUP2 MSTORE PUSH1 0x20 ADD PUSH1 0x3 DUP3 ADD SLOAD DUP2 MSTORE POP POP SWAP1 POP PUSH0 PUSH1 0x2 PUSH0 DUP5 DUP2 MSTORE PUSH1 0x20 ADD SWAP1 DUP2 MSTORE PUSH1 0x20 ADD PUSH0 KECCAK256 PUSH1 0x40 MLOAD DUP1 PUSH1 0x40 ADD PUSH1 0x40 MSTORE SWAP1 DUP2 PUSH0 DUP3 ADD DUP1 SLOAD PUSH2 0x705 SWAP1 PUSH2 0xFDD JUMP JUMPDEST DUP1 PUSH1 0x1F ADD PUSH1 0x20 DUP1 SWAP2 DIV MUL PUSH1 0x20 ADD PUSH1 0x40 MLOAD SWAP1 DUP2 ADD PUSH1 0x40 MSTORE DUP1 SWAP3 SWAP2 SWAP1 DUP2 DUP2 MSTORE PUSH1 0x20 ADD DUP3 DUP1 SLOAD PUSH2 0x731 SWAP1 PUSH2 0xFDD JUMP JUMPDEST DUP1 ISZERO PUSH2 0x77C JUMPI DUP1 PUSH1 0x1F LT PUSH2 0x753 JUMPI PUSH2 0x100 DUP1 DUP4 SLOAD DIV MUL DUP4 MSTORE SWAP2 PUSH1 0x20 ADD SWAP2 PUSH2 0x77C JUMP JUMPDEST DUP3 ADD SWAP2 SWAP1 PUSH0 MSTORE PUSH1 0x20 PUSH0 KECCAK256 SWAP1 JUMPDEST DUP2 SLOAD DUP2 MSTORE SWAP1 PUSH1 0x1 ADD SWAP1 PUSH1 0x20 ADD DUP1 DUP4 GT PUSH2 0x75F JUMPI DUP3 SWAP1 SUB PUSH1 0x1F AND DUP3 ADD SWAP2 JUMPDEST POP POP POP POP POP DUP2 MSTORE PUSH1 0x20 ADD PUSH1 0x1 DUP3 ADD SLOAD DUP2 MSTORE POP POP SWAP1 POP PUSH1 0x12 DUP3 PUSH1 0x40 ADD MLOAD PUSH1 0xFF AND LT ISZERO PUSH2 0x7A5 JUMPI PUSH0 DUP1 REVERT JUMPDEST PUSH0 DUP3 PUSH1 0x60 ADD MLOAD EQ PUSH2 0x7B4 JUMPI PUSH0 DUP1 REVERT JUMPDEST DUP8 PUSH1 0x1 PUSH0 DUP10 DUP2 MSTORE PUSH1 0x20 ADD SWAP1 DUP2 MSTORE PUSH1 0x20 ADD PUSH0 KECCAK256 PUSH1 0x3 ADD DUP2 SWAP1 SSTORE POP PUSH0 PUSH1 0x3 PUSH0 DUP11 DUP2 MSTORE PUSH1 0x20 ADD SWAP1 DUP2 MSTORE PUSH1 0x20 ADD PUSH0 KECCAK256 SLOAD SWAP1 POP PUSH1 0x1 DUP2 PUSH2 0x7EF SWAP2 SWAP1 PUSH2 0x10DB JUMP JUMPDEST PUSH1 0x3 PUSH0 DUP12 DUP2 MSTORE PUSH1 0x20 ADD SWAP1 DUP2 MSTORE PUSH1 0x20 ADD PUSH0 KECCAK256 DUP2 SWAP1 SSTORE POP POP POP POP POP POP POP POP POP POP JUMP JUMPDEST PUSH0 PUSH1 0x6 SLOAD SWAP1 POP SWAP1 JUMP JUMPDEST PUSH1 0x4 PUSH0 SWAP1 SLOAD SWAP1 PUSH2 0x100 EXP SWAP1 DIV PUSH20 0xFFFFFFFFFFFFFFFFFFFFFFFFFFFFFFFFFFFFFFFF AND PUSH20 0xFFFFFFFFFFFFFFFFFFFFFFFFFFFFFFFFFFFFFFFF AND CALLER PUSH20 0xFFFFFFFFFFFFFFFFFFFFFFFFFFFFFFFFFFFFFFFF AND EQ PUSH2 0x870 JUMPI PUSH0 DUP1 REVERT JUMPDEST DUP1 PUSH1 0x5 SLOAD GT PUSH2 0x87D JUMPI PUSH0 DUP1 REVERT JUMPDEST DUP2 PUSH1 0x5 DUP2 SWAP1 SSTORE POP POP POP JUMP JUMPDEST PUSH0 DUP1 PUSH1 0x1 PUSH0 DUP5 DUP2 MSTORE PUSH1 0x20 ADD SWAP1 DUP2 MSTORE PUSH1 0x20 ADD PUSH0 KECCAK256 SWAP1 POP PUSH1 0x12 DUP2 PUSH1 0x2 ADD PUSH0 SWAP1 SLOAD SWAP1 PUSH2 0x100 EXP SWAP1 DIV PUSH1 0xFF AND PUSH1 0xFF AND LT ISZERO DUP1 ISZERO PUSH2 0x8C4 JUMPI POP PUSH0 DUP2 PUSH1 0x3 ADD SLOAD EQ JUMPDEST ISZERO PUSH2 0x8CE JUMPI PUSH1 0x1 SWAP2 POP JUMPDEST POP SWAP2 SWAP1 POP JUMP JUMPDEST PUSH1 0x60 PUSH0 DUP1 JUMPDEST PUSH0 DUP1 SLOAD SWAP1 POP DUP2 LT ISZERO PUSH2 0x906 JUMPI DUP2 DUP1 PUSH2 0x8F0 SWAP1 PUSH2 0x1094 JUMP JUMPDEST SWAP3 POP POP DUP1 DUP1 PUSH2 0x8FE SWAP1 PUSH2 0x1094 JUMP JUMPDEST SWAP2 POP POP PUSH2 0x8D9 JUMP JUMPDEST POP PUSH0 DUP2 PUSH8 0xFFFFFFFFFFFFFFFF DUP2 GT ISZERO PUSH2 0x922 JUMPI PUSH2 0x921 PUSH2 0x100D JUMP JUMPDEST JUMPDEST PUSH1 0x40 MLOAD SWAP1 DUP1 DUP3 MSTORE DUP1 PUSH1 0x20 MUL PUSH1 0x20 ADD DUP3 ADD PUSH1 0x40 MSTORE DUP1 ISZERO PUSH2 0x95B JUMPI DUP2 PUSH1 0x20 ADD JUMPDEST PUSH2 0x948 PUSH2 0xA79 JUMP JUMPDEST DUP2 MSTORE PUSH1 0x20 ADD SWAP1 PUSH1 0x1 SWAP1 SUB SWAP1 DUP2 PUSH2 0x940 JUMPI SWAP1 POP JUMPDEST POP SWAP1 POP PUSH0 DUP1 JUMPDEST PUSH0 DUP1 SLOAD SWAP1 POP DUP2 LT ISZERO PUSH2 0xA6F JUMPI PUSH0 DUP2 DUP2 SLOAD DUP2 LT PUSH2 0x980 JUMPI PUSH2 0x97F PUSH2 0x103A JUMP JUMPDEST JUMPDEST SWAP1 PUSH0 MSTORE PUSH1 0x20 PUSH0 KECCAK256 SWAP1 PUSH1 0x2 MUL ADD PUSH1 0x40 MLOAD DUP1 PUSH1 0x40 ADD PUSH1 0x40 MSTORE SWAP1 DUP2 PUSH0 DUP3 ADD DUP1 SLOAD PUSH2 0x9A6 SWAP1 PUSH2 0xFDD JUMP JUMPDEST DUP1 PUSH1 0x1F ADD PUSH1 0x20 DUP1 SWAP2 DIV MUL PUSH1 0x20 ADD PUSH1 0x40 MLOAD SWAP1 DUP2 ADD PUSH1 0x40 MSTORE DUP1 SWAP3 SWAP2 SWAP1 DUP2 DUP2 MSTORE PUSH1 0x20 ADD DUP3 DUP1 SLOAD PUSH2 0x9D2 SWAP1 PUSH2 0xFDD JUMP JUMPDEST DUP1 ISZERO PUSH2 0xA1D JUMPI DUP1 PUSH1 0x1F LT PUSH2 0x9F4 JUMPI PUSH2 0x100 DUP1 DUP4 SLOAD DIV MUL DUP4 MSTORE SWAP2 PUSH1 0x20 ADD SWAP2 PUSH2 0xA1D JUMP JUMPDEST DUP3 ADD SWAP2 SWAP1 PUSH0 MSTORE PUSH1 0x20 PUSH0 KECCAK256 SWAP1 JUMPDEST DUP2 SLOAD DUP2 MSTORE SWAP1 PUSH1 0x1 ADD SWAP1 PUSH1 0x20 ADD DUP1 DUP4 GT PUSH2 0xA00 JUMPI DUP3 SWAP1 SUB PUSH1 0x1F AND DUP3 ADD SWAP2 JUMPDEST POP POP POP POP POP DUP2 MSTORE PUSH1 0x20 ADD PUSH1 0x1 DUP3 ADD SLOAD DUP2 MSTORE POP POP DUP4 DUP4 DUP2 MLOAD DUP2 LT PUSH2 0xA43 JUMPI PUSH2 0xA42 PUSH2 0x103A JUMP JUMPDEST JUMPDEST PUSH1 0x20 MUL PUSH1 0x20 ADD ADD DUP2 SWAP1 MSTORE POP DUP2 DUP1 PUSH2 0xA59 SWAP1 PUSH2 0x1094 JUMP JUMPDEST SWAP3 POP POP DUP1 DUP1 PUSH2 0xA67 SWAP1 PUSH2 0x1094 JUMP JUMPDEST SWAP2 POP POP PUSH2 0x961 JUMP JUMPDEST POP DUP2 SWAP4 POP POP POP POP SWAP1 JUMP JUMPDEST PUSH1 0x40 MLOAD DUP1 PUSH1 0x40 ADD PUSH1 0x40 MSTORE DUP1 PUSH1 0x60 DUP2 MSTORE PUSH1 0x20 ADD PUSH0 DUP2 MSTORE POP SWAP1 JUMP JUMPDEST PUSH1 0x40 MLOAD DUP1 PUSH1 0x60 ADD PUSH1 0x40 MSTORE DUP1 PUSH1 0x60 DUP2 MSTORE PUSH1 0x20 ADD PUSH0 DUP2 MSTORE PUSH1 0x20 ADD PUSH0 DUP2 MSTORE POP SWAP1 JUMP JUMPDEST PUSH0 DUP1 REVERT JUMPDEST PUSH0 DUP2 SWAP1 POP SWAP2 SWAP1 POP JUMP JUMPDEST PUSH2 0xAC7 DUP2 PUSH2 0xAB5 JUMP JUMPDEST DUP2 EQ PUSH2 0xAD1 JUMPI PUSH0 DUP1 REVERT JUMPDEST POP JUMP JUMPDEST PUSH0 DUP2 CALLDATALOAD SWAP1 POP PUSH2 0xAE2 DUP2 PUSH2 0xABE JUMP JUMPDEST SWAP3 SWAP2 POP POP JUMP JUMPDEST PUSH0 PUSH1 0x20 DUP3 DUP5 SUB SLT ISZERO PUSH2 0xAFD JUMPI PUSH2 0xAFC PUSH2 0xAB1 JUMP JUMPDEST JUMPDEST PUSH0 PUSH2 0xB0A DUP5 DUP3 DUP6 ADD PUSH2 0xAD4 JUMP JUMPDEST SWAP2 POP POP SWAP3 SWAP2 POP POP JUMP JUMPDEST PUSH0 DUP2 MLOAD SWAP1 POP SWAP2 SWAP1 POP JUMP JUMPDEST PUSH0 DUP3 DUP3 MSTORE PUSH1 0x20 DUP3 ADD SWAP1 POP SWAP3 SWAP2 POP POP JUMP JUMPDEST PUSH0 JUMPDEST DUP4 DUP2 LT ISZERO PUSH2 0xB4A JUMPI DUP1 DUP3 ADD MLOAD DUP2 DUP5 ADD MSTORE PUSH1 0x20 DUP2 ADD SWAP1 POP PUSH2 0xB2F JUMP JUMPDEST PUSH0 DUP5 DUP5 ADD MSTORE POP POP POP POP JUMP JUMPDEST PUSH0 PUSH1 0x1F NOT PUSH1 0x1F DUP4 ADD AND SWAP1 POP SWAP2 SWAP1 POP JUMP JUMPDEST PUSH0 PUSH2 0xB6F DUP3 PUSH2 0xB13 JUMP JUMPDEST PUSH2 0xB79 DUP2 DUP6 PUSH2 0xB1D JUMP JUMPDEST SWAP4 POP PUSH2 0xB89 DUP2 DUP6 PUSH1 0x20 DUP7 ADD PUSH2 0xB2D JUMP JUMPDEST PUSH2 0xB92 DUP2 PUSH2 0xB55 JUMP JUMPDEST DUP5 ADD SWAP2 POP POP SWAP3 SWAP2 POP POP JUMP JUMPDEST PUSH2 0xBA6 DUP2 PUSH2 0xAB5 JUMP JUMPDEST DUP3 MSTORE POP POP JUMP JUMPDEST PUSH0 PUSH1 0x40 DUP3 ADD SWAP1 POP DUP2 DUP2 SUB PUSH0 DUP4 ADD MSTORE PUSH2 0xBC4 DUP2 DUP6 PUSH2 0xB65 JUMP JUMPDEST SWAP1 POP PUSH2 0xBD3 PUSH1 0x20 DUP4 ADD DUP5 PUSH2 0xB9D JUMP JUMPDEST SWAP4 SWAP3 POP POP POP JUMP JUMPDEST PUSH0 DUP1 PUSH1 0x40 DUP4 DUP6 SUB SLT ISZERO PUSH2 0xBF0 JUMPI PUSH2 0xBEF PUSH2 0xAB1 JUMP JUMPDEST JUMPDEST PUSH0 PUSH2 0xBFD DUP6 DUP3 DUP7 ADD PUSH2 0xAD4 JUMP JUMPDEST SWAP3 POP POP PUSH1 0x20 PUSH2 0xC0E DUP6 DUP3 DUP7 ADD PUSH2 0xAD4 JUMP JUMPDEST SWAP2 POP POP SWAP3 POP SWAP3 SWAP1 POP JUMP JUMPDEST PUSH0 DUP2 ISZERO ISZERO SWAP1 POP SWAP2 SWAP1 POP JUMP JUMPDEST PUSH2 0xC2C DUP2 PUSH2 0xC18 JUMP JUMPDEST DUP3 MSTORE POP POP JUMP JUMPDEST PUSH0 DUP3 DUP3 MSTORE PUSH1 0x20 DUP3 ADD SWAP1 POP SWAP3 SWAP2 POP POP JUMP JUMPDEST PUSH0 PUSH2 0xC4C DUP3 PUSH2 0xB13 JUMP JUMPDEST PUSH2 0xC56 DUP2 DUP6 PUSH2 0xC32 JUMP JUMPDEST SWAP4 POP PUSH2 0xC66 DUP2 DUP6 PUSH1 0x20 DUP7 ADD PUSH2 0xB2D JUMP JUMPDEST PUSH2 0xC6F DUP2 PUSH2 0xB55 JUMP JUMPDEST DUP5 ADD SWAP2 POP POP SWAP3 SWAP2 POP POP JUMP JUMPDEST PUSH2 0xC83 DUP2 PUSH2 0xAB5 JUMP JUMPDEST DUP3 MSTORE POP POP JUMP JUMPDEST PUSH0 PUSH1 0x40 DUP4 ADD PUSH0 DUP4 ADD MLOAD DUP5 DUP3 SUB PUSH0 DUP7 ADD MSTORE PUSH2 0xCA3 DUP3 DUP3 PUSH2 0xC42 JUMP JUMPDEST SWAP2 POP POP PUSH1 0x20 DUP4 ADD MLOAD PUSH2 0xCB8 PUSH1 0x20 DUP7 ADD DUP3 PUSH2 0xC7A JUMP JUMPDEST POP DUP1 SWAP2 POP POP SWAP3 SWAP2 POP POP JUMP JUMPDEST PUSH0 PUSH1 0x40 DUP3 ADD SWAP1 POP PUSH2 0xCD6 PUSH0 DUP4 ADD DUP6 PUSH2 0xC23 JUMP JUMPDEST DUP2 DUP2 SUB PUSH1 0x20 DUP4 ADD MSTORE PUSH2 0xCE8 DUP2 DUP5 PUSH2 0xC89 JUMP JUMPDEST SWAP1 POP SWAP4 SWAP3 POP POP POP JUMP JUMPDEST PUSH0 DUP2 MLOAD SWAP1 POP SWAP2 SWAP1 POP JUMP JUMPDEST PUSH0 DUP3 DUP3 MSTORE PUSH1 0x20 DUP3 ADD SWAP1 POP SWAP3 SWAP2 POP POP JUMP JUMPDEST PUSH0 DUP2 SWAP1 POP PUSH1 0x20 DUP3 ADD SWAP1 POP SWAP2 SWAP1 POP JUMP JUMPDEST PUSH0 PUSH1 0x60 DUP4 ADD PUSH0 DUP4 ADD MLOAD DUP5 DUP3 SUB PUSH0 DUP7 ADD MSTORE PUSH2 0xD34 DUP3 DUP3 PUSH2 0xC42 JUMP JUMPDEST SWAP2 POP POP PUSH1 0x20 DUP4 ADD MLOAD PUSH2 0xD49 PUSH1 0x20 DUP7 ADD DUP3 PUSH2 0xC7A JUMP JUMPDEST POP PUSH1 0x40 DUP4 ADD MLOAD PUSH2 0xD5C PUSH1 0x40 DUP7 ADD DUP3 PUSH2 0xC7A JUMP JUMPDEST POP DUP1 SWAP2 POP POP SWAP3 SWAP2 POP POP JUMP JUMPDEST PUSH0 PUSH2 0xD72 DUP4 DUP4 PUSH2 0xD1A JUMP JUMPDEST SWAP1 POP SWAP3 SWAP2 POP POP JUMP JUMPDEST PUSH0 PUSH1 0x20 DUP3 ADD SWAP1 POP SWAP2 SWAP1 POP JUMP JUMPDEST PUSH0 PUSH2 0xD90 DUP3 PUSH2 0xCF1 JUMP JUMPDEST PUSH2 0xD9A DUP2 DUP6 PUSH2 0xCFB JUMP JUMPDEST SWAP4 POP DUP4 PUSH1 0x20 DUP3 MUL DUP6 ADD PUSH2 0xDAC DUP6 PUSH2 0xD0B JUMP JUMPDEST DUP1 PUSH0 JUMPDEST DUP6 DUP2 LT ISZERO PUSH2 0xDE7 JUMPI DUP5 DUP5 SUB DUP10 MSTORE DUP2 MLOAD PUSH2 0xDC8 DUP6 DUP3 PUSH2 0xD67 JUMP JUMPDEST SWAP5 POP PUSH2 0xDD3 DUP4 PUSH2 0xD7A JUMP JUMPDEST SWAP3 POP PUSH1 0x20 DUP11 ADD SWAP10 POP POP PUSH1 0x1 DUP2 ADD SWAP1 POP PUSH2 0xDAF JUMP JUMPDEST POP DUP3 SWAP8 POP DUP8 SWAP6 POP POP POP POP POP POP SWAP3 SWAP2 POP POP JUMP JUMPDEST PUSH0 PUSH1 0x20 DUP3 ADD SWAP1 POP DUP2 DUP2 SUB PUSH0 DUP4 ADD MSTORE PUSH2 0xE11 DUP2 DUP5 PUSH2 0xD86 JUMP JUMPDEST SWAP1 POP SWAP3 SWAP2 POP POP JUMP JUMPDEST PUSH0 DUP1 PUSH0 PUSH1 0x60 DUP5 DUP7 SUB SLT ISZERO PUSH2 0xE30 JUMPI PUSH2 0xE2F PUSH2 0xAB1 JUMP JUMPDEST JUMPDEST PUSH0 PUSH2 0xE3D DUP7 DUP3 DUP8 ADD PUSH2 0xAD4 JUMP JUMPDEST SWAP4 POP POP PUSH1 0x20 PUSH2 0xE4E DUP7 DUP3 DUP8 ADD PUSH2 0xAD4 JUMP JUMPDEST SWAP3 POP POP PUSH1 0x40 PUSH2 0xE5F DUP7 DUP3 DUP8 ADD PUSH2 0xAD4 JUMP JUMPDEST SWAP2 POP POP SWAP3 POP SWAP3 POP SWAP3 JUMP JUMPDEST PUSH0 PUSH1 0x20 DUP3 ADD SWAP1 POP PUSH2 0xE7C PUSH0 DUP4 ADD DUP5 PUSH2 0xB9D JUMP JUMPDEST SWAP3 SWAP2 POP POP JUMP JUMPDEST PUSH0 PUSH1 0x20 DUP3 ADD SWAP1 POP PUSH2 0xE95 PUSH0 DUP4 ADD DUP5 PUSH2 0xC23 JUMP JUMPDEST SWAP3 SWAP2 POP POP JUMP JUMPDEST PUSH0 DUP2 MLOAD SWAP1 POP SWAP2 SWAP1 POP JUMP JUMPDEST PUSH0 DUP3 DUP3 MSTORE PUSH1 0x20 DUP3 ADD SWAP1 POP SWAP3 SWAP2 POP POP JUMP JUMPDEST PUSH0 DUP2 SWAP1 POP PUSH1 0x20 DUP3 ADD SWAP1 POP SWAP2 SWAP1 POP JUMP JUMPDEST PUSH0 PUSH1 0x40 DUP4 ADD PUSH0 DUP4 ADD MLOAD DUP5 DUP3 SUB PUSH0 DUP7 ADD MSTORE PUSH2 0xEDE DUP3 DUP3 PUSH2 0xC42 JUMP JUMPDEST SWAP2 POP POP PUSH1 0x20 DUP4 ADD MLOAD PUSH2 0xEF3 PUSH1 0x20 DUP7 ADD DUP3 PUSH2 0xC7A JUMP JUMPDEST POP DUP1 SWAP2 POP POP SWAP3 SWAP2 POP POP JUMP JUMPDEST PUSH0 PUSH2 0xF09 DUP4 DUP4 PUSH2 0xEC4 JUMP JUMPDEST SWAP1 POP SWAP3 SWAP2 POP POP JUMP JUMPDEST PUSH0 PUSH1 0x20 DUP3 ADD SWAP1 POP SWAP2 SWAP1 POP JUMP JUMPDEST PUSH0 PUSH2 0xF27 DUP3 PUSH2 0xE9B JUMP JUMPDEST PUSH2 0xF31 DUP2 DUP6 PUSH2 0xEA5 JUMP JUMPDEST SWAP4 POP DUP4 PUSH1 0x20 DUP3 MUL DUP6 ADD PUSH2 0xF43 DUP6 PUSH2 0xEB5 JUMP JUMPDEST DUP1 PUSH0 JUMPDEST DUP6 DUP2 LT ISZERO PUSH2 0xF7E JUMPI DUP5 DUP5 SUB DUP10 MSTORE DUP2 MLOAD PUSH2 0xF5F DUP6 DUP3 PUSH2 0xEFE JUMP JUMPDEST SWAP5 POP PUSH2 0xF6A DUP4 PUSH2 0xF11 JUMP JUMPDEST SWAP3 POP PUSH1 0x20 DUP11 ADD SWAP10 POP POP PUSH1 0x1 DUP2 ADD SWAP1 POP PUSH2 0xF46 JUMP JUMPDEST POP DUP3 SWAP8 POP DUP8 SWAP6 POP POP POP POP POP POP SWAP3 SWAP2 POP POP JUMP JUMPDEST PUSH0 PUSH1 0x20 DUP3 ADD SWAP1 POP DUP2 DUP2 SUB PUSH0 DUP4 ADD MSTORE PUSH2 0xFA8 DUP2 DUP5 PUSH2 0xF1D JUMP JUMPDEST SWAP1 POP SWAP3 SWAP2 POP POP JUMP JUMPDEST PUSH32 0x4E487B7100000000000000000000000000000000000000000000000000000000 PUSH0 MSTORE PUSH1 0x22 PUSH1 0x4 MSTORE PUSH1 0x24 PUSH0 REVERT JUMPDEST PUSH0 PUSH1 0x2 DUP3 DIV SWAP1 POP PUSH1 0x1 DUP3 AND DUP1 PUSH2 0xFF4 JUMPI PUSH1 0x7F DUP3 AND SWAP2 POP JUMPDEST PUSH1 0x20 DUP3 LT DUP2 SUB PUSH2 0x1007 JUMPI PUSH2 0x1006 PUSH2 0xFB0 JUMP JUMPDEST JUMPDEST POP SWAP2 SWAP1 POP JUMP JUMPDEST PUSH32 0x4E487B7100000000000000000000000000000000000000000000000000000000 PUSH0 MSTORE PUSH1 0x41 PUSH1 0x4 MSTORE PUSH1 0x24 PUSH0 REVERT JUMPDEST PUSH32 0x4E487B7100000000000000000000000000000000000000000000000000000000 PUSH0 MSTORE PUSH1 0x32 PUSH1 0x4 MSTORE PUSH1 0x24 PUSH0 REVERT JUMPDEST PUSH32 0x4E487B7100000000000000000000000000000000000000000000000000000000 PUSH0 MSTORE PUSH1 0x11 PUSH1 0x4 MSTORE PUSH1 0x24 PUSH0 REVERT JUMPDEST PUSH0 PUSH2 0x109E DUP3 PUSH2 0xAB5 JUMP JUMPDEST SWAP2 POP PUSH32 0xFFFFFFFFFFFFFFFFFFFFFFFFFFFFFFFFFFFFFFFFFFFFFFFFFFFFFFFFFFFFFFFF DUP3 SUB PUSH2 0x10D0 JUMPI PUSH2 0x10CF PUSH2 0x1067 JUMP JUMPDEST JUMPDEST PUSH1 0x1 DUP3 ADD SWAP1 POP SWAP2 SWAP1 POP JUMP JUMPDEST PUSH0 PUSH2 0x10E5 DUP3 PUSH2 0xAB5 JUMP JUMPDEST SWAP2 POP PUSH2 0x10F0 DUP4 PUSH2 0xAB5 JUMP JUMPDEST SWAP3 POP DUP3 DUP3 ADD SWAP1 POP DUP1 DUP3 GT ISZERO PUSH2 0x1108 JUMPI PUSH2 0x1107 PUSH2 0x1067 JUMP JUMPDEST JUMPDEST SWAP3 SWAP2 POP POP JUMP INVALID LOG2 PUSH5 0x6970667358 0x22 SLT KECCAK256 JUMPI CALLVALUE CODECOPY PUSH27 0x59C8CD7F7081581D94F9D872C97507C3C70A978D6A17159558391F SLOAD PUSH5 0x736F6C6343 STOP ADDMOD EQ STOP CALLER "
				},
				"gasEstimates": {
					"creation": {
						"codeDepositCost": "884000",
						"executionCost": "infinite",
						"totalCost": "infinite"
					},
					"external": {
						"candidates(uint256)": "infinite",
						"didCurrentVoterVoted(uint256)": "infinite",
						"extendVotingTime(uint256,uint256)": "infinite",
						"getCandidateList()": "infinite",
						"getResults(uint256)": "infinite",
						"getVotingEndTime()": "2454",
						"isVoterEligible(uint256)": "5066",
						"updateVotingStartTime(uint256,uint256)": "infinite",
						"vote(uint256,uint256,uint256)": "infinite"
					}
				},
				"methodIdentifiers": {
					"candidates(uint256)": "3477ee2e",
					"didCurrentVoterVoted(uint256)": "5e23c37c",
					"extendVotingTime(uint256,uint256)": "5d816e22",
					"getCandidateList()": "fdbc4006",
					"getResults(uint256)": "81a60c0d",
					"getVotingEndTime()": "b1bf87b0",
					"isVoterEligible(uint256)": "dce8d8a3",
					"updateVotingStartTime(uint256,uint256)": "b9d84552",
					"vote(uint256,uint256,uint256)": "8a6655d6"
				}
			},
			"storageLayout": {
				"storage": [
					{
						"astId": 7,
						"contract": "contracts/ElectronicVoting.sol:ElectronicVoting",
						"label": "candidates",
						"offset": 0,
						"slot": "0",
						"type": "t_array(t_struct(Candidate)450_storage)dyn_storage"
					},
					{
						"astId": 12,
						"contract": "contracts/ElectronicVoting.sol:ElectronicVoting",
						"label": "voter",
						"offset": 0,
						"slot": "1",
						"type": "t_mapping(t_uint256,t_struct(Voter)438_storage)"
					},
					{
						"astId": 17,
						"contract": "contracts/ElectronicVoting.sol:ElectronicVoting",
						"label": "candidate",
						"offset": 0,
						"slot": "2",
						"type": "t_mapping(t_uint256,t_struct(Candidate)450_storage)"
					},
					{
						"astId": 21,
						"contract": "contracts/ElectronicVoting.sol:ElectronicVoting",
						"label": "votesCount",
						"offset": 0,
						"slot": "3",
						"type": "t_mapping(t_uint256,t_uint256)"
					},
					{
						"astId": 23,
						"contract": "contracts/ElectronicVoting.sol:ElectronicVoting",
						"label": "admin",
						"offset": 0,
						"slot": "4",
						"type": "t_address"
					},
					{
						"astId": 25,
						"contract": "contracts/ElectronicVoting.sol:ElectronicVoting",
						"label": "votingStartTime",
						"offset": 0,
						"slot": "5",
						"type": "t_uint256"
					},
					{
						"astId": 27,
						"contract": "contracts/ElectronicVoting.sol:ElectronicVoting",
						"label": "votingEndTime",
						"offset": 0,
						"slot": "6",
						"type": "t_uint256"
					}
				],
				"types": {
					"t_address": {
						"encoding": "inplace",
						"label": "address",
						"numberOfBytes": "20"
					},
					"t_array(t_struct(Candidate)450_storage)dyn_storage": {
						"base": "t_struct(Candidate)450_storage",
						"encoding": "dynamic_array",
						"label": "struct Types.Candidate[]",
						"numberOfBytes": "32"
					},
					"t_mapping(t_uint256,t_struct(Candidate)450_storage)": {
						"encoding": "mapping",
						"key": "t_uint256",
						"label": "mapping(uint256 => struct Types.Candidate)",
						"numberOfBytes": "32",
						"value": "t_struct(Candidate)450_storage"
					},
					"t_mapping(t_uint256,t_struct(Voter)438_storage)": {
						"encoding": "mapping",
						"key": "t_uint256",
						"label": "mapping(uint256 => struct Types.Voter)",
						"numberOfBytes": "32",
						"value": "t_struct(Voter)438_storage"
					},
					"t_mapping(t_uint256,t_uint256)": {
						"encoding": "mapping",
						"key": "t_uint256",
						"label": "mapping(uint256 => uint256)",
						"numberOfBytes": "32",
						"value": "t_uint256"
					},
					"t_string_storage": {
						"encoding": "bytes",
						"label": "string",
						"numberOfBytes": "32"
					},
					"t_struct(Candidate)450_storage": {
						"encoding": "inplace",
						"label": "struct Types.Candidate",
						"members": [
							{
								"astId": 447,
								"contract": "contracts/ElectronicVoting.sol:ElectronicVoting",
								"label": "name",
								"offset": 0,
								"slot": "0",
								"type": "t_string_storage"
							},
							{
								"astId": 449,
								"contract": "contracts/ElectronicVoting.sol:ElectronicVoting",
								"label": "candidateId",
								"offset": 0,
								"slot": "1",
								"type": "t_uint256"
							}
						],
						"numberOfBytes": "64"
					},
					"t_struct(Voter)438_storage": {
						"encoding": "inplace",
						"label": "struct Types.Voter",
						"members": [
							{
								"astId": 431,
								"contract": "contracts/ElectronicVoting.sol:ElectronicVoting",
								"label": "voterId",
								"offset": 0,
								"slot": "0",
								"type": "t_uint256"
							},
							{
								"astId": 433,
								"contract": "contracts/ElectronicVoting.sol:ElectronicVoting",
								"label": "name",
								"offset": 0,
								"slot": "1",
								"type": "t_string_storage"
							},
							{
								"astId": 435,
								"contract": "contracts/ElectronicVoting.sol:ElectronicVoting",
								"label": "age",
								"offset": 0,
								"slot": "2",
								"type": "t_uint8"
							},
							{
								"astId": 437,
								"contract": "contracts/ElectronicVoting.sol:ElectronicVoting",
								"label": "votedTo",
								"offset": 0,
								"slot": "3",
								"type": "t_uint256"
							}
						],
						"numberOfBytes": "128"
					},
					"t_uint256": {
						"encoding": "inplace",
						"label": "uint256",
						"numberOfBytes": "32"
					},
					"t_uint8": {
						"encoding": "inplace",
						"label": "uint8",
						"numberOfBytes": "1"
					}
				}
			},
			"userdoc": {
				"kind": "user",
				"methods": {},
				"version": 1
			}
		}
	}
}