{
	"contracts/Capstone.sol": {
		"OnlineElection": {
			"abi": [
				{
					"inputs": [],
					"stateMutability": "nonpayable",
					"type": "constructor"
				},
				{
					"inputs": [
						{
							"internalType": "string",
							"name": "_name",
							"type": "string"
						},
						{
							"internalType": "string",
							"name": "_proposal",
							"type": "string"
						}
					],
					"name": "addCandidate",
					"outputs": [],
					"stateMutability": "nonpayable",
					"type": "function"
				},
				{
					"inputs": [
						{
							"internalType": "address",
							"name": "_voter",
							"type": "address"
						},
						{
							"internalType": "string",
							"name": "_voterName",
							"type": "string"
						}
					],
					"name": "addVoter",
					"outputs": [],
					"stateMutability": "nonpayable",
					"type": "function"
				},
				{
					"inputs": [],
					"name": "admin",
					"outputs": [
						{
							"internalType": "address",
							"name": "",
							"type": "address"
						}
					],
					"stateMutability": "view",
					"type": "function"
				},
				{
					"inputs": [
						{
							"internalType": "uint256",
							"name": "",
							"type": "uint256"
						}
					],
					"name": "candidates",
					"outputs": [
						{
							"internalType": "string",
							"name": "Cname",
							"type": "string"
						},
						{
							"internalType": "string",
							"name": "proposal",
							"type": "string"
						},
						{
							"internalType": "uint256",
							"name": "voteCount",
							"type": "uint256"
						},
						{
							"internalType": "uint256",
							"name": "rank",
							"type": "uint256"
						}
					],
					"stateMutability": "view",
					"type": "function"
				},
				{
					"inputs": [
						{
							"internalType": "uint256",
							"name": "_candidateId",
							"type": "uint256"
						}
					],
					"name": "castDelegateVote",
					"outputs": [],
					"stateMutability": "nonpayable",
					"type": "function"
				},
				{
					"inputs": [
						{
							"internalType": "uint256",
							"name": "_candidateId",
							"type": "uint256"
						}
					],
					"name": "castVote",
					"outputs": [],
					"stateMutability": "nonpayable",
					"type": "function"
				},
				{
					"inputs": [
						{
							"internalType": "address",
							"name": "_delegate",
							"type": "address"
						}
					],
					"name": "delegateVote",
					"outputs": [],
					"stateMutability": "nonpayable",
					"type": "function"
				},
				{
					"inputs": [],
					"name": "electionEnded",
					"outputs": [
						{
							"internalType": "bool",
							"name": "",
							"type": "bool"
						}
					],
					"stateMutability": "view",
					"type": "function"
				},
				{
					"inputs": [],
					"name": "electionStarted",
					"outputs": [
						{
							"internalType": "bool",
							"name": "",
							"type": "bool"
						}
					],
					"stateMutability": "view",
					"type": "function"
				},
				{
					"inputs": [],
					"name": "endElection",
					"outputs": [],
					"stateMutability": "nonpayable",
					"type": "function"
				},
				{
					"inputs": [],
					"name": "getAllCandidatesDetails",
					"outputs": [
						{
							"components": [
								{
									"internalType": "string",
									"name": "Cname",
									"type": "string"
								},
								{
									"internalType": "string",
									"name": "proposal",
									"type": "string"
								},
								{
									"internalType": "uint256",
									"name": "voteCount",
									"type": "uint256"
								},
								{
									"internalType": "uint256",
									"name": "rank",
									"type": "uint256"
								}
							],
							"internalType": "struct OnlineElection.Candidate[]",
							"name": "",
							"type": "tuple[]"
						}
					],
					"stateMutability": "view",
					"type": "function"
				},
				{
					"inputs": [],
					"name": "getAllVoterProfiles",
					"outputs": [
						{
							"components": [
								{
									"internalType": "string",
									"name": "Vname",
									"type": "string"
								},
								{
									"internalType": "address",
									"name": "delegate",
									"type": "address"
								},
								{
									"internalType": "bool",
									"name": "voted",
									"type": "bool"
								},
								{
									"internalType": "uint256",
									"name": "vote",
									"type": "uint256"
								},
								{
									"internalType": "uint16",
									"name": "age",
									"type": "uint16"
								}
							],
							"internalType": "struct OnlineElection.Voter[]",
							"name": "",
							"type": "tuple[]"
						}
					],
					"stateMutability": "view",
					"type": "function"
				},
				{
					"inputs": [],
					"name": "getCandidateCount",
					"outputs": [
						{
							"internalType": "uint256",
							"name": "",
							"type": "uint256"
						}
					],
					"stateMutability": "view",
					"type": "function"
				},
				{
					"inputs": [
						{
							"internalType": "uint256",
							"name": "_candidateId",
							"type": "uint256"
						}
					],
					"name": "getCandidateDetails",
					"outputs": [
						{
							"internalType": "uint256",
							"name": "",
							"type": "uint256"
						},
						{
							"internalType": "string",
							"name": "",
							"type": "string"
						},
						{
							"internalType": "string",
							"name": "",
							"type": "string"
						}
					],
					"stateMutability": "view",
					"type": "function"
				},
				{
					"inputs": [
						{
							"internalType": "address",
							"name": "_voterAddress",
							"type": "address"
						}
					],
					"name": "getVoterProfile",
					"outputs": [
						{
							"internalType": "string",
							"name": "",
							"type": "string"
						},
						{
							"internalType": "uint256",
							"name": "",
							"type": "uint256"
						},
						{
							"internalType": "bool",
							"name": "",
							"type": "bool"
						}
					],
					"stateMutability": "view",
					"type": "function"
				},
				{
					"inputs": [
						{
							"internalType": "uint256",
							"name": "_candidateId",
							"type": "uint256"
						}
					],
					"name": "getVotesForCandidate",
					"outputs": [
						{
							"internalType": "uint256",
							"name": "",
							"type": "uint256"
						}
					],
					"stateMutability": "view",
					"type": "function"
				},
				{
					"inputs": [],
					"name": "getWinner",
					"outputs": [
						{
							"internalType": "string",
							"name": "",
							"type": "string"
						},
						{
							"internalType": "uint256",
							"name": "",
							"type": "uint256"
						},
						{
							"internalType": "uint256",
							"name": "",
							"type": "uint256"
						}
					],
					"stateMutability": "view",
					"type": "function"
				},
				{
					"inputs": [],
					"name": "startElection",
					"outputs": [],
					"stateMutability": "nonpayable",
					"type": "function"
				},
				{
					"inputs": [
						{
							"internalType": "uint256",
							"name": "",
							"type": "uint256"
						}
					],
					"name": "voterAddresses",
					"outputs": [
						{
							"internalType": "address",
							"name": "",
							"type": "address"
						}
					],
					"stateMutability": "view",
					"type": "function"
				},
				{
					"inputs": [
						{
							"internalType": "address",
							"name": "",
							"type": "address"
						}
					],
					"name": "voters",
					"outputs": [
						{
							"internalType": "string",
							"name": "Vname",
							"type": "string"
						},
						{
							"internalType": "address",
							"name": "delegate",
							"type": "address"
						},
						{
							"internalType": "bool",
							"name": "voted",
							"type": "bool"
						},
						{
							"internalType": "uint256",
							"name": "vote",
							"type": "uint256"
						},
						{
							"internalType": "uint16",
							"name": "age",
							"type": "uint16"
						}
					],
					"stateMutability": "view",
					"type": "function"
				}
			],
			"devdoc": {
				"author": "Ankit Bhardwaj",
				"details": "Impelements replacement for traditional electronic voting  solutions with distributed, non-repudiation, and security  protection characteristics",
				"kind": "dev",
				"methods": {},
				"title": "Electronic Voting System",
				"version": 1
			},
			"evm": {
				"assembly": "    /* \"contracts/Capstone.sol\":298:7541  contract OnlineElection {... */\n  mstore(0x40, 0x80)\n    /* \"contracts/Capstone.sol\":1097:1214  constructor() {... */\n  callvalue\n  dup1\n  iszero\n  tag_1\n  jumpi\n  0x00\n  dup1\n  revert\ntag_1:\n  pop\n    /* \"contracts/Capstone.sol\":1130:1140  msg.sender */\n  caller\n    /* \"contracts/Capstone.sol\":1122:1127  admin */\n  0x00\n  dup1\n    /* \"contracts/Capstone.sol\":1122:1140  admin = msg.sender */\n  0x0100\n  exp\n  dup2\n  sload\n  dup2\n  0xffffffffffffffffffffffffffffffffffffffff\n  mul\n  not\n  and\n  swap1\n  dup4\n  0xffffffffffffffffffffffffffffffffffffffff\n  and\n  mul\n  or\n  swap1\n  sstore\n  pop\n    /* \"contracts/Capstone.sol\":1169:1174  false */\n  0x00\n    /* \"contracts/Capstone.sol\":1151:1166  electionStarted */\n  dup1\n  0x14\n    /* \"contracts/Capstone.sol\":1151:1174  electionStarted = false */\n  0x0100\n  exp\n  dup2\n  sload\n  dup2\n  0xff\n  mul\n  not\n  and\n  swap1\n  dup4\n  iszero\n  iszero\n  mul\n  or\n  swap1\n  sstore\n  pop\n    /* \"contracts/Capstone.sol\":1201:1206  false */\n  0x00\n    /* \"contracts/Capstone.sol\":1185:1198  electionEnded */\n  dup1\n  0x15\n    /* \"contracts/Capstone.sol\":1185:1206  electionEnded = false */\n  0x0100\n  exp\n  dup2\n  sload\n  dup2\n  0xff\n  mul\n  not\n  and\n  swap1\n  dup4\n  iszero\n  iszero\n  mul\n  or\n  swap1\n  sstore\n  pop\n    /* \"contracts/Capstone.sol\":298:7541  contract OnlineElection {... */\n  dataSize(sub_0)\n  dup1\n  dataOffset(sub_0)\n  0x00\n  codecopy\n  0x00\n  return\nstop\n\nsub_0: assembly {\n        /* \"contracts/Capstone.sol\":298:7541  contract OnlineElection {... */\n      mstore(0x40, 0x80)\n      callvalue\n      dup1\n      iszero\n      tag_1\n      jumpi\n      0x00\n      dup1\n      revert\n    tag_1:\n      pop\n      jumpi(tag_2, lt(calldatasize, 0x04))\n      shr(0xe0, calldataload(0x00))\n      dup1\n      0x8e7ea5b2\n      gt\n      tag_23\n      jumpi\n      dup1\n      0xd5346da1\n      gt\n      tag_24\n      jumpi\n      dup1\n      0xd5346da1\n      eq\n      tag_18\n      jumpi\n      dup1\n      0xd8a6f68f\n      eq\n      tag_19\n      jumpi\n      dup1\n      0xd9e95a98\n      eq\n      tag_20\n      jumpi\n      dup1\n      0xdd0e2373\n      eq\n      tag_21\n      jumpi\n      dup1\n      0xf851a440\n      eq\n      tag_22\n      jumpi\n      jump(tag_2)\n    tag_24:\n      dup1\n      0x8e7ea5b2\n      eq\n      tag_13\n      jumpi\n      dup1\n      0xa3ec138d\n      eq\n      tag_14\n      jumpi\n      dup1\n      0xb31e1d4d\n      eq\n      tag_15\n      jumpi\n      dup1\n      0xc94ca9e3\n      eq\n      tag_16\n      jumpi\n      dup1\n      0xcba5cf99\n      eq\n      tag_17\n      jumpi\n      jump(tag_2)\n    tag_23:\n      dup1\n      0x3eb76b9c\n      gt\n      tag_25\n      jumpi\n      dup1\n      0x3eb76b9c\n      eq\n      tag_8\n      jumpi\n      dup1\n      0x53017872\n      eq\n      tag_9\n      jumpi\n      dup1\n      0x55edc27a\n      eq\n      tag_10\n      jumpi\n      dup1\n      0x59f78468\n      eq\n      tag_11\n      jumpi\n      dup1\n      0x62d73eb8\n      eq\n      tag_12\n      jumpi\n      jump(tag_2)\n    tag_25:\n      dup1\n      0x26541b56\n      eq\n      tag_3\n      jumpi\n      dup1\n      0x27f9fd50\n      eq\n      tag_4\n      jumpi\n      dup1\n      0x30a56347\n      eq\n      tag_5\n      jumpi\n      dup1\n      0x3477ee2e\n      eq\n      tag_6\n      jumpi\n      dup1\n      0x3ea70581\n      eq\n      tag_7\n      jumpi\n    tag_2:\n      0x00\n      dup1\n      revert\n        /* \"contracts/Capstone.sol\":1222:1835  function addCandidate(string memory _name, string memory _proposal) public isAdmin {... */\n    tag_3:\n      tag_26\n      0x04\n      dup1\n      calldatasize\n      sub\n      dup2\n      add\n      swap1\n      tag_27\n      swap2\n      swap1\n      tag_28\n      jump\t// in\n    tag_27:\n      tag_29\n      jump\t// in\n    tag_26:\n      stop\n        /* \"contracts/Capstone.sol\":5035:5365  function getCandidateDetails(uint256 _candidateId) public view returns (uint256, string memory, string memory) {... */\n    tag_4:\n      tag_30\n      0x04\n      dup1\n      calldatasize\n      sub\n      dup2\n      add\n      swap1\n      tag_31\n      swap2\n      swap1\n      tag_32\n      jump\t// in\n    tag_31:\n      tag_33\n      jump\t// in\n    tag_30:\n      mload(0x40)\n      tag_34\n      swap4\n      swap3\n      swap2\n      swap1\n      tag_35\n      jump\t// in\n    tag_34:\n      mload(0x40)\n      dup1\n      swap2\n      sub\n      swap1\n      return\n        /* \"contracts/Capstone.sol\":5371:5473  function getCandidateCount() public view returns (uint256) {... */\n    tag_5:\n      tag_36\n      tag_37\n      jump\t// in\n    tag_36:\n      mload(0x40)\n      tag_38\n      swap2\n      swap1\n      tag_39\n      jump\t// in\n    tag_38:\n      mload(0x40)\n      dup1\n      swap2\n      sub\n      swap1\n      return\n        /* \"contracts/Capstone.sol\":747:776  Candidate[] public candidates */\n    tag_6:\n      tag_40\n      0x04\n      dup1\n      calldatasize\n      sub\n      dup2\n      add\n      swap1\n      tag_41\n      swap2\n      swap1\n      tag_32\n      jump\t// in\n    tag_41:\n      tag_42\n      jump\t// in\n    tag_40:\n      mload(0x40)\n      tag_43\n      swap5\n      swap4\n      swap3\n      swap2\n      swap1\n      tag_44\n      jump\t// in\n    tag_43:\n      mload(0x40)\n      dup1\n      swap2\n      sub\n      swap1\n      return\n        /* \"contracts/Capstone.sol\":3723:4203  function castDelegateVote(uint256 _candidateId) public isElectionInProgress {... */\n    tag_7:\n      tag_45\n      0x04\n      dup1\n      calldatasize\n      sub\n      dup2\n      add\n      swap1\n      tag_46\n      swap2\n      swap1\n      tag_32\n      jump\t// in\n    tag_46:\n      tag_47\n      jump\t// in\n    tag_45:\n      stop\n        /* \"contracts/Capstone.sol\":3243:3715  function castVote(uint256 _candidateId) public isElectionInProgress {... */\n    tag_8:\n      tag_48\n      0x04\n      dup1\n      calldatasize\n      sub\n      dup2\n      add\n      swap1\n      tag_49\n      swap2\n      swap1\n      tag_32\n      jump\t// in\n    tag_49:\n      tag_50\n      jump\t// in\n    tag_48:\n      stop\n        /* \"contracts/Capstone.sol\":5989:6207  function getVotesForCandidate(uint256 _candidateId) public view returns (uint256) {... */\n    tag_9:\n      tag_51\n      0x04\n      dup1\n      calldatasize\n      sub\n      dup2\n      add\n      swap1\n      tag_52\n      swap2\n      swap1\n      tag_32\n      jump\t// in\n    tag_52:\n      tag_53\n      jump\t// in\n    tag_51:\n      mload(0x40)\n      tag_54\n      swap2\n      swap1\n      tag_39\n      jump\t// in\n    tag_54:\n      mload(0x40)\n      dup1\n      swap2\n      sub\n      swap1\n      return\n        /* \"contracts/Capstone.sol\":6456:6826  function getAllVoterProfiles() public view returns (Voter[] memory) {... */\n    tag_10:\n      tag_55\n      tag_56\n      jump\t// in\n    tag_55:\n      mload(0x40)\n      tag_57\n      swap2\n      swap1\n      tag_58\n      jump\t// in\n    tag_57:\n      mload(0x40)\n      dup1\n      swap2\n      sub\n      swap1\n      return\n        /* \"contracts/Capstone.sol\":4211:4501  function endElection() public isAdmin {... */\n    tag_11:\n      tag_59\n      tag_60\n      jump\t// in\n    tag_59:\n      stop\n        /* \"contracts/Capstone.sol\":2791:2942  function startElection() public isAdmin {... */\n    tag_12:\n      tag_61\n      tag_62\n      jump\t// in\n    tag_61:\n      stop\n        /* \"contracts/Capstone.sol\":4509:5027  function getWinner() public view returns (string memory, uint256, uint256) {... */\n    tag_13:\n      tag_63\n      tag_64\n      jump\t// in\n    tag_63:\n      mload(0x40)\n      tag_65\n      swap4\n      swap3\n      swap2\n      swap1\n      tag_66\n      jump\t// in\n    tag_65:\n      mload(0x40)\n      dup1\n      swap2\n      sub\n      swap1\n      return\n        /* \"contracts/Capstone.sol\":701:740  mapping(address => Voter) public voters */\n    tag_14:\n      tag_67\n      0x04\n      dup1\n      calldatasize\n      sub\n      dup2\n      add\n      swap1\n      tag_68\n      swap2\n      swap1\n      tag_69\n      jump\t// in\n    tag_68:\n      tag_70\n      jump\t// in\n    tag_67:\n      mload(0x40)\n      tag_71\n      swap6\n      swap5\n      swap4\n      swap3\n      swap2\n      swap1\n      tag_72\n      jump\t// in\n    tag_71:\n      mload(0x40)\n      dup1\n      swap2\n      sub\n      swap1\n      return\n        /* \"contracts/Capstone.sol\":2950:3235  function delegateVote(address _delegate) public isElectionInProgress {... */\n    tag_15:\n      tag_73\n      0x04\n      dup1\n      calldatasize\n      sub\n      dup2\n      add\n      swap1\n      tag_74\n      swap2\n      swap1\n      tag_69\n      jump\t// in\n    tag_74:\n      tag_75\n      jump\t// in\n    tag_73:\n      stop\n        /* \"contracts/Capstone.sol\":667:692  bool public electionEnded */\n    tag_16:\n      tag_76\n      tag_77\n      jump\t// in\n    tag_76:\n      mload(0x40)\n      tag_78\n      swap2\n      swap1\n      tag_79\n      jump\t// in\n    tag_78:\n      mload(0x40)\n      dup1\n      swap2\n      sub\n      swap1\n      return\n        /* \"contracts/Capstone.sol\":5481:5981  function getAllCandidatesDetails() public view returns (Candidate[] memory) {... */\n    tag_17:\n      tag_80\n      tag_81\n      jump\t// in\n    tag_80:\n      mload(0x40)\n      tag_82\n      swap2\n      swap1\n      tag_83\n      jump\t// in\n    tag_82:\n      mload(0x40)\n      dup1\n      swap2\n      sub\n      swap1\n      return\n        /* \"contracts/Capstone.sol\":633:660  bool public electionStarted */\n    tag_18:\n      tag_84\n      tag_85\n      jump\t// in\n    tag_84:\n      mload(0x40)\n      tag_86\n      swap2\n      swap1\n      tag_79\n      jump\t// in\n    tag_86:\n      mload(0x40)\n      dup1\n      swap2\n      sub\n      swap1\n      return\n        /* \"contracts/Capstone.sol\":6215:6448  function getVoterProfile(address _voterAddress) public view returns (string memory, uint256, bool) {... */\n    tag_19:\n      tag_87\n      0x04\n      dup1\n      calldatasize\n      sub\n      dup2\n      add\n      swap1\n      tag_88\n      swap2\n      swap1\n      tag_69\n      jump\t// in\n    tag_88:\n      tag_89\n      jump\t// in\n    tag_87:\n      mload(0x40)\n      tag_90\n      swap4\n      swap3\n      swap2\n      swap1\n      tag_91\n      jump\t// in\n    tag_90:\n      mload(0x40)\n      dup1\n      swap2\n      sub\n      swap1\n      return\n        /* \"contracts/Capstone.sol\":1843:2779  function addVoter(address _voter, string memory _voterName) public isAdmin {... */\n    tag_20:\n      tag_92\n      0x04\n      dup1\n      calldatasize\n      sub\n      dup2\n      add\n      swap1\n      tag_93\n      swap2\n      swap1\n      tag_94\n      jump\t// in\n    tag_93:\n      tag_95\n      jump\t// in\n    tag_92:\n      stop\n        /* \"contracts/Capstone.sol\":783:814  address[] public voterAddresses */\n    tag_21:\n      tag_96\n      0x04\n      dup1\n      calldatasize\n      sub\n      dup2\n      add\n      swap1\n      tag_97\n      swap2\n      swap1\n      tag_32\n      jump\t// in\n    tag_97:\n      tag_98\n      jump\t// in\n    tag_96:\n      mload(0x40)\n      tag_99\n      swap2\n      swap1\n      tag_100\n      jump\t// in\n    tag_99:\n      mload(0x40)\n      dup1\n      swap2\n      sub\n      swap1\n      return\n        /* \"contracts/Capstone.sol\":606:626  address public admin */\n    tag_22:\n      tag_101\n      tag_102\n      jump\t// in\n    tag_101:\n      mload(0x40)\n      tag_103\n      swap2\n      swap1\n      tag_100\n      jump\t// in\n    tag_103:\n      mload(0x40)\n      dup1\n      swap2\n      sub\n      swap1\n      return\n        /* \"contracts/Capstone.sol\":1222:1835  function addCandidate(string memory _name, string memory _proposal) public isAdmin {... */\n    tag_29:\n        /* \"contracts/Capstone.sol\":875:880  admin */\n      0x00\n      dup1\n      sload\n      swap1\n      0x0100\n      exp\n      swap1\n      div\n      0xffffffffffffffffffffffffffffffffffffffff\n      and\n        /* \"contracts/Capstone.sol\":861:880  msg.sender == admin */\n      0xffffffffffffffffffffffffffffffffffffffff\n      and\n        /* \"contracts/Capstone.sol\":861:871  msg.sender */\n      caller\n        /* \"contracts/Capstone.sol\":861:880  msg.sender == admin */\n      0xffffffffffffffffffffffffffffffffffffffff\n      and\n      eq\n        /* \"contracts/Capstone.sol\":853:923  require(msg.sender == admin, \"Only the admin can perform this action\") */\n      tag_105\n      jumpi\n      mload(0x40)\n      0x08c379a000000000000000000000000000000000000000000000000000000000\n      dup2\n      mstore\n      0x04\n      add\n      tag_106\n      swap1\n      tag_107\n      jump\t// in\n    tag_106:\n      mload(0x40)\n      dup1\n      swap2\n      sub\n      swap1\n      revert\n    tag_105:\n        /* \"contracts/Capstone.sol\":1325:1340  electionStarted */\n      0x00\n      0x14\n      swap1\n      sload\n      swap1\n      0x0100\n      exp\n      swap1\n      div\n      0xff\n      and\n        /* \"contracts/Capstone.sol\":1324:1340  !electionStarted */\n      iszero\n        /* \"contracts/Capstone.sol\":1316:1373  require(!electionStarted, \"Election has already started\") */\n      tag_109\n      jumpi\n      mload(0x40)\n      0x08c379a000000000000000000000000000000000000000000000000000000000\n      dup2\n      mstore\n      0x04\n      add\n      tag_110\n      swap1\n      tag_111\n      jump\t// in\n    tag_110:\n      mload(0x40)\n      dup1\n      swap2\n      sub\n      swap1\n      revert\n    tag_109:\n        /* \"contracts/Capstone.sol\":1443:1452  uint256 i */\n      0x00\n        /* \"contracts/Capstone.sol\":1438:1666  for (uint256 i = 0; i < candidates.length; i++) { ... */\n    tag_112:\n        /* \"contracts/Capstone.sol\":1462:1472  candidates */\n      0x02\n        /* \"contracts/Capstone.sol\":1462:1479  candidates.length */\n      dup1\n      sload\n      swap1\n      pop\n        /* \"contracts/Capstone.sol\":1458:1459  i */\n      dup2\n        /* \"contracts/Capstone.sol\":1458:1479  i < candidates.length */\n      lt\n        /* \"contracts/Capstone.sol\":1438:1666  for (uint256 i = 0; i < candidates.length; i++) { ... */\n      iszero\n      tag_113\n      jumpi\n        /* \"contracts/Capstone.sol\":1585:1590  _name */\n      dup3\n        /* \"contracts/Capstone.sol\":1569:1592  keccak256(bytes(_name)) */\n      dup1\n      mload\n      swap1\n      0x20\n      add\n      keccak256\n        /* \"contracts/Capstone.sol\":1544:1554  candidates */\n      0x02\n        /* \"contracts/Capstone.sol\":1555:1556  i */\n      dup3\n        /* \"contracts/Capstone.sol\":1544:1557  candidates[i] */\n      dup2\n      sload\n      dup2\n      lt\n      tag_115\n      jumpi\n      tag_116\n      tag_117\n      jump\t// in\n    tag_116:\n    tag_115:\n      swap1\n      0x00\n      mstore\n      keccak256(0x00, 0x20)\n      swap1\n      0x04\n      mul\n      add\n        /* \"contracts/Capstone.sol\":1544:1563  candidates[i].Cname */\n      0x00\n      add\n        /* \"contracts/Capstone.sol\":1528:1565  keccak256(bytes(candidates[i].Cname)) */\n      mload(0x40)\n      tag_119\n      swap2\n      swap1\n      tag_120\n      jump\t// in\n    tag_119:\n      mload(0x40)\n      dup1\n      swap2\n      sub\n      swap1\n      keccak256\n        /* \"contracts/Capstone.sol\":1528:1592  keccak256(bytes(candidates[i].Cname)) != keccak256(bytes(_name)) */\n      sub\n        /* \"contracts/Capstone.sol\":1502:1654  require(... */\n      tag_121\n      jumpi\n      mload(0x40)\n      0x08c379a000000000000000000000000000000000000000000000000000000000\n      dup2\n      mstore\n      0x04\n      add\n      tag_122\n      swap1\n      tag_123\n      jump\t// in\n    tag_122:\n      mload(0x40)\n      dup1\n      swap2\n      sub\n      swap1\n      revert\n    tag_121:\n        /* \"contracts/Capstone.sol\":1481:1484  i++ */\n      dup1\n      dup1\n      tag_124\n      swap1\n      tag_125\n      jump\t// in\n    tag_124:\n      swap2\n      pop\n      pop\n        /* \"contracts/Capstone.sol\":1438:1666  for (uint256 i = 0; i < candidates.length; i++) { ... */\n      jump(tag_112)\n    tag_113:\n      pop\n        /* \"contracts/Capstone.sol\":1678:1688  candidates */\n      0x02\n        /* \"contracts/Capstone.sol\":1694:1826  Candidate({... */\n      mload(0x40)\n      dup1\n      0x80\n      add\n      0x40\n      mstore\n      dup1\n        /* \"contracts/Capstone.sol\":1726:1731  _name */\n      dup5\n        /* \"contracts/Capstone.sol\":1694:1826  Candidate({... */\n      dup2\n      mstore\n      0x20\n      add\n        /* \"contracts/Capstone.sol\":1756:1765  _proposal */\n      dup4\n        /* \"contracts/Capstone.sol\":1694:1826  Candidate({... */\n      dup2\n      mstore\n      0x20\n      add\n        /* \"contracts/Capstone.sol\":1791:1792  0 */\n      0x00\n        /* \"contracts/Capstone.sol\":1694:1826  Candidate({... */\n      dup2\n      mstore\n      0x20\n      add\n        /* \"contracts/Capstone.sol\":1813:1814  0 */\n      0x00\n        /* \"contracts/Capstone.sol\":1694:1826  Candidate({... */\n      dup2\n      mstore\n      pop\n        /* \"contracts/Capstone.sol\":1678:1827  candidates.push(Candidate({... */\n      swap1\n      dup1\n      0x01\n      dup2\n      sload\n      add\n      dup1\n      dup3\n      sstore\n      dup1\n      swap2\n      pop\n      pop\n      0x01\n      swap1\n      sub\n      swap1\n      0x00\n      mstore\n      keccak256(0x00, 0x20)\n      swap1\n      0x04\n      mul\n      add\n      0x00\n      swap1\n      swap2\n      swap1\n      swap2\n      swap1\n      swap2\n      pop\n      0x00\n      dup3\n      add\n      mload\n      dup2\n      0x00\n      add\n      swap1\n      dup2\n      tag_127\n      swap2\n      swap1\n      tag_128\n      jump\t// in\n    tag_127:\n      pop\n      0x20\n      dup3\n      add\n      mload\n      dup2\n      0x01\n      add\n      swap1\n      dup2\n      tag_129\n      swap2\n      swap1\n      tag_128\n      jump\t// in\n    tag_129:\n      pop\n      0x40\n      dup3\n      add\n      mload\n      dup2\n      0x02\n      add\n      sstore\n      0x60\n      dup3\n      add\n      mload\n      dup2\n      0x03\n      add\n      sstore\n      pop\n      pop\n        /* \"contracts/Capstone.sol\":1222:1835  function addCandidate(string memory _name, string memory _proposal) public isAdmin {... */\n      pop\n      pop\n      jump\t// out\n        /* \"contracts/Capstone.sol\":5035:5365  function getCandidateDetails(uint256 _candidateId) public view returns (uint256, string memory, string memory) {... */\n    tag_33:\n        /* \"contracts/Capstone.sol\":5107:5114  uint256 */\n      0x00\n        /* \"contracts/Capstone.sol\":5116:5129  string memory */\n      0x60\n        /* \"contracts/Capstone.sol\":5131:5144  string memory */\n      dup1\n        /* \"contracts/Capstone.sol\":5180:5190  candidates */\n      0x02\n        /* \"contracts/Capstone.sol\":5180:5197  candidates.length */\n      dup1\n      sload\n      swap1\n      pop\n        /* \"contracts/Capstone.sol\":5165:5177  _candidateId */\n      dup5\n        /* \"contracts/Capstone.sol\":5165:5197  _candidateId < candidates.length */\n      lt\n        /* \"contracts/Capstone.sol\":5157:5222  require(_candidateId < candidates.length, \"Invalid candidate ID\") */\n      tag_131\n      jumpi\n      mload(0x40)\n      0x08c379a000000000000000000000000000000000000000000000000000000000\n      dup2\n      mstore\n      0x04\n      add\n      tag_132\n      swap1\n      tag_133\n      jump\t// in\n    tag_132:\n      mload(0x40)\n      dup1\n      swap2\n      sub\n      swap1\n      revert\n    tag_131:\n        /* \"contracts/Capstone.sol\":5235:5261  Candidate memory candidate */\n      0x00\n        /* \"contracts/Capstone.sol\":5264:5274  candidates */\n      0x02\n        /* \"contracts/Capstone.sol\":5275:5287  _candidateId */\n      dup6\n        /* \"contracts/Capstone.sol\":5264:5288  candidates[_candidateId] */\n      dup2\n      sload\n      dup2\n      lt\n      tag_134\n      jumpi\n      tag_135\n      tag_117\n      jump\t// in\n    tag_135:\n    tag_134:\n      swap1\n      0x00\n      mstore\n      keccak256(0x00, 0x20)\n      swap1\n      0x04\n      mul\n      add\n        /* \"contracts/Capstone.sol\":5235:5288  Candidate memory candidate = candidates[_candidateId] */\n      mload(0x40)\n      dup1\n      0x80\n      add\n      0x40\n      mstore\n      swap1\n      dup2\n      0x00\n      dup3\n      add\n      dup1\n      sload\n      tag_137\n      swap1\n      tag_138\n      jump\t// in\n    tag_137:\n      dup1\n      0x1f\n      add\n      0x20\n      dup1\n      swap2\n      div\n      mul\n      0x20\n      add\n      mload(0x40)\n      swap1\n      dup2\n      add\n      0x40\n      mstore\n      dup1\n      swap3\n      swap2\n      swap1\n      dup2\n      dup2\n      mstore\n      0x20\n      add\n      dup3\n      dup1\n      sload\n      tag_139\n      swap1\n      tag_138\n      jump\t// in\n    tag_139:\n      dup1\n      iszero\n      tag_140\n      jumpi\n      dup1\n      0x1f\n      lt\n      tag_141\n      jumpi\n      0x0100\n      dup1\n      dup4\n      sload\n      div\n      mul\n      dup4\n      mstore\n      swap2\n      0x20\n      add\n      swap2\n      jump(tag_140)\n    tag_141:\n      dup3\n      add\n      swap2\n      swap1\n      0x00\n      mstore\n      keccak256(0x00, 0x20)\n      swap1\n    tag_142:\n      dup2\n      sload\n      dup2\n      mstore\n      swap1\n      0x01\n      add\n      swap1\n      0x20\n      add\n      dup1\n      dup4\n      gt\n      tag_142\n      jumpi\n      dup3\n      swap1\n      sub\n      0x1f\n      and\n      dup3\n      add\n      swap2\n    tag_140:\n      pop\n      pop\n      pop\n      pop\n      pop\n      dup2\n      mstore\n      0x20\n      add\n      0x01\n      dup3\n      add\n      dup1\n      sload\n      tag_143\n      swap1\n      tag_138\n      jump\t// in\n    tag_143:\n      dup1\n      0x1f\n      add\n      0x20\n      dup1\n      swap2\n      div\n      mul\n      0x20\n      add\n      mload(0x40)\n      swap1\n      dup2\n      add\n      0x40\n      mstore\n      dup1\n      swap3\n      swap2\n      swap1\n      dup2\n      dup2\n      mstore\n      0x20\n      add\n      dup3\n      dup1\n      sload\n      tag_144\n      swap1\n      tag_138\n      jump\t// in\n    tag_144:\n      dup1\n      iszero\n      tag_145\n      jumpi\n      dup1\n      0x1f\n      lt\n      tag_146\n      jumpi\n      0x0100\n      dup1\n      dup4\n      sload\n      div\n      mul\n      dup4\n      mstore\n      swap2\n      0x20\n      add\n      swap2\n      jump(tag_145)\n    tag_146:\n      dup3\n      add\n      swap2\n      swap1\n      0x00\n      mstore\n      keccak256(0x00, 0x20)\n      swap1\n    tag_147:\n      dup2\n      sload\n      dup2\n      mstore\n      swap1\n      0x01\n      add\n      swap1\n      0x20\n      add\n      dup1\n      dup4\n      gt\n      tag_147\n      jumpi\n      dup3\n      swap1\n      sub\n      0x1f\n      and\n      dup3\n      add\n      swap2\n    tag_145:\n      pop\n      pop\n      pop\n      pop\n      pop\n      dup2\n      mstore\n      0x20\n      add\n      0x02\n      dup3\n      add\n      sload\n      dup2\n      mstore\n      0x20\n      add\n      0x03\n      dup3\n      add\n      sload\n      dup2\n      mstore\n      pop\n      pop\n      swap1\n      pop\n        /* \"contracts/Capstone.sol\":5307:5319  _candidateId */\n      dup5\n        /* \"contracts/Capstone.sol\":5321:5330  candidate */\n      dup2\n        /* \"contracts/Capstone.sol\":5321:5336  candidate.Cname */\n      0x00\n      add\n      mload\n        /* \"contracts/Capstone.sol\":5338:5347  candidate */\n      dup3\n        /* \"contracts/Capstone.sol\":5338:5356  candidate.proposal */\n      0x20\n      add\n      mload\n        /* \"contracts/Capstone.sol\":5299:5357  return (_candidateId, candidate.Cname, candidate.proposal) */\n      swap4\n      pop\n      swap4\n      pop\n      swap4\n      pop\n      pop\n        /* \"contracts/Capstone.sol\":5035:5365  function getCandidateDetails(uint256 _candidateId) public view returns (uint256, string memory, string memory) {... */\n      swap2\n      swap4\n      swap1\n      swap3\n      pop\n      jump\t// out\n        /* \"contracts/Capstone.sol\":5371:5473  function getCandidateCount() public view returns (uint256) {... */\n    tag_37:\n        /* \"contracts/Capstone.sol\":5421:5428  uint256 */\n      0x00\n        /* \"contracts/Capstone.sol\":5448:5458  candidates */\n      0x02\n        /* \"contracts/Capstone.sol\":5448:5465  candidates.length */\n      dup1\n      sload\n      swap1\n      pop\n        /* \"contracts/Capstone.sol\":5441:5465  return candidates.length */\n      swap1\n      pop\n        /* \"contracts/Capstone.sol\":5371:5473  function getCandidateCount() public view returns (uint256) {... */\n      swap1\n      jump\t// out\n        /* \"contracts/Capstone.sol\":747:776  Candidate[] public candidates */\n    tag_42:\n      0x02\n      dup2\n      dup2\n      sload\n      dup2\n      lt\n      tag_149\n      jumpi\n      0x00\n      dup1\n      revert\n    tag_149:\n      swap1\n      0x00\n      mstore\n      keccak256(0x00, 0x20)\n      swap1\n      0x04\n      mul\n      add\n      0x00\n      swap2\n      pop\n      swap1\n      pop\n      dup1\n      0x00\n      add\n      dup1\n      sload\n      tag_151\n      swap1\n      tag_138\n      jump\t// in\n    tag_151:\n      dup1\n      0x1f\n      add\n      0x20\n      dup1\n      swap2\n      div\n      mul\n      0x20\n      add\n      mload(0x40)\n      swap1\n      dup2\n      add\n      0x40\n      mstore\n      dup1\n      swap3\n      swap2\n      swap1\n      dup2\n      dup2\n      mstore\n      0x20\n      add\n      dup3\n      dup1\n      sload\n      tag_152\n      swap1\n      tag_138\n      jump\t// in\n    tag_152:\n      dup1\n      iszero\n      tag_153\n      jumpi\n      dup1\n      0x1f\n      lt\n      tag_154\n      jumpi\n      0x0100\n      dup1\n      dup4\n      sload\n      div\n      mul\n      dup4\n      mstore\n      swap2\n      0x20\n      add\n      swap2\n      jump(tag_153)\n    tag_154:\n      dup3\n      add\n      swap2\n      swap1\n      0x00\n      mstore\n      keccak256(0x00, 0x20)\n      swap1\n    tag_155:\n      dup2\n      sload\n      dup2\n      mstore\n      swap1\n      0x01\n      add\n      swap1\n      0x20\n      add\n      dup1\n      dup4\n      gt\n      tag_155\n      jumpi\n      dup3\n      swap1\n      sub\n      0x1f\n      and\n      dup3\n      add\n      swap2\n    tag_153:\n      pop\n      pop\n      pop\n      pop\n      pop\n      swap1\n      dup1\n      0x01\n      add\n      dup1\n      sload\n      tag_156\n      swap1\n      tag_138\n      jump\t// in\n    tag_156:\n      dup1\n      0x1f\n      add\n      0x20\n      dup1\n      swap2\n      div\n      mul\n      0x20\n      add\n      mload(0x40)\n      swap1\n      dup2\n      add\n      0x40\n      mstore\n      dup1\n      swap3\n      swap2\n      swap1\n      dup2\n      dup2\n      mstore\n      0x20\n      add\n      dup3\n      dup1\n      sload\n      tag_157\n      swap1\n      tag_138\n      jump\t// in\n    tag_157:\n      dup1\n      iszero\n      tag_158\n      jumpi\n      dup1\n      0x1f\n      lt\n      tag_159\n      jumpi\n      0x0100\n      dup1\n      dup4\n      sload\n      div\n      mul\n      dup4\n      mstore\n      swap2\n      0x20\n      add\n      swap2\n      jump(tag_158)\n    tag_159:\n      dup3\n      add\n      swap2\n      swap1\n      0x00\n      mstore\n      keccak256(0x00, 0x20)\n      swap1\n    tag_160:\n      dup2\n      sload\n      dup2\n      mstore\n      swap1\n      0x01\n      add\n      swap1\n      0x20\n      add\n      dup1\n      dup4\n      gt\n      tag_160\n      jumpi\n      dup3\n      swap1\n      sub\n      0x1f\n      and\n      dup3\n      add\n      swap2\n    tag_158:\n      pop\n      pop\n      pop\n      pop\n      pop\n      swap1\n      dup1\n      0x02\n      add\n      sload\n      swap1\n      dup1\n      0x03\n      add\n      sload\n      swap1\n      pop\n      dup5\n      jump\t// out\n        /* \"contracts/Capstone.sol\":3723:4203  function castDelegateVote(uint256 _candidateId) public isElectionInProgress {... */\n    tag_47:\n        /* \"contracts/Capstone.sol\":1002:1017  electionStarted */\n      0x00\n      0x14\n      swap1\n      sload\n      swap1\n      0x0100\n      exp\n      swap1\n      div\n      0xff\n      and\n        /* \"contracts/Capstone.sol\":1002:1035  electionStarted && !electionEnded */\n      dup1\n      iszero\n      tag_162\n      jumpi\n      pop\n        /* \"contracts/Capstone.sol\":1022:1035  electionEnded */\n      0x00\n      0x15\n      swap1\n      sload\n      swap1\n      0x0100\n      exp\n      swap1\n      div\n      0xff\n      and\n        /* \"contracts/Capstone.sol\":1021:1035  !electionEnded */\n      iszero\n        /* \"contracts/Capstone.sol\":1002:1035  electionStarted && !electionEnded */\n    tag_162:\n        /* \"contracts/Capstone.sol\":994:1069  require(electionStarted && !electionEnded, \"Election is still in progress\") */\n      tag_163\n      jumpi\n      mload(0x40)\n      0x08c379a000000000000000000000000000000000000000000000000000000000\n      dup2\n      mstore\n      0x04\n      add\n      tag_164\n      swap1\n      tag_165\n      jump\t// in\n    tag_164:\n      mload(0x40)\n      dup1\n      swap2\n      sub\n      swap1\n      revert\n    tag_163:\n        /* \"contracts/Capstone.sol\":3810:3830  Voter storage sender */\n      0x00\n        /* \"contracts/Capstone.sol\":3833:3839  voters */\n      0x01\n        /* \"contracts/Capstone.sol\":3833:3851  voters[msg.sender] */\n      0x00\n        /* \"contracts/Capstone.sol\":3840:3850  msg.sender */\n      caller\n        /* \"contracts/Capstone.sol\":3833:3851  voters[msg.sender] */\n      0xffffffffffffffffffffffffffffffffffffffff\n      and\n      0xffffffffffffffffffffffffffffffffffffffff\n      and\n      dup2\n      mstore\n      0x20\n      add\n      swap1\n      dup2\n      mstore\n      0x20\n      add\n      0x00\n      keccak256\n        /* \"contracts/Capstone.sol\":3810:3851  Voter storage sender = voters[msg.sender] */\n      swap1\n      pop\n        /* \"contracts/Capstone.sol\":3952:3962  candidates */\n      0x02\n        /* \"contracts/Capstone.sol\":3952:3969  candidates.length */\n      dup1\n      sload\n      swap1\n      pop\n        /* \"contracts/Capstone.sol\":3937:3949  _candidateId */\n      dup3\n        /* \"contracts/Capstone.sol\":3937:3969  _candidateId < candidates.length */\n      lt\n        /* \"contracts/Capstone.sol\":3929:3994  require(_candidateId < candidates.length, \"Invalid candidate ID\") */\n      tag_167\n      jumpi\n      mload(0x40)\n      0x08c379a000000000000000000000000000000000000000000000000000000000\n      dup2\n      mstore\n      0x04\n      add\n      tag_168\n      swap1\n      tag_133\n      jump\t// in\n    tag_168:\n      mload(0x40)\n      dup1\n      swap2\n      sub\n      swap1\n      revert\n    tag_167:\n        /* \"contracts/Capstone.sol\":4022:4026  true */\n      0x01\n        /* \"contracts/Capstone.sol\":4007:4013  sender */\n      dup2\n        /* \"contracts/Capstone.sol\":4007:4019  sender.voted */\n      0x01\n      add\n      0x14\n        /* \"contracts/Capstone.sol\":4007:4026  sender.voted = true */\n      0x0100\n      exp\n      dup2\n      sload\n      dup2\n      0xff\n      mul\n      not\n      and\n      swap1\n      dup4\n      iszero\n      iszero\n      mul\n      or\n      swap1\n      sstore\n      pop\n        /* \"contracts/Capstone.sol\":4051:4063  _candidateId */\n      dup2\n        /* \"contracts/Capstone.sol\":4037:4043  sender */\n      dup2\n        /* \"contracts/Capstone.sol\":4037:4048  sender.vote */\n      0x02\n      add\n        /* \"contracts/Capstone.sol\":4037:4063  sender.vote = _candidateId */\n      dup2\n      swap1\n      sstore\n      pop\n        /* \"contracts/Capstone.sol\":4074:4084  candidates */\n      0x02\n        /* \"contracts/Capstone.sol\":4085:4097  _candidateId */\n      dup3\n        /* \"contracts/Capstone.sol\":4074:4098  candidates[_candidateId] */\n      dup2\n      sload\n      dup2\n      lt\n      tag_169\n      jumpi\n      tag_170\n      tag_117\n      jump\t// in\n    tag_170:\n    tag_169:\n      swap1\n      0x00\n      mstore\n      keccak256(0x00, 0x20)\n      swap1\n      0x04\n      mul\n      add\n        /* \"contracts/Capstone.sol\":4074:4108  candidates[_candidateId].voteCount */\n      0x02\n      add\n      0x00\n        /* \"contracts/Capstone.sol\":4074:4110  candidates[_candidateId].voteCount++ */\n      dup2\n      sload\n      dup1\n      swap3\n      swap2\n      swap1\n      tag_172\n      swap1\n      tag_125\n      jump\t// in\n    tag_172:\n      swap2\n      swap1\n      pop\n      sstore\n      pop\n        /* \"contracts/Capstone.sol\":4123:4136  updateRanks() */\n      tag_173\n        /* \"contracts/Capstone.sol\":4123:4134  updateRanks */\n      tag_174\n        /* \"contracts/Capstone.sol\":4123:4136  updateRanks() */\n      jump\t// in\n    tag_173:\n        /* \"contracts/Capstone.sol\":3799:4203  {... */\n      pop\n        /* \"contracts/Capstone.sol\":3723:4203  function castDelegateVote(uint256 _candidateId) public isElectionInProgress {... */\n      pop\n      jump\t// out\n        /* \"contracts/Capstone.sol\":3243:3715  function castVote(uint256 _candidateId) public isElectionInProgress {... */\n    tag_50:\n        /* \"contracts/Capstone.sol\":1002:1017  electionStarted */\n      0x00\n      0x14\n      swap1\n      sload\n      swap1\n      0x0100\n      exp\n      swap1\n      div\n      0xff\n      and\n        /* \"contracts/Capstone.sol\":1002:1035  electionStarted && !electionEnded */\n      dup1\n      iszero\n      tag_176\n      jumpi\n      pop\n        /* \"contracts/Capstone.sol\":1022:1035  electionEnded */\n      0x00\n      0x15\n      swap1\n      sload\n      swap1\n      0x0100\n      exp\n      swap1\n      div\n      0xff\n      and\n        /* \"contracts/Capstone.sol\":1021:1035  !electionEnded */\n      iszero\n        /* \"contracts/Capstone.sol\":1002:1035  electionStarted && !electionEnded */\n    tag_176:\n        /* \"contracts/Capstone.sol\":994:1069  require(electionStarted && !electionEnded, \"Election is still in progress\") */\n      tag_177\n      jumpi\n      mload(0x40)\n      0x08c379a000000000000000000000000000000000000000000000000000000000\n      dup2\n      mstore\n      0x04\n      add\n      tag_178\n      swap1\n      tag_165\n      jump\t// in\n    tag_178:\n      mload(0x40)\n      dup1\n      swap2\n      sub\n      swap1\n      revert\n    tag_177:\n        /* \"contracts/Capstone.sol\":3322:3342  Voter storage sender */\n      0x00\n        /* \"contracts/Capstone.sol\":3345:3351  voters */\n      0x01\n        /* \"contracts/Capstone.sol\":3345:3363  voters[msg.sender] */\n      0x00\n        /* \"contracts/Capstone.sol\":3352:3362  msg.sender */\n      caller\n        /* \"contracts/Capstone.sol\":3345:3363  voters[msg.sender] */\n      0xffffffffffffffffffffffffffffffffffffffff\n      and\n      0xffffffffffffffffffffffffffffffffffffffff\n      and\n      dup2\n      mstore\n      0x20\n      add\n      swap1\n      dup2\n      mstore\n      0x20\n      add\n      0x00\n      keccak256\n        /* \"contracts/Capstone.sol\":3322:3363  Voter storage sender = voters[msg.sender] */\n      swap1\n      pop\n        /* \"contracts/Capstone.sol\":3398:3403  false */\n      0x00\n        /* \"contracts/Capstone.sol\":3382:3403  sender.voted == false */\n      iszero\n      iszero\n        /* \"contracts/Capstone.sol\":3382:3388  sender */\n      dup2\n        /* \"contracts/Capstone.sol\":3382:3394  sender.voted */\n      0x01\n      add\n      0x14\n      swap1\n      sload\n      swap1\n      0x0100\n      exp\n      swap1\n      div\n      0xff\n      and\n        /* \"contracts/Capstone.sol\":3382:3403  sender.voted == false */\n      iszero\n      iszero\n      eq\n        /* \"contracts/Capstone.sol\":3374:3430  require(sender.voted == false, \"You have already voted\") */\n      tag_180\n      jumpi\n      mload(0x40)\n      0x08c379a000000000000000000000000000000000000000000000000000000000\n      dup2\n      mstore\n      0x04\n      add\n      tag_181\n      swap1\n      tag_182\n      jump\t// in\n    tag_181:\n      mload(0x40)\n      dup1\n      swap2\n      sub\n      swap1\n      revert\n    tag_180:\n        /* \"contracts/Capstone.sol\":3464:3474  candidates */\n      0x02\n        /* \"contracts/Capstone.sol\":3464:3481  candidates.length */\n      dup1\n      sload\n      swap1\n      pop\n        /* \"contracts/Capstone.sol\":3449:3461  _candidateId */\n      dup3\n        /* \"contracts/Capstone.sol\":3449:3481  _candidateId < candidates.length */\n      lt\n        /* \"contracts/Capstone.sol\":3441:3506  require(_candidateId < candidates.length, \"Invalid candidate ID\") */\n      tag_183\n      jumpi\n      mload(0x40)\n      0x08c379a000000000000000000000000000000000000000000000000000000000\n      dup2\n      mstore\n      0x04\n      add\n      tag_184\n      swap1\n      tag_133\n      jump\t// in\n    tag_184:\n      mload(0x40)\n      dup1\n      swap2\n      sub\n      swap1\n      revert\n    tag_183:\n        /* \"contracts/Capstone.sol\":3534:3538  true */\n      0x01\n        /* \"contracts/Capstone.sol\":3519:3525  sender */\n      dup2\n        /* \"contracts/Capstone.sol\":3519:3531  sender.voted */\n      0x01\n      add\n      0x14\n        /* \"contracts/Capstone.sol\":3519:3538  sender.voted = true */\n      0x0100\n      exp\n      dup2\n      sload\n      dup2\n      0xff\n      mul\n      not\n      and\n      swap1\n      dup4\n      iszero\n      iszero\n      mul\n      or\n      swap1\n      sstore\n      pop\n        /* \"contracts/Capstone.sol\":3563:3575  _candidateId */\n      dup2\n        /* \"contracts/Capstone.sol\":3549:3555  sender */\n      dup2\n        /* \"contracts/Capstone.sol\":3549:3560  sender.vote */\n      0x02\n      add\n        /* \"contracts/Capstone.sol\":3549:3575  sender.vote = _candidateId */\n      dup2\n      swap1\n      sstore\n      pop\n        /* \"contracts/Capstone.sol\":3586:3596  candidates */\n      0x02\n        /* \"contracts/Capstone.sol\":3597:3609  _candidateId */\n      dup3\n        /* \"contracts/Capstone.sol\":3586:3610  candidates[_candidateId] */\n      dup2\n      sload\n      dup2\n      lt\n      tag_185\n      jumpi\n      tag_186\n      tag_117\n      jump\t// in\n    tag_186:\n    tag_185:\n      swap1\n      0x00\n      mstore\n      keccak256(0x00, 0x20)\n      swap1\n      0x04\n      mul\n      add\n        /* \"contracts/Capstone.sol\":3586:3620  candidates[_candidateId].voteCount */\n      0x02\n      add\n      0x00\n        /* \"contracts/Capstone.sol\":3586:3622  candidates[_candidateId].voteCount++ */\n      dup2\n      sload\n      dup1\n      swap3\n      swap2\n      swap1\n      tag_188\n      swap1\n      tag_125\n      jump\t// in\n    tag_188:\n      swap2\n      swap1\n      pop\n      sstore\n      pop\n        /* \"contracts/Capstone.sol\":3635:3648  updateRanks() */\n      tag_189\n        /* \"contracts/Capstone.sol\":3635:3646  updateRanks */\n      tag_174\n        /* \"contracts/Capstone.sol\":3635:3648  updateRanks() */\n      jump\t// in\n    tag_189:\n        /* \"contracts/Capstone.sol\":3311:3715  {... */\n      pop\n        /* \"contracts/Capstone.sol\":3243:3715  function castVote(uint256 _candidateId) public isElectionInProgress {... */\n      pop\n      jump\t// out\n        /* \"contracts/Capstone.sol\":5989:6207  function getVotesForCandidate(uint256 _candidateId) public view returns (uint256) {... */\n    tag_53:\n        /* \"contracts/Capstone.sol\":6062:6069  uint256 */\n      0x00\n        /* \"contracts/Capstone.sol\":6105:6115  candidates */\n      0x02\n        /* \"contracts/Capstone.sol\":6105:6122  candidates.length */\n      dup1\n      sload\n      swap1\n      pop\n        /* \"contracts/Capstone.sol\":6090:6102  _candidateId */\n      dup3\n        /* \"contracts/Capstone.sol\":6090:6122  _candidateId < candidates.length */\n      lt\n        /* \"contracts/Capstone.sol\":6082:6147  require(_candidateId < candidates.length, \"Invalid candidate ID\") */\n      tag_191\n      jumpi\n      mload(0x40)\n      0x08c379a000000000000000000000000000000000000000000000000000000000\n      dup2\n      mstore\n      0x04\n      add\n      tag_192\n      swap1\n      tag_133\n      jump\t// in\n    tag_192:\n      mload(0x40)\n      dup1\n      swap2\n      sub\n      swap1\n      revert\n    tag_191:\n        /* \"contracts/Capstone.sol\":6165:6175  candidates */\n      0x02\n        /* \"contracts/Capstone.sol\":6176:6188  _candidateId */\n      dup3\n        /* \"contracts/Capstone.sol\":6165:6189  candidates[_candidateId] */\n      dup2\n      sload\n      dup2\n      lt\n      tag_193\n      jumpi\n      tag_194\n      tag_117\n      jump\t// in\n    tag_194:\n    tag_193:\n      swap1\n      0x00\n      mstore\n      keccak256(0x00, 0x20)\n      swap1\n      0x04\n      mul\n      add\n        /* \"contracts/Capstone.sol\":6165:6199  candidates[_candidateId].voteCount */\n      0x02\n      add\n      sload\n        /* \"contracts/Capstone.sol\":6158:6199  return candidates[_candidateId].voteCount */\n      swap1\n      pop\n        /* \"contracts/Capstone.sol\":5989:6207  function getVotesForCandidate(uint256 _candidateId) public view returns (uint256) {... */\n      swap2\n      swap1\n      pop\n      jump\t// out\n        /* \"contracts/Capstone.sol\":6456:6826  function getAllVoterProfiles() public view returns (Voter[] memory) {... */\n    tag_56:\n        /* \"contracts/Capstone.sol\":6508:6522  Voter[] memory */\n      0x60\n        /* \"contracts/Capstone.sol\":6535:6563  Voter[] memory voterProfiles */\n      0x00\n        /* \"contracts/Capstone.sol\":6578:6592  voterAddresses */\n      0x03\n        /* \"contracts/Capstone.sol\":6578:6599  voterAddresses.length */\n      dup1\n      sload\n      swap1\n      pop\n        /* \"contracts/Capstone.sol\":6566:6600  new Voter[](voterAddresses.length) */\n      0xffffffffffffffff\n      dup2\n      gt\n      iszero\n      tag_197\n      jumpi\n      tag_198\n      tag_199\n      jump\t// in\n    tag_198:\n    tag_197:\n      mload(0x40)\n      swap1\n      dup1\n      dup3\n      mstore\n      dup1\n      0x20\n      mul\n      0x20\n      add\n      dup3\n      add\n      0x40\n      mstore\n      dup1\n      iszero\n      tag_200\n      jumpi\n      dup2\n      0x20\n      add\n    tag_201:\n      tag_202\n      tag_203\n      jump\t// in\n    tag_202:\n      dup2\n      mstore\n      0x20\n      add\n      swap1\n      0x01\n      swap1\n      sub\n      swap1\n      dup2\n      tag_201\n      jumpi\n      swap1\n      pop\n    tag_200:\n      pop\n        /* \"contracts/Capstone.sol\":6535:6600  Voter[] memory voterProfiles = new Voter[](voterAddresses.length) */\n      swap1\n      pop\n        /* \"contracts/Capstone.sol\":6618:6627  uint256 i */\n      0x00\n        /* \"contracts/Capstone.sol\":6613:6786  for (uint256 i = 0; i < voterAddresses.length; i++) {... */\n    tag_204:\n        /* \"contracts/Capstone.sol\":6637:6651  voterAddresses */\n      0x03\n        /* \"contracts/Capstone.sol\":6637:6658  voterAddresses.length */\n      dup1\n      sload\n      swap1\n      pop\n        /* \"contracts/Capstone.sol\":6633:6634  i */\n      dup2\n        /* \"contracts/Capstone.sol\":6633:6658  i < voterAddresses.length */\n      lt\n        /* \"contracts/Capstone.sol\":6613:6786  for (uint256 i = 0; i < voterAddresses.length; i++) {... */\n      iszero\n      tag_205\n      jumpi\n        /* \"contracts/Capstone.sol\":6680:6700  address voterAddress */\n      0x00\n        /* \"contracts/Capstone.sol\":6703:6717  voterAddresses */\n      0x03\n        /* \"contracts/Capstone.sol\":6718:6719  i */\n      dup3\n        /* \"contracts/Capstone.sol\":6703:6720  voterAddresses[i] */\n      dup2\n      sload\n      dup2\n      lt\n      tag_207\n      jumpi\n      tag_208\n      tag_117\n      jump\t// in\n    tag_208:\n    tag_207:\n      swap1\n      0x00\n      mstore\n      keccak256(0x00, 0x20)\n      add\n      0x00\n      swap1\n      sload\n      swap1\n      0x0100\n      exp\n      swap1\n      div\n      0xffffffffffffffffffffffffffffffffffffffff\n      and\n        /* \"contracts/Capstone.sol\":6680:6720  address voterAddress = voterAddresses[i] */\n      swap1\n      pop\n        /* \"contracts/Capstone.sol\":6754:6760  voters */\n      0x01\n        /* \"contracts/Capstone.sol\":6754:6774  voters[voterAddress] */\n      0x00\n        /* \"contracts/Capstone.sol\":6761:6773  voterAddress */\n      dup3\n        /* \"contracts/Capstone.sol\":6754:6774  voters[voterAddress] */\n      0xffffffffffffffffffffffffffffffffffffffff\n      and\n      0xffffffffffffffffffffffffffffffffffffffff\n      and\n      dup2\n      mstore\n      0x20\n      add\n      swap1\n      dup2\n      mstore\n      0x20\n      add\n      0x00\n      keccak256\n        /* \"contracts/Capstone.sol\":6735:6774  voterProfiles[i] = voters[voterAddress] */\n      mload(0x40)\n      dup1\n      0xa0\n      add\n      0x40\n      mstore\n      swap1\n      dup2\n      0x00\n      dup3\n      add\n      dup1\n      sload\n      tag_210\n      swap1\n      tag_138\n      jump\t// in\n    tag_210:\n      dup1\n      0x1f\n      add\n      0x20\n      dup1\n      swap2\n      div\n      mul\n      0x20\n      add\n      mload(0x40)\n      swap1\n      dup2\n      add\n      0x40\n      mstore\n      dup1\n      swap3\n      swap2\n      swap1\n      dup2\n      dup2\n      mstore\n      0x20\n      add\n      dup3\n      dup1\n      sload\n      tag_211\n      swap1\n      tag_138\n      jump\t// in\n    tag_211:\n      dup1\n      iszero\n      tag_212\n      jumpi\n      dup1\n      0x1f\n      lt\n      tag_213\n      jumpi\n      0x0100\n      dup1\n      dup4\n      sload\n      div\n      mul\n      dup4\n      mstore\n      swap2\n      0x20\n      add\n      swap2\n      jump(tag_212)\n    tag_213:\n      dup3\n      add\n      swap2\n      swap1\n      0x00\n      mstore\n      keccak256(0x00, 0x20)\n      swap1\n    tag_214:\n      dup2\n      sload\n      dup2\n      mstore\n      swap1\n      0x01\n      add\n      swap1\n      0x20\n      add\n      dup1\n      dup4\n      gt\n      tag_214\n      jumpi\n      dup3\n      swap1\n      sub\n      0x1f\n      and\n      dup3\n      add\n      swap2\n    tag_212:\n      pop\n      pop\n      pop\n      pop\n      pop\n      dup2\n      mstore\n      0x20\n      add\n      0x01\n      dup3\n      add\n      0x00\n      swap1\n      sload\n      swap1\n      0x0100\n      exp\n      swap1\n      div\n      0xffffffffffffffffffffffffffffffffffffffff\n      and\n      0xffffffffffffffffffffffffffffffffffffffff\n      and\n      0xffffffffffffffffffffffffffffffffffffffff\n      and\n      dup2\n      mstore\n      0x20\n      add\n      0x01\n      dup3\n      add\n      0x14\n      swap1\n      sload\n      swap1\n      0x0100\n      exp\n      swap1\n      div\n      0xff\n      and\n      iszero\n      iszero\n      iszero\n      iszero\n      dup2\n      mstore\n      0x20\n      add\n      0x02\n      dup3\n      add\n      sload\n      dup2\n      mstore\n      0x20\n      add\n      0x03\n      dup3\n      add\n      0x00\n      swap1\n      sload\n      swap1\n      0x0100\n      exp\n      swap1\n      div\n      0xffff\n      and\n      0xffff\n      and\n      0xffff\n      and\n      dup2\n      mstore\n      pop\n      pop\n        /* \"contracts/Capstone.sol\":6735:6748  voterProfiles */\n      dup4\n        /* \"contracts/Capstone.sol\":6749:6750  i */\n      dup4\n        /* \"contracts/Capstone.sol\":6735:6751  voterProfiles[i] */\n      dup2\n      mload\n      dup2\n      lt\n      tag_215\n      jumpi\n      tag_216\n      tag_117\n      jump\t// in\n    tag_216:\n    tag_215:\n      0x20\n      mul\n      0x20\n      add\n      add\n        /* \"contracts/Capstone.sol\":6735:6774  voterProfiles[i] = voters[voterAddress] */\n      dup2\n      swap1\n      mstore\n      pop\n        /* \"contracts/Capstone.sol\":6665:6786  {... */\n      pop\n        /* \"contracts/Capstone.sol\":6660:6663  i++ */\n      dup1\n      dup1\n      tag_217\n      swap1\n      tag_125\n      jump\t// in\n    tag_217:\n      swap2\n      pop\n      pop\n        /* \"contracts/Capstone.sol\":6613:6786  for (uint256 i = 0; i < voterAddresses.length; i++) {... */\n      jump(tag_204)\n    tag_205:\n      pop\n        /* \"contracts/Capstone.sol\":6805:6818  voterProfiles */\n      dup1\n        /* \"contracts/Capstone.sol\":6798:6818  return voterProfiles */\n      swap2\n      pop\n      pop\n        /* \"contracts/Capstone.sol\":6456:6826  function getAllVoterProfiles() public view returns (Voter[] memory) {... */\n      swap1\n      jump\t// out\n        /* \"contracts/Capstone.sol\":4211:4501  function endElection() public isAdmin {... */\n    tag_60:\n        /* \"contracts/Capstone.sol\":875:880  admin */\n      0x00\n      dup1\n      sload\n      swap1\n      0x0100\n      exp\n      swap1\n      div\n      0xffffffffffffffffffffffffffffffffffffffff\n      and\n        /* \"contracts/Capstone.sol\":861:880  msg.sender == admin */\n      0xffffffffffffffffffffffffffffffffffffffff\n      and\n        /* \"contracts/Capstone.sol\":861:871  msg.sender */\n      caller\n        /* \"contracts/Capstone.sol\":861:880  msg.sender == admin */\n      0xffffffffffffffffffffffffffffffffffffffff\n      and\n      eq\n        /* \"contracts/Capstone.sol\":853:923  require(msg.sender == admin, \"Only the admin can perform this action\") */\n      tag_219\n      jumpi\n      mload(0x40)\n      0x08c379a000000000000000000000000000000000000000000000000000000000\n      dup2\n      mstore\n      0x04\n      add\n      tag_220\n      swap1\n      tag_107\n      jump\t// in\n    tag_220:\n      mload(0x40)\n      dup1\n      swap2\n      sub\n      swap1\n      revert\n    tag_219:\n        /* \"contracts/Capstone.sol\":4268:4283  electionStarted */\n      0x00\n      0x14\n      swap1\n      sload\n      swap1\n      0x0100\n      exp\n      swap1\n      div\n      0xff\n      and\n        /* \"contracts/Capstone.sol\":4268:4301  electionStarted && !electionEnded */\n      dup1\n      iszero\n      tag_222\n      jumpi\n      pop\n        /* \"contracts/Capstone.sol\":4288:4301  electionEnded */\n      0x00\n      0x15\n      swap1\n      sload\n      swap1\n      0x0100\n      exp\n      swap1\n      div\n      0xff\n      and\n        /* \"contracts/Capstone.sol\":4287:4301  !electionEnded */\n      iszero\n        /* \"contracts/Capstone.sol\":4268:4301  electionStarted && !electionEnded */\n    tag_222:\n        /* \"contracts/Capstone.sol\":4260:4333  require(electionStarted && !electionEnded, \"Election is not in progress\") */\n      tag_223\n      jumpi\n      mload(0x40)\n      0x08c379a000000000000000000000000000000000000000000000000000000000\n      dup2\n      mstore\n      0x04\n      add\n      tag_224\n      swap1\n      tag_225\n      jump\t// in\n    tag_224:\n      mload(0x40)\n      dup1\n      swap2\n      sub\n      swap1\n      revert\n    tag_223:\n        /* \"contracts/Capstone.sol\":4413:4426  updateRanks() */\n      tag_226\n        /* \"contracts/Capstone.sol\":4413:4424  updateRanks */\n      tag_174\n        /* \"contracts/Capstone.sol\":4413:4426  updateRanks() */\n      jump\t// in\n    tag_226:\n        /* \"contracts/Capstone.sol\":4455:4459  true */\n      0x01\n        /* \"contracts/Capstone.sol\":4439:4452  electionEnded */\n      0x00\n      0x15\n        /* \"contracts/Capstone.sol\":4439:4459  electionEnded = true */\n      0x0100\n      exp\n      dup2\n      sload\n      dup2\n      0xff\n      mul\n      not\n      and\n      swap1\n      dup4\n      iszero\n      iszero\n      mul\n      or\n      swap1\n      sstore\n      pop\n        /* \"contracts/Capstone.sol\":4488:4493  false */\n      0x00\n        /* \"contracts/Capstone.sol\":4470:4485  electionStarted */\n      dup1\n      0x14\n        /* \"contracts/Capstone.sol\":4470:4493  electionStarted = false */\n      0x0100\n      exp\n      dup2\n      sload\n      dup2\n      0xff\n      mul\n      not\n      and\n      swap1\n      dup4\n      iszero\n      iszero\n      mul\n      or\n      swap1\n      sstore\n      pop\n        /* \"contracts/Capstone.sol\":4211:4501  function endElection() public isAdmin {... */\n      jump\t// out\n        /* \"contracts/Capstone.sol\":2791:2942  function startElection() public isAdmin {... */\n    tag_62:\n        /* \"contracts/Capstone.sol\":875:880  admin */\n      0x00\n      dup1\n      sload\n      swap1\n      0x0100\n      exp\n      swap1\n      div\n      0xffffffffffffffffffffffffffffffffffffffff\n      and\n        /* \"contracts/Capstone.sol\":861:880  msg.sender == admin */\n      0xffffffffffffffffffffffffffffffffffffffff\n      and\n        /* \"contracts/Capstone.sol\":861:871  msg.sender */\n      caller\n        /* \"contracts/Capstone.sol\":861:880  msg.sender == admin */\n      0xffffffffffffffffffffffffffffffffffffffff\n      and\n      eq\n        /* \"contracts/Capstone.sol\":853:923  require(msg.sender == admin, \"Only the admin can perform this action\") */\n      tag_228\n      jumpi\n      mload(0x40)\n      0x08c379a000000000000000000000000000000000000000000000000000000000\n      dup2\n      mstore\n      0x04\n      add\n      tag_229\n      swap1\n      tag_107\n      jump\t// in\n    tag_229:\n      mload(0x40)\n      dup1\n      swap2\n      sub\n      swap1\n      revert\n    tag_228:\n        /* \"contracts/Capstone.sol\":2851:2866  electionStarted */\n      0x00\n      0x14\n      swap1\n      sload\n      swap1\n      0x0100\n      exp\n      swap1\n      div\n      0xff\n      and\n        /* \"contracts/Capstone.sol\":2850:2866  !electionStarted */\n      iszero\n        /* \"contracts/Capstone.sol\":2842:2899  require(!electionStarted, \"Election has already started\") */\n      tag_231\n      jumpi\n      mload(0x40)\n      0x08c379a000000000000000000000000000000000000000000000000000000000\n      dup2\n      mstore\n      0x04\n      add\n      tag_232\n      swap1\n      tag_111\n      jump\t// in\n    tag_232:\n      mload(0x40)\n      dup1\n      swap2\n      sub\n      swap1\n      revert\n    tag_231:\n        /* \"contracts/Capstone.sol\":2930:2934  true */\n      0x01\n        /* \"contracts/Capstone.sol\":2912:2927  electionStarted */\n      0x00\n      0x14\n        /* \"contracts/Capstone.sol\":2912:2934  electionStarted = true */\n      0x0100\n      exp\n      dup2\n      sload\n      dup2\n      0xff\n      mul\n      not\n      and\n      swap1\n      dup4\n      iszero\n      iszero\n      mul\n      or\n      swap1\n      sstore\n      pop\n        /* \"contracts/Capstone.sol\":2791:2942  function startElection() public isAdmin {... */\n      jump\t// out\n        /* \"contracts/Capstone.sol\":4509:5027  function getWinner() public view returns (string memory, uint256, uint256) {... */\n    tag_64:\n        /* \"contracts/Capstone.sol\":4551:4564  string memory */\n      0x60\n        /* \"contracts/Capstone.sol\":4566:4573  uint256 */\n      0x00\n        /* \"contracts/Capstone.sol\":4575:4582  uint256 */\n      dup1\n        /* \"contracts/Capstone.sol\":4603:4616  electionEnded */\n      0x00\n      0x15\n      swap1\n      sload\n      swap1\n      0x0100\n      exp\n      swap1\n      div\n      0xff\n      and\n        /* \"contracts/Capstone.sol\":4595:4646  require(electionEnded, \"Election is still ongoing\") */\n      tag_234\n      jumpi\n      mload(0x40)\n      0x08c379a000000000000000000000000000000000000000000000000000000000\n      dup2\n      mstore\n      0x04\n      add\n      tag_235\n      swap1\n      tag_236\n      jump\t// in\n    tag_235:\n      mload(0x40)\n      dup1\n      swap2\n      sub\n      swap1\n      revert\n    tag_234:\n        /* \"contracts/Capstone.sol\":4667:4690  Candidate memory winner */\n      tag_237\n      tag_238\n      jump\t// in\n    tag_237:\n        /* \"contracts/Capstone.sol\":4701:4717  uint256 maxVotes */\n      0x00\n        /* \"contracts/Capstone.sol\":4739:4748  uint256 i */\n      dup1\n        /* \"contracts/Capstone.sol\":4734:4958  for (uint256 i = 0; i < candidates.length; i++) {... */\n    tag_239:\n        /* \"contracts/Capstone.sol\":4758:4768  candidates */\n      0x02\n        /* \"contracts/Capstone.sol\":4758:4775  candidates.length */\n      dup1\n      sload\n      swap1\n      pop\n        /* \"contracts/Capstone.sol\":4754:4755  i */\n      dup2\n        /* \"contracts/Capstone.sol\":4754:4775  i < candidates.length */\n      lt\n        /* \"contracts/Capstone.sol\":4734:4958  for (uint256 i = 0; i < candidates.length; i++) {... */\n      iszero\n      tag_240\n      jumpi\n        /* \"contracts/Capstone.sol\":4827:4835  maxVotes */\n      dup2\n        /* \"contracts/Capstone.sol\":4801:4811  candidates */\n      0x02\n        /* \"contracts/Capstone.sol\":4812:4813  i */\n      dup3\n        /* \"contracts/Capstone.sol\":4801:4814  candidates[i] */\n      dup2\n      sload\n      dup2\n      lt\n      tag_242\n      jumpi\n      tag_243\n      tag_117\n      jump\t// in\n    tag_243:\n    tag_242:\n      swap1\n      0x00\n      mstore\n      keccak256(0x00, 0x20)\n      swap1\n      0x04\n      mul\n      add\n        /* \"contracts/Capstone.sol\":4801:4824  candidates[i].voteCount */\n      0x02\n      add\n      sload\n        /* \"contracts/Capstone.sol\":4801:4835  candidates[i].voteCount > maxVotes */\n      gt\n        /* \"contracts/Capstone.sol\":4797:4947  if (candidates[i].voteCount > maxVotes) {... */\n      iszero\n      tag_245\n      jumpi\n        /* \"contracts/Capstone.sol\":4867:4877  candidates */\n      0x02\n        /* \"contracts/Capstone.sol\":4878:4879  i */\n      dup2\n        /* \"contracts/Capstone.sol\":4867:4880  candidates[i] */\n      dup2\n      sload\n      dup2\n      lt\n      tag_246\n      jumpi\n      tag_247\n      tag_117\n      jump\t// in\n    tag_247:\n    tag_246:\n      swap1\n      0x00\n      mstore\n      keccak256(0x00, 0x20)\n      swap1\n      0x04\n      mul\n      add\n        /* \"contracts/Capstone.sol\":4867:4890  candidates[i].voteCount */\n      0x02\n      add\n      sload\n        /* \"contracts/Capstone.sol\":4856:4890  maxVotes = candidates[i].voteCount */\n      swap2\n      pop\n        /* \"contracts/Capstone.sol\":4918:4928  candidates */\n      0x02\n        /* \"contracts/Capstone.sol\":4929:4930  i */\n      dup2\n        /* \"contracts/Capstone.sol\":4918:4931  candidates[i] */\n      dup2\n      sload\n      dup2\n      lt\n      tag_249\n      jumpi\n      tag_250\n      tag_117\n      jump\t// in\n    tag_250:\n    tag_249:\n      swap1\n      0x00\n      mstore\n      keccak256(0x00, 0x20)\n      swap1\n      0x04\n      mul\n      add\n        /* \"contracts/Capstone.sol\":4909:4931  winner = candidates[i] */\n      mload(0x40)\n      dup1\n      0x80\n      add\n      0x40\n      mstore\n      swap1\n      dup2\n      0x00\n      dup3\n      add\n      dup1\n      sload\n      tag_252\n      swap1\n      tag_138\n      jump\t// in\n    tag_252:\n      dup1\n      0x1f\n      add\n      0x20\n      dup1\n      swap2\n      div\n      mul\n      0x20\n      add\n      mload(0x40)\n      swap1\n      dup2\n      add\n      0x40\n      mstore\n      dup1\n      swap3\n      swap2\n      swap1\n      dup2\n      dup2\n      mstore\n      0x20\n      add\n      dup3\n      dup1\n      sload\n      tag_253\n      swap1\n      tag_138\n      jump\t// in\n    tag_253:\n      dup1\n      iszero\n      tag_254\n      jumpi\n      dup1\n      0x1f\n      lt\n      tag_255\n      jumpi\n      0x0100\n      dup1\n      dup4\n      sload\n      div\n      mul\n      dup4\n      mstore\n      swap2\n      0x20\n      add\n      swap2\n      jump(tag_254)\n    tag_255:\n      dup3\n      add\n      swap2\n      swap1\n      0x00\n      mstore\n      keccak256(0x00, 0x20)\n      swap1\n    tag_256:\n      dup2\n      sload\n      dup2\n      mstore\n      swap1\n      0x01\n      add\n      swap1\n      0x20\n      add\n      dup1\n      dup4\n      gt\n      tag_256\n      jumpi\n      dup3\n      swap1\n      sub\n      0x1f\n      and\n      dup3\n      add\n      swap2\n    tag_254:\n      pop\n      pop\n      pop\n      pop\n      pop\n      dup2\n      mstore\n      0x20\n      add\n      0x01\n      dup3\n      add\n      dup1\n      sload\n      tag_257\n      swap1\n      tag_138\n      jump\t// in\n    tag_257:\n      dup1\n      0x1f\n      add\n      0x20\n      dup1\n      swap2\n      div\n      mul\n      0x20\n      add\n      mload(0x40)\n      swap1\n      dup2\n      add\n      0x40\n      mstore\n      dup1\n      swap3\n      swap2\n      swap1\n      dup2\n      dup2\n      mstore\n      0x20\n      add\n      dup3\n      dup1\n      sload\n      tag_258\n      swap1\n      tag_138\n      jump\t// in\n    tag_258:\n      dup1\n      iszero\n      tag_259\n      jumpi\n      dup1\n      0x1f\n      lt\n      tag_260\n      jumpi\n      0x0100\n      dup1\n      dup4\n      sload\n      div\n      mul\n      dup4\n      mstore\n      swap2\n      0x20\n      add\n      swap2\n      jump(tag_259)\n    tag_260:\n      dup3\n      add\n      swap2\n      swap1\n      0x00\n      mstore\n      keccak256(0x00, 0x20)\n      swap1\n    tag_261:\n      dup2\n      sload\n      dup2\n      mstore\n      swap1\n      0x01\n      add\n      swap1\n      0x20\n      add\n      dup1\n      dup4\n      gt\n      tag_261\n      jumpi\n      dup3\n      swap1\n      sub\n      0x1f\n      and\n      dup3\n      add\n      swap2\n    tag_259:\n      pop\n      pop\n      pop\n      pop\n      pop\n      dup2\n      mstore\n      0x20\n      add\n      0x02\n      dup3\n      add\n      sload\n      dup2\n      mstore\n      0x20\n      add\n      0x03\n      dup3\n      add\n      sload\n      dup2\n      mstore\n      pop\n      pop\n      swap3\n      pop\n        /* \"contracts/Capstone.sol\":4797:4947  if (candidates[i].voteCount > maxVotes) {... */\n    tag_245:\n        /* \"contracts/Capstone.sol\":4777:4780  i++ */\n      dup1\n      dup1\n      tag_262\n      swap1\n      tag_125\n      jump\t// in\n    tag_262:\n      swap2\n      pop\n      pop\n        /* \"contracts/Capstone.sol\":4734:4958  for (uint256 i = 0; i < candidates.length; i++) {... */\n      jump(tag_239)\n    tag_240:\n      pop\n        /* \"contracts/Capstone.sol\":4978:4984  winner */\n      dup2\n        /* \"contracts/Capstone.sol\":4978:4990  winner.Cname */\n      0x00\n      add\n      mload\n        /* \"contracts/Capstone.sol\":4992:5000  maxVotes */\n      dup2\n        /* \"contracts/Capstone.sol\":5002:5008  winner */\n      dup4\n        /* \"contracts/Capstone.sol\":5002:5018  winner.voteCount */\n      0x40\n      add\n      mload\n        /* \"contracts/Capstone.sol\":4970:5019  return (winner.Cname, maxVotes, winner.voteCount) */\n      swap5\n      pop\n      swap5\n      pop\n      swap5\n      pop\n      pop\n      pop\n        /* \"contracts/Capstone.sol\":4509:5027  function getWinner() public view returns (string memory, uint256, uint256) {... */\n      swap1\n      swap2\n      swap3\n      jump\t// out\n        /* \"contracts/Capstone.sol\":701:740  mapping(address => Voter) public voters */\n    tag_70:\n      mstore(0x20, 0x01)\n      dup1\n      0x00\n      mstore\n      keccak256(0x00, 0x40)\n      0x00\n      swap2\n      pop\n      swap1\n      pop\n      dup1\n      0x00\n      add\n      dup1\n      sload\n      tag_263\n      swap1\n      tag_138\n      jump\t// in\n    tag_263:\n      dup1\n      0x1f\n      add\n      0x20\n      dup1\n      swap2\n      div\n      mul\n      0x20\n      add\n      mload(0x40)\n      swap1\n      dup2\n      add\n      0x40\n      mstore\n      dup1\n      swap3\n      swap2\n      swap1\n      dup2\n      dup2\n      mstore\n      0x20\n      add\n      dup3\n      dup1\n      sload\n      tag_264\n      swap1\n      tag_138\n      jump\t// in\n    tag_264:\n      dup1\n      iszero\n      tag_265\n      jumpi\n      dup1\n      0x1f\n      lt\n      tag_266\n      jumpi\n      0x0100\n      dup1\n      dup4\n      sload\n      div\n      mul\n      dup4\n      mstore\n      swap2\n      0x20\n      add\n      swap2\n      jump(tag_265)\n    tag_266:\n      dup3\n      add\n      swap2\n      swap1\n      0x00\n      mstore\n      keccak256(0x00, 0x20)\n      swap1\n    tag_267:\n      dup2\n      sload\n      dup2\n      mstore\n      swap1\n      0x01\n      add\n      swap1\n      0x20\n      add\n      dup1\n      dup4\n      gt\n      tag_267\n      jumpi\n      dup3\n      swap1\n      sub\n      0x1f\n      and\n      dup3\n      add\n      swap2\n    tag_265:\n      pop\n      pop\n      pop\n      pop\n      pop\n      swap1\n      dup1\n      0x01\n      add\n      0x00\n      swap1\n      sload\n      swap1\n      0x0100\n      exp\n      swap1\n      div\n      0xffffffffffffffffffffffffffffffffffffffff\n      and\n      swap1\n      dup1\n      0x01\n      add\n      0x14\n      swap1\n      sload\n      swap1\n      0x0100\n      exp\n      swap1\n      div\n      0xff\n      and\n      swap1\n      dup1\n      0x02\n      add\n      sload\n      swap1\n      dup1\n      0x03\n      add\n      0x00\n      swap1\n      sload\n      swap1\n      0x0100\n      exp\n      swap1\n      div\n      0xffff\n      and\n      swap1\n      pop\n      dup6\n      jump\t// out\n        /* \"contracts/Capstone.sol\":2950:3235  function delegateVote(address _delegate) public isElectionInProgress {... */\n    tag_75:\n        /* \"contracts/Capstone.sol\":1002:1017  electionStarted */\n      0x00\n      0x14\n      swap1\n      sload\n      swap1\n      0x0100\n      exp\n      swap1\n      div\n      0xff\n      and\n        /* \"contracts/Capstone.sol\":1002:1035  electionStarted && !electionEnded */\n      dup1\n      iszero\n      tag_269\n      jumpi\n      pop\n        /* \"contracts/Capstone.sol\":1022:1035  electionEnded */\n      0x00\n      0x15\n      swap1\n      sload\n      swap1\n      0x0100\n      exp\n      swap1\n      div\n      0xff\n      and\n        /* \"contracts/Capstone.sol\":1021:1035  !electionEnded */\n      iszero\n        /* \"contracts/Capstone.sol\":1002:1035  electionStarted && !electionEnded */\n    tag_269:\n        /* \"contracts/Capstone.sol\":994:1069  require(electionStarted && !electionEnded, \"Election is still in progress\") */\n      tag_270\n      jumpi\n      mload(0x40)\n      0x08c379a000000000000000000000000000000000000000000000000000000000\n      dup2\n      mstore\n      0x04\n      add\n      tag_271\n      swap1\n      tag_165\n      jump\t// in\n    tag_271:\n      mload(0x40)\n      dup1\n      swap2\n      sub\n      swap1\n      revert\n    tag_270:\n        /* \"contracts/Capstone.sol\":3066:3071  false */\n      0x00\n        /* \"contracts/Capstone.sol\":3038:3071  voters[msg.sender].voted == false */\n      iszero\n      iszero\n        /* \"contracts/Capstone.sol\":3038:3044  voters */\n      0x01\n        /* \"contracts/Capstone.sol\":3038:3056  voters[msg.sender] */\n      0x00\n        /* \"contracts/Capstone.sol\":3045:3055  msg.sender */\n      caller\n        /* \"contracts/Capstone.sol\":3038:3056  voters[msg.sender] */\n      0xffffffffffffffffffffffffffffffffffffffff\n      and\n      0xffffffffffffffffffffffffffffffffffffffff\n      and\n      dup2\n      mstore\n      0x20\n      add\n      swap1\n      dup2\n      mstore\n      0x20\n      add\n      0x00\n      keccak256\n        /* \"contracts/Capstone.sol\":3038:3062  voters[msg.sender].voted */\n      0x01\n      add\n      0x14\n      swap1\n      sload\n      swap1\n      0x0100\n      exp\n      swap1\n      div\n      0xff\n      and\n        /* \"contracts/Capstone.sol\":3038:3071  voters[msg.sender].voted == false */\n      iszero\n      iszero\n      eq\n        /* \"contracts/Capstone.sol\":3030:3098  require(voters[msg.sender].voted == false, \"You have already voted\") */\n      tag_273\n      jumpi\n      mload(0x40)\n      0x08c379a000000000000000000000000000000000000000000000000000000000\n      dup2\n      mstore\n      0x04\n      add\n      tag_274\n      swap1\n      tag_182\n      jump\t// in\n    tag_274:\n      mload(0x40)\n      dup1\n      swap2\n      sub\n      swap1\n      revert\n    tag_273:\n        /* \"contracts/Capstone.sol\":3130:3140  msg.sender */\n      caller\n        /* \"contracts/Capstone.sol\":3117:3140  _delegate != msg.sender */\n      0xffffffffffffffffffffffffffffffffffffffff\n      and\n        /* \"contracts/Capstone.sol\":3117:3126  _delegate */\n      dup2\n        /* \"contracts/Capstone.sol\":3117:3140  _delegate != msg.sender */\n      0xffffffffffffffffffffffffffffffffffffffff\n      and\n      sub\n        /* \"contracts/Capstone.sol\":3109:3175  require(_delegate != msg.sender, \"Self-delegation is not allowed\") */\n      tag_275\n      jumpi\n      mload(0x40)\n      0x08c379a000000000000000000000000000000000000000000000000000000000\n      dup2\n      mstore\n      0x04\n      add\n      tag_276\n      swap1\n      tag_277\n      jump\t// in\n    tag_276:\n      mload(0x40)\n      dup1\n      swap2\n      sub\n      swap1\n      revert\n    tag_275:\n        /* \"contracts/Capstone.sol\":3218:3227  _delegate */\n      dup1\n        /* \"contracts/Capstone.sol\":3188:3194  voters */\n      0x01\n        /* \"contracts/Capstone.sol\":3188:3206  voters[msg.sender] */\n      0x00\n        /* \"contracts/Capstone.sol\":3195:3205  msg.sender */\n      caller\n        /* \"contracts/Capstone.sol\":3188:3206  voters[msg.sender] */\n      0xffffffffffffffffffffffffffffffffffffffff\n      and\n      0xffffffffffffffffffffffffffffffffffffffff\n      and\n      dup2\n      mstore\n      0x20\n      add\n      swap1\n      dup2\n      mstore\n      0x20\n      add\n      0x00\n      keccak256\n        /* \"contracts/Capstone.sol\":3188:3215  voters[msg.sender].delegate */\n      0x01\n      add\n      0x00\n        /* \"contracts/Capstone.sol\":3188:3227  voters[msg.sender].delegate = _delegate */\n      0x0100\n      exp\n      dup2\n      sload\n      dup2\n      0xffffffffffffffffffffffffffffffffffffffff\n      mul\n      not\n      and\n      swap1\n      dup4\n      0xffffffffffffffffffffffffffffffffffffffff\n      and\n      mul\n      or\n      swap1\n      sstore\n      pop\n        /* \"contracts/Capstone.sol\":2950:3235  function delegateVote(address _delegate) public isElectionInProgress {... */\n      pop\n      jump\t// out\n        /* \"contracts/Capstone.sol\":667:692  bool public electionEnded */\n    tag_77:\n      0x00\n      0x15\n      swap1\n      sload\n      swap1\n      0x0100\n      exp\n      swap1\n      div\n      0xff\n      and\n      dup2\n      jump\t// out\n        /* \"contracts/Capstone.sol\":5481:5981  function getAllCandidatesDetails() public view returns (Candidate[] memory) {... */\n    tag_81:\n        /* \"contracts/Capstone.sol\":5537:5555  Candidate[] memory */\n      0x60\n        /* \"contracts/Capstone.sol\":5568:5603  Candidate[] memory candidateDetails */\n      0x00\n        /* \"contracts/Capstone.sol\":5622:5632  candidates */\n      0x02\n        /* \"contracts/Capstone.sol\":5622:5639  candidates.length */\n      dup1\n      sload\n      swap1\n      pop\n        /* \"contracts/Capstone.sol\":5606:5640  new Candidate[](candidates.length) */\n      0xffffffffffffffff\n      dup2\n      gt\n      iszero\n      tag_279\n      jumpi\n      tag_280\n      tag_199\n      jump\t// in\n    tag_280:\n    tag_279:\n      mload(0x40)\n      swap1\n      dup1\n      dup3\n      mstore\n      dup1\n      0x20\n      mul\n      0x20\n      add\n      dup3\n      add\n      0x40\n      mstore\n      dup1\n      iszero\n      tag_281\n      jumpi\n      dup2\n      0x20\n      add\n    tag_282:\n      tag_283\n      tag_238\n      jump\t// in\n    tag_283:\n      dup2\n      mstore\n      0x20\n      add\n      swap1\n      0x01\n      swap1\n      sub\n      swap1\n      dup2\n      tag_282\n      jumpi\n      swap1\n      pop\n    tag_281:\n      pop\n        /* \"contracts/Capstone.sol\":5568:5640  Candidate[] memory candidateDetails = new Candidate[](candidates.length) */\n      swap1\n      pop\n        /* \"contracts/Capstone.sol\":5658:5667  uint256 i */\n      0x00\n        /* \"contracts/Capstone.sol\":5653:5936  for (uint256 i = 0; i < candidates.length; i++) {... */\n    tag_284:\n        /* \"contracts/Capstone.sol\":5677:5687  candidates */\n      0x02\n        /* \"contracts/Capstone.sol\":5677:5694  candidates.length */\n      dup1\n      sload\n      swap1\n      pop\n        /* \"contracts/Capstone.sol\":5673:5674  i */\n      dup2\n        /* \"contracts/Capstone.sol\":5673:5694  i < candidates.length */\n      lt\n        /* \"contracts/Capstone.sol\":5653:5936  for (uint256 i = 0; i < candidates.length; i++) {... */\n      iszero\n      tag_285\n      jumpi\n        /* \"contracts/Capstone.sol\":5738:5924  Candidate(... */\n      mload(0x40)\n      dup1\n      0x80\n      add\n      0x40\n      mstore\n      dup1\n        /* \"contracts/Capstone.sol\":5766:5776  candidates */\n      0x02\n        /* \"contracts/Capstone.sol\":5777:5778  i */\n      dup4\n        /* \"contracts/Capstone.sol\":5766:5779  candidates[i] */\n      dup2\n      sload\n      dup2\n      lt\n      tag_287\n      jumpi\n      tag_288\n      tag_117\n      jump\t// in\n    tag_288:\n    tag_287:\n      swap1\n      0x00\n      mstore\n      keccak256(0x00, 0x20)\n      swap1\n      0x04\n      mul\n      add\n        /* \"contracts/Capstone.sol\":5766:5785  candidates[i].Cname */\n      0x00\n      add\n        /* \"contracts/Capstone.sol\":5738:5924  Candidate(... */\n      dup1\n      sload\n      tag_290\n      swap1\n      tag_138\n      jump\t// in\n    tag_290:\n      dup1\n      0x1f\n      add\n      0x20\n      dup1\n      swap2\n      div\n      mul\n      0x20\n      add\n      mload(0x40)\n      swap1\n      dup2\n      add\n      0x40\n      mstore\n      dup1\n      swap3\n      swap2\n      swap1\n      dup2\n      dup2\n      mstore\n      0x20\n      add\n      dup3\n      dup1\n      sload\n      tag_291\n      swap1\n      tag_138\n      jump\t// in\n    tag_291:\n      dup1\n      iszero\n      tag_292\n      jumpi\n      dup1\n      0x1f\n      lt\n      tag_293\n      jumpi\n      0x0100\n      dup1\n      dup4\n      sload\n      div\n      mul\n      dup4\n      mstore\n      swap2\n      0x20\n      add\n      swap2\n      jump(tag_292)\n    tag_293:\n      dup3\n      add\n      swap2\n      swap1\n      0x00\n      mstore\n      keccak256(0x00, 0x20)\n      swap1\n    tag_294:\n      dup2\n      sload\n      dup2\n      mstore\n      swap1\n      0x01\n      add\n      swap1\n      0x20\n      add\n      dup1\n      dup4\n      gt\n      tag_294\n      jumpi\n      dup3\n      swap1\n      sub\n      0x1f\n      and\n      dup3\n      add\n      swap2\n    tag_292:\n      pop\n      pop\n      pop\n      pop\n      pop\n      dup2\n      mstore\n      0x20\n      add\n        /* \"contracts/Capstone.sol\":5804:5814  candidates */\n      0x02\n        /* \"contracts/Capstone.sol\":5815:5816  i */\n      dup4\n        /* \"contracts/Capstone.sol\":5804:5817  candidates[i] */\n      dup2\n      sload\n      dup2\n      lt\n      tag_295\n      jumpi\n      tag_296\n      tag_117\n      jump\t// in\n    tag_296:\n    tag_295:\n      swap1\n      0x00\n      mstore\n      keccak256(0x00, 0x20)\n      swap1\n      0x04\n      mul\n      add\n        /* \"contracts/Capstone.sol\":5804:5826  candidates[i].proposal */\n      0x01\n      add\n        /* \"contracts/Capstone.sol\":5738:5924  Candidate(... */\n      dup1\n      sload\n      tag_298\n      swap1\n      tag_138\n      jump\t// in\n    tag_298:\n      dup1\n      0x1f\n      add\n      0x20\n      dup1\n      swap2\n      div\n      mul\n      0x20\n      add\n      mload(0x40)\n      swap1\n      dup2\n      add\n      0x40\n      mstore\n      dup1\n      swap3\n      swap2\n      swap1\n      dup2\n      dup2\n      mstore\n      0x20\n      add\n      dup3\n      dup1\n      sload\n      tag_299\n      swap1\n      tag_138\n      jump\t// in\n    tag_299:\n      dup1\n      iszero\n      tag_300\n      jumpi\n      dup1\n      0x1f\n      lt\n      tag_301\n      jumpi\n      0x0100\n      dup1\n      dup4\n      sload\n      div\n      mul\n      dup4\n      mstore\n      swap2\n      0x20\n      add\n      swap2\n      jump(tag_300)\n    tag_301:\n      dup3\n      add\n      swap2\n      swap1\n      0x00\n      mstore\n      keccak256(0x00, 0x20)\n      swap1\n    tag_302:\n      dup2\n      sload\n      dup2\n      mstore\n      swap1\n      0x01\n      add\n      swap1\n      0x20\n      add\n      dup1\n      dup4\n      gt\n      tag_302\n      jumpi\n      dup3\n      swap1\n      sub\n      0x1f\n      and\n      dup3\n      add\n      swap2\n    tag_300:\n      pop\n      pop\n      pop\n      pop\n      pop\n      dup2\n      mstore\n      0x20\n      add\n        /* \"contracts/Capstone.sol\":5845:5855  candidates */\n      0x02\n        /* \"contracts/Capstone.sol\":5856:5857  i */\n      dup4\n        /* \"contracts/Capstone.sol\":5845:5858  candidates[i] */\n      dup2\n      sload\n      dup2\n      lt\n      tag_303\n      jumpi\n      tag_304\n      tag_117\n      jump\t// in\n    tag_304:\n    tag_303:\n      swap1\n      0x00\n      mstore\n      keccak256(0x00, 0x20)\n      swap1\n      0x04\n      mul\n      add\n        /* \"contracts/Capstone.sol\":5845:5868  candidates[i].voteCount */\n      0x02\n      add\n      sload\n        /* \"contracts/Capstone.sol\":5738:5924  Candidate(... */\n      dup2\n      mstore\n      0x20\n      add\n        /* \"contracts/Capstone.sol\":5887:5897  candidates */\n      0x02\n        /* \"contracts/Capstone.sol\":5898:5899  i */\n      dup4\n        /* \"contracts/Capstone.sol\":5887:5900  candidates[i] */\n      dup2\n      sload\n      dup2\n      lt\n      tag_306\n      jumpi\n      tag_307\n      tag_117\n      jump\t// in\n    tag_307:\n    tag_306:\n      swap1\n      0x00\n      mstore\n      keccak256(0x00, 0x20)\n      swap1\n      0x04\n      mul\n      add\n        /* \"contracts/Capstone.sol\":5887:5905  candidates[i].rank */\n      0x03\n      add\n      sload\n        /* \"contracts/Capstone.sol\":5738:5924  Candidate(... */\n      dup2\n      mstore\n      pop\n        /* \"contracts/Capstone.sol\":5716:5732  candidateDetails */\n      dup3\n        /* \"contracts/Capstone.sol\":5733:5734  i */\n      dup3\n        /* \"contracts/Capstone.sol\":5716:5735  candidateDetails[i] */\n      dup2\n      mload\n      dup2\n      lt\n      tag_309\n      jumpi\n      tag_310\n      tag_117\n      jump\t// in\n    tag_310:\n    tag_309:\n      0x20\n      mul\n      0x20\n      add\n      add\n        /* \"contracts/Capstone.sol\":5716:5924  candidateDetails[i] = Candidate(... */\n      dup2\n      swap1\n      mstore\n      pop\n        /* \"contracts/Capstone.sol\":5696:5699  i++ */\n      dup1\n      dup1\n      tag_311\n      swap1\n      tag_125\n      jump\t// in\n    tag_311:\n      swap2\n      pop\n      pop\n        /* \"contracts/Capstone.sol\":5653:5936  for (uint256 i = 0; i < candidates.length; i++) {... */\n      jump(tag_284)\n    tag_285:\n      pop\n        /* \"contracts/Capstone.sol\":5955:5971  candidateDetails */\n      dup1\n        /* \"contracts/Capstone.sol\":5948:5971  return candidateDetails */\n      swap2\n      pop\n      pop\n        /* \"contracts/Capstone.sol\":5481:5981  function getAllCandidatesDetails() public view returns (Candidate[] memory) {... */\n      swap1\n      jump\t// out\n        /* \"contracts/Capstone.sol\":633:660  bool public electionStarted */\n    tag_85:\n      0x00\n      0x14\n      swap1\n      sload\n      swap1\n      0x0100\n      exp\n      swap1\n      div\n      0xff\n      and\n      dup2\n      jump\t// out\n        /* \"contracts/Capstone.sol\":6215:6448  function getVoterProfile(address _voterAddress) public view returns (string memory, uint256, bool) {... */\n    tag_89:\n        /* \"contracts/Capstone.sol\":6284:6297  string memory */\n      0x60\n        /* \"contracts/Capstone.sol\":6299:6306  uint256 */\n      0x00\n        /* \"contracts/Capstone.sol\":6308:6312  bool */\n      dup1\n        /* \"contracts/Capstone.sol\":6325:6343  Voter memory voter */\n      0x00\n        /* \"contracts/Capstone.sol\":6346:6352  voters */\n      0x01\n        /* \"contracts/Capstone.sol\":6346:6367  voters[_voterAddress] */\n      0x00\n        /* \"contracts/Capstone.sol\":6353:6366  _voterAddress */\n      dup7\n        /* \"contracts/Capstone.sol\":6346:6367  voters[_voterAddress] */\n      0xffffffffffffffffffffffffffffffffffffffff\n      and\n      0xffffffffffffffffffffffffffffffffffffffff\n      and\n      dup2\n      mstore\n      0x20\n      add\n      swap1\n      dup2\n      mstore\n      0x20\n      add\n      0x00\n      keccak256\n        /* \"contracts/Capstone.sol\":6325:6367  Voter memory voter = voters[_voterAddress] */\n      mload(0x40)\n      dup1\n      0xa0\n      add\n      0x40\n      mstore\n      swap1\n      dup2\n      0x00\n      dup3\n      add\n      dup1\n      sload\n      tag_313\n      swap1\n      tag_138\n      jump\t// in\n    tag_313:\n      dup1\n      0x1f\n      add\n      0x20\n      dup1\n      swap2\n      div\n      mul\n      0x20\n      add\n      mload(0x40)\n      swap1\n      dup2\n      add\n      0x40\n      mstore\n      dup1\n      swap3\n      swap2\n      swap1\n      dup2\n      dup2\n      mstore\n      0x20\n      add\n      dup3\n      dup1\n      sload\n      tag_314\n      swap1\n      tag_138\n      jump\t// in\n    tag_314:\n      dup1\n      iszero\n      tag_315\n      jumpi\n      dup1\n      0x1f\n      lt\n      tag_316\n      jumpi\n      0x0100\n      dup1\n      dup4\n      sload\n      div\n      mul\n      dup4\n      mstore\n      swap2\n      0x20\n      add\n      swap2\n      jump(tag_315)\n    tag_316:\n      dup3\n      add\n      swap2\n      swap1\n      0x00\n      mstore\n      keccak256(0x00, 0x20)\n      swap1\n    tag_317:\n      dup2\n      sload\n      dup2\n      mstore\n      swap1\n      0x01\n      add\n      swap1\n      0x20\n      add\n      dup1\n      dup4\n      gt\n      tag_317\n      jumpi\n      dup3\n      swap1\n      sub\n      0x1f\n      and\n      dup3\n      add\n      swap2\n    tag_315:\n      pop\n      pop\n      pop\n      pop\n      pop\n      dup2\n      mstore\n      0x20\n      add\n      0x01\n      dup3\n      add\n      0x00\n      swap1\n      sload\n      swap1\n      0x0100\n      exp\n      swap1\n      div\n      0xffffffffffffffffffffffffffffffffffffffff\n      and\n      0xffffffffffffffffffffffffffffffffffffffff\n      and\n      0xffffffffffffffffffffffffffffffffffffffff\n      and\n      dup2\n      mstore\n      0x20\n      add\n      0x01\n      dup3\n      add\n      0x14\n      swap1\n      sload\n      swap1\n      0x0100\n      exp\n      swap1\n      div\n      0xff\n      and\n      iszero\n      iszero\n      iszero\n      iszero\n      dup2\n      mstore\n      0x20\n      add\n      0x02\n      dup3\n      add\n      sload\n      dup2\n      mstore\n      0x20\n      add\n      0x03\n      dup3\n      add\n      0x00\n      swap1\n      sload\n      swap1\n      0x0100\n      exp\n      swap1\n      div\n      0xffff\n      and\n      0xffff\n      and\n      0xffff\n      and\n      dup2\n      mstore\n      pop\n      pop\n      swap1\n      pop\n        /* \"contracts/Capstone.sol\":6386:6391  voter */\n      dup1\n        /* \"contracts/Capstone.sol\":6386:6397  voter.Vname */\n      0x00\n      add\n      mload\n        /* \"contracts/Capstone.sol\":6399:6404  voter */\n      dup2\n        /* \"contracts/Capstone.sol\":6399:6409  voter.vote */\n      0x60\n      add\n      mload\n        /* \"contracts/Capstone.sol\":6437:6438  0 */\n      0x00\n        /* \"contracts/Capstone.sol\":6411:6439  voter.delegate != address(0) */\n      0xffffffffffffffffffffffffffffffffffffffff\n      and\n        /* \"contracts/Capstone.sol\":6411:6416  voter */\n      dup4\n        /* \"contracts/Capstone.sol\":6411:6425  voter.delegate */\n      0x20\n      add\n      mload\n        /* \"contracts/Capstone.sol\":6411:6439  voter.delegate != address(0) */\n      0xffffffffffffffffffffffffffffffffffffffff\n      and\n      eq\n      iszero\n        /* \"contracts/Capstone.sol\":6378:6440  return (voter.Vname, voter.vote, voter.delegate != address(0)) */\n      swap4\n      pop\n      swap4\n      pop\n      swap4\n      pop\n      pop\n        /* \"contracts/Capstone.sol\":6215:6448  function getVoterProfile(address _voterAddress) public view returns (string memory, uint256, bool) {... */\n      swap2\n      swap4\n      swap1\n      swap3\n      pop\n      jump\t// out\n        /* \"contracts/Capstone.sol\":1843:2779  function addVoter(address _voter, string memory _voterName) public isAdmin {... */\n    tag_95:\n        /* \"contracts/Capstone.sol\":875:880  admin */\n      0x00\n      dup1\n      sload\n      swap1\n      0x0100\n      exp\n      swap1\n      div\n      0xffffffffffffffffffffffffffffffffffffffff\n      and\n        /* \"contracts/Capstone.sol\":861:880  msg.sender == admin */\n      0xffffffffffffffffffffffffffffffffffffffff\n      and\n        /* \"contracts/Capstone.sol\":861:871  msg.sender */\n      caller\n        /* \"contracts/Capstone.sol\":861:880  msg.sender == admin */\n      0xffffffffffffffffffffffffffffffffffffffff\n      and\n      eq\n        /* \"contracts/Capstone.sol\":853:923  require(msg.sender == admin, \"Only the admin can perform this action\") */\n      tag_319\n      jumpi\n      mload(0x40)\n      0x08c379a000000000000000000000000000000000000000000000000000000000\n      dup2\n      mstore\n      0x04\n      add\n      tag_320\n      swap1\n      tag_107\n      jump\t// in\n    tag_320:\n      mload(0x40)\n      dup1\n      swap2\n      sub\n      swap1\n      revert\n    tag_319:\n        /* \"contracts/Capstone.sol\":1938:1953  electionStarted */\n      0x00\n      0x14\n      swap1\n      sload\n      swap1\n      0x0100\n      exp\n      swap1\n      div\n      0xff\n      and\n        /* \"contracts/Capstone.sol\":1937:1953  !electionStarted */\n      iszero\n        /* \"contracts/Capstone.sol\":1929:1986  require(!electionStarted, \"Election has already started\") */\n      tag_322\n      jumpi\n      mload(0x40)\n      0x08c379a000000000000000000000000000000000000000000000000000000000\n      dup2\n      mstore\n      0x04\n      add\n      tag_323\n      swap1\n      tag_111\n      jump\t// in\n    tag_323:\n      mload(0x40)\n      dup1\n      swap2\n      sub\n      swap1\n      revert\n    tag_322:\n        /* \"contracts/Capstone.sol\":2029:2034  false */\n      0x00\n        /* \"contracts/Capstone.sol\":2005:2034  voters[_voter].voted == false */\n      iszero\n      iszero\n        /* \"contracts/Capstone.sol\":2005:2011  voters */\n      0x01\n        /* \"contracts/Capstone.sol\":2005:2019  voters[_voter] */\n      0x00\n        /* \"contracts/Capstone.sol\":2012:2018  _voter */\n      dup5\n        /* \"contracts/Capstone.sol\":2005:2019  voters[_voter] */\n      0xffffffffffffffffffffffffffffffffffffffff\n      and\n      0xffffffffffffffffffffffffffffffffffffffff\n      and\n      dup2\n      mstore\n      0x20\n      add\n      swap1\n      dup2\n      mstore\n      0x20\n      add\n      0x00\n      keccak256\n        /* \"contracts/Capstone.sol\":2005:2025  voters[_voter].voted */\n      0x01\n      add\n      0x14\n      swap1\n      sload\n      swap1\n      0x0100\n      exp\n      swap1\n      div\n      0xff\n      and\n        /* \"contracts/Capstone.sol\":2005:2034  voters[_voter].voted == false */\n      iszero\n      iszero\n      eq\n        /* \"contracts/Capstone.sol\":1997:2078  require(voters[_voter].voted == false, \"ETH Address is already added as a voter\") */\n      tag_324\n      jumpi\n      mload(0x40)\n      0x08c379a000000000000000000000000000000000000000000000000000000000\n      dup2\n      mstore\n      0x04\n      add\n      tag_325\n      swap1\n      tag_326\n      jump\t// in\n    tag_325:\n      mload(0x40)\n      dup1\n      swap2\n      sub\n      swap1\n      revert\n    tag_324:\n        /* \"contracts/Capstone.sol\":2167:2176  uint256 i */\n      0x00\n        /* \"contracts/Capstone.sol\":2162:2577  for (uint256 i = 0; i < voterAddresses.length; i++) {... */\n    tag_327:\n        /* \"contracts/Capstone.sol\":2186:2200  voterAddresses */\n      0x03\n        /* \"contracts/Capstone.sol\":2186:2207  voterAddresses.length */\n      dup1\n      sload\n      swap1\n      pop\n        /* \"contracts/Capstone.sol\":2182:2183  i */\n      dup2\n        /* \"contracts/Capstone.sol\":2182:2207  i < voterAddresses.length */\n      lt\n        /* \"contracts/Capstone.sol\":2162:2577  for (uint256 i = 0; i < voterAddresses.length; i++) {... */\n      iszero\n      tag_328\n      jumpi\n        /* \"contracts/Capstone.sol\":2229:2257  address existingVoterAddress */\n      0x00\n        /* \"contracts/Capstone.sol\":2260:2274  voterAddresses */\n      0x03\n        /* \"contracts/Capstone.sol\":2275:2276  i */\n      dup3\n        /* \"contracts/Capstone.sol\":2260:2277  voterAddresses[i] */\n      dup2\n      sload\n      dup2\n      lt\n      tag_330\n      jumpi\n      tag_331\n      tag_117\n      jump\t// in\n    tag_331:\n    tag_330:\n      swap1\n      0x00\n      mstore\n      keccak256(0x00, 0x20)\n      add\n      0x00\n      swap1\n      sload\n      swap1\n      0x0100\n      exp\n      swap1\n      div\n      0xffffffffffffffffffffffffffffffffffffffff\n      and\n        /* \"contracts/Capstone.sol\":2229:2277  address existingVoterAddress = voterAddresses[i] */\n      swap1\n      pop\n        /* \"contracts/Capstone.sol\":2324:2330  _voter */\n      dup4\n        /* \"contracts/Capstone.sol\":2300:2330  existingVoterAddress != _voter */\n      0xffffffffffffffffffffffffffffffffffffffff\n      and\n        /* \"contracts/Capstone.sol\":2300:2320  existingVoterAddress */\n      dup2\n        /* \"contracts/Capstone.sol\":2300:2330  existingVoterAddress != _voter */\n      0xffffffffffffffffffffffffffffffffffffffff\n      and\n      sub\n        /* \"contracts/Capstone.sol\":2292:2379  require(existingVoterAddress != _voter,\"Voter with same address is already registered\") */\n      tag_333\n      jumpi\n      mload(0x40)\n      0x08c379a000000000000000000000000000000000000000000000000000000000\n      dup2\n      mstore\n      0x04\n      add\n      tag_334\n      swap1\n      tag_335\n      jump\t// in\n    tag_334:\n      mload(0x40)\n      dup1\n      swap2\n      sub\n      swap1\n      revert\n    tag_333:\n        /* \"contracts/Capstone.sol\":2474:2484  _voterName */\n      dup3\n        /* \"contracts/Capstone.sol\":2458:2486  keccak256(bytes(_voterName)) */\n      dup1\n      mload\n      swap1\n      0x20\n      add\n      keccak256\n        /* \"contracts/Capstone.sol\":2418:2424  voters */\n      0x01\n        /* \"contracts/Capstone.sol\":2418:2446  voters[existingVoterAddress] */\n      0x00\n        /* \"contracts/Capstone.sol\":2425:2445  existingVoterAddress */\n      dup4\n        /* \"contracts/Capstone.sol\":2418:2446  voters[existingVoterAddress] */\n      0xffffffffffffffffffffffffffffffffffffffff\n      and\n      0xffffffffffffffffffffffffffffffffffffffff\n      and\n      dup2\n      mstore\n      0x20\n      add\n      swap1\n      dup2\n      mstore\n      0x20\n      add\n      0x00\n      keccak256\n        /* \"contracts/Capstone.sol\":2418:2452  voters[existingVoterAddress].Vname */\n      0x00\n      add\n        /* \"contracts/Capstone.sol\":2402:2454  keccak256(bytes(voters[existingVoterAddress].Vname)) */\n      mload(0x40)\n      tag_336\n      swap2\n      swap1\n      tag_120\n      jump\t// in\n    tag_336:\n      mload(0x40)\n      dup1\n      swap2\n      sub\n      swap1\n      keccak256\n        /* \"contracts/Capstone.sol\":2402:2486  keccak256(bytes(voters[existingVoterAddress].Vname)) != keccak256(bytes(_voterName)) */\n      sub\n        /* \"contracts/Capstone.sol\":2394:2565  require(keccak256(bytes(voters[existingVoterAddress].Vname)) != keccak256(bytes(_voterName)),... */\n      tag_337\n      jumpi\n      mload(0x40)\n      0x08c379a000000000000000000000000000000000000000000000000000000000\n      dup2\n      mstore\n      0x04\n      add\n      tag_338\n      swap1\n      tag_339\n      jump\t// in\n    tag_338:\n      mload(0x40)\n      dup1\n      swap2\n      sub\n      swap1\n      revert\n    tag_337:\n        /* \"contracts/Capstone.sol\":2214:2577  {... */\n      pop\n        /* \"contracts/Capstone.sol\":2209:2212  i++ */\n      dup1\n      dup1\n      tag_340\n      swap1\n      tag_125\n      jump\t// in\n    tag_340:\n      swap2\n      pop\n      pop\n        /* \"contracts/Capstone.sol\":2162:2577  for (uint256 i = 0; i < voterAddresses.length; i++) {... */\n      jump(tag_327)\n    tag_328:\n      pop\n        /* \"contracts/Capstone.sol\":2612:2622  _voterName */\n      dup1\n        /* \"contracts/Capstone.sol\":2589:2595  voters */\n      0x01\n        /* \"contracts/Capstone.sol\":2589:2603  voters[_voter] */\n      0x00\n        /* \"contracts/Capstone.sol\":2596:2602  _voter */\n      dup5\n        /* \"contracts/Capstone.sol\":2589:2603  voters[_voter] */\n      0xffffffffffffffffffffffffffffffffffffffff\n      and\n      0xffffffffffffffffffffffffffffffffffffffff\n      and\n      dup2\n      mstore\n      0x20\n      add\n      swap1\n      dup2\n      mstore\n      0x20\n      add\n      0x00\n      keccak256\n        /* \"contracts/Capstone.sol\":2589:2609  voters[_voter].Vname */\n      0x00\n      add\n        /* \"contracts/Capstone.sol\":2589:2622  voters[_voter].Vname = _voterName */\n      swap1\n      dup2\n      tag_341\n      swap2\n      swap1\n      tag_128\n      jump\t// in\n    tag_341:\n      pop\n        /* \"contracts/Capstone.sol\":2656:2661  false */\n      0x00\n        /* \"contracts/Capstone.sol\":2633:2639  voters */\n      0x01\n        /* \"contracts/Capstone.sol\":2633:2647  voters[_voter] */\n      0x00\n        /* \"contracts/Capstone.sol\":2640:2646  _voter */\n      dup5\n        /* \"contracts/Capstone.sol\":2633:2647  voters[_voter] */\n      0xffffffffffffffffffffffffffffffffffffffff\n      and\n      0xffffffffffffffffffffffffffffffffffffffff\n      and\n      dup2\n      mstore\n      0x20\n      add\n      swap1\n      dup2\n      mstore\n      0x20\n      add\n      0x00\n      keccak256\n        /* \"contracts/Capstone.sol\":2633:2653  voters[_voter].voted */\n      0x01\n      add\n      0x14\n        /* \"contracts/Capstone.sol\":2633:2661  voters[_voter].voted = false */\n      0x0100\n      exp\n      dup2\n      sload\n      dup2\n      0xff\n      mul\n      not\n      and\n      swap1\n      dup4\n      iszero\n      iszero\n      mul\n      or\n      swap1\n      sstore\n      pop\n        /* \"contracts/Capstone.sol\":2694:2695  0 */\n      0x00\n        /* \"contracts/Capstone.sol\":2672:2678  voters */\n      0x01\n        /* \"contracts/Capstone.sol\":2672:2686  voters[_voter] */\n      0x00\n        /* \"contracts/Capstone.sol\":2679:2685  _voter */\n      dup5\n        /* \"contracts/Capstone.sol\":2672:2686  voters[_voter] */\n      0xffffffffffffffffffffffffffffffffffffffff\n      and\n      0xffffffffffffffffffffffffffffffffffffffff\n      and\n      dup2\n      mstore\n      0x20\n      add\n      swap1\n      dup2\n      mstore\n      0x20\n      add\n      0x00\n      keccak256\n        /* \"contracts/Capstone.sol\":2672:2691  voters[_voter].vote */\n      0x02\n      add\n        /* \"contracts/Capstone.sol\":2672:2695  voters[_voter].vote = 0 */\n      dup2\n      swap1\n      sstore\n      pop\n        /* \"contracts/Capstone.sol\":2706:2720  voterAddresses */\n      0x03\n        /* \"contracts/Capstone.sol\":2726:2732  _voter */\n      dup3\n        /* \"contracts/Capstone.sol\":2706:2733  voterAddresses.push(_voter) */\n      swap1\n      dup1\n      0x01\n      dup2\n      sload\n      add\n      dup1\n      dup3\n      sstore\n      dup1\n      swap2\n      pop\n      pop\n      0x01\n      swap1\n      sub\n      swap1\n      0x00\n      mstore\n      keccak256(0x00, 0x20)\n      add\n      0x00\n      swap1\n      swap2\n      swap1\n      swap2\n      swap1\n      swap2\n      0x0100\n      exp\n      dup2\n      sload\n      dup2\n      0xffffffffffffffffffffffffffffffffffffffff\n      mul\n      not\n      and\n      swap1\n      dup4\n      0xffffffffffffffffffffffffffffffffffffffff\n      and\n      mul\n      or\n      swap1\n      sstore\n      pop\n        /* \"contracts/Capstone.sol\":1843:2779  function addVoter(address _voter, string memory _voterName) public isAdmin {... */\n      pop\n      pop\n      jump\t// out\n        /* \"contracts/Capstone.sol\":783:814  address[] public voterAddresses */\n    tag_98:\n      0x03\n      dup2\n      dup2\n      sload\n      dup2\n      lt\n      tag_343\n      jumpi\n      0x00\n      dup1\n      revert\n    tag_343:\n      swap1\n      0x00\n      mstore\n      keccak256(0x00, 0x20)\n      add\n      0x00\n      swap2\n      pop\n      sload\n      swap1\n      0x0100\n      exp\n      swap1\n      div\n      0xffffffffffffffffffffffffffffffffffffffff\n      and\n      dup2\n      jump\t// out\n        /* \"contracts/Capstone.sol\":606:626  address public admin */\n    tag_102:\n      0x00\n      dup1\n      sload\n      swap1\n      0x0100\n      exp\n      swap1\n      div\n      0xffffffffffffffffffffffffffffffffffffffff\n      and\n      dup2\n      jump\t// out\n        /* \"contracts/Capstone.sol\":6875:7536  function updateRanks() private {... */\n    tag_174:\n        /* \"contracts/Capstone.sol\":6917:6936  uint256 currentRank */\n      0x00\n        /* \"contracts/Capstone.sol\":6939:6940  1 */\n      0x01\n        /* \"contracts/Capstone.sol\":6917:6940  uint256 currentRank = 1 */\n      swap1\n      pop\n        /* \"contracts/Capstone.sol\":6951:6975  uint256 currentVoteCount */\n      0x00\n        /* \"contracts/Capstone.sol\":6997:7006  uint256 i */\n      dup1\n        /* \"contracts/Capstone.sol\":6992:7529  for (uint256 i = 0; i < candidates.length; i++) {... */\n    tag_346:\n        /* \"contracts/Capstone.sol\":7016:7026  candidates */\n      0x02\n        /* \"contracts/Capstone.sol\":7016:7033  candidates.length */\n      dup1\n      sload\n      swap1\n      pop\n        /* \"contracts/Capstone.sol\":7012:7013  i */\n      dup2\n        /* \"contracts/Capstone.sol\":7012:7033  i < candidates.length */\n      lt\n        /* \"contracts/Capstone.sol\":6992:7529  for (uint256 i = 0; i < candidates.length; i++) {... */\n      iszero\n      tag_347\n      jumpi\n        /* \"contracts/Capstone.sol\":7085:7101  currentVoteCount */\n      dup2\n        /* \"contracts/Capstone.sol\":7059:7069  candidates */\n      0x02\n        /* \"contracts/Capstone.sol\":7070:7071  i */\n      dup3\n        /* \"contracts/Capstone.sol\":7059:7072  candidates[i] */\n      dup2\n      sload\n      dup2\n      lt\n      tag_349\n      jumpi\n      tag_350\n      tag_117\n      jump\t// in\n    tag_350:\n    tag_349:\n      swap1\n      0x00\n      mstore\n      keccak256(0x00, 0x20)\n      swap1\n      0x04\n      mul\n      add\n        /* \"contracts/Capstone.sol\":7059:7082  candidates[i].voteCount */\n      0x02\n      add\n      sload\n        /* \"contracts/Capstone.sol\":7059:7101  candidates[i].voteCount > currentVoteCount */\n      gt\n        /* \"contracts/Capstone.sol\":7055:7518  if (candidates[i].voteCount > currentVoteCount) {... */\n      iszero\n      tag_352\n      jumpi\n        /* \"contracts/Capstone.sol\":7141:7151  candidates */\n      0x02\n        /* \"contracts/Capstone.sol\":7152:7153  i */\n      dup2\n        /* \"contracts/Capstone.sol\":7141:7154  candidates[i] */\n      dup2\n      sload\n      dup2\n      lt\n      tag_353\n      jumpi\n      tag_354\n      tag_117\n      jump\t// in\n    tag_354:\n    tag_353:\n      swap1\n      0x00\n      mstore\n      keccak256(0x00, 0x20)\n      swap1\n      0x04\n      mul\n      add\n        /* \"contracts/Capstone.sol\":7141:7164  candidates[i].voteCount */\n      0x02\n      add\n      sload\n        /* \"contracts/Capstone.sol\":7122:7164  currentVoteCount = candidates[i].voteCount */\n      swap2\n      pop\n        /* \"contracts/Capstone.sol\":7204:7215  currentRank */\n      dup3\n        /* \"contracts/Capstone.sol\":7183:7193  candidates */\n      0x02\n        /* \"contracts/Capstone.sol\":7194:7195  i */\n      dup3\n        /* \"contracts/Capstone.sol\":7183:7196  candidates[i] */\n      dup2\n      sload\n      dup2\n      lt\n      tag_356\n      jumpi\n      tag_357\n      tag_117\n      jump\t// in\n    tag_357:\n    tag_356:\n      swap1\n      0x00\n      mstore\n      keccak256(0x00, 0x20)\n      swap1\n      0x04\n      mul\n      add\n        /* \"contracts/Capstone.sol\":7183:7201  candidates[i].rank */\n      0x03\n      add\n        /* \"contracts/Capstone.sol\":7183:7215  candidates[i].rank = currentRank */\n      dup2\n      swap1\n      sstore\n      pop\n        /* \"contracts/Capstone.sol\":7055:7518  if (candidates[i].voteCount > currentVoteCount) {... */\n      jump(tag_359)\n    tag_352:\n        /* \"contracts/Capstone.sol\":7267:7283  currentVoteCount */\n      dup2\n        /* \"contracts/Capstone.sol\":7241:7251  candidates */\n      0x02\n        /* \"contracts/Capstone.sol\":7252:7253  i */\n      dup3\n        /* \"contracts/Capstone.sol\":7241:7254  candidates[i] */\n      dup2\n      sload\n      dup2\n      lt\n      tag_360\n      jumpi\n      tag_361\n      tag_117\n      jump\t// in\n    tag_361:\n    tag_360:\n      swap1\n      0x00\n      mstore\n      keccak256(0x00, 0x20)\n      swap1\n      0x04\n      mul\n      add\n        /* \"contracts/Capstone.sol\":7241:7264  candidates[i].voteCount */\n      0x02\n      add\n      sload\n        /* \"contracts/Capstone.sol\":7241:7283  candidates[i].voteCount < currentVoteCount */\n      lt\n        /* \"contracts/Capstone.sol\":7237:7518  if (candidates[i].voteCount < currentVoteCount) {... */\n      iszero\n      tag_363\n      jumpi\n        /* \"contracts/Capstone.sol\":7323:7333  candidates */\n      0x02\n        /* \"contracts/Capstone.sol\":7334:7335  i */\n      dup2\n        /* \"contracts/Capstone.sol\":7323:7336  candidates[i] */\n      dup2\n      sload\n      dup2\n      lt\n      tag_364\n      jumpi\n      tag_365\n      tag_117\n      jump\t// in\n    tag_365:\n    tag_364:\n      swap1\n      0x00\n      mstore\n      keccak256(0x00, 0x20)\n      swap1\n      0x04\n      mul\n      add\n        /* \"contracts/Capstone.sol\":7323:7346  candidates[i].voteCount */\n      0x02\n      add\n      sload\n        /* \"contracts/Capstone.sol\":7304:7346  currentVoteCount = candidates[i].voteCount */\n      swap2\n      pop\n        /* \"contracts/Capstone.sol\":7365:7378  currentRank++ */\n      dup3\n      dup1\n      tag_367\n      swap1\n      tag_125\n      jump\t// in\n    tag_367:\n      swap4\n      pop\n      pop\n        /* \"contracts/Capstone.sol\":7418:7429  currentRank */\n      dup3\n        /* \"contracts/Capstone.sol\":7397:7407  candidates */\n      0x02\n        /* \"contracts/Capstone.sol\":7408:7409  i */\n      dup3\n        /* \"contracts/Capstone.sol\":7397:7410  candidates[i] */\n      dup2\n      sload\n      dup2\n      lt\n      tag_368\n      jumpi\n      tag_369\n      tag_117\n      jump\t// in\n    tag_369:\n    tag_368:\n      swap1\n      0x00\n      mstore\n      keccak256(0x00, 0x20)\n      swap1\n      0x04\n      mul\n      add\n        /* \"contracts/Capstone.sol\":7397:7415  candidates[i].rank */\n      0x03\n      add\n        /* \"contracts/Capstone.sol\":7397:7429  candidates[i].rank = currentRank */\n      dup2\n      swap1\n      sstore\n      pop\n        /* \"contracts/Capstone.sol\":7237:7518  if (candidates[i].voteCount < currentVoteCount) {... */\n      jump(tag_371)\n    tag_363:\n        /* \"contracts/Capstone.sol\":7491:7502  currentRank */\n      dup3\n        /* \"contracts/Capstone.sol\":7470:7480  candidates */\n      0x02\n        /* \"contracts/Capstone.sol\":7481:7482  i */\n      dup3\n        /* \"contracts/Capstone.sol\":7470:7483  candidates[i] */\n      dup2\n      sload\n      dup2\n      lt\n      tag_372\n      jumpi\n      tag_373\n      tag_117\n      jump\t// in\n    tag_373:\n    tag_372:\n      swap1\n      0x00\n      mstore\n      keccak256(0x00, 0x20)\n      swap1\n      0x04\n      mul\n      add\n        /* \"contracts/Capstone.sol\":7470:7488  candidates[i].rank */\n      0x03\n      add\n        /* \"contracts/Capstone.sol\":7470:7502  candidates[i].rank = currentRank */\n      dup2\n      swap1\n      sstore\n      pop\n        /* \"contracts/Capstone.sol\":7237:7518  if (candidates[i].voteCount < currentVoteCount) {... */\n    tag_371:\n        /* \"contracts/Capstone.sol\":7055:7518  if (candidates[i].voteCount > currentVoteCount) {... */\n    tag_359:\n        /* \"contracts/Capstone.sol\":7035:7038  i++ */\n      dup1\n      dup1\n      tag_375\n      swap1\n      tag_125\n      jump\t// in\n    tag_375:\n      swap2\n      pop\n      pop\n        /* \"contracts/Capstone.sol\":6992:7529  for (uint256 i = 0; i < candidates.length; i++) {... */\n      jump(tag_346)\n    tag_347:\n      pop\n        /* \"contracts/Capstone.sol\":6906:7536  {... */\n      pop\n      pop\n        /* \"contracts/Capstone.sol\":6875:7536  function updateRanks() private {... */\n      jump\t// out\n    tag_203:\n      mload(0x40)\n      dup1\n      0xa0\n      add\n      0x40\n      mstore\n      dup1\n      0x60\n      dup2\n      mstore\n      0x20\n      add\n      and(0xffffffffffffffffffffffffffffffffffffffff, 0x00)\n      dup2\n      mstore\n      0x20\n      add\n      iszero(iszero(0x00))\n      dup2\n      mstore\n      0x20\n      add\n      0x00\n      dup2\n      mstore\n      0x20\n      add\n      and(0xffff, 0x00)\n      dup2\n      mstore\n      pop\n      swap1\n      jump\t// out\n    tag_238:\n      mload(0x40)\n      dup1\n      0x80\n      add\n      0x40\n      mstore\n      dup1\n      0x60\n      dup2\n      mstore\n      0x20\n      add\n      0x60\n      dup2\n      mstore\n      0x20\n      add\n      0x00\n      dup2\n      mstore\n      0x20\n      add\n      0x00\n      dup2\n      mstore\n      pop\n      swap1\n      jump\t// out\n        /* \"#utility.yul\":7:82   */\n    tag_376:\n        /* \"#utility.yul\":40:46   */\n      0x00\n        /* \"#utility.yul\":73:75   */\n      0x40\n        /* \"#utility.yul\":67:76   */\n      mload\n        /* \"#utility.yul\":57:76   */\n      swap1\n      pop\n        /* \"#utility.yul\":7:82   */\n      swap1\n      jump\t// out\n        /* \"#utility.yul\":88:205   */\n    tag_377:\n        /* \"#utility.yul\":197:198   */\n      0x00\n        /* \"#utility.yul\":194:195   */\n      dup1\n        /* \"#utility.yul\":187:199   */\n      revert\n        /* \"#utility.yul\":211:328   */\n    tag_378:\n        /* \"#utility.yul\":320:321   */\n      0x00\n        /* \"#utility.yul\":317:318   */\n      dup1\n        /* \"#utility.yul\":310:322   */\n      revert\n        /* \"#utility.yul\":334:451   */\n    tag_379:\n        /* \"#utility.yul\":443:444   */\n      0x00\n        /* \"#utility.yul\":440:441   */\n      dup1\n        /* \"#utility.yul\":433:445   */\n      revert\n        /* \"#utility.yul\":457:574   */\n    tag_380:\n        /* \"#utility.yul\":566:567   */\n      0x00\n        /* \"#utility.yul\":563:564   */\n      dup1\n        /* \"#utility.yul\":556:568   */\n      revert\n        /* \"#utility.yul\":580:682   */\n    tag_381:\n        /* \"#utility.yul\":621:627   */\n      0x00\n        /* \"#utility.yul\":672:674   */\n      0x1f\n        /* \"#utility.yul\":668:675   */\n      not\n        /* \"#utility.yul\":663:665   */\n      0x1f\n        /* \"#utility.yul\":656:661   */\n      dup4\n        /* \"#utility.yul\":652:666   */\n      add\n        /* \"#utility.yul\":648:676   */\n      and\n        /* \"#utility.yul\":638:676   */\n      swap1\n      pop\n        /* \"#utility.yul\":580:682   */\n      swap2\n      swap1\n      pop\n      jump\t// out\n        /* \"#utility.yul\":688:868   */\n    tag_199:\n        /* \"#utility.yul\":736:813   */\n      0x4e487b7100000000000000000000000000000000000000000000000000000000\n        /* \"#utility.yul\":733:734   */\n      0x00\n        /* \"#utility.yul\":726:814   */\n      mstore\n        /* \"#utility.yul\":833:837   */\n      0x41\n        /* \"#utility.yul\":830:831   */\n      0x04\n        /* \"#utility.yul\":823:838   */\n      mstore\n        /* \"#utility.yul\":857:861   */\n      0x24\n        /* \"#utility.yul\":854:855   */\n      0x00\n        /* \"#utility.yul\":847:862   */\n      revert\n        /* \"#utility.yul\":874:1155   */\n    tag_382:\n        /* \"#utility.yul\":957:984   */\n      tag_478\n        /* \"#utility.yul\":979:983   */\n      dup3\n        /* \"#utility.yul\":957:984   */\n      tag_381\n      jump\t// in\n    tag_478:\n        /* \"#utility.yul\":949:955   */\n      dup2\n        /* \"#utility.yul\":945:985   */\n      add\n        /* \"#utility.yul\":1087:1093   */\n      dup2\n        /* \"#utility.yul\":1075:1085   */\n      dup2\n        /* \"#utility.yul\":1072:1094   */\n      lt\n        /* \"#utility.yul\":1051:1069   */\n      0xffffffffffffffff\n        /* \"#utility.yul\":1039:1049   */\n      dup3\n        /* \"#utility.yul\":1036:1070   */\n      gt\n        /* \"#utility.yul\":1033:1095   */\n      or\n        /* \"#utility.yul\":1030:1118   */\n      iszero\n      tag_479\n      jumpi\n        /* \"#utility.yul\":1098:1116   */\n      tag_480\n      tag_199\n      jump\t// in\n    tag_480:\n        /* \"#utility.yul\":1030:1118   */\n    tag_479:\n        /* \"#utility.yul\":1138:1148   */\n      dup1\n        /* \"#utility.yul\":1134:1136   */\n      0x40\n        /* \"#utility.yul\":1127:1149   */\n      mstore\n        /* \"#utility.yul\":917:1155   */\n      pop\n        /* \"#utility.yul\":874:1155   */\n      pop\n      pop\n      jump\t// out\n        /* \"#utility.yul\":1161:1290   */\n    tag_383:\n        /* \"#utility.yul\":1195:1201   */\n      0x00\n        /* \"#utility.yul\":1222:1242   */\n      tag_482\n      tag_376\n      jump\t// in\n    tag_482:\n        /* \"#utility.yul\":1212:1242   */\n      swap1\n      pop\n        /* \"#utility.yul\":1251:1284   */\n      tag_483\n        /* \"#utility.yul\":1279:1283   */\n      dup3\n        /* \"#utility.yul\":1271:1277   */\n      dup3\n        /* \"#utility.yul\":1251:1284   */\n      tag_382\n      jump\t// in\n    tag_483:\n        /* \"#utility.yul\":1161:1290   */\n      swap2\n      swap1\n      pop\n      jump\t// out\n        /* \"#utility.yul\":1296:1604   */\n    tag_384:\n        /* \"#utility.yul\":1358:1362   */\n      0x00\n        /* \"#utility.yul\":1448:1466   */\n      0xffffffffffffffff\n        /* \"#utility.yul\":1440:1446   */\n      dup3\n        /* \"#utility.yul\":1437:1467   */\n      gt\n        /* \"#utility.yul\":1434:1490   */\n      iszero\n      tag_485\n      jumpi\n        /* \"#utility.yul\":1470:1488   */\n      tag_486\n      tag_199\n      jump\t// in\n    tag_486:\n        /* \"#utility.yul\":1434:1490   */\n    tag_485:\n        /* \"#utility.yul\":1508:1537   */\n      tag_487\n        /* \"#utility.yul\":1530:1536   */\n      dup3\n        /* \"#utility.yul\":1508:1537   */\n      tag_381\n      jump\t// in\n    tag_487:\n        /* \"#utility.yul\":1500:1537   */\n      swap1\n      pop\n        /* \"#utility.yul\":1592:1596   */\n      0x20\n        /* \"#utility.yul\":1586:1590   */\n      dup2\n        /* \"#utility.yul\":1582:1597   */\n      add\n        /* \"#utility.yul\":1574:1597   */\n      swap1\n      pop\n        /* \"#utility.yul\":1296:1604   */\n      swap2\n      swap1\n      pop\n      jump\t// out\n        /* \"#utility.yul\":1610:1756   */\n    tag_385:\n        /* \"#utility.yul\":1707:1713   */\n      dup3\n        /* \"#utility.yul\":1702:1705   */\n      dup2\n        /* \"#utility.yul\":1697:1700   */\n      dup4\n        /* \"#utility.yul\":1684:1714   */\n      calldatacopy\n        /* \"#utility.yul\":1748:1749   */\n      0x00\n        /* \"#utility.yul\":1739:1745   */\n      dup4\n        /* \"#utility.yul\":1734:1737   */\n      dup4\n        /* \"#utility.yul\":1730:1746   */\n      add\n        /* \"#utility.yul\":1723:1750   */\n      mstore\n        /* \"#utility.yul\":1610:1756   */\n      pop\n      pop\n      pop\n      jump\t// out\n        /* \"#utility.yul\":1762:2187   */\n    tag_386:\n        /* \"#utility.yul\":1840:1845   */\n      0x00\n        /* \"#utility.yul\":1865:1931   */\n      tag_490\n        /* \"#utility.yul\":1881:1930   */\n      tag_491\n        /* \"#utility.yul\":1923:1929   */\n      dup5\n        /* \"#utility.yul\":1881:1930   */\n      tag_384\n      jump\t// in\n    tag_491:\n        /* \"#utility.yul\":1865:1931   */\n      tag_383\n      jump\t// in\n    tag_490:\n        /* \"#utility.yul\":1856:1931   */\n      swap1\n      pop\n        /* \"#utility.yul\":1954:1960   */\n      dup3\n        /* \"#utility.yul\":1947:1952   */\n      dup2\n        /* \"#utility.yul\":1940:1961   */\n      mstore\n        /* \"#utility.yul\":1992:1996   */\n      0x20\n        /* \"#utility.yul\":1985:1990   */\n      dup2\n        /* \"#utility.yul\":1981:1997   */\n      add\n        /* \"#utility.yul\":2030:2033   */\n      dup5\n        /* \"#utility.yul\":2021:2027   */\n      dup5\n        /* \"#utility.yul\":2016:2019   */\n      dup5\n        /* \"#utility.yul\":2012:2028   */\n      add\n        /* \"#utility.yul\":2009:2034   */\n      gt\n        /* \"#utility.yul\":2006:2118   */\n      iszero\n      tag_492\n      jumpi\n        /* \"#utility.yul\":2037:2116   */\n      tag_493\n      tag_380\n      jump\t// in\n    tag_493:\n        /* \"#utility.yul\":2006:2118   */\n    tag_492:\n        /* \"#utility.yul\":2127:2181   */\n      tag_494\n        /* \"#utility.yul\":2174:2180   */\n      dup5\n        /* \"#utility.yul\":2169:2172   */\n      dup3\n        /* \"#utility.yul\":2164:2167   */\n      dup6\n        /* \"#utility.yul\":2127:2181   */\n      tag_385\n      jump\t// in\n    tag_494:\n        /* \"#utility.yul\":1846:2187   */\n      pop\n        /* \"#utility.yul\":1762:2187   */\n      swap4\n      swap3\n      pop\n      pop\n      pop\n      jump\t// out\n        /* \"#utility.yul\":2207:2547   */\n    tag_387:\n        /* \"#utility.yul\":2263:2268   */\n      0x00\n        /* \"#utility.yul\":2312:2315   */\n      dup3\n        /* \"#utility.yul\":2305:2309   */\n      0x1f\n        /* \"#utility.yul\":2297:2303   */\n      dup4\n        /* \"#utility.yul\":2293:2310   */\n      add\n        /* \"#utility.yul\":2289:2316   */\n      slt\n        /* \"#utility.yul\":2279:2401   */\n      tag_496\n      jumpi\n        /* \"#utility.yul\":2320:2399   */\n      tag_497\n      tag_379\n      jump\t// in\n    tag_497:\n        /* \"#utility.yul\":2279:2401   */\n    tag_496:\n        /* \"#utility.yul\":2437:2443   */\n      dup2\n        /* \"#utility.yul\":2424:2444   */\n      calldataload\n        /* \"#utility.yul\":2462:2541   */\n      tag_498\n        /* \"#utility.yul\":2537:2540   */\n      dup5\n        /* \"#utility.yul\":2529:2535   */\n      dup3\n        /* \"#utility.yul\":2522:2526   */\n      0x20\n        /* \"#utility.yul\":2514:2520   */\n      dup7\n        /* \"#utility.yul\":2510:2527   */\n      add\n        /* \"#utility.yul\":2462:2541   */\n      tag_386\n      jump\t// in\n    tag_498:\n        /* \"#utility.yul\":2453:2541   */\n      swap2\n      pop\n        /* \"#utility.yul\":2269:2547   */\n      pop\n        /* \"#utility.yul\":2207:2547   */\n      swap3\n      swap2\n      pop\n      pop\n      jump\t// out\n        /* \"#utility.yul\":2553:3387   */\n    tag_28:\n        /* \"#utility.yul\":2641:2647   */\n      0x00\n        /* \"#utility.yul\":2649:2655   */\n      dup1\n        /* \"#utility.yul\":2698:2700   */\n      0x40\n        /* \"#utility.yul\":2686:2695   */\n      dup4\n        /* \"#utility.yul\":2677:2684   */\n      dup6\n        /* \"#utility.yul\":2673:2696   */\n      sub\n        /* \"#utility.yul\":2669:2701   */\n      slt\n        /* \"#utility.yul\":2666:2785   */\n      iszero\n      tag_500\n      jumpi\n        /* \"#utility.yul\":2704:2783   */\n      tag_501\n      tag_377\n      jump\t// in\n    tag_501:\n        /* \"#utility.yul\":2666:2785   */\n    tag_500:\n        /* \"#utility.yul\":2852:2853   */\n      0x00\n        /* \"#utility.yul\":2841:2850   */\n      dup4\n        /* \"#utility.yul\":2837:2854   */\n      add\n        /* \"#utility.yul\":2824:2855   */\n      calldataload\n        /* \"#utility.yul\":2882:2900   */\n      0xffffffffffffffff\n        /* \"#utility.yul\":2874:2880   */\n      dup2\n        /* \"#utility.yul\":2871:2901   */\n      gt\n        /* \"#utility.yul\":2868:2985   */\n      iszero\n      tag_502\n      jumpi\n        /* \"#utility.yul\":2904:2983   */\n      tag_503\n      tag_378\n      jump\t// in\n    tag_503:\n        /* \"#utility.yul\":2868:2985   */\n    tag_502:\n        /* \"#utility.yul\":3009:3072   */\n      tag_504\n        /* \"#utility.yul\":3064:3071   */\n      dup6\n        /* \"#utility.yul\":3055:3061   */\n      dup3\n        /* \"#utility.yul\":3044:3053   */\n      dup7\n        /* \"#utility.yul\":3040:3062   */\n      add\n        /* \"#utility.yul\":3009:3072   */\n      tag_387\n      jump\t// in\n    tag_504:\n        /* \"#utility.yul\":2999:3072   */\n      swap3\n      pop\n        /* \"#utility.yul\":2795:3082   */\n      pop\n        /* \"#utility.yul\":3149:3151   */\n      0x20\n        /* \"#utility.yul\":3138:3147   */\n      dup4\n        /* \"#utility.yul\":3134:3152   */\n      add\n        /* \"#utility.yul\":3121:3153   */\n      calldataload\n        /* \"#utility.yul\":3180:3198   */\n      0xffffffffffffffff\n        /* \"#utility.yul\":3172:3178   */\n      dup2\n        /* \"#utility.yul\":3169:3199   */\n      gt\n        /* \"#utility.yul\":3166:3283   */\n      iszero\n      tag_505\n      jumpi\n        /* \"#utility.yul\":3202:3281   */\n      tag_506\n      tag_378\n      jump\t// in\n    tag_506:\n        /* \"#utility.yul\":3166:3283   */\n    tag_505:\n        /* \"#utility.yul\":3307:3370   */\n      tag_507\n        /* \"#utility.yul\":3362:3369   */\n      dup6\n        /* \"#utility.yul\":3353:3359   */\n      dup3\n        /* \"#utility.yul\":3342:3351   */\n      dup7\n        /* \"#utility.yul\":3338:3360   */\n      add\n        /* \"#utility.yul\":3307:3370   */\n      tag_387\n      jump\t// in\n    tag_507:\n        /* \"#utility.yul\":3297:3370   */\n      swap2\n      pop\n        /* \"#utility.yul\":3092:3380   */\n      pop\n        /* \"#utility.yul\":2553:3387   */\n      swap3\n      pop\n      swap3\n      swap1\n      pop\n      jump\t// out\n        /* \"#utility.yul\":3393:3470   */\n    tag_388:\n        /* \"#utility.yul\":3430:3437   */\n      0x00\n        /* \"#utility.yul\":3459:3464   */\n      dup2\n        /* \"#utility.yul\":3448:3464   */\n      swap1\n      pop\n        /* \"#utility.yul\":3393:3470   */\n      swap2\n      swap1\n      pop\n      jump\t// out\n        /* \"#utility.yul\":3476:3598   */\n    tag_389:\n        /* \"#utility.yul\":3549:3573   */\n      tag_510\n        /* \"#utility.yul\":3567:3572   */\n      dup2\n        /* \"#utility.yul\":3549:3573   */\n      tag_388\n      jump\t// in\n    tag_510:\n        /* \"#utility.yul\":3542:3547   */\n      dup2\n        /* \"#utility.yul\":3539:3574   */\n      eq\n        /* \"#utility.yul\":3529:3592   */\n      tag_511\n      jumpi\n        /* \"#utility.yul\":3588:3589   */\n      0x00\n        /* \"#utility.yul\":3585:3586   */\n      dup1\n        /* \"#utility.yul\":3578:3590   */\n      revert\n        /* \"#utility.yul\":3529:3592   */\n    tag_511:\n        /* \"#utility.yul\":3476:3598   */\n      pop\n      jump\t// out\n        /* \"#utility.yul\":3604:3743   */\n    tag_390:\n        /* \"#utility.yul\":3650:3655   */\n      0x00\n        /* \"#utility.yul\":3688:3694   */\n      dup2\n        /* \"#utility.yul\":3675:3695   */\n      calldataload\n        /* \"#utility.yul\":3666:3695   */\n      swap1\n      pop\n        /* \"#utility.yul\":3704:3737   */\n      tag_513\n        /* \"#utility.yul\":3731:3736   */\n      dup2\n        /* \"#utility.yul\":3704:3737   */\n      tag_389\n      jump\t// in\n    tag_513:\n        /* \"#utility.yul\":3604:3743   */\n      swap3\n      swap2\n      pop\n      pop\n      jump\t// out\n        /* \"#utility.yul\":3749:4078   */\n    tag_32:\n        /* \"#utility.yul\":3808:3814   */\n      0x00\n        /* \"#utility.yul\":3857:3859   */\n      0x20\n        /* \"#utility.yul\":3845:3854   */\n      dup3\n        /* \"#utility.yul\":3836:3843   */\n      dup5\n        /* \"#utility.yul\":3832:3855   */\n      sub\n        /* \"#utility.yul\":3828:3860   */\n      slt\n        /* \"#utility.yul\":3825:3944   */\n      iszero\n      tag_515\n      jumpi\n        /* \"#utility.yul\":3863:3942   */\n      tag_516\n      tag_377\n      jump\t// in\n    tag_516:\n        /* \"#utility.yul\":3825:3944   */\n    tag_515:\n        /* \"#utility.yul\":3983:3984   */\n      0x00\n        /* \"#utility.yul\":4008:4061   */\n      tag_517\n        /* \"#utility.yul\":4053:4060   */\n      dup5\n        /* \"#utility.yul\":4044:4050   */\n      dup3\n        /* \"#utility.yul\":4033:4042   */\n      dup6\n        /* \"#utility.yul\":4029:4051   */\n      add\n        /* \"#utility.yul\":4008:4061   */\n      tag_390\n      jump\t// in\n    tag_517:\n        /* \"#utility.yul\":3998:4061   */\n      swap2\n      pop\n        /* \"#utility.yul\":3954:4071   */\n      pop\n        /* \"#utility.yul\":3749:4078   */\n      swap3\n      swap2\n      pop\n      pop\n      jump\t// out\n        /* \"#utility.yul\":4084:4202   */\n    tag_391:\n        /* \"#utility.yul\":4171:4195   */\n      tag_519\n        /* \"#utility.yul\":4189:4194   */\n      dup2\n        /* \"#utility.yul\":4171:4195   */\n      tag_388\n      jump\t// in\n    tag_519:\n        /* \"#utility.yul\":4166:4169   */\n      dup3\n        /* \"#utility.yul\":4159:4196   */\n      mstore\n        /* \"#utility.yul\":4084:4202   */\n      pop\n      pop\n      jump\t// out\n        /* \"#utility.yul\":4208:4307   */\n    tag_392:\n        /* \"#utility.yul\":4260:4266   */\n      0x00\n        /* \"#utility.yul\":4294:4299   */\n      dup2\n        /* \"#utility.yul\":4288:4300   */\n      mload\n        /* \"#utility.yul\":4278:4300   */\n      swap1\n      pop\n        /* \"#utility.yul\":4208:4307   */\n      swap2\n      swap1\n      pop\n      jump\t// out\n        /* \"#utility.yul\":4313:4482   */\n    tag_393:\n        /* \"#utility.yul\":4397:4408   */\n      0x00\n        /* \"#utility.yul\":4431:4437   */\n      dup3\n        /* \"#utility.yul\":4426:4429   */\n      dup3\n        /* \"#utility.yul\":4419:4438   */\n      mstore\n        /* \"#utility.yul\":4471:4475   */\n      0x20\n        /* \"#utility.yul\":4466:4469   */\n      dup3\n        /* \"#utility.yul\":4462:4476   */\n      add\n        /* \"#utility.yul\":4447:4476   */\n      swap1\n      pop\n        /* \"#utility.yul\":4313:4482   */\n      swap3\n      swap2\n      pop\n      pop\n      jump\t// out\n        /* \"#utility.yul\":4488:4734   */\n    tag_394:\n        /* \"#utility.yul\":4569:4570   */\n      0x00\n        /* \"#utility.yul\":4579:4692   */\n    tag_523:\n        /* \"#utility.yul\":4593:4599   */\n      dup4\n        /* \"#utility.yul\":4590:4591   */\n      dup2\n        /* \"#utility.yul\":4587:4600   */\n      lt\n        /* \"#utility.yul\":4579:4692   */\n      iszero\n      tag_525\n      jumpi\n        /* \"#utility.yul\":4678:4679   */\n      dup1\n        /* \"#utility.yul\":4673:4676   */\n      dup3\n        /* \"#utility.yul\":4669:4680   */\n      add\n        /* \"#utility.yul\":4663:4681   */\n      mload\n        /* \"#utility.yul\":4659:4660   */\n      dup2\n        /* \"#utility.yul\":4654:4657   */\n      dup5\n        /* \"#utility.yul\":4650:4661   */\n      add\n        /* \"#utility.yul\":4643:4682   */\n      mstore\n        /* \"#utility.yul\":4615:4617   */\n      0x20\n        /* \"#utility.yul\":4612:4613   */\n      dup2\n        /* \"#utility.yul\":4608:4618   */\n      add\n        /* \"#utility.yul\":4603:4618   */\n      swap1\n      pop\n        /* \"#utility.yul\":4579:4692   */\n      jump(tag_523)\n    tag_525:\n        /* \"#utility.yul\":4726:4727   */\n      0x00\n        /* \"#utility.yul\":4717:4723   */\n      dup5\n        /* \"#utility.yul\":4712:4715   */\n      dup5\n        /* \"#utility.yul\":4708:4724   */\n      add\n        /* \"#utility.yul\":4701:4728   */\n      mstore\n        /* \"#utility.yul\":4550:4734   */\n      pop\n        /* \"#utility.yul\":4488:4734   */\n      pop\n      pop\n      pop\n      jump\t// out\n        /* \"#utility.yul\":4740:5117   */\n    tag_395:\n        /* \"#utility.yul\":4828:4831   */\n      0x00\n        /* \"#utility.yul\":4856:4895   */\n      tag_527\n        /* \"#utility.yul\":4889:4894   */\n      dup3\n        /* \"#utility.yul\":4856:4895   */\n      tag_392\n      jump\t// in\n    tag_527:\n        /* \"#utility.yul\":4911:4982   */\n      tag_528\n        /* \"#utility.yul\":4975:4981   */\n      dup2\n        /* \"#utility.yul\":4970:4973   */\n      dup6\n        /* \"#utility.yul\":4911:4982   */\n      tag_393\n      jump\t// in\n    tag_528:\n        /* \"#utility.yul\":4904:4982   */\n      swap4\n      pop\n        /* \"#utility.yul\":4991:5056   */\n      tag_529\n        /* \"#utility.yul\":5049:5055   */\n      dup2\n        /* \"#utility.yul\":5044:5047   */\n      dup6\n        /* \"#utility.yul\":5037:5041   */\n      0x20\n        /* \"#utility.yul\":5030:5035   */\n      dup7\n        /* \"#utility.yul\":5026:5042   */\n      add\n        /* \"#utility.yul\":4991:5056   */\n      tag_394\n      jump\t// in\n    tag_529:\n        /* \"#utility.yul\":5081:5110   */\n      tag_530\n        /* \"#utility.yul\":5103:5109   */\n      dup2\n        /* \"#utility.yul\":5081:5110   */\n      tag_381\n      jump\t// in\n    tag_530:\n        /* \"#utility.yul\":5076:5079   */\n      dup5\n        /* \"#utility.yul\":5072:5111   */\n      add\n        /* \"#utility.yul\":5065:5111   */\n      swap2\n      pop\n        /* \"#utility.yul\":4832:5117   */\n      pop\n        /* \"#utility.yul\":4740:5117   */\n      swap3\n      swap2\n      pop\n      pop\n      jump\t// out\n        /* \"#utility.yul\":5123:5747   */\n    tag_35:\n        /* \"#utility.yul\":5312:5316   */\n      0x00\n        /* \"#utility.yul\":5350:5352   */\n      0x60\n        /* \"#utility.yul\":5339:5348   */\n      dup3\n        /* \"#utility.yul\":5335:5353   */\n      add\n        /* \"#utility.yul\":5327:5353   */\n      swap1\n      pop\n        /* \"#utility.yul\":5363:5434   */\n      tag_532\n        /* \"#utility.yul\":5431:5432   */\n      0x00\n        /* \"#utility.yul\":5420:5429   */\n      dup4\n        /* \"#utility.yul\":5416:5433   */\n      add\n        /* \"#utility.yul\":5407:5413   */\n      dup7\n        /* \"#utility.yul\":5363:5434   */\n      tag_391\n      jump\t// in\n    tag_532:\n        /* \"#utility.yul\":5481:5490   */\n      dup2\n        /* \"#utility.yul\":5475:5479   */\n      dup2\n        /* \"#utility.yul\":5471:5491   */\n      sub\n        /* \"#utility.yul\":5466:5468   */\n      0x20\n        /* \"#utility.yul\":5455:5464   */\n      dup4\n        /* \"#utility.yul\":5451:5469   */\n      add\n        /* \"#utility.yul\":5444:5492   */\n      mstore\n        /* \"#utility.yul\":5509:5587   */\n      tag_533\n        /* \"#utility.yul\":5582:5586   */\n      dup2\n        /* \"#utility.yul\":5573:5579   */\n      dup6\n        /* \"#utility.yul\":5509:5587   */\n      tag_395\n      jump\t// in\n    tag_533:\n        /* \"#utility.yul\":5501:5587   */\n      swap1\n      pop\n        /* \"#utility.yul\":5634:5643   */\n      dup2\n        /* \"#utility.yul\":5628:5632   */\n      dup2\n        /* \"#utility.yul\":5624:5644   */\n      sub\n        /* \"#utility.yul\":5619:5621   */\n      0x40\n        /* \"#utility.yul\":5608:5617   */\n      dup4\n        /* \"#utility.yul\":5604:5622   */\n      add\n        /* \"#utility.yul\":5597:5645   */\n      mstore\n        /* \"#utility.yul\":5662:5740   */\n      tag_534\n        /* \"#utility.yul\":5735:5739   */\n      dup2\n        /* \"#utility.yul\":5726:5732   */\n      dup5\n        /* \"#utility.yul\":5662:5740   */\n      tag_395\n      jump\t// in\n    tag_534:\n        /* \"#utility.yul\":5654:5740   */\n      swap1\n      pop\n        /* \"#utility.yul\":5123:5747   */\n      swap5\n      swap4\n      pop\n      pop\n      pop\n      pop\n      jump\t// out\n        /* \"#utility.yul\":5753:5975   */\n    tag_39:\n        /* \"#utility.yul\":5846:5850   */\n      0x00\n        /* \"#utility.yul\":5884:5886   */\n      0x20\n        /* \"#utility.yul\":5873:5882   */\n      dup3\n        /* \"#utility.yul\":5869:5887   */\n      add\n        /* \"#utility.yul\":5861:5887   */\n      swap1\n      pop\n        /* \"#utility.yul\":5897:5968   */\n      tag_536\n        /* \"#utility.yul\":5965:5966   */\n      0x00\n        /* \"#utility.yul\":5954:5963   */\n      dup4\n        /* \"#utility.yul\":5950:5967   */\n      add\n        /* \"#utility.yul\":5941:5947   */\n      dup5\n        /* \"#utility.yul\":5897:5968   */\n      tag_391\n      jump\t// in\n    tag_536:\n        /* \"#utility.yul\":5753:5975   */\n      swap3\n      swap2\n      pop\n      pop\n      jump\t// out\n        /* \"#utility.yul\":5981:6716   */\n    tag_44:\n        /* \"#utility.yul\":6198:6202   */\n      0x00\n        /* \"#utility.yul\":6236:6239   */\n      0x80\n        /* \"#utility.yul\":6225:6234   */\n      dup3\n        /* \"#utility.yul\":6221:6240   */\n      add\n        /* \"#utility.yul\":6213:6240   */\n      swap1\n      pop\n        /* \"#utility.yul\":6286:6295   */\n      dup2\n        /* \"#utility.yul\":6280:6284   */\n      dup2\n        /* \"#utility.yul\":6276:6296   */\n      sub\n        /* \"#utility.yul\":6272:6273   */\n      0x00\n        /* \"#utility.yul\":6261:6270   */\n      dup4\n        /* \"#utility.yul\":6257:6274   */\n      add\n        /* \"#utility.yul\":6250:6297   */\n      mstore\n        /* \"#utility.yul\":6314:6392   */\n      tag_538\n        /* \"#utility.yul\":6387:6391   */\n      dup2\n        /* \"#utility.yul\":6378:6384   */\n      dup8\n        /* \"#utility.yul\":6314:6392   */\n      tag_395\n      jump\t// in\n    tag_538:\n        /* \"#utility.yul\":6306:6392   */\n      swap1\n      pop\n        /* \"#utility.yul\":6439:6448   */\n      dup2\n        /* \"#utility.yul\":6433:6437   */\n      dup2\n        /* \"#utility.yul\":6429:6449   */\n      sub\n        /* \"#utility.yul\":6424:6426   */\n      0x20\n        /* \"#utility.yul\":6413:6422   */\n      dup4\n        /* \"#utility.yul\":6409:6427   */\n      add\n        /* \"#utility.yul\":6402:6450   */\n      mstore\n        /* \"#utility.yul\":6467:6545   */\n      tag_539\n        /* \"#utility.yul\":6540:6544   */\n      dup2\n        /* \"#utility.yul\":6531:6537   */\n      dup7\n        /* \"#utility.yul\":6467:6545   */\n      tag_395\n      jump\t// in\n    tag_539:\n        /* \"#utility.yul\":6459:6545   */\n      swap1\n      pop\n        /* \"#utility.yul\":6555:6627   */\n      tag_540\n        /* \"#utility.yul\":6623:6625   */\n      0x40\n        /* \"#utility.yul\":6612:6621   */\n      dup4\n        /* \"#utility.yul\":6608:6626   */\n      add\n        /* \"#utility.yul\":6599:6605   */\n      dup6\n        /* \"#utility.yul\":6555:6627   */\n      tag_391\n      jump\t// in\n    tag_540:\n        /* \"#utility.yul\":6637:6709   */\n      tag_541\n        /* \"#utility.yul\":6705:6707   */\n      0x60\n        /* \"#utility.yul\":6694:6703   */\n      dup4\n        /* \"#utility.yul\":6690:6708   */\n      add\n        /* \"#utility.yul\":6681:6687   */\n      dup5\n        /* \"#utility.yul\":6637:6709   */\n      tag_391\n      jump\t// in\n    tag_541:\n        /* \"#utility.yul\":5981:6716   */\n      swap6\n      swap5\n      pop\n      pop\n      pop\n      pop\n      pop\n      jump\t// out\n        /* \"#utility.yul\":6722:6857   */\n    tag_396:\n        /* \"#utility.yul\":6810:6816   */\n      0x00\n        /* \"#utility.yul\":6844:6849   */\n      dup2\n        /* \"#utility.yul\":6838:6850   */\n      mload\n        /* \"#utility.yul\":6828:6850   */\n      swap1\n      pop\n        /* \"#utility.yul\":6722:6857   */\n      swap2\n      swap1\n      pop\n      jump\t// out\n        /* \"#utility.yul\":6863:7068   */\n    tag_397:\n        /* \"#utility.yul\":6983:6994   */\n      0x00\n        /* \"#utility.yul\":7017:7023   */\n      dup3\n        /* \"#utility.yul\":7012:7015   */\n      dup3\n        /* \"#utility.yul\":7005:7024   */\n      mstore\n        /* \"#utility.yul\":7057:7061   */\n      0x20\n        /* \"#utility.yul\":7052:7055   */\n      dup3\n        /* \"#utility.yul\":7048:7062   */\n      add\n        /* \"#utility.yul\":7033:7062   */\n      swap1\n      pop\n        /* \"#utility.yul\":6863:7068   */\n      swap3\n      swap2\n      pop\n      pop\n      jump\t// out\n        /* \"#utility.yul\":7074:7227   */\n    tag_398:\n        /* \"#utility.yul\":7162:7166   */\n      0x00\n        /* \"#utility.yul\":7185:7188   */\n      dup2\n        /* \"#utility.yul\":7177:7188   */\n      swap1\n      pop\n        /* \"#utility.yul\":7215:7219   */\n      0x20\n        /* \"#utility.yul\":7210:7213   */\n      dup3\n        /* \"#utility.yul\":7206:7220   */\n      add\n        /* \"#utility.yul\":7198:7220   */\n      swap1\n      pop\n        /* \"#utility.yul\":7074:7227   */\n      swap2\n      swap1\n      pop\n      jump\t// out\n        /* \"#utility.yul\":7233:7392   */\n    tag_399:\n        /* \"#utility.yul\":7307:7318   */\n      0x00\n        /* \"#utility.yul\":7341:7347   */\n      dup3\n        /* \"#utility.yul\":7336:7339   */\n      dup3\n        /* \"#utility.yul\":7329:7348   */\n      mstore\n        /* \"#utility.yul\":7381:7385   */\n      0x20\n        /* \"#utility.yul\":7376:7379   */\n      dup3\n        /* \"#utility.yul\":7372:7386   */\n      add\n        /* \"#utility.yul\":7357:7386   */\n      swap1\n      pop\n        /* \"#utility.yul\":7233:7392   */\n      swap3\n      swap2\n      pop\n      pop\n      jump\t// out\n        /* \"#utility.yul\":7398:7755   */\n    tag_400:\n        /* \"#utility.yul\":7476:7479   */\n      0x00\n        /* \"#utility.yul\":7504:7543   */\n      tag_547\n        /* \"#utility.yul\":7537:7542   */\n      dup3\n        /* \"#utility.yul\":7504:7543   */\n      tag_392\n      jump\t// in\n    tag_547:\n        /* \"#utility.yul\":7559:7620   */\n      tag_548\n        /* \"#utility.yul\":7613:7619   */\n      dup2\n        /* \"#utility.yul\":7608:7611   */\n      dup6\n        /* \"#utility.yul\":7559:7620   */\n      tag_399\n      jump\t// in\n    tag_548:\n        /* \"#utility.yul\":7552:7620   */\n      swap4\n      pop\n        /* \"#utility.yul\":7629:7694   */\n      tag_549\n        /* \"#utility.yul\":7687:7693   */\n      dup2\n        /* \"#utility.yul\":7682:7685   */\n      dup6\n        /* \"#utility.yul\":7675:7679   */\n      0x20\n        /* \"#utility.yul\":7668:7673   */\n      dup7\n        /* \"#utility.yul\":7664:7680   */\n      add\n        /* \"#utility.yul\":7629:7694   */\n      tag_394\n      jump\t// in\n    tag_549:\n        /* \"#utility.yul\":7719:7748   */\n      tag_550\n        /* \"#utility.yul\":7741:7747   */\n      dup2\n        /* \"#utility.yul\":7719:7748   */\n      tag_381\n      jump\t// in\n    tag_550:\n        /* \"#utility.yul\":7714:7717   */\n      dup5\n        /* \"#utility.yul\":7710:7749   */\n      add\n        /* \"#utility.yul\":7703:7749   */\n      swap2\n      pop\n        /* \"#utility.yul\":7480:7755   */\n      pop\n        /* \"#utility.yul\":7398:7755   */\n      swap3\n      swap2\n      pop\n      pop\n      jump\t// out\n        /* \"#utility.yul\":7761:7887   */\n    tag_401:\n        /* \"#utility.yul\":7798:7805   */\n      0x00\n        /* \"#utility.yul\":7838:7880   */\n      0xffffffffffffffffffffffffffffffffffffffff\n        /* \"#utility.yul\":7831:7836   */\n      dup3\n        /* \"#utility.yul\":7827:7881   */\n      and\n        /* \"#utility.yul\":7816:7881   */\n      swap1\n      pop\n        /* \"#utility.yul\":7761:7887   */\n      swap2\n      swap1\n      pop\n      jump\t// out\n        /* \"#utility.yul\":7893:7989   */\n    tag_402:\n        /* \"#utility.yul\":7930:7937   */\n      0x00\n        /* \"#utility.yul\":7959:7983   */\n      tag_553\n        /* \"#utility.yul\":7977:7982   */\n      dup3\n        /* \"#utility.yul\":7959:7983   */\n      tag_401\n      jump\t// in\n    tag_553:\n        /* \"#utility.yul\":7948:7983   */\n      swap1\n      pop\n        /* \"#utility.yul\":7893:7989   */\n      swap2\n      swap1\n      pop\n      jump\t// out\n        /* \"#utility.yul\":7995:8103   */\n    tag_403:\n        /* \"#utility.yul\":8072:8096   */\n      tag_555\n        /* \"#utility.yul\":8090:8095   */\n      dup2\n        /* \"#utility.yul\":8072:8096   */\n      tag_402\n      jump\t// in\n    tag_555:\n        /* \"#utility.yul\":8067:8070   */\n      dup3\n        /* \"#utility.yul\":8060:8097   */\n      mstore\n        /* \"#utility.yul\":7995:8103   */\n      pop\n      pop\n      jump\t// out\n        /* \"#utility.yul\":8109:8199   */\n    tag_404:\n        /* \"#utility.yul\":8143:8150   */\n      0x00\n        /* \"#utility.yul\":8186:8191   */\n      dup2\n        /* \"#utility.yul\":8179:8192   */\n      iszero\n        /* \"#utility.yul\":8172:8193   */\n      iszero\n        /* \"#utility.yul\":8161:8193   */\n      swap1\n      pop\n        /* \"#utility.yul\":8109:8199   */\n      swap2\n      swap1\n      pop\n      jump\t// out\n        /* \"#utility.yul\":8205:8304   */\n    tag_405:\n        /* \"#utility.yul\":8276:8297   */\n      tag_558\n        /* \"#utility.yul\":8291:8296   */\n      dup2\n        /* \"#utility.yul\":8276:8297   */\n      tag_404\n      jump\t// in\n    tag_558:\n        /* \"#utility.yul\":8271:8274   */\n      dup3\n        /* \"#utility.yul\":8264:8298   */\n      mstore\n        /* \"#utility.yul\":8205:8304   */\n      pop\n      pop\n      jump\t// out\n        /* \"#utility.yul\":8310:8418   */\n    tag_406:\n        /* \"#utility.yul\":8387:8411   */\n      tag_560\n        /* \"#utility.yul\":8405:8410   */\n      dup2\n        /* \"#utility.yul\":8387:8411   */\n      tag_388\n      jump\t// in\n    tag_560:\n        /* \"#utility.yul\":8382:8385   */\n      dup3\n        /* \"#utility.yul\":8375:8412   */\n      mstore\n        /* \"#utility.yul\":8310:8418   */\n      pop\n      pop\n      jump\t// out\n        /* \"#utility.yul\":8424:8513   */\n    tag_407:\n        /* \"#utility.yul\":8460:8467   */\n      0x00\n        /* \"#utility.yul\":8500:8506   */\n      0xffff\n        /* \"#utility.yul\":8493:8498   */\n      dup3\n        /* \"#utility.yul\":8489:8507   */\n      and\n        /* \"#utility.yul\":8478:8507   */\n      swap1\n      pop\n        /* \"#utility.yul\":8424:8513   */\n      swap2\n      swap1\n      pop\n      jump\t// out\n        /* \"#utility.yul\":8519:8624   */\n    tag_408:\n        /* \"#utility.yul\":8594:8617   */\n      tag_563\n        /* \"#utility.yul\":8611:8616   */\n      dup2\n        /* \"#utility.yul\":8594:8617   */\n      tag_407\n      jump\t// in\n    tag_563:\n        /* \"#utility.yul\":8589:8592   */\n      dup3\n        /* \"#utility.yul\":8582:8618   */\n      mstore\n        /* \"#utility.yul\":8519:8624   */\n      pop\n      pop\n      jump\t// out\n        /* \"#utility.yul\":8696:9803   */\n    tag_409:\n        /* \"#utility.yul\":8797:8800   */\n      0x00\n        /* \"#utility.yul\":8833:8837   */\n      0xa0\n        /* \"#utility.yul\":8828:8831   */\n      dup4\n        /* \"#utility.yul\":8824:8838   */\n      add\n        /* \"#utility.yul\":8921:8925   */\n      0x00\n        /* \"#utility.yul\":8914:8919   */\n      dup4\n        /* \"#utility.yul\":8910:8926   */\n      add\n        /* \"#utility.yul\":8904:8927   */\n      mload\n        /* \"#utility.yul\":8974:8977   */\n      dup5\n        /* \"#utility.yul\":8968:8972   */\n      dup3\n        /* \"#utility.yul\":8964:8978   */\n      sub\n        /* \"#utility.yul\":8957:8961   */\n      0x00\n        /* \"#utility.yul\":8952:8955   */\n      dup7\n        /* \"#utility.yul\":8948:8962   */\n      add\n        /* \"#utility.yul\":8941:8979   */\n      mstore\n        /* \"#utility.yul\":9000:9073   */\n      tag_565\n        /* \"#utility.yul\":9068:9072   */\n      dup3\n        /* \"#utility.yul\":9054:9066   */\n      dup3\n        /* \"#utility.yul\":9000:9073   */\n      tag_400\n      jump\t// in\n    tag_565:\n        /* \"#utility.yul\":8992:9073   */\n      swap2\n      pop\n        /* \"#utility.yul\":8848:9084   */\n      pop\n        /* \"#utility.yul\":9170:9174   */\n      0x20\n        /* \"#utility.yul\":9163:9168   */\n      dup4\n        /* \"#utility.yul\":9159:9175   */\n      add\n        /* \"#utility.yul\":9153:9176   */\n      mload\n        /* \"#utility.yul\":9189:9252   */\n      tag_566\n        /* \"#utility.yul\":9246:9250   */\n      0x20\n        /* \"#utility.yul\":9241:9244   */\n      dup7\n        /* \"#utility.yul\":9237:9251   */\n      add\n        /* \"#utility.yul\":9223:9235   */\n      dup3\n        /* \"#utility.yul\":9189:9252   */\n      tag_403\n      jump\t// in\n    tag_566:\n        /* \"#utility.yul\":9094:9262   */\n      pop\n        /* \"#utility.yul\":9345:9349   */\n      0x40\n        /* \"#utility.yul\":9338:9343   */\n      dup4\n        /* \"#utility.yul\":9334:9350   */\n      add\n        /* \"#utility.yul\":9328:9351   */\n      mload\n        /* \"#utility.yul\":9364:9421   */\n      tag_567\n        /* \"#utility.yul\":9415:9419   */\n      0x40\n        /* \"#utility.yul\":9410:9413   */\n      dup7\n        /* \"#utility.yul\":9406:9420   */\n      add\n        /* \"#utility.yul\":9392:9404   */\n      dup3\n        /* \"#utility.yul\":9364:9421   */\n      tag_405\n      jump\t// in\n    tag_567:\n        /* \"#utility.yul\":9272:9431   */\n      pop\n        /* \"#utility.yul\":9513:9517   */\n      0x60\n        /* \"#utility.yul\":9506:9511   */\n      dup4\n        /* \"#utility.yul\":9502:9518   */\n      add\n        /* \"#utility.yul\":9496:9519   */\n      mload\n        /* \"#utility.yul\":9532:9595   */\n      tag_568\n        /* \"#utility.yul\":9589:9593   */\n      0x60\n        /* \"#utility.yul\":9584:9587   */\n      dup7\n        /* \"#utility.yul\":9580:9594   */\n      add\n        /* \"#utility.yul\":9566:9578   */\n      dup3\n        /* \"#utility.yul\":9532:9595   */\n      tag_406\n      jump\t// in\n    tag_568:\n        /* \"#utility.yul\":9441:9605   */\n      pop\n        /* \"#utility.yul\":9686:9690   */\n      0x80\n        /* \"#utility.yul\":9679:9684   */\n      dup4\n        /* \"#utility.yul\":9675:9691   */\n      add\n        /* \"#utility.yul\":9669:9692   */\n      mload\n        /* \"#utility.yul\":9705:9766   */\n      tag_569\n        /* \"#utility.yul\":9760:9764   */\n      0x80\n        /* \"#utility.yul\":9755:9758   */\n      dup7\n        /* \"#utility.yul\":9751:9765   */\n      add\n        /* \"#utility.yul\":9737:9749   */\n      dup3\n        /* \"#utility.yul\":9705:9766   */\n      tag_408\n      jump\t// in\n    tag_569:\n        /* \"#utility.yul\":9615:9776   */\n      pop\n        /* \"#utility.yul\":9793:9797   */\n      dup1\n        /* \"#utility.yul\":9786:9797   */\n      swap2\n      pop\n        /* \"#utility.yul\":8802:9803   */\n      pop\n        /* \"#utility.yul\":8696:9803   */\n      swap3\n      swap2\n      pop\n      pop\n      jump\t// out\n        /* \"#utility.yul\":9809:10049   */\n    tag_410:\n        /* \"#utility.yul\":9920:9930   */\n      0x00\n        /* \"#utility.yul\":9955:10043   */\n      tag_571\n        /* \"#utility.yul\":10039:10042   */\n      dup4\n        /* \"#utility.yul\":10031:10037   */\n      dup4\n        /* \"#utility.yul\":9955:10043   */\n      tag_409\n      jump\t// in\n    tag_571:\n        /* \"#utility.yul\":9941:10043   */\n      swap1\n      pop\n        /* \"#utility.yul\":9809:10049   */\n      swap3\n      swap2\n      pop\n      pop\n      jump\t// out\n        /* \"#utility.yul\":10055:10189   */\n    tag_411:\n        /* \"#utility.yul\":10146:10150   */\n      0x00\n        /* \"#utility.yul\":10178:10182   */\n      0x20\n        /* \"#utility.yul\":10173:10176   */\n      dup3\n        /* \"#utility.yul\":10169:10183   */\n      add\n        /* \"#utility.yul\":10161:10183   */\n      swap1\n      pop\n        /* \"#utility.yul\":10055:10189   */\n      swap2\n      swap1\n      pop\n      jump\t// out\n        /* \"#utility.yul\":10265:11344   */\n    tag_412:\n        /* \"#utility.yul\":10426:10429   */\n      0x00\n        /* \"#utility.yul\":10455:10530   */\n      tag_574\n        /* \"#utility.yul\":10524:10529   */\n      dup3\n        /* \"#utility.yul\":10455:10530   */\n      tag_396\n      jump\t// in\n    tag_574:\n        /* \"#utility.yul\":10546:10653   */\n      tag_575\n        /* \"#utility.yul\":10646:10652   */\n      dup2\n        /* \"#utility.yul\":10641:10644   */\n      dup6\n        /* \"#utility.yul\":10546:10653   */\n      tag_397\n      jump\t// in\n    tag_575:\n        /* \"#utility.yul\":10539:10653   */\n      swap4\n      pop\n        /* \"#utility.yul\":10679:10682   */\n      dup4\n        /* \"#utility.yul\":10724:10728   */\n      0x20\n        /* \"#utility.yul\":10716:10722   */\n      dup3\n        /* \"#utility.yul\":10712:10729   */\n      mul\n        /* \"#utility.yul\":10707:10710   */\n      dup6\n        /* \"#utility.yul\":10703:10730   */\n      add\n        /* \"#utility.yul\":10754:10831   */\n      tag_576\n        /* \"#utility.yul\":10825:10830   */\n      dup6\n        /* \"#utility.yul\":10754:10831   */\n      tag_398\n      jump\t// in\n    tag_576:\n        /* \"#utility.yul\":10854:10861   */\n      dup1\n        /* \"#utility.yul\":10885:10886   */\n      0x00\n        /* \"#utility.yul\":10870:11299   */\n    tag_577:\n        /* \"#utility.yul\":10895:10901   */\n      dup6\n        /* \"#utility.yul\":10892:10893   */\n      dup2\n        /* \"#utility.yul\":10889:10902   */\n      lt\n        /* \"#utility.yul\":10870:11299   */\n      iszero\n      tag_579\n      jumpi\n        /* \"#utility.yul\":10966:10975   */\n      dup5\n        /* \"#utility.yul\":10960:10964   */\n      dup5\n        /* \"#utility.yul\":10956:10976   */\n      sub\n        /* \"#utility.yul\":10951:10954   */\n      dup10\n        /* \"#utility.yul\":10944:10977   */\n      mstore\n        /* \"#utility.yul\":11017:11023   */\n      dup2\n        /* \"#utility.yul\":11011:11024   */\n      mload\n        /* \"#utility.yul\":11045:11151   */\n      tag_580\n        /* \"#utility.yul\":11146:11150   */\n      dup6\n        /* \"#utility.yul\":11131:11144   */\n      dup3\n        /* \"#utility.yul\":11045:11151   */\n      tag_410\n      jump\t// in\n    tag_580:\n        /* \"#utility.yul\":11037:11151   */\n      swap5\n      pop\n        /* \"#utility.yul\":11174:11255   */\n      tag_581\n        /* \"#utility.yul\":11248:11254   */\n      dup4\n        /* \"#utility.yul\":11174:11255   */\n      tag_411\n      jump\t// in\n    tag_581:\n        /* \"#utility.yul\":11164:11255   */\n      swap3\n      pop\n        /* \"#utility.yul\":11284:11288   */\n      0x20\n        /* \"#utility.yul\":11279:11282   */\n      dup11\n        /* \"#utility.yul\":11275:11289   */\n      add\n        /* \"#utility.yul\":11268:11289   */\n      swap10\n      pop\n        /* \"#utility.yul\":10930:11299   */\n      pop\n        /* \"#utility.yul\":10917:10918   */\n      0x01\n        /* \"#utility.yul\":10914:10915   */\n      dup2\n        /* \"#utility.yul\":10910:10919   */\n      add\n        /* \"#utility.yul\":10905:10919   */\n      swap1\n      pop\n        /* \"#utility.yul\":10870:11299   */\n      jump(tag_577)\n    tag_579:\n        /* \"#utility.yul\":10874:10888   */\n      pop\n        /* \"#utility.yul\":11315:11319   */\n      dup3\n        /* \"#utility.yul\":11308:11319   */\n      swap8\n      pop\n        /* \"#utility.yul\":11335:11338   */\n      dup8\n        /* \"#utility.yul\":11328:11338   */\n      swap6\n      pop\n        /* \"#utility.yul\":10431:11344   */\n      pop\n      pop\n      pop\n      pop\n      pop\n        /* \"#utility.yul\":10265:11344   */\n      swap3\n      swap2\n      pop\n      pop\n      jump\t// out\n        /* \"#utility.yul\":11350:11807   */\n    tag_58:\n        /* \"#utility.yul\":11535:11539   */\n      0x00\n        /* \"#utility.yul\":11573:11575   */\n      0x20\n        /* \"#utility.yul\":11562:11571   */\n      dup3\n        /* \"#utility.yul\":11558:11576   */\n      add\n        /* \"#utility.yul\":11550:11576   */\n      swap1\n      pop\n        /* \"#utility.yul\":11622:11631   */\n      dup2\n        /* \"#utility.yul\":11616:11620   */\n      dup2\n        /* \"#utility.yul\":11612:11632   */\n      sub\n        /* \"#utility.yul\":11608:11609   */\n      0x00\n        /* \"#utility.yul\":11597:11606   */\n      dup4\n        /* \"#utility.yul\":11593:11610   */\n      add\n        /* \"#utility.yul\":11586:11633   */\n      mstore\n        /* \"#utility.yul\":11650:11800   */\n      tag_583\n        /* \"#utility.yul\":11795:11799   */\n      dup2\n        /* \"#utility.yul\":11786:11792   */\n      dup5\n        /* \"#utility.yul\":11650:11800   */\n      tag_412\n      jump\t// in\n    tag_583:\n        /* \"#utility.yul\":11642:11800   */\n      swap1\n      pop\n        /* \"#utility.yul\":11350:11807   */\n      swap3\n      swap2\n      pop\n      pop\n      jump\t// out\n        /* \"#utility.yul\":11813:12346   */\n    tag_66:\n        /* \"#utility.yul\":11982:11986   */\n      0x00\n        /* \"#utility.yul\":12020:12022   */\n      0x60\n        /* \"#utility.yul\":12009:12018   */\n      dup3\n        /* \"#utility.yul\":12005:12023   */\n      add\n        /* \"#utility.yul\":11997:12023   */\n      swap1\n      pop\n        /* \"#utility.yul\":12069:12078   */\n      dup2\n        /* \"#utility.yul\":12063:12067   */\n      dup2\n        /* \"#utility.yul\":12059:12079   */\n      sub\n        /* \"#utility.yul\":12055:12056   */\n      0x00\n        /* \"#utility.yul\":12044:12053   */\n      dup4\n        /* \"#utility.yul\":12040:12057   */\n      add\n        /* \"#utility.yul\":12033:12080   */\n      mstore\n        /* \"#utility.yul\":12097:12175   */\n      tag_585\n        /* \"#utility.yul\":12170:12174   */\n      dup2\n        /* \"#utility.yul\":12161:12167   */\n      dup7\n        /* \"#utility.yul\":12097:12175   */\n      tag_395\n      jump\t// in\n    tag_585:\n        /* \"#utility.yul\":12089:12175   */\n      swap1\n      pop\n        /* \"#utility.yul\":12185:12257   */\n      tag_586\n        /* \"#utility.yul\":12253:12255   */\n      0x20\n        /* \"#utility.yul\":12242:12251   */\n      dup4\n        /* \"#utility.yul\":12238:12256   */\n      add\n        /* \"#utility.yul\":12229:12235   */\n      dup6\n        /* \"#utility.yul\":12185:12257   */\n      tag_391\n      jump\t// in\n    tag_586:\n        /* \"#utility.yul\":12267:12339   */\n      tag_587\n        /* \"#utility.yul\":12335:12337   */\n      0x40\n        /* \"#utility.yul\":12324:12333   */\n      dup4\n        /* \"#utility.yul\":12320:12338   */\n      add\n        /* \"#utility.yul\":12311:12317   */\n      dup5\n        /* \"#utility.yul\":12267:12339   */\n      tag_391\n      jump\t// in\n    tag_587:\n        /* \"#utility.yul\":11813:12346   */\n      swap5\n      swap4\n      pop\n      pop\n      pop\n      pop\n      jump\t// out\n        /* \"#utility.yul\":12352:12474   */\n    tag_413:\n        /* \"#utility.yul\":12425:12449   */\n      tag_589\n        /* \"#utility.yul\":12443:12448   */\n      dup2\n        /* \"#utility.yul\":12425:12449   */\n      tag_402\n      jump\t// in\n    tag_589:\n        /* \"#utility.yul\":12418:12423   */\n      dup2\n        /* \"#utility.yul\":12415:12450   */\n      eq\n        /* \"#utility.yul\":12405:12468   */\n      tag_590\n      jumpi\n        /* \"#utility.yul\":12464:12465   */\n      0x00\n        /* \"#utility.yul\":12461:12462   */\n      dup1\n        /* \"#utility.yul\":12454:12466   */\n      revert\n        /* \"#utility.yul\":12405:12468   */\n    tag_590:\n        /* \"#utility.yul\":12352:12474   */\n      pop\n      jump\t// out\n        /* \"#utility.yul\":12480:12619   */\n    tag_414:\n        /* \"#utility.yul\":12526:12531   */\n      0x00\n        /* \"#utility.yul\":12564:12570   */\n      dup2\n        /* \"#utility.yul\":12551:12571   */\n      calldataload\n        /* \"#utility.yul\":12542:12571   */\n      swap1\n      pop\n        /* \"#utility.yul\":12580:12613   */\n      tag_592\n        /* \"#utility.yul\":12607:12612   */\n      dup2\n        /* \"#utility.yul\":12580:12613   */\n      tag_413\n      jump\t// in\n    tag_592:\n        /* \"#utility.yul\":12480:12619   */\n      swap3\n      swap2\n      pop\n      pop\n      jump\t// out\n        /* \"#utility.yul\":12625:12954   */\n    tag_69:\n        /* \"#utility.yul\":12684:12690   */\n      0x00\n        /* \"#utility.yul\":12733:12735   */\n      0x20\n        /* \"#utility.yul\":12721:12730   */\n      dup3\n        /* \"#utility.yul\":12712:12719   */\n      dup5\n        /* \"#utility.yul\":12708:12731   */\n      sub\n        /* \"#utility.yul\":12704:12736   */\n      slt\n        /* \"#utility.yul\":12701:12820   */\n      iszero\n      tag_594\n      jumpi\n        /* \"#utility.yul\":12739:12818   */\n      tag_595\n      tag_377\n      jump\t// in\n    tag_595:\n        /* \"#utility.yul\":12701:12820   */\n    tag_594:\n        /* \"#utility.yul\":12859:12860   */\n      0x00\n        /* \"#utility.yul\":12884:12937   */\n      tag_596\n        /* \"#utility.yul\":12929:12936   */\n      dup5\n        /* \"#utility.yul\":12920:12926   */\n      dup3\n        /* \"#utility.yul\":12909:12918   */\n      dup6\n        /* \"#utility.yul\":12905:12927   */\n      add\n        /* \"#utility.yul\":12884:12937   */\n      tag_414\n      jump\t// in\n    tag_596:\n        /* \"#utility.yul\":12874:12937   */\n      swap2\n      pop\n        /* \"#utility.yul\":12830:12947   */\n      pop\n        /* \"#utility.yul\":12625:12954   */\n      swap3\n      swap2\n      pop\n      pop\n      jump\t// out\n        /* \"#utility.yul\":12960:13078   */\n    tag_415:\n        /* \"#utility.yul\":13047:13071   */\n      tag_598\n        /* \"#utility.yul\":13065:13070   */\n      dup2\n        /* \"#utility.yul\":13047:13071   */\n      tag_402\n      jump\t// in\n    tag_598:\n        /* \"#utility.yul\":13042:13045   */\n      dup3\n        /* \"#utility.yul\":13035:13072   */\n      mstore\n        /* \"#utility.yul\":12960:13078   */\n      pop\n      pop\n      jump\t// out\n        /* \"#utility.yul\":13084:13193   */\n    tag_416:\n        /* \"#utility.yul\":13165:13186   */\n      tag_600\n        /* \"#utility.yul\":13180:13185   */\n      dup2\n        /* \"#utility.yul\":13165:13186   */\n      tag_404\n      jump\t// in\n    tag_600:\n        /* \"#utility.yul\":13160:13163   */\n      dup3\n        /* \"#utility.yul\":13153:13187   */\n      mstore\n        /* \"#utility.yul\":13084:13193   */\n      pop\n      pop\n      jump\t// out\n        /* \"#utility.yul\":13199:13314   */\n    tag_417:\n        /* \"#utility.yul\":13284:13307   */\n      tag_602\n        /* \"#utility.yul\":13301:13306   */\n      dup2\n        /* \"#utility.yul\":13284:13307   */\n      tag_407\n      jump\t// in\n    tag_602:\n        /* \"#utility.yul\":13279:13282   */\n      dup3\n        /* \"#utility.yul\":13272:13308   */\n      mstore\n        /* \"#utility.yul\":13199:13314   */\n      pop\n      pop\n      jump\t// out\n        /* \"#utility.yul\":13320:14059   */\n    tag_72:\n        /* \"#utility.yul\":13537:13541   */\n      0x00\n        /* \"#utility.yul\":13575:13578   */\n      0xa0\n        /* \"#utility.yul\":13564:13573   */\n      dup3\n        /* \"#utility.yul\":13560:13579   */\n      add\n        /* \"#utility.yul\":13552:13579   */\n      swap1\n      pop\n        /* \"#utility.yul\":13625:13634   */\n      dup2\n        /* \"#utility.yul\":13619:13623   */\n      dup2\n        /* \"#utility.yul\":13615:13635   */\n      sub\n        /* \"#utility.yul\":13611:13612   */\n      0x00\n        /* \"#utility.yul\":13600:13609   */\n      dup4\n        /* \"#utility.yul\":13596:13613   */\n      add\n        /* \"#utility.yul\":13589:13636   */\n      mstore\n        /* \"#utility.yul\":13653:13731   */\n      tag_604\n        /* \"#utility.yul\":13726:13730   */\n      dup2\n        /* \"#utility.yul\":13717:13723   */\n      dup9\n        /* \"#utility.yul\":13653:13731   */\n      tag_395\n      jump\t// in\n    tag_604:\n        /* \"#utility.yul\":13645:13731   */\n      swap1\n      pop\n        /* \"#utility.yul\":13741:13813   */\n      tag_605\n        /* \"#utility.yul\":13809:13811   */\n      0x20\n        /* \"#utility.yul\":13798:13807   */\n      dup4\n        /* \"#utility.yul\":13794:13812   */\n      add\n        /* \"#utility.yul\":13785:13791   */\n      dup8\n        /* \"#utility.yul\":13741:13813   */\n      tag_415\n      jump\t// in\n    tag_605:\n        /* \"#utility.yul\":13823:13889   */\n      tag_606\n        /* \"#utility.yul\":13885:13887   */\n      0x40\n        /* \"#utility.yul\":13874:13883   */\n      dup4\n        /* \"#utility.yul\":13870:13888   */\n      add\n        /* \"#utility.yul\":13861:13867   */\n      dup7\n        /* \"#utility.yul\":13823:13889   */\n      tag_416\n      jump\t// in\n    tag_606:\n        /* \"#utility.yul\":13899:13971   */\n      tag_607\n        /* \"#utility.yul\":13967:13969   */\n      0x60\n        /* \"#utility.yul\":13956:13965   */\n      dup4\n        /* \"#utility.yul\":13952:13970   */\n      add\n        /* \"#utility.yul\":13943:13949   */\n      dup6\n        /* \"#utility.yul\":13899:13971   */\n      tag_391\n      jump\t// in\n    tag_607:\n        /* \"#utility.yul\":13981:14052   */\n      tag_608\n        /* \"#utility.yul\":14047:14050   */\n      0x80\n        /* \"#utility.yul\":14036:14045   */\n      dup4\n        /* \"#utility.yul\":14032:14051   */\n      add\n        /* \"#utility.yul\":14023:14029   */\n      dup5\n        /* \"#utility.yul\":13981:14052   */\n      tag_417\n      jump\t// in\n    tag_608:\n        /* \"#utility.yul\":13320:14059   */\n      swap7\n      swap6\n      pop\n      pop\n      pop\n      pop\n      pop\n      pop\n      jump\t// out\n        /* \"#utility.yul\":14065:14275   */\n    tag_79:\n        /* \"#utility.yul\":14152:14156   */\n      0x00\n        /* \"#utility.yul\":14190:14192   */\n      0x20\n        /* \"#utility.yul\":14179:14188   */\n      dup3\n        /* \"#utility.yul\":14175:14193   */\n      add\n        /* \"#utility.yul\":14167:14193   */\n      swap1\n      pop\n        /* \"#utility.yul\":14203:14268   */\n      tag_610\n        /* \"#utility.yul\":14265:14266   */\n      0x00\n        /* \"#utility.yul\":14254:14263   */\n      dup4\n        /* \"#utility.yul\":14250:14267   */\n      add\n        /* \"#utility.yul\":14241:14247   */\n      dup5\n        /* \"#utility.yul\":14203:14268   */\n      tag_416\n      jump\t// in\n    tag_610:\n        /* \"#utility.yul\":14065:14275   */\n      swap3\n      swap2\n      pop\n      pop\n      jump\t// out\n        /* \"#utility.yul\":14281:14420   */\n    tag_418:\n        /* \"#utility.yul\":14373:14379   */\n      0x00\n        /* \"#utility.yul\":14407:14412   */\n      dup2\n        /* \"#utility.yul\":14401:14413   */\n      mload\n        /* \"#utility.yul\":14391:14413   */\n      swap1\n      pop\n        /* \"#utility.yul\":14281:14420   */\n      swap2\n      swap1\n      pop\n      jump\t// out\n        /* \"#utility.yul\":14426:14635   */\n    tag_419:\n        /* \"#utility.yul\":14550:14561   */\n      0x00\n        /* \"#utility.yul\":14584:14590   */\n      dup3\n        /* \"#utility.yul\":14579:14582   */\n      dup3\n        /* \"#utility.yul\":14572:14591   */\n      mstore\n        /* \"#utility.yul\":14624:14628   */\n      0x20\n        /* \"#utility.yul\":14619:14622   */\n      dup3\n        /* \"#utility.yul\":14615:14629   */\n      add\n        /* \"#utility.yul\":14600:14629   */\n      swap1\n      pop\n        /* \"#utility.yul\":14426:14635   */\n      swap3\n      swap2\n      pop\n      pop\n      jump\t// out\n        /* \"#utility.yul\":14641:14798   */\n    tag_420:\n        /* \"#utility.yul\":14733:14737   */\n      0x00\n        /* \"#utility.yul\":14756:14759   */\n      dup2\n        /* \"#utility.yul\":14748:14759   */\n      swap1\n      pop\n        /* \"#utility.yul\":14786:14790   */\n      0x20\n        /* \"#utility.yul\":14781:14784   */\n      dup3\n        /* \"#utility.yul\":14777:14791   */\n      add\n        /* \"#utility.yul\":14769:14791   */\n      swap1\n      pop\n        /* \"#utility.yul\":14641:14798   */\n      swap2\n      swap1\n      pop\n      jump\t// out\n        /* \"#utility.yul\":14878:15903   */\n    tag_421:\n        /* \"#utility.yul\":14987:14990   */\n      0x00\n        /* \"#utility.yul\":15023:15027   */\n      0x80\n        /* \"#utility.yul\":15018:15021   */\n      dup4\n        /* \"#utility.yul\":15014:15028   */\n      add\n        /* \"#utility.yul\":15111:15115   */\n      0x00\n        /* \"#utility.yul\":15104:15109   */\n      dup4\n        /* \"#utility.yul\":15100:15116   */\n      add\n        /* \"#utility.yul\":15094:15117   */\n      mload\n        /* \"#utility.yul\":15164:15167   */\n      dup5\n        /* \"#utility.yul\":15158:15162   */\n      dup3\n        /* \"#utility.yul\":15154:15168   */\n      sub\n        /* \"#utility.yul\":15147:15151   */\n      0x00\n        /* \"#utility.yul\":15142:15145   */\n      dup7\n        /* \"#utility.yul\":15138:15152   */\n      add\n        /* \"#utility.yul\":15131:15169   */\n      mstore\n        /* \"#utility.yul\":15190:15263   */\n      tag_615\n        /* \"#utility.yul\":15258:15262   */\n      dup3\n        /* \"#utility.yul\":15244:15256   */\n      dup3\n        /* \"#utility.yul\":15190:15263   */\n      tag_400\n      jump\t// in\n    tag_615:\n        /* \"#utility.yul\":15182:15263   */\n      swap2\n      pop\n        /* \"#utility.yul\":15038:15274   */\n      pop\n        /* \"#utility.yul\":15360:15364   */\n      0x20\n        /* \"#utility.yul\":15353:15358   */\n      dup4\n        /* \"#utility.yul\":15349:15365   */\n      add\n        /* \"#utility.yul\":15343:15366   */\n      mload\n        /* \"#utility.yul\":15413:15416   */\n      dup5\n        /* \"#utility.yul\":15407:15411   */\n      dup3\n        /* \"#utility.yul\":15403:15417   */\n      sub\n        /* \"#utility.yul\":15396:15400   */\n      0x20\n        /* \"#utility.yul\":15391:15394   */\n      dup7\n        /* \"#utility.yul\":15387:15401   */\n      add\n        /* \"#utility.yul\":15380:15418   */\n      mstore\n        /* \"#utility.yul\":15439:15512   */\n      tag_616\n        /* \"#utility.yul\":15507:15511   */\n      dup3\n        /* \"#utility.yul\":15493:15505   */\n      dup3\n        /* \"#utility.yul\":15439:15512   */\n      tag_400\n      jump\t// in\n    tag_616:\n        /* \"#utility.yul\":15431:15512   */\n      swap2\n      pop\n        /* \"#utility.yul\":15284:15523   */\n      pop\n        /* \"#utility.yul\":15610:15614   */\n      0x40\n        /* \"#utility.yul\":15603:15608   */\n      dup4\n        /* \"#utility.yul\":15599:15615   */\n      add\n        /* \"#utility.yul\":15593:15616   */\n      mload\n        /* \"#utility.yul\":15629:15692   */\n      tag_617\n        /* \"#utility.yul\":15686:15690   */\n      0x40\n        /* \"#utility.yul\":15681:15684   */\n      dup7\n        /* \"#utility.yul\":15677:15691   */\n      add\n        /* \"#utility.yul\":15663:15675   */\n      dup3\n        /* \"#utility.yul\":15629:15692   */\n      tag_406\n      jump\t// in\n    tag_617:\n        /* \"#utility.yul\":15533:15702   */\n      pop\n        /* \"#utility.yul\":15784:15788   */\n      0x60\n        /* \"#utility.yul\":15777:15782   */\n      dup4\n        /* \"#utility.yul\":15773:15789   */\n      add\n        /* \"#utility.yul\":15767:15790   */\n      mload\n        /* \"#utility.yul\":15803:15866   */\n      tag_618\n        /* \"#utility.yul\":15860:15864   */\n      0x60\n        /* \"#utility.yul\":15855:15858   */\n      dup7\n        /* \"#utility.yul\":15851:15865   */\n      add\n        /* \"#utility.yul\":15837:15849   */\n      dup3\n        /* \"#utility.yul\":15803:15866   */\n      tag_406\n      jump\t// in\n    tag_618:\n        /* \"#utility.yul\":15712:15876   */\n      pop\n        /* \"#utility.yul\":15893:15897   */\n      dup1\n        /* \"#utility.yul\":15886:15897   */\n      swap2\n      pop\n        /* \"#utility.yul\":14992:15903   */\n      pop\n        /* \"#utility.yul\":14878:15903   */\n      swap3\n      swap2\n      pop\n      pop\n      jump\t// out\n        /* \"#utility.yul\":15909:16165   */\n    tag_422:\n        /* \"#utility.yul\":16028:16038   */\n      0x00\n        /* \"#utility.yul\":16063:16159   */\n      tag_620\n        /* \"#utility.yul\":16155:16158   */\n      dup4\n        /* \"#utility.yul\":16147:16153   */\n      dup4\n        /* \"#utility.yul\":16063:16159   */\n      tag_421\n      jump\t// in\n    tag_620:\n        /* \"#utility.yul\":16049:16159   */\n      swap1\n      pop\n        /* \"#utility.yul\":15909:16165   */\n      swap3\n      swap2\n      pop\n      pop\n      jump\t// out\n        /* \"#utility.yul\":16171:16309   */\n    tag_423:\n        /* \"#utility.yul\":16266:16270   */\n      0x00\n        /* \"#utility.yul\":16298:16302   */\n      0x20\n        /* \"#utility.yul\":16293:16296   */\n      dup3\n        /* \"#utility.yul\":16289:16303   */\n      add\n        /* \"#utility.yul\":16281:16303   */\n      swap1\n      pop\n        /* \"#utility.yul\":16171:16309   */\n      swap2\n      swap1\n      pop\n      jump\t// out\n        /* \"#utility.yul\":16393:17504   */\n    tag_424:\n        /* \"#utility.yul\":16562:16565   */\n      0x00\n        /* \"#utility.yul\":16591:16670   */\n      tag_623\n        /* \"#utility.yul\":16664:16669   */\n      dup3\n        /* \"#utility.yul\":16591:16670   */\n      tag_418\n      jump\t// in\n    tag_623:\n        /* \"#utility.yul\":16686:16797   */\n      tag_624\n        /* \"#utility.yul\":16790:16796   */\n      dup2\n        /* \"#utility.yul\":16785:16788   */\n      dup6\n        /* \"#utility.yul\":16686:16797   */\n      tag_419\n      jump\t// in\n    tag_624:\n        /* \"#utility.yul\":16679:16797   */\n      swap4\n      pop\n        /* \"#utility.yul\":16823:16826   */\n      dup4\n        /* \"#utility.yul\":16868:16872   */\n      0x20\n        /* \"#utility.yul\":16860:16866   */\n      dup3\n        /* \"#utility.yul\":16856:16873   */\n      mul\n        /* \"#utility.yul\":16851:16854   */\n      dup6\n        /* \"#utility.yul\":16847:16874   */\n      add\n        /* \"#utility.yul\":16898:16979   */\n      tag_625\n        /* \"#utility.yul\":16973:16978   */\n      dup6\n        /* \"#utility.yul\":16898:16979   */\n      tag_420\n      jump\t// in\n    tag_625:\n        /* \"#utility.yul\":17002:17009   */\n      dup1\n        /* \"#utility.yul\":17033:17034   */\n      0x00\n        /* \"#utility.yul\":17018:17459   */\n    tag_626:\n        /* \"#utility.yul\":17043:17049   */\n      dup6\n        /* \"#utility.yul\":17040:17041   */\n      dup2\n        /* \"#utility.yul\":17037:17050   */\n      lt\n        /* \"#utility.yul\":17018:17459   */\n      iszero\n      tag_628\n      jumpi\n        /* \"#utility.yul\":17114:17123   */\n      dup5\n        /* \"#utility.yul\":17108:17112   */\n      dup5\n        /* \"#utility.yul\":17104:17124   */\n      sub\n        /* \"#utility.yul\":17099:17102   */\n      dup10\n        /* \"#utility.yul\":17092:17125   */\n      mstore\n        /* \"#utility.yul\":17165:17171   */\n      dup2\n        /* \"#utility.yul\":17159:17172   */\n      mload\n        /* \"#utility.yul\":17193:17307   */\n      tag_629\n        /* \"#utility.yul\":17302:17306   */\n      dup6\n        /* \"#utility.yul\":17287:17300   */\n      dup3\n        /* \"#utility.yul\":17193:17307   */\n      tag_422\n      jump\t// in\n    tag_629:\n        /* \"#utility.yul\":17185:17307   */\n      swap5\n      pop\n        /* \"#utility.yul\":17330:17415   */\n      tag_630\n        /* \"#utility.yul\":17408:17414   */\n      dup4\n        /* \"#utility.yul\":17330:17415   */\n      tag_423\n      jump\t// in\n    tag_630:\n        /* \"#utility.yul\":17320:17415   */\n      swap3\n      pop\n        /* \"#utility.yul\":17444:17448   */\n      0x20\n        /* \"#utility.yul\":17439:17442   */\n      dup11\n        /* \"#utility.yul\":17435:17449   */\n      add\n        /* \"#utility.yul\":17428:17449   */\n      swap10\n      pop\n        /* \"#utility.yul\":17078:17459   */\n      pop\n        /* \"#utility.yul\":17065:17066   */\n      0x01\n        /* \"#utility.yul\":17062:17063   */\n      dup2\n        /* \"#utility.yul\":17058:17067   */\n      add\n        /* \"#utility.yul\":17053:17067   */\n      swap1\n      pop\n        /* \"#utility.yul\":17018:17459   */\n      jump(tag_626)\n    tag_628:\n        /* \"#utility.yul\":17022:17036   */\n      pop\n        /* \"#utility.yul\":17475:17479   */\n      dup3\n        /* \"#utility.yul\":17468:17479   */\n      swap8\n      pop\n        /* \"#utility.yul\":17495:17498   */\n      dup8\n        /* \"#utility.yul\":17488:17498   */\n      swap6\n      pop\n        /* \"#utility.yul\":16567:17504   */\n      pop\n      pop\n      pop\n      pop\n      pop\n        /* \"#utility.yul\":16393:17504   */\n      swap3\n      swap2\n      pop\n      pop\n      jump\t// out\n        /* \"#utility.yul\":17510:17983   */\n    tag_83:\n        /* \"#utility.yul\":17703:17707   */\n      0x00\n        /* \"#utility.yul\":17741:17743   */\n      0x20\n        /* \"#utility.yul\":17730:17739   */\n      dup3\n        /* \"#utility.yul\":17726:17744   */\n      add\n        /* \"#utility.yul\":17718:17744   */\n      swap1\n      pop\n        /* \"#utility.yul\":17790:17799   */\n      dup2\n        /* \"#utility.yul\":17784:17788   */\n      dup2\n        /* \"#utility.yul\":17780:17800   */\n      sub\n        /* \"#utility.yul\":17776:17777   */\n      0x00\n        /* \"#utility.yul\":17765:17774   */\n      dup4\n        /* \"#utility.yul\":17761:17778   */\n      add\n        /* \"#utility.yul\":17754:17801   */\n      mstore\n        /* \"#utility.yul\":17818:17976   */\n      tag_632\n        /* \"#utility.yul\":17971:17975   */\n      dup2\n        /* \"#utility.yul\":17962:17968   */\n      dup5\n        /* \"#utility.yul\":17818:17976   */\n      tag_424\n      jump\t// in\n    tag_632:\n        /* \"#utility.yul\":17810:17976   */\n      swap1\n      pop\n        /* \"#utility.yul\":17510:17983   */\n      swap3\n      swap2\n      pop\n      pop\n      jump\t// out\n        /* \"#utility.yul\":17989:18510   */\n    tag_91:\n        /* \"#utility.yul\":18152:18156   */\n      0x00\n        /* \"#utility.yul\":18190:18192   */\n      0x60\n        /* \"#utility.yul\":18179:18188   */\n      dup3\n        /* \"#utility.yul\":18175:18193   */\n      add\n        /* \"#utility.yul\":18167:18193   */\n      swap1\n      pop\n        /* \"#utility.yul\":18239:18248   */\n      dup2\n        /* \"#utility.yul\":18233:18237   */\n      dup2\n        /* \"#utility.yul\":18229:18249   */\n      sub\n        /* \"#utility.yul\":18225:18226   */\n      0x00\n        /* \"#utility.yul\":18214:18223   */\n      dup4\n        /* \"#utility.yul\":18210:18227   */\n      add\n        /* \"#utility.yul\":18203:18250   */\n      mstore\n        /* \"#utility.yul\":18267:18345   */\n      tag_634\n        /* \"#utility.yul\":18340:18344   */\n      dup2\n        /* \"#utility.yul\":18331:18337   */\n      dup7\n        /* \"#utility.yul\":18267:18345   */\n      tag_395\n      jump\t// in\n    tag_634:\n        /* \"#utility.yul\":18259:18345   */\n      swap1\n      pop\n        /* \"#utility.yul\":18355:18427   */\n      tag_635\n        /* \"#utility.yul\":18423:18425   */\n      0x20\n        /* \"#utility.yul\":18412:18421   */\n      dup4\n        /* \"#utility.yul\":18408:18426   */\n      add\n        /* \"#utility.yul\":18399:18405   */\n      dup6\n        /* \"#utility.yul\":18355:18427   */\n      tag_391\n      jump\t// in\n    tag_635:\n        /* \"#utility.yul\":18437:18503   */\n      tag_636\n        /* \"#utility.yul\":18499:18501   */\n      0x40\n        /* \"#utility.yul\":18488:18497   */\n      dup4\n        /* \"#utility.yul\":18484:18502   */\n      add\n        /* \"#utility.yul\":18475:18481   */\n      dup5\n        /* \"#utility.yul\":18437:18503   */\n      tag_416\n      jump\t// in\n    tag_636:\n        /* \"#utility.yul\":17989:18510   */\n      swap5\n      swap4\n      pop\n      pop\n      pop\n      pop\n      jump\t// out\n        /* \"#utility.yul\":18516:19170   */\n    tag_94:\n        /* \"#utility.yul\":18594:18600   */\n      0x00\n        /* \"#utility.yul\":18602:18608   */\n      dup1\n        /* \"#utility.yul\":18651:18653   */\n      0x40\n        /* \"#utility.yul\":18639:18648   */\n      dup4\n        /* \"#utility.yul\":18630:18637   */\n      dup6\n        /* \"#utility.yul\":18626:18649   */\n      sub\n        /* \"#utility.yul\":18622:18654   */\n      slt\n        /* \"#utility.yul\":18619:18738   */\n      iszero\n      tag_638\n      jumpi\n        /* \"#utility.yul\":18657:18736   */\n      tag_639\n      tag_377\n      jump\t// in\n    tag_639:\n        /* \"#utility.yul\":18619:18738   */\n    tag_638:\n        /* \"#utility.yul\":18777:18778   */\n      0x00\n        /* \"#utility.yul\":18802:18855   */\n      tag_640\n        /* \"#utility.yul\":18847:18854   */\n      dup6\n        /* \"#utility.yul\":18838:18844   */\n      dup3\n        /* \"#utility.yul\":18827:18836   */\n      dup7\n        /* \"#utility.yul\":18823:18845   */\n      add\n        /* \"#utility.yul\":18802:18855   */\n      tag_414\n      jump\t// in\n    tag_640:\n        /* \"#utility.yul\":18792:18855   */\n      swap3\n      pop\n        /* \"#utility.yul\":18748:18865   */\n      pop\n        /* \"#utility.yul\":18932:18934   */\n      0x20\n        /* \"#utility.yul\":18921:18930   */\n      dup4\n        /* \"#utility.yul\":18917:18935   */\n      add\n        /* \"#utility.yul\":18904:18936   */\n      calldataload\n        /* \"#utility.yul\":18963:18981   */\n      0xffffffffffffffff\n        /* \"#utility.yul\":18955:18961   */\n      dup2\n        /* \"#utility.yul\":18952:18982   */\n      gt\n        /* \"#utility.yul\":18949:19066   */\n      iszero\n      tag_641\n      jumpi\n        /* \"#utility.yul\":18985:19064   */\n      tag_642\n      tag_378\n      jump\t// in\n    tag_642:\n        /* \"#utility.yul\":18949:19066   */\n    tag_641:\n        /* \"#utility.yul\":19090:19153   */\n      tag_643\n        /* \"#utility.yul\":19145:19152   */\n      dup6\n        /* \"#utility.yul\":19136:19142   */\n      dup3\n        /* \"#utility.yul\":19125:19134   */\n      dup7\n        /* \"#utility.yul\":19121:19143   */\n      add\n        /* \"#utility.yul\":19090:19153   */\n      tag_387\n      jump\t// in\n    tag_643:\n        /* \"#utility.yul\":19080:19153   */\n      swap2\n      pop\n        /* \"#utility.yul\":18875:19163   */\n      pop\n        /* \"#utility.yul\":18516:19170   */\n      swap3\n      pop\n      swap3\n      swap1\n      pop\n      jump\t// out\n        /* \"#utility.yul\":19176:19398   */\n    tag_100:\n        /* \"#utility.yul\":19269:19273   */\n      0x00\n        /* \"#utility.yul\":19307:19309   */\n      0x20\n        /* \"#utility.yul\":19296:19305   */\n      dup3\n        /* \"#utility.yul\":19292:19310   */\n      add\n        /* \"#utility.yul\":19284:19310   */\n      swap1\n      pop\n        /* \"#utility.yul\":19320:19391   */\n      tag_645\n        /* \"#utility.yul\":19388:19389   */\n      0x00\n        /* \"#utility.yul\":19377:19386   */\n      dup4\n        /* \"#utility.yul\":19373:19390   */\n      add\n        /* \"#utility.yul\":19364:19370   */\n      dup5\n        /* \"#utility.yul\":19320:19391   */\n      tag_415\n      jump\t// in\n    tag_645:\n        /* \"#utility.yul\":19176:19398   */\n      swap3\n      swap2\n      pop\n      pop\n      jump\t// out\n        /* \"#utility.yul\":19404:19629   */\n    tag_425:\n        /* \"#utility.yul\":19544:19578   */\n      0x4f6e6c79207468652061646d696e2063616e20706572666f726d207468697320\n        /* \"#utility.yul\":19540:19541   */\n      0x00\n        /* \"#utility.yul\":19532:19538   */\n      dup3\n        /* \"#utility.yul\":19528:19542   */\n      add\n        /* \"#utility.yul\":19521:19579   */\n      mstore\n        /* \"#utility.yul\":19613:19621   */\n      0x616374696f6e0000000000000000000000000000000000000000000000000000\n        /* \"#utility.yul\":19608:19610   */\n      0x20\n        /* \"#utility.yul\":19600:19606   */\n      dup3\n        /* \"#utility.yul\":19596:19611   */\n      add\n        /* \"#utility.yul\":19589:19622   */\n      mstore\n        /* \"#utility.yul\":19404:19629   */\n      pop\n      jump\t// out\n        /* \"#utility.yul\":19635:20001   */\n    tag_426:\n        /* \"#utility.yul\":19777:19780   */\n      0x00\n        /* \"#utility.yul\":19798:19865   */\n      tag_648\n        /* \"#utility.yul\":19862:19864   */\n      0x26\n        /* \"#utility.yul\":19857:19860   */\n      dup4\n        /* \"#utility.yul\":19798:19865   */\n      tag_393\n      jump\t// in\n    tag_648:\n        /* \"#utility.yul\":19791:19865   */\n      swap2\n      pop\n        /* \"#utility.yul\":19874:19967   */\n      tag_649\n        /* \"#utility.yul\":19963:19966   */\n      dup3\n        /* \"#utility.yul\":19874:19967   */\n      tag_425\n      jump\t// in\n    tag_649:\n        /* \"#utility.yul\":19992:19994   */\n      0x40\n        /* \"#utility.yul\":19987:19990   */\n      dup3\n        /* \"#utility.yul\":19983:19995   */\n      add\n        /* \"#utility.yul\":19976:19995   */\n      swap1\n      pop\n        /* \"#utility.yul\":19635:20001   */\n      swap2\n      swap1\n      pop\n      jump\t// out\n        /* \"#utility.yul\":20007:20426   */\n    tag_107:\n        /* \"#utility.yul\":20173:20177   */\n      0x00\n        /* \"#utility.yul\":20211:20213   */\n      0x20\n        /* \"#utility.yul\":20200:20209   */\n      dup3\n        /* \"#utility.yul\":20196:20214   */\n      add\n        /* \"#utility.yul\":20188:20214   */\n      swap1\n      pop\n        /* \"#utility.yul\":20260:20269   */\n      dup2\n        /* \"#utility.yul\":20254:20258   */\n      dup2\n        /* \"#utility.yul\":20250:20270   */\n      sub\n        /* \"#utility.yul\":20246:20247   */\n      0x00\n        /* \"#utility.yul\":20235:20244   */\n      dup4\n        /* \"#utility.yul\":20231:20248   */\n      add\n        /* \"#utility.yul\":20224:20271   */\n      mstore\n        /* \"#utility.yul\":20288:20419   */\n      tag_651\n        /* \"#utility.yul\":20414:20418   */\n      dup2\n        /* \"#utility.yul\":20288:20419   */\n      tag_426\n      jump\t// in\n    tag_651:\n        /* \"#utility.yul\":20280:20419   */\n      swap1\n      pop\n        /* \"#utility.yul\":20007:20426   */\n      swap2\n      swap1\n      pop\n      jump\t// out\n        /* \"#utility.yul\":20432:20610   */\n    tag_427:\n        /* \"#utility.yul\":20572:20602   */\n      0x456c656374696f6e2068617320616c7265616479207374617274656400000000\n        /* \"#utility.yul\":20568:20569   */\n      0x00\n        /* \"#utility.yul\":20560:20566   */\n      dup3\n        /* \"#utility.yul\":20556:20570   */\n      add\n        /* \"#utility.yul\":20549:20603   */\n      mstore\n        /* \"#utility.yul\":20432:20610   */\n      pop\n      jump\t// out\n        /* \"#utility.yul\":20616:20982   */\n    tag_428:\n        /* \"#utility.yul\":20758:20761   */\n      0x00\n        /* \"#utility.yul\":20779:20846   */\n      tag_654\n        /* \"#utility.yul\":20843:20845   */\n      0x1c\n        /* \"#utility.yul\":20838:20841   */\n      dup4\n        /* \"#utility.yul\":20779:20846   */\n      tag_393\n      jump\t// in\n    tag_654:\n        /* \"#utility.yul\":20772:20846   */\n      swap2\n      pop\n        /* \"#utility.yul\":20855:20948   */\n      tag_655\n        /* \"#utility.yul\":20944:20947   */\n      dup3\n        /* \"#utility.yul\":20855:20948   */\n      tag_427\n      jump\t// in\n    tag_655:\n        /* \"#utility.yul\":20973:20975   */\n      0x20\n        /* \"#utility.yul\":20968:20971   */\n      dup3\n        /* \"#utility.yul\":20964:20976   */\n      add\n        /* \"#utility.yul\":20957:20976   */\n      swap1\n      pop\n        /* \"#utility.yul\":20616:20982   */\n      swap2\n      swap1\n      pop\n      jump\t// out\n        /* \"#utility.yul\":20988:21407   */\n    tag_111:\n        /* \"#utility.yul\":21154:21158   */\n      0x00\n        /* \"#utility.yul\":21192:21194   */\n      0x20\n        /* \"#utility.yul\":21181:21190   */\n      dup3\n        /* \"#utility.yul\":21177:21195   */\n      add\n        /* \"#utility.yul\":21169:21195   */\n      swap1\n      pop\n        /* \"#utility.yul\":21241:21250   */\n      dup2\n        /* \"#utility.yul\":21235:21239   */\n      dup2\n        /* \"#utility.yul\":21231:21251   */\n      sub\n        /* \"#utility.yul\":21227:21228   */\n      0x00\n        /* \"#utility.yul\":21216:21225   */\n      dup4\n        /* \"#utility.yul\":21212:21229   */\n      add\n        /* \"#utility.yul\":21205:21252   */\n      mstore\n        /* \"#utility.yul\":21269:21400   */\n      tag_657\n        /* \"#utility.yul\":21395:21399   */\n      dup2\n        /* \"#utility.yul\":21269:21400   */\n      tag_428\n      jump\t// in\n    tag_657:\n        /* \"#utility.yul\":21261:21400   */\n      swap1\n      pop\n        /* \"#utility.yul\":20988:21407   */\n      swap2\n      swap1\n      pop\n      jump\t// out\n        /* \"#utility.yul\":21413:21593   */\n    tag_117:\n        /* \"#utility.yul\":21461:21538   */\n      0x4e487b7100000000000000000000000000000000000000000000000000000000\n        /* \"#utility.yul\":21458:21459   */\n      0x00\n        /* \"#utility.yul\":21451:21539   */\n      mstore\n        /* \"#utility.yul\":21558:21562   */\n      0x32\n        /* \"#utility.yul\":21555:21556   */\n      0x04\n        /* \"#utility.yul\":21548:21563   */\n      mstore\n        /* \"#utility.yul\":21582:21586   */\n      0x24\n        /* \"#utility.yul\":21579:21580   */\n      0x00\n        /* \"#utility.yul\":21572:21587   */\n      revert\n        /* \"#utility.yul\":21599:21779   */\n    tag_429:\n        /* \"#utility.yul\":21647:21724   */\n      0x4e487b7100000000000000000000000000000000000000000000000000000000\n        /* \"#utility.yul\":21644:21645   */\n      0x00\n        /* \"#utility.yul\":21637:21725   */\n      mstore\n        /* \"#utility.yul\":21744:21748   */\n      0x22\n        /* \"#utility.yul\":21741:21742   */\n      0x04\n        /* \"#utility.yul\":21734:21749   */\n      mstore\n        /* \"#utility.yul\":21768:21772   */\n      0x24\n        /* \"#utility.yul\":21765:21766   */\n      0x00\n        /* \"#utility.yul\":21758:21773   */\n      revert\n        /* \"#utility.yul\":21785:22105   */\n    tag_138:\n        /* \"#utility.yul\":21829:21835   */\n      0x00\n        /* \"#utility.yul\":21866:21867   */\n      0x02\n        /* \"#utility.yul\":21860:21864   */\n      dup3\n        /* \"#utility.yul\":21856:21868   */\n      div\n        /* \"#utility.yul\":21846:21868   */\n      swap1\n      pop\n        /* \"#utility.yul\":21913:21914   */\n      0x01\n        /* \"#utility.yul\":21907:21911   */\n      dup3\n        /* \"#utility.yul\":21903:21915   */\n      and\n        /* \"#utility.yul\":21934:21952   */\n      dup1\n        /* \"#utility.yul\":21924:22005   */\n      tag_661\n      jumpi\n        /* \"#utility.yul\":21990:21994   */\n      0x7f\n        /* \"#utility.yul\":21982:21988   */\n      dup3\n        /* \"#utility.yul\":21978:21995   */\n      and\n        /* \"#utility.yul\":21968:21995   */\n      swap2\n      pop\n        /* \"#utility.yul\":21924:22005   */\n    tag_661:\n        /* \"#utility.yul\":22052:22054   */\n      0x20\n        /* \"#utility.yul\":22044:22050   */\n      dup3\n        /* \"#utility.yul\":22041:22055   */\n      lt\n        /* \"#utility.yul\":22021:22039   */\n      dup2\n        /* \"#utility.yul\":22018:22056   */\n      sub\n        /* \"#utility.yul\":22015:22099   */\n      tag_662\n      jumpi\n        /* \"#utility.yul\":22071:22089   */\n      tag_663\n      tag_429\n      jump\t// in\n    tag_663:\n        /* \"#utility.yul\":22015:22099   */\n    tag_662:\n        /* \"#utility.yul\":21836:22105   */\n      pop\n        /* \"#utility.yul\":21785:22105   */\n      swap2\n      swap1\n      pop\n      jump\t// out\n        /* \"#utility.yul\":22111:22258   */\n    tag_430:\n        /* \"#utility.yul\":22212:22223   */\n      0x00\n        /* \"#utility.yul\":22249:22252   */\n      dup2\n        /* \"#utility.yul\":22234:22252   */\n      swap1\n      pop\n        /* \"#utility.yul\":22111:22258   */\n      swap3\n      swap2\n      pop\n      pop\n      jump\t// out\n        /* \"#utility.yul\":22264:22408   */\n    tag_431:\n        /* \"#utility.yul\":22316:22320   */\n      0x00\n        /* \"#utility.yul\":22339:22342   */\n      dup2\n        /* \"#utility.yul\":22331:22342   */\n      swap1\n      pop\n        /* \"#utility.yul\":22362:22365   */\n      dup2\n        /* \"#utility.yul\":22359:22360   */\n      0x00\n        /* \"#utility.yul\":22352:22366   */\n      mstore\n        /* \"#utility.yul\":22396:22400   */\n      0x20\n        /* \"#utility.yul\":22393:22394   */\n      0x00\n        /* \"#utility.yul\":22383:22401   */\n      keccak256\n        /* \"#utility.yul\":22375:22401   */\n      swap1\n      pop\n        /* \"#utility.yul\":22264:22408   */\n      swap2\n      swap1\n      pop\n      jump\t// out\n        /* \"#utility.yul\":22436:23314   */\n    tag_432:\n        /* \"#utility.yul\":22541:22544   */\n      0x00\n        /* \"#utility.yul\":22578:22583   */\n      dup2\n        /* \"#utility.yul\":22572:22584   */\n      sload\n        /* \"#utility.yul\":22607:22643   */\n      tag_667\n        /* \"#utility.yul\":22633:22642   */\n      dup2\n        /* \"#utility.yul\":22607:22643   */\n      tag_138\n      jump\t// in\n    tag_667:\n        /* \"#utility.yul\":22659:22747   */\n      tag_668\n        /* \"#utility.yul\":22740:22746   */\n      dup2\n        /* \"#utility.yul\":22735:22738   */\n      dup7\n        /* \"#utility.yul\":22659:22747   */\n      tag_430\n      jump\t// in\n    tag_668:\n        /* \"#utility.yul\":22652:22747   */\n      swap5\n      pop\n        /* \"#utility.yul\":22778:22779   */\n      0x01\n        /* \"#utility.yul\":22767:22776   */\n      dup3\n        /* \"#utility.yul\":22763:22780   */\n      and\n        /* \"#utility.yul\":22794:22795   */\n      0x00\n        /* \"#utility.yul\":22789:22955   */\n      dup2\n      eq\n      tag_670\n      jumpi\n        /* \"#utility.yul\":22969:22970   */\n      0x01\n        /* \"#utility.yul\":22964:23308   */\n      dup2\n      eq\n      tag_671\n      jumpi\n        /* \"#utility.yul\":22756:23308   */\n      jump(tag_669)\n        /* \"#utility.yul\":22789:22955   */\n    tag_670:\n        /* \"#utility.yul\":22873:22877   */\n      0xff\n        /* \"#utility.yul\":22869:22878   */\n      not\n        /* \"#utility.yul\":22858:22867   */\n      dup4\n        /* \"#utility.yul\":22854:22879   */\n      and\n        /* \"#utility.yul\":22849:22852   */\n      dup7\n        /* \"#utility.yul\":22842:22880   */\n      mstore\n        /* \"#utility.yul\":22935:22941   */\n      dup2\n        /* \"#utility.yul\":22928:22942   */\n      iszero\n        /* \"#utility.yul\":22921:22943   */\n      iszero\n        /* \"#utility.yul\":22913:22919   */\n      dup3\n        /* \"#utility.yul\":22909:22944   */\n      mul\n        /* \"#utility.yul\":22904:22907   */\n      dup7\n        /* \"#utility.yul\":22900:22945   */\n      add\n        /* \"#utility.yul\":22893:22945   */\n      swap4\n      pop\n        /* \"#utility.yul\":22789:22955   */\n      jump(tag_669)\n        /* \"#utility.yul\":22964:23308   */\n    tag_671:\n        /* \"#utility.yul\":23031:23072   */\n      tag_672\n        /* \"#utility.yul\":23066:23071   */\n      dup6\n        /* \"#utility.yul\":23031:23072   */\n      tag_431\n      jump\t// in\n    tag_672:\n        /* \"#utility.yul\":23094:23095   */\n      0x00\n        /* \"#utility.yul\":23108:23262   */\n    tag_673:\n        /* \"#utility.yul\":23122:23128   */\n      dup4\n        /* \"#utility.yul\":23119:23120   */\n      dup2\n        /* \"#utility.yul\":23116:23129   */\n      lt\n        /* \"#utility.yul\":23108:23262   */\n      iszero\n      tag_675\n      jumpi\n        /* \"#utility.yul\":23196:23203   */\n      dup2\n        /* \"#utility.yul\":23190:23204   */\n      sload\n        /* \"#utility.yul\":23186:23187   */\n      dup2\n        /* \"#utility.yul\":23181:23184   */\n      dup10\n        /* \"#utility.yul\":23177:23188   */\n      add\n        /* \"#utility.yul\":23170:23205   */\n      mstore\n        /* \"#utility.yul\":23246:23247   */\n      0x01\n        /* \"#utility.yul\":23237:23244   */\n      dup3\n        /* \"#utility.yul\":23233:23248   */\n      add\n        /* \"#utility.yul\":23222:23248   */\n      swap2\n      pop\n        /* \"#utility.yul\":23144:23148   */\n      0x20\n        /* \"#utility.yul\":23141:23142   */\n      dup2\n        /* \"#utility.yul\":23137:23149   */\n      add\n        /* \"#utility.yul\":23132:23149   */\n      swap1\n      pop\n        /* \"#utility.yul\":23108:23262   */\n      jump(tag_673)\n    tag_675:\n        /* \"#utility.yul\":23291:23297   */\n      dup4\n        /* \"#utility.yul\":23286:23289   */\n      dup9\n        /* \"#utility.yul\":23282:23298   */\n      add\n        /* \"#utility.yul\":23275:23298   */\n      swap6\n      pop\n        /* \"#utility.yul\":22971:23308   */\n      pop\n      pop\n        /* \"#utility.yul\":22756:23308   */\n    tag_669:\n      pop\n        /* \"#utility.yul\":22545:23314   */\n      pop\n      pop\n        /* \"#utility.yul\":22436:23314   */\n      swap3\n      swap2\n      pop\n      pop\n      jump\t// out\n        /* \"#utility.yul\":23320:23593   */\n    tag_120:\n        /* \"#utility.yul\":23451:23454   */\n      0x00\n        /* \"#utility.yul\":23473:23567   */\n      tag_677\n        /* \"#utility.yul\":23563:23566   */\n      dup3\n        /* \"#utility.yul\":23554:23560   */\n      dup5\n        /* \"#utility.yul\":23473:23567   */\n      tag_432\n      jump\t// in\n    tag_677:\n        /* \"#utility.yul\":23466:23567   */\n      swap2\n      pop\n        /* \"#utility.yul\":23584:23587   */\n      dup2\n        /* \"#utility.yul\":23577:23587   */\n      swap1\n      pop\n        /* \"#utility.yul\":23320:23593   */\n      swap3\n      swap2\n      pop\n      pop\n      jump\t// out\n        /* \"#utility.yul\":23599:23775   */\n    tag_433:\n        /* \"#utility.yul\":23739:23767   */\n      0x43616e64696461746520697320616c7265616479206164646564000000000000\n        /* \"#utility.yul\":23735:23736   */\n      0x00\n        /* \"#utility.yul\":23727:23733   */\n      dup3\n        /* \"#utility.yul\":23723:23737   */\n      add\n        /* \"#utility.yul\":23716:23768   */\n      mstore\n        /* \"#utility.yul\":23599:23775   */\n      pop\n      jump\t// out\n        /* \"#utility.yul\":23781:24147   */\n    tag_434:\n        /* \"#utility.yul\":23923:23926   */\n      0x00\n        /* \"#utility.yul\":23944:24011   */\n      tag_680\n        /* \"#utility.yul\":24008:24010   */\n      0x1a\n        /* \"#utility.yul\":24003:24006   */\n      dup4\n        /* \"#utility.yul\":23944:24011   */\n      tag_393\n      jump\t// in\n    tag_680:\n        /* \"#utility.yul\":23937:24011   */\n      swap2\n      pop\n        /* \"#utility.yul\":24020:24113   */\n      tag_681\n        /* \"#utility.yul\":24109:24112   */\n      dup3\n        /* \"#utility.yul\":24020:24113   */\n      tag_433\n      jump\t// in\n    tag_681:\n        /* \"#utility.yul\":24138:24140   */\n      0x20\n        /* \"#utility.yul\":24133:24136   */\n      dup3\n        /* \"#utility.yul\":24129:24141   */\n      add\n        /* \"#utility.yul\":24122:24141   */\n      swap1\n      pop\n        /* \"#utility.yul\":23781:24147   */\n      swap2\n      swap1\n      pop\n      jump\t// out\n        /* \"#utility.yul\":24153:24572   */\n    tag_123:\n        /* \"#utility.yul\":24319:24323   */\n      0x00\n        /* \"#utility.yul\":24357:24359   */\n      0x20\n        /* \"#utility.yul\":24346:24355   */\n      dup3\n        /* \"#utility.yul\":24342:24360   */\n      add\n        /* \"#utility.yul\":24334:24360   */\n      swap1\n      pop\n        /* \"#utility.yul\":24406:24415   */\n      dup2\n        /* \"#utility.yul\":24400:24404   */\n      dup2\n        /* \"#utility.yul\":24396:24416   */\n      sub\n        /* \"#utility.yul\":24392:24393   */\n      0x00\n        /* \"#utility.yul\":24381:24390   */\n      dup4\n        /* \"#utility.yul\":24377:24394   */\n      add\n        /* \"#utility.yul\":24370:24417   */\n      mstore\n        /* \"#utility.yul\":24434:24565   */\n      tag_683\n        /* \"#utility.yul\":24560:24564   */\n      dup2\n        /* \"#utility.yul\":24434:24565   */\n      tag_434\n      jump\t// in\n    tag_683:\n        /* \"#utility.yul\":24426:24565   */\n      swap1\n      pop\n        /* \"#utility.yul\":24153:24572   */\n      swap2\n      swap1\n      pop\n      jump\t// out\n        /* \"#utility.yul\":24578:24758   */\n    tag_435:\n        /* \"#utility.yul\":24626:24703   */\n      0x4e487b7100000000000000000000000000000000000000000000000000000000\n        /* \"#utility.yul\":24623:24624   */\n      0x00\n        /* \"#utility.yul\":24616:24704   */\n      mstore\n        /* \"#utility.yul\":24723:24727   */\n      0x11\n        /* \"#utility.yul\":24720:24721   */\n      0x04\n        /* \"#utility.yul\":24713:24728   */\n      mstore\n        /* \"#utility.yul\":24747:24751   */\n      0x24\n        /* \"#utility.yul\":24744:24745   */\n      0x00\n        /* \"#utility.yul\":24737:24752   */\n      revert\n        /* \"#utility.yul\":24764:24997   */\n    tag_125:\n        /* \"#utility.yul\":24803:24806   */\n      0x00\n        /* \"#utility.yul\":24826:24850   */\n      tag_686\n        /* \"#utility.yul\":24844:24849   */\n      dup3\n        /* \"#utility.yul\":24826:24850   */\n      tag_388\n      jump\t// in\n    tag_686:\n        /* \"#utility.yul\":24817:24850   */\n      swap2\n      pop\n        /* \"#utility.yul\":24872:24938   */\n      0xffffffffffffffffffffffffffffffffffffffffffffffffffffffffffffffff\n        /* \"#utility.yul\":24865:24870   */\n      dup3\n        /* \"#utility.yul\":24862:24939   */\n      sub\n        /* \"#utility.yul\":24859:24962   */\n      tag_687\n      jumpi\n        /* \"#utility.yul\":24942:24960   */\n      tag_688\n      tag_435\n      jump\t// in\n    tag_688:\n        /* \"#utility.yul\":24859:24962   */\n    tag_687:\n        /* \"#utility.yul\":24989:24990   */\n      0x01\n        /* \"#utility.yul\":24982:24987   */\n      dup3\n        /* \"#utility.yul\":24978:24991   */\n      add\n        /* \"#utility.yul\":24971:24991   */\n      swap1\n      pop\n        /* \"#utility.yul\":24764:24997   */\n      swap2\n      swap1\n      pop\n      jump\t// out\n        /* \"#utility.yul\":25003:25144   */\n    tag_436:\n        /* \"#utility.yul\":25052:25056   */\n      0x00\n        /* \"#utility.yul\":25075:25078   */\n      dup2\n        /* \"#utility.yul\":25067:25078   */\n      swap1\n      pop\n        /* \"#utility.yul\":25098:25101   */\n      dup2\n        /* \"#utility.yul\":25095:25096   */\n      0x00\n        /* \"#utility.yul\":25088:25102   */\n      mstore\n        /* \"#utility.yul\":25132:25136   */\n      0x20\n        /* \"#utility.yul\":25129:25130   */\n      0x00\n        /* \"#utility.yul\":25119:25137   */\n      keccak256\n        /* \"#utility.yul\":25111:25137   */\n      swap1\n      pop\n        /* \"#utility.yul\":25003:25144   */\n      swap2\n      swap1\n      pop\n      jump\t// out\n        /* \"#utility.yul\":25150:25243   */\n    tag_437:\n        /* \"#utility.yul\":25187:25193   */\n      0x00\n        /* \"#utility.yul\":25234:25236   */\n      0x20\n        /* \"#utility.yul\":25229:25231   */\n      0x1f\n        /* \"#utility.yul\":25222:25227   */\n      dup4\n        /* \"#utility.yul\":25218:25232   */\n      add\n        /* \"#utility.yul\":25214:25237   */\n      div\n        /* \"#utility.yul\":25204:25237   */\n      swap1\n      pop\n        /* \"#utility.yul\":25150:25243   */\n      swap2\n      swap1\n      pop\n      jump\t// out\n        /* \"#utility.yul\":25249:25356   */\n    tag_438:\n        /* \"#utility.yul\":25293:25301   */\n      0x00\n        /* \"#utility.yul\":25343:25348   */\n      dup3\n        /* \"#utility.yul\":25337:25341   */\n      dup3\n        /* \"#utility.yul\":25333:25349   */\n      shl\n        /* \"#utility.yul\":25312:25349   */\n      swap1\n      pop\n        /* \"#utility.yul\":25249:25356   */\n      swap3\n      swap2\n      pop\n      pop\n      jump\t// out\n        /* \"#utility.yul\":25362:25755   */\n    tag_439:\n        /* \"#utility.yul\":25431:25437   */\n      0x00\n        /* \"#utility.yul\":25481:25482   */\n      0x08\n        /* \"#utility.yul\":25469:25479   */\n      dup4\n        /* \"#utility.yul\":25465:25483   */\n      mul\n        /* \"#utility.yul\":25504:25601   */\n      tag_693\n        /* \"#utility.yul\":25534:25600   */\n      0xffffffffffffffffffffffffffffffffffffffffffffffffffffffffffffffff\n        /* \"#utility.yul\":25523:25532   */\n      dup3\n        /* \"#utility.yul\":25504:25601   */\n      tag_438\n      jump\t// in\n    tag_693:\n        /* \"#utility.yul\":25622:25661   */\n      tag_694\n        /* \"#utility.yul\":25652:25660   */\n      dup7\n        /* \"#utility.yul\":25641:25650   */\n      dup4\n        /* \"#utility.yul\":25622:25661   */\n      tag_438\n      jump\t// in\n    tag_694:\n        /* \"#utility.yul\":25610:25661   */\n      swap6\n      pop\n        /* \"#utility.yul\":25694:25698   */\n      dup1\n        /* \"#utility.yul\":25690:25699   */\n      not\n        /* \"#utility.yul\":25683:25688   */\n      dup5\n        /* \"#utility.yul\":25679:25700   */\n      and\n        /* \"#utility.yul\":25670:25700   */\n      swap4\n      pop\n        /* \"#utility.yul\":25743:25747   */\n      dup1\n        /* \"#utility.yul\":25733:25741   */\n      dup7\n        /* \"#utility.yul\":25729:25748   */\n      and\n        /* \"#utility.yul\":25722:25727   */\n      dup5\n        /* \"#utility.yul\":25719:25749   */\n      or\n        /* \"#utility.yul\":25709:25749   */\n      swap3\n      pop\n        /* \"#utility.yul\":25438:25755   */\n      pop\n      pop\n        /* \"#utility.yul\":25362:25755   */\n      swap4\n      swap3\n      pop\n      pop\n      pop\n      jump\t// out\n        /* \"#utility.yul\":25761:25821   */\n    tag_440:\n        /* \"#utility.yul\":25789:25792   */\n      0x00\n        /* \"#utility.yul\":25810:25815   */\n      dup2\n        /* \"#utility.yul\":25803:25815   */\n      swap1\n      pop\n        /* \"#utility.yul\":25761:25821   */\n      swap2\n      swap1\n      pop\n      jump\t// out\n        /* \"#utility.yul\":25827:25969   */\n    tag_441:\n        /* \"#utility.yul\":25877:25886   */\n      0x00\n        /* \"#utility.yul\":25910:25963   */\n      tag_697\n        /* \"#utility.yul\":25928:25962   */\n      tag_698\n        /* \"#utility.yul\":25937:25961   */\n      tag_699\n        /* \"#utility.yul\":25955:25960   */\n      dup5\n        /* \"#utility.yul\":25937:25961   */\n      tag_388\n      jump\t// in\n    tag_699:\n        /* \"#utility.yul\":25928:25962   */\n      tag_440\n      jump\t// in\n    tag_698:\n        /* \"#utility.yul\":25910:25963   */\n      tag_388\n      jump\t// in\n    tag_697:\n        /* \"#utility.yul\":25897:25963   */\n      swap1\n      pop\n        /* \"#utility.yul\":25827:25969   */\n      swap2\n      swap1\n      pop\n      jump\t// out\n        /* \"#utility.yul\":25975:26050   */\n    tag_442:\n        /* \"#utility.yul\":26018:26021   */\n      0x00\n        /* \"#utility.yul\":26039:26044   */\n      dup2\n        /* \"#utility.yul\":26032:26044   */\n      swap1\n      pop\n        /* \"#utility.yul\":25975:26050   */\n      swap2\n      swap1\n      pop\n      jump\t// out\n        /* \"#utility.yul\":26056:26325   */\n    tag_443:\n        /* \"#utility.yul\":26166:26205   */\n      tag_702\n        /* \"#utility.yul\":26197:26204   */\n      dup4\n        /* \"#utility.yul\":26166:26205   */\n      tag_441\n      jump\t// in\n    tag_702:\n        /* \"#utility.yul\":26227:26318   */\n      tag_703\n        /* \"#utility.yul\":26276:26317   */\n      tag_704\n        /* \"#utility.yul\":26300:26316   */\n      dup3\n        /* \"#utility.yul\":26276:26317   */\n      tag_442\n      jump\t// in\n    tag_704:\n        /* \"#utility.yul\":26268:26274   */\n      dup5\n        /* \"#utility.yul\":26261:26265   */\n      dup5\n        /* \"#utility.yul\":26255:26266   */\n      sload\n        /* \"#utility.yul\":26227:26318   */\n      tag_439\n      jump\t// in\n    tag_703:\n        /* \"#utility.yul\":26221:26225   */\n      dup3\n        /* \"#utility.yul\":26214:26319   */\n      sstore\n        /* \"#utility.yul\":26132:26325   */\n      pop\n        /* \"#utility.yul\":26056:26325   */\n      pop\n      pop\n      pop\n      jump\t// out\n        /* \"#utility.yul\":26331:26404   */\n    tag_444:\n        /* \"#utility.yul\":26376:26379   */\n      0x00\n        /* \"#utility.yul\":26331:26404   */\n      swap1\n      jump\t// out\n        /* \"#utility.yul\":26410:26599   */\n    tag_445:\n        /* \"#utility.yul\":26487:26519   */\n      tag_707\n      tag_444\n      jump\t// in\n    tag_707:\n        /* \"#utility.yul\":26528:26593   */\n      tag_708\n        /* \"#utility.yul\":26586:26592   */\n      dup2\n        /* \"#utility.yul\":26578:26584   */\n      dup5\n        /* \"#utility.yul\":26572:26576   */\n      dup5\n        /* \"#utility.yul\":26528:26593   */\n      tag_443\n      jump\t// in\n    tag_708:\n        /* \"#utility.yul\":26463:26599   */\n      pop\n        /* \"#utility.yul\":26410:26599   */\n      pop\n      pop\n      jump\t// out\n        /* \"#utility.yul\":26605:26791   */\n    tag_446:\n        /* \"#utility.yul\":26665:26785   */\n    tag_710:\n        /* \"#utility.yul\":26682:26685   */\n      dup2\n        /* \"#utility.yul\":26675:26680   */\n      dup2\n        /* \"#utility.yul\":26672:26686   */\n      lt\n        /* \"#utility.yul\":26665:26785   */\n      iszero\n      tag_712\n      jumpi\n        /* \"#utility.yul\":26736:26775   */\n      tag_713\n        /* \"#utility.yul\":26773:26774   */\n      0x00\n        /* \"#utility.yul\":26766:26771   */\n      dup3\n        /* \"#utility.yul\":26736:26775   */\n      tag_445\n      jump\t// in\n    tag_713:\n        /* \"#utility.yul\":26709:26710   */\n      0x01\n        /* \"#utility.yul\":26702:26707   */\n      dup2\n        /* \"#utility.yul\":26698:26711   */\n      add\n        /* \"#utility.yul\":26689:26711   */\n      swap1\n      pop\n        /* \"#utility.yul\":26665:26785   */\n      jump(tag_710)\n    tag_712:\n        /* \"#utility.yul\":26605:26791   */\n      pop\n      pop\n      jump\t// out\n        /* \"#utility.yul\":26797:27340   */\n    tag_447:\n        /* \"#utility.yul\":26898:26900   */\n      0x1f\n        /* \"#utility.yul\":26893:26896   */\n      dup3\n        /* \"#utility.yul\":26890:26901   */\n      gt\n        /* \"#utility.yul\":26887:27333   */\n      iszero\n      tag_715\n      jumpi\n        /* \"#utility.yul\":26932:26970   */\n      tag_716\n        /* \"#utility.yul\":26964:26969   */\n      dup2\n        /* \"#utility.yul\":26932:26970   */\n      tag_436\n      jump\t// in\n    tag_716:\n        /* \"#utility.yul\":27016:27045   */\n      tag_717\n        /* \"#utility.yul\":27034:27044   */\n      dup5\n        /* \"#utility.yul\":27016:27045   */\n      tag_437\n      jump\t// in\n    tag_717:\n        /* \"#utility.yul\":27006:27014   */\n      dup2\n        /* \"#utility.yul\":27002:27046   */\n      add\n        /* \"#utility.yul\":27199:27201   */\n      0x20\n        /* \"#utility.yul\":27187:27197   */\n      dup6\n        /* \"#utility.yul\":27184:27202   */\n      lt\n        /* \"#utility.yul\":27181:27230   */\n      iszero\n      tag_718\n      jumpi\n        /* \"#utility.yul\":27220:27228   */\n      dup2\n        /* \"#utility.yul\":27205:27228   */\n      swap1\n      pop\n        /* \"#utility.yul\":27181:27230   */\n    tag_718:\n        /* \"#utility.yul\":27243:27323   */\n      tag_719\n        /* \"#utility.yul\":27299:27321   */\n      tag_720\n        /* \"#utility.yul\":27317:27320   */\n      dup6\n        /* \"#utility.yul\":27299:27321   */\n      tag_437\n      jump\t// in\n    tag_720:\n        /* \"#utility.yul\":27289:27297   */\n      dup4\n        /* \"#utility.yul\":27285:27322   */\n      add\n        /* \"#utility.yul\":27272:27283   */\n      dup3\n        /* \"#utility.yul\":27243:27323   */\n      tag_446\n      jump\t// in\n    tag_719:\n        /* \"#utility.yul\":26902:27333   */\n      pop\n      pop\n        /* \"#utility.yul\":26887:27333   */\n    tag_715:\n        /* \"#utility.yul\":26797:27340   */\n      pop\n      pop\n      pop\n      jump\t// out\n        /* \"#utility.yul\":27346:27463   */\n    tag_448:\n        /* \"#utility.yul\":27400:27408   */\n      0x00\n        /* \"#utility.yul\":27450:27455   */\n      dup3\n        /* \"#utility.yul\":27444:27448   */\n      dup3\n        /* \"#utility.yul\":27440:27456   */\n      shr\n        /* \"#utility.yul\":27419:27456   */\n      swap1\n      pop\n        /* \"#utility.yul\":27346:27463   */\n      swap3\n      swap2\n      pop\n      pop\n      jump\t// out\n        /* \"#utility.yul\":27469:27638   */\n    tag_449:\n        /* \"#utility.yul\":27513:27519   */\n      0x00\n        /* \"#utility.yul\":27546:27597   */\n      tag_723\n        /* \"#utility.yul\":27594:27595   */\n      0x00\n        /* \"#utility.yul\":27590:27596   */\n      not\n        /* \"#utility.yul\":27582:27587   */\n      dup5\n        /* \"#utility.yul\":27579:27580   */\n      0x08\n        /* \"#utility.yul\":27575:27588   */\n      mul\n        /* \"#utility.yul\":27546:27597   */\n      tag_448\n      jump\t// in\n    tag_723:\n        /* \"#utility.yul\":27542:27598   */\n      not\n        /* \"#utility.yul\":27627:27631   */\n      dup1\n        /* \"#utility.yul\":27621:27625   */\n      dup4\n        /* \"#utility.yul\":27617:27632   */\n      and\n        /* \"#utility.yul\":27607:27632   */\n      swap2\n      pop\n        /* \"#utility.yul\":27520:27638   */\n      pop\n        /* \"#utility.yul\":27469:27638   */\n      swap3\n      swap2\n      pop\n      pop\n      jump\t// out\n        /* \"#utility.yul\":27643:27938   */\n    tag_450:\n        /* \"#utility.yul\":27719:27723   */\n      0x00\n        /* \"#utility.yul\":27865:27894   */\n      tag_725\n        /* \"#utility.yul\":27890:27893   */\n      dup4\n        /* \"#utility.yul\":27884:27888   */\n      dup4\n        /* \"#utility.yul\":27865:27894   */\n      tag_449\n      jump\t// in\n    tag_725:\n        /* \"#utility.yul\":27857:27894   */\n      swap2\n      pop\n        /* \"#utility.yul\":27927:27930   */\n      dup3\n        /* \"#utility.yul\":27924:27925   */\n      0x02\n        /* \"#utility.yul\":27920:27931   */\n      mul\n        /* \"#utility.yul\":27914:27918   */\n      dup3\n        /* \"#utility.yul\":27911:27932   */\n      or\n        /* \"#utility.yul\":27903:27932   */\n      swap1\n      pop\n        /* \"#utility.yul\":27643:27938   */\n      swap3\n      swap2\n      pop\n      pop\n      jump\t// out\n        /* \"#utility.yul\":27943:29338   */\n    tag_128:\n        /* \"#utility.yul\":28060:28097   */\n      tag_727\n        /* \"#utility.yul\":28093:28096   */\n      dup3\n        /* \"#utility.yul\":28060:28097   */\n      tag_392\n      jump\t// in\n    tag_727:\n        /* \"#utility.yul\":28162:28180   */\n      0xffffffffffffffff\n        /* \"#utility.yul\":28154:28160   */\n      dup2\n        /* \"#utility.yul\":28151:28181   */\n      gt\n        /* \"#utility.yul\":28148:28204   */\n      iszero\n      tag_728\n      jumpi\n        /* \"#utility.yul\":28184:28202   */\n      tag_729\n      tag_199\n      jump\t// in\n    tag_729:\n        /* \"#utility.yul\":28148:28204   */\n    tag_728:\n        /* \"#utility.yul\":28228:28266   */\n      tag_730\n        /* \"#utility.yul\":28260:28264   */\n      dup3\n        /* \"#utility.yul\":28254:28265   */\n      sload\n        /* \"#utility.yul\":28228:28266   */\n      tag_138\n      jump\t// in\n    tag_730:\n        /* \"#utility.yul\":28313:28380   */\n      tag_731\n        /* \"#utility.yul\":28373:28379   */\n      dup3\n        /* \"#utility.yul\":28365:28371   */\n      dup3\n        /* \"#utility.yul\":28359:28363   */\n      dup6\n        /* \"#utility.yul\":28313:28380   */\n      tag_447\n      jump\t// in\n    tag_731:\n        /* \"#utility.yul\":28407:28408   */\n      0x00\n        /* \"#utility.yul\":28431:28435   */\n      0x20\n        /* \"#utility.yul\":28418:28435   */\n      swap1\n      pop\n        /* \"#utility.yul\":28463:28465   */\n      0x1f\n        /* \"#utility.yul\":28455:28461   */\n      dup4\n        /* \"#utility.yul\":28452:28466   */\n      gt\n        /* \"#utility.yul\":28480:28481   */\n      0x01\n        /* \"#utility.yul\":28475:29093   */\n      dup2\n      eq\n      tag_733\n      jumpi\n        /* \"#utility.yul\":29137:29138   */\n      0x00\n        /* \"#utility.yul\":29154:29160   */\n      dup5\n        /* \"#utility.yul\":29151:29228   */\n      iszero\n      tag_734\n      jumpi\n        /* \"#utility.yul\":29203:29212   */\n      dup3\n        /* \"#utility.yul\":29198:29201   */\n      dup8\n        /* \"#utility.yul\":29194:29213   */\n      add\n        /* \"#utility.yul\":29188:29214   */\n      mload\n        /* \"#utility.yul\":29179:29214   */\n      swap1\n      pop\n        /* \"#utility.yul\":29151:29228   */\n    tag_734:\n        /* \"#utility.yul\":29254:29321   */\n      tag_735\n        /* \"#utility.yul\":29314:29320   */\n      dup6\n        /* \"#utility.yul\":29307:29312   */\n      dup3\n        /* \"#utility.yul\":29254:29321   */\n      tag_450\n      jump\t// in\n    tag_735:\n        /* \"#utility.yul\":29248:29252   */\n      dup7\n        /* \"#utility.yul\":29241:29322   */\n      sstore\n        /* \"#utility.yul\":29110:29332   */\n      pop\n        /* \"#utility.yul\":28445:29332   */\n      jump(tag_732)\n        /* \"#utility.yul\":28475:29093   */\n    tag_733:\n        /* \"#utility.yul\":28527:28531   */\n      0x1f\n        /* \"#utility.yul\":28523:28532   */\n      not\n        /* \"#utility.yul\":28515:28521   */\n      dup5\n        /* \"#utility.yul\":28511:28533   */\n      and\n        /* \"#utility.yul\":28561:28598   */\n      tag_736\n        /* \"#utility.yul\":28593:28597   */\n      dup7\n        /* \"#utility.yul\":28561:28598   */\n      tag_436\n      jump\t// in\n    tag_736:\n        /* \"#utility.yul\":28620:28621   */\n      0x00\n        /* \"#utility.yul\":28634:28842   */\n    tag_737:\n        /* \"#utility.yul\":28648:28655   */\n      dup3\n        /* \"#utility.yul\":28645:28646   */\n      dup2\n        /* \"#utility.yul\":28642:28656   */\n      lt\n        /* \"#utility.yul\":28634:28842   */\n      iszero\n      tag_739\n      jumpi\n        /* \"#utility.yul\":28727:28736   */\n      dup5\n        /* \"#utility.yul\":28722:28725   */\n      dup10\n        /* \"#utility.yul\":28718:28737   */\n      add\n        /* \"#utility.yul\":28712:28738   */\n      mload\n        /* \"#utility.yul\":28704:28710   */\n      dup3\n        /* \"#utility.yul\":28697:28739   */\n      sstore\n        /* \"#utility.yul\":28778:28779   */\n      0x01\n        /* \"#utility.yul\":28770:28776   */\n      dup3\n        /* \"#utility.yul\":28766:28780   */\n      add\n        /* \"#utility.yul\":28756:28780   */\n      swap2\n      pop\n        /* \"#utility.yul\":28825:28827   */\n      0x20\n        /* \"#utility.yul\":28814:28823   */\n      dup6\n        /* \"#utility.yul\":28810:28828   */\n      add\n        /* \"#utility.yul\":28797:28828   */\n      swap5\n      pop\n        /* \"#utility.yul\":28671:28675   */\n      0x20\n        /* \"#utility.yul\":28668:28669   */\n      dup2\n        /* \"#utility.yul\":28664:28676   */\n      add\n        /* \"#utility.yul\":28659:28676   */\n      swap1\n      pop\n        /* \"#utility.yul\":28634:28842   */\n      jump(tag_737)\n    tag_739:\n        /* \"#utility.yul\":28870:28876   */\n      dup7\n        /* \"#utility.yul\":28861:28868   */\n      dup4\n        /* \"#utility.yul\":28858:28877   */\n      lt\n        /* \"#utility.yul\":28855:29034   */\n      iszero\n      tag_740\n      jumpi\n        /* \"#utility.yul\":28928:28937   */\n      dup5\n        /* \"#utility.yul\":28923:28926   */\n      dup10\n        /* \"#utility.yul\":28919:28938   */\n      add\n        /* \"#utility.yul\":28913:28939   */\n      mload\n        /* \"#utility.yul\":28971:29019   */\n      tag_741\n        /* \"#utility.yul\":29013:29017   */\n      0x1f\n        /* \"#utility.yul\":29005:29011   */\n      dup10\n        /* \"#utility.yul\":29001:29018   */\n      and\n        /* \"#utility.yul\":28990:28999   */\n      dup3\n        /* \"#utility.yul\":28971:29019   */\n      tag_449\n      jump\t// in\n    tag_741:\n        /* \"#utility.yul\":28963:28969   */\n      dup4\n        /* \"#utility.yul\":28956:29020   */\n      sstore\n        /* \"#utility.yul\":28878:29034   */\n      pop\n        /* \"#utility.yul\":28855:29034   */\n    tag_740:\n        /* \"#utility.yul\":29080:29081   */\n      0x01\n        /* \"#utility.yul\":29076:29077   */\n      0x02\n        /* \"#utility.yul\":29068:29074   */\n      dup9\n        /* \"#utility.yul\":29064:29078   */\n      mul\n        /* \"#utility.yul\":29060:29082   */\n      add\n        /* \"#utility.yul\":29054:29058   */\n      dup9\n        /* \"#utility.yul\":29047:29083   */\n      sstore\n        /* \"#utility.yul\":28482:29093   */\n      pop\n      pop\n      pop\n        /* \"#utility.yul\":28445:29332   */\n    tag_732:\n      pop\n        /* \"#utility.yul\":28035:29338   */\n      pop\n      pop\n      pop\n        /* \"#utility.yul\":27943:29338   */\n      pop\n      pop\n      jump\t// out\n        /* \"#utility.yul\":29344:29514   */\n    tag_451:\n        /* \"#utility.yul\":29484:29506   */\n      0x496e76616c69642063616e646964617465204944000000000000000000000000\n        /* \"#utility.yul\":29480:29481   */\n      0x00\n        /* \"#utility.yul\":29472:29478   */\n      dup3\n        /* \"#utility.yul\":29468:29482   */\n      add\n        /* \"#utility.yul\":29461:29507   */\n      mstore\n        /* \"#utility.yul\":29344:29514   */\n      pop\n      jump\t// out\n        /* \"#utility.yul\":29520:29886   */\n    tag_452:\n        /* \"#utility.yul\":29662:29665   */\n      0x00\n        /* \"#utility.yul\":29683:29750   */\n      tag_744\n        /* \"#utility.yul\":29747:29749   */\n      0x14\n        /* \"#utility.yul\":29742:29745   */\n      dup4\n        /* \"#utility.yul\":29683:29750   */\n      tag_393\n      jump\t// in\n    tag_744:\n        /* \"#utility.yul\":29676:29750   */\n      swap2\n      pop\n        /* \"#utility.yul\":29759:29852   */\n      tag_745\n        /* \"#utility.yul\":29848:29851   */\n      dup3\n        /* \"#utility.yul\":29759:29852   */\n      tag_451\n      jump\t// in\n    tag_745:\n        /* \"#utility.yul\":29877:29879   */\n      0x20\n        /* \"#utility.yul\":29872:29875   */\n      dup3\n        /* \"#utility.yul\":29868:29880   */\n      add\n        /* \"#utility.yul\":29861:29880   */\n      swap1\n      pop\n        /* \"#utility.yul\":29520:29886   */\n      swap2\n      swap1\n      pop\n      jump\t// out\n        /* \"#utility.yul\":29892:30311   */\n    tag_133:\n        /* \"#utility.yul\":30058:30062   */\n      0x00\n        /* \"#utility.yul\":30096:30098   */\n      0x20\n        /* \"#utility.yul\":30085:30094   */\n      dup3\n        /* \"#utility.yul\":30081:30099   */\n      add\n        /* \"#utility.yul\":30073:30099   */\n      swap1\n      pop\n        /* \"#utility.yul\":30145:30154   */\n      dup2\n        /* \"#utility.yul\":30139:30143   */\n      dup2\n        /* \"#utility.yul\":30135:30155   */\n      sub\n        /* \"#utility.yul\":30131:30132   */\n      0x00\n        /* \"#utility.yul\":30120:30129   */\n      dup4\n        /* \"#utility.yul\":30116:30133   */\n      add\n        /* \"#utility.yul\":30109:30156   */\n      mstore\n        /* \"#utility.yul\":30173:30304   */\n      tag_747\n        /* \"#utility.yul\":30299:30303   */\n      dup2\n        /* \"#utility.yul\":30173:30304   */\n      tag_452\n      jump\t// in\n    tag_747:\n        /* \"#utility.yul\":30165:30304   */\n      swap1\n      pop\n        /* \"#utility.yul\":29892:30311   */\n      swap2\n      swap1\n      pop\n      jump\t// out\n        /* \"#utility.yul\":30317:30496   */\n    tag_453:\n        /* \"#utility.yul\":30457:30488   */\n      0x456c656374696f6e206973207374696c6c20696e2070726f6772657373000000\n        /* \"#utility.yul\":30453:30454   */\n      0x00\n        /* \"#utility.yul\":30445:30451   */\n      dup3\n        /* \"#utility.yul\":30441:30455   */\n      add\n        /* \"#utility.yul\":30434:30489   */\n      mstore\n        /* \"#utility.yul\":30317:30496   */\n      pop\n      jump\t// out\n        /* \"#utility.yul\":30502:30868   */\n    tag_454:\n        /* \"#utility.yul\":30644:30647   */\n      0x00\n        /* \"#utility.yul\":30665:30732   */\n      tag_750\n        /* \"#utility.yul\":30729:30731   */\n      0x1d\n        /* \"#utility.yul\":30724:30727   */\n      dup4\n        /* \"#utility.yul\":30665:30732   */\n      tag_393\n      jump\t// in\n    tag_750:\n        /* \"#utility.yul\":30658:30732   */\n      swap2\n      pop\n        /* \"#utility.yul\":30741:30834   */\n      tag_751\n        /* \"#utility.yul\":30830:30833   */\n      dup3\n        /* \"#utility.yul\":30741:30834   */\n      tag_453\n      jump\t// in\n    tag_751:\n        /* \"#utility.yul\":30859:30861   */\n      0x20\n        /* \"#utility.yul\":30854:30857   */\n      dup3\n        /* \"#utility.yul\":30850:30862   */\n      add\n        /* \"#utility.yul\":30843:30862   */\n      swap1\n      pop\n        /* \"#utility.yul\":30502:30868   */\n      swap2\n      swap1\n      pop\n      jump\t// out\n        /* \"#utility.yul\":30874:31293   */\n    tag_165:\n        /* \"#utility.yul\":31040:31044   */\n      0x00\n        /* \"#utility.yul\":31078:31080   */\n      0x20\n        /* \"#utility.yul\":31067:31076   */\n      dup3\n        /* \"#utility.yul\":31063:31081   */\n      add\n        /* \"#utility.yul\":31055:31081   */\n      swap1\n      pop\n        /* \"#utility.yul\":31127:31136   */\n      dup2\n        /* \"#utility.yul\":31121:31125   */\n      dup2\n        /* \"#utility.yul\":31117:31137   */\n      sub\n        /* \"#utility.yul\":31113:31114   */\n      0x00\n        /* \"#utility.yul\":31102:31111   */\n      dup4\n        /* \"#utility.yul\":31098:31115   */\n      add\n        /* \"#utility.yul\":31091:31138   */\n      mstore\n        /* \"#utility.yul\":31155:31286   */\n      tag_753\n        /* \"#utility.yul\":31281:31285   */\n      dup2\n        /* \"#utility.yul\":31155:31286   */\n      tag_454\n      jump\t// in\n    tag_753:\n        /* \"#utility.yul\":31147:31286   */\n      swap1\n      pop\n        /* \"#utility.yul\":30874:31293   */\n      swap2\n      swap1\n      pop\n      jump\t// out\n        /* \"#utility.yul\":31299:31471   */\n    tag_455:\n        /* \"#utility.yul\":31439:31463   */\n      0x596f75206861766520616c726561647920766f74656400000000000000000000\n        /* \"#utility.yul\":31435:31436   */\n      0x00\n        /* \"#utility.yul\":31427:31433   */\n      dup3\n        /* \"#utility.yul\":31423:31437   */\n      add\n        /* \"#utility.yul\":31416:31464   */\n      mstore\n        /* \"#utility.yul\":31299:31471   */\n      pop\n      jump\t// out\n        /* \"#utility.yul\":31477:31843   */\n    tag_456:\n        /* \"#utility.yul\":31619:31622   */\n      0x00\n        /* \"#utility.yul\":31640:31707   */\n      tag_756\n        /* \"#utility.yul\":31704:31706   */\n      0x16\n        /* \"#utility.yul\":31699:31702   */\n      dup4\n        /* \"#utility.yul\":31640:31707   */\n      tag_393\n      jump\t// in\n    tag_756:\n        /* \"#utility.yul\":31633:31707   */\n      swap2\n      pop\n        /* \"#utility.yul\":31716:31809   */\n      tag_757\n        /* \"#utility.yul\":31805:31808   */\n      dup3\n        /* \"#utility.yul\":31716:31809   */\n      tag_455\n      jump\t// in\n    tag_757:\n        /* \"#utility.yul\":31834:31836   */\n      0x20\n        /* \"#utility.yul\":31829:31832   */\n      dup3\n        /* \"#utility.yul\":31825:31837   */\n      add\n        /* \"#utility.yul\":31818:31837   */\n      swap1\n      pop\n        /* \"#utility.yul\":31477:31843   */\n      swap2\n      swap1\n      pop\n      jump\t// out\n        /* \"#utility.yul\":31849:32268   */\n    tag_182:\n        /* \"#utility.yul\":32015:32019   */\n      0x00\n        /* \"#utility.yul\":32053:32055   */\n      0x20\n        /* \"#utility.yul\":32042:32051   */\n      dup3\n        /* \"#utility.yul\":32038:32056   */\n      add\n        /* \"#utility.yul\":32030:32056   */\n      swap1\n      pop\n        /* \"#utility.yul\":32102:32111   */\n      dup2\n        /* \"#utility.yul\":32096:32100   */\n      dup2\n        /* \"#utility.yul\":32092:32112   */\n      sub\n        /* \"#utility.yul\":32088:32089   */\n      0x00\n        /* \"#utility.yul\":32077:32086   */\n      dup4\n        /* \"#utility.yul\":32073:32090   */\n      add\n        /* \"#utility.yul\":32066:32113   */\n      mstore\n        /* \"#utility.yul\":32130:32261   */\n      tag_759\n        /* \"#utility.yul\":32256:32260   */\n      dup2\n        /* \"#utility.yul\":32130:32261   */\n      tag_456\n      jump\t// in\n    tag_759:\n        /* \"#utility.yul\":32122:32261   */\n      swap1\n      pop\n        /* \"#utility.yul\":31849:32268   */\n      swap2\n      swap1\n      pop\n      jump\t// out\n        /* \"#utility.yul\":32274:32451   */\n    tag_457:\n        /* \"#utility.yul\":32414:32443   */\n      0x456c656374696f6e206973206e6f7420696e2070726f67726573730000000000\n        /* \"#utility.yul\":32410:32411   */\n      0x00\n        /* \"#utility.yul\":32402:32408   */\n      dup3\n        /* \"#utility.yul\":32398:32412   */\n      add\n        /* \"#utility.yul\":32391:32444   */\n      mstore\n        /* \"#utility.yul\":32274:32451   */\n      pop\n      jump\t// out\n        /* \"#utility.yul\":32457:32823   */\n    tag_458:\n        /* \"#utility.yul\":32599:32602   */\n      0x00\n        /* \"#utility.yul\":32620:32687   */\n      tag_762\n        /* \"#utility.yul\":32684:32686   */\n      0x1b\n        /* \"#utility.yul\":32679:32682   */\n      dup4\n        /* \"#utility.yul\":32620:32687   */\n      tag_393\n      jump\t// in\n    tag_762:\n        /* \"#utility.yul\":32613:32687   */\n      swap2\n      pop\n        /* \"#utility.yul\":32696:32789   */\n      tag_763\n        /* \"#utility.yul\":32785:32788   */\n      dup3\n        /* \"#utility.yul\":32696:32789   */\n      tag_457\n      jump\t// in\n    tag_763:\n        /* \"#utility.yul\":32814:32816   */\n      0x20\n        /* \"#utility.yul\":32809:32812   */\n      dup3\n        /* \"#utility.yul\":32805:32817   */\n      add\n        /* \"#utility.yul\":32798:32817   */\n      swap1\n      pop\n        /* \"#utility.yul\":32457:32823   */\n      swap2\n      swap1\n      pop\n      jump\t// out\n        /* \"#utility.yul\":32829:33248   */\n    tag_225:\n        /* \"#utility.yul\":32995:32999   */\n      0x00\n        /* \"#utility.yul\":33033:33035   */\n      0x20\n        /* \"#utility.yul\":33022:33031   */\n      dup3\n        /* \"#utility.yul\":33018:33036   */\n      add\n        /* \"#utility.yul\":33010:33036   */\n      swap1\n      pop\n        /* \"#utility.yul\":33082:33091   */\n      dup2\n        /* \"#utility.yul\":33076:33080   */\n      dup2\n        /* \"#utility.yul\":33072:33092   */\n      sub\n        /* \"#utility.yul\":33068:33069   */\n      0x00\n        /* \"#utility.yul\":33057:33066   */\n      dup4\n        /* \"#utility.yul\":33053:33070   */\n      add\n        /* \"#utility.yul\":33046:33093   */\n      mstore\n        /* \"#utility.yul\":33110:33241   */\n      tag_765\n        /* \"#utility.yul\":33236:33240   */\n      dup2\n        /* \"#utility.yul\":33110:33241   */\n      tag_458\n      jump\t// in\n    tag_765:\n        /* \"#utility.yul\":33102:33241   */\n      swap1\n      pop\n        /* \"#utility.yul\":32829:33248   */\n      swap2\n      swap1\n      pop\n      jump\t// out\n        /* \"#utility.yul\":33254:33429   */\n    tag_459:\n        /* \"#utility.yul\":33394:33421   */\n      0x456c656374696f6e206973207374696c6c206f6e676f696e6700000000000000\n        /* \"#utility.yul\":33390:33391   */\n      0x00\n        /* \"#utility.yul\":33382:33388   */\n      dup3\n        /* \"#utility.yul\":33378:33392   */\n      add\n        /* \"#utility.yul\":33371:33422   */\n      mstore\n        /* \"#utility.yul\":33254:33429   */\n      pop\n      jump\t// out\n        /* \"#utility.yul\":33435:33801   */\n    tag_460:\n        /* \"#utility.yul\":33577:33580   */\n      0x00\n        /* \"#utility.yul\":33598:33665   */\n      tag_768\n        /* \"#utility.yul\":33662:33664   */\n      0x19\n        /* \"#utility.yul\":33657:33660   */\n      dup4\n        /* \"#utility.yul\":33598:33665   */\n      tag_393\n      jump\t// in\n    tag_768:\n        /* \"#utility.yul\":33591:33665   */\n      swap2\n      pop\n        /* \"#utility.yul\":33674:33767   */\n      tag_769\n        /* \"#utility.yul\":33763:33766   */\n      dup3\n        /* \"#utility.yul\":33674:33767   */\n      tag_459\n      jump\t// in\n    tag_769:\n        /* \"#utility.yul\":33792:33794   */\n      0x20\n        /* \"#utility.yul\":33787:33790   */\n      dup3\n        /* \"#utility.yul\":33783:33795   */\n      add\n        /* \"#utility.yul\":33776:33795   */\n      swap1\n      pop\n        /* \"#utility.yul\":33435:33801   */\n      swap2\n      swap1\n      pop\n      jump\t// out\n        /* \"#utility.yul\":33807:34226   */\n    tag_236:\n        /* \"#utility.yul\":33973:33977   */\n      0x00\n        /* \"#utility.yul\":34011:34013   */\n      0x20\n        /* \"#utility.yul\":34000:34009   */\n      dup3\n        /* \"#utility.yul\":33996:34014   */\n      add\n        /* \"#utility.yul\":33988:34014   */\n      swap1\n      pop\n        /* \"#utility.yul\":34060:34069   */\n      dup2\n        /* \"#utility.yul\":34054:34058   */\n      dup2\n        /* \"#utility.yul\":34050:34070   */\n      sub\n        /* \"#utility.yul\":34046:34047   */\n      0x00\n        /* \"#utility.yul\":34035:34044   */\n      dup4\n        /* \"#utility.yul\":34031:34048   */\n      add\n        /* \"#utility.yul\":34024:34071   */\n      mstore\n        /* \"#utility.yul\":34088:34219   */\n      tag_771\n        /* \"#utility.yul\":34214:34218   */\n      dup2\n        /* \"#utility.yul\":34088:34219   */\n      tag_460\n      jump\t// in\n    tag_771:\n        /* \"#utility.yul\":34080:34219   */\n      swap1\n      pop\n        /* \"#utility.yul\":33807:34226   */\n      swap2\n      swap1\n      pop\n      jump\t// out\n        /* \"#utility.yul\":34232:34412   */\n    tag_461:\n        /* \"#utility.yul\":34372:34404   */\n      0x53656c662d64656c65676174696f6e206973206e6f7420616c6c6f7765640000\n        /* \"#utility.yul\":34368:34369   */\n      0x00\n        /* \"#utility.yul\":34360:34366   */\n      dup3\n        /* \"#utility.yul\":34356:34370   */\n      add\n        /* \"#utility.yul\":34349:34405   */\n      mstore\n        /* \"#utility.yul\":34232:34412   */\n      pop\n      jump\t// out\n        /* \"#utility.yul\":34418:34784   */\n    tag_462:\n        /* \"#utility.yul\":34560:34563   */\n      0x00\n        /* \"#utility.yul\":34581:34648   */\n      tag_774\n        /* \"#utility.yul\":34645:34647   */\n      0x1e\n        /* \"#utility.yul\":34640:34643   */\n      dup4\n        /* \"#utility.yul\":34581:34648   */\n      tag_393\n      jump\t// in\n    tag_774:\n        /* \"#utility.yul\":34574:34648   */\n      swap2\n      pop\n        /* \"#utility.yul\":34657:34750   */\n      tag_775\n        /* \"#utility.yul\":34746:34749   */\n      dup3\n        /* \"#utility.yul\":34657:34750   */\n      tag_461\n      jump\t// in\n    tag_775:\n        /* \"#utility.yul\":34775:34777   */\n      0x20\n        /* \"#utility.yul\":34770:34773   */\n      dup3\n        /* \"#utility.yul\":34766:34778   */\n      add\n        /* \"#utility.yul\":34759:34778   */\n      swap1\n      pop\n        /* \"#utility.yul\":34418:34784   */\n      swap2\n      swap1\n      pop\n      jump\t// out\n        /* \"#utility.yul\":34790:35209   */\n    tag_277:\n        /* \"#utility.yul\":34956:34960   */\n      0x00\n        /* \"#utility.yul\":34994:34996   */\n      0x20\n        /* \"#utility.yul\":34983:34992   */\n      dup3\n        /* \"#utility.yul\":34979:34997   */\n      add\n        /* \"#utility.yul\":34971:34997   */\n      swap1\n      pop\n        /* \"#utility.yul\":35043:35052   */\n      dup2\n        /* \"#utility.yul\":35037:35041   */\n      dup2\n        /* \"#utility.yul\":35033:35053   */\n      sub\n        /* \"#utility.yul\":35029:35030   */\n      0x00\n        /* \"#utility.yul\":35018:35027   */\n      dup4\n        /* \"#utility.yul\":35014:35031   */\n      add\n        /* \"#utility.yul\":35007:35054   */\n      mstore\n        /* \"#utility.yul\":35071:35202   */\n      tag_777\n        /* \"#utility.yul\":35197:35201   */\n      dup2\n        /* \"#utility.yul\":35071:35202   */\n      tag_462\n      jump\t// in\n    tag_777:\n        /* \"#utility.yul\":35063:35202   */\n      swap1\n      pop\n        /* \"#utility.yul\":34790:35209   */\n      swap2\n      swap1\n      pop\n      jump\t// out\n        /* \"#utility.yul\":35215:35441   */\n    tag_463:\n        /* \"#utility.yul\":35355:35389   */\n      0x455448204164647265737320697320616c726561647920616464656420617320\n        /* \"#utility.yul\":35351:35352   */\n      0x00\n        /* \"#utility.yul\":35343:35349   */\n      dup3\n        /* \"#utility.yul\":35339:35353   */\n      add\n        /* \"#utility.yul\":35332:35390   */\n      mstore\n        /* \"#utility.yul\":35424:35433   */\n      0x6120766f74657200000000000000000000000000000000000000000000000000\n        /* \"#utility.yul\":35419:35421   */\n      0x20\n        /* \"#utility.yul\":35411:35417   */\n      dup3\n        /* \"#utility.yul\":35407:35422   */\n      add\n        /* \"#utility.yul\":35400:35434   */\n      mstore\n        /* \"#utility.yul\":35215:35441   */\n      pop\n      jump\t// out\n        /* \"#utility.yul\":35447:35813   */\n    tag_464:\n        /* \"#utility.yul\":35589:35592   */\n      0x00\n        /* \"#utility.yul\":35610:35677   */\n      tag_780\n        /* \"#utility.yul\":35674:35676   */\n      0x27\n        /* \"#utility.yul\":35669:35672   */\n      dup4\n        /* \"#utility.yul\":35610:35677   */\n      tag_393\n      jump\t// in\n    tag_780:\n        /* \"#utility.yul\":35603:35677   */\n      swap2\n      pop\n        /* \"#utility.yul\":35686:35779   */\n      tag_781\n        /* \"#utility.yul\":35775:35778   */\n      dup3\n        /* \"#utility.yul\":35686:35779   */\n      tag_463\n      jump\t// in\n    tag_781:\n        /* \"#utility.yul\":35804:35806   */\n      0x40\n        /* \"#utility.yul\":35799:35802   */\n      dup3\n        /* \"#utility.yul\":35795:35807   */\n      add\n        /* \"#utility.yul\":35788:35807   */\n      swap1\n      pop\n        /* \"#utility.yul\":35447:35813   */\n      swap2\n      swap1\n      pop\n      jump\t// out\n        /* \"#utility.yul\":35819:36238   */\n    tag_326:\n        /* \"#utility.yul\":35985:35989   */\n      0x00\n        /* \"#utility.yul\":36023:36025   */\n      0x20\n        /* \"#utility.yul\":36012:36021   */\n      dup3\n        /* \"#utility.yul\":36008:36026   */\n      add\n        /* \"#utility.yul\":36000:36026   */\n      swap1\n      pop\n        /* \"#utility.yul\":36072:36081   */\n      dup2\n        /* \"#utility.yul\":36066:36070   */\n      dup2\n        /* \"#utility.yul\":36062:36082   */\n      sub\n        /* \"#utility.yul\":36058:36059   */\n      0x00\n        /* \"#utility.yul\":36047:36056   */\n      dup4\n        /* \"#utility.yul\":36043:36060   */\n      add\n        /* \"#utility.yul\":36036:36083   */\n      mstore\n        /* \"#utility.yul\":36100:36231   */\n      tag_783\n        /* \"#utility.yul\":36226:36230   */\n      dup2\n        /* \"#utility.yul\":36100:36231   */\n      tag_464\n      jump\t// in\n    tag_783:\n        /* \"#utility.yul\":36092:36231   */\n      swap1\n      pop\n        /* \"#utility.yul\":35819:36238   */\n      swap2\n      swap1\n      pop\n      jump\t// out\n        /* \"#utility.yul\":36244:36476   */\n    tag_465:\n        /* \"#utility.yul\":36384:36418   */\n      0x566f74657220776974682073616d65206164647265737320697320616c726561\n        /* \"#utility.yul\":36380:36381   */\n      0x00\n        /* \"#utility.yul\":36372:36378   */\n      dup3\n        /* \"#utility.yul\":36368:36382   */\n      add\n        /* \"#utility.yul\":36361:36419   */\n      mstore\n        /* \"#utility.yul\":36453:36468   */\n      0x6479207265676973746572656400000000000000000000000000000000000000\n        /* \"#utility.yul\":36448:36450   */\n      0x20\n        /* \"#utility.yul\":36440:36446   */\n      dup3\n        /* \"#utility.yul\":36436:36451   */\n      add\n        /* \"#utility.yul\":36429:36469   */\n      mstore\n        /* \"#utility.yul\":36244:36476   */\n      pop\n      jump\t// out\n        /* \"#utility.yul\":36482:36848   */\n    tag_466:\n        /* \"#utility.yul\":36624:36627   */\n      0x00\n        /* \"#utility.yul\":36645:36712   */\n      tag_786\n        /* \"#utility.yul\":36709:36711   */\n      0x2d\n        /* \"#utility.yul\":36704:36707   */\n      dup4\n        /* \"#utility.yul\":36645:36712   */\n      tag_393\n      jump\t// in\n    tag_786:\n        /* \"#utility.yul\":36638:36712   */\n      swap2\n      pop\n        /* \"#utility.yul\":36721:36814   */\n      tag_787\n        /* \"#utility.yul\":36810:36813   */\n      dup3\n        /* \"#utility.yul\":36721:36814   */\n      tag_465\n      jump\t// in\n    tag_787:\n        /* \"#utility.yul\":36839:36841   */\n      0x40\n        /* \"#utility.yul\":36834:36837   */\n      dup3\n        /* \"#utility.yul\":36830:36842   */\n      add\n        /* \"#utility.yul\":36823:36842   */\n      swap1\n      pop\n        /* \"#utility.yul\":36482:36848   */\n      swap2\n      swap1\n      pop\n      jump\t// out\n        /* \"#utility.yul\":36854:37273   */\n    tag_335:\n        /* \"#utility.yul\":37020:37024   */\n      0x00\n        /* \"#utility.yul\":37058:37060   */\n      0x20\n        /* \"#utility.yul\":37047:37056   */\n      dup3\n        /* \"#utility.yul\":37043:37061   */\n      add\n        /* \"#utility.yul\":37035:37061   */\n      swap1\n      pop\n        /* \"#utility.yul\":37107:37116   */\n      dup2\n        /* \"#utility.yul\":37101:37105   */\n      dup2\n        /* \"#utility.yul\":37097:37117   */\n      sub\n        /* \"#utility.yul\":37093:37094   */\n      0x00\n        /* \"#utility.yul\":37082:37091   */\n      dup4\n        /* \"#utility.yul\":37078:37095   */\n      add\n        /* \"#utility.yul\":37071:37118   */\n      mstore\n        /* \"#utility.yul\":37135:37266   */\n      tag_789\n        /* \"#utility.yul\":37261:37265   */\n      dup2\n        /* \"#utility.yul\":37135:37266   */\n      tag_466\n      jump\t// in\n    tag_789:\n        /* \"#utility.yul\":37127:37266   */\n      swap1\n      pop\n        /* \"#utility.yul\":36854:37273   */\n      swap2\n      swap1\n      pop\n      jump\t// out\n        /* \"#utility.yul\":37279:37509   */\n    tag_467:\n        /* \"#utility.yul\":37419:37453   */\n      0x566f7465722077697468207468652073616d65206e616d6520697320616c7265\n        /* \"#utility.yul\":37415:37416   */\n      0x00\n        /* \"#utility.yul\":37407:37413   */\n      dup3\n        /* \"#utility.yul\":37403:37417   */\n      add\n        /* \"#utility.yul\":37396:37454   */\n      mstore\n        /* \"#utility.yul\":37488:37501   */\n      0x6164792070726573656e74000000000000000000000000000000000000000000\n        /* \"#utility.yul\":37483:37485   */\n      0x20\n        /* \"#utility.yul\":37475:37481   */\n      dup3\n        /* \"#utility.yul\":37471:37486   */\n      add\n        /* \"#utility.yul\":37464:37502   */\n      mstore\n        /* \"#utility.yul\":37279:37509   */\n      pop\n      jump\t// out\n        /* \"#utility.yul\":37515:37881   */\n    tag_468:\n        /* \"#utility.yul\":37657:37660   */\n      0x00\n        /* \"#utility.yul\":37678:37745   */\n      tag_792\n        /* \"#utility.yul\":37742:37744   */\n      0x2b\n        /* \"#utility.yul\":37737:37740   */\n      dup4\n        /* \"#utility.yul\":37678:37745   */\n      tag_393\n      jump\t// in\n    tag_792:\n        /* \"#utility.yul\":37671:37745   */\n      swap2\n      pop\n        /* \"#utility.yul\":37754:37847   */\n      tag_793\n        /* \"#utility.yul\":37843:37846   */\n      dup3\n        /* \"#utility.yul\":37754:37847   */\n      tag_467\n      jump\t// in\n    tag_793:\n        /* \"#utility.yul\":37872:37874   */\n      0x40\n        /* \"#utility.yul\":37867:37870   */\n      dup3\n        /* \"#utility.yul\":37863:37875   */\n      add\n        /* \"#utility.yul\":37856:37875   */\n      swap1\n      pop\n        /* \"#utility.yul\":37515:37881   */\n      swap2\n      swap1\n      pop\n      jump\t// out\n        /* \"#utility.yul\":37887:38306   */\n    tag_339:\n        /* \"#utility.yul\":38053:38057   */\n      0x00\n        /* \"#utility.yul\":38091:38093   */\n      0x20\n        /* \"#utility.yul\":38080:38089   */\n      dup3\n        /* \"#utility.yul\":38076:38094   */\n      add\n        /* \"#utility.yul\":38068:38094   */\n      swap1\n      pop\n        /* \"#utility.yul\":38140:38149   */\n      dup2\n        /* \"#utility.yul\":38134:38138   */\n      dup2\n        /* \"#utility.yul\":38130:38150   */\n      sub\n        /* \"#utility.yul\":38126:38127   */\n      0x00\n        /* \"#utility.yul\":38115:38124   */\n      dup4\n        /* \"#utility.yul\":38111:38128   */\n      add\n        /* \"#utility.yul\":38104:38151   */\n      mstore\n        /* \"#utility.yul\":38168:38299   */\n      tag_795\n        /* \"#utility.yul\":38294:38298   */\n      dup2\n        /* \"#utility.yul\":38168:38299   */\n      tag_468\n      jump\t// in\n    tag_795:\n        /* \"#utility.yul\":38160:38299   */\n      swap1\n      pop\n        /* \"#utility.yul\":37887:38306   */\n      swap2\n      swap1\n      pop\n      jump\t// out\n\n    auxdata: 0xa26469706673582212203474084b1be1ec63832be035bfe49cd15fd05af05e543f72aa6b9ccf42e2f79364736f6c63430008120033\n}\n",
				"bytecode": {
					"linkReferences": {},
					"object": "608060405234801561001057600080fd5b50336000806101000a81548173ffffffffffffffffffffffffffffffffffffffff021916908373ffffffffffffffffffffffffffffffffffffffff16021790555060008060146101000a81548160ff02191690831515021790555060008060156101000a81548160ff021916908315150217905550613455806100946000396000f3fe608060405234801561001057600080fd5b506004361061012c5760003560e01c80638e7ea5b2116100ad578063d5346da111610071578063d5346da114610316578063d8a6f68f14610334578063d9e95a9814610366578063dd0e237314610382578063f851a440146103b25761012c565b80638e7ea5b21461026a578063a3ec138d1461028a578063b31e1d4d146102be578063c94ca9e3146102da578063cba5cf99146102f85761012c565b80633eb76b9c116100f45780633eb76b9c146101ec578063530178721461020857806355edc27a1461023857806359f784681461025657806362d73eb8146102605761012c565b806326541b561461013157806327f9fd501461014d57806330a563471461017f5780633477ee2e1461019d5780633ea70581146101d0575b600080fd5b61014b600480360381019061014691906122b5565b6103d0565b005b61016760048036038101906101629190612363565b6105e8565b6040516101769392919061241e565b60405180910390f35b6101876107b6565b6040516101949190612463565b60405180910390f35b6101b760048036038101906101b29190612363565b6107c3565b6040516101c7949392919061247e565b60405180910390f35b6101ea60048036038101906101e59190612363565b610913565b005b61020660048036038101906102019190612363565b610a72565b005b610222600480360381019061021d9190612363565b610c29565b60405161022f9190612463565b60405180910390f35b610240610c9f565b60405161024d91906126db565b60405180910390f35b61025e610f02565b005b610268611037565b005b610272611132565b604051610281939291906126fd565b60405180910390f35b6102a4600480360381019061029f9190612767565b611388565b6040516102b59594939291906127c1565b60405180910390f35b6102d860048036038101906102d39190612767565b611481565b005b6102e2611671565b6040516102ef919061281b565b60405180910390f35b610300611684565b60405161030d9190612962565b60405180910390f35b61031e6118f1565b60405161032b919061281b565b60405180910390f35b61034e60048036038101906103499190612767565b611904565b60405161035d93929190612984565b60405180910390f35b610380600480360381019061037b91906129c2565b611ad1565b005b61039c60048036038101906103979190612363565b611f14565b6040516103a99190612a1e565b60405180910390f35b6103ba611f53565b6040516103c79190612a1e565b60405180910390f35b60008054906101000a900473ffffffffffffffffffffffffffffffffffffffff1673ffffffffffffffffffffffffffffffffffffffff163373ffffffffffffffffffffffffffffffffffffffff161461045e576040517f08c379a000000000000000000000000000000000000000000000000000000000815260040161045590612aab565b60405180910390fd5b600060149054906101000a900460ff16156104ae576040517f08c379a00000000000000000000000000000000000000000000000000000000081526004016104a590612b17565b60405180910390fd5b60005b600280549050811015610553578280519060200120600282815481106104da576104d9612b37565b5b90600052602060002090600402016000016040516104f89190612c69565b604051809103902003610540576040517f08c379a000000000000000000000000000000000000000000000000000000000815260040161053790612ccc565b60405180910390fd5b808061054b90612d1b565b9150506104b1565b5060026040518060800160405280848152602001838152602001600081526020016000815250908060018154018082558091505060019003906000526020600020906004020160009091909190915060008201518160000190816105b79190612f0f565b5060208201518160010190816105cd9190612f0f565b50604082015181600201556060820151816003015550505050565b60006060806002805490508410610634576040517f08c379a000000000000000000000000000000000000000000000000000000000815260040161062b9061302d565b60405180910390fd5b60006002858154811061064a57610649612b37565b5b906000526020600020906004020160405180608001604052908160008201805461067390612b95565b80601f016020809104026020016040519081016040528092919081815260200182805461069f90612b95565b80156106ec5780601f106106c1576101008083540402835291602001916106ec565b820191906000526020600020905b8154815290600101906020018083116106cf57829003601f168201915b5050505050815260200160018201805461070590612b95565b80601f016020809104026020016040519081016040528092919081815260200182805461073190612b95565b801561077e5780601f106107535761010080835404028352916020019161077e565b820191906000526020600020905b81548152906001019060200180831161076157829003601f168201915b505050505081526020016002820154815260200160038201548152505090508481600001518260200151935093509350509193909250565b6000600280549050905090565b600281815481106107d357600080fd5b90600052602060002090600402016000915090508060000180546107f690612b95565b80601f016020809104026020016040519081016040528092919081815260200182805461082290612b95565b801561086f5780601f106108445761010080835404028352916020019161086f565b820191906000526020600020905b81548152906001019060200180831161085257829003601f168201915b50505050509080600101805461088490612b95565b80601f01602080910402602001604051908101604052809291908181526020018280546108b090612b95565b80156108fd5780601f106108d2576101008083540402835291602001916108fd565b820191906000526020600020905b8154815290600101906020018083116108e057829003601f168201915b5050505050908060020154908060030154905084565b600060149054906101000a900460ff16801561093c5750600060159054906101000a900460ff16155b61097b576040517f08c379a000000000000000000000000000000000000000000000000000000000815260040161097290613099565b60405180910390fd5b6000600160003373ffffffffffffffffffffffffffffffffffffffff1673ffffffffffffffffffffffffffffffffffffffff16815260200190815260200160002090506002805490508210610a05576040517f08c379a00000000000000000000000000000000000000000000000000000000081526004016109fc9061302d565b60405180910390fd5b60018160010160146101000a81548160ff02191690831515021790555081816002018190555060028281548110610a3f57610a3e612b37565b5b90600052602060002090600402016002016000815480929190610a6190612d1b565b9190505550610a6e611f77565b5050565b600060149054906101000a900460ff168015610a9b5750600060159054906101000a900460ff16155b610ada576040517f08c379a0000000000000000000000000000000000000000000000000000000008152600401610ad190613099565b60405180910390fd5b6000600160003373ffffffffffffffffffffffffffffffffffffffff1673ffffffffffffffffffffffffffffffffffffffff1681526020019081526020016000209050600015158160010160149054906101000a900460ff16151514610b75576040517f08c379a0000000000000000000000000000000000000000000000000000000008152600401610b6c90613105565b60405180910390fd5b6002805490508210610bbc576040517f08c379a0000000000000000000000000000000000000000000000000000000008152600401610bb39061302d565b60405180910390fd5b60018160010160146101000a81548160ff02191690831515021790555081816002018190555060028281548110610bf657610bf5612b37565b5b90600052602060002090600402016002016000815480929190610c1890612d1b565b9190505550610c25611f77565b5050565b60006002805490508210610c72576040517f08c379a0000000000000000000000000000000000000000000000000000000008152600401610c699061302d565b60405180910390fd5b60028281548110610c8657610c85612b37565b5b9060005260206000209060040201600201549050919050565b6060600060038054905067ffffffffffffffff811115610cc257610cc161218a565b5b604051908082528060200260200182016040528015610cfb57816020015b610ce86120e8565b815260200190600190039081610ce05790505b50905060005b600380549050811015610efa57600060038281548110610d2457610d23612b37565b5b9060005260206000200160009054906101000a900473ffffffffffffffffffffffffffffffffffffffff169050600160008273ffffffffffffffffffffffffffffffffffffffff1673ffffffffffffffffffffffffffffffffffffffff1681526020019081526020016000206040518060a0016040529081600082018054610dab90612b95565b80601f0160208091040260200160405190810160405280929190818152602001828054610dd790612b95565b8015610e245780601f10610df957610100808354040283529160200191610e24565b820191906000526020600020905b815481529060010190602001808311610e0757829003601f168201915b505050505081526020016001820160009054906101000a900473ffffffffffffffffffffffffffffffffffffffff1673ffffffffffffffffffffffffffffffffffffffff1673ffffffffffffffffffffffffffffffffffffffff1681526020016001820160149054906101000a900460ff16151515158152602001600282015481526020016003820160009054906101000a900461ffff1661ffff1661ffff1681525050838381518110610edb57610eda612b37565b5b6020026020010181905250508080610ef290612d1b565b915050610d01565b508091505090565b60008054906101000a900473ffffffffffffffffffffffffffffffffffffffff1673ffffffffffffffffffffffffffffffffffffffff163373ffffffffffffffffffffffffffffffffffffffff1614610f90576040517f08c379a0000000000000000000000000000000000000000000000000000000008152600401610f8790612aab565b60405180910390fd5b600060149054906101000a900460ff168015610fb95750600060159054906101000a900460ff16155b610ff8576040517f08c379a0000000000000000000000000000000000000000000000000000000008152600401610fef90613171565b60405180910390fd5b611000611f77565b6001600060156101000a81548160ff02191690831515021790555060008060146101000a81548160ff021916908315150217905550565b60008054906101000a900473ffffffffffffffffffffffffffffffffffffffff1673ffffffffffffffffffffffffffffffffffffffff163373ffffffffffffffffffffffffffffffffffffffff16146110c5576040517f08c379a00000000000000000000000000000000000000000000000000000000081526004016110bc90612aab565b60405180910390fd5b600060149054906101000a900460ff1615611115576040517f08c379a000000000000000000000000000000000000000000000000000000000815260040161110c90612b17565b60405180910390fd5b6001600060146101000a81548160ff021916908315150217905550565b6060600080600060159054906101000a900460ff16611186576040517f08c379a000000000000000000000000000000000000000000000000000000000815260040161117d906131dd565b60405180910390fd5b61118e612133565b6000805b60028054905081101561136f5781600282815481106111b4576111b3612b37565b5b906000526020600020906004020160020154111561135c57600281815481106111e0576111df612b37565b5b90600052602060002090600402016002015491506002818154811061120857611207612b37565b5b906000526020600020906004020160405180608001604052908160008201805461123190612b95565b80601f016020809104026020016040519081016040528092919081815260200182805461125d90612b95565b80156112aa5780601f1061127f576101008083540402835291602001916112aa565b820191906000526020600020905b81548152906001019060200180831161128d57829003601f168201915b505050505081526020016001820180546112c390612b95565b80601f01602080910402602001604051908101604052809291908181526020018280546112ef90612b95565b801561133c5780601f106113115761010080835404028352916020019161133c565b820191906000526020600020905b81548152906001019060200180831161131f57829003601f168201915b505050505081526020016002820154815260200160038201548152505092505b808061136790612d1b565b915050611192565b5081600001518183604001519450945094505050909192565b60016020528060005260406000206000915090508060000180546113ab90612b95565b80601f01602080910402602001604051908101604052809291908181526020018280546113d790612b95565b80156114245780601f106113f957610100808354040283529160200191611424565b820191906000526020600020905b81548152906001019060200180831161140757829003601f168201915b5050505050908060010160009054906101000a900473ffffffffffffffffffffffffffffffffffffffff16908060010160149054906101000a900460ff16908060020154908060030160009054906101000a900461ffff16905085565b600060149054906101000a900460ff1680156114aa5750600060159054906101000a900460ff16155b6114e9576040517f08c379a00000000000000000000000000000000000000000000000000000000081526004016114e090613099565b60405180910390fd5b60001515600160003373ffffffffffffffffffffffffffffffffffffffff1673ffffffffffffffffffffffffffffffffffffffff16815260200190815260200160002060010160149054906101000a900460ff1615151461157f576040517f08c379a000000000000000000000000000000000000000000000000000000000815260040161157690613105565b60405180910390fd5b3373ffffffffffffffffffffffffffffffffffffffff168173ffffffffffffffffffffffffffffffffffffffff16036115ed576040517f08c379a00000000000000000000000000000000000000000000000000000000081526004016115e490613249565b60405180910390fd5b80600160003373ffffffffffffffffffffffffffffffffffffffff1673ffffffffffffffffffffffffffffffffffffffff16815260200190815260200160002060010160006101000a81548173ffffffffffffffffffffffffffffffffffffffff021916908373ffffffffffffffffffffffffffffffffffffffff16021790555050565b600060159054906101000a900460ff1681565b6060600060028054905067ffffffffffffffff8111156116a7576116a661218a565b5b6040519080825280602002602001820160405280156116e057816020015b6116cd612133565b8152602001906001900390816116c55790505b50905060005b6002805490508110156118e95760405180608001604052806002838154811061171257611711612b37565b5b9060005260206000209060040201600001805461172e90612b95565b80601f016020809104026020016040519081016040528092919081815260200182805461175a90612b95565b80156117a75780601f1061177c576101008083540402835291602001916117a7565b820191906000526020600020905b81548152906001019060200180831161178a57829003601f168201915b50505050508152602001600283815481106117c5576117c4612b37565b5b906000526020600020906004020160010180546117e190612b95565b80601f016020809104026020016040519081016040528092919081815260200182805461180d90612b95565b801561185a5780601f1061182f5761010080835404028352916020019161185a565b820191906000526020600020905b81548152906001019060200180831161183d57829003601f168201915b505050505081526020016002838154811061187857611877612b37565b5b9060005260206000209060040201600201548152602001600283815481106118a3576118a2612b37565b5b9060005260206000209060040201600301548152508282815181106118cb576118ca612b37565b5b602002602001018190525080806118e190612d1b565b9150506116e6565b508091505090565b600060149054906101000a900460ff1681565b60606000806000600160008673ffffffffffffffffffffffffffffffffffffffff1673ffffffffffffffffffffffffffffffffffffffff1681526020019081526020016000206040518060a001604052908160008201805461196590612b95565b80601f016020809104026020016040519081016040528092919081815260200182805461199190612b95565b80156119de5780601f106119b3576101008083540402835291602001916119de565b820191906000526020600020905b8154815290600101906020018083116119c157829003601f168201915b505050505081526020016001820160009054906101000a900473ffffffffffffffffffffffffffffffffffffffff1673ffffffffffffffffffffffffffffffffffffffff1673ffffffffffffffffffffffffffffffffffffffff1681526020016001820160149054906101000a900460ff16151515158152602001600282015481526020016003820160009054906101000a900461ffff1661ffff1661ffff1681525050905080600001518160600151600073ffffffffffffffffffffffffffffffffffffffff16836020015173ffffffffffffffffffffffffffffffffffffffff161415935093509350509193909250565b60008054906101000a900473ffffffffffffffffffffffffffffffffffffffff1673ffffffffffffffffffffffffffffffffffffffff163373ffffffffffffffffffffffffffffffffffffffff1614611b5f576040517f08c379a0000000000000000000000000000000000000000000000000000000008152600401611b5690612aab565b60405180910390fd5b600060149054906101000a900460ff1615611baf576040517f08c379a0000000000000000000000000000000000000000000000000000000008152600401611ba690612b17565b60405180910390fd5b60001515600160008473ffffffffffffffffffffffffffffffffffffffff1673ffffffffffffffffffffffffffffffffffffffff16815260200190815260200160002060010160149054906101000a900460ff16151514611c45576040517f08c379a0000000000000000000000000000000000000000000000000000000008152600401611c3c906132db565b60405180910390fd5b60005b600380549050811015611db957600060038281548110611c6b57611c6a612b37565b5b9060005260206000200160009054906101000a900473ffffffffffffffffffffffffffffffffffffffff1690508373ffffffffffffffffffffffffffffffffffffffff168173ffffffffffffffffffffffffffffffffffffffff1603611d06576040517f08c379a0000000000000000000000000000000000000000000000000000000008152600401611cfd9061336d565b60405180910390fd5b8280519060200120600160008373ffffffffffffffffffffffffffffffffffffffff1673ffffffffffffffffffffffffffffffffffffffff168152602001908152602001600020600001604051611d5d9190612c69565b604051809103902003611da5576040517f08c379a0000000000000000000000000000000000000000000000000000000008152600401611d9c906133ff565b60405180910390fd5b508080611db190612d1b565b915050611c48565b5080600160008473ffffffffffffffffffffffffffffffffffffffff1673ffffffffffffffffffffffffffffffffffffffff1681526020019081526020016000206000019081611e099190612f0f565b506000600160008473ffffffffffffffffffffffffffffffffffffffff1673ffffffffffffffffffffffffffffffffffffffff16815260200190815260200160002060010160146101000a81548160ff0219169083151502179055506000600160008473ffffffffffffffffffffffffffffffffffffffff1673ffffffffffffffffffffffffffffffffffffffff168152602001908152602001600020600201819055506003829080600181540180825580915050600190039060005260206000200160009091909190916101000a81548173ffffffffffffffffffffffffffffffffffffffff021916908373ffffffffffffffffffffffffffffffffffffffff1602179055505050565b60038181548110611f2457600080fd5b906000526020600020016000915054906101000a900473ffffffffffffffffffffffffffffffffffffffff1681565b60008054906101000a900473ffffffffffffffffffffffffffffffffffffffff1681565b6000600190506000805b6002805490508110156120e3578160028281548110611fa357611fa2612b37565b5b90600052602060002090600402016002015411156120125760028181548110611fcf57611fce612b37565b5b90600052602060002090600402016002015491508260028281548110611ff857611ff7612b37565b5b9060005260206000209060040201600301819055506120d0565b816002828154811061202757612026612b37565b5b90600052602060002090600402016002015410156120a4576002818154811061205357612052612b37565b5b9060005260206000209060040201600201549150828061207290612d1b565b935050826002828154811061208a57612089612b37565b5b9060005260206000209060040201600301819055506120cf565b82600282815481106120b9576120b8612b37565b5b9060005260206000209060040201600301819055505b5b80806120db90612d1b565b915050611f81565b505050565b6040518060a0016040528060608152602001600073ffffffffffffffffffffffffffffffffffffffff16815260200160001515815260200160008152602001600061ffff1681525090565b6040518060800160405280606081526020016060815260200160008152602001600081525090565b6000604051905090565b600080fd5b600080fd5b600080fd5b600080fd5b6000601f19601f8301169050919050565b7f4e487b7100000000000000000000000000000000000000000000000000000000600052604160045260246000fd5b6121c282612179565b810181811067ffffffffffffffff821117156121e1576121e061218a565b5b80604052505050565b60006121f461215b565b905061220082826121b9565b919050565b600067ffffffffffffffff8211156122205761221f61218a565b5b61222982612179565b9050602081019050919050565b82818337600083830152505050565b600061225861225384612205565b6121ea565b90508281526020810184848401111561227457612273612174565b5b61227f848285612236565b509392505050565b600082601f83011261229c5761229b61216f565b5b81356122ac848260208601612245565b91505092915050565b600080604083850312156122cc576122cb612165565b5b600083013567ffffffffffffffff8111156122ea576122e961216a565b5b6122f685828601612287565b925050602083013567ffffffffffffffff8111156123175761231661216a565b5b61232385828601612287565b9150509250929050565b6000819050919050565b6123408161232d565b811461234b57600080fd5b50565b60008135905061235d81612337565b92915050565b60006020828403121561237957612378612165565b5b60006123878482850161234e565b91505092915050565b6123998161232d565b82525050565b600081519050919050565b600082825260208201905092915050565b60005b838110156123d95780820151818401526020810190506123be565b60008484015250505050565b60006123f08261239f565b6123fa81856123aa565b935061240a8185602086016123bb565b61241381612179565b840191505092915050565b60006060820190506124336000830186612390565b818103602083015261244581856123e5565b9050818103604083015261245981846123e5565b9050949350505050565b60006020820190506124786000830184612390565b92915050565b6000608082019050818103600083015261249881876123e5565b905081810360208301526124ac81866123e5565b90506124bb6040830185612390565b6124c86060830184612390565b95945050505050565b600081519050919050565b600082825260208201905092915050565b6000819050602082019050919050565b600082825260208201905092915050565b60006125198261239f565b61252381856124fd565b93506125338185602086016123bb565b61253c81612179565b840191505092915050565b600073ffffffffffffffffffffffffffffffffffffffff82169050919050565b600061257282612547565b9050919050565b61258281612567565b82525050565b60008115159050919050565b61259d81612588565b82525050565b6125ac8161232d565b82525050565b600061ffff82169050919050565b6125c9816125b2565b82525050565b600060a08301600083015184820360008601526125ec828261250e565b91505060208301516126016020860182612579565b5060408301516126146040860182612594565b50606083015161262760608601826125a3565b50608083015161263a60808601826125c0565b508091505092915050565b600061265183836125cf565b905092915050565b6000602082019050919050565b6000612671826124d1565b61267b81856124dc565b93508360208202850161268d856124ed565b8060005b858110156126c957848403895281516126aa8582612645565b94506126b583612659565b925060208a01995050600181019050612691565b50829750879550505050505092915050565b600060208201905081810360008301526126f58184612666565b905092915050565b6000606082019050818103600083015261271781866123e5565b90506127266020830185612390565b6127336040830184612390565b949350505050565b61274481612567565b811461274f57600080fd5b50565b6000813590506127618161273b565b92915050565b60006020828403121561277d5761277c612165565b5b600061278b84828501612752565b91505092915050565b61279d81612567565b82525050565b6127ac81612588565b82525050565b6127bb816125b2565b82525050565b600060a08201905081810360008301526127db81886123e5565b90506127ea6020830187612794565b6127f760408301866127a3565b6128046060830185612390565b61281160808301846127b2565b9695505050505050565b600060208201905061283060008301846127a3565b92915050565b600081519050919050565b600082825260208201905092915050565b6000819050602082019050919050565b6000608083016000830151848203600086015261287f828261250e565b91505060208301518482036020860152612899828261250e565b91505060408301516128ae60408601826125a3565b5060608301516128c160608601826125a3565b508091505092915050565b60006128d88383612862565b905092915050565b6000602082019050919050565b60006128f882612836565b6129028185612841565b93508360208202850161291485612852565b8060005b85811015612950578484038952815161293185826128cc565b945061293c836128e0565b925060208a01995050600181019050612918565b50829750879550505050505092915050565b6000602082019050818103600083015261297c81846128ed565b905092915050565b6000606082019050818103600083015261299e81866123e5565b90506129ad6020830185612390565b6129ba60408301846127a3565b949350505050565b600080604083850312156129d9576129d8612165565b5b60006129e785828601612752565b925050602083013567ffffffffffffffff811115612a0857612a0761216a565b5b612a1485828601612287565b9150509250929050565b6000602082019050612a336000830184612794565b92915050565b7f4f6e6c79207468652061646d696e2063616e20706572666f726d20746869732060008201527f616374696f6e0000000000000000000000000000000000000000000000000000602082015250565b6000612a956026836123aa565b9150612aa082612a39565b604082019050919050565b60006020820190508181036000830152612ac481612a88565b9050919050565b7f456c656374696f6e2068617320616c7265616479207374617274656400000000600082015250565b6000612b01601c836123aa565b9150612b0c82612acb565b602082019050919050565b60006020820190508181036000830152612b3081612af4565b9050919050565b7f4e487b7100000000000000000000000000000000000000000000000000000000600052603260045260246000fd5b7f4e487b7100000000000000000000000000000000000000000000000000000000600052602260045260246000fd5b60006002820490506001821680612bad57607f821691505b602082108103612bc057612bbf612b66565b5b50919050565b600081905092915050565b60008190508160005260206000209050919050565b60008154612bf381612b95565b612bfd8186612bc6565b94506001821660008114612c185760018114612c2d57612c60565b60ff1983168652811515820286019350612c60565b612c3685612bd1565b60005b83811015612c5857815481890152600182019150602081019050612c39565b838801955050505b50505092915050565b6000612c758284612be6565b915081905092915050565b7f43616e64696461746520697320616c7265616479206164646564000000000000600082015250565b6000612cb6601a836123aa565b9150612cc182612c80565b602082019050919050565b60006020820190508181036000830152612ce581612ca9565b9050919050565b7f4e487b7100000000000000000000000000000000000000000000000000000000600052601160045260246000fd5b6000612d268261232d565b91507fffffffffffffffffffffffffffffffffffffffffffffffffffffffffffffffff8203612d5857612d57612cec565b5b600182019050919050565b60008190508160005260206000209050919050565b60006020601f8301049050919050565b600082821b905092915050565b600060088302612dc57fffffffffffffffffffffffffffffffffffffffffffffffffffffffffffffffff82612d88565b612dcf8683612d88565b95508019841693508086168417925050509392505050565b6000819050919050565b6000612e0c612e07612e028461232d565b612de7565b61232d565b9050919050565b6000819050919050565b612e2683612df1565b612e3a612e3282612e13565b848454612d95565b825550505050565b600090565b612e4f612e42565b612e5a818484612e1d565b505050565b5b81811015612e7e57612e73600082612e47565b600181019050612e60565b5050565b601f821115612ec357612e9481612d63565b612e9d84612d78565b81016020851015612eac578190505b612ec0612eb885612d78565b830182612e5f565b50505b505050565b600082821c905092915050565b6000612ee660001984600802612ec8565b1980831691505092915050565b6000612eff8383612ed5565b9150826002028217905092915050565b612f188261239f565b67ffffffffffffffff811115612f3157612f3061218a565b5b612f3b8254612b95565b612f46828285612e82565b600060209050601f831160018114612f795760008415612f67578287015190505b612f718582612ef3565b865550612fd9565b601f198416612f8786612d63565b60005b82811015612faf57848901518255600182019150602085019450602081019050612f8a565b86831015612fcc5784890151612fc8601f891682612ed5565b8355505b6001600288020188555050505b505050505050565b7f496e76616c69642063616e646964617465204944000000000000000000000000600082015250565b60006130176014836123aa565b915061302282612fe1565b602082019050919050565b600060208201905081810360008301526130468161300a565b9050919050565b7f456c656374696f6e206973207374696c6c20696e2070726f6772657373000000600082015250565b6000613083601d836123aa565b915061308e8261304d565b602082019050919050565b600060208201905081810360008301526130b281613076565b9050919050565b7f596f75206861766520616c726561647920766f74656400000000000000000000600082015250565b60006130ef6016836123aa565b91506130fa826130b9565b602082019050919050565b6000602082019050818103600083015261311e816130e2565b9050919050565b7f456c656374696f6e206973206e6f7420696e2070726f67726573730000000000600082015250565b600061315b601b836123aa565b915061316682613125565b602082019050919050565b6000602082019050818103600083015261318a8161314e565b9050919050565b7f456c656374696f6e206973207374696c6c206f6e676f696e6700000000000000600082015250565b60006131c76019836123aa565b91506131d282613191565b602082019050919050565b600060208201905081810360008301526131f6816131ba565b9050919050565b7f53656c662d64656c65676174696f6e206973206e6f7420616c6c6f7765640000600082015250565b6000613233601e836123aa565b915061323e826131fd565b602082019050919050565b6000602082019050818103600083015261326281613226565b9050919050565b7f455448204164647265737320697320616c72656164792061646465642061732060008201527f6120766f74657200000000000000000000000000000000000000000000000000602082015250565b60006132c56027836123aa565b91506132d082613269565b604082019050919050565b600060208201905081810360008301526132f4816132b8565b9050919050565b7f566f74657220776974682073616d65206164647265737320697320616c72656160008201527f6479207265676973746572656400000000000000000000000000000000000000602082015250565b6000613357602d836123aa565b9150613362826132fb565b604082019050919050565b600060208201905081810360008301526133868161334a565b9050919050565b7f566f7465722077697468207468652073616d65206e616d6520697320616c726560008201527f6164792070726573656e74000000000000000000000000000000000000000000602082015250565b60006133e9602b836123aa565b91506133f48261338d565b604082019050919050565b60006020820190508181036000830152613418816133dc565b905091905056fea26469706673582212203474084b1be1ec63832be035bfe49cd15fd05af05e543f72aa6b9ccf42e2f79364736f6c63430008120033",
					"opcodes": "PUSH1 0x80 PUSH1 0x40 MSTORE CALLVALUE DUP1 ISZERO PUSH2 0x10 JUMPI PUSH1 0x0 DUP1 REVERT JUMPDEST POP CALLER PUSH1 0x0 DUP1 PUSH2 0x100 EXP DUP2 SLOAD DUP2 PUSH20 0xFFFFFFFFFFFFFFFFFFFFFFFFFFFFFFFFFFFFFFFF MUL NOT AND SWAP1 DUP4 PUSH20 0xFFFFFFFFFFFFFFFFFFFFFFFFFFFFFFFFFFFFFFFF AND MUL OR SWAP1 SSTORE POP PUSH1 0x0 DUP1 PUSH1 0x14 PUSH2 0x100 EXP DUP2 SLOAD DUP2 PUSH1 0xFF MUL NOT AND SWAP1 DUP4 ISZERO ISZERO MUL OR SWAP1 SSTORE POP PUSH1 0x0 DUP1 PUSH1 0x15 PUSH2 0x100 EXP DUP2 SLOAD DUP2 PUSH1 0xFF MUL NOT AND SWAP1 DUP4 ISZERO ISZERO MUL OR SWAP1 SSTORE POP PUSH2 0x3455 DUP1 PUSH2 0x94 PUSH1 0x0 CODECOPY PUSH1 0x0 RETURN INVALID PUSH1 0x80 PUSH1 0x40 MSTORE CALLVALUE DUP1 ISZERO PUSH2 0x10 JUMPI PUSH1 0x0 DUP1 REVERT JUMPDEST POP PUSH1 0x4 CALLDATASIZE LT PUSH2 0x12C JUMPI PUSH1 0x0 CALLDATALOAD PUSH1 0xE0 SHR DUP1 PUSH4 0x8E7EA5B2 GT PUSH2 0xAD JUMPI DUP1 PUSH4 0xD5346DA1 GT PUSH2 0x71 JUMPI DUP1 PUSH4 0xD5346DA1 EQ PUSH2 0x316 JUMPI DUP1 PUSH4 0xD8A6F68F EQ PUSH2 0x334 JUMPI DUP1 PUSH4 0xD9E95A98 EQ PUSH2 0x366 JUMPI DUP1 PUSH4 0xDD0E2373 EQ PUSH2 0x382 JUMPI DUP1 PUSH4 0xF851A440 EQ PUSH2 0x3B2 JUMPI PUSH2 0x12C JUMP JUMPDEST DUP1 PUSH4 0x8E7EA5B2 EQ PUSH2 0x26A JUMPI DUP1 PUSH4 0xA3EC138D EQ PUSH2 0x28A JUMPI DUP1 PUSH4 0xB31E1D4D EQ PUSH2 0x2BE JUMPI DUP1 PUSH4 0xC94CA9E3 EQ PUSH2 0x2DA JUMPI DUP1 PUSH4 0xCBA5CF99 EQ PUSH2 0x2F8 JUMPI PUSH2 0x12C JUMP JUMPDEST DUP1 PUSH4 0x3EB76B9C GT PUSH2 0xF4 JUMPI DUP1 PUSH4 0x3EB76B9C EQ PUSH2 0x1EC JUMPI DUP1 PUSH4 0x53017872 EQ PUSH2 0x208 JUMPI DUP1 PUSH4 0x55EDC27A EQ PUSH2 0x238 JUMPI DUP1 PUSH4 0x59F78468 EQ PUSH2 0x256 JUMPI DUP1 PUSH4 0x62D73EB8 EQ PUSH2 0x260 JUMPI PUSH2 0x12C JUMP JUMPDEST DUP1 PUSH4 0x26541B56 EQ PUSH2 0x131 JUMPI DUP1 PUSH4 0x27F9FD50 EQ PUSH2 0x14D JUMPI DUP1 PUSH4 0x30A56347 EQ PUSH2 0x17F JUMPI DUP1 PUSH4 0x3477EE2E EQ PUSH2 0x19D JUMPI DUP1 PUSH4 0x3EA70581 EQ PUSH2 0x1D0 JUMPI JUMPDEST PUSH1 0x0 DUP1 REVERT JUMPDEST PUSH2 0x14B PUSH1 0x4 DUP1 CALLDATASIZE SUB DUP2 ADD SWAP1 PUSH2 0x146 SWAP2 SWAP1 PUSH2 0x22B5 JUMP JUMPDEST PUSH2 0x3D0 JUMP JUMPDEST STOP JUMPDEST PUSH2 0x167 PUSH1 0x4 DUP1 CALLDATASIZE SUB DUP2 ADD SWAP1 PUSH2 0x162 SWAP2 SWAP1 PUSH2 0x2363 JUMP JUMPDEST PUSH2 0x5E8 JUMP JUMPDEST PUSH1 0x40 MLOAD PUSH2 0x176 SWAP4 SWAP3 SWAP2 SWAP1 PUSH2 0x241E JUMP JUMPDEST PUSH1 0x40 MLOAD DUP1 SWAP2 SUB SWAP1 RETURN JUMPDEST PUSH2 0x187 PUSH2 0x7B6 JUMP JUMPDEST PUSH1 0x40 MLOAD PUSH2 0x194 SWAP2 SWAP1 PUSH2 0x2463 JUMP JUMPDEST PUSH1 0x40 MLOAD DUP1 SWAP2 SUB SWAP1 RETURN JUMPDEST PUSH2 0x1B7 PUSH1 0x4 DUP1 CALLDATASIZE SUB DUP2 ADD SWAP1 PUSH2 0x1B2 SWAP2 SWAP1 PUSH2 0x2363 JUMP JUMPDEST PUSH2 0x7C3 JUMP JUMPDEST PUSH1 0x40 MLOAD PUSH2 0x1C7 SWAP5 SWAP4 SWAP3 SWAP2 SWAP1 PUSH2 0x247E JUMP JUMPDEST PUSH1 0x40 MLOAD DUP1 SWAP2 SUB SWAP1 RETURN JUMPDEST PUSH2 0x1EA PUSH1 0x4 DUP1 CALLDATASIZE SUB DUP2 ADD SWAP1 PUSH2 0x1E5 SWAP2 SWAP1 PUSH2 0x2363 JUMP JUMPDEST PUSH2 0x913 JUMP JUMPDEST STOP JUMPDEST PUSH2 0x206 PUSH1 0x4 DUP1 CALLDATASIZE SUB DUP2 ADD SWAP1 PUSH2 0x201 SWAP2 SWAP1 PUSH2 0x2363 JUMP JUMPDEST PUSH2 0xA72 JUMP JUMPDEST STOP JUMPDEST PUSH2 0x222 PUSH1 0x4 DUP1 CALLDATASIZE SUB DUP2 ADD SWAP1 PUSH2 0x21D SWAP2 SWAP1 PUSH2 0x2363 JUMP JUMPDEST PUSH2 0xC29 JUMP JUMPDEST PUSH1 0x40 MLOAD PUSH2 0x22F SWAP2 SWAP1 PUSH2 0x2463 JUMP JUMPDEST PUSH1 0x40 MLOAD DUP1 SWAP2 SUB SWAP1 RETURN JUMPDEST PUSH2 0x240 PUSH2 0xC9F JUMP JUMPDEST PUSH1 0x40 MLOAD PUSH2 0x24D SWAP2 SWAP1 PUSH2 0x26DB JUMP JUMPDEST PUSH1 0x40 MLOAD DUP1 SWAP2 SUB SWAP1 RETURN JUMPDEST PUSH2 0x25E PUSH2 0xF02 JUMP JUMPDEST STOP JUMPDEST PUSH2 0x268 PUSH2 0x1037 JUMP JUMPDEST STOP JUMPDEST PUSH2 0x272 PUSH2 0x1132 JUMP JUMPDEST PUSH1 0x40 MLOAD PUSH2 0x281 SWAP4 SWAP3 SWAP2 SWAP1 PUSH2 0x26FD JUMP JUMPDEST PUSH1 0x40 MLOAD DUP1 SWAP2 SUB SWAP1 RETURN JUMPDEST PUSH2 0x2A4 PUSH1 0x4 DUP1 CALLDATASIZE SUB DUP2 ADD SWAP1 PUSH2 0x29F SWAP2 SWAP1 PUSH2 0x2767 JUMP JUMPDEST PUSH2 0x1388 JUMP JUMPDEST PUSH1 0x40 MLOAD PUSH2 0x2B5 SWAP6 SWAP5 SWAP4 SWAP3 SWAP2 SWAP1 PUSH2 0x27C1 JUMP JUMPDEST PUSH1 0x40 MLOAD DUP1 SWAP2 SUB SWAP1 RETURN JUMPDEST PUSH2 0x2D8 PUSH1 0x4 DUP1 CALLDATASIZE SUB DUP2 ADD SWAP1 PUSH2 0x2D3 SWAP2 SWAP1 PUSH2 0x2767 JUMP JUMPDEST PUSH2 0x1481 JUMP JUMPDEST STOP JUMPDEST PUSH2 0x2E2 PUSH2 0x1671 JUMP JUMPDEST PUSH1 0x40 MLOAD PUSH2 0x2EF SWAP2 SWAP1 PUSH2 0x281B JUMP JUMPDEST PUSH1 0x40 MLOAD DUP1 SWAP2 SUB SWAP1 RETURN JUMPDEST PUSH2 0x300 PUSH2 0x1684 JUMP JUMPDEST PUSH1 0x40 MLOAD PUSH2 0x30D SWAP2 SWAP1 PUSH2 0x2962 JUMP JUMPDEST PUSH1 0x40 MLOAD DUP1 SWAP2 SUB SWAP1 RETURN JUMPDEST PUSH2 0x31E PUSH2 0x18F1 JUMP JUMPDEST PUSH1 0x40 MLOAD PUSH2 0x32B SWAP2 SWAP1 PUSH2 0x281B JUMP JUMPDEST PUSH1 0x40 MLOAD DUP1 SWAP2 SUB SWAP1 RETURN JUMPDEST PUSH2 0x34E PUSH1 0x4 DUP1 CALLDATASIZE SUB DUP2 ADD SWAP1 PUSH2 0x349 SWAP2 SWAP1 PUSH2 0x2767 JUMP JUMPDEST PUSH2 0x1904 JUMP JUMPDEST PUSH1 0x40 MLOAD PUSH2 0x35D SWAP4 SWAP3 SWAP2 SWAP1 PUSH2 0x2984 JUMP JUMPDEST PUSH1 0x40 MLOAD DUP1 SWAP2 SUB SWAP1 RETURN JUMPDEST PUSH2 0x380 PUSH1 0x4 DUP1 CALLDATASIZE SUB DUP2 ADD SWAP1 PUSH2 0x37B SWAP2 SWAP1 PUSH2 0x29C2 JUMP JUMPDEST PUSH2 0x1AD1 JUMP JUMPDEST STOP JUMPDEST PUSH2 0x39C PUSH1 0x4 DUP1 CALLDATASIZE SUB DUP2 ADD SWAP1 PUSH2 0x397 SWAP2 SWAP1 PUSH2 0x2363 JUMP JUMPDEST PUSH2 0x1F14 JUMP JUMPDEST PUSH1 0x40 MLOAD PUSH2 0x3A9 SWAP2 SWAP1 PUSH2 0x2A1E JUMP JUMPDEST PUSH1 0x40 MLOAD DUP1 SWAP2 SUB SWAP1 RETURN JUMPDEST PUSH2 0x3BA PUSH2 0x1F53 JUMP JUMPDEST PUSH1 0x40 MLOAD PUSH2 0x3C7 SWAP2 SWAP1 PUSH2 0x2A1E JUMP JUMPDEST PUSH1 0x40 MLOAD DUP1 SWAP2 SUB SWAP1 RETURN JUMPDEST PUSH1 0x0 DUP1 SLOAD SWAP1 PUSH2 0x100 EXP SWAP1 DIV PUSH20 0xFFFFFFFFFFFFFFFFFFFFFFFFFFFFFFFFFFFFFFFF AND PUSH20 0xFFFFFFFFFFFFFFFFFFFFFFFFFFFFFFFFFFFFFFFF AND CALLER PUSH20 0xFFFFFFFFFFFFFFFFFFFFFFFFFFFFFFFFFFFFFFFF AND EQ PUSH2 0x45E JUMPI PUSH1 0x40 MLOAD PUSH32 0x8C379A000000000000000000000000000000000000000000000000000000000 DUP2 MSTORE PUSH1 0x4 ADD PUSH2 0x455 SWAP1 PUSH2 0x2AAB JUMP JUMPDEST PUSH1 0x40 MLOAD DUP1 SWAP2 SUB SWAP1 REVERT JUMPDEST PUSH1 0x0 PUSH1 0x14 SWAP1 SLOAD SWAP1 PUSH2 0x100 EXP SWAP1 DIV PUSH1 0xFF AND ISZERO PUSH2 0x4AE JUMPI PUSH1 0x40 MLOAD PUSH32 0x8C379A000000000000000000000000000000000000000000000000000000000 DUP2 MSTORE PUSH1 0x4 ADD PUSH2 0x4A5 SWAP1 PUSH2 0x2B17 JUMP JUMPDEST PUSH1 0x40 MLOAD DUP1 SWAP2 SUB SWAP1 REVERT JUMPDEST PUSH1 0x0 JUMPDEST PUSH1 0x2 DUP1 SLOAD SWAP1 POP DUP2 LT ISZERO PUSH2 0x553 JUMPI DUP3 DUP1 MLOAD SWAP1 PUSH1 0x20 ADD KECCAK256 PUSH1 0x2 DUP3 DUP2 SLOAD DUP2 LT PUSH2 0x4DA JUMPI PUSH2 0x4D9 PUSH2 0x2B37 JUMP JUMPDEST JUMPDEST SWAP1 PUSH1 0x0 MSTORE PUSH1 0x20 PUSH1 0x0 KECCAK256 SWAP1 PUSH1 0x4 MUL ADD PUSH1 0x0 ADD PUSH1 0x40 MLOAD PUSH2 0x4F8 SWAP2 SWAP1 PUSH2 0x2C69 JUMP JUMPDEST PUSH1 0x40 MLOAD DUP1 SWAP2 SUB SWAP1 KECCAK256 SUB PUSH2 0x540 JUMPI PUSH1 0x40 MLOAD PUSH32 0x8C379A000000000000000000000000000000000000000000000000000000000 DUP2 MSTORE PUSH1 0x4 ADD PUSH2 0x537 SWAP1 PUSH2 0x2CCC JUMP JUMPDEST PUSH1 0x40 MLOAD DUP1 SWAP2 SUB SWAP1 REVERT JUMPDEST DUP1 DUP1 PUSH2 0x54B SWAP1 PUSH2 0x2D1B JUMP JUMPDEST SWAP2 POP POP PUSH2 0x4B1 JUMP JUMPDEST POP PUSH1 0x2 PUSH1 0x40 MLOAD DUP1 PUSH1 0x80 ADD PUSH1 0x40 MSTORE DUP1 DUP5 DUP2 MSTORE PUSH1 0x20 ADD DUP4 DUP2 MSTORE PUSH1 0x20 ADD PUSH1 0x0 DUP2 MSTORE PUSH1 0x20 ADD PUSH1 0x0 DUP2 MSTORE POP SWAP1 DUP1 PUSH1 0x1 DUP2 SLOAD ADD DUP1 DUP3 SSTORE DUP1 SWAP2 POP POP PUSH1 0x1 SWAP1 SUB SWAP1 PUSH1 0x0 MSTORE PUSH1 0x20 PUSH1 0x0 KECCAK256 SWAP1 PUSH1 0x4 MUL ADD PUSH1 0x0 SWAP1 SWAP2 SWAP1 SWAP2 SWAP1 SWAP2 POP PUSH1 0x0 DUP3 ADD MLOAD DUP2 PUSH1 0x0 ADD SWAP1 DUP2 PUSH2 0x5B7 SWAP2 SWAP1 PUSH2 0x2F0F JUMP JUMPDEST POP PUSH1 0x20 DUP3 ADD MLOAD DUP2 PUSH1 0x1 ADD SWAP1 DUP2 PUSH2 0x5CD SWAP2 SWAP1 PUSH2 0x2F0F JUMP JUMPDEST POP PUSH1 0x40 DUP3 ADD MLOAD DUP2 PUSH1 0x2 ADD SSTORE PUSH1 0x60 DUP3 ADD MLOAD DUP2 PUSH1 0x3 ADD SSTORE POP POP POP POP JUMP JUMPDEST PUSH1 0x0 PUSH1 0x60 DUP1 PUSH1 0x2 DUP1 SLOAD SWAP1 POP DUP5 LT PUSH2 0x634 JUMPI PUSH1 0x40 MLOAD PUSH32 0x8C379A000000000000000000000000000000000000000000000000000000000 DUP2 MSTORE PUSH1 0x4 ADD PUSH2 0x62B SWAP1 PUSH2 0x302D JUMP JUMPDEST PUSH1 0x40 MLOAD DUP1 SWAP2 SUB SWAP1 REVERT JUMPDEST PUSH1 0x0 PUSH1 0x2 DUP6 DUP2 SLOAD DUP2 LT PUSH2 0x64A JUMPI PUSH2 0x649 PUSH2 0x2B37 JUMP JUMPDEST JUMPDEST SWAP1 PUSH1 0x0 MSTORE PUSH1 0x20 PUSH1 0x0 KECCAK256 SWAP1 PUSH1 0x4 MUL ADD PUSH1 0x40 MLOAD DUP1 PUSH1 0x80 ADD PUSH1 0x40 MSTORE SWAP1 DUP2 PUSH1 0x0 DUP3 ADD DUP1 SLOAD PUSH2 0x673 SWAP1 PUSH2 0x2B95 JUMP JUMPDEST DUP1 PUSH1 0x1F ADD PUSH1 0x20 DUP1 SWAP2 DIV MUL PUSH1 0x20 ADD PUSH1 0x40 MLOAD SWAP1 DUP2 ADD PUSH1 0x40 MSTORE DUP1 SWAP3 SWAP2 SWAP1 DUP2 DUP2 MSTORE PUSH1 0x20 ADD DUP3 DUP1 SLOAD PUSH2 0x69F SWAP1 PUSH2 0x2B95 JUMP JUMPDEST DUP1 ISZERO PUSH2 0x6EC JUMPI DUP1 PUSH1 0x1F LT PUSH2 0x6C1 JUMPI PUSH2 0x100 DUP1 DUP4 SLOAD DIV MUL DUP4 MSTORE SWAP2 PUSH1 0x20 ADD SWAP2 PUSH2 0x6EC JUMP JUMPDEST DUP3 ADD SWAP2 SWAP1 PUSH1 0x0 MSTORE PUSH1 0x20 PUSH1 0x0 KECCAK256 SWAP1 JUMPDEST DUP2 SLOAD DUP2 MSTORE SWAP1 PUSH1 0x1 ADD SWAP1 PUSH1 0x20 ADD DUP1 DUP4 GT PUSH2 0x6CF JUMPI DUP3 SWAP1 SUB PUSH1 0x1F AND DUP3 ADD SWAP2 JUMPDEST POP POP POP POP POP DUP2 MSTORE PUSH1 0x20 ADD PUSH1 0x1 DUP3 ADD DUP1 SLOAD PUSH2 0x705 SWAP1 PUSH2 0x2B95 JUMP JUMPDEST DUP1 PUSH1 0x1F ADD PUSH1 0x20 DUP1 SWAP2 DIV MUL PUSH1 0x20 ADD PUSH1 0x40 MLOAD SWAP1 DUP2 ADD PUSH1 0x40 MSTORE DUP1 SWAP3 SWAP2 SWAP1 DUP2 DUP2 MSTORE PUSH1 0x20 ADD DUP3 DUP1 SLOAD PUSH2 0x731 SWAP1 PUSH2 0x2B95 JUMP JUMPDEST DUP1 ISZERO PUSH2 0x77E JUMPI DUP1 PUSH1 0x1F LT PUSH2 0x753 JUMPI PUSH2 0x100 DUP1 DUP4 SLOAD DIV MUL DUP4 MSTORE SWAP2 PUSH1 0x20 ADD SWAP2 PUSH2 0x77E JUMP JUMPDEST DUP3 ADD SWAP2 SWAP1 PUSH1 0x0 MSTORE PUSH1 0x20 PUSH1 0x0 KECCAK256 SWAP1 JUMPDEST DUP2 SLOAD DUP2 MSTORE SWAP1 PUSH1 0x1 ADD SWAP1 PUSH1 0x20 ADD DUP1 DUP4 GT PUSH2 0x761 JUMPI DUP3 SWAP1 SUB PUSH1 0x1F AND DUP3 ADD SWAP2 JUMPDEST POP POP POP POP POP DUP2 MSTORE PUSH1 0x20 ADD PUSH1 0x2 DUP3 ADD SLOAD DUP2 MSTORE PUSH1 0x20 ADD PUSH1 0x3 DUP3 ADD SLOAD DUP2 MSTORE POP POP SWAP1 POP DUP5 DUP2 PUSH1 0x0 ADD MLOAD DUP3 PUSH1 0x20 ADD MLOAD SWAP4 POP SWAP4 POP SWAP4 POP POP SWAP2 SWAP4 SWAP1 SWAP3 POP JUMP JUMPDEST PUSH1 0x0 PUSH1 0x2 DUP1 SLOAD SWAP1 POP SWAP1 POP SWAP1 JUMP JUMPDEST PUSH1 0x2 DUP2 DUP2 SLOAD DUP2 LT PUSH2 0x7D3 JUMPI PUSH1 0x0 DUP1 REVERT JUMPDEST SWAP1 PUSH1 0x0 MSTORE PUSH1 0x20 PUSH1 0x0 KECCAK256 SWAP1 PUSH1 0x4 MUL ADD PUSH1 0x0 SWAP2 POP SWAP1 POP DUP1 PUSH1 0x0 ADD DUP1 SLOAD PUSH2 0x7F6 SWAP1 PUSH2 0x2B95 JUMP JUMPDEST DUP1 PUSH1 0x1F ADD PUSH1 0x20 DUP1 SWAP2 DIV MUL PUSH1 0x20 ADD PUSH1 0x40 MLOAD SWAP1 DUP2 ADD PUSH1 0x40 MSTORE DUP1 SWAP3 SWAP2 SWAP1 DUP2 DUP2 MSTORE PUSH1 0x20 ADD DUP3 DUP1 SLOAD PUSH2 0x822 SWAP1 PUSH2 0x2B95 JUMP JUMPDEST DUP1 ISZERO PUSH2 0x86F JUMPI DUP1 PUSH1 0x1F LT PUSH2 0x844 JUMPI PUSH2 0x100 DUP1 DUP4 SLOAD DIV MUL DUP4 MSTORE SWAP2 PUSH1 0x20 ADD SWAP2 PUSH2 0x86F JUMP JUMPDEST DUP3 ADD SWAP2 SWAP1 PUSH1 0x0 MSTORE PUSH1 0x20 PUSH1 0x0 KECCAK256 SWAP1 JUMPDEST DUP2 SLOAD DUP2 MSTORE SWAP1 PUSH1 0x1 ADD SWAP1 PUSH1 0x20 ADD DUP1 DUP4 GT PUSH2 0x852 JUMPI DUP3 SWAP1 SUB PUSH1 0x1F AND DUP3 ADD SWAP2 JUMPDEST POP POP POP POP POP SWAP1 DUP1 PUSH1 0x1 ADD DUP1 SLOAD PUSH2 0x884 SWAP1 PUSH2 0x2B95 JUMP JUMPDEST DUP1 PUSH1 0x1F ADD PUSH1 0x20 DUP1 SWAP2 DIV MUL PUSH1 0x20 ADD PUSH1 0x40 MLOAD SWAP1 DUP2 ADD PUSH1 0x40 MSTORE DUP1 SWAP3 SWAP2 SWAP1 DUP2 DUP2 MSTORE PUSH1 0x20 ADD DUP3 DUP1 SLOAD PUSH2 0x8B0 SWAP1 PUSH2 0x2B95 JUMP JUMPDEST DUP1 ISZERO PUSH2 0x8FD JUMPI DUP1 PUSH1 0x1F LT PUSH2 0x8D2 JUMPI PUSH2 0x100 DUP1 DUP4 SLOAD DIV MUL DUP4 MSTORE SWAP2 PUSH1 0x20 ADD SWAP2 PUSH2 0x8FD JUMP JUMPDEST DUP3 ADD SWAP2 SWAP1 PUSH1 0x0 MSTORE PUSH1 0x20 PUSH1 0x0 KECCAK256 SWAP1 JUMPDEST DUP2 SLOAD DUP2 MSTORE SWAP1 PUSH1 0x1 ADD SWAP1 PUSH1 0x20 ADD DUP1 DUP4 GT PUSH2 0x8E0 JUMPI DUP3 SWAP1 SUB PUSH1 0x1F AND DUP3 ADD SWAP2 JUMPDEST POP POP POP POP POP SWAP1 DUP1 PUSH1 0x2 ADD SLOAD SWAP1 DUP1 PUSH1 0x3 ADD SLOAD SWAP1 POP DUP5 JUMP JUMPDEST PUSH1 0x0 PUSH1 0x14 SWAP1 SLOAD SWAP1 PUSH2 0x100 EXP SWAP1 DIV PUSH1 0xFF AND DUP1 ISZERO PUSH2 0x93C JUMPI POP PUSH1 0x0 PUSH1 0x15 SWAP1 SLOAD SWAP1 PUSH2 0x100 EXP SWAP1 DIV PUSH1 0xFF AND ISZERO JUMPDEST PUSH2 0x97B JUMPI PUSH1 0x40 MLOAD PUSH32 0x8C379A000000000000000000000000000000000000000000000000000000000 DUP2 MSTORE PUSH1 0x4 ADD PUSH2 0x972 SWAP1 PUSH2 0x3099 JUMP JUMPDEST PUSH1 0x40 MLOAD DUP1 SWAP2 SUB SWAP1 REVERT JUMPDEST PUSH1 0x0 PUSH1 0x1 PUSH1 0x0 CALLER PUSH20 0xFFFFFFFFFFFFFFFFFFFFFFFFFFFFFFFFFFFFFFFF AND PUSH20 0xFFFFFFFFFFFFFFFFFFFFFFFFFFFFFFFFFFFFFFFF AND DUP2 MSTORE PUSH1 0x20 ADD SWAP1 DUP2 MSTORE PUSH1 0x20 ADD PUSH1 0x0 KECCAK256 SWAP1 POP PUSH1 0x2 DUP1 SLOAD SWAP1 POP DUP3 LT PUSH2 0xA05 JUMPI PUSH1 0x40 MLOAD PUSH32 0x8C379A000000000000000000000000000000000000000000000000000000000 DUP2 MSTORE PUSH1 0x4 ADD PUSH2 0x9FC SWAP1 PUSH2 0x302D JUMP JUMPDEST PUSH1 0x40 MLOAD DUP1 SWAP2 SUB SWAP1 REVERT JUMPDEST PUSH1 0x1 DUP2 PUSH1 0x1 ADD PUSH1 0x14 PUSH2 0x100 EXP DUP2 SLOAD DUP2 PUSH1 0xFF MUL NOT AND SWAP1 DUP4 ISZERO ISZERO MUL OR SWAP1 SSTORE POP DUP2 DUP2 PUSH1 0x2 ADD DUP2 SWAP1 SSTORE POP PUSH1 0x2 DUP3 DUP2 SLOAD DUP2 LT PUSH2 0xA3F JUMPI PUSH2 0xA3E PUSH2 0x2B37 JUMP JUMPDEST JUMPDEST SWAP1 PUSH1 0x0 MSTORE PUSH1 0x20 PUSH1 0x0 KECCAK256 SWAP1 PUSH1 0x4 MUL ADD PUSH1 0x2 ADD PUSH1 0x0 DUP2 SLOAD DUP1 SWAP3 SWAP2 SWAP1 PUSH2 0xA61 SWAP1 PUSH2 0x2D1B JUMP JUMPDEST SWAP2 SWAP1 POP SSTORE POP PUSH2 0xA6E PUSH2 0x1F77 JUMP JUMPDEST POP POP JUMP JUMPDEST PUSH1 0x0 PUSH1 0x14 SWAP1 SLOAD SWAP1 PUSH2 0x100 EXP SWAP1 DIV PUSH1 0xFF AND DUP1 ISZERO PUSH2 0xA9B JUMPI POP PUSH1 0x0 PUSH1 0x15 SWAP1 SLOAD SWAP1 PUSH2 0x100 EXP SWAP1 DIV PUSH1 0xFF AND ISZERO JUMPDEST PUSH2 0xADA JUMPI PUSH1 0x40 MLOAD PUSH32 0x8C379A000000000000000000000000000000000000000000000000000000000 DUP2 MSTORE PUSH1 0x4 ADD PUSH2 0xAD1 SWAP1 PUSH2 0x3099 JUMP JUMPDEST PUSH1 0x40 MLOAD DUP1 SWAP2 SUB SWAP1 REVERT JUMPDEST PUSH1 0x0 PUSH1 0x1 PUSH1 0x0 CALLER PUSH20 0xFFFFFFFFFFFFFFFFFFFFFFFFFFFFFFFFFFFFFFFF AND PUSH20 0xFFFFFFFFFFFFFFFFFFFFFFFFFFFFFFFFFFFFFFFF AND DUP2 MSTORE PUSH1 0x20 ADD SWAP1 DUP2 MSTORE PUSH1 0x20 ADD PUSH1 0x0 KECCAK256 SWAP1 POP PUSH1 0x0 ISZERO ISZERO DUP2 PUSH1 0x1 ADD PUSH1 0x14 SWAP1 SLOAD SWAP1 PUSH2 0x100 EXP SWAP1 DIV PUSH1 0xFF AND ISZERO ISZERO EQ PUSH2 0xB75 JUMPI PUSH1 0x40 MLOAD PUSH32 0x8C379A000000000000000000000000000000000000000000000000000000000 DUP2 MSTORE PUSH1 0x4 ADD PUSH2 0xB6C SWAP1 PUSH2 0x3105 JUMP JUMPDEST PUSH1 0x40 MLOAD DUP1 SWAP2 SUB SWAP1 REVERT JUMPDEST PUSH1 0x2 DUP1 SLOAD SWAP1 POP DUP3 LT PUSH2 0xBBC JUMPI PUSH1 0x40 MLOAD PUSH32 0x8C379A000000000000000000000000000000000000000000000000000000000 DUP2 MSTORE PUSH1 0x4 ADD PUSH2 0xBB3 SWAP1 PUSH2 0x302D JUMP JUMPDEST PUSH1 0x40 MLOAD DUP1 SWAP2 SUB SWAP1 REVERT JUMPDEST PUSH1 0x1 DUP2 PUSH1 0x1 ADD PUSH1 0x14 PUSH2 0x100 EXP DUP2 SLOAD DUP2 PUSH1 0xFF MUL NOT AND SWAP1 DUP4 ISZERO ISZERO MUL OR SWAP1 SSTORE POP DUP2 DUP2 PUSH1 0x2 ADD DUP2 SWAP1 SSTORE POP PUSH1 0x2 DUP3 DUP2 SLOAD DUP2 LT PUSH2 0xBF6 JUMPI PUSH2 0xBF5 PUSH2 0x2B37 JUMP JUMPDEST JUMPDEST SWAP1 PUSH1 0x0 MSTORE PUSH1 0x20 PUSH1 0x0 KECCAK256 SWAP1 PUSH1 0x4 MUL ADD PUSH1 0x2 ADD PUSH1 0x0 DUP2 SLOAD DUP1 SWAP3 SWAP2 SWAP1 PUSH2 0xC18 SWAP1 PUSH2 0x2D1B JUMP JUMPDEST SWAP2 SWAP1 POP SSTORE POP PUSH2 0xC25 PUSH2 0x1F77 JUMP JUMPDEST POP POP JUMP JUMPDEST PUSH1 0x0 PUSH1 0x2 DUP1 SLOAD SWAP1 POP DUP3 LT PUSH2 0xC72 JUMPI PUSH1 0x40 MLOAD PUSH32 0x8C379A000000000000000000000000000000000000000000000000000000000 DUP2 MSTORE PUSH1 0x4 ADD PUSH2 0xC69 SWAP1 PUSH2 0x302D JUMP JUMPDEST PUSH1 0x40 MLOAD DUP1 SWAP2 SUB SWAP1 REVERT JUMPDEST PUSH1 0x2 DUP3 DUP2 SLOAD DUP2 LT PUSH2 0xC86 JUMPI PUSH2 0xC85 PUSH2 0x2B37 JUMP JUMPDEST JUMPDEST SWAP1 PUSH1 0x0 MSTORE PUSH1 0x20 PUSH1 0x0 KECCAK256 SWAP1 PUSH1 0x4 MUL ADD PUSH1 0x2 ADD SLOAD SWAP1 POP SWAP2 SWAP1 POP JUMP JUMPDEST PUSH1 0x60 PUSH1 0x0 PUSH1 0x3 DUP1 SLOAD SWAP1 POP PUSH8 0xFFFFFFFFFFFFFFFF DUP2 GT ISZERO PUSH2 0xCC2 JUMPI PUSH2 0xCC1 PUSH2 0x218A JUMP JUMPDEST JUMPDEST PUSH1 0x40 MLOAD SWAP1 DUP1 DUP3 MSTORE DUP1 PUSH1 0x20 MUL PUSH1 0x20 ADD DUP3 ADD PUSH1 0x40 MSTORE DUP1 ISZERO PUSH2 0xCFB JUMPI DUP2 PUSH1 0x20 ADD JUMPDEST PUSH2 0xCE8 PUSH2 0x20E8 JUMP JUMPDEST DUP2 MSTORE PUSH1 0x20 ADD SWAP1 PUSH1 0x1 SWAP1 SUB SWAP1 DUP2 PUSH2 0xCE0 JUMPI SWAP1 POP JUMPDEST POP SWAP1 POP PUSH1 0x0 JUMPDEST PUSH1 0x3 DUP1 SLOAD SWAP1 POP DUP2 LT ISZERO PUSH2 0xEFA JUMPI PUSH1 0x0 PUSH1 0x3 DUP3 DUP2 SLOAD DUP2 LT PUSH2 0xD24 JUMPI PUSH2 0xD23 PUSH2 0x2B37 JUMP JUMPDEST JUMPDEST SWAP1 PUSH1 0x0 MSTORE PUSH1 0x20 PUSH1 0x0 KECCAK256 ADD PUSH1 0x0 SWAP1 SLOAD SWAP1 PUSH2 0x100 EXP SWAP1 DIV PUSH20 0xFFFFFFFFFFFFFFFFFFFFFFFFFFFFFFFFFFFFFFFF AND SWAP1 POP PUSH1 0x1 PUSH1 0x0 DUP3 PUSH20 0xFFFFFFFFFFFFFFFFFFFFFFFFFFFFFFFFFFFFFFFF AND PUSH20 0xFFFFFFFFFFFFFFFFFFFFFFFFFFFFFFFFFFFFFFFF AND DUP2 MSTORE PUSH1 0x20 ADD SWAP1 DUP2 MSTORE PUSH1 0x20 ADD PUSH1 0x0 KECCAK256 PUSH1 0x40 MLOAD DUP1 PUSH1 0xA0 ADD PUSH1 0x40 MSTORE SWAP1 DUP2 PUSH1 0x0 DUP3 ADD DUP1 SLOAD PUSH2 0xDAB SWAP1 PUSH2 0x2B95 JUMP JUMPDEST DUP1 PUSH1 0x1F ADD PUSH1 0x20 DUP1 SWAP2 DIV MUL PUSH1 0x20 ADD PUSH1 0x40 MLOAD SWAP1 DUP2 ADD PUSH1 0x40 MSTORE DUP1 SWAP3 SWAP2 SWAP1 DUP2 DUP2 MSTORE PUSH1 0x20 ADD DUP3 DUP1 SLOAD PUSH2 0xDD7 SWAP1 PUSH2 0x2B95 JUMP JUMPDEST DUP1 ISZERO PUSH2 0xE24 JUMPI DUP1 PUSH1 0x1F LT PUSH2 0xDF9 JUMPI PUSH2 0x100 DUP1 DUP4 SLOAD DIV MUL DUP4 MSTORE SWAP2 PUSH1 0x20 ADD SWAP2 PUSH2 0xE24 JUMP JUMPDEST DUP3 ADD SWAP2 SWAP1 PUSH1 0x0 MSTORE PUSH1 0x20 PUSH1 0x0 KECCAK256 SWAP1 JUMPDEST DUP2 SLOAD DUP2 MSTORE SWAP1 PUSH1 0x1 ADD SWAP1 PUSH1 0x20 ADD DUP1 DUP4 GT PUSH2 0xE07 JUMPI DUP3 SWAP1 SUB PUSH1 0x1F AND DUP3 ADD SWAP2 JUMPDEST POP POP POP POP POP DUP2 MSTORE PUSH1 0x20 ADD PUSH1 0x1 DUP3 ADD PUSH1 0x0 SWAP1 SLOAD SWAP1 PUSH2 0x100 EXP SWAP1 DIV PUSH20 0xFFFFFFFFFFFFFFFFFFFFFFFFFFFFFFFFFFFFFFFF AND PUSH20 0xFFFFFFFFFFFFFFFFFFFFFFFFFFFFFFFFFFFFFFFF AND PUSH20 0xFFFFFFFFFFFFFFFFFFFFFFFFFFFFFFFFFFFFFFFF AND DUP2 MSTORE PUSH1 0x20 ADD PUSH1 0x1 DUP3 ADD PUSH1 0x14 SWAP1 SLOAD SWAP1 PUSH2 0x100 EXP SWAP1 DIV PUSH1 0xFF AND ISZERO ISZERO ISZERO ISZERO DUP2 MSTORE PUSH1 0x20 ADD PUSH1 0x2 DUP3 ADD SLOAD DUP2 MSTORE PUSH1 0x20 ADD PUSH1 0x3 DUP3 ADD PUSH1 0x0 SWAP1 SLOAD SWAP1 PUSH2 0x100 EXP SWAP1 DIV PUSH2 0xFFFF AND PUSH2 0xFFFF AND PUSH2 0xFFFF AND DUP2 MSTORE POP POP DUP4 DUP4 DUP2 MLOAD DUP2 LT PUSH2 0xEDB JUMPI PUSH2 0xEDA PUSH2 0x2B37 JUMP JUMPDEST JUMPDEST PUSH1 0x20 MUL PUSH1 0x20 ADD ADD DUP2 SWAP1 MSTORE POP POP DUP1 DUP1 PUSH2 0xEF2 SWAP1 PUSH2 0x2D1B JUMP JUMPDEST SWAP2 POP POP PUSH2 0xD01 JUMP JUMPDEST POP DUP1 SWAP2 POP POP SWAP1 JUMP JUMPDEST PUSH1 0x0 DUP1 SLOAD SWAP1 PUSH2 0x100 EXP SWAP1 DIV PUSH20 0xFFFFFFFFFFFFFFFFFFFFFFFFFFFFFFFFFFFFFFFF AND PUSH20 0xFFFFFFFFFFFFFFFFFFFFFFFFFFFFFFFFFFFFFFFF AND CALLER PUSH20 0xFFFFFFFFFFFFFFFFFFFFFFFFFFFFFFFFFFFFFFFF AND EQ PUSH2 0xF90 JUMPI PUSH1 0x40 MLOAD PUSH32 0x8C379A000000000000000000000000000000000000000000000000000000000 DUP2 MSTORE PUSH1 0x4 ADD PUSH2 0xF87 SWAP1 PUSH2 0x2AAB JUMP JUMPDEST PUSH1 0x40 MLOAD DUP1 SWAP2 SUB SWAP1 REVERT JUMPDEST PUSH1 0x0 PUSH1 0x14 SWAP1 SLOAD SWAP1 PUSH2 0x100 EXP SWAP1 DIV PUSH1 0xFF AND DUP1 ISZERO PUSH2 0xFB9 JUMPI POP PUSH1 0x0 PUSH1 0x15 SWAP1 SLOAD SWAP1 PUSH2 0x100 EXP SWAP1 DIV PUSH1 0xFF AND ISZERO JUMPDEST PUSH2 0xFF8 JUMPI PUSH1 0x40 MLOAD PUSH32 0x8C379A000000000000000000000000000000000000000000000000000000000 DUP2 MSTORE PUSH1 0x4 ADD PUSH2 0xFEF SWAP1 PUSH2 0x3171 JUMP JUMPDEST PUSH1 0x40 MLOAD DUP1 SWAP2 SUB SWAP1 REVERT JUMPDEST PUSH2 0x1000 PUSH2 0x1F77 JUMP JUMPDEST PUSH1 0x1 PUSH1 0x0 PUSH1 0x15 PUSH2 0x100 EXP DUP2 SLOAD DUP2 PUSH1 0xFF MUL NOT AND SWAP1 DUP4 ISZERO ISZERO MUL OR SWAP1 SSTORE POP PUSH1 0x0 DUP1 PUSH1 0x14 PUSH2 0x100 EXP DUP2 SLOAD DUP2 PUSH1 0xFF MUL NOT AND SWAP1 DUP4 ISZERO ISZERO MUL OR SWAP1 SSTORE POP JUMP JUMPDEST PUSH1 0x0 DUP1 SLOAD SWAP1 PUSH2 0x100 EXP SWAP1 DIV PUSH20 0xFFFFFFFFFFFFFFFFFFFFFFFFFFFFFFFFFFFFFFFF AND PUSH20 0xFFFFFFFFFFFFFFFFFFFFFFFFFFFFFFFFFFFFFFFF AND CALLER PUSH20 0xFFFFFFFFFFFFFFFFFFFFFFFFFFFFFFFFFFFFFFFF AND EQ PUSH2 0x10C5 JUMPI PUSH1 0x40 MLOAD PUSH32 0x8C379A000000000000000000000000000000000000000000000000000000000 DUP2 MSTORE PUSH1 0x4 ADD PUSH2 0x10BC SWAP1 PUSH2 0x2AAB JUMP JUMPDEST PUSH1 0x40 MLOAD DUP1 SWAP2 SUB SWAP1 REVERT JUMPDEST PUSH1 0x0 PUSH1 0x14 SWAP1 SLOAD SWAP1 PUSH2 0x100 EXP SWAP1 DIV PUSH1 0xFF AND ISZERO PUSH2 0x1115 JUMPI PUSH1 0x40 MLOAD PUSH32 0x8C379A000000000000000000000000000000000000000000000000000000000 DUP2 MSTORE PUSH1 0x4 ADD PUSH2 0x110C SWAP1 PUSH2 0x2B17 JUMP JUMPDEST PUSH1 0x40 MLOAD DUP1 SWAP2 SUB SWAP1 REVERT JUMPDEST PUSH1 0x1 PUSH1 0x0 PUSH1 0x14 PUSH2 0x100 EXP DUP2 SLOAD DUP2 PUSH1 0xFF MUL NOT AND SWAP1 DUP4 ISZERO ISZERO MUL OR SWAP1 SSTORE POP JUMP JUMPDEST PUSH1 0x60 PUSH1 0x0 DUP1 PUSH1 0x0 PUSH1 0x15 SWAP1 SLOAD SWAP1 PUSH2 0x100 EXP SWAP1 DIV PUSH1 0xFF AND PUSH2 0x1186 JUMPI PUSH1 0x40 MLOAD PUSH32 0x8C379A000000000000000000000000000000000000000000000000000000000 DUP2 MSTORE PUSH1 0x4 ADD PUSH2 0x117D SWAP1 PUSH2 0x31DD JUMP JUMPDEST PUSH1 0x40 MLOAD DUP1 SWAP2 SUB SWAP1 REVERT JUMPDEST PUSH2 0x118E PUSH2 0x2133 JUMP JUMPDEST PUSH1 0x0 DUP1 JUMPDEST PUSH1 0x2 DUP1 SLOAD SWAP1 POP DUP2 LT ISZERO PUSH2 0x136F JUMPI DUP2 PUSH1 0x2 DUP3 DUP2 SLOAD DUP2 LT PUSH2 0x11B4 JUMPI PUSH2 0x11B3 PUSH2 0x2B37 JUMP JUMPDEST JUMPDEST SWAP1 PUSH1 0x0 MSTORE PUSH1 0x20 PUSH1 0x0 KECCAK256 SWAP1 PUSH1 0x4 MUL ADD PUSH1 0x2 ADD SLOAD GT ISZERO PUSH2 0x135C JUMPI PUSH1 0x2 DUP2 DUP2 SLOAD DUP2 LT PUSH2 0x11E0 JUMPI PUSH2 0x11DF PUSH2 0x2B37 JUMP JUMPDEST JUMPDEST SWAP1 PUSH1 0x0 MSTORE PUSH1 0x20 PUSH1 0x0 KECCAK256 SWAP1 PUSH1 0x4 MUL ADD PUSH1 0x2 ADD SLOAD SWAP2 POP PUSH1 0x2 DUP2 DUP2 SLOAD DUP2 LT PUSH2 0x1208 JUMPI PUSH2 0x1207 PUSH2 0x2B37 JUMP JUMPDEST JUMPDEST SWAP1 PUSH1 0x0 MSTORE PUSH1 0x20 PUSH1 0x0 KECCAK256 SWAP1 PUSH1 0x4 MUL ADD PUSH1 0x40 MLOAD DUP1 PUSH1 0x80 ADD PUSH1 0x40 MSTORE SWAP1 DUP2 PUSH1 0x0 DUP3 ADD DUP1 SLOAD PUSH2 0x1231 SWAP1 PUSH2 0x2B95 JUMP JUMPDEST DUP1 PUSH1 0x1F ADD PUSH1 0x20 DUP1 SWAP2 DIV MUL PUSH1 0x20 ADD PUSH1 0x40 MLOAD SWAP1 DUP2 ADD PUSH1 0x40 MSTORE DUP1 SWAP3 SWAP2 SWAP1 DUP2 DUP2 MSTORE PUSH1 0x20 ADD DUP3 DUP1 SLOAD PUSH2 0x125D SWAP1 PUSH2 0x2B95 JUMP JUMPDEST DUP1 ISZERO PUSH2 0x12AA JUMPI DUP1 PUSH1 0x1F LT PUSH2 0x127F JUMPI PUSH2 0x100 DUP1 DUP4 SLOAD DIV MUL DUP4 MSTORE SWAP2 PUSH1 0x20 ADD SWAP2 PUSH2 0x12AA JUMP JUMPDEST DUP3 ADD SWAP2 SWAP1 PUSH1 0x0 MSTORE PUSH1 0x20 PUSH1 0x0 KECCAK256 SWAP1 JUMPDEST DUP2 SLOAD DUP2 MSTORE SWAP1 PUSH1 0x1 ADD SWAP1 PUSH1 0x20 ADD DUP1 DUP4 GT PUSH2 0x128D JUMPI DUP3 SWAP1 SUB PUSH1 0x1F AND DUP3 ADD SWAP2 JUMPDEST POP POP POP POP POP DUP2 MSTORE PUSH1 0x20 ADD PUSH1 0x1 DUP3 ADD DUP1 SLOAD PUSH2 0x12C3 SWAP1 PUSH2 0x2B95 JUMP JUMPDEST DUP1 PUSH1 0x1F ADD PUSH1 0x20 DUP1 SWAP2 DIV MUL PUSH1 0x20 ADD PUSH1 0x40 MLOAD SWAP1 DUP2 ADD PUSH1 0x40 MSTORE DUP1 SWAP3 SWAP2 SWAP1 DUP2 DUP2 MSTORE PUSH1 0x20 ADD DUP3 DUP1 SLOAD PUSH2 0x12EF SWAP1 PUSH2 0x2B95 JUMP JUMPDEST DUP1 ISZERO PUSH2 0x133C JUMPI DUP1 PUSH1 0x1F LT PUSH2 0x1311 JUMPI PUSH2 0x100 DUP1 DUP4 SLOAD DIV MUL DUP4 MSTORE SWAP2 PUSH1 0x20 ADD SWAP2 PUSH2 0x133C JUMP JUMPDEST DUP3 ADD SWAP2 SWAP1 PUSH1 0x0 MSTORE PUSH1 0x20 PUSH1 0x0 KECCAK256 SWAP1 JUMPDEST DUP2 SLOAD DUP2 MSTORE SWAP1 PUSH1 0x1 ADD SWAP1 PUSH1 0x20 ADD DUP1 DUP4 GT PUSH2 0x131F JUMPI DUP3 SWAP1 SUB PUSH1 0x1F AND DUP3 ADD SWAP2 JUMPDEST POP POP POP POP POP DUP2 MSTORE PUSH1 0x20 ADD PUSH1 0x2 DUP3 ADD SLOAD DUP2 MSTORE PUSH1 0x20 ADD PUSH1 0x3 DUP3 ADD SLOAD DUP2 MSTORE POP POP SWAP3 POP JUMPDEST DUP1 DUP1 PUSH2 0x1367 SWAP1 PUSH2 0x2D1B JUMP JUMPDEST SWAP2 POP POP PUSH2 0x1192 JUMP JUMPDEST POP DUP2 PUSH1 0x0 ADD MLOAD DUP2 DUP4 PUSH1 0x40 ADD MLOAD SWAP5 POP SWAP5 POP SWAP5 POP POP POP SWAP1 SWAP2 SWAP3 JUMP JUMPDEST PUSH1 0x1 PUSH1 0x20 MSTORE DUP1 PUSH1 0x0 MSTORE PUSH1 0x40 PUSH1 0x0 KECCAK256 PUSH1 0x0 SWAP2 POP SWAP1 POP DUP1 PUSH1 0x0 ADD DUP1 SLOAD PUSH2 0x13AB SWAP1 PUSH2 0x2B95 JUMP JUMPDEST DUP1 PUSH1 0x1F ADD PUSH1 0x20 DUP1 SWAP2 DIV MUL PUSH1 0x20 ADD PUSH1 0x40 MLOAD SWAP1 DUP2 ADD PUSH1 0x40 MSTORE DUP1 SWAP3 SWAP2 SWAP1 DUP2 DUP2 MSTORE PUSH1 0x20 ADD DUP3 DUP1 SLOAD PUSH2 0x13D7 SWAP1 PUSH2 0x2B95 JUMP JUMPDEST DUP1 ISZERO PUSH2 0x1424 JUMPI DUP1 PUSH1 0x1F LT PUSH2 0x13F9 JUMPI PUSH2 0x100 DUP1 DUP4 SLOAD DIV MUL DUP4 MSTORE SWAP2 PUSH1 0x20 ADD SWAP2 PUSH2 0x1424 JUMP JUMPDEST DUP3 ADD SWAP2 SWAP1 PUSH1 0x0 MSTORE PUSH1 0x20 PUSH1 0x0 KECCAK256 SWAP1 JUMPDEST DUP2 SLOAD DUP2 MSTORE SWAP1 PUSH1 0x1 ADD SWAP1 PUSH1 0x20 ADD DUP1 DUP4 GT PUSH2 0x1407 JUMPI DUP3 SWAP1 SUB PUSH1 0x1F AND DUP3 ADD SWAP2 JUMPDEST POP POP POP POP POP SWAP1 DUP1 PUSH1 0x1 ADD PUSH1 0x0 SWAP1 SLOAD SWAP1 PUSH2 0x100 EXP SWAP1 DIV PUSH20 0xFFFFFFFFFFFFFFFFFFFFFFFFFFFFFFFFFFFFFFFF AND SWAP1 DUP1 PUSH1 0x1 ADD PUSH1 0x14 SWAP1 SLOAD SWAP1 PUSH2 0x100 EXP SWAP1 DIV PUSH1 0xFF AND SWAP1 DUP1 PUSH1 0x2 ADD SLOAD SWAP1 DUP1 PUSH1 0x3 ADD PUSH1 0x0 SWAP1 SLOAD SWAP1 PUSH2 0x100 EXP SWAP1 DIV PUSH2 0xFFFF AND SWAP1 POP DUP6 JUMP JUMPDEST PUSH1 0x0 PUSH1 0x14 SWAP1 SLOAD SWAP1 PUSH2 0x100 EXP SWAP1 DIV PUSH1 0xFF AND DUP1 ISZERO PUSH2 0x14AA JUMPI POP PUSH1 0x0 PUSH1 0x15 SWAP1 SLOAD SWAP1 PUSH2 0x100 EXP SWAP1 DIV PUSH1 0xFF AND ISZERO JUMPDEST PUSH2 0x14E9 JUMPI PUSH1 0x40 MLOAD PUSH32 0x8C379A000000000000000000000000000000000000000000000000000000000 DUP2 MSTORE PUSH1 0x4 ADD PUSH2 0x14E0 SWAP1 PUSH2 0x3099 JUMP JUMPDEST PUSH1 0x40 MLOAD DUP1 SWAP2 SUB SWAP1 REVERT JUMPDEST PUSH1 0x0 ISZERO ISZERO PUSH1 0x1 PUSH1 0x0 CALLER PUSH20 0xFFFFFFFFFFFFFFFFFFFFFFFFFFFFFFFFFFFFFFFF AND PUSH20 0xFFFFFFFFFFFFFFFFFFFFFFFFFFFFFFFFFFFFFFFF AND DUP2 MSTORE PUSH1 0x20 ADD SWAP1 DUP2 MSTORE PUSH1 0x20 ADD PUSH1 0x0 KECCAK256 PUSH1 0x1 ADD PUSH1 0x14 SWAP1 SLOAD SWAP1 PUSH2 0x100 EXP SWAP1 DIV PUSH1 0xFF AND ISZERO ISZERO EQ PUSH2 0x157F JUMPI PUSH1 0x40 MLOAD PUSH32 0x8C379A000000000000000000000000000000000000000000000000000000000 DUP2 MSTORE PUSH1 0x4 ADD PUSH2 0x1576 SWAP1 PUSH2 0x3105 JUMP JUMPDEST PUSH1 0x40 MLOAD DUP1 SWAP2 SUB SWAP1 REVERT JUMPDEST CALLER PUSH20 0xFFFFFFFFFFFFFFFFFFFFFFFFFFFFFFFFFFFFFFFF AND DUP2 PUSH20 0xFFFFFFFFFFFFFFFFFFFFFFFFFFFFFFFFFFFFFFFF AND SUB PUSH2 0x15ED JUMPI PUSH1 0x40 MLOAD PUSH32 0x8C379A000000000000000000000000000000000000000000000000000000000 DUP2 MSTORE PUSH1 0x4 ADD PUSH2 0x15E4 SWAP1 PUSH2 0x3249 JUMP JUMPDEST PUSH1 0x40 MLOAD DUP1 SWAP2 SUB SWAP1 REVERT JUMPDEST DUP1 PUSH1 0x1 PUSH1 0x0 CALLER PUSH20 0xFFFFFFFFFFFFFFFFFFFFFFFFFFFFFFFFFFFFFFFF AND PUSH20 0xFFFFFFFFFFFFFFFFFFFFFFFFFFFFFFFFFFFFFFFF AND DUP2 MSTORE PUSH1 0x20 ADD SWAP1 DUP2 MSTORE PUSH1 0x20 ADD PUSH1 0x0 KECCAK256 PUSH1 0x1 ADD PUSH1 0x0 PUSH2 0x100 EXP DUP2 SLOAD DUP2 PUSH20 0xFFFFFFFFFFFFFFFFFFFFFFFFFFFFFFFFFFFFFFFF MUL NOT AND SWAP1 DUP4 PUSH20 0xFFFFFFFFFFFFFFFFFFFFFFFFFFFFFFFFFFFFFFFF AND MUL OR SWAP1 SSTORE POP POP JUMP JUMPDEST PUSH1 0x0 PUSH1 0x15 SWAP1 SLOAD SWAP1 PUSH2 0x100 EXP SWAP1 DIV PUSH1 0xFF AND DUP2 JUMP JUMPDEST PUSH1 0x60 PUSH1 0x0 PUSH1 0x2 DUP1 SLOAD SWAP1 POP PUSH8 0xFFFFFFFFFFFFFFFF DUP2 GT ISZERO PUSH2 0x16A7 JUMPI PUSH2 0x16A6 PUSH2 0x218A JUMP JUMPDEST JUMPDEST PUSH1 0x40 MLOAD SWAP1 DUP1 DUP3 MSTORE DUP1 PUSH1 0x20 MUL PUSH1 0x20 ADD DUP3 ADD PUSH1 0x40 MSTORE DUP1 ISZERO PUSH2 0x16E0 JUMPI DUP2 PUSH1 0x20 ADD JUMPDEST PUSH2 0x16CD PUSH2 0x2133 JUMP JUMPDEST DUP2 MSTORE PUSH1 0x20 ADD SWAP1 PUSH1 0x1 SWAP1 SUB SWAP1 DUP2 PUSH2 0x16C5 JUMPI SWAP1 POP JUMPDEST POP SWAP1 POP PUSH1 0x0 JUMPDEST PUSH1 0x2 DUP1 SLOAD SWAP1 POP DUP2 LT ISZERO PUSH2 0x18E9 JUMPI PUSH1 0x40 MLOAD DUP1 PUSH1 0x80 ADD PUSH1 0x40 MSTORE DUP1 PUSH1 0x2 DUP4 DUP2 SLOAD DUP2 LT PUSH2 0x1712 JUMPI PUSH2 0x1711 PUSH2 0x2B37 JUMP JUMPDEST JUMPDEST SWAP1 PUSH1 0x0 MSTORE PUSH1 0x20 PUSH1 0x0 KECCAK256 SWAP1 PUSH1 0x4 MUL ADD PUSH1 0x0 ADD DUP1 SLOAD PUSH2 0x172E SWAP1 PUSH2 0x2B95 JUMP JUMPDEST DUP1 PUSH1 0x1F ADD PUSH1 0x20 DUP1 SWAP2 DIV MUL PUSH1 0x20 ADD PUSH1 0x40 MLOAD SWAP1 DUP2 ADD PUSH1 0x40 MSTORE DUP1 SWAP3 SWAP2 SWAP1 DUP2 DUP2 MSTORE PUSH1 0x20 ADD DUP3 DUP1 SLOAD PUSH2 0x175A SWAP1 PUSH2 0x2B95 JUMP JUMPDEST DUP1 ISZERO PUSH2 0x17A7 JUMPI DUP1 PUSH1 0x1F LT PUSH2 0x177C JUMPI PUSH2 0x100 DUP1 DUP4 SLOAD DIV MUL DUP4 MSTORE SWAP2 PUSH1 0x20 ADD SWAP2 PUSH2 0x17A7 JUMP JUMPDEST DUP3 ADD SWAP2 SWAP1 PUSH1 0x0 MSTORE PUSH1 0x20 PUSH1 0x0 KECCAK256 SWAP1 JUMPDEST DUP2 SLOAD DUP2 MSTORE SWAP1 PUSH1 0x1 ADD SWAP1 PUSH1 0x20 ADD DUP1 DUP4 GT PUSH2 0x178A JUMPI DUP3 SWAP1 SUB PUSH1 0x1F AND DUP3 ADD SWAP2 JUMPDEST POP POP POP POP POP DUP2 MSTORE PUSH1 0x20 ADD PUSH1 0x2 DUP4 DUP2 SLOAD DUP2 LT PUSH2 0x17C5 JUMPI PUSH2 0x17C4 PUSH2 0x2B37 JUMP JUMPDEST JUMPDEST SWAP1 PUSH1 0x0 MSTORE PUSH1 0x20 PUSH1 0x0 KECCAK256 SWAP1 PUSH1 0x4 MUL ADD PUSH1 0x1 ADD DUP1 SLOAD PUSH2 0x17E1 SWAP1 PUSH2 0x2B95 JUMP JUMPDEST DUP1 PUSH1 0x1F ADD PUSH1 0x20 DUP1 SWAP2 DIV MUL PUSH1 0x20 ADD PUSH1 0x40 MLOAD SWAP1 DUP2 ADD PUSH1 0x40 MSTORE DUP1 SWAP3 SWAP2 SWAP1 DUP2 DUP2 MSTORE PUSH1 0x20 ADD DUP3 DUP1 SLOAD PUSH2 0x180D SWAP1 PUSH2 0x2B95 JUMP JUMPDEST DUP1 ISZERO PUSH2 0x185A JUMPI DUP1 PUSH1 0x1F LT PUSH2 0x182F JUMPI PUSH2 0x100 DUP1 DUP4 SLOAD DIV MUL DUP4 MSTORE SWAP2 PUSH1 0x20 ADD SWAP2 PUSH2 0x185A JUMP JUMPDEST DUP3 ADD SWAP2 SWAP1 PUSH1 0x0 MSTORE PUSH1 0x20 PUSH1 0x0 KECCAK256 SWAP1 JUMPDEST DUP2 SLOAD DUP2 MSTORE SWAP1 PUSH1 0x1 ADD SWAP1 PUSH1 0x20 ADD DUP1 DUP4 GT PUSH2 0x183D JUMPI DUP3 SWAP1 SUB PUSH1 0x1F AND DUP3 ADD SWAP2 JUMPDEST POP POP POP POP POP DUP2 MSTORE PUSH1 0x20 ADD PUSH1 0x2 DUP4 DUP2 SLOAD DUP2 LT PUSH2 0x1878 JUMPI PUSH2 0x1877 PUSH2 0x2B37 JUMP JUMPDEST JUMPDEST SWAP1 PUSH1 0x0 MSTORE PUSH1 0x20 PUSH1 0x0 KECCAK256 SWAP1 PUSH1 0x4 MUL ADD PUSH1 0x2 ADD SLOAD DUP2 MSTORE PUSH1 0x20 ADD PUSH1 0x2 DUP4 DUP2 SLOAD DUP2 LT PUSH2 0x18A3 JUMPI PUSH2 0x18A2 PUSH2 0x2B37 JUMP JUMPDEST JUMPDEST SWAP1 PUSH1 0x0 MSTORE PUSH1 0x20 PUSH1 0x0 KECCAK256 SWAP1 PUSH1 0x4 MUL ADD PUSH1 0x3 ADD SLOAD DUP2 MSTORE POP DUP3 DUP3 DUP2 MLOAD DUP2 LT PUSH2 0x18CB JUMPI PUSH2 0x18CA PUSH2 0x2B37 JUMP JUMPDEST JUMPDEST PUSH1 0x20 MUL PUSH1 0x20 ADD ADD DUP2 SWAP1 MSTORE POP DUP1 DUP1 PUSH2 0x18E1 SWAP1 PUSH2 0x2D1B JUMP JUMPDEST SWAP2 POP POP PUSH2 0x16E6 JUMP JUMPDEST POP DUP1 SWAP2 POP POP SWAP1 JUMP JUMPDEST PUSH1 0x0 PUSH1 0x14 SWAP1 SLOAD SWAP1 PUSH2 0x100 EXP SWAP1 DIV PUSH1 0xFF AND DUP2 JUMP JUMPDEST PUSH1 0x60 PUSH1 0x0 DUP1 PUSH1 0x0 PUSH1 0x1 PUSH1 0x0 DUP7 PUSH20 0xFFFFFFFFFFFFFFFFFFFFFFFFFFFFFFFFFFFFFFFF AND PUSH20 0xFFFFFFFFFFFFFFFFFFFFFFFFFFFFFFFFFFFFFFFF AND DUP2 MSTORE PUSH1 0x20 ADD SWAP1 DUP2 MSTORE PUSH1 0x20 ADD PUSH1 0x0 KECCAK256 PUSH1 0x40 MLOAD DUP1 PUSH1 0xA0 ADD PUSH1 0x40 MSTORE SWAP1 DUP2 PUSH1 0x0 DUP3 ADD DUP1 SLOAD PUSH2 0x1965 SWAP1 PUSH2 0x2B95 JUMP JUMPDEST DUP1 PUSH1 0x1F ADD PUSH1 0x20 DUP1 SWAP2 DIV MUL PUSH1 0x20 ADD PUSH1 0x40 MLOAD SWAP1 DUP2 ADD PUSH1 0x40 MSTORE DUP1 SWAP3 SWAP2 SWAP1 DUP2 DUP2 MSTORE PUSH1 0x20 ADD DUP3 DUP1 SLOAD PUSH2 0x1991 SWAP1 PUSH2 0x2B95 JUMP JUMPDEST DUP1 ISZERO PUSH2 0x19DE JUMPI DUP1 PUSH1 0x1F LT PUSH2 0x19B3 JUMPI PUSH2 0x100 DUP1 DUP4 SLOAD DIV MUL DUP4 MSTORE SWAP2 PUSH1 0x20 ADD SWAP2 PUSH2 0x19DE JUMP JUMPDEST DUP3 ADD SWAP2 SWAP1 PUSH1 0x0 MSTORE PUSH1 0x20 PUSH1 0x0 KECCAK256 SWAP1 JUMPDEST DUP2 SLOAD DUP2 MSTORE SWAP1 PUSH1 0x1 ADD SWAP1 PUSH1 0x20 ADD DUP1 DUP4 GT PUSH2 0x19C1 JUMPI DUP3 SWAP1 SUB PUSH1 0x1F AND DUP3 ADD SWAP2 JUMPDEST POP POP POP POP POP DUP2 MSTORE PUSH1 0x20 ADD PUSH1 0x1 DUP3 ADD PUSH1 0x0 SWAP1 SLOAD SWAP1 PUSH2 0x100 EXP SWAP1 DIV PUSH20 0xFFFFFFFFFFFFFFFFFFFFFFFFFFFFFFFFFFFFFFFF AND PUSH20 0xFFFFFFFFFFFFFFFFFFFFFFFFFFFFFFFFFFFFFFFF AND PUSH20 0xFFFFFFFFFFFFFFFFFFFFFFFFFFFFFFFFFFFFFFFF AND DUP2 MSTORE PUSH1 0x20 ADD PUSH1 0x1 DUP3 ADD PUSH1 0x14 SWAP1 SLOAD SWAP1 PUSH2 0x100 EXP SWAP1 DIV PUSH1 0xFF AND ISZERO ISZERO ISZERO ISZERO DUP2 MSTORE PUSH1 0x20 ADD PUSH1 0x2 DUP3 ADD SLOAD DUP2 MSTORE PUSH1 0x20 ADD PUSH1 0x3 DUP3 ADD PUSH1 0x0 SWAP1 SLOAD SWAP1 PUSH2 0x100 EXP SWAP1 DIV PUSH2 0xFFFF AND PUSH2 0xFFFF AND PUSH2 0xFFFF AND DUP2 MSTORE POP POP SWAP1 POP DUP1 PUSH1 0x0 ADD MLOAD DUP2 PUSH1 0x60 ADD MLOAD PUSH1 0x0 PUSH20 0xFFFFFFFFFFFFFFFFFFFFFFFFFFFFFFFFFFFFFFFF AND DUP4 PUSH1 0x20 ADD MLOAD PUSH20 0xFFFFFFFFFFFFFFFFFFFFFFFFFFFFFFFFFFFFFFFF AND EQ ISZERO SWAP4 POP SWAP4 POP SWAP4 POP POP SWAP2 SWAP4 SWAP1 SWAP3 POP JUMP JUMPDEST PUSH1 0x0 DUP1 SLOAD SWAP1 PUSH2 0x100 EXP SWAP1 DIV PUSH20 0xFFFFFFFFFFFFFFFFFFFFFFFFFFFFFFFFFFFFFFFF AND PUSH20 0xFFFFFFFFFFFFFFFFFFFFFFFFFFFFFFFFFFFFFFFF AND CALLER PUSH20 0xFFFFFFFFFFFFFFFFFFFFFFFFFFFFFFFFFFFFFFFF AND EQ PUSH2 0x1B5F JUMPI PUSH1 0x40 MLOAD PUSH32 0x8C379A000000000000000000000000000000000000000000000000000000000 DUP2 MSTORE PUSH1 0x4 ADD PUSH2 0x1B56 SWAP1 PUSH2 0x2AAB JUMP JUMPDEST PUSH1 0x40 MLOAD DUP1 SWAP2 SUB SWAP1 REVERT JUMPDEST PUSH1 0x0 PUSH1 0x14 SWAP1 SLOAD SWAP1 PUSH2 0x100 EXP SWAP1 DIV PUSH1 0xFF AND ISZERO PUSH2 0x1BAF JUMPI PUSH1 0x40 MLOAD PUSH32 0x8C379A000000000000000000000000000000000000000000000000000000000 DUP2 MSTORE PUSH1 0x4 ADD PUSH2 0x1BA6 SWAP1 PUSH2 0x2B17 JUMP JUMPDEST PUSH1 0x40 MLOAD DUP1 SWAP2 SUB SWAP1 REVERT JUMPDEST PUSH1 0x0 ISZERO ISZERO PUSH1 0x1 PUSH1 0x0 DUP5 PUSH20 0xFFFFFFFFFFFFFFFFFFFFFFFFFFFFFFFFFFFFFFFF AND PUSH20 0xFFFFFFFFFFFFFFFFFFFFFFFFFFFFFFFFFFFFFFFF AND DUP2 MSTORE PUSH1 0x20 ADD SWAP1 DUP2 MSTORE PUSH1 0x20 ADD PUSH1 0x0 KECCAK256 PUSH1 0x1 ADD PUSH1 0x14 SWAP1 SLOAD SWAP1 PUSH2 0x100 EXP SWAP1 DIV PUSH1 0xFF AND ISZERO ISZERO EQ PUSH2 0x1C45 JUMPI PUSH1 0x40 MLOAD PUSH32 0x8C379A000000000000000000000000000000000000000000000000000000000 DUP2 MSTORE PUSH1 0x4 ADD PUSH2 0x1C3C SWAP1 PUSH2 0x32DB JUMP JUMPDEST PUSH1 0x40 MLOAD DUP1 SWAP2 SUB SWAP1 REVERT JUMPDEST PUSH1 0x0 JUMPDEST PUSH1 0x3 DUP1 SLOAD SWAP1 POP DUP2 LT ISZERO PUSH2 0x1DB9 JUMPI PUSH1 0x0 PUSH1 0x3 DUP3 DUP2 SLOAD DUP2 LT PUSH2 0x1C6B JUMPI PUSH2 0x1C6A PUSH2 0x2B37 JUMP JUMPDEST JUMPDEST SWAP1 PUSH1 0x0 MSTORE PUSH1 0x20 PUSH1 0x0 KECCAK256 ADD PUSH1 0x0 SWAP1 SLOAD SWAP1 PUSH2 0x100 EXP SWAP1 DIV PUSH20 0xFFFFFFFFFFFFFFFFFFFFFFFFFFFFFFFFFFFFFFFF AND SWAP1 POP DUP4 PUSH20 0xFFFFFFFFFFFFFFFFFFFFFFFFFFFFFFFFFFFFFFFF AND DUP2 PUSH20 0xFFFFFFFFFFFFFFFFFFFFFFFFFFFFFFFFFFFFFFFF AND SUB PUSH2 0x1D06 JUMPI PUSH1 0x40 MLOAD PUSH32 0x8C379A000000000000000000000000000000000000000000000000000000000 DUP2 MSTORE PUSH1 0x4 ADD PUSH2 0x1CFD SWAP1 PUSH2 0x336D JUMP JUMPDEST PUSH1 0x40 MLOAD DUP1 SWAP2 SUB SWAP1 REVERT JUMPDEST DUP3 DUP1 MLOAD SWAP1 PUSH1 0x20 ADD KECCAK256 PUSH1 0x1 PUSH1 0x0 DUP4 PUSH20 0xFFFFFFFFFFFFFFFFFFFFFFFFFFFFFFFFFFFFFFFF AND PUSH20 0xFFFFFFFFFFFFFFFFFFFFFFFFFFFFFFFFFFFFFFFF AND DUP2 MSTORE PUSH1 0x20 ADD SWAP1 DUP2 MSTORE PUSH1 0x20 ADD PUSH1 0x0 KECCAK256 PUSH1 0x0 ADD PUSH1 0x40 MLOAD PUSH2 0x1D5D SWAP2 SWAP1 PUSH2 0x2C69 JUMP JUMPDEST PUSH1 0x40 MLOAD DUP1 SWAP2 SUB SWAP1 KECCAK256 SUB PUSH2 0x1DA5 JUMPI PUSH1 0x40 MLOAD PUSH32 0x8C379A000000000000000000000000000000000000000000000000000000000 DUP2 MSTORE PUSH1 0x4 ADD PUSH2 0x1D9C SWAP1 PUSH2 0x33FF JUMP JUMPDEST PUSH1 0x40 MLOAD DUP1 SWAP2 SUB SWAP1 REVERT JUMPDEST POP DUP1 DUP1 PUSH2 0x1DB1 SWAP1 PUSH2 0x2D1B JUMP JUMPDEST SWAP2 POP POP PUSH2 0x1C48 JUMP JUMPDEST POP DUP1 PUSH1 0x1 PUSH1 0x0 DUP5 PUSH20 0xFFFFFFFFFFFFFFFFFFFFFFFFFFFFFFFFFFFFFFFF AND PUSH20 0xFFFFFFFFFFFFFFFFFFFFFFFFFFFFFFFFFFFFFFFF AND DUP2 MSTORE PUSH1 0x20 ADD SWAP1 DUP2 MSTORE PUSH1 0x20 ADD PUSH1 0x0 KECCAK256 PUSH1 0x0 ADD SWAP1 DUP2 PUSH2 0x1E09 SWAP2 SWAP1 PUSH2 0x2F0F JUMP JUMPDEST POP PUSH1 0x0 PUSH1 0x1 PUSH1 0x0 DUP5 PUSH20 0xFFFFFFFFFFFFFFFFFFFFFFFFFFFFFFFFFFFFFFFF AND PUSH20 0xFFFFFFFFFFFFFFFFFFFFFFFFFFFFFFFFFFFFFFFF AND DUP2 MSTORE PUSH1 0x20 ADD SWAP1 DUP2 MSTORE PUSH1 0x20 ADD PUSH1 0x0 KECCAK256 PUSH1 0x1 ADD PUSH1 0x14 PUSH2 0x100 EXP DUP2 SLOAD DUP2 PUSH1 0xFF MUL NOT AND SWAP1 DUP4 ISZERO ISZERO MUL OR SWAP1 SSTORE POP PUSH1 0x0 PUSH1 0x1 PUSH1 0x0 DUP5 PUSH20 0xFFFFFFFFFFFFFFFFFFFFFFFFFFFFFFFFFFFFFFFF AND PUSH20 0xFFFFFFFFFFFFFFFFFFFFFFFFFFFFFFFFFFFFFFFF AND DUP2 MSTORE PUSH1 0x20 ADD SWAP1 DUP2 MSTORE PUSH1 0x20 ADD PUSH1 0x0 KECCAK256 PUSH1 0x2 ADD DUP2 SWAP1 SSTORE POP PUSH1 0x3 DUP3 SWAP1 DUP1 PUSH1 0x1 DUP2 SLOAD ADD DUP1 DUP3 SSTORE DUP1 SWAP2 POP POP PUSH1 0x1 SWAP1 SUB SWAP1 PUSH1 0x0 MSTORE PUSH1 0x20 PUSH1 0x0 KECCAK256 ADD PUSH1 0x0 SWAP1 SWAP2 SWAP1 SWAP2 SWAP1 SWAP2 PUSH2 0x100 EXP DUP2 SLOAD DUP2 PUSH20 0xFFFFFFFFFFFFFFFFFFFFFFFFFFFFFFFFFFFFFFFF MUL NOT AND SWAP1 DUP4 PUSH20 0xFFFFFFFFFFFFFFFFFFFFFFFFFFFFFFFFFFFFFFFF AND MUL OR SWAP1 SSTORE POP POP POP JUMP JUMPDEST PUSH1 0x3 DUP2 DUP2 SLOAD DUP2 LT PUSH2 0x1F24 JUMPI PUSH1 0x0 DUP1 REVERT JUMPDEST SWAP1 PUSH1 0x0 MSTORE PUSH1 0x20 PUSH1 0x0 KECCAK256 ADD PUSH1 0x0 SWAP2 POP SLOAD SWAP1 PUSH2 0x100 EXP SWAP1 DIV PUSH20 0xFFFFFFFFFFFFFFFFFFFFFFFFFFFFFFFFFFFFFFFF AND DUP2 JUMP JUMPDEST PUSH1 0x0 DUP1 SLOAD SWAP1 PUSH2 0x100 EXP SWAP1 DIV PUSH20 0xFFFFFFFFFFFFFFFFFFFFFFFFFFFFFFFFFFFFFFFF AND DUP2 JUMP JUMPDEST PUSH1 0x0 PUSH1 0x1 SWAP1 POP PUSH1 0x0 DUP1 JUMPDEST PUSH1 0x2 DUP1 SLOAD SWAP1 POP DUP2 LT ISZERO PUSH2 0x20E3 JUMPI DUP2 PUSH1 0x2 DUP3 DUP2 SLOAD DUP2 LT PUSH2 0x1FA3 JUMPI PUSH2 0x1FA2 PUSH2 0x2B37 JUMP JUMPDEST JUMPDEST SWAP1 PUSH1 0x0 MSTORE PUSH1 0x20 PUSH1 0x0 KECCAK256 SWAP1 PUSH1 0x4 MUL ADD PUSH1 0x2 ADD SLOAD GT ISZERO PUSH2 0x2012 JUMPI PUSH1 0x2 DUP2 DUP2 SLOAD DUP2 LT PUSH2 0x1FCF JUMPI PUSH2 0x1FCE PUSH2 0x2B37 JUMP JUMPDEST JUMPDEST SWAP1 PUSH1 0x0 MSTORE PUSH1 0x20 PUSH1 0x0 KECCAK256 SWAP1 PUSH1 0x4 MUL ADD PUSH1 0x2 ADD SLOAD SWAP2 POP DUP3 PUSH1 0x2 DUP3 DUP2 SLOAD DUP2 LT PUSH2 0x1FF8 JUMPI PUSH2 0x1FF7 PUSH2 0x2B37 JUMP JUMPDEST JUMPDEST SWAP1 PUSH1 0x0 MSTORE PUSH1 0x20 PUSH1 0x0 KECCAK256 SWAP1 PUSH1 0x4 MUL ADD PUSH1 0x3 ADD DUP2 SWAP1 SSTORE POP PUSH2 0x20D0 JUMP JUMPDEST DUP2 PUSH1 0x2 DUP3 DUP2 SLOAD DUP2 LT PUSH2 0x2027 JUMPI PUSH2 0x2026 PUSH2 0x2B37 JUMP JUMPDEST JUMPDEST SWAP1 PUSH1 0x0 MSTORE PUSH1 0x20 PUSH1 0x0 KECCAK256 SWAP1 PUSH1 0x4 MUL ADD PUSH1 0x2 ADD SLOAD LT ISZERO PUSH2 0x20A4 JUMPI PUSH1 0x2 DUP2 DUP2 SLOAD DUP2 LT PUSH2 0x2053 JUMPI PUSH2 0x2052 PUSH2 0x2B37 JUMP JUMPDEST JUMPDEST SWAP1 PUSH1 0x0 MSTORE PUSH1 0x20 PUSH1 0x0 KECCAK256 SWAP1 PUSH1 0x4 MUL ADD PUSH1 0x2 ADD SLOAD SWAP2 POP DUP3 DUP1 PUSH2 0x2072 SWAP1 PUSH2 0x2D1B JUMP JUMPDEST SWAP4 POP POP DUP3 PUSH1 0x2 DUP3 DUP2 SLOAD DUP2 LT PUSH2 0x208A JUMPI PUSH2 0x2089 PUSH2 0x2B37 JUMP JUMPDEST JUMPDEST SWAP1 PUSH1 0x0 MSTORE PUSH1 0x20 PUSH1 0x0 KECCAK256 SWAP1 PUSH1 0x4 MUL ADD PUSH1 0x3 ADD DUP2 SWAP1 SSTORE POP PUSH2 0x20CF JUMP JUMPDEST DUP3 PUSH1 0x2 DUP3 DUP2 SLOAD DUP2 LT PUSH2 0x20B9 JUMPI PUSH2 0x20B8 PUSH2 0x2B37 JUMP JUMPDEST JUMPDEST SWAP1 PUSH1 0x0 MSTORE PUSH1 0x20 PUSH1 0x0 KECCAK256 SWAP1 PUSH1 0x4 MUL ADD PUSH1 0x3 ADD DUP2 SWAP1 SSTORE POP JUMPDEST JUMPDEST DUP1 DUP1 PUSH2 0x20DB SWAP1 PUSH2 0x2D1B JUMP JUMPDEST SWAP2 POP POP PUSH2 0x1F81 JUMP JUMPDEST POP POP POP JUMP JUMPDEST PUSH1 0x40 MLOAD DUP1 PUSH1 0xA0 ADD PUSH1 0x40 MSTORE DUP1 PUSH1 0x60 DUP2 MSTORE PUSH1 0x20 ADD PUSH1 0x0 PUSH20 0xFFFFFFFFFFFFFFFFFFFFFFFFFFFFFFFFFFFFFFFF AND DUP2 MSTORE PUSH1 0x20 ADD PUSH1 0x0 ISZERO ISZERO DUP2 MSTORE PUSH1 0x20 ADD PUSH1 0x0 DUP2 MSTORE PUSH1 0x20 ADD PUSH1 0x0 PUSH2 0xFFFF AND DUP2 MSTORE POP SWAP1 JUMP JUMPDEST PUSH1 0x40 MLOAD DUP1 PUSH1 0x80 ADD PUSH1 0x40 MSTORE DUP1 PUSH1 0x60 DUP2 MSTORE PUSH1 0x20 ADD PUSH1 0x60 DUP2 MSTORE PUSH1 0x20 ADD PUSH1 0x0 DUP2 MSTORE PUSH1 0x20 ADD PUSH1 0x0 DUP2 MSTORE POP SWAP1 JUMP JUMPDEST PUSH1 0x0 PUSH1 0x40 MLOAD SWAP1 POP SWAP1 JUMP JUMPDEST PUSH1 0x0 DUP1 REVERT JUMPDEST PUSH1 0x0 DUP1 REVERT JUMPDEST PUSH1 0x0 DUP1 REVERT JUMPDEST PUSH1 0x0 DUP1 REVERT JUMPDEST PUSH1 0x0 PUSH1 0x1F NOT PUSH1 0x1F DUP4 ADD AND SWAP1 POP SWAP2 SWAP1 POP JUMP JUMPDEST PUSH32 0x4E487B7100000000000000000000000000000000000000000000000000000000 PUSH1 0x0 MSTORE PUSH1 0x41 PUSH1 0x4 MSTORE PUSH1 0x24 PUSH1 0x0 REVERT JUMPDEST PUSH2 0x21C2 DUP3 PUSH2 0x2179 JUMP JUMPDEST DUP2 ADD DUP2 DUP2 LT PUSH8 0xFFFFFFFFFFFFFFFF DUP3 GT OR ISZERO PUSH2 0x21E1 JUMPI PUSH2 0x21E0 PUSH2 0x218A JUMP JUMPDEST JUMPDEST DUP1 PUSH1 0x40 MSTORE POP POP POP JUMP JUMPDEST PUSH1 0x0 PUSH2 0x21F4 PUSH2 0x215B JUMP JUMPDEST SWAP1 POP PUSH2 0x2200 DUP3 DUP3 PUSH2 0x21B9 JUMP JUMPDEST SWAP2 SWAP1 POP JUMP JUMPDEST PUSH1 0x0 PUSH8 0xFFFFFFFFFFFFFFFF DUP3 GT ISZERO PUSH2 0x2220 JUMPI PUSH2 0x221F PUSH2 0x218A JUMP JUMPDEST JUMPDEST PUSH2 0x2229 DUP3 PUSH2 0x2179 JUMP JUMPDEST SWAP1 POP PUSH1 0x20 DUP2 ADD SWAP1 POP SWAP2 SWAP1 POP JUMP JUMPDEST DUP3 DUP2 DUP4 CALLDATACOPY PUSH1 0x0 DUP4 DUP4 ADD MSTORE POP POP POP JUMP JUMPDEST PUSH1 0x0 PUSH2 0x2258 PUSH2 0x2253 DUP5 PUSH2 0x2205 JUMP JUMPDEST PUSH2 0x21EA JUMP JUMPDEST SWAP1 POP DUP3 DUP2 MSTORE PUSH1 0x20 DUP2 ADD DUP5 DUP5 DUP5 ADD GT ISZERO PUSH2 0x2274 JUMPI PUSH2 0x2273 PUSH2 0x2174 JUMP JUMPDEST JUMPDEST PUSH2 0x227F DUP5 DUP3 DUP6 PUSH2 0x2236 JUMP JUMPDEST POP SWAP4 SWAP3 POP POP POP JUMP JUMPDEST PUSH1 0x0 DUP3 PUSH1 0x1F DUP4 ADD SLT PUSH2 0x229C JUMPI PUSH2 0x229B PUSH2 0x216F JUMP JUMPDEST JUMPDEST DUP2 CALLDATALOAD PUSH2 0x22AC DUP5 DUP3 PUSH1 0x20 DUP7 ADD PUSH2 0x2245 JUMP JUMPDEST SWAP2 POP POP SWAP3 SWAP2 POP POP JUMP JUMPDEST PUSH1 0x0 DUP1 PUSH1 0x40 DUP4 DUP6 SUB SLT ISZERO PUSH2 0x22CC JUMPI PUSH2 0x22CB PUSH2 0x2165 JUMP JUMPDEST JUMPDEST PUSH1 0x0 DUP4 ADD CALLDATALOAD PUSH8 0xFFFFFFFFFFFFFFFF DUP2 GT ISZERO PUSH2 0x22EA JUMPI PUSH2 0x22E9 PUSH2 0x216A JUMP JUMPDEST JUMPDEST PUSH2 0x22F6 DUP6 DUP3 DUP7 ADD PUSH2 0x2287 JUMP JUMPDEST SWAP3 POP POP PUSH1 0x20 DUP4 ADD CALLDATALOAD PUSH8 0xFFFFFFFFFFFFFFFF DUP2 GT ISZERO PUSH2 0x2317 JUMPI PUSH2 0x2316 PUSH2 0x216A JUMP JUMPDEST JUMPDEST PUSH2 0x2323 DUP6 DUP3 DUP7 ADD PUSH2 0x2287 JUMP JUMPDEST SWAP2 POP POP SWAP3 POP SWAP3 SWAP1 POP JUMP JUMPDEST PUSH1 0x0 DUP2 SWAP1 POP SWAP2 SWAP1 POP JUMP JUMPDEST PUSH2 0x2340 DUP2 PUSH2 0x232D JUMP JUMPDEST DUP2 EQ PUSH2 0x234B JUMPI PUSH1 0x0 DUP1 REVERT JUMPDEST POP JUMP JUMPDEST PUSH1 0x0 DUP2 CALLDATALOAD SWAP1 POP PUSH2 0x235D DUP2 PUSH2 0x2337 JUMP JUMPDEST SWAP3 SWAP2 POP POP JUMP JUMPDEST PUSH1 0x0 PUSH1 0x20 DUP3 DUP5 SUB SLT ISZERO PUSH2 0x2379 JUMPI PUSH2 0x2378 PUSH2 0x2165 JUMP JUMPDEST JUMPDEST PUSH1 0x0 PUSH2 0x2387 DUP5 DUP3 DUP6 ADD PUSH2 0x234E JUMP JUMPDEST SWAP2 POP POP SWAP3 SWAP2 POP POP JUMP JUMPDEST PUSH2 0x2399 DUP2 PUSH2 0x232D JUMP JUMPDEST DUP3 MSTORE POP POP JUMP JUMPDEST PUSH1 0x0 DUP2 MLOAD SWAP1 POP SWAP2 SWAP1 POP JUMP JUMPDEST PUSH1 0x0 DUP3 DUP3 MSTORE PUSH1 0x20 DUP3 ADD SWAP1 POP SWAP3 SWAP2 POP POP JUMP JUMPDEST PUSH1 0x0 JUMPDEST DUP4 DUP2 LT ISZERO PUSH2 0x23D9 JUMPI DUP1 DUP3 ADD MLOAD DUP2 DUP5 ADD MSTORE PUSH1 0x20 DUP2 ADD SWAP1 POP PUSH2 0x23BE JUMP JUMPDEST PUSH1 0x0 DUP5 DUP5 ADD MSTORE POP POP POP POP JUMP JUMPDEST PUSH1 0x0 PUSH2 0x23F0 DUP3 PUSH2 0x239F JUMP JUMPDEST PUSH2 0x23FA DUP2 DUP6 PUSH2 0x23AA JUMP JUMPDEST SWAP4 POP PUSH2 0x240A DUP2 DUP6 PUSH1 0x20 DUP7 ADD PUSH2 0x23BB JUMP JUMPDEST PUSH2 0x2413 DUP2 PUSH2 0x2179 JUMP JUMPDEST DUP5 ADD SWAP2 POP POP SWAP3 SWAP2 POP POP JUMP JUMPDEST PUSH1 0x0 PUSH1 0x60 DUP3 ADD SWAP1 POP PUSH2 0x2433 PUSH1 0x0 DUP4 ADD DUP7 PUSH2 0x2390 JUMP JUMPDEST DUP2 DUP2 SUB PUSH1 0x20 DUP4 ADD MSTORE PUSH2 0x2445 DUP2 DUP6 PUSH2 0x23E5 JUMP JUMPDEST SWAP1 POP DUP2 DUP2 SUB PUSH1 0x40 DUP4 ADD MSTORE PUSH2 0x2459 DUP2 DUP5 PUSH2 0x23E5 JUMP JUMPDEST SWAP1 POP SWAP5 SWAP4 POP POP POP POP JUMP JUMPDEST PUSH1 0x0 PUSH1 0x20 DUP3 ADD SWAP1 POP PUSH2 0x2478 PUSH1 0x0 DUP4 ADD DUP5 PUSH2 0x2390 JUMP JUMPDEST SWAP3 SWAP2 POP POP JUMP JUMPDEST PUSH1 0x0 PUSH1 0x80 DUP3 ADD SWAP1 POP DUP2 DUP2 SUB PUSH1 0x0 DUP4 ADD MSTORE PUSH2 0x2498 DUP2 DUP8 PUSH2 0x23E5 JUMP JUMPDEST SWAP1 POP DUP2 DUP2 SUB PUSH1 0x20 DUP4 ADD MSTORE PUSH2 0x24AC DUP2 DUP7 PUSH2 0x23E5 JUMP JUMPDEST SWAP1 POP PUSH2 0x24BB PUSH1 0x40 DUP4 ADD DUP6 PUSH2 0x2390 JUMP JUMPDEST PUSH2 0x24C8 PUSH1 0x60 DUP4 ADD DUP5 PUSH2 0x2390 JUMP JUMPDEST SWAP6 SWAP5 POP POP POP POP POP JUMP JUMPDEST PUSH1 0x0 DUP2 MLOAD SWAP1 POP SWAP2 SWAP1 POP JUMP JUMPDEST PUSH1 0x0 DUP3 DUP3 MSTORE PUSH1 0x20 DUP3 ADD SWAP1 POP SWAP3 SWAP2 POP POP JUMP JUMPDEST PUSH1 0x0 DUP2 SWAP1 POP PUSH1 0x20 DUP3 ADD SWAP1 POP SWAP2 SWAP1 POP JUMP JUMPDEST PUSH1 0x0 DUP3 DUP3 MSTORE PUSH1 0x20 DUP3 ADD SWAP1 POP SWAP3 SWAP2 POP POP JUMP JUMPDEST PUSH1 0x0 PUSH2 0x2519 DUP3 PUSH2 0x239F JUMP JUMPDEST PUSH2 0x2523 DUP2 DUP6 PUSH2 0x24FD JUMP JUMPDEST SWAP4 POP PUSH2 0x2533 DUP2 DUP6 PUSH1 0x20 DUP7 ADD PUSH2 0x23BB JUMP JUMPDEST PUSH2 0x253C DUP2 PUSH2 0x2179 JUMP JUMPDEST DUP5 ADD SWAP2 POP POP SWAP3 SWAP2 POP POP JUMP JUMPDEST PUSH1 0x0 PUSH20 0xFFFFFFFFFFFFFFFFFFFFFFFFFFFFFFFFFFFFFFFF DUP3 AND SWAP1 POP SWAP2 SWAP1 POP JUMP JUMPDEST PUSH1 0x0 PUSH2 0x2572 DUP3 PUSH2 0x2547 JUMP JUMPDEST SWAP1 POP SWAP2 SWAP1 POP JUMP JUMPDEST PUSH2 0x2582 DUP2 PUSH2 0x2567 JUMP JUMPDEST DUP3 MSTORE POP POP JUMP JUMPDEST PUSH1 0x0 DUP2 ISZERO ISZERO SWAP1 POP SWAP2 SWAP1 POP JUMP JUMPDEST PUSH2 0x259D DUP2 PUSH2 0x2588 JUMP JUMPDEST DUP3 MSTORE POP POP JUMP JUMPDEST PUSH2 0x25AC DUP2 PUSH2 0x232D JUMP JUMPDEST DUP3 MSTORE POP POP JUMP JUMPDEST PUSH1 0x0 PUSH2 0xFFFF DUP3 AND SWAP1 POP SWAP2 SWAP1 POP JUMP JUMPDEST PUSH2 0x25C9 DUP2 PUSH2 0x25B2 JUMP JUMPDEST DUP3 MSTORE POP POP JUMP JUMPDEST PUSH1 0x0 PUSH1 0xA0 DUP4 ADD PUSH1 0x0 DUP4 ADD MLOAD DUP5 DUP3 SUB PUSH1 0x0 DUP7 ADD MSTORE PUSH2 0x25EC DUP3 DUP3 PUSH2 0x250E JUMP JUMPDEST SWAP2 POP POP PUSH1 0x20 DUP4 ADD MLOAD PUSH2 0x2601 PUSH1 0x20 DUP7 ADD DUP3 PUSH2 0x2579 JUMP JUMPDEST POP PUSH1 0x40 DUP4 ADD MLOAD PUSH2 0x2614 PUSH1 0x40 DUP7 ADD DUP3 PUSH2 0x2594 JUMP JUMPDEST POP PUSH1 0x60 DUP4 ADD MLOAD PUSH2 0x2627 PUSH1 0x60 DUP7 ADD DUP3 PUSH2 0x25A3 JUMP JUMPDEST POP PUSH1 0x80 DUP4 ADD MLOAD PUSH2 0x263A PUSH1 0x80 DUP7 ADD DUP3 PUSH2 0x25C0 JUMP JUMPDEST POP DUP1 SWAP2 POP POP SWAP3 SWAP2 POP POP JUMP JUMPDEST PUSH1 0x0 PUSH2 0x2651 DUP4 DUP4 PUSH2 0x25CF JUMP JUMPDEST SWAP1 POP SWAP3 SWAP2 POP POP JUMP JUMPDEST PUSH1 0x0 PUSH1 0x20 DUP3 ADD SWAP1 POP SWAP2 SWAP1 POP JUMP JUMPDEST PUSH1 0x0 PUSH2 0x2671 DUP3 PUSH2 0x24D1 JUMP JUMPDEST PUSH2 0x267B DUP2 DUP6 PUSH2 0x24DC JUMP JUMPDEST SWAP4 POP DUP4 PUSH1 0x20 DUP3 MUL DUP6 ADD PUSH2 0x268D DUP6 PUSH2 0x24ED JUMP JUMPDEST DUP1 PUSH1 0x0 JUMPDEST DUP6 DUP2 LT ISZERO PUSH2 0x26C9 JUMPI DUP5 DUP5 SUB DUP10 MSTORE DUP2 MLOAD PUSH2 0x26AA DUP6 DUP3 PUSH2 0x2645 JUMP JUMPDEST SWAP5 POP PUSH2 0x26B5 DUP4 PUSH2 0x2659 JUMP JUMPDEST SWAP3 POP PUSH1 0x20 DUP11 ADD SWAP10 POP POP PUSH1 0x1 DUP2 ADD SWAP1 POP PUSH2 0x2691 JUMP JUMPDEST POP DUP3 SWAP8 POP DUP8 SWAP6 POP POP POP POP POP POP SWAP3 SWAP2 POP POP JUMP JUMPDEST PUSH1 0x0 PUSH1 0x20 DUP3 ADD SWAP1 POP DUP2 DUP2 SUB PUSH1 0x0 DUP4 ADD MSTORE PUSH2 0x26F5 DUP2 DUP5 PUSH2 0x2666 JUMP JUMPDEST SWAP1 POP SWAP3 SWAP2 POP POP JUMP JUMPDEST PUSH1 0x0 PUSH1 0x60 DUP3 ADD SWAP1 POP DUP2 DUP2 SUB PUSH1 0x0 DUP4 ADD MSTORE PUSH2 0x2717 DUP2 DUP7 PUSH2 0x23E5 JUMP JUMPDEST SWAP1 POP PUSH2 0x2726 PUSH1 0x20 DUP4 ADD DUP6 PUSH2 0x2390 JUMP JUMPDEST PUSH2 0x2733 PUSH1 0x40 DUP4 ADD DUP5 PUSH2 0x2390 JUMP JUMPDEST SWAP5 SWAP4 POP POP POP POP JUMP JUMPDEST PUSH2 0x2744 DUP2 PUSH2 0x2567 JUMP JUMPDEST DUP2 EQ PUSH2 0x274F JUMPI PUSH1 0x0 DUP1 REVERT JUMPDEST POP JUMP JUMPDEST PUSH1 0x0 DUP2 CALLDATALOAD SWAP1 POP PUSH2 0x2761 DUP2 PUSH2 0x273B JUMP JUMPDEST SWAP3 SWAP2 POP POP JUMP JUMPDEST PUSH1 0x0 PUSH1 0x20 DUP3 DUP5 SUB SLT ISZERO PUSH2 0x277D JUMPI PUSH2 0x277C PUSH2 0x2165 JUMP JUMPDEST JUMPDEST PUSH1 0x0 PUSH2 0x278B DUP5 DUP3 DUP6 ADD PUSH2 0x2752 JUMP JUMPDEST SWAP2 POP POP SWAP3 SWAP2 POP POP JUMP JUMPDEST PUSH2 0x279D DUP2 PUSH2 0x2567 JUMP JUMPDEST DUP3 MSTORE POP POP JUMP JUMPDEST PUSH2 0x27AC DUP2 PUSH2 0x2588 JUMP JUMPDEST DUP3 MSTORE POP POP JUMP JUMPDEST PUSH2 0x27BB DUP2 PUSH2 0x25B2 JUMP JUMPDEST DUP3 MSTORE POP POP JUMP JUMPDEST PUSH1 0x0 PUSH1 0xA0 DUP3 ADD SWAP1 POP DUP2 DUP2 SUB PUSH1 0x0 DUP4 ADD MSTORE PUSH2 0x27DB DUP2 DUP9 PUSH2 0x23E5 JUMP JUMPDEST SWAP1 POP PUSH2 0x27EA PUSH1 0x20 DUP4 ADD DUP8 PUSH2 0x2794 JUMP JUMPDEST PUSH2 0x27F7 PUSH1 0x40 DUP4 ADD DUP7 PUSH2 0x27A3 JUMP JUMPDEST PUSH2 0x2804 PUSH1 0x60 DUP4 ADD DUP6 PUSH2 0x2390 JUMP JUMPDEST PUSH2 0x2811 PUSH1 0x80 DUP4 ADD DUP5 PUSH2 0x27B2 JUMP JUMPDEST SWAP7 SWAP6 POP POP POP POP POP POP JUMP JUMPDEST PUSH1 0x0 PUSH1 0x20 DUP3 ADD SWAP1 POP PUSH2 0x2830 PUSH1 0x0 DUP4 ADD DUP5 PUSH2 0x27A3 JUMP JUMPDEST SWAP3 SWAP2 POP POP JUMP JUMPDEST PUSH1 0x0 DUP2 MLOAD SWAP1 POP SWAP2 SWAP1 POP JUMP JUMPDEST PUSH1 0x0 DUP3 DUP3 MSTORE PUSH1 0x20 DUP3 ADD SWAP1 POP SWAP3 SWAP2 POP POP JUMP JUMPDEST PUSH1 0x0 DUP2 SWAP1 POP PUSH1 0x20 DUP3 ADD SWAP1 POP SWAP2 SWAP1 POP JUMP JUMPDEST PUSH1 0x0 PUSH1 0x80 DUP4 ADD PUSH1 0x0 DUP4 ADD MLOAD DUP5 DUP3 SUB PUSH1 0x0 DUP7 ADD MSTORE PUSH2 0x287F DUP3 DUP3 PUSH2 0x250E JUMP JUMPDEST SWAP2 POP POP PUSH1 0x20 DUP4 ADD MLOAD DUP5 DUP3 SUB PUSH1 0x20 DUP7 ADD MSTORE PUSH2 0x2899 DUP3 DUP3 PUSH2 0x250E JUMP JUMPDEST SWAP2 POP POP PUSH1 0x40 DUP4 ADD MLOAD PUSH2 0x28AE PUSH1 0x40 DUP7 ADD DUP3 PUSH2 0x25A3 JUMP JUMPDEST POP PUSH1 0x60 DUP4 ADD MLOAD PUSH2 0x28C1 PUSH1 0x60 DUP7 ADD DUP3 PUSH2 0x25A3 JUMP JUMPDEST POP DUP1 SWAP2 POP POP SWAP3 SWAP2 POP POP JUMP JUMPDEST PUSH1 0x0 PUSH2 0x28D8 DUP4 DUP4 PUSH2 0x2862 JUMP JUMPDEST SWAP1 POP SWAP3 SWAP2 POP POP JUMP JUMPDEST PUSH1 0x0 PUSH1 0x20 DUP3 ADD SWAP1 POP SWAP2 SWAP1 POP JUMP JUMPDEST PUSH1 0x0 PUSH2 0x28F8 DUP3 PUSH2 0x2836 JUMP JUMPDEST PUSH2 0x2902 DUP2 DUP6 PUSH2 0x2841 JUMP JUMPDEST SWAP4 POP DUP4 PUSH1 0x20 DUP3 MUL DUP6 ADD PUSH2 0x2914 DUP6 PUSH2 0x2852 JUMP JUMPDEST DUP1 PUSH1 0x0 JUMPDEST DUP6 DUP2 LT ISZERO PUSH2 0x2950 JUMPI DUP5 DUP5 SUB DUP10 MSTORE DUP2 MLOAD PUSH2 0x2931 DUP6 DUP3 PUSH2 0x28CC JUMP JUMPDEST SWAP5 POP PUSH2 0x293C DUP4 PUSH2 0x28E0 JUMP JUMPDEST SWAP3 POP PUSH1 0x20 DUP11 ADD SWAP10 POP POP PUSH1 0x1 DUP2 ADD SWAP1 POP PUSH2 0x2918 JUMP JUMPDEST POP DUP3 SWAP8 POP DUP8 SWAP6 POP POP POP POP POP POP SWAP3 SWAP2 POP POP JUMP JUMPDEST PUSH1 0x0 PUSH1 0x20 DUP3 ADD SWAP1 POP DUP2 DUP2 SUB PUSH1 0x0 DUP4 ADD MSTORE PUSH2 0x297C DUP2 DUP5 PUSH2 0x28ED JUMP JUMPDEST SWAP1 POP SWAP3 SWAP2 POP POP JUMP JUMPDEST PUSH1 0x0 PUSH1 0x60 DUP3 ADD SWAP1 POP DUP2 DUP2 SUB PUSH1 0x0 DUP4 ADD MSTORE PUSH2 0x299E DUP2 DUP7 PUSH2 0x23E5 JUMP JUMPDEST SWAP1 POP PUSH2 0x29AD PUSH1 0x20 DUP4 ADD DUP6 PUSH2 0x2390 JUMP JUMPDEST PUSH2 0x29BA PUSH1 0x40 DUP4 ADD DUP5 PUSH2 0x27A3 JUMP JUMPDEST SWAP5 SWAP4 POP POP POP POP JUMP JUMPDEST PUSH1 0x0 DUP1 PUSH1 0x40 DUP4 DUP6 SUB SLT ISZERO PUSH2 0x29D9 JUMPI PUSH2 0x29D8 PUSH2 0x2165 JUMP JUMPDEST JUMPDEST PUSH1 0x0 PUSH2 0x29E7 DUP6 DUP3 DUP7 ADD PUSH2 0x2752 JUMP JUMPDEST SWAP3 POP POP PUSH1 0x20 DUP4 ADD CALLDATALOAD PUSH8 0xFFFFFFFFFFFFFFFF DUP2 GT ISZERO PUSH2 0x2A08 JUMPI PUSH2 0x2A07 PUSH2 0x216A JUMP JUMPDEST JUMPDEST PUSH2 0x2A14 DUP6 DUP3 DUP7 ADD PUSH2 0x2287 JUMP JUMPDEST SWAP2 POP POP SWAP3 POP SWAP3 SWAP1 POP JUMP JUMPDEST PUSH1 0x0 PUSH1 0x20 DUP3 ADD SWAP1 POP PUSH2 0x2A33 PUSH1 0x0 DUP4 ADD DUP5 PUSH2 0x2794 JUMP JUMPDEST SWAP3 SWAP2 POP POP JUMP JUMPDEST PUSH32 0x4F6E6C79207468652061646D696E2063616E20706572666F726D207468697320 PUSH1 0x0 DUP3 ADD MSTORE PUSH32 0x616374696F6E0000000000000000000000000000000000000000000000000000 PUSH1 0x20 DUP3 ADD MSTORE POP JUMP JUMPDEST PUSH1 0x0 PUSH2 0x2A95 PUSH1 0x26 DUP4 PUSH2 0x23AA JUMP JUMPDEST SWAP2 POP PUSH2 0x2AA0 DUP3 PUSH2 0x2A39 JUMP JUMPDEST PUSH1 0x40 DUP3 ADD SWAP1 POP SWAP2 SWAP1 POP JUMP JUMPDEST PUSH1 0x0 PUSH1 0x20 DUP3 ADD SWAP1 POP DUP2 DUP2 SUB PUSH1 0x0 DUP4 ADD MSTORE PUSH2 0x2AC4 DUP2 PUSH2 0x2A88 JUMP JUMPDEST SWAP1 POP SWAP2 SWAP1 POP JUMP JUMPDEST PUSH32 0x456C656374696F6E2068617320616C7265616479207374617274656400000000 PUSH1 0x0 DUP3 ADD MSTORE POP JUMP JUMPDEST PUSH1 0x0 PUSH2 0x2B01 PUSH1 0x1C DUP4 PUSH2 0x23AA JUMP JUMPDEST SWAP2 POP PUSH2 0x2B0C DUP3 PUSH2 0x2ACB JUMP JUMPDEST PUSH1 0x20 DUP3 ADD SWAP1 POP SWAP2 SWAP1 POP JUMP JUMPDEST PUSH1 0x0 PUSH1 0x20 DUP3 ADD SWAP1 POP DUP2 DUP2 SUB PUSH1 0x0 DUP4 ADD MSTORE PUSH2 0x2B30 DUP2 PUSH2 0x2AF4 JUMP JUMPDEST SWAP1 POP SWAP2 SWAP1 POP JUMP JUMPDEST PUSH32 0x4E487B7100000000000000000000000000000000000000000000000000000000 PUSH1 0x0 MSTORE PUSH1 0x32 PUSH1 0x4 MSTORE PUSH1 0x24 PUSH1 0x0 REVERT JUMPDEST PUSH32 0x4E487B7100000000000000000000000000000000000000000000000000000000 PUSH1 0x0 MSTORE PUSH1 0x22 PUSH1 0x4 MSTORE PUSH1 0x24 PUSH1 0x0 REVERT JUMPDEST PUSH1 0x0 PUSH1 0x2 DUP3 DIV SWAP1 POP PUSH1 0x1 DUP3 AND DUP1 PUSH2 0x2BAD JUMPI PUSH1 0x7F DUP3 AND SWAP2 POP JUMPDEST PUSH1 0x20 DUP3 LT DUP2 SUB PUSH2 0x2BC0 JUMPI PUSH2 0x2BBF PUSH2 0x2B66 JUMP JUMPDEST JUMPDEST POP SWAP2 SWAP1 POP JUMP JUMPDEST PUSH1 0x0 DUP2 SWAP1 POP SWAP3 SWAP2 POP POP JUMP JUMPDEST PUSH1 0x0 DUP2 SWAP1 POP DUP2 PUSH1 0x0 MSTORE PUSH1 0x20 PUSH1 0x0 KECCAK256 SWAP1 POP SWAP2 SWAP1 POP JUMP JUMPDEST PUSH1 0x0 DUP2 SLOAD PUSH2 0x2BF3 DUP2 PUSH2 0x2B95 JUMP JUMPDEST PUSH2 0x2BFD DUP2 DUP7 PUSH2 0x2BC6 JUMP JUMPDEST SWAP5 POP PUSH1 0x1 DUP3 AND PUSH1 0x0 DUP2 EQ PUSH2 0x2C18 JUMPI PUSH1 0x1 DUP2 EQ PUSH2 0x2C2D JUMPI PUSH2 0x2C60 JUMP JUMPDEST PUSH1 0xFF NOT DUP4 AND DUP7 MSTORE DUP2 ISZERO ISZERO DUP3 MUL DUP7 ADD SWAP4 POP PUSH2 0x2C60 JUMP JUMPDEST PUSH2 0x2C36 DUP6 PUSH2 0x2BD1 JUMP JUMPDEST PUSH1 0x0 JUMPDEST DUP4 DUP2 LT ISZERO PUSH2 0x2C58 JUMPI DUP2 SLOAD DUP2 DUP10 ADD MSTORE PUSH1 0x1 DUP3 ADD SWAP2 POP PUSH1 0x20 DUP2 ADD SWAP1 POP PUSH2 0x2C39 JUMP JUMPDEST DUP4 DUP9 ADD SWAP6 POP POP POP JUMPDEST POP POP POP SWAP3 SWAP2 POP POP JUMP JUMPDEST PUSH1 0x0 PUSH2 0x2C75 DUP3 DUP5 PUSH2 0x2BE6 JUMP JUMPDEST SWAP2 POP DUP2 SWAP1 POP SWAP3 SWAP2 POP POP JUMP JUMPDEST PUSH32 0x43616E64696461746520697320616C7265616479206164646564000000000000 PUSH1 0x0 DUP3 ADD MSTORE POP JUMP JUMPDEST PUSH1 0x0 PUSH2 0x2CB6 PUSH1 0x1A DUP4 PUSH2 0x23AA JUMP JUMPDEST SWAP2 POP PUSH2 0x2CC1 DUP3 PUSH2 0x2C80 JUMP JUMPDEST PUSH1 0x20 DUP3 ADD SWAP1 POP SWAP2 SWAP1 POP JUMP JUMPDEST PUSH1 0x0 PUSH1 0x20 DUP3 ADD SWAP1 POP DUP2 DUP2 SUB PUSH1 0x0 DUP4 ADD MSTORE PUSH2 0x2CE5 DUP2 PUSH2 0x2CA9 JUMP JUMPDEST SWAP1 POP SWAP2 SWAP1 POP JUMP JUMPDEST PUSH32 0x4E487B7100000000000000000000000000000000000000000000000000000000 PUSH1 0x0 MSTORE PUSH1 0x11 PUSH1 0x4 MSTORE PUSH1 0x24 PUSH1 0x0 REVERT JUMPDEST PUSH1 0x0 PUSH2 0x2D26 DUP3 PUSH2 0x232D JUMP JUMPDEST SWAP2 POP PUSH32 0xFFFFFFFFFFFFFFFFFFFFFFFFFFFFFFFFFFFFFFFFFFFFFFFFFFFFFFFFFFFFFFFF DUP3 SUB PUSH2 0x2D58 JUMPI PUSH2 0x2D57 PUSH2 0x2CEC JUMP JUMPDEST JUMPDEST PUSH1 0x1 DUP3 ADD SWAP1 POP SWAP2 SWAP1 POP JUMP JUMPDEST PUSH1 0x0 DUP2 SWAP1 POP DUP2 PUSH1 0x0 MSTORE PUSH1 0x20 PUSH1 0x0 KECCAK256 SWAP1 POP SWAP2 SWAP1 POP JUMP JUMPDEST PUSH1 0x0 PUSH1 0x20 PUSH1 0x1F DUP4 ADD DIV SWAP1 POP SWAP2 SWAP1 POP JUMP JUMPDEST PUSH1 0x0 DUP3 DUP3 SHL SWAP1 POP SWAP3 SWAP2 POP POP JUMP JUMPDEST PUSH1 0x0 PUSH1 0x8 DUP4 MUL PUSH2 0x2DC5 PUSH32 0xFFFFFFFFFFFFFFFFFFFFFFFFFFFFFFFFFFFFFFFFFFFFFFFFFFFFFFFFFFFFFFFF DUP3 PUSH2 0x2D88 JUMP JUMPDEST PUSH2 0x2DCF DUP7 DUP4 PUSH2 0x2D88 JUMP JUMPDEST SWAP6 POP DUP1 NOT DUP5 AND SWAP4 POP DUP1 DUP7 AND DUP5 OR SWAP3 POP POP POP SWAP4 SWAP3 POP POP POP JUMP JUMPDEST PUSH1 0x0 DUP2 SWAP1 POP SWAP2 SWAP1 POP JUMP JUMPDEST PUSH1 0x0 PUSH2 0x2E0C PUSH2 0x2E07 PUSH2 0x2E02 DUP5 PUSH2 0x232D JUMP JUMPDEST PUSH2 0x2DE7 JUMP JUMPDEST PUSH2 0x232D JUMP JUMPDEST SWAP1 POP SWAP2 SWAP1 POP JUMP JUMPDEST PUSH1 0x0 DUP2 SWAP1 POP SWAP2 SWAP1 POP JUMP JUMPDEST PUSH2 0x2E26 DUP4 PUSH2 0x2DF1 JUMP JUMPDEST PUSH2 0x2E3A PUSH2 0x2E32 DUP3 PUSH2 0x2E13 JUMP JUMPDEST DUP5 DUP5 SLOAD PUSH2 0x2D95 JUMP JUMPDEST DUP3 SSTORE POP POP POP POP JUMP JUMPDEST PUSH1 0x0 SWAP1 JUMP JUMPDEST PUSH2 0x2E4F PUSH2 0x2E42 JUMP JUMPDEST PUSH2 0x2E5A DUP2 DUP5 DUP5 PUSH2 0x2E1D JUMP JUMPDEST POP POP POP JUMP JUMPDEST JUMPDEST DUP2 DUP2 LT ISZERO PUSH2 0x2E7E JUMPI PUSH2 0x2E73 PUSH1 0x0 DUP3 PUSH2 0x2E47 JUMP JUMPDEST PUSH1 0x1 DUP2 ADD SWAP1 POP PUSH2 0x2E60 JUMP JUMPDEST POP POP JUMP JUMPDEST PUSH1 0x1F DUP3 GT ISZERO PUSH2 0x2EC3 JUMPI PUSH2 0x2E94 DUP2 PUSH2 0x2D63 JUMP JUMPDEST PUSH2 0x2E9D DUP5 PUSH2 0x2D78 JUMP JUMPDEST DUP2 ADD PUSH1 0x20 DUP6 LT ISZERO PUSH2 0x2EAC JUMPI DUP2 SWAP1 POP JUMPDEST PUSH2 0x2EC0 PUSH2 0x2EB8 DUP6 PUSH2 0x2D78 JUMP JUMPDEST DUP4 ADD DUP3 PUSH2 0x2E5F JUMP JUMPDEST POP POP JUMPDEST POP POP POP JUMP JUMPDEST PUSH1 0x0 DUP3 DUP3 SHR SWAP1 POP SWAP3 SWAP2 POP POP JUMP JUMPDEST PUSH1 0x0 PUSH2 0x2EE6 PUSH1 0x0 NOT DUP5 PUSH1 0x8 MUL PUSH2 0x2EC8 JUMP JUMPDEST NOT DUP1 DUP4 AND SWAP2 POP POP SWAP3 SWAP2 POP POP JUMP JUMPDEST PUSH1 0x0 PUSH2 0x2EFF DUP4 DUP4 PUSH2 0x2ED5 JUMP JUMPDEST SWAP2 POP DUP3 PUSH1 0x2 MUL DUP3 OR SWAP1 POP SWAP3 SWAP2 POP POP JUMP JUMPDEST PUSH2 0x2F18 DUP3 PUSH2 0x239F JUMP JUMPDEST PUSH8 0xFFFFFFFFFFFFFFFF DUP2 GT ISZERO PUSH2 0x2F31 JUMPI PUSH2 0x2F30 PUSH2 0x218A JUMP JUMPDEST JUMPDEST PUSH2 0x2F3B DUP3 SLOAD PUSH2 0x2B95 JUMP JUMPDEST PUSH2 0x2F46 DUP3 DUP3 DUP6 PUSH2 0x2E82 JUMP JUMPDEST PUSH1 0x0 PUSH1 0x20 SWAP1 POP PUSH1 0x1F DUP4 GT PUSH1 0x1 DUP2 EQ PUSH2 0x2F79 JUMPI PUSH1 0x0 DUP5 ISZERO PUSH2 0x2F67 JUMPI DUP3 DUP8 ADD MLOAD SWAP1 POP JUMPDEST PUSH2 0x2F71 DUP6 DUP3 PUSH2 0x2EF3 JUMP JUMPDEST DUP7 SSTORE POP PUSH2 0x2FD9 JUMP JUMPDEST PUSH1 0x1F NOT DUP5 AND PUSH2 0x2F87 DUP7 PUSH2 0x2D63 JUMP JUMPDEST PUSH1 0x0 JUMPDEST DUP3 DUP2 LT ISZERO PUSH2 0x2FAF JUMPI DUP5 DUP10 ADD MLOAD DUP3 SSTORE PUSH1 0x1 DUP3 ADD SWAP2 POP PUSH1 0x20 DUP6 ADD SWAP5 POP PUSH1 0x20 DUP2 ADD SWAP1 POP PUSH2 0x2F8A JUMP JUMPDEST DUP7 DUP4 LT ISZERO PUSH2 0x2FCC JUMPI DUP5 DUP10 ADD MLOAD PUSH2 0x2FC8 PUSH1 0x1F DUP10 AND DUP3 PUSH2 0x2ED5 JUMP JUMPDEST DUP4 SSTORE POP JUMPDEST PUSH1 0x1 PUSH1 0x2 DUP9 MUL ADD DUP9 SSTORE POP POP POP JUMPDEST POP POP POP POP POP POP JUMP JUMPDEST PUSH32 0x496E76616C69642063616E646964617465204944000000000000000000000000 PUSH1 0x0 DUP3 ADD MSTORE POP JUMP JUMPDEST PUSH1 0x0 PUSH2 0x3017 PUSH1 0x14 DUP4 PUSH2 0x23AA JUMP JUMPDEST SWAP2 POP PUSH2 0x3022 DUP3 PUSH2 0x2FE1 JUMP JUMPDEST PUSH1 0x20 DUP3 ADD SWAP1 POP SWAP2 SWAP1 POP JUMP JUMPDEST PUSH1 0x0 PUSH1 0x20 DUP3 ADD SWAP1 POP DUP2 DUP2 SUB PUSH1 0x0 DUP4 ADD MSTORE PUSH2 0x3046 DUP2 PUSH2 0x300A JUMP JUMPDEST SWAP1 POP SWAP2 SWAP1 POP JUMP JUMPDEST PUSH32 0x456C656374696F6E206973207374696C6C20696E2070726F6772657373000000 PUSH1 0x0 DUP3 ADD MSTORE POP JUMP JUMPDEST PUSH1 0x0 PUSH2 0x3083 PUSH1 0x1D DUP4 PUSH2 0x23AA JUMP JUMPDEST SWAP2 POP PUSH2 0x308E DUP3 PUSH2 0x304D JUMP JUMPDEST PUSH1 0x20 DUP3 ADD SWAP1 POP SWAP2 SWAP1 POP JUMP JUMPDEST PUSH1 0x0 PUSH1 0x20 DUP3 ADD SWAP1 POP DUP2 DUP2 SUB PUSH1 0x0 DUP4 ADD MSTORE PUSH2 0x30B2 DUP2 PUSH2 0x3076 JUMP JUMPDEST SWAP1 POP SWAP2 SWAP1 POP JUMP JUMPDEST PUSH32 0x596F75206861766520616C726561647920766F74656400000000000000000000 PUSH1 0x0 DUP3 ADD MSTORE POP JUMP JUMPDEST PUSH1 0x0 PUSH2 0x30EF PUSH1 0x16 DUP4 PUSH2 0x23AA JUMP JUMPDEST SWAP2 POP PUSH2 0x30FA DUP3 PUSH2 0x30B9 JUMP JUMPDEST PUSH1 0x20 DUP3 ADD SWAP1 POP SWAP2 SWAP1 POP JUMP JUMPDEST PUSH1 0x0 PUSH1 0x20 DUP3 ADD SWAP1 POP DUP2 DUP2 SUB PUSH1 0x0 DUP4 ADD MSTORE PUSH2 0x311E DUP2 PUSH2 0x30E2 JUMP JUMPDEST SWAP1 POP SWAP2 SWAP1 POP JUMP JUMPDEST PUSH32 0x456C656374696F6E206973206E6F7420696E2070726F67726573730000000000 PUSH1 0x0 DUP3 ADD MSTORE POP JUMP JUMPDEST PUSH1 0x0 PUSH2 0x315B PUSH1 0x1B DUP4 PUSH2 0x23AA JUMP JUMPDEST SWAP2 POP PUSH2 0x3166 DUP3 PUSH2 0x3125 JUMP JUMPDEST PUSH1 0x20 DUP3 ADD SWAP1 POP SWAP2 SWAP1 POP JUMP JUMPDEST PUSH1 0x0 PUSH1 0x20 DUP3 ADD SWAP1 POP DUP2 DUP2 SUB PUSH1 0x0 DUP4 ADD MSTORE PUSH2 0x318A DUP2 PUSH2 0x314E JUMP JUMPDEST SWAP1 POP SWAP2 SWAP1 POP JUMP JUMPDEST PUSH32 0x456C656374696F6E206973207374696C6C206F6E676F696E6700000000000000 PUSH1 0x0 DUP3 ADD MSTORE POP JUMP JUMPDEST PUSH1 0x0 PUSH2 0x31C7 PUSH1 0x19 DUP4 PUSH2 0x23AA JUMP JUMPDEST SWAP2 POP PUSH2 0x31D2 DUP3 PUSH2 0x3191 JUMP JUMPDEST PUSH1 0x20 DUP3 ADD SWAP1 POP SWAP2 SWAP1 POP JUMP JUMPDEST PUSH1 0x0 PUSH1 0x20 DUP3 ADD SWAP1 POP DUP2 DUP2 SUB PUSH1 0x0 DUP4 ADD MSTORE PUSH2 0x31F6 DUP2 PUSH2 0x31BA JUMP JUMPDEST SWAP1 POP SWAP2 SWAP1 POP JUMP JUMPDEST PUSH32 0x53656C662D64656C65676174696F6E206973206E6F7420616C6C6F7765640000 PUSH1 0x0 DUP3 ADD MSTORE POP JUMP JUMPDEST PUSH1 0x0 PUSH2 0x3233 PUSH1 0x1E DUP4 PUSH2 0x23AA JUMP JUMPDEST SWAP2 POP PUSH2 0x323E DUP3 PUSH2 0x31FD JUMP JUMPDEST PUSH1 0x20 DUP3 ADD SWAP1 POP SWAP2 SWAP1 POP JUMP JUMPDEST PUSH1 0x0 PUSH1 0x20 DUP3 ADD SWAP1 POP DUP2 DUP2 SUB PUSH1 0x0 DUP4 ADD MSTORE PUSH2 0x3262 DUP2 PUSH2 0x3226 JUMP JUMPDEST SWAP1 POP SWAP2 SWAP1 POP JUMP JUMPDEST PUSH32 0x455448204164647265737320697320616C726561647920616464656420617320 PUSH1 0x0 DUP3 ADD MSTORE PUSH32 0x6120766F74657200000000000000000000000000000000000000000000000000 PUSH1 0x20 DUP3 ADD MSTORE POP JUMP JUMPDEST PUSH1 0x0 PUSH2 0x32C5 PUSH1 0x27 DUP4 PUSH2 0x23AA JUMP JUMPDEST SWAP2 POP PUSH2 0x32D0 DUP3 PUSH2 0x3269 JUMP JUMPDEST PUSH1 0x40 DUP3 ADD SWAP1 POP SWAP2 SWAP1 POP JUMP JUMPDEST PUSH1 0x0 PUSH1 0x20 DUP3 ADD SWAP1 POP DUP2 DUP2 SUB PUSH1 0x0 DUP4 ADD MSTORE PUSH2 0x32F4 DUP2 PUSH2 0x32B8 JUMP JUMPDEST SWAP1 POP SWAP2 SWAP1 POP JUMP JUMPDEST PUSH32 0x566F74657220776974682073616D65206164647265737320697320616C726561 PUSH1 0x0 DUP3 ADD MSTORE PUSH32 0x6479207265676973746572656400000000000000000000000000000000000000 PUSH1 0x20 DUP3 ADD MSTORE POP JUMP JUMPDEST PUSH1 0x0 PUSH2 0x3357 PUSH1 0x2D DUP4 PUSH2 0x23AA JUMP JUMPDEST SWAP2 POP PUSH2 0x3362 DUP3 PUSH2 0x32FB JUMP JUMPDEST PUSH1 0x40 DUP3 ADD SWAP1 POP SWAP2 SWAP1 POP JUMP JUMPDEST PUSH1 0x0 PUSH1 0x20 DUP3 ADD SWAP1 POP DUP2 DUP2 SUB PUSH1 0x0 DUP4 ADD MSTORE PUSH2 0x3386 DUP2 PUSH2 0x334A JUMP JUMPDEST SWAP1 POP SWAP2 SWAP1 POP JUMP JUMPDEST PUSH32 0x566F7465722077697468207468652073616D65206E616D6520697320616C7265 PUSH1 0x0 DUP3 ADD MSTORE PUSH32 0x6164792070726573656E74000000000000000000000000000000000000000000 PUSH1 0x20 DUP3 ADD MSTORE POP JUMP JUMPDEST PUSH1 0x0 PUSH2 0x33E9 PUSH1 0x2B DUP4 PUSH2 0x23AA JUMP JUMPDEST SWAP2 POP PUSH2 0x33F4 DUP3 PUSH2 0x338D JUMP JUMPDEST PUSH1 0x40 DUP3 ADD SWAP1 POP SWAP2 SWAP1 POP JUMP JUMPDEST PUSH1 0x0 PUSH1 0x20 DUP3 ADD SWAP1 POP DUP2 DUP2 SUB PUSH1 0x0 DUP4 ADD MSTORE PUSH2 0x3418 DUP2 PUSH2 0x33DC JUMP JUMPDEST SWAP1 POP SWAP2 SWAP1 POP JUMP INVALID LOG2 PUSH5 0x6970667358 0x22 SLT KECCAK256 CALLVALUE PUSH21 0x84B1BE1EC63832BE035BFE49CD15FD05AF05E543F PUSH19 0xAA6B9CCF42E2F79364736F6C63430008120033 "
				},
				"gasEstimates": {
					"creation": {
						"codeDepositCost": "2679400",
						"executionCost": "75807",
						"totalCost": "2755207"
					},
					"external": {
						"addCandidate(string,string)": "infinite",
						"addVoter(address,string)": "infinite",
						"admin()": "2621",
						"candidates(uint256)": "infinite",
						"castDelegateVote(uint256)": "infinite",
						"castVote(uint256)": "infinite",
						"delegateVote(address)": "31651",
						"electionEnded()": "2610",
						"electionStarted()": "2543",
						"endElection()": "infinite",
						"getAllCandidatesDetails()": "infinite",
						"getAllVoterProfiles()": "infinite",
						"getCandidateCount()": "2513",
						"getCandidateDetails(uint256)": "infinite",
						"getVoterProfile(address)": "infinite",
						"getVotesForCandidate(uint256)": "infinite",
						"getWinner()": "infinite",
						"startElection()": "28945",
						"voterAddresses(uint256)": "5044",
						"voters(address)": "infinite"
					},
					"internal": {
						"updateRanks()": "infinite"
					}
				},
				"methodIdentifiers": {
					"addCandidate(string,string)": "26541b56",
					"addVoter(address,string)": "d9e95a98",
					"admin()": "f851a440",
					"candidates(uint256)": "3477ee2e",
					"castDelegateVote(uint256)": "3ea70581",
					"castVote(uint256)": "3eb76b9c",
					"delegateVote(address)": "b31e1d4d",
					"electionEnded()": "c94ca9e3",
					"electionStarted()": "d5346da1",
					"endElection()": "59f78468",
					"getAllCandidatesDetails()": "cba5cf99",
					"getAllVoterProfiles()": "55edc27a",
					"getCandidateCount()": "30a56347",
					"getCandidateDetails(uint256)": "27f9fd50",
					"getVoterProfile(address)": "d8a6f68f",
					"getVotesForCandidate(uint256)": "53017872",
					"getWinner()": "8e7ea5b2",
					"startElection()": "62d73eb8",
					"voterAddresses(uint256)": "dd0e2373",
					"voters(address)": "a3ec138d"
				}
			},
			"storageLayout": {
				"storage": [
					{
						"astId": 24,
						"contract": "contracts/Capstone.sol:OnlineElection",
						"label": "admin",
						"offset": 0,
						"slot": "0",
						"type": "t_address"
					},
					{
						"astId": 26,
						"contract": "contracts/Capstone.sol:OnlineElection",
						"label": "electionStarted",
						"offset": 20,
						"slot": "0",
						"type": "t_bool"
					},
					{
						"astId": 28,
						"contract": "contracts/Capstone.sol:OnlineElection",
						"label": "electionEnded",
						"offset": 21,
						"slot": "0",
						"type": "t_bool"
					},
					{
						"astId": 33,
						"contract": "contracts/Capstone.sol:OnlineElection",
						"label": "voters",
						"offset": 0,
						"slot": "1",
						"type": "t_mapping(t_address,t_struct(Voter)22_storage)"
					},
					{
						"astId": 37,
						"contract": "contracts/Capstone.sol:OnlineElection",
						"label": "candidates",
						"offset": 0,
						"slot": "2",
						"type": "t_array(t_struct(Candidate)11_storage)dyn_storage"
					},
					{
						"astId": 40,
						"contract": "contracts/Capstone.sol:OnlineElection",
						"label": "voterAddresses",
						"offset": 0,
						"slot": "3",
						"type": "t_array(t_address)dyn_storage"
					}
				],
				"types": {
					"t_address": {
						"encoding": "inplace",
						"label": "address",
						"numberOfBytes": "20"
					},
					"t_array(t_address)dyn_storage": {
						"base": "t_address",
						"encoding": "dynamic_array",
						"label": "address[]",
						"numberOfBytes": "32"
					},
					"t_array(t_struct(Candidate)11_storage)dyn_storage": {
						"base": "t_struct(Candidate)11_storage",
						"encoding": "dynamic_array",
						"label": "struct OnlineElection.Candidate[]",
						"numberOfBytes": "32"
					},
					"t_bool": {
						"encoding": "inplace",
						"label": "bool",
						"numberOfBytes": "1"
					},
					"t_mapping(t_address,t_struct(Voter)22_storage)": {
						"encoding": "mapping",
						"key": "t_address",
						"label": "mapping(address => struct OnlineElection.Voter)",
						"numberOfBytes": "32",
						"value": "t_struct(Voter)22_storage"
					},
					"t_string_storage": {
						"encoding": "bytes",
						"label": "string",
						"numberOfBytes": "32"
					},
					"t_struct(Candidate)11_storage": {
						"encoding": "inplace",
						"label": "struct OnlineElection.Candidate",
						"members": [
							{
								"astId": 4,
								"contract": "contracts/Capstone.sol:OnlineElection",
								"label": "Cname",
								"offset": 0,
								"slot": "0",
								"type": "t_string_storage"
							},
							{
								"astId": 6,
								"contract": "contracts/Capstone.sol:OnlineElection",
								"label": "proposal",
								"offset": 0,
								"slot": "1",
								"type": "t_string_storage"
							},
							{
								"astId": 8,
								"contract": "contracts/Capstone.sol:OnlineElection",
								"label": "voteCount",
								"offset": 0,
								"slot": "2",
								"type": "t_uint256"
							},
							{
								"astId": 10,
								"contract": "contracts/Capstone.sol:OnlineElection",
								"label": "rank",
								"offset": 0,
								"slot": "3",
								"type": "t_uint256"
							}
						],
						"numberOfBytes": "128"
					},
					"t_struct(Voter)22_storage": {
						"encoding": "inplace",
						"label": "struct OnlineElection.Voter",
						"members": [
							{
								"astId": 13,
								"contract": "contracts/Capstone.sol:OnlineElection",
								"label": "Vname",
								"offset": 0,
								"slot": "0",
								"type": "t_string_storage"
							},
							{
								"astId": 15,
								"contract": "contracts/Capstone.sol:OnlineElection",
								"label": "delegate",
								"offset": 0,
								"slot": "1",
								"type": "t_address"
							},
							{
								"astId": 17,
								"contract": "contracts/Capstone.sol:OnlineElection",
								"label": "voted",
								"offset": 20,
								"slot": "1",
								"type": "t_bool"
							},
							{
								"astId": 19,
								"contract": "contracts/Capstone.sol:OnlineElection",
								"label": "vote",
								"offset": 0,
								"slot": "2",
								"type": "t_uint256"
							},
							{
								"astId": 21,
								"contract": "contracts/Capstone.sol:OnlineElection",
								"label": "age",
								"offset": 0,
								"slot": "3",
								"type": "t_uint16"
							}
						],
						"numberOfBytes": "128"
					},
					"t_uint16": {
						"encoding": "inplace",
						"label": "uint16",
						"numberOfBytes": "2"
					},
					"t_uint256": {
						"encoding": "inplace",
						"label": "uint256",
						"numberOfBytes": "32"
					}
				}
			},
			"userdoc": {
				"kind": "user",
				"methods": {},
				"version": 1
			}
		}
	}
}