{
	"contracts/JobPortal.sol": {
		"JobPortal": {
			"abi": [
				{
					"inputs": [],
					"stateMutability": "nonpayable",
					"type": "constructor"
				},
				{
					"inputs": [
						{
							"internalType": "address",
							"name": "_applicant",
							"type": "address"
						},
						{
							"internalType": "string",
							"name": "_name",
							"type": "string"
						},
						{
							"internalType": "string",
							"name": "_skill",
							"type": "string"
						}
					],
					"name": "addApplicant",
					"outputs": [],
					"stateMutability": "nonpayable",
					"type": "function"
				},
				{
					"inputs": [
						{
							"internalType": "string",
							"name": "_title",
							"type": "string"
						},
						{
							"internalType": "string",
							"name": "_copanyName",
							"type": "string"
						}
					],
					"name": "addJob",
					"outputs": [],
					"stateMutability": "nonpayable",
					"type": "function"
				},
				{
					"inputs": [],
					"name": "admin",
					"outputs": [
						{
							"internalType": "address",
							"name": "",
							"type": "address"
						}
					],
					"stateMutability": "view",
					"type": "function"
				},
				{
					"inputs": [
						{
							"internalType": "uint256",
							"name": "",
							"type": "uint256"
						}
					],
					"name": "applicantAddresses",
					"outputs": [
						{
							"internalType": "address",
							"name": "",
							"type": "address"
						}
					],
					"stateMutability": "view",
					"type": "function"
				},
				{
					"inputs": [
						{
							"internalType": "address",
							"name": "",
							"type": "address"
						}
					],
					"name": "applicants",
					"outputs": [
						{
							"internalType": "string",
							"name": "name",
							"type": "string"
						},
						{
							"internalType": "string",
							"name": "skill",
							"type": "string"
						},
						{
							"internalType": "uint256",
							"name": "jobsApplied",
							"type": "uint256"
						}
					],
					"stateMutability": "view",
					"type": "function"
				},
				{
					"inputs": [
						{
							"internalType": "uint256",
							"name": "_jobId",
							"type": "uint256"
						}
					],
					"name": "applyJob",
					"outputs": [],
					"stateMutability": "nonpayable",
					"type": "function"
				},
				{
					"inputs": [],
					"name": "getAllApplicantProfiles",
					"outputs": [
						{
							"components": [
								{
									"internalType": "string",
									"name": "name",
									"type": "string"
								},
								{
									"internalType": "string",
									"name": "skill",
									"type": "string"
								},
								{
									"internalType": "uint256",
									"name": "jobsApplied",
									"type": "uint256"
								}
							],
							"internalType": "struct JobPortal.Applicant[]",
							"name": "",
							"type": "tuple[]"
						}
					],
					"stateMutability": "view",
					"type": "function"
				},
				{
					"inputs": [],
					"name": "getAllJobsDetails",
					"outputs": [
						{
							"components": [
								{
									"internalType": "string",
									"name": "title",
									"type": "string"
								},
								{
									"internalType": "string",
									"name": "companyName",
									"type": "string"
								}
							],
							"internalType": "struct JobPortal.Job[]",
							"name": "",
							"type": "tuple[]"
						}
					],
					"stateMutability": "view",
					"type": "function"
				},
				{
					"inputs": [
						{
							"internalType": "address",
							"name": "_applicantAddress",
							"type": "address"
						}
					],
					"name": "getApplicantProfile",
					"outputs": [
						{
							"internalType": "string",
							"name": "",
							"type": "string"
						},
						{
							"internalType": "string",
							"name": "",
							"type": "string"
						},
						{
							"internalType": "uint256",
							"name": "",
							"type": "uint256"
						}
					],
					"stateMutability": "view",
					"type": "function"
				},
				{
					"inputs": [],
					"name": "getJobCount",
					"outputs": [
						{
							"internalType": "uint256",
							"name": "",
							"type": "uint256"
						}
					],
					"stateMutability": "view",
					"type": "function"
				},
				{
					"inputs": [
						{
							"internalType": "uint256",
							"name": "_jobId",
							"type": "uint256"
						}
					],
					"name": "getJobDetails",
					"outputs": [
						{
							"internalType": "uint256",
							"name": "",
							"type": "uint256"
						},
						{
							"internalType": "string",
							"name": "",
							"type": "string"
						},
						{
							"internalType": "string",
							"name": "",
							"type": "string"
						}
					],
					"stateMutability": "view",
					"type": "function"
				},
				{
					"inputs": [
						{
							"internalType": "uint256",
							"name": "",
							"type": "uint256"
						}
					],
					"name": "jobs",
					"outputs": [
						{
							"internalType": "string",
							"name": "title",
							"type": "string"
						},
						{
							"internalType": "string",
							"name": "companyName",
							"type": "string"
						}
					],
					"stateMutability": "view",
					"type": "function"
				}
			],
			"devdoc": {
				"author": "Ankit Bhardwaj",
				"details": "Impelements Job portal smart contract",
				"kind": "dev",
				"methods": {
					"addApplicant(address,string,string)": {
						"details": "To add applicant.",
						"params": {
							"_name": "of the applicant",
							"_skill": "of the jobsApplied"
						}
					},
					"addJob(string,string)": {
						"details": "To add job for the Job Portal.",
						"params": {
							"_copanyName": "of the job",
							"_title": "of the job"
						}
					},
					"constructor": {
						"details": "Creates a new job portal system'"
					}
				},
				"title": "Job Portal Dapp",
				"version": 1
			},
			"evm": {
				"assembly": "    /* \"contracts/JobPortal.sol\":174:4012  contract JobPortal {... */\n  mstore(0x40, 0x80)\n    /* \"contracts/JobPortal.sol\":730:781  constructor() {... */\n  callvalue\n  dup1\n  iszero\n  tag_1\n  jumpi\n  0x00\n  dup1\n  revert\ntag_1:\n  pop\n    /* \"contracts/JobPortal.sol\":763:773  msg.sender */\n  caller\n    /* \"contracts/JobPortal.sol\":755:760  admin */\n  0x00\n  dup1\n    /* \"contracts/JobPortal.sol\":755:773  admin = msg.sender */\n  0x0100\n  exp\n  dup2\n  sload\n  dup2\n  0xffffffffffffffffffffffffffffffffffffffff\n  mul\n  not\n  and\n  swap1\n  dup4\n  0xffffffffffffffffffffffffffffffffffffffff\n  and\n  mul\n  or\n  swap1\n  sstore\n  pop\n    /* \"contracts/JobPortal.sol\":174:4012  contract JobPortal {... */\n  dataSize(sub_0)\n  dup1\n  dataOffset(sub_0)\n  0x00\n  codecopy\n  0x00\n  return\nstop\n\nsub_0: assembly {\n        /* \"contracts/JobPortal.sol\":174:4012  contract JobPortal {... */\n      mstore(0x40, 0x80)\n      callvalue\n      dup1\n      iszero\n      tag_1\n      jumpi\n      0x00\n      dup1\n      revert\n    tag_1:\n      pop\n      jumpi(tag_2, lt(calldatasize, 0x04))\n      shr(0xe0, calldataload(0x00))\n      dup1\n      0xa9b75e26\n      gt\n      tag_15\n      jumpi\n      dup1\n      0xa9b75e26\n      eq\n      tag_9\n      jumpi\n      dup1\n      0xada03159\n      eq\n      tag_10\n      jumpi\n      dup1\n      0xb02b4a2f\n      eq\n      tag_11\n      jumpi\n      dup1\n      0xccd66863\n      eq\n      tag_12\n      jumpi\n      dup1\n      0xf851a440\n      eq\n      tag_13\n      jumpi\n      dup1\n      0xf8f74893\n      eq\n      tag_14\n      jumpi\n      jump(tag_2)\n    tag_15:\n      dup1\n      0x180aedf3\n      eq\n      tag_3\n      jumpi\n      dup1\n      0x2ad6ee43\n      eq\n      tag_4\n      jumpi\n      dup1\n      0x4cac35c6\n      eq\n      tag_5\n      jumpi\n      dup1\n      0x6f4347b5\n      eq\n      tag_6\n      jumpi\n      dup1\n      0x78214ac9\n      eq\n      tag_7\n      jumpi\n      dup1\n      0x89a4bb4b\n      eq\n      tag_8\n      jumpi\n    tag_2:\n      0x00\n      dup1\n      revert\n        /* \"contracts/JobPortal.sol\":470:487  Job[] public jobs */\n    tag_3:\n      tag_16\n      0x04\n      dup1\n      calldatasize\n      sub\n      dup2\n      add\n      swap1\n      tag_17\n      swap2\n      swap1\n      tag_18\n      jump\t// in\n    tag_17:\n      tag_19\n      jump\t// in\n    tag_16:\n      mload(0x40)\n      tag_20\n      swap3\n      swap2\n      swap1\n      tag_21\n      jump\t// in\n    tag_20:\n      mload(0x40)\n      dup1\n      swap2\n      sub\n      swap1\n      return\n        /* \"contracts/JobPortal.sol\":2428:2575  function applyJob(uint256 _jobId) public {... */\n    tag_4:\n      tag_22\n      0x04\n      dup1\n      calldatasize\n      sub\n      dup2\n      add\n      swap1\n      tag_23\n      swap2\n      swap1\n      tag_18\n      jump\t// in\n    tag_23:\n      tag_24\n      jump\t// in\n    tag_22:\n      stop\n        /* \"contracts/JobPortal.sol\":2583:2844  function getJobDetails(uint256 _jobId) public view returns (uint256, string memory, string memory) {... */\n    tag_5:\n      tag_25\n      0x04\n      dup1\n      calldatasize\n      sub\n      dup2\n      add\n      swap1\n      tag_26\n      swap2\n      swap1\n      tag_18\n      jump\t// in\n    tag_26:\n      tag_27\n      jump\t// in\n    tag_25:\n      mload(0x40)\n      tag_28\n      swap4\n      swap3\n      swap2\n      swap1\n      tag_29\n      jump\t// in\n    tag_28:\n      mload(0x40)\n      dup1\n      swap2\n      sub\n      swap1\n      return\n        /* \"contracts/JobPortal.sol\":1572:2420  function addApplicant(address _applicant, string memory _name, string memory _skill) public isAdmin {... */\n    tag_6:\n      tag_30\n      0x04\n      dup1\n      calldatasize\n      sub\n      dup2\n      add\n      swap1\n      tag_31\n      swap2\n      swap1\n      tag_32\n      jump\t// in\n    tag_31:\n      tag_33\n      jump\t// in\n    tag_30:\n      stop\n        /* \"contracts/JobPortal.sol\":3585:4007  function getAllApplicantProfiles() public view returns (Applicant[] memory) {... */\n    tag_7:\n      tag_34\n      tag_35\n      jump\t// in\n    tag_34:\n      mload(0x40)\n      tag_36\n      swap2\n      swap1\n      tag_37\n      jump\t// in\n    tag_36:\n      mload(0x40)\n      dup1\n      swap2\n      sub\n      swap1\n      return\n        /* \"contracts/JobPortal.sol\":922:1397  function addJob(string memory _title, string memory _copanyName) public isAdmin {... */\n    tag_8:\n      tag_38\n      0x04\n      dup1\n      calldatasize\n      sub\n      dup2\n      add\n      swap1\n      tag_39\n      swap2\n      swap1\n      tag_40\n      jump\t// in\n    tag_39:\n      tag_41\n      jump\t// in\n    tag_38:\n      stop\n        /* \"contracts/JobPortal.sol\":2950:3302  function getAllJobsDetails() public view returns (Job[] memory) {... */\n    tag_9:\n      tag_42\n      tag_43\n      jump\t// in\n    tag_42:\n      mload(0x40)\n      tag_44\n      swap2\n      swap1\n      tag_45\n      jump\t// in\n    tag_44:\n      mload(0x40)\n      dup1\n      swap2\n      sub\n      swap1\n      return\n        /* \"contracts/JobPortal.sol\":494:529  address[] public applicantAddresses */\n    tag_10:\n      tag_46\n      0x04\n      dup1\n      calldatasize\n      sub\n      dup2\n      add\n      swap1\n      tag_47\n      swap2\n      swap1\n      tag_18\n      jump\t// in\n    tag_47:\n      tag_48\n      jump\t// in\n    tag_46:\n      mload(0x40)\n      tag_49\n      swap2\n      swap1\n      tag_50\n      jump\t// in\n    tag_49:\n      mload(0x40)\n      dup1\n      swap2\n      sub\n      swap1\n      return\n        /* \"contracts/JobPortal.sol\":2852:2942  function getJobCount() public view returns (uint256) {... */\n    tag_11:\n      tag_51\n      tag_52\n      jump\t// in\n    tag_51:\n      mload(0x40)\n      tag_53\n      swap2\n      swap1\n      tag_54\n      jump\t// in\n    tag_53:\n      mload(0x40)\n      dup1\n      swap2\n      sub\n      swap1\n      return\n        /* \"contracts/JobPortal.sol\":416:463  mapping(address => Applicant) public applicants */\n    tag_12:\n      tag_55\n      0x04\n      dup1\n      calldatasize\n      sub\n      dup2\n      add\n      swap1\n      tag_56\n      swap2\n      swap1\n      tag_57\n      jump\t// in\n    tag_56:\n      tag_58\n      jump\t// in\n    tag_55:\n      mload(0x40)\n      tag_59\n      swap4\n      swap3\n      swap2\n      swap1\n      tag_60\n      jump\t// in\n    tag_59:\n      mload(0x40)\n      dup1\n      swap2\n      sub\n      swap1\n      return\n        /* \"contracts/JobPortal.sol\":387:407  address public admin */\n    tag_13:\n      tag_61\n      tag_62\n      jump\t// in\n    tag_61:\n      mload(0x40)\n      tag_63\n      swap2\n      swap1\n      tag_50\n      jump\t// in\n    tag_63:\n      mload(0x40)\n      dup1\n      swap2\n      sub\n      swap1\n      return\n        /* \"contracts/JobPortal.sol\":3310:3577  function getApplicantProfile(address _applicantAddress) public view returns (string memory, string memory, uint256) {... */\n    tag_14:\n      tag_64\n      0x04\n      dup1\n      calldatasize\n      sub\n      dup2\n      add\n      swap1\n      tag_65\n      swap2\n      swap1\n      tag_57\n      jump\t// in\n    tag_65:\n      tag_66\n      jump\t// in\n    tag_64:\n      mload(0x40)\n      tag_67\n      swap4\n      swap3\n      swap2\n      swap1\n      tag_60\n      jump\t// in\n    tag_67:\n      mload(0x40)\n      dup1\n      swap2\n      sub\n      swap1\n      return\n        /* \"contracts/JobPortal.sol\":470:487  Job[] public jobs */\n    tag_19:\n      0x02\n      dup2\n      dup2\n      sload\n      dup2\n      lt\n      tag_68\n      jumpi\n      0x00\n      dup1\n      revert\n    tag_68:\n      swap1\n      0x00\n      mstore\n      keccak256(0x00, 0x20)\n      swap1\n      0x02\n      mul\n      add\n      0x00\n      swap2\n      pop\n      swap1\n      pop\n      dup1\n      0x00\n      add\n      dup1\n      sload\n      tag_70\n      swap1\n      tag_71\n      jump\t// in\n    tag_70:\n      dup1\n      0x1f\n      add\n      0x20\n      dup1\n      swap2\n      div\n      mul\n      0x20\n      add\n      mload(0x40)\n      swap1\n      dup2\n      add\n      0x40\n      mstore\n      dup1\n      swap3\n      swap2\n      swap1\n      dup2\n      dup2\n      mstore\n      0x20\n      add\n      dup3\n      dup1\n      sload\n      tag_72\n      swap1\n      tag_71\n      jump\t// in\n    tag_72:\n      dup1\n      iszero\n      tag_73\n      jumpi\n      dup1\n      0x1f\n      lt\n      tag_74\n      jumpi\n      0x0100\n      dup1\n      dup4\n      sload\n      div\n      mul\n      dup4\n      mstore\n      swap2\n      0x20\n      add\n      swap2\n      jump(tag_73)\n    tag_74:\n      dup3\n      add\n      swap2\n      swap1\n      0x00\n      mstore\n      keccak256(0x00, 0x20)\n      swap1\n    tag_75:\n      dup2\n      sload\n      dup2\n      mstore\n      swap1\n      0x01\n      add\n      swap1\n      0x20\n      add\n      dup1\n      dup4\n      gt\n      tag_75\n      jumpi\n      dup3\n      swap1\n      sub\n      0x1f\n      and\n      dup3\n      add\n      swap2\n    tag_73:\n      pop\n      pop\n      pop\n      pop\n      pop\n      swap1\n      dup1\n      0x01\n      add\n      dup1\n      sload\n      tag_76\n      swap1\n      tag_71\n      jump\t// in\n    tag_76:\n      dup1\n      0x1f\n      add\n      0x20\n      dup1\n      swap2\n      div\n      mul\n      0x20\n      add\n      mload(0x40)\n      swap1\n      dup2\n      add\n      0x40\n      mstore\n      dup1\n      swap3\n      swap2\n      swap1\n      dup2\n      dup2\n      mstore\n      0x20\n      add\n      dup3\n      dup1\n      sload\n      tag_77\n      swap1\n      tag_71\n      jump\t// in\n    tag_77:\n      dup1\n      iszero\n      tag_78\n      jumpi\n      dup1\n      0x1f\n      lt\n      tag_79\n      jumpi\n      0x0100\n      dup1\n      dup4\n      sload\n      div\n      mul\n      dup4\n      mstore\n      swap2\n      0x20\n      add\n      swap2\n      jump(tag_78)\n    tag_79:\n      dup3\n      add\n      swap2\n      swap1\n      0x00\n      mstore\n      keccak256(0x00, 0x20)\n      swap1\n    tag_80:\n      dup2\n      sload\n      dup2\n      mstore\n      swap1\n      0x01\n      add\n      swap1\n      0x20\n      add\n      dup1\n      dup4\n      gt\n      tag_80\n      jumpi\n      dup3\n      swap1\n      sub\n      0x1f\n      and\n      dup3\n      add\n      swap2\n    tag_78:\n      pop\n      pop\n      pop\n      pop\n      pop\n      swap1\n      pop\n      dup3\n      jump\t// out\n        /* \"contracts/JobPortal.sol\":2428:2575  function applyJob(uint256 _jobId) public {... */\n    tag_24:\n        /* \"contracts/JobPortal.sol\":2480:2504  Applicant storage sender */\n      0x00\n        /* \"contracts/JobPortal.sol\":2507:2517  applicants */\n      0x01\n        /* \"contracts/JobPortal.sol\":2507:2529  applicants[msg.sender] */\n      0x00\n        /* \"contracts/JobPortal.sol\":2518:2528  msg.sender */\n      caller\n        /* \"contracts/JobPortal.sol\":2507:2529  applicants[msg.sender] */\n      0xffffffffffffffffffffffffffffffffffffffff\n      and\n      0xffffffffffffffffffffffffffffffffffffffff\n      and\n      dup2\n      mstore\n      0x20\n      add\n      swap1\n      dup2\n      mstore\n      0x20\n      add\n      0x00\n      keccak256\n        /* \"contracts/JobPortal.sol\":2480:2529  Applicant storage sender = applicants[msg.sender] */\n      swap1\n      pop\n        /* \"contracts/JobPortal.sol\":2561:2567  _jobId */\n      dup2\n        /* \"contracts/JobPortal.sol\":2540:2546  sender */\n      dup2\n        /* \"contracts/JobPortal.sol\":2540:2558  sender.jobsApplied */\n      0x02\n      add\n        /* \"contracts/JobPortal.sol\":2540:2567  sender.jobsApplied = _jobId */\n      dup2\n      swap1\n      sstore\n      pop\n        /* \"contracts/JobPortal.sol\":2469:2575  {... */\n      pop\n        /* \"contracts/JobPortal.sol\":2428:2575  function applyJob(uint256 _jobId) public {... */\n      pop\n      jump\t// out\n        /* \"contracts/JobPortal.sol\":2583:2844  function getJobDetails(uint256 _jobId) public view returns (uint256, string memory, string memory) {... */\n    tag_27:\n        /* \"contracts/JobPortal.sol\":2643:2650  uint256 */\n      0x00\n        /* \"contracts/JobPortal.sol\":2652:2665  string memory */\n      0x60\n        /* \"contracts/JobPortal.sol\":2667:2680  string memory */\n      dup1\n        /* \"contracts/JobPortal.sol\":2710:2714  jobs */\n      0x02\n        /* \"contracts/JobPortal.sol\":2710:2721  jobs.length */\n      dup1\n      sload\n      swap1\n      pop\n        /* \"contracts/JobPortal.sol\":2701:2707  _jobId */\n      dup5\n        /* \"contracts/JobPortal.sol\":2701:2721  _jobId < jobs.length */\n      lt\n        /* \"contracts/JobPortal.sol\":2693:2740  require(_jobId < jobs.length, \"Invalid job ID\") */\n      tag_83\n      jumpi\n      mload(0x40)\n      0x08c379a000000000000000000000000000000000000000000000000000000000\n      dup2\n      mstore\n      0x04\n      add\n      tag_84\n      swap1\n      tag_85\n      jump\t// in\n    tag_84:\n      mload(0x40)\n      dup1\n      swap2\n      sub\n      swap1\n      revert\n    tag_83:\n        /* \"contracts/JobPortal.sol\":2753:2767  Job memory job */\n      0x00\n        /* \"contracts/JobPortal.sol\":2770:2774  jobs */\n      0x02\n        /* \"contracts/JobPortal.sol\":2775:2781  _jobId */\n      dup6\n        /* \"contracts/JobPortal.sol\":2770:2782  jobs[_jobId] */\n      dup2\n      sload\n      dup2\n      lt\n      tag_86\n      jumpi\n      tag_87\n      tag_88\n      jump\t// in\n    tag_87:\n    tag_86:\n      swap1\n      0x00\n      mstore\n      keccak256(0x00, 0x20)\n      swap1\n      0x02\n      mul\n      add\n        /* \"contracts/JobPortal.sol\":2753:2782  Job memory job = jobs[_jobId] */\n      mload(0x40)\n      dup1\n      0x40\n      add\n      0x40\n      mstore\n      swap1\n      dup2\n      0x00\n      dup3\n      add\n      dup1\n      sload\n      tag_90\n      swap1\n      tag_71\n      jump\t// in\n    tag_90:\n      dup1\n      0x1f\n      add\n      0x20\n      dup1\n      swap2\n      div\n      mul\n      0x20\n      add\n      mload(0x40)\n      swap1\n      dup2\n      add\n      0x40\n      mstore\n      dup1\n      swap3\n      swap2\n      swap1\n      dup2\n      dup2\n      mstore\n      0x20\n      add\n      dup3\n      dup1\n      sload\n      tag_91\n      swap1\n      tag_71\n      jump\t// in\n    tag_91:\n      dup1\n      iszero\n      tag_92\n      jumpi\n      dup1\n      0x1f\n      lt\n      tag_93\n      jumpi\n      0x0100\n      dup1\n      dup4\n      sload\n      div\n      mul\n      dup4\n      mstore\n      swap2\n      0x20\n      add\n      swap2\n      jump(tag_92)\n    tag_93:\n      dup3\n      add\n      swap2\n      swap1\n      0x00\n      mstore\n      keccak256(0x00, 0x20)\n      swap1\n    tag_94:\n      dup2\n      sload\n      dup2\n      mstore\n      swap1\n      0x01\n      add\n      swap1\n      0x20\n      add\n      dup1\n      dup4\n      gt\n      tag_94\n      jumpi\n      dup3\n      swap1\n      sub\n      0x1f\n      and\n      dup3\n      add\n      swap2\n    tag_92:\n      pop\n      pop\n      pop\n      pop\n      pop\n      dup2\n      mstore\n      0x20\n      add\n      0x01\n      dup3\n      add\n      dup1\n      sload\n      tag_95\n      swap1\n      tag_71\n      jump\t// in\n    tag_95:\n      dup1\n      0x1f\n      add\n      0x20\n      dup1\n      swap2\n      div\n      mul\n      0x20\n      add\n      mload(0x40)\n      swap1\n      dup2\n      add\n      0x40\n      mstore\n      dup1\n      swap3\n      swap2\n      swap1\n      dup2\n      dup2\n      mstore\n      0x20\n      add\n      dup3\n      dup1\n      sload\n      tag_96\n      swap1\n      tag_71\n      jump\t// in\n    tag_96:\n      dup1\n      iszero\n      tag_97\n      jumpi\n      dup1\n      0x1f\n      lt\n      tag_98\n      jumpi\n      0x0100\n      dup1\n      dup4\n      sload\n      div\n      mul\n      dup4\n      mstore\n      swap2\n      0x20\n      add\n      swap2\n      jump(tag_97)\n    tag_98:\n      dup3\n      add\n      swap2\n      swap1\n      0x00\n      mstore\n      keccak256(0x00, 0x20)\n      swap1\n    tag_99:\n      dup2\n      sload\n      dup2\n      mstore\n      swap1\n      0x01\n      add\n      swap1\n      0x20\n      add\n      dup1\n      dup4\n      gt\n      tag_99\n      jumpi\n      dup3\n      swap1\n      sub\n      0x1f\n      and\n      dup3\n      add\n      swap2\n    tag_97:\n      pop\n      pop\n      pop\n      pop\n      pop\n      dup2\n      mstore\n      pop\n      pop\n      swap1\n      pop\n        /* \"contracts/JobPortal.sol\":2801:2807  _jobId */\n      dup5\n        /* \"contracts/JobPortal.sol\":2809:2812  job */\n      dup2\n        /* \"contracts/JobPortal.sol\":2809:2818  job.title */\n      0x00\n      add\n      mload\n        /* \"contracts/JobPortal.sol\":2820:2823  job */\n      dup3\n        /* \"contracts/JobPortal.sol\":2820:2835  job.companyName */\n      0x20\n      add\n      mload\n        /* \"contracts/JobPortal.sol\":2793:2836  return (_jobId, job.title, job.companyName) */\n      swap4\n      pop\n      swap4\n      pop\n      swap4\n      pop\n      pop\n        /* \"contracts/JobPortal.sol\":2583:2844  function getJobDetails(uint256 _jobId) public view returns (uint256, string memory, string memory) {... */\n      swap2\n      swap4\n      swap1\n      swap3\n      pop\n      jump\t// out\n        /* \"contracts/JobPortal.sol\":1572:2420  function addApplicant(address _applicant, string memory _name, string memory _skill) public isAdmin {... */\n    tag_33:\n        /* \"contracts/JobPortal.sol\":590:595  admin */\n      0x00\n      dup1\n      sload\n      swap1\n      0x0100\n      exp\n      swap1\n      div\n      0xffffffffffffffffffffffffffffffffffffffff\n      and\n        /* \"contracts/JobPortal.sol\":576:595  msg.sender == admin */\n      0xffffffffffffffffffffffffffffffffffffffff\n      and\n        /* \"contracts/JobPortal.sol\":576:586  msg.sender */\n      caller\n        /* \"contracts/JobPortal.sol\":576:595  msg.sender == admin */\n      0xffffffffffffffffffffffffffffffffffffffff\n      and\n      eq\n        /* \"contracts/JobPortal.sol\":568:638  require(msg.sender == admin, \"Only the admin can perform this action\") */\n      tag_101\n      jumpi\n      mload(0x40)\n      0x08c379a000000000000000000000000000000000000000000000000000000000\n      dup2\n      mstore\n      0x04\n      add\n      tag_102\n      swap1\n      tag_103\n      jump\t// in\n    tag_102:\n      mload(0x40)\n      dup1\n      swap2\n      sub\n      swap1\n      revert\n    tag_101:\n        /* \"contracts/JobPortal.sol\":1772:1781  uint256 i */\n      0x00\n        /* \"contracts/JobPortal.sol\":1767:2193  for (uint256 i = 0; i < applicantAddresses.length; i++) {... */\n    tag_105:\n        /* \"contracts/JobPortal.sol\":1791:1809  applicantAddresses */\n      0x03\n        /* \"contracts/JobPortal.sol\":1791:1816  applicantAddresses.length */\n      dup1\n      sload\n      swap1\n      pop\n        /* \"contracts/JobPortal.sol\":1787:1788  i */\n      dup2\n        /* \"contracts/JobPortal.sol\":1787:1816  i < applicantAddresses.length */\n      lt\n        /* \"contracts/JobPortal.sol\":1767:2193  for (uint256 i = 0; i < applicantAddresses.length; i++) {... */\n      iszero\n      tag_106\n      jumpi\n        /* \"contracts/JobPortal.sol\":1838:1870  address existingApplicantAddress */\n      0x00\n        /* \"contracts/JobPortal.sol\":1873:1891  applicantAddresses */\n      0x03\n        /* \"contracts/JobPortal.sol\":1892:1893  i */\n      dup3\n        /* \"contracts/JobPortal.sol\":1873:1894  applicantAddresses[i] */\n      dup2\n      sload\n      dup2\n      lt\n      tag_108\n      jumpi\n      tag_109\n      tag_88\n      jump\t// in\n    tag_109:\n    tag_108:\n      swap1\n      0x00\n      mstore\n      keccak256(0x00, 0x20)\n      add\n      0x00\n      swap1\n      sload\n      swap1\n      0x0100\n      exp\n      swap1\n      div\n      0xffffffffffffffffffffffffffffffffffffffff\n      and\n        /* \"contracts/JobPortal.sol\":1838:1894  address existingApplicantAddress = applicantAddresses[i] */\n      swap1\n      pop\n        /* \"contracts/JobPortal.sol\":1945:1955  _applicant */\n      dup5\n        /* \"contracts/JobPortal.sol\":1917:1955  existingApplicantAddress != _applicant */\n      0xffffffffffffffffffffffffffffffffffffffff\n      and\n        /* \"contracts/JobPortal.sol\":1917:1941  existingApplicantAddress */\n      dup2\n        /* \"contracts/JobPortal.sol\":1917:1955  existingApplicantAddress != _applicant */\n      0xffffffffffffffffffffffffffffffffffffffff\n      and\n      sub\n        /* \"contracts/JobPortal.sol\":1909:2008  require(existingApplicantAddress != _applicant,\"Applicant with same address is already registered\") */\n      tag_111\n      jumpi\n      mload(0x40)\n      0x08c379a000000000000000000000000000000000000000000000000000000000\n      dup2\n      mstore\n      0x04\n      add\n      tag_112\n      swap1\n      tag_113\n      jump\t// in\n    tag_112:\n      mload(0x40)\n      dup1\n      swap2\n      sub\n      swap1\n      revert\n    tag_111:\n        /* \"contracts/JobPortal.sol\":2110:2115  _name */\n      dup4\n        /* \"contracts/JobPortal.sol\":2094:2117  keccak256(bytes(_name)) */\n      dup1\n      mload\n      swap1\n      0x20\n      add\n      keccak256\n        /* \"contracts/JobPortal.sol\":2047:2057  applicants */\n      0x01\n        /* \"contracts/JobPortal.sol\":2047:2083  applicants[existingApplicantAddress] */\n      0x00\n        /* \"contracts/JobPortal.sol\":2058:2082  existingApplicantAddress */\n      dup4\n        /* \"contracts/JobPortal.sol\":2047:2083  applicants[existingApplicantAddress] */\n      0xffffffffffffffffffffffffffffffffffffffff\n      and\n      0xffffffffffffffffffffffffffffffffffffffff\n      and\n      dup2\n      mstore\n      0x20\n      add\n      swap1\n      dup2\n      mstore\n      0x20\n      add\n      0x00\n      keccak256\n        /* \"contracts/JobPortal.sol\":2047:2088  applicants[existingApplicantAddress].name */\n      0x00\n      add\n        /* \"contracts/JobPortal.sol\":2031:2090  keccak256(bytes(applicants[existingApplicantAddress].name)) */\n      mload(0x40)\n      tag_114\n      swap2\n      swap1\n      tag_115\n      jump\t// in\n    tag_114:\n      mload(0x40)\n      dup1\n      swap2\n      sub\n      swap1\n      keccak256\n        /* \"contracts/JobPortal.sol\":2031:2117  keccak256(bytes(applicants[existingApplicantAddress].name)) != keccak256(bytes(_name)) */\n      sub\n        /* \"contracts/JobPortal.sol\":2023:2181  require(keccak256(bytes(applicants[existingApplicantAddress].name)) != keccak256(bytes(_name)),... */\n      tag_116\n      jumpi\n      mload(0x40)\n      0x08c379a000000000000000000000000000000000000000000000000000000000\n      dup2\n      mstore\n      0x04\n      add\n      tag_117\n      swap1\n      tag_118\n      jump\t// in\n    tag_117:\n      mload(0x40)\n      dup1\n      swap2\n      sub\n      swap1\n      revert\n    tag_116:\n        /* \"contracts/JobPortal.sol\":1823:2193  {... */\n      pop\n        /* \"contracts/JobPortal.sol\":1818:1821  i++ */\n      dup1\n      dup1\n      tag_119\n      swap1\n      tag_120\n      jump\t// in\n    tag_119:\n      swap2\n      pop\n      pop\n        /* \"contracts/JobPortal.sol\":1767:2193  for (uint256 i = 0; i < applicantAddresses.length; i++) {... */\n      jump(tag_105)\n    tag_106:\n      pop\n        /* \"contracts/JobPortal.sol\":2235:2240  _name */\n      dup2\n        /* \"contracts/JobPortal.sol\":2205:2215  applicants */\n      0x01\n        /* \"contracts/JobPortal.sol\":2205:2227  applicants[_applicant] */\n      0x00\n        /* \"contracts/JobPortal.sol\":2216:2226  _applicant */\n      dup6\n        /* \"contracts/JobPortal.sol\":2205:2227  applicants[_applicant] */\n      0xffffffffffffffffffffffffffffffffffffffff\n      and\n      0xffffffffffffffffffffffffffffffffffffffff\n      and\n      dup2\n      mstore\n      0x20\n      add\n      swap1\n      dup2\n      mstore\n      0x20\n      add\n      0x00\n      keccak256\n        /* \"contracts/JobPortal.sol\":2205:2232  applicants[_applicant].name */\n      0x00\n      add\n        /* \"contracts/JobPortal.sol\":2205:2240  applicants[_applicant].name = _name */\n      swap1\n      dup2\n      tag_121\n      swap2\n      swap1\n      tag_122\n      jump\t// in\n    tag_121:\n      pop\n        /* \"contracts/JobPortal.sol\":2282:2288  _skill */\n      dup1\n        /* \"contracts/JobPortal.sol\":2251:2261  applicants */\n      0x01\n        /* \"contracts/JobPortal.sol\":2251:2273  applicants[_applicant] */\n      0x00\n        /* \"contracts/JobPortal.sol\":2262:2272  _applicant */\n      dup6\n        /* \"contracts/JobPortal.sol\":2251:2273  applicants[_applicant] */\n      0xffffffffffffffffffffffffffffffffffffffff\n      and\n      0xffffffffffffffffffffffffffffffffffffffff\n      and\n      dup2\n      mstore\n      0x20\n      add\n      swap1\n      dup2\n      mstore\n      0x20\n      add\n      0x00\n      keccak256\n        /* \"contracts/JobPortal.sol\":2251:2279  applicants[_applicant].skill */\n      0x01\n      add\n        /* \"contracts/JobPortal.sol\":2251:2288  applicants[_applicant].skill = _skill */\n      swap1\n      dup2\n      tag_123\n      swap2\n      swap1\n      tag_122\n      jump\t// in\n    tag_123:\n      pop\n        /* \"contracts/JobPortal.sol\":2336:2337  0 */\n      0x00\n        /* \"contracts/JobPortal.sol\":2299:2309  applicants */\n      0x01\n        /* \"contracts/JobPortal.sol\":2299:2321  applicants[_applicant] */\n      0x00\n        /* \"contracts/JobPortal.sol\":2310:2320  _applicant */\n      dup6\n        /* \"contracts/JobPortal.sol\":2299:2321  applicants[_applicant] */\n      0xffffffffffffffffffffffffffffffffffffffff\n      and\n      0xffffffffffffffffffffffffffffffffffffffff\n      and\n      dup2\n      mstore\n      0x20\n      add\n      swap1\n      dup2\n      mstore\n      0x20\n      add\n      0x00\n      keccak256\n        /* \"contracts/JobPortal.sol\":2299:2333  applicants[_applicant].jobsApplied */\n      0x02\n      add\n        /* \"contracts/JobPortal.sol\":2299:2337  applicants[_applicant].jobsApplied = 0 */\n      dup2\n      swap1\n      sstore\n      pop\n        /* \"contracts/JobPortal.sol\":2348:2366  applicantAddresses */\n      0x03\n        /* \"contracts/JobPortal.sol\":2372:2382  _applicant */\n      dup4\n        /* \"contracts/JobPortal.sol\":2348:2383  applicantAddresses.push(_applicant) */\n      swap1\n      dup1\n      0x01\n      dup2\n      sload\n      add\n      dup1\n      dup3\n      sstore\n      dup1\n      swap2\n      pop\n      pop\n      0x01\n      swap1\n      sub\n      swap1\n      0x00\n      mstore\n      keccak256(0x00, 0x20)\n      add\n      0x00\n      swap1\n      swap2\n      swap1\n      swap2\n      swap1\n      swap2\n      0x0100\n      exp\n      dup2\n      sload\n      dup2\n      0xffffffffffffffffffffffffffffffffffffffff\n      mul\n      not\n      and\n      swap1\n      dup4\n      0xffffffffffffffffffffffffffffffffffffffff\n      and\n      mul\n      or\n      swap1\n      sstore\n      pop\n        /* \"contracts/JobPortal.sol\":1572:2420  function addApplicant(address _applicant, string memory _name, string memory _skill) public isAdmin {... */\n      pop\n      pop\n      pop\n      jump\t// out\n        /* \"contracts/JobPortal.sol\":3585:4007  function getAllApplicantProfiles() public view returns (Applicant[] memory) {... */\n    tag_35:\n        /* \"contracts/JobPortal.sol\":3641:3659  Applicant[] memory */\n      0x60\n        /* \"contracts/JobPortal.sol\":3672:3708  Applicant[] memory applicantProfiles */\n      0x00\n        /* \"contracts/JobPortal.sol\":3727:3745  applicantAddresses */\n      0x03\n        /* \"contracts/JobPortal.sol\":3727:3752  applicantAddresses.length */\n      dup1\n      sload\n      swap1\n      pop\n        /* \"contracts/JobPortal.sol\":3711:3753  new Applicant[](applicantAddresses.length) */\n      0xffffffffffffffff\n      dup2\n      gt\n      iszero\n      tag_126\n      jumpi\n      tag_127\n      tag_128\n      jump\t// in\n    tag_127:\n    tag_126:\n      mload(0x40)\n      swap1\n      dup1\n      dup3\n      mstore\n      dup1\n      0x20\n      mul\n      0x20\n      add\n      dup3\n      add\n      0x40\n      mstore\n      dup1\n      iszero\n      tag_129\n      jumpi\n      dup2\n      0x20\n      add\n    tag_130:\n      tag_131\n      tag_132\n      jump\t// in\n    tag_131:\n      dup2\n      mstore\n      0x20\n      add\n      swap1\n      0x01\n      swap1\n      sub\n      swap1\n      dup2\n      tag_130\n      jumpi\n      swap1\n      pop\n    tag_129:\n      pop\n        /* \"contracts/JobPortal.sol\":3672:3753  Applicant[] memory applicantProfiles = new Applicant[](applicantAddresses.length) */\n      swap1\n      pop\n        /* \"contracts/JobPortal.sol\":3771:3780  uint256 i */\n      0x00\n        /* \"contracts/JobPortal.sol\":3766:3963  for (uint256 i = 0; i < applicantAddresses.length; i++) {... */\n    tag_133:\n        /* \"contracts/JobPortal.sol\":3790:3808  applicantAddresses */\n      0x03\n        /* \"contracts/JobPortal.sol\":3790:3815  applicantAddresses.length */\n      dup1\n      sload\n      swap1\n      pop\n        /* \"contracts/JobPortal.sol\":3786:3787  i */\n      dup2\n        /* \"contracts/JobPortal.sol\":3786:3815  i < applicantAddresses.length */\n      lt\n        /* \"contracts/JobPortal.sol\":3766:3963  for (uint256 i = 0; i < applicantAddresses.length; i++) {... */\n      iszero\n      tag_134\n      jumpi\n        /* \"contracts/JobPortal.sol\":3837:3861  address applicantAddress */\n      0x00\n        /* \"contracts/JobPortal.sol\":3864:3882  applicantAddresses */\n      0x03\n        /* \"contracts/JobPortal.sol\":3883:3884  i */\n      dup3\n        /* \"contracts/JobPortal.sol\":3864:3885  applicantAddresses[i] */\n      dup2\n      sload\n      dup2\n      lt\n      tag_136\n      jumpi\n      tag_137\n      tag_88\n      jump\t// in\n    tag_137:\n    tag_136:\n      swap1\n      0x00\n      mstore\n      keccak256(0x00, 0x20)\n      add\n      0x00\n      swap1\n      sload\n      swap1\n      0x0100\n      exp\n      swap1\n      div\n      0xffffffffffffffffffffffffffffffffffffffff\n      and\n        /* \"contracts/JobPortal.sol\":3837:3885  address applicantAddress = applicantAddresses[i] */\n      swap1\n      pop\n        /* \"contracts/JobPortal.sol\":3923:3933  applicants */\n      0x01\n        /* \"contracts/JobPortal.sol\":3923:3951  applicants[applicantAddress] */\n      0x00\n        /* \"contracts/JobPortal.sol\":3934:3950  applicantAddress */\n      dup3\n        /* \"contracts/JobPortal.sol\":3923:3951  applicants[applicantAddress] */\n      0xffffffffffffffffffffffffffffffffffffffff\n      and\n      0xffffffffffffffffffffffffffffffffffffffff\n      and\n      dup2\n      mstore\n      0x20\n      add\n      swap1\n      dup2\n      mstore\n      0x20\n      add\n      0x00\n      keccak256\n        /* \"contracts/JobPortal.sol\":3900:3951  applicantProfiles[i] = applicants[applicantAddress] */\n      mload(0x40)\n      dup1\n      0x60\n      add\n      0x40\n      mstore\n      swap1\n      dup2\n      0x00\n      dup3\n      add\n      dup1\n      sload\n      tag_139\n      swap1\n      tag_71\n      jump\t// in\n    tag_139:\n      dup1\n      0x1f\n      add\n      0x20\n      dup1\n      swap2\n      div\n      mul\n      0x20\n      add\n      mload(0x40)\n      swap1\n      dup2\n      add\n      0x40\n      mstore\n      dup1\n      swap3\n      swap2\n      swap1\n      dup2\n      dup2\n      mstore\n      0x20\n      add\n      dup3\n      dup1\n      sload\n      tag_140\n      swap1\n      tag_71\n      jump\t// in\n    tag_140:\n      dup1\n      iszero\n      tag_141\n      jumpi\n      dup1\n      0x1f\n      lt\n      tag_142\n      jumpi\n      0x0100\n      dup1\n      dup4\n      sload\n      div\n      mul\n      dup4\n      mstore\n      swap2\n      0x20\n      add\n      swap2\n      jump(tag_141)\n    tag_142:\n      dup3\n      add\n      swap2\n      swap1\n      0x00\n      mstore\n      keccak256(0x00, 0x20)\n      swap1\n    tag_143:\n      dup2\n      sload\n      dup2\n      mstore\n      swap1\n      0x01\n      add\n      swap1\n      0x20\n      add\n      dup1\n      dup4\n      gt\n      tag_143\n      jumpi\n      dup3\n      swap1\n      sub\n      0x1f\n      and\n      dup3\n      add\n      swap2\n    tag_141:\n      pop\n      pop\n      pop\n      pop\n      pop\n      dup2\n      mstore\n      0x20\n      add\n      0x01\n      dup3\n      add\n      dup1\n      sload\n      tag_144\n      swap1\n      tag_71\n      jump\t// in\n    tag_144:\n      dup1\n      0x1f\n      add\n      0x20\n      dup1\n      swap2\n      div\n      mul\n      0x20\n      add\n      mload(0x40)\n      swap1\n      dup2\n      add\n      0x40\n      mstore\n      dup1\n      swap3\n      swap2\n      swap1\n      dup2\n      dup2\n      mstore\n      0x20\n      add\n      dup3\n      dup1\n      sload\n      tag_145\n      swap1\n      tag_71\n      jump\t// in\n    tag_145:\n      dup1\n      iszero\n      tag_146\n      jumpi\n      dup1\n      0x1f\n      lt\n      tag_147\n      jumpi\n      0x0100\n      dup1\n      dup4\n      sload\n      div\n      mul\n      dup4\n      mstore\n      swap2\n      0x20\n      add\n      swap2\n      jump(tag_146)\n    tag_147:\n      dup3\n      add\n      swap2\n      swap1\n      0x00\n      mstore\n      keccak256(0x00, 0x20)\n      swap1\n    tag_148:\n      dup2\n      sload\n      dup2\n      mstore\n      swap1\n      0x01\n      add\n      swap1\n      0x20\n      add\n      dup1\n      dup4\n      gt\n      tag_148\n      jumpi\n      dup3\n      swap1\n      sub\n      0x1f\n      and\n      dup3\n      add\n      swap2\n    tag_146:\n      pop\n      pop\n      pop\n      pop\n      pop\n      dup2\n      mstore\n      0x20\n      add\n      0x02\n      dup3\n      add\n      sload\n      dup2\n      mstore\n      pop\n      pop\n        /* \"contracts/JobPortal.sol\":3900:3917  applicantProfiles */\n      dup4\n        /* \"contracts/JobPortal.sol\":3918:3919  i */\n      dup4\n        /* \"contracts/JobPortal.sol\":3900:3920  applicantProfiles[i] */\n      dup2\n      mload\n      dup2\n      lt\n      tag_149\n      jumpi\n      tag_150\n      tag_88\n      jump\t// in\n    tag_150:\n    tag_149:\n      0x20\n      mul\n      0x20\n      add\n      add\n        /* \"contracts/JobPortal.sol\":3900:3951  applicantProfiles[i] = applicants[applicantAddress] */\n      dup2\n      swap1\n      mstore\n      pop\n        /* \"contracts/JobPortal.sol\":3822:3963  {... */\n      pop\n        /* \"contracts/JobPortal.sol\":3817:3820  i++ */\n      dup1\n      dup1\n      tag_151\n      swap1\n      tag_120\n      jump\t// in\n    tag_151:\n      swap2\n      pop\n      pop\n        /* \"contracts/JobPortal.sol\":3766:3963  for (uint256 i = 0; i < applicantAddresses.length; i++) {... */\n      jump(tag_133)\n    tag_134:\n      pop\n        /* \"contracts/JobPortal.sol\":3982:3999  applicantProfiles */\n      dup1\n        /* \"contracts/JobPortal.sol\":3975:3999  return applicantProfiles */\n      swap2\n      pop\n      pop\n        /* \"contracts/JobPortal.sol\":3585:4007  function getAllApplicantProfiles() public view returns (Applicant[] memory) {... */\n      swap1\n      jump\t// out\n        /* \"contracts/JobPortal.sol\":922:1397  function addJob(string memory _title, string memory _copanyName) public isAdmin {... */\n    tag_41:\n        /* \"contracts/JobPortal.sol\":590:595  admin */\n      0x00\n      dup1\n      sload\n      swap1\n      0x0100\n      exp\n      swap1\n      div\n      0xffffffffffffffffffffffffffffffffffffffff\n      and\n        /* \"contracts/JobPortal.sol\":576:595  msg.sender == admin */\n      0xffffffffffffffffffffffffffffffffffffffff\n      and\n        /* \"contracts/JobPortal.sol\":576:586  msg.sender */\n      caller\n        /* \"contracts/JobPortal.sol\":576:595  msg.sender == admin */\n      0xffffffffffffffffffffffffffffffffffffffff\n      and\n      eq\n        /* \"contracts/JobPortal.sol\":568:638  require(msg.sender == admin, \"Only the admin can perform this action\") */\n      tag_153\n      jumpi\n      mload(0x40)\n      0x08c379a000000000000000000000000000000000000000000000000000000000\n      dup2\n      mstore\n      0x04\n      add\n      tag_154\n      swap1\n      tag_103\n      jump\t// in\n    tag_154:\n      mload(0x40)\n      dup1\n      swap2\n      sub\n      swap1\n      revert\n    tag_153:\n        /* \"contracts/JobPortal.sol\":1077:1086  uint256 i */\n      0x00\n        /* \"contracts/JobPortal.sol\":1072:1283  for (uint256 i = 0; i < jobs.length; i++) { ... */\n    tag_156:\n        /* \"contracts/JobPortal.sol\":1096:1100  jobs */\n      0x02\n        /* \"contracts/JobPortal.sol\":1096:1107  jobs.length */\n      dup1\n      sload\n      swap1\n      pop\n        /* \"contracts/JobPortal.sol\":1092:1093  i */\n      dup2\n        /* \"contracts/JobPortal.sol\":1092:1107  i < jobs.length */\n      lt\n        /* \"contracts/JobPortal.sol\":1072:1283  for (uint256 i = 0; i < jobs.length; i++) { ... */\n      iszero\n      tag_157\n      jumpi\n        /* \"contracts/JobPortal.sol\":1207:1213  _title */\n      dup3\n        /* \"contracts/JobPortal.sol\":1191:1215  keccak256(bytes(_title)) */\n      dup1\n      mload\n      swap1\n      0x20\n      add\n      keccak256\n        /* \"contracts/JobPortal.sol\":1172:1176  jobs */\n      0x02\n        /* \"contracts/JobPortal.sol\":1177:1178  i */\n      dup3\n        /* \"contracts/JobPortal.sol\":1172:1179  jobs[i] */\n      dup2\n      sload\n      dup2\n      lt\n      tag_159\n      jumpi\n      tag_160\n      tag_88\n      jump\t// in\n    tag_160:\n    tag_159:\n      swap1\n      0x00\n      mstore\n      keccak256(0x00, 0x20)\n      swap1\n      0x02\n      mul\n      add\n        /* \"contracts/JobPortal.sol\":1172:1185  jobs[i].title */\n      0x00\n      add\n        /* \"contracts/JobPortal.sol\":1156:1187  keccak256(bytes(jobs[i].title)) */\n      mload(0x40)\n      tag_162\n      swap2\n      swap1\n      tag_115\n      jump\t// in\n    tag_162:\n      mload(0x40)\n      dup1\n      swap2\n      sub\n      swap1\n      keccak256\n        /* \"contracts/JobPortal.sol\":1156:1215  keccak256(bytes(jobs[i].title)) != keccak256(bytes(_title)) */\n      sub\n        /* \"contracts/JobPortal.sol\":1130:1271  require(... */\n      tag_163\n      jumpi\n      mload(0x40)\n      0x08c379a000000000000000000000000000000000000000000000000000000000\n      dup2\n      mstore\n      0x04\n      add\n      tag_164\n      swap1\n      tag_165\n      jump\t// in\n    tag_164:\n      mload(0x40)\n      dup1\n      swap2\n      sub\n      swap1\n      revert\n    tag_163:\n        /* \"contracts/JobPortal.sol\":1109:1112  i++ */\n      dup1\n      dup1\n      tag_166\n      swap1\n      tag_120\n      jump\t// in\n    tag_166:\n      swap2\n      pop\n      pop\n        /* \"contracts/JobPortal.sol\":1072:1283  for (uint256 i = 0; i < jobs.length; i++) { ... */\n      jump(tag_156)\n    tag_157:\n      pop\n        /* \"contracts/JobPortal.sol\":1295:1299  jobs */\n      0x02\n        /* \"contracts/JobPortal.sol\":1305:1388  Job({... */\n      mload(0x40)\n      dup1\n      0x40\n      add\n      0x40\n      mstore\n      dup1\n        /* \"contracts/JobPortal.sol\":1331:1337  _title */\n      dup5\n        /* \"contracts/JobPortal.sol\":1305:1388  Job({... */\n      dup2\n      mstore\n      0x20\n      add\n        /* \"contracts/JobPortal.sol\":1365:1376  _copanyName */\n      dup4\n        /* \"contracts/JobPortal.sol\":1305:1388  Job({... */\n      dup2\n      mstore\n      pop\n        /* \"contracts/JobPortal.sol\":1295:1389  jobs.push(Job({... */\n      swap1\n      dup1\n      0x01\n      dup2\n      sload\n      add\n      dup1\n      dup3\n      sstore\n      dup1\n      swap2\n      pop\n      pop\n      0x01\n      swap1\n      sub\n      swap1\n      0x00\n      mstore\n      keccak256(0x00, 0x20)\n      swap1\n      0x02\n      mul\n      add\n      0x00\n      swap1\n      swap2\n      swap1\n      swap2\n      swap1\n      swap2\n      pop\n      0x00\n      dup3\n      add\n      mload\n      dup2\n      0x00\n      add\n      swap1\n      dup2\n      tag_168\n      swap2\n      swap1\n      tag_122\n      jump\t// in\n    tag_168:\n      pop\n      0x20\n      dup3\n      add\n      mload\n      dup2\n      0x01\n      add\n      swap1\n      dup2\n      tag_169\n      swap2\n      swap1\n      tag_122\n      jump\t// in\n    tag_169:\n      pop\n      pop\n      pop\n        /* \"contracts/JobPortal.sol\":922:1397  function addJob(string memory _title, string memory _copanyName) public isAdmin {... */\n      pop\n      pop\n      jump\t// out\n        /* \"contracts/JobPortal.sol\":2950:3302  function getAllJobsDetails() public view returns (Job[] memory) {... */\n    tag_43:\n        /* \"contracts/JobPortal.sol\":3000:3012  Job[] memory */\n      0x60\n        /* \"contracts/JobPortal.sol\":3025:3048  Job[] memory jobDetails */\n      0x00\n        /* \"contracts/JobPortal.sol\":3061:3065  jobs */\n      0x02\n        /* \"contracts/JobPortal.sol\":3061:3072  jobs.length */\n      dup1\n      sload\n      swap1\n      pop\n        /* \"contracts/JobPortal.sol\":3051:3073  new Job[](jobs.length) */\n      0xffffffffffffffff\n      dup2\n      gt\n      iszero\n      tag_171\n      jumpi\n      tag_172\n      tag_128\n      jump\t// in\n    tag_172:\n    tag_171:\n      mload(0x40)\n      swap1\n      dup1\n      dup3\n      mstore\n      dup1\n      0x20\n      mul\n      0x20\n      add\n      dup3\n      add\n      0x40\n      mstore\n      dup1\n      iszero\n      tag_173\n      jumpi\n      dup2\n      0x20\n      add\n    tag_174:\n      tag_175\n      tag_176\n      jump\t// in\n    tag_175:\n      dup2\n      mstore\n      0x20\n      add\n      swap1\n      0x01\n      swap1\n      sub\n      swap1\n      dup2\n      tag_174\n      jumpi\n      swap1\n      pop\n    tag_173:\n      pop\n        /* \"contracts/JobPortal.sol\":3025:3073  Job[] memory jobDetails = new Job[](jobs.length) */\n      swap1\n      pop\n        /* \"contracts/JobPortal.sol\":3091:3100  uint256 i */\n      0x00\n        /* \"contracts/JobPortal.sol\":3086:3263  for (uint256 i = 0; i < jobs.length; i++) {... */\n    tag_177:\n        /* \"contracts/JobPortal.sol\":3110:3114  jobs */\n      0x02\n        /* \"contracts/JobPortal.sol\":3110:3121  jobs.length */\n      dup1\n      sload\n      swap1\n      pop\n        /* \"contracts/JobPortal.sol\":3106:3107  i */\n      dup2\n        /* \"contracts/JobPortal.sol\":3106:3121  i < jobs.length */\n      lt\n        /* \"contracts/JobPortal.sol\":3086:3263  for (uint256 i = 0; i < jobs.length; i++) {... */\n      iszero\n      tag_178\n      jumpi\n        /* \"contracts/JobPortal.sol\":3159:3251  Job(... */\n      mload(0x40)\n      dup1\n      0x40\n      add\n      0x40\n      mstore\n      dup1\n        /* \"contracts/JobPortal.sol\":3181:3185  jobs */\n      0x02\n        /* \"contracts/JobPortal.sol\":3186:3187  i */\n      dup4\n        /* \"contracts/JobPortal.sol\":3181:3188  jobs[i] */\n      dup2\n      sload\n      dup2\n      lt\n      tag_180\n      jumpi\n      tag_181\n      tag_88\n      jump\t// in\n    tag_181:\n    tag_180:\n      swap1\n      0x00\n      mstore\n      keccak256(0x00, 0x20)\n      swap1\n      0x02\n      mul\n      add\n        /* \"contracts/JobPortal.sol\":3181:3194  jobs[i].title */\n      0x00\n      add\n        /* \"contracts/JobPortal.sol\":3159:3251  Job(... */\n      dup1\n      sload\n      tag_183\n      swap1\n      tag_71\n      jump\t// in\n    tag_183:\n      dup1\n      0x1f\n      add\n      0x20\n      dup1\n      swap2\n      div\n      mul\n      0x20\n      add\n      mload(0x40)\n      swap1\n      dup2\n      add\n      0x40\n      mstore\n      dup1\n      swap3\n      swap2\n      swap1\n      dup2\n      dup2\n      mstore\n      0x20\n      add\n      dup3\n      dup1\n      sload\n      tag_184\n      swap1\n      tag_71\n      jump\t// in\n    tag_184:\n      dup1\n      iszero\n      tag_185\n      jumpi\n      dup1\n      0x1f\n      lt\n      tag_186\n      jumpi\n      0x0100\n      dup1\n      dup4\n      sload\n      div\n      mul\n      dup4\n      mstore\n      swap2\n      0x20\n      add\n      swap2\n      jump(tag_185)\n    tag_186:\n      dup3\n      add\n      swap2\n      swap1\n      0x00\n      mstore\n      keccak256(0x00, 0x20)\n      swap1\n    tag_187:\n      dup2\n      sload\n      dup2\n      mstore\n      swap1\n      0x01\n      add\n      swap1\n      0x20\n      add\n      dup1\n      dup4\n      gt\n      tag_187\n      jumpi\n      dup3\n      swap1\n      sub\n      0x1f\n      and\n      dup3\n      add\n      swap2\n    tag_185:\n      pop\n      pop\n      pop\n      pop\n      pop\n      dup2\n      mstore\n      0x20\n      add\n        /* \"contracts/JobPortal.sol\":3213:3217  jobs */\n      0x02\n        /* \"contracts/JobPortal.sol\":3218:3219  i */\n      dup4\n        /* \"contracts/JobPortal.sol\":3213:3220  jobs[i] */\n      dup2\n      sload\n      dup2\n      lt\n      tag_188\n      jumpi\n      tag_189\n      tag_88\n      jump\t// in\n    tag_189:\n    tag_188:\n      swap1\n      0x00\n      mstore\n      keccak256(0x00, 0x20)\n      swap1\n      0x02\n      mul\n      add\n        /* \"contracts/JobPortal.sol\":3213:3232  jobs[i].companyName */\n      0x01\n      add\n        /* \"contracts/JobPortal.sol\":3159:3251  Job(... */\n      dup1\n      sload\n      tag_191\n      swap1\n      tag_71\n      jump\t// in\n    tag_191:\n      dup1\n      0x1f\n      add\n      0x20\n      dup1\n      swap2\n      div\n      mul\n      0x20\n      add\n      mload(0x40)\n      swap1\n      dup2\n      add\n      0x40\n      mstore\n      dup1\n      swap3\n      swap2\n      swap1\n      dup2\n      dup2\n      mstore\n      0x20\n      add\n      dup3\n      dup1\n      sload\n      tag_192\n      swap1\n      tag_71\n      jump\t// in\n    tag_192:\n      dup1\n      iszero\n      tag_193\n      jumpi\n      dup1\n      0x1f\n      lt\n      tag_194\n      jumpi\n      0x0100\n      dup1\n      dup4\n      sload\n      div\n      mul\n      dup4\n      mstore\n      swap2\n      0x20\n      add\n      swap2\n      jump(tag_193)\n    tag_194:\n      dup3\n      add\n      swap2\n      swap1\n      0x00\n      mstore\n      keccak256(0x00, 0x20)\n      swap1\n    tag_195:\n      dup2\n      sload\n      dup2\n      mstore\n      swap1\n      0x01\n      add\n      swap1\n      0x20\n      add\n      dup1\n      dup4\n      gt\n      tag_195\n      jumpi\n      dup3\n      swap1\n      sub\n      0x1f\n      and\n      dup3\n      add\n      swap2\n    tag_193:\n      pop\n      pop\n      pop\n      pop\n      pop\n      dup2\n      mstore\n      pop\n        /* \"contracts/JobPortal.sol\":3143:3153  jobDetails */\n      dup3\n        /* \"contracts/JobPortal.sol\":3154:3155  i */\n      dup3\n        /* \"contracts/JobPortal.sol\":3143:3156  jobDetails[i] */\n      dup2\n      mload\n      dup2\n      lt\n      tag_196\n      jumpi\n      tag_197\n      tag_88\n      jump\t// in\n    tag_197:\n    tag_196:\n      0x20\n      mul\n      0x20\n      add\n      add\n        /* \"contracts/JobPortal.sol\":3143:3251  jobDetails[i] = Job(... */\n      dup2\n      swap1\n      mstore\n      pop\n        /* \"contracts/JobPortal.sol\":3123:3126  i++ */\n      dup1\n      dup1\n      tag_198\n      swap1\n      tag_120\n      jump\t// in\n    tag_198:\n      swap2\n      pop\n      pop\n        /* \"contracts/JobPortal.sol\":3086:3263  for (uint256 i = 0; i < jobs.length; i++) {... */\n      jump(tag_177)\n    tag_178:\n      pop\n        /* \"contracts/JobPortal.sol\":3282:3292  jobDetails */\n      dup1\n        /* \"contracts/JobPortal.sol\":3275:3292  return jobDetails */\n      swap2\n      pop\n      pop\n        /* \"contracts/JobPortal.sol\":2950:3302  function getAllJobsDetails() public view returns (Job[] memory) {... */\n      swap1\n      jump\t// out\n        /* \"contracts/JobPortal.sol\":494:529  address[] public applicantAddresses */\n    tag_48:\n      0x03\n      dup2\n      dup2\n      sload\n      dup2\n      lt\n      tag_199\n      jumpi\n      0x00\n      dup1\n      revert\n    tag_199:\n      swap1\n      0x00\n      mstore\n      keccak256(0x00, 0x20)\n      add\n      0x00\n      swap2\n      pop\n      sload\n      swap1\n      0x0100\n      exp\n      swap1\n      div\n      0xffffffffffffffffffffffffffffffffffffffff\n      and\n      dup2\n      jump\t// out\n        /* \"contracts/JobPortal.sol\":2852:2942  function getJobCount() public view returns (uint256) {... */\n    tag_52:\n        /* \"contracts/JobPortal.sol\":2896:2903  uint256 */\n      0x00\n        /* \"contracts/JobPortal.sol\":2923:2927  jobs */\n      0x02\n        /* \"contracts/JobPortal.sol\":2923:2934  jobs.length */\n      dup1\n      sload\n      swap1\n      pop\n        /* \"contracts/JobPortal.sol\":2916:2934  return jobs.length */\n      swap1\n      pop\n        /* \"contracts/JobPortal.sol\":2852:2942  function getJobCount() public view returns (uint256) {... */\n      swap1\n      jump\t// out\n        /* \"contracts/JobPortal.sol\":416:463  mapping(address => Applicant) public applicants */\n    tag_58:\n      mstore(0x20, 0x01)\n      dup1\n      0x00\n      mstore\n      keccak256(0x00, 0x40)\n      0x00\n      swap2\n      pop\n      swap1\n      pop\n      dup1\n      0x00\n      add\n      dup1\n      sload\n      tag_202\n      swap1\n      tag_71\n      jump\t// in\n    tag_202:\n      dup1\n      0x1f\n      add\n      0x20\n      dup1\n      swap2\n      div\n      mul\n      0x20\n      add\n      mload(0x40)\n      swap1\n      dup2\n      add\n      0x40\n      mstore\n      dup1\n      swap3\n      swap2\n      swap1\n      dup2\n      dup2\n      mstore\n      0x20\n      add\n      dup3\n      dup1\n      sload\n      tag_203\n      swap1\n      tag_71\n      jump\t// in\n    tag_203:\n      dup1\n      iszero\n      tag_204\n      jumpi\n      dup1\n      0x1f\n      lt\n      tag_205\n      jumpi\n      0x0100\n      dup1\n      dup4\n      sload\n      div\n      mul\n      dup4\n      mstore\n      swap2\n      0x20\n      add\n      swap2\n      jump(tag_204)\n    tag_205:\n      dup3\n      add\n      swap2\n      swap1\n      0x00\n      mstore\n      keccak256(0x00, 0x20)\n      swap1\n    tag_206:\n      dup2\n      sload\n      dup2\n      mstore\n      swap1\n      0x01\n      add\n      swap1\n      0x20\n      add\n      dup1\n      dup4\n      gt\n      tag_206\n      jumpi\n      dup3\n      swap1\n      sub\n      0x1f\n      and\n      dup3\n      add\n      swap2\n    tag_204:\n      pop\n      pop\n      pop\n      pop\n      pop\n      swap1\n      dup1\n      0x01\n      add\n      dup1\n      sload\n      tag_207\n      swap1\n      tag_71\n      jump\t// in\n    tag_207:\n      dup1\n      0x1f\n      add\n      0x20\n      dup1\n      swap2\n      div\n      mul\n      0x20\n      add\n      mload(0x40)\n      swap1\n      dup2\n      add\n      0x40\n      mstore\n      dup1\n      swap3\n      swap2\n      swap1\n      dup2\n      dup2\n      mstore\n      0x20\n      add\n      dup3\n      dup1\n      sload\n      tag_208\n      swap1\n      tag_71\n      jump\t// in\n    tag_208:\n      dup1\n      iszero\n      tag_209\n      jumpi\n      dup1\n      0x1f\n      lt\n      tag_210\n      jumpi\n      0x0100\n      dup1\n      dup4\n      sload\n      div\n      mul\n      dup4\n      mstore\n      swap2\n      0x20\n      add\n      swap2\n      jump(tag_209)\n    tag_210:\n      dup3\n      add\n      swap2\n      swap1\n      0x00\n      mstore\n      keccak256(0x00, 0x20)\n      swap1\n    tag_211:\n      dup2\n      sload\n      dup2\n      mstore\n      swap1\n      0x01\n      add\n      swap1\n      0x20\n      add\n      dup1\n      dup4\n      gt\n      tag_211\n      jumpi\n      dup3\n      swap1\n      sub\n      0x1f\n      and\n      dup3\n      add\n      swap2\n    tag_209:\n      pop\n      pop\n      pop\n      pop\n      pop\n      swap1\n      dup1\n      0x02\n      add\n      sload\n      swap1\n      pop\n      dup4\n      jump\t// out\n        /* \"contracts/JobPortal.sol\":387:407  address public admin */\n    tag_62:\n      0x00\n      dup1\n      sload\n      swap1\n      0x0100\n      exp\n      swap1\n      div\n      0xffffffffffffffffffffffffffffffffffffffff\n      and\n      dup2\n      jump\t// out\n        /* \"contracts/JobPortal.sol\":3310:3577  function getApplicantProfile(address _applicantAddress) public view returns (string memory, string memory, uint256) {... */\n    tag_66:\n        /* \"contracts/JobPortal.sol\":3387:3400  string memory */\n      0x60\n        /* \"contracts/JobPortal.sol\":3402:3415  string memory */\n      dup1\n        /* \"contracts/JobPortal.sol\":3417:3424  uint256 */\n      0x00\n        /* \"contracts/JobPortal.sol\":3437:3463  Applicant memory applicant */\n      dup1\n        /* \"contracts/JobPortal.sol\":3466:3476  applicants */\n      0x01\n        /* \"contracts/JobPortal.sol\":3466:3495  applicants[_applicantAddress] */\n      0x00\n        /* \"contracts/JobPortal.sol\":3477:3494  _applicantAddress */\n      dup7\n        /* \"contracts/JobPortal.sol\":3466:3495  applicants[_applicantAddress] */\n      0xffffffffffffffffffffffffffffffffffffffff\n      and\n      0xffffffffffffffffffffffffffffffffffffffff\n      and\n      dup2\n      mstore\n      0x20\n      add\n      swap1\n      dup2\n      mstore\n      0x20\n      add\n      0x00\n      keccak256\n        /* \"contracts/JobPortal.sol\":3437:3495  Applicant memory applicant = applicants[_applicantAddress] */\n      mload(0x40)\n      dup1\n      0x60\n      add\n      0x40\n      mstore\n      swap1\n      dup2\n      0x00\n      dup3\n      add\n      dup1\n      sload\n      tag_213\n      swap1\n      tag_71\n      jump\t// in\n    tag_213:\n      dup1\n      0x1f\n      add\n      0x20\n      dup1\n      swap2\n      div\n      mul\n      0x20\n      add\n      mload(0x40)\n      swap1\n      dup2\n      add\n      0x40\n      mstore\n      dup1\n      swap3\n      swap2\n      swap1\n      dup2\n      dup2\n      mstore\n      0x20\n      add\n      dup3\n      dup1\n      sload\n      tag_214\n      swap1\n      tag_71\n      jump\t// in\n    tag_214:\n      dup1\n      iszero\n      tag_215\n      jumpi\n      dup1\n      0x1f\n      lt\n      tag_216\n      jumpi\n      0x0100\n      dup1\n      dup4\n      sload\n      div\n      mul\n      dup4\n      mstore\n      swap2\n      0x20\n      add\n      swap2\n      jump(tag_215)\n    tag_216:\n      dup3\n      add\n      swap2\n      swap1\n      0x00\n      mstore\n      keccak256(0x00, 0x20)\n      swap1\n    tag_217:\n      dup2\n      sload\n      dup2\n      mstore\n      swap1\n      0x01\n      add\n      swap1\n      0x20\n      add\n      dup1\n      dup4\n      gt\n      tag_217\n      jumpi\n      dup3\n      swap1\n      sub\n      0x1f\n      and\n      dup3\n      add\n      swap2\n    tag_215:\n      pop\n      pop\n      pop\n      pop\n      pop\n      dup2\n      mstore\n      0x20\n      add\n      0x01\n      dup3\n      add\n      dup1\n      sload\n      tag_218\n      swap1\n      tag_71\n      jump\t// in\n    tag_218:\n      dup1\n      0x1f\n      add\n      0x20\n      dup1\n      swap2\n      div\n      mul\n      0x20\n      add\n      mload(0x40)\n      swap1\n      dup2\n      add\n      0x40\n      mstore\n      dup1\n      swap3\n      swap2\n      swap1\n      dup2\n      dup2\n      mstore\n      0x20\n      add\n      dup3\n      dup1\n      sload\n      tag_219\n      swap1\n      tag_71\n      jump\t// in\n    tag_219:\n      dup1\n      iszero\n      tag_220\n      jumpi\n      dup1\n      0x1f\n      lt\n      tag_221\n      jumpi\n      0x0100\n      dup1\n      dup4\n      sload\n      div\n      mul\n      dup4\n      mstore\n      swap2\n      0x20\n      add\n      swap2\n      jump(tag_220)\n    tag_221:\n      dup3\n      add\n      swap2\n      swap1\n      0x00\n      mstore\n      keccak256(0x00, 0x20)\n      swap1\n    tag_222:\n      dup2\n      sload\n      dup2\n      mstore\n      swap1\n      0x01\n      add\n      swap1\n      0x20\n      add\n      dup1\n      dup4\n      gt\n      tag_222\n      jumpi\n      dup3\n      swap1\n      sub\n      0x1f\n      and\n      dup3\n      add\n      swap2\n    tag_220:\n      pop\n      pop\n      pop\n      pop\n      pop\n      dup2\n      mstore\n      0x20\n      add\n      0x02\n      dup3\n      add\n      sload\n      dup2\n      mstore\n      pop\n      pop\n      swap1\n      pop\n        /* \"contracts/JobPortal.sol\":3514:3523  applicant */\n      dup1\n        /* \"contracts/JobPortal.sol\":3514:3528  applicant.name */\n      0x00\n      add\n      mload\n        /* \"contracts/JobPortal.sol\":3530:3539  applicant */\n      dup2\n        /* \"contracts/JobPortal.sol\":3530:3545  applicant.skill */\n      0x20\n      add\n      mload\n        /* \"contracts/JobPortal.sol\":3547:3556  applicant */\n      dup3\n        /* \"contracts/JobPortal.sol\":3547:3568  applicant.jobsApplied */\n      0x40\n      add\n      mload\n        /* \"contracts/JobPortal.sol\":3506:3569  return (applicant.name, applicant.skill, applicant.jobsApplied) */\n      swap4\n      pop\n      swap4\n      pop\n      swap4\n      pop\n      pop\n        /* \"contracts/JobPortal.sol\":3310:3577  function getApplicantProfile(address _applicantAddress) public view returns (string memory, string memory, uint256) {... */\n      swap2\n      swap4\n      swap1\n      swap3\n      pop\n      jump\t// out\n    tag_132:\n      mload(0x40)\n      dup1\n      0x60\n      add\n      0x40\n      mstore\n      dup1\n      0x60\n      dup2\n      mstore\n      0x20\n      add\n      0x60\n      dup2\n      mstore\n      0x20\n      add\n      0x00\n      dup2\n      mstore\n      pop\n      swap1\n      jump\t// out\n    tag_176:\n      mload(0x40)\n      dup1\n      0x40\n      add\n      0x40\n      mstore\n      dup1\n      0x60\n      dup2\n      mstore\n      0x20\n      add\n      0x60\n      dup2\n      mstore\n      pop\n      swap1\n      jump\t// out\n        /* \"#utility.yul\":7:82   */\n    tag_223:\n        /* \"#utility.yul\":40:46   */\n      0x00\n        /* \"#utility.yul\":73:75   */\n      0x40\n        /* \"#utility.yul\":67:76   */\n      mload\n        /* \"#utility.yul\":57:76   */\n      swap1\n      pop\n        /* \"#utility.yul\":7:82   */\n      swap1\n      jump\t// out\n        /* \"#utility.yul\":88:205   */\n    tag_224:\n        /* \"#utility.yul\":197:198   */\n      0x00\n        /* \"#utility.yul\":194:195   */\n      dup1\n        /* \"#utility.yul\":187:199   */\n      revert\n        /* \"#utility.yul\":211:328   */\n    tag_225:\n        /* \"#utility.yul\":320:321   */\n      0x00\n        /* \"#utility.yul\":317:318   */\n      dup1\n        /* \"#utility.yul\":310:322   */\n      revert\n        /* \"#utility.yul\":334:411   */\n    tag_226:\n        /* \"#utility.yul\":371:378   */\n      0x00\n        /* \"#utility.yul\":400:405   */\n      dup2\n        /* \"#utility.yul\":389:405   */\n      swap1\n      pop\n        /* \"#utility.yul\":334:411   */\n      swap2\n      swap1\n      pop\n      jump\t// out\n        /* \"#utility.yul\":417:539   */\n    tag_227:\n        /* \"#utility.yul\":490:514   */\n      tag_301\n        /* \"#utility.yul\":508:513   */\n      dup2\n        /* \"#utility.yul\":490:514   */\n      tag_226\n      jump\t// in\n    tag_301:\n        /* \"#utility.yul\":483:488   */\n      dup2\n        /* \"#utility.yul\":480:515   */\n      eq\n        /* \"#utility.yul\":470:533   */\n      tag_302\n      jumpi\n        /* \"#utility.yul\":529:530   */\n      0x00\n        /* \"#utility.yul\":526:527   */\n      dup1\n        /* \"#utility.yul\":519:531   */\n      revert\n        /* \"#utility.yul\":470:533   */\n    tag_302:\n        /* \"#utility.yul\":417:539   */\n      pop\n      jump\t// out\n        /* \"#utility.yul\":545:684   */\n    tag_228:\n        /* \"#utility.yul\":591:596   */\n      0x00\n        /* \"#utility.yul\":629:635   */\n      dup2\n        /* \"#utility.yul\":616:636   */\n      calldataload\n        /* \"#utility.yul\":607:636   */\n      swap1\n      pop\n        /* \"#utility.yul\":645:678   */\n      tag_304\n        /* \"#utility.yul\":672:677   */\n      dup2\n        /* \"#utility.yul\":645:678   */\n      tag_227\n      jump\t// in\n    tag_304:\n        /* \"#utility.yul\":545:684   */\n      swap3\n      swap2\n      pop\n      pop\n      jump\t// out\n        /* \"#utility.yul\":690:1019   */\n    tag_18:\n        /* \"#utility.yul\":749:755   */\n      0x00\n        /* \"#utility.yul\":798:800   */\n      0x20\n        /* \"#utility.yul\":786:795   */\n      dup3\n        /* \"#utility.yul\":777:784   */\n      dup5\n        /* \"#utility.yul\":773:796   */\n      sub\n        /* \"#utility.yul\":769:801   */\n      slt\n        /* \"#utility.yul\":766:885   */\n      iszero\n      tag_306\n      jumpi\n        /* \"#utility.yul\":804:883   */\n      tag_307\n      tag_224\n      jump\t// in\n    tag_307:\n        /* \"#utility.yul\":766:885   */\n    tag_306:\n        /* \"#utility.yul\":924:925   */\n      0x00\n        /* \"#utility.yul\":949:1002   */\n      tag_308\n        /* \"#utility.yul\":994:1001   */\n      dup5\n        /* \"#utility.yul\":985:991   */\n      dup3\n        /* \"#utility.yul\":974:983   */\n      dup6\n        /* \"#utility.yul\":970:992   */\n      add\n        /* \"#utility.yul\":949:1002   */\n      tag_228\n      jump\t// in\n    tag_308:\n        /* \"#utility.yul\":939:1002   */\n      swap2\n      pop\n        /* \"#utility.yul\":895:1012   */\n      pop\n        /* \"#utility.yul\":690:1019   */\n      swap3\n      swap2\n      pop\n      pop\n      jump\t// out\n        /* \"#utility.yul\":1025:1124   */\n    tag_229:\n        /* \"#utility.yul\":1077:1083   */\n      0x00\n        /* \"#utility.yul\":1111:1116   */\n      dup2\n        /* \"#utility.yul\":1105:1117   */\n      mload\n        /* \"#utility.yul\":1095:1117   */\n      swap1\n      pop\n        /* \"#utility.yul\":1025:1124   */\n      swap2\n      swap1\n      pop\n      jump\t// out\n        /* \"#utility.yul\":1130:1299   */\n    tag_230:\n        /* \"#utility.yul\":1214:1225   */\n      0x00\n        /* \"#utility.yul\":1248:1254   */\n      dup3\n        /* \"#utility.yul\":1243:1246   */\n      dup3\n        /* \"#utility.yul\":1236:1255   */\n      mstore\n        /* \"#utility.yul\":1288:1292   */\n      0x20\n        /* \"#utility.yul\":1283:1286   */\n      dup3\n        /* \"#utility.yul\":1279:1293   */\n      add\n        /* \"#utility.yul\":1264:1293   */\n      swap1\n      pop\n        /* \"#utility.yul\":1130:1299   */\n      swap3\n      swap2\n      pop\n      pop\n      jump\t// out\n        /* \"#utility.yul\":1305:1551   */\n    tag_231:\n        /* \"#utility.yul\":1386:1387   */\n      0x00\n        /* \"#utility.yul\":1396:1509   */\n    tag_312:\n        /* \"#utility.yul\":1410:1416   */\n      dup4\n        /* \"#utility.yul\":1407:1408   */\n      dup2\n        /* \"#utility.yul\":1404:1417   */\n      lt\n        /* \"#utility.yul\":1396:1509   */\n      iszero\n      tag_314\n      jumpi\n        /* \"#utility.yul\":1495:1496   */\n      dup1\n        /* \"#utility.yul\":1490:1493   */\n      dup3\n        /* \"#utility.yul\":1486:1497   */\n      add\n        /* \"#utility.yul\":1480:1498   */\n      mload\n        /* \"#utility.yul\":1476:1477   */\n      dup2\n        /* \"#utility.yul\":1471:1474   */\n      dup5\n        /* \"#utility.yul\":1467:1478   */\n      add\n        /* \"#utility.yul\":1460:1499   */\n      mstore\n        /* \"#utility.yul\":1432:1434   */\n      0x20\n        /* \"#utility.yul\":1429:1430   */\n      dup2\n        /* \"#utility.yul\":1425:1435   */\n      add\n        /* \"#utility.yul\":1420:1435   */\n      swap1\n      pop\n        /* \"#utility.yul\":1396:1509   */\n      jump(tag_312)\n    tag_314:\n        /* \"#utility.yul\":1543:1544   */\n      0x00\n        /* \"#utility.yul\":1534:1540   */\n      dup5\n        /* \"#utility.yul\":1529:1532   */\n      dup5\n        /* \"#utility.yul\":1525:1541   */\n      add\n        /* \"#utility.yul\":1518:1545   */\n      mstore\n        /* \"#utility.yul\":1367:1551   */\n      pop\n        /* \"#utility.yul\":1305:1551   */\n      pop\n      pop\n      pop\n      jump\t// out\n        /* \"#utility.yul\":1557:1659   */\n    tag_232:\n        /* \"#utility.yul\":1598:1604   */\n      0x00\n        /* \"#utility.yul\":1649:1651   */\n      0x1f\n        /* \"#utility.yul\":1645:1652   */\n      not\n        /* \"#utility.yul\":1640:1642   */\n      0x1f\n        /* \"#utility.yul\":1633:1638   */\n      dup4\n        /* \"#utility.yul\":1629:1643   */\n      add\n        /* \"#utility.yul\":1625:1653   */\n      and\n        /* \"#utility.yul\":1615:1653   */\n      swap1\n      pop\n        /* \"#utility.yul\":1557:1659   */\n      swap2\n      swap1\n      pop\n      jump\t// out\n        /* \"#utility.yul\":1665:2042   */\n    tag_233:\n        /* \"#utility.yul\":1753:1756   */\n      0x00\n        /* \"#utility.yul\":1781:1820   */\n      tag_317\n        /* \"#utility.yul\":1814:1819   */\n      dup3\n        /* \"#utility.yul\":1781:1820   */\n      tag_229\n      jump\t// in\n    tag_317:\n        /* \"#utility.yul\":1836:1907   */\n      tag_318\n        /* \"#utility.yul\":1900:1906   */\n      dup2\n        /* \"#utility.yul\":1895:1898   */\n      dup6\n        /* \"#utility.yul\":1836:1907   */\n      tag_230\n      jump\t// in\n    tag_318:\n        /* \"#utility.yul\":1829:1907   */\n      swap4\n      pop\n        /* \"#utility.yul\":1916:1981   */\n      tag_319\n        /* \"#utility.yul\":1974:1980   */\n      dup2\n        /* \"#utility.yul\":1969:1972   */\n      dup6\n        /* \"#utility.yul\":1962:1966   */\n      0x20\n        /* \"#utility.yul\":1955:1960   */\n      dup7\n        /* \"#utility.yul\":1951:1967   */\n      add\n        /* \"#utility.yul\":1916:1981   */\n      tag_231\n      jump\t// in\n    tag_319:\n        /* \"#utility.yul\":2006:2035   */\n      tag_320\n        /* \"#utility.yul\":2028:2034   */\n      dup2\n        /* \"#utility.yul\":2006:2035   */\n      tag_232\n      jump\t// in\n    tag_320:\n        /* \"#utility.yul\":2001:2004   */\n      dup5\n        /* \"#utility.yul\":1997:2036   */\n      add\n        /* \"#utility.yul\":1990:2036   */\n      swap2\n      pop\n        /* \"#utility.yul\":1757:2042   */\n      pop\n        /* \"#utility.yul\":1665:2042   */\n      swap3\n      swap2\n      pop\n      pop\n      jump\t// out\n        /* \"#utility.yul\":2048:2562   */\n    tag_21:\n        /* \"#utility.yul\":2209:2213   */\n      0x00\n        /* \"#utility.yul\":2247:2249   */\n      0x40\n        /* \"#utility.yul\":2236:2245   */\n      dup3\n        /* \"#utility.yul\":2232:2250   */\n      add\n        /* \"#utility.yul\":2224:2250   */\n      swap1\n      pop\n        /* \"#utility.yul\":2296:2305   */\n      dup2\n        /* \"#utility.yul\":2290:2294   */\n      dup2\n        /* \"#utility.yul\":2286:2306   */\n      sub\n        /* \"#utility.yul\":2282:2283   */\n      0x00\n        /* \"#utility.yul\":2271:2280   */\n      dup4\n        /* \"#utility.yul\":2267:2284   */\n      add\n        /* \"#utility.yul\":2260:2307   */\n      mstore\n        /* \"#utility.yul\":2324:2402   */\n      tag_322\n        /* \"#utility.yul\":2397:2401   */\n      dup2\n        /* \"#utility.yul\":2388:2394   */\n      dup6\n        /* \"#utility.yul\":2324:2402   */\n      tag_233\n      jump\t// in\n    tag_322:\n        /* \"#utility.yul\":2316:2402   */\n      swap1\n      pop\n        /* \"#utility.yul\":2449:2458   */\n      dup2\n        /* \"#utility.yul\":2443:2447   */\n      dup2\n        /* \"#utility.yul\":2439:2459   */\n      sub\n        /* \"#utility.yul\":2434:2436   */\n      0x20\n        /* \"#utility.yul\":2423:2432   */\n      dup4\n        /* \"#utility.yul\":2419:2437   */\n      add\n        /* \"#utility.yul\":2412:2460   */\n      mstore\n        /* \"#utility.yul\":2477:2555   */\n      tag_323\n        /* \"#utility.yul\":2550:2554   */\n      dup2\n        /* \"#utility.yul\":2541:2547   */\n      dup5\n        /* \"#utility.yul\":2477:2555   */\n      tag_233\n      jump\t// in\n    tag_323:\n        /* \"#utility.yul\":2469:2555   */\n      swap1\n      pop\n        /* \"#utility.yul\":2048:2562   */\n      swap4\n      swap3\n      pop\n      pop\n      pop\n      jump\t// out\n        /* \"#utility.yul\":2568:2686   */\n    tag_234:\n        /* \"#utility.yul\":2655:2679   */\n      tag_325\n        /* \"#utility.yul\":2673:2678   */\n      dup2\n        /* \"#utility.yul\":2655:2679   */\n      tag_226\n      jump\t// in\n    tag_325:\n        /* \"#utility.yul\":2650:2653   */\n      dup3\n        /* \"#utility.yul\":2643:2680   */\n      mstore\n        /* \"#utility.yul\":2568:2686   */\n      pop\n      pop\n      jump\t// out\n        /* \"#utility.yul\":2692:3316   */\n    tag_29:\n        /* \"#utility.yul\":2881:2885   */\n      0x00\n        /* \"#utility.yul\":2919:2921   */\n      0x60\n        /* \"#utility.yul\":2908:2917   */\n      dup3\n        /* \"#utility.yul\":2904:2922   */\n      add\n        /* \"#utility.yul\":2896:2922   */\n      swap1\n      pop\n        /* \"#utility.yul\":2932:3003   */\n      tag_327\n        /* \"#utility.yul\":3000:3001   */\n      0x00\n        /* \"#utility.yul\":2989:2998   */\n      dup4\n        /* \"#utility.yul\":2985:3002   */\n      add\n        /* \"#utility.yul\":2976:2982   */\n      dup7\n        /* \"#utility.yul\":2932:3003   */\n      tag_234\n      jump\t// in\n    tag_327:\n        /* \"#utility.yul\":3050:3059   */\n      dup2\n        /* \"#utility.yul\":3044:3048   */\n      dup2\n        /* \"#utility.yul\":3040:3060   */\n      sub\n        /* \"#utility.yul\":3035:3037   */\n      0x20\n        /* \"#utility.yul\":3024:3033   */\n      dup4\n        /* \"#utility.yul\":3020:3038   */\n      add\n        /* \"#utility.yul\":3013:3061   */\n      mstore\n        /* \"#utility.yul\":3078:3156   */\n      tag_328\n        /* \"#utility.yul\":3151:3155   */\n      dup2\n        /* \"#utility.yul\":3142:3148   */\n      dup6\n        /* \"#utility.yul\":3078:3156   */\n      tag_233\n      jump\t// in\n    tag_328:\n        /* \"#utility.yul\":3070:3156   */\n      swap1\n      pop\n        /* \"#utility.yul\":3203:3212   */\n      dup2\n        /* \"#utility.yul\":3197:3201   */\n      dup2\n        /* \"#utility.yul\":3193:3213   */\n      sub\n        /* \"#utility.yul\":3188:3190   */\n      0x40\n        /* \"#utility.yul\":3177:3186   */\n      dup4\n        /* \"#utility.yul\":3173:3191   */\n      add\n        /* \"#utility.yul\":3166:3214   */\n      mstore\n        /* \"#utility.yul\":3231:3309   */\n      tag_329\n        /* \"#utility.yul\":3304:3308   */\n      dup2\n        /* \"#utility.yul\":3295:3301   */\n      dup5\n        /* \"#utility.yul\":3231:3309   */\n      tag_233\n      jump\t// in\n    tag_329:\n        /* \"#utility.yul\":3223:3309   */\n      swap1\n      pop\n        /* \"#utility.yul\":2692:3316   */\n      swap5\n      swap4\n      pop\n      pop\n      pop\n      pop\n      jump\t// out\n        /* \"#utility.yul\":3322:3448   */\n    tag_235:\n        /* \"#utility.yul\":3359:3366   */\n      0x00\n        /* \"#utility.yul\":3399:3441   */\n      0xffffffffffffffffffffffffffffffffffffffff\n        /* \"#utility.yul\":3392:3397   */\n      dup3\n        /* \"#utility.yul\":3388:3442   */\n      and\n        /* \"#utility.yul\":3377:3442   */\n      swap1\n      pop\n        /* \"#utility.yul\":3322:3448   */\n      swap2\n      swap1\n      pop\n      jump\t// out\n        /* \"#utility.yul\":3454:3550   */\n    tag_236:\n        /* \"#utility.yul\":3491:3498   */\n      0x00\n        /* \"#utility.yul\":3520:3544   */\n      tag_332\n        /* \"#utility.yul\":3538:3543   */\n      dup3\n        /* \"#utility.yul\":3520:3544   */\n      tag_235\n      jump\t// in\n    tag_332:\n        /* \"#utility.yul\":3509:3544   */\n      swap1\n      pop\n        /* \"#utility.yul\":3454:3550   */\n      swap2\n      swap1\n      pop\n      jump\t// out\n        /* \"#utility.yul\":3556:3678   */\n    tag_237:\n        /* \"#utility.yul\":3629:3653   */\n      tag_334\n        /* \"#utility.yul\":3647:3652   */\n      dup2\n        /* \"#utility.yul\":3629:3653   */\n      tag_236\n      jump\t// in\n    tag_334:\n        /* \"#utility.yul\":3622:3627   */\n      dup2\n        /* \"#utility.yul\":3619:3654   */\n      eq\n        /* \"#utility.yul\":3609:3672   */\n      tag_335\n      jumpi\n        /* \"#utility.yul\":3668:3669   */\n      0x00\n        /* \"#utility.yul\":3665:3666   */\n      dup1\n        /* \"#utility.yul\":3658:3670   */\n      revert\n        /* \"#utility.yul\":3609:3672   */\n    tag_335:\n        /* \"#utility.yul\":3556:3678   */\n      pop\n      jump\t// out\n        /* \"#utility.yul\":3684:3823   */\n    tag_238:\n        /* \"#utility.yul\":3730:3735   */\n      0x00\n        /* \"#utility.yul\":3768:3774   */\n      dup2\n        /* \"#utility.yul\":3755:3775   */\n      calldataload\n        /* \"#utility.yul\":3746:3775   */\n      swap1\n      pop\n        /* \"#utility.yul\":3784:3817   */\n      tag_337\n        /* \"#utility.yul\":3811:3816   */\n      dup2\n        /* \"#utility.yul\":3784:3817   */\n      tag_237\n      jump\t// in\n    tag_337:\n        /* \"#utility.yul\":3684:3823   */\n      swap3\n      swap2\n      pop\n      pop\n      jump\t// out\n        /* \"#utility.yul\":3829:3946   */\n    tag_239:\n        /* \"#utility.yul\":3938:3939   */\n      0x00\n        /* \"#utility.yul\":3935:3936   */\n      dup1\n        /* \"#utility.yul\":3928:3940   */\n      revert\n        /* \"#utility.yul\":3952:4069   */\n    tag_240:\n        /* \"#utility.yul\":4061:4062   */\n      0x00\n        /* \"#utility.yul\":4058:4059   */\n      dup1\n        /* \"#utility.yul\":4051:4063   */\n      revert\n        /* \"#utility.yul\":4075:4255   */\n    tag_128:\n        /* \"#utility.yul\":4123:4200   */\n      0x4e487b7100000000000000000000000000000000000000000000000000000000\n        /* \"#utility.yul\":4120:4121   */\n      0x00\n        /* \"#utility.yul\":4113:4201   */\n      mstore\n        /* \"#utility.yul\":4220:4224   */\n      0x41\n        /* \"#utility.yul\":4217:4218   */\n      0x04\n        /* \"#utility.yul\":4210:4225   */\n      mstore\n        /* \"#utility.yul\":4244:4248   */\n      0x24\n        /* \"#utility.yul\":4241:4242   */\n      0x00\n        /* \"#utility.yul\":4234:4249   */\n      revert\n        /* \"#utility.yul\":4261:4542   */\n    tag_241:\n        /* \"#utility.yul\":4344:4371   */\n      tag_342\n        /* \"#utility.yul\":4366:4370   */\n      dup3\n        /* \"#utility.yul\":4344:4371   */\n      tag_232\n      jump\t// in\n    tag_342:\n        /* \"#utility.yul\":4336:4342   */\n      dup2\n        /* \"#utility.yul\":4332:4372   */\n      add\n        /* \"#utility.yul\":4474:4480   */\n      dup2\n        /* \"#utility.yul\":4462:4472   */\n      dup2\n        /* \"#utility.yul\":4459:4481   */\n      lt\n        /* \"#utility.yul\":4438:4456   */\n      0xffffffffffffffff\n        /* \"#utility.yul\":4426:4436   */\n      dup3\n        /* \"#utility.yul\":4423:4457   */\n      gt\n        /* \"#utility.yul\":4420:4482   */\n      or\n        /* \"#utility.yul\":4417:4505   */\n      iszero\n      tag_343\n      jumpi\n        /* \"#utility.yul\":4485:4503   */\n      tag_344\n      tag_128\n      jump\t// in\n    tag_344:\n        /* \"#utility.yul\":4417:4505   */\n    tag_343:\n        /* \"#utility.yul\":4525:4535   */\n      dup1\n        /* \"#utility.yul\":4521:4523   */\n      0x40\n        /* \"#utility.yul\":4514:4536   */\n      mstore\n        /* \"#utility.yul\":4304:4542   */\n      pop\n        /* \"#utility.yul\":4261:4542   */\n      pop\n      pop\n      jump\t// out\n        /* \"#utility.yul\":4548:4677   */\n    tag_242:\n        /* \"#utility.yul\":4582:4588   */\n      0x00\n        /* \"#utility.yul\":4609:4629   */\n      tag_346\n      tag_223\n      jump\t// in\n    tag_346:\n        /* \"#utility.yul\":4599:4629   */\n      swap1\n      pop\n        /* \"#utility.yul\":4638:4671   */\n      tag_347\n        /* \"#utility.yul\":4666:4670   */\n      dup3\n        /* \"#utility.yul\":4658:4664   */\n      dup3\n        /* \"#utility.yul\":4638:4671   */\n      tag_241\n      jump\t// in\n    tag_347:\n        /* \"#utility.yul\":4548:4677   */\n      swap2\n      swap1\n      pop\n      jump\t// out\n        /* \"#utility.yul\":4683:4991   */\n    tag_243:\n        /* \"#utility.yul\":4745:4749   */\n      0x00\n        /* \"#utility.yul\":4835:4853   */\n      0xffffffffffffffff\n        /* \"#utility.yul\":4827:4833   */\n      dup3\n        /* \"#utility.yul\":4824:4854   */\n      gt\n        /* \"#utility.yul\":4821:4877   */\n      iszero\n      tag_349\n      jumpi\n        /* \"#utility.yul\":4857:4875   */\n      tag_350\n      tag_128\n      jump\t// in\n    tag_350:\n        /* \"#utility.yul\":4821:4877   */\n    tag_349:\n        /* \"#utility.yul\":4895:4924   */\n      tag_351\n        /* \"#utility.yul\":4917:4923   */\n      dup3\n        /* \"#utility.yul\":4895:4924   */\n      tag_232\n      jump\t// in\n    tag_351:\n        /* \"#utility.yul\":4887:4924   */\n      swap1\n      pop\n        /* \"#utility.yul\":4979:4983   */\n      0x20\n        /* \"#utility.yul\":4973:4977   */\n      dup2\n        /* \"#utility.yul\":4969:4984   */\n      add\n        /* \"#utility.yul\":4961:4984   */\n      swap1\n      pop\n        /* \"#utility.yul\":4683:4991   */\n      swap2\n      swap1\n      pop\n      jump\t// out\n        /* \"#utility.yul\":4997:5143   */\n    tag_244:\n        /* \"#utility.yul\":5094:5100   */\n      dup3\n        /* \"#utility.yul\":5089:5092   */\n      dup2\n        /* \"#utility.yul\":5084:5087   */\n      dup4\n        /* \"#utility.yul\":5071:5101   */\n      calldatacopy\n        /* \"#utility.yul\":5135:5136   */\n      0x00\n        /* \"#utility.yul\":5126:5132   */\n      dup4\n        /* \"#utility.yul\":5121:5124   */\n      dup4\n        /* \"#utility.yul\":5117:5133   */\n      add\n        /* \"#utility.yul\":5110:5137   */\n      mstore\n        /* \"#utility.yul\":4997:5143   */\n      pop\n      pop\n      pop\n      jump\t// out\n        /* \"#utility.yul\":5149:5574   */\n    tag_245:\n        /* \"#utility.yul\":5227:5232   */\n      0x00\n        /* \"#utility.yul\":5252:5318   */\n      tag_354\n        /* \"#utility.yul\":5268:5317   */\n      tag_355\n        /* \"#utility.yul\":5310:5316   */\n      dup5\n        /* \"#utility.yul\":5268:5317   */\n      tag_243\n      jump\t// in\n    tag_355:\n        /* \"#utility.yul\":5252:5318   */\n      tag_242\n      jump\t// in\n    tag_354:\n        /* \"#utility.yul\":5243:5318   */\n      swap1\n      pop\n        /* \"#utility.yul\":5341:5347   */\n      dup3\n        /* \"#utility.yul\":5334:5339   */\n      dup2\n        /* \"#utility.yul\":5327:5348   */\n      mstore\n        /* \"#utility.yul\":5379:5383   */\n      0x20\n        /* \"#utility.yul\":5372:5377   */\n      dup2\n        /* \"#utility.yul\":5368:5384   */\n      add\n        /* \"#utility.yul\":5417:5420   */\n      dup5\n        /* \"#utility.yul\":5408:5414   */\n      dup5\n        /* \"#utility.yul\":5403:5406   */\n      dup5\n        /* \"#utility.yul\":5399:5415   */\n      add\n        /* \"#utility.yul\":5396:5421   */\n      gt\n        /* \"#utility.yul\":5393:5505   */\n      iszero\n      tag_356\n      jumpi\n        /* \"#utility.yul\":5424:5503   */\n      tag_357\n      tag_240\n      jump\t// in\n    tag_357:\n        /* \"#utility.yul\":5393:5505   */\n    tag_356:\n        /* \"#utility.yul\":5514:5568   */\n      tag_358\n        /* \"#utility.yul\":5561:5567   */\n      dup5\n        /* \"#utility.yul\":5556:5559   */\n      dup3\n        /* \"#utility.yul\":5551:5554   */\n      dup6\n        /* \"#utility.yul\":5514:5568   */\n      tag_244\n      jump\t// in\n    tag_358:\n        /* \"#utility.yul\":5233:5574   */\n      pop\n        /* \"#utility.yul\":5149:5574   */\n      swap4\n      swap3\n      pop\n      pop\n      pop\n      jump\t// out\n        /* \"#utility.yul\":5594:5934   */\n    tag_246:\n        /* \"#utility.yul\":5650:5655   */\n      0x00\n        /* \"#utility.yul\":5699:5702   */\n      dup3\n        /* \"#utility.yul\":5692:5696   */\n      0x1f\n        /* \"#utility.yul\":5684:5690   */\n      dup4\n        /* \"#utility.yul\":5680:5697   */\n      add\n        /* \"#utility.yul\":5676:5703   */\n      slt\n        /* \"#utility.yul\":5666:5788   */\n      tag_360\n      jumpi\n        /* \"#utility.yul\":5707:5786   */\n      tag_361\n      tag_239\n      jump\t// in\n    tag_361:\n        /* \"#utility.yul\":5666:5788   */\n    tag_360:\n        /* \"#utility.yul\":5824:5830   */\n      dup2\n        /* \"#utility.yul\":5811:5831   */\n      calldataload\n        /* \"#utility.yul\":5849:5928   */\n      tag_362\n        /* \"#utility.yul\":5924:5927   */\n      dup5\n        /* \"#utility.yul\":5916:5922   */\n      dup3\n        /* \"#utility.yul\":5909:5913   */\n      0x20\n        /* \"#utility.yul\":5901:5907   */\n      dup7\n        /* \"#utility.yul\":5897:5914   */\n      add\n        /* \"#utility.yul\":5849:5928   */\n      tag_245\n      jump\t// in\n    tag_362:\n        /* \"#utility.yul\":5840:5928   */\n      swap2\n      pop\n        /* \"#utility.yul\":5656:5934   */\n      pop\n        /* \"#utility.yul\":5594:5934   */\n      swap3\n      swap2\n      pop\n      pop\n      jump\t// out\n        /* \"#utility.yul\":5940:6919   */\n    tag_32:\n        /* \"#utility.yul\":6037:6043   */\n      0x00\n        /* \"#utility.yul\":6045:6051   */\n      dup1\n        /* \"#utility.yul\":6053:6059   */\n      0x00\n        /* \"#utility.yul\":6102:6104   */\n      0x60\n        /* \"#utility.yul\":6090:6099   */\n      dup5\n        /* \"#utility.yul\":6081:6088   */\n      dup7\n        /* \"#utility.yul\":6077:6100   */\n      sub\n        /* \"#utility.yul\":6073:6105   */\n      slt\n        /* \"#utility.yul\":6070:6189   */\n      iszero\n      tag_364\n      jumpi\n        /* \"#utility.yul\":6108:6187   */\n      tag_365\n      tag_224\n      jump\t// in\n    tag_365:\n        /* \"#utility.yul\":6070:6189   */\n    tag_364:\n        /* \"#utility.yul\":6228:6229   */\n      0x00\n        /* \"#utility.yul\":6253:6306   */\n      tag_366\n        /* \"#utility.yul\":6298:6305   */\n      dup7\n        /* \"#utility.yul\":6289:6295   */\n      dup3\n        /* \"#utility.yul\":6278:6287   */\n      dup8\n        /* \"#utility.yul\":6274:6296   */\n      add\n        /* \"#utility.yul\":6253:6306   */\n      tag_238\n      jump\t// in\n    tag_366:\n        /* \"#utility.yul\":6243:6306   */\n      swap4\n      pop\n        /* \"#utility.yul\":6199:6316   */\n      pop\n        /* \"#utility.yul\":6383:6385   */\n      0x20\n        /* \"#utility.yul\":6372:6381   */\n      dup5\n        /* \"#utility.yul\":6368:6386   */\n      add\n        /* \"#utility.yul\":6355:6387   */\n      calldataload\n        /* \"#utility.yul\":6414:6432   */\n      0xffffffffffffffff\n        /* \"#utility.yul\":6406:6412   */\n      dup2\n        /* \"#utility.yul\":6403:6433   */\n      gt\n        /* \"#utility.yul\":6400:6517   */\n      iszero\n      tag_367\n      jumpi\n        /* \"#utility.yul\":6436:6515   */\n      tag_368\n      tag_225\n      jump\t// in\n    tag_368:\n        /* \"#utility.yul\":6400:6517   */\n    tag_367:\n        /* \"#utility.yul\":6541:6604   */\n      tag_369\n        /* \"#utility.yul\":6596:6603   */\n      dup7\n        /* \"#utility.yul\":6587:6593   */\n      dup3\n        /* \"#utility.yul\":6576:6585   */\n      dup8\n        /* \"#utility.yul\":6572:6594   */\n      add\n        /* \"#utility.yul\":6541:6604   */\n      tag_246\n      jump\t// in\n    tag_369:\n        /* \"#utility.yul\":6531:6604   */\n      swap3\n      pop\n        /* \"#utility.yul\":6326:6614   */\n      pop\n        /* \"#utility.yul\":6681:6683   */\n      0x40\n        /* \"#utility.yul\":6670:6679   */\n      dup5\n        /* \"#utility.yul\":6666:6684   */\n      add\n        /* \"#utility.yul\":6653:6685   */\n      calldataload\n        /* \"#utility.yul\":6712:6730   */\n      0xffffffffffffffff\n        /* \"#utility.yul\":6704:6710   */\n      dup2\n        /* \"#utility.yul\":6701:6731   */\n      gt\n        /* \"#utility.yul\":6698:6815   */\n      iszero\n      tag_370\n      jumpi\n        /* \"#utility.yul\":6734:6813   */\n      tag_371\n      tag_225\n      jump\t// in\n    tag_371:\n        /* \"#utility.yul\":6698:6815   */\n    tag_370:\n        /* \"#utility.yul\":6839:6902   */\n      tag_372\n        /* \"#utility.yul\":6894:6901   */\n      dup7\n        /* \"#utility.yul\":6885:6891   */\n      dup3\n        /* \"#utility.yul\":6874:6883   */\n      dup8\n        /* \"#utility.yul\":6870:6892   */\n      add\n        /* \"#utility.yul\":6839:6902   */\n      tag_246\n      jump\t// in\n    tag_372:\n        /* \"#utility.yul\":6829:6902   */\n      swap2\n      pop\n        /* \"#utility.yul\":6624:6912   */\n      pop\n        /* \"#utility.yul\":5940:6919   */\n      swap3\n      pop\n      swap3\n      pop\n      swap3\n      jump\t// out\n        /* \"#utility.yul\":6925:7063   */\n    tag_247:\n        /* \"#utility.yul\":7016:7022   */\n      0x00\n        /* \"#utility.yul\":7050:7055   */\n      dup2\n        /* \"#utility.yul\":7044:7056   */\n      mload\n        /* \"#utility.yul\":7034:7056   */\n      swap1\n      pop\n        /* \"#utility.yul\":6925:7063   */\n      swap2\n      swap1\n      pop\n      jump\t// out\n        /* \"#utility.yul\":7069:7277   */\n    tag_248:\n        /* \"#utility.yul\":7192:7203   */\n      0x00\n        /* \"#utility.yul\":7226:7232   */\n      dup3\n        /* \"#utility.yul\":7221:7224   */\n      dup3\n        /* \"#utility.yul\":7214:7233   */\n      mstore\n        /* \"#utility.yul\":7266:7270   */\n      0x20\n        /* \"#utility.yul\":7261:7264   */\n      dup3\n        /* \"#utility.yul\":7257:7271   */\n      add\n        /* \"#utility.yul\":7242:7271   */\n      swap1\n      pop\n        /* \"#utility.yul\":7069:7277   */\n      swap3\n      swap2\n      pop\n      pop\n      jump\t// out\n        /* \"#utility.yul\":7283:7439   */\n    tag_249:\n        /* \"#utility.yul\":7374:7378   */\n      0x00\n        /* \"#utility.yul\":7397:7400   */\n      dup2\n        /* \"#utility.yul\":7389:7400   */\n      swap1\n      pop\n        /* \"#utility.yul\":7427:7431   */\n      0x20\n        /* \"#utility.yul\":7422:7425   */\n      dup3\n        /* \"#utility.yul\":7418:7432   */\n      add\n        /* \"#utility.yul\":7410:7432   */\n      swap1\n      pop\n        /* \"#utility.yul\":7283:7439   */\n      swap2\n      swap1\n      pop\n      jump\t// out\n        /* \"#utility.yul\":7445:7604   */\n    tag_250:\n        /* \"#utility.yul\":7519:7530   */\n      0x00\n        /* \"#utility.yul\":7553:7559   */\n      dup3\n        /* \"#utility.yul\":7548:7551   */\n      dup3\n        /* \"#utility.yul\":7541:7560   */\n      mstore\n        /* \"#utility.yul\":7593:7597   */\n      0x20\n        /* \"#utility.yul\":7588:7591   */\n      dup3\n        /* \"#utility.yul\":7584:7598   */\n      add\n        /* \"#utility.yul\":7569:7598   */\n      swap1\n      pop\n        /* \"#utility.yul\":7445:7604   */\n      swap3\n      swap2\n      pop\n      pop\n      jump\t// out\n        /* \"#utility.yul\":7610:7967   */\n    tag_251:\n        /* \"#utility.yul\":7688:7691   */\n      0x00\n        /* \"#utility.yul\":7716:7755   */\n      tag_378\n        /* \"#utility.yul\":7749:7754   */\n      dup3\n        /* \"#utility.yul\":7716:7755   */\n      tag_229\n      jump\t// in\n    tag_378:\n        /* \"#utility.yul\":7771:7832   */\n      tag_379\n        /* \"#utility.yul\":7825:7831   */\n      dup2\n        /* \"#utility.yul\":7820:7823   */\n      dup6\n        /* \"#utility.yul\":7771:7832   */\n      tag_250\n      jump\t// in\n    tag_379:\n        /* \"#utility.yul\":7764:7832   */\n      swap4\n      pop\n        /* \"#utility.yul\":7841:7906   */\n      tag_380\n        /* \"#utility.yul\":7899:7905   */\n      dup2\n        /* \"#utility.yul\":7894:7897   */\n      dup6\n        /* \"#utility.yul\":7887:7891   */\n      0x20\n        /* \"#utility.yul\":7880:7885   */\n      dup7\n        /* \"#utility.yul\":7876:7892   */\n      add\n        /* \"#utility.yul\":7841:7906   */\n      tag_231\n      jump\t// in\n    tag_380:\n        /* \"#utility.yul\":7931:7960   */\n      tag_381\n        /* \"#utility.yul\":7953:7959   */\n      dup2\n        /* \"#utility.yul\":7931:7960   */\n      tag_232\n      jump\t// in\n    tag_381:\n        /* \"#utility.yul\":7926:7929   */\n      dup5\n        /* \"#utility.yul\":7922:7961   */\n      add\n        /* \"#utility.yul\":7915:7961   */\n      swap2\n      pop\n        /* \"#utility.yul\":7692:7967   */\n      pop\n        /* \"#utility.yul\":7610:7967   */\n      swap3\n      swap2\n      pop\n      pop\n      jump\t// out\n        /* \"#utility.yul\":7973:8081   */\n    tag_252:\n        /* \"#utility.yul\":8050:8074   */\n      tag_383\n        /* \"#utility.yul\":8068:8073   */\n      dup2\n        /* \"#utility.yul\":8050:8074   */\n      tag_226\n      jump\t// in\n    tag_383:\n        /* \"#utility.yul\":8045:8048   */\n      dup3\n        /* \"#utility.yul\":8038:8075   */\n      mstore\n        /* \"#utility.yul\":7973:8081   */\n      pop\n      pop\n      jump\t// out\n        /* \"#utility.yul\":8151:8998   */\n    tag_253:\n        /* \"#utility.yul\":8258:8261   */\n      0x00\n        /* \"#utility.yul\":8294:8298   */\n      0x60\n        /* \"#utility.yul\":8289:8292   */\n      dup4\n        /* \"#utility.yul\":8285:8299   */\n      add\n        /* \"#utility.yul\":8381:8385   */\n      0x00\n        /* \"#utility.yul\":8374:8379   */\n      dup4\n        /* \"#utility.yul\":8370:8386   */\n      add\n        /* \"#utility.yul\":8364:8387   */\n      mload\n        /* \"#utility.yul\":8434:8437   */\n      dup5\n        /* \"#utility.yul\":8428:8432   */\n      dup3\n        /* \"#utility.yul\":8424:8438   */\n      sub\n        /* \"#utility.yul\":8417:8421   */\n      0x00\n        /* \"#utility.yul\":8412:8415   */\n      dup7\n        /* \"#utility.yul\":8408:8422   */\n      add\n        /* \"#utility.yul\":8401:8439   */\n      mstore\n        /* \"#utility.yul\":8460:8533   */\n      tag_385\n        /* \"#utility.yul\":8528:8532   */\n      dup3\n        /* \"#utility.yul\":8514:8526   */\n      dup3\n        /* \"#utility.yul\":8460:8533   */\n      tag_251\n      jump\t// in\n    tag_385:\n        /* \"#utility.yul\":8452:8533   */\n      swap2\n      pop\n        /* \"#utility.yul\":8309:8544   */\n      pop\n        /* \"#utility.yul\":8627:8631   */\n      0x20\n        /* \"#utility.yul\":8620:8625   */\n      dup4\n        /* \"#utility.yul\":8616:8632   */\n      add\n        /* \"#utility.yul\":8610:8633   */\n      mload\n        /* \"#utility.yul\":8680:8683   */\n      dup5\n        /* \"#utility.yul\":8674:8678   */\n      dup3\n        /* \"#utility.yul\":8670:8684   */\n      sub\n        /* \"#utility.yul\":8663:8667   */\n      0x20\n        /* \"#utility.yul\":8658:8661   */\n      dup7\n        /* \"#utility.yul\":8654:8668   */\n      add\n        /* \"#utility.yul\":8647:8685   */\n      mstore\n        /* \"#utility.yul\":8706:8779   */\n      tag_386\n        /* \"#utility.yul\":8774:8778   */\n      dup3\n        /* \"#utility.yul\":8760:8772   */\n      dup3\n        /* \"#utility.yul\":8706:8779   */\n      tag_251\n      jump\t// in\n    tag_386:\n        /* \"#utility.yul\":8698:8779   */\n      swap2\n      pop\n        /* \"#utility.yul\":8554:8790   */\n      pop\n        /* \"#utility.yul\":8879:8883   */\n      0x40\n        /* \"#utility.yul\":8872:8877   */\n      dup4\n        /* \"#utility.yul\":8868:8884   */\n      add\n        /* \"#utility.yul\":8862:8885   */\n      mload\n        /* \"#utility.yul\":8898:8961   */\n      tag_387\n        /* \"#utility.yul\":8955:8959   */\n      0x40\n        /* \"#utility.yul\":8950:8953   */\n      dup7\n        /* \"#utility.yul\":8946:8960   */\n      add\n        /* \"#utility.yul\":8932:8944   */\n      dup3\n        /* \"#utility.yul\":8898:8961   */\n      tag_252\n      jump\t// in\n    tag_387:\n        /* \"#utility.yul\":8800:8971   */\n      pop\n        /* \"#utility.yul\":8988:8992   */\n      dup1\n        /* \"#utility.yul\":8981:8992   */\n      swap2\n      pop\n        /* \"#utility.yul\":8263:8998   */\n      pop\n        /* \"#utility.yul\":8151:8998   */\n      swap3\n      swap2\n      pop\n      pop\n      jump\t// out\n        /* \"#utility.yul\":9004:9256   */\n    tag_254:\n        /* \"#utility.yul\":9121:9131   */\n      0x00\n        /* \"#utility.yul\":9156:9250   */\n      tag_389\n        /* \"#utility.yul\":9246:9249   */\n      dup4\n        /* \"#utility.yul\":9238:9244   */\n      dup4\n        /* \"#utility.yul\":9156:9250   */\n      tag_253\n      jump\t// in\n    tag_389:\n        /* \"#utility.yul\":9142:9250   */\n      swap1\n      pop\n        /* \"#utility.yul\":9004:9256   */\n      swap3\n      swap2\n      pop\n      pop\n      jump\t// out\n        /* \"#utility.yul\":9262:9399   */\n    tag_255:\n        /* \"#utility.yul\":9356:9360   */\n      0x00\n        /* \"#utility.yul\":9388:9392   */\n      0x20\n        /* \"#utility.yul\":9383:9386   */\n      dup3\n        /* \"#utility.yul\":9379:9393   */\n      add\n        /* \"#utility.yul\":9371:9393   */\n      swap1\n      pop\n        /* \"#utility.yul\":9262:9399   */\n      swap2\n      swap1\n      pop\n      jump\t// out\n        /* \"#utility.yul\":9473:10576   */\n    tag_256:\n        /* \"#utility.yul\":9640:9643   */\n      0x00\n        /* \"#utility.yul\":9669:9747   */\n      tag_392\n        /* \"#utility.yul\":9741:9746   */\n      dup3\n        /* \"#utility.yul\":9669:9747   */\n      tag_247\n      jump\t// in\n    tag_392:\n        /* \"#utility.yul\":9763:9873   */\n      tag_393\n        /* \"#utility.yul\":9866:9872   */\n      dup2\n        /* \"#utility.yul\":9861:9864   */\n      dup6\n        /* \"#utility.yul\":9763:9873   */\n      tag_248\n      jump\t// in\n    tag_393:\n        /* \"#utility.yul\":9756:9873   */\n      swap4\n      pop\n        /* \"#utility.yul\":9899:9902   */\n      dup4\n        /* \"#utility.yul\":9944:9948   */\n      0x20\n        /* \"#utility.yul\":9936:9942   */\n      dup3\n        /* \"#utility.yul\":9932:9949   */\n      mul\n        /* \"#utility.yul\":9927:9930   */\n      dup6\n        /* \"#utility.yul\":9923:9950   */\n      add\n        /* \"#utility.yul\":9974:10054   */\n      tag_394\n        /* \"#utility.yul\":10048:10053   */\n      dup6\n        /* \"#utility.yul\":9974:10054   */\n      tag_249\n      jump\t// in\n    tag_394:\n        /* \"#utility.yul\":10077:10084   */\n      dup1\n        /* \"#utility.yul\":10108:10109   */\n      0x00\n        /* \"#utility.yul\":10093:10531   */\n    tag_395:\n        /* \"#utility.yul\":10118:10124   */\n      dup6\n        /* \"#utility.yul\":10115:10116   */\n      dup2\n        /* \"#utility.yul\":10112:10125   */\n      lt\n        /* \"#utility.yul\":10093:10531   */\n      iszero\n      tag_397\n      jumpi\n        /* \"#utility.yul\":10189:10198   */\n      dup5\n        /* \"#utility.yul\":10183:10187   */\n      dup5\n        /* \"#utility.yul\":10179:10199   */\n      sub\n        /* \"#utility.yul\":10174:10177   */\n      dup10\n        /* \"#utility.yul\":10167:10200   */\n      mstore\n        /* \"#utility.yul\":10240:10246   */\n      dup2\n        /* \"#utility.yul\":10234:10247   */\n      mload\n        /* \"#utility.yul\":10268:10380   */\n      tag_398\n        /* \"#utility.yul\":10375:10379   */\n      dup6\n        /* \"#utility.yul\":10360:10373   */\n      dup3\n        /* \"#utility.yul\":10268:10380   */\n      tag_254\n      jump\t// in\n    tag_398:\n        /* \"#utility.yul\":10260:10380   */\n      swap5\n      pop\n        /* \"#utility.yul\":10403:10487   */\n      tag_399\n        /* \"#utility.yul\":10480:10486   */\n      dup4\n        /* \"#utility.yul\":10403:10487   */\n      tag_255\n      jump\t// in\n    tag_399:\n        /* \"#utility.yul\":10393:10487   */\n      swap3\n      pop\n        /* \"#utility.yul\":10516:10520   */\n      0x20\n        /* \"#utility.yul\":10511:10514   */\n      dup11\n        /* \"#utility.yul\":10507:10521   */\n      add\n        /* \"#utility.yul\":10500:10521   */\n      swap10\n      pop\n        /* \"#utility.yul\":10153:10531   */\n      pop\n        /* \"#utility.yul\":10140:10141   */\n      0x01\n        /* \"#utility.yul\":10137:10138   */\n      dup2\n        /* \"#utility.yul\":10133:10142   */\n      add\n        /* \"#utility.yul\":10128:10142   */\n      swap1\n      pop\n        /* \"#utility.yul\":10093:10531   */\n      jump(tag_395)\n    tag_397:\n        /* \"#utility.yul\":10097:10111   */\n      pop\n        /* \"#utility.yul\":10547:10551   */\n      dup3\n        /* \"#utility.yul\":10540:10551   */\n      swap8\n      pop\n        /* \"#utility.yul\":10567:10570   */\n      dup8\n        /* \"#utility.yul\":10560:10570   */\n      swap6\n      pop\n        /* \"#utility.yul\":9645:10576   */\n      pop\n      pop\n      pop\n      pop\n      pop\n        /* \"#utility.yul\":9473:10576   */\n      swap3\n      swap2\n      pop\n      pop\n      jump\t// out\n        /* \"#utility.yul\":10582:11051   */\n    tag_37:\n        /* \"#utility.yul\":10773:10777   */\n      0x00\n        /* \"#utility.yul\":10811:10813   */\n      0x20\n        /* \"#utility.yul\":10800:10809   */\n      dup3\n        /* \"#utility.yul\":10796:10814   */\n      add\n        /* \"#utility.yul\":10788:10814   */\n      swap1\n      pop\n        /* \"#utility.yul\":10860:10869   */\n      dup2\n        /* \"#utility.yul\":10854:10858   */\n      dup2\n        /* \"#utility.yul\":10850:10870   */\n      sub\n        /* \"#utility.yul\":10846:10847   */\n      0x00\n        /* \"#utility.yul\":10835:10844   */\n      dup4\n        /* \"#utility.yul\":10831:10848   */\n      add\n        /* \"#utility.yul\":10824:10871   */\n      mstore\n        /* \"#utility.yul\":10888:11044   */\n      tag_401\n        /* \"#utility.yul\":11039:11043   */\n      dup2\n        /* \"#utility.yul\":11030:11036   */\n      dup5\n        /* \"#utility.yul\":10888:11044   */\n      tag_256\n      jump\t// in\n    tag_401:\n        /* \"#utility.yul\":10880:11044   */\n      swap1\n      pop\n        /* \"#utility.yul\":10582:11051   */\n      swap3\n      swap2\n      pop\n      pop\n      jump\t// out\n        /* \"#utility.yul\":11057:11891   */\n    tag_40:\n        /* \"#utility.yul\":11145:11151   */\n      0x00\n        /* \"#utility.yul\":11153:11159   */\n      dup1\n        /* \"#utility.yul\":11202:11204   */\n      0x40\n        /* \"#utility.yul\":11190:11199   */\n      dup4\n        /* \"#utility.yul\":11181:11188   */\n      dup6\n        /* \"#utility.yul\":11177:11200   */\n      sub\n        /* \"#utility.yul\":11173:11205   */\n      slt\n        /* \"#utility.yul\":11170:11289   */\n      iszero\n      tag_403\n      jumpi\n        /* \"#utility.yul\":11208:11287   */\n      tag_404\n      tag_224\n      jump\t// in\n    tag_404:\n        /* \"#utility.yul\":11170:11289   */\n    tag_403:\n        /* \"#utility.yul\":11356:11357   */\n      0x00\n        /* \"#utility.yul\":11345:11354   */\n      dup4\n        /* \"#utility.yul\":11341:11358   */\n      add\n        /* \"#utility.yul\":11328:11359   */\n      calldataload\n        /* \"#utility.yul\":11386:11404   */\n      0xffffffffffffffff\n        /* \"#utility.yul\":11378:11384   */\n      dup2\n        /* \"#utility.yul\":11375:11405   */\n      gt\n        /* \"#utility.yul\":11372:11489   */\n      iszero\n      tag_405\n      jumpi\n        /* \"#utility.yul\":11408:11487   */\n      tag_406\n      tag_225\n      jump\t// in\n    tag_406:\n        /* \"#utility.yul\":11372:11489   */\n    tag_405:\n        /* \"#utility.yul\":11513:11576   */\n      tag_407\n        /* \"#utility.yul\":11568:11575   */\n      dup6\n        /* \"#utility.yul\":11559:11565   */\n      dup3\n        /* \"#utility.yul\":11548:11557   */\n      dup7\n        /* \"#utility.yul\":11544:11566   */\n      add\n        /* \"#utility.yul\":11513:11576   */\n      tag_246\n      jump\t// in\n    tag_407:\n        /* \"#utility.yul\":11503:11576   */\n      swap3\n      pop\n        /* \"#utility.yul\":11299:11586   */\n      pop\n        /* \"#utility.yul\":11653:11655   */\n      0x20\n        /* \"#utility.yul\":11642:11651   */\n      dup4\n        /* \"#utility.yul\":11638:11656   */\n      add\n        /* \"#utility.yul\":11625:11657   */\n      calldataload\n        /* \"#utility.yul\":11684:11702   */\n      0xffffffffffffffff\n        /* \"#utility.yul\":11676:11682   */\n      dup2\n        /* \"#utility.yul\":11673:11703   */\n      gt\n        /* \"#utility.yul\":11670:11787   */\n      iszero\n      tag_408\n      jumpi\n        /* \"#utility.yul\":11706:11785   */\n      tag_409\n      tag_225\n      jump\t// in\n    tag_409:\n        /* \"#utility.yul\":11670:11787   */\n    tag_408:\n        /* \"#utility.yul\":11811:11874   */\n      tag_410\n        /* \"#utility.yul\":11866:11873   */\n      dup6\n        /* \"#utility.yul\":11857:11863   */\n      dup3\n        /* \"#utility.yul\":11846:11855   */\n      dup7\n        /* \"#utility.yul\":11842:11864   */\n      add\n        /* \"#utility.yul\":11811:11874   */\n      tag_246\n      jump\t// in\n    tag_410:\n        /* \"#utility.yul\":11801:11874   */\n      swap2\n      pop\n        /* \"#utility.yul\":11596:11884   */\n      pop\n        /* \"#utility.yul\":11057:11891   */\n      swap3\n      pop\n      swap3\n      swap1\n      pop\n      jump\t// out\n        /* \"#utility.yul\":11897:12030   */\n    tag_257:\n        /* \"#utility.yul\":11983:11989   */\n      0x00\n        /* \"#utility.yul\":12017:12022   */\n      dup2\n        /* \"#utility.yul\":12011:12023   */\n      mload\n        /* \"#utility.yul\":12001:12023   */\n      swap1\n      pop\n        /* \"#utility.yul\":11897:12030   */\n      swap2\n      swap1\n      pop\n      jump\t// out\n        /* \"#utility.yul\":12036:12239   */\n    tag_258:\n        /* \"#utility.yul\":12154:12165   */\n      0x00\n        /* \"#utility.yul\":12188:12194   */\n      dup3\n        /* \"#utility.yul\":12183:12186   */\n      dup3\n        /* \"#utility.yul\":12176:12195   */\n      mstore\n        /* \"#utility.yul\":12228:12232   */\n      0x20\n        /* \"#utility.yul\":12223:12226   */\n      dup3\n        /* \"#utility.yul\":12219:12233   */\n      add\n        /* \"#utility.yul\":12204:12233   */\n      swap1\n      pop\n        /* \"#utility.yul\":12036:12239   */\n      swap3\n      swap2\n      pop\n      pop\n      jump\t// out\n        /* \"#utility.yul\":12245:12396   */\n    tag_259:\n        /* \"#utility.yul\":12331:12335   */\n      0x00\n        /* \"#utility.yul\":12354:12357   */\n      dup2\n        /* \"#utility.yul\":12346:12357   */\n      swap1\n      pop\n        /* \"#utility.yul\":12384:12388   */\n      0x20\n        /* \"#utility.yul\":12379:12382   */\n      dup3\n        /* \"#utility.yul\":12375:12389   */\n      add\n        /* \"#utility.yul\":12367:12389   */\n      swap1\n      pop\n        /* \"#utility.yul\":12245:12396   */\n      swap2\n      swap1\n      pop\n      jump\t// out\n        /* \"#utility.yul\":12454:13117   */\n    tag_260:\n        /* \"#utility.yul\":12551:12554   */\n      0x00\n        /* \"#utility.yul\":12587:12591   */\n      0x40\n        /* \"#utility.yul\":12582:12585   */\n      dup4\n        /* \"#utility.yul\":12578:12592   */\n      add\n        /* \"#utility.yul\":12675:12679   */\n      0x00\n        /* \"#utility.yul\":12668:12673   */\n      dup4\n        /* \"#utility.yul\":12664:12680   */\n      add\n        /* \"#utility.yul\":12658:12681   */\n      mload\n        /* \"#utility.yul\":12728:12731   */\n      dup5\n        /* \"#utility.yul\":12722:12726   */\n      dup3\n        /* \"#utility.yul\":12718:12732   */\n      sub\n        /* \"#utility.yul\":12711:12715   */\n      0x00\n        /* \"#utility.yul\":12706:12709   */\n      dup7\n        /* \"#utility.yul\":12702:12716   */\n      add\n        /* \"#utility.yul\":12695:12733   */\n      mstore\n        /* \"#utility.yul\":12754:12827   */\n      tag_415\n        /* \"#utility.yul\":12822:12826   */\n      dup3\n        /* \"#utility.yul\":12808:12820   */\n      dup3\n        /* \"#utility.yul\":12754:12827   */\n      tag_251\n      jump\t// in\n    tag_415:\n        /* \"#utility.yul\":12746:12827   */\n      swap2\n      pop\n        /* \"#utility.yul\":12602:12838   */\n      pop\n        /* \"#utility.yul\":12927:12931   */\n      0x20\n        /* \"#utility.yul\":12920:12925   */\n      dup4\n        /* \"#utility.yul\":12916:12932   */\n      add\n        /* \"#utility.yul\":12910:12933   */\n      mload\n        /* \"#utility.yul\":12980:12983   */\n      dup5\n        /* \"#utility.yul\":12974:12978   */\n      dup3\n        /* \"#utility.yul\":12970:12984   */\n      sub\n        /* \"#utility.yul\":12963:12967   */\n      0x20\n        /* \"#utility.yul\":12958:12961   */\n      dup7\n        /* \"#utility.yul\":12954:12968   */\n      add\n        /* \"#utility.yul\":12947:12985   */\n      mstore\n        /* \"#utility.yul\":13006:13079   */\n      tag_416\n        /* \"#utility.yul\":13074:13078   */\n      dup3\n        /* \"#utility.yul\":13060:13072   */\n      dup3\n        /* \"#utility.yul\":13006:13079   */\n      tag_251\n      jump\t// in\n    tag_416:\n        /* \"#utility.yul\":12998:13079   */\n      swap2\n      pop\n        /* \"#utility.yul\":12848:13090   */\n      pop\n        /* \"#utility.yul\":13107:13111   */\n      dup1\n        /* \"#utility.yul\":13100:13111   */\n      swap2\n      pop\n        /* \"#utility.yul\":12556:13117   */\n      pop\n        /* \"#utility.yul\":12454:13117   */\n      swap3\n      swap2\n      pop\n      pop\n      jump\t// out\n        /* \"#utility.yul\":13123:13355   */\n    tag_261:\n        /* \"#utility.yul\":13230:13240   */\n      0x00\n        /* \"#utility.yul\":13265:13349   */\n      tag_418\n        /* \"#utility.yul\":13345:13348   */\n      dup4\n        /* \"#utility.yul\":13337:13343   */\n      dup4\n        /* \"#utility.yul\":13265:13349   */\n      tag_260\n      jump\t// in\n    tag_418:\n        /* \"#utility.yul\":13251:13349   */\n      swap1\n      pop\n        /* \"#utility.yul\":13123:13355   */\n      swap3\n      swap2\n      pop\n      pop\n      jump\t// out\n        /* \"#utility.yul\":13361:13493   */\n    tag_262:\n        /* \"#utility.yul\":13450:13454   */\n      0x00\n        /* \"#utility.yul\":13482:13486   */\n      0x20\n        /* \"#utility.yul\":13477:13480   */\n      dup3\n        /* \"#utility.yul\":13473:13487   */\n      add\n        /* \"#utility.yul\":13465:13487   */\n      swap1\n      pop\n        /* \"#utility.yul\":13361:13493   */\n      swap2\n      swap1\n      pop\n      jump\t// out\n        /* \"#utility.yul\":13555:14618   */\n    tag_263:\n        /* \"#utility.yul\":13712:13715   */\n      0x00\n        /* \"#utility.yul\":13741:13814   */\n      tag_421\n        /* \"#utility.yul\":13808:13813   */\n      dup3\n        /* \"#utility.yul\":13741:13814   */\n      tag_257\n      jump\t// in\n    tag_421:\n        /* \"#utility.yul\":13830:13935   */\n      tag_422\n        /* \"#utility.yul\":13928:13934   */\n      dup2\n        /* \"#utility.yul\":13923:13926   */\n      dup6\n        /* \"#utility.yul\":13830:13935   */\n      tag_258\n      jump\t// in\n    tag_422:\n        /* \"#utility.yul\":13823:13935   */\n      swap4\n      pop\n        /* \"#utility.yul\":13961:13964   */\n      dup4\n        /* \"#utility.yul\":14006:14010   */\n      0x20\n        /* \"#utility.yul\":13998:14004   */\n      dup3\n        /* \"#utility.yul\":13994:14011   */\n      mul\n        /* \"#utility.yul\":13989:13992   */\n      dup6\n        /* \"#utility.yul\":13985:14012   */\n      add\n        /* \"#utility.yul\":14036:14111   */\n      tag_423\n        /* \"#utility.yul\":14105:14110   */\n      dup6\n        /* \"#utility.yul\":14036:14111   */\n      tag_259\n      jump\t// in\n    tag_423:\n        /* \"#utility.yul\":14134:14141   */\n      dup1\n        /* \"#utility.yul\":14165:14166   */\n      0x00\n        /* \"#utility.yul\":14150:14573   */\n    tag_424:\n        /* \"#utility.yul\":14175:14181   */\n      dup6\n        /* \"#utility.yul\":14172:14173   */\n      dup2\n        /* \"#utility.yul\":14169:14182   */\n      lt\n        /* \"#utility.yul\":14150:14573   */\n      iszero\n      tag_426\n      jumpi\n        /* \"#utility.yul\":14246:14255   */\n      dup5\n        /* \"#utility.yul\":14240:14244   */\n      dup5\n        /* \"#utility.yul\":14236:14256   */\n      sub\n        /* \"#utility.yul\":14231:14234   */\n      dup10\n        /* \"#utility.yul\":14224:14257   */\n      mstore\n        /* \"#utility.yul\":14297:14303   */\n      dup2\n        /* \"#utility.yul\":14291:14304   */\n      mload\n        /* \"#utility.yul\":14325:14427   */\n      tag_427\n        /* \"#utility.yul\":14422:14426   */\n      dup6\n        /* \"#utility.yul\":14407:14420   */\n      dup3\n        /* \"#utility.yul\":14325:14427   */\n      tag_261\n      jump\t// in\n    tag_427:\n        /* \"#utility.yul\":14317:14427   */\n      swap5\n      pop\n        /* \"#utility.yul\":14450:14529   */\n      tag_428\n        /* \"#utility.yul\":14522:14528   */\n      dup4\n        /* \"#utility.yul\":14450:14529   */\n      tag_262\n      jump\t// in\n    tag_428:\n        /* \"#utility.yul\":14440:14529   */\n      swap3\n      pop\n        /* \"#utility.yul\":14558:14562   */\n      0x20\n        /* \"#utility.yul\":14553:14556   */\n      dup11\n        /* \"#utility.yul\":14549:14563   */\n      add\n        /* \"#utility.yul\":14542:14563   */\n      swap10\n      pop\n        /* \"#utility.yul\":14210:14573   */\n      pop\n        /* \"#utility.yul\":14197:14198   */\n      0x01\n        /* \"#utility.yul\":14194:14195   */\n      dup2\n        /* \"#utility.yul\":14190:14199   */\n      add\n        /* \"#utility.yul\":14185:14199   */\n      swap1\n      pop\n        /* \"#utility.yul\":14150:14573   */\n      jump(tag_424)\n    tag_426:\n        /* \"#utility.yul\":14154:14168   */\n      pop\n        /* \"#utility.yul\":14589:14593   */\n      dup3\n        /* \"#utility.yul\":14582:14593   */\n      swap8\n      pop\n        /* \"#utility.yul\":14609:14612   */\n      dup8\n        /* \"#utility.yul\":14602:14612   */\n      swap6\n      pop\n        /* \"#utility.yul\":13717:14618   */\n      pop\n      pop\n      pop\n      pop\n      pop\n        /* \"#utility.yul\":13555:14618   */\n      swap3\n      swap2\n      pop\n      pop\n      jump\t// out\n        /* \"#utility.yul\":14624:15073   */\n    tag_45:\n        /* \"#utility.yul\":14805:14809   */\n      0x00\n        /* \"#utility.yul\":14843:14845   */\n      0x20\n        /* \"#utility.yul\":14832:14841   */\n      dup3\n        /* \"#utility.yul\":14828:14846   */\n      add\n        /* \"#utility.yul\":14820:14846   */\n      swap1\n      pop\n        /* \"#utility.yul\":14892:14901   */\n      dup2\n        /* \"#utility.yul\":14886:14890   */\n      dup2\n        /* \"#utility.yul\":14882:14902   */\n      sub\n        /* \"#utility.yul\":14878:14879   */\n      0x00\n        /* \"#utility.yul\":14867:14876   */\n      dup4\n        /* \"#utility.yul\":14863:14880   */\n      add\n        /* \"#utility.yul\":14856:14903   */\n      mstore\n        /* \"#utility.yul\":14920:15066   */\n      tag_430\n        /* \"#utility.yul\":15061:15065   */\n      dup2\n        /* \"#utility.yul\":15052:15058   */\n      dup5\n        /* \"#utility.yul\":14920:15066   */\n      tag_263\n      jump\t// in\n    tag_430:\n        /* \"#utility.yul\":14912:15066   */\n      swap1\n      pop\n        /* \"#utility.yul\":14624:15073   */\n      swap3\n      swap2\n      pop\n      pop\n      jump\t// out\n        /* \"#utility.yul\":15079:15197   */\n    tag_264:\n        /* \"#utility.yul\":15166:15190   */\n      tag_432\n        /* \"#utility.yul\":15184:15189   */\n      dup2\n        /* \"#utility.yul\":15166:15190   */\n      tag_236\n      jump\t// in\n    tag_432:\n        /* \"#utility.yul\":15161:15164   */\n      dup3\n        /* \"#utility.yul\":15154:15191   */\n      mstore\n        /* \"#utility.yul\":15079:15197   */\n      pop\n      pop\n      jump\t// out\n        /* \"#utility.yul\":15203:15425   */\n    tag_50:\n        /* \"#utility.yul\":15296:15300   */\n      0x00\n        /* \"#utility.yul\":15334:15336   */\n      0x20\n        /* \"#utility.yul\":15323:15332   */\n      dup3\n        /* \"#utility.yul\":15319:15337   */\n      add\n        /* \"#utility.yul\":15311:15337   */\n      swap1\n      pop\n        /* \"#utility.yul\":15347:15418   */\n      tag_434\n        /* \"#utility.yul\":15415:15416   */\n      0x00\n        /* \"#utility.yul\":15404:15413   */\n      dup4\n        /* \"#utility.yul\":15400:15417   */\n      add\n        /* \"#utility.yul\":15391:15397   */\n      dup5\n        /* \"#utility.yul\":15347:15418   */\n      tag_264\n      jump\t// in\n    tag_434:\n        /* \"#utility.yul\":15203:15425   */\n      swap3\n      swap2\n      pop\n      pop\n      jump\t// out\n        /* \"#utility.yul\":15431:15653   */\n    tag_54:\n        /* \"#utility.yul\":15524:15528   */\n      0x00\n        /* \"#utility.yul\":15562:15564   */\n      0x20\n        /* \"#utility.yul\":15551:15560   */\n      dup3\n        /* \"#utility.yul\":15547:15565   */\n      add\n        /* \"#utility.yul\":15539:15565   */\n      swap1\n      pop\n        /* \"#utility.yul\":15575:15646   */\n      tag_436\n        /* \"#utility.yul\":15643:15644   */\n      0x00\n        /* \"#utility.yul\":15632:15641   */\n      dup4\n        /* \"#utility.yul\":15628:15645   */\n      add\n        /* \"#utility.yul\":15619:15625   */\n      dup5\n        /* \"#utility.yul\":15575:15646   */\n      tag_234\n      jump\t// in\n    tag_436:\n        /* \"#utility.yul\":15431:15653   */\n      swap3\n      swap2\n      pop\n      pop\n      jump\t// out\n        /* \"#utility.yul\":15659:15988   */\n    tag_57:\n        /* \"#utility.yul\":15718:15724   */\n      0x00\n        /* \"#utility.yul\":15767:15769   */\n      0x20\n        /* \"#utility.yul\":15755:15764   */\n      dup3\n        /* \"#utility.yul\":15746:15753   */\n      dup5\n        /* \"#utility.yul\":15742:15765   */\n      sub\n        /* \"#utility.yul\":15738:15770   */\n      slt\n        /* \"#utility.yul\":15735:15854   */\n      iszero\n      tag_438\n      jumpi\n        /* \"#utility.yul\":15773:15852   */\n      tag_439\n      tag_224\n      jump\t// in\n    tag_439:\n        /* \"#utility.yul\":15735:15854   */\n    tag_438:\n        /* \"#utility.yul\":15893:15894   */\n      0x00\n        /* \"#utility.yul\":15918:15971   */\n      tag_440\n        /* \"#utility.yul\":15963:15970   */\n      dup5\n        /* \"#utility.yul\":15954:15960   */\n      dup3\n        /* \"#utility.yul\":15943:15952   */\n      dup6\n        /* \"#utility.yul\":15939:15961   */\n      add\n        /* \"#utility.yul\":15918:15971   */\n      tag_238\n      jump\t// in\n    tag_440:\n        /* \"#utility.yul\":15908:15971   */\n      swap2\n      pop\n        /* \"#utility.yul\":15864:15981   */\n      pop\n        /* \"#utility.yul\":15659:15988   */\n      swap3\n      swap2\n      pop\n      pop\n      jump\t// out\n        /* \"#utility.yul\":15994:16618   */\n    tag_60:\n        /* \"#utility.yul\":16183:16187   */\n      0x00\n        /* \"#utility.yul\":16221:16223   */\n      0x60\n        /* \"#utility.yul\":16210:16219   */\n      dup3\n        /* \"#utility.yul\":16206:16224   */\n      add\n        /* \"#utility.yul\":16198:16224   */\n      swap1\n      pop\n        /* \"#utility.yul\":16270:16279   */\n      dup2\n        /* \"#utility.yul\":16264:16268   */\n      dup2\n        /* \"#utility.yul\":16260:16280   */\n      sub\n        /* \"#utility.yul\":16256:16257   */\n      0x00\n        /* \"#utility.yul\":16245:16254   */\n      dup4\n        /* \"#utility.yul\":16241:16258   */\n      add\n        /* \"#utility.yul\":16234:16281   */\n      mstore\n        /* \"#utility.yul\":16298:16376   */\n      tag_442\n        /* \"#utility.yul\":16371:16375   */\n      dup2\n        /* \"#utility.yul\":16362:16368   */\n      dup7\n        /* \"#utility.yul\":16298:16376   */\n      tag_233\n      jump\t// in\n    tag_442:\n        /* \"#utility.yul\":16290:16376   */\n      swap1\n      pop\n        /* \"#utility.yul\":16423:16432   */\n      dup2\n        /* \"#utility.yul\":16417:16421   */\n      dup2\n        /* \"#utility.yul\":16413:16433   */\n      sub\n        /* \"#utility.yul\":16408:16410   */\n      0x20\n        /* \"#utility.yul\":16397:16406   */\n      dup4\n        /* \"#utility.yul\":16393:16411   */\n      add\n        /* \"#utility.yul\":16386:16434   */\n      mstore\n        /* \"#utility.yul\":16451:16529   */\n      tag_443\n        /* \"#utility.yul\":16524:16528   */\n      dup2\n        /* \"#utility.yul\":16515:16521   */\n      dup6\n        /* \"#utility.yul\":16451:16529   */\n      tag_233\n      jump\t// in\n    tag_443:\n        /* \"#utility.yul\":16443:16529   */\n      swap1\n      pop\n        /* \"#utility.yul\":16539:16611   */\n      tag_444\n        /* \"#utility.yul\":16607:16609   */\n      0x40\n        /* \"#utility.yul\":16596:16605   */\n      dup4\n        /* \"#utility.yul\":16592:16610   */\n      add\n        /* \"#utility.yul\":16583:16589   */\n      dup5\n        /* \"#utility.yul\":16539:16611   */\n      tag_234\n      jump\t// in\n    tag_444:\n        /* \"#utility.yul\":15994:16618   */\n      swap5\n      swap4\n      pop\n      pop\n      pop\n      pop\n      jump\t// out\n        /* \"#utility.yul\":16624:16804   */\n    tag_265:\n        /* \"#utility.yul\":16672:16749   */\n      0x4e487b7100000000000000000000000000000000000000000000000000000000\n        /* \"#utility.yul\":16669:16670   */\n      0x00\n        /* \"#utility.yul\":16662:16750   */\n      mstore\n        /* \"#utility.yul\":16769:16773   */\n      0x22\n        /* \"#utility.yul\":16766:16767   */\n      0x04\n        /* \"#utility.yul\":16759:16774   */\n      mstore\n        /* \"#utility.yul\":16793:16797   */\n      0x24\n        /* \"#utility.yul\":16790:16791   */\n      0x00\n        /* \"#utility.yul\":16783:16798   */\n      revert\n        /* \"#utility.yul\":16810:17130   */\n    tag_71:\n        /* \"#utility.yul\":16854:16860   */\n      0x00\n        /* \"#utility.yul\":16891:16892   */\n      0x02\n        /* \"#utility.yul\":16885:16889   */\n      dup3\n        /* \"#utility.yul\":16881:16893   */\n      div\n        /* \"#utility.yul\":16871:16893   */\n      swap1\n      pop\n        /* \"#utility.yul\":16938:16939   */\n      0x01\n        /* \"#utility.yul\":16932:16936   */\n      dup3\n        /* \"#utility.yul\":16928:16940   */\n      and\n        /* \"#utility.yul\":16959:16977   */\n      dup1\n        /* \"#utility.yul\":16949:17030   */\n      tag_447\n      jumpi\n        /* \"#utility.yul\":17015:17019   */\n      0x7f\n        /* \"#utility.yul\":17007:17013   */\n      dup3\n        /* \"#utility.yul\":17003:17020   */\n      and\n        /* \"#utility.yul\":16993:17020   */\n      swap2\n      pop\n        /* \"#utility.yul\":16949:17030   */\n    tag_447:\n        /* \"#utility.yul\":17077:17079   */\n      0x20\n        /* \"#utility.yul\":17069:17075   */\n      dup3\n        /* \"#utility.yul\":17066:17080   */\n      lt\n        /* \"#utility.yul\":17046:17064   */\n      dup2\n        /* \"#utility.yul\":17043:17081   */\n      sub\n        /* \"#utility.yul\":17040:17124   */\n      tag_448\n      jumpi\n        /* \"#utility.yul\":17096:17114   */\n      tag_449\n      tag_265\n      jump\t// in\n    tag_449:\n        /* \"#utility.yul\":17040:17124   */\n    tag_448:\n        /* \"#utility.yul\":16861:17130   */\n      pop\n        /* \"#utility.yul\":16810:17130   */\n      swap2\n      swap1\n      pop\n      jump\t// out\n        /* \"#utility.yul\":17136:17300   */\n    tag_266:\n        /* \"#utility.yul\":17276:17292   */\n      0x496e76616c6964206a6f62204944000000000000000000000000000000000000\n        /* \"#utility.yul\":17272:17273   */\n      0x00\n        /* \"#utility.yul\":17264:17270   */\n      dup3\n        /* \"#utility.yul\":17260:17274   */\n      add\n        /* \"#utility.yul\":17253:17293   */\n      mstore\n        /* \"#utility.yul\":17136:17300   */\n      pop\n      jump\t// out\n        /* \"#utility.yul\":17306:17672   */\n    tag_267:\n        /* \"#utility.yul\":17448:17451   */\n      0x00\n        /* \"#utility.yul\":17469:17536   */\n      tag_452\n        /* \"#utility.yul\":17533:17535   */\n      0x0e\n        /* \"#utility.yul\":17528:17531   */\n      dup4\n        /* \"#utility.yul\":17469:17536   */\n      tag_230\n      jump\t// in\n    tag_452:\n        /* \"#utility.yul\":17462:17536   */\n      swap2\n      pop\n        /* \"#utility.yul\":17545:17638   */\n      tag_453\n        /* \"#utility.yul\":17634:17637   */\n      dup3\n        /* \"#utility.yul\":17545:17638   */\n      tag_266\n      jump\t// in\n    tag_453:\n        /* \"#utility.yul\":17663:17665   */\n      0x20\n        /* \"#utility.yul\":17658:17661   */\n      dup3\n        /* \"#utility.yul\":17654:17666   */\n      add\n        /* \"#utility.yul\":17647:17666   */\n      swap1\n      pop\n        /* \"#utility.yul\":17306:17672   */\n      swap2\n      swap1\n      pop\n      jump\t// out\n        /* \"#utility.yul\":17678:18097   */\n    tag_85:\n        /* \"#utility.yul\":17844:17848   */\n      0x00\n        /* \"#utility.yul\":17882:17884   */\n      0x20\n        /* \"#utility.yul\":17871:17880   */\n      dup3\n        /* \"#utility.yul\":17867:17885   */\n      add\n        /* \"#utility.yul\":17859:17885   */\n      swap1\n      pop\n        /* \"#utility.yul\":17931:17940   */\n      dup2\n        /* \"#utility.yul\":17925:17929   */\n      dup2\n        /* \"#utility.yul\":17921:17941   */\n      sub\n        /* \"#utility.yul\":17917:17918   */\n      0x00\n        /* \"#utility.yul\":17906:17915   */\n      dup4\n        /* \"#utility.yul\":17902:17919   */\n      add\n        /* \"#utility.yul\":17895:17942   */\n      mstore\n        /* \"#utility.yul\":17959:18090   */\n      tag_455\n        /* \"#utility.yul\":18085:18089   */\n      dup2\n        /* \"#utility.yul\":17959:18090   */\n      tag_267\n      jump\t// in\n    tag_455:\n        /* \"#utility.yul\":17951:18090   */\n      swap1\n      pop\n        /* \"#utility.yul\":17678:18097   */\n      swap2\n      swap1\n      pop\n      jump\t// out\n        /* \"#utility.yul\":18103:18283   */\n    tag_88:\n        /* \"#utility.yul\":18151:18228   */\n      0x4e487b7100000000000000000000000000000000000000000000000000000000\n        /* \"#utility.yul\":18148:18149   */\n      0x00\n        /* \"#utility.yul\":18141:18229   */\n      mstore\n        /* \"#utility.yul\":18248:18252   */\n      0x32\n        /* \"#utility.yul\":18245:18246   */\n      0x04\n        /* \"#utility.yul\":18238:18253   */\n      mstore\n        /* \"#utility.yul\":18272:18276   */\n      0x24\n        /* \"#utility.yul\":18269:18270   */\n      0x00\n        /* \"#utility.yul\":18262:18277   */\n      revert\n        /* \"#utility.yul\":18289:18514   */\n    tag_268:\n        /* \"#utility.yul\":18429:18463   */\n      0x4f6e6c79207468652061646d696e2063616e20706572666f726d207468697320\n        /* \"#utility.yul\":18425:18426   */\n      0x00\n        /* \"#utility.yul\":18417:18423   */\n      dup3\n        /* \"#utility.yul\":18413:18427   */\n      add\n        /* \"#utility.yul\":18406:18464   */\n      mstore\n        /* \"#utility.yul\":18498:18506   */\n      0x616374696f6e0000000000000000000000000000000000000000000000000000\n        /* \"#utility.yul\":18493:18495   */\n      0x20\n        /* \"#utility.yul\":18485:18491   */\n      dup3\n        /* \"#utility.yul\":18481:18496   */\n      add\n        /* \"#utility.yul\":18474:18507   */\n      mstore\n        /* \"#utility.yul\":18289:18514   */\n      pop\n      jump\t// out\n        /* \"#utility.yul\":18520:18886   */\n    tag_269:\n        /* \"#utility.yul\":18662:18665   */\n      0x00\n        /* \"#utility.yul\":18683:18750   */\n      tag_459\n        /* \"#utility.yul\":18747:18749   */\n      0x26\n        /* \"#utility.yul\":18742:18745   */\n      dup4\n        /* \"#utility.yul\":18683:18750   */\n      tag_230\n      jump\t// in\n    tag_459:\n        /* \"#utility.yul\":18676:18750   */\n      swap2\n      pop\n        /* \"#utility.yul\":18759:18852   */\n      tag_460\n        /* \"#utility.yul\":18848:18851   */\n      dup3\n        /* \"#utility.yul\":18759:18852   */\n      tag_268\n      jump\t// in\n    tag_460:\n        /* \"#utility.yul\":18877:18879   */\n      0x40\n        /* \"#utility.yul\":18872:18875   */\n      dup3\n        /* \"#utility.yul\":18868:18880   */\n      add\n        /* \"#utility.yul\":18861:18880   */\n      swap1\n      pop\n        /* \"#utility.yul\":18520:18886   */\n      swap2\n      swap1\n      pop\n      jump\t// out\n        /* \"#utility.yul\":18892:19311   */\n    tag_103:\n        /* \"#utility.yul\":19058:19062   */\n      0x00\n        /* \"#utility.yul\":19096:19098   */\n      0x20\n        /* \"#utility.yul\":19085:19094   */\n      dup3\n        /* \"#utility.yul\":19081:19099   */\n      add\n        /* \"#utility.yul\":19073:19099   */\n      swap1\n      pop\n        /* \"#utility.yul\":19145:19154   */\n      dup2\n        /* \"#utility.yul\":19139:19143   */\n      dup2\n        /* \"#utility.yul\":19135:19155   */\n      sub\n        /* \"#utility.yul\":19131:19132   */\n      0x00\n        /* \"#utility.yul\":19120:19129   */\n      dup4\n        /* \"#utility.yul\":19116:19133   */\n      add\n        /* \"#utility.yul\":19109:19156   */\n      mstore\n        /* \"#utility.yul\":19173:19304   */\n      tag_462\n        /* \"#utility.yul\":19299:19303   */\n      dup2\n        /* \"#utility.yul\":19173:19304   */\n      tag_269\n      jump\t// in\n    tag_462:\n        /* \"#utility.yul\":19165:19304   */\n      swap1\n      pop\n        /* \"#utility.yul\":18892:19311   */\n      swap2\n      swap1\n      pop\n      jump\t// out\n        /* \"#utility.yul\":19317:19553   */\n    tag_270:\n        /* \"#utility.yul\":19457:19491   */\n      0x4170706c6963616e7420776974682073616d6520616464726573732069732061\n        /* \"#utility.yul\":19453:19454   */\n      0x00\n        /* \"#utility.yul\":19445:19451   */\n      dup3\n        /* \"#utility.yul\":19441:19455   */\n      add\n        /* \"#utility.yul\":19434:19492   */\n      mstore\n        /* \"#utility.yul\":19526:19545   */\n      0x6c72656164792072656769737465726564000000000000000000000000000000\n        /* \"#utility.yul\":19521:19523   */\n      0x20\n        /* \"#utility.yul\":19513:19519   */\n      dup3\n        /* \"#utility.yul\":19509:19524   */\n      add\n        /* \"#utility.yul\":19502:19546   */\n      mstore\n        /* \"#utility.yul\":19317:19553   */\n      pop\n      jump\t// out\n        /* \"#utility.yul\":19559:19925   */\n    tag_271:\n        /* \"#utility.yul\":19701:19704   */\n      0x00\n        /* \"#utility.yul\":19722:19789   */\n      tag_465\n        /* \"#utility.yul\":19786:19788   */\n      0x31\n        /* \"#utility.yul\":19781:19784   */\n      dup4\n        /* \"#utility.yul\":19722:19789   */\n      tag_230\n      jump\t// in\n    tag_465:\n        /* \"#utility.yul\":19715:19789   */\n      swap2\n      pop\n        /* \"#utility.yul\":19798:19891   */\n      tag_466\n        /* \"#utility.yul\":19887:19890   */\n      dup3\n        /* \"#utility.yul\":19798:19891   */\n      tag_270\n      jump\t// in\n    tag_466:\n        /* \"#utility.yul\":19916:19918   */\n      0x40\n        /* \"#utility.yul\":19911:19914   */\n      dup3\n        /* \"#utility.yul\":19907:19919   */\n      add\n        /* \"#utility.yul\":19900:19919   */\n      swap1\n      pop\n        /* \"#utility.yul\":19559:19925   */\n      swap2\n      swap1\n      pop\n      jump\t// out\n        /* \"#utility.yul\":19931:20350   */\n    tag_113:\n        /* \"#utility.yul\":20097:20101   */\n      0x00\n        /* \"#utility.yul\":20135:20137   */\n      0x20\n        /* \"#utility.yul\":20124:20133   */\n      dup3\n        /* \"#utility.yul\":20120:20138   */\n      add\n        /* \"#utility.yul\":20112:20138   */\n      swap1\n      pop\n        /* \"#utility.yul\":20184:20193   */\n      dup2\n        /* \"#utility.yul\":20178:20182   */\n      dup2\n        /* \"#utility.yul\":20174:20194   */\n      sub\n        /* \"#utility.yul\":20170:20171   */\n      0x00\n        /* \"#utility.yul\":20159:20168   */\n      dup4\n        /* \"#utility.yul\":20155:20172   */\n      add\n        /* \"#utility.yul\":20148:20195   */\n      mstore\n        /* \"#utility.yul\":20212:20343   */\n      tag_468\n        /* \"#utility.yul\":20338:20342   */\n      dup2\n        /* \"#utility.yul\":20212:20343   */\n      tag_271\n      jump\t// in\n    tag_468:\n        /* \"#utility.yul\":20204:20343   */\n      swap1\n      pop\n        /* \"#utility.yul\":19931:20350   */\n      swap2\n      swap1\n      pop\n      jump\t// out\n        /* \"#utility.yul\":20356:20503   */\n    tag_272:\n        /* \"#utility.yul\":20457:20468   */\n      0x00\n        /* \"#utility.yul\":20494:20497   */\n      dup2\n        /* \"#utility.yul\":20479:20497   */\n      swap1\n      pop\n        /* \"#utility.yul\":20356:20503   */\n      swap3\n      swap2\n      pop\n      pop\n      jump\t// out\n        /* \"#utility.yul\":20509:20653   */\n    tag_273:\n        /* \"#utility.yul\":20561:20565   */\n      0x00\n        /* \"#utility.yul\":20584:20587   */\n      dup2\n        /* \"#utility.yul\":20576:20587   */\n      swap1\n      pop\n        /* \"#utility.yul\":20607:20610   */\n      dup2\n        /* \"#utility.yul\":20604:20605   */\n      0x00\n        /* \"#utility.yul\":20597:20611   */\n      mstore\n        /* \"#utility.yul\":20641:20645   */\n      0x20\n        /* \"#utility.yul\":20638:20639   */\n      0x00\n        /* \"#utility.yul\":20628:20646   */\n      keccak256\n        /* \"#utility.yul\":20620:20646   */\n      swap1\n      pop\n        /* \"#utility.yul\":20509:20653   */\n      swap2\n      swap1\n      pop\n      jump\t// out\n        /* \"#utility.yul\":20681:21559   */\n    tag_274:\n        /* \"#utility.yul\":20786:20789   */\n      0x00\n        /* \"#utility.yul\":20823:20828   */\n      dup2\n        /* \"#utility.yul\":20817:20829   */\n      sload\n        /* \"#utility.yul\":20852:20888   */\n      tag_472\n        /* \"#utility.yul\":20878:20887   */\n      dup2\n        /* \"#utility.yul\":20852:20888   */\n      tag_71\n      jump\t// in\n    tag_472:\n        /* \"#utility.yul\":20904:20992   */\n      tag_473\n        /* \"#utility.yul\":20985:20991   */\n      dup2\n        /* \"#utility.yul\":20980:20983   */\n      dup7\n        /* \"#utility.yul\":20904:20992   */\n      tag_272\n      jump\t// in\n    tag_473:\n        /* \"#utility.yul\":20897:20992   */\n      swap5\n      pop\n        /* \"#utility.yul\":21023:21024   */\n      0x01\n        /* \"#utility.yul\":21012:21021   */\n      dup3\n        /* \"#utility.yul\":21008:21025   */\n      and\n        /* \"#utility.yul\":21039:21040   */\n      0x00\n        /* \"#utility.yul\":21034:21200   */\n      dup2\n      eq\n      tag_475\n      jumpi\n        /* \"#utility.yul\":21214:21215   */\n      0x01\n        /* \"#utility.yul\":21209:21553   */\n      dup2\n      eq\n      tag_476\n      jumpi\n        /* \"#utility.yul\":21001:21553   */\n      jump(tag_474)\n        /* \"#utility.yul\":21034:21200   */\n    tag_475:\n        /* \"#utility.yul\":21118:21122   */\n      0xff\n        /* \"#utility.yul\":21114:21123   */\n      not\n        /* \"#utility.yul\":21103:21112   */\n      dup4\n        /* \"#utility.yul\":21099:21124   */\n      and\n        /* \"#utility.yul\":21094:21097   */\n      dup7\n        /* \"#utility.yul\":21087:21125   */\n      mstore\n        /* \"#utility.yul\":21180:21186   */\n      dup2\n        /* \"#utility.yul\":21173:21187   */\n      iszero\n        /* \"#utility.yul\":21166:21188   */\n      iszero\n        /* \"#utility.yul\":21158:21164   */\n      dup3\n        /* \"#utility.yul\":21154:21189   */\n      mul\n        /* \"#utility.yul\":21149:21152   */\n      dup7\n        /* \"#utility.yul\":21145:21190   */\n      add\n        /* \"#utility.yul\":21138:21190   */\n      swap4\n      pop\n        /* \"#utility.yul\":21034:21200   */\n      jump(tag_474)\n        /* \"#utility.yul\":21209:21553   */\n    tag_476:\n        /* \"#utility.yul\":21276:21317   */\n      tag_477\n        /* \"#utility.yul\":21311:21316   */\n      dup6\n        /* \"#utility.yul\":21276:21317   */\n      tag_273\n      jump\t// in\n    tag_477:\n        /* \"#utility.yul\":21339:21340   */\n      0x00\n        /* \"#utility.yul\":21353:21507   */\n    tag_478:\n        /* \"#utility.yul\":21367:21373   */\n      dup4\n        /* \"#utility.yul\":21364:21365   */\n      dup2\n        /* \"#utility.yul\":21361:21374   */\n      lt\n        /* \"#utility.yul\":21353:21507   */\n      iszero\n      tag_480\n      jumpi\n        /* \"#utility.yul\":21441:21448   */\n      dup2\n        /* \"#utility.yul\":21435:21449   */\n      sload\n        /* \"#utility.yul\":21431:21432   */\n      dup2\n        /* \"#utility.yul\":21426:21429   */\n      dup10\n        /* \"#utility.yul\":21422:21433   */\n      add\n        /* \"#utility.yul\":21415:21450   */\n      mstore\n        /* \"#utility.yul\":21491:21492   */\n      0x01\n        /* \"#utility.yul\":21482:21489   */\n      dup3\n        /* \"#utility.yul\":21478:21493   */\n      add\n        /* \"#utility.yul\":21467:21493   */\n      swap2\n      pop\n        /* \"#utility.yul\":21389:21393   */\n      0x20\n        /* \"#utility.yul\":21386:21387   */\n      dup2\n        /* \"#utility.yul\":21382:21394   */\n      add\n        /* \"#utility.yul\":21377:21394   */\n      swap1\n      pop\n        /* \"#utility.yul\":21353:21507   */\n      jump(tag_478)\n    tag_480:\n        /* \"#utility.yul\":21536:21542   */\n      dup4\n        /* \"#utility.yul\":21531:21534   */\n      dup9\n        /* \"#utility.yul\":21527:21543   */\n      add\n        /* \"#utility.yul\":21520:21543   */\n      swap6\n      pop\n        /* \"#utility.yul\":21216:21553   */\n      pop\n      pop\n        /* \"#utility.yul\":21001:21553   */\n    tag_474:\n      pop\n        /* \"#utility.yul\":20790:21559   */\n      pop\n      pop\n        /* \"#utility.yul\":20681:21559   */\n      swap3\n      swap2\n      pop\n      pop\n      jump\t// out\n        /* \"#utility.yul\":21565:21838   */\n    tag_115:\n        /* \"#utility.yul\":21696:21699   */\n      0x00\n        /* \"#utility.yul\":21718:21812   */\n      tag_482\n        /* \"#utility.yul\":21808:21811   */\n      dup3\n        /* \"#utility.yul\":21799:21805   */\n      dup5\n        /* \"#utility.yul\":21718:21812   */\n      tag_274\n      jump\t// in\n    tag_482:\n        /* \"#utility.yul\":21711:21812   */\n      swap2\n      pop\n        /* \"#utility.yul\":21829:21832   */\n      dup2\n        /* \"#utility.yul\":21822:21832   */\n      swap1\n      pop\n        /* \"#utility.yul\":21565:21838   */\n      swap3\n      swap2\n      pop\n      pop\n      jump\t// out\n        /* \"#utility.yul\":21844:22022   */\n    tag_275:\n        /* \"#utility.yul\":21984:22014   */\n      0x4170706c6963616e7420697320616c72656164792070726573656e7400000000\n        /* \"#utility.yul\":21980:21981   */\n      0x00\n        /* \"#utility.yul\":21972:21978   */\n      dup3\n        /* \"#utility.yul\":21968:21982   */\n      add\n        /* \"#utility.yul\":21961:22015   */\n      mstore\n        /* \"#utility.yul\":21844:22022   */\n      pop\n      jump\t// out\n        /* \"#utility.yul\":22028:22394   */\n    tag_276:\n        /* \"#utility.yul\":22170:22173   */\n      0x00\n        /* \"#utility.yul\":22191:22258   */\n      tag_485\n        /* \"#utility.yul\":22255:22257   */\n      0x1c\n        /* \"#utility.yul\":22250:22253   */\n      dup4\n        /* \"#utility.yul\":22191:22258   */\n      tag_230\n      jump\t// in\n    tag_485:\n        /* \"#utility.yul\":22184:22258   */\n      swap2\n      pop\n        /* \"#utility.yul\":22267:22360   */\n      tag_486\n        /* \"#utility.yul\":22356:22359   */\n      dup3\n        /* \"#utility.yul\":22267:22360   */\n      tag_275\n      jump\t// in\n    tag_486:\n        /* \"#utility.yul\":22385:22387   */\n      0x20\n        /* \"#utility.yul\":22380:22383   */\n      dup3\n        /* \"#utility.yul\":22376:22388   */\n      add\n        /* \"#utility.yul\":22369:22388   */\n      swap1\n      pop\n        /* \"#utility.yul\":22028:22394   */\n      swap2\n      swap1\n      pop\n      jump\t// out\n        /* \"#utility.yul\":22400:22819   */\n    tag_118:\n        /* \"#utility.yul\":22566:22570   */\n      0x00\n        /* \"#utility.yul\":22604:22606   */\n      0x20\n        /* \"#utility.yul\":22593:22602   */\n      dup3\n        /* \"#utility.yul\":22589:22607   */\n      add\n        /* \"#utility.yul\":22581:22607   */\n      swap1\n      pop\n        /* \"#utility.yul\":22653:22662   */\n      dup2\n        /* \"#utility.yul\":22647:22651   */\n      dup2\n        /* \"#utility.yul\":22643:22663   */\n      sub\n        /* \"#utility.yul\":22639:22640   */\n      0x00\n        /* \"#utility.yul\":22628:22637   */\n      dup4\n        /* \"#utility.yul\":22624:22641   */\n      add\n        /* \"#utility.yul\":22617:22664   */\n      mstore\n        /* \"#utility.yul\":22681:22812   */\n      tag_488\n        /* \"#utility.yul\":22807:22811   */\n      dup2\n        /* \"#utility.yul\":22681:22812   */\n      tag_276\n      jump\t// in\n    tag_488:\n        /* \"#utility.yul\":22673:22812   */\n      swap1\n      pop\n        /* \"#utility.yul\":22400:22819   */\n      swap2\n      swap1\n      pop\n      jump\t// out\n        /* \"#utility.yul\":22825:23005   */\n    tag_277:\n        /* \"#utility.yul\":22873:22950   */\n      0x4e487b7100000000000000000000000000000000000000000000000000000000\n        /* \"#utility.yul\":22870:22871   */\n      0x00\n        /* \"#utility.yul\":22863:22951   */\n      mstore\n        /* \"#utility.yul\":22970:22974   */\n      0x11\n        /* \"#utility.yul\":22967:22968   */\n      0x04\n        /* \"#utility.yul\":22960:22975   */\n      mstore\n        /* \"#utility.yul\":22994:22998   */\n      0x24\n        /* \"#utility.yul\":22991:22992   */\n      0x00\n        /* \"#utility.yul\":22984:22999   */\n      revert\n        /* \"#utility.yul\":23011:23244   */\n    tag_120:\n        /* \"#utility.yul\":23050:23053   */\n      0x00\n        /* \"#utility.yul\":23073:23097   */\n      tag_491\n        /* \"#utility.yul\":23091:23096   */\n      dup3\n        /* \"#utility.yul\":23073:23097   */\n      tag_226\n      jump\t// in\n    tag_491:\n        /* \"#utility.yul\":23064:23097   */\n      swap2\n      pop\n        /* \"#utility.yul\":23119:23185   */\n      0xffffffffffffffffffffffffffffffffffffffffffffffffffffffffffffffff\n        /* \"#utility.yul\":23112:23117   */\n      dup3\n        /* \"#utility.yul\":23109:23186   */\n      sub\n        /* \"#utility.yul\":23106:23209   */\n      tag_492\n      jumpi\n        /* \"#utility.yul\":23189:23207   */\n      tag_493\n      tag_277\n      jump\t// in\n    tag_493:\n        /* \"#utility.yul\":23106:23209   */\n    tag_492:\n        /* \"#utility.yul\":23236:23237   */\n      0x01\n        /* \"#utility.yul\":23229:23234   */\n      dup3\n        /* \"#utility.yul\":23225:23238   */\n      add\n        /* \"#utility.yul\":23218:23238   */\n      swap1\n      pop\n        /* \"#utility.yul\":23011:23244   */\n      swap2\n      swap1\n      pop\n      jump\t// out\n        /* \"#utility.yul\":23250:23391   */\n    tag_278:\n        /* \"#utility.yul\":23299:23303   */\n      0x00\n        /* \"#utility.yul\":23322:23325   */\n      dup2\n        /* \"#utility.yul\":23314:23325   */\n      swap1\n      pop\n        /* \"#utility.yul\":23345:23348   */\n      dup2\n        /* \"#utility.yul\":23342:23343   */\n      0x00\n        /* \"#utility.yul\":23335:23349   */\n      mstore\n        /* \"#utility.yul\":23379:23383   */\n      0x20\n        /* \"#utility.yul\":23376:23377   */\n      0x00\n        /* \"#utility.yul\":23366:23384   */\n      keccak256\n        /* \"#utility.yul\":23358:23384   */\n      swap1\n      pop\n        /* \"#utility.yul\":23250:23391   */\n      swap2\n      swap1\n      pop\n      jump\t// out\n        /* \"#utility.yul\":23397:23490   */\n    tag_279:\n        /* \"#utility.yul\":23434:23440   */\n      0x00\n        /* \"#utility.yul\":23481:23483   */\n      0x20\n        /* \"#utility.yul\":23476:23478   */\n      0x1f\n        /* \"#utility.yul\":23469:23474   */\n      dup4\n        /* \"#utility.yul\":23465:23479   */\n      add\n        /* \"#utility.yul\":23461:23484   */\n      div\n        /* \"#utility.yul\":23451:23484   */\n      swap1\n      pop\n        /* \"#utility.yul\":23397:23490   */\n      swap2\n      swap1\n      pop\n      jump\t// out\n        /* \"#utility.yul\":23496:23603   */\n    tag_280:\n        /* \"#utility.yul\":23540:23548   */\n      0x00\n        /* \"#utility.yul\":23590:23595   */\n      dup3\n        /* \"#utility.yul\":23584:23588   */\n      dup3\n        /* \"#utility.yul\":23580:23596   */\n      shl\n        /* \"#utility.yul\":23559:23596   */\n      swap1\n      pop\n        /* \"#utility.yul\":23496:23603   */\n      swap3\n      swap2\n      pop\n      pop\n      jump\t// out\n        /* \"#utility.yul\":23609:24002   */\n    tag_281:\n        /* \"#utility.yul\":23678:23684   */\n      0x00\n        /* \"#utility.yul\":23728:23729   */\n      0x08\n        /* \"#utility.yul\":23716:23726   */\n      dup4\n        /* \"#utility.yul\":23712:23730   */\n      mul\n        /* \"#utility.yul\":23751:23848   */\n      tag_498\n        /* \"#utility.yul\":23781:23847   */\n      0xffffffffffffffffffffffffffffffffffffffffffffffffffffffffffffffff\n        /* \"#utility.yul\":23770:23779   */\n      dup3\n        /* \"#utility.yul\":23751:23848   */\n      tag_280\n      jump\t// in\n    tag_498:\n        /* \"#utility.yul\":23869:23908   */\n      tag_499\n        /* \"#utility.yul\":23899:23907   */\n      dup7\n        /* \"#utility.yul\":23888:23897   */\n      dup4\n        /* \"#utility.yul\":23869:23908   */\n      tag_280\n      jump\t// in\n    tag_499:\n        /* \"#utility.yul\":23857:23908   */\n      swap6\n      pop\n        /* \"#utility.yul\":23941:23945   */\n      dup1\n        /* \"#utility.yul\":23937:23946   */\n      not\n        /* \"#utility.yul\":23930:23935   */\n      dup5\n        /* \"#utility.yul\":23926:23947   */\n      and\n        /* \"#utility.yul\":23917:23947   */\n      swap4\n      pop\n        /* \"#utility.yul\":23990:23994   */\n      dup1\n        /* \"#utility.yul\":23980:23988   */\n      dup7\n        /* \"#utility.yul\":23976:23995   */\n      and\n        /* \"#utility.yul\":23969:23974   */\n      dup5\n        /* \"#utility.yul\":23966:23996   */\n      or\n        /* \"#utility.yul\":23956:23996   */\n      swap3\n      pop\n        /* \"#utility.yul\":23685:24002   */\n      pop\n      pop\n        /* \"#utility.yul\":23609:24002   */\n      swap4\n      swap3\n      pop\n      pop\n      pop\n      jump\t// out\n        /* \"#utility.yul\":24008:24068   */\n    tag_282:\n        /* \"#utility.yul\":24036:24039   */\n      0x00\n        /* \"#utility.yul\":24057:24062   */\n      dup2\n        /* \"#utility.yul\":24050:24062   */\n      swap1\n      pop\n        /* \"#utility.yul\":24008:24068   */\n      swap2\n      swap1\n      pop\n      jump\t// out\n        /* \"#utility.yul\":24074:24216   */\n    tag_283:\n        /* \"#utility.yul\":24124:24133   */\n      0x00\n        /* \"#utility.yul\":24157:24210   */\n      tag_502\n        /* \"#utility.yul\":24175:24209   */\n      tag_503\n        /* \"#utility.yul\":24184:24208   */\n      tag_504\n        /* \"#utility.yul\":24202:24207   */\n      dup5\n        /* \"#utility.yul\":24184:24208   */\n      tag_226\n      jump\t// in\n    tag_504:\n        /* \"#utility.yul\":24175:24209   */\n      tag_282\n      jump\t// in\n    tag_503:\n        /* \"#utility.yul\":24157:24210   */\n      tag_226\n      jump\t// in\n    tag_502:\n        /* \"#utility.yul\":24144:24210   */\n      swap1\n      pop\n        /* \"#utility.yul\":24074:24216   */\n      swap2\n      swap1\n      pop\n      jump\t// out\n        /* \"#utility.yul\":24222:24297   */\n    tag_284:\n        /* \"#utility.yul\":24265:24268   */\n      0x00\n        /* \"#utility.yul\":24286:24291   */\n      dup2\n        /* \"#utility.yul\":24279:24291   */\n      swap1\n      pop\n        /* \"#utility.yul\":24222:24297   */\n      swap2\n      swap1\n      pop\n      jump\t// out\n        /* \"#utility.yul\":24303:24572   */\n    tag_285:\n        /* \"#utility.yul\":24413:24452   */\n      tag_507\n        /* \"#utility.yul\":24444:24451   */\n      dup4\n        /* \"#utility.yul\":24413:24452   */\n      tag_283\n      jump\t// in\n    tag_507:\n        /* \"#utility.yul\":24474:24565   */\n      tag_508\n        /* \"#utility.yul\":24523:24564   */\n      tag_509\n        /* \"#utility.yul\":24547:24563   */\n      dup3\n        /* \"#utility.yul\":24523:24564   */\n      tag_284\n      jump\t// in\n    tag_509:\n        /* \"#utility.yul\":24515:24521   */\n      dup5\n        /* \"#utility.yul\":24508:24512   */\n      dup5\n        /* \"#utility.yul\":24502:24513   */\n      sload\n        /* \"#utility.yul\":24474:24565   */\n      tag_281\n      jump\t// in\n    tag_508:\n        /* \"#utility.yul\":24468:24472   */\n      dup3\n        /* \"#utility.yul\":24461:24566   */\n      sstore\n        /* \"#utility.yul\":24379:24572   */\n      pop\n        /* \"#utility.yul\":24303:24572   */\n      pop\n      pop\n      pop\n      jump\t// out\n        /* \"#utility.yul\":24578:24651   */\n    tag_286:\n        /* \"#utility.yul\":24623:24626   */\n      0x00\n        /* \"#utility.yul\":24578:24651   */\n      swap1\n      jump\t// out\n        /* \"#utility.yul\":24657:24846   */\n    tag_287:\n        /* \"#utility.yul\":24734:24766   */\n      tag_512\n      tag_286\n      jump\t// in\n    tag_512:\n        /* \"#utility.yul\":24775:24840   */\n      tag_513\n        /* \"#utility.yul\":24833:24839   */\n      dup2\n        /* \"#utility.yul\":24825:24831   */\n      dup5\n        /* \"#utility.yul\":24819:24823   */\n      dup5\n        /* \"#utility.yul\":24775:24840   */\n      tag_285\n      jump\t// in\n    tag_513:\n        /* \"#utility.yul\":24710:24846   */\n      pop\n        /* \"#utility.yul\":24657:24846   */\n      pop\n      pop\n      jump\t// out\n        /* \"#utility.yul\":24852:25038   */\n    tag_288:\n        /* \"#utility.yul\":24912:25032   */\n    tag_515:\n        /* \"#utility.yul\":24929:24932   */\n      dup2\n        /* \"#utility.yul\":24922:24927   */\n      dup2\n        /* \"#utility.yul\":24919:24933   */\n      lt\n        /* \"#utility.yul\":24912:25032   */\n      iszero\n      tag_517\n      jumpi\n        /* \"#utility.yul\":24983:25022   */\n      tag_518\n        /* \"#utility.yul\":25020:25021   */\n      0x00\n        /* \"#utility.yul\":25013:25018   */\n      dup3\n        /* \"#utility.yul\":24983:25022   */\n      tag_287\n      jump\t// in\n    tag_518:\n        /* \"#utility.yul\":24956:24957   */\n      0x01\n        /* \"#utility.yul\":24949:24954   */\n      dup2\n        /* \"#utility.yul\":24945:24958   */\n      add\n        /* \"#utility.yul\":24936:24958   */\n      swap1\n      pop\n        /* \"#utility.yul\":24912:25032   */\n      jump(tag_515)\n    tag_517:\n        /* \"#utility.yul\":24852:25038   */\n      pop\n      pop\n      jump\t// out\n        /* \"#utility.yul\":25044:25587   */\n    tag_289:\n        /* \"#utility.yul\":25145:25147   */\n      0x1f\n        /* \"#utility.yul\":25140:25143   */\n      dup3\n        /* \"#utility.yul\":25137:25148   */\n      gt\n        /* \"#utility.yul\":25134:25580   */\n      iszero\n      tag_520\n      jumpi\n        /* \"#utility.yul\":25179:25217   */\n      tag_521\n        /* \"#utility.yul\":25211:25216   */\n      dup2\n        /* \"#utility.yul\":25179:25217   */\n      tag_278\n      jump\t// in\n    tag_521:\n        /* \"#utility.yul\":25263:25292   */\n      tag_522\n        /* \"#utility.yul\":25281:25291   */\n      dup5\n        /* \"#utility.yul\":25263:25292   */\n      tag_279\n      jump\t// in\n    tag_522:\n        /* \"#utility.yul\":25253:25261   */\n      dup2\n        /* \"#utility.yul\":25249:25293   */\n      add\n        /* \"#utility.yul\":25446:25448   */\n      0x20\n        /* \"#utility.yul\":25434:25444   */\n      dup6\n        /* \"#utility.yul\":25431:25449   */\n      lt\n        /* \"#utility.yul\":25428:25477   */\n      iszero\n      tag_523\n      jumpi\n        /* \"#utility.yul\":25467:25475   */\n      dup2\n        /* \"#utility.yul\":25452:25475   */\n      swap1\n      pop\n        /* \"#utility.yul\":25428:25477   */\n    tag_523:\n        /* \"#utility.yul\":25490:25570   */\n      tag_524\n        /* \"#utility.yul\":25546:25568   */\n      tag_525\n        /* \"#utility.yul\":25564:25567   */\n      dup6\n        /* \"#utility.yul\":25546:25568   */\n      tag_279\n      jump\t// in\n    tag_525:\n        /* \"#utility.yul\":25536:25544   */\n      dup4\n        /* \"#utility.yul\":25532:25569   */\n      add\n        /* \"#utility.yul\":25519:25530   */\n      dup3\n        /* \"#utility.yul\":25490:25570   */\n      tag_288\n      jump\t// in\n    tag_524:\n        /* \"#utility.yul\":25149:25580   */\n      pop\n      pop\n        /* \"#utility.yul\":25134:25580   */\n    tag_520:\n        /* \"#utility.yul\":25044:25587   */\n      pop\n      pop\n      pop\n      jump\t// out\n        /* \"#utility.yul\":25593:25710   */\n    tag_290:\n        /* \"#utility.yul\":25647:25655   */\n      0x00\n        /* \"#utility.yul\":25697:25702   */\n      dup3\n        /* \"#utility.yul\":25691:25695   */\n      dup3\n        /* \"#utility.yul\":25687:25703   */\n      shr\n        /* \"#utility.yul\":25666:25703   */\n      swap1\n      pop\n        /* \"#utility.yul\":25593:25710   */\n      swap3\n      swap2\n      pop\n      pop\n      jump\t// out\n        /* \"#utility.yul\":25716:25885   */\n    tag_291:\n        /* \"#utility.yul\":25760:25766   */\n      0x00\n        /* \"#utility.yul\":25793:25844   */\n      tag_528\n        /* \"#utility.yul\":25841:25842   */\n      0x00\n        /* \"#utility.yul\":25837:25843   */\n      not\n        /* \"#utility.yul\":25829:25834   */\n      dup5\n        /* \"#utility.yul\":25826:25827   */\n      0x08\n        /* \"#utility.yul\":25822:25835   */\n      mul\n        /* \"#utility.yul\":25793:25844   */\n      tag_290\n      jump\t// in\n    tag_528:\n        /* \"#utility.yul\":25789:25845   */\n      not\n        /* \"#utility.yul\":25874:25878   */\n      dup1\n        /* \"#utility.yul\":25868:25872   */\n      dup4\n        /* \"#utility.yul\":25864:25879   */\n      and\n        /* \"#utility.yul\":25854:25879   */\n      swap2\n      pop\n        /* \"#utility.yul\":25767:25885   */\n      pop\n        /* \"#utility.yul\":25716:25885   */\n      swap3\n      swap2\n      pop\n      pop\n      jump\t// out\n        /* \"#utility.yul\":25890:26185   */\n    tag_292:\n        /* \"#utility.yul\":25966:25970   */\n      0x00\n        /* \"#utility.yul\":26112:26141   */\n      tag_530\n        /* \"#utility.yul\":26137:26140   */\n      dup4\n        /* \"#utility.yul\":26131:26135   */\n      dup4\n        /* \"#utility.yul\":26112:26141   */\n      tag_291\n      jump\t// in\n    tag_530:\n        /* \"#utility.yul\":26104:26141   */\n      swap2\n      pop\n        /* \"#utility.yul\":26174:26177   */\n      dup3\n        /* \"#utility.yul\":26171:26172   */\n      0x02\n        /* \"#utility.yul\":26167:26178   */\n      mul\n        /* \"#utility.yul\":26161:26165   */\n      dup3\n        /* \"#utility.yul\":26158:26179   */\n      or\n        /* \"#utility.yul\":26150:26179   */\n      swap1\n      pop\n        /* \"#utility.yul\":25890:26185   */\n      swap3\n      swap2\n      pop\n      pop\n      jump\t// out\n        /* \"#utility.yul\":26190:27585   */\n    tag_122:\n        /* \"#utility.yul\":26307:26344   */\n      tag_532\n        /* \"#utility.yul\":26340:26343   */\n      dup3\n        /* \"#utility.yul\":26307:26344   */\n      tag_229\n      jump\t// in\n    tag_532:\n        /* \"#utility.yul\":26409:26427   */\n      0xffffffffffffffff\n        /* \"#utility.yul\":26401:26407   */\n      dup2\n        /* \"#utility.yul\":26398:26428   */\n      gt\n        /* \"#utility.yul\":26395:26451   */\n      iszero\n      tag_533\n      jumpi\n        /* \"#utility.yul\":26431:26449   */\n      tag_534\n      tag_128\n      jump\t// in\n    tag_534:\n        /* \"#utility.yul\":26395:26451   */\n    tag_533:\n        /* \"#utility.yul\":26475:26513   */\n      tag_535\n        /* \"#utility.yul\":26507:26511   */\n      dup3\n        /* \"#utility.yul\":26501:26512   */\n      sload\n        /* \"#utility.yul\":26475:26513   */\n      tag_71\n      jump\t// in\n    tag_535:\n        /* \"#utility.yul\":26560:26627   */\n      tag_536\n        /* \"#utility.yul\":26620:26626   */\n      dup3\n        /* \"#utility.yul\":26612:26618   */\n      dup3\n        /* \"#utility.yul\":26606:26610   */\n      dup6\n        /* \"#utility.yul\":26560:26627   */\n      tag_289\n      jump\t// in\n    tag_536:\n        /* \"#utility.yul\":26654:26655   */\n      0x00\n        /* \"#utility.yul\":26678:26682   */\n      0x20\n        /* \"#utility.yul\":26665:26682   */\n      swap1\n      pop\n        /* \"#utility.yul\":26710:26712   */\n      0x1f\n        /* \"#utility.yul\":26702:26708   */\n      dup4\n        /* \"#utility.yul\":26699:26713   */\n      gt\n        /* \"#utility.yul\":26727:26728   */\n      0x01\n        /* \"#utility.yul\":26722:27340   */\n      dup2\n      eq\n      tag_538\n      jumpi\n        /* \"#utility.yul\":27384:27385   */\n      0x00\n        /* \"#utility.yul\":27401:27407   */\n      dup5\n        /* \"#utility.yul\":27398:27475   */\n      iszero\n      tag_539\n      jumpi\n        /* \"#utility.yul\":27450:27459   */\n      dup3\n        /* \"#utility.yul\":27445:27448   */\n      dup8\n        /* \"#utility.yul\":27441:27460   */\n      add\n        /* \"#utility.yul\":27435:27461   */\n      mload\n        /* \"#utility.yul\":27426:27461   */\n      swap1\n      pop\n        /* \"#utility.yul\":27398:27475   */\n    tag_539:\n        /* \"#utility.yul\":27501:27568   */\n      tag_540\n        /* \"#utility.yul\":27561:27567   */\n      dup6\n        /* \"#utility.yul\":27554:27559   */\n      dup3\n        /* \"#utility.yul\":27501:27568   */\n      tag_292\n      jump\t// in\n    tag_540:\n        /* \"#utility.yul\":27495:27499   */\n      dup7\n        /* \"#utility.yul\":27488:27569   */\n      sstore\n        /* \"#utility.yul\":27357:27579   */\n      pop\n        /* \"#utility.yul\":26692:27579   */\n      jump(tag_537)\n        /* \"#utility.yul\":26722:27340   */\n    tag_538:\n        /* \"#utility.yul\":26774:26778   */\n      0x1f\n        /* \"#utility.yul\":26770:26779   */\n      not\n        /* \"#utility.yul\":26762:26768   */\n      dup5\n        /* \"#utility.yul\":26758:26780   */\n      and\n        /* \"#utility.yul\":26808:26845   */\n      tag_541\n        /* \"#utility.yul\":26840:26844   */\n      dup7\n        /* \"#utility.yul\":26808:26845   */\n      tag_278\n      jump\t// in\n    tag_541:\n        /* \"#utility.yul\":26867:26868   */\n      0x00\n        /* \"#utility.yul\":26881:27089   */\n    tag_542:\n        /* \"#utility.yul\":26895:26902   */\n      dup3\n        /* \"#utility.yul\":26892:26893   */\n      dup2\n        /* \"#utility.yul\":26889:26903   */\n      lt\n        /* \"#utility.yul\":26881:27089   */\n      iszero\n      tag_544\n      jumpi\n        /* \"#utility.yul\":26974:26983   */\n      dup5\n        /* \"#utility.yul\":26969:26972   */\n      dup10\n        /* \"#utility.yul\":26965:26984   */\n      add\n        /* \"#utility.yul\":26959:26985   */\n      mload\n        /* \"#utility.yul\":26951:26957   */\n      dup3\n        /* \"#utility.yul\":26944:26986   */\n      sstore\n        /* \"#utility.yul\":27025:27026   */\n      0x01\n        /* \"#utility.yul\":27017:27023   */\n      dup3\n        /* \"#utility.yul\":27013:27027   */\n      add\n        /* \"#utility.yul\":27003:27027   */\n      swap2\n      pop\n        /* \"#utility.yul\":27072:27074   */\n      0x20\n        /* \"#utility.yul\":27061:27070   */\n      dup6\n        /* \"#utility.yul\":27057:27075   */\n      add\n        /* \"#utility.yul\":27044:27075   */\n      swap5\n      pop\n        /* \"#utility.yul\":26918:26922   */\n      0x20\n        /* \"#utility.yul\":26915:26916   */\n      dup2\n        /* \"#utility.yul\":26911:26923   */\n      add\n        /* \"#utility.yul\":26906:26923   */\n      swap1\n      pop\n        /* \"#utility.yul\":26881:27089   */\n      jump(tag_542)\n    tag_544:\n        /* \"#utility.yul\":27117:27123   */\n      dup7\n        /* \"#utility.yul\":27108:27115   */\n      dup4\n        /* \"#utility.yul\":27105:27124   */\n      lt\n        /* \"#utility.yul\":27102:27281   */\n      iszero\n      tag_545\n      jumpi\n        /* \"#utility.yul\":27175:27184   */\n      dup5\n        /* \"#utility.yul\":27170:27173   */\n      dup10\n        /* \"#utility.yul\":27166:27185   */\n      add\n        /* \"#utility.yul\":27160:27186   */\n      mload\n        /* \"#utility.yul\":27218:27266   */\n      tag_546\n        /* \"#utility.yul\":27260:27264   */\n      0x1f\n        /* \"#utility.yul\":27252:27258   */\n      dup10\n        /* \"#utility.yul\":27248:27265   */\n      and\n        /* \"#utility.yul\":27237:27246   */\n      dup3\n        /* \"#utility.yul\":27218:27266   */\n      tag_291\n      jump\t// in\n    tag_546:\n        /* \"#utility.yul\":27210:27216   */\n      dup4\n        /* \"#utility.yul\":27203:27267   */\n      sstore\n        /* \"#utility.yul\":27125:27281   */\n      pop\n        /* \"#utility.yul\":27102:27281   */\n    tag_545:\n        /* \"#utility.yul\":27327:27328   */\n      0x01\n        /* \"#utility.yul\":27323:27324   */\n      0x02\n        /* \"#utility.yul\":27315:27321   */\n      dup9\n        /* \"#utility.yul\":27311:27325   */\n      mul\n        /* \"#utility.yul\":27307:27329   */\n      add\n        /* \"#utility.yul\":27301:27305   */\n      dup9\n        /* \"#utility.yul\":27294:27330   */\n      sstore\n        /* \"#utility.yul\":26729:27340   */\n      pop\n      pop\n      pop\n        /* \"#utility.yul\":26692:27579   */\n    tag_537:\n      pop\n        /* \"#utility.yul\":26282:27585   */\n      pop\n      pop\n      pop\n        /* \"#utility.yul\":26190:27585   */\n      pop\n      pop\n      jump\t// out\n        /* \"#utility.yul\":27591:27761   */\n    tag_293:\n        /* \"#utility.yul\":27731:27753   */\n      0x4a6f6220697320616c7265616479206164646564000000000000000000000000\n        /* \"#utility.yul\":27727:27728   */\n      0x00\n        /* \"#utility.yul\":27719:27725   */\n      dup3\n        /* \"#utility.yul\":27715:27729   */\n      add\n        /* \"#utility.yul\":27708:27754   */\n      mstore\n        /* \"#utility.yul\":27591:27761   */\n      pop\n      jump\t// out\n        /* \"#utility.yul\":27767:28133   */\n    tag_294:\n        /* \"#utility.yul\":27909:27912   */\n      0x00\n        /* \"#utility.yul\":27930:27997   */\n      tag_549\n        /* \"#utility.yul\":27994:27996   */\n      0x14\n        /* \"#utility.yul\":27989:27992   */\n      dup4\n        /* \"#utility.yul\":27930:27997   */\n      tag_230\n      jump\t// in\n    tag_549:\n        /* \"#utility.yul\":27923:27997   */\n      swap2\n      pop\n        /* \"#utility.yul\":28006:28099   */\n      tag_550\n        /* \"#utility.yul\":28095:28098   */\n      dup3\n        /* \"#utility.yul\":28006:28099   */\n      tag_293\n      jump\t// in\n    tag_550:\n        /* \"#utility.yul\":28124:28126   */\n      0x20\n        /* \"#utility.yul\":28119:28122   */\n      dup3\n        /* \"#utility.yul\":28115:28127   */\n      add\n        /* \"#utility.yul\":28108:28127   */\n      swap1\n      pop\n        /* \"#utility.yul\":27767:28133   */\n      swap2\n      swap1\n      pop\n      jump\t// out\n        /* \"#utility.yul\":28139:28558   */\n    tag_165:\n        /* \"#utility.yul\":28305:28309   */\n      0x00\n        /* \"#utility.yul\":28343:28345   */\n      0x20\n        /* \"#utility.yul\":28332:28341   */\n      dup3\n        /* \"#utility.yul\":28328:28346   */\n      add\n        /* \"#utility.yul\":28320:28346   */\n      swap1\n      pop\n        /* \"#utility.yul\":28392:28401   */\n      dup2\n        /* \"#utility.yul\":28386:28390   */\n      dup2\n        /* \"#utility.yul\":28382:28402   */\n      sub\n        /* \"#utility.yul\":28378:28379   */\n      0x00\n        /* \"#utility.yul\":28367:28376   */\n      dup4\n        /* \"#utility.yul\":28363:28380   */\n      add\n        /* \"#utility.yul\":28356:28403   */\n      mstore\n        /* \"#utility.yul\":28420:28551   */\n      tag_552\n        /* \"#utility.yul\":28546:28550   */\n      dup2\n        /* \"#utility.yul\":28420:28551   */\n      tag_294\n      jump\t// in\n    tag_552:\n        /* \"#utility.yul\":28412:28551   */\n      swap1\n      pop\n        /* \"#utility.yul\":28139:28558   */\n      swap2\n      swap1\n      pop\n      jump\t// out\n\n    auxdata: 0xa26469706673582212200a1f63fc6a520a0cc5ff2d58ec0ba40a2ca590c7121e1ba811e77cd9d73d7b7364736f6c63430008120033\n}\n",
				"bytecode": {
					"linkReferences": {},
					"object": "608060405234801561001057600080fd5b50336000806101000a81548173ffffffffffffffffffffffffffffffffffffffff021916908373ffffffffffffffffffffffffffffffffffffffff160217905550612137806100606000396000f3fe608060405234801561001057600080fd5b50600436106100b45760003560e01c8063a9b75e2611610071578063a9b75e261461018e578063ada03159146101ac578063b02b4a2f146101dc578063ccd66863146101fa578063f851a4401461022c578063f8f748931461024a576100b4565b8063180aedf3146100b95780632ad6ee43146100ea5780634cac35c6146101065780636f4347b51461013857806378214ac91461015457806389a4bb4b14610172575b600080fd5b6100d360048036038101906100ce919061130a565b61027c565b6040516100e19291906113c7565b60405180910390f35b61010460048036038101906100ff919061130a565b6103c0565b005b610120600480360381019061011b919061130a565b610410565b60405161012f9392919061140d565b60405180910390f35b610152600480360381019061014d91906115e5565b6105ca565b005b61015c61091d565b60405161016991906117e2565b60405180910390f35b61018c60048036038101906101879190611804565b610b81565b005b610196610d27565b6040516101a39190611982565b60405180910390f35b6101c660048036038101906101c1919061130a565b610f3e565b6040516101d391906119b3565b60405180910390f35b6101e4610f7d565b6040516101f191906119ce565b60405180910390f35b610214600480360381019061020f91906119e9565b610f8a565b60405161022393929190611a16565b60405180910390f35b6102346110c4565b60405161024191906119b3565b60405180910390f35b610264600480360381019061025f91906119e9565b6110e8565b60405161027393929190611a16565b60405180910390f35b6002818154811061028c57600080fd5b90600052602060002090600202016000915090508060000180546102af90611a8a565b80601f01602080910402602001604051908101604052809291908181526020018280546102db90611a8a565b80156103285780601f106102fd57610100808354040283529160200191610328565b820191906000526020600020905b81548152906001019060200180831161030b57829003601f168201915b50505050509080600101805461033d90611a8a565b80601f016020809104026020016040519081016040528092919081815260200182805461036990611a8a565b80156103b65780601f1061038b576101008083540402835291602001916103b6565b820191906000526020600020905b81548152906001019060200180831161039957829003601f168201915b5050505050905082565b6000600160003373ffffffffffffffffffffffffffffffffffffffff1673ffffffffffffffffffffffffffffffffffffffff16815260200190815260200160002090508181600201819055505050565b6000606080600280549050841061045c576040517f08c379a000000000000000000000000000000000000000000000000000000000815260040161045390611b07565b60405180910390fd5b60006002858154811061047257610471611b27565b5b906000526020600020906002020160405180604001604052908160008201805461049b90611a8a565b80601f01602080910402602001604051908101604052809291908181526020018280546104c790611a8a565b80156105145780601f106104e957610100808354040283529160200191610514565b820191906000526020600020905b8154815290600101906020018083116104f757829003601f168201915b5050505050815260200160018201805461052d90611a8a565b80601f016020809104026020016040519081016040528092919081815260200182805461055990611a8a565b80156105a65780601f1061057b576101008083540402835291602001916105a6565b820191906000526020600020905b81548152906001019060200180831161058957829003601f168201915b50505050508152505090508481600001518260200151935093509350509193909250565b60008054906101000a900473ffffffffffffffffffffffffffffffffffffffff1673ffffffffffffffffffffffffffffffffffffffff163373ffffffffffffffffffffffffffffffffffffffff1614610658576040517f08c379a000000000000000000000000000000000000000000000000000000000815260040161064f90611bc8565b60405180910390fd5b60005b6003805490508110156107cc5760006003828154811061067e5761067d611b27565b5b9060005260206000200160009054906101000a900473ffffffffffffffffffffffffffffffffffffffff1690508473ffffffffffffffffffffffffffffffffffffffff168173ffffffffffffffffffffffffffffffffffffffff1603610719576040517f08c379a000000000000000000000000000000000000000000000000000000000815260040161071090611c5a565b60405180910390fd5b8380519060200120600160008373ffffffffffffffffffffffffffffffffffffffff1673ffffffffffffffffffffffffffffffffffffffff1681526020019081526020016000206000016040516107709190611d1d565b6040518091039020036107b8576040517f08c379a00000000000000000000000000000000000000000000000000000000081526004016107af90611d80565b60405180910390fd5b5080806107c490611dcf565b91505061065b565b5081600160008573ffffffffffffffffffffffffffffffffffffffff1673ffffffffffffffffffffffffffffffffffffffff168152602001908152602001600020600001908161081c9190611fc3565b5080600160008573ffffffffffffffffffffffffffffffffffffffff1673ffffffffffffffffffffffffffffffffffffffff168152602001908152602001600020600101908161086c9190611fc3565b506000600160008573ffffffffffffffffffffffffffffffffffffffff1673ffffffffffffffffffffffffffffffffffffffff168152602001908152602001600020600201819055506003839080600181540180825580915050600190039060005260206000200160009091909190916101000a81548173ffffffffffffffffffffffffffffffffffffffff021916908373ffffffffffffffffffffffffffffffffffffffff160217905550505050565b6060600060038054905067ffffffffffffffff8111156109405761093f6114ba565b5b60405190808252806020026020018201604052801561097957816020015b610966611285565b81526020019060019003908161095e5790505b50905060005b600380549050811015610b79576000600382815481106109a2576109a1611b27565b5b9060005260206000200160009054906101000a900473ffffffffffffffffffffffffffffffffffffffff169050600160008273ffffffffffffffffffffffffffffffffffffffff1673ffffffffffffffffffffffffffffffffffffffff168152602001908152602001600020604051806060016040529081600082018054610a2990611a8a565b80601f0160208091040260200160405190810160405280929190818152602001828054610a5590611a8a565b8015610aa25780601f10610a7757610100808354040283529160200191610aa2565b820191906000526020600020905b815481529060010190602001808311610a8557829003601f168201915b50505050508152602001600182018054610abb90611a8a565b80601f0160208091040260200160405190810160405280929190818152602001828054610ae790611a8a565b8015610b345780601f10610b0957610100808354040283529160200191610b34565b820191906000526020600020905b815481529060010190602001808311610b1757829003601f168201915b50505050508152602001600282015481525050838381518110610b5a57610b59611b27565b5b6020026020010181905250508080610b7190611dcf565b91505061097f565b508091505090565b60008054906101000a900473ffffffffffffffffffffffffffffffffffffffff1673ffffffffffffffffffffffffffffffffffffffff163373ffffffffffffffffffffffffffffffffffffffff1614610c0f576040517f08c379a0000000000000000000000000000000000000000000000000000000008152600401610c0690611bc8565b60405180910390fd5b60005b600280549050811015610cb457828051906020012060028281548110610c3b57610c3a611b27565b5b9060005260206000209060020201600001604051610c599190611d1d565b604051809103902003610ca1576040517f08c379a0000000000000000000000000000000000000000000000000000000008152600401610c98906120e1565b60405180910390fd5b8080610cac90611dcf565b915050610c12565b50600260405180604001604052808481526020018381525090806001815401808255809150506001900390600052602060002090600202016000909190919091506000820151816000019081610d0a9190611fc3565b506020820151816001019081610d209190611fc3565b5050505050565b6060600060028054905067ffffffffffffffff811115610d4a57610d496114ba565b5b604051908082528060200260200182016040528015610d8357816020015b610d706112a6565b815260200190600190039081610d685790505b50905060005b600280549050811015610f3657604051806040016040528060028381548110610db557610db4611b27565b5b90600052602060002090600202016000018054610dd190611a8a565b80601f0160208091040260200160405190810160405280929190818152602001828054610dfd90611a8a565b8015610e4a5780601f10610e1f57610100808354040283529160200191610e4a565b820191906000526020600020905b815481529060010190602001808311610e2d57829003601f168201915b5050505050815260200160028381548110610e6857610e67611b27565b5b90600052602060002090600202016001018054610e8490611a8a565b80601f0160208091040260200160405190810160405280929190818152602001828054610eb090611a8a565b8015610efd5780601f10610ed257610100808354040283529160200191610efd565b820191906000526020600020905b815481529060010190602001808311610ee057829003601f168201915b5050505050815250828281518110610f1857610f17611b27565b5b60200260200101819052508080610f2e90611dcf565b915050610d89565b508091505090565b60038181548110610f4e57600080fd5b906000526020600020016000915054906101000a900473ffffffffffffffffffffffffffffffffffffffff1681565b6000600280549050905090565b6001602052806000526040600020600091509050806000018054610fad90611a8a565b80601f0160208091040260200160405190810160405280929190818152602001828054610fd990611a8a565b80156110265780601f10610ffb57610100808354040283529160200191611026565b820191906000526020600020905b81548152906001019060200180831161100957829003601f168201915b50505050509080600101805461103b90611a8a565b80601f016020809104026020016040519081016040528092919081815260200182805461106790611a8a565b80156110b45780601f10611089576101008083540402835291602001916110b4565b820191906000526020600020905b81548152906001019060200180831161109757829003601f168201915b5050505050908060020154905083565b60008054906101000a900473ffffffffffffffffffffffffffffffffffffffff1681565b606080600080600160008673ffffffffffffffffffffffffffffffffffffffff1673ffffffffffffffffffffffffffffffffffffffff16815260200190815260200160002060405180606001604052908160008201805461114890611a8a565b80601f016020809104026020016040519081016040528092919081815260200182805461117490611a8a565b80156111c15780601f10611196576101008083540402835291602001916111c1565b820191906000526020600020905b8154815290600101906020018083116111a457829003601f168201915b505050505081526020016001820180546111da90611a8a565b80601f016020809104026020016040519081016040528092919081815260200182805461120690611a8a565b80156112535780601f1061122857610100808354040283529160200191611253565b820191906000526020600020905b81548152906001019060200180831161123657829003601f168201915b505050505081526020016002820154815250509050806000015181602001518260400151935093509350509193909250565b60405180606001604052806060815260200160608152602001600081525090565b604051806040016040528060608152602001606081525090565b6000604051905090565b600080fd5b600080fd5b6000819050919050565b6112e7816112d4565b81146112f257600080fd5b50565b600081359050611304816112de565b92915050565b6000602082840312156113205761131f6112ca565b5b600061132e848285016112f5565b91505092915050565b600081519050919050565b600082825260208201905092915050565b60005b83811015611371578082015181840152602081019050611356565b60008484015250505050565b6000601f19601f8301169050919050565b600061139982611337565b6113a38185611342565b93506113b3818560208601611353565b6113bc8161137d565b840191505092915050565b600060408201905081810360008301526113e1818561138e565b905081810360208301526113f5818461138e565b90509392505050565b611407816112d4565b82525050565b600060608201905061142260008301866113fe565b8181036020830152611434818561138e565b90508181036040830152611448818461138e565b9050949350505050565b600073ffffffffffffffffffffffffffffffffffffffff82169050919050565b600061147d82611452565b9050919050565b61148d81611472565b811461149857600080fd5b50565b6000813590506114aa81611484565b92915050565b600080fd5b600080fd5b7f4e487b7100000000000000000000000000000000000000000000000000000000600052604160045260246000fd5b6114f28261137d565b810181811067ffffffffffffffff82111715611511576115106114ba565b5b80604052505050565b60006115246112c0565b905061153082826114e9565b919050565b600067ffffffffffffffff8211156115505761154f6114ba565b5b6115598261137d565b9050602081019050919050565b82818337600083830152505050565b600061158861158384611535565b61151a565b9050828152602081018484840111156115a4576115a36114b5565b5b6115af848285611566565b509392505050565b600082601f8301126115cc576115cb6114b0565b5b81356115dc848260208601611575565b91505092915050565b6000806000606084860312156115fe576115fd6112ca565b5b600061160c8682870161149b565b935050602084013567ffffffffffffffff81111561162d5761162c6112cf565b5b611639868287016115b7565b925050604084013567ffffffffffffffff81111561165a576116596112cf565b5b611666868287016115b7565b9150509250925092565b600081519050919050565b600082825260208201905092915050565b6000819050602082019050919050565b600082825260208201905092915050565b60006116b882611337565b6116c2818561169c565b93506116d2818560208601611353565b6116db8161137d565b840191505092915050565b6116ef816112d4565b82525050565b6000606083016000830151848203600086015261171282826116ad565b9150506020830151848203602086015261172c82826116ad565b915050604083015161174160408601826116e6565b508091505092915050565b600061175883836116f5565b905092915050565b6000602082019050919050565b600061177882611670565b611782818561167b565b9350836020820285016117948561168c565b8060005b858110156117d057848403895281516117b1858261174c565b94506117bc83611760565b925060208a01995050600181019050611798565b50829750879550505050505092915050565b600060208201905081810360008301526117fc818461176d565b905092915050565b6000806040838503121561181b5761181a6112ca565b5b600083013567ffffffffffffffff811115611839576118386112cf565b5b611845858286016115b7565b925050602083013567ffffffffffffffff811115611866576118656112cf565b5b611872858286016115b7565b9150509250929050565b600081519050919050565b600082825260208201905092915050565b6000819050602082019050919050565b600060408301600083015184820360008601526118c582826116ad565b915050602083015184820360208601526118df82826116ad565b9150508091505092915050565b60006118f883836118a8565b905092915050565b6000602082019050919050565b60006119188261187c565b6119228185611887565b93508360208202850161193485611898565b8060005b85811015611970578484038952815161195185826118ec565b945061195c83611900565b925060208a01995050600181019050611938565b50829750879550505050505092915050565b6000602082019050818103600083015261199c818461190d565b905092915050565b6119ad81611472565b82525050565b60006020820190506119c860008301846119a4565b92915050565b60006020820190506119e360008301846113fe565b92915050565b6000602082840312156119ff576119fe6112ca565b5b6000611a0d8482850161149b565b91505092915050565b60006060820190508181036000830152611a30818661138e565b90508181036020830152611a44818561138e565b9050611a5360408301846113fe565b949350505050565b7f4e487b7100000000000000000000000000000000000000000000000000000000600052602260045260246000fd5b60006002820490506001821680611aa257607f821691505b602082108103611ab557611ab4611a5b565b5b50919050565b7f496e76616c6964206a6f62204944000000000000000000000000000000000000600082015250565b6000611af1600e83611342565b9150611afc82611abb565b602082019050919050565b60006020820190508181036000830152611b2081611ae4565b9050919050565b7f4e487b7100000000000000000000000000000000000000000000000000000000600052603260045260246000fd5b7f4f6e6c79207468652061646d696e2063616e20706572666f726d20746869732060008201527f616374696f6e0000000000000000000000000000000000000000000000000000602082015250565b6000611bb2602683611342565b9150611bbd82611b56565b604082019050919050565b60006020820190508181036000830152611be181611ba5565b9050919050565b7f4170706c6963616e7420776974682073616d652061646472657373206973206160008201527f6c72656164792072656769737465726564000000000000000000000000000000602082015250565b6000611c44603183611342565b9150611c4f82611be8565b604082019050919050565b60006020820190508181036000830152611c7381611c37565b9050919050565b600081905092915050565b60008190508160005260206000209050919050565b60008154611ca781611a8a565b611cb18186611c7a565b94506001821660008114611ccc5760018114611ce157611d14565b60ff1983168652811515820286019350611d14565b611cea85611c85565b60005b83811015611d0c57815481890152600182019150602081019050611ced565b838801955050505b50505092915050565b6000611d298284611c9a565b915081905092915050565b7f4170706c6963616e7420697320616c72656164792070726573656e7400000000600082015250565b6000611d6a601c83611342565b9150611d7582611d34565b602082019050919050565b60006020820190508181036000830152611d9981611d5d565b9050919050565b7f4e487b7100000000000000000000000000000000000000000000000000000000600052601160045260246000fd5b6000611dda826112d4565b91507fffffffffffffffffffffffffffffffffffffffffffffffffffffffffffffffff8203611e0c57611e0b611da0565b5b600182019050919050565b60008190508160005260206000209050919050565b60006020601f8301049050919050565b600082821b905092915050565b600060088302611e797fffffffffffffffffffffffffffffffffffffffffffffffffffffffffffffffff82611e3c565b611e838683611e3c565b95508019841693508086168417925050509392505050565b6000819050919050565b6000611ec0611ebb611eb6846112d4565b611e9b565b6112d4565b9050919050565b6000819050919050565b611eda83611ea5565b611eee611ee682611ec7565b848454611e49565b825550505050565b600090565b611f03611ef6565b611f0e818484611ed1565b505050565b5b81811015611f3257611f27600082611efb565b600181019050611f14565b5050565b601f821115611f7757611f4881611e17565b611f5184611e2c565b81016020851015611f60578190505b611f74611f6c85611e2c565b830182611f13565b50505b505050565b600082821c905092915050565b6000611f9a60001984600802611f7c565b1980831691505092915050565b6000611fb38383611f89565b9150826002028217905092915050565b611fcc82611337565b67ffffffffffffffff811115611fe557611fe46114ba565b5b611fef8254611a8a565b611ffa828285611f36565b600060209050601f83116001811461202d576000841561201b578287015190505b6120258582611fa7565b86555061208d565b601f19841661203b86611e17565b60005b828110156120635784890151825560018201915060208501945060208101905061203e565b86831015612080578489015161207c601f891682611f89565b8355505b6001600288020188555050505b505050505050565b7f4a6f6220697320616c7265616479206164646564000000000000000000000000600082015250565b60006120cb601483611342565b91506120d682612095565b602082019050919050565b600060208201905081810360008301526120fa816120be565b905091905056fea26469706673582212200a1f63fc6a520a0cc5ff2d58ec0ba40a2ca590c7121e1ba811e77cd9d73d7b7364736f6c63430008120033",
					"opcodes": "PUSH1 0x80 PUSH1 0x40 MSTORE CALLVALUE DUP1 ISZERO PUSH2 0x10 JUMPI PUSH1 0x0 DUP1 REVERT JUMPDEST POP CALLER PUSH1 0x0 DUP1 PUSH2 0x100 EXP DUP2 SLOAD DUP2 PUSH20 0xFFFFFFFFFFFFFFFFFFFFFFFFFFFFFFFFFFFFFFFF MUL NOT AND SWAP1 DUP4 PUSH20 0xFFFFFFFFFFFFFFFFFFFFFFFFFFFFFFFFFFFFFFFF AND MUL OR SWAP1 SSTORE POP PUSH2 0x2137 DUP1 PUSH2 0x60 PUSH1 0x0 CODECOPY PUSH1 0x0 RETURN INVALID PUSH1 0x80 PUSH1 0x40 MSTORE CALLVALUE DUP1 ISZERO PUSH2 0x10 JUMPI PUSH1 0x0 DUP1 REVERT JUMPDEST POP PUSH1 0x4 CALLDATASIZE LT PUSH2 0xB4 JUMPI PUSH1 0x0 CALLDATALOAD PUSH1 0xE0 SHR DUP1 PUSH4 0xA9B75E26 GT PUSH2 0x71 JUMPI DUP1 PUSH4 0xA9B75E26 EQ PUSH2 0x18E JUMPI DUP1 PUSH4 0xADA03159 EQ PUSH2 0x1AC JUMPI DUP1 PUSH4 0xB02B4A2F EQ PUSH2 0x1DC JUMPI DUP1 PUSH4 0xCCD66863 EQ PUSH2 0x1FA JUMPI DUP1 PUSH4 0xF851A440 EQ PUSH2 0x22C JUMPI DUP1 PUSH4 0xF8F74893 EQ PUSH2 0x24A JUMPI PUSH2 0xB4 JUMP JUMPDEST DUP1 PUSH4 0x180AEDF3 EQ PUSH2 0xB9 JUMPI DUP1 PUSH4 0x2AD6EE43 EQ PUSH2 0xEA JUMPI DUP1 PUSH4 0x4CAC35C6 EQ PUSH2 0x106 JUMPI DUP1 PUSH4 0x6F4347B5 EQ PUSH2 0x138 JUMPI DUP1 PUSH4 0x78214AC9 EQ PUSH2 0x154 JUMPI DUP1 PUSH4 0x89A4BB4B EQ PUSH2 0x172 JUMPI JUMPDEST PUSH1 0x0 DUP1 REVERT JUMPDEST PUSH2 0xD3 PUSH1 0x4 DUP1 CALLDATASIZE SUB DUP2 ADD SWAP1 PUSH2 0xCE SWAP2 SWAP1 PUSH2 0x130A JUMP JUMPDEST PUSH2 0x27C JUMP JUMPDEST PUSH1 0x40 MLOAD PUSH2 0xE1 SWAP3 SWAP2 SWAP1 PUSH2 0x13C7 JUMP JUMPDEST PUSH1 0x40 MLOAD DUP1 SWAP2 SUB SWAP1 RETURN JUMPDEST PUSH2 0x104 PUSH1 0x4 DUP1 CALLDATASIZE SUB DUP2 ADD SWAP1 PUSH2 0xFF SWAP2 SWAP1 PUSH2 0x130A JUMP JUMPDEST PUSH2 0x3C0 JUMP JUMPDEST STOP JUMPDEST PUSH2 0x120 PUSH1 0x4 DUP1 CALLDATASIZE SUB DUP2 ADD SWAP1 PUSH2 0x11B SWAP2 SWAP1 PUSH2 0x130A JUMP JUMPDEST PUSH2 0x410 JUMP JUMPDEST PUSH1 0x40 MLOAD PUSH2 0x12F SWAP4 SWAP3 SWAP2 SWAP1 PUSH2 0x140D JUMP JUMPDEST PUSH1 0x40 MLOAD DUP1 SWAP2 SUB SWAP1 RETURN JUMPDEST PUSH2 0x152 PUSH1 0x4 DUP1 CALLDATASIZE SUB DUP2 ADD SWAP1 PUSH2 0x14D SWAP2 SWAP1 PUSH2 0x15E5 JUMP JUMPDEST PUSH2 0x5CA JUMP JUMPDEST STOP JUMPDEST PUSH2 0x15C PUSH2 0x91D JUMP JUMPDEST PUSH1 0x40 MLOAD PUSH2 0x169 SWAP2 SWAP1 PUSH2 0x17E2 JUMP JUMPDEST PUSH1 0x40 MLOAD DUP1 SWAP2 SUB SWAP1 RETURN JUMPDEST PUSH2 0x18C PUSH1 0x4 DUP1 CALLDATASIZE SUB DUP2 ADD SWAP1 PUSH2 0x187 SWAP2 SWAP1 PUSH2 0x1804 JUMP JUMPDEST PUSH2 0xB81 JUMP JUMPDEST STOP JUMPDEST PUSH2 0x196 PUSH2 0xD27 JUMP JUMPDEST PUSH1 0x40 MLOAD PUSH2 0x1A3 SWAP2 SWAP1 PUSH2 0x1982 JUMP JUMPDEST PUSH1 0x40 MLOAD DUP1 SWAP2 SUB SWAP1 RETURN JUMPDEST PUSH2 0x1C6 PUSH1 0x4 DUP1 CALLDATASIZE SUB DUP2 ADD SWAP1 PUSH2 0x1C1 SWAP2 SWAP1 PUSH2 0x130A JUMP JUMPDEST PUSH2 0xF3E JUMP JUMPDEST PUSH1 0x40 MLOAD PUSH2 0x1D3 SWAP2 SWAP1 PUSH2 0x19B3 JUMP JUMPDEST PUSH1 0x40 MLOAD DUP1 SWAP2 SUB SWAP1 RETURN JUMPDEST PUSH2 0x1E4 PUSH2 0xF7D JUMP JUMPDEST PUSH1 0x40 MLOAD PUSH2 0x1F1 SWAP2 SWAP1 PUSH2 0x19CE JUMP JUMPDEST PUSH1 0x40 MLOAD DUP1 SWAP2 SUB SWAP1 RETURN JUMPDEST PUSH2 0x214 PUSH1 0x4 DUP1 CALLDATASIZE SUB DUP2 ADD SWAP1 PUSH2 0x20F SWAP2 SWAP1 PUSH2 0x19E9 JUMP JUMPDEST PUSH2 0xF8A JUMP JUMPDEST PUSH1 0x40 MLOAD PUSH2 0x223 SWAP4 SWAP3 SWAP2 SWAP1 PUSH2 0x1A16 JUMP JUMPDEST PUSH1 0x40 MLOAD DUP1 SWAP2 SUB SWAP1 RETURN JUMPDEST PUSH2 0x234 PUSH2 0x10C4 JUMP JUMPDEST PUSH1 0x40 MLOAD PUSH2 0x241 SWAP2 SWAP1 PUSH2 0x19B3 JUMP JUMPDEST PUSH1 0x40 MLOAD DUP1 SWAP2 SUB SWAP1 RETURN JUMPDEST PUSH2 0x264 PUSH1 0x4 DUP1 CALLDATASIZE SUB DUP2 ADD SWAP1 PUSH2 0x25F SWAP2 SWAP1 PUSH2 0x19E9 JUMP JUMPDEST PUSH2 0x10E8 JUMP JUMPDEST PUSH1 0x40 MLOAD PUSH2 0x273 SWAP4 SWAP3 SWAP2 SWAP1 PUSH2 0x1A16 JUMP JUMPDEST PUSH1 0x40 MLOAD DUP1 SWAP2 SUB SWAP1 RETURN JUMPDEST PUSH1 0x2 DUP2 DUP2 SLOAD DUP2 LT PUSH2 0x28C JUMPI PUSH1 0x0 DUP1 REVERT JUMPDEST SWAP1 PUSH1 0x0 MSTORE PUSH1 0x20 PUSH1 0x0 KECCAK256 SWAP1 PUSH1 0x2 MUL ADD PUSH1 0x0 SWAP2 POP SWAP1 POP DUP1 PUSH1 0x0 ADD DUP1 SLOAD PUSH2 0x2AF SWAP1 PUSH2 0x1A8A JUMP JUMPDEST DUP1 PUSH1 0x1F ADD PUSH1 0x20 DUP1 SWAP2 DIV MUL PUSH1 0x20 ADD PUSH1 0x40 MLOAD SWAP1 DUP2 ADD PUSH1 0x40 MSTORE DUP1 SWAP3 SWAP2 SWAP1 DUP2 DUP2 MSTORE PUSH1 0x20 ADD DUP3 DUP1 SLOAD PUSH2 0x2DB SWAP1 PUSH2 0x1A8A JUMP JUMPDEST DUP1 ISZERO PUSH2 0x328 JUMPI DUP1 PUSH1 0x1F LT PUSH2 0x2FD JUMPI PUSH2 0x100 DUP1 DUP4 SLOAD DIV MUL DUP4 MSTORE SWAP2 PUSH1 0x20 ADD SWAP2 PUSH2 0x328 JUMP JUMPDEST DUP3 ADD SWAP2 SWAP1 PUSH1 0x0 MSTORE PUSH1 0x20 PUSH1 0x0 KECCAK256 SWAP1 JUMPDEST DUP2 SLOAD DUP2 MSTORE SWAP1 PUSH1 0x1 ADD SWAP1 PUSH1 0x20 ADD DUP1 DUP4 GT PUSH2 0x30B JUMPI DUP3 SWAP1 SUB PUSH1 0x1F AND DUP3 ADD SWAP2 JUMPDEST POP POP POP POP POP SWAP1 DUP1 PUSH1 0x1 ADD DUP1 SLOAD PUSH2 0x33D SWAP1 PUSH2 0x1A8A JUMP JUMPDEST DUP1 PUSH1 0x1F ADD PUSH1 0x20 DUP1 SWAP2 DIV MUL PUSH1 0x20 ADD PUSH1 0x40 MLOAD SWAP1 DUP2 ADD PUSH1 0x40 MSTORE DUP1 SWAP3 SWAP2 SWAP1 DUP2 DUP2 MSTORE PUSH1 0x20 ADD DUP3 DUP1 SLOAD PUSH2 0x369 SWAP1 PUSH2 0x1A8A JUMP JUMPDEST DUP1 ISZERO PUSH2 0x3B6 JUMPI DUP1 PUSH1 0x1F LT PUSH2 0x38B JUMPI PUSH2 0x100 DUP1 DUP4 SLOAD DIV MUL DUP4 MSTORE SWAP2 PUSH1 0x20 ADD SWAP2 PUSH2 0x3B6 JUMP JUMPDEST DUP3 ADD SWAP2 SWAP1 PUSH1 0x0 MSTORE PUSH1 0x20 PUSH1 0x0 KECCAK256 SWAP1 JUMPDEST DUP2 SLOAD DUP2 MSTORE SWAP1 PUSH1 0x1 ADD SWAP1 PUSH1 0x20 ADD DUP1 DUP4 GT PUSH2 0x399 JUMPI DUP3 SWAP1 SUB PUSH1 0x1F AND DUP3 ADD SWAP2 JUMPDEST POP POP POP POP POP SWAP1 POP DUP3 JUMP JUMPDEST PUSH1 0x0 PUSH1 0x1 PUSH1 0x0 CALLER PUSH20 0xFFFFFFFFFFFFFFFFFFFFFFFFFFFFFFFFFFFFFFFF AND PUSH20 0xFFFFFFFFFFFFFFFFFFFFFFFFFFFFFFFFFFFFFFFF AND DUP2 MSTORE PUSH1 0x20 ADD SWAP1 DUP2 MSTORE PUSH1 0x20 ADD PUSH1 0x0 KECCAK256 SWAP1 POP DUP2 DUP2 PUSH1 0x2 ADD DUP2 SWAP1 SSTORE POP POP POP JUMP JUMPDEST PUSH1 0x0 PUSH1 0x60 DUP1 PUSH1 0x2 DUP1 SLOAD SWAP1 POP DUP5 LT PUSH2 0x45C JUMPI PUSH1 0x40 MLOAD PUSH32 0x8C379A000000000000000000000000000000000000000000000000000000000 DUP2 MSTORE PUSH1 0x4 ADD PUSH2 0x453 SWAP1 PUSH2 0x1B07 JUMP JUMPDEST PUSH1 0x40 MLOAD DUP1 SWAP2 SUB SWAP1 REVERT JUMPDEST PUSH1 0x0 PUSH1 0x2 DUP6 DUP2 SLOAD DUP2 LT PUSH2 0x472 JUMPI PUSH2 0x471 PUSH2 0x1B27 JUMP JUMPDEST JUMPDEST SWAP1 PUSH1 0x0 MSTORE PUSH1 0x20 PUSH1 0x0 KECCAK256 SWAP1 PUSH1 0x2 MUL ADD PUSH1 0x40 MLOAD DUP1 PUSH1 0x40 ADD PUSH1 0x40 MSTORE SWAP1 DUP2 PUSH1 0x0 DUP3 ADD DUP1 SLOAD PUSH2 0x49B SWAP1 PUSH2 0x1A8A JUMP JUMPDEST DUP1 PUSH1 0x1F ADD PUSH1 0x20 DUP1 SWAP2 DIV MUL PUSH1 0x20 ADD PUSH1 0x40 MLOAD SWAP1 DUP2 ADD PUSH1 0x40 MSTORE DUP1 SWAP3 SWAP2 SWAP1 DUP2 DUP2 MSTORE PUSH1 0x20 ADD DUP3 DUP1 SLOAD PUSH2 0x4C7 SWAP1 PUSH2 0x1A8A JUMP JUMPDEST DUP1 ISZERO PUSH2 0x514 JUMPI DUP1 PUSH1 0x1F LT PUSH2 0x4E9 JUMPI PUSH2 0x100 DUP1 DUP4 SLOAD DIV MUL DUP4 MSTORE SWAP2 PUSH1 0x20 ADD SWAP2 PUSH2 0x514 JUMP JUMPDEST DUP3 ADD SWAP2 SWAP1 PUSH1 0x0 MSTORE PUSH1 0x20 PUSH1 0x0 KECCAK256 SWAP1 JUMPDEST DUP2 SLOAD DUP2 MSTORE SWAP1 PUSH1 0x1 ADD SWAP1 PUSH1 0x20 ADD DUP1 DUP4 GT PUSH2 0x4F7 JUMPI DUP3 SWAP1 SUB PUSH1 0x1F AND DUP3 ADD SWAP2 JUMPDEST POP POP POP POP POP DUP2 MSTORE PUSH1 0x20 ADD PUSH1 0x1 DUP3 ADD DUP1 SLOAD PUSH2 0x52D SWAP1 PUSH2 0x1A8A JUMP JUMPDEST DUP1 PUSH1 0x1F ADD PUSH1 0x20 DUP1 SWAP2 DIV MUL PUSH1 0x20 ADD PUSH1 0x40 MLOAD SWAP1 DUP2 ADD PUSH1 0x40 MSTORE DUP1 SWAP3 SWAP2 SWAP1 DUP2 DUP2 MSTORE PUSH1 0x20 ADD DUP3 DUP1 SLOAD PUSH2 0x559 SWAP1 PUSH2 0x1A8A JUMP JUMPDEST DUP1 ISZERO PUSH2 0x5A6 JUMPI DUP1 PUSH1 0x1F LT PUSH2 0x57B JUMPI PUSH2 0x100 DUP1 DUP4 SLOAD DIV MUL DUP4 MSTORE SWAP2 PUSH1 0x20 ADD SWAP2 PUSH2 0x5A6 JUMP JUMPDEST DUP3 ADD SWAP2 SWAP1 PUSH1 0x0 MSTORE PUSH1 0x20 PUSH1 0x0 KECCAK256 SWAP1 JUMPDEST DUP2 SLOAD DUP2 MSTORE SWAP1 PUSH1 0x1 ADD SWAP1 PUSH1 0x20 ADD DUP1 DUP4 GT PUSH2 0x589 JUMPI DUP3 SWAP1 SUB PUSH1 0x1F AND DUP3 ADD SWAP2 JUMPDEST POP POP POP POP POP DUP2 MSTORE POP POP SWAP1 POP DUP5 DUP2 PUSH1 0x0 ADD MLOAD DUP3 PUSH1 0x20 ADD MLOAD SWAP4 POP SWAP4 POP SWAP4 POP POP SWAP2 SWAP4 SWAP1 SWAP3 POP JUMP JUMPDEST PUSH1 0x0 DUP1 SLOAD SWAP1 PUSH2 0x100 EXP SWAP1 DIV PUSH20 0xFFFFFFFFFFFFFFFFFFFFFFFFFFFFFFFFFFFFFFFF AND PUSH20 0xFFFFFFFFFFFFFFFFFFFFFFFFFFFFFFFFFFFFFFFF AND CALLER PUSH20 0xFFFFFFFFFFFFFFFFFFFFFFFFFFFFFFFFFFFFFFFF AND EQ PUSH2 0x658 JUMPI PUSH1 0x40 MLOAD PUSH32 0x8C379A000000000000000000000000000000000000000000000000000000000 DUP2 MSTORE PUSH1 0x4 ADD PUSH2 0x64F SWAP1 PUSH2 0x1BC8 JUMP JUMPDEST PUSH1 0x40 MLOAD DUP1 SWAP2 SUB SWAP1 REVERT JUMPDEST PUSH1 0x0 JUMPDEST PUSH1 0x3 DUP1 SLOAD SWAP1 POP DUP2 LT ISZERO PUSH2 0x7CC JUMPI PUSH1 0x0 PUSH1 0x3 DUP3 DUP2 SLOAD DUP2 LT PUSH2 0x67E JUMPI PUSH2 0x67D PUSH2 0x1B27 JUMP JUMPDEST JUMPDEST SWAP1 PUSH1 0x0 MSTORE PUSH1 0x20 PUSH1 0x0 KECCAK256 ADD PUSH1 0x0 SWAP1 SLOAD SWAP1 PUSH2 0x100 EXP SWAP1 DIV PUSH20 0xFFFFFFFFFFFFFFFFFFFFFFFFFFFFFFFFFFFFFFFF AND SWAP1 POP DUP5 PUSH20 0xFFFFFFFFFFFFFFFFFFFFFFFFFFFFFFFFFFFFFFFF AND DUP2 PUSH20 0xFFFFFFFFFFFFFFFFFFFFFFFFFFFFFFFFFFFFFFFF AND SUB PUSH2 0x719 JUMPI PUSH1 0x40 MLOAD PUSH32 0x8C379A000000000000000000000000000000000000000000000000000000000 DUP2 MSTORE PUSH1 0x4 ADD PUSH2 0x710 SWAP1 PUSH2 0x1C5A JUMP JUMPDEST PUSH1 0x40 MLOAD DUP1 SWAP2 SUB SWAP1 REVERT JUMPDEST DUP4 DUP1 MLOAD SWAP1 PUSH1 0x20 ADD KECCAK256 PUSH1 0x1 PUSH1 0x0 DUP4 PUSH20 0xFFFFFFFFFFFFFFFFFFFFFFFFFFFFFFFFFFFFFFFF AND PUSH20 0xFFFFFFFFFFFFFFFFFFFFFFFFFFFFFFFFFFFFFFFF AND DUP2 MSTORE PUSH1 0x20 ADD SWAP1 DUP2 MSTORE PUSH1 0x20 ADD PUSH1 0x0 KECCAK256 PUSH1 0x0 ADD PUSH1 0x40 MLOAD PUSH2 0x770 SWAP2 SWAP1 PUSH2 0x1D1D JUMP JUMPDEST PUSH1 0x40 MLOAD DUP1 SWAP2 SUB SWAP1 KECCAK256 SUB PUSH2 0x7B8 JUMPI PUSH1 0x40 MLOAD PUSH32 0x8C379A000000000000000000000000000000000000000000000000000000000 DUP2 MSTORE PUSH1 0x4 ADD PUSH2 0x7AF SWAP1 PUSH2 0x1D80 JUMP JUMPDEST PUSH1 0x40 MLOAD DUP1 SWAP2 SUB SWAP1 REVERT JUMPDEST POP DUP1 DUP1 PUSH2 0x7C4 SWAP1 PUSH2 0x1DCF JUMP JUMPDEST SWAP2 POP POP PUSH2 0x65B JUMP JUMPDEST POP DUP2 PUSH1 0x1 PUSH1 0x0 DUP6 PUSH20 0xFFFFFFFFFFFFFFFFFFFFFFFFFFFFFFFFFFFFFFFF AND PUSH20 0xFFFFFFFFFFFFFFFFFFFFFFFFFFFFFFFFFFFFFFFF AND DUP2 MSTORE PUSH1 0x20 ADD SWAP1 DUP2 MSTORE PUSH1 0x20 ADD PUSH1 0x0 KECCAK256 PUSH1 0x0 ADD SWAP1 DUP2 PUSH2 0x81C SWAP2 SWAP1 PUSH2 0x1FC3 JUMP JUMPDEST POP DUP1 PUSH1 0x1 PUSH1 0x0 DUP6 PUSH20 0xFFFFFFFFFFFFFFFFFFFFFFFFFFFFFFFFFFFFFFFF AND PUSH20 0xFFFFFFFFFFFFFFFFFFFFFFFFFFFFFFFFFFFFFFFF AND DUP2 MSTORE PUSH1 0x20 ADD SWAP1 DUP2 MSTORE PUSH1 0x20 ADD PUSH1 0x0 KECCAK256 PUSH1 0x1 ADD SWAP1 DUP2 PUSH2 0x86C SWAP2 SWAP1 PUSH2 0x1FC3 JUMP JUMPDEST POP PUSH1 0x0 PUSH1 0x1 PUSH1 0x0 DUP6 PUSH20 0xFFFFFFFFFFFFFFFFFFFFFFFFFFFFFFFFFFFFFFFF AND PUSH20 0xFFFFFFFFFFFFFFFFFFFFFFFFFFFFFFFFFFFFFFFF AND DUP2 MSTORE PUSH1 0x20 ADD SWAP1 DUP2 MSTORE PUSH1 0x20 ADD PUSH1 0x0 KECCAK256 PUSH1 0x2 ADD DUP2 SWAP1 SSTORE POP PUSH1 0x3 DUP4 SWAP1 DUP1 PUSH1 0x1 DUP2 SLOAD ADD DUP1 DUP3 SSTORE DUP1 SWAP2 POP POP PUSH1 0x1 SWAP1 SUB SWAP1 PUSH1 0x0 MSTORE PUSH1 0x20 PUSH1 0x0 KECCAK256 ADD PUSH1 0x0 SWAP1 SWAP2 SWAP1 SWAP2 SWAP1 SWAP2 PUSH2 0x100 EXP DUP2 SLOAD DUP2 PUSH20 0xFFFFFFFFFFFFFFFFFFFFFFFFFFFFFFFFFFFFFFFF MUL NOT AND SWAP1 DUP4 PUSH20 0xFFFFFFFFFFFFFFFFFFFFFFFFFFFFFFFFFFFFFFFF AND MUL OR SWAP1 SSTORE POP POP POP POP JUMP JUMPDEST PUSH1 0x60 PUSH1 0x0 PUSH1 0x3 DUP1 SLOAD SWAP1 POP PUSH8 0xFFFFFFFFFFFFFFFF DUP2 GT ISZERO PUSH2 0x940 JUMPI PUSH2 0x93F PUSH2 0x14BA JUMP JUMPDEST JUMPDEST PUSH1 0x40 MLOAD SWAP1 DUP1 DUP3 MSTORE DUP1 PUSH1 0x20 MUL PUSH1 0x20 ADD DUP3 ADD PUSH1 0x40 MSTORE DUP1 ISZERO PUSH2 0x979 JUMPI DUP2 PUSH1 0x20 ADD JUMPDEST PUSH2 0x966 PUSH2 0x1285 JUMP JUMPDEST DUP2 MSTORE PUSH1 0x20 ADD SWAP1 PUSH1 0x1 SWAP1 SUB SWAP1 DUP2 PUSH2 0x95E JUMPI SWAP1 POP JUMPDEST POP SWAP1 POP PUSH1 0x0 JUMPDEST PUSH1 0x3 DUP1 SLOAD SWAP1 POP DUP2 LT ISZERO PUSH2 0xB79 JUMPI PUSH1 0x0 PUSH1 0x3 DUP3 DUP2 SLOAD DUP2 LT PUSH2 0x9A2 JUMPI PUSH2 0x9A1 PUSH2 0x1B27 JUMP JUMPDEST JUMPDEST SWAP1 PUSH1 0x0 MSTORE PUSH1 0x20 PUSH1 0x0 KECCAK256 ADD PUSH1 0x0 SWAP1 SLOAD SWAP1 PUSH2 0x100 EXP SWAP1 DIV PUSH20 0xFFFFFFFFFFFFFFFFFFFFFFFFFFFFFFFFFFFFFFFF AND SWAP1 POP PUSH1 0x1 PUSH1 0x0 DUP3 PUSH20 0xFFFFFFFFFFFFFFFFFFFFFFFFFFFFFFFFFFFFFFFF AND PUSH20 0xFFFFFFFFFFFFFFFFFFFFFFFFFFFFFFFFFFFFFFFF AND DUP2 MSTORE PUSH1 0x20 ADD SWAP1 DUP2 MSTORE PUSH1 0x20 ADD PUSH1 0x0 KECCAK256 PUSH1 0x40 MLOAD DUP1 PUSH1 0x60 ADD PUSH1 0x40 MSTORE SWAP1 DUP2 PUSH1 0x0 DUP3 ADD DUP1 SLOAD PUSH2 0xA29 SWAP1 PUSH2 0x1A8A JUMP JUMPDEST DUP1 PUSH1 0x1F ADD PUSH1 0x20 DUP1 SWAP2 DIV MUL PUSH1 0x20 ADD PUSH1 0x40 MLOAD SWAP1 DUP2 ADD PUSH1 0x40 MSTORE DUP1 SWAP3 SWAP2 SWAP1 DUP2 DUP2 MSTORE PUSH1 0x20 ADD DUP3 DUP1 SLOAD PUSH2 0xA55 SWAP1 PUSH2 0x1A8A JUMP JUMPDEST DUP1 ISZERO PUSH2 0xAA2 JUMPI DUP1 PUSH1 0x1F LT PUSH2 0xA77 JUMPI PUSH2 0x100 DUP1 DUP4 SLOAD DIV MUL DUP4 MSTORE SWAP2 PUSH1 0x20 ADD SWAP2 PUSH2 0xAA2 JUMP JUMPDEST DUP3 ADD SWAP2 SWAP1 PUSH1 0x0 MSTORE PUSH1 0x20 PUSH1 0x0 KECCAK256 SWAP1 JUMPDEST DUP2 SLOAD DUP2 MSTORE SWAP1 PUSH1 0x1 ADD SWAP1 PUSH1 0x20 ADD DUP1 DUP4 GT PUSH2 0xA85 JUMPI DUP3 SWAP1 SUB PUSH1 0x1F AND DUP3 ADD SWAP2 JUMPDEST POP POP POP POP POP DUP2 MSTORE PUSH1 0x20 ADD PUSH1 0x1 DUP3 ADD DUP1 SLOAD PUSH2 0xABB SWAP1 PUSH2 0x1A8A JUMP JUMPDEST DUP1 PUSH1 0x1F ADD PUSH1 0x20 DUP1 SWAP2 DIV MUL PUSH1 0x20 ADD PUSH1 0x40 MLOAD SWAP1 DUP2 ADD PUSH1 0x40 MSTORE DUP1 SWAP3 SWAP2 SWAP1 DUP2 DUP2 MSTORE PUSH1 0x20 ADD DUP3 DUP1 SLOAD PUSH2 0xAE7 SWAP1 PUSH2 0x1A8A JUMP JUMPDEST DUP1 ISZERO PUSH2 0xB34 JUMPI DUP1 PUSH1 0x1F LT PUSH2 0xB09 JUMPI PUSH2 0x100 DUP1 DUP4 SLOAD DIV MUL DUP4 MSTORE SWAP2 PUSH1 0x20 ADD SWAP2 PUSH2 0xB34 JUMP JUMPDEST DUP3 ADD SWAP2 SWAP1 PUSH1 0x0 MSTORE PUSH1 0x20 PUSH1 0x0 KECCAK256 SWAP1 JUMPDEST DUP2 SLOAD DUP2 MSTORE SWAP1 PUSH1 0x1 ADD SWAP1 PUSH1 0x20 ADD DUP1 DUP4 GT PUSH2 0xB17 JUMPI DUP3 SWAP1 SUB PUSH1 0x1F AND DUP3 ADD SWAP2 JUMPDEST POP POP POP POP POP DUP2 MSTORE PUSH1 0x20 ADD PUSH1 0x2 DUP3 ADD SLOAD DUP2 MSTORE POP POP DUP4 DUP4 DUP2 MLOAD DUP2 LT PUSH2 0xB5A JUMPI PUSH2 0xB59 PUSH2 0x1B27 JUMP JUMPDEST JUMPDEST PUSH1 0x20 MUL PUSH1 0x20 ADD ADD DUP2 SWAP1 MSTORE POP POP DUP1 DUP1 PUSH2 0xB71 SWAP1 PUSH2 0x1DCF JUMP JUMPDEST SWAP2 POP POP PUSH2 0x97F JUMP JUMPDEST POP DUP1 SWAP2 POP POP SWAP1 JUMP JUMPDEST PUSH1 0x0 DUP1 SLOAD SWAP1 PUSH2 0x100 EXP SWAP1 DIV PUSH20 0xFFFFFFFFFFFFFFFFFFFFFFFFFFFFFFFFFFFFFFFF AND PUSH20 0xFFFFFFFFFFFFFFFFFFFFFFFFFFFFFFFFFFFFFFFF AND CALLER PUSH20 0xFFFFFFFFFFFFFFFFFFFFFFFFFFFFFFFFFFFFFFFF AND EQ PUSH2 0xC0F JUMPI PUSH1 0x40 MLOAD PUSH32 0x8C379A000000000000000000000000000000000000000000000000000000000 DUP2 MSTORE PUSH1 0x4 ADD PUSH2 0xC06 SWAP1 PUSH2 0x1BC8 JUMP JUMPDEST PUSH1 0x40 MLOAD DUP1 SWAP2 SUB SWAP1 REVERT JUMPDEST PUSH1 0x0 JUMPDEST PUSH1 0x2 DUP1 SLOAD SWAP1 POP DUP2 LT ISZERO PUSH2 0xCB4 JUMPI DUP3 DUP1 MLOAD SWAP1 PUSH1 0x20 ADD KECCAK256 PUSH1 0x2 DUP3 DUP2 SLOAD DUP2 LT PUSH2 0xC3B JUMPI PUSH2 0xC3A PUSH2 0x1B27 JUMP JUMPDEST JUMPDEST SWAP1 PUSH1 0x0 MSTORE PUSH1 0x20 PUSH1 0x0 KECCAK256 SWAP1 PUSH1 0x2 MUL ADD PUSH1 0x0 ADD PUSH1 0x40 MLOAD PUSH2 0xC59 SWAP2 SWAP1 PUSH2 0x1D1D JUMP JUMPDEST PUSH1 0x40 MLOAD DUP1 SWAP2 SUB SWAP1 KECCAK256 SUB PUSH2 0xCA1 JUMPI PUSH1 0x40 MLOAD PUSH32 0x8C379A000000000000000000000000000000000000000000000000000000000 DUP2 MSTORE PUSH1 0x4 ADD PUSH2 0xC98 SWAP1 PUSH2 0x20E1 JUMP JUMPDEST PUSH1 0x40 MLOAD DUP1 SWAP2 SUB SWAP1 REVERT JUMPDEST DUP1 DUP1 PUSH2 0xCAC SWAP1 PUSH2 0x1DCF JUMP JUMPDEST SWAP2 POP POP PUSH2 0xC12 JUMP JUMPDEST POP PUSH1 0x2 PUSH1 0x40 MLOAD DUP1 PUSH1 0x40 ADD PUSH1 0x40 MSTORE DUP1 DUP5 DUP2 MSTORE PUSH1 0x20 ADD DUP4 DUP2 MSTORE POP SWAP1 DUP1 PUSH1 0x1 DUP2 SLOAD ADD DUP1 DUP3 SSTORE DUP1 SWAP2 POP POP PUSH1 0x1 SWAP1 SUB SWAP1 PUSH1 0x0 MSTORE PUSH1 0x20 PUSH1 0x0 KECCAK256 SWAP1 PUSH1 0x2 MUL ADD PUSH1 0x0 SWAP1 SWAP2 SWAP1 SWAP2 SWAP1 SWAP2 POP PUSH1 0x0 DUP3 ADD MLOAD DUP2 PUSH1 0x0 ADD SWAP1 DUP2 PUSH2 0xD0A SWAP2 SWAP1 PUSH2 0x1FC3 JUMP JUMPDEST POP PUSH1 0x20 DUP3 ADD MLOAD DUP2 PUSH1 0x1 ADD SWAP1 DUP2 PUSH2 0xD20 SWAP2 SWAP1 PUSH2 0x1FC3 JUMP JUMPDEST POP POP POP POP POP JUMP JUMPDEST PUSH1 0x60 PUSH1 0x0 PUSH1 0x2 DUP1 SLOAD SWAP1 POP PUSH8 0xFFFFFFFFFFFFFFFF DUP2 GT ISZERO PUSH2 0xD4A JUMPI PUSH2 0xD49 PUSH2 0x14BA JUMP JUMPDEST JUMPDEST PUSH1 0x40 MLOAD SWAP1 DUP1 DUP3 MSTORE DUP1 PUSH1 0x20 MUL PUSH1 0x20 ADD DUP3 ADD PUSH1 0x40 MSTORE DUP1 ISZERO PUSH2 0xD83 JUMPI DUP2 PUSH1 0x20 ADD JUMPDEST PUSH2 0xD70 PUSH2 0x12A6 JUMP JUMPDEST DUP2 MSTORE PUSH1 0x20 ADD SWAP1 PUSH1 0x1 SWAP1 SUB SWAP1 DUP2 PUSH2 0xD68 JUMPI SWAP1 POP JUMPDEST POP SWAP1 POP PUSH1 0x0 JUMPDEST PUSH1 0x2 DUP1 SLOAD SWAP1 POP DUP2 LT ISZERO PUSH2 0xF36 JUMPI PUSH1 0x40 MLOAD DUP1 PUSH1 0x40 ADD PUSH1 0x40 MSTORE DUP1 PUSH1 0x2 DUP4 DUP2 SLOAD DUP2 LT PUSH2 0xDB5 JUMPI PUSH2 0xDB4 PUSH2 0x1B27 JUMP JUMPDEST JUMPDEST SWAP1 PUSH1 0x0 MSTORE PUSH1 0x20 PUSH1 0x0 KECCAK256 SWAP1 PUSH1 0x2 MUL ADD PUSH1 0x0 ADD DUP1 SLOAD PUSH2 0xDD1 SWAP1 PUSH2 0x1A8A JUMP JUMPDEST DUP1 PUSH1 0x1F ADD PUSH1 0x20 DUP1 SWAP2 DIV MUL PUSH1 0x20 ADD PUSH1 0x40 MLOAD SWAP1 DUP2 ADD PUSH1 0x40 MSTORE DUP1 SWAP3 SWAP2 SWAP1 DUP2 DUP2 MSTORE PUSH1 0x20 ADD DUP3 DUP1 SLOAD PUSH2 0xDFD SWAP1 PUSH2 0x1A8A JUMP JUMPDEST DUP1 ISZERO PUSH2 0xE4A JUMPI DUP1 PUSH1 0x1F LT PUSH2 0xE1F JUMPI PUSH2 0x100 DUP1 DUP4 SLOAD DIV MUL DUP4 MSTORE SWAP2 PUSH1 0x20 ADD SWAP2 PUSH2 0xE4A JUMP JUMPDEST DUP3 ADD SWAP2 SWAP1 PUSH1 0x0 MSTORE PUSH1 0x20 PUSH1 0x0 KECCAK256 SWAP1 JUMPDEST DUP2 SLOAD DUP2 MSTORE SWAP1 PUSH1 0x1 ADD SWAP1 PUSH1 0x20 ADD DUP1 DUP4 GT PUSH2 0xE2D JUMPI DUP3 SWAP1 SUB PUSH1 0x1F AND DUP3 ADD SWAP2 JUMPDEST POP POP POP POP POP DUP2 MSTORE PUSH1 0x20 ADD PUSH1 0x2 DUP4 DUP2 SLOAD DUP2 LT PUSH2 0xE68 JUMPI PUSH2 0xE67 PUSH2 0x1B27 JUMP JUMPDEST JUMPDEST SWAP1 PUSH1 0x0 MSTORE PUSH1 0x20 PUSH1 0x0 KECCAK256 SWAP1 PUSH1 0x2 MUL ADD PUSH1 0x1 ADD DUP1 SLOAD PUSH2 0xE84 SWAP1 PUSH2 0x1A8A JUMP JUMPDEST DUP1 PUSH1 0x1F ADD PUSH1 0x20 DUP1 SWAP2 DIV MUL PUSH1 0x20 ADD PUSH1 0x40 MLOAD SWAP1 DUP2 ADD PUSH1 0x40 MSTORE DUP1 SWAP3 SWAP2 SWAP1 DUP2 DUP2 MSTORE PUSH1 0x20 ADD DUP3 DUP1 SLOAD PUSH2 0xEB0 SWAP1 PUSH2 0x1A8A JUMP JUMPDEST DUP1 ISZERO PUSH2 0xEFD JUMPI DUP1 PUSH1 0x1F LT PUSH2 0xED2 JUMPI PUSH2 0x100 DUP1 DUP4 SLOAD DIV MUL DUP4 MSTORE SWAP2 PUSH1 0x20 ADD SWAP2 PUSH2 0xEFD JUMP JUMPDEST DUP3 ADD SWAP2 SWAP1 PUSH1 0x0 MSTORE PUSH1 0x20 PUSH1 0x0 KECCAK256 SWAP1 JUMPDEST DUP2 SLOAD DUP2 MSTORE SWAP1 PUSH1 0x1 ADD SWAP1 PUSH1 0x20 ADD DUP1 DUP4 GT PUSH2 0xEE0 JUMPI DUP3 SWAP1 SUB PUSH1 0x1F AND DUP3 ADD SWAP2 JUMPDEST POP POP POP POP POP DUP2 MSTORE POP DUP3 DUP3 DUP2 MLOAD DUP2 LT PUSH2 0xF18 JUMPI PUSH2 0xF17 PUSH2 0x1B27 JUMP JUMPDEST JUMPDEST PUSH1 0x20 MUL PUSH1 0x20 ADD ADD DUP2 SWAP1 MSTORE POP DUP1 DUP1 PUSH2 0xF2E SWAP1 PUSH2 0x1DCF JUMP JUMPDEST SWAP2 POP POP PUSH2 0xD89 JUMP JUMPDEST POP DUP1 SWAP2 POP POP SWAP1 JUMP JUMPDEST PUSH1 0x3 DUP2 DUP2 SLOAD DUP2 LT PUSH2 0xF4E JUMPI PUSH1 0x0 DUP1 REVERT JUMPDEST SWAP1 PUSH1 0x0 MSTORE PUSH1 0x20 PUSH1 0x0 KECCAK256 ADD PUSH1 0x0 SWAP2 POP SLOAD SWAP1 PUSH2 0x100 EXP SWAP1 DIV PUSH20 0xFFFFFFFFFFFFFFFFFFFFFFFFFFFFFFFFFFFFFFFF AND DUP2 JUMP JUMPDEST PUSH1 0x0 PUSH1 0x2 DUP1 SLOAD SWAP1 POP SWAP1 POP SWAP1 JUMP JUMPDEST PUSH1 0x1 PUSH1 0x20 MSTORE DUP1 PUSH1 0x0 MSTORE PUSH1 0x40 PUSH1 0x0 KECCAK256 PUSH1 0x0 SWAP2 POP SWAP1 POP DUP1 PUSH1 0x0 ADD DUP1 SLOAD PUSH2 0xFAD SWAP1 PUSH2 0x1A8A JUMP JUMPDEST DUP1 PUSH1 0x1F ADD PUSH1 0x20 DUP1 SWAP2 DIV MUL PUSH1 0x20 ADD PUSH1 0x40 MLOAD SWAP1 DUP2 ADD PUSH1 0x40 MSTORE DUP1 SWAP3 SWAP2 SWAP1 DUP2 DUP2 MSTORE PUSH1 0x20 ADD DUP3 DUP1 SLOAD PUSH2 0xFD9 SWAP1 PUSH2 0x1A8A JUMP JUMPDEST DUP1 ISZERO PUSH2 0x1026 JUMPI DUP1 PUSH1 0x1F LT PUSH2 0xFFB JUMPI PUSH2 0x100 DUP1 DUP4 SLOAD DIV MUL DUP4 MSTORE SWAP2 PUSH1 0x20 ADD SWAP2 PUSH2 0x1026 JUMP JUMPDEST DUP3 ADD SWAP2 SWAP1 PUSH1 0x0 MSTORE PUSH1 0x20 PUSH1 0x0 KECCAK256 SWAP1 JUMPDEST DUP2 SLOAD DUP2 MSTORE SWAP1 PUSH1 0x1 ADD SWAP1 PUSH1 0x20 ADD DUP1 DUP4 GT PUSH2 0x1009 JUMPI DUP3 SWAP1 SUB PUSH1 0x1F AND DUP3 ADD SWAP2 JUMPDEST POP POP POP POP POP SWAP1 DUP1 PUSH1 0x1 ADD DUP1 SLOAD PUSH2 0x103B SWAP1 PUSH2 0x1A8A JUMP JUMPDEST DUP1 PUSH1 0x1F ADD PUSH1 0x20 DUP1 SWAP2 DIV MUL PUSH1 0x20 ADD PUSH1 0x40 MLOAD SWAP1 DUP2 ADD PUSH1 0x40 MSTORE DUP1 SWAP3 SWAP2 SWAP1 DUP2 DUP2 MSTORE PUSH1 0x20 ADD DUP3 DUP1 SLOAD PUSH2 0x1067 SWAP1 PUSH2 0x1A8A JUMP JUMPDEST DUP1 ISZERO PUSH2 0x10B4 JUMPI DUP1 PUSH1 0x1F LT PUSH2 0x1089 JUMPI PUSH2 0x100 DUP1 DUP4 SLOAD DIV MUL DUP4 MSTORE SWAP2 PUSH1 0x20 ADD SWAP2 PUSH2 0x10B4 JUMP JUMPDEST DUP3 ADD SWAP2 SWAP1 PUSH1 0x0 MSTORE PUSH1 0x20 PUSH1 0x0 KECCAK256 SWAP1 JUMPDEST DUP2 SLOAD DUP2 MSTORE SWAP1 PUSH1 0x1 ADD SWAP1 PUSH1 0x20 ADD DUP1 DUP4 GT PUSH2 0x1097 JUMPI DUP3 SWAP1 SUB PUSH1 0x1F AND DUP3 ADD SWAP2 JUMPDEST POP POP POP POP POP SWAP1 DUP1 PUSH1 0x2 ADD SLOAD SWAP1 POP DUP4 JUMP JUMPDEST PUSH1 0x0 DUP1 SLOAD SWAP1 PUSH2 0x100 EXP SWAP1 DIV PUSH20 0xFFFFFFFFFFFFFFFFFFFFFFFFFFFFFFFFFFFFFFFF AND DUP2 JUMP JUMPDEST PUSH1 0x60 DUP1 PUSH1 0x0 DUP1 PUSH1 0x1 PUSH1 0x0 DUP7 PUSH20 0xFFFFFFFFFFFFFFFFFFFFFFFFFFFFFFFFFFFFFFFF AND PUSH20 0xFFFFFFFFFFFFFFFFFFFFFFFFFFFFFFFFFFFFFFFF AND DUP2 MSTORE PUSH1 0x20 ADD SWAP1 DUP2 MSTORE PUSH1 0x20 ADD PUSH1 0x0 KECCAK256 PUSH1 0x40 MLOAD DUP1 PUSH1 0x60 ADD PUSH1 0x40 MSTORE SWAP1 DUP2 PUSH1 0x0 DUP3 ADD DUP1 SLOAD PUSH2 0x1148 SWAP1 PUSH2 0x1A8A JUMP JUMPDEST DUP1 PUSH1 0x1F ADD PUSH1 0x20 DUP1 SWAP2 DIV MUL PUSH1 0x20 ADD PUSH1 0x40 MLOAD SWAP1 DUP2 ADD PUSH1 0x40 MSTORE DUP1 SWAP3 SWAP2 SWAP1 DUP2 DUP2 MSTORE PUSH1 0x20 ADD DUP3 DUP1 SLOAD PUSH2 0x1174 SWAP1 PUSH2 0x1A8A JUMP JUMPDEST DUP1 ISZERO PUSH2 0x11C1 JUMPI DUP1 PUSH1 0x1F LT PUSH2 0x1196 JUMPI PUSH2 0x100 DUP1 DUP4 SLOAD DIV MUL DUP4 MSTORE SWAP2 PUSH1 0x20 ADD SWAP2 PUSH2 0x11C1 JUMP JUMPDEST DUP3 ADD SWAP2 SWAP1 PUSH1 0x0 MSTORE PUSH1 0x20 PUSH1 0x0 KECCAK256 SWAP1 JUMPDEST DUP2 SLOAD DUP2 MSTORE SWAP1 PUSH1 0x1 ADD SWAP1 PUSH1 0x20 ADD DUP1 DUP4 GT PUSH2 0x11A4 JUMPI DUP3 SWAP1 SUB PUSH1 0x1F AND DUP3 ADD SWAP2 JUMPDEST POP POP POP POP POP DUP2 MSTORE PUSH1 0x20 ADD PUSH1 0x1 DUP3 ADD DUP1 SLOAD PUSH2 0x11DA SWAP1 PUSH2 0x1A8A JUMP JUMPDEST DUP1 PUSH1 0x1F ADD PUSH1 0x20 DUP1 SWAP2 DIV MUL PUSH1 0x20 ADD PUSH1 0x40 MLOAD SWAP1 DUP2 ADD PUSH1 0x40 MSTORE DUP1 SWAP3 SWAP2 SWAP1 DUP2 DUP2 MSTORE PUSH1 0x20 ADD DUP3 DUP1 SLOAD PUSH2 0x1206 SWAP1 PUSH2 0x1A8A JUMP JUMPDEST DUP1 ISZERO PUSH2 0x1253 JUMPI DUP1 PUSH1 0x1F LT PUSH2 0x1228 JUMPI PUSH2 0x100 DUP1 DUP4 SLOAD DIV MUL DUP4 MSTORE SWAP2 PUSH1 0x20 ADD SWAP2 PUSH2 0x1253 JUMP JUMPDEST DUP3 ADD SWAP2 SWAP1 PUSH1 0x0 MSTORE PUSH1 0x20 PUSH1 0x0 KECCAK256 SWAP1 JUMPDEST DUP2 SLOAD DUP2 MSTORE SWAP1 PUSH1 0x1 ADD SWAP1 PUSH1 0x20 ADD DUP1 DUP4 GT PUSH2 0x1236 JUMPI DUP3 SWAP1 SUB PUSH1 0x1F AND DUP3 ADD SWAP2 JUMPDEST POP POP POP POP POP DUP2 MSTORE PUSH1 0x20 ADD PUSH1 0x2 DUP3 ADD SLOAD DUP2 MSTORE POP POP SWAP1 POP DUP1 PUSH1 0x0 ADD MLOAD DUP2 PUSH1 0x20 ADD MLOAD DUP3 PUSH1 0x40 ADD MLOAD SWAP4 POP SWAP4 POP SWAP4 POP POP SWAP2 SWAP4 SWAP1 SWAP3 POP JUMP JUMPDEST PUSH1 0x40 MLOAD DUP1 PUSH1 0x60 ADD PUSH1 0x40 MSTORE DUP1 PUSH1 0x60 DUP2 MSTORE PUSH1 0x20 ADD PUSH1 0x60 DUP2 MSTORE PUSH1 0x20 ADD PUSH1 0x0 DUP2 MSTORE POP SWAP1 JUMP JUMPDEST PUSH1 0x40 MLOAD DUP1 PUSH1 0x40 ADD PUSH1 0x40 MSTORE DUP1 PUSH1 0x60 DUP2 MSTORE PUSH1 0x20 ADD PUSH1 0x60 DUP2 MSTORE POP SWAP1 JUMP JUMPDEST PUSH1 0x0 PUSH1 0x40 MLOAD SWAP1 POP SWAP1 JUMP JUMPDEST PUSH1 0x0 DUP1 REVERT JUMPDEST PUSH1 0x0 DUP1 REVERT JUMPDEST PUSH1 0x0 DUP2 SWAP1 POP SWAP2 SWAP1 POP JUMP JUMPDEST PUSH2 0x12E7 DUP2 PUSH2 0x12D4 JUMP JUMPDEST DUP2 EQ PUSH2 0x12F2 JUMPI PUSH1 0x0 DUP1 REVERT JUMPDEST POP JUMP JUMPDEST PUSH1 0x0 DUP2 CALLDATALOAD SWAP1 POP PUSH2 0x1304 DUP2 PUSH2 0x12DE JUMP JUMPDEST SWAP3 SWAP2 POP POP JUMP JUMPDEST PUSH1 0x0 PUSH1 0x20 DUP3 DUP5 SUB SLT ISZERO PUSH2 0x1320 JUMPI PUSH2 0x131F PUSH2 0x12CA JUMP JUMPDEST JUMPDEST PUSH1 0x0 PUSH2 0x132E DUP5 DUP3 DUP6 ADD PUSH2 0x12F5 JUMP JUMPDEST SWAP2 POP POP SWAP3 SWAP2 POP POP JUMP JUMPDEST PUSH1 0x0 DUP2 MLOAD SWAP1 POP SWAP2 SWAP1 POP JUMP JUMPDEST PUSH1 0x0 DUP3 DUP3 MSTORE PUSH1 0x20 DUP3 ADD SWAP1 POP SWAP3 SWAP2 POP POP JUMP JUMPDEST PUSH1 0x0 JUMPDEST DUP4 DUP2 LT ISZERO PUSH2 0x1371 JUMPI DUP1 DUP3 ADD MLOAD DUP2 DUP5 ADD MSTORE PUSH1 0x20 DUP2 ADD SWAP1 POP PUSH2 0x1356 JUMP JUMPDEST PUSH1 0x0 DUP5 DUP5 ADD MSTORE POP POP POP POP JUMP JUMPDEST PUSH1 0x0 PUSH1 0x1F NOT PUSH1 0x1F DUP4 ADD AND SWAP1 POP SWAP2 SWAP1 POP JUMP JUMPDEST PUSH1 0x0 PUSH2 0x1399 DUP3 PUSH2 0x1337 JUMP JUMPDEST PUSH2 0x13A3 DUP2 DUP6 PUSH2 0x1342 JUMP JUMPDEST SWAP4 POP PUSH2 0x13B3 DUP2 DUP6 PUSH1 0x20 DUP7 ADD PUSH2 0x1353 JUMP JUMPDEST PUSH2 0x13BC DUP2 PUSH2 0x137D JUMP JUMPDEST DUP5 ADD SWAP2 POP POP SWAP3 SWAP2 POP POP JUMP JUMPDEST PUSH1 0x0 PUSH1 0x40 DUP3 ADD SWAP1 POP DUP2 DUP2 SUB PUSH1 0x0 DUP4 ADD MSTORE PUSH2 0x13E1 DUP2 DUP6 PUSH2 0x138E JUMP JUMPDEST SWAP1 POP DUP2 DUP2 SUB PUSH1 0x20 DUP4 ADD MSTORE PUSH2 0x13F5 DUP2 DUP5 PUSH2 0x138E JUMP JUMPDEST SWAP1 POP SWAP4 SWAP3 POP POP POP JUMP JUMPDEST PUSH2 0x1407 DUP2 PUSH2 0x12D4 JUMP JUMPDEST DUP3 MSTORE POP POP JUMP JUMPDEST PUSH1 0x0 PUSH1 0x60 DUP3 ADD SWAP1 POP PUSH2 0x1422 PUSH1 0x0 DUP4 ADD DUP7 PUSH2 0x13FE JUMP JUMPDEST DUP2 DUP2 SUB PUSH1 0x20 DUP4 ADD MSTORE PUSH2 0x1434 DUP2 DUP6 PUSH2 0x138E JUMP JUMPDEST SWAP1 POP DUP2 DUP2 SUB PUSH1 0x40 DUP4 ADD MSTORE PUSH2 0x1448 DUP2 DUP5 PUSH2 0x138E JUMP JUMPDEST SWAP1 POP SWAP5 SWAP4 POP POP POP POP JUMP JUMPDEST PUSH1 0x0 PUSH20 0xFFFFFFFFFFFFFFFFFFFFFFFFFFFFFFFFFFFFFFFF DUP3 AND SWAP1 POP SWAP2 SWAP1 POP JUMP JUMPDEST PUSH1 0x0 PUSH2 0x147D DUP3 PUSH2 0x1452 JUMP JUMPDEST SWAP1 POP SWAP2 SWAP1 POP JUMP JUMPDEST PUSH2 0x148D DUP2 PUSH2 0x1472 JUMP JUMPDEST DUP2 EQ PUSH2 0x1498 JUMPI PUSH1 0x0 DUP1 REVERT JUMPDEST POP JUMP JUMPDEST PUSH1 0x0 DUP2 CALLDATALOAD SWAP1 POP PUSH2 0x14AA DUP2 PUSH2 0x1484 JUMP JUMPDEST SWAP3 SWAP2 POP POP JUMP JUMPDEST PUSH1 0x0 DUP1 REVERT JUMPDEST PUSH1 0x0 DUP1 REVERT JUMPDEST PUSH32 0x4E487B7100000000000000000000000000000000000000000000000000000000 PUSH1 0x0 MSTORE PUSH1 0x41 PUSH1 0x4 MSTORE PUSH1 0x24 PUSH1 0x0 REVERT JUMPDEST PUSH2 0x14F2 DUP3 PUSH2 0x137D JUMP JUMPDEST DUP2 ADD DUP2 DUP2 LT PUSH8 0xFFFFFFFFFFFFFFFF DUP3 GT OR ISZERO PUSH2 0x1511 JUMPI PUSH2 0x1510 PUSH2 0x14BA JUMP JUMPDEST JUMPDEST DUP1 PUSH1 0x40 MSTORE POP POP POP JUMP JUMPDEST PUSH1 0x0 PUSH2 0x1524 PUSH2 0x12C0 JUMP JUMPDEST SWAP1 POP PUSH2 0x1530 DUP3 DUP3 PUSH2 0x14E9 JUMP JUMPDEST SWAP2 SWAP1 POP JUMP JUMPDEST PUSH1 0x0 PUSH8 0xFFFFFFFFFFFFFFFF DUP3 GT ISZERO PUSH2 0x1550 JUMPI PUSH2 0x154F PUSH2 0x14BA JUMP JUMPDEST JUMPDEST PUSH2 0x1559 DUP3 PUSH2 0x137D JUMP JUMPDEST SWAP1 POP PUSH1 0x20 DUP2 ADD SWAP1 POP SWAP2 SWAP1 POP JUMP JUMPDEST DUP3 DUP2 DUP4 CALLDATACOPY PUSH1 0x0 DUP4 DUP4 ADD MSTORE POP POP POP JUMP JUMPDEST PUSH1 0x0 PUSH2 0x1588 PUSH2 0x1583 DUP5 PUSH2 0x1535 JUMP JUMPDEST PUSH2 0x151A JUMP JUMPDEST SWAP1 POP DUP3 DUP2 MSTORE PUSH1 0x20 DUP2 ADD DUP5 DUP5 DUP5 ADD GT ISZERO PUSH2 0x15A4 JUMPI PUSH2 0x15A3 PUSH2 0x14B5 JUMP JUMPDEST JUMPDEST PUSH2 0x15AF DUP5 DUP3 DUP6 PUSH2 0x1566 JUMP JUMPDEST POP SWAP4 SWAP3 POP POP POP JUMP JUMPDEST PUSH1 0x0 DUP3 PUSH1 0x1F DUP4 ADD SLT PUSH2 0x15CC JUMPI PUSH2 0x15CB PUSH2 0x14B0 JUMP JUMPDEST JUMPDEST DUP2 CALLDATALOAD PUSH2 0x15DC DUP5 DUP3 PUSH1 0x20 DUP7 ADD PUSH2 0x1575 JUMP JUMPDEST SWAP2 POP POP SWAP3 SWAP2 POP POP JUMP JUMPDEST PUSH1 0x0 DUP1 PUSH1 0x0 PUSH1 0x60 DUP5 DUP7 SUB SLT ISZERO PUSH2 0x15FE JUMPI PUSH2 0x15FD PUSH2 0x12CA JUMP JUMPDEST JUMPDEST PUSH1 0x0 PUSH2 0x160C DUP7 DUP3 DUP8 ADD PUSH2 0x149B JUMP JUMPDEST SWAP4 POP POP PUSH1 0x20 DUP5 ADD CALLDATALOAD PUSH8 0xFFFFFFFFFFFFFFFF DUP2 GT ISZERO PUSH2 0x162D JUMPI PUSH2 0x162C PUSH2 0x12CF JUMP JUMPDEST JUMPDEST PUSH2 0x1639 DUP7 DUP3 DUP8 ADD PUSH2 0x15B7 JUMP JUMPDEST SWAP3 POP POP PUSH1 0x40 DUP5 ADD CALLDATALOAD PUSH8 0xFFFFFFFFFFFFFFFF DUP2 GT ISZERO PUSH2 0x165A JUMPI PUSH2 0x1659 PUSH2 0x12CF JUMP JUMPDEST JUMPDEST PUSH2 0x1666 DUP7 DUP3 DUP8 ADD PUSH2 0x15B7 JUMP JUMPDEST SWAP2 POP POP SWAP3 POP SWAP3 POP SWAP3 JUMP JUMPDEST PUSH1 0x0 DUP2 MLOAD SWAP1 POP SWAP2 SWAP1 POP JUMP JUMPDEST PUSH1 0x0 DUP3 DUP3 MSTORE PUSH1 0x20 DUP3 ADD SWAP1 POP SWAP3 SWAP2 POP POP JUMP JUMPDEST PUSH1 0x0 DUP2 SWAP1 POP PUSH1 0x20 DUP3 ADD SWAP1 POP SWAP2 SWAP1 POP JUMP JUMPDEST PUSH1 0x0 DUP3 DUP3 MSTORE PUSH1 0x20 DUP3 ADD SWAP1 POP SWAP3 SWAP2 POP POP JUMP JUMPDEST PUSH1 0x0 PUSH2 0x16B8 DUP3 PUSH2 0x1337 JUMP JUMPDEST PUSH2 0x16C2 DUP2 DUP6 PUSH2 0x169C JUMP JUMPDEST SWAP4 POP PUSH2 0x16D2 DUP2 DUP6 PUSH1 0x20 DUP7 ADD PUSH2 0x1353 JUMP JUMPDEST PUSH2 0x16DB DUP2 PUSH2 0x137D JUMP JUMPDEST DUP5 ADD SWAP2 POP POP SWAP3 SWAP2 POP POP JUMP JUMPDEST PUSH2 0x16EF DUP2 PUSH2 0x12D4 JUMP JUMPDEST DUP3 MSTORE POP POP JUMP JUMPDEST PUSH1 0x0 PUSH1 0x60 DUP4 ADD PUSH1 0x0 DUP4 ADD MLOAD DUP5 DUP3 SUB PUSH1 0x0 DUP7 ADD MSTORE PUSH2 0x1712 DUP3 DUP3 PUSH2 0x16AD JUMP JUMPDEST SWAP2 POP POP PUSH1 0x20 DUP4 ADD MLOAD DUP5 DUP3 SUB PUSH1 0x20 DUP7 ADD MSTORE PUSH2 0x172C DUP3 DUP3 PUSH2 0x16AD JUMP JUMPDEST SWAP2 POP POP PUSH1 0x40 DUP4 ADD MLOAD PUSH2 0x1741 PUSH1 0x40 DUP7 ADD DUP3 PUSH2 0x16E6 JUMP JUMPDEST POP DUP1 SWAP2 POP POP SWAP3 SWAP2 POP POP JUMP JUMPDEST PUSH1 0x0 PUSH2 0x1758 DUP4 DUP4 PUSH2 0x16F5 JUMP JUMPDEST SWAP1 POP SWAP3 SWAP2 POP POP JUMP JUMPDEST PUSH1 0x0 PUSH1 0x20 DUP3 ADD SWAP1 POP SWAP2 SWAP1 POP JUMP JUMPDEST PUSH1 0x0 PUSH2 0x1778 DUP3 PUSH2 0x1670 JUMP JUMPDEST PUSH2 0x1782 DUP2 DUP6 PUSH2 0x167B JUMP JUMPDEST SWAP4 POP DUP4 PUSH1 0x20 DUP3 MUL DUP6 ADD PUSH2 0x1794 DUP6 PUSH2 0x168C JUMP JUMPDEST DUP1 PUSH1 0x0 JUMPDEST DUP6 DUP2 LT ISZERO PUSH2 0x17D0 JUMPI DUP5 DUP5 SUB DUP10 MSTORE DUP2 MLOAD PUSH2 0x17B1 DUP6 DUP3 PUSH2 0x174C JUMP JUMPDEST SWAP5 POP PUSH2 0x17BC DUP4 PUSH2 0x1760 JUMP JUMPDEST SWAP3 POP PUSH1 0x20 DUP11 ADD SWAP10 POP POP PUSH1 0x1 DUP2 ADD SWAP1 POP PUSH2 0x1798 JUMP JUMPDEST POP DUP3 SWAP8 POP DUP8 SWAP6 POP POP POP POP POP POP SWAP3 SWAP2 POP POP JUMP JUMPDEST PUSH1 0x0 PUSH1 0x20 DUP3 ADD SWAP1 POP DUP2 DUP2 SUB PUSH1 0x0 DUP4 ADD MSTORE PUSH2 0x17FC DUP2 DUP5 PUSH2 0x176D JUMP JUMPDEST SWAP1 POP SWAP3 SWAP2 POP POP JUMP JUMPDEST PUSH1 0x0 DUP1 PUSH1 0x40 DUP4 DUP6 SUB SLT ISZERO PUSH2 0x181B JUMPI PUSH2 0x181A PUSH2 0x12CA JUMP JUMPDEST JUMPDEST PUSH1 0x0 DUP4 ADD CALLDATALOAD PUSH8 0xFFFFFFFFFFFFFFFF DUP2 GT ISZERO PUSH2 0x1839 JUMPI PUSH2 0x1838 PUSH2 0x12CF JUMP JUMPDEST JUMPDEST PUSH2 0x1845 DUP6 DUP3 DUP7 ADD PUSH2 0x15B7 JUMP JUMPDEST SWAP3 POP POP PUSH1 0x20 DUP4 ADD CALLDATALOAD PUSH8 0xFFFFFFFFFFFFFFFF DUP2 GT ISZERO PUSH2 0x1866 JUMPI PUSH2 0x1865 PUSH2 0x12CF JUMP JUMPDEST JUMPDEST PUSH2 0x1872 DUP6 DUP3 DUP7 ADD PUSH2 0x15B7 JUMP JUMPDEST SWAP2 POP POP SWAP3 POP SWAP3 SWAP1 POP JUMP JUMPDEST PUSH1 0x0 DUP2 MLOAD SWAP1 POP SWAP2 SWAP1 POP JUMP JUMPDEST PUSH1 0x0 DUP3 DUP3 MSTORE PUSH1 0x20 DUP3 ADD SWAP1 POP SWAP3 SWAP2 POP POP JUMP JUMPDEST PUSH1 0x0 DUP2 SWAP1 POP PUSH1 0x20 DUP3 ADD SWAP1 POP SWAP2 SWAP1 POP JUMP JUMPDEST PUSH1 0x0 PUSH1 0x40 DUP4 ADD PUSH1 0x0 DUP4 ADD MLOAD DUP5 DUP3 SUB PUSH1 0x0 DUP7 ADD MSTORE PUSH2 0x18C5 DUP3 DUP3 PUSH2 0x16AD JUMP JUMPDEST SWAP2 POP POP PUSH1 0x20 DUP4 ADD MLOAD DUP5 DUP3 SUB PUSH1 0x20 DUP7 ADD MSTORE PUSH2 0x18DF DUP3 DUP3 PUSH2 0x16AD JUMP JUMPDEST SWAP2 POP POP DUP1 SWAP2 POP POP SWAP3 SWAP2 POP POP JUMP JUMPDEST PUSH1 0x0 PUSH2 0x18F8 DUP4 DUP4 PUSH2 0x18A8 JUMP JUMPDEST SWAP1 POP SWAP3 SWAP2 POP POP JUMP JUMPDEST PUSH1 0x0 PUSH1 0x20 DUP3 ADD SWAP1 POP SWAP2 SWAP1 POP JUMP JUMPDEST PUSH1 0x0 PUSH2 0x1918 DUP3 PUSH2 0x187C JUMP JUMPDEST PUSH2 0x1922 DUP2 DUP6 PUSH2 0x1887 JUMP JUMPDEST SWAP4 POP DUP4 PUSH1 0x20 DUP3 MUL DUP6 ADD PUSH2 0x1934 DUP6 PUSH2 0x1898 JUMP JUMPDEST DUP1 PUSH1 0x0 JUMPDEST DUP6 DUP2 LT ISZERO PUSH2 0x1970 JUMPI DUP5 DUP5 SUB DUP10 MSTORE DUP2 MLOAD PUSH2 0x1951 DUP6 DUP3 PUSH2 0x18EC JUMP JUMPDEST SWAP5 POP PUSH2 0x195C DUP4 PUSH2 0x1900 JUMP JUMPDEST SWAP3 POP PUSH1 0x20 DUP11 ADD SWAP10 POP POP PUSH1 0x1 DUP2 ADD SWAP1 POP PUSH2 0x1938 JUMP JUMPDEST POP DUP3 SWAP8 POP DUP8 SWAP6 POP POP POP POP POP POP SWAP3 SWAP2 POP POP JUMP JUMPDEST PUSH1 0x0 PUSH1 0x20 DUP3 ADD SWAP1 POP DUP2 DUP2 SUB PUSH1 0x0 DUP4 ADD MSTORE PUSH2 0x199C DUP2 DUP5 PUSH2 0x190D JUMP JUMPDEST SWAP1 POP SWAP3 SWAP2 POP POP JUMP JUMPDEST PUSH2 0x19AD DUP2 PUSH2 0x1472 JUMP JUMPDEST DUP3 MSTORE POP POP JUMP JUMPDEST PUSH1 0x0 PUSH1 0x20 DUP3 ADD SWAP1 POP PUSH2 0x19C8 PUSH1 0x0 DUP4 ADD DUP5 PUSH2 0x19A4 JUMP JUMPDEST SWAP3 SWAP2 POP POP JUMP JUMPDEST PUSH1 0x0 PUSH1 0x20 DUP3 ADD SWAP1 POP PUSH2 0x19E3 PUSH1 0x0 DUP4 ADD DUP5 PUSH2 0x13FE JUMP JUMPDEST SWAP3 SWAP2 POP POP JUMP JUMPDEST PUSH1 0x0 PUSH1 0x20 DUP3 DUP5 SUB SLT ISZERO PUSH2 0x19FF JUMPI PUSH2 0x19FE PUSH2 0x12CA JUMP JUMPDEST JUMPDEST PUSH1 0x0 PUSH2 0x1A0D DUP5 DUP3 DUP6 ADD PUSH2 0x149B JUMP JUMPDEST SWAP2 POP POP SWAP3 SWAP2 POP POP JUMP JUMPDEST PUSH1 0x0 PUSH1 0x60 DUP3 ADD SWAP1 POP DUP2 DUP2 SUB PUSH1 0x0 DUP4 ADD MSTORE PUSH2 0x1A30 DUP2 DUP7 PUSH2 0x138E JUMP JUMPDEST SWAP1 POP DUP2 DUP2 SUB PUSH1 0x20 DUP4 ADD MSTORE PUSH2 0x1A44 DUP2 DUP6 PUSH2 0x138E JUMP JUMPDEST SWAP1 POP PUSH2 0x1A53 PUSH1 0x40 DUP4 ADD DUP5 PUSH2 0x13FE JUMP JUMPDEST SWAP5 SWAP4 POP POP POP POP JUMP JUMPDEST PUSH32 0x4E487B7100000000000000000000000000000000000000000000000000000000 PUSH1 0x0 MSTORE PUSH1 0x22 PUSH1 0x4 MSTORE PUSH1 0x24 PUSH1 0x0 REVERT JUMPDEST PUSH1 0x0 PUSH1 0x2 DUP3 DIV SWAP1 POP PUSH1 0x1 DUP3 AND DUP1 PUSH2 0x1AA2 JUMPI PUSH1 0x7F DUP3 AND SWAP2 POP JUMPDEST PUSH1 0x20 DUP3 LT DUP2 SUB PUSH2 0x1AB5 JUMPI PUSH2 0x1AB4 PUSH2 0x1A5B JUMP JUMPDEST JUMPDEST POP SWAP2 SWAP1 POP JUMP JUMPDEST PUSH32 0x496E76616C6964206A6F62204944000000000000000000000000000000000000 PUSH1 0x0 DUP3 ADD MSTORE POP JUMP JUMPDEST PUSH1 0x0 PUSH2 0x1AF1 PUSH1 0xE DUP4 PUSH2 0x1342 JUMP JUMPDEST SWAP2 POP PUSH2 0x1AFC DUP3 PUSH2 0x1ABB JUMP JUMPDEST PUSH1 0x20 DUP3 ADD SWAP1 POP SWAP2 SWAP1 POP JUMP JUMPDEST PUSH1 0x0 PUSH1 0x20 DUP3 ADD SWAP1 POP DUP2 DUP2 SUB PUSH1 0x0 DUP4 ADD MSTORE PUSH2 0x1B20 DUP2 PUSH2 0x1AE4 JUMP JUMPDEST SWAP1 POP SWAP2 SWAP1 POP JUMP JUMPDEST PUSH32 0x4E487B7100000000000000000000000000000000000000000000000000000000 PUSH1 0x0 MSTORE PUSH1 0x32 PUSH1 0x4 MSTORE PUSH1 0x24 PUSH1 0x0 REVERT JUMPDEST PUSH32 0x4F6E6C79207468652061646D696E2063616E20706572666F726D207468697320 PUSH1 0x0 DUP3 ADD MSTORE PUSH32 0x616374696F6E0000000000000000000000000000000000000000000000000000 PUSH1 0x20 DUP3 ADD MSTORE POP JUMP JUMPDEST PUSH1 0x0 PUSH2 0x1BB2 PUSH1 0x26 DUP4 PUSH2 0x1342 JUMP JUMPDEST SWAP2 POP PUSH2 0x1BBD DUP3 PUSH2 0x1B56 JUMP JUMPDEST PUSH1 0x40 DUP3 ADD SWAP1 POP SWAP2 SWAP1 POP JUMP JUMPDEST PUSH1 0x0 PUSH1 0x20 DUP3 ADD SWAP1 POP DUP2 DUP2 SUB PUSH1 0x0 DUP4 ADD MSTORE PUSH2 0x1BE1 DUP2 PUSH2 0x1BA5 JUMP JUMPDEST SWAP1 POP SWAP2 SWAP1 POP JUMP JUMPDEST PUSH32 0x4170706C6963616E7420776974682073616D6520616464726573732069732061 PUSH1 0x0 DUP3 ADD MSTORE PUSH32 0x6C72656164792072656769737465726564000000000000000000000000000000 PUSH1 0x20 DUP3 ADD MSTORE POP JUMP JUMPDEST PUSH1 0x0 PUSH2 0x1C44 PUSH1 0x31 DUP4 PUSH2 0x1342 JUMP JUMPDEST SWAP2 POP PUSH2 0x1C4F DUP3 PUSH2 0x1BE8 JUMP JUMPDEST PUSH1 0x40 DUP3 ADD SWAP1 POP SWAP2 SWAP1 POP JUMP JUMPDEST PUSH1 0x0 PUSH1 0x20 DUP3 ADD SWAP1 POP DUP2 DUP2 SUB PUSH1 0x0 DUP4 ADD MSTORE PUSH2 0x1C73 DUP2 PUSH2 0x1C37 JUMP JUMPDEST SWAP1 POP SWAP2 SWAP1 POP JUMP JUMPDEST PUSH1 0x0 DUP2 SWAP1 POP SWAP3 SWAP2 POP POP JUMP JUMPDEST PUSH1 0x0 DUP2 SWAP1 POP DUP2 PUSH1 0x0 MSTORE PUSH1 0x20 PUSH1 0x0 KECCAK256 SWAP1 POP SWAP2 SWAP1 POP JUMP JUMPDEST PUSH1 0x0 DUP2 SLOAD PUSH2 0x1CA7 DUP2 PUSH2 0x1A8A JUMP JUMPDEST PUSH2 0x1CB1 DUP2 DUP7 PUSH2 0x1C7A JUMP JUMPDEST SWAP5 POP PUSH1 0x1 DUP3 AND PUSH1 0x0 DUP2 EQ PUSH2 0x1CCC JUMPI PUSH1 0x1 DUP2 EQ PUSH2 0x1CE1 JUMPI PUSH2 0x1D14 JUMP JUMPDEST PUSH1 0xFF NOT DUP4 AND DUP7 MSTORE DUP2 ISZERO ISZERO DUP3 MUL DUP7 ADD SWAP4 POP PUSH2 0x1D14 JUMP JUMPDEST PUSH2 0x1CEA DUP6 PUSH2 0x1C85 JUMP JUMPDEST PUSH1 0x0 JUMPDEST DUP4 DUP2 LT ISZERO PUSH2 0x1D0C JUMPI DUP2 SLOAD DUP2 DUP10 ADD MSTORE PUSH1 0x1 DUP3 ADD SWAP2 POP PUSH1 0x20 DUP2 ADD SWAP1 POP PUSH2 0x1CED JUMP JUMPDEST DUP4 DUP9 ADD SWAP6 POP POP POP JUMPDEST POP POP POP SWAP3 SWAP2 POP POP JUMP JUMPDEST PUSH1 0x0 PUSH2 0x1D29 DUP3 DUP5 PUSH2 0x1C9A JUMP JUMPDEST SWAP2 POP DUP2 SWAP1 POP SWAP3 SWAP2 POP POP JUMP JUMPDEST PUSH32 0x4170706C6963616E7420697320616C72656164792070726573656E7400000000 PUSH1 0x0 DUP3 ADD MSTORE POP JUMP JUMPDEST PUSH1 0x0 PUSH2 0x1D6A PUSH1 0x1C DUP4 PUSH2 0x1342 JUMP JUMPDEST SWAP2 POP PUSH2 0x1D75 DUP3 PUSH2 0x1D34 JUMP JUMPDEST PUSH1 0x20 DUP3 ADD SWAP1 POP SWAP2 SWAP1 POP JUMP JUMPDEST PUSH1 0x0 PUSH1 0x20 DUP3 ADD SWAP1 POP DUP2 DUP2 SUB PUSH1 0x0 DUP4 ADD MSTORE PUSH2 0x1D99 DUP2 PUSH2 0x1D5D JUMP JUMPDEST SWAP1 POP SWAP2 SWAP1 POP JUMP JUMPDEST PUSH32 0x4E487B7100000000000000000000000000000000000000000000000000000000 PUSH1 0x0 MSTORE PUSH1 0x11 PUSH1 0x4 MSTORE PUSH1 0x24 PUSH1 0x0 REVERT JUMPDEST PUSH1 0x0 PUSH2 0x1DDA DUP3 PUSH2 0x12D4 JUMP JUMPDEST SWAP2 POP PUSH32 0xFFFFFFFFFFFFFFFFFFFFFFFFFFFFFFFFFFFFFFFFFFFFFFFFFFFFFFFFFFFFFFFF DUP3 SUB PUSH2 0x1E0C JUMPI PUSH2 0x1E0B PUSH2 0x1DA0 JUMP JUMPDEST JUMPDEST PUSH1 0x1 DUP3 ADD SWAP1 POP SWAP2 SWAP1 POP JUMP JUMPDEST PUSH1 0x0 DUP2 SWAP1 POP DUP2 PUSH1 0x0 MSTORE PUSH1 0x20 PUSH1 0x0 KECCAK256 SWAP1 POP SWAP2 SWAP1 POP JUMP JUMPDEST PUSH1 0x0 PUSH1 0x20 PUSH1 0x1F DUP4 ADD DIV SWAP1 POP SWAP2 SWAP1 POP JUMP JUMPDEST PUSH1 0x0 DUP3 DUP3 SHL SWAP1 POP SWAP3 SWAP2 POP POP JUMP JUMPDEST PUSH1 0x0 PUSH1 0x8 DUP4 MUL PUSH2 0x1E79 PUSH32 0xFFFFFFFFFFFFFFFFFFFFFFFFFFFFFFFFFFFFFFFFFFFFFFFFFFFFFFFFFFFFFFFF DUP3 PUSH2 0x1E3C JUMP JUMPDEST PUSH2 0x1E83 DUP7 DUP4 PUSH2 0x1E3C JUMP JUMPDEST SWAP6 POP DUP1 NOT DUP5 AND SWAP4 POP DUP1 DUP7 AND DUP5 OR SWAP3 POP POP POP SWAP4 SWAP3 POP POP POP JUMP JUMPDEST PUSH1 0x0 DUP2 SWAP1 POP SWAP2 SWAP1 POP JUMP JUMPDEST PUSH1 0x0 PUSH2 0x1EC0 PUSH2 0x1EBB PUSH2 0x1EB6 DUP5 PUSH2 0x12D4 JUMP JUMPDEST PUSH2 0x1E9B JUMP JUMPDEST PUSH2 0x12D4 JUMP JUMPDEST SWAP1 POP SWAP2 SWAP1 POP JUMP JUMPDEST PUSH1 0x0 DUP2 SWAP1 POP SWAP2 SWAP1 POP JUMP JUMPDEST PUSH2 0x1EDA DUP4 PUSH2 0x1EA5 JUMP JUMPDEST PUSH2 0x1EEE PUSH2 0x1EE6 DUP3 PUSH2 0x1EC7 JUMP JUMPDEST DUP5 DUP5 SLOAD PUSH2 0x1E49 JUMP JUMPDEST DUP3 SSTORE POP POP POP POP JUMP JUMPDEST PUSH1 0x0 SWAP1 JUMP JUMPDEST PUSH2 0x1F03 PUSH2 0x1EF6 JUMP JUMPDEST PUSH2 0x1F0E DUP2 DUP5 DUP5 PUSH2 0x1ED1 JUMP JUMPDEST POP POP POP JUMP JUMPDEST JUMPDEST DUP2 DUP2 LT ISZERO PUSH2 0x1F32 JUMPI PUSH2 0x1F27 PUSH1 0x0 DUP3 PUSH2 0x1EFB JUMP JUMPDEST PUSH1 0x1 DUP2 ADD SWAP1 POP PUSH2 0x1F14 JUMP JUMPDEST POP POP JUMP JUMPDEST PUSH1 0x1F DUP3 GT ISZERO PUSH2 0x1F77 JUMPI PUSH2 0x1F48 DUP2 PUSH2 0x1E17 JUMP JUMPDEST PUSH2 0x1F51 DUP5 PUSH2 0x1E2C JUMP JUMPDEST DUP2 ADD PUSH1 0x20 DUP6 LT ISZERO PUSH2 0x1F60 JUMPI DUP2 SWAP1 POP JUMPDEST PUSH2 0x1F74 PUSH2 0x1F6C DUP6 PUSH2 0x1E2C JUMP JUMPDEST DUP4 ADD DUP3 PUSH2 0x1F13 JUMP JUMPDEST POP POP JUMPDEST POP POP POP JUMP JUMPDEST PUSH1 0x0 DUP3 DUP3 SHR SWAP1 POP SWAP3 SWAP2 POP POP JUMP JUMPDEST PUSH1 0x0 PUSH2 0x1F9A PUSH1 0x0 NOT DUP5 PUSH1 0x8 MUL PUSH2 0x1F7C JUMP JUMPDEST NOT DUP1 DUP4 AND SWAP2 POP POP SWAP3 SWAP2 POP POP JUMP JUMPDEST PUSH1 0x0 PUSH2 0x1FB3 DUP4 DUP4 PUSH2 0x1F89 JUMP JUMPDEST SWAP2 POP DUP3 PUSH1 0x2 MUL DUP3 OR SWAP1 POP SWAP3 SWAP2 POP POP JUMP JUMPDEST PUSH2 0x1FCC DUP3 PUSH2 0x1337 JUMP JUMPDEST PUSH8 0xFFFFFFFFFFFFFFFF DUP2 GT ISZERO PUSH2 0x1FE5 JUMPI PUSH2 0x1FE4 PUSH2 0x14BA JUMP JUMPDEST JUMPDEST PUSH2 0x1FEF DUP3 SLOAD PUSH2 0x1A8A JUMP JUMPDEST PUSH2 0x1FFA DUP3 DUP3 DUP6 PUSH2 0x1F36 JUMP JUMPDEST PUSH1 0x0 PUSH1 0x20 SWAP1 POP PUSH1 0x1F DUP4 GT PUSH1 0x1 DUP2 EQ PUSH2 0x202D JUMPI PUSH1 0x0 DUP5 ISZERO PUSH2 0x201B JUMPI DUP3 DUP8 ADD MLOAD SWAP1 POP JUMPDEST PUSH2 0x2025 DUP6 DUP3 PUSH2 0x1FA7 JUMP JUMPDEST DUP7 SSTORE POP PUSH2 0x208D JUMP JUMPDEST PUSH1 0x1F NOT DUP5 AND PUSH2 0x203B DUP7 PUSH2 0x1E17 JUMP JUMPDEST PUSH1 0x0 JUMPDEST DUP3 DUP2 LT ISZERO PUSH2 0x2063 JUMPI DUP5 DUP10 ADD MLOAD DUP3 SSTORE PUSH1 0x1 DUP3 ADD SWAP2 POP PUSH1 0x20 DUP6 ADD SWAP5 POP PUSH1 0x20 DUP2 ADD SWAP1 POP PUSH2 0x203E JUMP JUMPDEST DUP7 DUP4 LT ISZERO PUSH2 0x2080 JUMPI DUP5 DUP10 ADD MLOAD PUSH2 0x207C PUSH1 0x1F DUP10 AND DUP3 PUSH2 0x1F89 JUMP JUMPDEST DUP4 SSTORE POP JUMPDEST PUSH1 0x1 PUSH1 0x2 DUP9 MUL ADD DUP9 SSTORE POP POP POP JUMPDEST POP POP POP POP POP POP JUMP JUMPDEST PUSH32 0x4A6F6220697320616C7265616479206164646564000000000000000000000000 PUSH1 0x0 DUP3 ADD MSTORE POP JUMP JUMPDEST PUSH1 0x0 PUSH2 0x20CB PUSH1 0x14 DUP4 PUSH2 0x1342 JUMP JUMPDEST SWAP2 POP PUSH2 0x20D6 DUP3 PUSH2 0x2095 JUMP JUMPDEST PUSH1 0x20 DUP3 ADD SWAP1 POP SWAP2 SWAP1 POP JUMP JUMPDEST PUSH1 0x0 PUSH1 0x20 DUP3 ADD SWAP1 POP DUP2 DUP2 SUB PUSH1 0x0 DUP4 ADD MSTORE PUSH2 0x20FA DUP2 PUSH2 0x20BE JUMP JUMPDEST SWAP1 POP SWAP2 SWAP1 POP JUMP INVALID LOG2 PUSH5 0x6970667358 0x22 SLT KECCAK256 EXP 0x1F PUSH4 0xFC6A520A 0xC 0xC5 SELFDESTRUCT 0x2D PC 0xEC SIGNEXTEND LOG4 EXP 0x2C 0xA5 SWAP1 0xC7 SLT 0x1E SHL 0xA8 GT 0xE7 PUSH29 0xD9D73D7B7364736F6C6343000812003300000000000000000000000000 "
				},
				"gasEstimates": {
					"creation": {
						"codeDepositCost": "1700600",
						"executionCost": "26051",
						"totalCost": "1726651"
					},
					"external": {
						"addApplicant(address,string,string)": "infinite",
						"addJob(string,string)": "infinite",
						"admin()": "2599",
						"applicantAddresses(uint256)": "4978",
						"applicants(address)": "infinite",
						"applyJob(uint256)": "22651",
						"getAllApplicantProfiles()": "infinite",
						"getAllJobsDetails()": "infinite",
						"getApplicantProfile(address)": "infinite",
						"getJobCount()": "2489",
						"getJobDetails(uint256)": "infinite",
						"jobs(uint256)": "infinite"
					}
				},
				"methodIdentifiers": {
					"addApplicant(address,string,string)": "6f4347b5",
					"addJob(string,string)": "89a4bb4b",
					"admin()": "f851a440",
					"applicantAddresses(uint256)": "ada03159",
					"applicants(address)": "ccd66863",
					"applyJob(uint256)": "2ad6ee43",
					"getAllApplicantProfiles()": "78214ac9",
					"getAllJobsDetails()": "a9b75e26",
					"getApplicantProfile(address)": "f8f74893",
					"getJobCount()": "b02b4a2f",
					"getJobDetails(uint256)": "4cac35c6",
					"jobs(uint256)": "180aedf3"
				}
			},
			"storageLayout": {
				"storage": [
					{
						"astId": 16,
						"contract": "contracts/JobPortal.sol:JobPortal",
						"label": "admin",
						"offset": 0,
						"slot": "0",
						"type": "t_address"
					},
					{
						"astId": 21,
						"contract": "contracts/JobPortal.sol:JobPortal",
						"label": "applicants",
						"offset": 0,
						"slot": "1",
						"type": "t_mapping(t_address,t_struct(Applicant)9_storage)"
					},
					{
						"astId": 25,
						"contract": "contracts/JobPortal.sol:JobPortal",
						"label": "jobs",
						"offset": 0,
						"slot": "2",
						"type": "t_array(t_struct(Job)14_storage)dyn_storage"
					},
					{
						"astId": 28,
						"contract": "contracts/JobPortal.sol:JobPortal",
						"label": "applicantAddresses",
						"offset": 0,
						"slot": "3",
						"type": "t_array(t_address)dyn_storage"
					}
				],
				"types": {
					"t_address": {
						"encoding": "inplace",
						"label": "address",
						"numberOfBytes": "20"
					},
					"t_array(t_address)dyn_storage": {
						"base": "t_address",
						"encoding": "dynamic_array",
						"label": "address[]",
						"numberOfBytes": "32"
					},
					"t_array(t_struct(Job)14_storage)dyn_storage": {
						"base": "t_struct(Job)14_storage",
						"encoding": "dynamic_array",
						"label": "struct JobPortal.Job[]",
						"numberOfBytes": "32"
					},
					"t_mapping(t_address,t_struct(Applicant)9_storage)": {
						"encoding": "mapping",
						"key": "t_address",
						"label": "mapping(address => struct JobPortal.Applicant)",
						"numberOfBytes": "32",
						"value": "t_struct(Applicant)9_storage"
					},
					"t_string_storage": {
						"encoding": "bytes",
						"label": "string",
						"numberOfBytes": "32"
					},
					"t_struct(Applicant)9_storage": {
						"encoding": "inplace",
						"label": "struct JobPortal.Applicant",
						"members": [
							{
								"astId": 4,
								"contract": "contracts/JobPortal.sol:JobPortal",
								"label": "name",
								"offset": 0,
								"slot": "0",
								"type": "t_string_storage"
							},
							{
								"astId": 6,
								"contract": "contracts/JobPortal.sol:JobPortal",
								"label": "skill",
								"offset": 0,
								"slot": "1",
								"type": "t_string_storage"
							},
							{
								"astId": 8,
								"contract": "contracts/JobPortal.sol:JobPortal",
								"label": "jobsApplied",
								"offset": 0,
								"slot": "2",
								"type": "t_uint256"
							}
						],
						"numberOfBytes": "96"
					},
					"t_struct(Job)14_storage": {
						"encoding": "inplace",
						"label": "struct JobPortal.Job",
						"members": [
							{
								"astId": 11,
								"contract": "contracts/JobPortal.sol:JobPortal",
								"label": "title",
								"offset": 0,
								"slot": "0",
								"type": "t_string_storage"
							},
							{
								"astId": 13,
								"contract": "contracts/JobPortal.sol:JobPortal",
								"label": "companyName",
								"offset": 0,
								"slot": "1",
								"type": "t_string_storage"
							}
						],
						"numberOfBytes": "64"
					},
					"t_uint256": {
						"encoding": "inplace",
						"label": "uint256",
						"numberOfBytes": "32"
					}
				}
			},
			"userdoc": {
				"kind": "user",
				"methods": {},
				"version": 1
			}
		}
	}
}