{
	"contracts/Capstone.sol": {
		"Capstone": {
			"abi": [
				{
					"inputs": [
						{
							"internalType": "uint256",
							"name": "startTime_",
							"type": "uint256"
						},
						{
							"internalType": "uint256",
							"name": "endTime_",
							"type": "uint256"
						}
					],
					"stateMutability": "nonpayable",
					"type": "constructor"
				},
				{
					"inputs": [
						{
							"internalType": "uint256",
							"name": "",
							"type": "uint256"
						}
					],
					"name": "candidates",
					"outputs": [
						{
							"internalType": "string",
							"name": "name",
							"type": "string"
						},
						{
							"internalType": "string",
							"name": "partyShortcut",
							"type": "string"
						},
						{
							"internalType": "string",
							"name": "partyFlag",
							"type": "string"
						},
						{
							"internalType": "uint256",
							"name": "nominationNumber",
							"type": "uint256"
						},
						{
							"internalType": "uint8",
							"name": "stateCode",
							"type": "uint8"
						},
						{
							"internalType": "uint8",
							"name": "constituencyCode",
							"type": "uint8"
						}
					],
					"stateMutability": "view",
					"type": "function"
				},
				{
					"inputs": [
						{
							"internalType": "uint256",
							"name": "voterAadharNumber",
							"type": "uint256"
						}
					],
					"name": "didCurrentVoterVoted",
					"outputs": [
						{
							"internalType": "bool",
							"name": "userVoted_",
							"type": "bool"
						},
						{
							"components": [
								{
									"internalType": "string",
									"name": "name",
									"type": "string"
								},
								{
									"internalType": "string",
									"name": "partyShortcut",
									"type": "string"
								},
								{
									"internalType": "string",
									"name": "partyFlag",
									"type": "string"
								},
								{
									"internalType": "uint256",
									"name": "nominationNumber",
									"type": "uint256"
								},
								{
									"internalType": "uint8",
									"name": "stateCode",
									"type": "uint8"
								},
								{
									"internalType": "uint8",
									"name": "constituencyCode",
									"type": "uint8"
								}
							],
							"internalType": "struct Types.Candidate",
							"name": "candidate_",
							"type": "tuple"
						}
					],
					"stateMutability": "view",
					"type": "function"
				},
				{
					"inputs": [
						{
							"internalType": "uint256",
							"name": "endTime_",
							"type": "uint256"
						},
						{
							"internalType": "uint256",
							"name": "currentTime_",
							"type": "uint256"
						}
					],
					"name": "extendVotingTime",
					"outputs": [],
					"stateMutability": "nonpayable",
					"type": "function"
				},
				{
					"inputs": [
						{
							"internalType": "uint256",
							"name": "voterAadharNumber",
							"type": "uint256"
						}
					],
					"name": "getCandidateList",
					"outputs": [
						{
							"components": [
								{
									"internalType": "string",
									"name": "name",
									"type": "string"
								},
								{
									"internalType": "string",
									"name": "partyShortcut",
									"type": "string"
								},
								{
									"internalType": "string",
									"name": "partyFlag",
									"type": "string"
								},
								{
									"internalType": "uint256",
									"name": "nominationNumber",
									"type": "uint256"
								},
								{
									"internalType": "uint8",
									"name": "stateCode",
									"type": "uint8"
								},
								{
									"internalType": "uint8",
									"name": "constituencyCode",
									"type": "uint8"
								}
							],
							"internalType": "struct Types.Candidate[]",
							"name": "",
							"type": "tuple[]"
						}
					],
					"stateMutability": "view",
					"type": "function"
				},
				{
					"inputs": [
						{
							"internalType": "uint256",
							"name": "currentTime_",
							"type": "uint256"
						}
					],
					"name": "getResults",
					"outputs": [
						{
							"components": [
								{
									"internalType": "string",
									"name": "name",
									"type": "string"
								},
								{
									"internalType": "string",
									"name": "partyShortcut",
									"type": "string"
								},
								{
									"internalType": "string",
									"name": "partyFlag",
									"type": "string"
								},
								{
									"internalType": "uint256",
									"name": "voteCount",
									"type": "uint256"
								},
								{
									"internalType": "uint256",
									"name": "nominationNumber",
									"type": "uint256"
								},
								{
									"internalType": "uint8",
									"name": "stateCode",
									"type": "uint8"
								},
								{
									"internalType": "uint8",
									"name": "constituencyCode",
									"type": "uint8"
								}
							],
							"internalType": "struct Types.Results[]",
							"name": "",
							"type": "tuple[]"
						}
					],
					"stateMutability": "view",
					"type": "function"
				},
				{
					"inputs": [],
					"name": "getVotingEndTime",
					"outputs": [
						{
							"internalType": "uint256",
							"name": "endTime_",
							"type": "uint256"
						}
					],
					"stateMutability": "view",
					"type": "function"
				},
				{
					"inputs": [
						{
							"internalType": "uint256",
							"name": "voterAadharNumber",
							"type": "uint256"
						}
					],
					"name": "isVoterEligible",
					"outputs": [
						{
							"internalType": "bool",
							"name": "voterEligible_",
							"type": "bool"
						}
					],
					"stateMutability": "view",
					"type": "function"
				},
				{
					"inputs": [
						{
							"internalType": "uint256",
							"name": "startTime_",
							"type": "uint256"
						},
						{
							"internalType": "uint256",
							"name": "currentTime_",
							"type": "uint256"
						}
					],
					"name": "updateVotingStartTime",
					"outputs": [],
					"stateMutability": "nonpayable",
					"type": "function"
				},
				{
					"inputs": [
						{
							"internalType": "uint256",
							"name": "nominationNumber",
							"type": "uint256"
						},
						{
							"internalType": "uint256",
							"name": "voterAadharNumber",
							"type": "uint256"
						},
						{
							"internalType": "uint256",
							"name": "currentTime_",
							"type": "uint256"
						}
					],
					"name": "vote",
					"outputs": [],
					"stateMutability": "nonpayable",
					"type": "function"
				}
			],
			"devdoc": {
				"author": "Suresh Konakanchi",
				"details": "Implements voting process along with winning candidate",
				"kind": "dev",
				"methods": {
					"constructor": {
						"details": "Create a new ballot to choose one of 'candidateNames'",
						"params": {
							"endTime_": "When the voting process will end",
							"startTime_": "When the voting process will start"
						}
					},
					"didCurrentVoterVoted(uint256)": {
						"details": "Know whether the voter casted their vote or not. If casted get candidate object.",
						"params": {
							"voterAadharNumber": "Aadhar number of the current voter"
						},
						"returns": {
							"candidate_": "Candidate details to whom voter casted his/her vote",
							"userVoted_": "Boolean value which gives whether current voter casted vote or not"
						}
					},
					"extendVotingTime(uint256,uint256)": {
						"details": "To extend the end of the voting",
						"params": {
							"currentTime_": "Current time that needs to be updated",
							"endTime_": "End time that needs to be updated"
						}
					},
					"getCandidateList(uint256)": {
						"details": "Get candidate list.",
						"params": {
							"voterAadharNumber": "Aadhar number of the current voter to send the relevent candidates list"
						},
						"returns": {
							"_0": "candidatesList_ All the politicians who participate in the election"
						}
					},
					"getResults(uint256)": {
						"details": "sends all candidate list with their votes count",
						"params": {
							"currentTime_": "Current epoch time of length 10."
						},
						"returns": {
							"_0": "candidateList_ List of Candidate objects with votes count"
						}
					},
					"getVotingEndTime()": {
						"details": "Gives ending epoch time of voting",
						"returns": {
							"endTime_": "When the voting ends"
						}
					},
					"isVoterEligible(uint256)": {
						"details": "Get candidate list.",
						"params": {
							"voterAadharNumber": "Aadhar number of the current voter to send the relevent candidates list"
						},
						"returns": {
							"voterEligible_": "Whether the voter with provided aadhar is eligible or not"
						}
					},
					"updateVotingStartTime(uint256,uint256)": {
						"details": "used to update the voting start & end times",
						"params": {
							"currentTime_": "Current time that needs to be updated",
							"startTime_": "Start time that needs to be updated"
						}
					},
					"vote(uint256,uint256,uint256)": {
						"details": "Give your vote to candidate.",
						"params": {
							"currentTime_": "To check if the election has started or not",
							"nominationNumber": "Aadhar Number of the candidate",
							"voterAadharNumber": "Aadhar Number of the voter to avoid re-entry"
						}
					}
				},
				"title": "Ballot",
				"version": 1
			},
			"evm": {
				"assembly": "    /* \"contracts/Capstone.sol\":257:19511  contract Capstone {... */\n  mstore(0x40, 0x80)\n    /* \"contracts/Capstone.sol\":783:1030  constructor(uint256 startTime_, uint256 endTime_) {... */\n  callvalue\n  dup1\n  iszero\n  tag_1\n  jumpi\n  0x00\n  dup1\n  revert\ntag_1:\n  pop\n  mload(0x40)\n  sub(codesize, bytecodeSize)\n  dup1\n  bytecodeSize\n  dup4\n  codecopy\n  dup2\n  dup2\n  add\n  0x40\n  mstore\n  dup2\n  add\n  swap1\n  tag_2\n  swap2\n  swap1\n  tag_3\n  jump\t// in\ntag_2:\n    /* \"contracts/Capstone.sol\":844:874  initializeCandidateDatabase_() */\n  tag_6\n    /* \"contracts/Capstone.sol\":844:872  initializeCandidateDatabase_ */\n  shl(0x20, tag_7)\n    /* \"contracts/Capstone.sol\":844:874  initializeCandidateDatabase_() */\n  0x20\n  shr\n  jump\t// in\ntag_6:\n    /* \"contracts/Capstone.sol\":885:911  initializeVoterDatabase_() */\n  tag_8\n    /* \"contracts/Capstone.sol\":885:909  initializeVoterDatabase_ */\n  shl(0x20, tag_9)\n    /* \"contracts/Capstone.sol\":885:911  initializeVoterDatabase_() */\n  0x20\n  shr\n  jump\t// in\ntag_8:\n    /* \"contracts/Capstone.sol\":940:950  startTime_ */\n  dup2\n    /* \"contracts/Capstone.sol\":922:937  votingStartTime */\n  0x05\n    /* \"contracts/Capstone.sol\":922:950  votingStartTime = startTime_ */\n  dup2\n  swap1\n  sstore\n  pop\n    /* \"contracts/Capstone.sol\":977:985  endTime_ */\n  dup1\n    /* \"contracts/Capstone.sol\":961:974  votingEndTime */\n  0x06\n    /* \"contracts/Capstone.sol\":961:985  votingEndTime = endTime_ */\n  dup2\n  swap1\n  sstore\n  pop\n    /* \"contracts/Capstone.sol\":1012:1022  msg.sender */\n  caller\n    /* \"contracts/Capstone.sol\":996:1009  electionChief */\n  0x04\n  0x00\n    /* \"contracts/Capstone.sol\":996:1022  electionChief = msg.sender */\n  0x0100\n  exp\n  dup2\n  sload\n  dup2\n  0xffffffffffffffffffffffffffffffffffffffff\n  mul\n  not\n  and\n  swap1\n  dup4\n  0xffffffffffffffffffffffffffffffffffffffff\n  and\n  mul\n  or\n  swap1\n  sstore\n  pop\n    /* \"contracts/Capstone.sol\":783:1030  constructor(uint256 startTime_, uint256 endTime_) {... */\n  pop\n  pop\n    /* \"contracts/Capstone.sol\":257:19511  contract Capstone {... */\n  jump(tag_10)\n    /* \"contracts/Capstone.sol\":7954:13485  function initializeCandidateDatabase_() internal {... */\ntag_7:\n    /* \"contracts/Capstone.sol\":8014:8050  Types.Candidate[] memory candidates_ */\n  0x00\n    /* \"contracts/Capstone.sol\":8075:8077  14 */\n  0x0e\n    /* \"contracts/Capstone.sol\":8053:8078  new Types.Candidate[](14) */\n  0xffffffffffffffff\n  dup2\n  gt\n  iszero\n  tag_12\n  jumpi\n  tag_13\n  tag_14\n  jump\t// in\ntag_13:\ntag_12:\n  mload(0x40)\n  swap1\n  dup1\n  dup3\n  mstore\n  dup1\n  0x20\n  mul\n  0x20\n  add\n  dup3\n  add\n  0x40\n  mstore\n  dup1\n  iszero\n  tag_15\n  jumpi\n  dup2\n  0x20\n  add\ntag_16:\n  tag_17\n  tag_18\n  jump\t// in\ntag_17:\n  dup2\n  mstore\n  0x20\n  add\n  swap1\n  0x01\n  swap1\n  sub\n  swap1\n  dup2\n  tag_16\n  jumpi\n  swap1\n  pop\ntag_15:\n  pop\n    /* \"contracts/Capstone.sol\":8014:8078  Types.Candidate[] memory candidates_ = new Types.Candidate[](14) */\n  swap1\n  pop\n    /* \"contracts/Capstone.sol\":8135:8473  Types.Candidate({... */\n  mload(0x40)\n  dup1\n  0xc0\n  add\n  0x40\n  mstore\n  dup1\n  mload(0x40)\n  dup1\n  0x40\n  add\n  0x40\n  mstore\n  dup1\n  0x12\n  dup2\n  mstore\n  0x20\n  add\n  0x4368616e6472612042616275204e616964750000000000000000000000000000\n  dup2\n  mstore\n  pop\n  dup2\n  mstore\n  0x20\n  add\n  mload(0x40)\n  dup1\n  0x40\n  add\n  0x40\n  mstore\n  dup1\n  0x03\n  dup2\n  mstore\n  0x20\n  add\n  0x5444500000000000000000000000000000000000000000000000000000000000\n  dup2\n  mstore\n  pop\n  dup2\n  mstore\n  0x20\n  add\n  mload(0x40)\n  dup1\n  0x80\n  add\n  0x40\n  mstore\n  dup1\n  0x4c\n  dup2\n  mstore\n  0x20\n  add\n  data_dddf4e7ef0699278c9ee17be56a7b507c65eb6670b18c64f899807644cb29afe\n  0x4c\n  swap2\n  codecopy\n  dup2\n  mstore\n  0x20\n  add\n    /* \"contracts/Capstone.sol\":8372:8384  727477314982 */\n  0xa96106e5a6\n    /* \"contracts/Capstone.sol\":8135:8473  Types.Candidate({... */\n  dup2\n  mstore\n  0x20\n  add\n    /* \"contracts/Capstone.sol\":8417:8419  10 */\n  0x0a\n    /* \"contracts/Capstone.sol\":8135:8473  Types.Candidate({... */\n  0xff\n  and\n  dup2\n  mstore\n  0x20\n  add\n    /* \"contracts/Capstone.sol\":8459:8460  1 */\n  0x01\n    /* \"contracts/Capstone.sol\":8135:8473  Types.Candidate({... */\n  0xff\n  and\n  dup2\n  mstore\n  pop\n    /* \"contracts/Capstone.sol\":8118:8129  candidates_ */\n  dup2\n    /* \"contracts/Capstone.sol\":8130:8131  0 */\n  0x00\n    /* \"contracts/Capstone.sol\":8118:8132  candidates_[0] */\n  dup2\n  mload\n  dup2\n  lt\n  tag_19\n  jumpi\n  tag_20\n  tag_21\n  jump\t// in\ntag_20:\ntag_19:\n  0x20\n  mul\n  0x20\n  add\n  add\n    /* \"contracts/Capstone.sol\":8118:8473  candidates_[0] = Types.Candidate({... */\n  dup2\n  swap1\n  mstore\n  pop\n    /* \"contracts/Capstone.sol\":8501:8842  Types.Candidate({... */\n  mload(0x40)\n  dup1\n  0xc0\n  add\n  0x40\n  mstore\n  dup1\n  mload(0x40)\n  dup1\n  0x40\n  add\n  0x40\n  mstore\n  dup1\n  0x11\n  dup2\n  mstore\n  0x20\n  add\n  0x4a6167616e204d6f68616e205265646479000000000000000000000000000000\n  dup2\n  mstore\n  pop\n  dup2\n  mstore\n  0x20\n  add\n  mload(0x40)\n  dup1\n  0x40\n  add\n  0x40\n  mstore\n  dup1\n  0x05\n  dup2\n  mstore\n  0x20\n  add\n  0x5953524350000000000000000000000000000000000000000000000000000000\n  dup2\n  mstore\n  pop\n  dup2\n  mstore\n  0x20\n  add\n  mload(0x40)\n  dup1\n  0x80\n  add\n  0x40\n  mstore\n  dup1\n  0x4e\n  dup2\n  mstore\n  0x20\n  add\n  data_47f85e1ff13fd4caba7301aa5ffcbd1381755fb2577f43cecd2044de7c75c1e7\n  0x4e\n  swap2\n  codecopy\n  dup2\n  mstore\n  0x20\n  add\n    /* \"contracts/Capstone.sol\":8741:8753  835343722350 */\n  0xc27e5da76e\n    /* \"contracts/Capstone.sol\":8501:8842  Types.Candidate({... */\n  dup2\n  mstore\n  0x20\n  add\n    /* \"contracts/Capstone.sol\":8786:8788  10 */\n  0x0a\n    /* \"contracts/Capstone.sol\":8501:8842  Types.Candidate({... */\n  0xff\n  and\n  dup2\n  mstore\n  0x20\n  add\n    /* \"contracts/Capstone.sol\":8828:8829  1 */\n  0x01\n    /* \"contracts/Capstone.sol\":8501:8842  Types.Candidate({... */\n  0xff\n  and\n  dup2\n  mstore\n  pop\n    /* \"contracts/Capstone.sol\":8484:8495  candidates_ */\n  dup2\n    /* \"contracts/Capstone.sol\":8496:8497  1 */\n  0x01\n    /* \"contracts/Capstone.sol\":8484:8498  candidates_[1] */\n  dup2\n  mload\n  dup2\n  lt\n  tag_22\n  jumpi\n  tag_23\n  tag_21\n  jump\t// in\ntag_23:\ntag_22:\n  0x20\n  mul\n  0x20\n  add\n  add\n    /* \"contracts/Capstone.sol\":8484:8842  candidates_[1] = Types.Candidate({... */\n  dup2\n  swap1\n  mstore\n  pop\n    /* \"contracts/Capstone.sol\":8870:9204  Types.Candidate({... */\n  mload(0x40)\n  dup1\n  0xc0\n  add\n  0x40\n  mstore\n  dup1\n  mload(0x40)\n  dup1\n  0x40\n  add\n  0x40\n  mstore\n  dup1\n  0x0e\n  dup2\n  mstore\n  0x20\n  add\n  0x47205620416e6a616e6579756c75000000000000000000000000000000000000\n  dup2\n  mstore\n  pop\n  dup2\n  mstore\n  0x20\n  add\n  mload(0x40)\n  dup1\n  0x40\n  add\n  0x40\n  mstore\n  dup1\n  0x03\n  dup2\n  mstore\n  0x20\n  add\n  0x5444500000000000000000000000000000000000000000000000000000000000\n  dup2\n  mstore\n  pop\n  dup2\n  mstore\n  0x20\n  add\n  mload(0x40)\n  dup1\n  0x80\n  add\n  0x40\n  mstore\n  dup1\n  0x4c\n  dup2\n  mstore\n  0x20\n  add\n  data_dddf4e7ef0699278c9ee17be56a7b507c65eb6670b18c64f899807644cb29afe\n  0x4c\n  swap2\n  codecopy\n  dup2\n  mstore\n  0x20\n  add\n    /* \"contracts/Capstone.sol\":9103:9115  969039304119 */\n  0xe19f3e55b7\n    /* \"contracts/Capstone.sol\":8870:9204  Types.Candidate({... */\n  dup2\n  mstore\n  0x20\n  add\n    /* \"contracts/Capstone.sol\":9148:9150  10 */\n  0x0a\n    /* \"contracts/Capstone.sol\":8870:9204  Types.Candidate({... */\n  0xff\n  and\n  dup2\n  mstore\n  0x20\n  add\n    /* \"contracts/Capstone.sol\":9190:9191  2 */\n  0x02\n    /* \"contracts/Capstone.sol\":8870:9204  Types.Candidate({... */\n  0xff\n  and\n  dup2\n  mstore\n  pop\n    /* \"contracts/Capstone.sol\":8853:8864  candidates_ */\n  dup2\n    /* \"contracts/Capstone.sol\":8865:8866  2 */\n  0x02\n    /* \"contracts/Capstone.sol\":8853:8867  candidates_[2] */\n  dup2\n  mload\n  dup2\n  lt\n  tag_24\n  jumpi\n  tag_25\n  tag_21\n  jump\t// in\ntag_25:\ntag_24:\n  0x20\n  mul\n  0x20\n  add\n  add\n    /* \"contracts/Capstone.sol\":8853:9204  candidates_[2] = Types.Candidate({... */\n  dup2\n  swap1\n  mstore\n  pop\n    /* \"contracts/Capstone.sol\":9232:9572  Types.Candidate({... */\n  mload(0x40)\n  dup1\n  0xc0\n  add\n  0x40\n  mstore\n  dup1\n  mload(0x40)\n  dup1\n  0x40\n  add\n  0x40\n  mstore\n  dup1\n  0x10\n  dup2\n  mstore\n  0x20\n  add\n  0x416e696c204b756d617220596164617600000000000000000000000000000000\n  dup2\n  mstore\n  pop\n  dup2\n  mstore\n  0x20\n  add\n  mload(0x40)\n  dup1\n  0x40\n  add\n  0x40\n  mstore\n  dup1\n  0x05\n  dup2\n  mstore\n  0x20\n  add\n  0x5953524350000000000000000000000000000000000000000000000000000000\n  dup2\n  mstore\n  pop\n  dup2\n  mstore\n  0x20\n  add\n  mload(0x40)\n  dup1\n  0x80\n  add\n  0x40\n  mstore\n  dup1\n  0x4e\n  dup2\n  mstore\n  0x20\n  add\n  data_47f85e1ff13fd4caba7301aa5ffcbd1381755fb2577f43cecd2044de7c75c1e7\n  0x4e\n  swap2\n  codecopy\n  dup2\n  mstore\n  0x20\n  add\n    /* \"contracts/Capstone.sol\":9471:9483  429300763874 */\n  0x63f451cce2\n    /* \"contracts/Capstone.sol\":9232:9572  Types.Candidate({... */\n  dup2\n  mstore\n  0x20\n  add\n    /* \"contracts/Capstone.sol\":9516:9518  10 */\n  0x0a\n    /* \"contracts/Capstone.sol\":9232:9572  Types.Candidate({... */\n  0xff\n  and\n  dup2\n  mstore\n  0x20\n  add\n    /* \"contracts/Capstone.sol\":9558:9559  2 */\n  0x02\n    /* \"contracts/Capstone.sol\":9232:9572  Types.Candidate({... */\n  0xff\n  and\n  dup2\n  mstore\n  pop\n    /* \"contracts/Capstone.sol\":9215:9226  candidates_ */\n  dup2\n    /* \"contracts/Capstone.sol\":9227:9228  3 */\n  0x03\n    /* \"contracts/Capstone.sol\":9215:9229  candidates_[3] */\n  dup2\n  mload\n  dup2\n  lt\n  tag_26\n  jumpi\n  tag_27\n  tag_21\n  jump\t// in\ntag_27:\ntag_26:\n  0x20\n  mul\n  0x20\n  add\n  add\n    /* \"contracts/Capstone.sol\":9215:9572  candidates_[3] = Types.Candidate({... */\n  dup2\n  swap1\n  mstore\n  pop\n    /* \"contracts/Capstone.sol\":9620:9953  Types.Candidate({... */\n  mload(0x40)\n  dup1\n  0xc0\n  add\n  0x40\n  mstore\n  dup1\n  mload(0x40)\n  dup1\n  0x40\n  add\n  0x40\n  mstore\n  dup1\n  0x0d\n  dup2\n  mstore\n  0x20\n  add\n  0x4e6172656e647261204d6f646900000000000000000000000000000000000000\n  dup2\n  mstore\n  pop\n  dup2\n  mstore\n  0x20\n  add\n  mload(0x40)\n  dup1\n  0x40\n  add\n  0x40\n  mstore\n  dup1\n  0x03\n  dup2\n  mstore\n  0x20\n  add\n  0x424a500000000000000000000000000000000000000000000000000000000000\n  dup2\n  mstore\n  pop\n  dup2\n  mstore\n  0x20\n  add\n  mload(0x40)\n  dup1\n  0x80\n  add\n  0x40\n  mstore\n  dup1\n  0x4c\n  dup2\n  mstore\n  0x20\n  add\n  data_5a43e486951fcead5fb40adec39686384879b9e109fd9f6ca310519ede5e211f\n  0x4c\n  swap2\n  codecopy\n  dup2\n  mstore\n  0x20\n  add\n    /* \"contracts/Capstone.sol\":9852:9864  895363124093 */\n  0xd077cd0b7d\n    /* \"contracts/Capstone.sol\":9620:9953  Types.Candidate({... */\n  dup2\n  mstore\n  0x20\n  add\n    /* \"contracts/Capstone.sol\":9897:9899  11 */\n  0x0b\n    /* \"contracts/Capstone.sol\":9620:9953  Types.Candidate({... */\n  0xff\n  and\n  dup2\n  mstore\n  0x20\n  add\n    /* \"contracts/Capstone.sol\":9939:9940  1 */\n  0x01\n    /* \"contracts/Capstone.sol\":9620:9953  Types.Candidate({... */\n  0xff\n  and\n  dup2\n  mstore\n  pop\n    /* \"contracts/Capstone.sol\":9603:9614  candidates_ */\n  dup2\n    /* \"contracts/Capstone.sol\":9615:9616  4 */\n  0x04\n    /* \"contracts/Capstone.sol\":9603:9617  candidates_[4] */\n  dup2\n  mload\n  dup2\n  lt\n  tag_28\n  jumpi\n  tag_29\n  tag_21\n  jump\t// in\ntag_29:\ntag_28:\n  0x20\n  mul\n  0x20\n  add\n  add\n    /* \"contracts/Capstone.sol\":9603:9953  candidates_[4] = Types.Candidate({... */\n  dup2\n  swap1\n  mstore\n  pop\n    /* \"contracts/Capstone.sol\":9981:10313  Types.Candidate({... */\n  mload(0x40)\n  dup1\n  0xc0\n  add\n  0x40\n  mstore\n  dup1\n  mload(0x40)\n  dup1\n  0x40\n  add\n  0x40\n  mstore\n  dup1\n  0x0c\n  dup2\n  mstore\n  0x20\n  add\n  0x526168756c2047616e6468690000000000000000000000000000000000000000\n  dup2\n  mstore\n  pop\n  dup2\n  mstore\n  0x20\n  add\n  mload(0x40)\n  dup1\n  0x40\n  add\n  0x40\n  mstore\n  dup1\n  0x03\n  dup2\n  mstore\n  0x20\n  add\n  0x494e430000000000000000000000000000000000000000000000000000000000\n  dup2\n  mstore\n  pop\n  dup2\n  mstore\n  0x20\n  add\n  mload(0x40)\n  dup1\n  0x80\n  add\n  0x40\n  mstore\n  dup1\n  0x4c\n  dup2\n  mstore\n  0x20\n  add\n  data_7b1e484851f66d811ae6dcc24ea70862beae85f64ba381b9b2e792b836abc123\n  0x4c\n  swap2\n  codecopy\n  dup2\n  mstore\n  0x20\n  add\n    /* \"contracts/Capstone.sol\":10212:10224  879824052764 */\n  0xccd999a21c\n    /* \"contracts/Capstone.sol\":9981:10313  Types.Candidate({... */\n  dup2\n  mstore\n  0x20\n  add\n    /* \"contracts/Capstone.sol\":10257:10259  11 */\n  0x0b\n    /* \"contracts/Capstone.sol\":9981:10313  Types.Candidate({... */\n  0xff\n  and\n  dup2\n  mstore\n  0x20\n  add\n    /* \"contracts/Capstone.sol\":10299:10300  1 */\n  0x01\n    /* \"contracts/Capstone.sol\":9981:10313  Types.Candidate({... */\n  0xff\n  and\n  dup2\n  mstore\n  pop\n    /* \"contracts/Capstone.sol\":9964:9975  candidates_ */\n  dup2\n    /* \"contracts/Capstone.sol\":9976:9977  5 */\n  0x05\n    /* \"contracts/Capstone.sol\":9964:9978  candidates_[5] */\n  dup2\n  mload\n  dup2\n  lt\n  tag_30\n  jumpi\n  tag_31\n  tag_21\n  jump\t// in\ntag_31:\ntag_30:\n  0x20\n  mul\n  0x20\n  add\n  add\n    /* \"contracts/Capstone.sol\":9964:10313  candidates_[5] = Types.Candidate({... */\n  dup2\n  swap1\n  mstore\n  pop\n    /* \"contracts/Capstone.sol\":10341:10690  Types.Candidate({... */\n  mload(0x40)\n  dup1\n  0xc0\n  add\n  0x40\n  mstore\n  dup1\n  mload(0x40)\n  dup1\n  0x40\n  add\n  0x40\n  mstore\n  dup1\n  0x0d\n  dup2\n  mstore\n  0x20\n  add\n  0x54656a6173776920596164617600000000000000000000000000000000000000\n  dup2\n  mstore\n  pop\n  dup2\n  mstore\n  0x20\n  add\n  mload(0x40)\n  dup1\n  0x40\n  add\n  0x40\n  mstore\n  dup1\n  0x03\n  dup2\n  mstore\n  0x20\n  add\n  0x524a440000000000000000000000000000000000000000000000000000000000\n  dup2\n  mstore\n  pop\n  dup2\n  mstore\n  0x20\n  add\n  mload(0x40)\n  dup1\n  0x80\n  add\n  0x40\n  mstore\n  dup1\n  0x5c\n  dup2\n  mstore\n  0x20\n  add\n  data_32d4d011d64875b03035b4d3aedba5c4ef346acc796514a4756d291b8d889501\n  0x5c\n  swap2\n  codecopy\n  dup2\n  mstore\n  0x20\n  add\n    /* \"contracts/Capstone.sol\":10589:10601  994080299774 */\n  0xe773cd9afe\n    /* \"contracts/Capstone.sol\":10341:10690  Types.Candidate({... */\n  dup2\n  mstore\n  0x20\n  add\n    /* \"contracts/Capstone.sol\":10634:10636  11 */\n  0x0b\n    /* \"contracts/Capstone.sol\":10341:10690  Types.Candidate({... */\n  0xff\n  and\n  dup2\n  mstore\n  0x20\n  add\n    /* \"contracts/Capstone.sol\":10676:10677  1 */\n  0x01\n    /* \"contracts/Capstone.sol\":10341:10690  Types.Candidate({... */\n  0xff\n  and\n  dup2\n  mstore\n  pop\n    /* \"contracts/Capstone.sol\":10324:10335  candidates_ */\n  dup2\n    /* \"contracts/Capstone.sol\":10336:10337  6 */\n  0x06\n    /* \"contracts/Capstone.sol\":10324:10338  candidates_[6] */\n  dup2\n  mload\n  dup2\n  lt\n  tag_32\n  jumpi\n  tag_33\n  tag_21\n  jump\t// in\ntag_33:\ntag_32:\n  0x20\n  mul\n  0x20\n  add\n  add\n    /* \"contracts/Capstone.sol\":10324:10690  candidates_[6] = Types.Candidate({... */\n  dup2\n  swap1\n  mstore\n  pop\n    /* \"contracts/Capstone.sol\":10718:11053  Types.Candidate({... */\n  mload(0x40)\n  dup1\n  0xc0\n  add\n  0x40\n  mstore\n  dup1\n  mload(0x40)\n  dup1\n  0x40\n  add\n  0x40\n  mstore\n  dup1\n  0x0f\n  dup2\n  mstore\n  0x20\n  add\n  0x417276696e64204b656a726977616c0000000000000000000000000000000000\n  dup2\n  mstore\n  pop\n  dup2\n  mstore\n  0x20\n  add\n  mload(0x40)\n  dup1\n  0x40\n  add\n  0x40\n  mstore\n  dup1\n  0x03\n  dup2\n  mstore\n  0x20\n  add\n  0x4141500000000000000000000000000000000000000000000000000000000000\n  dup2\n  mstore\n  pop\n  dup2\n  mstore\n  0x20\n  add\n  mload(0x40)\n  dup1\n  0x80\n  add\n  0x40\n  mstore\n  dup1\n  0x4c\n  dup2\n  mstore\n  0x20\n  add\n  data_625207148eaf5547274f5a117a4927d46942a98552b117e35ee8fe5140a75321\n  0x4c\n  swap2\n  codecopy\n  dup2\n  mstore\n  0x20\n  add\n    /* \"contracts/Capstone.sol\":10952:10964  807033055701 */\n  0xbbe6eb29d5\n    /* \"contracts/Capstone.sol\":10718:11053  Types.Candidate({... */\n  dup2\n  mstore\n  0x20\n  add\n    /* \"contracts/Capstone.sol\":10997:10999  11 */\n  0x0b\n    /* \"contracts/Capstone.sol\":10718:11053  Types.Candidate({... */\n  0xff\n  and\n  dup2\n  mstore\n  0x20\n  add\n    /* \"contracts/Capstone.sol\":11039:11040  1 */\n  0x01\n    /* \"contracts/Capstone.sol\":10718:11053  Types.Candidate({... */\n  0xff\n  and\n  dup2\n  mstore\n  pop\n    /* \"contracts/Capstone.sol\":10701:10712  candidates_ */\n  dup2\n    /* \"contracts/Capstone.sol\":10713:10714  7 */\n  0x07\n    /* \"contracts/Capstone.sol\":10701:10715  candidates_[7] */\n  dup2\n  mload\n  dup2\n  lt\n  tag_34\n  jumpi\n  tag_35\n  tag_21\n  jump\t// in\ntag_35:\ntag_34:\n  0x20\n  mul\n  0x20\n  add\n  add\n    /* \"contracts/Capstone.sol\":10701:11053  candidates_[7] = Types.Candidate({... */\n  dup2\n  swap1\n  mstore\n  pop\n    /* \"contracts/Capstone.sol\":11081:11437  Types.Candidate({... */\n  mload(0x40)\n  dup1\n  0xc0\n  add\n  0x40\n  mstore\n  dup1\n  mload(0x40)\n  dup1\n  0x40\n  add\n  0x40\n  mstore\n  dup1\n  0x0a\n  dup2\n  mstore\n  0x20\n  add\n  0x4a796f7469204261737500000000000000000000000000000000000000000000\n  dup2\n  mstore\n  pop\n  dup2\n  mstore\n  0x20\n  add\n  mload(0x40)\n  dup1\n  0x40\n  add\n  0x40\n  mstore\n  dup1\n  0x04\n  dup2\n  mstore\n  0x20\n  add\n  0x4350494d00000000000000000000000000000000000000000000000000000000\n  dup2\n  mstore\n  pop\n  dup2\n  mstore\n  0x20\n  add\n  mload(0x40)\n  dup1\n  0xa0\n  add\n  0x40\n  mstore\n  dup1\n  0x65\n  dup2\n  mstore\n  0x20\n  add\n  data_7ef2f7a40a9d08c71c188b34797589d958ee6aad7a1c5cba3f2b494776859e0b\n  0x65\n  swap2\n  codecopy\n  dup2\n  mstore\n  0x20\n  add\n    /* \"contracts/Capstone.sol\":11336:11348  615325500020 */\n  0x8f44420274\n    /* \"contracts/Capstone.sol\":11081:11437  Types.Candidate({... */\n  dup2\n  mstore\n  0x20\n  add\n    /* \"contracts/Capstone.sol\":11381:11383  11 */\n  0x0b\n    /* \"contracts/Capstone.sol\":11081:11437  Types.Candidate({... */\n  0xff\n  and\n  dup2\n  mstore\n  0x20\n  add\n    /* \"contracts/Capstone.sol\":11423:11424  1 */\n  0x01\n    /* \"contracts/Capstone.sol\":11081:11437  Types.Candidate({... */\n  0xff\n  and\n  dup2\n  mstore\n  pop\n    /* \"contracts/Capstone.sol\":11064:11075  candidates_ */\n  dup2\n    /* \"contracts/Capstone.sol\":11076:11077  8 */\n  0x08\n    /* \"contracts/Capstone.sol\":11064:11078  candidates_[8] */\n  dup2\n  mload\n  dup2\n  lt\n  tag_36\n  jumpi\n  tag_37\n  tag_21\n  jump\t// in\ntag_37:\ntag_36:\n  0x20\n  mul\n  0x20\n  add\n  add\n    /* \"contracts/Capstone.sol\":11064:11437  candidates_[8] = Types.Candidate({... */\n  dup2\n  swap1\n  mstore\n  pop\n    /* \"contracts/Capstone.sol\":11465:11794  Types.Candidate({... */\n  mload(0x40)\n  dup1\n  0xc0\n  add\n  0x40\n  mstore\n  dup1\n  mload(0x40)\n  dup1\n  0x40\n  add\n  0x40\n  mstore\n  dup1\n  0x09\n  dup2\n  mstore\n  0x20\n  add\n  0x416d697420536861680000000000000000000000000000000000000000000000\n  dup2\n  mstore\n  pop\n  dup2\n  mstore\n  0x20\n  add\n  mload(0x40)\n  dup1\n  0x40\n  add\n  0x40\n  mstore\n  dup1\n  0x03\n  dup2\n  mstore\n  0x20\n  add\n  0x424a500000000000000000000000000000000000000000000000000000000000\n  dup2\n  mstore\n  pop\n  dup2\n  mstore\n  0x20\n  add\n  mload(0x40)\n  dup1\n  0x80\n  add\n  0x40\n  mstore\n  dup1\n  0x4c\n  dup2\n  mstore\n  0x20\n  add\n  data_5a43e486951fcead5fb40adec39686384879b9e109fd9f6ca310519ede5e211f\n  0x4c\n  swap2\n  codecopy\n  dup2\n  mstore\n  0x20\n  add\n    /* \"contracts/Capstone.sol\":11693:11705  611996864962 */\n  0x8e7ddb11c2\n    /* \"contracts/Capstone.sol\":11465:11794  Types.Candidate({... */\n  dup2\n  mstore\n  0x20\n  add\n    /* \"contracts/Capstone.sol\":11738:11740  11 */\n  0x0b\n    /* \"contracts/Capstone.sol\":11465:11794  Types.Candidate({... */\n  0xff\n  and\n  dup2\n  mstore\n  0x20\n  add\n    /* \"contracts/Capstone.sol\":11780:11781  2 */\n  0x02\n    /* \"contracts/Capstone.sol\":11465:11794  Types.Candidate({... */\n  0xff\n  and\n  dup2\n  mstore\n  pop\n    /* \"contracts/Capstone.sol\":11448:11459  candidates_ */\n  dup2\n    /* \"contracts/Capstone.sol\":11460:11461  9 */\n  0x09\n    /* \"contracts/Capstone.sol\":11448:11462  candidates_[9] */\n  dup2\n  mload\n  dup2\n  lt\n  tag_38\n  jumpi\n  tag_39\n  tag_21\n  jump\t// in\ntag_39:\ntag_38:\n  0x20\n  mul\n  0x20\n  add\n  add\n    /* \"contracts/Capstone.sol\":11448:11794  candidates_[9] = Types.Candidate({... */\n  dup2\n  swap1\n  mstore\n  pop\n    /* \"contracts/Capstone.sol\":11823:12158  Types.Candidate({... */\n  mload(0x40)\n  dup1\n  0xc0\n  add\n  0x40\n  mstore\n  dup1\n  mload(0x40)\n  dup1\n  0x40\n  add\n  0x40\n  mstore\n  dup1\n  0x0f\n  dup2\n  mstore\n  0x20\n  add\n  0x50726979616e6b612047616e6468690000000000000000000000000000000000\n  dup2\n  mstore\n  pop\n  dup2\n  mstore\n  0x20\n  add\n  mload(0x40)\n  dup1\n  0x40\n  add\n  0x40\n  mstore\n  dup1\n  0x03\n  dup2\n  mstore\n  0x20\n  add\n  0x494e430000000000000000000000000000000000000000000000000000000000\n  dup2\n  mstore\n  pop\n  dup2\n  mstore\n  0x20\n  add\n  mload(0x40)\n  dup1\n  0x80\n  add\n  0x40\n  mstore\n  dup1\n  0x4c\n  dup2\n  mstore\n  0x20\n  add\n  data_7b1e484851f66d811ae6dcc24ea70862beae85f64ba381b9b2e792b836abc123\n  0x4c\n  swap2\n  codecopy\n  dup2\n  mstore\n  0x20\n  add\n    /* \"contracts/Capstone.sol\":12057:12069  866627241136 */\n  0xc9c70244b0\n    /* \"contracts/Capstone.sol\":11823:12158  Types.Candidate({... */\n  dup2\n  mstore\n  0x20\n  add\n    /* \"contracts/Capstone.sol\":12102:12104  11 */\n  0x0b\n    /* \"contracts/Capstone.sol\":11823:12158  Types.Candidate({... */\n  0xff\n  and\n  dup2\n  mstore\n  0x20\n  add\n    /* \"contracts/Capstone.sol\":12144:12145  2 */\n  0x02\n    /* \"contracts/Capstone.sol\":11823:12158  Types.Candidate({... */\n  0xff\n  and\n  dup2\n  mstore\n  pop\n    /* \"contracts/Capstone.sol\":11805:11816  candidates_ */\n  dup2\n    /* \"contracts/Capstone.sol\":11817:11819  10 */\n  0x0a\n    /* \"contracts/Capstone.sol\":11805:11820  candidates_[10] */\n  dup2\n  mload\n  dup2\n  lt\n  tag_40\n  jumpi\n  tag_41\n  tag_21\n  jump\t// in\ntag_41:\ntag_40:\n  0x20\n  mul\n  0x20\n  add\n  add\n    /* \"contracts/Capstone.sol\":11805:12158  candidates_[10] = Types.Candidate({... */\n  dup2\n  swap1\n  mstore\n  pop\n    /* \"contracts/Capstone.sol\":12187:12533  Types.Candidate({... */\n  mload(0x40)\n  dup1\n  0xc0\n  add\n  0x40\n  mstore\n  dup1\n  mload(0x40)\n  dup1\n  0x40\n  add\n  0x40\n  mstore\n  dup1\n  0x0a\n  dup2\n  mstore\n  0x20\n  add\n  0x4c616c7520596164617600000000000000000000000000000000000000000000\n  dup2\n  mstore\n  pop\n  dup2\n  mstore\n  0x20\n  add\n  mload(0x40)\n  dup1\n  0x40\n  add\n  0x40\n  mstore\n  dup1\n  0x03\n  dup2\n  mstore\n  0x20\n  add\n  0x524a440000000000000000000000000000000000000000000000000000000000\n  dup2\n  mstore\n  pop\n  dup2\n  mstore\n  0x20\n  add\n  mload(0x40)\n  dup1\n  0x80\n  add\n  0x40\n  mstore\n  dup1\n  0x5c\n  dup2\n  mstore\n  0x20\n  add\n  data_32d4d011d64875b03035b4d3aedba5c4ef346acc796514a4756d291b8d889501\n  0x5c\n  swap2\n  codecopy\n  dup2\n  mstore\n  0x20\n  add\n    /* \"contracts/Capstone.sol\":12432:12444  765724506305 */\n  0xb248bcb8c1\n    /* \"contracts/Capstone.sol\":12187:12533  Types.Candidate({... */\n  dup2\n  mstore\n  0x20\n  add\n    /* \"contracts/Capstone.sol\":12477:12479  11 */\n  0x0b\n    /* \"contracts/Capstone.sol\":12187:12533  Types.Candidate({... */\n  0xff\n  and\n  dup2\n  mstore\n  0x20\n  add\n    /* \"contracts/Capstone.sol\":12519:12520  2 */\n  0x02\n    /* \"contracts/Capstone.sol\":12187:12533  Types.Candidate({... */\n  0xff\n  and\n  dup2\n  mstore\n  pop\n    /* \"contracts/Capstone.sol\":12169:12180  candidates_ */\n  dup2\n    /* \"contracts/Capstone.sol\":12181:12183  11 */\n  0x0b\n    /* \"contracts/Capstone.sol\":12169:12184  candidates_[11] */\n  dup2\n  mload\n  dup2\n  lt\n  tag_42\n  jumpi\n  tag_43\n  tag_21\n  jump\t// in\ntag_43:\ntag_42:\n  0x20\n  mul\n  0x20\n  add\n  add\n    /* \"contracts/Capstone.sol\":12169:12533  candidates_[11] = Types.Candidate({... */\n  dup2\n  swap1\n  mstore\n  pop\n    /* \"contracts/Capstone.sol\":12562:12896  Types.Candidate({... */\n  mload(0x40)\n  dup1\n  0xc0\n  add\n  0x40\n  mstore\n  dup1\n  mload(0x40)\n  dup1\n  0x40\n  add\n  0x40\n  mstore\n  dup1\n  0x0e\n  dup2\n  mstore\n  0x20\n  add\n  0x4d616e697368205369736f646961000000000000000000000000000000000000\n  dup2\n  mstore\n  pop\n  dup2\n  mstore\n  0x20\n  add\n  mload(0x40)\n  dup1\n  0x40\n  add\n  0x40\n  mstore\n  dup1\n  0x03\n  dup2\n  mstore\n  0x20\n  add\n  0x4141500000000000000000000000000000000000000000000000000000000000\n  dup2\n  mstore\n  pop\n  dup2\n  mstore\n  0x20\n  add\n  mload(0x40)\n  dup1\n  0x80\n  add\n  0x40\n  mstore\n  dup1\n  0x4c\n  dup2\n  mstore\n  0x20\n  add\n  data_625207148eaf5547274f5a117a4927d46942a98552b117e35ee8fe5140a75321\n  0x4c\n  swap2\n  codecopy\n  dup2\n  mstore\n  0x20\n  add\n    /* \"contracts/Capstone.sol\":12795:12807  897855877716 */\n  0xd10c617254\n    /* \"contracts/Capstone.sol\":12562:12896  Types.Candidate({... */\n  dup2\n  mstore\n  0x20\n  add\n    /* \"contracts/Capstone.sol\":12840:12842  11 */\n  0x0b\n    /* \"contracts/Capstone.sol\":12562:12896  Types.Candidate({... */\n  0xff\n  and\n  dup2\n  mstore\n  0x20\n  add\n    /* \"contracts/Capstone.sol\":12882:12883  2 */\n  0x02\n    /* \"contracts/Capstone.sol\":12562:12896  Types.Candidate({... */\n  0xff\n  and\n  dup2\n  mstore\n  pop\n    /* \"contracts/Capstone.sol\":12544:12555  candidates_ */\n  dup2\n    /* \"contracts/Capstone.sol\":12556:12558  12 */\n  0x0c\n    /* \"contracts/Capstone.sol\":12544:12559  candidates_[12] */\n  dup2\n  mload\n  dup2\n  lt\n  tag_44\n  jumpi\n  tag_45\n  tag_21\n  jump\t// in\ntag_45:\ntag_44:\n  0x20\n  mul\n  0x20\n  add\n  add\n    /* \"contracts/Capstone.sol\":12544:12896  candidates_[12] = Types.Candidate({... */\n  dup2\n  swap1\n  mstore\n  pop\n    /* \"contracts/Capstone.sol\":12925:13284  Types.Candidate({... */\n  mload(0x40)\n  dup1\n  0xc0\n  add\n  0x40\n  mstore\n  dup1\n  mload(0x40)\n  dup1\n  0x40\n  add\n  0x40\n  mstore\n  dup1\n  0x0d\n  dup2\n  mstore\n  0x20\n  add\n  0x5072616b617368204b6172617400000000000000000000000000000000000000\n  dup2\n  mstore\n  pop\n  dup2\n  mstore\n  0x20\n  add\n  mload(0x40)\n  dup1\n  0x40\n  add\n  0x40\n  mstore\n  dup1\n  0x04\n  dup2\n  mstore\n  0x20\n  add\n  0x4350494d00000000000000000000000000000000000000000000000000000000\n  dup2\n  mstore\n  pop\n  dup2\n  mstore\n  0x20\n  add\n  mload(0x40)\n  dup1\n  0xa0\n  add\n  0x40\n  mstore\n  dup1\n  0x65\n  dup2\n  mstore\n  0x20\n  add\n  data_7ef2f7a40a9d08c71c188b34797589d958ee6aad7a1c5cba3f2b494776859e0b\n  0x65\n  swap2\n  codecopy\n  dup2\n  mstore\n  0x20\n  add\n    /* \"contracts/Capstone.sol\":13183:13195  463774295590 */\n  0x6bfb1a2626\n    /* \"contracts/Capstone.sol\":12925:13284  Types.Candidate({... */\n  dup2\n  mstore\n  0x20\n  add\n    /* \"contracts/Capstone.sol\":13228:13230  11 */\n  0x0b\n    /* \"contracts/Capstone.sol\":12925:13284  Types.Candidate({... */\n  0xff\n  and\n  dup2\n  mstore\n  0x20\n  add\n    /* \"contracts/Capstone.sol\":13270:13271  2 */\n  0x02\n    /* \"contracts/Capstone.sol\":12925:13284  Types.Candidate({... */\n  0xff\n  and\n  dup2\n  mstore\n  pop\n    /* \"contracts/Capstone.sol\":12907:12918  candidates_ */\n  dup2\n    /* \"contracts/Capstone.sol\":12919:12921  13 */\n  0x0d\n    /* \"contracts/Capstone.sol\":12907:12922  candidates_[13] */\n  dup2\n  mload\n  dup2\n  lt\n  tag_46\n  jumpi\n  tag_47\n  tag_21\n  jump\t// in\ntag_47:\ntag_46:\n  0x20\n  mul\n  0x20\n  add\n  add\n    /* \"contracts/Capstone.sol\":12907:13284  candidates_[13] = Types.Candidate({... */\n  dup2\n  swap1\n  mstore\n  pop\n    /* \"contracts/Capstone.sol\":13302:13311  uint256 i */\n  0x00\n    /* \"contracts/Capstone.sol\":13297:13478  for (uint256 i = 0; i < candidates_.length; i++) {... */\ntag_48:\n    /* \"contracts/Capstone.sol\":13321:13332  candidates_ */\n  dup2\n    /* \"contracts/Capstone.sol\":13321:13339  candidates_.length */\n  mload\n    /* \"contracts/Capstone.sol\":13317:13318  i */\n  dup2\n    /* \"contracts/Capstone.sol\":13317:13339  i < candidates_.length */\n  lt\n    /* \"contracts/Capstone.sol\":13297:13478  for (uint256 i = 0; i < candidates_.length; i++) {... */\n  iszero\n  tag_49\n  jumpi\n    /* \"contracts/Capstone.sol\":13406:13417  candidates_ */\n  dup2\n    /* \"contracts/Capstone.sol\":13418:13419  i */\n  dup2\n    /* \"contracts/Capstone.sol\":13406:13420  candidates_[i] */\n  dup2\n  mload\n  dup2\n  lt\n  tag_51\n  jumpi\n  tag_52\n  tag_21\n  jump\t// in\ntag_52:\ntag_51:\n  0x20\n  mul\n  0x20\n  add\n  add\n  mload\n    /* \"contracts/Capstone.sol\":13361:13370  candidate */\n  0x02\n    /* \"contracts/Capstone.sol\":13361:13403  candidate[candidates_[i].nominationNumber] */\n  0x00\n    /* \"contracts/Capstone.sol\":13371:13382  candidates_ */\n  dup5\n    /* \"contracts/Capstone.sol\":13383:13384  i */\n  dup5\n    /* \"contracts/Capstone.sol\":13371:13385  candidates_[i] */\n  dup2\n  mload\n  dup2\n  lt\n  tag_53\n  jumpi\n  tag_54\n  tag_21\n  jump\t// in\ntag_54:\ntag_53:\n  0x20\n  mul\n  0x20\n  add\n  add\n  mload\n    /* \"contracts/Capstone.sol\":13371:13402  candidates_[i].nominationNumber */\n  0x60\n  add\n  mload\n    /* \"contracts/Capstone.sol\":13361:13403  candidate[candidates_[i].nominationNumber] */\n  dup2\n  mstore\n  0x20\n  add\n  swap1\n  dup2\n  mstore\n  0x20\n  add\n  0x00\n  keccak256\n    /* \"contracts/Capstone.sol\":13361:13420  candidate[candidates_[i].nominationNumber] = candidates_[i] */\n  0x00\n  dup3\n  add\n  mload\n  dup2\n  0x00\n  add\n  swap1\n  dup2\n  tag_55\n  swap2\n  swap1\n  tag_56\n  jump\t// in\ntag_55:\n  pop\n  0x20\n  dup3\n  add\n  mload\n  dup2\n  0x01\n  add\n  swap1\n  dup2\n  tag_57\n  swap2\n  swap1\n  tag_56\n  jump\t// in\ntag_57:\n  pop\n  0x40\n  dup3\n  add\n  mload\n  dup2\n  0x02\n  add\n  swap1\n  dup2\n  tag_58\n  swap2\n  swap1\n  tag_56\n  jump\t// in\ntag_58:\n  pop\n  0x60\n  dup3\n  add\n  mload\n  dup2\n  0x03\n  add\n  sstore\n  0x80\n  dup3\n  add\n  mload\n  dup2\n  0x04\n  add\n  exp(0x0100, 0x00)\n  dup2\n  sload\n  dup2\n  0xff\n  mul\n  not\n  and\n  swap1\n  dup4\n  0xff\n  and\n  mul\n  or\n  swap1\n  sstore\n  pop\n  0xa0\n  dup3\n  add\n  mload\n  dup2\n  0x04\n  add\n  exp(0x0100, 0x01)\n  dup2\n  sload\n  dup2\n  0xff\n  mul\n  not\n  and\n  swap1\n  dup4\n  0xff\n  and\n  mul\n  or\n  swap1\n  sstore\n  pop\n  swap1\n  pop\n  pop\n    /* \"contracts/Capstone.sol\":13435:13445  candidates */\n  0x00\n    /* \"contracts/Capstone.sol\":13451:13462  candidates_ */\n  dup3\n    /* \"contracts/Capstone.sol\":13463:13464  i */\n  dup3\n    /* \"contracts/Capstone.sol\":13451:13465  candidates_[i] */\n  dup2\n  mload\n  dup2\n  lt\n  tag_59\n  jumpi\n  tag_60\n  tag_21\n  jump\t// in\ntag_60:\ntag_59:\n  0x20\n  mul\n  0x20\n  add\n  add\n  mload\n    /* \"contracts/Capstone.sol\":13435:13466  candidates.push(candidates_[i]) */\n  swap1\n  dup1\n  0x01\n  dup2\n  sload\n  add\n  dup1\n  dup3\n  sstore\n  dup1\n  swap2\n  pop\n  pop\n  0x01\n  swap1\n  sub\n  swap1\n  0x00\n  mstore\n  keccak256(0x00, 0x20)\n  swap1\n  0x05\n  mul\n  add\n  0x00\n  swap1\n  swap2\n  swap1\n  swap2\n  swap1\n  swap2\n  pop\n  0x00\n  dup3\n  add\n  mload\n  dup2\n  0x00\n  add\n  swap1\n  dup2\n  tag_62\n  swap2\n  swap1\n  tag_56\n  jump\t// in\ntag_62:\n  pop\n  0x20\n  dup3\n  add\n  mload\n  dup2\n  0x01\n  add\n  swap1\n  dup2\n  tag_63\n  swap2\n  swap1\n  tag_56\n  jump\t// in\ntag_63:\n  pop\n  0x40\n  dup3\n  add\n  mload\n  dup2\n  0x02\n  add\n  swap1\n  dup2\n  tag_64\n  swap2\n  swap1\n  tag_56\n  jump\t// in\ntag_64:\n  pop\n  0x60\n  dup3\n  add\n  mload\n  dup2\n  0x03\n  add\n  sstore\n  0x80\n  dup3\n  add\n  mload\n  dup2\n  0x04\n  add\n  exp(0x0100, 0x00)\n  dup2\n  sload\n  dup2\n  0xff\n  mul\n  not\n  and\n  swap1\n  dup4\n  0xff\n  and\n  mul\n  or\n  swap1\n  sstore\n  pop\n  0xa0\n  dup3\n  add\n  mload\n  dup2\n  0x04\n  add\n  exp(0x0100, 0x01)\n  dup2\n  sload\n  dup2\n  0xff\n  mul\n  not\n  and\n  swap1\n  dup4\n  0xff\n  and\n  mul\n  or\n  swap1\n  sstore\n  pop\n  pop\n  pop\n    /* \"contracts/Capstone.sol\":13341:13344  i++ */\n  dup1\n  dup1\n  tag_65\n  swap1\n  tag_66\n  jump\t// in\ntag_65:\n  swap2\n  pop\n  pop\n    /* \"contracts/Capstone.sol\":13297:13478  for (uint256 i = 0; i < candidates_.length; i++) {... */\n  jump(tag_48)\ntag_49:\n  pop\n    /* \"contracts/Capstone.sol\":8003:13485  {... */\n  pop\n    /* \"contracts/Capstone.sol\":7954:13485  function initializeCandidateDatabase_() internal {... */\n  jump\t// out\n    /* \"contracts/Capstone.sol\":13740:19508  function initializeVoterDatabase_() internal {... */\ntag_9:\n    /* \"contracts/Capstone.sol\":13854:14124  Types.Voter({... */\n  mload(0x40)\n  dup1\n  0xe0\n  add\n  0x40\n  mstore\n  dup1\n    /* \"contracts/Capstone.sol\":13932:13944  482253918244 */\n  0x704892d024\n    /* \"contracts/Capstone.sol\":13854:14124  Types.Voter({... */\n  dup2\n  mstore\n  0x20\n  add\n  mload(0x40)\n  dup1\n  0x40\n  add\n  0x40\n  mstore\n  dup1\n  0x06\n  dup2\n  mstore\n  0x20\n  add\n  0x5375726573680000000000000000000000000000000000000000000000000000\n  dup2\n  mstore\n  pop\n  dup2\n  mstore\n  0x20\n  add\n    /* \"contracts/Capstone.sol\":13971:13973  21 */\n  0x15\n    /* \"contracts/Capstone.sol\":13854:14124  Types.Voter({... */\n  0xff\n  and\n  dup2\n  mstore\n  0x20\n  add\n    /* \"contracts/Capstone.sol\":14006:14008  10 */\n  0x0a\n    /* \"contracts/Capstone.sol\":13854:14124  Types.Voter({... */\n  0xff\n  and\n  dup2\n  mstore\n  0x20\n  add\n    /* \"contracts/Capstone.sol\":14048:14049  1 */\n  0x01\n    /* \"contracts/Capstone.sol\":13854:14124  Types.Voter({... */\n  0xff\n  and\n  dup2\n  mstore\n  0x20\n  add\n    /* \"contracts/Capstone.sol\":14074:14078  true */\n  0x01\n    /* \"contracts/Capstone.sol\":13854:14124  Types.Voter({... */\n  iszero\n  iszero\n  dup2\n  mstore\n  0x20\n  add\n    /* \"contracts/Capstone.sol\":14110:14111  0 */\n  0x00\n    /* \"contracts/Capstone.sol\":13854:14124  Types.Voter({... */\n  dup2\n  mstore\n  pop\n    /* \"contracts/Capstone.sol\":13823:13828  voter */\n  0x01\n    /* \"contracts/Capstone.sol\":13823:13851  voter[uint256(482253918244)] */\n  0x00\n    /* \"contracts/Capstone.sol\":13837:13849  482253918244 */\n  0x704892d024\n    /* \"contracts/Capstone.sol\":13823:13851  voter[uint256(482253918244)] */\n  dup2\n  mstore\n  0x20\n  add\n  swap1\n  dup2\n  mstore\n  0x20\n  add\n  0x00\n  keccak256\n    /* \"contracts/Capstone.sol\":13823:14124  voter[uint256(482253918244)] = Types.Voter({... */\n  0x00\n  dup3\n  add\n  mload\n  dup2\n  0x00\n  add\n  sstore\n  0x20\n  dup3\n  add\n  mload\n  dup2\n  0x01\n  add\n  swap1\n  dup2\n  tag_68\n  swap2\n  swap1\n  tag_56\n  jump\t// in\ntag_68:\n  pop\n  0x40\n  dup3\n  add\n  mload\n  dup2\n  0x02\n  add\n  exp(0x0100, 0x00)\n  dup2\n  sload\n  dup2\n  0xff\n  mul\n  not\n  and\n  swap1\n  dup4\n  0xff\n  and\n  mul\n  or\n  swap1\n  sstore\n  pop\n  0x60\n  dup3\n  add\n  mload\n  dup2\n  0x02\n  add\n  exp(0x0100, 0x01)\n  dup2\n  sload\n  dup2\n  0xff\n  mul\n  not\n  and\n  swap1\n  dup4\n  0xff\n  and\n  mul\n  or\n  swap1\n  sstore\n  pop\n  0x80\n  dup3\n  add\n  mload\n  dup2\n  0x02\n  add\n  exp(0x0100, 0x02)\n  dup2\n  sload\n  dup2\n  0xff\n  mul\n  not\n  and\n  swap1\n  dup4\n  0xff\n  and\n  mul\n  or\n  swap1\n  sstore\n  pop\n  0xa0\n  dup3\n  add\n  mload\n  dup2\n  0x02\n  add\n  exp(0x0100, 0x03)\n  dup2\n  sload\n  dup2\n  0xff\n  mul\n  not\n  and\n  swap1\n  dup4\n  iszero\n  iszero\n  mul\n  or\n  swap1\n  sstore\n  pop\n  0xc0\n  dup3\n  add\n  mload\n  dup2\n  0x03\n  add\n  sstore\n  swap1\n  pop\n  pop\n    /* \"contracts/Capstone.sol\":14166:14437  Types.Voter({... */\n  mload(0x40)\n  dup1\n  0xe0\n  add\n  0x40\n  mstore\n  dup1\n    /* \"contracts/Capstone.sol\":14244:14256  532122269467 */\n  0x7be4f5771b\n    /* \"contracts/Capstone.sol\":14166:14437  Types.Voter({... */\n  dup2\n  mstore\n  0x20\n  add\n  mload(0x40)\n  dup1\n  0x40\n  add\n  0x40\n  mstore\n  dup1\n  0x06\n  dup2\n  mstore\n  0x20\n  add\n  0x52616d6573680000000000000000000000000000000000000000000000000000\n  dup2\n  mstore\n  pop\n  dup2\n  mstore\n  0x20\n  add\n    /* \"contracts/Capstone.sol\":14283:14285  37 */\n  0x25\n    /* \"contracts/Capstone.sol\":14166:14437  Types.Voter({... */\n  0xff\n  and\n  dup2\n  mstore\n  0x20\n  add\n    /* \"contracts/Capstone.sol\":14318:14320  10 */\n  0x0a\n    /* \"contracts/Capstone.sol\":14166:14437  Types.Voter({... */\n  0xff\n  and\n  dup2\n  mstore\n  0x20\n  add\n    /* \"contracts/Capstone.sol\":14360:14361  1 */\n  0x01\n    /* \"contracts/Capstone.sol\":14166:14437  Types.Voter({... */\n  0xff\n  and\n  dup2\n  mstore\n  0x20\n  add\n    /* \"contracts/Capstone.sol\":14386:14391  false */\n  0x00\n    /* \"contracts/Capstone.sol\":14166:14437  Types.Voter({... */\n  iszero\n  iszero\n  dup2\n  mstore\n  0x20\n  add\n    /* \"contracts/Capstone.sol\":14423:14424  0 */\n  0x00\n    /* \"contracts/Capstone.sol\":14166:14437  Types.Voter({... */\n  dup2\n  mstore\n  pop\n    /* \"contracts/Capstone.sol\":14135:14140  voter */\n  0x01\n    /* \"contracts/Capstone.sol\":14135:14163  voter[uint256(532122269467)] */\n  0x00\n    /* \"contracts/Capstone.sol\":14149:14161  532122269467 */\n  0x7be4f5771b\n    /* \"contracts/Capstone.sol\":14135:14163  voter[uint256(532122269467)] */\n  dup2\n  mstore\n  0x20\n  add\n  swap1\n  dup2\n  mstore\n  0x20\n  add\n  0x00\n  keccak256\n    /* \"contracts/Capstone.sol\":14135:14437  voter[uint256(532122269467)] = Types.Voter({... */\n  0x00\n  dup3\n  add\n  mload\n  dup2\n  0x00\n  add\n  sstore\n  0x20\n  dup3\n  add\n  mload\n  dup2\n  0x01\n  add\n  swap1\n  dup2\n  tag_69\n  swap2\n  swap1\n  tag_56\n  jump\t// in\ntag_69:\n  pop\n  0x40\n  dup3\n  add\n  mload\n  dup2\n  0x02\n  add\n  exp(0x0100, 0x00)\n  dup2\n  sload\n  dup2\n  0xff\n  mul\n  not\n  and\n  swap1\n  dup4\n  0xff\n  and\n  mul\n  or\n  swap1\n  sstore\n  pop\n  0x60\n  dup3\n  add\n  mload\n  dup2\n  0x02\n  add\n  exp(0x0100, 0x01)\n  dup2\n  sload\n  dup2\n  0xff\n  mul\n  not\n  and\n  swap1\n  dup4\n  0xff\n  and\n  mul\n  or\n  swap1\n  sstore\n  pop\n  0x80\n  dup3\n  add\n  mload\n  dup2\n  0x02\n  add\n  exp(0x0100, 0x02)\n  dup2\n  sload\n  dup2\n  0xff\n  mul\n  not\n  and\n  swap1\n  dup4\n  0xff\n  and\n  mul\n  or\n  swap1\n  sstore\n  pop\n  0xa0\n  dup3\n  add\n  mload\n  dup2\n  0x02\n  add\n  exp(0x0100, 0x03)\n  dup2\n  sload\n  dup2\n  0xff\n  mul\n  not\n  and\n  swap1\n  dup4\n  iszero\n  iszero\n  mul\n  or\n  swap1\n  sstore\n  pop\n  0xc0\n  dup3\n  add\n  mload\n  dup2\n  0x03\n  add\n  sstore\n  swap1\n  pop\n  pop\n    /* \"contracts/Capstone.sol\":14479:14749  Types.Voter({... */\n  mload(0x40)\n  dup1\n  0xe0\n  add\n  0x40\n  mstore\n  dup1\n    /* \"contracts/Capstone.sol\":14557:14569  468065932286 */\n  0x6cfae753fe\n    /* \"contracts/Capstone.sol\":14479:14749  Types.Voter({... */\n  dup2\n  mstore\n  0x20\n  add\n  mload(0x40)\n  dup1\n  0x40\n  add\n  0x40\n  mstore\n  dup1\n  0x06\n  dup2\n  mstore\n  0x20\n  add\n  0x4d61686573680000000000000000000000000000000000000000000000000000\n  dup2\n  mstore\n  pop\n  dup2\n  mstore\n  0x20\n  add\n    /* \"contracts/Capstone.sol\":14596:14598  26 */\n  0x1a\n    /* \"contracts/Capstone.sol\":14479:14749  Types.Voter({... */\n  0xff\n  and\n  dup2\n  mstore\n  0x20\n  add\n    /* \"contracts/Capstone.sol\":14631:14633  10 */\n  0x0a\n    /* \"contracts/Capstone.sol\":14479:14749  Types.Voter({... */\n  0xff\n  and\n  dup2\n  mstore\n  0x20\n  add\n    /* \"contracts/Capstone.sol\":14673:14674  1 */\n  0x01\n    /* \"contracts/Capstone.sol\":14479:14749  Types.Voter({... */\n  0xff\n  and\n  dup2\n  mstore\n  0x20\n  add\n    /* \"contracts/Capstone.sol\":14699:14703  true */\n  0x01\n    /* \"contracts/Capstone.sol\":14479:14749  Types.Voter({... */\n  iszero\n  iszero\n  dup2\n  mstore\n  0x20\n  add\n    /* \"contracts/Capstone.sol\":14735:14736  0 */\n  0x00\n    /* \"contracts/Capstone.sol\":14479:14749  Types.Voter({... */\n  dup2\n  mstore\n  pop\n    /* \"contracts/Capstone.sol\":14448:14453  voter */\n  0x01\n    /* \"contracts/Capstone.sol\":14448:14476  voter[uint256(468065932286)] */\n  0x00\n    /* \"contracts/Capstone.sol\":14462:14474  468065932286 */\n  0x6cfae753fe\n    /* \"contracts/Capstone.sol\":14448:14476  voter[uint256(468065932286)] */\n  dup2\n  mstore\n  0x20\n  add\n  swap1\n  dup2\n  mstore\n  0x20\n  add\n  0x00\n  keccak256\n    /* \"contracts/Capstone.sol\":14448:14749  voter[uint256(468065932286)] = Types.Voter({... */\n  0x00\n  dup3\n  add\n  mload\n  dup2\n  0x00\n  add\n  sstore\n  0x20\n  dup3\n  add\n  mload\n  dup2\n  0x01\n  add\n  swap1\n  dup2\n  tag_70\n  swap2\n  swap1\n  tag_56\n  jump\t// in\ntag_70:\n  pop\n  0x40\n  dup3\n  add\n  mload\n  dup2\n  0x02\n  add\n  exp(0x0100, 0x00)\n  dup2\n  sload\n  dup2\n  0xff\n  mul\n  not\n  and\n  swap1\n  dup4\n  0xff\n  and\n  mul\n  or\n  swap1\n  sstore\n  pop\n  0x60\n  dup3\n  add\n  mload\n  dup2\n  0x02\n  add\n  exp(0x0100, 0x01)\n  dup2\n  sload\n  dup2\n  0xff\n  mul\n  not\n  and\n  swap1\n  dup4\n  0xff\n  and\n  mul\n  or\n  swap1\n  sstore\n  pop\n  0x80\n  dup3\n  add\n  mload\n  dup2\n  0x02\n  add\n  exp(0x0100, 0x02)\n  dup2\n  sload\n  dup2\n  0xff\n  mul\n  not\n  and\n  swap1\n  dup4\n  0xff\n  and\n  mul\n  or\n  swap1\n  sstore\n  pop\n  0xa0\n  dup3\n  add\n  mload\n  dup2\n  0x02\n  add\n  exp(0x0100, 0x03)\n  dup2\n  sload\n  dup2\n  0xff\n  mul\n  not\n  and\n  swap1\n  dup4\n  iszero\n  iszero\n  mul\n  or\n  swap1\n  sstore\n  pop\n  0xc0\n  dup3\n  add\n  mload\n  dup2\n  0x03\n  add\n  sstore\n  swap1\n  pop\n  pop\n    /* \"contracts/Capstone.sol\":14791:15062  Types.Voter({... */\n  mload(0x40)\n  dup1\n  0xe0\n  add\n  0x40\n  mstore\n  dup1\n    /* \"contracts/Capstone.sol\":14870:14882  809961147437 */\n  0xbc95724c2d\n    /* \"contracts/Capstone.sol\":14791:15062  Types.Voter({... */\n  dup2\n  mstore\n  0x20\n  add\n  mload(0x40)\n  dup1\n  0x40\n  add\n  0x40\n  mstore\n  dup1\n  0x07\n  dup2\n  mstore\n  0x20\n  add\n  0x4b726973686e6100000000000000000000000000000000000000000000000000\n  dup2\n  mstore\n  pop\n  dup2\n  mstore\n  0x20\n  add\n    /* \"contracts/Capstone.sol\":14909:14911  19 */\n  0x13\n    /* \"contracts/Capstone.sol\":14791:15062  Types.Voter({... */\n  0xff\n  and\n  dup2\n  mstore\n  0x20\n  add\n    /* \"contracts/Capstone.sol\":14944:14946  10 */\n  0x0a\n    /* \"contracts/Capstone.sol\":14791:15062  Types.Voter({... */\n  0xff\n  and\n  dup2\n  mstore\n  0x20\n  add\n    /* \"contracts/Capstone.sol\":14986:14987  2 */\n  0x02\n    /* \"contracts/Capstone.sol\":14791:15062  Types.Voter({... */\n  0xff\n  and\n  dup2\n  mstore\n  0x20\n  add\n    /* \"contracts/Capstone.sol\":15012:15016  true */\n  0x01\n    /* \"contracts/Capstone.sol\":14791:15062  Types.Voter({... */\n  iszero\n  iszero\n  dup2\n  mstore\n  0x20\n  add\n    /* \"contracts/Capstone.sol\":15048:15049  0 */\n  0x00\n    /* \"contracts/Capstone.sol\":14791:15062  Types.Voter({... */\n  dup2\n  mstore\n  pop\n    /* \"contracts/Capstone.sol\":14760:14765  voter */\n  0x01\n    /* \"contracts/Capstone.sol\":14760:14788  voter[uint256(809961147437)] */\n  0x00\n    /* \"contracts/Capstone.sol\":14774:14786  809961147437 */\n  0xbc95724c2d\n    /* \"contracts/Capstone.sol\":14760:14788  voter[uint256(809961147437)] */\n  dup2\n  mstore\n  0x20\n  add\n  swap1\n  dup2\n  mstore\n  0x20\n  add\n  0x00\n  keccak256\n    /* \"contracts/Capstone.sol\":14760:15062  voter[uint256(809961147437)] = Types.Voter({... */\n  0x00\n  dup3\n  add\n  mload\n  dup2\n  0x00\n  add\n  sstore\n  0x20\n  dup3\n  add\n  mload\n  dup2\n  0x01\n  add\n  swap1\n  dup2\n  tag_71\n  swap2\n  swap1\n  tag_56\n  jump\t// in\ntag_71:\n  pop\n  0x40\n  dup3\n  add\n  mload\n  dup2\n  0x02\n  add\n  exp(0x0100, 0x00)\n  dup2\n  sload\n  dup2\n  0xff\n  mul\n  not\n  and\n  swap1\n  dup4\n  0xff\n  and\n  mul\n  or\n  swap1\n  sstore\n  pop\n  0x60\n  dup3\n  add\n  mload\n  dup2\n  0x02\n  add\n  exp(0x0100, 0x01)\n  dup2\n  sload\n  dup2\n  0xff\n  mul\n  not\n  and\n  swap1\n  dup4\n  0xff\n  and\n  mul\n  or\n  swap1\n  sstore\n  pop\n  0x80\n  dup3\n  add\n  mload\n  dup2\n  0x02\n  add\n  exp(0x0100, 0x02)\n  dup2\n  sload\n  dup2\n  0xff\n  mul\n  not\n  and\n  swap1\n  dup4\n  0xff\n  and\n  mul\n  or\n  swap1\n  sstore\n  pop\n  0xa0\n  dup3\n  add\n  mload\n  dup2\n  0x02\n  add\n  exp(0x0100, 0x03)\n  dup2\n  sload\n  dup2\n  0xff\n  mul\n  not\n  and\n  swap1\n  dup4\n  iszero\n  iszero\n  mul\n  or\n  swap1\n  sstore\n  pop\n  0xc0\n  dup3\n  add\n  mload\n  dup2\n  0x03\n  add\n  sstore\n  swap1\n  pop\n  pop\n    /* \"contracts/Capstone.sol\":15104:15376  Types.Voter({... */\n  mload(0x40)\n  dup1\n  0xe0\n  add\n  0x40\n  mstore\n  dup1\n    /* \"contracts/Capstone.sol\":15184:15196  908623597782 */\n  0xd38e2fd0d6\n    /* \"contracts/Capstone.sol\":15104:15376  Types.Voter({... */\n  dup2\n  mstore\n  0x20\n  add\n  mload(0x40)\n  dup1\n  0x40\n  add\n  0x40\n  mstore\n  dup1\n  0x08\n  dup2\n  mstore\n  0x20\n  add\n  0x4e6172656e647261000000000000000000000000000000000000000000000000\n  dup2\n  mstore\n  pop\n  dup2\n  mstore\n  0x20\n  add\n    /* \"contracts/Capstone.sol\":15223:15225  36 */\n  0x24\n    /* \"contracts/Capstone.sol\":15104:15376  Types.Voter({... */\n  0xff\n  and\n  dup2\n  mstore\n  0x20\n  add\n    /* \"contracts/Capstone.sol\":15258:15260  10 */\n  0x0a\n    /* \"contracts/Capstone.sol\":15104:15376  Types.Voter({... */\n  0xff\n  and\n  dup2\n  mstore\n  0x20\n  add\n    /* \"contracts/Capstone.sol\":15300:15301  2 */\n  0x02\n    /* \"contracts/Capstone.sol\":15104:15376  Types.Voter({... */\n  0xff\n  and\n  dup2\n  mstore\n  0x20\n  add\n    /* \"contracts/Capstone.sol\":15326:15330  true */\n  0x01\n    /* \"contracts/Capstone.sol\":15104:15376  Types.Voter({... */\n  iszero\n  iszero\n  dup2\n  mstore\n  0x20\n  add\n    /* \"contracts/Capstone.sol\":15362:15363  0 */\n  0x00\n    /* \"contracts/Capstone.sol\":15104:15376  Types.Voter({... */\n  dup2\n  mstore\n  pop\n    /* \"contracts/Capstone.sol\":15073:15078  voter */\n  0x01\n    /* \"contracts/Capstone.sol\":15073:15101  voter[uint256(908623597782)] */\n  0x00\n    /* \"contracts/Capstone.sol\":15087:15099  908623597782 */\n  0xd38e2fd0d6\n    /* \"contracts/Capstone.sol\":15073:15101  voter[uint256(908623597782)] */\n  dup2\n  mstore\n  0x20\n  add\n  swap1\n  dup2\n  mstore\n  0x20\n  add\n  0x00\n  keccak256\n    /* \"contracts/Capstone.sol\":15073:15376  voter[uint256(908623597782)] = Types.Voter({... */\n  0x00\n  dup3\n  add\n  mload\n  dup2\n  0x00\n  add\n  sstore\n  0x20\n  dup3\n  add\n  mload\n  dup2\n  0x01\n  add\n  swap1\n  dup2\n  tag_72\n  swap2\n  swap1\n  tag_56\n  jump\t// in\ntag_72:\n  pop\n  0x40\n  dup3\n  add\n  mload\n  dup2\n  0x02\n  add\n  exp(0x0100, 0x00)\n  dup2\n  sload\n  dup2\n  0xff\n  mul\n  not\n  and\n  swap1\n  dup4\n  0xff\n  and\n  mul\n  or\n  swap1\n  sstore\n  pop\n  0x60\n  dup3\n  add\n  mload\n  dup2\n  0x02\n  add\n  exp(0x0100, 0x01)\n  dup2\n  sload\n  dup2\n  0xff\n  mul\n  not\n  and\n  swap1\n  dup4\n  0xff\n  and\n  mul\n  or\n  swap1\n  sstore\n  pop\n  0x80\n  dup3\n  add\n  mload\n  dup2\n  0x02\n  add\n  exp(0x0100, 0x02)\n  dup2\n  sload\n  dup2\n  0xff\n  mul\n  not\n  and\n  swap1\n  dup4\n  0xff\n  and\n  mul\n  or\n  swap1\n  sstore\n  pop\n  0xa0\n  dup3\n  add\n  mload\n  dup2\n  0x02\n  add\n  exp(0x0100, 0x03)\n  dup2\n  sload\n  dup2\n  0xff\n  mul\n  not\n  and\n  swap1\n  dup4\n  iszero\n  iszero\n  mul\n  or\n  swap1\n  sstore\n  pop\n  0xc0\n  dup3\n  add\n  mload\n  dup2\n  0x03\n  add\n  sstore\n  swap1\n  pop\n  pop\n    /* \"contracts/Capstone.sol\":15418:15687  Types.Voter({... */\n  mload(0x40)\n  dup1\n  0xe0\n  add\n  0x40\n  mstore\n  dup1\n    /* \"contracts/Capstone.sol\":15495:15507  760344621247 */\n  0xb1081230bf\n    /* \"contracts/Capstone.sol\":15418:15687  Types.Voter({... */\n  dup2\n  mstore\n  0x20\n  add\n  mload(0x40)\n  dup1\n  0x40\n  add\n  0x40\n  mstore\n  dup1\n  0x05\n  dup2\n  mstore\n  0x20\n  add\n  0x5261676875000000000000000000000000000000000000000000000000000000\n  dup2\n  mstore\n  pop\n  dup2\n  mstore\n  0x20\n  add\n    /* \"contracts/Capstone.sol\":15534:15536  42 */\n  0x2a\n    /* \"contracts/Capstone.sol\":15418:15687  Types.Voter({... */\n  0xff\n  and\n  dup2\n  mstore\n  0x20\n  add\n    /* \"contracts/Capstone.sol\":15569:15571  10 */\n  0x0a\n    /* \"contracts/Capstone.sol\":15418:15687  Types.Voter({... */\n  0xff\n  and\n  dup2\n  mstore\n  0x20\n  add\n    /* \"contracts/Capstone.sol\":15611:15612  2 */\n  0x02\n    /* \"contracts/Capstone.sol\":15418:15687  Types.Voter({... */\n  0xff\n  and\n  dup2\n  mstore\n  0x20\n  add\n    /* \"contracts/Capstone.sol\":15637:15641  true */\n  0x01\n    /* \"contracts/Capstone.sol\":15418:15687  Types.Voter({... */\n  iszero\n  iszero\n  dup2\n  mstore\n  0x20\n  add\n    /* \"contracts/Capstone.sol\":15673:15674  0 */\n  0x00\n    /* \"contracts/Capstone.sol\":15418:15687  Types.Voter({... */\n  dup2\n  mstore\n  pop\n    /* \"contracts/Capstone.sol\":15387:15392  voter */\n  0x01\n    /* \"contracts/Capstone.sol\":15387:15415  voter[uint256(760344621247)] */\n  0x00\n    /* \"contracts/Capstone.sol\":15401:15413  760344621247 */\n  0xb1081230bf\n    /* \"contracts/Capstone.sol\":15387:15415  voter[uint256(760344621247)] */\n  dup2\n  mstore\n  0x20\n  add\n  swap1\n  dup2\n  mstore\n  0x20\n  add\n  0x00\n  keccak256\n    /* \"contracts/Capstone.sol\":15387:15687  voter[uint256(760344621247)] = Types.Voter({... */\n  0x00\n  dup3\n  add\n  mload\n  dup2\n  0x00\n  add\n  sstore\n  0x20\n  dup3\n  add\n  mload\n  dup2\n  0x01\n  add\n  swap1\n  dup2\n  tag_73\n  swap2\n  swap1\n  tag_56\n  jump\t// in\ntag_73:\n  pop\n  0x40\n  dup3\n  add\n  mload\n  dup2\n  0x02\n  add\n  exp(0x0100, 0x00)\n  dup2\n  sload\n  dup2\n  0xff\n  mul\n  not\n  and\n  swap1\n  dup4\n  0xff\n  and\n  mul\n  or\n  swap1\n  sstore\n  pop\n  0x60\n  dup3\n  add\n  mload\n  dup2\n  0x02\n  add\n  exp(0x0100, 0x01)\n  dup2\n  sload\n  dup2\n  0xff\n  mul\n  not\n  and\n  swap1\n  dup4\n  0xff\n  and\n  mul\n  or\n  swap1\n  sstore\n  pop\n  0x80\n  dup3\n  add\n  mload\n  dup2\n  0x02\n  add\n  exp(0x0100, 0x02)\n  dup2\n  sload\n  dup2\n  0xff\n  mul\n  not\n  and\n  swap1\n  dup4\n  0xff\n  and\n  mul\n  or\n  swap1\n  sstore\n  pop\n  0xa0\n  dup3\n  add\n  mload\n  dup2\n  0x02\n  add\n  exp(0x0100, 0x03)\n  dup2\n  sload\n  dup2\n  0xff\n  mul\n  not\n  and\n  swap1\n  dup4\n  iszero\n  iszero\n  mul\n  or\n  swap1\n  sstore\n  pop\n  0xc0\n  dup3\n  add\n  mload\n  dup2\n  0x03\n  add\n  sstore\n  swap1\n  pop\n  pop\n    /* \"contracts/Capstone.sol\":15747:16024  Types.Voter({... */\n  mload(0x40)\n  dup1\n  0xe0\n  add\n  0x40\n  mstore\n  dup1\n    /* \"contracts/Capstone.sol\":15832:15844  908704156902 */\n  0xd392fd0ce6\n    /* \"contracts/Capstone.sol\":15747:16024  Types.Voter({... */\n  dup2\n  mstore\n  0x20\n  add\n  mload(0x40)\n  dup1\n  0x40\n  add\n  0x40\n  mstore\n  dup1\n  0x0d\n  dup2\n  mstore\n  0x20\n  add\n  0x507573686b6172204b756d617200000000000000000000000000000000000000\n  dup2\n  mstore\n  pop\n  dup2\n  mstore\n  0x20\n  add\n    /* \"contracts/Capstone.sol\":15871:15873  25 */\n  0x19\n    /* \"contracts/Capstone.sol\":15747:16024  Types.Voter({... */\n  0xff\n  and\n  dup2\n  mstore\n  0x20\n  add\n    /* \"contracts/Capstone.sol\":15906:15908  11 */\n  0x0b\n    /* \"contracts/Capstone.sol\":15747:16024  Types.Voter({... */\n  0xff\n  and\n  dup2\n  mstore\n  0x20\n  add\n    /* \"contracts/Capstone.sol\":15948:15949  1 */\n  0x01\n    /* \"contracts/Capstone.sol\":15747:16024  Types.Voter({... */\n  0xff\n  and\n  dup2\n  mstore\n  0x20\n  add\n    /* \"contracts/Capstone.sol\":15974:15978  true */\n  0x01\n    /* \"contracts/Capstone.sol\":15747:16024  Types.Voter({... */\n  iszero\n  iszero\n  dup2\n  mstore\n  0x20\n  add\n    /* \"contracts/Capstone.sol\":16010:16011  0 */\n  0x00\n    /* \"contracts/Capstone.sol\":15747:16024  Types.Voter({... */\n  dup2\n  mstore\n  pop\n    /* \"contracts/Capstone.sol\":15716:15721  voter */\n  0x01\n    /* \"contracts/Capstone.sol\":15716:15744  voter[uint256(908704156902)] */\n  0x00\n    /* \"contracts/Capstone.sol\":15730:15742  908704156902 */\n  0xd392fd0ce6\n    /* \"contracts/Capstone.sol\":15716:15744  voter[uint256(908704156902)] */\n  dup2\n  mstore\n  0x20\n  add\n  swap1\n  dup2\n  mstore\n  0x20\n  add\n  0x00\n  keccak256\n    /* \"contracts/Capstone.sol\":15716:16024  voter[uint256(908704156902)] = Types.Voter({... */\n  0x00\n  dup3\n  add\n  mload\n  dup2\n  0x00\n  add\n  sstore\n  0x20\n  dup3\n  add\n  mload\n  dup2\n  0x01\n  add\n  swap1\n  dup2\n  tag_74\n  swap2\n  swap1\n  tag_56\n  jump\t// in\ntag_74:\n  pop\n  0x40\n  dup3\n  add\n  mload\n  dup2\n  0x02\n  add\n  exp(0x0100, 0x00)\n  dup2\n  sload\n  dup2\n  0xff\n  mul\n  not\n  and\n  swap1\n  dup4\n  0xff\n  and\n  mul\n  or\n  swap1\n  sstore\n  pop\n  0x60\n  dup3\n  add\n  mload\n  dup2\n  0x02\n  add\n  exp(0x0100, 0x01)\n  dup2\n  sload\n  dup2\n  0xff\n  mul\n  not\n  and\n  swap1\n  dup4\n  0xff\n  and\n  mul\n  or\n  swap1\n  sstore\n  pop\n  0x80\n  dup3\n  add\n  mload\n  dup2\n  0x02\n  add\n  exp(0x0100, 0x02)\n  dup2\n  sload\n  dup2\n  0xff\n  mul\n  not\n  and\n  swap1\n  dup4\n  0xff\n  and\n  mul\n  or\n  swap1\n  sstore\n  pop\n  0xa0\n  dup3\n  add\n  mload\n  dup2\n  0x02\n  add\n  exp(0x0100, 0x03)\n  dup2\n  sload\n  dup2\n  0xff\n  mul\n  not\n  and\n  swap1\n  dup4\n  iszero\n  iszero\n  mul\n  or\n  swap1\n  sstore\n  pop\n  0xc0\n  dup3\n  add\n  mload\n  dup2\n  0x03\n  add\n  sstore\n  swap1\n  pop\n  pop\n    /* \"contracts/Capstone.sol\":16066:16341  Types.Voter({... */\n  mload(0x40)\n  dup1\n  0xe0\n  add\n  0x40\n  mstore\n  dup1\n    /* \"contracts/Capstone.sol\":16149:16161  778925466180 */\n  0xb55b936244\n    /* \"contracts/Capstone.sol\":16066:16341  Types.Voter({... */\n  dup2\n  mstore\n  0x20\n  add\n  mload(0x40)\n  dup1\n  0x40\n  add\n  0x40\n  mstore\n  dup1\n  0x0b\n  dup2\n  mstore\n  0x20\n  add\n  0x4b756e616c204b756d6172000000000000000000000000000000000000000000\n  dup2\n  mstore\n  pop\n  dup2\n  mstore\n  0x20\n  add\n    /* \"contracts/Capstone.sol\":16188:16190  37 */\n  0x25\n    /* \"contracts/Capstone.sol\":16066:16341  Types.Voter({... */\n  0xff\n  and\n  dup2\n  mstore\n  0x20\n  add\n    /* \"contracts/Capstone.sol\":16223:16225  11 */\n  0x0b\n    /* \"contracts/Capstone.sol\":16066:16341  Types.Voter({... */\n  0xff\n  and\n  dup2\n  mstore\n  0x20\n  add\n    /* \"contracts/Capstone.sol\":16265:16266  1 */\n  0x01\n    /* \"contracts/Capstone.sol\":16066:16341  Types.Voter({... */\n  0xff\n  and\n  dup2\n  mstore\n  0x20\n  add\n    /* \"contracts/Capstone.sol\":16291:16295  true */\n  0x01\n    /* \"contracts/Capstone.sol\":16066:16341  Types.Voter({... */\n  iszero\n  iszero\n  dup2\n  mstore\n  0x20\n  add\n    /* \"contracts/Capstone.sol\":16327:16328  0 */\n  0x00\n    /* \"contracts/Capstone.sol\":16066:16341  Types.Voter({... */\n  dup2\n  mstore\n  pop\n    /* \"contracts/Capstone.sol\":16035:16040  voter */\n  0x01\n    /* \"contracts/Capstone.sol\":16035:16063  voter[uint256(778925466180)] */\n  0x00\n    /* \"contracts/Capstone.sol\":16049:16061  778925466180 */\n  0xb55b936244\n    /* \"contracts/Capstone.sol\":16035:16063  voter[uint256(778925466180)] */\n  dup2\n  mstore\n  0x20\n  add\n  swap1\n  dup2\n  mstore\n  0x20\n  add\n  0x00\n  keccak256\n    /* \"contracts/Capstone.sol\":16035:16341  voter[uint256(778925466180)] = Types.Voter({... */\n  0x00\n  dup3\n  add\n  mload\n  dup2\n  0x00\n  add\n  sstore\n  0x20\n  dup3\n  add\n  mload\n  dup2\n  0x01\n  add\n  swap1\n  dup2\n  tag_75\n  swap2\n  swap1\n  tag_56\n  jump\t// in\ntag_75:\n  pop\n  0x40\n  dup3\n  add\n  mload\n  dup2\n  0x02\n  add\n  exp(0x0100, 0x00)\n  dup2\n  sload\n  dup2\n  0xff\n  mul\n  not\n  and\n  swap1\n  dup4\n  0xff\n  and\n  mul\n  or\n  swap1\n  sstore\n  pop\n  0x60\n  dup3\n  add\n  mload\n  dup2\n  0x02\n  add\n  exp(0x0100, 0x01)\n  dup2\n  sload\n  dup2\n  0xff\n  mul\n  not\n  and\n  swap1\n  dup4\n  0xff\n  and\n  mul\n  or\n  swap1\n  sstore\n  pop\n  0x80\n  dup3\n  add\n  mload\n  dup2\n  0x02\n  add\n  exp(0x0100, 0x02)\n  dup2\n  sload\n  dup2\n  0xff\n  mul\n  not\n  and\n  swap1\n  dup4\n  0xff\n  and\n  mul\n  or\n  swap1\n  sstore\n  pop\n  0xa0\n  dup3\n  add\n  mload\n  dup2\n  0x02\n  add\n  exp(0x0100, 0x03)\n  dup2\n  sload\n  dup2\n  0xff\n  mul\n  not\n  and\n  swap1\n  dup4\n  iszero\n  iszero\n  mul\n  or\n  swap1\n  sstore\n  pop\n  0xc0\n  dup3\n  add\n  mload\n  dup2\n  0x03\n  add\n  sstore\n  swap1\n  pop\n  pop\n    /* \"contracts/Capstone.sol\":16383:16659  Types.Voter({... */\n  mload(0x40)\n  dup1\n  0xe0\n  add\n  0x40\n  mstore\n  dup1\n    /* \"contracts/Capstone.sol\":16467:16479  393071790055 */\n  0x5b84e787e7\n    /* \"contracts/Capstone.sol\":16383:16659  Types.Voter({... */\n  dup2\n  mstore\n  0x20\n  add\n  mload(0x40)\n  dup1\n  0x40\n  add\n  0x40\n  mstore\n  dup1\n  0x0c\n  dup2\n  mstore\n  0x20\n  add\n  0x4b756d61722053616e6b65740000000000000000000000000000000000000000\n  dup2\n  mstore\n  pop\n  dup2\n  mstore\n  0x20\n  add\n    /* \"contracts/Capstone.sol\":16506:16508  29 */\n  0x1d\n    /* \"contracts/Capstone.sol\":16383:16659  Types.Voter({... */\n  0xff\n  and\n  dup2\n  mstore\n  0x20\n  add\n    /* \"contracts/Capstone.sol\":16541:16543  11 */\n  0x0b\n    /* \"contracts/Capstone.sol\":16383:16659  Types.Voter({... */\n  0xff\n  and\n  dup2\n  mstore\n  0x20\n  add\n    /* \"contracts/Capstone.sol\":16583:16584  2 */\n  0x02\n    /* \"contracts/Capstone.sol\":16383:16659  Types.Voter({... */\n  0xff\n  and\n  dup2\n  mstore\n  0x20\n  add\n    /* \"contracts/Capstone.sol\":16609:16613  true */\n  0x01\n    /* \"contracts/Capstone.sol\":16383:16659  Types.Voter({... */\n  iszero\n  iszero\n  dup2\n  mstore\n  0x20\n  add\n    /* \"contracts/Capstone.sol\":16645:16646  0 */\n  0x00\n    /* \"contracts/Capstone.sol\":16383:16659  Types.Voter({... */\n  dup2\n  mstore\n  pop\n    /* \"contracts/Capstone.sol\":16352:16357  voter */\n  0x01\n    /* \"contracts/Capstone.sol\":16352:16380  voter[uint256(393071790055)] */\n  0x00\n    /* \"contracts/Capstone.sol\":16366:16378  393071790055 */\n  0x5b84e787e7\n    /* \"contracts/Capstone.sol\":16352:16380  voter[uint256(393071790055)] */\n  dup2\n  mstore\n  0x20\n  add\n  swap1\n  dup2\n  mstore\n  0x20\n  add\n  0x00\n  keccak256\n    /* \"contracts/Capstone.sol\":16352:16659  voter[uint256(393071790055)] = Types.Voter({... */\n  0x00\n  dup3\n  add\n  mload\n  dup2\n  0x00\n  add\n  sstore\n  0x20\n  dup3\n  add\n  mload\n  dup2\n  0x01\n  add\n  swap1\n  dup2\n  tag_76\n  swap2\n  swap1\n  tag_56\n  jump\t// in\ntag_76:\n  pop\n  0x40\n  dup3\n  add\n  mload\n  dup2\n  0x02\n  add\n  exp(0x0100, 0x00)\n  dup2\n  sload\n  dup2\n  0xff\n  mul\n  not\n  and\n  swap1\n  dup4\n  0xff\n  and\n  mul\n  or\n  swap1\n  sstore\n  pop\n  0x60\n  dup3\n  add\n  mload\n  dup2\n  0x02\n  add\n  exp(0x0100, 0x01)\n  dup2\n  sload\n  dup2\n  0xff\n  mul\n  not\n  and\n  swap1\n  dup4\n  0xff\n  and\n  mul\n  or\n  swap1\n  sstore\n  pop\n  0x80\n  dup3\n  add\n  mload\n  dup2\n  0x02\n  add\n  exp(0x0100, 0x02)\n  dup2\n  sload\n  dup2\n  0xff\n  mul\n  not\n  and\n  swap1\n  dup4\n  0xff\n  and\n  mul\n  or\n  swap1\n  sstore\n  pop\n  0xa0\n  dup3\n  add\n  mload\n  dup2\n  0x02\n  add\n  exp(0x0100, 0x03)\n  dup2\n  sload\n  dup2\n  0xff\n  mul\n  not\n  and\n  swap1\n  dup4\n  iszero\n  iszero\n  mul\n  or\n  swap1\n  sstore\n  pop\n  0xc0\n  dup3\n  add\n  mload\n  dup2\n  0x03\n  add\n  sstore\n  swap1\n  pop\n  pop\n    /* \"contracts/Capstone.sol\":16701:16971  Types.Voter({... */\n  mload(0x40)\n  dup1\n  0xe0\n  add\n  0x40\n  mstore\n  dup1\n    /* \"contracts/Capstone.sol\":16779:16791  983881786161 */\n  0xe513eca331\n    /* \"contracts/Capstone.sol\":16701:16971  Types.Voter({... */\n  dup2\n  mstore\n  0x20\n  add\n  mload(0x40)\n  dup1\n  0x40\n  add\n  0x40\n  mstore\n  dup1\n  0x06\n  dup2\n  mstore\n  0x20\n  add\n  0x50726174696b0000000000000000000000000000000000000000000000000000\n  dup2\n  mstore\n  pop\n  dup2\n  mstore\n  0x20\n  add\n    /* \"contracts/Capstone.sol\":16818:16820  40 */\n  0x28\n    /* \"contracts/Capstone.sol\":16701:16971  Types.Voter({... */\n  0xff\n  and\n  dup2\n  mstore\n  0x20\n  add\n    /* \"contracts/Capstone.sol\":16853:16855  11 */\n  0x0b\n    /* \"contracts/Capstone.sol\":16701:16971  Types.Voter({... */\n  0xff\n  and\n  dup2\n  mstore\n  0x20\n  add\n    /* \"contracts/Capstone.sol\":16895:16896  2 */\n  0x02\n    /* \"contracts/Capstone.sol\":16701:16971  Types.Voter({... */\n  0xff\n  and\n  dup2\n  mstore\n  0x20\n  add\n    /* \"contracts/Capstone.sol\":16921:16925  true */\n  0x01\n    /* \"contracts/Capstone.sol\":16701:16971  Types.Voter({... */\n  iszero\n  iszero\n  dup2\n  mstore\n  0x20\n  add\n    /* \"contracts/Capstone.sol\":16957:16958  0 */\n  0x00\n    /* \"contracts/Capstone.sol\":16701:16971  Types.Voter({... */\n  dup2\n  mstore\n  pop\n    /* \"contracts/Capstone.sol\":16670:16675  voter */\n  0x01\n    /* \"contracts/Capstone.sol\":16670:16698  voter[uint256(983881786161)] */\n  0x00\n    /* \"contracts/Capstone.sol\":16684:16696  983881786161 */\n  0xe513eca331\n    /* \"contracts/Capstone.sol\":16670:16698  voter[uint256(983881786161)] */\n  dup2\n  mstore\n  0x20\n  add\n  swap1\n  dup2\n  mstore\n  0x20\n  add\n  0x00\n  keccak256\n    /* \"contracts/Capstone.sol\":16670:16971  voter[uint256(983881786161)] = Types.Voter({... */\n  0x00\n  dup3\n  add\n  mload\n  dup2\n  0x00\n  add\n  sstore\n  0x20\n  dup3\n  add\n  mload\n  dup2\n  0x01\n  add\n  swap1\n  dup2\n  tag_77\n  swap2\n  swap1\n  tag_56\n  jump\t// in\ntag_77:\n  pop\n  0x40\n  dup3\n  add\n  mload\n  dup2\n  0x02\n  add\n  exp(0x0100, 0x00)\n  dup2\n  sload\n  dup2\n  0xff\n  mul\n  not\n  and\n  swap1\n  dup4\n  0xff\n  and\n  mul\n  or\n  swap1\n  sstore\n  pop\n  0x60\n  dup3\n  add\n  mload\n  dup2\n  0x02\n  add\n  exp(0x0100, 0x01)\n  dup2\n  sload\n  dup2\n  0xff\n  mul\n  not\n  and\n  swap1\n  dup4\n  0xff\n  and\n  mul\n  or\n  swap1\n  sstore\n  pop\n  0x80\n  dup3\n  add\n  mload\n  dup2\n  0x02\n  add\n  exp(0x0100, 0x02)\n  dup2\n  sload\n  dup2\n  0xff\n  mul\n  not\n  and\n  swap1\n  dup4\n  0xff\n  and\n  mul\n  or\n  swap1\n  sstore\n  pop\n  0xa0\n  dup3\n  add\n  mload\n  dup2\n  0x02\n  add\n  exp(0x0100, 0x03)\n  dup2\n  sload\n  dup2\n  0xff\n  mul\n  not\n  and\n  swap1\n  dup4\n  iszero\n  iszero\n  mul\n  or\n  swap1\n  sstore\n  pop\n  0xc0\n  dup3\n  add\n  mload\n  dup2\n  0x03\n  add\n  sstore\n  swap1\n  pop\n  pop\n    /* \"contracts/Capstone.sol\":17013:17283  Types.Voter({... */\n  mload(0x40)\n  dup1\n  0xe0\n  add\n  0x40\n  mstore\n  dup1\n    /* \"contracts/Capstone.sol\":17090:17102  756623869645 */\n  0xb02a4c06cd\n    /* \"contracts/Capstone.sol\":17013:17283  Types.Voter({... */\n  dup2\n  mstore\n  0x20\n  add\n  mload(0x40)\n  dup1\n  0x40\n  add\n  0x40\n  mstore\n  dup1\n  0x05\n  dup2\n  mstore\n  0x20\n  add\n  0x4161757369000000000000000000000000000000000000000000000000000000\n  dup2\n  mstore\n  pop\n  dup2\n  mstore\n  0x20\n  add\n    /* \"contracts/Capstone.sol\":17129:17131  85 */\n  0x55\n    /* \"contracts/Capstone.sol\":17013:17283  Types.Voter({... */\n  0xff\n  and\n  dup2\n  mstore\n  0x20\n  add\n    /* \"contracts/Capstone.sol\":17164:17166  11 */\n  0x0b\n    /* \"contracts/Capstone.sol\":17013:17283  Types.Voter({... */\n  0xff\n  and\n  dup2\n  mstore\n  0x20\n  add\n    /* \"contracts/Capstone.sol\":17206:17207  1 */\n  0x01\n    /* \"contracts/Capstone.sol\":17013:17283  Types.Voter({... */\n  0xff\n  and\n  dup2\n  mstore\n  0x20\n  add\n    /* \"contracts/Capstone.sol\":17232:17237  false */\n  0x00\n    /* \"contracts/Capstone.sol\":17013:17283  Types.Voter({... */\n  iszero\n  iszero\n  dup2\n  mstore\n  0x20\n  add\n    /* \"contracts/Capstone.sol\":17269:17270  0 */\n  0x00\n    /* \"contracts/Capstone.sol\":17013:17283  Types.Voter({... */\n  dup2\n  mstore\n  pop\n    /* \"contracts/Capstone.sol\":16982:16987  voter */\n  0x01\n    /* \"contracts/Capstone.sol\":16982:17010  voter[uint256(756623869645)] */\n  0x00\n    /* \"contracts/Capstone.sol\":16996:17008  756623869645 */\n  0xb02a4c06cd\n    /* \"contracts/Capstone.sol\":16982:17010  voter[uint256(756623869645)] */\n  dup2\n  mstore\n  0x20\n  add\n  swap1\n  dup2\n  mstore\n  0x20\n  add\n  0x00\n  keccak256\n    /* \"contracts/Capstone.sol\":16982:17283  voter[uint256(756623869645)] = Types.Voter({... */\n  0x00\n  dup3\n  add\n  mload\n  dup2\n  0x00\n  add\n  sstore\n  0x20\n  dup3\n  add\n  mload\n  dup2\n  0x01\n  add\n  swap1\n  dup2\n  tag_78\n  swap2\n  swap1\n  tag_56\n  jump\t// in\ntag_78:\n  pop\n  0x40\n  dup3\n  add\n  mload\n  dup2\n  0x02\n  add\n  exp(0x0100, 0x00)\n  dup2\n  sload\n  dup2\n  0xff\n  mul\n  not\n  and\n  swap1\n  dup4\n  0xff\n  and\n  mul\n  or\n  swap1\n  sstore\n  pop\n  0x60\n  dup3\n  add\n  mload\n  dup2\n  0x02\n  add\n  exp(0x0100, 0x01)\n  dup2\n  sload\n  dup2\n  0xff\n  mul\n  not\n  and\n  swap1\n  dup4\n  0xff\n  and\n  mul\n  or\n  swap1\n  sstore\n  pop\n  0x80\n  dup3\n  add\n  mload\n  dup2\n  0x02\n  add\n  exp(0x0100, 0x02)\n  dup2\n  sload\n  dup2\n  0xff\n  mul\n  not\n  and\n  swap1\n  dup4\n  0xff\n  and\n  mul\n  or\n  swap1\n  sstore\n  pop\n  0xa0\n  dup3\n  add\n  mload\n  dup2\n  0x02\n  add\n  exp(0x0100, 0x03)\n  dup2\n  sload\n  dup2\n  0xff\n  mul\n  not\n  and\n  swap1\n  dup4\n  iszero\n  iszero\n  mul\n  or\n  swap1\n  sstore\n  pop\n  0xc0\n  dup3\n  add\n  mload\n  dup2\n  0x03\n  add\n  sstore\n  swap1\n  pop\n  pop\n    /* \"contracts/Capstone.sol\":17325:17597  Types.Voter({... */\n  mload(0x40)\n  dup1\n  0xe0\n  add\n  0x40\n  mstore\n  dup1\n    /* \"contracts/Capstone.sol\":17404:17416  588109459505 */\n  0x88ee0e3031\n    /* \"contracts/Capstone.sol\":17325:17597  Types.Voter({... */\n  dup2\n  mstore\n  0x20\n  add\n  mload(0x40)\n  dup1\n  0x40\n  add\n  0x40\n  mstore\n  dup1\n  0x07\n  dup2\n  mstore\n  0x20\n  add\n  0x5072617469626100000000000000000000000000000000000000000000000000\n  dup2\n  mstore\n  pop\n  dup2\n  mstore\n  0x20\n  add\n    /* \"contracts/Capstone.sol\":17443:17445  68 */\n  0x44\n    /* \"contracts/Capstone.sol\":17325:17597  Types.Voter({... */\n  0xff\n  and\n  dup2\n  mstore\n  0x20\n  add\n    /* \"contracts/Capstone.sol\":17478:17480  11 */\n  0x0b\n    /* \"contracts/Capstone.sol\":17325:17597  Types.Voter({... */\n  0xff\n  and\n  dup2\n  mstore\n  0x20\n  add\n    /* \"contracts/Capstone.sol\":17520:17521  2 */\n  0x02\n    /* \"contracts/Capstone.sol\":17325:17597  Types.Voter({... */\n  0xff\n  and\n  dup2\n  mstore\n  0x20\n  add\n    /* \"contracts/Capstone.sol\":17546:17551  false */\n  0x00\n    /* \"contracts/Capstone.sol\":17325:17597  Types.Voter({... */\n  iszero\n  iszero\n  dup2\n  mstore\n  0x20\n  add\n    /* \"contracts/Capstone.sol\":17583:17584  0 */\n  0x00\n    /* \"contracts/Capstone.sol\":17325:17597  Types.Voter({... */\n  dup2\n  mstore\n  pop\n    /* \"contracts/Capstone.sol\":17294:17299  voter */\n  0x01\n    /* \"contracts/Capstone.sol\":17294:17322  voter[uint256(588109459505)] */\n  0x00\n    /* \"contracts/Capstone.sol\":17308:17320  588109459505 */\n  0x88ee0e3031\n    /* \"contracts/Capstone.sol\":17294:17322  voter[uint256(588109459505)] */\n  dup2\n  mstore\n  0x20\n  add\n  swap1\n  dup2\n  mstore\n  0x20\n  add\n  0x00\n  keccak256\n    /* \"contracts/Capstone.sol\":17294:17597  voter[uint256(588109459505)] = Types.Voter({... */\n  0x00\n  dup3\n  add\n  mload\n  dup2\n  0x00\n  add\n  sstore\n  0x20\n  dup3\n  add\n  mload\n  dup2\n  0x01\n  add\n  swap1\n  dup2\n  tag_79\n  swap2\n  swap1\n  tag_56\n  jump\t// in\ntag_79:\n  pop\n  0x40\n  dup3\n  add\n  mload\n  dup2\n  0x02\n  add\n  exp(0x0100, 0x00)\n  dup2\n  sload\n  dup2\n  0xff\n  mul\n  not\n  and\n  swap1\n  dup4\n  0xff\n  and\n  mul\n  or\n  swap1\n  sstore\n  pop\n  0x60\n  dup3\n  add\n  mload\n  dup2\n  0x02\n  add\n  exp(0x0100, 0x01)\n  dup2\n  sload\n  dup2\n  0xff\n  mul\n  not\n  and\n  swap1\n  dup4\n  0xff\n  and\n  mul\n  or\n  swap1\n  sstore\n  pop\n  0x80\n  dup3\n  add\n  mload\n  dup2\n  0x02\n  add\n  exp(0x0100, 0x02)\n  dup2\n  sload\n  dup2\n  0xff\n  mul\n  not\n  and\n  swap1\n  dup4\n  0xff\n  and\n  mul\n  or\n  swap1\n  sstore\n  pop\n  0xa0\n  dup3\n  add\n  mload\n  dup2\n  0x02\n  add\n  exp(0x0100, 0x03)\n  dup2\n  sload\n  dup2\n  0xff\n  mul\n  not\n  and\n  swap1\n  dup4\n  iszero\n  iszero\n  mul\n  or\n  swap1\n  sstore\n  pop\n  0xc0\n  dup3\n  add\n  mload\n  dup2\n  0x03\n  add\n  sstore\n  swap1\n  pop\n  pop\n    /* \"contracts/Capstone.sol\":17663:17934  Types.Voter({... */\n  mload(0x40)\n  dup1\n  0xe0\n  add\n  0x40\n  mstore\n  dup1\n    /* \"contracts/Capstone.sol\":17742:17754  967746320661 */\n  0xe1522cf915\n    /* \"contracts/Capstone.sol\":17663:17934  Types.Voter({... */\n  dup2\n  mstore\n  0x20\n  add\n  mload(0x40)\n  dup1\n  0x40\n  add\n  0x40\n  mstore\n  dup1\n  0x07\n  dup2\n  mstore\n  0x20\n  add\n  0x52756368696b6100000000000000000000000000000000000000000000000000\n  dup2\n  mstore\n  pop\n  dup2\n  mstore\n  0x20\n  add\n    /* \"contracts/Capstone.sol\":17781:17783  26 */\n  0x1a\n    /* \"contracts/Capstone.sol\":17663:17934  Types.Voter({... */\n  0xff\n  and\n  dup2\n  mstore\n  0x20\n  add\n    /* \"contracts/Capstone.sol\":17816:17818  11 */\n  0x0b\n    /* \"contracts/Capstone.sol\":17663:17934  Types.Voter({... */\n  0xff\n  and\n  dup2\n  mstore\n  0x20\n  add\n    /* \"contracts/Capstone.sol\":17858:17859  1 */\n  0x01\n    /* \"contracts/Capstone.sol\":17663:17934  Types.Voter({... */\n  0xff\n  and\n  dup2\n  mstore\n  0x20\n  add\n    /* \"contracts/Capstone.sol\":17884:17888  true */\n  0x01\n    /* \"contracts/Capstone.sol\":17663:17934  Types.Voter({... */\n  iszero\n  iszero\n  dup2\n  mstore\n  0x20\n  add\n    /* \"contracts/Capstone.sol\":17920:17921  0 */\n  0x00\n    /* \"contracts/Capstone.sol\":17663:17934  Types.Voter({... */\n  dup2\n  mstore\n  pop\n    /* \"contracts/Capstone.sol\":17632:17637  voter */\n  0x01\n    /* \"contracts/Capstone.sol\":17632:17660  voter[uint256(967746320661)] */\n  0x00\n    /* \"contracts/Capstone.sol\":17646:17658  967746320661 */\n  0xe1522cf915\n    /* \"contracts/Capstone.sol\":17632:17660  voter[uint256(967746320661)] */\n  dup2\n  mstore\n  0x20\n  add\n  swap1\n  dup2\n  mstore\n  0x20\n  add\n  0x00\n  keccak256\n    /* \"contracts/Capstone.sol\":17632:17934  voter[uint256(967746320661)] = Types.Voter({... */\n  0x00\n  dup3\n  add\n  mload\n  dup2\n  0x00\n  add\n  sstore\n  0x20\n  dup3\n  add\n  mload\n  dup2\n  0x01\n  add\n  swap1\n  dup2\n  tag_80\n  swap2\n  swap1\n  tag_56\n  jump\t// in\ntag_80:\n  pop\n  0x40\n  dup3\n  add\n  mload\n  dup2\n  0x02\n  add\n  exp(0x0100, 0x00)\n  dup2\n  sload\n  dup2\n  0xff\n  mul\n  not\n  and\n  swap1\n  dup4\n  0xff\n  and\n  mul\n  or\n  swap1\n  sstore\n  pop\n  0x60\n  dup3\n  add\n  mload\n  dup2\n  0x02\n  add\n  exp(0x0100, 0x01)\n  dup2\n  sload\n  dup2\n  0xff\n  mul\n  not\n  and\n  swap1\n  dup4\n  0xff\n  and\n  mul\n  or\n  swap1\n  sstore\n  pop\n  0x80\n  dup3\n  add\n  mload\n  dup2\n  0x02\n  add\n  exp(0x0100, 0x02)\n  dup2\n  sload\n  dup2\n  0xff\n  mul\n  not\n  and\n  swap1\n  dup4\n  0xff\n  and\n  mul\n  or\n  swap1\n  sstore\n  pop\n  0xa0\n  dup3\n  add\n  mload\n  dup2\n  0x02\n  add\n  exp(0x0100, 0x03)\n  dup2\n  sload\n  dup2\n  0xff\n  mul\n  not\n  and\n  swap1\n  dup4\n  iszero\n  iszero\n  mul\n  or\n  swap1\n  sstore\n  pop\n  0xc0\n  dup3\n  add\n  mload\n  dup2\n  0x03\n  add\n  sstore\n  swap1\n  pop\n  pop\n    /* \"contracts/Capstone.sol\":17976:18247  Types.Voter({... */\n  mload(0x40)\n  dup1\n  0xe0\n  add\n  0x40\n  mstore\n  dup1\n    /* \"contracts/Capstone.sol\":18055:18067  727938171119 */\n  0xa97c7f00ef\n    /* \"contracts/Capstone.sol\":17976:18247  Types.Voter({... */\n  dup2\n  mstore\n  0x20\n  add\n  mload(0x40)\n  dup1\n  0x40\n  add\n  0x40\n  mstore\n  dup1\n  0x07\n  dup2\n  mstore\n  0x20\n  add\n  0x52616d6261627500000000000000000000000000000000000000000000000000\n  dup2\n  mstore\n  pop\n  dup2\n  mstore\n  0x20\n  add\n    /* \"contracts/Capstone.sol\":18094:18096  17 */\n  0x11\n    /* \"contracts/Capstone.sol\":17976:18247  Types.Voter({... */\n  0xff\n  and\n  dup2\n  mstore\n  0x20\n  add\n    /* \"contracts/Capstone.sol\":18129:18131  11 */\n  0x0b\n    /* \"contracts/Capstone.sol\":17976:18247  Types.Voter({... */\n  0xff\n  and\n  dup2\n  mstore\n  0x20\n  add\n    /* \"contracts/Capstone.sol\":18171:18172  1 */\n  0x01\n    /* \"contracts/Capstone.sol\":17976:18247  Types.Voter({... */\n  0xff\n  and\n  dup2\n  mstore\n  0x20\n  add\n    /* \"contracts/Capstone.sol\":18197:18201  true */\n  0x01\n    /* \"contracts/Capstone.sol\":17976:18247  Types.Voter({... */\n  iszero\n  iszero\n  dup2\n  mstore\n  0x20\n  add\n    /* \"contracts/Capstone.sol\":18233:18234  0 */\n  0x00\n    /* \"contracts/Capstone.sol\":17976:18247  Types.Voter({... */\n  dup2\n  mstore\n  pop\n    /* \"contracts/Capstone.sol\":17945:17950  voter */\n  0x01\n    /* \"contracts/Capstone.sol\":17945:17973  voter[uint256(727938171119)] */\n  0x00\n    /* \"contracts/Capstone.sol\":17959:17971  727938171119 */\n  0xa97c7f00ef\n    /* \"contracts/Capstone.sol\":17945:17973  voter[uint256(727938171119)] */\n  dup2\n  mstore\n  0x20\n  add\n  swap1\n  dup2\n  mstore\n  0x20\n  add\n  0x00\n  keccak256\n    /* \"contracts/Capstone.sol\":17945:18247  voter[uint256(727938171119)] = Types.Voter({... */\n  0x00\n  dup3\n  add\n  mload\n  dup2\n  0x00\n  add\n  sstore\n  0x20\n  dup3\n  add\n  mload\n  dup2\n  0x01\n  add\n  swap1\n  dup2\n  tag_81\n  swap2\n  swap1\n  tag_56\n  jump\t// in\ntag_81:\n  pop\n  0x40\n  dup3\n  add\n  mload\n  dup2\n  0x02\n  add\n  exp(0x0100, 0x00)\n  dup2\n  sload\n  dup2\n  0xff\n  mul\n  not\n  and\n  swap1\n  dup4\n  0xff\n  and\n  mul\n  or\n  swap1\n  sstore\n  pop\n  0x60\n  dup3\n  add\n  mload\n  dup2\n  0x02\n  add\n  exp(0x0100, 0x01)\n  dup2\n  sload\n  dup2\n  0xff\n  mul\n  not\n  and\n  swap1\n  dup4\n  0xff\n  and\n  mul\n  or\n  swap1\n  sstore\n  pop\n  0x80\n  dup3\n  add\n  mload\n  dup2\n  0x02\n  add\n  exp(0x0100, 0x02)\n  dup2\n  sload\n  dup2\n  0xff\n  mul\n  not\n  and\n  swap1\n  dup4\n  0xff\n  and\n  mul\n  or\n  swap1\n  sstore\n  pop\n  0xa0\n  dup3\n  add\n  mload\n  dup2\n  0x02\n  add\n  exp(0x0100, 0x03)\n  dup2\n  sload\n  dup2\n  0xff\n  mul\n  not\n  and\n  swap1\n  dup4\n  iszero\n  iszero\n  mul\n  or\n  swap1\n  sstore\n  pop\n  0xc0\n  dup3\n  add\n  mload\n  dup2\n  0x03\n  add\n  sstore\n  swap1\n  pop\n  pop\n    /* \"contracts/Capstone.sol\":18289:18560  Types.Voter({... */\n  mload(0x40)\n  dup1\n  0xe0\n  add\n  0x40\n  mstore\n  dup1\n    /* \"contracts/Capstone.sol\":18368:18380  609015917688 */\n  0x8dcc2d6c78\n    /* \"contracts/Capstone.sol\":18289:18560  Types.Voter({... */\n  dup2\n  mstore\n  0x20\n  add\n  mload(0x40)\n  dup1\n  0x40\n  add\n  0x40\n  mstore\n  dup1\n  0x07\n  dup2\n  mstore\n  0x20\n  add\n  0x4d6174616a696900000000000000000000000000000000000000000000000000\n  dup2\n  mstore\n  pop\n  dup2\n  mstore\n  0x20\n  add\n    /* \"contracts/Capstone.sol\":18407:18409  98 */\n  0x62\n    /* \"contracts/Capstone.sol\":18289:18560  Types.Voter({... */\n  0xff\n  and\n  dup2\n  mstore\n  0x20\n  add\n    /* \"contracts/Capstone.sol\":18442:18444  11 */\n  0x0b\n    /* \"contracts/Capstone.sol\":18289:18560  Types.Voter({... */\n  0xff\n  and\n  dup2\n  mstore\n  0x20\n  add\n    /* \"contracts/Capstone.sol\":18484:18485  1 */\n  0x01\n    /* \"contracts/Capstone.sol\":18289:18560  Types.Voter({... */\n  0xff\n  and\n  dup2\n  mstore\n  0x20\n  add\n    /* \"contracts/Capstone.sol\":18510:18514  true */\n  0x01\n    /* \"contracts/Capstone.sol\":18289:18560  Types.Voter({... */\n  iszero\n  iszero\n  dup2\n  mstore\n  0x20\n  add\n    /* \"contracts/Capstone.sol\":18546:18547  0 */\n  0x00\n    /* \"contracts/Capstone.sol\":18289:18560  Types.Voter({... */\n  dup2\n  mstore\n  pop\n    /* \"contracts/Capstone.sol\":18258:18263  voter */\n  0x01\n    /* \"contracts/Capstone.sol\":18258:18286  voter[uint256(609015917688)] */\n  0x00\n    /* \"contracts/Capstone.sol\":18272:18284  609015917688 */\n  0x8dcc2d6c78\n    /* \"contracts/Capstone.sol\":18258:18286  voter[uint256(609015917688)] */\n  dup2\n  mstore\n  0x20\n  add\n  swap1\n  dup2\n  mstore\n  0x20\n  add\n  0x00\n  keccak256\n    /* \"contracts/Capstone.sol\":18258:18560  voter[uint256(609015917688)] = Types.Voter({... */\n  0x00\n  dup3\n  add\n  mload\n  dup2\n  0x00\n  add\n  sstore\n  0x20\n  dup3\n  add\n  mload\n  dup2\n  0x01\n  add\n  swap1\n  dup2\n  tag_82\n  swap2\n  swap1\n  tag_56\n  jump\t// in\ntag_82:\n  pop\n  0x40\n  dup3\n  add\n  mload\n  dup2\n  0x02\n  add\n  exp(0x0100, 0x00)\n  dup2\n  sload\n  dup2\n  0xff\n  mul\n  not\n  and\n  swap1\n  dup4\n  0xff\n  and\n  mul\n  or\n  swap1\n  sstore\n  pop\n  0x60\n  dup3\n  add\n  mload\n  dup2\n  0x02\n  add\n  exp(0x0100, 0x01)\n  dup2\n  sload\n  dup2\n  0xff\n  mul\n  not\n  and\n  swap1\n  dup4\n  0xff\n  and\n  mul\n  or\n  swap1\n  sstore\n  pop\n  0x80\n  dup3\n  add\n  mload\n  dup2\n  0x02\n  add\n  exp(0x0100, 0x02)\n  dup2\n  sload\n  dup2\n  0xff\n  mul\n  not\n  and\n  swap1\n  dup4\n  0xff\n  and\n  mul\n  or\n  swap1\n  sstore\n  pop\n  0xa0\n  dup3\n  add\n  mload\n  dup2\n  0x02\n  add\n  exp(0x0100, 0x03)\n  dup2\n  sload\n  dup2\n  0xff\n  mul\n  not\n  and\n  swap1\n  dup4\n  iszero\n  iszero\n  mul\n  or\n  swap1\n  sstore\n  pop\n  0xc0\n  dup3\n  add\n  mload\n  dup2\n  0x03\n  add\n  sstore\n  swap1\n  pop\n  pop\n    /* \"contracts/Capstone.sol\":18602:18873  Types.Voter({... */\n  mload(0x40)\n  dup1\n  0xe0\n  add\n  0x40\n  mstore\n  dup1\n    /* \"contracts/Capstone.sol\":18680:18692  620107691388 */\n  0x90614c757c\n    /* \"contracts/Capstone.sol\":18602:18873  Types.Voter({... */\n  dup2\n  mstore\n  0x20\n  add\n  mload(0x40)\n  dup1\n  0x40\n  add\n  0x40\n  mstore\n  dup1\n  0x06\n  dup2\n  mstore\n  0x20\n  add\n  0x4d616d6174610000000000000000000000000000000000000000000000000000\n  dup2\n  mstore\n  pop\n  dup2\n  mstore\n  0x20\n  add\n    /* \"contracts/Capstone.sol\":18719:18721  63 */\n  0x3f\n    /* \"contracts/Capstone.sol\":18602:18873  Types.Voter({... */\n  0xff\n  and\n  dup2\n  mstore\n  0x20\n  add\n    /* \"contracts/Capstone.sol\":18754:18756  11 */\n  0x0b\n    /* \"contracts/Capstone.sol\":18602:18873  Types.Voter({... */\n  0xff\n  and\n  dup2\n  mstore\n  0x20\n  add\n    /* \"contracts/Capstone.sol\":18796:18797  2 */\n  0x02\n    /* \"contracts/Capstone.sol\":18602:18873  Types.Voter({... */\n  0xff\n  and\n  dup2\n  mstore\n  0x20\n  add\n    /* \"contracts/Capstone.sol\":18822:18827  false */\n  0x00\n    /* \"contracts/Capstone.sol\":18602:18873  Types.Voter({... */\n  iszero\n  iszero\n  dup2\n  mstore\n  0x20\n  add\n    /* \"contracts/Capstone.sol\":18859:18860  0 */\n  0x00\n    /* \"contracts/Capstone.sol\":18602:18873  Types.Voter({... */\n  dup2\n  mstore\n  pop\n    /* \"contracts/Capstone.sol\":18571:18576  voter */\n  0x01\n    /* \"contracts/Capstone.sol\":18571:18599  voter[uint256(620107691388)] */\n  0x00\n    /* \"contracts/Capstone.sol\":18585:18597  620107691388 */\n  0x90614c757c\n    /* \"contracts/Capstone.sol\":18571:18599  voter[uint256(620107691388)] */\n  dup2\n  mstore\n  0x20\n  add\n  swap1\n  dup2\n  mstore\n  0x20\n  add\n  0x00\n  keccak256\n    /* \"contracts/Capstone.sol\":18571:18873  voter[uint256(620107691388)] = Types.Voter({... */\n  0x00\n  dup3\n  add\n  mload\n  dup2\n  0x00\n  add\n  sstore\n  0x20\n  dup3\n  add\n  mload\n  dup2\n  0x01\n  add\n  swap1\n  dup2\n  tag_83\n  swap2\n  swap1\n  tag_56\n  jump\t// in\ntag_83:\n  pop\n  0x40\n  dup3\n  add\n  mload\n  dup2\n  0x02\n  add\n  exp(0x0100, 0x00)\n  dup2\n  sload\n  dup2\n  0xff\n  mul\n  not\n  and\n  swap1\n  dup4\n  0xff\n  and\n  mul\n  or\n  swap1\n  sstore\n  pop\n  0x60\n  dup3\n  add\n  mload\n  dup2\n  0x02\n  add\n  exp(0x0100, 0x01)\n  dup2\n  sload\n  dup2\n  0xff\n  mul\n  not\n  and\n  swap1\n  dup4\n  0xff\n  and\n  mul\n  or\n  swap1\n  sstore\n  pop\n  0x80\n  dup3\n  add\n  mload\n  dup2\n  0x02\n  add\n  exp(0x0100, 0x02)\n  dup2\n  sload\n  dup2\n  0xff\n  mul\n  not\n  and\n  swap1\n  dup4\n  0xff\n  and\n  mul\n  or\n  swap1\n  sstore\n  pop\n  0xa0\n  dup3\n  add\n  mload\n  dup2\n  0x02\n  add\n  exp(0x0100, 0x03)\n  dup2\n  sload\n  dup2\n  0xff\n  mul\n  not\n  and\n  swap1\n  dup4\n  iszero\n  iszero\n  mul\n  or\n  swap1\n  sstore\n  pop\n  0xc0\n  dup3\n  add\n  mload\n  dup2\n  0x03\n  add\n  sstore\n  swap1\n  pop\n  pop\n    /* \"contracts/Capstone.sol\":18915:19189  Types.Voter({... */\n  mload(0x40)\n  dup1\n  0xe0\n  add\n  0x40\n  mstore\n  dup1\n    /* \"contracts/Capstone.sol\":18997:19009  403561319377 */\n  0x5df6210bd1\n    /* \"contracts/Capstone.sol\":18915:19189  Types.Voter({... */\n  dup2\n  mstore\n  0x20\n  add\n  mload(0x40)\n  dup1\n  0x40\n  add\n  0x40\n  mstore\n  dup1\n  0x0a\n  dup2\n  mstore\n  0x20\n  add\n  0x52617669205661726d6100000000000000000000000000000000000000000000\n  dup2\n  mstore\n  pop\n  dup2\n  mstore\n  0x20\n  add\n    /* \"contracts/Capstone.sol\":19036:19038  42 */\n  0x2a\n    /* \"contracts/Capstone.sol\":18915:19189  Types.Voter({... */\n  0xff\n  and\n  dup2\n  mstore\n  0x20\n  add\n    /* \"contracts/Capstone.sol\":19071:19073  11 */\n  0x0b\n    /* \"contracts/Capstone.sol\":18915:19189  Types.Voter({... */\n  0xff\n  and\n  dup2\n  mstore\n  0x20\n  add\n    /* \"contracts/Capstone.sol\":19113:19114  2 */\n  0x02\n    /* \"contracts/Capstone.sol\":18915:19189  Types.Voter({... */\n  0xff\n  and\n  dup2\n  mstore\n  0x20\n  add\n    /* \"contracts/Capstone.sol\":19139:19143  true */\n  0x01\n    /* \"contracts/Capstone.sol\":18915:19189  Types.Voter({... */\n  iszero\n  iszero\n  dup2\n  mstore\n  0x20\n  add\n    /* \"contracts/Capstone.sol\":19175:19176  0 */\n  0x00\n    /* \"contracts/Capstone.sol\":18915:19189  Types.Voter({... */\n  dup2\n  mstore\n  pop\n    /* \"contracts/Capstone.sol\":18884:18889  voter */\n  0x01\n    /* \"contracts/Capstone.sol\":18884:18912  voter[uint256(403561319377)] */\n  0x00\n    /* \"contracts/Capstone.sol\":18898:18910  403561319377 */\n  0x5df6210bd1\n    /* \"contracts/Capstone.sol\":18884:18912  voter[uint256(403561319377)] */\n  dup2\n  mstore\n  0x20\n  add\n  swap1\n  dup2\n  mstore\n  0x20\n  add\n  0x00\n  keccak256\n    /* \"contracts/Capstone.sol\":18884:19189  voter[uint256(403561319377)] = Types.Voter({... */\n  0x00\n  dup3\n  add\n  mload\n  dup2\n  0x00\n  add\n  sstore\n  0x20\n  dup3\n  add\n  mload\n  dup2\n  0x01\n  add\n  swap1\n  dup2\n  tag_84\n  swap2\n  swap1\n  tag_56\n  jump\t// in\ntag_84:\n  pop\n  0x40\n  dup3\n  add\n  mload\n  dup2\n  0x02\n  add\n  exp(0x0100, 0x00)\n  dup2\n  sload\n  dup2\n  0xff\n  mul\n  not\n  and\n  swap1\n  dup4\n  0xff\n  and\n  mul\n  or\n  swap1\n  sstore\n  pop\n  0x60\n  dup3\n  add\n  mload\n  dup2\n  0x02\n  add\n  exp(0x0100, 0x01)\n  dup2\n  sload\n  dup2\n  0xff\n  mul\n  not\n  and\n  swap1\n  dup4\n  0xff\n  and\n  mul\n  or\n  swap1\n  sstore\n  pop\n  0x80\n  dup3\n  add\n  mload\n  dup2\n  0x02\n  add\n  exp(0x0100, 0x02)\n  dup2\n  sload\n  dup2\n  0xff\n  mul\n  not\n  and\n  swap1\n  dup4\n  0xff\n  and\n  mul\n  or\n  swap1\n  sstore\n  pop\n  0xa0\n  dup3\n  add\n  mload\n  dup2\n  0x02\n  add\n  exp(0x0100, 0x03)\n  dup2\n  sload\n  dup2\n  0xff\n  mul\n  not\n  and\n  swap1\n  dup4\n  iszero\n  iszero\n  mul\n  or\n  swap1\n  sstore\n  pop\n  0xc0\n  dup3\n  add\n  mload\n  dup2\n  0x03\n  add\n  sstore\n  swap1\n  pop\n  pop\n    /* \"contracts/Capstone.sol\":19231:19500  Types.Voter({... */\n  mload(0x40)\n  dup1\n  0xe0\n  add\n  0x40\n  mstore\n  dup1\n    /* \"contracts/Capstone.sol\":19308:19320  837970229674 */\n  0xc31aeaf9aa\n    /* \"contracts/Capstone.sol\":19231:19500  Types.Voter({... */\n  dup2\n  mstore\n  0x20\n  add\n  mload(0x40)\n  dup1\n  0x40\n  add\n  0x40\n  mstore\n  dup1\n  0x05\n  dup2\n  mstore\n  0x20\n  add\n  0x526168756c000000000000000000000000000000000000000000000000000000\n  dup2\n  mstore\n  pop\n  dup2\n  mstore\n  0x20\n  add\n    /* \"contracts/Capstone.sol\":19347:19349  56 */\n  0x38\n    /* \"contracts/Capstone.sol\":19231:19500  Types.Voter({... */\n  0xff\n  and\n  dup2\n  mstore\n  0x20\n  add\n    /* \"contracts/Capstone.sol\":19382:19384  11 */\n  0x0b\n    /* \"contracts/Capstone.sol\":19231:19500  Types.Voter({... */\n  0xff\n  and\n  dup2\n  mstore\n  0x20\n  add\n    /* \"contracts/Capstone.sol\":19424:19425  2 */\n  0x02\n    /* \"contracts/Capstone.sol\":19231:19500  Types.Voter({... */\n  0xff\n  and\n  dup2\n  mstore\n  0x20\n  add\n    /* \"contracts/Capstone.sol\":19450:19454  true */\n  0x01\n    /* \"contracts/Capstone.sol\":19231:19500  Types.Voter({... */\n  iszero\n  iszero\n  dup2\n  mstore\n  0x20\n  add\n    /* \"contracts/Capstone.sol\":19486:19487  0 */\n  0x00\n    /* \"contracts/Capstone.sol\":19231:19500  Types.Voter({... */\n  dup2\n  mstore\n  pop\n    /* \"contracts/Capstone.sol\":19200:19205  voter */\n  0x01\n    /* \"contracts/Capstone.sol\":19200:19228  voter[uint256(837970229674)] */\n  0x00\n    /* \"contracts/Capstone.sol\":19214:19226  837970229674 */\n  0xc31aeaf9aa\n    /* \"contracts/Capstone.sol\":19200:19228  voter[uint256(837970229674)] */\n  dup2\n  mstore\n  0x20\n  add\n  swap1\n  dup2\n  mstore\n  0x20\n  add\n  0x00\n  keccak256\n    /* \"contracts/Capstone.sol\":19200:19500  voter[uint256(837970229674)] = Types.Voter({... */\n  0x00\n  dup3\n  add\n  mload\n  dup2\n  0x00\n  add\n  sstore\n  0x20\n  dup3\n  add\n  mload\n  dup2\n  0x01\n  add\n  swap1\n  dup2\n  tag_85\n  swap2\n  swap1\n  tag_56\n  jump\t// in\ntag_85:\n  pop\n  0x40\n  dup3\n  add\n  mload\n  dup2\n  0x02\n  add\n  exp(0x0100, 0x00)\n  dup2\n  sload\n  dup2\n  0xff\n  mul\n  not\n  and\n  swap1\n  dup4\n  0xff\n  and\n  mul\n  or\n  swap1\n  sstore\n  pop\n  0x60\n  dup3\n  add\n  mload\n  dup2\n  0x02\n  add\n  exp(0x0100, 0x01)\n  dup2\n  sload\n  dup2\n  0xff\n  mul\n  not\n  and\n  swap1\n  dup4\n  0xff\n  and\n  mul\n  or\n  swap1\n  sstore\n  pop\n  0x80\n  dup3\n  add\n  mload\n  dup2\n  0x02\n  add\n  exp(0x0100, 0x02)\n  dup2\n  sload\n  dup2\n  0xff\n  mul\n  not\n  and\n  swap1\n  dup4\n  0xff\n  and\n  mul\n  or\n  swap1\n  sstore\n  pop\n  0xa0\n  dup3\n  add\n  mload\n  dup2\n  0x02\n  add\n  exp(0x0100, 0x03)\n  dup2\n  sload\n  dup2\n  0xff\n  mul\n  not\n  and\n  swap1\n  dup4\n  iszero\n  iszero\n  mul\n  or\n  swap1\n  sstore\n  pop\n  0xc0\n  dup3\n  add\n  mload\n  dup2\n  0x03\n  add\n  sstore\n  swap1\n  pop\n  pop\n    /* \"contracts/Capstone.sol\":13740:19508  function initializeVoterDatabase_() internal {... */\n  jump\t// out\n    /* \"contracts/Capstone.sol\":257:19511  contract Capstone {... */\ntag_18:\n  mload(0x40)\n  dup1\n  0xc0\n  add\n  0x40\n  mstore\n  dup1\n  0x60\n  dup2\n  mstore\n  0x20\n  add\n  0x60\n  dup2\n  mstore\n  0x20\n  add\n  0x60\n  dup2\n  mstore\n  0x20\n  add\n  0x00\n  dup2\n  mstore\n  0x20\n  add\n  and(0xff, 0x00)\n  dup2\n  mstore\n  0x20\n  add\n  and(0xff, 0x00)\n  dup2\n  mstore\n  pop\n  swap1\n  jump\t// out\n    /* \"#utility.yul\":88:205   */\ntag_87:\n    /* \"#utility.yul\":197:198   */\n  0x00\n    /* \"#utility.yul\":194:195   */\n  dup1\n    /* \"#utility.yul\":187:199   */\n  revert\n    /* \"#utility.yul\":334:411   */\ntag_89:\n    /* \"#utility.yul\":371:378   */\n  0x00\n    /* \"#utility.yul\":400:405   */\n  dup2\n    /* \"#utility.yul\":389:405   */\n  swap1\n  pop\n    /* \"#utility.yul\":334:411   */\n  swap2\n  swap1\n  pop\n  jump\t// out\n    /* \"#utility.yul\":417:539   */\ntag_90:\n    /* \"#utility.yul\":490:514   */\n  tag_117\n    /* \"#utility.yul\":508:513   */\n  dup2\n    /* \"#utility.yul\":490:514   */\n  tag_89\n  jump\t// in\ntag_117:\n    /* \"#utility.yul\":483:488   */\n  dup2\n    /* \"#utility.yul\":480:515   */\n  eq\n    /* \"#utility.yul\":470:533   */\n  tag_118\n  jumpi\n    /* \"#utility.yul\":529:530   */\n  0x00\n    /* \"#utility.yul\":526:527   */\n  dup1\n    /* \"#utility.yul\":519:531   */\n  revert\n    /* \"#utility.yul\":470:533   */\ntag_118:\n    /* \"#utility.yul\":417:539   */\n  pop\n  jump\t// out\n    /* \"#utility.yul\":545:688   */\ntag_91:\n    /* \"#utility.yul\":602:607   */\n  0x00\n    /* \"#utility.yul\":633:639   */\n  dup2\n    /* \"#utility.yul\":627:640   */\n  mload\n    /* \"#utility.yul\":618:640   */\n  swap1\n  pop\n    /* \"#utility.yul\":649:682   */\n  tag_120\n    /* \"#utility.yul\":676:681   */\n  dup2\n    /* \"#utility.yul\":649:682   */\n  tag_90\n  jump\t// in\ntag_120:\n    /* \"#utility.yul\":545:688   */\n  swap3\n  swap2\n  pop\n  pop\n  jump\t// out\n    /* \"#utility.yul\":694:1201   */\ntag_3:\n    /* \"#utility.yul\":773:779   */\n  0x00\n    /* \"#utility.yul\":781:787   */\n  dup1\n    /* \"#utility.yul\":830:832   */\n  0x40\n    /* \"#utility.yul\":818:827   */\n  dup4\n    /* \"#utility.yul\":809:816   */\n  dup6\n    /* \"#utility.yul\":805:828   */\n  sub\n    /* \"#utility.yul\":801:833   */\n  slt\n    /* \"#utility.yul\":798:917   */\n  iszero\n  tag_122\n  jumpi\n    /* \"#utility.yul\":836:915   */\n  tag_123\n  tag_87\n  jump\t// in\ntag_123:\n    /* \"#utility.yul\":798:917   */\ntag_122:\n    /* \"#utility.yul\":956:957   */\n  0x00\n    /* \"#utility.yul\":981:1045   */\n  tag_124\n    /* \"#utility.yul\":1037:1044   */\n  dup6\n    /* \"#utility.yul\":1028:1034   */\n  dup3\n    /* \"#utility.yul\":1017:1026   */\n  dup7\n    /* \"#utility.yul\":1013:1035   */\n  add\n    /* \"#utility.yul\":981:1045   */\n  tag_91\n  jump\t// in\ntag_124:\n    /* \"#utility.yul\":971:1045   */\n  swap3\n  pop\n    /* \"#utility.yul\":927:1055   */\n  pop\n    /* \"#utility.yul\":1094:1096   */\n  0x20\n    /* \"#utility.yul\":1120:1184   */\n  tag_125\n    /* \"#utility.yul\":1176:1183   */\n  dup6\n    /* \"#utility.yul\":1167:1173   */\n  dup3\n    /* \"#utility.yul\":1156:1165   */\n  dup7\n    /* \"#utility.yul\":1152:1174   */\n  add\n    /* \"#utility.yul\":1120:1184   */\n  tag_91\n  jump\t// in\ntag_125:\n    /* \"#utility.yul\":1110:1184   */\n  swap2\n  pop\n    /* \"#utility.yul\":1065:1194   */\n  pop\n    /* \"#utility.yul\":694:1201   */\n  swap3\n  pop\n  swap3\n  swap1\n  pop\n  jump\t// out\n    /* \"#utility.yul\":1207:1387   */\ntag_14:\n    /* \"#utility.yul\":1255:1332   */\n  0x4e487b7100000000000000000000000000000000000000000000000000000000\n    /* \"#utility.yul\":1252:1253   */\n  0x00\n    /* \"#utility.yul\":1245:1333   */\n  mstore\n    /* \"#utility.yul\":1352:1356   */\n  0x41\n    /* \"#utility.yul\":1349:1350   */\n  0x04\n    /* \"#utility.yul\":1342:1357   */\n  mstore\n    /* \"#utility.yul\":1376:1380   */\n  0x24\n    /* \"#utility.yul\":1373:1374   */\n  0x00\n    /* \"#utility.yul\":1366:1381   */\n  revert\n    /* \"#utility.yul\":1393:1573   */\ntag_21:\n    /* \"#utility.yul\":1441:1518   */\n  0x4e487b7100000000000000000000000000000000000000000000000000000000\n    /* \"#utility.yul\":1438:1439   */\n  0x00\n    /* \"#utility.yul\":1431:1519   */\n  mstore\n    /* \"#utility.yul\":1538:1542   */\n  0x32\n    /* \"#utility.yul\":1535:1536   */\n  0x04\n    /* \"#utility.yul\":1528:1543   */\n  mstore\n    /* \"#utility.yul\":1562:1566   */\n  0x24\n    /* \"#utility.yul\":1559:1560   */\n  0x00\n    /* \"#utility.yul\":1552:1567   */\n  revert\n    /* \"#utility.yul\":1579:1678   */\ntag_92:\n    /* \"#utility.yul\":1631:1637   */\n  0x00\n    /* \"#utility.yul\":1665:1670   */\n  dup2\n    /* \"#utility.yul\":1659:1671   */\n  mload\n    /* \"#utility.yul\":1649:1671   */\n  swap1\n  pop\n    /* \"#utility.yul\":1579:1678   */\n  swap2\n  swap1\n  pop\n  jump\t// out\n    /* \"#utility.yul\":1684:1864   */\ntag_93:\n    /* \"#utility.yul\":1732:1809   */\n  0x4e487b7100000000000000000000000000000000000000000000000000000000\n    /* \"#utility.yul\":1729:1730   */\n  0x00\n    /* \"#utility.yul\":1722:1810   */\n  mstore\n    /* \"#utility.yul\":1829:1833   */\n  0x22\n    /* \"#utility.yul\":1826:1827   */\n  0x04\n    /* \"#utility.yul\":1819:1834   */\n  mstore\n    /* \"#utility.yul\":1853:1857   */\n  0x24\n    /* \"#utility.yul\":1850:1851   */\n  0x00\n    /* \"#utility.yul\":1843:1858   */\n  revert\n    /* \"#utility.yul\":1870:2190   */\ntag_94:\n    /* \"#utility.yul\":1914:1920   */\n  0x00\n    /* \"#utility.yul\":1951:1952   */\n  0x02\n    /* \"#utility.yul\":1945:1949   */\n  dup3\n    /* \"#utility.yul\":1941:1953   */\n  div\n    /* \"#utility.yul\":1931:1953   */\n  swap1\n  pop\n    /* \"#utility.yul\":1998:1999   */\n  0x01\n    /* \"#utility.yul\":1992:1996   */\n  dup3\n    /* \"#utility.yul\":1988:2000   */\n  and\n    /* \"#utility.yul\":2019:2037   */\n  dup1\n    /* \"#utility.yul\":2009:2090   */\n  tag_131\n  jumpi\n    /* \"#utility.yul\":2075:2079   */\n  0x7f\n    /* \"#utility.yul\":2067:2073   */\n  dup3\n    /* \"#utility.yul\":2063:2080   */\n  and\n    /* \"#utility.yul\":2053:2080   */\n  swap2\n  pop\n    /* \"#utility.yul\":2009:2090   */\ntag_131:\n    /* \"#utility.yul\":2137:2139   */\n  0x20\n    /* \"#utility.yul\":2129:2135   */\n  dup3\n    /* \"#utility.yul\":2126:2140   */\n  lt\n    /* \"#utility.yul\":2106:2124   */\n  dup2\n    /* \"#utility.yul\":2103:2141   */\n  sub\n    /* \"#utility.yul\":2100:2184   */\n  tag_132\n  jumpi\n    /* \"#utility.yul\":2156:2174   */\n  tag_133\n  tag_93\n  jump\t// in\ntag_133:\n    /* \"#utility.yul\":2100:2184   */\ntag_132:\n    /* \"#utility.yul\":1921:2190   */\n  pop\n    /* \"#utility.yul\":1870:2190   */\n  swap2\n  swap1\n  pop\n  jump\t// out\n    /* \"#utility.yul\":2196:2337   */\ntag_95:\n    /* \"#utility.yul\":2245:2249   */\n  0x00\n    /* \"#utility.yul\":2268:2271   */\n  dup2\n    /* \"#utility.yul\":2260:2271   */\n  swap1\n  pop\n    /* \"#utility.yul\":2291:2294   */\n  dup2\n    /* \"#utility.yul\":2288:2289   */\n  0x00\n    /* \"#utility.yul\":2281:2295   */\n  mstore\n    /* \"#utility.yul\":2325:2329   */\n  0x20\n    /* \"#utility.yul\":2322:2323   */\n  0x00\n    /* \"#utility.yul\":2312:2330   */\n  keccak256\n    /* \"#utility.yul\":2304:2330   */\n  swap1\n  pop\n    /* \"#utility.yul\":2196:2337   */\n  swap2\n  swap1\n  pop\n  jump\t// out\n    /* \"#utility.yul\":2343:2436   */\ntag_96:\n    /* \"#utility.yul\":2380:2386   */\n  0x00\n    /* \"#utility.yul\":2427:2429   */\n  0x20\n    /* \"#utility.yul\":2422:2424   */\n  0x1f\n    /* \"#utility.yul\":2415:2420   */\n  dup4\n    /* \"#utility.yul\":2411:2425   */\n  add\n    /* \"#utility.yul\":2407:2430   */\n  div\n    /* \"#utility.yul\":2397:2430   */\n  swap1\n  pop\n    /* \"#utility.yul\":2343:2436   */\n  swap2\n  swap1\n  pop\n  jump\t// out\n    /* \"#utility.yul\":2442:2549   */\ntag_97:\n    /* \"#utility.yul\":2486:2494   */\n  0x00\n    /* \"#utility.yul\":2536:2541   */\n  dup3\n    /* \"#utility.yul\":2530:2534   */\n  dup3\n    /* \"#utility.yul\":2526:2542   */\n  shl\n    /* \"#utility.yul\":2505:2542   */\n  swap1\n  pop\n    /* \"#utility.yul\":2442:2549   */\n  swap3\n  swap2\n  pop\n  pop\n  jump\t// out\n    /* \"#utility.yul\":2555:2948   */\ntag_98:\n    /* \"#utility.yul\":2624:2630   */\n  0x00\n    /* \"#utility.yul\":2674:2675   */\n  0x08\n    /* \"#utility.yul\":2662:2672   */\n  dup4\n    /* \"#utility.yul\":2658:2676   */\n  mul\n    /* \"#utility.yul\":2697:2794   */\n  tag_138\n    /* \"#utility.yul\":2727:2793   */\n  0xffffffffffffffffffffffffffffffffffffffffffffffffffffffffffffffff\n    /* \"#utility.yul\":2716:2725   */\n  dup3\n    /* \"#utility.yul\":2697:2794   */\n  tag_97\n  jump\t// in\ntag_138:\n    /* \"#utility.yul\":2815:2854   */\n  tag_139\n    /* \"#utility.yul\":2845:2853   */\n  dup7\n    /* \"#utility.yul\":2834:2843   */\n  dup4\n    /* \"#utility.yul\":2815:2854   */\n  tag_97\n  jump\t// in\ntag_139:\n    /* \"#utility.yul\":2803:2854   */\n  swap6\n  pop\n    /* \"#utility.yul\":2887:2891   */\n  dup1\n    /* \"#utility.yul\":2883:2892   */\n  not\n    /* \"#utility.yul\":2876:2881   */\n  dup5\n    /* \"#utility.yul\":2872:2893   */\n  and\n    /* \"#utility.yul\":2863:2893   */\n  swap4\n  pop\n    /* \"#utility.yul\":2936:2940   */\n  dup1\n    /* \"#utility.yul\":2926:2934   */\n  dup7\n    /* \"#utility.yul\":2922:2941   */\n  and\n    /* \"#utility.yul\":2915:2920   */\n  dup5\n    /* \"#utility.yul\":2912:2942   */\n  or\n    /* \"#utility.yul\":2902:2942   */\n  swap3\n  pop\n    /* \"#utility.yul\":2631:2948   */\n  pop\n  pop\n    /* \"#utility.yul\":2555:2948   */\n  swap4\n  swap3\n  pop\n  pop\n  pop\n  jump\t// out\n    /* \"#utility.yul\":2954:3014   */\ntag_99:\n    /* \"#utility.yul\":2982:2985   */\n  0x00\n    /* \"#utility.yul\":3003:3008   */\n  dup2\n    /* \"#utility.yul\":2996:3008   */\n  swap1\n  pop\n    /* \"#utility.yul\":2954:3014   */\n  swap2\n  swap1\n  pop\n  jump\t// out\n    /* \"#utility.yul\":3020:3162   */\ntag_100:\n    /* \"#utility.yul\":3070:3079   */\n  0x00\n    /* \"#utility.yul\":3103:3156   */\n  tag_142\n    /* \"#utility.yul\":3121:3155   */\n  tag_143\n    /* \"#utility.yul\":3130:3154   */\n  tag_144\n    /* \"#utility.yul\":3148:3153   */\n  dup5\n    /* \"#utility.yul\":3130:3154   */\n  tag_89\n  jump\t// in\ntag_144:\n    /* \"#utility.yul\":3121:3155   */\n  tag_99\n  jump\t// in\ntag_143:\n    /* \"#utility.yul\":3103:3156   */\n  tag_89\n  jump\t// in\ntag_142:\n    /* \"#utility.yul\":3090:3156   */\n  swap1\n  pop\n    /* \"#utility.yul\":3020:3162   */\n  swap2\n  swap1\n  pop\n  jump\t// out\n    /* \"#utility.yul\":3168:3243   */\ntag_101:\n    /* \"#utility.yul\":3211:3214   */\n  0x00\n    /* \"#utility.yul\":3232:3237   */\n  dup2\n    /* \"#utility.yul\":3225:3237   */\n  swap1\n  pop\n    /* \"#utility.yul\":3168:3243   */\n  swap2\n  swap1\n  pop\n  jump\t// out\n    /* \"#utility.yul\":3249:3518   */\ntag_102:\n    /* \"#utility.yul\":3359:3398   */\n  tag_147\n    /* \"#utility.yul\":3390:3397   */\n  dup4\n    /* \"#utility.yul\":3359:3398   */\n  tag_100\n  jump\t// in\ntag_147:\n    /* \"#utility.yul\":3420:3511   */\n  tag_148\n    /* \"#utility.yul\":3469:3510   */\n  tag_149\n    /* \"#utility.yul\":3493:3509   */\n  dup3\n    /* \"#utility.yul\":3469:3510   */\n  tag_101\n  jump\t// in\ntag_149:\n    /* \"#utility.yul\":3461:3467   */\n  dup5\n    /* \"#utility.yul\":3454:3458   */\n  dup5\n    /* \"#utility.yul\":3448:3459   */\n  sload\n    /* \"#utility.yul\":3420:3511   */\n  tag_98\n  jump\t// in\ntag_148:\n    /* \"#utility.yul\":3414:3418   */\n  dup3\n    /* \"#utility.yul\":3407:3512   */\n  sstore\n    /* \"#utility.yul\":3325:3518   */\n  pop\n    /* \"#utility.yul\":3249:3518   */\n  pop\n  pop\n  pop\n  jump\t// out\n    /* \"#utility.yul\":3524:3597   */\ntag_103:\n    /* \"#utility.yul\":3569:3572   */\n  0x00\n    /* \"#utility.yul\":3524:3597   */\n  swap1\n  jump\t// out\n    /* \"#utility.yul\":3603:3792   */\ntag_104:\n    /* \"#utility.yul\":3680:3712   */\n  tag_152\n  tag_103\n  jump\t// in\ntag_152:\n    /* \"#utility.yul\":3721:3786   */\n  tag_153\n    /* \"#utility.yul\":3779:3785   */\n  dup2\n    /* \"#utility.yul\":3771:3777   */\n  dup5\n    /* \"#utility.yul\":3765:3769   */\n  dup5\n    /* \"#utility.yul\":3721:3786   */\n  tag_102\n  jump\t// in\ntag_153:\n    /* \"#utility.yul\":3656:3792   */\n  pop\n    /* \"#utility.yul\":3603:3792   */\n  pop\n  pop\n  jump\t// out\n    /* \"#utility.yul\":3798:3984   */\ntag_105:\n    /* \"#utility.yul\":3858:3978   */\ntag_155:\n    /* \"#utility.yul\":3875:3878   */\n  dup2\n    /* \"#utility.yul\":3868:3873   */\n  dup2\n    /* \"#utility.yul\":3865:3879   */\n  lt\n    /* \"#utility.yul\":3858:3978   */\n  iszero\n  tag_157\n  jumpi\n    /* \"#utility.yul\":3929:3968   */\n  tag_158\n    /* \"#utility.yul\":3966:3967   */\n  0x00\n    /* \"#utility.yul\":3959:3964   */\n  dup3\n    /* \"#utility.yul\":3929:3968   */\n  tag_104\n  jump\t// in\ntag_158:\n    /* \"#utility.yul\":3902:3903   */\n  0x01\n    /* \"#utility.yul\":3895:3900   */\n  dup2\n    /* \"#utility.yul\":3891:3904   */\n  add\n    /* \"#utility.yul\":3882:3904   */\n  swap1\n  pop\n    /* \"#utility.yul\":3858:3978   */\n  jump(tag_155)\ntag_157:\n    /* \"#utility.yul\":3798:3984   */\n  pop\n  pop\n  jump\t// out\n    /* \"#utility.yul\":3990:4533   */\ntag_106:\n    /* \"#utility.yul\":4091:4093   */\n  0x1f\n    /* \"#utility.yul\":4086:4089   */\n  dup3\n    /* \"#utility.yul\":4083:4094   */\n  gt\n    /* \"#utility.yul\":4080:4526   */\n  iszero\n  tag_160\n  jumpi\n    /* \"#utility.yul\":4125:4163   */\n  tag_161\n    /* \"#utility.yul\":4157:4162   */\n  dup2\n    /* \"#utility.yul\":4125:4163   */\n  tag_95\n  jump\t// in\ntag_161:\n    /* \"#utility.yul\":4209:4238   */\n  tag_162\n    /* \"#utility.yul\":4227:4237   */\n  dup5\n    /* \"#utility.yul\":4209:4238   */\n  tag_96\n  jump\t// in\ntag_162:\n    /* \"#utility.yul\":4199:4207   */\n  dup2\n    /* \"#utility.yul\":4195:4239   */\n  add\n    /* \"#utility.yul\":4392:4394   */\n  0x20\n    /* \"#utility.yul\":4380:4390   */\n  dup6\n    /* \"#utility.yul\":4377:4395   */\n  lt\n    /* \"#utility.yul\":4374:4423   */\n  iszero\n  tag_163\n  jumpi\n    /* \"#utility.yul\":4413:4421   */\n  dup2\n    /* \"#utility.yul\":4398:4421   */\n  swap1\n  pop\n    /* \"#utility.yul\":4374:4423   */\ntag_163:\n    /* \"#utility.yul\":4436:4516   */\n  tag_164\n    /* \"#utility.yul\":4492:4514   */\n  tag_165\n    /* \"#utility.yul\":4510:4513   */\n  dup6\n    /* \"#utility.yul\":4492:4514   */\n  tag_96\n  jump\t// in\ntag_165:\n    /* \"#utility.yul\":4482:4490   */\n  dup4\n    /* \"#utility.yul\":4478:4515   */\n  add\n    /* \"#utility.yul\":4465:4476   */\n  dup3\n    /* \"#utility.yul\":4436:4516   */\n  tag_105\n  jump\t// in\ntag_164:\n    /* \"#utility.yul\":4095:4526   */\n  pop\n  pop\n    /* \"#utility.yul\":4080:4526   */\ntag_160:\n    /* \"#utility.yul\":3990:4533   */\n  pop\n  pop\n  pop\n  jump\t// out\n    /* \"#utility.yul\":4539:4656   */\ntag_107:\n    /* \"#utility.yul\":4593:4601   */\n  0x00\n    /* \"#utility.yul\":4643:4648   */\n  dup3\n    /* \"#utility.yul\":4637:4641   */\n  dup3\n    /* \"#utility.yul\":4633:4649   */\n  shr\n    /* \"#utility.yul\":4612:4649   */\n  swap1\n  pop\n    /* \"#utility.yul\":4539:4656   */\n  swap3\n  swap2\n  pop\n  pop\n  jump\t// out\n    /* \"#utility.yul\":4662:4831   */\ntag_108:\n    /* \"#utility.yul\":4706:4712   */\n  0x00\n    /* \"#utility.yul\":4739:4790   */\n  tag_168\n    /* \"#utility.yul\":4787:4788   */\n  0x00\n    /* \"#utility.yul\":4783:4789   */\n  not\n    /* \"#utility.yul\":4775:4780   */\n  dup5\n    /* \"#utility.yul\":4772:4773   */\n  0x08\n    /* \"#utility.yul\":4768:4781   */\n  mul\n    /* \"#utility.yul\":4739:4790   */\n  tag_107\n  jump\t// in\ntag_168:\n    /* \"#utility.yul\":4735:4791   */\n  not\n    /* \"#utility.yul\":4820:4824   */\n  dup1\n    /* \"#utility.yul\":4814:4818   */\n  dup4\n    /* \"#utility.yul\":4810:4825   */\n  and\n    /* \"#utility.yul\":4800:4825   */\n  swap2\n  pop\n    /* \"#utility.yul\":4713:4831   */\n  pop\n    /* \"#utility.yul\":4662:4831   */\n  swap3\n  swap2\n  pop\n  pop\n  jump\t// out\n    /* \"#utility.yul\":4836:5131   */\ntag_109:\n    /* \"#utility.yul\":4912:4916   */\n  0x00\n    /* \"#utility.yul\":5058:5087   */\n  tag_170\n    /* \"#utility.yul\":5083:5086   */\n  dup4\n    /* \"#utility.yul\":5077:5081   */\n  dup4\n    /* \"#utility.yul\":5058:5087   */\n  tag_108\n  jump\t// in\ntag_170:\n    /* \"#utility.yul\":5050:5087   */\n  swap2\n  pop\n    /* \"#utility.yul\":5120:5123   */\n  dup3\n    /* \"#utility.yul\":5117:5118   */\n  0x02\n    /* \"#utility.yul\":5113:5124   */\n  mul\n    /* \"#utility.yul\":5107:5111   */\n  dup3\n    /* \"#utility.yul\":5104:5125   */\n  or\n    /* \"#utility.yul\":5096:5125   */\n  swap1\n  pop\n    /* \"#utility.yul\":4836:5131   */\n  swap3\n  swap2\n  pop\n  pop\n  jump\t// out\n    /* \"#utility.yul\":5136:6531   */\ntag_56:\n    /* \"#utility.yul\":5253:5290   */\n  tag_172\n    /* \"#utility.yul\":5286:5289   */\n  dup3\n    /* \"#utility.yul\":5253:5290   */\n  tag_92\n  jump\t// in\ntag_172:\n    /* \"#utility.yul\":5355:5373   */\n  0xffffffffffffffff\n    /* \"#utility.yul\":5347:5353   */\n  dup2\n    /* \"#utility.yul\":5344:5374   */\n  gt\n    /* \"#utility.yul\":5341:5397   */\n  iszero\n  tag_173\n  jumpi\n    /* \"#utility.yul\":5377:5395   */\n  tag_174\n  tag_14\n  jump\t// in\ntag_174:\n    /* \"#utility.yul\":5341:5397   */\ntag_173:\n    /* \"#utility.yul\":5421:5459   */\n  tag_175\n    /* \"#utility.yul\":5453:5457   */\n  dup3\n    /* \"#utility.yul\":5447:5458   */\n  sload\n    /* \"#utility.yul\":5421:5459   */\n  tag_94\n  jump\t// in\ntag_175:\n    /* \"#utility.yul\":5506:5573   */\n  tag_176\n    /* \"#utility.yul\":5566:5572   */\n  dup3\n    /* \"#utility.yul\":5558:5564   */\n  dup3\n    /* \"#utility.yul\":5552:5556   */\n  dup6\n    /* \"#utility.yul\":5506:5573   */\n  tag_106\n  jump\t// in\ntag_176:\n    /* \"#utility.yul\":5600:5601   */\n  0x00\n    /* \"#utility.yul\":5624:5628   */\n  0x20\n    /* \"#utility.yul\":5611:5628   */\n  swap1\n  pop\n    /* \"#utility.yul\":5656:5658   */\n  0x1f\n    /* \"#utility.yul\":5648:5654   */\n  dup4\n    /* \"#utility.yul\":5645:5659   */\n  gt\n    /* \"#utility.yul\":5673:5674   */\n  0x01\n    /* \"#utility.yul\":5668:6286   */\n  dup2\n  eq\n  tag_178\n  jumpi\n    /* \"#utility.yul\":6330:6331   */\n  0x00\n    /* \"#utility.yul\":6347:6353   */\n  dup5\n    /* \"#utility.yul\":6344:6421   */\n  iszero\n  tag_179\n  jumpi\n    /* \"#utility.yul\":6396:6405   */\n  dup3\n    /* \"#utility.yul\":6391:6394   */\n  dup8\n    /* \"#utility.yul\":6387:6406   */\n  add\n    /* \"#utility.yul\":6381:6407   */\n  mload\n    /* \"#utility.yul\":6372:6407   */\n  swap1\n  pop\n    /* \"#utility.yul\":6344:6421   */\ntag_179:\n    /* \"#utility.yul\":6447:6514   */\n  tag_180\n    /* \"#utility.yul\":6507:6513   */\n  dup6\n    /* \"#utility.yul\":6500:6505   */\n  dup3\n    /* \"#utility.yul\":6447:6514   */\n  tag_109\n  jump\t// in\ntag_180:\n    /* \"#utility.yul\":6441:6445   */\n  dup7\n    /* \"#utility.yul\":6434:6515   */\n  sstore\n    /* \"#utility.yul\":6303:6525   */\n  pop\n    /* \"#utility.yul\":5638:6525   */\n  jump(tag_177)\n    /* \"#utility.yul\":5668:6286   */\ntag_178:\n    /* \"#utility.yul\":5720:5724   */\n  0x1f\n    /* \"#utility.yul\":5716:5725   */\n  not\n    /* \"#utility.yul\":5708:5714   */\n  dup5\n    /* \"#utility.yul\":5704:5726   */\n  and\n    /* \"#utility.yul\":5754:5791   */\n  tag_181\n    /* \"#utility.yul\":5786:5790   */\n  dup7\n    /* \"#utility.yul\":5754:5791   */\n  tag_95\n  jump\t// in\ntag_181:\n    /* \"#utility.yul\":5813:5814   */\n  0x00\n    /* \"#utility.yul\":5827:6035   */\ntag_182:\n    /* \"#utility.yul\":5841:5848   */\n  dup3\n    /* \"#utility.yul\":5838:5839   */\n  dup2\n    /* \"#utility.yul\":5835:5849   */\n  lt\n    /* \"#utility.yul\":5827:6035   */\n  iszero\n  tag_184\n  jumpi\n    /* \"#utility.yul\":5920:5929   */\n  dup5\n    /* \"#utility.yul\":5915:5918   */\n  dup10\n    /* \"#utility.yul\":5911:5930   */\n  add\n    /* \"#utility.yul\":5905:5931   */\n  mload\n    /* \"#utility.yul\":5897:5903   */\n  dup3\n    /* \"#utility.yul\":5890:5932   */\n  sstore\n    /* \"#utility.yul\":5971:5972   */\n  0x01\n    /* \"#utility.yul\":5963:5969   */\n  dup3\n    /* \"#utility.yul\":5959:5973   */\n  add\n    /* \"#utility.yul\":5949:5973   */\n  swap2\n  pop\n    /* \"#utility.yul\":6018:6020   */\n  0x20\n    /* \"#utility.yul\":6007:6016   */\n  dup6\n    /* \"#utility.yul\":6003:6021   */\n  add\n    /* \"#utility.yul\":5990:6021   */\n  swap5\n  pop\n    /* \"#utility.yul\":5864:5868   */\n  0x20\n    /* \"#utility.yul\":5861:5862   */\n  dup2\n    /* \"#utility.yul\":5857:5869   */\n  add\n    /* \"#utility.yul\":5852:5869   */\n  swap1\n  pop\n    /* \"#utility.yul\":5827:6035   */\n  jump(tag_182)\ntag_184:\n    /* \"#utility.yul\":6063:6069   */\n  dup7\n    /* \"#utility.yul\":6054:6061   */\n  dup4\n    /* \"#utility.yul\":6051:6070   */\n  lt\n    /* \"#utility.yul\":6048:6227   */\n  iszero\n  tag_185\n  jumpi\n    /* \"#utility.yul\":6121:6130   */\n  dup5\n    /* \"#utility.yul\":6116:6119   */\n  dup10\n    /* \"#utility.yul\":6112:6131   */\n  add\n    /* \"#utility.yul\":6106:6132   */\n  mload\n    /* \"#utility.yul\":6164:6212   */\n  tag_186\n    /* \"#utility.yul\":6206:6210   */\n  0x1f\n    /* \"#utility.yul\":6198:6204   */\n  dup10\n    /* \"#utility.yul\":6194:6211   */\n  and\n    /* \"#utility.yul\":6183:6192   */\n  dup3\n    /* \"#utility.yul\":6164:6212   */\n  tag_108\n  jump\t// in\ntag_186:\n    /* \"#utility.yul\":6156:6162   */\n  dup4\n    /* \"#utility.yul\":6149:6213   */\n  sstore\n    /* \"#utility.yul\":6071:6227   */\n  pop\n    /* \"#utility.yul\":6048:6227   */\ntag_185:\n    /* \"#utility.yul\":6273:6274   */\n  0x01\n    /* \"#utility.yul\":6269:6270   */\n  0x02\n    /* \"#utility.yul\":6261:6267   */\n  dup9\n    /* \"#utility.yul\":6257:6271   */\n  mul\n    /* \"#utility.yul\":6253:6275   */\n  add\n    /* \"#utility.yul\":6247:6251   */\n  dup9\n    /* \"#utility.yul\":6240:6276   */\n  sstore\n    /* \"#utility.yul\":5675:6286   */\n  pop\n  pop\n  pop\n    /* \"#utility.yul\":5638:6525   */\ntag_177:\n  pop\n    /* \"#utility.yul\":5228:6531   */\n  pop\n  pop\n  pop\n    /* \"#utility.yul\":5136:6531   */\n  pop\n  pop\n  jump\t// out\n    /* \"#utility.yul\":6537:6717   */\ntag_110:\n    /* \"#utility.yul\":6585:6662   */\n  0x4e487b7100000000000000000000000000000000000000000000000000000000\n    /* \"#utility.yul\":6582:6583   */\n  0x00\n    /* \"#utility.yul\":6575:6663   */\n  mstore\n    /* \"#utility.yul\":6682:6686   */\n  0x11\n    /* \"#utility.yul\":6679:6680   */\n  0x04\n    /* \"#utility.yul\":6672:6687   */\n  mstore\n    /* \"#utility.yul\":6706:6710   */\n  0x24\n    /* \"#utility.yul\":6703:6704   */\n  0x00\n    /* \"#utility.yul\":6696:6711   */\n  revert\n    /* \"#utility.yul\":6723:6956   */\ntag_66:\n    /* \"#utility.yul\":6762:6765   */\n  0x00\n    /* \"#utility.yul\":6785:6809   */\n  tag_189\n    /* \"#utility.yul\":6803:6808   */\n  dup3\n    /* \"#utility.yul\":6785:6809   */\n  tag_89\n  jump\t// in\ntag_189:\n    /* \"#utility.yul\":6776:6809   */\n  swap2\n  pop\n    /* \"#utility.yul\":6831:6897   */\n  0xffffffffffffffffffffffffffffffffffffffffffffffffffffffffffffffff\n    /* \"#utility.yul\":6824:6829   */\n  dup3\n    /* \"#utility.yul\":6821:6898   */\n  sub\n    /* \"#utility.yul\":6818:6921   */\n  tag_190\n  jumpi\n    /* \"#utility.yul\":6901:6919   */\n  tag_191\n  tag_110\n  jump\t// in\ntag_191:\n    /* \"#utility.yul\":6818:6921   */\ntag_190:\n    /* \"#utility.yul\":6948:6949   */\n  0x01\n    /* \"#utility.yul\":6941:6946   */\n  dup3\n    /* \"#utility.yul\":6937:6950   */\n  add\n    /* \"#utility.yul\":6930:6950   */\n  swap1\n  pop\n    /* \"#utility.yul\":6723:6956   */\n  swap2\n  swap1\n  pop\n  jump\t// out\n    /* \"contracts/Capstone.sol\":257:19511  contract Capstone {... */\ntag_10:\n  dataSize(sub_0)\n  dup1\n  dataOffset(sub_0)\n  0x00\n  codecopy\n  0x00\n  return\nstop\ndata_32d4d011d64875b03035b4d3aedba5c4ef346acc796514a4756d291b8d889501 68747470733a2f2f7265732e636c6f7564696e6172792e636f6d2f646a3974747362676d2f696d6167652f75706c6f61642f76313634383130313036352f3132303070782d524a445f466c61672e7376675f6172727276742e706e67\ndata_47f85e1ff13fd4caba7301aa5ffcbd1381755fb2577f43cecd2044de7c75c1e7 68747470733a2f2f7265732e636c6f7564696e6172792e636f6d2f646a3974747362676d2f696d6167652f75706c6f61642f76313634383130313036352f79737263705f7361733331312e706e67\ndata_5a43e486951fcead5fb40adec39686384879b9e109fd9f6ca310519ede5e211f 68747470733a2f2f7265732e636c6f7564696e6172792e636f6d2f646a3974747362676d2f696d6167652f75706c6f61642f76313634383130313036342f626a705f6e6b34736e772e706e67\ndata_625207148eaf5547274f5a117a4927d46942a98552b117e35ee8fe5140a75321 68747470733a2f2f7265732e636c6f7564696e6172792e636f6d2f646a3974747362676d2f696d6167652f75706c6f61642f76313634383130313036352f6161705f756a6775796c2e706e67\ndata_7b1e484851f66d811ae6dcc24ea70862beae85f64ba381b9b2e792b836abc123 68747470733a2f2f7265732e636c6f7564696e6172792e636f6d2f646a3974747362676d2f696d6167652f75706c6f61642f76313634383130313036342f696e635f73316f716e352e706e67\ndata_7ef2f7a40a9d08c71c188b34797589d958ee6aad7a1c5cba3f2b494776859e0b 68747470733a2f2f7265732e636c6f7564696e6172792e636f6d2f646a3974747362676d2f696d6167652f75706c6f61642f76313634383130313036342f3130323470782d4370696d5f70617274795f73796d626f6c2e7376675f6d75316770702e706e67\ndata_dddf4e7ef0699278c9ee17be56a7b507c65eb6670b18c64f899807644cb29afe 68747470733a2f2f7265732e636c6f7564696e6172792e636f6d2f646a3974747362676d2f696d6167652f75706c6f61642f76313634383130313036352f7464705f716831726b6a2e706e67\n\nsub_0: assembly {\n        /* \"contracts/Capstone.sol\":257:19511  contract Capstone {... */\n      mstore(0x40, 0x80)\n      callvalue\n      dup1\n      iszero\n      tag_1\n      jumpi\n      0x00\n      dup1\n      revert\n    tag_1:\n      pop\n      jumpi(tag_2, lt(calldatasize, 0x04))\n      shr(0xe0, calldataload(0x00))\n      dup1\n      0x81a60c0d\n      gt\n      tag_12\n      jumpi\n      dup1\n      0x81a60c0d\n      eq\n      tag_7\n      jumpi\n      dup1\n      0x8a6655d6\n      eq\n      tag_8\n      jumpi\n      dup1\n      0xb1bf87b0\n      eq\n      tag_9\n      jumpi\n      dup1\n      0xb9d84552\n      eq\n      tag_10\n      jumpi\n      dup1\n      0xdce8d8a3\n      eq\n      tag_11\n      jumpi\n      jump(tag_2)\n    tag_12:\n      dup1\n      0x3477ee2e\n      eq\n      tag_3\n      jumpi\n      dup1\n      0x5d816e22\n      eq\n      tag_4\n      jumpi\n      dup1\n      0x5e23c37c\n      eq\n      tag_5\n      jumpi\n      dup1\n      0x618bde0a\n      eq\n      tag_6\n      jumpi\n    tag_2:\n      0x00\n      dup1\n      revert\n        /* \"contracts/Capstone.sol\":282:317  Types.Candidate[] public candidates */\n    tag_3:\n      tag_13\n      0x04\n      dup1\n      calldatasize\n      sub\n      dup2\n      add\n      swap1\n      tag_14\n      swap2\n      swap1\n      tag_15\n      jump\t// in\n    tag_14:\n      tag_16\n      jump\t// in\n    tag_13:\n      mload(0x40)\n      tag_17\n      swap7\n      swap6\n      swap5\n      swap4\n      swap3\n      swap2\n      swap1\n      tag_18\n      jump\t// in\n    tag_17:\n      mload(0x40)\n      dup1\n      swap2\n      sub\n      swap1\n      return\n        /* \"contracts/Capstone.sol\":5190:5443  function extendVotingTime(uint256 endTime_, uint256 currentTime_)... */\n    tag_4:\n      tag_19\n      0x04\n      dup1\n      calldatasize\n      sub\n      dup2\n      add\n      swap1\n      tag_20\n      swap2\n      swap1\n      tag_21\n      jump\t// in\n    tag_20:\n      tag_22\n      jump\t// in\n    tag_19:\n      stop\n        /* \"contracts/Capstone.sol\":3203:3532  function didCurrentVoterVoted(uint256 voterAadharNumber)... */\n    tag_5:\n      tag_23\n      0x04\n      dup1\n      calldatasize\n      sub\n      dup2\n      add\n      swap1\n      tag_24\n      swap2\n      swap1\n      tag_15\n      jump\t// in\n    tag_24:\n      tag_25\n      jump\t// in\n    tag_23:\n      mload(0x40)\n      tag_26\n      swap3\n      swap2\n      swap1\n      tag_27\n      jump\t// in\n    tag_26:\n      mload(0x40)\n      dup1\n      swap2\n      sub\n      swap1\n      return\n        /* \"contracts/Capstone.sol\":1278:2319  function getCandidateList(uint256 voterAadharNumber)... */\n    tag_6:\n      tag_28\n      0x04\n      dup1\n      calldatasize\n      sub\n      dup2\n      add\n      swap1\n      tag_29\n      swap2\n      swap1\n      tag_15\n      jump\t// in\n    tag_29:\n      tag_30\n      jump\t// in\n    tag_28:\n      mload(0x40)\n      tag_31\n      swap2\n      swap1\n      tag_32\n      jump\t// in\n    tag_31:\n      mload(0x40)\n      dup1\n      swap2\n      sub\n      swap1\n      return\n        /* \"contracts/Capstone.sol\":5665:6530  function getResults(uint256 currentTime_)... */\n    tag_7:\n      tag_33\n      0x04\n      dup1\n      calldatasize\n      sub\n      dup2\n      add\n      swap1\n      tag_34\n      swap2\n      swap1\n      tag_15\n      jump\t// in\n    tag_34:\n      tag_35\n      jump\t// in\n    tag_33:\n      mload(0x40)\n      tag_36\n      swap2\n      swap1\n      tag_37\n      jump\t// in\n    tag_36:\n      mload(0x40)\n      dup1\n      swap2\n      sub\n      swap1\n      return\n        /* \"contracts/Capstone.sol\":3813:4339  function vote(... */\n    tag_8:\n      tag_38\n      0x04\n      dup1\n      calldatasize\n      sub\n      dup2\n      add\n      swap1\n      tag_39\n      swap2\n      swap1\n      tag_40\n      jump\t// in\n    tag_39:\n      tag_41\n      jump\t// in\n    tag_38:\n      stop\n        /* \"contracts/Capstone.sol\":4458:4568  function getVotingEndTime() public view returns (uint256 endTime_) {... */\n    tag_9:\n      tag_42\n      tag_43\n      jump\t// in\n    tag_42:\n      mload(0x40)\n      tag_44\n      swap2\n      swap1\n      tag_45\n      jump\t// in\n    tag_44:\n      mload(0x40)\n      dup1\n      swap2\n      sub\n      swap1\n      return\n        /* \"contracts/Capstone.sol\":4779:4995  function updateVotingStartTime(uint256 startTime_, uint256 currentTime_)... */\n    tag_10:\n      tag_46\n      0x04\n      dup1\n      calldatasize\n      sub\n      dup2\n      add\n      swap1\n      tag_47\n      swap2\n      swap1\n      tag_21\n      jump\t// in\n    tag_47:\n      tag_48\n      jump\t// in\n    tag_46:\n      stop\n        /* \"contracts/Capstone.sol\":2572:2842  function isVoterEligible(uint256 voterAadharNumber)... */\n    tag_11:\n      tag_49\n      0x04\n      dup1\n      calldatasize\n      sub\n      dup2\n      add\n      swap1\n      tag_50\n      swap2\n      swap1\n      tag_15\n      jump\t// in\n    tag_50:\n      tag_51\n      jump\t// in\n    tag_49:\n      mload(0x40)\n      tag_52\n      swap2\n      swap1\n      tag_53\n      jump\t// in\n    tag_52:\n      mload(0x40)\n      dup1\n      swap2\n      sub\n      swap1\n      return\n        /* \"contracts/Capstone.sol\":282:317  Types.Candidate[] public candidates */\n    tag_16:\n      0x00\n      dup2\n      dup2\n      sload\n      dup2\n      lt\n      tag_54\n      jumpi\n      0x00\n      dup1\n      revert\n    tag_54:\n      swap1\n      0x00\n      mstore\n      keccak256(0x00, 0x20)\n      swap1\n      0x05\n      mul\n      add\n      0x00\n      swap2\n      pop\n      swap1\n      pop\n      dup1\n      0x00\n      add\n      dup1\n      sload\n      tag_56\n      swap1\n      tag_57\n      jump\t// in\n    tag_56:\n      dup1\n      0x1f\n      add\n      0x20\n      dup1\n      swap2\n      div\n      mul\n      0x20\n      add\n      mload(0x40)\n      swap1\n      dup2\n      add\n      0x40\n      mstore\n      dup1\n      swap3\n      swap2\n      swap1\n      dup2\n      dup2\n      mstore\n      0x20\n      add\n      dup3\n      dup1\n      sload\n      tag_58\n      swap1\n      tag_57\n      jump\t// in\n    tag_58:\n      dup1\n      iszero\n      tag_59\n      jumpi\n      dup1\n      0x1f\n      lt\n      tag_60\n      jumpi\n      0x0100\n      dup1\n      dup4\n      sload\n      div\n      mul\n      dup4\n      mstore\n      swap2\n      0x20\n      add\n      swap2\n      jump(tag_59)\n    tag_60:\n      dup3\n      add\n      swap2\n      swap1\n      0x00\n      mstore\n      keccak256(0x00, 0x20)\n      swap1\n    tag_61:\n      dup2\n      sload\n      dup2\n      mstore\n      swap1\n      0x01\n      add\n      swap1\n      0x20\n      add\n      dup1\n      dup4\n      gt\n      tag_61\n      jumpi\n      dup3\n      swap1\n      sub\n      0x1f\n      and\n      dup3\n      add\n      swap2\n    tag_59:\n      pop\n      pop\n      pop\n      pop\n      pop\n      swap1\n      dup1\n      0x01\n      add\n      dup1\n      sload\n      tag_62\n      swap1\n      tag_57\n      jump\t// in\n    tag_62:\n      dup1\n      0x1f\n      add\n      0x20\n      dup1\n      swap2\n      div\n      mul\n      0x20\n      add\n      mload(0x40)\n      swap1\n      dup2\n      add\n      0x40\n      mstore\n      dup1\n      swap3\n      swap2\n      swap1\n      dup2\n      dup2\n      mstore\n      0x20\n      add\n      dup3\n      dup1\n      sload\n      tag_63\n      swap1\n      tag_57\n      jump\t// in\n    tag_63:\n      dup1\n      iszero\n      tag_64\n      jumpi\n      dup1\n      0x1f\n      lt\n      tag_65\n      jumpi\n      0x0100\n      dup1\n      dup4\n      sload\n      div\n      mul\n      dup4\n      mstore\n      swap2\n      0x20\n      add\n      swap2\n      jump(tag_64)\n    tag_65:\n      dup3\n      add\n      swap2\n      swap1\n      0x00\n      mstore\n      keccak256(0x00, 0x20)\n      swap1\n    tag_66:\n      dup2\n      sload\n      dup2\n      mstore\n      swap1\n      0x01\n      add\n      swap1\n      0x20\n      add\n      dup1\n      dup4\n      gt\n      tag_66\n      jumpi\n      dup3\n      swap1\n      sub\n      0x1f\n      and\n      dup3\n      add\n      swap2\n    tag_64:\n      pop\n      pop\n      pop\n      pop\n      pop\n      swap1\n      dup1\n      0x02\n      add\n      dup1\n      sload\n      tag_67\n      swap1\n      tag_57\n      jump\t// in\n    tag_67:\n      dup1\n      0x1f\n      add\n      0x20\n      dup1\n      swap2\n      div\n      mul\n      0x20\n      add\n      mload(0x40)\n      swap1\n      dup2\n      add\n      0x40\n      mstore\n      dup1\n      swap3\n      swap2\n      swap1\n      dup2\n      dup2\n      mstore\n      0x20\n      add\n      dup3\n      dup1\n      sload\n      tag_68\n      swap1\n      tag_57\n      jump\t// in\n    tag_68:\n      dup1\n      iszero\n      tag_69\n      jumpi\n      dup1\n      0x1f\n      lt\n      tag_70\n      jumpi\n      0x0100\n      dup1\n      dup4\n      sload\n      div\n      mul\n      dup4\n      mstore\n      swap2\n      0x20\n      add\n      swap2\n      jump(tag_69)\n    tag_70:\n      dup3\n      add\n      swap2\n      swap1\n      0x00\n      mstore\n      keccak256(0x00, 0x20)\n      swap1\n    tag_71:\n      dup2\n      sload\n      dup2\n      mstore\n      swap1\n      0x01\n      add\n      swap1\n      0x20\n      add\n      dup1\n      dup4\n      gt\n      tag_71\n      jumpi\n      dup3\n      swap1\n      sub\n      0x1f\n      and\n      dup3\n      add\n      swap2\n    tag_69:\n      pop\n      pop\n      pop\n      pop\n      pop\n      swap1\n      dup1\n      0x03\n      add\n      sload\n      swap1\n      dup1\n      0x04\n      add\n      0x00\n      swap1\n      sload\n      swap1\n      0x0100\n      exp\n      swap1\n      div\n      0xff\n      and\n      swap1\n      dup1\n      0x04\n      add\n      0x01\n      swap1\n      sload\n      swap1\n      0x0100\n      exp\n      swap1\n      div\n      0xff\n      and\n      swap1\n      pop\n      dup7\n      jump\t// out\n        /* \"contracts/Capstone.sol\":5190:5443  function extendVotingTime(uint256 endTime_, uint256 currentTime_)... */\n    tag_22:\n        /* \"contracts/Capstone.sol\":7740:7753  electionChief */\n      0x04\n      0x00\n      swap1\n      sload\n      swap1\n      0x0100\n      exp\n      swap1\n      div\n      0xffffffffffffffffffffffffffffffffffffffff\n      and\n        /* \"contracts/Capstone.sol\":7726:7753  msg.sender == electionChief */\n      0xffffffffffffffffffffffffffffffffffffffff\n      and\n        /* \"contracts/Capstone.sol\":7726:7736  msg.sender */\n      caller\n        /* \"contracts/Capstone.sol\":7726:7753  msg.sender == electionChief */\n      0xffffffffffffffffffffffffffffffffffffffff\n      and\n      eq\n        /* \"contracts/Capstone.sol\":7718:7754  require(msg.sender == electionChief) */\n      tag_73\n      jumpi\n      0x00\n      dup1\n      revert\n    tag_73:\n        /* \"contracts/Capstone.sol\":5339:5351  currentTime_ */\n      dup1\n        /* \"contracts/Capstone.sol\":5321:5336  votingStartTime */\n      sload(0x05)\n        /* \"contracts/Capstone.sol\":5321:5351  votingStartTime < currentTime_ */\n      lt\n        /* \"contracts/Capstone.sol\":5313:5352  require(votingStartTime < currentTime_) */\n      tag_75\n      jumpi\n      0x00\n      dup1\n      revert\n    tag_75:\n        /* \"contracts/Capstone.sol\":5387:5399  currentTime_ */\n      dup1\n        /* \"contracts/Capstone.sol\":5371:5384  votingEndTime */\n      sload(0x06)\n        /* \"contracts/Capstone.sol\":5371:5399  votingEndTime > currentTime_ */\n      gt\n        /* \"contracts/Capstone.sol\":5363:5400  require(votingEndTime > currentTime_) */\n      tag_76\n      jumpi\n      0x00\n      dup1\n      revert\n    tag_76:\n        /* \"contracts/Capstone.sol\":5427:5435  endTime_ */\n      dup2\n        /* \"contracts/Capstone.sol\":5411:5424  votingEndTime */\n      0x06\n        /* \"contracts/Capstone.sol\":5411:5435  votingEndTime = endTime_ */\n      dup2\n      swap1\n      sstore\n      pop\n        /* \"contracts/Capstone.sol\":5190:5443  function extendVotingTime(uint256 endTime_, uint256 currentTime_)... */\n      pop\n      pop\n      jump\t// out\n        /* \"contracts/Capstone.sol\":3203:3532  function didCurrentVoterVoted(uint256 voterAadharNumber)... */\n    tag_25:\n        /* \"contracts/Capstone.sol\":3308:3323  bool userVoted_ */\n      0x00\n        /* \"contracts/Capstone.sol\":3325:3358  Types.Candidate memory candidate_ */\n      tag_77\n      tag_78\n      jump\t// in\n    tag_77:\n        /* \"contracts/Capstone.sol\":3426:3427  0 */\n      0x00\n        /* \"contracts/Capstone.sol\":3390:3395  voter */\n      0x01\n        /* \"contracts/Capstone.sol\":3390:3414  voter[voterAadharNumber] */\n      0x00\n        /* \"contracts/Capstone.sol\":3396:3413  voterAadharNumber */\n      dup6\n        /* \"contracts/Capstone.sol\":3390:3414  voter[voterAadharNumber] */\n      dup2\n      mstore\n      0x20\n      add\n      swap1\n      dup2\n      mstore\n      0x20\n      add\n      0x00\n      keccak256\n        /* \"contracts/Capstone.sol\":3390:3422  voter[voterAadharNumber].votedTo */\n      0x03\n      add\n      sload\n        /* \"contracts/Capstone.sol\":3390:3427  voter[voterAadharNumber].votedTo != 0 */\n      eq\n      iszero\n        /* \"contracts/Capstone.sol\":3376:3428  userVoted_ = (voter[voterAadharNumber].votedTo != 0) */\n      swap2\n      pop\n        /* \"contracts/Capstone.sol\":3443:3453  userVoted_ */\n      dup2\n        /* \"contracts/Capstone.sol\":3439:3524  if (userVoted_)... */\n      iszero\n      tag_80\n      jumpi\n        /* \"contracts/Capstone.sol\":3481:3490  candidate */\n      0x02\n        /* \"contracts/Capstone.sol\":3481:3524  candidate[voter[voterAadharNumber].votedTo] */\n      0x00\n        /* \"contracts/Capstone.sol\":3491:3496  voter */\n      0x01\n        /* \"contracts/Capstone.sol\":3491:3515  voter[voterAadharNumber] */\n      0x00\n        /* \"contracts/Capstone.sol\":3497:3514  voterAadharNumber */\n      dup7\n        /* \"contracts/Capstone.sol\":3491:3515  voter[voterAadharNumber] */\n      dup2\n      mstore\n      0x20\n      add\n      swap1\n      dup2\n      mstore\n      0x20\n      add\n      0x00\n      keccak256\n        /* \"contracts/Capstone.sol\":3491:3523  voter[voterAadharNumber].votedTo */\n      0x03\n      add\n      sload\n        /* \"contracts/Capstone.sol\":3481:3524  candidate[voter[voterAadharNumber].votedTo] */\n      dup2\n      mstore\n      0x20\n      add\n      swap1\n      dup2\n      mstore\n      0x20\n      add\n      0x00\n      keccak256\n        /* \"contracts/Capstone.sol\":3468:3524  candidate_ = candidate[voter[voterAadharNumber].votedTo] */\n      mload(0x40)\n      dup1\n      0xc0\n      add\n      0x40\n      mstore\n      swap1\n      dup2\n      0x00\n      dup3\n      add\n      dup1\n      sload\n      tag_81\n      swap1\n      tag_57\n      jump\t// in\n    tag_81:\n      dup1\n      0x1f\n      add\n      0x20\n      dup1\n      swap2\n      div\n      mul\n      0x20\n      add\n      mload(0x40)\n      swap1\n      dup2\n      add\n      0x40\n      mstore\n      dup1\n      swap3\n      swap2\n      swap1\n      dup2\n      dup2\n      mstore\n      0x20\n      add\n      dup3\n      dup1\n      sload\n      tag_82\n      swap1\n      tag_57\n      jump\t// in\n    tag_82:\n      dup1\n      iszero\n      tag_83\n      jumpi\n      dup1\n      0x1f\n      lt\n      tag_84\n      jumpi\n      0x0100\n      dup1\n      dup4\n      sload\n      div\n      mul\n      dup4\n      mstore\n      swap2\n      0x20\n      add\n      swap2\n      jump(tag_83)\n    tag_84:\n      dup3\n      add\n      swap2\n      swap1\n      0x00\n      mstore\n      keccak256(0x00, 0x20)\n      swap1\n    tag_85:\n      dup2\n      sload\n      dup2\n      mstore\n      swap1\n      0x01\n      add\n      swap1\n      0x20\n      add\n      dup1\n      dup4\n      gt\n      tag_85\n      jumpi\n      dup3\n      swap1\n      sub\n      0x1f\n      and\n      dup3\n      add\n      swap2\n    tag_83:\n      pop\n      pop\n      pop\n      pop\n      pop\n      dup2\n      mstore\n      0x20\n      add\n      0x01\n      dup3\n      add\n      dup1\n      sload\n      tag_86\n      swap1\n      tag_57\n      jump\t// in\n    tag_86:\n      dup1\n      0x1f\n      add\n      0x20\n      dup1\n      swap2\n      div\n      mul\n      0x20\n      add\n      mload(0x40)\n      swap1\n      dup2\n      add\n      0x40\n      mstore\n      dup1\n      swap3\n      swap2\n      swap1\n      dup2\n      dup2\n      mstore\n      0x20\n      add\n      dup3\n      dup1\n      sload\n      tag_87\n      swap1\n      tag_57\n      jump\t// in\n    tag_87:\n      dup1\n      iszero\n      tag_88\n      jumpi\n      dup1\n      0x1f\n      lt\n      tag_89\n      jumpi\n      0x0100\n      dup1\n      dup4\n      sload\n      div\n      mul\n      dup4\n      mstore\n      swap2\n      0x20\n      add\n      swap2\n      jump(tag_88)\n    tag_89:\n      dup3\n      add\n      swap2\n      swap1\n      0x00\n      mstore\n      keccak256(0x00, 0x20)\n      swap1\n    tag_90:\n      dup2\n      sload\n      dup2\n      mstore\n      swap1\n      0x01\n      add\n      swap1\n      0x20\n      add\n      dup1\n      dup4\n      gt\n      tag_90\n      jumpi\n      dup3\n      swap1\n      sub\n      0x1f\n      and\n      dup3\n      add\n      swap2\n    tag_88:\n      pop\n      pop\n      pop\n      pop\n      pop\n      dup2\n      mstore\n      0x20\n      add\n      0x02\n      dup3\n      add\n      dup1\n      sload\n      tag_91\n      swap1\n      tag_57\n      jump\t// in\n    tag_91:\n      dup1\n      0x1f\n      add\n      0x20\n      dup1\n      swap2\n      div\n      mul\n      0x20\n      add\n      mload(0x40)\n      swap1\n      dup2\n      add\n      0x40\n      mstore\n      dup1\n      swap3\n      swap2\n      swap1\n      dup2\n      dup2\n      mstore\n      0x20\n      add\n      dup3\n      dup1\n      sload\n      tag_92\n      swap1\n      tag_57\n      jump\t// in\n    tag_92:\n      dup1\n      iszero\n      tag_93\n      jumpi\n      dup1\n      0x1f\n      lt\n      tag_94\n      jumpi\n      0x0100\n      dup1\n      dup4\n      sload\n      div\n      mul\n      dup4\n      mstore\n      swap2\n      0x20\n      add\n      swap2\n      jump(tag_93)\n    tag_94:\n      dup3\n      add\n      swap2\n      swap1\n      0x00\n      mstore\n      keccak256(0x00, 0x20)\n      swap1\n    tag_95:\n      dup2\n      sload\n      dup2\n      mstore\n      swap1\n      0x01\n      add\n      swap1\n      0x20\n      add\n      dup1\n      dup4\n      gt\n      tag_95\n      jumpi\n      dup3\n      swap1\n      sub\n      0x1f\n      and\n      dup3\n      add\n      swap2\n    tag_93:\n      pop\n      pop\n      pop\n      pop\n      pop\n      dup2\n      mstore\n      0x20\n      add\n      0x03\n      dup3\n      add\n      sload\n      dup2\n      mstore\n      0x20\n      add\n      0x04\n      dup3\n      add\n      0x00\n      swap1\n      sload\n      swap1\n      0x0100\n      exp\n      swap1\n      div\n      0xff\n      and\n      0xff\n      and\n      0xff\n      and\n      dup2\n      mstore\n      0x20\n      add\n      0x04\n      dup3\n      add\n      0x01\n      swap1\n      sload\n      swap1\n      0x0100\n      exp\n      swap1\n      div\n      0xff\n      and\n      0xff\n      and\n      0xff\n      and\n      dup2\n      mstore\n      pop\n      pop\n      swap1\n      pop\n        /* \"contracts/Capstone.sol\":3439:3524  if (userVoted_)... */\n    tag_80:\n        /* \"contracts/Capstone.sol\":3203:3532  function didCurrentVoterVoted(uint256 voterAadharNumber)... */\n      swap2\n      pop\n      swap2\n      jump\t// out\n        /* \"contracts/Capstone.sol\":1278:2319  function getCandidateList(uint256 voterAadharNumber)... */\n    tag_30:\n        /* \"contracts/Capstone.sol\":1379:1403  Types.Candidate[] memory */\n      0x60\n        /* \"contracts/Capstone.sol\":1421:1447  Types.Voter storage voter_ */\n      0x00\n        /* \"contracts/Capstone.sol\":1450:1455  voter */\n      0x01\n        /* \"contracts/Capstone.sol\":1450:1474  voter[voterAadharNumber] */\n      0x00\n        /* \"contracts/Capstone.sol\":1456:1473  voterAadharNumber */\n      dup5\n        /* \"contracts/Capstone.sol\":1450:1474  voter[voterAadharNumber] */\n      dup2\n      mstore\n      0x20\n      add\n      swap1\n      dup2\n      mstore\n      0x20\n      add\n      0x00\n      keccak256\n        /* \"contracts/Capstone.sol\":1421:1474  Types.Voter storage voter_ = voter[voterAadharNumber] */\n      swap1\n      pop\n        /* \"contracts/Capstone.sol\":1485:1526  uint256 _politicianOfMyConstituencyLength */\n      0x00\n        /* \"contracts/Capstone.sol\":1548:1557  uint256 i */\n      dup1\n        /* \"contracts/Capstone.sol\":1543:1812  for (uint256 i = 0; i < candidates.length; i++) {... */\n    tag_97:\n        /* \"contracts/Capstone.sol\":1567:1577  candidates */\n      0x00\n        /* \"contracts/Capstone.sol\":1567:1584  candidates.length */\n      dup1\n      sload\n      swap1\n      pop\n        /* \"contracts/Capstone.sol\":1563:1564  i */\n      dup2\n        /* \"contracts/Capstone.sol\":1563:1584  i < candidates.length */\n      lt\n        /* \"contracts/Capstone.sol\":1543:1812  for (uint256 i = 0; i < candidates.length; i++) {... */\n      iszero\n      tag_98\n      jumpi\n        /* \"contracts/Capstone.sol\":1648:1658  candidates */\n      0x00\n        /* \"contracts/Capstone.sol\":1659:1660  i */\n      dup2\n        /* \"contracts/Capstone.sol\":1648:1661  candidates[i] */\n      dup2\n      sload\n      dup2\n      lt\n      tag_100\n      jumpi\n      tag_101\n      tag_102\n      jump\t// in\n    tag_101:\n    tag_100:\n      swap1\n      0x00\n      mstore\n      keccak256(0x00, 0x20)\n      swap1\n      0x05\n      mul\n      add\n        /* \"contracts/Capstone.sol\":1648:1671  candidates[i].stateCode */\n      0x04\n      add\n      0x00\n      swap1\n      sload\n      swap1\n      0x0100\n      exp\n      swap1\n      div\n      0xff\n      and\n        /* \"contracts/Capstone.sol\":1628:1671  voter_.stateCode == candidates[i].stateCode */\n      0xff\n      and\n        /* \"contracts/Capstone.sol\":1628:1634  voter_ */\n      dup4\n        /* \"contracts/Capstone.sol\":1628:1644  voter_.stateCode */\n      0x02\n      add\n      0x01\n      swap1\n      sload\n      swap1\n      0x0100\n      exp\n      swap1\n      div\n      0xff\n      and\n        /* \"contracts/Capstone.sol\":1628:1671  voter_.stateCode == candidates[i].stateCode */\n      0xff\n      and\n      eq\n        /* \"contracts/Capstone.sol\":1628:1749  voter_.stateCode == candidates[i].stateCode &&... */\n      dup1\n      iszero\n      tag_104\n      jumpi\n      pop\n        /* \"contracts/Capstone.sol\":1719:1729  candidates */\n      0x00\n        /* \"contracts/Capstone.sol\":1730:1731  i */\n      dup2\n        /* \"contracts/Capstone.sol\":1719:1732  candidates[i] */\n      dup2\n      sload\n      dup2\n      lt\n      tag_105\n      jumpi\n      tag_106\n      tag_102\n      jump\t// in\n    tag_106:\n    tag_105:\n      swap1\n      0x00\n      mstore\n      keccak256(0x00, 0x20)\n      swap1\n      0x05\n      mul\n      add\n        /* \"contracts/Capstone.sol\":1719:1749  candidates[i].constituencyCode */\n      0x04\n      add\n      0x01\n      swap1\n      sload\n      swap1\n      0x0100\n      exp\n      swap1\n      div\n      0xff\n      and\n        /* \"contracts/Capstone.sol\":1692:1749  voter_.constituencyCode == candidates[i].constituencyCode */\n      0xff\n      and\n        /* \"contracts/Capstone.sol\":1692:1698  voter_ */\n      dup4\n        /* \"contracts/Capstone.sol\":1692:1715  voter_.constituencyCode */\n      0x02\n      add\n      0x02\n      swap1\n      sload\n      swap1\n      0x0100\n      exp\n      swap1\n      div\n      0xff\n      and\n        /* \"contracts/Capstone.sol\":1692:1749  voter_.constituencyCode == candidates[i].constituencyCode */\n      0xff\n      and\n      eq\n        /* \"contracts/Capstone.sol\":1628:1749  voter_.stateCode == candidates[i].stateCode &&... */\n    tag_104:\n        /* \"contracts/Capstone.sol\":1606:1800  if (... */\n      iszero\n      tag_108\n      jumpi\n        /* \"contracts/Capstone.sol\":1765:1800  _politicianOfMyConstituencyLength++ */\n      dup2\n      dup1\n      tag_109\n      swap1\n      tag_110\n      jump\t// in\n    tag_109:\n      swap3\n      pop\n      pop\n        /* \"contracts/Capstone.sol\":1606:1800  if (... */\n    tag_108:\n        /* \"contracts/Capstone.sol\":1586:1589  i++ */\n      dup1\n      dup1\n      tag_111\n      swap1\n      tag_110\n      jump\t// in\n    tag_111:\n      swap2\n      pop\n      pop\n        /* \"contracts/Capstone.sol\":1543:1812  for (uint256 i = 0; i < candidates.length; i++) {... */\n      jump(tag_97)\n    tag_98:\n      pop\n        /* \"contracts/Capstone.sol\":1822:1849  Types.Candidate[] memory cc */\n      0x00\n        /* \"contracts/Capstone.sol\":1888:1921  _politicianOfMyConstituencyLength */\n      dup2\n        /* \"contracts/Capstone.sol\":1852:1932  new Types.Candidate[](... */\n      0xffffffffffffffff\n      dup2\n      gt\n      iszero\n      tag_112\n      jumpi\n      tag_113\n      tag_114\n      jump\t// in\n    tag_113:\n    tag_112:\n      mload(0x40)\n      swap1\n      dup1\n      dup3\n      mstore\n      dup1\n      0x20\n      mul\n      0x20\n      add\n      dup3\n      add\n      0x40\n      mstore\n      dup1\n      iszero\n      tag_115\n      jumpi\n      dup2\n      0x20\n      add\n    tag_116:\n      tag_117\n      tag_78\n      jump\t// in\n    tag_117:\n      dup2\n      mstore\n      0x20\n      add\n      swap1\n      0x01\n      swap1\n      sub\n      swap1\n      dup2\n      tag_116\n      jumpi\n      swap1\n      pop\n    tag_115:\n      pop\n        /* \"contracts/Capstone.sol\":1822:1932  Types.Candidate[] memory cc = new Types.Candidate[](... */\n      swap1\n      pop\n        /* \"contracts/Capstone.sol\":1945:1958  uint256 _indx */\n      0x00\n        /* \"contracts/Capstone.sol\":1978:1987  uint256 i */\n      dup1\n        /* \"contracts/Capstone.sol\":1973:2292  for (uint256 i = 0; i < candidates.length; i++) {... */\n    tag_118:\n        /* \"contracts/Capstone.sol\":1997:2007  candidates */\n      0x00\n        /* \"contracts/Capstone.sol\":1997:2014  candidates.length */\n      dup1\n      sload\n      swap1\n      pop\n        /* \"contracts/Capstone.sol\":1993:1994  i */\n      dup2\n        /* \"contracts/Capstone.sol\":1993:2014  i < candidates.length */\n      lt\n        /* \"contracts/Capstone.sol\":1973:2292  for (uint256 i = 0; i < candidates.length; i++) {... */\n      iszero\n      tag_119\n      jumpi\n        /* \"contracts/Capstone.sol\":2078:2088  candidates */\n      0x00\n        /* \"contracts/Capstone.sol\":2089:2090  i */\n      dup2\n        /* \"contracts/Capstone.sol\":2078:2091  candidates[i] */\n      dup2\n      sload\n      dup2\n      lt\n      tag_121\n      jumpi\n      tag_122\n      tag_102\n      jump\t// in\n    tag_122:\n    tag_121:\n      swap1\n      0x00\n      mstore\n      keccak256(0x00, 0x20)\n      swap1\n      0x05\n      mul\n      add\n        /* \"contracts/Capstone.sol\":2078:2101  candidates[i].stateCode */\n      0x04\n      add\n      0x00\n      swap1\n      sload\n      swap1\n      0x0100\n      exp\n      swap1\n      div\n      0xff\n      and\n        /* \"contracts/Capstone.sol\":2058:2101  voter_.stateCode == candidates[i].stateCode */\n      0xff\n      and\n        /* \"contracts/Capstone.sol\":2058:2064  voter_ */\n      dup6\n        /* \"contracts/Capstone.sol\":2058:2074  voter_.stateCode */\n      0x02\n      add\n      0x01\n      swap1\n      sload\n      swap1\n      0x0100\n      exp\n      swap1\n      div\n      0xff\n      and\n        /* \"contracts/Capstone.sol\":2058:2101  voter_.stateCode == candidates[i].stateCode */\n      0xff\n      and\n      eq\n        /* \"contracts/Capstone.sol\":2058:2179  voter_.stateCode == candidates[i].stateCode &&... */\n      dup1\n      iszero\n      tag_124\n      jumpi\n      pop\n        /* \"contracts/Capstone.sol\":2149:2159  candidates */\n      0x00\n        /* \"contracts/Capstone.sol\":2160:2161  i */\n      dup2\n        /* \"contracts/Capstone.sol\":2149:2162  candidates[i] */\n      dup2\n      sload\n      dup2\n      lt\n      tag_125\n      jumpi\n      tag_126\n      tag_102\n      jump\t// in\n    tag_126:\n    tag_125:\n      swap1\n      0x00\n      mstore\n      keccak256(0x00, 0x20)\n      swap1\n      0x05\n      mul\n      add\n        /* \"contracts/Capstone.sol\":2149:2179  candidates[i].constituencyCode */\n      0x04\n      add\n      0x01\n      swap1\n      sload\n      swap1\n      0x0100\n      exp\n      swap1\n      div\n      0xff\n      and\n        /* \"contracts/Capstone.sol\":2122:2179  voter_.constituencyCode == candidates[i].constituencyCode */\n      0xff\n      and\n        /* \"contracts/Capstone.sol\":2122:2128  voter_ */\n      dup6\n        /* \"contracts/Capstone.sol\":2122:2145  voter_.constituencyCode */\n      0x02\n      add\n      0x02\n      swap1\n      sload\n      swap1\n      0x0100\n      exp\n      swap1\n      div\n      0xff\n      and\n        /* \"contracts/Capstone.sol\":2122:2179  voter_.constituencyCode == candidates[i].constituencyCode */\n      0xff\n      and\n      eq\n        /* \"contracts/Capstone.sol\":2058:2179  voter_.stateCode == candidates[i].stateCode &&... */\n    tag_124:\n        /* \"contracts/Capstone.sol\":2036:2281  if (... */\n      iszero\n      tag_128\n      jumpi\n        /* \"contracts/Capstone.sol\":2226:2236  candidates */\n      0x00\n        /* \"contracts/Capstone.sol\":2237:2238  i */\n      dup2\n        /* \"contracts/Capstone.sol\":2226:2239  candidates[i] */\n      dup2\n      sload\n      dup2\n      lt\n      tag_129\n      jumpi\n      tag_130\n      tag_102\n      jump\t// in\n    tag_130:\n    tag_129:\n      swap1\n      0x00\n      mstore\n      keccak256(0x00, 0x20)\n      swap1\n      0x05\n      mul\n      add\n        /* \"contracts/Capstone.sol\":2214:2239  cc[_indx] = candidates[i] */\n      mload(0x40)\n      dup1\n      0xc0\n      add\n      0x40\n      mstore\n      swap1\n      dup2\n      0x00\n      dup3\n      add\n      dup1\n      sload\n      tag_132\n      swap1\n      tag_57\n      jump\t// in\n    tag_132:\n      dup1\n      0x1f\n      add\n      0x20\n      dup1\n      swap2\n      div\n      mul\n      0x20\n      add\n      mload(0x40)\n      swap1\n      dup2\n      add\n      0x40\n      mstore\n      dup1\n      swap3\n      swap2\n      swap1\n      dup2\n      dup2\n      mstore\n      0x20\n      add\n      dup3\n      dup1\n      sload\n      tag_133\n      swap1\n      tag_57\n      jump\t// in\n    tag_133:\n      dup1\n      iszero\n      tag_134\n      jumpi\n      dup1\n      0x1f\n      lt\n      tag_135\n      jumpi\n      0x0100\n      dup1\n      dup4\n      sload\n      div\n      mul\n      dup4\n      mstore\n      swap2\n      0x20\n      add\n      swap2\n      jump(tag_134)\n    tag_135:\n      dup3\n      add\n      swap2\n      swap1\n      0x00\n      mstore\n      keccak256(0x00, 0x20)\n      swap1\n    tag_136:\n      dup2\n      sload\n      dup2\n      mstore\n      swap1\n      0x01\n      add\n      swap1\n      0x20\n      add\n      dup1\n      dup4\n      gt\n      tag_136\n      jumpi\n      dup3\n      swap1\n      sub\n      0x1f\n      and\n      dup3\n      add\n      swap2\n    tag_134:\n      pop\n      pop\n      pop\n      pop\n      pop\n      dup2\n      mstore\n      0x20\n      add\n      0x01\n      dup3\n      add\n      dup1\n      sload\n      tag_137\n      swap1\n      tag_57\n      jump\t// in\n    tag_137:\n      dup1\n      0x1f\n      add\n      0x20\n      dup1\n      swap2\n      div\n      mul\n      0x20\n      add\n      mload(0x40)\n      swap1\n      dup2\n      add\n      0x40\n      mstore\n      dup1\n      swap3\n      swap2\n      swap1\n      dup2\n      dup2\n      mstore\n      0x20\n      add\n      dup3\n      dup1\n      sload\n      tag_138\n      swap1\n      tag_57\n      jump\t// in\n    tag_138:\n      dup1\n      iszero\n      tag_139\n      jumpi\n      dup1\n      0x1f\n      lt\n      tag_140\n      jumpi\n      0x0100\n      dup1\n      dup4\n      sload\n      div\n      mul\n      dup4\n      mstore\n      swap2\n      0x20\n      add\n      swap2\n      jump(tag_139)\n    tag_140:\n      dup3\n      add\n      swap2\n      swap1\n      0x00\n      mstore\n      keccak256(0x00, 0x20)\n      swap1\n    tag_141:\n      dup2\n      sload\n      dup2\n      mstore\n      swap1\n      0x01\n      add\n      swap1\n      0x20\n      add\n      dup1\n      dup4\n      gt\n      tag_141\n      jumpi\n      dup3\n      swap1\n      sub\n      0x1f\n      and\n      dup3\n      add\n      swap2\n    tag_139:\n      pop\n      pop\n      pop\n      pop\n      pop\n      dup2\n      mstore\n      0x20\n      add\n      0x02\n      dup3\n      add\n      dup1\n      sload\n      tag_142\n      swap1\n      tag_57\n      jump\t// in\n    tag_142:\n      dup1\n      0x1f\n      add\n      0x20\n      dup1\n      swap2\n      div\n      mul\n      0x20\n      add\n      mload(0x40)\n      swap1\n      dup2\n      add\n      0x40\n      mstore\n      dup1\n      swap3\n      swap2\n      swap1\n      dup2\n      dup2\n      mstore\n      0x20\n      add\n      dup3\n      dup1\n      sload\n      tag_143\n      swap1\n      tag_57\n      jump\t// in\n    tag_143:\n      dup1\n      iszero\n      tag_144\n      jumpi\n      dup1\n      0x1f\n      lt\n      tag_145\n      jumpi\n      0x0100\n      dup1\n      dup4\n      sload\n      div\n      mul\n      dup4\n      mstore\n      swap2\n      0x20\n      add\n      swap2\n      jump(tag_144)\n    tag_145:\n      dup3\n      add\n      swap2\n      swap1\n      0x00\n      mstore\n      keccak256(0x00, 0x20)\n      swap1\n    tag_146:\n      dup2\n      sload\n      dup2\n      mstore\n      swap1\n      0x01\n      add\n      swap1\n      0x20\n      add\n      dup1\n      dup4\n      gt\n      tag_146\n      jumpi\n      dup3\n      swap1\n      sub\n      0x1f\n      and\n      dup3\n      add\n      swap2\n    tag_144:\n      pop\n      pop\n      pop\n      pop\n      pop\n      dup2\n      mstore\n      0x20\n      add\n      0x03\n      dup3\n      add\n      sload\n      dup2\n      mstore\n      0x20\n      add\n      0x04\n      dup3\n      add\n      0x00\n      swap1\n      sload\n      swap1\n      0x0100\n      exp\n      swap1\n      div\n      0xff\n      and\n      0xff\n      and\n      0xff\n      and\n      dup2\n      mstore\n      0x20\n      add\n      0x04\n      dup3\n      add\n      0x01\n      swap1\n      sload\n      swap1\n      0x0100\n      exp\n      swap1\n      div\n      0xff\n      and\n      0xff\n      and\n      0xff\n      and\n      dup2\n      mstore\n      pop\n      pop\n        /* \"contracts/Capstone.sol\":2214:2216  cc */\n      dup4\n        /* \"contracts/Capstone.sol\":2217:2222  _indx */\n      dup4\n        /* \"contracts/Capstone.sol\":2214:2223  cc[_indx] */\n      dup2\n      mload\n      dup2\n      lt\n      tag_147\n      jumpi\n      tag_148\n      tag_102\n      jump\t// in\n    tag_148:\n    tag_147:\n      0x20\n      mul\n      0x20\n      add\n      add\n        /* \"contracts/Capstone.sol\":2214:2239  cc[_indx] = candidates[i] */\n      dup2\n      swap1\n      mstore\n      pop\n        /* \"contracts/Capstone.sol\":2258:2265  _indx++ */\n      dup2\n      dup1\n      tag_149\n      swap1\n      tag_110\n      jump\t// in\n    tag_149:\n      swap3\n      pop\n      pop\n        /* \"contracts/Capstone.sol\":2036:2281  if (... */\n    tag_128:\n        /* \"contracts/Capstone.sol\":2016:2019  i++ */\n      dup1\n      dup1\n      tag_150\n      swap1\n      tag_110\n      jump\t// in\n    tag_150:\n      swap2\n      pop\n      pop\n        /* \"contracts/Capstone.sol\":1973:2292  for (uint256 i = 0; i < candidates.length; i++) {... */\n      jump(tag_118)\n    tag_119:\n      pop\n        /* \"contracts/Capstone.sol\":2309:2311  cc */\n      dup2\n        /* \"contracts/Capstone.sol\":2302:2311  return cc */\n      swap5\n      pop\n      pop\n      pop\n      pop\n      pop\n        /* \"contracts/Capstone.sol\":1278:2319  function getCandidateList(uint256 voterAadharNumber)... */\n      swap2\n      swap1\n      pop\n      jump\t// out\n        /* \"contracts/Capstone.sol\":5665:6530  function getResults(uint256 currentTime_)... */\n    tag_35:\n        /* \"contracts/Capstone.sol\":5755:5777  Types.Results[] memory */\n      0x60\n        /* \"contracts/Capstone.sol\":5819:5831  currentTime_ */\n      dup2\n        /* \"contracts/Capstone.sol\":5803:5816  votingEndTime */\n      sload(0x06)\n        /* \"contracts/Capstone.sol\":5803:5831  votingEndTime < currentTime_ */\n      lt\n        /* \"contracts/Capstone.sol\":5795:5832  require(votingEndTime < currentTime_) */\n      tag_152\n      jumpi\n      0x00\n      dup1\n      revert\n    tag_152:\n        /* \"contracts/Capstone.sol\":5843:5878  Types.Results[] memory resultsList_ */\n      0x00\n        /* \"contracts/Capstone.sol\":5915:5925  candidates */\n      dup1\n        /* \"contracts/Capstone.sol\":5915:5932  candidates.length */\n      dup1\n      sload\n      swap1\n      pop\n        /* \"contracts/Capstone.sol\":5881:5943  new Types.Results[](... */\n      0xffffffffffffffff\n      dup2\n      gt\n      iszero\n      tag_153\n      jumpi\n      tag_154\n      tag_114\n      jump\t// in\n    tag_154:\n    tag_153:\n      mload(0x40)\n      swap1\n      dup1\n      dup3\n      mstore\n      dup1\n      0x20\n      mul\n      0x20\n      add\n      dup3\n      add\n      0x40\n      mstore\n      dup1\n      iszero\n      tag_155\n      jumpi\n      dup2\n      0x20\n      add\n    tag_156:\n      tag_157\n      tag_158\n      jump\t// in\n    tag_157:\n      dup2\n      mstore\n      0x20\n      add\n      swap1\n      0x01\n      swap1\n      sub\n      swap1\n      dup2\n      tag_156\n      jumpi\n      swap1\n      pop\n    tag_155:\n      pop\n        /* \"contracts/Capstone.sol\":5843:5943  Types.Results[] memory resultsList_ = new Types.Results[](... */\n      swap1\n      pop\n        /* \"contracts/Capstone.sol\":5959:5968  uint256 i */\n      0x00\n        /* \"contracts/Capstone.sol\":5954:6493  for (uint256 i = 0; i < candidates.length; i++) {... */\n    tag_159:\n        /* \"contracts/Capstone.sol\":5978:5988  candidates */\n      0x00\n        /* \"contracts/Capstone.sol\":5978:5995  candidates.length */\n      dup1\n      sload\n      swap1\n      pop\n        /* \"contracts/Capstone.sol\":5974:5975  i */\n      dup2\n        /* \"contracts/Capstone.sol\":5974:5995  i < candidates.length */\n      lt\n        /* \"contracts/Capstone.sol\":5954:6493  for (uint256 i = 0; i < candidates.length; i++) {... */\n      iszero\n      tag_160\n      jumpi\n        /* \"contracts/Capstone.sol\":6035:6481  Types.Results({... */\n      mload(0x40)\n      dup1\n      0xe0\n      add\n      0x40\n      mstore\n      dup1\n        /* \"contracts/Capstone.sol\":6074:6084  candidates */\n      0x00\n        /* \"contracts/Capstone.sol\":6085:6086  i */\n      dup4\n        /* \"contracts/Capstone.sol\":6074:6087  candidates[i] */\n      dup2\n      sload\n      dup2\n      lt\n      tag_162\n      jumpi\n      tag_163\n      tag_102\n      jump\t// in\n    tag_163:\n    tag_162:\n      swap1\n      0x00\n      mstore\n      keccak256(0x00, 0x20)\n      swap1\n      0x05\n      mul\n      add\n        /* \"contracts/Capstone.sol\":6074:6092  candidates[i].name */\n      0x00\n      add\n        /* \"contracts/Capstone.sol\":6035:6481  Types.Results({... */\n      dup1\n      sload\n      tag_165\n      swap1\n      tag_57\n      jump\t// in\n    tag_165:\n      dup1\n      0x1f\n      add\n      0x20\n      dup1\n      swap2\n      div\n      mul\n      0x20\n      add\n      mload(0x40)\n      swap1\n      dup2\n      add\n      0x40\n      mstore\n      dup1\n      swap3\n      swap2\n      swap1\n      dup2\n      dup2\n      mstore\n      0x20\n      add\n      dup3\n      dup1\n      sload\n      tag_166\n      swap1\n      tag_57\n      jump\t// in\n    tag_166:\n      dup1\n      iszero\n      tag_167\n      jumpi\n      dup1\n      0x1f\n      lt\n      tag_168\n      jumpi\n      0x0100\n      dup1\n      dup4\n      sload\n      div\n      mul\n      dup4\n      mstore\n      swap2\n      0x20\n      add\n      swap2\n      jump(tag_167)\n    tag_168:\n      dup3\n      add\n      swap2\n      swap1\n      0x00\n      mstore\n      keccak256(0x00, 0x20)\n      swap1\n    tag_169:\n      dup2\n      sload\n      dup2\n      mstore\n      swap1\n      0x01\n      add\n      swap1\n      0x20\n      add\n      dup1\n      dup4\n      gt\n      tag_169\n      jumpi\n      dup3\n      swap1\n      sub\n      0x1f\n      and\n      dup3\n      add\n      swap2\n    tag_167:\n      pop\n      pop\n      pop\n      pop\n      pop\n      dup2\n      mstore\n      0x20\n      add\n        /* \"contracts/Capstone.sol\":6126:6136  candidates */\n      0x00\n        /* \"contracts/Capstone.sol\":6137:6138  i */\n      dup4\n        /* \"contracts/Capstone.sol\":6126:6139  candidates[i] */\n      dup2\n      sload\n      dup2\n      lt\n      tag_170\n      jumpi\n      tag_171\n      tag_102\n      jump\t// in\n    tag_171:\n    tag_170:\n      swap1\n      0x00\n      mstore\n      keccak256(0x00, 0x20)\n      swap1\n      0x05\n      mul\n      add\n        /* \"contracts/Capstone.sol\":6126:6153  candidates[i].partyShortcut */\n      0x01\n      add\n        /* \"contracts/Capstone.sol\":6035:6481  Types.Results({... */\n      dup1\n      sload\n      tag_173\n      swap1\n      tag_57\n      jump\t// in\n    tag_173:\n      dup1\n      0x1f\n      add\n      0x20\n      dup1\n      swap2\n      div\n      mul\n      0x20\n      add\n      mload(0x40)\n      swap1\n      dup2\n      add\n      0x40\n      mstore\n      dup1\n      swap3\n      swap2\n      swap1\n      dup2\n      dup2\n      mstore\n      0x20\n      add\n      dup3\n      dup1\n      sload\n      tag_174\n      swap1\n      tag_57\n      jump\t// in\n    tag_174:\n      dup1\n      iszero\n      tag_175\n      jumpi\n      dup1\n      0x1f\n      lt\n      tag_176\n      jumpi\n      0x0100\n      dup1\n      dup4\n      sload\n      div\n      mul\n      dup4\n      mstore\n      swap2\n      0x20\n      add\n      swap2\n      jump(tag_175)\n    tag_176:\n      dup3\n      add\n      swap2\n      swap1\n      0x00\n      mstore\n      keccak256(0x00, 0x20)\n      swap1\n    tag_177:\n      dup2\n      sload\n      dup2\n      mstore\n      swap1\n      0x01\n      add\n      swap1\n      0x20\n      add\n      dup1\n      dup4\n      gt\n      tag_177\n      jumpi\n      dup3\n      swap1\n      sub\n      0x1f\n      and\n      dup3\n      add\n      swap2\n    tag_175:\n      pop\n      pop\n      pop\n      pop\n      pop\n      dup2\n      mstore\n      0x20\n      add\n        /* \"contracts/Capstone.sol\":6183:6193  candidates */\n      0x00\n        /* \"contracts/Capstone.sol\":6194:6195  i */\n      dup4\n        /* \"contracts/Capstone.sol\":6183:6196  candidates[i] */\n      dup2\n      sload\n      dup2\n      lt\n      tag_178\n      jumpi\n      tag_179\n      tag_102\n      jump\t// in\n    tag_179:\n    tag_178:\n      swap1\n      0x00\n      mstore\n      keccak256(0x00, 0x20)\n      swap1\n      0x05\n      mul\n      add\n        /* \"contracts/Capstone.sol\":6183:6206  candidates[i].partyFlag */\n      0x02\n      add\n        /* \"contracts/Capstone.sol\":6035:6481  Types.Results({... */\n      dup1\n      sload\n      tag_181\n      swap1\n      tag_57\n      jump\t// in\n    tag_181:\n      dup1\n      0x1f\n      add\n      0x20\n      dup1\n      swap2\n      div\n      mul\n      0x20\n      add\n      mload(0x40)\n      swap1\n      dup2\n      add\n      0x40\n      mstore\n      dup1\n      swap3\n      swap2\n      swap1\n      dup2\n      dup2\n      mstore\n      0x20\n      add\n      dup3\n      dup1\n      sload\n      tag_182\n      swap1\n      tag_57\n      jump\t// in\n    tag_182:\n      dup1\n      iszero\n      tag_183\n      jumpi\n      dup1\n      0x1f\n      lt\n      tag_184\n      jumpi\n      0x0100\n      dup1\n      dup4\n      sload\n      div\n      mul\n      dup4\n      mstore\n      swap2\n      0x20\n      add\n      swap2\n      jump(tag_183)\n    tag_184:\n      dup3\n      add\n      swap2\n      swap1\n      0x00\n      mstore\n      keccak256(0x00, 0x20)\n      swap1\n    tag_185:\n      dup2\n      sload\n      dup2\n      mstore\n      swap1\n      0x01\n      add\n      swap1\n      0x20\n      add\n      dup1\n      dup4\n      gt\n      tag_185\n      jumpi\n      dup3\n      swap1\n      sub\n      0x1f\n      and\n      dup3\n      add\n      swap2\n    tag_183:\n      pop\n      pop\n      pop\n      pop\n      pop\n      dup2\n      mstore\n      0x20\n      add\n        /* \"contracts/Capstone.sol\":6423:6433  votesCount */\n      0x03\n        /* \"contracts/Capstone.sol\":6423:6465  votesCount[candidates[i].nominationNumber] */\n      0x00\n        /* \"contracts/Capstone.sol\":6434:6444  candidates */\n      dup1\n        /* \"contracts/Capstone.sol\":6445:6446  i */\n      dup6\n        /* \"contracts/Capstone.sol\":6434:6447  candidates[i] */\n      dup2\n      sload\n      dup2\n      lt\n      tag_186\n      jumpi\n      tag_187\n      tag_102\n      jump\t// in\n    tag_187:\n    tag_186:\n      swap1\n      0x00\n      mstore\n      keccak256(0x00, 0x20)\n      swap1\n      0x05\n      mul\n      add\n        /* \"contracts/Capstone.sol\":6434:6464  candidates[i].nominationNumber */\n      0x03\n      add\n      sload\n        /* \"contracts/Capstone.sol\":6423:6465  votesCount[candidates[i].nominationNumber] */\n      dup2\n      mstore\n      0x20\n      add\n      swap1\n      dup2\n      mstore\n      0x20\n      add\n      0x00\n      keccak256\n      sload\n        /* \"contracts/Capstone.sol\":6035:6481  Types.Results({... */\n      dup2\n      mstore\n      0x20\n      add\n        /* \"contracts/Capstone.sol\":6243:6253  candidates */\n      0x00\n        /* \"contracts/Capstone.sol\":6254:6255  i */\n      dup4\n        /* \"contracts/Capstone.sol\":6243:6256  candidates[i] */\n      dup2\n      sload\n      dup2\n      lt\n      tag_189\n      jumpi\n      tag_190\n      tag_102\n      jump\t// in\n    tag_190:\n    tag_189:\n      swap1\n      0x00\n      mstore\n      keccak256(0x00, 0x20)\n      swap1\n      0x05\n      mul\n      add\n        /* \"contracts/Capstone.sol\":6243:6273  candidates[i].nominationNumber */\n      0x03\n      add\n      sload\n        /* \"contracts/Capstone.sol\":6035:6481  Types.Results({... */\n      dup2\n      mstore\n      0x20\n      add\n        /* \"contracts/Capstone.sol\":6303:6313  candidates */\n      0x00\n        /* \"contracts/Capstone.sol\":6314:6315  i */\n      dup4\n        /* \"contracts/Capstone.sol\":6303:6316  candidates[i] */\n      dup2\n      sload\n      dup2\n      lt\n      tag_192\n      jumpi\n      tag_193\n      tag_102\n      jump\t// in\n    tag_193:\n    tag_192:\n      swap1\n      0x00\n      mstore\n      keccak256(0x00, 0x20)\n      swap1\n      0x05\n      mul\n      add\n        /* \"contracts/Capstone.sol\":6303:6326  candidates[i].stateCode */\n      0x04\n      add\n      0x00\n      swap1\n      sload\n      swap1\n      0x0100\n      exp\n      swap1\n      div\n      0xff\n      and\n        /* \"contracts/Capstone.sol\":6035:6481  Types.Results({... */\n      0xff\n      and\n      dup2\n      mstore\n      0x20\n      add\n        /* \"contracts/Capstone.sol\":6363:6373  candidates */\n      0x00\n        /* \"contracts/Capstone.sol\":6374:6375  i */\n      dup4\n        /* \"contracts/Capstone.sol\":6363:6376  candidates[i] */\n      dup2\n      sload\n      dup2\n      lt\n      tag_195\n      jumpi\n      tag_196\n      tag_102\n      jump\t// in\n    tag_196:\n    tag_195:\n      swap1\n      0x00\n      mstore\n      keccak256(0x00, 0x20)\n      swap1\n      0x05\n      mul\n      add\n        /* \"contracts/Capstone.sol\":6363:6393  candidates[i].constituencyCode */\n      0x04\n      add\n      0x01\n      swap1\n      sload\n      swap1\n      0x0100\n      exp\n      swap1\n      div\n      0xff\n      and\n        /* \"contracts/Capstone.sol\":6035:6481  Types.Results({... */\n      0xff\n      and\n      dup2\n      mstore\n      pop\n        /* \"contracts/Capstone.sol\":6017:6029  resultsList_ */\n      dup3\n        /* \"contracts/Capstone.sol\":6030:6031  i */\n      dup3\n        /* \"contracts/Capstone.sol\":6017:6032  resultsList_[i] */\n      dup2\n      mload\n      dup2\n      lt\n      tag_198\n      jumpi\n      tag_199\n      tag_102\n      jump\t// in\n    tag_199:\n    tag_198:\n      0x20\n      mul\n      0x20\n      add\n      add\n        /* \"contracts/Capstone.sol\":6017:6481  resultsList_[i] = Types.Results({... */\n      dup2\n      swap1\n      mstore\n      pop\n        /* \"contracts/Capstone.sol\":5997:6000  i++ */\n      dup1\n      dup1\n      tag_200\n      swap1\n      tag_110\n      jump\t// in\n    tag_200:\n      swap2\n      pop\n      pop\n        /* \"contracts/Capstone.sol\":5954:6493  for (uint256 i = 0; i < candidates.length; i++) {... */\n      jump(tag_159)\n    tag_160:\n      pop\n        /* \"contracts/Capstone.sol\":6510:6522  resultsList_ */\n      dup1\n        /* \"contracts/Capstone.sol\":6503:6522  return resultsList_ */\n      swap2\n      pop\n      pop\n        /* \"contracts/Capstone.sol\":5665:6530  function getResults(uint256 currentTime_)... */\n      swap2\n      swap1\n      pop\n      jump\t// out\n        /* \"contracts/Capstone.sol\":3813:4339  function vote(... */\n    tag_41:\n        /* \"contracts/Capstone.sol\":3980:3992  currentTime_ */\n      dup1\n        /* \"contracts/Capstone.sol\":6776:6791  votingStartTime */\n      sload(0x05)\n        /* \"contracts/Capstone.sol\":6760:6772  currentTime_ */\n      dup2\n        /* \"contracts/Capstone.sol\":6760:6791  currentTime_ >= votingStartTime */\n      lt\n      iszero\n        /* \"contracts/Capstone.sol\":6752:6792  require(currentTime_ >= votingStartTime) */\n      tag_202\n      jumpi\n      0x00\n      dup1\n      revert\n    tag_202:\n        /* \"contracts/Capstone.sol\":6827:6840  votingEndTime */\n      sload(0x06)\n        /* \"contracts/Capstone.sol\":6811:6823  currentTime_ */\n      dup2\n        /* \"contracts/Capstone.sol\":6811:6840  currentTime_ <= votingEndTime */\n      gt\n      iszero\n        /* \"contracts/Capstone.sol\":6803:6841  require(currentTime_ <= votingEndTime) */\n      tag_203\n      jumpi\n      0x00\n      dup1\n      revert\n    tag_203:\n        /* \"contracts/Capstone.sol\":4018:4035  voterAadharNumber */\n      dup3\n        /* \"contracts/Capstone.sol\":4037:4053  nominationNumber */\n      dup5\n        /* \"contracts/Capstone.sol\":7177:7202  Types.Voter memory voter_ */\n      0x00\n        /* \"contracts/Capstone.sol\":7205:7210  voter */\n      0x01\n        /* \"contracts/Capstone.sol\":7205:7224  voter[voterAadhar_] */\n      0x00\n        /* \"contracts/Capstone.sol\":7211:7223  voterAadhar_ */\n      dup5\n        /* \"contracts/Capstone.sol\":7205:7224  voter[voterAadhar_] */\n      dup2\n      mstore\n      0x20\n      add\n      swap1\n      dup2\n      mstore\n      0x20\n      add\n      0x00\n      keccak256\n        /* \"contracts/Capstone.sol\":7177:7224  Types.Voter memory voter_ = voter[voterAadhar_] */\n      mload(0x40)\n      dup1\n      0xe0\n      add\n      0x40\n      mstore\n      swap1\n      dup2\n      0x00\n      dup3\n      add\n      sload\n      dup2\n      mstore\n      0x20\n      add\n      0x01\n      dup3\n      add\n      dup1\n      sload\n      tag_205\n      swap1\n      tag_57\n      jump\t// in\n    tag_205:\n      dup1\n      0x1f\n      add\n      0x20\n      dup1\n      swap2\n      div\n      mul\n      0x20\n      add\n      mload(0x40)\n      swap1\n      dup2\n      add\n      0x40\n      mstore\n      dup1\n      swap3\n      swap2\n      swap1\n      dup2\n      dup2\n      mstore\n      0x20\n      add\n      dup3\n      dup1\n      sload\n      tag_206\n      swap1\n      tag_57\n      jump\t// in\n    tag_206:\n      dup1\n      iszero\n      tag_207\n      jumpi\n      dup1\n      0x1f\n      lt\n      tag_208\n      jumpi\n      0x0100\n      dup1\n      dup4\n      sload\n      div\n      mul\n      dup4\n      mstore\n      swap2\n      0x20\n      add\n      swap2\n      jump(tag_207)\n    tag_208:\n      dup3\n      add\n      swap2\n      swap1\n      0x00\n      mstore\n      keccak256(0x00, 0x20)\n      swap1\n    tag_209:\n      dup2\n      sload\n      dup2\n      mstore\n      swap1\n      0x01\n      add\n      swap1\n      0x20\n      add\n      dup1\n      dup4\n      gt\n      tag_209\n      jumpi\n      dup3\n      swap1\n      sub\n      0x1f\n      and\n      dup3\n      add\n      swap2\n    tag_207:\n      pop\n      pop\n      pop\n      pop\n      pop\n      dup2\n      mstore\n      0x20\n      add\n      0x02\n      dup3\n      add\n      0x00\n      swap1\n      sload\n      swap1\n      0x0100\n      exp\n      swap1\n      div\n      0xff\n      and\n      0xff\n      and\n      0xff\n      and\n      dup2\n      mstore\n      0x20\n      add\n      0x02\n      dup3\n      add\n      0x01\n      swap1\n      sload\n      swap1\n      0x0100\n      exp\n      swap1\n      div\n      0xff\n      and\n      0xff\n      and\n      0xff\n      and\n      dup2\n      mstore\n      0x20\n      add\n      0x02\n      dup3\n      add\n      0x02\n      swap1\n      sload\n      swap1\n      0x0100\n      exp\n      swap1\n      div\n      0xff\n      and\n      0xff\n      and\n      0xff\n      and\n      dup2\n      mstore\n      0x20\n      add\n      0x02\n      dup3\n      add\n      0x03\n      swap1\n      sload\n      swap1\n      0x0100\n      exp\n      swap1\n      div\n      0xff\n      and\n      iszero\n      iszero\n      iszero\n      iszero\n      dup2\n      mstore\n      0x20\n      add\n      0x03\n      dup3\n      add\n      sload\n      dup2\n      mstore\n      pop\n      pop\n      swap1\n      pop\n        /* \"contracts/Capstone.sol\":7235:7269  Types.Candidate memory politician_ */\n      0x00\n        /* \"contracts/Capstone.sol\":7272:7281  candidate */\n      0x02\n        /* \"contracts/Capstone.sol\":7272:7300  candidate[nominationNumber_] */\n      0x00\n        /* \"contracts/Capstone.sol\":7282:7299  nominationNumber_ */\n      dup5\n        /* \"contracts/Capstone.sol\":7272:7300  candidate[nominationNumber_] */\n      dup2\n      mstore\n      0x20\n      add\n      swap1\n      dup2\n      mstore\n      0x20\n      add\n      0x00\n      keccak256\n        /* \"contracts/Capstone.sol\":7235:7300  Types.Candidate memory politician_ = candidate[nominationNumber_] */\n      mload(0x40)\n      dup1\n      0xc0\n      add\n      0x40\n      mstore\n      swap1\n      dup2\n      0x00\n      dup3\n      add\n      dup1\n      sload\n      tag_210\n      swap1\n      tag_57\n      jump\t// in\n    tag_210:\n      dup1\n      0x1f\n      add\n      0x20\n      dup1\n      swap2\n      div\n      mul\n      0x20\n      add\n      mload(0x40)\n      swap1\n      dup2\n      add\n      0x40\n      mstore\n      dup1\n      swap3\n      swap2\n      swap1\n      dup2\n      dup2\n      mstore\n      0x20\n      add\n      dup3\n      dup1\n      sload\n      tag_211\n      swap1\n      tag_57\n      jump\t// in\n    tag_211:\n      dup1\n      iszero\n      tag_212\n      jumpi\n      dup1\n      0x1f\n      lt\n      tag_213\n      jumpi\n      0x0100\n      dup1\n      dup4\n      sload\n      div\n      mul\n      dup4\n      mstore\n      swap2\n      0x20\n      add\n      swap2\n      jump(tag_212)\n    tag_213:\n      dup3\n      add\n      swap2\n      swap1\n      0x00\n      mstore\n      keccak256(0x00, 0x20)\n      swap1\n    tag_214:\n      dup2\n      sload\n      dup2\n      mstore\n      swap1\n      0x01\n      add\n      swap1\n      0x20\n      add\n      dup1\n      dup4\n      gt\n      tag_214\n      jumpi\n      dup3\n      swap1\n      sub\n      0x1f\n      and\n      dup3\n      add\n      swap2\n    tag_212:\n      pop\n      pop\n      pop\n      pop\n      pop\n      dup2\n      mstore\n      0x20\n      add\n      0x01\n      dup3\n      add\n      dup1\n      sload\n      tag_215\n      swap1\n      tag_57\n      jump\t// in\n    tag_215:\n      dup1\n      0x1f\n      add\n      0x20\n      dup1\n      swap2\n      div\n      mul\n      0x20\n      add\n      mload(0x40)\n      swap1\n      dup2\n      add\n      0x40\n      mstore\n      dup1\n      swap3\n      swap2\n      swap1\n      dup2\n      dup2\n      mstore\n      0x20\n      add\n      dup3\n      dup1\n      sload\n      tag_216\n      swap1\n      tag_57\n      jump\t// in\n    tag_216:\n      dup1\n      iszero\n      tag_217\n      jumpi\n      dup1\n      0x1f\n      lt\n      tag_218\n      jumpi\n      0x0100\n      dup1\n      dup4\n      sload\n      div\n      mul\n      dup4\n      mstore\n      swap2\n      0x20\n      add\n      swap2\n      jump(tag_217)\n    tag_218:\n      dup3\n      add\n      swap2\n      swap1\n      0x00\n      mstore\n      keccak256(0x00, 0x20)\n      swap1\n    tag_219:\n      dup2\n      sload\n      dup2\n      mstore\n      swap1\n      0x01\n      add\n      swap1\n      0x20\n      add\n      dup1\n      dup4\n      gt\n      tag_219\n      jumpi\n      dup3\n      swap1\n      sub\n      0x1f\n      and\n      dup3\n      add\n      swap2\n    tag_217:\n      pop\n      pop\n      pop\n      pop\n      pop\n      dup2\n      mstore\n      0x20\n      add\n      0x02\n      dup3\n      add\n      dup1\n      sload\n      tag_220\n      swap1\n      tag_57\n      jump\t// in\n    tag_220:\n      dup1\n      0x1f\n      add\n      0x20\n      dup1\n      swap2\n      div\n      mul\n      0x20\n      add\n      mload(0x40)\n      swap1\n      dup2\n      add\n      0x40\n      mstore\n      dup1\n      swap3\n      swap2\n      swap1\n      dup2\n      dup2\n      mstore\n      0x20\n      add\n      dup3\n      dup1\n      sload\n      tag_221\n      swap1\n      tag_57\n      jump\t// in\n    tag_221:\n      dup1\n      iszero\n      tag_222\n      jumpi\n      dup1\n      0x1f\n      lt\n      tag_223\n      jumpi\n      0x0100\n      dup1\n      dup4\n      sload\n      div\n      mul\n      dup4\n      mstore\n      swap2\n      0x20\n      add\n      swap2\n      jump(tag_222)\n    tag_223:\n      dup3\n      add\n      swap2\n      swap1\n      0x00\n      mstore\n      keccak256(0x00, 0x20)\n      swap1\n    tag_224:\n      dup2\n      sload\n      dup2\n      mstore\n      swap1\n      0x01\n      add\n      swap1\n      0x20\n      add\n      dup1\n      dup4\n      gt\n      tag_224\n      jumpi\n      dup3\n      swap1\n      sub\n      0x1f\n      and\n      dup3\n      add\n      swap2\n    tag_222:\n      pop\n      pop\n      pop\n      pop\n      pop\n      dup2\n      mstore\n      0x20\n      add\n      0x03\n      dup3\n      add\n      sload\n      dup2\n      mstore\n      0x20\n      add\n      0x04\n      dup3\n      add\n      0x00\n      swap1\n      sload\n      swap1\n      0x0100\n      exp\n      swap1\n      div\n      0xff\n      and\n      0xff\n      and\n      0xff\n      and\n      dup2\n      mstore\n      0x20\n      add\n      0x04\n      dup3\n      add\n      0x01\n      swap1\n      sload\n      swap1\n      0x0100\n      exp\n      swap1\n      div\n      0xff\n      and\n      0xff\n      and\n      0xff\n      and\n      dup2\n      mstore\n      pop\n      pop\n      swap1\n      pop\n        /* \"contracts/Capstone.sol\":7333:7335  18 */\n      0x12\n        /* \"contracts/Capstone.sol\":7319:7325  voter_ */\n      dup3\n        /* \"contracts/Capstone.sol\":7319:7329  voter_.age */\n      0x40\n      add\n      mload\n        /* \"contracts/Capstone.sol\":7319:7335  voter_.age >= 18 */\n      0xff\n      and\n      lt\n      iszero\n        /* \"contracts/Capstone.sol\":7311:7336  require(voter_.age >= 18) */\n      tag_225\n      jumpi\n      0x00\n      dup1\n      revert\n    tag_225:\n        /* \"contracts/Capstone.sol\":7355:7361  voter_ */\n      dup2\n        /* \"contracts/Capstone.sol\":7355:7369  voter_.isAlive */\n      0xa0\n      add\n      mload\n        /* \"contracts/Capstone.sol\":7347:7370  require(voter_.isAlive) */\n      tag_226\n      jumpi\n      0x00\n      dup1\n      revert\n    tag_226:\n        /* \"contracts/Capstone.sol\":7407:7408  0 */\n      0x00\n        /* \"contracts/Capstone.sol\":7389:7395  voter_ */\n      dup3\n        /* \"contracts/Capstone.sol\":7389:7403  voter_.votedTo */\n      0xc0\n      add\n      mload\n        /* \"contracts/Capstone.sol\":7389:7408  voter_.votedTo == 0 */\n      eq\n        /* \"contracts/Capstone.sol\":7381:7409  require(voter_.votedTo == 0) */\n      tag_227\n      jumpi\n      0x00\n      dup1\n      revert\n    tag_227:\n        /* \"contracts/Capstone.sol\":7468:7474  voter_ */\n      dup2\n        /* \"contracts/Capstone.sol\":7468:7484  voter_.stateCode */\n      0x60\n      add\n      mload\n        /* \"contracts/Capstone.sol\":7443:7484  politician_.stateCode == voter_.stateCode */\n      0xff\n      and\n        /* \"contracts/Capstone.sol\":7443:7454  politician_ */\n      dup2\n        /* \"contracts/Capstone.sol\":7443:7464  politician_.stateCode */\n      0x80\n      add\n      mload\n        /* \"contracts/Capstone.sol\":7443:7484  politician_.stateCode == voter_.stateCode */\n      0xff\n      and\n      eq\n        /* \"contracts/Capstone.sol\":7443:7560  politician_.stateCode == voter_.stateCode &&... */\n      dup1\n      iszero\n      tag_228\n      jumpi\n      pop\n        /* \"contracts/Capstone.sol\":7537:7543  voter_ */\n      dup2\n        /* \"contracts/Capstone.sol\":7537:7560  voter_.constituencyCode */\n      0x80\n      add\n      mload\n        /* \"contracts/Capstone.sol\":7505:7560  politician_.constituencyCode == voter_.constituencyCode */\n      0xff\n      and\n        /* \"contracts/Capstone.sol\":7505:7516  politician_ */\n      dup2\n        /* \"contracts/Capstone.sol\":7505:7533  politician_.constituencyCode */\n      0xa0\n      add\n      mload\n        /* \"contracts/Capstone.sol\":7505:7560  politician_.constituencyCode == voter_.constituencyCode */\n      0xff\n      and\n      eq\n        /* \"contracts/Capstone.sol\":7443:7560  politician_.stateCode == voter_.stateCode &&... */\n    tag_228:\n        /* \"contracts/Capstone.sol\":7420:7572  require(... */\n      tag_229\n      jumpi\n      0x00\n      dup1\n      revert\n    tag_229:\n        /* \"contracts/Capstone.sol\":4152:4168  nominationNumber */\n      dup8\n        /* \"contracts/Capstone.sol\":4117:4122  voter */\n      0x01\n        /* \"contracts/Capstone.sol\":4117:4141  voter[voterAadharNumber] */\n      0x00\n        /* \"contracts/Capstone.sol\":4123:4140  voterAadharNumber */\n      dup10\n        /* \"contracts/Capstone.sol\":4117:4141  voter[voterAadharNumber] */\n      dup2\n      mstore\n      0x20\n      add\n      swap1\n      dup2\n      mstore\n      0x20\n      add\n      0x00\n      keccak256\n        /* \"contracts/Capstone.sol\":4117:4149  voter[voterAadharNumber].votedTo */\n      0x03\n      add\n        /* \"contracts/Capstone.sol\":4117:4168  voter[voterAadharNumber].votedTo = nominationNumber */\n      dup2\n      swap1\n      sstore\n      pop\n        /* \"contracts/Capstone.sol\":4226:4244  uint256 voteCount_ */\n      0x00\n        /* \"contracts/Capstone.sol\":4247:4257  votesCount */\n      0x03\n        /* \"contracts/Capstone.sol\":4247:4275  votesCount[nominationNumber] */\n      0x00\n        /* \"contracts/Capstone.sol\":4258:4274  nominationNumber */\n      dup11\n        /* \"contracts/Capstone.sol\":4247:4275  votesCount[nominationNumber] */\n      dup2\n      mstore\n      0x20\n      add\n      swap1\n      dup2\n      mstore\n      0x20\n      add\n      0x00\n      keccak256\n      sload\n        /* \"contracts/Capstone.sol\":4226:4275  uint256 voteCount_ = votesCount[nominationNumber] */\n      swap1\n      pop\n        /* \"contracts/Capstone.sol\":4330:4331  1 */\n      0x01\n        /* \"contracts/Capstone.sol\":4317:4327  voteCount_ */\n      dup2\n        /* \"contracts/Capstone.sol\":4317:4331  voteCount_ + 1 */\n      tag_231\n      swap2\n      swap1\n      tag_232\n      jump\t// in\n    tag_231:\n        /* \"contracts/Capstone.sol\":4286:4296  votesCount */\n      0x03\n        /* \"contracts/Capstone.sol\":4286:4314  votesCount[nominationNumber] */\n      0x00\n        /* \"contracts/Capstone.sol\":4297:4313  nominationNumber */\n      dup12\n        /* \"contracts/Capstone.sol\":4286:4314  votesCount[nominationNumber] */\n      dup2\n      mstore\n      0x20\n      add\n      swap1\n      dup2\n      mstore\n      0x20\n      add\n      0x00\n      keccak256\n        /* \"contracts/Capstone.sol\":4286:4331  votesCount[nominationNumber] = voteCount_ + 1 */\n      dup2\n      swap1\n      sstore\n      pop\n        /* \"contracts/Capstone.sol\":4060:4339  {... */\n      pop\n        /* \"contracts/Capstone.sol\":7166:7592  {... */\n      pop\n      pop\n        /* \"contracts/Capstone.sol\":6852:6853  _ */\n      pop\n      pop\n        /* \"contracts/Capstone.sol\":3813:4339  function vote(... */\n      pop\n      pop\n      pop\n      pop\n      jump\t// out\n        /* \"contracts/Capstone.sol\":4458:4568  function getVotingEndTime() public view returns (uint256 endTime_) {... */\n    tag_43:\n        /* \"contracts/Capstone.sol\":4507:4523  uint256 endTime_ */\n      0x00\n        /* \"contracts/Capstone.sol\":4547:4560  votingEndTime */\n      sload(0x06)\n        /* \"contracts/Capstone.sol\":4536:4560  endTime_ = votingEndTime */\n      swap1\n      pop\n        /* \"contracts/Capstone.sol\":4458:4568  function getVotingEndTime() public view returns (uint256 endTime_) {... */\n      swap1\n      jump\t// out\n        /* \"contracts/Capstone.sol\":4779:4995  function updateVotingStartTime(uint256 startTime_, uint256 currentTime_)... */\n    tag_48:\n        /* \"contracts/Capstone.sol\":7740:7753  electionChief */\n      0x04\n      0x00\n      swap1\n      sload\n      swap1\n      0x0100\n      exp\n      swap1\n      div\n      0xffffffffffffffffffffffffffffffffffffffff\n      and\n        /* \"contracts/Capstone.sol\":7726:7753  msg.sender == electionChief */\n      0xffffffffffffffffffffffffffffffffffffffff\n      and\n        /* \"contracts/Capstone.sol\":7726:7736  msg.sender */\n      caller\n        /* \"contracts/Capstone.sol\":7726:7753  msg.sender == electionChief */\n      0xffffffffffffffffffffffffffffffffffffffff\n      and\n      eq\n        /* \"contracts/Capstone.sol\":7718:7754  require(msg.sender == electionChief) */\n      tag_235\n      jumpi\n      0x00\n      dup1\n      revert\n    tag_235:\n        /* \"contracts/Capstone.sol\":4935:4947  currentTime_ */\n      dup1\n        /* \"contracts/Capstone.sol\":4917:4932  votingStartTime */\n      sload(0x05)\n        /* \"contracts/Capstone.sol\":4917:4947  votingStartTime > currentTime_ */\n      gt\n        /* \"contracts/Capstone.sol\":4909:4948  require(votingStartTime > currentTime_) */\n      tag_237\n      jumpi\n      0x00\n      dup1\n      revert\n    tag_237:\n        /* \"contracts/Capstone.sol\":4977:4987  startTime_ */\n      dup2\n        /* \"contracts/Capstone.sol\":4959:4974  votingStartTime */\n      0x05\n        /* \"contracts/Capstone.sol\":4959:4987  votingStartTime = startTime_ */\n      dup2\n      swap1\n      sstore\n      pop\n        /* \"contracts/Capstone.sol\":4779:4995  function updateVotingStartTime(uint256 startTime_, uint256 currentTime_)... */\n      pop\n      pop\n      jump\t// out\n        /* \"contracts/Capstone.sol\":2572:2842  function isVoterEligible(uint256 voterAadharNumber)... */\n    tag_51:\n        /* \"contracts/Capstone.sol\":2672:2691  bool voterEligible_ */\n      0x00\n        /* \"contracts/Capstone.sol\":2709:2735  Types.Voter storage voter_ */\n      dup1\n        /* \"contracts/Capstone.sol\":2738:2743  voter */\n      0x01\n        /* \"contracts/Capstone.sol\":2738:2762  voter[voterAadharNumber] */\n      0x00\n        /* \"contracts/Capstone.sol\":2744:2761  voterAadharNumber */\n      dup5\n        /* \"contracts/Capstone.sol\":2738:2762  voter[voterAadharNumber] */\n      dup2\n      mstore\n      0x20\n      add\n      swap1\n      dup2\n      mstore\n      0x20\n      add\n      0x00\n      keccak256\n        /* \"contracts/Capstone.sol\":2709:2762  Types.Voter storage voter_ = voter[voterAadharNumber] */\n      swap1\n      pop\n        /* \"contracts/Capstone.sol\":2791:2793  18 */\n      0x12\n        /* \"contracts/Capstone.sol\":2777:2783  voter_ */\n      dup2\n        /* \"contracts/Capstone.sol\":2777:2787  voter_.age */\n      0x02\n      add\n      0x00\n      swap1\n      sload\n      swap1\n      0x0100\n      exp\n      swap1\n      div\n      0xff\n      and\n        /* \"contracts/Capstone.sol\":2777:2793  voter_.age >= 18 */\n      0xff\n      and\n      lt\n      iszero\n        /* \"contracts/Capstone.sol\":2777:2811  voter_.age >= 18 && voter_.isAlive */\n      dup1\n      iszero\n      tag_239\n      jumpi\n      pop\n        /* \"contracts/Capstone.sol\":2797:2803  voter_ */\n      dup1\n        /* \"contracts/Capstone.sol\":2797:2811  voter_.isAlive */\n      0x02\n      add\n      0x03\n      swap1\n      sload\n      swap1\n      0x0100\n      exp\n      swap1\n      div\n      0xff\n      and\n        /* \"contracts/Capstone.sol\":2777:2811  voter_.age >= 18 && voter_.isAlive */\n    tag_239:\n        /* \"contracts/Capstone.sol\":2773:2834  if (voter_.age >= 18 && voter_.isAlive) voterEligible_ = true */\n      iszero\n      tag_240\n      jumpi\n        /* \"contracts/Capstone.sol\":2830:2834  true */\n      0x01\n        /* \"contracts/Capstone.sol\":2813:2834  voterEligible_ = true */\n      swap2\n      pop\n        /* \"contracts/Capstone.sol\":2773:2834  if (voter_.age >= 18 && voter_.isAlive) voterEligible_ = true */\n    tag_240:\n        /* \"contracts/Capstone.sol\":2698:2842  {... */\n      pop\n        /* \"contracts/Capstone.sol\":2572:2842  function isVoterEligible(uint256 voterAadharNumber)... */\n      swap2\n      swap1\n      pop\n      jump\t// out\n    tag_78:\n      mload(0x40)\n      dup1\n      0xc0\n      add\n      0x40\n      mstore\n      dup1\n      0x60\n      dup2\n      mstore\n      0x20\n      add\n      0x60\n      dup2\n      mstore\n      0x20\n      add\n      0x60\n      dup2\n      mstore\n      0x20\n      add\n      0x00\n      dup2\n      mstore\n      0x20\n      add\n      and(0xff, 0x00)\n      dup2\n      mstore\n      0x20\n      add\n      and(0xff, 0x00)\n      dup2\n      mstore\n      pop\n      swap1\n      jump\t// out\n    tag_158:\n      mload(0x40)\n      dup1\n      0xe0\n      add\n      0x40\n      mstore\n      dup1\n      0x60\n      dup2\n      mstore\n      0x20\n      add\n      0x60\n      dup2\n      mstore\n      0x20\n      add\n      0x60\n      dup2\n      mstore\n      0x20\n      add\n      0x00\n      dup2\n      mstore\n      0x20\n      add\n      0x00\n      dup2\n      mstore\n      0x20\n      add\n      and(0xff, 0x00)\n      dup2\n      mstore\n      0x20\n      add\n      and(0xff, 0x00)\n      dup2\n      mstore\n      pop\n      swap1\n      jump\t// out\n        /* \"#utility.yul\":88:205   */\n    tag_242:\n        /* \"#utility.yul\":197:198   */\n      0x00\n        /* \"#utility.yul\":194:195   */\n      dup1\n        /* \"#utility.yul\":187:199   */\n      revert\n        /* \"#utility.yul\":334:411   */\n    tag_244:\n        /* \"#utility.yul\":371:378   */\n      0x00\n        /* \"#utility.yul\":400:405   */\n      dup2\n        /* \"#utility.yul\":389:405   */\n      swap1\n      pop\n        /* \"#utility.yul\":334:411   */\n      swap2\n      swap1\n      pop\n      jump\t// out\n        /* \"#utility.yul\":417:539   */\n    tag_245:\n        /* \"#utility.yul\":490:514   */\n      tag_284\n        /* \"#utility.yul\":508:513   */\n      dup2\n        /* \"#utility.yul\":490:514   */\n      tag_244\n      jump\t// in\n    tag_284:\n        /* \"#utility.yul\":483:488   */\n      dup2\n        /* \"#utility.yul\":480:515   */\n      eq\n        /* \"#utility.yul\":470:533   */\n      tag_285\n      jumpi\n        /* \"#utility.yul\":529:530   */\n      0x00\n        /* \"#utility.yul\":526:527   */\n      dup1\n        /* \"#utility.yul\":519:531   */\n      revert\n        /* \"#utility.yul\":470:533   */\n    tag_285:\n        /* \"#utility.yul\":417:539   */\n      pop\n      jump\t// out\n        /* \"#utility.yul\":545:684   */\n    tag_246:\n        /* \"#utility.yul\":591:596   */\n      0x00\n        /* \"#utility.yul\":629:635   */\n      dup2\n        /* \"#utility.yul\":616:636   */\n      calldataload\n        /* \"#utility.yul\":607:636   */\n      swap1\n      pop\n        /* \"#utility.yul\":645:678   */\n      tag_287\n        /* \"#utility.yul\":672:677   */\n      dup2\n        /* \"#utility.yul\":645:678   */\n      tag_245\n      jump\t// in\n    tag_287:\n        /* \"#utility.yul\":545:684   */\n      swap3\n      swap2\n      pop\n      pop\n      jump\t// out\n        /* \"#utility.yul\":690:1019   */\n    tag_15:\n        /* \"#utility.yul\":749:755   */\n      0x00\n        /* \"#utility.yul\":798:800   */\n      0x20\n        /* \"#utility.yul\":786:795   */\n      dup3\n        /* \"#utility.yul\":777:784   */\n      dup5\n        /* \"#utility.yul\":773:796   */\n      sub\n        /* \"#utility.yul\":769:801   */\n      slt\n        /* \"#utility.yul\":766:885   */\n      iszero\n      tag_289\n      jumpi\n        /* \"#utility.yul\":804:883   */\n      tag_290\n      tag_242\n      jump\t// in\n    tag_290:\n        /* \"#utility.yul\":766:885   */\n    tag_289:\n        /* \"#utility.yul\":924:925   */\n      0x00\n        /* \"#utility.yul\":949:1002   */\n      tag_291\n        /* \"#utility.yul\":994:1001   */\n      dup5\n        /* \"#utility.yul\":985:991   */\n      dup3\n        /* \"#utility.yul\":974:983   */\n      dup6\n        /* \"#utility.yul\":970:992   */\n      add\n        /* \"#utility.yul\":949:1002   */\n      tag_246\n      jump\t// in\n    tag_291:\n        /* \"#utility.yul\":939:1002   */\n      swap2\n      pop\n        /* \"#utility.yul\":895:1012   */\n      pop\n        /* \"#utility.yul\":690:1019   */\n      swap3\n      swap2\n      pop\n      pop\n      jump\t// out\n        /* \"#utility.yul\":1025:1124   */\n    tag_247:\n        /* \"#utility.yul\":1077:1083   */\n      0x00\n        /* \"#utility.yul\":1111:1116   */\n      dup2\n        /* \"#utility.yul\":1105:1117   */\n      mload\n        /* \"#utility.yul\":1095:1117   */\n      swap1\n      pop\n        /* \"#utility.yul\":1025:1124   */\n      swap2\n      swap1\n      pop\n      jump\t// out\n        /* \"#utility.yul\":1130:1299   */\n    tag_248:\n        /* \"#utility.yul\":1214:1225   */\n      0x00\n        /* \"#utility.yul\":1248:1254   */\n      dup3\n        /* \"#utility.yul\":1243:1246   */\n      dup3\n        /* \"#utility.yul\":1236:1255   */\n      mstore\n        /* \"#utility.yul\":1288:1292   */\n      0x20\n        /* \"#utility.yul\":1283:1286   */\n      dup3\n        /* \"#utility.yul\":1279:1293   */\n      add\n        /* \"#utility.yul\":1264:1293   */\n      swap1\n      pop\n        /* \"#utility.yul\":1130:1299   */\n      swap3\n      swap2\n      pop\n      pop\n      jump\t// out\n        /* \"#utility.yul\":1305:1551   */\n    tag_249:\n        /* \"#utility.yul\":1386:1387   */\n      0x00\n        /* \"#utility.yul\":1396:1509   */\n    tag_295:\n        /* \"#utility.yul\":1410:1416   */\n      dup4\n        /* \"#utility.yul\":1407:1408   */\n      dup2\n        /* \"#utility.yul\":1404:1417   */\n      lt\n        /* \"#utility.yul\":1396:1509   */\n      iszero\n      tag_297\n      jumpi\n        /* \"#utility.yul\":1495:1496   */\n      dup1\n        /* \"#utility.yul\":1490:1493   */\n      dup3\n        /* \"#utility.yul\":1486:1497   */\n      add\n        /* \"#utility.yul\":1480:1498   */\n      mload\n        /* \"#utility.yul\":1476:1477   */\n      dup2\n        /* \"#utility.yul\":1471:1474   */\n      dup5\n        /* \"#utility.yul\":1467:1478   */\n      add\n        /* \"#utility.yul\":1460:1499   */\n      mstore\n        /* \"#utility.yul\":1432:1434   */\n      0x20\n        /* \"#utility.yul\":1429:1430   */\n      dup2\n        /* \"#utility.yul\":1425:1435   */\n      add\n        /* \"#utility.yul\":1420:1435   */\n      swap1\n      pop\n        /* \"#utility.yul\":1396:1509   */\n      jump(tag_295)\n    tag_297:\n        /* \"#utility.yul\":1543:1544   */\n      0x00\n        /* \"#utility.yul\":1534:1540   */\n      dup5\n        /* \"#utility.yul\":1529:1532   */\n      dup5\n        /* \"#utility.yul\":1525:1541   */\n      add\n        /* \"#utility.yul\":1518:1545   */\n      mstore\n        /* \"#utility.yul\":1367:1551   */\n      pop\n        /* \"#utility.yul\":1305:1551   */\n      pop\n      pop\n      pop\n      jump\t// out\n        /* \"#utility.yul\":1557:1659   */\n    tag_250:\n        /* \"#utility.yul\":1598:1604   */\n      0x00\n        /* \"#utility.yul\":1649:1651   */\n      0x1f\n        /* \"#utility.yul\":1645:1652   */\n      not\n        /* \"#utility.yul\":1640:1642   */\n      0x1f\n        /* \"#utility.yul\":1633:1638   */\n      dup4\n        /* \"#utility.yul\":1629:1643   */\n      add\n        /* \"#utility.yul\":1625:1653   */\n      and\n        /* \"#utility.yul\":1615:1653   */\n      swap1\n      pop\n        /* \"#utility.yul\":1557:1659   */\n      swap2\n      swap1\n      pop\n      jump\t// out\n        /* \"#utility.yul\":1665:2042   */\n    tag_251:\n        /* \"#utility.yul\":1753:1756   */\n      0x00\n        /* \"#utility.yul\":1781:1820   */\n      tag_300\n        /* \"#utility.yul\":1814:1819   */\n      dup3\n        /* \"#utility.yul\":1781:1820   */\n      tag_247\n      jump\t// in\n    tag_300:\n        /* \"#utility.yul\":1836:1907   */\n      tag_301\n        /* \"#utility.yul\":1900:1906   */\n      dup2\n        /* \"#utility.yul\":1895:1898   */\n      dup6\n        /* \"#utility.yul\":1836:1907   */\n      tag_248\n      jump\t// in\n    tag_301:\n        /* \"#utility.yul\":1829:1907   */\n      swap4\n      pop\n        /* \"#utility.yul\":1916:1981   */\n      tag_302\n        /* \"#utility.yul\":1974:1980   */\n      dup2\n        /* \"#utility.yul\":1969:1972   */\n      dup6\n        /* \"#utility.yul\":1962:1966   */\n      0x20\n        /* \"#utility.yul\":1955:1960   */\n      dup7\n        /* \"#utility.yul\":1951:1967   */\n      add\n        /* \"#utility.yul\":1916:1981   */\n      tag_249\n      jump\t// in\n    tag_302:\n        /* \"#utility.yul\":2006:2035   */\n      tag_303\n        /* \"#utility.yul\":2028:2034   */\n      dup2\n        /* \"#utility.yul\":2006:2035   */\n      tag_250\n      jump\t// in\n    tag_303:\n        /* \"#utility.yul\":2001:2004   */\n      dup5\n        /* \"#utility.yul\":1997:2036   */\n      add\n        /* \"#utility.yul\":1990:2036   */\n      swap2\n      pop\n        /* \"#utility.yul\":1757:2042   */\n      pop\n        /* \"#utility.yul\":1665:2042   */\n      swap3\n      swap2\n      pop\n      pop\n      jump\t// out\n        /* \"#utility.yul\":2048:2166   */\n    tag_252:\n        /* \"#utility.yul\":2135:2159   */\n      tag_305\n        /* \"#utility.yul\":2153:2158   */\n      dup2\n        /* \"#utility.yul\":2135:2159   */\n      tag_244\n      jump\t// in\n    tag_305:\n        /* \"#utility.yul\":2130:2133   */\n      dup3\n        /* \"#utility.yul\":2123:2160   */\n      mstore\n        /* \"#utility.yul\":2048:2166   */\n      pop\n      pop\n      jump\t// out\n        /* \"#utility.yul\":2172:2258   */\n    tag_253:\n        /* \"#utility.yul\":2207:2214   */\n      0x00\n        /* \"#utility.yul\":2247:2251   */\n      0xff\n        /* \"#utility.yul\":2240:2245   */\n      dup3\n        /* \"#utility.yul\":2236:2252   */\n      and\n        /* \"#utility.yul\":2225:2252   */\n      swap1\n      pop\n        /* \"#utility.yul\":2172:2258   */\n      swap2\n      swap1\n      pop\n      jump\t// out\n        /* \"#utility.yul\":2264:2376   */\n    tag_254:\n        /* \"#utility.yul\":2347:2369   */\n      tag_308\n        /* \"#utility.yul\":2363:2368   */\n      dup2\n        /* \"#utility.yul\":2347:2369   */\n      tag_253\n      jump\t// in\n    tag_308:\n        /* \"#utility.yul\":2342:2345   */\n      dup3\n        /* \"#utility.yul\":2335:2370   */\n      mstore\n        /* \"#utility.yul\":2264:2376   */\n      pop\n      pop\n      jump\t// out\n        /* \"#utility.yul\":2382:3414   */\n    tag_18:\n        /* \"#utility.yul\":2667:2671   */\n      0x00\n        /* \"#utility.yul\":2705:2708   */\n      0xc0\n        /* \"#utility.yul\":2694:2703   */\n      dup3\n        /* \"#utility.yul\":2690:2709   */\n      add\n        /* \"#utility.yul\":2682:2709   */\n      swap1\n      pop\n        /* \"#utility.yul\":2755:2764   */\n      dup2\n        /* \"#utility.yul\":2749:2753   */\n      dup2\n        /* \"#utility.yul\":2745:2765   */\n      sub\n        /* \"#utility.yul\":2741:2742   */\n      0x00\n        /* \"#utility.yul\":2730:2739   */\n      dup4\n        /* \"#utility.yul\":2726:2743   */\n      add\n        /* \"#utility.yul\":2719:2766   */\n      mstore\n        /* \"#utility.yul\":2783:2861   */\n      tag_310\n        /* \"#utility.yul\":2856:2860   */\n      dup2\n        /* \"#utility.yul\":2847:2853   */\n      dup10\n        /* \"#utility.yul\":2783:2861   */\n      tag_251\n      jump\t// in\n    tag_310:\n        /* \"#utility.yul\":2775:2861   */\n      swap1\n      pop\n        /* \"#utility.yul\":2908:2917   */\n      dup2\n        /* \"#utility.yul\":2902:2906   */\n      dup2\n        /* \"#utility.yul\":2898:2918   */\n      sub\n        /* \"#utility.yul\":2893:2895   */\n      0x20\n        /* \"#utility.yul\":2882:2891   */\n      dup4\n        /* \"#utility.yul\":2878:2896   */\n      add\n        /* \"#utility.yul\":2871:2919   */\n      mstore\n        /* \"#utility.yul\":2936:3014   */\n      tag_311\n        /* \"#utility.yul\":3009:3013   */\n      dup2\n        /* \"#utility.yul\":3000:3006   */\n      dup9\n        /* \"#utility.yul\":2936:3014   */\n      tag_251\n      jump\t// in\n    tag_311:\n        /* \"#utility.yul\":2928:3014   */\n      swap1\n      pop\n        /* \"#utility.yul\":3061:3070   */\n      dup2\n        /* \"#utility.yul\":3055:3059   */\n      dup2\n        /* \"#utility.yul\":3051:3071   */\n      sub\n        /* \"#utility.yul\":3046:3048   */\n      0x40\n        /* \"#utility.yul\":3035:3044   */\n      dup4\n        /* \"#utility.yul\":3031:3049   */\n      add\n        /* \"#utility.yul\":3024:3072   */\n      mstore\n        /* \"#utility.yul\":3089:3167   */\n      tag_312\n        /* \"#utility.yul\":3162:3166   */\n      dup2\n        /* \"#utility.yul\":3153:3159   */\n      dup8\n        /* \"#utility.yul\":3089:3167   */\n      tag_251\n      jump\t// in\n    tag_312:\n        /* \"#utility.yul\":3081:3167   */\n      swap1\n      pop\n        /* \"#utility.yul\":3177:3249   */\n      tag_313\n        /* \"#utility.yul\":3245:3247   */\n      0x60\n        /* \"#utility.yul\":3234:3243   */\n      dup4\n        /* \"#utility.yul\":3230:3248   */\n      add\n        /* \"#utility.yul\":3221:3227   */\n      dup7\n        /* \"#utility.yul\":3177:3249   */\n      tag_252\n      jump\t// in\n    tag_313:\n        /* \"#utility.yul\":3259:3328   */\n      tag_314\n        /* \"#utility.yul\":3323:3326   */\n      0x80\n        /* \"#utility.yul\":3312:3321   */\n      dup4\n        /* \"#utility.yul\":3308:3327   */\n      add\n        /* \"#utility.yul\":3299:3305   */\n      dup6\n        /* \"#utility.yul\":3259:3328   */\n      tag_254\n      jump\t// in\n    tag_314:\n        /* \"#utility.yul\":3338:3407   */\n      tag_315\n        /* \"#utility.yul\":3402:3405   */\n      0xa0\n        /* \"#utility.yul\":3391:3400   */\n      dup4\n        /* \"#utility.yul\":3387:3406   */\n      add\n        /* \"#utility.yul\":3378:3384   */\n      dup5\n        /* \"#utility.yul\":3338:3407   */\n      tag_254\n      jump\t// in\n    tag_315:\n        /* \"#utility.yul\":2382:3414   */\n      swap8\n      swap7\n      pop\n      pop\n      pop\n      pop\n      pop\n      pop\n      pop\n      jump\t// out\n        /* \"#utility.yul\":3420:3894   */\n    tag_21:\n        /* \"#utility.yul\":3488:3494   */\n      0x00\n        /* \"#utility.yul\":3496:3502   */\n      dup1\n        /* \"#utility.yul\":3545:3547   */\n      0x40\n        /* \"#utility.yul\":3533:3542   */\n      dup4\n        /* \"#utility.yul\":3524:3531   */\n      dup6\n        /* \"#utility.yul\":3520:3543   */\n      sub\n        /* \"#utility.yul\":3516:3548   */\n      slt\n        /* \"#utility.yul\":3513:3632   */\n      iszero\n      tag_317\n      jumpi\n        /* \"#utility.yul\":3551:3630   */\n      tag_318\n      tag_242\n      jump\t// in\n    tag_318:\n        /* \"#utility.yul\":3513:3632   */\n    tag_317:\n        /* \"#utility.yul\":3671:3672   */\n      0x00\n        /* \"#utility.yul\":3696:3749   */\n      tag_319\n        /* \"#utility.yul\":3741:3748   */\n      dup6\n        /* \"#utility.yul\":3732:3738   */\n      dup3\n        /* \"#utility.yul\":3721:3730   */\n      dup7\n        /* \"#utility.yul\":3717:3739   */\n      add\n        /* \"#utility.yul\":3696:3749   */\n      tag_246\n      jump\t// in\n    tag_319:\n        /* \"#utility.yul\":3686:3749   */\n      swap3\n      pop\n        /* \"#utility.yul\":3642:3759   */\n      pop\n        /* \"#utility.yul\":3798:3800   */\n      0x20\n        /* \"#utility.yul\":3824:3877   */\n      tag_320\n        /* \"#utility.yul\":3869:3876   */\n      dup6\n        /* \"#utility.yul\":3860:3866   */\n      dup3\n        /* \"#utility.yul\":3849:3858   */\n      dup7\n        /* \"#utility.yul\":3845:3867   */\n      add\n        /* \"#utility.yul\":3824:3877   */\n      tag_246\n      jump\t// in\n    tag_320:\n        /* \"#utility.yul\":3814:3877   */\n      swap2\n      pop\n        /* \"#utility.yul\":3769:3887   */\n      pop\n        /* \"#utility.yul\":3420:3894   */\n      swap3\n      pop\n      swap3\n      swap1\n      pop\n      jump\t// out\n        /* \"#utility.yul\":3900:3990   */\n    tag_255:\n        /* \"#utility.yul\":3934:3941   */\n      0x00\n        /* \"#utility.yul\":3977:3982   */\n      dup2\n        /* \"#utility.yul\":3970:3983   */\n      iszero\n        /* \"#utility.yul\":3963:3984   */\n      iszero\n        /* \"#utility.yul\":3952:3984   */\n      swap1\n      pop\n        /* \"#utility.yul\":3900:3990   */\n      swap2\n      swap1\n      pop\n      jump\t// out\n        /* \"#utility.yul\":3996:4105   */\n    tag_256:\n        /* \"#utility.yul\":4077:4098   */\n      tag_323\n        /* \"#utility.yul\":4092:4097   */\n      dup2\n        /* \"#utility.yul\":4077:4098   */\n      tag_255\n      jump\t// in\n    tag_323:\n        /* \"#utility.yul\":4072:4075   */\n      dup3\n        /* \"#utility.yul\":4065:4099   */\n      mstore\n        /* \"#utility.yul\":3996:4105   */\n      pop\n      pop\n      jump\t// out\n        /* \"#utility.yul\":4111:4270   */\n    tag_257:\n        /* \"#utility.yul\":4185:4196   */\n      0x00\n        /* \"#utility.yul\":4219:4225   */\n      dup3\n        /* \"#utility.yul\":4214:4217   */\n      dup3\n        /* \"#utility.yul\":4207:4226   */\n      mstore\n        /* \"#utility.yul\":4259:4263   */\n      0x20\n        /* \"#utility.yul\":4254:4257   */\n      dup3\n        /* \"#utility.yul\":4250:4264   */\n      add\n        /* \"#utility.yul\":4235:4264   */\n      swap1\n      pop\n        /* \"#utility.yul\":4111:4270   */\n      swap3\n      swap2\n      pop\n      pop\n      jump\t// out\n        /* \"#utility.yul\":4276:4633   */\n    tag_258:\n        /* \"#utility.yul\":4354:4357   */\n      0x00\n        /* \"#utility.yul\":4382:4421   */\n      tag_326\n        /* \"#utility.yul\":4415:4420   */\n      dup3\n        /* \"#utility.yul\":4382:4421   */\n      tag_247\n      jump\t// in\n    tag_326:\n        /* \"#utility.yul\":4437:4498   */\n      tag_327\n        /* \"#utility.yul\":4491:4497   */\n      dup2\n        /* \"#utility.yul\":4486:4489   */\n      dup6\n        /* \"#utility.yul\":4437:4498   */\n      tag_257\n      jump\t// in\n    tag_327:\n        /* \"#utility.yul\":4430:4498   */\n      swap4\n      pop\n        /* \"#utility.yul\":4507:4572   */\n      tag_328\n        /* \"#utility.yul\":4565:4571   */\n      dup2\n        /* \"#utility.yul\":4560:4563   */\n      dup6\n        /* \"#utility.yul\":4553:4557   */\n      0x20\n        /* \"#utility.yul\":4546:4551   */\n      dup7\n        /* \"#utility.yul\":4542:4558   */\n      add\n        /* \"#utility.yul\":4507:4572   */\n      tag_249\n      jump\t// in\n    tag_328:\n        /* \"#utility.yul\":4597:4626   */\n      tag_329\n        /* \"#utility.yul\":4619:4625   */\n      dup2\n        /* \"#utility.yul\":4597:4626   */\n      tag_250\n      jump\t// in\n    tag_329:\n        /* \"#utility.yul\":4592:4595   */\n      dup5\n        /* \"#utility.yul\":4588:4627   */\n      add\n        /* \"#utility.yul\":4581:4627   */\n      swap2\n      pop\n        /* \"#utility.yul\":4358:4633   */\n      pop\n        /* \"#utility.yul\":4276:4633   */\n      swap3\n      swap2\n      pop\n      pop\n      jump\t// out\n        /* \"#utility.yul\":4639:4747   */\n    tag_259:\n        /* \"#utility.yul\":4716:4740   */\n      tag_331\n        /* \"#utility.yul\":4734:4739   */\n      dup2\n        /* \"#utility.yul\":4716:4740   */\n      tag_244\n      jump\t// in\n    tag_331:\n        /* \"#utility.yul\":4711:4714   */\n      dup3\n        /* \"#utility.yul\":4704:4741   */\n      mstore\n        /* \"#utility.yul\":4639:4747   */\n      pop\n      pop\n      jump\t// out\n        /* \"#utility.yul\":4753:4855   */\n    tag_260:\n        /* \"#utility.yul\":4826:4848   */\n      tag_333\n        /* \"#utility.yul\":4842:4847   */\n      dup2\n        /* \"#utility.yul\":4826:4848   */\n      tag_253\n      jump\t// in\n    tag_333:\n        /* \"#utility.yul\":4821:4824   */\n      dup3\n        /* \"#utility.yul\":4814:4849   */\n      mstore\n        /* \"#utility.yul\":4753:4855   */\n      pop\n      pop\n      jump\t// out\n        /* \"#utility.yul\":4917:6400   */\n    tag_261:\n        /* \"#utility.yul\":5040:5043   */\n      0x00\n        /* \"#utility.yul\":5076:5080   */\n      0xc0\n        /* \"#utility.yul\":5071:5074   */\n      dup4\n        /* \"#utility.yul\":5067:5081   */\n      add\n        /* \"#utility.yul\":5163:5167   */\n      0x00\n        /* \"#utility.yul\":5156:5161   */\n      dup4\n        /* \"#utility.yul\":5152:5168   */\n      add\n        /* \"#utility.yul\":5146:5169   */\n      mload\n        /* \"#utility.yul\":5216:5219   */\n      dup5\n        /* \"#utility.yul\":5210:5214   */\n      dup3\n        /* \"#utility.yul\":5206:5220   */\n      sub\n        /* \"#utility.yul\":5199:5203   */\n      0x00\n        /* \"#utility.yul\":5194:5197   */\n      dup7\n        /* \"#utility.yul\":5190:5204   */\n      add\n        /* \"#utility.yul\":5183:5221   */\n      mstore\n        /* \"#utility.yul\":5242:5315   */\n      tag_335\n        /* \"#utility.yul\":5310:5314   */\n      dup3\n        /* \"#utility.yul\":5296:5308   */\n      dup3\n        /* \"#utility.yul\":5242:5315   */\n      tag_258\n      jump\t// in\n    tag_335:\n        /* \"#utility.yul\":5234:5315   */\n      swap2\n      pop\n        /* \"#utility.yul\":5091:5326   */\n      pop\n        /* \"#utility.yul\":5417:5421   */\n      0x20\n        /* \"#utility.yul\":5410:5415   */\n      dup4\n        /* \"#utility.yul\":5406:5422   */\n      add\n        /* \"#utility.yul\":5400:5423   */\n      mload\n        /* \"#utility.yul\":5470:5473   */\n      dup5\n        /* \"#utility.yul\":5464:5468   */\n      dup3\n        /* \"#utility.yul\":5460:5474   */\n      sub\n        /* \"#utility.yul\":5453:5457   */\n      0x20\n        /* \"#utility.yul\":5448:5451   */\n      dup7\n        /* \"#utility.yul\":5444:5458   */\n      add\n        /* \"#utility.yul\":5437:5475   */\n      mstore\n        /* \"#utility.yul\":5496:5569   */\n      tag_336\n        /* \"#utility.yul\":5564:5568   */\n      dup3\n        /* \"#utility.yul\":5550:5562   */\n      dup3\n        /* \"#utility.yul\":5496:5569   */\n      tag_258\n      jump\t// in\n    tag_336:\n        /* \"#utility.yul\":5488:5569   */\n      swap2\n      pop\n        /* \"#utility.yul\":5336:5580   */\n      pop\n        /* \"#utility.yul\":5667:5671   */\n      0x40\n        /* \"#utility.yul\":5660:5665   */\n      dup4\n        /* \"#utility.yul\":5656:5672   */\n      add\n        /* \"#utility.yul\":5650:5673   */\n      mload\n        /* \"#utility.yul\":5720:5723   */\n      dup5\n        /* \"#utility.yul\":5714:5718   */\n      dup3\n        /* \"#utility.yul\":5710:5724   */\n      sub\n        /* \"#utility.yul\":5703:5707   */\n      0x40\n        /* \"#utility.yul\":5698:5701   */\n      dup7\n        /* \"#utility.yul\":5694:5708   */\n      add\n        /* \"#utility.yul\":5687:5725   */\n      mstore\n        /* \"#utility.yul\":5746:5819   */\n      tag_337\n        /* \"#utility.yul\":5814:5818   */\n      dup3\n        /* \"#utility.yul\":5800:5812   */\n      dup3\n        /* \"#utility.yul\":5746:5819   */\n      tag_258\n      jump\t// in\n    tag_337:\n        /* \"#utility.yul\":5738:5819   */\n      swap2\n      pop\n        /* \"#utility.yul\":5590:5830   */\n      pop\n        /* \"#utility.yul\":5924:5928   */\n      0x60\n        /* \"#utility.yul\":5917:5922   */\n      dup4\n        /* \"#utility.yul\":5913:5929   */\n      add\n        /* \"#utility.yul\":5907:5930   */\n      mload\n        /* \"#utility.yul\":5943:6006   */\n      tag_338\n        /* \"#utility.yul\":6000:6004   */\n      0x60\n        /* \"#utility.yul\":5995:5998   */\n      dup7\n        /* \"#utility.yul\":5991:6005   */\n      add\n        /* \"#utility.yul\":5977:5989   */\n      dup3\n        /* \"#utility.yul\":5943:6006   */\n      tag_259\n      jump\t// in\n    tag_338:\n        /* \"#utility.yul\":5840:6016   */\n      pop\n        /* \"#utility.yul\":6103:6107   */\n      0x80\n        /* \"#utility.yul\":6096:6101   */\n      dup4\n        /* \"#utility.yul\":6092:6108   */\n      add\n        /* \"#utility.yul\":6086:6109   */\n      mload\n        /* \"#utility.yul\":6122:6181   */\n      tag_339\n        /* \"#utility.yul\":6175:6179   */\n      0x80\n        /* \"#utility.yul\":6170:6173   */\n      dup7\n        /* \"#utility.yul\":6166:6180   */\n      add\n        /* \"#utility.yul\":6152:6164   */\n      dup3\n        /* \"#utility.yul\":6122:6181   */\n      tag_260\n      jump\t// in\n    tag_339:\n        /* \"#utility.yul\":6026:6191   */\n      pop\n        /* \"#utility.yul\":6285:6289   */\n      0xa0\n        /* \"#utility.yul\":6278:6283   */\n      dup4\n        /* \"#utility.yul\":6274:6290   */\n      add\n        /* \"#utility.yul\":6268:6291   */\n      mload\n        /* \"#utility.yul\":6304:6363   */\n      tag_340\n        /* \"#utility.yul\":6357:6361   */\n      0xa0\n        /* \"#utility.yul\":6352:6355   */\n      dup7\n        /* \"#utility.yul\":6348:6362   */\n      add\n        /* \"#utility.yul\":6334:6346   */\n      dup3\n        /* \"#utility.yul\":6304:6363   */\n      tag_260\n      jump\t// in\n    tag_340:\n        /* \"#utility.yul\":6201:6373   */\n      pop\n        /* \"#utility.yul\":6390:6394   */\n      dup1\n        /* \"#utility.yul\":6383:6394   */\n      swap2\n      pop\n        /* \"#utility.yul\":5045:6400   */\n      pop\n        /* \"#utility.yul\":4917:6400   */\n      swap3\n      swap2\n      pop\n      pop\n      jump\t// out\n        /* \"#utility.yul\":6406:6885   */\n    tag_27:\n        /* \"#utility.yul\":6575:6579   */\n      0x00\n        /* \"#utility.yul\":6613:6615   */\n      0x40\n        /* \"#utility.yul\":6602:6611   */\n      dup3\n        /* \"#utility.yul\":6598:6616   */\n      add\n        /* \"#utility.yul\":6590:6616   */\n      swap1\n      pop\n        /* \"#utility.yul\":6626:6691   */\n      tag_342\n        /* \"#utility.yul\":6688:6689   */\n      0x00\n        /* \"#utility.yul\":6677:6686   */\n      dup4\n        /* \"#utility.yul\":6673:6690   */\n      add\n        /* \"#utility.yul\":6664:6670   */\n      dup6\n        /* \"#utility.yul\":6626:6691   */\n      tag_256\n      jump\t// in\n    tag_342:\n        /* \"#utility.yul\":6738:6747   */\n      dup2\n        /* \"#utility.yul\":6732:6736   */\n      dup2\n        /* \"#utility.yul\":6728:6748   */\n      sub\n        /* \"#utility.yul\":6723:6725   */\n      0x20\n        /* \"#utility.yul\":6712:6721   */\n      dup4\n        /* \"#utility.yul\":6708:6726   */\n      add\n        /* \"#utility.yul\":6701:6749   */\n      mstore\n        /* \"#utility.yul\":6766:6878   */\n      tag_343\n        /* \"#utility.yul\":6873:6877   */\n      dup2\n        /* \"#utility.yul\":6864:6870   */\n      dup5\n        /* \"#utility.yul\":6766:6878   */\n      tag_261\n      jump\t// in\n    tag_343:\n        /* \"#utility.yul\":6758:6878   */\n      swap1\n      pop\n        /* \"#utility.yul\":6406:6885   */\n      swap4\n      swap3\n      pop\n      pop\n      pop\n      jump\t// out\n        /* \"#utility.yul\":6891:7032   */\n    tag_262:\n        /* \"#utility.yul\":6985:6991   */\n      0x00\n        /* \"#utility.yul\":7019:7024   */\n      dup2\n        /* \"#utility.yul\":7013:7025   */\n      mload\n        /* \"#utility.yul\":7003:7025   */\n      swap1\n      pop\n        /* \"#utility.yul\":6891:7032   */\n      swap2\n      swap1\n      pop\n      jump\t// out\n        /* \"#utility.yul\":7038:7249   */\n    tag_263:\n        /* \"#utility.yul\":7164:7175   */\n      0x00\n        /* \"#utility.yul\":7198:7204   */\n      dup3\n        /* \"#utility.yul\":7193:7196   */\n      dup3\n        /* \"#utility.yul\":7186:7205   */\n      mstore\n        /* \"#utility.yul\":7238:7242   */\n      0x20\n        /* \"#utility.yul\":7233:7236   */\n      dup3\n        /* \"#utility.yul\":7229:7243   */\n      add\n        /* \"#utility.yul\":7214:7243   */\n      swap1\n      pop\n        /* \"#utility.yul\":7038:7249   */\n      swap3\n      swap2\n      pop\n      pop\n      jump\t// out\n        /* \"#utility.yul\":7255:7414   */\n    tag_264:\n        /* \"#utility.yul\":7349:7353   */\n      0x00\n        /* \"#utility.yul\":7372:7375   */\n      dup2\n        /* \"#utility.yul\":7364:7375   */\n      swap1\n      pop\n        /* \"#utility.yul\":7402:7406   */\n      0x20\n        /* \"#utility.yul\":7397:7400   */\n      dup3\n        /* \"#utility.yul\":7393:7407   */\n      add\n        /* \"#utility.yul\":7385:7407   */\n      swap1\n      pop\n        /* \"#utility.yul\":7255:7414   */\n      swap2\n      swap1\n      pop\n      jump\t// out\n        /* \"#utility.yul\":7476:8949   */\n    tag_265:\n        /* \"#utility.yul\":7589:7592   */\n      0x00\n        /* \"#utility.yul\":7625:7629   */\n      0xc0\n        /* \"#utility.yul\":7620:7623   */\n      dup4\n        /* \"#utility.yul\":7616:7630   */\n      add\n        /* \"#utility.yul\":7712:7716   */\n      0x00\n        /* \"#utility.yul\":7705:7710   */\n      dup4\n        /* \"#utility.yul\":7701:7717   */\n      add\n        /* \"#utility.yul\":7695:7718   */\n      mload\n        /* \"#utility.yul\":7765:7768   */\n      dup5\n        /* \"#utility.yul\":7759:7763   */\n      dup3\n        /* \"#utility.yul\":7755:7769   */\n      sub\n        /* \"#utility.yul\":7748:7752   */\n      0x00\n        /* \"#utility.yul\":7743:7746   */\n      dup7\n        /* \"#utility.yul\":7739:7753   */\n      add\n        /* \"#utility.yul\":7732:7770   */\n      mstore\n        /* \"#utility.yul\":7791:7864   */\n      tag_348\n        /* \"#utility.yul\":7859:7863   */\n      dup3\n        /* \"#utility.yul\":7845:7857   */\n      dup3\n        /* \"#utility.yul\":7791:7864   */\n      tag_258\n      jump\t// in\n    tag_348:\n        /* \"#utility.yul\":7783:7864   */\n      swap2\n      pop\n        /* \"#utility.yul\":7640:7875   */\n      pop\n        /* \"#utility.yul\":7966:7970   */\n      0x20\n        /* \"#utility.yul\":7959:7964   */\n      dup4\n        /* \"#utility.yul\":7955:7971   */\n      add\n        /* \"#utility.yul\":7949:7972   */\n      mload\n        /* \"#utility.yul\":8019:8022   */\n      dup5\n        /* \"#utility.yul\":8013:8017   */\n      dup3\n        /* \"#utility.yul\":8009:8023   */\n      sub\n        /* \"#utility.yul\":8002:8006   */\n      0x20\n        /* \"#utility.yul\":7997:8000   */\n      dup7\n        /* \"#utility.yul\":7993:8007   */\n      add\n        /* \"#utility.yul\":7986:8024   */\n      mstore\n        /* \"#utility.yul\":8045:8118   */\n      tag_349\n        /* \"#utility.yul\":8113:8117   */\n      dup3\n        /* \"#utility.yul\":8099:8111   */\n      dup3\n        /* \"#utility.yul\":8045:8118   */\n      tag_258\n      jump\t// in\n    tag_349:\n        /* \"#utility.yul\":8037:8118   */\n      swap2\n      pop\n        /* \"#utility.yul\":7885:8129   */\n      pop\n        /* \"#utility.yul\":8216:8220   */\n      0x40\n        /* \"#utility.yul\":8209:8214   */\n      dup4\n        /* \"#utility.yul\":8205:8221   */\n      add\n        /* \"#utility.yul\":8199:8222   */\n      mload\n        /* \"#utility.yul\":8269:8272   */\n      dup5\n        /* \"#utility.yul\":8263:8267   */\n      dup3\n        /* \"#utility.yul\":8259:8273   */\n      sub\n        /* \"#utility.yul\":8252:8256   */\n      0x40\n        /* \"#utility.yul\":8247:8250   */\n      dup7\n        /* \"#utility.yul\":8243:8257   */\n      add\n        /* \"#utility.yul\":8236:8274   */\n      mstore\n        /* \"#utility.yul\":8295:8368   */\n      tag_350\n        /* \"#utility.yul\":8363:8367   */\n      dup3\n        /* \"#utility.yul\":8349:8361   */\n      dup3\n        /* \"#utility.yul\":8295:8368   */\n      tag_258\n      jump\t// in\n    tag_350:\n        /* \"#utility.yul\":8287:8368   */\n      swap2\n      pop\n        /* \"#utility.yul\":8139:8379   */\n      pop\n        /* \"#utility.yul\":8473:8477   */\n      0x60\n        /* \"#utility.yul\":8466:8471   */\n      dup4\n        /* \"#utility.yul\":8462:8478   */\n      add\n        /* \"#utility.yul\":8456:8479   */\n      mload\n        /* \"#utility.yul\":8492:8555   */\n      tag_351\n        /* \"#utility.yul\":8549:8553   */\n      0x60\n        /* \"#utility.yul\":8544:8547   */\n      dup7\n        /* \"#utility.yul\":8540:8554   */\n      add\n        /* \"#utility.yul\":8526:8538   */\n      dup3\n        /* \"#utility.yul\":8492:8555   */\n      tag_259\n      jump\t// in\n    tag_351:\n        /* \"#utility.yul\":8389:8565   */\n      pop\n        /* \"#utility.yul\":8652:8656   */\n      0x80\n        /* \"#utility.yul\":8645:8650   */\n      dup4\n        /* \"#utility.yul\":8641:8657   */\n      add\n        /* \"#utility.yul\":8635:8658   */\n      mload\n        /* \"#utility.yul\":8671:8730   */\n      tag_352\n        /* \"#utility.yul\":8724:8728   */\n      0x80\n        /* \"#utility.yul\":8719:8722   */\n      dup7\n        /* \"#utility.yul\":8715:8729   */\n      add\n        /* \"#utility.yul\":8701:8713   */\n      dup3\n        /* \"#utility.yul\":8671:8730   */\n      tag_260\n      jump\t// in\n    tag_352:\n        /* \"#utility.yul\":8575:8740   */\n      pop\n        /* \"#utility.yul\":8834:8838   */\n      0xa0\n        /* \"#utility.yul\":8827:8832   */\n      dup4\n        /* \"#utility.yul\":8823:8839   */\n      add\n        /* \"#utility.yul\":8817:8840   */\n      mload\n        /* \"#utility.yul\":8853:8912   */\n      tag_353\n        /* \"#utility.yul\":8906:8910   */\n      0xa0\n        /* \"#utility.yul\":8901:8904   */\n      dup7\n        /* \"#utility.yul\":8897:8911   */\n      add\n        /* \"#utility.yul\":8883:8895   */\n      dup3\n        /* \"#utility.yul\":8853:8912   */\n      tag_260\n      jump\t// in\n    tag_353:\n        /* \"#utility.yul\":8750:8922   */\n      pop\n        /* \"#utility.yul\":8939:8943   */\n      dup1\n        /* \"#utility.yul\":8932:8943   */\n      swap2\n      pop\n        /* \"#utility.yul\":7594:8949   */\n      pop\n        /* \"#utility.yul\":7476:8949   */\n      swap3\n      swap2\n      pop\n      pop\n      jump\t// out\n        /* \"#utility.yul\":8955:9219   */\n    tag_266:\n        /* \"#utility.yul\":9078:9088   */\n      0x00\n        /* \"#utility.yul\":9113:9213   */\n      tag_355\n        /* \"#utility.yul\":9209:9212   */\n      dup4\n        /* \"#utility.yul\":9201:9207   */\n      dup4\n        /* \"#utility.yul\":9113:9213   */\n      tag_265\n      jump\t// in\n    tag_355:\n        /* \"#utility.yul\":9099:9213   */\n      swap1\n      pop\n        /* \"#utility.yul\":8955:9219   */\n      swap3\n      swap2\n      pop\n      pop\n      jump\t// out\n        /* \"#utility.yul\":9225:9365   */\n    tag_267:\n        /* \"#utility.yul\":9322:9326   */\n      0x00\n        /* \"#utility.yul\":9354:9358   */\n      0x20\n        /* \"#utility.yul\":9349:9352   */\n      dup3\n        /* \"#utility.yul\":9345:9359   */\n      add\n        /* \"#utility.yul\":9337:9359   */\n      swap1\n      pop\n        /* \"#utility.yul\":9225:9365   */\n      swap2\n      swap1\n      pop\n      jump\t// out\n        /* \"#utility.yul\":9431:10558   */\n    tag_268:\n        /* \"#utility.yul\":9604:9607   */\n      0x00\n        /* \"#utility.yul\":9633:9714   */\n      tag_358\n        /* \"#utility.yul\":9708:9713   */\n      dup3\n        /* \"#utility.yul\":9633:9714   */\n      tag_262\n      jump\t// in\n    tag_358:\n        /* \"#utility.yul\":9730:9843   */\n      tag_359\n        /* \"#utility.yul\":9836:9842   */\n      dup2\n        /* \"#utility.yul\":9831:9834   */\n      dup6\n        /* \"#utility.yul\":9730:9843   */\n      tag_263\n      jump\t// in\n    tag_359:\n        /* \"#utility.yul\":9723:9843   */\n      swap4\n      pop\n        /* \"#utility.yul\":9869:9872   */\n      dup4\n        /* \"#utility.yul\":9914:9918   */\n      0x20\n        /* \"#utility.yul\":9906:9912   */\n      dup3\n        /* \"#utility.yul\":9902:9919   */\n      mul\n        /* \"#utility.yul\":9897:9900   */\n      dup6\n        /* \"#utility.yul\":9893:9920   */\n      add\n        /* \"#utility.yul\":9944:10027   */\n      tag_360\n        /* \"#utility.yul\":10021:10026   */\n      dup6\n        /* \"#utility.yul\":9944:10027   */\n      tag_264\n      jump\t// in\n    tag_360:\n        /* \"#utility.yul\":10050:10057   */\n      dup1\n        /* \"#utility.yul\":10081:10082   */\n      0x00\n        /* \"#utility.yul\":10066:10513   */\n    tag_361:\n        /* \"#utility.yul\":10091:10097   */\n      dup6\n        /* \"#utility.yul\":10088:10089   */\n      dup2\n        /* \"#utility.yul\":10085:10098   */\n      lt\n        /* \"#utility.yul\":10066:10513   */\n      iszero\n      tag_363\n      jumpi\n        /* \"#utility.yul\":10162:10171   */\n      dup5\n        /* \"#utility.yul\":10156:10160   */\n      dup5\n        /* \"#utility.yul\":10152:10172   */\n      sub\n        /* \"#utility.yul\":10147:10150   */\n      dup10\n        /* \"#utility.yul\":10140:10173   */\n      mstore\n        /* \"#utility.yul\":10213:10219   */\n      dup2\n        /* \"#utility.yul\":10207:10220   */\n      mload\n        /* \"#utility.yul\":10241:10359   */\n      tag_364\n        /* \"#utility.yul\":10354:10358   */\n      dup6\n        /* \"#utility.yul\":10339:10352   */\n      dup3\n        /* \"#utility.yul\":10241:10359   */\n      tag_266\n      jump\t// in\n    tag_364:\n        /* \"#utility.yul\":10233:10359   */\n      swap5\n      pop\n        /* \"#utility.yul\":10382:10469   */\n      tag_365\n        /* \"#utility.yul\":10462:10468   */\n      dup4\n        /* \"#utility.yul\":10382:10469   */\n      tag_267\n      jump\t// in\n    tag_365:\n        /* \"#utility.yul\":10372:10469   */\n      swap3\n      pop\n        /* \"#utility.yul\":10498:10502   */\n      0x20\n        /* \"#utility.yul\":10493:10496   */\n      dup11\n        /* \"#utility.yul\":10489:10503   */\n      add\n        /* \"#utility.yul\":10482:10503   */\n      swap10\n      pop\n        /* \"#utility.yul\":10126:10513   */\n      pop\n        /* \"#utility.yul\":10113:10114   */\n      0x01\n        /* \"#utility.yul\":10110:10111   */\n      dup2\n        /* \"#utility.yul\":10106:10115   */\n      add\n        /* \"#utility.yul\":10101:10115   */\n      swap1\n      pop\n        /* \"#utility.yul\":10066:10513   */\n      jump(tag_361)\n    tag_363:\n        /* \"#utility.yul\":10070:10084   */\n      pop\n        /* \"#utility.yul\":10529:10533   */\n      dup3\n        /* \"#utility.yul\":10522:10533   */\n      swap8\n      pop\n        /* \"#utility.yul\":10549:10552   */\n      dup8\n        /* \"#utility.yul\":10542:10552   */\n      swap6\n      pop\n        /* \"#utility.yul\":9609:10558   */\n      pop\n      pop\n      pop\n      pop\n      pop\n        /* \"#utility.yul\":9431:10558   */\n      swap3\n      swap2\n      pop\n      pop\n      jump\t// out\n        /* \"#utility.yul\":10564:11045   */\n    tag_32:\n        /* \"#utility.yul\":10761:10765   */\n      0x00\n        /* \"#utility.yul\":10799:10801   */\n      0x20\n        /* \"#utility.yul\":10788:10797   */\n      dup3\n        /* \"#utility.yul\":10784:10802   */\n      add\n        /* \"#utility.yul\":10776:10802   */\n      swap1\n      pop\n        /* \"#utility.yul\":10848:10857   */\n      dup2\n        /* \"#utility.yul\":10842:10846   */\n      dup2\n        /* \"#utility.yul\":10838:10858   */\n      sub\n        /* \"#utility.yul\":10834:10835   */\n      0x00\n        /* \"#utility.yul\":10823:10832   */\n      dup4\n        /* \"#utility.yul\":10819:10836   */\n      add\n        /* \"#utility.yul\":10812:10859   */\n      mstore\n        /* \"#utility.yul\":10876:11038   */\n      tag_367\n        /* \"#utility.yul\":11033:11037   */\n      dup2\n        /* \"#utility.yul\":11024:11030   */\n      dup5\n        /* \"#utility.yul\":10876:11038   */\n      tag_268\n      jump\t// in\n    tag_367:\n        /* \"#utility.yul\":10868:11038   */\n      swap1\n      pop\n        /* \"#utility.yul\":10564:11045   */\n      swap3\n      swap2\n      pop\n      pop\n      jump\t// out\n        /* \"#utility.yul\":11051:11190   */\n    tag_269:\n        /* \"#utility.yul\":11143:11149   */\n      0x00\n        /* \"#utility.yul\":11177:11182   */\n      dup2\n        /* \"#utility.yul\":11171:11183   */\n      mload\n        /* \"#utility.yul\":11161:11183   */\n      swap1\n      pop\n        /* \"#utility.yul\":11051:11190   */\n      swap2\n      swap1\n      pop\n      jump\t// out\n        /* \"#utility.yul\":11196:11405   */\n    tag_270:\n        /* \"#utility.yul\":11320:11331   */\n      0x00\n        /* \"#utility.yul\":11354:11360   */\n      dup3\n        /* \"#utility.yul\":11349:11352   */\n      dup3\n        /* \"#utility.yul\":11342:11361   */\n      mstore\n        /* \"#utility.yul\":11394:11398   */\n      0x20\n        /* \"#utility.yul\":11389:11392   */\n      dup3\n        /* \"#utility.yul\":11385:11399   */\n      add\n        /* \"#utility.yul\":11370:11399   */\n      swap1\n      pop\n        /* \"#utility.yul\":11196:11405   */\n      swap3\n      swap2\n      pop\n      pop\n      jump\t// out\n        /* \"#utility.yul\":11411:11568   */\n    tag_271:\n        /* \"#utility.yul\":11503:11507   */\n      0x00\n        /* \"#utility.yul\":11526:11529   */\n      dup2\n        /* \"#utility.yul\":11518:11529   */\n      swap1\n      pop\n        /* \"#utility.yul\":11556:11560   */\n      0x20\n        /* \"#utility.yul\":11551:11554   */\n      dup3\n        /* \"#utility.yul\":11547:11561   */\n      add\n        /* \"#utility.yul\":11539:11561   */\n      swap1\n      pop\n        /* \"#utility.yul\":11411:11568   */\n      swap2\n      swap1\n      pop\n      jump\t// out\n        /* \"#utility.yul\":11626:13274   */\n    tag_272:\n        /* \"#utility.yul\":11735:11738   */\n      0x00\n        /* \"#utility.yul\":11771:11775   */\n      0xe0\n        /* \"#utility.yul\":11766:11769   */\n      dup4\n        /* \"#utility.yul\":11762:11776   */\n      add\n        /* \"#utility.yul\":11858:11862   */\n      0x00\n        /* \"#utility.yul\":11851:11856   */\n      dup4\n        /* \"#utility.yul\":11847:11863   */\n      add\n        /* \"#utility.yul\":11841:11864   */\n      mload\n        /* \"#utility.yul\":11911:11914   */\n      dup5\n        /* \"#utility.yul\":11905:11909   */\n      dup3\n        /* \"#utility.yul\":11901:11915   */\n      sub\n        /* \"#utility.yul\":11894:11898   */\n      0x00\n        /* \"#utility.yul\":11889:11892   */\n      dup7\n        /* \"#utility.yul\":11885:11899   */\n      add\n        /* \"#utility.yul\":11878:11916   */\n      mstore\n        /* \"#utility.yul\":11937:12010   */\n      tag_372\n        /* \"#utility.yul\":12005:12009   */\n      dup3\n        /* \"#utility.yul\":11991:12003   */\n      dup3\n        /* \"#utility.yul\":11937:12010   */\n      tag_258\n      jump\t// in\n    tag_372:\n        /* \"#utility.yul\":11929:12010   */\n      swap2\n      pop\n        /* \"#utility.yul\":11786:12021   */\n      pop\n        /* \"#utility.yul\":12112:12116   */\n      0x20\n        /* \"#utility.yul\":12105:12110   */\n      dup4\n        /* \"#utility.yul\":12101:12117   */\n      add\n        /* \"#utility.yul\":12095:12118   */\n      mload\n        /* \"#utility.yul\":12165:12168   */\n      dup5\n        /* \"#utility.yul\":12159:12163   */\n      dup3\n        /* \"#utility.yul\":12155:12169   */\n      sub\n        /* \"#utility.yul\":12148:12152   */\n      0x20\n        /* \"#utility.yul\":12143:12146   */\n      dup7\n        /* \"#utility.yul\":12139:12153   */\n      add\n        /* \"#utility.yul\":12132:12170   */\n      mstore\n        /* \"#utility.yul\":12191:12264   */\n      tag_373\n        /* \"#utility.yul\":12259:12263   */\n      dup3\n        /* \"#utility.yul\":12245:12257   */\n      dup3\n        /* \"#utility.yul\":12191:12264   */\n      tag_258\n      jump\t// in\n    tag_373:\n        /* \"#utility.yul\":12183:12264   */\n      swap2\n      pop\n        /* \"#utility.yul\":12031:12275   */\n      pop\n        /* \"#utility.yul\":12362:12366   */\n      0x40\n        /* \"#utility.yul\":12355:12360   */\n      dup4\n        /* \"#utility.yul\":12351:12367   */\n      add\n        /* \"#utility.yul\":12345:12368   */\n      mload\n        /* \"#utility.yul\":12415:12418   */\n      dup5\n        /* \"#utility.yul\":12409:12413   */\n      dup3\n        /* \"#utility.yul\":12405:12419   */\n      sub\n        /* \"#utility.yul\":12398:12402   */\n      0x40\n        /* \"#utility.yul\":12393:12396   */\n      dup7\n        /* \"#utility.yul\":12389:12403   */\n      add\n        /* \"#utility.yul\":12382:12420   */\n      mstore\n        /* \"#utility.yul\":12441:12514   */\n      tag_374\n        /* \"#utility.yul\":12509:12513   */\n      dup3\n        /* \"#utility.yul\":12495:12507   */\n      dup3\n        /* \"#utility.yul\":12441:12514   */\n      tag_258\n      jump\t// in\n    tag_374:\n        /* \"#utility.yul\":12433:12514   */\n      swap2\n      pop\n        /* \"#utility.yul\":12285:12525   */\n      pop\n        /* \"#utility.yul\":12612:12616   */\n      0x60\n        /* \"#utility.yul\":12605:12610   */\n      dup4\n        /* \"#utility.yul\":12601:12617   */\n      add\n        /* \"#utility.yul\":12595:12618   */\n      mload\n        /* \"#utility.yul\":12631:12694   */\n      tag_375\n        /* \"#utility.yul\":12688:12692   */\n      0x60\n        /* \"#utility.yul\":12683:12686   */\n      dup7\n        /* \"#utility.yul\":12679:12693   */\n      add\n        /* \"#utility.yul\":12665:12677   */\n      dup3\n        /* \"#utility.yul\":12631:12694   */\n      tag_259\n      jump\t// in\n    tag_375:\n        /* \"#utility.yul\":12535:12704   */\n      pop\n        /* \"#utility.yul\":12798:12802   */\n      0x80\n        /* \"#utility.yul\":12791:12796   */\n      dup4\n        /* \"#utility.yul\":12787:12803   */\n      add\n        /* \"#utility.yul\":12781:12804   */\n      mload\n        /* \"#utility.yul\":12817:12880   */\n      tag_376\n        /* \"#utility.yul\":12874:12878   */\n      0x80\n        /* \"#utility.yul\":12869:12872   */\n      dup7\n        /* \"#utility.yul\":12865:12879   */\n      add\n        /* \"#utility.yul\":12851:12863   */\n      dup3\n        /* \"#utility.yul\":12817:12880   */\n      tag_259\n      jump\t// in\n    tag_376:\n        /* \"#utility.yul\":12714:12890   */\n      pop\n        /* \"#utility.yul\":12977:12981   */\n      0xa0\n        /* \"#utility.yul\":12970:12975   */\n      dup4\n        /* \"#utility.yul\":12966:12982   */\n      add\n        /* \"#utility.yul\":12960:12983   */\n      mload\n        /* \"#utility.yul\":12996:13055   */\n      tag_377\n        /* \"#utility.yul\":13049:13053   */\n      0xa0\n        /* \"#utility.yul\":13044:13047   */\n      dup7\n        /* \"#utility.yul\":13040:13054   */\n      add\n        /* \"#utility.yul\":13026:13038   */\n      dup3\n        /* \"#utility.yul\":12996:13055   */\n      tag_260\n      jump\t// in\n    tag_377:\n        /* \"#utility.yul\":12900:13065   */\n      pop\n        /* \"#utility.yul\":13159:13163   */\n      0xc0\n        /* \"#utility.yul\":13152:13157   */\n      dup4\n        /* \"#utility.yul\":13148:13164   */\n      add\n        /* \"#utility.yul\":13142:13165   */\n      mload\n        /* \"#utility.yul\":13178:13237   */\n      tag_378\n        /* \"#utility.yul\":13231:13235   */\n      0xc0\n        /* \"#utility.yul\":13226:13229   */\n      dup7\n        /* \"#utility.yul\":13222:13236   */\n      add\n        /* \"#utility.yul\":13208:13220   */\n      dup3\n        /* \"#utility.yul\":13178:13237   */\n      tag_260\n      jump\t// in\n    tag_378:\n        /* \"#utility.yul\":13075:13247   */\n      pop\n        /* \"#utility.yul\":13264:13268   */\n      dup1\n        /* \"#utility.yul\":13257:13268   */\n      swap2\n      pop\n        /* \"#utility.yul\":11740:13274   */\n      pop\n        /* \"#utility.yul\":11626:13274   */\n      swap3\n      swap2\n      pop\n      pop\n      jump\t// out\n        /* \"#utility.yul\":13280:13536   */\n    tag_273:\n        /* \"#utility.yul\":13399:13409   */\n      0x00\n        /* \"#utility.yul\":13434:13530   */\n      tag_380\n        /* \"#utility.yul\":13526:13529   */\n      dup4\n        /* \"#utility.yul\":13518:13524   */\n      dup4\n        /* \"#utility.yul\":13434:13530   */\n      tag_272\n      jump\t// in\n    tag_380:\n        /* \"#utility.yul\":13420:13530   */\n      swap1\n      pop\n        /* \"#utility.yul\":13280:13536   */\n      swap3\n      swap2\n      pop\n      pop\n      jump\t// out\n        /* \"#utility.yul\":13542:13680   */\n    tag_274:\n        /* \"#utility.yul\":13637:13641   */\n      0x00\n        /* \"#utility.yul\":13669:13673   */\n      0x20\n        /* \"#utility.yul\":13664:13667   */\n      dup3\n        /* \"#utility.yul\":13660:13674   */\n      add\n        /* \"#utility.yul\":13652:13674   */\n      swap1\n      pop\n        /* \"#utility.yul\":13542:13680   */\n      swap2\n      swap1\n      pop\n      jump\t// out\n        /* \"#utility.yul\":13742:14853   */\n    tag_275:\n        /* \"#utility.yul\":13911:13914   */\n      0x00\n        /* \"#utility.yul\":13940:14019   */\n      tag_383\n        /* \"#utility.yul\":14013:14018   */\n      dup3\n        /* \"#utility.yul\":13940:14019   */\n      tag_269\n      jump\t// in\n    tag_383:\n        /* \"#utility.yul\":14035:14146   */\n      tag_384\n        /* \"#utility.yul\":14139:14145   */\n      dup2\n        /* \"#utility.yul\":14134:14137   */\n      dup6\n        /* \"#utility.yul\":14035:14146   */\n      tag_270\n      jump\t// in\n    tag_384:\n        /* \"#utility.yul\":14028:14146   */\n      swap4\n      pop\n        /* \"#utility.yul\":14172:14175   */\n      dup4\n        /* \"#utility.yul\":14217:14221   */\n      0x20\n        /* \"#utility.yul\":14209:14215   */\n      dup3\n        /* \"#utility.yul\":14205:14222   */\n      mul\n        /* \"#utility.yul\":14200:14203   */\n      dup6\n        /* \"#utility.yul\":14196:14223   */\n      add\n        /* \"#utility.yul\":14247:14328   */\n      tag_385\n        /* \"#utility.yul\":14322:14327   */\n      dup6\n        /* \"#utility.yul\":14247:14328   */\n      tag_271\n      jump\t// in\n    tag_385:\n        /* \"#utility.yul\":14351:14358   */\n      dup1\n        /* \"#utility.yul\":14382:14383   */\n      0x00\n        /* \"#utility.yul\":14367:14808   */\n    tag_386:\n        /* \"#utility.yul\":14392:14398   */\n      dup6\n        /* \"#utility.yul\":14389:14390   */\n      dup2\n        /* \"#utility.yul\":14386:14399   */\n      lt\n        /* \"#utility.yul\":14367:14808   */\n      iszero\n      tag_388\n      jumpi\n        /* \"#utility.yul\":14463:14472   */\n      dup5\n        /* \"#utility.yul\":14457:14461   */\n      dup5\n        /* \"#utility.yul\":14453:14473   */\n      sub\n        /* \"#utility.yul\":14448:14451   */\n      dup10\n        /* \"#utility.yul\":14441:14474   */\n      mstore\n        /* \"#utility.yul\":14514:14520   */\n      dup2\n        /* \"#utility.yul\":14508:14521   */\n      mload\n        /* \"#utility.yul\":14542:14656   */\n      tag_389\n        /* \"#utility.yul\":14651:14655   */\n      dup6\n        /* \"#utility.yul\":14636:14649   */\n      dup3\n        /* \"#utility.yul\":14542:14656   */\n      tag_273\n      jump\t// in\n    tag_389:\n        /* \"#utility.yul\":14534:14656   */\n      swap5\n      pop\n        /* \"#utility.yul\":14679:14764   */\n      tag_390\n        /* \"#utility.yul\":14757:14763   */\n      dup4\n        /* \"#utility.yul\":14679:14764   */\n      tag_274\n      jump\t// in\n    tag_390:\n        /* \"#utility.yul\":14669:14764   */\n      swap3\n      pop\n        /* \"#utility.yul\":14793:14797   */\n      0x20\n        /* \"#utility.yul\":14788:14791   */\n      dup11\n        /* \"#utility.yul\":14784:14798   */\n      add\n        /* \"#utility.yul\":14777:14798   */\n      swap10\n      pop\n        /* \"#utility.yul\":14427:14808   */\n      pop\n        /* \"#utility.yul\":14414:14415   */\n      0x01\n        /* \"#utility.yul\":14411:14412   */\n      dup2\n        /* \"#utility.yul\":14407:14416   */\n      add\n        /* \"#utility.yul\":14402:14416   */\n      swap1\n      pop\n        /* \"#utility.yul\":14367:14808   */\n      jump(tag_386)\n    tag_388:\n        /* \"#utility.yul\":14371:14385   */\n      pop\n        /* \"#utility.yul\":14824:14828   */\n      dup3\n        /* \"#utility.yul\":14817:14828   */\n      swap8\n      pop\n        /* \"#utility.yul\":14844:14847   */\n      dup8\n        /* \"#utility.yul\":14837:14847   */\n      swap6\n      pop\n        /* \"#utility.yul\":13916:14853   */\n      pop\n      pop\n      pop\n      pop\n      pop\n        /* \"#utility.yul\":13742:14853   */\n      swap3\n      swap2\n      pop\n      pop\n      jump\t// out\n        /* \"#utility.yul\":14859:15332   */\n    tag_37:\n        /* \"#utility.yul\":15052:15056   */\n      0x00\n        /* \"#utility.yul\":15090:15092   */\n      0x20\n        /* \"#utility.yul\":15079:15088   */\n      dup3\n        /* \"#utility.yul\":15075:15093   */\n      add\n        /* \"#utility.yul\":15067:15093   */\n      swap1\n      pop\n        /* \"#utility.yul\":15139:15148   */\n      dup2\n        /* \"#utility.yul\":15133:15137   */\n      dup2\n        /* \"#utility.yul\":15129:15149   */\n      sub\n        /* \"#utility.yul\":15125:15126   */\n      0x00\n        /* \"#utility.yul\":15114:15123   */\n      dup4\n        /* \"#utility.yul\":15110:15127   */\n      add\n        /* \"#utility.yul\":15103:15150   */\n      mstore\n        /* \"#utility.yul\":15167:15325   */\n      tag_392\n        /* \"#utility.yul\":15320:15324   */\n      dup2\n        /* \"#utility.yul\":15311:15317   */\n      dup5\n        /* \"#utility.yul\":15167:15325   */\n      tag_275\n      jump\t// in\n    tag_392:\n        /* \"#utility.yul\":15159:15325   */\n      swap1\n      pop\n        /* \"#utility.yul\":14859:15332   */\n      swap3\n      swap2\n      pop\n      pop\n      jump\t// out\n        /* \"#utility.yul\":15338:15957   */\n    tag_40:\n        /* \"#utility.yul\":15415:15421   */\n      0x00\n        /* \"#utility.yul\":15423:15429   */\n      dup1\n        /* \"#utility.yul\":15431:15437   */\n      0x00\n        /* \"#utility.yul\":15480:15482   */\n      0x60\n        /* \"#utility.yul\":15468:15477   */\n      dup5\n        /* \"#utility.yul\":15459:15466   */\n      dup7\n        /* \"#utility.yul\":15455:15478   */\n      sub\n        /* \"#utility.yul\":15451:15483   */\n      slt\n        /* \"#utility.yul\":15448:15567   */\n      iszero\n      tag_394\n      jumpi\n        /* \"#utility.yul\":15486:15565   */\n      tag_395\n      tag_242\n      jump\t// in\n    tag_395:\n        /* \"#utility.yul\":15448:15567   */\n    tag_394:\n        /* \"#utility.yul\":15606:15607   */\n      0x00\n        /* \"#utility.yul\":15631:15684   */\n      tag_396\n        /* \"#utility.yul\":15676:15683   */\n      dup7\n        /* \"#utility.yul\":15667:15673   */\n      dup3\n        /* \"#utility.yul\":15656:15665   */\n      dup8\n        /* \"#utility.yul\":15652:15674   */\n      add\n        /* \"#utility.yul\":15631:15684   */\n      tag_246\n      jump\t// in\n    tag_396:\n        /* \"#utility.yul\":15621:15684   */\n      swap4\n      pop\n        /* \"#utility.yul\":15577:15694   */\n      pop\n        /* \"#utility.yul\":15733:15735   */\n      0x20\n        /* \"#utility.yul\":15759:15812   */\n      tag_397\n        /* \"#utility.yul\":15804:15811   */\n      dup7\n        /* \"#utility.yul\":15795:15801   */\n      dup3\n        /* \"#utility.yul\":15784:15793   */\n      dup8\n        /* \"#utility.yul\":15780:15802   */\n      add\n        /* \"#utility.yul\":15759:15812   */\n      tag_246\n      jump\t// in\n    tag_397:\n        /* \"#utility.yul\":15749:15812   */\n      swap3\n      pop\n        /* \"#utility.yul\":15704:15822   */\n      pop\n        /* \"#utility.yul\":15861:15863   */\n      0x40\n        /* \"#utility.yul\":15887:15940   */\n      tag_398\n        /* \"#utility.yul\":15932:15939   */\n      dup7\n        /* \"#utility.yul\":15923:15929   */\n      dup3\n        /* \"#utility.yul\":15912:15921   */\n      dup8\n        /* \"#utility.yul\":15908:15930   */\n      add\n        /* \"#utility.yul\":15887:15940   */\n      tag_246\n      jump\t// in\n    tag_398:\n        /* \"#utility.yul\":15877:15940   */\n      swap2\n      pop\n        /* \"#utility.yul\":15832:15950   */\n      pop\n        /* \"#utility.yul\":15338:15957   */\n      swap3\n      pop\n      swap3\n      pop\n      swap3\n      jump\t// out\n        /* \"#utility.yul\":15963:16185   */\n    tag_45:\n        /* \"#utility.yul\":16056:16060   */\n      0x00\n        /* \"#utility.yul\":16094:16096   */\n      0x20\n        /* \"#utility.yul\":16083:16092   */\n      dup3\n        /* \"#utility.yul\":16079:16097   */\n      add\n        /* \"#utility.yul\":16071:16097   */\n      swap1\n      pop\n        /* \"#utility.yul\":16107:16178   */\n      tag_400\n        /* \"#utility.yul\":16175:16176   */\n      0x00\n        /* \"#utility.yul\":16164:16173   */\n      dup4\n        /* \"#utility.yul\":16160:16177   */\n      add\n        /* \"#utility.yul\":16151:16157   */\n      dup5\n        /* \"#utility.yul\":16107:16178   */\n      tag_252\n      jump\t// in\n    tag_400:\n        /* \"#utility.yul\":15963:16185   */\n      swap3\n      swap2\n      pop\n      pop\n      jump\t// out\n        /* \"#utility.yul\":16191:16401   */\n    tag_53:\n        /* \"#utility.yul\":16278:16282   */\n      0x00\n        /* \"#utility.yul\":16316:16318   */\n      0x20\n        /* \"#utility.yul\":16305:16314   */\n      dup3\n        /* \"#utility.yul\":16301:16319   */\n      add\n        /* \"#utility.yul\":16293:16319   */\n      swap1\n      pop\n        /* \"#utility.yul\":16329:16394   */\n      tag_402\n        /* \"#utility.yul\":16391:16392   */\n      0x00\n        /* \"#utility.yul\":16380:16389   */\n      dup4\n        /* \"#utility.yul\":16376:16393   */\n      add\n        /* \"#utility.yul\":16367:16373   */\n      dup5\n        /* \"#utility.yul\":16329:16394   */\n      tag_256\n      jump\t// in\n    tag_402:\n        /* \"#utility.yul\":16191:16401   */\n      swap3\n      swap2\n      pop\n      pop\n      jump\t// out\n        /* \"#utility.yul\":16407:16587   */\n    tag_276:\n        /* \"#utility.yul\":16455:16532   */\n      0x4e487b7100000000000000000000000000000000000000000000000000000000\n        /* \"#utility.yul\":16452:16453   */\n      0x00\n        /* \"#utility.yul\":16445:16533   */\n      mstore\n        /* \"#utility.yul\":16552:16556   */\n      0x22\n        /* \"#utility.yul\":16549:16550   */\n      0x04\n        /* \"#utility.yul\":16542:16557   */\n      mstore\n        /* \"#utility.yul\":16576:16580   */\n      0x24\n        /* \"#utility.yul\":16573:16574   */\n      0x00\n        /* \"#utility.yul\":16566:16581   */\n      revert\n        /* \"#utility.yul\":16593:16913   */\n    tag_57:\n        /* \"#utility.yul\":16637:16643   */\n      0x00\n        /* \"#utility.yul\":16674:16675   */\n      0x02\n        /* \"#utility.yul\":16668:16672   */\n      dup3\n        /* \"#utility.yul\":16664:16676   */\n      div\n        /* \"#utility.yul\":16654:16676   */\n      swap1\n      pop\n        /* \"#utility.yul\":16721:16722   */\n      0x01\n        /* \"#utility.yul\":16715:16719   */\n      dup3\n        /* \"#utility.yul\":16711:16723   */\n      and\n        /* \"#utility.yul\":16742:16760   */\n      dup1\n        /* \"#utility.yul\":16732:16813   */\n      tag_405\n      jumpi\n        /* \"#utility.yul\":16798:16802   */\n      0x7f\n        /* \"#utility.yul\":16790:16796   */\n      dup3\n        /* \"#utility.yul\":16786:16803   */\n      and\n        /* \"#utility.yul\":16776:16803   */\n      swap2\n      pop\n        /* \"#utility.yul\":16732:16813   */\n    tag_405:\n        /* \"#utility.yul\":16860:16862   */\n      0x20\n        /* \"#utility.yul\":16852:16858   */\n      dup3\n        /* \"#utility.yul\":16849:16863   */\n      lt\n        /* \"#utility.yul\":16829:16847   */\n      dup2\n        /* \"#utility.yul\":16826:16864   */\n      sub\n        /* \"#utility.yul\":16823:16907   */\n      tag_406\n      jumpi\n        /* \"#utility.yul\":16879:16897   */\n      tag_407\n      tag_276\n      jump\t// in\n    tag_407:\n        /* \"#utility.yul\":16823:16907   */\n    tag_406:\n        /* \"#utility.yul\":16644:16913   */\n      pop\n        /* \"#utility.yul\":16593:16913   */\n      swap2\n      swap1\n      pop\n      jump\t// out\n        /* \"#utility.yul\":16919:17099   */\n    tag_102:\n        /* \"#utility.yul\":16967:17044   */\n      0x4e487b7100000000000000000000000000000000000000000000000000000000\n        /* \"#utility.yul\":16964:16965   */\n      0x00\n        /* \"#utility.yul\":16957:17045   */\n      mstore\n        /* \"#utility.yul\":17064:17068   */\n      0x32\n        /* \"#utility.yul\":17061:17062   */\n      0x04\n        /* \"#utility.yul\":17054:17069   */\n      mstore\n        /* \"#utility.yul\":17088:17092   */\n      0x24\n        /* \"#utility.yul\":17085:17086   */\n      0x00\n        /* \"#utility.yul\":17078:17093   */\n      revert\n        /* \"#utility.yul\":17105:17285   */\n    tag_277:\n        /* \"#utility.yul\":17153:17230   */\n      0x4e487b7100000000000000000000000000000000000000000000000000000000\n        /* \"#utility.yul\":17150:17151   */\n      0x00\n        /* \"#utility.yul\":17143:17231   */\n      mstore\n        /* \"#utility.yul\":17250:17254   */\n      0x11\n        /* \"#utility.yul\":17247:17248   */\n      0x04\n        /* \"#utility.yul\":17240:17255   */\n      mstore\n        /* \"#utility.yul\":17274:17278   */\n      0x24\n        /* \"#utility.yul\":17271:17272   */\n      0x00\n        /* \"#utility.yul\":17264:17279   */\n      revert\n        /* \"#utility.yul\":17291:17524   */\n    tag_110:\n        /* \"#utility.yul\":17330:17333   */\n      0x00\n        /* \"#utility.yul\":17353:17377   */\n      tag_411\n        /* \"#utility.yul\":17371:17376   */\n      dup3\n        /* \"#utility.yul\":17353:17377   */\n      tag_244\n      jump\t// in\n    tag_411:\n        /* \"#utility.yul\":17344:17377   */\n      swap2\n      pop\n        /* \"#utility.yul\":17399:17465   */\n      0xffffffffffffffffffffffffffffffffffffffffffffffffffffffffffffffff\n        /* \"#utility.yul\":17392:17397   */\n      dup3\n        /* \"#utility.yul\":17389:17466   */\n      sub\n        /* \"#utility.yul\":17386:17489   */\n      tag_412\n      jumpi\n        /* \"#utility.yul\":17469:17487   */\n      tag_413\n      tag_277\n      jump\t// in\n    tag_413:\n        /* \"#utility.yul\":17386:17489   */\n    tag_412:\n        /* \"#utility.yul\":17516:17517   */\n      0x01\n        /* \"#utility.yul\":17509:17514   */\n      dup3\n        /* \"#utility.yul\":17505:17518   */\n      add\n        /* \"#utility.yul\":17498:17518   */\n      swap1\n      pop\n        /* \"#utility.yul\":17291:17524   */\n      swap2\n      swap1\n      pop\n      jump\t// out\n        /* \"#utility.yul\":17530:17710   */\n    tag_114:\n        /* \"#utility.yul\":17578:17655   */\n      0x4e487b7100000000000000000000000000000000000000000000000000000000\n        /* \"#utility.yul\":17575:17576   */\n      0x00\n        /* \"#utility.yul\":17568:17656   */\n      mstore\n        /* \"#utility.yul\":17675:17679   */\n      0x41\n        /* \"#utility.yul\":17672:17673   */\n      0x04\n        /* \"#utility.yul\":17665:17680   */\n      mstore\n        /* \"#utility.yul\":17699:17703   */\n      0x24\n        /* \"#utility.yul\":17696:17697   */\n      0x00\n        /* \"#utility.yul\":17689:17704   */\n      revert\n        /* \"#utility.yul\":17716:17907   */\n    tag_232:\n        /* \"#utility.yul\":17756:17759   */\n      0x00\n        /* \"#utility.yul\":17775:17795   */\n      tag_416\n        /* \"#utility.yul\":17793:17794   */\n      dup3\n        /* \"#utility.yul\":17775:17795   */\n      tag_244\n      jump\t// in\n    tag_416:\n        /* \"#utility.yul\":17770:17795   */\n      swap2\n      pop\n        /* \"#utility.yul\":17809:17829   */\n      tag_417\n        /* \"#utility.yul\":17827:17828   */\n      dup4\n        /* \"#utility.yul\":17809:17829   */\n      tag_244\n      jump\t// in\n    tag_417:\n        /* \"#utility.yul\":17804:17829   */\n      swap3\n      pop\n        /* \"#utility.yul\":17852:17853   */\n      dup3\n        /* \"#utility.yul\":17849:17850   */\n      dup3\n        /* \"#utility.yul\":17845:17854   */\n      add\n        /* \"#utility.yul\":17838:17854   */\n      swap1\n      pop\n        /* \"#utility.yul\":17873:17876   */\n      dup1\n        /* \"#utility.yul\":17870:17871   */\n      dup3\n        /* \"#utility.yul\":17867:17877   */\n      gt\n        /* \"#utility.yul\":17864:17900   */\n      iszero\n      tag_418\n      jumpi\n        /* \"#utility.yul\":17880:17898   */\n      tag_419\n      tag_277\n      jump\t// in\n    tag_419:\n        /* \"#utility.yul\":17864:17900   */\n    tag_418:\n        /* \"#utility.yul\":17716:17907   */\n      swap3\n      swap2\n      pop\n      pop\n      jump\t// out\n\n    auxdata: 0xa2646970667358221220864ce39920785aed5fe40dd6ec6104b83bef6a7f005fb3b26302c9e8e8398fac64736f6c63430008140033\n}\n",
				"bytecode": {
					"linkReferences": {},
					"object": "608060405234801562000010575f80fd5b50604051620048b9380380620048b9833981810160405281019062000036919062002623565b62000046620000ac60201b60201c565b6200005662000f1e60201b60201c565b81600581905550806006819055503360045f6101000a81548173ffffffffffffffffffffffffffffffffffffffff021916908373ffffffffffffffffffffffffffffffffffffffff160217905550505062002a4d565b5f600e67ffffffffffffffff811115620000cb57620000ca62002668565b5b6040519080825280602002602001820160405280156200010857816020015b620000f4620025ae565b815260200190600190039081620000ea5790505b5090506040518060c001604052806040518060400160405280601281526020017f4368616e6472612042616275204e61696475000000000000000000000000000081525081526020016040518060400160405280600381526020017f544450000000000000000000000000000000000000000000000000000000000081525081526020016040518060800160405280604c81526020016200486d604c9139815260200164a96106e5a68152602001600a60ff168152602001600160ff16815250815f81518110620001de57620001dd62002695565b5b60200260200101819052506040518060c001604052806040518060400160405280601181526020017f4a6167616e204d6f68616e20526564647900000000000000000000000000000081525081526020016040518060400160405280600581526020017f595352435000000000000000000000000000000000000000000000000000000081525081526020016040518060800160405280604e8152602001620046d6604e9139815260200164c27e5da76e8152602001600a60ff168152602001600160ff1681525081600181518110620002bd57620002bc62002695565b5b60200260200101819052506040518060c001604052806040518060400160405280600e81526020017f47205620416e6a616e6579756c7500000000000000000000000000000000000081525081526020016040518060400160405280600381526020017f544450000000000000000000000000000000000000000000000000000000000081525081526020016040518060800160405280604c81526020016200486d604c9139815260200164e19f3e55b78152602001600a60ff168152602001600260ff16815250816002815181106200039c576200039b62002695565b5b60200260200101819052506040518060c001604052806040518060400160405280601081526020017f416e696c204b756d61722059616461760000000000000000000000000000000081525081526020016040518060400160405280600581526020017f595352435000000000000000000000000000000000000000000000000000000081525081526020016040518060800160405280604e8152602001620046d6604e913981526020016463f451cce28152602001600a60ff168152602001600260ff16815250816003815181106200047b576200047a62002695565b5b60200260200101819052506040518060c001604052806040518060400160405280600d81526020017f4e6172656e647261204d6f64690000000000000000000000000000000000000081525081526020016040518060400160405280600381526020017f424a50000000000000000000000000000000000000000000000000000000000081525081526020016040518060800160405280604c815260200162004724604c9139815260200164d077cd0b7d8152602001600b60ff168152602001600160ff16815250816004815181106200055a576200055962002695565b5b60200260200101819052506040518060c001604052806040518060400160405280600c81526020017f526168756c2047616e646869000000000000000000000000000000000000000081525081526020016040518060400160405280600381526020017f494e43000000000000000000000000000000000000000000000000000000000081525081526020016040518060800160405280604c8152602001620047bc604c9139815260200164ccd999a21c8152602001600b60ff168152602001600160ff168152508160058151811062000639576200063862002695565b5b60200260200101819052506040518060c001604052806040518060400160405280600d81526020017f54656a617377692059616461760000000000000000000000000000000000000081525081526020016040518060400160405280600381526020017f524a44000000000000000000000000000000000000000000000000000000000081525081526020016040518060800160405280605c81526020016200467a605c9139815260200164e773cd9afe8152602001600b60ff168152602001600160ff168152508160068151811062000718576200071762002695565b5b60200260200101819052506040518060c001604052806040518060400160405280600f81526020017f417276696e64204b656a726977616c000000000000000000000000000000000081525081526020016040518060400160405280600381526020017f414150000000000000000000000000000000000000000000000000000000000081525081526020016040518060800160405280604c815260200162004770604c9139815260200164bbe6eb29d58152602001600b60ff168152602001600160ff1681525081600781518110620007f757620007f662002695565b5b60200260200101819052506040518060c001604052806040518060400160405280600a81526020017f4a796f746920426173750000000000000000000000000000000000000000000081525081526020016040518060400160405280600481526020017f4350494d0000000000000000000000000000000000000000000000000000000081525081526020016040518060a001604052806065815260200162004808606591398152602001648f444202748152602001600b60ff168152602001600160ff1681525081600881518110620008d657620008d562002695565b5b60200260200101819052506040518060c001604052806040518060400160405280600981526020017f416d69742053686168000000000000000000000000000000000000000000000081525081526020016040518060400160405280600381526020017f424a50000000000000000000000000000000000000000000000000000000000081525081526020016040518060800160405280604c815260200162004724604c91398152602001648e7ddb11c28152602001600b60ff168152602001600260ff1681525081600981518110620009b557620009b462002695565b5b60200260200101819052506040518060c001604052806040518060400160405280600f81526020017f50726979616e6b612047616e646869000000000000000000000000000000000081525081526020016040518060400160405280600381526020017f494e43000000000000000000000000000000000000000000000000000000000081525081526020016040518060800160405280604c8152602001620047bc604c9139815260200164c9c70244b08152602001600b60ff168152602001600260ff1681525081600a8151811062000a945762000a9362002695565b5b60200260200101819052506040518060c001604052806040518060400160405280600a81526020017f4c616c752059616461760000000000000000000000000000000000000000000081525081526020016040518060400160405280600381526020017f524a44000000000000000000000000000000000000000000000000000000000081525081526020016040518060800160405280605c81526020016200467a605c9139815260200164b248bcb8c18152602001600b60ff168152602001600260ff1681525081600b8151811062000b735762000b7262002695565b5b60200260200101819052506040518060c001604052806040518060400160405280600e81526020017f4d616e697368205369736f64696100000000000000000000000000000000000081525081526020016040518060400160405280600381526020017f414150000000000000000000000000000000000000000000000000000000000081525081526020016040518060800160405280604c815260200162004770604c9139815260200164d10c6172548152602001600b60ff168152602001600260ff1681525081600c8151811062000c525762000c5162002695565b5b60200260200101819052506040518060c001604052806040518060400160405280600d81526020017f5072616b617368204b617261740000000000000000000000000000000000000081525081526020016040518060400160405280600481526020017f4350494d0000000000000000000000000000000000000000000000000000000081525081526020016040518060a001604052806065815260200162004808606591398152602001646bfb1a26268152602001600b60ff168152602001600260ff1681525081600d8151811062000d315762000d3062002695565b5b60200260200101819052505f5b815181101562000f1a5781818151811062000d5e5762000d5d62002695565b5b602002602001015160025f84848151811062000d7f5762000d7e62002695565b5b60200260200101516060015181526020019081526020015f205f820151815f01908162000dad9190620028f0565b50602082015181600101908162000dc59190620028f0565b50604082015181600201908162000ddd9190620028f0565b50606082015181600301556080820151816004015f6101000a81548160ff021916908360ff16021790555060a08201518160040160016101000a81548160ff021916908360ff1602179055509050505f82828151811062000e435762000e4262002695565b5b6020026020010151908060018154018082558091505060019003905f5260205f2090600502015f909190919091505f820151815f01908162000e869190620028f0565b50602082015181600101908162000e9e9190620028f0565b50604082015181600201908162000eb69190620028f0565b50606082015181600301556080820151816004015f6101000a81548160ff021916908360ff16021790555060a08201518160040160016101000a81548160ff021916908360ff1602179055505050808062000f119062002a01565b91505062000d3e565b5050565b6040518060e0016040528064704892d02481526020016040518060400160405280600681526020017f53757265736800000000000000000000000000000000000000000000000000008152508152602001601560ff168152602001600a60ff168152602001600160ff1681526020016001151581526020015f81525060015f64704892d02481526020019081526020015f205f820151815f0155602082015181600101908162000fcf9190620028f0565b506040820151816002015f6101000a81548160ff021916908360ff16021790555060608201518160020160016101000a81548160ff021916908360ff16021790555060808201518160020160026101000a81548160ff021916908360ff16021790555060a08201518160020160036101000a81548160ff02191690831515021790555060c082015181600301559050506040518060e00160405280647be4f5771b81526020016040518060400160405280600681526020017f52616d65736800000000000000000000000000000000000000000000000000008152508152602001602560ff168152602001600a60ff168152602001600160ff1681526020015f151581526020015f81525060015f647be4f5771b81526020019081526020015f205f820151815f015560208201518160010190816200110f9190620028f0565b506040820151816002015f6101000a81548160ff021916908360ff16021790555060608201518160020160016101000a81548160ff021916908360ff16021790555060808201518160020160026101000a81548160ff021916908360ff16021790555060a08201518160020160036101000a81548160ff02191690831515021790555060c082015181600301559050506040518060e00160405280646cfae753fe81526020016040518060400160405280600681526020017f4d616865736800000000000000000000000000000000000000000000000000008152508152602001601a60ff168152602001600a60ff168152602001600160ff1681526020016001151581526020015f81525060015f646cfae753fe81526020019081526020015f205f820151815f01556020820151816001019081620012509190620028f0565b506040820151816002015f6101000a81548160ff021916908360ff16021790555060608201518160020160016101000a81548160ff021916908360ff16021790555060808201518160020160026101000a81548160ff021916908360ff16021790555060a08201518160020160036101000a81548160ff02191690831515021790555060c082015181600301559050506040518060e0016040528064bc95724c2d81526020016040518060400160405280600781526020017f4b726973686e61000000000000000000000000000000000000000000000000008152508152602001601360ff168152602001600a60ff168152602001600260ff1681526020016001151581526020015f81525060015f64bc95724c2d81526020019081526020015f205f820151815f01556020820151816001019081620013919190620028f0565b506040820151816002015f6101000a81548160ff021916908360ff16021790555060608201518160020160016101000a81548160ff021916908360ff16021790555060808201518160020160026101000a81548160ff021916908360ff16021790555060a08201518160020160036101000a81548160ff02191690831515021790555060c082015181600301559050506040518060e0016040528064d38e2fd0d681526020016040518060400160405280600881526020017f4e6172656e6472610000000000000000000000000000000000000000000000008152508152602001602460ff168152602001600a60ff168152602001600260ff1681526020016001151581526020015f81525060015f64d38e2fd0d681526020019081526020015f205f820151815f01556020820151816001019081620014d29190620028f0565b506040820151816002015f6101000a81548160ff021916908360ff16021790555060608201518160020160016101000a81548160ff021916908360ff16021790555060808201518160020160026101000a81548160ff021916908360ff16021790555060a08201518160020160036101000a81548160ff02191690831515021790555060c082015181600301559050506040518060e0016040528064b1081230bf81526020016040518060400160405280600581526020017f52616768750000000000000000000000000000000000000000000000000000008152508152602001602a60ff168152602001600a60ff168152602001600260ff1681526020016001151581526020015f81525060015f64b1081230bf81526020019081526020015f205f820151815f01556020820151816001019081620016139190620028f0565b506040820151816002015f6101000a81548160ff021916908360ff16021790555060608201518160020160016101000a81548160ff021916908360ff16021790555060808201518160020160026101000a81548160ff021916908360ff16021790555060a08201518160020160036101000a81548160ff02191690831515021790555060c082015181600301559050506040518060e0016040528064d392fd0ce681526020016040518060400160405280600d81526020017f507573686b6172204b756d6172000000000000000000000000000000000000008152508152602001601960ff168152602001600b60ff168152602001600160ff1681526020016001151581526020015f81525060015f64d392fd0ce681526020019081526020015f205f820151815f01556020820151816001019081620017549190620028f0565b506040820151816002015f6101000a81548160ff021916908360ff16021790555060608201518160020160016101000a81548160ff021916908360ff16021790555060808201518160020160026101000a81548160ff021916908360ff16021790555060a08201518160020160036101000a81548160ff02191690831515021790555060c082015181600301559050506040518060e0016040528064b55b93624481526020016040518060400160405280600b81526020017f4b756e616c204b756d61720000000000000000000000000000000000000000008152508152602001602560ff168152602001600b60ff168152602001600160ff1681526020016001151581526020015f81525060015f64b55b93624481526020019081526020015f205f820151815f01556020820151816001019081620018959190620028f0565b506040820151816002015f6101000a81548160ff021916908360ff16021790555060608201518160020160016101000a81548160ff021916908360ff16021790555060808201518160020160026101000a81548160ff021916908360ff16021790555060a08201518160020160036101000a81548160ff02191690831515021790555060c082015181600301559050506040518060e00160405280645b84e787e781526020016040518060400160405280600c81526020017f4b756d61722053616e6b657400000000000000000000000000000000000000008152508152602001601d60ff168152602001600b60ff168152602001600260ff1681526020016001151581526020015f81525060015f645b84e787e781526020019081526020015f205f820151815f01556020820151816001019081620019d69190620028f0565b506040820151816002015f6101000a81548160ff021916908360ff16021790555060608201518160020160016101000a81548160ff021916908360ff16021790555060808201518160020160026101000a81548160ff021916908360ff16021790555060a08201518160020160036101000a81548160ff02191690831515021790555060c082015181600301559050506040518060e0016040528064e513eca33181526020016040518060400160405280600681526020017f50726174696b00000000000000000000000000000000000000000000000000008152508152602001602860ff168152602001600b60ff168152602001600260ff1681526020016001151581526020015f81525060015f64e513eca33181526020019081526020015f205f820151815f0155602082015181600101908162001b179190620028f0565b506040820151816002015f6101000a81548160ff021916908360ff16021790555060608201518160020160016101000a81548160ff021916908360ff16021790555060808201518160020160026101000a81548160ff021916908360ff16021790555060a08201518160020160036101000a81548160ff02191690831515021790555060c082015181600301559050506040518060e0016040528064b02a4c06cd81526020016040518060400160405280600581526020017f41617573690000000000000000000000000000000000000000000000000000008152508152602001605560ff168152602001600b60ff168152602001600160ff1681526020015f151581526020015f81525060015f64b02a4c06cd81526020019081526020015f205f820151815f0155602082015181600101908162001c579190620028f0565b506040820151816002015f6101000a81548160ff021916908360ff16021790555060608201518160020160016101000a81548160ff021916908360ff16021790555060808201518160020160026101000a81548160ff021916908360ff16021790555060a08201518160020160036101000a81548160ff02191690831515021790555060c082015181600301559050506040518060e001604052806488ee0e303181526020016040518060400160405280600781526020017f50726174696261000000000000000000000000000000000000000000000000008152508152602001604460ff168152602001600b60ff168152602001600260ff1681526020015f151581526020015f81525060015f6488ee0e303181526020019081526020015f205f820151815f0155602082015181600101908162001d979190620028f0565b506040820151816002015f6101000a81548160ff021916908360ff16021790555060608201518160020160016101000a81548160ff021916908360ff16021790555060808201518160020160026101000a81548160ff021916908360ff16021790555060a08201518160020160036101000a81548160ff02191690831515021790555060c082015181600301559050506040518060e0016040528064e1522cf91581526020016040518060400160405280600781526020017f52756368696b61000000000000000000000000000000000000000000000000008152508152602001601a60ff168152602001600b60ff168152602001600160ff1681526020016001151581526020015f81525060015f64e1522cf91581526020019081526020015f205f820151815f0155602082015181600101908162001ed89190620028f0565b506040820151816002015f6101000a81548160ff021916908360ff16021790555060608201518160020160016101000a81548160ff021916908360ff16021790555060808201518160020160026101000a81548160ff021916908360ff16021790555060a08201518160020160036101000a81548160ff02191690831515021790555060c082015181600301559050506040518060e0016040528064a97c7f00ef81526020016040518060400160405280600781526020017f52616d62616275000000000000000000000000000000000000000000000000008152508152602001601160ff168152602001600b60ff168152602001600160ff1681526020016001151581526020015f81525060015f64a97c7f00ef81526020019081526020015f205f820151815f01556020820151816001019081620020199190620028f0565b506040820151816002015f6101000a81548160ff021916908360ff16021790555060608201518160020160016101000a81548160ff021916908360ff16021790555060808201518160020160026101000a81548160ff021916908360ff16021790555060a08201518160020160036101000a81548160ff02191690831515021790555060c082015181600301559050506040518060e00160405280648dcc2d6c7881526020016040518060400160405280600781526020017f4d6174616a6969000000000000000000000000000000000000000000000000008152508152602001606260ff168152602001600b60ff168152602001600160ff1681526020016001151581526020015f81525060015f648dcc2d6c7881526020019081526020015f205f820151815f015560208201518160010190816200215a9190620028f0565b506040820151816002015f6101000a81548160ff021916908360ff16021790555060608201518160020160016101000a81548160ff021916908360ff16021790555060808201518160020160026101000a81548160ff021916908360ff16021790555060a08201518160020160036101000a81548160ff02191690831515021790555060c082015181600301559050506040518060e001604052806490614c757c81526020016040518060400160405280600681526020017f4d616d61746100000000000000000000000000000000000000000000000000008152508152602001603f60ff168152602001600b60ff168152602001600260ff1681526020015f151581526020015f81525060015f6490614c757c81526020019081526020015f205f820151815f015560208201518160010190816200229a9190620028f0565b506040820151816002015f6101000a81548160ff021916908360ff16021790555060608201518160020160016101000a81548160ff021916908360ff16021790555060808201518160020160026101000a81548160ff021916908360ff16021790555060a08201518160020160036101000a81548160ff02191690831515021790555060c082015181600301559050506040518060e00160405280645df6210bd181526020016040518060400160405280600a81526020017f52617669205661726d61000000000000000000000000000000000000000000008152508152602001602a60ff168152602001600b60ff168152602001600260ff1681526020016001151581526020015f81525060015f645df6210bd181526020019081526020015f205f820151815f01556020820151816001019081620023db9190620028f0565b506040820151816002015f6101000a81548160ff021916908360ff16021790555060608201518160020160016101000a81548160ff021916908360ff16021790555060808201518160020160026101000a81548160ff021916908360ff16021790555060a08201518160020160036101000a81548160ff02191690831515021790555060c082015181600301559050506040518060e0016040528064c31aeaf9aa81526020016040518060400160405280600581526020017f526168756c0000000000000000000000000000000000000000000000000000008152508152602001603860ff168152602001600b60ff168152602001600260ff1681526020016001151581526020015f81525060015f64c31aeaf9aa81526020019081526020015f205f820151815f015560208201518160010190816200251c9190620028f0565b506040820151816002015f6101000a81548160ff021916908360ff16021790555060608201518160020160016101000a81548160ff021916908360ff16021790555060808201518160020160026101000a81548160ff021916908360ff16021790555060a08201518160020160036101000a81548160ff02191690831515021790555060c08201518160030155905050565b6040518060c001604052806060815260200160608152602001606081526020015f81526020015f60ff1681526020015f60ff1681525090565b5f80fd5b5f819050919050565b620025ff81620025eb565b81146200260a575f80fd5b50565b5f815190506200261d81620025f4565b92915050565b5f80604083850312156200263c576200263b620025e7565b5b5f6200264b858286016200260d565b92505060206200265e858286016200260d565b9150509250929050565b7f4e487b71000000000000000000000000000000000000000000000000000000005f52604160045260245ffd5b7f4e487b71000000000000000000000000000000000000000000000000000000005f52603260045260245ffd5b5f81519050919050565b7f4e487b71000000000000000000000000000000000000000000000000000000005f52602260045260245ffd5b5f60028204905060018216806200271157607f821691505b602082108103620027275762002726620026cc565b5b50919050565b5f819050815f5260205f209050919050565b5f6020601f8301049050919050565b5f82821b905092915050565b5f600883026200278b7fffffffffffffffffffffffffffffffffffffffffffffffffffffffffffffffff826200274e565b6200279786836200274e565b95508019841693508086168417925050509392505050565b5f819050919050565b5f620027d8620027d2620027cc84620025eb565b620027af565b620025eb565b9050919050565b5f819050919050565b620027f383620027b8565b6200280b6200280282620027df565b8484546200275a565b825550505050565b5f90565b6200282162002813565b6200282e818484620027e8565b505050565b5b818110156200285557620028495f8262002817565b60018101905062002834565b5050565b601f821115620028a4576200286e816200272d565b62002879846200273f565b8101602085101562002889578190505b620028a162002898856200273f565b83018262002833565b50505b505050565b5f82821c905092915050565b5f620028c65f1984600802620028a9565b1980831691505092915050565b5f620028e08383620028b5565b9150826002028217905092915050565b620028fb82620026c2565b67ffffffffffffffff81111562002917576200291662002668565b5b620029238254620026f9565b6200293082828562002859565b5f60209050601f83116001811462002966575f841562002951578287015190505b6200295d8582620028d3565b865550620029cc565b601f19841662002976866200272d565b5f5b828110156200299f5784890151825560018201915060208501945060208101905062002978565b86831015620029bf5784890151620029bb601f891682620028b5565b8355505b6001600288020188555050505b505050505050565b7f4e487b71000000000000000000000000000000000000000000000000000000005f52601160045260245ffd5b5f62002a0d82620025eb565b91507fffffffffffffffffffffffffffffffffffffffffffffffffffffffffffffffff820362002a425762002a41620029d4565b5b600182019050919050565b611c1f8062002a5b5f395ff3fe608060405234801561000f575f80fd5b5060043610610091575f3560e01c806381a60c0d1161006457806381a60c0d146101475780638a6655d614610177578063b1bf87b014610193578063b9d84552146101b1578063dce8d8a3146101cd57610091565b80633477ee2e146100955780635d816e22146100ca5780635e23c37c146100e6578063618bde0a14610117575b5f80fd5b6100af60048036038101906100aa9190611445565b6101fd565b6040516100c196959493929190611524565b60405180910390f35b6100e460048036038101906100df9190611598565b6103ee565b005b61010060048036038101906100fb9190611445565b61046b565b60405161010e9291906116ea565b60405180910390f35b610131600480360381019061012c9190611445565b6106be565b60405161013e9190611867565b60405180910390f35b610161600480360381019061015c9190611445565b610b11565b60405161016e91906119e9565b60405180910390f35b610191600480360381019061018c9190611a09565b610ea6565b005b61019b6112c6565b6040516101a89190611a59565b60405180910390f35b6101cb60048036038101906101c69190611598565b6112cf565b005b6101e760048036038101906101e29190611445565b61133f565b6040516101f49190611a72565b60405180910390f35b5f818154811061020b575f80fd5b905f5260205f2090600502015f91509050805f01805461022a90611ab8565b80601f016020809104026020016040519081016040528092919081815260200182805461025690611ab8565b80156102a15780601f10610278576101008083540402835291602001916102a1565b820191905f5260205f20905b81548152906001019060200180831161028457829003601f168201915b5050505050908060010180546102b690611ab8565b80601f01602080910402602001604051908101604052809291908181526020018280546102e290611ab8565b801561032d5780601f106103045761010080835404028352916020019161032d565b820191905f5260205f20905b81548152906001019060200180831161031057829003601f168201915b50505050509080600201805461034290611ab8565b80601f016020809104026020016040519081016040528092919081815260200182805461036e90611ab8565b80156103b95780601f10610390576101008083540402835291602001916103b9565b820191905f5260205f20905b81548152906001019060200180831161039c57829003601f168201915b505050505090806003015490806004015f9054906101000a900460ff16908060040160019054906101000a900460ff16905086565b60045f9054906101000a900473ffffffffffffffffffffffffffffffffffffffff1673ffffffffffffffffffffffffffffffffffffffff163373ffffffffffffffffffffffffffffffffffffffff1614610446575f80fd5b8060055410610453575f80fd5b8060065411610460575f80fd5b816006819055505050565b5f610474611396565b5f60015f8581526020019081526020015f20600301541415915081156106b95760025f60015f8681526020019081526020015f206003015481526020019081526020015f206040518060c00160405290815f820180546104d390611ab8565b80601f01602080910402602001604051908101604052809291908181526020018280546104ff90611ab8565b801561054a5780601f106105215761010080835404028352916020019161054a565b820191905f5260205f20905b81548152906001019060200180831161052d57829003601f168201915b5050505050815260200160018201805461056390611ab8565b80601f016020809104026020016040519081016040528092919081815260200182805461058f90611ab8565b80156105da5780601f106105b1576101008083540402835291602001916105da565b820191905f5260205f20905b8154815290600101906020018083116105bd57829003601f168201915b505050505081526020016002820180546105f390611ab8565b80601f016020809104026020016040519081016040528092919081815260200182805461061f90611ab8565b801561066a5780601f106106415761010080835404028352916020019161066a565b820191905f5260205f20905b81548152906001019060200180831161064d57829003601f168201915b5050505050815260200160038201548152602001600482015f9054906101000a900460ff1660ff1660ff1681526020016004820160019054906101000a900460ff1660ff1660ff168152505090505b915091565b60605f60015f8481526020019081526020015f2090505f805b5f805490508110156107a3575f81815481106106f6576106f5611ae8565b5b905f5260205f2090600502016004015f9054906101000a900460ff1660ff168360020160019054906101000a900460ff1660ff1614801561077c57505f818154811061074557610744611ae8565b5b905f5260205f20906005020160040160019054906101000a900460ff1660ff168360020160029054906101000a900460ff1660ff16145b1561079057818061078c90611b42565b9250505b808061079b90611b42565b9150506106d7565b505f8167ffffffffffffffff8111156107bf576107be611b89565b5b6040519080825280602002602001820160405280156107f857816020015b6107e5611396565b8152602001906001900390816107dd5790505b5090505f805b5f80549050811015610b04575f818154811061081d5761081c611ae8565b5b905f5260205f2090600502016004015f9054906101000a900460ff1660ff168560020160019054906101000a900460ff1660ff161480156108a357505f818154811061086c5761086b611ae8565b5b905f5260205f20906005020160040160019054906101000a900460ff1660ff168560020160029054906101000a900460ff1660ff16145b15610af1575f81815481106108bb576108ba611ae8565b5b905f5260205f2090600502016040518060c00160405290815f820180546108e190611ab8565b80601f016020809104026020016040519081016040528092919081815260200182805461090d90611ab8565b80156109585780601f1061092f57610100808354040283529160200191610958565b820191905f5260205f20905b81548152906001019060200180831161093b57829003601f168201915b5050505050815260200160018201805461097190611ab8565b80601f016020809104026020016040519081016040528092919081815260200182805461099d90611ab8565b80156109e85780601f106109bf576101008083540402835291602001916109e8565b820191905f5260205f20905b8154815290600101906020018083116109cb57829003601f168201915b50505050508152602001600282018054610a0190611ab8565b80601f0160208091040260200160405190810160405280929190818152602001828054610a2d90611ab8565b8015610a785780601f10610a4f57610100808354040283529160200191610a78565b820191905f5260205f20905b815481529060010190602001808311610a5b57829003601f168201915b5050505050815260200160038201548152602001600482015f9054906101000a900460ff1660ff1660ff1681526020016004820160019054906101000a900460ff1660ff1660ff1681525050838381518110610ad757610ad6611ae8565b5b60200260200101819052508180610aed90611b42565b9250505b8080610afc90611b42565b9150506107fe565b5081945050505050919050565b60608160065410610b20575f80fd5b5f808054905067ffffffffffffffff811115610b3f57610b3e611b89565b5b604051908082528060200260200182016040528015610b7857816020015b610b656113cf565b815260200190600190039081610b5d5790505b5090505f5b5f80549050811015610e9c576040518060e001604052805f8381548110610ba757610ba6611ae8565b5b905f5260205f2090600502015f018054610bc090611ab8565b80601f0160208091040260200160405190810160405280929190818152602001828054610bec90611ab8565b8015610c375780601f10610c0e57610100808354040283529160200191610c37565b820191905f5260205f20905b815481529060010190602001808311610c1a57829003601f168201915b505050505081526020015f8381548110610c5457610c53611ae8565b5b905f5260205f2090600502016001018054610c6e90611ab8565b80601f0160208091040260200160405190810160405280929190818152602001828054610c9a90611ab8565b8015610ce55780601f10610cbc57610100808354040283529160200191610ce5565b820191905f5260205f20905b815481529060010190602001808311610cc857829003601f168201915b505050505081526020015f8381548110610d0257610d01611ae8565b5b905f5260205f2090600502016002018054610d1c90611ab8565b80601f0160208091040260200160405190810160405280929190818152602001828054610d4890611ab8565b8015610d935780601f10610d6a57610100808354040283529160200191610d93565b820191905f5260205f20905b815481529060010190602001808311610d7657829003601f168201915b5050505050815260200160035f808581548110610db357610db2611ae8565b5b905f5260205f2090600502016003015481526020019081526020015f205481526020015f8381548110610de957610de8611ae8565b5b905f5260205f2090600502016003015481526020015f8381548110610e1157610e10611ae8565b5b905f5260205f2090600502016004015f9054906101000a900460ff1660ff1681526020015f8381548110610e4857610e47611ae8565b5b905f5260205f20906005020160040160019054906101000a900460ff1660ff16815250828281518110610e7e57610e7d611ae8565b5b60200260200101819052508080610e9490611b42565b915050610b7d565b5080915050919050565b80600554811015610eb5575f80fd5b600654811115610ec3575f80fd5b82845f60015f8481526020019081526020015f206040518060e00160405290815f8201548152602001600182018054610efb90611ab8565b80601f0160208091040260200160405190810160405280929190818152602001828054610f2790611ab8565b8015610f725780601f10610f4957610100808354040283529160200191610f72565b820191905f5260205f20905b815481529060010190602001808311610f5557829003601f168201915b50505050508152602001600282015f9054906101000a900460ff1660ff1660ff1681526020016002820160019054906101000a900460ff1660ff1660ff1681526020016002820160029054906101000a900460ff1660ff1660ff1681526020016002820160039054906101000a900460ff1615151515815260200160038201548152505090505f60025f8481526020019081526020015f206040518060c00160405290815f8201805461102490611ab8565b80601f016020809104026020016040519081016040528092919081815260200182805461105090611ab8565b801561109b5780601f106110725761010080835404028352916020019161109b565b820191905f5260205f20905b81548152906001019060200180831161107e57829003601f168201915b505050505081526020016001820180546110b490611ab8565b80601f01602080910402602001604051908101604052809291908181526020018280546110e090611ab8565b801561112b5780601f106111025761010080835404028352916020019161112b565b820191905f5260205f20905b81548152906001019060200180831161110e57829003601f168201915b5050505050815260200160028201805461114490611ab8565b80601f016020809104026020016040519081016040528092919081815260200182805461117090611ab8565b80156111bb5780601f10611192576101008083540402835291602001916111bb565b820191905f5260205f20905b81548152906001019060200180831161119e57829003601f168201915b5050505050815260200160038201548152602001600482015f9054906101000a900460ff1660ff1660ff1681526020016004820160019054906101000a900460ff1660ff1660ff168152505090506012826040015160ff16101561121d575f80fd5b8160a0015161122a575f80fd5b5f8260c0015114611239575f80fd5b816060015160ff16816080015160ff161480156112635750816080015160ff168160a0015160ff16145b61126b575f80fd5b8760015f8981526020019081526020015f20600301819055505f60035f8a81526020019081526020015f205490506001816112a69190611bb6565b60035f8b81526020019081526020015f2081905550505050505050505050565b5f600654905090565b60045f9054906101000a900473ffffffffffffffffffffffffffffffffffffffff1673ffffffffffffffffffffffffffffffffffffffff163373ffffffffffffffffffffffffffffffffffffffff1614611327575f80fd5b8060055411611334575f80fd5b816005819055505050565b5f8060015f8481526020019081526020015f2090506012816002015f9054906101000a900460ff1660ff161015801561138657508060020160039054906101000a900460ff165b1561139057600191505b50919050565b6040518060c001604052806060815260200160608152602001606081526020015f81526020015f60ff1681526020015f60ff1681525090565b6040518060e001604052806060815260200160608152602001606081526020015f81526020015f81526020015f60ff1681526020015f60ff1681525090565b5f80fd5b5f819050919050565b61142481611412565b811461142e575f80fd5b50565b5f8135905061143f8161141b565b92915050565b5f6020828403121561145a5761145961140e565b5b5f61146784828501611431565b91505092915050565b5f81519050919050565b5f82825260208201905092915050565b5f5b838110156114a757808201518184015260208101905061148c565b5f8484015250505050565b5f601f19601f8301169050919050565b5f6114cc82611470565b6114d6818561147a565b93506114e681856020860161148a565b6114ef816114b2565b840191505092915050565b61150381611412565b82525050565b5f60ff82169050919050565b61151e81611509565b82525050565b5f60c0820190508181035f83015261153c81896114c2565b9050818103602083015261155081886114c2565b9050818103604083015261156481876114c2565b905061157360608301866114fa565b6115806080830185611515565b61158d60a0830184611515565b979650505050505050565b5f80604083850312156115ae576115ad61140e565b5b5f6115bb85828601611431565b92505060206115cc85828601611431565b9150509250929050565b5f8115159050919050565b6115ea816115d6565b82525050565b5f82825260208201905092915050565b5f61160a82611470565b61161481856115f0565b935061162481856020860161148a565b61162d816114b2565b840191505092915050565b61164181611412565b82525050565b61165081611509565b82525050565b5f60c083015f8301518482035f8601526116708282611600565b9150506020830151848203602086015261168a8282611600565b915050604083015184820360408601526116a48282611600565b91505060608301516116b96060860182611638565b5060808301516116cc6080860182611647565b5060a08301516116df60a0860182611647565b508091505092915050565b5f6040820190506116fd5f8301856115e1565b818103602083015261170f8184611656565b90509392505050565b5f81519050919050565b5f82825260208201905092915050565b5f819050602082019050919050565b5f60c083015f8301518482035f86015261175b8282611600565b915050602083015184820360208601526117758282611600565b9150506040830151848203604086015261178f8282611600565b91505060608301516117a46060860182611638565b5060808301516117b76080860182611647565b5060a08301516117ca60a0860182611647565b508091505092915050565b5f6117e08383611741565b905092915050565b5f602082019050919050565b5f6117fe82611718565b6118088185611722565b93508360208202850161181a85611732565b805f5b85811015611855578484038952815161183685826117d5565b9450611841836117e8565b925060208a0199505060018101905061181d565b50829750879550505050505092915050565b5f6020820190508181035f83015261187f81846117f4565b905092915050565b5f81519050919050565b5f82825260208201905092915050565b5f819050602082019050919050565b5f60e083015f8301518482035f8601526118ca8282611600565b915050602083015184820360208601526118e48282611600565b915050604083015184820360408601526118fe8282611600565b91505060608301516119136060860182611638565b5060808301516119266080860182611638565b5060a083015161193960a0860182611647565b5060c083015161194c60c0860182611647565b508091505092915050565b5f61196283836118b0565b905092915050565b5f602082019050919050565b5f61198082611887565b61198a8185611891565b93508360208202850161199c856118a1565b805f5b858110156119d757848403895281516119b88582611957565b94506119c38361196a565b925060208a0199505060018101905061199f565b50829750879550505050505092915050565b5f6020820190508181035f830152611a018184611976565b905092915050565b5f805f60608486031215611a2057611a1f61140e565b5b5f611a2d86828701611431565b9350506020611a3e86828701611431565b9250506040611a4f86828701611431565b9150509250925092565b5f602082019050611a6c5f8301846114fa565b92915050565b5f602082019050611a855f8301846115e1565b92915050565b7f4e487b71000000000000000000000000000000000000000000000000000000005f52602260045260245ffd5b5f6002820490506001821680611acf57607f821691505b602082108103611ae257611ae1611a8b565b5b50919050565b7f4e487b71000000000000000000000000000000000000000000000000000000005f52603260045260245ffd5b7f4e487b71000000000000000000000000000000000000000000000000000000005f52601160045260245ffd5b5f611b4c82611412565b91507fffffffffffffffffffffffffffffffffffffffffffffffffffffffffffffffff8203611b7e57611b7d611b15565b5b600182019050919050565b7f4e487b71000000000000000000000000000000000000000000000000000000005f52604160045260245ffd5b5f611bc082611412565b9150611bcb83611412565b9250828201905080821115611be357611be2611b15565b5b9291505056fea2646970667358221220864ce39920785aed5fe40dd6ec6104b83bef6a7f005fb3b26302c9e8e8398fac64736f6c6343000814003368747470733a2f2f7265732e636c6f7564696e6172792e636f6d2f646a3974747362676d2f696d6167652f75706c6f61642f76313634383130313036352f3132303070782d524a445f466c61672e7376675f6172727276742e706e6768747470733a2f2f7265732e636c6f7564696e6172792e636f6d2f646a3974747362676d2f696d6167652f75706c6f61642f76313634383130313036352f79737263705f7361733331312e706e6768747470733a2f2f7265732e636c6f7564696e6172792e636f6d2f646a3974747362676d2f696d6167652f75706c6f61642f76313634383130313036342f626a705f6e6b34736e772e706e6768747470733a2f2f7265732e636c6f7564696e6172792e636f6d2f646a3974747362676d2f696d6167652f75706c6f61642f76313634383130313036352f6161705f756a6775796c2e706e6768747470733a2f2f7265732e636c6f7564696e6172792e636f6d2f646a3974747362676d2f696d6167652f75706c6f61642f76313634383130313036342f696e635f73316f716e352e706e6768747470733a2f2f7265732e636c6f7564696e6172792e636f6d2f646a3974747362676d2f696d6167652f75706c6f61642f76313634383130313036342f3130323470782d4370696d5f70617274795f73796d626f6c2e7376675f6d75316770702e706e6768747470733a2f2f7265732e636c6f7564696e6172792e636f6d2f646a3974747362676d2f696d6167652f75706c6f61642f76313634383130313036352f7464705f716831726b6a2e706e67",
					"opcodes": "PUSH1 0x80 PUSH1 0x40 MSTORE CALLVALUE DUP1 ISZERO PUSH3 0x10 JUMPI PUSH0 DUP1 REVERT JUMPDEST POP PUSH1 0x40 MLOAD PUSH3 0x48B9 CODESIZE SUB DUP1 PUSH3 0x48B9 DUP4 CODECOPY DUP2 DUP2 ADD PUSH1 0x40 MSTORE DUP2 ADD SWAP1 PUSH3 0x36 SWAP2 SWAP1 PUSH3 0x2623 JUMP JUMPDEST PUSH3 0x46 PUSH3 0xAC PUSH1 0x20 SHL PUSH1 0x20 SHR JUMP JUMPDEST PUSH3 0x56 PUSH3 0xF1E PUSH1 0x20 SHL PUSH1 0x20 SHR JUMP JUMPDEST DUP2 PUSH1 0x5 DUP2 SWAP1 SSTORE POP DUP1 PUSH1 0x6 DUP2 SWAP1 SSTORE POP CALLER PUSH1 0x4 PUSH0 PUSH2 0x100 EXP DUP2 SLOAD DUP2 PUSH20 0xFFFFFFFFFFFFFFFFFFFFFFFFFFFFFFFFFFFFFFFF MUL NOT AND SWAP1 DUP4 PUSH20 0xFFFFFFFFFFFFFFFFFFFFFFFFFFFFFFFFFFFFFFFF AND MUL OR SWAP1 SSTORE POP POP POP PUSH3 0x2A4D JUMP JUMPDEST PUSH0 PUSH1 0xE PUSH8 0xFFFFFFFFFFFFFFFF DUP2 GT ISZERO PUSH3 0xCB JUMPI PUSH3 0xCA PUSH3 0x2668 JUMP JUMPDEST JUMPDEST PUSH1 0x40 MLOAD SWAP1 DUP1 DUP3 MSTORE DUP1 PUSH1 0x20 MUL PUSH1 0x20 ADD DUP3 ADD PUSH1 0x40 MSTORE DUP1 ISZERO PUSH3 0x108 JUMPI DUP2 PUSH1 0x20 ADD JUMPDEST PUSH3 0xF4 PUSH3 0x25AE JUMP JUMPDEST DUP2 MSTORE PUSH1 0x20 ADD SWAP1 PUSH1 0x1 SWAP1 SUB SWAP1 DUP2 PUSH3 0xEA JUMPI SWAP1 POP JUMPDEST POP SWAP1 POP PUSH1 0x40 MLOAD DUP1 PUSH1 0xC0 ADD PUSH1 0x40 MSTORE DUP1 PUSH1 0x40 MLOAD DUP1 PUSH1 0x40 ADD PUSH1 0x40 MSTORE DUP1 PUSH1 0x12 DUP2 MSTORE PUSH1 0x20 ADD PUSH32 0x4368616E6472612042616275204E616964750000000000000000000000000000 DUP2 MSTORE POP DUP2 MSTORE PUSH1 0x20 ADD PUSH1 0x40 MLOAD DUP1 PUSH1 0x40 ADD PUSH1 0x40 MSTORE DUP1 PUSH1 0x3 DUP2 MSTORE PUSH1 0x20 ADD PUSH32 0x5444500000000000000000000000000000000000000000000000000000000000 DUP2 MSTORE POP DUP2 MSTORE PUSH1 0x20 ADD PUSH1 0x40 MLOAD DUP1 PUSH1 0x80 ADD PUSH1 0x40 MSTORE DUP1 PUSH1 0x4C DUP2 MSTORE PUSH1 0x20 ADD PUSH3 0x486D PUSH1 0x4C SWAP2 CODECOPY DUP2 MSTORE PUSH1 0x20 ADD PUSH5 0xA96106E5A6 DUP2 MSTORE PUSH1 0x20 ADD PUSH1 0xA PUSH1 0xFF AND DUP2 MSTORE PUSH1 0x20 ADD PUSH1 0x1 PUSH1 0xFF AND DUP2 MSTORE POP DUP2 PUSH0 DUP2 MLOAD DUP2 LT PUSH3 0x1DE JUMPI PUSH3 0x1DD PUSH3 0x2695 JUMP JUMPDEST JUMPDEST PUSH1 0x20 MUL PUSH1 0x20 ADD ADD DUP2 SWAP1 MSTORE POP PUSH1 0x40 MLOAD DUP1 PUSH1 0xC0 ADD PUSH1 0x40 MSTORE DUP1 PUSH1 0x40 MLOAD DUP1 PUSH1 0x40 ADD PUSH1 0x40 MSTORE DUP1 PUSH1 0x11 DUP2 MSTORE PUSH1 0x20 ADD PUSH32 0x4A6167616E204D6F68616E205265646479000000000000000000000000000000 DUP2 MSTORE POP DUP2 MSTORE PUSH1 0x20 ADD PUSH1 0x40 MLOAD DUP1 PUSH1 0x40 ADD PUSH1 0x40 MSTORE DUP1 PUSH1 0x5 DUP2 MSTORE PUSH1 0x20 ADD PUSH32 0x5953524350000000000000000000000000000000000000000000000000000000 DUP2 MSTORE POP DUP2 MSTORE PUSH1 0x20 ADD PUSH1 0x40 MLOAD DUP1 PUSH1 0x80 ADD PUSH1 0x40 MSTORE DUP1 PUSH1 0x4E DUP2 MSTORE PUSH1 0x20 ADD PUSH3 0x46D6 PUSH1 0x4E SWAP2 CODECOPY DUP2 MSTORE PUSH1 0x20 ADD PUSH5 0xC27E5DA76E DUP2 MSTORE PUSH1 0x20 ADD PUSH1 0xA PUSH1 0xFF AND DUP2 MSTORE PUSH1 0x20 ADD PUSH1 0x1 PUSH1 0xFF AND DUP2 MSTORE POP DUP2 PUSH1 0x1 DUP2 MLOAD DUP2 LT PUSH3 0x2BD JUMPI PUSH3 0x2BC PUSH3 0x2695 JUMP JUMPDEST JUMPDEST PUSH1 0x20 MUL PUSH1 0x20 ADD ADD DUP2 SWAP1 MSTORE POP PUSH1 0x40 MLOAD DUP1 PUSH1 0xC0 ADD PUSH1 0x40 MSTORE DUP1 PUSH1 0x40 MLOAD DUP1 PUSH1 0x40 ADD PUSH1 0x40 MSTORE DUP1 PUSH1 0xE DUP2 MSTORE PUSH1 0x20 ADD PUSH32 0x47205620416E6A616E6579756C75000000000000000000000000000000000000 DUP2 MSTORE POP DUP2 MSTORE PUSH1 0x20 ADD PUSH1 0x40 MLOAD DUP1 PUSH1 0x40 ADD PUSH1 0x40 MSTORE DUP1 PUSH1 0x3 DUP2 MSTORE PUSH1 0x20 ADD PUSH32 0x5444500000000000000000000000000000000000000000000000000000000000 DUP2 MSTORE POP DUP2 MSTORE PUSH1 0x20 ADD PUSH1 0x40 MLOAD DUP1 PUSH1 0x80 ADD PUSH1 0x40 MSTORE DUP1 PUSH1 0x4C DUP2 MSTORE PUSH1 0x20 ADD PUSH3 0x486D PUSH1 0x4C SWAP2 CODECOPY DUP2 MSTORE PUSH1 0x20 ADD PUSH5 0xE19F3E55B7 DUP2 MSTORE PUSH1 0x20 ADD PUSH1 0xA PUSH1 0xFF AND DUP2 MSTORE PUSH1 0x20 ADD PUSH1 0x2 PUSH1 0xFF AND DUP2 MSTORE POP DUP2 PUSH1 0x2 DUP2 MLOAD DUP2 LT PUSH3 0x39C JUMPI PUSH3 0x39B PUSH3 0x2695 JUMP JUMPDEST JUMPDEST PUSH1 0x20 MUL PUSH1 0x20 ADD ADD DUP2 SWAP1 MSTORE POP PUSH1 0x40 MLOAD DUP1 PUSH1 0xC0 ADD PUSH1 0x40 MSTORE DUP1 PUSH1 0x40 MLOAD DUP1 PUSH1 0x40 ADD PUSH1 0x40 MSTORE DUP1 PUSH1 0x10 DUP2 MSTORE PUSH1 0x20 ADD PUSH32 0x416E696C204B756D617220596164617600000000000000000000000000000000 DUP2 MSTORE POP DUP2 MSTORE PUSH1 0x20 ADD PUSH1 0x40 MLOAD DUP1 PUSH1 0x40 ADD PUSH1 0x40 MSTORE DUP1 PUSH1 0x5 DUP2 MSTORE PUSH1 0x20 ADD PUSH32 0x5953524350000000000000000000000000000000000000000000000000000000 DUP2 MSTORE POP DUP2 MSTORE PUSH1 0x20 ADD PUSH1 0x40 MLOAD DUP1 PUSH1 0x80 ADD PUSH1 0x40 MSTORE DUP1 PUSH1 0x4E DUP2 MSTORE PUSH1 0x20 ADD PUSH3 0x46D6 PUSH1 0x4E SWAP2 CODECOPY DUP2 MSTORE PUSH1 0x20 ADD PUSH5 0x63F451CCE2 DUP2 MSTORE PUSH1 0x20 ADD PUSH1 0xA PUSH1 0xFF AND DUP2 MSTORE PUSH1 0x20 ADD PUSH1 0x2 PUSH1 0xFF AND DUP2 MSTORE POP DUP2 PUSH1 0x3 DUP2 MLOAD DUP2 LT PUSH3 0x47B JUMPI PUSH3 0x47A PUSH3 0x2695 JUMP JUMPDEST JUMPDEST PUSH1 0x20 MUL PUSH1 0x20 ADD ADD DUP2 SWAP1 MSTORE POP PUSH1 0x40 MLOAD DUP1 PUSH1 0xC0 ADD PUSH1 0x40 MSTORE DUP1 PUSH1 0x40 MLOAD DUP1 PUSH1 0x40 ADD PUSH1 0x40 MSTORE DUP1 PUSH1 0xD DUP2 MSTORE PUSH1 0x20 ADD PUSH32 0x4E6172656E647261204D6F646900000000000000000000000000000000000000 DUP2 MSTORE POP DUP2 MSTORE PUSH1 0x20 ADD PUSH1 0x40 MLOAD DUP1 PUSH1 0x40 ADD PUSH1 0x40 MSTORE DUP1 PUSH1 0x3 DUP2 MSTORE PUSH1 0x20 ADD PUSH32 0x424A500000000000000000000000000000000000000000000000000000000000 DUP2 MSTORE POP DUP2 MSTORE PUSH1 0x20 ADD PUSH1 0x40 MLOAD DUP1 PUSH1 0x80 ADD PUSH1 0x40 MSTORE DUP1 PUSH1 0x4C DUP2 MSTORE PUSH1 0x20 ADD PUSH3 0x4724 PUSH1 0x4C SWAP2 CODECOPY DUP2 MSTORE PUSH1 0x20 ADD PUSH5 0xD077CD0B7D DUP2 MSTORE PUSH1 0x20 ADD PUSH1 0xB PUSH1 0xFF AND DUP2 MSTORE PUSH1 0x20 ADD PUSH1 0x1 PUSH1 0xFF AND DUP2 MSTORE POP DUP2 PUSH1 0x4 DUP2 MLOAD DUP2 LT PUSH3 0x55A JUMPI PUSH3 0x559 PUSH3 0x2695 JUMP JUMPDEST JUMPDEST PUSH1 0x20 MUL PUSH1 0x20 ADD ADD DUP2 SWAP1 MSTORE POP PUSH1 0x40 MLOAD DUP1 PUSH1 0xC0 ADD PUSH1 0x40 MSTORE DUP1 PUSH1 0x40 MLOAD DUP1 PUSH1 0x40 ADD PUSH1 0x40 MSTORE DUP1 PUSH1 0xC DUP2 MSTORE PUSH1 0x20 ADD PUSH32 0x526168756C2047616E6468690000000000000000000000000000000000000000 DUP2 MSTORE POP DUP2 MSTORE PUSH1 0x20 ADD PUSH1 0x40 MLOAD DUP1 PUSH1 0x40 ADD PUSH1 0x40 MSTORE DUP1 PUSH1 0x3 DUP2 MSTORE PUSH1 0x20 ADD PUSH32 0x494E430000000000000000000000000000000000000000000000000000000000 DUP2 MSTORE POP DUP2 MSTORE PUSH1 0x20 ADD PUSH1 0x40 MLOAD DUP1 PUSH1 0x80 ADD PUSH1 0x40 MSTORE DUP1 PUSH1 0x4C DUP2 MSTORE PUSH1 0x20 ADD PUSH3 0x47BC PUSH1 0x4C SWAP2 CODECOPY DUP2 MSTORE PUSH1 0x20 ADD PUSH5 0xCCD999A21C DUP2 MSTORE PUSH1 0x20 ADD PUSH1 0xB PUSH1 0xFF AND DUP2 MSTORE PUSH1 0x20 ADD PUSH1 0x1 PUSH1 0xFF AND DUP2 MSTORE POP DUP2 PUSH1 0x5 DUP2 MLOAD DUP2 LT PUSH3 0x639 JUMPI PUSH3 0x638 PUSH3 0x2695 JUMP JUMPDEST JUMPDEST PUSH1 0x20 MUL PUSH1 0x20 ADD ADD DUP2 SWAP1 MSTORE POP PUSH1 0x40 MLOAD DUP1 PUSH1 0xC0 ADD PUSH1 0x40 MSTORE DUP1 PUSH1 0x40 MLOAD DUP1 PUSH1 0x40 ADD PUSH1 0x40 MSTORE DUP1 PUSH1 0xD DUP2 MSTORE PUSH1 0x20 ADD PUSH32 0x54656A6173776920596164617600000000000000000000000000000000000000 DUP2 MSTORE POP DUP2 MSTORE PUSH1 0x20 ADD PUSH1 0x40 MLOAD DUP1 PUSH1 0x40 ADD PUSH1 0x40 MSTORE DUP1 PUSH1 0x3 DUP2 MSTORE PUSH1 0x20 ADD PUSH32 0x524A440000000000000000000000000000000000000000000000000000000000 DUP2 MSTORE POP DUP2 MSTORE PUSH1 0x20 ADD PUSH1 0x40 MLOAD DUP1 PUSH1 0x80 ADD PUSH1 0x40 MSTORE DUP1 PUSH1 0x5C DUP2 MSTORE PUSH1 0x20 ADD PUSH3 0x467A PUSH1 0x5C SWAP2 CODECOPY DUP2 MSTORE PUSH1 0x20 ADD PUSH5 0xE773CD9AFE DUP2 MSTORE PUSH1 0x20 ADD PUSH1 0xB PUSH1 0xFF AND DUP2 MSTORE PUSH1 0x20 ADD PUSH1 0x1 PUSH1 0xFF AND DUP2 MSTORE POP DUP2 PUSH1 0x6 DUP2 MLOAD DUP2 LT PUSH3 0x718 JUMPI PUSH3 0x717 PUSH3 0x2695 JUMP JUMPDEST JUMPDEST PUSH1 0x20 MUL PUSH1 0x20 ADD ADD DUP2 SWAP1 MSTORE POP PUSH1 0x40 MLOAD DUP1 PUSH1 0xC0 ADD PUSH1 0x40 MSTORE DUP1 PUSH1 0x40 MLOAD DUP1 PUSH1 0x40 ADD PUSH1 0x40 MSTORE DUP1 PUSH1 0xF DUP2 MSTORE PUSH1 0x20 ADD PUSH32 0x417276696E64204B656A726977616C0000000000000000000000000000000000 DUP2 MSTORE POP DUP2 MSTORE PUSH1 0x20 ADD PUSH1 0x40 MLOAD DUP1 PUSH1 0x40 ADD PUSH1 0x40 MSTORE DUP1 PUSH1 0x3 DUP2 MSTORE PUSH1 0x20 ADD PUSH32 0x4141500000000000000000000000000000000000000000000000000000000000 DUP2 MSTORE POP DUP2 MSTORE PUSH1 0x20 ADD PUSH1 0x40 MLOAD DUP1 PUSH1 0x80 ADD PUSH1 0x40 MSTORE DUP1 PUSH1 0x4C DUP2 MSTORE PUSH1 0x20 ADD PUSH3 0x4770 PUSH1 0x4C SWAP2 CODECOPY DUP2 MSTORE PUSH1 0x20 ADD PUSH5 0xBBE6EB29D5 DUP2 MSTORE PUSH1 0x20 ADD PUSH1 0xB PUSH1 0xFF AND DUP2 MSTORE PUSH1 0x20 ADD PUSH1 0x1 PUSH1 0xFF AND DUP2 MSTORE POP DUP2 PUSH1 0x7 DUP2 MLOAD DUP2 LT PUSH3 0x7F7 JUMPI PUSH3 0x7F6 PUSH3 0x2695 JUMP JUMPDEST JUMPDEST PUSH1 0x20 MUL PUSH1 0x20 ADD ADD DUP2 SWAP1 MSTORE POP PUSH1 0x40 MLOAD DUP1 PUSH1 0xC0 ADD PUSH1 0x40 MSTORE DUP1 PUSH1 0x40 MLOAD DUP1 PUSH1 0x40 ADD PUSH1 0x40 MSTORE DUP1 PUSH1 0xA DUP2 MSTORE PUSH1 0x20 ADD PUSH32 0x4A796F7469204261737500000000000000000000000000000000000000000000 DUP2 MSTORE POP DUP2 MSTORE PUSH1 0x20 ADD PUSH1 0x40 MLOAD DUP1 PUSH1 0x40 ADD PUSH1 0x40 MSTORE DUP1 PUSH1 0x4 DUP2 MSTORE PUSH1 0x20 ADD PUSH32 0x4350494D00000000000000000000000000000000000000000000000000000000 DUP2 MSTORE POP DUP2 MSTORE PUSH1 0x20 ADD PUSH1 0x40 MLOAD DUP1 PUSH1 0xA0 ADD PUSH1 0x40 MSTORE DUP1 PUSH1 0x65 DUP2 MSTORE PUSH1 0x20 ADD PUSH3 0x4808 PUSH1 0x65 SWAP2 CODECOPY DUP2 MSTORE PUSH1 0x20 ADD PUSH5 0x8F44420274 DUP2 MSTORE PUSH1 0x20 ADD PUSH1 0xB PUSH1 0xFF AND DUP2 MSTORE PUSH1 0x20 ADD PUSH1 0x1 PUSH1 0xFF AND DUP2 MSTORE POP DUP2 PUSH1 0x8 DUP2 MLOAD DUP2 LT PUSH3 0x8D6 JUMPI PUSH3 0x8D5 PUSH3 0x2695 JUMP JUMPDEST JUMPDEST PUSH1 0x20 MUL PUSH1 0x20 ADD ADD DUP2 SWAP1 MSTORE POP PUSH1 0x40 MLOAD DUP1 PUSH1 0xC0 ADD PUSH1 0x40 MSTORE DUP1 PUSH1 0x40 MLOAD DUP1 PUSH1 0x40 ADD PUSH1 0x40 MSTORE DUP1 PUSH1 0x9 DUP2 MSTORE PUSH1 0x20 ADD PUSH32 0x416D697420536861680000000000000000000000000000000000000000000000 DUP2 MSTORE POP DUP2 MSTORE PUSH1 0x20 ADD PUSH1 0x40 MLOAD DUP1 PUSH1 0x40 ADD PUSH1 0x40 MSTORE DUP1 PUSH1 0x3 DUP2 MSTORE PUSH1 0x20 ADD PUSH32 0x424A500000000000000000000000000000000000000000000000000000000000 DUP2 MSTORE POP DUP2 MSTORE PUSH1 0x20 ADD PUSH1 0x40 MLOAD DUP1 PUSH1 0x80 ADD PUSH1 0x40 MSTORE DUP1 PUSH1 0x4C DUP2 MSTORE PUSH1 0x20 ADD PUSH3 0x4724 PUSH1 0x4C SWAP2 CODECOPY DUP2 MSTORE PUSH1 0x20 ADD PUSH5 0x8E7DDB11C2 DUP2 MSTORE PUSH1 0x20 ADD PUSH1 0xB PUSH1 0xFF AND DUP2 MSTORE PUSH1 0x20 ADD PUSH1 0x2 PUSH1 0xFF AND DUP2 MSTORE POP DUP2 PUSH1 0x9 DUP2 MLOAD DUP2 LT PUSH3 0x9B5 JUMPI PUSH3 0x9B4 PUSH3 0x2695 JUMP JUMPDEST JUMPDEST PUSH1 0x20 MUL PUSH1 0x20 ADD ADD DUP2 SWAP1 MSTORE POP PUSH1 0x40 MLOAD DUP1 PUSH1 0xC0 ADD PUSH1 0x40 MSTORE DUP1 PUSH1 0x40 MLOAD DUP1 PUSH1 0x40 ADD PUSH1 0x40 MSTORE DUP1 PUSH1 0xF DUP2 MSTORE PUSH1 0x20 ADD PUSH32 0x50726979616E6B612047616E6468690000000000000000000000000000000000 DUP2 MSTORE POP DUP2 MSTORE PUSH1 0x20 ADD PUSH1 0x40 MLOAD DUP1 PUSH1 0x40 ADD PUSH1 0x40 MSTORE DUP1 PUSH1 0x3 DUP2 MSTORE PUSH1 0x20 ADD PUSH32 0x494E430000000000000000000000000000000000000000000000000000000000 DUP2 MSTORE POP DUP2 MSTORE PUSH1 0x20 ADD PUSH1 0x40 MLOAD DUP1 PUSH1 0x80 ADD PUSH1 0x40 MSTORE DUP1 PUSH1 0x4C DUP2 MSTORE PUSH1 0x20 ADD PUSH3 0x47BC PUSH1 0x4C SWAP2 CODECOPY DUP2 MSTORE PUSH1 0x20 ADD PUSH5 0xC9C70244B0 DUP2 MSTORE PUSH1 0x20 ADD PUSH1 0xB PUSH1 0xFF AND DUP2 MSTORE PUSH1 0x20 ADD PUSH1 0x2 PUSH1 0xFF AND DUP2 MSTORE POP DUP2 PUSH1 0xA DUP2 MLOAD DUP2 LT PUSH3 0xA94 JUMPI PUSH3 0xA93 PUSH3 0x2695 JUMP JUMPDEST JUMPDEST PUSH1 0x20 MUL PUSH1 0x20 ADD ADD DUP2 SWAP1 MSTORE POP PUSH1 0x40 MLOAD DUP1 PUSH1 0xC0 ADD PUSH1 0x40 MSTORE DUP1 PUSH1 0x40 MLOAD DUP1 PUSH1 0x40 ADD PUSH1 0x40 MSTORE DUP1 PUSH1 0xA DUP2 MSTORE PUSH1 0x20 ADD PUSH32 0x4C616C7520596164617600000000000000000000000000000000000000000000 DUP2 MSTORE POP DUP2 MSTORE PUSH1 0x20 ADD PUSH1 0x40 MLOAD DUP1 PUSH1 0x40 ADD PUSH1 0x40 MSTORE DUP1 PUSH1 0x3 DUP2 MSTORE PUSH1 0x20 ADD PUSH32 0x524A440000000000000000000000000000000000000000000000000000000000 DUP2 MSTORE POP DUP2 MSTORE PUSH1 0x20 ADD PUSH1 0x40 MLOAD DUP1 PUSH1 0x80 ADD PUSH1 0x40 MSTORE DUP1 PUSH1 0x5C DUP2 MSTORE PUSH1 0x20 ADD PUSH3 0x467A PUSH1 0x5C SWAP2 CODECOPY DUP2 MSTORE PUSH1 0x20 ADD PUSH5 0xB248BCB8C1 DUP2 MSTORE PUSH1 0x20 ADD PUSH1 0xB PUSH1 0xFF AND DUP2 MSTORE PUSH1 0x20 ADD PUSH1 0x2 PUSH1 0xFF AND DUP2 MSTORE POP DUP2 PUSH1 0xB DUP2 MLOAD DUP2 LT PUSH3 0xB73 JUMPI PUSH3 0xB72 PUSH3 0x2695 JUMP JUMPDEST JUMPDEST PUSH1 0x20 MUL PUSH1 0x20 ADD ADD DUP2 SWAP1 MSTORE POP PUSH1 0x40 MLOAD DUP1 PUSH1 0xC0 ADD PUSH1 0x40 MSTORE DUP1 PUSH1 0x40 MLOAD DUP1 PUSH1 0x40 ADD PUSH1 0x40 MSTORE DUP1 PUSH1 0xE DUP2 MSTORE PUSH1 0x20 ADD PUSH32 0x4D616E697368205369736F646961000000000000000000000000000000000000 DUP2 MSTORE POP DUP2 MSTORE PUSH1 0x20 ADD PUSH1 0x40 MLOAD DUP1 PUSH1 0x40 ADD PUSH1 0x40 MSTORE DUP1 PUSH1 0x3 DUP2 MSTORE PUSH1 0x20 ADD PUSH32 0x4141500000000000000000000000000000000000000000000000000000000000 DUP2 MSTORE POP DUP2 MSTORE PUSH1 0x20 ADD PUSH1 0x40 MLOAD DUP1 PUSH1 0x80 ADD PUSH1 0x40 MSTORE DUP1 PUSH1 0x4C DUP2 MSTORE PUSH1 0x20 ADD PUSH3 0x4770 PUSH1 0x4C SWAP2 CODECOPY DUP2 MSTORE PUSH1 0x20 ADD PUSH5 0xD10C617254 DUP2 MSTORE PUSH1 0x20 ADD PUSH1 0xB PUSH1 0xFF AND DUP2 MSTORE PUSH1 0x20 ADD PUSH1 0x2 PUSH1 0xFF AND DUP2 MSTORE POP DUP2 PUSH1 0xC DUP2 MLOAD DUP2 LT PUSH3 0xC52 JUMPI PUSH3 0xC51 PUSH3 0x2695 JUMP JUMPDEST JUMPDEST PUSH1 0x20 MUL PUSH1 0x20 ADD ADD DUP2 SWAP1 MSTORE POP PUSH1 0x40 MLOAD DUP1 PUSH1 0xC0 ADD PUSH1 0x40 MSTORE DUP1 PUSH1 0x40 MLOAD DUP1 PUSH1 0x40 ADD PUSH1 0x40 MSTORE DUP1 PUSH1 0xD DUP2 MSTORE PUSH1 0x20 ADD PUSH32 0x5072616B617368204B6172617400000000000000000000000000000000000000 DUP2 MSTORE POP DUP2 MSTORE PUSH1 0x20 ADD PUSH1 0x40 MLOAD DUP1 PUSH1 0x40 ADD PUSH1 0x40 MSTORE DUP1 PUSH1 0x4 DUP2 MSTORE PUSH1 0x20 ADD PUSH32 0x4350494D00000000000000000000000000000000000000000000000000000000 DUP2 MSTORE POP DUP2 MSTORE PUSH1 0x20 ADD PUSH1 0x40 MLOAD DUP1 PUSH1 0xA0 ADD PUSH1 0x40 MSTORE DUP1 PUSH1 0x65 DUP2 MSTORE PUSH1 0x20 ADD PUSH3 0x4808 PUSH1 0x65 SWAP2 CODECOPY DUP2 MSTORE PUSH1 0x20 ADD PUSH5 0x6BFB1A2626 DUP2 MSTORE PUSH1 0x20 ADD PUSH1 0xB PUSH1 0xFF AND DUP2 MSTORE PUSH1 0x20 ADD PUSH1 0x2 PUSH1 0xFF AND DUP2 MSTORE POP DUP2 PUSH1 0xD DUP2 MLOAD DUP2 LT PUSH3 0xD31 JUMPI PUSH3 0xD30 PUSH3 0x2695 JUMP JUMPDEST JUMPDEST PUSH1 0x20 MUL PUSH1 0x20 ADD ADD DUP2 SWAP1 MSTORE POP PUSH0 JUMPDEST DUP2 MLOAD DUP2 LT ISZERO PUSH3 0xF1A JUMPI DUP2 DUP2 DUP2 MLOAD DUP2 LT PUSH3 0xD5E JUMPI PUSH3 0xD5D PUSH3 0x2695 JUMP JUMPDEST JUMPDEST PUSH1 0x20 MUL PUSH1 0x20 ADD ADD MLOAD PUSH1 0x2 PUSH0 DUP5 DUP5 DUP2 MLOAD DUP2 LT PUSH3 0xD7F JUMPI PUSH3 0xD7E PUSH3 0x2695 JUMP JUMPDEST JUMPDEST PUSH1 0x20 MUL PUSH1 0x20 ADD ADD MLOAD PUSH1 0x60 ADD MLOAD DUP2 MSTORE PUSH1 0x20 ADD SWAP1 DUP2 MSTORE PUSH1 0x20 ADD PUSH0 KECCAK256 PUSH0 DUP3 ADD MLOAD DUP2 PUSH0 ADD SWAP1 DUP2 PUSH3 0xDAD SWAP2 SWAP1 PUSH3 0x28F0 JUMP JUMPDEST POP PUSH1 0x20 DUP3 ADD MLOAD DUP2 PUSH1 0x1 ADD SWAP1 DUP2 PUSH3 0xDC5 SWAP2 SWAP1 PUSH3 0x28F0 JUMP JUMPDEST POP PUSH1 0x40 DUP3 ADD MLOAD DUP2 PUSH1 0x2 ADD SWAP1 DUP2 PUSH3 0xDDD SWAP2 SWAP1 PUSH3 0x28F0 JUMP JUMPDEST POP PUSH1 0x60 DUP3 ADD MLOAD DUP2 PUSH1 0x3 ADD SSTORE PUSH1 0x80 DUP3 ADD MLOAD DUP2 PUSH1 0x4 ADD PUSH0 PUSH2 0x100 EXP DUP2 SLOAD DUP2 PUSH1 0xFF MUL NOT AND SWAP1 DUP4 PUSH1 0xFF AND MUL OR SWAP1 SSTORE POP PUSH1 0xA0 DUP3 ADD MLOAD DUP2 PUSH1 0x4 ADD PUSH1 0x1 PUSH2 0x100 EXP DUP2 SLOAD DUP2 PUSH1 0xFF MUL NOT AND SWAP1 DUP4 PUSH1 0xFF AND MUL OR SWAP1 SSTORE POP SWAP1 POP POP PUSH0 DUP3 DUP3 DUP2 MLOAD DUP2 LT PUSH3 0xE43 JUMPI PUSH3 0xE42 PUSH3 0x2695 JUMP JUMPDEST JUMPDEST PUSH1 0x20 MUL PUSH1 0x20 ADD ADD MLOAD SWAP1 DUP1 PUSH1 0x1 DUP2 SLOAD ADD DUP1 DUP3 SSTORE DUP1 SWAP2 POP POP PUSH1 0x1 SWAP1 SUB SWAP1 PUSH0 MSTORE PUSH1 0x20 PUSH0 KECCAK256 SWAP1 PUSH1 0x5 MUL ADD PUSH0 SWAP1 SWAP2 SWAP1 SWAP2 SWAP1 SWAP2 POP PUSH0 DUP3 ADD MLOAD DUP2 PUSH0 ADD SWAP1 DUP2 PUSH3 0xE86 SWAP2 SWAP1 PUSH3 0x28F0 JUMP JUMPDEST POP PUSH1 0x20 DUP3 ADD MLOAD DUP2 PUSH1 0x1 ADD SWAP1 DUP2 PUSH3 0xE9E SWAP2 SWAP1 PUSH3 0x28F0 JUMP JUMPDEST POP PUSH1 0x40 DUP3 ADD MLOAD DUP2 PUSH1 0x2 ADD SWAP1 DUP2 PUSH3 0xEB6 SWAP2 SWAP1 PUSH3 0x28F0 JUMP JUMPDEST POP PUSH1 0x60 DUP3 ADD MLOAD DUP2 PUSH1 0x3 ADD SSTORE PUSH1 0x80 DUP3 ADD MLOAD DUP2 PUSH1 0x4 ADD PUSH0 PUSH2 0x100 EXP DUP2 SLOAD DUP2 PUSH1 0xFF MUL NOT AND SWAP1 DUP4 PUSH1 0xFF AND MUL OR SWAP1 SSTORE POP PUSH1 0xA0 DUP3 ADD MLOAD DUP2 PUSH1 0x4 ADD PUSH1 0x1 PUSH2 0x100 EXP DUP2 SLOAD DUP2 PUSH1 0xFF MUL NOT AND SWAP1 DUP4 PUSH1 0xFF AND MUL OR SWAP1 SSTORE POP POP POP DUP1 DUP1 PUSH3 0xF11 SWAP1 PUSH3 0x2A01 JUMP JUMPDEST SWAP2 POP POP PUSH3 0xD3E JUMP JUMPDEST POP POP JUMP JUMPDEST PUSH1 0x40 MLOAD DUP1 PUSH1 0xE0 ADD PUSH1 0x40 MSTORE DUP1 PUSH5 0x704892D024 DUP2 MSTORE PUSH1 0x20 ADD PUSH1 0x40 MLOAD DUP1 PUSH1 0x40 ADD PUSH1 0x40 MSTORE DUP1 PUSH1 0x6 DUP2 MSTORE PUSH1 0x20 ADD PUSH32 0x5375726573680000000000000000000000000000000000000000000000000000 DUP2 MSTORE POP DUP2 MSTORE PUSH1 0x20 ADD PUSH1 0x15 PUSH1 0xFF AND DUP2 MSTORE PUSH1 0x20 ADD PUSH1 0xA PUSH1 0xFF AND DUP2 MSTORE PUSH1 0x20 ADD PUSH1 0x1 PUSH1 0xFF AND DUP2 MSTORE PUSH1 0x20 ADD PUSH1 0x1 ISZERO ISZERO DUP2 MSTORE PUSH1 0x20 ADD PUSH0 DUP2 MSTORE POP PUSH1 0x1 PUSH0 PUSH5 0x704892D024 DUP2 MSTORE PUSH1 0x20 ADD SWAP1 DUP2 MSTORE PUSH1 0x20 ADD PUSH0 KECCAK256 PUSH0 DUP3 ADD MLOAD DUP2 PUSH0 ADD SSTORE PUSH1 0x20 DUP3 ADD MLOAD DUP2 PUSH1 0x1 ADD SWAP1 DUP2 PUSH3 0xFCF SWAP2 SWAP1 PUSH3 0x28F0 JUMP JUMPDEST POP PUSH1 0x40 DUP3 ADD MLOAD DUP2 PUSH1 0x2 ADD PUSH0 PUSH2 0x100 EXP DUP2 SLOAD DUP2 PUSH1 0xFF MUL NOT AND SWAP1 DUP4 PUSH1 0xFF AND MUL OR SWAP1 SSTORE POP PUSH1 0x60 DUP3 ADD MLOAD DUP2 PUSH1 0x2 ADD PUSH1 0x1 PUSH2 0x100 EXP DUP2 SLOAD DUP2 PUSH1 0xFF MUL NOT AND SWAP1 DUP4 PUSH1 0xFF AND MUL OR SWAP1 SSTORE POP PUSH1 0x80 DUP3 ADD MLOAD DUP2 PUSH1 0x2 ADD PUSH1 0x2 PUSH2 0x100 EXP DUP2 SLOAD DUP2 PUSH1 0xFF MUL NOT AND SWAP1 DUP4 PUSH1 0xFF AND MUL OR SWAP1 SSTORE POP PUSH1 0xA0 DUP3 ADD MLOAD DUP2 PUSH1 0x2 ADD PUSH1 0x3 PUSH2 0x100 EXP DUP2 SLOAD DUP2 PUSH1 0xFF MUL NOT AND SWAP1 DUP4 ISZERO ISZERO MUL OR SWAP1 SSTORE POP PUSH1 0xC0 DUP3 ADD MLOAD DUP2 PUSH1 0x3 ADD SSTORE SWAP1 POP POP PUSH1 0x40 MLOAD DUP1 PUSH1 0xE0 ADD PUSH1 0x40 MSTORE DUP1 PUSH5 0x7BE4F5771B DUP2 MSTORE PUSH1 0x20 ADD PUSH1 0x40 MLOAD DUP1 PUSH1 0x40 ADD PUSH1 0x40 MSTORE DUP1 PUSH1 0x6 DUP2 MSTORE PUSH1 0x20 ADD PUSH32 0x52616D6573680000000000000000000000000000000000000000000000000000 DUP2 MSTORE POP DUP2 MSTORE PUSH1 0x20 ADD PUSH1 0x25 PUSH1 0xFF AND DUP2 MSTORE PUSH1 0x20 ADD PUSH1 0xA PUSH1 0xFF AND DUP2 MSTORE PUSH1 0x20 ADD PUSH1 0x1 PUSH1 0xFF AND DUP2 MSTORE PUSH1 0x20 ADD PUSH0 ISZERO ISZERO DUP2 MSTORE PUSH1 0x20 ADD PUSH0 DUP2 MSTORE POP PUSH1 0x1 PUSH0 PUSH5 0x7BE4F5771B DUP2 MSTORE PUSH1 0x20 ADD SWAP1 DUP2 MSTORE PUSH1 0x20 ADD PUSH0 KECCAK256 PUSH0 DUP3 ADD MLOAD DUP2 PUSH0 ADD SSTORE PUSH1 0x20 DUP3 ADD MLOAD DUP2 PUSH1 0x1 ADD SWAP1 DUP2 PUSH3 0x110F SWAP2 SWAP1 PUSH3 0x28F0 JUMP JUMPDEST POP PUSH1 0x40 DUP3 ADD MLOAD DUP2 PUSH1 0x2 ADD PUSH0 PUSH2 0x100 EXP DUP2 SLOAD DUP2 PUSH1 0xFF MUL NOT AND SWAP1 DUP4 PUSH1 0xFF AND MUL OR SWAP1 SSTORE POP PUSH1 0x60 DUP3 ADD MLOAD DUP2 PUSH1 0x2 ADD PUSH1 0x1 PUSH2 0x100 EXP DUP2 SLOAD DUP2 PUSH1 0xFF MUL NOT AND SWAP1 DUP4 PUSH1 0xFF AND MUL OR SWAP1 SSTORE POP PUSH1 0x80 DUP3 ADD MLOAD DUP2 PUSH1 0x2 ADD PUSH1 0x2 PUSH2 0x100 EXP DUP2 SLOAD DUP2 PUSH1 0xFF MUL NOT AND SWAP1 DUP4 PUSH1 0xFF AND MUL OR SWAP1 SSTORE POP PUSH1 0xA0 DUP3 ADD MLOAD DUP2 PUSH1 0x2 ADD PUSH1 0x3 PUSH2 0x100 EXP DUP2 SLOAD DUP2 PUSH1 0xFF MUL NOT AND SWAP1 DUP4 ISZERO ISZERO MUL OR SWAP1 SSTORE POP PUSH1 0xC0 DUP3 ADD MLOAD DUP2 PUSH1 0x3 ADD SSTORE SWAP1 POP POP PUSH1 0x40 MLOAD DUP1 PUSH1 0xE0 ADD PUSH1 0x40 MSTORE DUP1 PUSH5 0x6CFAE753FE DUP2 MSTORE PUSH1 0x20 ADD PUSH1 0x40 MLOAD DUP1 PUSH1 0x40 ADD PUSH1 0x40 MSTORE DUP1 PUSH1 0x6 DUP2 MSTORE PUSH1 0x20 ADD PUSH32 0x4D61686573680000000000000000000000000000000000000000000000000000 DUP2 MSTORE POP DUP2 MSTORE PUSH1 0x20 ADD PUSH1 0x1A PUSH1 0xFF AND DUP2 MSTORE PUSH1 0x20 ADD PUSH1 0xA PUSH1 0xFF AND DUP2 MSTORE PUSH1 0x20 ADD PUSH1 0x1 PUSH1 0xFF AND DUP2 MSTORE PUSH1 0x20 ADD PUSH1 0x1 ISZERO ISZERO DUP2 MSTORE PUSH1 0x20 ADD PUSH0 DUP2 MSTORE POP PUSH1 0x1 PUSH0 PUSH5 0x6CFAE753FE DUP2 MSTORE PUSH1 0x20 ADD SWAP1 DUP2 MSTORE PUSH1 0x20 ADD PUSH0 KECCAK256 PUSH0 DUP3 ADD MLOAD DUP2 PUSH0 ADD SSTORE PUSH1 0x20 DUP3 ADD MLOAD DUP2 PUSH1 0x1 ADD SWAP1 DUP2 PUSH3 0x1250 SWAP2 SWAP1 PUSH3 0x28F0 JUMP JUMPDEST POP PUSH1 0x40 DUP3 ADD MLOAD DUP2 PUSH1 0x2 ADD PUSH0 PUSH2 0x100 EXP DUP2 SLOAD DUP2 PUSH1 0xFF MUL NOT AND SWAP1 DUP4 PUSH1 0xFF AND MUL OR SWAP1 SSTORE POP PUSH1 0x60 DUP3 ADD MLOAD DUP2 PUSH1 0x2 ADD PUSH1 0x1 PUSH2 0x100 EXP DUP2 SLOAD DUP2 PUSH1 0xFF MUL NOT AND SWAP1 DUP4 PUSH1 0xFF AND MUL OR SWAP1 SSTORE POP PUSH1 0x80 DUP3 ADD MLOAD DUP2 PUSH1 0x2 ADD PUSH1 0x2 PUSH2 0x100 EXP DUP2 SLOAD DUP2 PUSH1 0xFF MUL NOT AND SWAP1 DUP4 PUSH1 0xFF AND MUL OR SWAP1 SSTORE POP PUSH1 0xA0 DUP3 ADD MLOAD DUP2 PUSH1 0x2 ADD PUSH1 0x3 PUSH2 0x100 EXP DUP2 SLOAD DUP2 PUSH1 0xFF MUL NOT AND SWAP1 DUP4 ISZERO ISZERO MUL OR SWAP1 SSTORE POP PUSH1 0xC0 DUP3 ADD MLOAD DUP2 PUSH1 0x3 ADD SSTORE SWAP1 POP POP PUSH1 0x40 MLOAD DUP1 PUSH1 0xE0 ADD PUSH1 0x40 MSTORE DUP1 PUSH5 0xBC95724C2D DUP2 MSTORE PUSH1 0x20 ADD PUSH1 0x40 MLOAD DUP1 PUSH1 0x40 ADD PUSH1 0x40 MSTORE DUP1 PUSH1 0x7 DUP2 MSTORE PUSH1 0x20 ADD PUSH32 0x4B726973686E6100000000000000000000000000000000000000000000000000 DUP2 MSTORE POP DUP2 MSTORE PUSH1 0x20 ADD PUSH1 0x13 PUSH1 0xFF AND DUP2 MSTORE PUSH1 0x20 ADD PUSH1 0xA PUSH1 0xFF AND DUP2 MSTORE PUSH1 0x20 ADD PUSH1 0x2 PUSH1 0xFF AND DUP2 MSTORE PUSH1 0x20 ADD PUSH1 0x1 ISZERO ISZERO DUP2 MSTORE PUSH1 0x20 ADD PUSH0 DUP2 MSTORE POP PUSH1 0x1 PUSH0 PUSH5 0xBC95724C2D DUP2 MSTORE PUSH1 0x20 ADD SWAP1 DUP2 MSTORE PUSH1 0x20 ADD PUSH0 KECCAK256 PUSH0 DUP3 ADD MLOAD DUP2 PUSH0 ADD SSTORE PUSH1 0x20 DUP3 ADD MLOAD DUP2 PUSH1 0x1 ADD SWAP1 DUP2 PUSH3 0x1391 SWAP2 SWAP1 PUSH3 0x28F0 JUMP JUMPDEST POP PUSH1 0x40 DUP3 ADD MLOAD DUP2 PUSH1 0x2 ADD PUSH0 PUSH2 0x100 EXP DUP2 SLOAD DUP2 PUSH1 0xFF MUL NOT AND SWAP1 DUP4 PUSH1 0xFF AND MUL OR SWAP1 SSTORE POP PUSH1 0x60 DUP3 ADD MLOAD DUP2 PUSH1 0x2 ADD PUSH1 0x1 PUSH2 0x100 EXP DUP2 SLOAD DUP2 PUSH1 0xFF MUL NOT AND SWAP1 DUP4 PUSH1 0xFF AND MUL OR SWAP1 SSTORE POP PUSH1 0x80 DUP3 ADD MLOAD DUP2 PUSH1 0x2 ADD PUSH1 0x2 PUSH2 0x100 EXP DUP2 SLOAD DUP2 PUSH1 0xFF MUL NOT AND SWAP1 DUP4 PUSH1 0xFF AND MUL OR SWAP1 SSTORE POP PUSH1 0xA0 DUP3 ADD MLOAD DUP2 PUSH1 0x2 ADD PUSH1 0x3 PUSH2 0x100 EXP DUP2 SLOAD DUP2 PUSH1 0xFF MUL NOT AND SWAP1 DUP4 ISZERO ISZERO MUL OR SWAP1 SSTORE POP PUSH1 0xC0 DUP3 ADD MLOAD DUP2 PUSH1 0x3 ADD SSTORE SWAP1 POP POP PUSH1 0x40 MLOAD DUP1 PUSH1 0xE0 ADD PUSH1 0x40 MSTORE DUP1 PUSH5 0xD38E2FD0D6 DUP2 MSTORE PUSH1 0x20 ADD PUSH1 0x40 MLOAD DUP1 PUSH1 0x40 ADD PUSH1 0x40 MSTORE DUP1 PUSH1 0x8 DUP2 MSTORE PUSH1 0x20 ADD PUSH32 0x4E6172656E647261000000000000000000000000000000000000000000000000 DUP2 MSTORE POP DUP2 MSTORE PUSH1 0x20 ADD PUSH1 0x24 PUSH1 0xFF AND DUP2 MSTORE PUSH1 0x20 ADD PUSH1 0xA PUSH1 0xFF AND DUP2 MSTORE PUSH1 0x20 ADD PUSH1 0x2 PUSH1 0xFF AND DUP2 MSTORE PUSH1 0x20 ADD PUSH1 0x1 ISZERO ISZERO DUP2 MSTORE PUSH1 0x20 ADD PUSH0 DUP2 MSTORE POP PUSH1 0x1 PUSH0 PUSH5 0xD38E2FD0D6 DUP2 MSTORE PUSH1 0x20 ADD SWAP1 DUP2 MSTORE PUSH1 0x20 ADD PUSH0 KECCAK256 PUSH0 DUP3 ADD MLOAD DUP2 PUSH0 ADD SSTORE PUSH1 0x20 DUP3 ADD MLOAD DUP2 PUSH1 0x1 ADD SWAP1 DUP2 PUSH3 0x14D2 SWAP2 SWAP1 PUSH3 0x28F0 JUMP JUMPDEST POP PUSH1 0x40 DUP3 ADD MLOAD DUP2 PUSH1 0x2 ADD PUSH0 PUSH2 0x100 EXP DUP2 SLOAD DUP2 PUSH1 0xFF MUL NOT AND SWAP1 DUP4 PUSH1 0xFF AND MUL OR SWAP1 SSTORE POP PUSH1 0x60 DUP3 ADD MLOAD DUP2 PUSH1 0x2 ADD PUSH1 0x1 PUSH2 0x100 EXP DUP2 SLOAD DUP2 PUSH1 0xFF MUL NOT AND SWAP1 DUP4 PUSH1 0xFF AND MUL OR SWAP1 SSTORE POP PUSH1 0x80 DUP3 ADD MLOAD DUP2 PUSH1 0x2 ADD PUSH1 0x2 PUSH2 0x100 EXP DUP2 SLOAD DUP2 PUSH1 0xFF MUL NOT AND SWAP1 DUP4 PUSH1 0xFF AND MUL OR SWAP1 SSTORE POP PUSH1 0xA0 DUP3 ADD MLOAD DUP2 PUSH1 0x2 ADD PUSH1 0x3 PUSH2 0x100 EXP DUP2 SLOAD DUP2 PUSH1 0xFF MUL NOT AND SWAP1 DUP4 ISZERO ISZERO MUL OR SWAP1 SSTORE POP PUSH1 0xC0 DUP3 ADD MLOAD DUP2 PUSH1 0x3 ADD SSTORE SWAP1 POP POP PUSH1 0x40 MLOAD DUP1 PUSH1 0xE0 ADD PUSH1 0x40 MSTORE DUP1 PUSH5 0xB1081230BF DUP2 MSTORE PUSH1 0x20 ADD PUSH1 0x40 MLOAD DUP1 PUSH1 0x40 ADD PUSH1 0x40 MSTORE DUP1 PUSH1 0x5 DUP2 MSTORE PUSH1 0x20 ADD PUSH32 0x5261676875000000000000000000000000000000000000000000000000000000 DUP2 MSTORE POP DUP2 MSTORE PUSH1 0x20 ADD PUSH1 0x2A PUSH1 0xFF AND DUP2 MSTORE PUSH1 0x20 ADD PUSH1 0xA PUSH1 0xFF AND DUP2 MSTORE PUSH1 0x20 ADD PUSH1 0x2 PUSH1 0xFF AND DUP2 MSTORE PUSH1 0x20 ADD PUSH1 0x1 ISZERO ISZERO DUP2 MSTORE PUSH1 0x20 ADD PUSH0 DUP2 MSTORE POP PUSH1 0x1 PUSH0 PUSH5 0xB1081230BF DUP2 MSTORE PUSH1 0x20 ADD SWAP1 DUP2 MSTORE PUSH1 0x20 ADD PUSH0 KECCAK256 PUSH0 DUP3 ADD MLOAD DUP2 PUSH0 ADD SSTORE PUSH1 0x20 DUP3 ADD MLOAD DUP2 PUSH1 0x1 ADD SWAP1 DUP2 PUSH3 0x1613 SWAP2 SWAP1 PUSH3 0x28F0 JUMP JUMPDEST POP PUSH1 0x40 DUP3 ADD MLOAD DUP2 PUSH1 0x2 ADD PUSH0 PUSH2 0x100 EXP DUP2 SLOAD DUP2 PUSH1 0xFF MUL NOT AND SWAP1 DUP4 PUSH1 0xFF AND MUL OR SWAP1 SSTORE POP PUSH1 0x60 DUP3 ADD MLOAD DUP2 PUSH1 0x2 ADD PUSH1 0x1 PUSH2 0x100 EXP DUP2 SLOAD DUP2 PUSH1 0xFF MUL NOT AND SWAP1 DUP4 PUSH1 0xFF AND MUL OR SWAP1 SSTORE POP PUSH1 0x80 DUP3 ADD MLOAD DUP2 PUSH1 0x2 ADD PUSH1 0x2 PUSH2 0x100 EXP DUP2 SLOAD DUP2 PUSH1 0xFF MUL NOT AND SWAP1 DUP4 PUSH1 0xFF AND MUL OR SWAP1 SSTORE POP PUSH1 0xA0 DUP3 ADD MLOAD DUP2 PUSH1 0x2 ADD PUSH1 0x3 PUSH2 0x100 EXP DUP2 SLOAD DUP2 PUSH1 0xFF MUL NOT AND SWAP1 DUP4 ISZERO ISZERO MUL OR SWAP1 SSTORE POP PUSH1 0xC0 DUP3 ADD MLOAD DUP2 PUSH1 0x3 ADD SSTORE SWAP1 POP POP PUSH1 0x40 MLOAD DUP1 PUSH1 0xE0 ADD PUSH1 0x40 MSTORE DUP1 PUSH5 0xD392FD0CE6 DUP2 MSTORE PUSH1 0x20 ADD PUSH1 0x40 MLOAD DUP1 PUSH1 0x40 ADD PUSH1 0x40 MSTORE DUP1 PUSH1 0xD DUP2 MSTORE PUSH1 0x20 ADD PUSH32 0x507573686B6172204B756D617200000000000000000000000000000000000000 DUP2 MSTORE POP DUP2 MSTORE PUSH1 0x20 ADD PUSH1 0x19 PUSH1 0xFF AND DUP2 MSTORE PUSH1 0x20 ADD PUSH1 0xB PUSH1 0xFF AND DUP2 MSTORE PUSH1 0x20 ADD PUSH1 0x1 PUSH1 0xFF AND DUP2 MSTORE PUSH1 0x20 ADD PUSH1 0x1 ISZERO ISZERO DUP2 MSTORE PUSH1 0x20 ADD PUSH0 DUP2 MSTORE POP PUSH1 0x1 PUSH0 PUSH5 0xD392FD0CE6 DUP2 MSTORE PUSH1 0x20 ADD SWAP1 DUP2 MSTORE PUSH1 0x20 ADD PUSH0 KECCAK256 PUSH0 DUP3 ADD MLOAD DUP2 PUSH0 ADD SSTORE PUSH1 0x20 DUP3 ADD MLOAD DUP2 PUSH1 0x1 ADD SWAP1 DUP2 PUSH3 0x1754 SWAP2 SWAP1 PUSH3 0x28F0 JUMP JUMPDEST POP PUSH1 0x40 DUP3 ADD MLOAD DUP2 PUSH1 0x2 ADD PUSH0 PUSH2 0x100 EXP DUP2 SLOAD DUP2 PUSH1 0xFF MUL NOT AND SWAP1 DUP4 PUSH1 0xFF AND MUL OR SWAP1 SSTORE POP PUSH1 0x60 DUP3 ADD MLOAD DUP2 PUSH1 0x2 ADD PUSH1 0x1 PUSH2 0x100 EXP DUP2 SLOAD DUP2 PUSH1 0xFF MUL NOT AND SWAP1 DUP4 PUSH1 0xFF AND MUL OR SWAP1 SSTORE POP PUSH1 0x80 DUP3 ADD MLOAD DUP2 PUSH1 0x2 ADD PUSH1 0x2 PUSH2 0x100 EXP DUP2 SLOAD DUP2 PUSH1 0xFF MUL NOT AND SWAP1 DUP4 PUSH1 0xFF AND MUL OR SWAP1 SSTORE POP PUSH1 0xA0 DUP3 ADD MLOAD DUP2 PUSH1 0x2 ADD PUSH1 0x3 PUSH2 0x100 EXP DUP2 SLOAD DUP2 PUSH1 0xFF MUL NOT AND SWAP1 DUP4 ISZERO ISZERO MUL OR SWAP1 SSTORE POP PUSH1 0xC0 DUP3 ADD MLOAD DUP2 PUSH1 0x3 ADD SSTORE SWAP1 POP POP PUSH1 0x40 MLOAD DUP1 PUSH1 0xE0 ADD PUSH1 0x40 MSTORE DUP1 PUSH5 0xB55B936244 DUP2 MSTORE PUSH1 0x20 ADD PUSH1 0x40 MLOAD DUP1 PUSH1 0x40 ADD PUSH1 0x40 MSTORE DUP1 PUSH1 0xB DUP2 MSTORE PUSH1 0x20 ADD PUSH32 0x4B756E616C204B756D6172000000000000000000000000000000000000000000 DUP2 MSTORE POP DUP2 MSTORE PUSH1 0x20 ADD PUSH1 0x25 PUSH1 0xFF AND DUP2 MSTORE PUSH1 0x20 ADD PUSH1 0xB PUSH1 0xFF AND DUP2 MSTORE PUSH1 0x20 ADD PUSH1 0x1 PUSH1 0xFF AND DUP2 MSTORE PUSH1 0x20 ADD PUSH1 0x1 ISZERO ISZERO DUP2 MSTORE PUSH1 0x20 ADD PUSH0 DUP2 MSTORE POP PUSH1 0x1 PUSH0 PUSH5 0xB55B936244 DUP2 MSTORE PUSH1 0x20 ADD SWAP1 DUP2 MSTORE PUSH1 0x20 ADD PUSH0 KECCAK256 PUSH0 DUP3 ADD MLOAD DUP2 PUSH0 ADD SSTORE PUSH1 0x20 DUP3 ADD MLOAD DUP2 PUSH1 0x1 ADD SWAP1 DUP2 PUSH3 0x1895 SWAP2 SWAP1 PUSH3 0x28F0 JUMP JUMPDEST POP PUSH1 0x40 DUP3 ADD MLOAD DUP2 PUSH1 0x2 ADD PUSH0 PUSH2 0x100 EXP DUP2 SLOAD DUP2 PUSH1 0xFF MUL NOT AND SWAP1 DUP4 PUSH1 0xFF AND MUL OR SWAP1 SSTORE POP PUSH1 0x60 DUP3 ADD MLOAD DUP2 PUSH1 0x2 ADD PUSH1 0x1 PUSH2 0x100 EXP DUP2 SLOAD DUP2 PUSH1 0xFF MUL NOT AND SWAP1 DUP4 PUSH1 0xFF AND MUL OR SWAP1 SSTORE POP PUSH1 0x80 DUP3 ADD MLOAD DUP2 PUSH1 0x2 ADD PUSH1 0x2 PUSH2 0x100 EXP DUP2 SLOAD DUP2 PUSH1 0xFF MUL NOT AND SWAP1 DUP4 PUSH1 0xFF AND MUL OR SWAP1 SSTORE POP PUSH1 0xA0 DUP3 ADD MLOAD DUP2 PUSH1 0x2 ADD PUSH1 0x3 PUSH2 0x100 EXP DUP2 SLOAD DUP2 PUSH1 0xFF MUL NOT AND SWAP1 DUP4 ISZERO ISZERO MUL OR SWAP1 SSTORE POP PUSH1 0xC0 DUP3 ADD MLOAD DUP2 PUSH1 0x3 ADD SSTORE SWAP1 POP POP PUSH1 0x40 MLOAD DUP1 PUSH1 0xE0 ADD PUSH1 0x40 MSTORE DUP1 PUSH5 0x5B84E787E7 DUP2 MSTORE PUSH1 0x20 ADD PUSH1 0x40 MLOAD DUP1 PUSH1 0x40 ADD PUSH1 0x40 MSTORE DUP1 PUSH1 0xC DUP2 MSTORE PUSH1 0x20 ADD PUSH32 0x4B756D61722053616E6B65740000000000000000000000000000000000000000 DUP2 MSTORE POP DUP2 MSTORE PUSH1 0x20 ADD PUSH1 0x1D PUSH1 0xFF AND DUP2 MSTORE PUSH1 0x20 ADD PUSH1 0xB PUSH1 0xFF AND DUP2 MSTORE PUSH1 0x20 ADD PUSH1 0x2 PUSH1 0xFF AND DUP2 MSTORE PUSH1 0x20 ADD PUSH1 0x1 ISZERO ISZERO DUP2 MSTORE PUSH1 0x20 ADD PUSH0 DUP2 MSTORE POP PUSH1 0x1 PUSH0 PUSH5 0x5B84E787E7 DUP2 MSTORE PUSH1 0x20 ADD SWAP1 DUP2 MSTORE PUSH1 0x20 ADD PUSH0 KECCAK256 PUSH0 DUP3 ADD MLOAD DUP2 PUSH0 ADD SSTORE PUSH1 0x20 DUP3 ADD MLOAD DUP2 PUSH1 0x1 ADD SWAP1 DUP2 PUSH3 0x19D6 SWAP2 SWAP1 PUSH3 0x28F0 JUMP JUMPDEST POP PUSH1 0x40 DUP3 ADD MLOAD DUP2 PUSH1 0x2 ADD PUSH0 PUSH2 0x100 EXP DUP2 SLOAD DUP2 PUSH1 0xFF MUL NOT AND SWAP1 DUP4 PUSH1 0xFF AND MUL OR SWAP1 SSTORE POP PUSH1 0x60 DUP3 ADD MLOAD DUP2 PUSH1 0x2 ADD PUSH1 0x1 PUSH2 0x100 EXP DUP2 SLOAD DUP2 PUSH1 0xFF MUL NOT AND SWAP1 DUP4 PUSH1 0xFF AND MUL OR SWAP1 SSTORE POP PUSH1 0x80 DUP3 ADD MLOAD DUP2 PUSH1 0x2 ADD PUSH1 0x2 PUSH2 0x100 EXP DUP2 SLOAD DUP2 PUSH1 0xFF MUL NOT AND SWAP1 DUP4 PUSH1 0xFF AND MUL OR SWAP1 SSTORE POP PUSH1 0xA0 DUP3 ADD MLOAD DUP2 PUSH1 0x2 ADD PUSH1 0x3 PUSH2 0x100 EXP DUP2 SLOAD DUP2 PUSH1 0xFF MUL NOT AND SWAP1 DUP4 ISZERO ISZERO MUL OR SWAP1 SSTORE POP PUSH1 0xC0 DUP3 ADD MLOAD DUP2 PUSH1 0x3 ADD SSTORE SWAP1 POP POP PUSH1 0x40 MLOAD DUP1 PUSH1 0xE0 ADD PUSH1 0x40 MSTORE DUP1 PUSH5 0xE513ECA331 DUP2 MSTORE PUSH1 0x20 ADD PUSH1 0x40 MLOAD DUP1 PUSH1 0x40 ADD PUSH1 0x40 MSTORE DUP1 PUSH1 0x6 DUP2 MSTORE PUSH1 0x20 ADD PUSH32 0x50726174696B0000000000000000000000000000000000000000000000000000 DUP2 MSTORE POP DUP2 MSTORE PUSH1 0x20 ADD PUSH1 0x28 PUSH1 0xFF AND DUP2 MSTORE PUSH1 0x20 ADD PUSH1 0xB PUSH1 0xFF AND DUP2 MSTORE PUSH1 0x20 ADD PUSH1 0x2 PUSH1 0xFF AND DUP2 MSTORE PUSH1 0x20 ADD PUSH1 0x1 ISZERO ISZERO DUP2 MSTORE PUSH1 0x20 ADD PUSH0 DUP2 MSTORE POP PUSH1 0x1 PUSH0 PUSH5 0xE513ECA331 DUP2 MSTORE PUSH1 0x20 ADD SWAP1 DUP2 MSTORE PUSH1 0x20 ADD PUSH0 KECCAK256 PUSH0 DUP3 ADD MLOAD DUP2 PUSH0 ADD SSTORE PUSH1 0x20 DUP3 ADD MLOAD DUP2 PUSH1 0x1 ADD SWAP1 DUP2 PUSH3 0x1B17 SWAP2 SWAP1 PUSH3 0x28F0 JUMP JUMPDEST POP PUSH1 0x40 DUP3 ADD MLOAD DUP2 PUSH1 0x2 ADD PUSH0 PUSH2 0x100 EXP DUP2 SLOAD DUP2 PUSH1 0xFF MUL NOT AND SWAP1 DUP4 PUSH1 0xFF AND MUL OR SWAP1 SSTORE POP PUSH1 0x60 DUP3 ADD MLOAD DUP2 PUSH1 0x2 ADD PUSH1 0x1 PUSH2 0x100 EXP DUP2 SLOAD DUP2 PUSH1 0xFF MUL NOT AND SWAP1 DUP4 PUSH1 0xFF AND MUL OR SWAP1 SSTORE POP PUSH1 0x80 DUP3 ADD MLOAD DUP2 PUSH1 0x2 ADD PUSH1 0x2 PUSH2 0x100 EXP DUP2 SLOAD DUP2 PUSH1 0xFF MUL NOT AND SWAP1 DUP4 PUSH1 0xFF AND MUL OR SWAP1 SSTORE POP PUSH1 0xA0 DUP3 ADD MLOAD DUP2 PUSH1 0x2 ADD PUSH1 0x3 PUSH2 0x100 EXP DUP2 SLOAD DUP2 PUSH1 0xFF MUL NOT AND SWAP1 DUP4 ISZERO ISZERO MUL OR SWAP1 SSTORE POP PUSH1 0xC0 DUP3 ADD MLOAD DUP2 PUSH1 0x3 ADD SSTORE SWAP1 POP POP PUSH1 0x40 MLOAD DUP1 PUSH1 0xE0 ADD PUSH1 0x40 MSTORE DUP1 PUSH5 0xB02A4C06CD DUP2 MSTORE PUSH1 0x20 ADD PUSH1 0x40 MLOAD DUP1 PUSH1 0x40 ADD PUSH1 0x40 MSTORE DUP1 PUSH1 0x5 DUP2 MSTORE PUSH1 0x20 ADD PUSH32 0x4161757369000000000000000000000000000000000000000000000000000000 DUP2 MSTORE POP DUP2 MSTORE PUSH1 0x20 ADD PUSH1 0x55 PUSH1 0xFF AND DUP2 MSTORE PUSH1 0x20 ADD PUSH1 0xB PUSH1 0xFF AND DUP2 MSTORE PUSH1 0x20 ADD PUSH1 0x1 PUSH1 0xFF AND DUP2 MSTORE PUSH1 0x20 ADD PUSH0 ISZERO ISZERO DUP2 MSTORE PUSH1 0x20 ADD PUSH0 DUP2 MSTORE POP PUSH1 0x1 PUSH0 PUSH5 0xB02A4C06CD DUP2 MSTORE PUSH1 0x20 ADD SWAP1 DUP2 MSTORE PUSH1 0x20 ADD PUSH0 KECCAK256 PUSH0 DUP3 ADD MLOAD DUP2 PUSH0 ADD SSTORE PUSH1 0x20 DUP3 ADD MLOAD DUP2 PUSH1 0x1 ADD SWAP1 DUP2 PUSH3 0x1C57 SWAP2 SWAP1 PUSH3 0x28F0 JUMP JUMPDEST POP PUSH1 0x40 DUP3 ADD MLOAD DUP2 PUSH1 0x2 ADD PUSH0 PUSH2 0x100 EXP DUP2 SLOAD DUP2 PUSH1 0xFF MUL NOT AND SWAP1 DUP4 PUSH1 0xFF AND MUL OR SWAP1 SSTORE POP PUSH1 0x60 DUP3 ADD MLOAD DUP2 PUSH1 0x2 ADD PUSH1 0x1 PUSH2 0x100 EXP DUP2 SLOAD DUP2 PUSH1 0xFF MUL NOT AND SWAP1 DUP4 PUSH1 0xFF AND MUL OR SWAP1 SSTORE POP PUSH1 0x80 DUP3 ADD MLOAD DUP2 PUSH1 0x2 ADD PUSH1 0x2 PUSH2 0x100 EXP DUP2 SLOAD DUP2 PUSH1 0xFF MUL NOT AND SWAP1 DUP4 PUSH1 0xFF AND MUL OR SWAP1 SSTORE POP PUSH1 0xA0 DUP3 ADD MLOAD DUP2 PUSH1 0x2 ADD PUSH1 0x3 PUSH2 0x100 EXP DUP2 SLOAD DUP2 PUSH1 0xFF MUL NOT AND SWAP1 DUP4 ISZERO ISZERO MUL OR SWAP1 SSTORE POP PUSH1 0xC0 DUP3 ADD MLOAD DUP2 PUSH1 0x3 ADD SSTORE SWAP1 POP POP PUSH1 0x40 MLOAD DUP1 PUSH1 0xE0 ADD PUSH1 0x40 MSTORE DUP1 PUSH5 0x88EE0E3031 DUP2 MSTORE PUSH1 0x20 ADD PUSH1 0x40 MLOAD DUP1 PUSH1 0x40 ADD PUSH1 0x40 MSTORE DUP1 PUSH1 0x7 DUP2 MSTORE PUSH1 0x20 ADD PUSH32 0x5072617469626100000000000000000000000000000000000000000000000000 DUP2 MSTORE POP DUP2 MSTORE PUSH1 0x20 ADD PUSH1 0x44 PUSH1 0xFF AND DUP2 MSTORE PUSH1 0x20 ADD PUSH1 0xB PUSH1 0xFF AND DUP2 MSTORE PUSH1 0x20 ADD PUSH1 0x2 PUSH1 0xFF AND DUP2 MSTORE PUSH1 0x20 ADD PUSH0 ISZERO ISZERO DUP2 MSTORE PUSH1 0x20 ADD PUSH0 DUP2 MSTORE POP PUSH1 0x1 PUSH0 PUSH5 0x88EE0E3031 DUP2 MSTORE PUSH1 0x20 ADD SWAP1 DUP2 MSTORE PUSH1 0x20 ADD PUSH0 KECCAK256 PUSH0 DUP3 ADD MLOAD DUP2 PUSH0 ADD SSTORE PUSH1 0x20 DUP3 ADD MLOAD DUP2 PUSH1 0x1 ADD SWAP1 DUP2 PUSH3 0x1D97 SWAP2 SWAP1 PUSH3 0x28F0 JUMP JUMPDEST POP PUSH1 0x40 DUP3 ADD MLOAD DUP2 PUSH1 0x2 ADD PUSH0 PUSH2 0x100 EXP DUP2 SLOAD DUP2 PUSH1 0xFF MUL NOT AND SWAP1 DUP4 PUSH1 0xFF AND MUL OR SWAP1 SSTORE POP PUSH1 0x60 DUP3 ADD MLOAD DUP2 PUSH1 0x2 ADD PUSH1 0x1 PUSH2 0x100 EXP DUP2 SLOAD DUP2 PUSH1 0xFF MUL NOT AND SWAP1 DUP4 PUSH1 0xFF AND MUL OR SWAP1 SSTORE POP PUSH1 0x80 DUP3 ADD MLOAD DUP2 PUSH1 0x2 ADD PUSH1 0x2 PUSH2 0x100 EXP DUP2 SLOAD DUP2 PUSH1 0xFF MUL NOT AND SWAP1 DUP4 PUSH1 0xFF AND MUL OR SWAP1 SSTORE POP PUSH1 0xA0 DUP3 ADD MLOAD DUP2 PUSH1 0x2 ADD PUSH1 0x3 PUSH2 0x100 EXP DUP2 SLOAD DUP2 PUSH1 0xFF MUL NOT AND SWAP1 DUP4 ISZERO ISZERO MUL OR SWAP1 SSTORE POP PUSH1 0xC0 DUP3 ADD MLOAD DUP2 PUSH1 0x3 ADD SSTORE SWAP1 POP POP PUSH1 0x40 MLOAD DUP1 PUSH1 0xE0 ADD PUSH1 0x40 MSTORE DUP1 PUSH5 0xE1522CF915 DUP2 MSTORE PUSH1 0x20 ADD PUSH1 0x40 MLOAD DUP1 PUSH1 0x40 ADD PUSH1 0x40 MSTORE DUP1 PUSH1 0x7 DUP2 MSTORE PUSH1 0x20 ADD PUSH32 0x52756368696B6100000000000000000000000000000000000000000000000000 DUP2 MSTORE POP DUP2 MSTORE PUSH1 0x20 ADD PUSH1 0x1A PUSH1 0xFF AND DUP2 MSTORE PUSH1 0x20 ADD PUSH1 0xB PUSH1 0xFF AND DUP2 MSTORE PUSH1 0x20 ADD PUSH1 0x1 PUSH1 0xFF AND DUP2 MSTORE PUSH1 0x20 ADD PUSH1 0x1 ISZERO ISZERO DUP2 MSTORE PUSH1 0x20 ADD PUSH0 DUP2 MSTORE POP PUSH1 0x1 PUSH0 PUSH5 0xE1522CF915 DUP2 MSTORE PUSH1 0x20 ADD SWAP1 DUP2 MSTORE PUSH1 0x20 ADD PUSH0 KECCAK256 PUSH0 DUP3 ADD MLOAD DUP2 PUSH0 ADD SSTORE PUSH1 0x20 DUP3 ADD MLOAD DUP2 PUSH1 0x1 ADD SWAP1 DUP2 PUSH3 0x1ED8 SWAP2 SWAP1 PUSH3 0x28F0 JUMP JUMPDEST POP PUSH1 0x40 DUP3 ADD MLOAD DUP2 PUSH1 0x2 ADD PUSH0 PUSH2 0x100 EXP DUP2 SLOAD DUP2 PUSH1 0xFF MUL NOT AND SWAP1 DUP4 PUSH1 0xFF AND MUL OR SWAP1 SSTORE POP PUSH1 0x60 DUP3 ADD MLOAD DUP2 PUSH1 0x2 ADD PUSH1 0x1 PUSH2 0x100 EXP DUP2 SLOAD DUP2 PUSH1 0xFF MUL NOT AND SWAP1 DUP4 PUSH1 0xFF AND MUL OR SWAP1 SSTORE POP PUSH1 0x80 DUP3 ADD MLOAD DUP2 PUSH1 0x2 ADD PUSH1 0x2 PUSH2 0x100 EXP DUP2 SLOAD DUP2 PUSH1 0xFF MUL NOT AND SWAP1 DUP4 PUSH1 0xFF AND MUL OR SWAP1 SSTORE POP PUSH1 0xA0 DUP3 ADD MLOAD DUP2 PUSH1 0x2 ADD PUSH1 0x3 PUSH2 0x100 EXP DUP2 SLOAD DUP2 PUSH1 0xFF MUL NOT AND SWAP1 DUP4 ISZERO ISZERO MUL OR SWAP1 SSTORE POP PUSH1 0xC0 DUP3 ADD MLOAD DUP2 PUSH1 0x3 ADD SSTORE SWAP1 POP POP PUSH1 0x40 MLOAD DUP1 PUSH1 0xE0 ADD PUSH1 0x40 MSTORE DUP1 PUSH5 0xA97C7F00EF DUP2 MSTORE PUSH1 0x20 ADD PUSH1 0x40 MLOAD DUP1 PUSH1 0x40 ADD PUSH1 0x40 MSTORE DUP1 PUSH1 0x7 DUP2 MSTORE PUSH1 0x20 ADD PUSH32 0x52616D6261627500000000000000000000000000000000000000000000000000 DUP2 MSTORE POP DUP2 MSTORE PUSH1 0x20 ADD PUSH1 0x11 PUSH1 0xFF AND DUP2 MSTORE PUSH1 0x20 ADD PUSH1 0xB PUSH1 0xFF AND DUP2 MSTORE PUSH1 0x20 ADD PUSH1 0x1 PUSH1 0xFF AND DUP2 MSTORE PUSH1 0x20 ADD PUSH1 0x1 ISZERO ISZERO DUP2 MSTORE PUSH1 0x20 ADD PUSH0 DUP2 MSTORE POP PUSH1 0x1 PUSH0 PUSH5 0xA97C7F00EF DUP2 MSTORE PUSH1 0x20 ADD SWAP1 DUP2 MSTORE PUSH1 0x20 ADD PUSH0 KECCAK256 PUSH0 DUP3 ADD MLOAD DUP2 PUSH0 ADD SSTORE PUSH1 0x20 DUP3 ADD MLOAD DUP2 PUSH1 0x1 ADD SWAP1 DUP2 PUSH3 0x2019 SWAP2 SWAP1 PUSH3 0x28F0 JUMP JUMPDEST POP PUSH1 0x40 DUP3 ADD MLOAD DUP2 PUSH1 0x2 ADD PUSH0 PUSH2 0x100 EXP DUP2 SLOAD DUP2 PUSH1 0xFF MUL NOT AND SWAP1 DUP4 PUSH1 0xFF AND MUL OR SWAP1 SSTORE POP PUSH1 0x60 DUP3 ADD MLOAD DUP2 PUSH1 0x2 ADD PUSH1 0x1 PUSH2 0x100 EXP DUP2 SLOAD DUP2 PUSH1 0xFF MUL NOT AND SWAP1 DUP4 PUSH1 0xFF AND MUL OR SWAP1 SSTORE POP PUSH1 0x80 DUP3 ADD MLOAD DUP2 PUSH1 0x2 ADD PUSH1 0x2 PUSH2 0x100 EXP DUP2 SLOAD DUP2 PUSH1 0xFF MUL NOT AND SWAP1 DUP4 PUSH1 0xFF AND MUL OR SWAP1 SSTORE POP PUSH1 0xA0 DUP3 ADD MLOAD DUP2 PUSH1 0x2 ADD PUSH1 0x3 PUSH2 0x100 EXP DUP2 SLOAD DUP2 PUSH1 0xFF MUL NOT AND SWAP1 DUP4 ISZERO ISZERO MUL OR SWAP1 SSTORE POP PUSH1 0xC0 DUP3 ADD MLOAD DUP2 PUSH1 0x3 ADD SSTORE SWAP1 POP POP PUSH1 0x40 MLOAD DUP1 PUSH1 0xE0 ADD PUSH1 0x40 MSTORE DUP1 PUSH5 0x8DCC2D6C78 DUP2 MSTORE PUSH1 0x20 ADD PUSH1 0x40 MLOAD DUP1 PUSH1 0x40 ADD PUSH1 0x40 MSTORE DUP1 PUSH1 0x7 DUP2 MSTORE PUSH1 0x20 ADD PUSH32 0x4D6174616A696900000000000000000000000000000000000000000000000000 DUP2 MSTORE POP DUP2 MSTORE PUSH1 0x20 ADD PUSH1 0x62 PUSH1 0xFF AND DUP2 MSTORE PUSH1 0x20 ADD PUSH1 0xB PUSH1 0xFF AND DUP2 MSTORE PUSH1 0x20 ADD PUSH1 0x1 PUSH1 0xFF AND DUP2 MSTORE PUSH1 0x20 ADD PUSH1 0x1 ISZERO ISZERO DUP2 MSTORE PUSH1 0x20 ADD PUSH0 DUP2 MSTORE POP PUSH1 0x1 PUSH0 PUSH5 0x8DCC2D6C78 DUP2 MSTORE PUSH1 0x20 ADD SWAP1 DUP2 MSTORE PUSH1 0x20 ADD PUSH0 KECCAK256 PUSH0 DUP3 ADD MLOAD DUP2 PUSH0 ADD SSTORE PUSH1 0x20 DUP3 ADD MLOAD DUP2 PUSH1 0x1 ADD SWAP1 DUP2 PUSH3 0x215A SWAP2 SWAP1 PUSH3 0x28F0 JUMP JUMPDEST POP PUSH1 0x40 DUP3 ADD MLOAD DUP2 PUSH1 0x2 ADD PUSH0 PUSH2 0x100 EXP DUP2 SLOAD DUP2 PUSH1 0xFF MUL NOT AND SWAP1 DUP4 PUSH1 0xFF AND MUL OR SWAP1 SSTORE POP PUSH1 0x60 DUP3 ADD MLOAD DUP2 PUSH1 0x2 ADD PUSH1 0x1 PUSH2 0x100 EXP DUP2 SLOAD DUP2 PUSH1 0xFF MUL NOT AND SWAP1 DUP4 PUSH1 0xFF AND MUL OR SWAP1 SSTORE POP PUSH1 0x80 DUP3 ADD MLOAD DUP2 PUSH1 0x2 ADD PUSH1 0x2 PUSH2 0x100 EXP DUP2 SLOAD DUP2 PUSH1 0xFF MUL NOT AND SWAP1 DUP4 PUSH1 0xFF AND MUL OR SWAP1 SSTORE POP PUSH1 0xA0 DUP3 ADD MLOAD DUP2 PUSH1 0x2 ADD PUSH1 0x3 PUSH2 0x100 EXP DUP2 SLOAD DUP2 PUSH1 0xFF MUL NOT AND SWAP1 DUP4 ISZERO ISZERO MUL OR SWAP1 SSTORE POP PUSH1 0xC0 DUP3 ADD MLOAD DUP2 PUSH1 0x3 ADD SSTORE SWAP1 POP POP PUSH1 0x40 MLOAD DUP1 PUSH1 0xE0 ADD PUSH1 0x40 MSTORE DUP1 PUSH5 0x90614C757C DUP2 MSTORE PUSH1 0x20 ADD PUSH1 0x40 MLOAD DUP1 PUSH1 0x40 ADD PUSH1 0x40 MSTORE DUP1 PUSH1 0x6 DUP2 MSTORE PUSH1 0x20 ADD PUSH32 0x4D616D6174610000000000000000000000000000000000000000000000000000 DUP2 MSTORE POP DUP2 MSTORE PUSH1 0x20 ADD PUSH1 0x3F PUSH1 0xFF AND DUP2 MSTORE PUSH1 0x20 ADD PUSH1 0xB PUSH1 0xFF AND DUP2 MSTORE PUSH1 0x20 ADD PUSH1 0x2 PUSH1 0xFF AND DUP2 MSTORE PUSH1 0x20 ADD PUSH0 ISZERO ISZERO DUP2 MSTORE PUSH1 0x20 ADD PUSH0 DUP2 MSTORE POP PUSH1 0x1 PUSH0 PUSH5 0x90614C757C DUP2 MSTORE PUSH1 0x20 ADD SWAP1 DUP2 MSTORE PUSH1 0x20 ADD PUSH0 KECCAK256 PUSH0 DUP3 ADD MLOAD DUP2 PUSH0 ADD SSTORE PUSH1 0x20 DUP3 ADD MLOAD DUP2 PUSH1 0x1 ADD SWAP1 DUP2 PUSH3 0x229A SWAP2 SWAP1 PUSH3 0x28F0 JUMP JUMPDEST POP PUSH1 0x40 DUP3 ADD MLOAD DUP2 PUSH1 0x2 ADD PUSH0 PUSH2 0x100 EXP DUP2 SLOAD DUP2 PUSH1 0xFF MUL NOT AND SWAP1 DUP4 PUSH1 0xFF AND MUL OR SWAP1 SSTORE POP PUSH1 0x60 DUP3 ADD MLOAD DUP2 PUSH1 0x2 ADD PUSH1 0x1 PUSH2 0x100 EXP DUP2 SLOAD DUP2 PUSH1 0xFF MUL NOT AND SWAP1 DUP4 PUSH1 0xFF AND MUL OR SWAP1 SSTORE POP PUSH1 0x80 DUP3 ADD MLOAD DUP2 PUSH1 0x2 ADD PUSH1 0x2 PUSH2 0x100 EXP DUP2 SLOAD DUP2 PUSH1 0xFF MUL NOT AND SWAP1 DUP4 PUSH1 0xFF AND MUL OR SWAP1 SSTORE POP PUSH1 0xA0 DUP3 ADD MLOAD DUP2 PUSH1 0x2 ADD PUSH1 0x3 PUSH2 0x100 EXP DUP2 SLOAD DUP2 PUSH1 0xFF MUL NOT AND SWAP1 DUP4 ISZERO ISZERO MUL OR SWAP1 SSTORE POP PUSH1 0xC0 DUP3 ADD MLOAD DUP2 PUSH1 0x3 ADD SSTORE SWAP1 POP POP PUSH1 0x40 MLOAD DUP1 PUSH1 0xE0 ADD PUSH1 0x40 MSTORE DUP1 PUSH5 0x5DF6210BD1 DUP2 MSTORE PUSH1 0x20 ADD PUSH1 0x40 MLOAD DUP1 PUSH1 0x40 ADD PUSH1 0x40 MSTORE DUP1 PUSH1 0xA DUP2 MSTORE PUSH1 0x20 ADD PUSH32 0x52617669205661726D6100000000000000000000000000000000000000000000 DUP2 MSTORE POP DUP2 MSTORE PUSH1 0x20 ADD PUSH1 0x2A PUSH1 0xFF AND DUP2 MSTORE PUSH1 0x20 ADD PUSH1 0xB PUSH1 0xFF AND DUP2 MSTORE PUSH1 0x20 ADD PUSH1 0x2 PUSH1 0xFF AND DUP2 MSTORE PUSH1 0x20 ADD PUSH1 0x1 ISZERO ISZERO DUP2 MSTORE PUSH1 0x20 ADD PUSH0 DUP2 MSTORE POP PUSH1 0x1 PUSH0 PUSH5 0x5DF6210BD1 DUP2 MSTORE PUSH1 0x20 ADD SWAP1 DUP2 MSTORE PUSH1 0x20 ADD PUSH0 KECCAK256 PUSH0 DUP3 ADD MLOAD DUP2 PUSH0 ADD SSTORE PUSH1 0x20 DUP3 ADD MLOAD DUP2 PUSH1 0x1 ADD SWAP1 DUP2 PUSH3 0x23DB SWAP2 SWAP1 PUSH3 0x28F0 JUMP JUMPDEST POP PUSH1 0x40 DUP3 ADD MLOAD DUP2 PUSH1 0x2 ADD PUSH0 PUSH2 0x100 EXP DUP2 SLOAD DUP2 PUSH1 0xFF MUL NOT AND SWAP1 DUP4 PUSH1 0xFF AND MUL OR SWAP1 SSTORE POP PUSH1 0x60 DUP3 ADD MLOAD DUP2 PUSH1 0x2 ADD PUSH1 0x1 PUSH2 0x100 EXP DUP2 SLOAD DUP2 PUSH1 0xFF MUL NOT AND SWAP1 DUP4 PUSH1 0xFF AND MUL OR SWAP1 SSTORE POP PUSH1 0x80 DUP3 ADD MLOAD DUP2 PUSH1 0x2 ADD PUSH1 0x2 PUSH2 0x100 EXP DUP2 SLOAD DUP2 PUSH1 0xFF MUL NOT AND SWAP1 DUP4 PUSH1 0xFF AND MUL OR SWAP1 SSTORE POP PUSH1 0xA0 DUP3 ADD MLOAD DUP2 PUSH1 0x2 ADD PUSH1 0x3 PUSH2 0x100 EXP DUP2 SLOAD DUP2 PUSH1 0xFF MUL NOT AND SWAP1 DUP4 ISZERO ISZERO MUL OR SWAP1 SSTORE POP PUSH1 0xC0 DUP3 ADD MLOAD DUP2 PUSH1 0x3 ADD SSTORE SWAP1 POP POP PUSH1 0x40 MLOAD DUP1 PUSH1 0xE0 ADD PUSH1 0x40 MSTORE DUP1 PUSH5 0xC31AEAF9AA DUP2 MSTORE PUSH1 0x20 ADD PUSH1 0x40 MLOAD DUP1 PUSH1 0x40 ADD PUSH1 0x40 MSTORE DUP1 PUSH1 0x5 DUP2 MSTORE PUSH1 0x20 ADD PUSH32 0x526168756C000000000000000000000000000000000000000000000000000000 DUP2 MSTORE POP DUP2 MSTORE PUSH1 0x20 ADD PUSH1 0x38 PUSH1 0xFF AND DUP2 MSTORE PUSH1 0x20 ADD PUSH1 0xB PUSH1 0xFF AND DUP2 MSTORE PUSH1 0x20 ADD PUSH1 0x2 PUSH1 0xFF AND DUP2 MSTORE PUSH1 0x20 ADD PUSH1 0x1 ISZERO ISZERO DUP2 MSTORE PUSH1 0x20 ADD PUSH0 DUP2 MSTORE POP PUSH1 0x1 PUSH0 PUSH5 0xC31AEAF9AA DUP2 MSTORE PUSH1 0x20 ADD SWAP1 DUP2 MSTORE PUSH1 0x20 ADD PUSH0 KECCAK256 PUSH0 DUP3 ADD MLOAD DUP2 PUSH0 ADD SSTORE PUSH1 0x20 DUP3 ADD MLOAD DUP2 PUSH1 0x1 ADD SWAP1 DUP2 PUSH3 0x251C SWAP2 SWAP1 PUSH3 0x28F0 JUMP JUMPDEST POP PUSH1 0x40 DUP3 ADD MLOAD DUP2 PUSH1 0x2 ADD PUSH0 PUSH2 0x100 EXP DUP2 SLOAD DUP2 PUSH1 0xFF MUL NOT AND SWAP1 DUP4 PUSH1 0xFF AND MUL OR SWAP1 SSTORE POP PUSH1 0x60 DUP3 ADD MLOAD DUP2 PUSH1 0x2 ADD PUSH1 0x1 PUSH2 0x100 EXP DUP2 SLOAD DUP2 PUSH1 0xFF MUL NOT AND SWAP1 DUP4 PUSH1 0xFF AND MUL OR SWAP1 SSTORE POP PUSH1 0x80 DUP3 ADD MLOAD DUP2 PUSH1 0x2 ADD PUSH1 0x2 PUSH2 0x100 EXP DUP2 SLOAD DUP2 PUSH1 0xFF MUL NOT AND SWAP1 DUP4 PUSH1 0xFF AND MUL OR SWAP1 SSTORE POP PUSH1 0xA0 DUP3 ADD MLOAD DUP2 PUSH1 0x2 ADD PUSH1 0x3 PUSH2 0x100 EXP DUP2 SLOAD DUP2 PUSH1 0xFF MUL NOT AND SWAP1 DUP4 ISZERO ISZERO MUL OR SWAP1 SSTORE POP PUSH1 0xC0 DUP3 ADD MLOAD DUP2 PUSH1 0x3 ADD SSTORE SWAP1 POP POP JUMP JUMPDEST PUSH1 0x40 MLOAD DUP1 PUSH1 0xC0 ADD PUSH1 0x40 MSTORE DUP1 PUSH1 0x60 DUP2 MSTORE PUSH1 0x20 ADD PUSH1 0x60 DUP2 MSTORE PUSH1 0x20 ADD PUSH1 0x60 DUP2 MSTORE PUSH1 0x20 ADD PUSH0 DUP2 MSTORE PUSH1 0x20 ADD PUSH0 PUSH1 0xFF AND DUP2 MSTORE PUSH1 0x20 ADD PUSH0 PUSH1 0xFF AND DUP2 MSTORE POP SWAP1 JUMP JUMPDEST PUSH0 DUP1 REVERT JUMPDEST PUSH0 DUP2 SWAP1 POP SWAP2 SWAP1 POP JUMP JUMPDEST PUSH3 0x25FF DUP2 PUSH3 0x25EB JUMP JUMPDEST DUP2 EQ PUSH3 0x260A JUMPI PUSH0 DUP1 REVERT JUMPDEST POP JUMP JUMPDEST PUSH0 DUP2 MLOAD SWAP1 POP PUSH3 0x261D DUP2 PUSH3 0x25F4 JUMP JUMPDEST SWAP3 SWAP2 POP POP JUMP JUMPDEST PUSH0 DUP1 PUSH1 0x40 DUP4 DUP6 SUB SLT ISZERO PUSH3 0x263C JUMPI PUSH3 0x263B PUSH3 0x25E7 JUMP JUMPDEST JUMPDEST PUSH0 PUSH3 0x264B DUP6 DUP3 DUP7 ADD PUSH3 0x260D JUMP JUMPDEST SWAP3 POP POP PUSH1 0x20 PUSH3 0x265E DUP6 DUP3 DUP7 ADD PUSH3 0x260D JUMP JUMPDEST SWAP2 POP POP SWAP3 POP SWAP3 SWAP1 POP JUMP JUMPDEST PUSH32 0x4E487B7100000000000000000000000000000000000000000000000000000000 PUSH0 MSTORE PUSH1 0x41 PUSH1 0x4 MSTORE PUSH1 0x24 PUSH0 REVERT JUMPDEST PUSH32 0x4E487B7100000000000000000000000000000000000000000000000000000000 PUSH0 MSTORE PUSH1 0x32 PUSH1 0x4 MSTORE PUSH1 0x24 PUSH0 REVERT JUMPDEST PUSH0 DUP2 MLOAD SWAP1 POP SWAP2 SWAP1 POP JUMP JUMPDEST PUSH32 0x4E487B7100000000000000000000000000000000000000000000000000000000 PUSH0 MSTORE PUSH1 0x22 PUSH1 0x4 MSTORE PUSH1 0x24 PUSH0 REVERT JUMPDEST PUSH0 PUSH1 0x2 DUP3 DIV SWAP1 POP PUSH1 0x1 DUP3 AND DUP1 PUSH3 0x2711 JUMPI PUSH1 0x7F DUP3 AND SWAP2 POP JUMPDEST PUSH1 0x20 DUP3 LT DUP2 SUB PUSH3 0x2727 JUMPI PUSH3 0x2726 PUSH3 0x26CC JUMP JUMPDEST JUMPDEST POP SWAP2 SWAP1 POP JUMP JUMPDEST PUSH0 DUP2 SWAP1 POP DUP2 PUSH0 MSTORE PUSH1 0x20 PUSH0 KECCAK256 SWAP1 POP SWAP2 SWAP1 POP JUMP JUMPDEST PUSH0 PUSH1 0x20 PUSH1 0x1F DUP4 ADD DIV SWAP1 POP SWAP2 SWAP1 POP JUMP JUMPDEST PUSH0 DUP3 DUP3 SHL SWAP1 POP SWAP3 SWAP2 POP POP JUMP JUMPDEST PUSH0 PUSH1 0x8 DUP4 MUL PUSH3 0x278B PUSH32 0xFFFFFFFFFFFFFFFFFFFFFFFFFFFFFFFFFFFFFFFFFFFFFFFFFFFFFFFFFFFFFFFF DUP3 PUSH3 0x274E JUMP JUMPDEST PUSH3 0x2797 DUP7 DUP4 PUSH3 0x274E JUMP JUMPDEST SWAP6 POP DUP1 NOT DUP5 AND SWAP4 POP DUP1 DUP7 AND DUP5 OR SWAP3 POP POP POP SWAP4 SWAP3 POP POP POP JUMP JUMPDEST PUSH0 DUP2 SWAP1 POP SWAP2 SWAP1 POP JUMP JUMPDEST PUSH0 PUSH3 0x27D8 PUSH3 0x27D2 PUSH3 0x27CC DUP5 PUSH3 0x25EB JUMP JUMPDEST PUSH3 0x27AF JUMP JUMPDEST PUSH3 0x25EB JUMP JUMPDEST SWAP1 POP SWAP2 SWAP1 POP JUMP JUMPDEST PUSH0 DUP2 SWAP1 POP SWAP2 SWAP1 POP JUMP JUMPDEST PUSH3 0x27F3 DUP4 PUSH3 0x27B8 JUMP JUMPDEST PUSH3 0x280B PUSH3 0x2802 DUP3 PUSH3 0x27DF JUMP JUMPDEST DUP5 DUP5 SLOAD PUSH3 0x275A JUMP JUMPDEST DUP3 SSTORE POP POP POP POP JUMP JUMPDEST PUSH0 SWAP1 JUMP JUMPDEST PUSH3 0x2821 PUSH3 0x2813 JUMP JUMPDEST PUSH3 0x282E DUP2 DUP5 DUP5 PUSH3 0x27E8 JUMP JUMPDEST POP POP POP JUMP JUMPDEST JUMPDEST DUP2 DUP2 LT ISZERO PUSH3 0x2855 JUMPI PUSH3 0x2849 PUSH0 DUP3 PUSH3 0x2817 JUMP JUMPDEST PUSH1 0x1 DUP2 ADD SWAP1 POP PUSH3 0x2834 JUMP JUMPDEST POP POP JUMP JUMPDEST PUSH1 0x1F DUP3 GT ISZERO PUSH3 0x28A4 JUMPI PUSH3 0x286E DUP2 PUSH3 0x272D JUMP JUMPDEST PUSH3 0x2879 DUP5 PUSH3 0x273F JUMP JUMPDEST DUP2 ADD PUSH1 0x20 DUP6 LT ISZERO PUSH3 0x2889 JUMPI DUP2 SWAP1 POP JUMPDEST PUSH3 0x28A1 PUSH3 0x2898 DUP6 PUSH3 0x273F JUMP JUMPDEST DUP4 ADD DUP3 PUSH3 0x2833 JUMP JUMPDEST POP POP JUMPDEST POP POP POP JUMP JUMPDEST PUSH0 DUP3 DUP3 SHR SWAP1 POP SWAP3 SWAP2 POP POP JUMP JUMPDEST PUSH0 PUSH3 0x28C6 PUSH0 NOT DUP5 PUSH1 0x8 MUL PUSH3 0x28A9 JUMP JUMPDEST NOT DUP1 DUP4 AND SWAP2 POP POP SWAP3 SWAP2 POP POP JUMP JUMPDEST PUSH0 PUSH3 0x28E0 DUP4 DUP4 PUSH3 0x28B5 JUMP JUMPDEST SWAP2 POP DUP3 PUSH1 0x2 MUL DUP3 OR SWAP1 POP SWAP3 SWAP2 POP POP JUMP JUMPDEST PUSH3 0x28FB DUP3 PUSH3 0x26C2 JUMP JUMPDEST PUSH8 0xFFFFFFFFFFFFFFFF DUP2 GT ISZERO PUSH3 0x2917 JUMPI PUSH3 0x2916 PUSH3 0x2668 JUMP JUMPDEST JUMPDEST PUSH3 0x2923 DUP3 SLOAD PUSH3 0x26F9 JUMP JUMPDEST PUSH3 0x2930 DUP3 DUP3 DUP6 PUSH3 0x2859 JUMP JUMPDEST PUSH0 PUSH1 0x20 SWAP1 POP PUSH1 0x1F DUP4 GT PUSH1 0x1 DUP2 EQ PUSH3 0x2966 JUMPI PUSH0 DUP5 ISZERO PUSH3 0x2951 JUMPI DUP3 DUP8 ADD MLOAD SWAP1 POP JUMPDEST PUSH3 0x295D DUP6 DUP3 PUSH3 0x28D3 JUMP JUMPDEST DUP7 SSTORE POP PUSH3 0x29CC JUMP JUMPDEST PUSH1 0x1F NOT DUP5 AND PUSH3 0x2976 DUP7 PUSH3 0x272D JUMP JUMPDEST PUSH0 JUMPDEST DUP3 DUP2 LT ISZERO PUSH3 0x299F JUMPI DUP5 DUP10 ADD MLOAD DUP3 SSTORE PUSH1 0x1 DUP3 ADD SWAP2 POP PUSH1 0x20 DUP6 ADD SWAP5 POP PUSH1 0x20 DUP2 ADD SWAP1 POP PUSH3 0x2978 JUMP JUMPDEST DUP7 DUP4 LT ISZERO PUSH3 0x29BF JUMPI DUP5 DUP10 ADD MLOAD PUSH3 0x29BB PUSH1 0x1F DUP10 AND DUP3 PUSH3 0x28B5 JUMP JUMPDEST DUP4 SSTORE POP JUMPDEST PUSH1 0x1 PUSH1 0x2 DUP9 MUL ADD DUP9 SSTORE POP POP POP JUMPDEST POP POP POP POP POP POP JUMP JUMPDEST PUSH32 0x4E487B7100000000000000000000000000000000000000000000000000000000 PUSH0 MSTORE PUSH1 0x11 PUSH1 0x4 MSTORE PUSH1 0x24 PUSH0 REVERT JUMPDEST PUSH0 PUSH3 0x2A0D DUP3 PUSH3 0x25EB JUMP JUMPDEST SWAP2 POP PUSH32 0xFFFFFFFFFFFFFFFFFFFFFFFFFFFFFFFFFFFFFFFFFFFFFFFFFFFFFFFFFFFFFFFF DUP3 SUB PUSH3 0x2A42 JUMPI PUSH3 0x2A41 PUSH3 0x29D4 JUMP JUMPDEST JUMPDEST PUSH1 0x1 DUP3 ADD SWAP1 POP SWAP2 SWAP1 POP JUMP JUMPDEST PUSH2 0x1C1F DUP1 PUSH3 0x2A5B PUSH0 CODECOPY PUSH0 RETURN INVALID PUSH1 0x80 PUSH1 0x40 MSTORE CALLVALUE DUP1 ISZERO PUSH2 0xF JUMPI PUSH0 DUP1 REVERT JUMPDEST POP PUSH1 0x4 CALLDATASIZE LT PUSH2 0x91 JUMPI PUSH0 CALLDATALOAD PUSH1 0xE0 SHR DUP1 PUSH4 0x81A60C0D GT PUSH2 0x64 JUMPI DUP1 PUSH4 0x81A60C0D EQ PUSH2 0x147 JUMPI DUP1 PUSH4 0x8A6655D6 EQ PUSH2 0x177 JUMPI DUP1 PUSH4 0xB1BF87B0 EQ PUSH2 0x193 JUMPI DUP1 PUSH4 0xB9D84552 EQ PUSH2 0x1B1 JUMPI DUP1 PUSH4 0xDCE8D8A3 EQ PUSH2 0x1CD JUMPI PUSH2 0x91 JUMP JUMPDEST DUP1 PUSH4 0x3477EE2E EQ PUSH2 0x95 JUMPI DUP1 PUSH4 0x5D816E22 EQ PUSH2 0xCA JUMPI DUP1 PUSH4 0x5E23C37C EQ PUSH2 0xE6 JUMPI DUP1 PUSH4 0x618BDE0A EQ PUSH2 0x117 JUMPI JUMPDEST PUSH0 DUP1 REVERT JUMPDEST PUSH2 0xAF PUSH1 0x4 DUP1 CALLDATASIZE SUB DUP2 ADD SWAP1 PUSH2 0xAA SWAP2 SWAP1 PUSH2 0x1445 JUMP JUMPDEST PUSH2 0x1FD JUMP JUMPDEST PUSH1 0x40 MLOAD PUSH2 0xC1 SWAP7 SWAP6 SWAP5 SWAP4 SWAP3 SWAP2 SWAP1 PUSH2 0x1524 JUMP JUMPDEST PUSH1 0x40 MLOAD DUP1 SWAP2 SUB SWAP1 RETURN JUMPDEST PUSH2 0xE4 PUSH1 0x4 DUP1 CALLDATASIZE SUB DUP2 ADD SWAP1 PUSH2 0xDF SWAP2 SWAP1 PUSH2 0x1598 JUMP JUMPDEST PUSH2 0x3EE JUMP JUMPDEST STOP JUMPDEST PUSH2 0x100 PUSH1 0x4 DUP1 CALLDATASIZE SUB DUP2 ADD SWAP1 PUSH2 0xFB SWAP2 SWAP1 PUSH2 0x1445 JUMP JUMPDEST PUSH2 0x46B JUMP JUMPDEST PUSH1 0x40 MLOAD PUSH2 0x10E SWAP3 SWAP2 SWAP1 PUSH2 0x16EA JUMP JUMPDEST PUSH1 0x40 MLOAD DUP1 SWAP2 SUB SWAP1 RETURN JUMPDEST PUSH2 0x131 PUSH1 0x4 DUP1 CALLDATASIZE SUB DUP2 ADD SWAP1 PUSH2 0x12C SWAP2 SWAP1 PUSH2 0x1445 JUMP JUMPDEST PUSH2 0x6BE JUMP JUMPDEST PUSH1 0x40 MLOAD PUSH2 0x13E SWAP2 SWAP1 PUSH2 0x1867 JUMP JUMPDEST PUSH1 0x40 MLOAD DUP1 SWAP2 SUB SWAP1 RETURN JUMPDEST PUSH2 0x161 PUSH1 0x4 DUP1 CALLDATASIZE SUB DUP2 ADD SWAP1 PUSH2 0x15C SWAP2 SWAP1 PUSH2 0x1445 JUMP JUMPDEST PUSH2 0xB11 JUMP JUMPDEST PUSH1 0x40 MLOAD PUSH2 0x16E SWAP2 SWAP1 PUSH2 0x19E9 JUMP JUMPDEST PUSH1 0x40 MLOAD DUP1 SWAP2 SUB SWAP1 RETURN JUMPDEST PUSH2 0x191 PUSH1 0x4 DUP1 CALLDATASIZE SUB DUP2 ADD SWAP1 PUSH2 0x18C SWAP2 SWAP1 PUSH2 0x1A09 JUMP JUMPDEST PUSH2 0xEA6 JUMP JUMPDEST STOP JUMPDEST PUSH2 0x19B PUSH2 0x12C6 JUMP JUMPDEST PUSH1 0x40 MLOAD PUSH2 0x1A8 SWAP2 SWAP1 PUSH2 0x1A59 JUMP JUMPDEST PUSH1 0x40 MLOAD DUP1 SWAP2 SUB SWAP1 RETURN JUMPDEST PUSH2 0x1CB PUSH1 0x4 DUP1 CALLDATASIZE SUB DUP2 ADD SWAP1 PUSH2 0x1C6 SWAP2 SWAP1 PUSH2 0x1598 JUMP JUMPDEST PUSH2 0x12CF JUMP JUMPDEST STOP JUMPDEST PUSH2 0x1E7 PUSH1 0x4 DUP1 CALLDATASIZE SUB DUP2 ADD SWAP1 PUSH2 0x1E2 SWAP2 SWAP1 PUSH2 0x1445 JUMP JUMPDEST PUSH2 0x133F JUMP JUMPDEST PUSH1 0x40 MLOAD PUSH2 0x1F4 SWAP2 SWAP1 PUSH2 0x1A72 JUMP JUMPDEST PUSH1 0x40 MLOAD DUP1 SWAP2 SUB SWAP1 RETURN JUMPDEST PUSH0 DUP2 DUP2 SLOAD DUP2 LT PUSH2 0x20B JUMPI PUSH0 DUP1 REVERT JUMPDEST SWAP1 PUSH0 MSTORE PUSH1 0x20 PUSH0 KECCAK256 SWAP1 PUSH1 0x5 MUL ADD PUSH0 SWAP2 POP SWAP1 POP DUP1 PUSH0 ADD DUP1 SLOAD PUSH2 0x22A SWAP1 PUSH2 0x1AB8 JUMP JUMPDEST DUP1 PUSH1 0x1F ADD PUSH1 0x20 DUP1 SWAP2 DIV MUL PUSH1 0x20 ADD PUSH1 0x40 MLOAD SWAP1 DUP2 ADD PUSH1 0x40 MSTORE DUP1 SWAP3 SWAP2 SWAP1 DUP2 DUP2 MSTORE PUSH1 0x20 ADD DUP3 DUP1 SLOAD PUSH2 0x256 SWAP1 PUSH2 0x1AB8 JUMP JUMPDEST DUP1 ISZERO PUSH2 0x2A1 JUMPI DUP1 PUSH1 0x1F LT PUSH2 0x278 JUMPI PUSH2 0x100 DUP1 DUP4 SLOAD DIV MUL DUP4 MSTORE SWAP2 PUSH1 0x20 ADD SWAP2 PUSH2 0x2A1 JUMP JUMPDEST DUP3 ADD SWAP2 SWAP1 PUSH0 MSTORE PUSH1 0x20 PUSH0 KECCAK256 SWAP1 JUMPDEST DUP2 SLOAD DUP2 MSTORE SWAP1 PUSH1 0x1 ADD SWAP1 PUSH1 0x20 ADD DUP1 DUP4 GT PUSH2 0x284 JUMPI DUP3 SWAP1 SUB PUSH1 0x1F AND DUP3 ADD SWAP2 JUMPDEST POP POP POP POP POP SWAP1 DUP1 PUSH1 0x1 ADD DUP1 SLOAD PUSH2 0x2B6 SWAP1 PUSH2 0x1AB8 JUMP JUMPDEST DUP1 PUSH1 0x1F ADD PUSH1 0x20 DUP1 SWAP2 DIV MUL PUSH1 0x20 ADD PUSH1 0x40 MLOAD SWAP1 DUP2 ADD PUSH1 0x40 MSTORE DUP1 SWAP3 SWAP2 SWAP1 DUP2 DUP2 MSTORE PUSH1 0x20 ADD DUP3 DUP1 SLOAD PUSH2 0x2E2 SWAP1 PUSH2 0x1AB8 JUMP JUMPDEST DUP1 ISZERO PUSH2 0x32D JUMPI DUP1 PUSH1 0x1F LT PUSH2 0x304 JUMPI PUSH2 0x100 DUP1 DUP4 SLOAD DIV MUL DUP4 MSTORE SWAP2 PUSH1 0x20 ADD SWAP2 PUSH2 0x32D JUMP JUMPDEST DUP3 ADD SWAP2 SWAP1 PUSH0 MSTORE PUSH1 0x20 PUSH0 KECCAK256 SWAP1 JUMPDEST DUP2 SLOAD DUP2 MSTORE SWAP1 PUSH1 0x1 ADD SWAP1 PUSH1 0x20 ADD DUP1 DUP4 GT PUSH2 0x310 JUMPI DUP3 SWAP1 SUB PUSH1 0x1F AND DUP3 ADD SWAP2 JUMPDEST POP POP POP POP POP SWAP1 DUP1 PUSH1 0x2 ADD DUP1 SLOAD PUSH2 0x342 SWAP1 PUSH2 0x1AB8 JUMP JUMPDEST DUP1 PUSH1 0x1F ADD PUSH1 0x20 DUP1 SWAP2 DIV MUL PUSH1 0x20 ADD PUSH1 0x40 MLOAD SWAP1 DUP2 ADD PUSH1 0x40 MSTORE DUP1 SWAP3 SWAP2 SWAP1 DUP2 DUP2 MSTORE PUSH1 0x20 ADD DUP3 DUP1 SLOAD PUSH2 0x36E SWAP1 PUSH2 0x1AB8 JUMP JUMPDEST DUP1 ISZERO PUSH2 0x3B9 JUMPI DUP1 PUSH1 0x1F LT PUSH2 0x390 JUMPI PUSH2 0x100 DUP1 DUP4 SLOAD DIV MUL DUP4 MSTORE SWAP2 PUSH1 0x20 ADD SWAP2 PUSH2 0x3B9 JUMP JUMPDEST DUP3 ADD SWAP2 SWAP1 PUSH0 MSTORE PUSH1 0x20 PUSH0 KECCAK256 SWAP1 JUMPDEST DUP2 SLOAD DUP2 MSTORE SWAP1 PUSH1 0x1 ADD SWAP1 PUSH1 0x20 ADD DUP1 DUP4 GT PUSH2 0x39C JUMPI DUP3 SWAP1 SUB PUSH1 0x1F AND DUP3 ADD SWAP2 JUMPDEST POP POP POP POP POP SWAP1 DUP1 PUSH1 0x3 ADD SLOAD SWAP1 DUP1 PUSH1 0x4 ADD PUSH0 SWAP1 SLOAD SWAP1 PUSH2 0x100 EXP SWAP1 DIV PUSH1 0xFF AND SWAP1 DUP1 PUSH1 0x4 ADD PUSH1 0x1 SWAP1 SLOAD SWAP1 PUSH2 0x100 EXP SWAP1 DIV PUSH1 0xFF AND SWAP1 POP DUP7 JUMP JUMPDEST PUSH1 0x4 PUSH0 SWAP1 SLOAD SWAP1 PUSH2 0x100 EXP SWAP1 DIV PUSH20 0xFFFFFFFFFFFFFFFFFFFFFFFFFFFFFFFFFFFFFFFF AND PUSH20 0xFFFFFFFFFFFFFFFFFFFFFFFFFFFFFFFFFFFFFFFF AND CALLER PUSH20 0xFFFFFFFFFFFFFFFFFFFFFFFFFFFFFFFFFFFFFFFF AND EQ PUSH2 0x446 JUMPI PUSH0 DUP1 REVERT JUMPDEST DUP1 PUSH1 0x5 SLOAD LT PUSH2 0x453 JUMPI PUSH0 DUP1 REVERT JUMPDEST DUP1 PUSH1 0x6 SLOAD GT PUSH2 0x460 JUMPI PUSH0 DUP1 REVERT JUMPDEST DUP2 PUSH1 0x6 DUP2 SWAP1 SSTORE POP POP POP JUMP JUMPDEST PUSH0 PUSH2 0x474 PUSH2 0x1396 JUMP JUMPDEST PUSH0 PUSH1 0x1 PUSH0 DUP6 DUP2 MSTORE PUSH1 0x20 ADD SWAP1 DUP2 MSTORE PUSH1 0x20 ADD PUSH0 KECCAK256 PUSH1 0x3 ADD SLOAD EQ ISZERO SWAP2 POP DUP2 ISZERO PUSH2 0x6B9 JUMPI PUSH1 0x2 PUSH0 PUSH1 0x1 PUSH0 DUP7 DUP2 MSTORE PUSH1 0x20 ADD SWAP1 DUP2 MSTORE PUSH1 0x20 ADD PUSH0 KECCAK256 PUSH1 0x3 ADD SLOAD DUP2 MSTORE PUSH1 0x20 ADD SWAP1 DUP2 MSTORE PUSH1 0x20 ADD PUSH0 KECCAK256 PUSH1 0x40 MLOAD DUP1 PUSH1 0xC0 ADD PUSH1 0x40 MSTORE SWAP1 DUP2 PUSH0 DUP3 ADD DUP1 SLOAD PUSH2 0x4D3 SWAP1 PUSH2 0x1AB8 JUMP JUMPDEST DUP1 PUSH1 0x1F ADD PUSH1 0x20 DUP1 SWAP2 DIV MUL PUSH1 0x20 ADD PUSH1 0x40 MLOAD SWAP1 DUP2 ADD PUSH1 0x40 MSTORE DUP1 SWAP3 SWAP2 SWAP1 DUP2 DUP2 MSTORE PUSH1 0x20 ADD DUP3 DUP1 SLOAD PUSH2 0x4FF SWAP1 PUSH2 0x1AB8 JUMP JUMPDEST DUP1 ISZERO PUSH2 0x54A JUMPI DUP1 PUSH1 0x1F LT PUSH2 0x521 JUMPI PUSH2 0x100 DUP1 DUP4 SLOAD DIV MUL DUP4 MSTORE SWAP2 PUSH1 0x20 ADD SWAP2 PUSH2 0x54A JUMP JUMPDEST DUP3 ADD SWAP2 SWAP1 PUSH0 MSTORE PUSH1 0x20 PUSH0 KECCAK256 SWAP1 JUMPDEST DUP2 SLOAD DUP2 MSTORE SWAP1 PUSH1 0x1 ADD SWAP1 PUSH1 0x20 ADD DUP1 DUP4 GT PUSH2 0x52D JUMPI DUP3 SWAP1 SUB PUSH1 0x1F AND DUP3 ADD SWAP2 JUMPDEST POP POP POP POP POP DUP2 MSTORE PUSH1 0x20 ADD PUSH1 0x1 DUP3 ADD DUP1 SLOAD PUSH2 0x563 SWAP1 PUSH2 0x1AB8 JUMP JUMPDEST DUP1 PUSH1 0x1F ADD PUSH1 0x20 DUP1 SWAP2 DIV MUL PUSH1 0x20 ADD PUSH1 0x40 MLOAD SWAP1 DUP2 ADD PUSH1 0x40 MSTORE DUP1 SWAP3 SWAP2 SWAP1 DUP2 DUP2 MSTORE PUSH1 0x20 ADD DUP3 DUP1 SLOAD PUSH2 0x58F SWAP1 PUSH2 0x1AB8 JUMP JUMPDEST DUP1 ISZERO PUSH2 0x5DA JUMPI DUP1 PUSH1 0x1F LT PUSH2 0x5B1 JUMPI PUSH2 0x100 DUP1 DUP4 SLOAD DIV MUL DUP4 MSTORE SWAP2 PUSH1 0x20 ADD SWAP2 PUSH2 0x5DA JUMP JUMPDEST DUP3 ADD SWAP2 SWAP1 PUSH0 MSTORE PUSH1 0x20 PUSH0 KECCAK256 SWAP1 JUMPDEST DUP2 SLOAD DUP2 MSTORE SWAP1 PUSH1 0x1 ADD SWAP1 PUSH1 0x20 ADD DUP1 DUP4 GT PUSH2 0x5BD JUMPI DUP3 SWAP1 SUB PUSH1 0x1F AND DUP3 ADD SWAP2 JUMPDEST POP POP POP POP POP DUP2 MSTORE PUSH1 0x20 ADD PUSH1 0x2 DUP3 ADD DUP1 SLOAD PUSH2 0x5F3 SWAP1 PUSH2 0x1AB8 JUMP JUMPDEST DUP1 PUSH1 0x1F ADD PUSH1 0x20 DUP1 SWAP2 DIV MUL PUSH1 0x20 ADD PUSH1 0x40 MLOAD SWAP1 DUP2 ADD PUSH1 0x40 MSTORE DUP1 SWAP3 SWAP2 SWAP1 DUP2 DUP2 MSTORE PUSH1 0x20 ADD DUP3 DUP1 SLOAD PUSH2 0x61F SWAP1 PUSH2 0x1AB8 JUMP JUMPDEST DUP1 ISZERO PUSH2 0x66A JUMPI DUP1 PUSH1 0x1F LT PUSH2 0x641 JUMPI PUSH2 0x100 DUP1 DUP4 SLOAD DIV MUL DUP4 MSTORE SWAP2 PUSH1 0x20 ADD SWAP2 PUSH2 0x66A JUMP JUMPDEST DUP3 ADD SWAP2 SWAP1 PUSH0 MSTORE PUSH1 0x20 PUSH0 KECCAK256 SWAP1 JUMPDEST DUP2 SLOAD DUP2 MSTORE SWAP1 PUSH1 0x1 ADD SWAP1 PUSH1 0x20 ADD DUP1 DUP4 GT PUSH2 0x64D JUMPI DUP3 SWAP1 SUB PUSH1 0x1F AND DUP3 ADD SWAP2 JUMPDEST POP POP POP POP POP DUP2 MSTORE PUSH1 0x20 ADD PUSH1 0x3 DUP3 ADD SLOAD DUP2 MSTORE PUSH1 0x20 ADD PUSH1 0x4 DUP3 ADD PUSH0 SWAP1 SLOAD SWAP1 PUSH2 0x100 EXP SWAP1 DIV PUSH1 0xFF AND PUSH1 0xFF AND PUSH1 0xFF AND DUP2 MSTORE PUSH1 0x20 ADD PUSH1 0x4 DUP3 ADD PUSH1 0x1 SWAP1 SLOAD SWAP1 PUSH2 0x100 EXP SWAP1 DIV PUSH1 0xFF AND PUSH1 0xFF AND PUSH1 0xFF AND DUP2 MSTORE POP POP SWAP1 POP JUMPDEST SWAP2 POP SWAP2 JUMP JUMPDEST PUSH1 0x60 PUSH0 PUSH1 0x1 PUSH0 DUP5 DUP2 MSTORE PUSH1 0x20 ADD SWAP1 DUP2 MSTORE PUSH1 0x20 ADD PUSH0 KECCAK256 SWAP1 POP PUSH0 DUP1 JUMPDEST PUSH0 DUP1 SLOAD SWAP1 POP DUP2 LT ISZERO PUSH2 0x7A3 JUMPI PUSH0 DUP2 DUP2 SLOAD DUP2 LT PUSH2 0x6F6 JUMPI PUSH2 0x6F5 PUSH2 0x1AE8 JUMP JUMPDEST JUMPDEST SWAP1 PUSH0 MSTORE PUSH1 0x20 PUSH0 KECCAK256 SWAP1 PUSH1 0x5 MUL ADD PUSH1 0x4 ADD PUSH0 SWAP1 SLOAD SWAP1 PUSH2 0x100 EXP SWAP1 DIV PUSH1 0xFF AND PUSH1 0xFF AND DUP4 PUSH1 0x2 ADD PUSH1 0x1 SWAP1 SLOAD SWAP1 PUSH2 0x100 EXP SWAP1 DIV PUSH1 0xFF AND PUSH1 0xFF AND EQ DUP1 ISZERO PUSH2 0x77C JUMPI POP PUSH0 DUP2 DUP2 SLOAD DUP2 LT PUSH2 0x745 JUMPI PUSH2 0x744 PUSH2 0x1AE8 JUMP JUMPDEST JUMPDEST SWAP1 PUSH0 MSTORE PUSH1 0x20 PUSH0 KECCAK256 SWAP1 PUSH1 0x5 MUL ADD PUSH1 0x4 ADD PUSH1 0x1 SWAP1 SLOAD SWAP1 PUSH2 0x100 EXP SWAP1 DIV PUSH1 0xFF AND PUSH1 0xFF AND DUP4 PUSH1 0x2 ADD PUSH1 0x2 SWAP1 SLOAD SWAP1 PUSH2 0x100 EXP SWAP1 DIV PUSH1 0xFF AND PUSH1 0xFF AND EQ JUMPDEST ISZERO PUSH2 0x790 JUMPI DUP2 DUP1 PUSH2 0x78C SWAP1 PUSH2 0x1B42 JUMP JUMPDEST SWAP3 POP POP JUMPDEST DUP1 DUP1 PUSH2 0x79B SWAP1 PUSH2 0x1B42 JUMP JUMPDEST SWAP2 POP POP PUSH2 0x6D7 JUMP JUMPDEST POP PUSH0 DUP2 PUSH8 0xFFFFFFFFFFFFFFFF DUP2 GT ISZERO PUSH2 0x7BF JUMPI PUSH2 0x7BE PUSH2 0x1B89 JUMP JUMPDEST JUMPDEST PUSH1 0x40 MLOAD SWAP1 DUP1 DUP3 MSTORE DUP1 PUSH1 0x20 MUL PUSH1 0x20 ADD DUP3 ADD PUSH1 0x40 MSTORE DUP1 ISZERO PUSH2 0x7F8 JUMPI DUP2 PUSH1 0x20 ADD JUMPDEST PUSH2 0x7E5 PUSH2 0x1396 JUMP JUMPDEST DUP2 MSTORE PUSH1 0x20 ADD SWAP1 PUSH1 0x1 SWAP1 SUB SWAP1 DUP2 PUSH2 0x7DD JUMPI SWAP1 POP JUMPDEST POP SWAP1 POP PUSH0 DUP1 JUMPDEST PUSH0 DUP1 SLOAD SWAP1 POP DUP2 LT ISZERO PUSH2 0xB04 JUMPI PUSH0 DUP2 DUP2 SLOAD DUP2 LT PUSH2 0x81D JUMPI PUSH2 0x81C PUSH2 0x1AE8 JUMP JUMPDEST JUMPDEST SWAP1 PUSH0 MSTORE PUSH1 0x20 PUSH0 KECCAK256 SWAP1 PUSH1 0x5 MUL ADD PUSH1 0x4 ADD PUSH0 SWAP1 SLOAD SWAP1 PUSH2 0x100 EXP SWAP1 DIV PUSH1 0xFF AND PUSH1 0xFF AND DUP6 PUSH1 0x2 ADD PUSH1 0x1 SWAP1 SLOAD SWAP1 PUSH2 0x100 EXP SWAP1 DIV PUSH1 0xFF AND PUSH1 0xFF AND EQ DUP1 ISZERO PUSH2 0x8A3 JUMPI POP PUSH0 DUP2 DUP2 SLOAD DUP2 LT PUSH2 0x86C JUMPI PUSH2 0x86B PUSH2 0x1AE8 JUMP JUMPDEST JUMPDEST SWAP1 PUSH0 MSTORE PUSH1 0x20 PUSH0 KECCAK256 SWAP1 PUSH1 0x5 MUL ADD PUSH1 0x4 ADD PUSH1 0x1 SWAP1 SLOAD SWAP1 PUSH2 0x100 EXP SWAP1 DIV PUSH1 0xFF AND PUSH1 0xFF AND DUP6 PUSH1 0x2 ADD PUSH1 0x2 SWAP1 SLOAD SWAP1 PUSH2 0x100 EXP SWAP1 DIV PUSH1 0xFF AND PUSH1 0xFF AND EQ JUMPDEST ISZERO PUSH2 0xAF1 JUMPI PUSH0 DUP2 DUP2 SLOAD DUP2 LT PUSH2 0x8BB JUMPI PUSH2 0x8BA PUSH2 0x1AE8 JUMP JUMPDEST JUMPDEST SWAP1 PUSH0 MSTORE PUSH1 0x20 PUSH0 KECCAK256 SWAP1 PUSH1 0x5 MUL ADD PUSH1 0x40 MLOAD DUP1 PUSH1 0xC0 ADD PUSH1 0x40 MSTORE SWAP1 DUP2 PUSH0 DUP3 ADD DUP1 SLOAD PUSH2 0x8E1 SWAP1 PUSH2 0x1AB8 JUMP JUMPDEST DUP1 PUSH1 0x1F ADD PUSH1 0x20 DUP1 SWAP2 DIV MUL PUSH1 0x20 ADD PUSH1 0x40 MLOAD SWAP1 DUP2 ADD PUSH1 0x40 MSTORE DUP1 SWAP3 SWAP2 SWAP1 DUP2 DUP2 MSTORE PUSH1 0x20 ADD DUP3 DUP1 SLOAD PUSH2 0x90D SWAP1 PUSH2 0x1AB8 JUMP JUMPDEST DUP1 ISZERO PUSH2 0x958 JUMPI DUP1 PUSH1 0x1F LT PUSH2 0x92F JUMPI PUSH2 0x100 DUP1 DUP4 SLOAD DIV MUL DUP4 MSTORE SWAP2 PUSH1 0x20 ADD SWAP2 PUSH2 0x958 JUMP JUMPDEST DUP3 ADD SWAP2 SWAP1 PUSH0 MSTORE PUSH1 0x20 PUSH0 KECCAK256 SWAP1 JUMPDEST DUP2 SLOAD DUP2 MSTORE SWAP1 PUSH1 0x1 ADD SWAP1 PUSH1 0x20 ADD DUP1 DUP4 GT PUSH2 0x93B JUMPI DUP3 SWAP1 SUB PUSH1 0x1F AND DUP3 ADD SWAP2 JUMPDEST POP POP POP POP POP DUP2 MSTORE PUSH1 0x20 ADD PUSH1 0x1 DUP3 ADD DUP1 SLOAD PUSH2 0x971 SWAP1 PUSH2 0x1AB8 JUMP JUMPDEST DUP1 PUSH1 0x1F ADD PUSH1 0x20 DUP1 SWAP2 DIV MUL PUSH1 0x20 ADD PUSH1 0x40 MLOAD SWAP1 DUP2 ADD PUSH1 0x40 MSTORE DUP1 SWAP3 SWAP2 SWAP1 DUP2 DUP2 MSTORE PUSH1 0x20 ADD DUP3 DUP1 SLOAD PUSH2 0x99D SWAP1 PUSH2 0x1AB8 JUMP JUMPDEST DUP1 ISZERO PUSH2 0x9E8 JUMPI DUP1 PUSH1 0x1F LT PUSH2 0x9BF JUMPI PUSH2 0x100 DUP1 DUP4 SLOAD DIV MUL DUP4 MSTORE SWAP2 PUSH1 0x20 ADD SWAP2 PUSH2 0x9E8 JUMP JUMPDEST DUP3 ADD SWAP2 SWAP1 PUSH0 MSTORE PUSH1 0x20 PUSH0 KECCAK256 SWAP1 JUMPDEST DUP2 SLOAD DUP2 MSTORE SWAP1 PUSH1 0x1 ADD SWAP1 PUSH1 0x20 ADD DUP1 DUP4 GT PUSH2 0x9CB JUMPI DUP3 SWAP1 SUB PUSH1 0x1F AND DUP3 ADD SWAP2 JUMPDEST POP POP POP POP POP DUP2 MSTORE PUSH1 0x20 ADD PUSH1 0x2 DUP3 ADD DUP1 SLOAD PUSH2 0xA01 SWAP1 PUSH2 0x1AB8 JUMP JUMPDEST DUP1 PUSH1 0x1F ADD PUSH1 0x20 DUP1 SWAP2 DIV MUL PUSH1 0x20 ADD PUSH1 0x40 MLOAD SWAP1 DUP2 ADD PUSH1 0x40 MSTORE DUP1 SWAP3 SWAP2 SWAP1 DUP2 DUP2 MSTORE PUSH1 0x20 ADD DUP3 DUP1 SLOAD PUSH2 0xA2D SWAP1 PUSH2 0x1AB8 JUMP JUMPDEST DUP1 ISZERO PUSH2 0xA78 JUMPI DUP1 PUSH1 0x1F LT PUSH2 0xA4F JUMPI PUSH2 0x100 DUP1 DUP4 SLOAD DIV MUL DUP4 MSTORE SWAP2 PUSH1 0x20 ADD SWAP2 PUSH2 0xA78 JUMP JUMPDEST DUP3 ADD SWAP2 SWAP1 PUSH0 MSTORE PUSH1 0x20 PUSH0 KECCAK256 SWAP1 JUMPDEST DUP2 SLOAD DUP2 MSTORE SWAP1 PUSH1 0x1 ADD SWAP1 PUSH1 0x20 ADD DUP1 DUP4 GT PUSH2 0xA5B JUMPI DUP3 SWAP1 SUB PUSH1 0x1F AND DUP3 ADD SWAP2 JUMPDEST POP POP POP POP POP DUP2 MSTORE PUSH1 0x20 ADD PUSH1 0x3 DUP3 ADD SLOAD DUP2 MSTORE PUSH1 0x20 ADD PUSH1 0x4 DUP3 ADD PUSH0 SWAP1 SLOAD SWAP1 PUSH2 0x100 EXP SWAP1 DIV PUSH1 0xFF AND PUSH1 0xFF AND PUSH1 0xFF AND DUP2 MSTORE PUSH1 0x20 ADD PUSH1 0x4 DUP3 ADD PUSH1 0x1 SWAP1 SLOAD SWAP1 PUSH2 0x100 EXP SWAP1 DIV PUSH1 0xFF AND PUSH1 0xFF AND PUSH1 0xFF AND DUP2 MSTORE POP POP DUP4 DUP4 DUP2 MLOAD DUP2 LT PUSH2 0xAD7 JUMPI PUSH2 0xAD6 PUSH2 0x1AE8 JUMP JUMPDEST JUMPDEST PUSH1 0x20 MUL PUSH1 0x20 ADD ADD DUP2 SWAP1 MSTORE POP DUP2 DUP1 PUSH2 0xAED SWAP1 PUSH2 0x1B42 JUMP JUMPDEST SWAP3 POP POP JUMPDEST DUP1 DUP1 PUSH2 0xAFC SWAP1 PUSH2 0x1B42 JUMP JUMPDEST SWAP2 POP POP PUSH2 0x7FE JUMP JUMPDEST POP DUP2 SWAP5 POP POP POP POP POP SWAP2 SWAP1 POP JUMP JUMPDEST PUSH1 0x60 DUP2 PUSH1 0x6 SLOAD LT PUSH2 0xB20 JUMPI PUSH0 DUP1 REVERT JUMPDEST PUSH0 DUP1 DUP1 SLOAD SWAP1 POP PUSH8 0xFFFFFFFFFFFFFFFF DUP2 GT ISZERO PUSH2 0xB3F JUMPI PUSH2 0xB3E PUSH2 0x1B89 JUMP JUMPDEST JUMPDEST PUSH1 0x40 MLOAD SWAP1 DUP1 DUP3 MSTORE DUP1 PUSH1 0x20 MUL PUSH1 0x20 ADD DUP3 ADD PUSH1 0x40 MSTORE DUP1 ISZERO PUSH2 0xB78 JUMPI DUP2 PUSH1 0x20 ADD JUMPDEST PUSH2 0xB65 PUSH2 0x13CF JUMP JUMPDEST DUP2 MSTORE PUSH1 0x20 ADD SWAP1 PUSH1 0x1 SWAP1 SUB SWAP1 DUP2 PUSH2 0xB5D JUMPI SWAP1 POP JUMPDEST POP SWAP1 POP PUSH0 JUMPDEST PUSH0 DUP1 SLOAD SWAP1 POP DUP2 LT ISZERO PUSH2 0xE9C JUMPI PUSH1 0x40 MLOAD DUP1 PUSH1 0xE0 ADD PUSH1 0x40 MSTORE DUP1 PUSH0 DUP4 DUP2 SLOAD DUP2 LT PUSH2 0xBA7 JUMPI PUSH2 0xBA6 PUSH2 0x1AE8 JUMP JUMPDEST JUMPDEST SWAP1 PUSH0 MSTORE PUSH1 0x20 PUSH0 KECCAK256 SWAP1 PUSH1 0x5 MUL ADD PUSH0 ADD DUP1 SLOAD PUSH2 0xBC0 SWAP1 PUSH2 0x1AB8 JUMP JUMPDEST DUP1 PUSH1 0x1F ADD PUSH1 0x20 DUP1 SWAP2 DIV MUL PUSH1 0x20 ADD PUSH1 0x40 MLOAD SWAP1 DUP2 ADD PUSH1 0x40 MSTORE DUP1 SWAP3 SWAP2 SWAP1 DUP2 DUP2 MSTORE PUSH1 0x20 ADD DUP3 DUP1 SLOAD PUSH2 0xBEC SWAP1 PUSH2 0x1AB8 JUMP JUMPDEST DUP1 ISZERO PUSH2 0xC37 JUMPI DUP1 PUSH1 0x1F LT PUSH2 0xC0E JUMPI PUSH2 0x100 DUP1 DUP4 SLOAD DIV MUL DUP4 MSTORE SWAP2 PUSH1 0x20 ADD SWAP2 PUSH2 0xC37 JUMP JUMPDEST DUP3 ADD SWAP2 SWAP1 PUSH0 MSTORE PUSH1 0x20 PUSH0 KECCAK256 SWAP1 JUMPDEST DUP2 SLOAD DUP2 MSTORE SWAP1 PUSH1 0x1 ADD SWAP1 PUSH1 0x20 ADD DUP1 DUP4 GT PUSH2 0xC1A JUMPI DUP3 SWAP1 SUB PUSH1 0x1F AND DUP3 ADD SWAP2 JUMPDEST POP POP POP POP POP DUP2 MSTORE PUSH1 0x20 ADD PUSH0 DUP4 DUP2 SLOAD DUP2 LT PUSH2 0xC54 JUMPI PUSH2 0xC53 PUSH2 0x1AE8 JUMP JUMPDEST JUMPDEST SWAP1 PUSH0 MSTORE PUSH1 0x20 PUSH0 KECCAK256 SWAP1 PUSH1 0x5 MUL ADD PUSH1 0x1 ADD DUP1 SLOAD PUSH2 0xC6E SWAP1 PUSH2 0x1AB8 JUMP JUMPDEST DUP1 PUSH1 0x1F ADD PUSH1 0x20 DUP1 SWAP2 DIV MUL PUSH1 0x20 ADD PUSH1 0x40 MLOAD SWAP1 DUP2 ADD PUSH1 0x40 MSTORE DUP1 SWAP3 SWAP2 SWAP1 DUP2 DUP2 MSTORE PUSH1 0x20 ADD DUP3 DUP1 SLOAD PUSH2 0xC9A SWAP1 PUSH2 0x1AB8 JUMP JUMPDEST DUP1 ISZERO PUSH2 0xCE5 JUMPI DUP1 PUSH1 0x1F LT PUSH2 0xCBC JUMPI PUSH2 0x100 DUP1 DUP4 SLOAD DIV MUL DUP4 MSTORE SWAP2 PUSH1 0x20 ADD SWAP2 PUSH2 0xCE5 JUMP JUMPDEST DUP3 ADD SWAP2 SWAP1 PUSH0 MSTORE PUSH1 0x20 PUSH0 KECCAK256 SWAP1 JUMPDEST DUP2 SLOAD DUP2 MSTORE SWAP1 PUSH1 0x1 ADD SWAP1 PUSH1 0x20 ADD DUP1 DUP4 GT PUSH2 0xCC8 JUMPI DUP3 SWAP1 SUB PUSH1 0x1F AND DUP3 ADD SWAP2 JUMPDEST POP POP POP POP POP DUP2 MSTORE PUSH1 0x20 ADD PUSH0 DUP4 DUP2 SLOAD DUP2 LT PUSH2 0xD02 JUMPI PUSH2 0xD01 PUSH2 0x1AE8 JUMP JUMPDEST JUMPDEST SWAP1 PUSH0 MSTORE PUSH1 0x20 PUSH0 KECCAK256 SWAP1 PUSH1 0x5 MUL ADD PUSH1 0x2 ADD DUP1 SLOAD PUSH2 0xD1C SWAP1 PUSH2 0x1AB8 JUMP JUMPDEST DUP1 PUSH1 0x1F ADD PUSH1 0x20 DUP1 SWAP2 DIV MUL PUSH1 0x20 ADD PUSH1 0x40 MLOAD SWAP1 DUP2 ADD PUSH1 0x40 MSTORE DUP1 SWAP3 SWAP2 SWAP1 DUP2 DUP2 MSTORE PUSH1 0x20 ADD DUP3 DUP1 SLOAD PUSH2 0xD48 SWAP1 PUSH2 0x1AB8 JUMP JUMPDEST DUP1 ISZERO PUSH2 0xD93 JUMPI DUP1 PUSH1 0x1F LT PUSH2 0xD6A JUMPI PUSH2 0x100 DUP1 DUP4 SLOAD DIV MUL DUP4 MSTORE SWAP2 PUSH1 0x20 ADD SWAP2 PUSH2 0xD93 JUMP JUMPDEST DUP3 ADD SWAP2 SWAP1 PUSH0 MSTORE PUSH1 0x20 PUSH0 KECCAK256 SWAP1 JUMPDEST DUP2 SLOAD DUP2 MSTORE SWAP1 PUSH1 0x1 ADD SWAP1 PUSH1 0x20 ADD DUP1 DUP4 GT PUSH2 0xD76 JUMPI DUP3 SWAP1 SUB PUSH1 0x1F AND DUP3 ADD SWAP2 JUMPDEST POP POP POP POP POP DUP2 MSTORE PUSH1 0x20 ADD PUSH1 0x3 PUSH0 DUP1 DUP6 DUP2 SLOAD DUP2 LT PUSH2 0xDB3 JUMPI PUSH2 0xDB2 PUSH2 0x1AE8 JUMP JUMPDEST JUMPDEST SWAP1 PUSH0 MSTORE PUSH1 0x20 PUSH0 KECCAK256 SWAP1 PUSH1 0x5 MUL ADD PUSH1 0x3 ADD SLOAD DUP2 MSTORE PUSH1 0x20 ADD SWAP1 DUP2 MSTORE PUSH1 0x20 ADD PUSH0 KECCAK256 SLOAD DUP2 MSTORE PUSH1 0x20 ADD PUSH0 DUP4 DUP2 SLOAD DUP2 LT PUSH2 0xDE9 JUMPI PUSH2 0xDE8 PUSH2 0x1AE8 JUMP JUMPDEST JUMPDEST SWAP1 PUSH0 MSTORE PUSH1 0x20 PUSH0 KECCAK256 SWAP1 PUSH1 0x5 MUL ADD PUSH1 0x3 ADD SLOAD DUP2 MSTORE PUSH1 0x20 ADD PUSH0 DUP4 DUP2 SLOAD DUP2 LT PUSH2 0xE11 JUMPI PUSH2 0xE10 PUSH2 0x1AE8 JUMP JUMPDEST JUMPDEST SWAP1 PUSH0 MSTORE PUSH1 0x20 PUSH0 KECCAK256 SWAP1 PUSH1 0x5 MUL ADD PUSH1 0x4 ADD PUSH0 SWAP1 SLOAD SWAP1 PUSH2 0x100 EXP SWAP1 DIV PUSH1 0xFF AND PUSH1 0xFF AND DUP2 MSTORE PUSH1 0x20 ADD PUSH0 DUP4 DUP2 SLOAD DUP2 LT PUSH2 0xE48 JUMPI PUSH2 0xE47 PUSH2 0x1AE8 JUMP JUMPDEST JUMPDEST SWAP1 PUSH0 MSTORE PUSH1 0x20 PUSH0 KECCAK256 SWAP1 PUSH1 0x5 MUL ADD PUSH1 0x4 ADD PUSH1 0x1 SWAP1 SLOAD SWAP1 PUSH2 0x100 EXP SWAP1 DIV PUSH1 0xFF AND PUSH1 0xFF AND DUP2 MSTORE POP DUP3 DUP3 DUP2 MLOAD DUP2 LT PUSH2 0xE7E JUMPI PUSH2 0xE7D PUSH2 0x1AE8 JUMP JUMPDEST JUMPDEST PUSH1 0x20 MUL PUSH1 0x20 ADD ADD DUP2 SWAP1 MSTORE POP DUP1 DUP1 PUSH2 0xE94 SWAP1 PUSH2 0x1B42 JUMP JUMPDEST SWAP2 POP POP PUSH2 0xB7D JUMP JUMPDEST POP DUP1 SWAP2 POP POP SWAP2 SWAP1 POP JUMP JUMPDEST DUP1 PUSH1 0x5 SLOAD DUP2 LT ISZERO PUSH2 0xEB5 JUMPI PUSH0 DUP1 REVERT JUMPDEST PUSH1 0x6 SLOAD DUP2 GT ISZERO PUSH2 0xEC3 JUMPI PUSH0 DUP1 REVERT JUMPDEST DUP3 DUP5 PUSH0 PUSH1 0x1 PUSH0 DUP5 DUP2 MSTORE PUSH1 0x20 ADD SWAP1 DUP2 MSTORE PUSH1 0x20 ADD PUSH0 KECCAK256 PUSH1 0x40 MLOAD DUP1 PUSH1 0xE0 ADD PUSH1 0x40 MSTORE SWAP1 DUP2 PUSH0 DUP3 ADD SLOAD DUP2 MSTORE PUSH1 0x20 ADD PUSH1 0x1 DUP3 ADD DUP1 SLOAD PUSH2 0xEFB SWAP1 PUSH2 0x1AB8 JUMP JUMPDEST DUP1 PUSH1 0x1F ADD PUSH1 0x20 DUP1 SWAP2 DIV MUL PUSH1 0x20 ADD PUSH1 0x40 MLOAD SWAP1 DUP2 ADD PUSH1 0x40 MSTORE DUP1 SWAP3 SWAP2 SWAP1 DUP2 DUP2 MSTORE PUSH1 0x20 ADD DUP3 DUP1 SLOAD PUSH2 0xF27 SWAP1 PUSH2 0x1AB8 JUMP JUMPDEST DUP1 ISZERO PUSH2 0xF72 JUMPI DUP1 PUSH1 0x1F LT PUSH2 0xF49 JUMPI PUSH2 0x100 DUP1 DUP4 SLOAD DIV MUL DUP4 MSTORE SWAP2 PUSH1 0x20 ADD SWAP2 PUSH2 0xF72 JUMP JUMPDEST DUP3 ADD SWAP2 SWAP1 PUSH0 MSTORE PUSH1 0x20 PUSH0 KECCAK256 SWAP1 JUMPDEST DUP2 SLOAD DUP2 MSTORE SWAP1 PUSH1 0x1 ADD SWAP1 PUSH1 0x20 ADD DUP1 DUP4 GT PUSH2 0xF55 JUMPI DUP3 SWAP1 SUB PUSH1 0x1F AND DUP3 ADD SWAP2 JUMPDEST POP POP POP POP POP DUP2 MSTORE PUSH1 0x20 ADD PUSH1 0x2 DUP3 ADD PUSH0 SWAP1 SLOAD SWAP1 PUSH2 0x100 EXP SWAP1 DIV PUSH1 0xFF AND PUSH1 0xFF AND PUSH1 0xFF AND DUP2 MSTORE PUSH1 0x20 ADD PUSH1 0x2 DUP3 ADD PUSH1 0x1 SWAP1 SLOAD SWAP1 PUSH2 0x100 EXP SWAP1 DIV PUSH1 0xFF AND PUSH1 0xFF AND PUSH1 0xFF AND DUP2 MSTORE PUSH1 0x20 ADD PUSH1 0x2 DUP3 ADD PUSH1 0x2 SWAP1 SLOAD SWAP1 PUSH2 0x100 EXP SWAP1 DIV PUSH1 0xFF AND PUSH1 0xFF AND PUSH1 0xFF AND DUP2 MSTORE PUSH1 0x20 ADD PUSH1 0x2 DUP3 ADD PUSH1 0x3 SWAP1 SLOAD SWAP1 PUSH2 0x100 EXP SWAP1 DIV PUSH1 0xFF AND ISZERO ISZERO ISZERO ISZERO DUP2 MSTORE PUSH1 0x20 ADD PUSH1 0x3 DUP3 ADD SLOAD DUP2 MSTORE POP POP SWAP1 POP PUSH0 PUSH1 0x2 PUSH0 DUP5 DUP2 MSTORE PUSH1 0x20 ADD SWAP1 DUP2 MSTORE PUSH1 0x20 ADD PUSH0 KECCAK256 PUSH1 0x40 MLOAD DUP1 PUSH1 0xC0 ADD PUSH1 0x40 MSTORE SWAP1 DUP2 PUSH0 DUP3 ADD DUP1 SLOAD PUSH2 0x1024 SWAP1 PUSH2 0x1AB8 JUMP JUMPDEST DUP1 PUSH1 0x1F ADD PUSH1 0x20 DUP1 SWAP2 DIV MUL PUSH1 0x20 ADD PUSH1 0x40 MLOAD SWAP1 DUP2 ADD PUSH1 0x40 MSTORE DUP1 SWAP3 SWAP2 SWAP1 DUP2 DUP2 MSTORE PUSH1 0x20 ADD DUP3 DUP1 SLOAD PUSH2 0x1050 SWAP1 PUSH2 0x1AB8 JUMP JUMPDEST DUP1 ISZERO PUSH2 0x109B JUMPI DUP1 PUSH1 0x1F LT PUSH2 0x1072 JUMPI PUSH2 0x100 DUP1 DUP4 SLOAD DIV MUL DUP4 MSTORE SWAP2 PUSH1 0x20 ADD SWAP2 PUSH2 0x109B JUMP JUMPDEST DUP3 ADD SWAP2 SWAP1 PUSH0 MSTORE PUSH1 0x20 PUSH0 KECCAK256 SWAP1 JUMPDEST DUP2 SLOAD DUP2 MSTORE SWAP1 PUSH1 0x1 ADD SWAP1 PUSH1 0x20 ADD DUP1 DUP4 GT PUSH2 0x107E JUMPI DUP3 SWAP1 SUB PUSH1 0x1F AND DUP3 ADD SWAP2 JUMPDEST POP POP POP POP POP DUP2 MSTORE PUSH1 0x20 ADD PUSH1 0x1 DUP3 ADD DUP1 SLOAD PUSH2 0x10B4 SWAP1 PUSH2 0x1AB8 JUMP JUMPDEST DUP1 PUSH1 0x1F ADD PUSH1 0x20 DUP1 SWAP2 DIV MUL PUSH1 0x20 ADD PUSH1 0x40 MLOAD SWAP1 DUP2 ADD PUSH1 0x40 MSTORE DUP1 SWAP3 SWAP2 SWAP1 DUP2 DUP2 MSTORE PUSH1 0x20 ADD DUP3 DUP1 SLOAD PUSH2 0x10E0 SWAP1 PUSH2 0x1AB8 JUMP JUMPDEST DUP1 ISZERO PUSH2 0x112B JUMPI DUP1 PUSH1 0x1F LT PUSH2 0x1102 JUMPI PUSH2 0x100 DUP1 DUP4 SLOAD DIV MUL DUP4 MSTORE SWAP2 PUSH1 0x20 ADD SWAP2 PUSH2 0x112B JUMP JUMPDEST DUP3 ADD SWAP2 SWAP1 PUSH0 MSTORE PUSH1 0x20 PUSH0 KECCAK256 SWAP1 JUMPDEST DUP2 SLOAD DUP2 MSTORE SWAP1 PUSH1 0x1 ADD SWAP1 PUSH1 0x20 ADD DUP1 DUP4 GT PUSH2 0x110E JUMPI DUP3 SWAP1 SUB PUSH1 0x1F AND DUP3 ADD SWAP2 JUMPDEST POP POP POP POP POP DUP2 MSTORE PUSH1 0x20 ADD PUSH1 0x2 DUP3 ADD DUP1 SLOAD PUSH2 0x1144 SWAP1 PUSH2 0x1AB8 JUMP JUMPDEST DUP1 PUSH1 0x1F ADD PUSH1 0x20 DUP1 SWAP2 DIV MUL PUSH1 0x20 ADD PUSH1 0x40 MLOAD SWAP1 DUP2 ADD PUSH1 0x40 MSTORE DUP1 SWAP3 SWAP2 SWAP1 DUP2 DUP2 MSTORE PUSH1 0x20 ADD DUP3 DUP1 SLOAD PUSH2 0x1170 SWAP1 PUSH2 0x1AB8 JUMP JUMPDEST DUP1 ISZERO PUSH2 0x11BB JUMPI DUP1 PUSH1 0x1F LT PUSH2 0x1192 JUMPI PUSH2 0x100 DUP1 DUP4 SLOAD DIV MUL DUP4 MSTORE SWAP2 PUSH1 0x20 ADD SWAP2 PUSH2 0x11BB JUMP JUMPDEST DUP3 ADD SWAP2 SWAP1 PUSH0 MSTORE PUSH1 0x20 PUSH0 KECCAK256 SWAP1 JUMPDEST DUP2 SLOAD DUP2 MSTORE SWAP1 PUSH1 0x1 ADD SWAP1 PUSH1 0x20 ADD DUP1 DUP4 GT PUSH2 0x119E JUMPI DUP3 SWAP1 SUB PUSH1 0x1F AND DUP3 ADD SWAP2 JUMPDEST POP POP POP POP POP DUP2 MSTORE PUSH1 0x20 ADD PUSH1 0x3 DUP3 ADD SLOAD DUP2 MSTORE PUSH1 0x20 ADD PUSH1 0x4 DUP3 ADD PUSH0 SWAP1 SLOAD SWAP1 PUSH2 0x100 EXP SWAP1 DIV PUSH1 0xFF AND PUSH1 0xFF AND PUSH1 0xFF AND DUP2 MSTORE PUSH1 0x20 ADD PUSH1 0x4 DUP3 ADD PUSH1 0x1 SWAP1 SLOAD SWAP1 PUSH2 0x100 EXP SWAP1 DIV PUSH1 0xFF AND PUSH1 0xFF AND PUSH1 0xFF AND DUP2 MSTORE POP POP SWAP1 POP PUSH1 0x12 DUP3 PUSH1 0x40 ADD MLOAD PUSH1 0xFF AND LT ISZERO PUSH2 0x121D JUMPI PUSH0 DUP1 REVERT JUMPDEST DUP2 PUSH1 0xA0 ADD MLOAD PUSH2 0x122A JUMPI PUSH0 DUP1 REVERT JUMPDEST PUSH0 DUP3 PUSH1 0xC0 ADD MLOAD EQ PUSH2 0x1239 JUMPI PUSH0 DUP1 REVERT JUMPDEST DUP2 PUSH1 0x60 ADD MLOAD PUSH1 0xFF AND DUP2 PUSH1 0x80 ADD MLOAD PUSH1 0xFF AND EQ DUP1 ISZERO PUSH2 0x1263 JUMPI POP DUP2 PUSH1 0x80 ADD MLOAD PUSH1 0xFF AND DUP2 PUSH1 0xA0 ADD MLOAD PUSH1 0xFF AND EQ JUMPDEST PUSH2 0x126B JUMPI PUSH0 DUP1 REVERT JUMPDEST DUP8 PUSH1 0x1 PUSH0 DUP10 DUP2 MSTORE PUSH1 0x20 ADD SWAP1 DUP2 MSTORE PUSH1 0x20 ADD PUSH0 KECCAK256 PUSH1 0x3 ADD DUP2 SWAP1 SSTORE POP PUSH0 PUSH1 0x3 PUSH0 DUP11 DUP2 MSTORE PUSH1 0x20 ADD SWAP1 DUP2 MSTORE PUSH1 0x20 ADD PUSH0 KECCAK256 SLOAD SWAP1 POP PUSH1 0x1 DUP2 PUSH2 0x12A6 SWAP2 SWAP1 PUSH2 0x1BB6 JUMP JUMPDEST PUSH1 0x3 PUSH0 DUP12 DUP2 MSTORE PUSH1 0x20 ADD SWAP1 DUP2 MSTORE PUSH1 0x20 ADD PUSH0 KECCAK256 DUP2 SWAP1 SSTORE POP POP POP POP POP POP POP POP POP POP JUMP JUMPDEST PUSH0 PUSH1 0x6 SLOAD SWAP1 POP SWAP1 JUMP JUMPDEST PUSH1 0x4 PUSH0 SWAP1 SLOAD SWAP1 PUSH2 0x100 EXP SWAP1 DIV PUSH20 0xFFFFFFFFFFFFFFFFFFFFFFFFFFFFFFFFFFFFFFFF AND PUSH20 0xFFFFFFFFFFFFFFFFFFFFFFFFFFFFFFFFFFFFFFFF AND CALLER PUSH20 0xFFFFFFFFFFFFFFFFFFFFFFFFFFFFFFFFFFFFFFFF AND EQ PUSH2 0x1327 JUMPI PUSH0 DUP1 REVERT JUMPDEST DUP1 PUSH1 0x5 SLOAD GT PUSH2 0x1334 JUMPI PUSH0 DUP1 REVERT JUMPDEST DUP2 PUSH1 0x5 DUP2 SWAP1 SSTORE POP POP POP JUMP JUMPDEST PUSH0 DUP1 PUSH1 0x1 PUSH0 DUP5 DUP2 MSTORE PUSH1 0x20 ADD SWAP1 DUP2 MSTORE PUSH1 0x20 ADD PUSH0 KECCAK256 SWAP1 POP PUSH1 0x12 DUP2 PUSH1 0x2 ADD PUSH0 SWAP1 SLOAD SWAP1 PUSH2 0x100 EXP SWAP1 DIV PUSH1 0xFF AND PUSH1 0xFF AND LT ISZERO DUP1 ISZERO PUSH2 0x1386 JUMPI POP DUP1 PUSH1 0x2 ADD PUSH1 0x3 SWAP1 SLOAD SWAP1 PUSH2 0x100 EXP SWAP1 DIV PUSH1 0xFF AND JUMPDEST ISZERO PUSH2 0x1390 JUMPI PUSH1 0x1 SWAP2 POP JUMPDEST POP SWAP2 SWAP1 POP JUMP JUMPDEST PUSH1 0x40 MLOAD DUP1 PUSH1 0xC0 ADD PUSH1 0x40 MSTORE DUP1 PUSH1 0x60 DUP2 MSTORE PUSH1 0x20 ADD PUSH1 0x60 DUP2 MSTORE PUSH1 0x20 ADD PUSH1 0x60 DUP2 MSTORE PUSH1 0x20 ADD PUSH0 DUP2 MSTORE PUSH1 0x20 ADD PUSH0 PUSH1 0xFF AND DUP2 MSTORE PUSH1 0x20 ADD PUSH0 PUSH1 0xFF AND DUP2 MSTORE POP SWAP1 JUMP JUMPDEST PUSH1 0x40 MLOAD DUP1 PUSH1 0xE0 ADD PUSH1 0x40 MSTORE DUP1 PUSH1 0x60 DUP2 MSTORE PUSH1 0x20 ADD PUSH1 0x60 DUP2 MSTORE PUSH1 0x20 ADD PUSH1 0x60 DUP2 MSTORE PUSH1 0x20 ADD PUSH0 DUP2 MSTORE PUSH1 0x20 ADD PUSH0 DUP2 MSTORE PUSH1 0x20 ADD PUSH0 PUSH1 0xFF AND DUP2 MSTORE PUSH1 0x20 ADD PUSH0 PUSH1 0xFF AND DUP2 MSTORE POP SWAP1 JUMP JUMPDEST PUSH0 DUP1 REVERT JUMPDEST PUSH0 DUP2 SWAP1 POP SWAP2 SWAP1 POP JUMP JUMPDEST PUSH2 0x1424 DUP2 PUSH2 0x1412 JUMP JUMPDEST DUP2 EQ PUSH2 0x142E JUMPI PUSH0 DUP1 REVERT JUMPDEST POP JUMP JUMPDEST PUSH0 DUP2 CALLDATALOAD SWAP1 POP PUSH2 0x143F DUP2 PUSH2 0x141B JUMP JUMPDEST SWAP3 SWAP2 POP POP JUMP JUMPDEST PUSH0 PUSH1 0x20 DUP3 DUP5 SUB SLT ISZERO PUSH2 0x145A JUMPI PUSH2 0x1459 PUSH2 0x140E JUMP JUMPDEST JUMPDEST PUSH0 PUSH2 0x1467 DUP5 DUP3 DUP6 ADD PUSH2 0x1431 JUMP JUMPDEST SWAP2 POP POP SWAP3 SWAP2 POP POP JUMP JUMPDEST PUSH0 DUP2 MLOAD SWAP1 POP SWAP2 SWAP1 POP JUMP JUMPDEST PUSH0 DUP3 DUP3 MSTORE PUSH1 0x20 DUP3 ADD SWAP1 POP SWAP3 SWAP2 POP POP JUMP JUMPDEST PUSH0 JUMPDEST DUP4 DUP2 LT ISZERO PUSH2 0x14A7 JUMPI DUP1 DUP3 ADD MLOAD DUP2 DUP5 ADD MSTORE PUSH1 0x20 DUP2 ADD SWAP1 POP PUSH2 0x148C JUMP JUMPDEST PUSH0 DUP5 DUP5 ADD MSTORE POP POP POP POP JUMP JUMPDEST PUSH0 PUSH1 0x1F NOT PUSH1 0x1F DUP4 ADD AND SWAP1 POP SWAP2 SWAP1 POP JUMP JUMPDEST PUSH0 PUSH2 0x14CC DUP3 PUSH2 0x1470 JUMP JUMPDEST PUSH2 0x14D6 DUP2 DUP6 PUSH2 0x147A JUMP JUMPDEST SWAP4 POP PUSH2 0x14E6 DUP2 DUP6 PUSH1 0x20 DUP7 ADD PUSH2 0x148A JUMP JUMPDEST PUSH2 0x14EF DUP2 PUSH2 0x14B2 JUMP JUMPDEST DUP5 ADD SWAP2 POP POP SWAP3 SWAP2 POP POP JUMP JUMPDEST PUSH2 0x1503 DUP2 PUSH2 0x1412 JUMP JUMPDEST DUP3 MSTORE POP POP JUMP JUMPDEST PUSH0 PUSH1 0xFF DUP3 AND SWAP1 POP SWAP2 SWAP1 POP JUMP JUMPDEST PUSH2 0x151E DUP2 PUSH2 0x1509 JUMP JUMPDEST DUP3 MSTORE POP POP JUMP JUMPDEST PUSH0 PUSH1 0xC0 DUP3 ADD SWAP1 POP DUP2 DUP2 SUB PUSH0 DUP4 ADD MSTORE PUSH2 0x153C DUP2 DUP10 PUSH2 0x14C2 JUMP JUMPDEST SWAP1 POP DUP2 DUP2 SUB PUSH1 0x20 DUP4 ADD MSTORE PUSH2 0x1550 DUP2 DUP9 PUSH2 0x14C2 JUMP JUMPDEST SWAP1 POP DUP2 DUP2 SUB PUSH1 0x40 DUP4 ADD MSTORE PUSH2 0x1564 DUP2 DUP8 PUSH2 0x14C2 JUMP JUMPDEST SWAP1 POP PUSH2 0x1573 PUSH1 0x60 DUP4 ADD DUP7 PUSH2 0x14FA JUMP JUMPDEST PUSH2 0x1580 PUSH1 0x80 DUP4 ADD DUP6 PUSH2 0x1515 JUMP JUMPDEST PUSH2 0x158D PUSH1 0xA0 DUP4 ADD DUP5 PUSH2 0x1515 JUMP JUMPDEST SWAP8 SWAP7 POP POP POP POP POP POP POP JUMP JUMPDEST PUSH0 DUP1 PUSH1 0x40 DUP4 DUP6 SUB SLT ISZERO PUSH2 0x15AE JUMPI PUSH2 0x15AD PUSH2 0x140E JUMP JUMPDEST JUMPDEST PUSH0 PUSH2 0x15BB DUP6 DUP3 DUP7 ADD PUSH2 0x1431 JUMP JUMPDEST SWAP3 POP POP PUSH1 0x20 PUSH2 0x15CC DUP6 DUP3 DUP7 ADD PUSH2 0x1431 JUMP JUMPDEST SWAP2 POP POP SWAP3 POP SWAP3 SWAP1 POP JUMP JUMPDEST PUSH0 DUP2 ISZERO ISZERO SWAP1 POP SWAP2 SWAP1 POP JUMP JUMPDEST PUSH2 0x15EA DUP2 PUSH2 0x15D6 JUMP JUMPDEST DUP3 MSTORE POP POP JUMP JUMPDEST PUSH0 DUP3 DUP3 MSTORE PUSH1 0x20 DUP3 ADD SWAP1 POP SWAP3 SWAP2 POP POP JUMP JUMPDEST PUSH0 PUSH2 0x160A DUP3 PUSH2 0x1470 JUMP JUMPDEST PUSH2 0x1614 DUP2 DUP6 PUSH2 0x15F0 JUMP JUMPDEST SWAP4 POP PUSH2 0x1624 DUP2 DUP6 PUSH1 0x20 DUP7 ADD PUSH2 0x148A JUMP JUMPDEST PUSH2 0x162D DUP2 PUSH2 0x14B2 JUMP JUMPDEST DUP5 ADD SWAP2 POP POP SWAP3 SWAP2 POP POP JUMP JUMPDEST PUSH2 0x1641 DUP2 PUSH2 0x1412 JUMP JUMPDEST DUP3 MSTORE POP POP JUMP JUMPDEST PUSH2 0x1650 DUP2 PUSH2 0x1509 JUMP JUMPDEST DUP3 MSTORE POP POP JUMP JUMPDEST PUSH0 PUSH1 0xC0 DUP4 ADD PUSH0 DUP4 ADD MLOAD DUP5 DUP3 SUB PUSH0 DUP7 ADD MSTORE PUSH2 0x1670 DUP3 DUP3 PUSH2 0x1600 JUMP JUMPDEST SWAP2 POP POP PUSH1 0x20 DUP4 ADD MLOAD DUP5 DUP3 SUB PUSH1 0x20 DUP7 ADD MSTORE PUSH2 0x168A DUP3 DUP3 PUSH2 0x1600 JUMP JUMPDEST SWAP2 POP POP PUSH1 0x40 DUP4 ADD MLOAD DUP5 DUP3 SUB PUSH1 0x40 DUP7 ADD MSTORE PUSH2 0x16A4 DUP3 DUP3 PUSH2 0x1600 JUMP JUMPDEST SWAP2 POP POP PUSH1 0x60 DUP4 ADD MLOAD PUSH2 0x16B9 PUSH1 0x60 DUP7 ADD DUP3 PUSH2 0x1638 JUMP JUMPDEST POP PUSH1 0x80 DUP4 ADD MLOAD PUSH2 0x16CC PUSH1 0x80 DUP7 ADD DUP3 PUSH2 0x1647 JUMP JUMPDEST POP PUSH1 0xA0 DUP4 ADD MLOAD PUSH2 0x16DF PUSH1 0xA0 DUP7 ADD DUP3 PUSH2 0x1647 JUMP JUMPDEST POP DUP1 SWAP2 POP POP SWAP3 SWAP2 POP POP JUMP JUMPDEST PUSH0 PUSH1 0x40 DUP3 ADD SWAP1 POP PUSH2 0x16FD PUSH0 DUP4 ADD DUP6 PUSH2 0x15E1 JUMP JUMPDEST DUP2 DUP2 SUB PUSH1 0x20 DUP4 ADD MSTORE PUSH2 0x170F DUP2 DUP5 PUSH2 0x1656 JUMP JUMPDEST SWAP1 POP SWAP4 SWAP3 POP POP POP JUMP JUMPDEST PUSH0 DUP2 MLOAD SWAP1 POP SWAP2 SWAP1 POP JUMP JUMPDEST PUSH0 DUP3 DUP3 MSTORE PUSH1 0x20 DUP3 ADD SWAP1 POP SWAP3 SWAP2 POP POP JUMP JUMPDEST PUSH0 DUP2 SWAP1 POP PUSH1 0x20 DUP3 ADD SWAP1 POP SWAP2 SWAP1 POP JUMP JUMPDEST PUSH0 PUSH1 0xC0 DUP4 ADD PUSH0 DUP4 ADD MLOAD DUP5 DUP3 SUB PUSH0 DUP7 ADD MSTORE PUSH2 0x175B DUP3 DUP3 PUSH2 0x1600 JUMP JUMPDEST SWAP2 POP POP PUSH1 0x20 DUP4 ADD MLOAD DUP5 DUP3 SUB PUSH1 0x20 DUP7 ADD MSTORE PUSH2 0x1775 DUP3 DUP3 PUSH2 0x1600 JUMP JUMPDEST SWAP2 POP POP PUSH1 0x40 DUP4 ADD MLOAD DUP5 DUP3 SUB PUSH1 0x40 DUP7 ADD MSTORE PUSH2 0x178F DUP3 DUP3 PUSH2 0x1600 JUMP JUMPDEST SWAP2 POP POP PUSH1 0x60 DUP4 ADD MLOAD PUSH2 0x17A4 PUSH1 0x60 DUP7 ADD DUP3 PUSH2 0x1638 JUMP JUMPDEST POP PUSH1 0x80 DUP4 ADD MLOAD PUSH2 0x17B7 PUSH1 0x80 DUP7 ADD DUP3 PUSH2 0x1647 JUMP JUMPDEST POP PUSH1 0xA0 DUP4 ADD MLOAD PUSH2 0x17CA PUSH1 0xA0 DUP7 ADD DUP3 PUSH2 0x1647 JUMP JUMPDEST POP DUP1 SWAP2 POP POP SWAP3 SWAP2 POP POP JUMP JUMPDEST PUSH0 PUSH2 0x17E0 DUP4 DUP4 PUSH2 0x1741 JUMP JUMPDEST SWAP1 POP SWAP3 SWAP2 POP POP JUMP JUMPDEST PUSH0 PUSH1 0x20 DUP3 ADD SWAP1 POP SWAP2 SWAP1 POP JUMP JUMPDEST PUSH0 PUSH2 0x17FE DUP3 PUSH2 0x1718 JUMP JUMPDEST PUSH2 0x1808 DUP2 DUP6 PUSH2 0x1722 JUMP JUMPDEST SWAP4 POP DUP4 PUSH1 0x20 DUP3 MUL DUP6 ADD PUSH2 0x181A DUP6 PUSH2 0x1732 JUMP JUMPDEST DUP1 PUSH0 JUMPDEST DUP6 DUP2 LT ISZERO PUSH2 0x1855 JUMPI DUP5 DUP5 SUB DUP10 MSTORE DUP2 MLOAD PUSH2 0x1836 DUP6 DUP3 PUSH2 0x17D5 JUMP JUMPDEST SWAP5 POP PUSH2 0x1841 DUP4 PUSH2 0x17E8 JUMP JUMPDEST SWAP3 POP PUSH1 0x20 DUP11 ADD SWAP10 POP POP PUSH1 0x1 DUP2 ADD SWAP1 POP PUSH2 0x181D JUMP JUMPDEST POP DUP3 SWAP8 POP DUP8 SWAP6 POP POP POP POP POP POP SWAP3 SWAP2 POP POP JUMP JUMPDEST PUSH0 PUSH1 0x20 DUP3 ADD SWAP1 POP DUP2 DUP2 SUB PUSH0 DUP4 ADD MSTORE PUSH2 0x187F DUP2 DUP5 PUSH2 0x17F4 JUMP JUMPDEST SWAP1 POP SWAP3 SWAP2 POP POP JUMP JUMPDEST PUSH0 DUP2 MLOAD SWAP1 POP SWAP2 SWAP1 POP JUMP JUMPDEST PUSH0 DUP3 DUP3 MSTORE PUSH1 0x20 DUP3 ADD SWAP1 POP SWAP3 SWAP2 POP POP JUMP JUMPDEST PUSH0 DUP2 SWAP1 POP PUSH1 0x20 DUP3 ADD SWAP1 POP SWAP2 SWAP1 POP JUMP JUMPDEST PUSH0 PUSH1 0xE0 DUP4 ADD PUSH0 DUP4 ADD MLOAD DUP5 DUP3 SUB PUSH0 DUP7 ADD MSTORE PUSH2 0x18CA DUP3 DUP3 PUSH2 0x1600 JUMP JUMPDEST SWAP2 POP POP PUSH1 0x20 DUP4 ADD MLOAD DUP5 DUP3 SUB PUSH1 0x20 DUP7 ADD MSTORE PUSH2 0x18E4 DUP3 DUP3 PUSH2 0x1600 JUMP JUMPDEST SWAP2 POP POP PUSH1 0x40 DUP4 ADD MLOAD DUP5 DUP3 SUB PUSH1 0x40 DUP7 ADD MSTORE PUSH2 0x18FE DUP3 DUP3 PUSH2 0x1600 JUMP JUMPDEST SWAP2 POP POP PUSH1 0x60 DUP4 ADD MLOAD PUSH2 0x1913 PUSH1 0x60 DUP7 ADD DUP3 PUSH2 0x1638 JUMP JUMPDEST POP PUSH1 0x80 DUP4 ADD MLOAD PUSH2 0x1926 PUSH1 0x80 DUP7 ADD DUP3 PUSH2 0x1638 JUMP JUMPDEST POP PUSH1 0xA0 DUP4 ADD MLOAD PUSH2 0x1939 PUSH1 0xA0 DUP7 ADD DUP3 PUSH2 0x1647 JUMP JUMPDEST POP PUSH1 0xC0 DUP4 ADD MLOAD PUSH2 0x194C PUSH1 0xC0 DUP7 ADD DUP3 PUSH2 0x1647 JUMP JUMPDEST POP DUP1 SWAP2 POP POP SWAP3 SWAP2 POP POP JUMP JUMPDEST PUSH0 PUSH2 0x1962 DUP4 DUP4 PUSH2 0x18B0 JUMP JUMPDEST SWAP1 POP SWAP3 SWAP2 POP POP JUMP JUMPDEST PUSH0 PUSH1 0x20 DUP3 ADD SWAP1 POP SWAP2 SWAP1 POP JUMP JUMPDEST PUSH0 PUSH2 0x1980 DUP3 PUSH2 0x1887 JUMP JUMPDEST PUSH2 0x198A DUP2 DUP6 PUSH2 0x1891 JUMP JUMPDEST SWAP4 POP DUP4 PUSH1 0x20 DUP3 MUL DUP6 ADD PUSH2 0x199C DUP6 PUSH2 0x18A1 JUMP JUMPDEST DUP1 PUSH0 JUMPDEST DUP6 DUP2 LT ISZERO PUSH2 0x19D7 JUMPI DUP5 DUP5 SUB DUP10 MSTORE DUP2 MLOAD PUSH2 0x19B8 DUP6 DUP3 PUSH2 0x1957 JUMP JUMPDEST SWAP5 POP PUSH2 0x19C3 DUP4 PUSH2 0x196A JUMP JUMPDEST SWAP3 POP PUSH1 0x20 DUP11 ADD SWAP10 POP POP PUSH1 0x1 DUP2 ADD SWAP1 POP PUSH2 0x199F JUMP JUMPDEST POP DUP3 SWAP8 POP DUP8 SWAP6 POP POP POP POP POP POP SWAP3 SWAP2 POP POP JUMP JUMPDEST PUSH0 PUSH1 0x20 DUP3 ADD SWAP1 POP DUP2 DUP2 SUB PUSH0 DUP4 ADD MSTORE PUSH2 0x1A01 DUP2 DUP5 PUSH2 0x1976 JUMP JUMPDEST SWAP1 POP SWAP3 SWAP2 POP POP JUMP JUMPDEST PUSH0 DUP1 PUSH0 PUSH1 0x60 DUP5 DUP7 SUB SLT ISZERO PUSH2 0x1A20 JUMPI PUSH2 0x1A1F PUSH2 0x140E JUMP JUMPDEST JUMPDEST PUSH0 PUSH2 0x1A2D DUP7 DUP3 DUP8 ADD PUSH2 0x1431 JUMP JUMPDEST SWAP4 POP POP PUSH1 0x20 PUSH2 0x1A3E DUP7 DUP3 DUP8 ADD PUSH2 0x1431 JUMP JUMPDEST SWAP3 POP POP PUSH1 0x40 PUSH2 0x1A4F DUP7 DUP3 DUP8 ADD PUSH2 0x1431 JUMP JUMPDEST SWAP2 POP POP SWAP3 POP SWAP3 POP SWAP3 JUMP JUMPDEST PUSH0 PUSH1 0x20 DUP3 ADD SWAP1 POP PUSH2 0x1A6C PUSH0 DUP4 ADD DUP5 PUSH2 0x14FA JUMP JUMPDEST SWAP3 SWAP2 POP POP JUMP JUMPDEST PUSH0 PUSH1 0x20 DUP3 ADD SWAP1 POP PUSH2 0x1A85 PUSH0 DUP4 ADD DUP5 PUSH2 0x15E1 JUMP JUMPDEST SWAP3 SWAP2 POP POP JUMP JUMPDEST PUSH32 0x4E487B7100000000000000000000000000000000000000000000000000000000 PUSH0 MSTORE PUSH1 0x22 PUSH1 0x4 MSTORE PUSH1 0x24 PUSH0 REVERT JUMPDEST PUSH0 PUSH1 0x2 DUP3 DIV SWAP1 POP PUSH1 0x1 DUP3 AND DUP1 PUSH2 0x1ACF JUMPI PUSH1 0x7F DUP3 AND SWAP2 POP JUMPDEST PUSH1 0x20 DUP3 LT DUP2 SUB PUSH2 0x1AE2 JUMPI PUSH2 0x1AE1 PUSH2 0x1A8B JUMP JUMPDEST JUMPDEST POP SWAP2 SWAP1 POP JUMP JUMPDEST PUSH32 0x4E487B7100000000000000000000000000000000000000000000000000000000 PUSH0 MSTORE PUSH1 0x32 PUSH1 0x4 MSTORE PUSH1 0x24 PUSH0 REVERT JUMPDEST PUSH32 0x4E487B7100000000000000000000000000000000000000000000000000000000 PUSH0 MSTORE PUSH1 0x11 PUSH1 0x4 MSTORE PUSH1 0x24 PUSH0 REVERT JUMPDEST PUSH0 PUSH2 0x1B4C DUP3 PUSH2 0x1412 JUMP JUMPDEST SWAP2 POP PUSH32 0xFFFFFFFFFFFFFFFFFFFFFFFFFFFFFFFFFFFFFFFFFFFFFFFFFFFFFFFFFFFFFFFF DUP3 SUB PUSH2 0x1B7E JUMPI PUSH2 0x1B7D PUSH2 0x1B15 JUMP JUMPDEST JUMPDEST PUSH1 0x1 DUP3 ADD SWAP1 POP SWAP2 SWAP1 POP JUMP JUMPDEST PUSH32 0x4E487B7100000000000000000000000000000000000000000000000000000000 PUSH0 MSTORE PUSH1 0x41 PUSH1 0x4 MSTORE PUSH1 0x24 PUSH0 REVERT JUMPDEST PUSH0 PUSH2 0x1BC0 DUP3 PUSH2 0x1412 JUMP JUMPDEST SWAP2 POP PUSH2 0x1BCB DUP4 PUSH2 0x1412 JUMP JUMPDEST SWAP3 POP DUP3 DUP3 ADD SWAP1 POP DUP1 DUP3 GT ISZERO PUSH2 0x1BE3 JUMPI PUSH2 0x1BE2 PUSH2 0x1B15 JUMP JUMPDEST JUMPDEST SWAP3 SWAP2 POP POP JUMP INVALID LOG2 PUSH5 0x6970667358 0x22 SLT KECCAK256 DUP7 0x4C 0xE3 SWAP10 KECCAK256 PUSH25 0x5AED5FE40DD6EC6104B83BEF6A7F005FB3B26302C9E8E8398F 0xAC PUSH5 0x736F6C6343 STOP ADDMOD EQ STOP CALLER PUSH9 0x747470733A2F2F7265 PUSH20 0x2E636C6F7564696E6172792E636F6D2F646A3974 PUSH21 0x7362676D2F696D6167652F75706C6F61642F763136 CALLVALUE CODESIZE BALANCE ADDRESS BALANCE ADDRESS CALLDATASIZE CALLDATALOAD 0x2F BALANCE ORIGIN ADDRESS ADDRESS PUSH17 0x782D524A445F466C61672E7376675F6172 PUSH19 0x7276742E706E6768747470733A2F2F7265732E PUSH4 0x6C6F7564 PUSH10 0x6E6172792E636F6D2F64 PUSH11 0x3974747362676D2F696D61 PUSH8 0x652F75706C6F6164 0x2F PUSH23 0x313634383130313036352F79737263705F736173333131 0x2E PUSH17 0x6E6768747470733A2F2F7265732E636C6F PUSH22 0x64696E6172792E636F6D2F646A3974747362676D2F69 PUSH14 0x6167652F75706C6F61642F763136 CALLVALUE CODESIZE BALANCE ADDRESS BALANCE ADDRESS CALLDATASIZE CALLVALUE 0x2F PUSH3 0x6A705F PUSH15 0x6B34736E772E706E6768747470733A 0x2F 0x2F PUSH19 0x65732E636C6F7564696E6172792E636F6D2F64 PUSH11 0x3974747362676D2F696D61 PUSH8 0x652F75706C6F6164 0x2F PUSH23 0x313634383130313036352F6161705F756A6775796C2E70 PUSH15 0x6768747470733A2F2F7265732E636C PUSH16 0x7564696E6172792E636F6D2F646A3974 PUSH21 0x7362676D2F696D6167652F75706C6F61642F763136 CALLVALUE CODESIZE BALANCE ADDRESS BALANCE ADDRESS CALLDATASIZE CALLVALUE 0x2F PUSH10 0x6E635F73316F716E352E PUSH17 0x6E6768747470733A2F2F7265732E636C6F PUSH22 0x64696E6172792E636F6D2F646A3974747362676D2F69 PUSH14 0x6167652F75706C6F61642F763136 CALLVALUE CODESIZE BALANCE ADDRESS BALANCE ADDRESS CALLDATASIZE CALLVALUE 0x2F BALANCE ADDRESS ORIGIN CALLVALUE PUSH17 0x782D4370696D5F70617274795F73796D62 PUSH16 0x6C2E7376675F6D75316770702E706E67 PUSH9 0x747470733A2F2F7265 PUSH20 0x2E636C6F7564696E6172792E636F6D2F646A3974 PUSH21 0x7362676D2F696D6167652F75706C6F61642F763136 CALLVALUE CODESIZE BALANCE ADDRESS BALANCE ADDRESS CALLDATASIZE CALLDATALOAD 0x2F PUSH21 0x64705F716831726B6A2E706E670000000000000000 "
				},
				"gasEstimates": {
					"creation": {
						"codeDepositCost": "1439800",
						"executionCost": "infinite",
						"totalCost": "infinite"
					},
					"external": {
						"candidates(uint256)": "infinite",
						"didCurrentVoterVoted(uint256)": "infinite",
						"extendVotingTime(uint256,uint256)": "infinite",
						"getCandidateList(uint256)": "infinite",
						"getResults(uint256)": "infinite",
						"getVotingEndTime()": "2476",
						"isVoterEligible(uint256)": "5169",
						"updateVotingStartTime(uint256,uint256)": "infinite",
						"vote(uint256,uint256,uint256)": "infinite"
					},
					"internal": {
						"initializeCandidateDatabase_()": "infinite",
						"initializeVoterDatabase_()": "infinite"
					}
				},
				"methodIdentifiers": {
					"candidates(uint256)": "3477ee2e",
					"didCurrentVoterVoted(uint256)": "5e23c37c",
					"extendVotingTime(uint256,uint256)": "5d816e22",
					"getCandidateList(uint256)": "618bde0a",
					"getResults(uint256)": "81a60c0d",
					"getVotingEndTime()": "b1bf87b0",
					"isVoterEligible(uint256)": "dce8d8a3",
					"updateVotingStartTime(uint256,uint256)": "b9d84552",
					"vote(uint256,uint256,uint256)": "8a6655d6"
				}
			},
			"storageLayout": {
				"storage": [
					{
						"astId": 8,
						"contract": "contracts/Capstone.sol:Capstone",
						"label": "candidates",
						"offset": 0,
						"slot": "0",
						"type": "t_array(t_struct(Candidate)1513_storage)dyn_storage"
					},
					{
						"astId": 13,
						"contract": "contracts/Capstone.sol:Capstone",
						"label": "voter",
						"offset": 0,
						"slot": "1",
						"type": "t_mapping(t_uint256,t_struct(Voter)1500_storage)"
					},
					{
						"astId": 18,
						"contract": "contracts/Capstone.sol:Capstone",
						"label": "candidate",
						"offset": 0,
						"slot": "2",
						"type": "t_mapping(t_uint256,t_struct(Candidate)1513_storage)"
					},
					{
						"astId": 22,
						"contract": "contracts/Capstone.sol:Capstone",
						"label": "votesCount",
						"offset": 0,
						"slot": "3",
						"type": "t_mapping(t_uint256,t_uint256)"
					},
					{
						"astId": 24,
						"contract": "contracts/Capstone.sol:Capstone",
						"label": "electionChief",
						"offset": 0,
						"slot": "4",
						"type": "t_address"
					},
					{
						"astId": 26,
						"contract": "contracts/Capstone.sol:Capstone",
						"label": "votingStartTime",
						"offset": 0,
						"slot": "5",
						"type": "t_uint256"
					},
					{
						"astId": 28,
						"contract": "contracts/Capstone.sol:Capstone",
						"label": "votingEndTime",
						"offset": 0,
						"slot": "6",
						"type": "t_uint256"
					}
				],
				"types": {
					"t_address": {
						"encoding": "inplace",
						"label": "address",
						"numberOfBytes": "20"
					},
					"t_array(t_struct(Candidate)1513_storage)dyn_storage": {
						"base": "t_struct(Candidate)1513_storage",
						"encoding": "dynamic_array",
						"label": "struct Types.Candidate[]",
						"numberOfBytes": "32"
					},
					"t_bool": {
						"encoding": "inplace",
						"label": "bool",
						"numberOfBytes": "1"
					},
					"t_mapping(t_uint256,t_struct(Candidate)1513_storage)": {
						"encoding": "mapping",
						"key": "t_uint256",
						"label": "mapping(uint256 => struct Types.Candidate)",
						"numberOfBytes": "32",
						"value": "t_struct(Candidate)1513_storage"
					},
					"t_mapping(t_uint256,t_struct(Voter)1500_storage)": {
						"encoding": "mapping",
						"key": "t_uint256",
						"label": "mapping(uint256 => struct Types.Voter)",
						"numberOfBytes": "32",
						"value": "t_struct(Voter)1500_storage"
					},
					"t_mapping(t_uint256,t_uint256)": {
						"encoding": "mapping",
						"key": "t_uint256",
						"label": "mapping(uint256 => uint256)",
						"numberOfBytes": "32",
						"value": "t_uint256"
					},
					"t_string_storage": {
						"encoding": "bytes",
						"label": "string",
						"numberOfBytes": "32"
					},
					"t_struct(Candidate)1513_storage": {
						"encoding": "inplace",
						"label": "struct Types.Candidate",
						"members": [
							{
								"astId": 1502,
								"contract": "contracts/Capstone.sol:Capstone",
								"label": "name",
								"offset": 0,
								"slot": "0",
								"type": "t_string_storage"
							},
							{
								"astId": 1504,
								"contract": "contracts/Capstone.sol:Capstone",
								"label": "partyShortcut",
								"offset": 0,
								"slot": "1",
								"type": "t_string_storage"
							},
							{
								"astId": 1506,
								"contract": "contracts/Capstone.sol:Capstone",
								"label": "partyFlag",
								"offset": 0,
								"slot": "2",
								"type": "t_string_storage"
							},
							{
								"astId": 1508,
								"contract": "contracts/Capstone.sol:Capstone",
								"label": "nominationNumber",
								"offset": 0,
								"slot": "3",
								"type": "t_uint256"
							},
							{
								"astId": 1510,
								"contract": "contracts/Capstone.sol:Capstone",
								"label": "stateCode",
								"offset": 0,
								"slot": "4",
								"type": "t_uint8"
							},
							{
								"astId": 1512,
								"contract": "contracts/Capstone.sol:Capstone",
								"label": "constituencyCode",
								"offset": 1,
								"slot": "4",
								"type": "t_uint8"
							}
						],
						"numberOfBytes": "160"
					},
					"t_struct(Voter)1500_storage": {
						"encoding": "inplace",
						"label": "struct Types.Voter",
						"members": [
							{
								"astId": 1487,
								"contract": "contracts/Capstone.sol:Capstone",
								"label": "aadharNumber",
								"offset": 0,
								"slot": "0",
								"type": "t_uint256"
							},
							{
								"astId": 1489,
								"contract": "contracts/Capstone.sol:Capstone",
								"label": "name",
								"offset": 0,
								"slot": "1",
								"type": "t_string_storage"
							},
							{
								"astId": 1491,
								"contract": "contracts/Capstone.sol:Capstone",
								"label": "age",
								"offset": 0,
								"slot": "2",
								"type": "t_uint8"
							},
							{
								"astId": 1493,
								"contract": "contracts/Capstone.sol:Capstone",
								"label": "stateCode",
								"offset": 1,
								"slot": "2",
								"type": "t_uint8"
							},
							{
								"astId": 1495,
								"contract": "contracts/Capstone.sol:Capstone",
								"label": "constituencyCode",
								"offset": 2,
								"slot": "2",
								"type": "t_uint8"
							},
							{
								"astId": 1497,
								"contract": "contracts/Capstone.sol:Capstone",
								"label": "isAlive",
								"offset": 3,
								"slot": "2",
								"type": "t_bool"
							},
							{
								"astId": 1499,
								"contract": "contracts/Capstone.sol:Capstone",
								"label": "votedTo",
								"offset": 0,
								"slot": "3",
								"type": "t_uint256"
							}
						],
						"numberOfBytes": "128"
					},
					"t_uint256": {
						"encoding": "inplace",
						"label": "uint256",
						"numberOfBytes": "32"
					},
					"t_uint8": {
						"encoding": "inplace",
						"label": "uint8",
						"numberOfBytes": "1"
					}
				}
			},
			"userdoc": {
				"kind": "user",
				"methods": {},
				"version": 1
			}
		}
	}
}