{
	"contracts/ElectronicVoting.sol": {
		"ElectronicVoting": {
			"abi": [
				{
					"inputs": [],
					"stateMutability": "nonpayable",
					"type": "constructor"
				},
				{
					"inputs": [
						{
							"internalType": "string",
							"name": "_Cname",
							"type": "string"
						},
						{
							"internalType": "string",
							"name": "_proposal",
							"type": "string"
						},
						{
							"internalType": "address",
							"name": "_owner",
							"type": "address"
						}
					],
					"name": "addCandidate",
					"outputs": [],
					"stateMutability": "nonpayable",
					"type": "function"
				},
				{
					"inputs": [
						{
							"internalType": "string",
							"name": "_Vname",
							"type": "string"
						},
						{
							"internalType": "address",
							"name": "vEAddress",
							"type": "address"
						},
						{
							"internalType": "address",
							"name": "_owner",
							"type": "address"
						}
					],
					"name": "addVoter",
					"outputs": [],
					"stateMutability": "nonpayable",
					"type": "function"
				},
				{
					"inputs": [
						{
							"internalType": "uint256",
							"name": "",
							"type": "uint256"
						}
					],
					"name": "candidates",
					"outputs": [
						{
							"internalType": "string",
							"name": "Cname",
							"type": "string"
						},
						{
							"internalType": "uint256",
							"name": "candidateId",
							"type": "uint256"
						},
						{
							"internalType": "string",
							"name": "proposal",
							"type": "string"
						},
						{
							"internalType": "address",
							"name": "CEAddress",
							"type": "address"
						}
					],
					"stateMutability": "view",
					"type": "function"
				},
				{
					"inputs": [
						{
							"internalType": "uint256",
							"name": "candidateId",
							"type": "uint256"
						}
					],
					"name": "displayCandidateProfile",
					"outputs": [
						{
							"internalType": "uint256",
							"name": "candId",
							"type": "uint256"
						},
						{
							"internalType": "string",
							"name": "proposal",
							"type": "string"
						},
						{
							"internalType": "string",
							"name": "candidateName",
							"type": "string"
						}
					],
					"stateMutability": "view",
					"type": "function"
				},
				{
					"inputs": [
						{
							"internalType": "address",
							"name": "vEAddress",
							"type": "address"
						}
					],
					"name": "displayVoterProfile",
					"outputs": [
						{
							"internalType": "string",
							"name": "voterName",
							"type": "string"
						},
						{
							"internalType": "uint256",
							"name": "votedCandidate",
							"type": "uint256"
						},
						{
							"internalType": "bool",
							"name": "voterIsDelegated",
							"type": "bool"
						}
					],
					"stateMutability": "view",
					"type": "function"
				},
				{
					"inputs": [
						{
							"internalType": "address",
							"name": "owner",
							"type": "address"
						}
					],
					"name": "endElection",
					"outputs": [],
					"stateMutability": "nonpayable",
					"type": "function"
				},
				{
					"inputs": [
						{
							"internalType": "uint256",
							"name": "candidateId",
							"type": "uint256"
						}
					],
					"name": "getCandidateElectionEsult",
					"outputs": [
						{
							"internalType": "uint256",
							"name": "candId",
							"type": "uint256"
						},
						{
							"internalType": "string",
							"name": "candidateName",
							"type": "string"
						},
						{
							"internalType": "uint256",
							"name": "votes",
							"type": "uint256"
						}
					],
					"stateMutability": "view",
					"type": "function"
				},
				{
					"inputs": [],
					"name": "getWinner",
					"outputs": [
						{
							"internalType": "uint256",
							"name": "winningVoteCount",
							"type": "uint256"
						},
						{
							"internalType": "uint256",
							"name": "winnerId",
							"type": "uint256"
						},
						{
							"internalType": "string",
							"name": "winnerName",
							"type": "string"
						}
					],
					"stateMutability": "view",
					"type": "function"
				},
				{
					"inputs": [
						{
							"internalType": "uint256",
							"name": "voterId",
							"type": "uint256"
						}
					],
					"name": "giveRightToVote",
					"outputs": [],
					"stateMutability": "nonpayable",
					"type": "function"
				},
				{
					"inputs": [
						{
							"internalType": "address",
							"name": "owner",
							"type": "address"
						}
					],
					"name": "startElection",
					"outputs": [],
					"stateMutability": "nonpayable",
					"type": "function"
				},
				{
					"inputs": [
						{
							"internalType": "uint256",
							"name": "candidateId",
							"type": "uint256"
						},
						{
							"internalType": "address",
							"name": "vEAddress",
							"type": "address"
						}
					],
					"name": "vote",
					"outputs": [],
					"stateMutability": "nonpayable",
					"type": "function"
				},
				{
					"inputs": [
						{
							"internalType": "uint256",
							"name": "",
							"type": "uint256"
						}
					],
					"name": "voters",
					"outputs": [
						{
							"internalType": "uint256",
							"name": "voterId",
							"type": "uint256"
						},
						{
							"internalType": "uint256",
							"name": "weight",
							"type": "uint256"
						},
						{
							"internalType": "string",
							"name": "Vname",
							"type": "string"
						},
						{
							"internalType": "uint8",
							"name": "age",
							"type": "uint8"
						},
						{
							"internalType": "uint256",
							"name": "votedTo",
							"type": "uint256"
						},
						{
							"internalType": "address",
							"name": "VEAddress",
							"type": "address"
						}
					],
					"stateMutability": "view",
					"type": "function"
				}
			],
			"devdoc": {
				"author": "Ankit Bhardwaj",
				"details": "Impelements replacement for traditional electronic voting  solutions with distributed, non-repudiation, and security  protection characteristics",
				"kind": "dev",
				"methods": {
					"addCandidate(string,string,address)": {
						"details": "To find eligibility of the voter.",
						"params": {
							"_Cname": "of the current voter",
							"_owner": "of the current voter",
							"_proposal": "of the current voter"
						}
					},
					"addVoter(string,address,address)": {
						"details": "To find eligibility of the voter.",
						"params": {
							"_Vname": "of the current voter",
							"_owner": "of the current voter",
							"vEAddress": "of the current voter"
						}
					},
					"constructor": {
						"details": "Creates a new voting system to choose one of 'candidates'"
					},
					"displayCandidateProfile(uint256)": {
						"details": "Display candidate profile.",
						"params": {
							"candidateId": "candidate id of the candidate"
						}
					},
					"displayVoterProfile(address)": {
						"details": "Display candidate profile.",
						"params": {
							"vEAddress": "ethereum address of the voter"
						}
					},
					"endElection(address)": {
						"details": "To End voting"
					},
					"getCandidateElectionEsult(uint256)": {
						"details": "Get election result candidate wise.",
						"params": {
							"candidateId": "candidate id of the candidate"
						}
					},
					"getWinner()": {
						"details": "sends the winner"
					},
					"giveRightToVote(uint256)": {
						"details": "Give 'voter' the right to vote on this ballot. May only be called by 'admin'.",
						"params": {
							"voterId": "id of voter"
						}
					},
					"startElection(address)": {
						"details": "To start voting"
					},
					"vote(uint256,address)": {
						"details": "Give your vote to candidate.",
						"params": {
							"candidateId": "of the candidate",
							"vEAddress": "of the voter to avoid re-entry"
						}
					}
				},
				"title": "Electronic Voting System",
				"version": 1
			},
			"evm": {
				"assembly": "    /* \"contracts/ElectronicVoting.sol\":335:6941  contract ElectronicVoting {... */\n  mstore(0x40, 0x80)\n    /* \"contracts/ElectronicVoting.sol\":1430:1481  constructor() {... */\n  callvalue\n  dup1\n  iszero\n  tag_1\n  jumpi\n  0x00\n  dup1\n  revert\ntag_1:\n  pop\n    /* \"contracts/ElectronicVoting.sol\":1463:1473  msg.sender */\n  caller\n    /* \"contracts/ElectronicVoting.sol\":1455:1460  admin */\n  0x08\n  0x00\n    /* \"contracts/ElectronicVoting.sol\":1455:1473  admin = msg.sender */\n  0x0100\n  exp\n  dup2\n  sload\n  dup2\n  0xffffffffffffffffffffffffffffffffffffffff\n  mul\n  not\n  and\n  swap1\n  dup4\n  0xffffffffffffffffffffffffffffffffffffffff\n  and\n  mul\n  or\n  swap1\n  sstore\n  pop\n    /* \"contracts/ElectronicVoting.sol\":335:6941  contract ElectronicVoting {... */\n  dataSize(sub_0)\n  dup1\n  dataOffset(sub_0)\n  0x00\n  codecopy\n  0x00\n  return\nstop\n\nsub_0: assembly {\n        /* \"contracts/ElectronicVoting.sol\":335:6941  contract ElectronicVoting {... */\n      mstore(0x40, 0x80)\n      callvalue\n      dup1\n      iszero\n      tag_1\n      jumpi\n      0x00\n      dup1\n      revert\n    tag_1:\n      pop\n      jumpi(tag_2, lt(calldatasize, 0x04))\n      shr(0xe0, calldataload(0x00))\n      dup1\n      0x8e7ea5b2\n      gt\n      tag_15\n      jumpi\n      dup1\n      0x8e7ea5b2\n      eq\n      tag_9\n      jumpi\n      dup1\n      0xb1a713e7\n      eq\n      tag_10\n      jumpi\n      dup1\n      0xbc23bd51\n      eq\n      tag_11\n      jumpi\n      dup1\n      0xda58c7d9\n      eq\n      tag_12\n      jumpi\n      dup1\n      0xe6a5e61d\n      eq\n      tag_13\n      jumpi\n      dup1\n      0xe82a2d18\n      eq\n      tag_14\n      jumpi\n      jump(tag_2)\n    tag_15:\n      dup1\n      0x02d947ef\n      eq\n      tag_3\n      jumpi\n      dup1\n      0x07e4b70a\n      eq\n      tag_4\n      jumpi\n      dup1\n      0x0b32ff77\n      eq\n      tag_5\n      jumpi\n      dup1\n      0x2273b50a\n      eq\n      tag_6\n      jumpi\n      dup1\n      0x3477ee2e\n      eq\n      tag_7\n      jumpi\n      dup1\n      0x869d526d\n      eq\n      tag_8\n      jumpi\n    tag_2:\n      0x00\n      dup1\n      revert\n        /* \"contracts/ElectronicVoting.sol\":4011:4432  function vote(... */\n    tag_3:\n      tag_16\n      0x04\n      dup1\n      calldatasize\n      sub\n      dup2\n      add\n      swap1\n      tag_17\n      swap2\n      swap1\n      tag_18\n      jump\t// in\n    tag_17:\n      tag_19\n      jump\t// in\n    tag_16:\n      stop\n        /* \"contracts/ElectronicVoting.sol\":4485:4640  function endElection(address owner)... */\n    tag_4:\n      tag_20\n      0x04\n      dup1\n      calldatasize\n      sub\n      dup2\n      add\n      swap1\n      tag_21\n      swap2\n      swap1\n      tag_22\n      jump\t// in\n    tag_21:\n      tag_23\n      jump\t// in\n    tag_20:\n      stop\n        /* \"contracts/ElectronicVoting.sol\":1686:2051  function addCandidate(string memory _Cname, string memory _proposal, address _owner)... */\n    tag_5:\n      tag_24\n      0x04\n      dup1\n      calldatasize\n      sub\n      dup2\n      add\n      swap1\n      tag_25\n      swap2\n      swap1\n      tag_26\n      jump\t// in\n    tag_25:\n      tag_27\n      jump\t// in\n    tag_24:\n      stop\n        /* \"contracts/ElectronicVoting.sol\":6236:6591  function displayVoterProfile(address vEAddress)... */\n    tag_6:\n      tag_28\n      0x04\n      dup1\n      calldatasize\n      sub\n      dup2\n      add\n      swap1\n      tag_29\n      swap2\n      swap1\n      tag_22\n      jump\t// in\n    tag_29:\n      tag_30\n      jump\t// in\n    tag_28:\n      mload(0x40)\n      tag_31\n      swap4\n      swap3\n      swap2\n      swap1\n      tag_32\n      jump\t// in\n    tag_31:\n      mload(0x40)\n      dup1\n      swap2\n      sub\n      swap1\n      return\n        /* \"contracts/ElectronicVoting.sol\":1164:1193  Candidate[] public candidates */\n    tag_7:\n      tag_33\n      0x04\n      dup1\n      calldatasize\n      sub\n      dup2\n      add\n      swap1\n      tag_34\n      swap2\n      swap1\n      tag_35\n      jump\t// in\n    tag_34:\n      tag_36\n      jump\t// in\n    tag_33:\n      mload(0x40)\n      tag_37\n      swap5\n      swap4\n      swap3\n      swap2\n      swap1\n      tag_38\n      jump\t// in\n    tag_37:\n      mload(0x40)\n      dup1\n      swap2\n      sub\n      swap1\n      return\n        /* \"contracts/ElectronicVoting.sol\":2256:2645  function addVoter(string memory _Vname, address vEAddress, address _owner)... */\n    tag_8:\n      tag_39\n      0x04\n      dup1\n      calldatasize\n      sub\n      dup2\n      add\n      swap1\n      tag_40\n      swap2\n      swap1\n      tag_41\n      jump\t// in\n    tag_40:\n      tag_42\n      jump\t// in\n    tag_39:\n      stop\n        /* \"contracts/ElectronicVoting.sol\":5048:5584  function getWinner()... */\n    tag_9:\n      tag_43\n      tag_44\n      jump\t// in\n    tag_43:\n      mload(0x40)\n      tag_45\n      swap4\n      swap3\n      swap2\n      swap1\n      tag_46\n      jump\t// in\n    tag_45:\n      mload(0x40)\n      dup1\n      swap2\n      sub\n      swap1\n      return\n        /* \"contracts/ElectronicVoting.sol\":3479:3843  function getCandidateElectionEsult(uint256 candidateId)... */\n    tag_10:\n      tag_47\n      0x04\n      dup1\n      calldatasize\n      sub\n      dup2\n      add\n      swap1\n      tag_48\n      swap2\n      swap1\n      tag_35\n      jump\t// in\n    tag_48:\n      tag_49\n      jump\t// in\n    tag_47:\n      mload(0x40)\n      tag_50\n      swap4\n      swap3\n      swap2\n      swap1\n      tag_51\n      jump\t// in\n    tag_50:\n      mload(0x40)\n      dup1\n      swap2\n      sub\n      swap1\n      return\n        /* \"contracts/ElectronicVoting.sol\":5737:6115  function giveRightToVote(uint256 voterId) public {... */\n    tag_11:\n      tag_52\n      0x04\n      dup1\n      calldatasize\n      sub\n      dup2\n      add\n      swap1\n      tag_53\n      swap2\n      swap1\n      tag_35\n      jump\t// in\n    tag_53:\n      tag_54\n      jump\t// in\n    tag_52:\n      stop\n        /* \"contracts/ElectronicVoting.sol\":1200:1221  Voter[] public voters */\n    tag_12:\n      tag_55\n      0x04\n      dup1\n      calldatasize\n      sub\n      dup2\n      add\n      swap1\n      tag_56\n      swap2\n      swap1\n      tag_35\n      jump\t// in\n    tag_56:\n      tag_57\n      jump\t// in\n    tag_55:\n      mload(0x40)\n      tag_58\n      swap7\n      swap6\n      swap5\n      swap4\n      swap3\n      swap2\n      swap1\n      tag_59\n      jump\t// in\n    tag_58:\n      mload(0x40)\n      dup1\n      swap2\n      sub\n      swap1\n      return\n        /* \"contracts/ElectronicVoting.sol\":2700:2859  function startElection(address owner)... */\n    tag_13:\n      tag_60\n      0x04\n      dup1\n      calldatasize\n      sub\n      dup2\n      add\n      swap1\n      tag_61\n      swap2\n      swap1\n      tag_22\n      jump\t// in\n    tag_61:\n      tag_62\n      jump\t// in\n    tag_60:\n      stop\n        /* \"contracts/ElectronicVoting.sol\":2982:3345  function displayCandidateProfile(uint256 candidateId)... */\n    tag_14:\n      tag_63\n      0x04\n      dup1\n      calldatasize\n      sub\n      dup2\n      add\n      swap1\n      tag_64\n      swap2\n      swap1\n      tag_35\n      jump\t// in\n    tag_64:\n      tag_65\n      jump\t// in\n    tag_63:\n      mload(0x40)\n      tag_66\n      swap4\n      swap3\n      swap2\n      swap1\n      tag_67\n      jump\t// in\n    tag_66:\n      mload(0x40)\n      dup1\n      swap2\n      sub\n      swap1\n      return\n        /* \"contracts/ElectronicVoting.sol\":4011:4432  function vote(... */\n    tag_19:\n        /* \"contracts/ElectronicVoting.sol\":6716:6760  keccak256(bytes(votingStarted)) == \"ONGOING\" */\n      0x4f4e474f494e4700000000000000000000000000000000000000000000000000\n        /* \"contracts/ElectronicVoting.sol\":6732:6745  votingStarted */\n      0x0b\n        /* \"contracts/ElectronicVoting.sol\":6716:6747  keccak256(bytes(votingStarted)) */\n      mload(0x40)\n      tag_69\n      swap2\n      swap1\n      tag_70\n      jump\t// in\n    tag_69:\n      mload(0x40)\n      dup1\n      swap2\n      sub\n      swap1\n      keccak256\n        /* \"contracts/ElectronicVoting.sol\":6716:6760  keccak256(bytes(votingStarted)) == \"ONGOING\" */\n      eq\n        /* \"contracts/ElectronicVoting.sol\":6708:6761  require(keccak256(bytes(votingStarted)) == \"ONGOING\") */\n      tag_71\n      jumpi\n      0x00\n      dup1\n      revert\n    tag_71:\n        /* \"contracts/ElectronicVoting.sol\":4158:4167  vEAddress */\n      dup1\n        /* \"contracts/ElectronicVoting.sol\":4820:4840  Voter storage voter_ */\n      0x00\n        /* \"contracts/ElectronicVoting.sol\":4843:4848  voter */\n      0x01\n        /* \"contracts/ElectronicVoting.sol\":4843:4859  voter[vEAddress] */\n      0x00\n        /* \"contracts/ElectronicVoting.sol\":4849:4858  vEAddress */\n      dup4\n        /* \"contracts/ElectronicVoting.sol\":4843:4859  voter[vEAddress] */\n      0xffffffffffffffffffffffffffffffffffffffff\n      and\n      0xffffffffffffffffffffffffffffffffffffffff\n      and\n      dup2\n      mstore\n      0x20\n      add\n      swap1\n      dup2\n      mstore\n      0x20\n      add\n      0x00\n      keccak256\n        /* \"contracts/ElectronicVoting.sol\":4820:4859  Voter storage voter_ = voter[vEAddress] */\n      swap1\n      pop\n        /* \"contracts/ElectronicVoting.sol\":4892:4894  18 */\n      0x12\n        /* \"contracts/ElectronicVoting.sol\":4878:4884  voter_ */\n      dup2\n        /* \"contracts/ElectronicVoting.sol\":4878:4888  voter_.age */\n      0x03\n      add\n      0x00\n      swap1\n      sload\n      swap1\n      0x0100\n      exp\n      swap1\n      div\n      0xff\n      and\n        /* \"contracts/ElectronicVoting.sol\":4878:4894  voter_.age >= 18 */\n      0xff\n      and\n      lt\n      iszero\n        /* \"contracts/ElectronicVoting.sol\":4870:4895  require(voter_.age >= 18) */\n      tag_73\n      jumpi\n      0x00\n      dup1\n      revert\n    tag_73:\n        /* \"contracts/ElectronicVoting.sol\":4932:4933  0 */\n      0x00\n        /* \"contracts/ElectronicVoting.sol\":4914:4920  voter_ */\n      dup2\n        /* \"contracts/ElectronicVoting.sol\":4914:4928  voter_.votedTo */\n      0x04\n      add\n      sload\n        /* \"contracts/ElectronicVoting.sol\":4914:4933  voter_.votedTo == 0 */\n      eq\n        /* \"contracts/ElectronicVoting.sol\":4906:4934  require(voter_.votedTo == 0) */\n      tag_74\n      jumpi\n      0x00\n      dup1\n      revert\n    tag_74:\n        /* \"contracts/ElectronicVoting.sol\":4970:4971  1 */\n      0x01\n        /* \"contracts/ElectronicVoting.sol\":4953:4959  voter_ */\n      dup2\n        /* \"contracts/ElectronicVoting.sol\":4953:4966  voter_.weight */\n      0x01\n      add\n      sload\n        /* \"contracts/ElectronicVoting.sol\":4953:4971  voter_.weight == 1 */\n      eq\n        /* \"contracts/ElectronicVoting.sol\":4945:4972  require(voter_.weight == 1) */\n      tag_75\n      jumpi\n      0x00\n      dup1\n      revert\n    tag_75:\n        /* \"contracts/ElectronicVoting.sol\":4258:4269  candidateId */\n      dup4\n        /* \"contracts/ElectronicVoting.sol\":4231:4236  voter */\n      0x01\n        /* \"contracts/ElectronicVoting.sol\":4231:4247  voter[vEAddress] */\n      0x00\n        /* \"contracts/ElectronicVoting.sol\":4237:4246  vEAddress */\n      dup6\n        /* \"contracts/ElectronicVoting.sol\":4231:4247  voter[vEAddress] */\n      0xffffffffffffffffffffffffffffffffffffffff\n      and\n      0xffffffffffffffffffffffffffffffffffffffff\n      and\n      dup2\n      mstore\n      0x20\n      add\n      swap1\n      dup2\n      mstore\n      0x20\n      add\n      0x00\n      keccak256\n        /* \"contracts/ElectronicVoting.sol\":4231:4255  voter[vEAddress].votedTo */\n      0x04\n      add\n        /* \"contracts/ElectronicVoting.sol\":4231:4269  voter[vEAddress].votedTo = candidateId */\n      dup2\n      swap1\n      sstore\n      pop\n        /* \"contracts/ElectronicVoting.sol\":4329:4347  uint256 voteCount_ */\n      0x00\n        /* \"contracts/ElectronicVoting.sol\":4350:4360  votesCount */\n      0x05\n        /* \"contracts/ElectronicVoting.sol\":4350:4373  votesCount[candidateId] */\n      0x00\n        /* \"contracts/ElectronicVoting.sol\":4361:4372  candidateId */\n      dup7\n        /* \"contracts/ElectronicVoting.sol\":4350:4373  votesCount[candidateId] */\n      dup2\n      mstore\n      0x20\n      add\n      swap1\n      dup2\n      mstore\n      0x20\n      add\n      0x00\n      keccak256\n      sload\n        /* \"contracts/ElectronicVoting.sol\":4329:4373  uint256 voteCount_ = votesCount[candidateId] */\n      swap1\n      pop\n        /* \"contracts/ElectronicVoting.sol\":4423:4424  1 */\n      0x01\n        /* \"contracts/ElectronicVoting.sol\":4410:4420  voteCount_ */\n      dup2\n        /* \"contracts/ElectronicVoting.sol\":4410:4424  voteCount_ + 1 */\n      tag_77\n      swap2\n      swap1\n      tag_78\n      jump\t// in\n    tag_77:\n        /* \"contracts/ElectronicVoting.sol\":4384:4394  votesCount */\n      0x05\n        /* \"contracts/ElectronicVoting.sol\":4384:4407  votesCount[candidateId] */\n      0x00\n        /* \"contracts/ElectronicVoting.sol\":4395:4406  candidateId */\n      dup8\n        /* \"contracts/ElectronicVoting.sol\":4384:4407  votesCount[candidateId] */\n      dup2\n      mstore\n      0x20\n      add\n      swap1\n      dup2\n      mstore\n      0x20\n      add\n      0x00\n      keccak256\n        /* \"contracts/ElectronicVoting.sol\":4384:4424  votesCount[candidateId] = voteCount_ + 1 */\n      dup2\n      swap1\n      sstore\n      pop\n        /* \"contracts/ElectronicVoting.sol\":4174:4432  {... */\n      pop\n        /* \"contracts/ElectronicVoting.sol\":4809:4992  {... */\n      pop\n        /* \"contracts/ElectronicVoting.sol\":6772:6773  _ */\n      pop\n        /* \"contracts/ElectronicVoting.sol\":4011:4432  function vote(... */\n      pop\n      pop\n      jump\t// out\n        /* \"contracts/ElectronicVoting.sol\":4485:4640  function endElection(address owner)... */\n    tag_23:\n        /* \"contracts/ElectronicVoting.sol\":6912:6917  admin */\n      0x08\n      0x00\n      swap1\n      sload\n      swap1\n      0x0100\n      exp\n      swap1\n      div\n      0xffffffffffffffffffffffffffffffffffffffff\n      and\n        /* \"contracts/ElectronicVoting.sol\":6898:6917  msg.sender == admin */\n      0xffffffffffffffffffffffffffffffffffffffff\n      and\n        /* \"contracts/ElectronicVoting.sol\":6898:6908  msg.sender */\n      caller\n        /* \"contracts/ElectronicVoting.sol\":6898:6917  msg.sender == admin */\n      0xffffffffffffffffffffffffffffffffffffffff\n      and\n      eq\n        /* \"contracts/ElectronicVoting.sol\":6890:6918  require(msg.sender == admin) */\n      tag_80\n      jumpi\n      0x00\n      dup1\n      revert\n    tag_80:\n        /* \"contracts/ElectronicVoting.sol\":4592:4597  owner */\n      dup1\n        /* \"contracts/ElectronicVoting.sol\":4578:4597  msg.sender == owner */\n      0xffffffffffffffffffffffffffffffffffffffff\n      and\n        /* \"contracts/ElectronicVoting.sol\":4578:4588  msg.sender */\n      caller\n        /* \"contracts/ElectronicVoting.sol\":4578:4597  msg.sender == owner */\n      0xffffffffffffffffffffffffffffffffffffffff\n      and\n      eq\n        /* \"contracts/ElectronicVoting.sol\":4570:4598  require(msg.sender == owner) */\n      tag_82\n      jumpi\n      0x00\n      dup1\n      revert\n    tag_82:\n        /* \"contracts/ElectronicVoting.sol\":4609:4632  votingStarted = \"ENDED\" */\n      mload(0x40)\n      dup1\n      0x40\n      add\n      0x40\n      mstore\n      dup1\n      0x05\n      dup2\n      mstore\n      0x20\n      add\n      0x454e444544000000000000000000000000000000000000000000000000000000\n      dup2\n      mstore\n      pop\n        /* \"contracts/ElectronicVoting.sol\":4609:4622  votingStarted */\n      0x0b\n        /* \"contracts/ElectronicVoting.sol\":4609:4632  votingStarted = \"ENDED\" */\n      swap1\n      dup2\n      tag_83\n      swap2\n      swap1\n      tag_84\n      jump\t// in\n    tag_83:\n      pop\n        /* \"contracts/ElectronicVoting.sol\":4485:4640  function endElection(address owner)... */\n      pop\n      jump\t// out\n        /* \"contracts/ElectronicVoting.sol\":1686:2051  function addCandidate(string memory _Cname, string memory _proposal, address _owner)... */\n    tag_27:\n        /* \"contracts/ElectronicVoting.sol\":6912:6917  admin */\n      0x08\n      0x00\n      swap1\n      sload\n      swap1\n      0x0100\n      exp\n      swap1\n      div\n      0xffffffffffffffffffffffffffffffffffffffff\n      and\n        /* \"contracts/ElectronicVoting.sol\":6898:6917  msg.sender == admin */\n      0xffffffffffffffffffffffffffffffffffffffff\n      and\n        /* \"contracts/ElectronicVoting.sol\":6898:6908  msg.sender */\n      caller\n        /* \"contracts/ElectronicVoting.sol\":6898:6917  msg.sender == admin */\n      0xffffffffffffffffffffffffffffffffffffffff\n      and\n      eq\n        /* \"contracts/ElectronicVoting.sol\":6890:6918  require(msg.sender == admin) */\n      tag_86\n      jumpi\n      0x00\n      dup1\n      revert\n    tag_86:\n        /* \"contracts/ElectronicVoting.sol\":6716:6760  keccak256(bytes(votingStarted)) == \"ONGOING\" */\n      0x4f4e474f494e4700000000000000000000000000000000000000000000000000\n        /* \"contracts/ElectronicVoting.sol\":6732:6745  votingStarted */\n      0x0b\n        /* \"contracts/ElectronicVoting.sol\":6716:6747  keccak256(bytes(votingStarted)) */\n      mload(0x40)\n      tag_88\n      swap2\n      swap1\n      tag_70\n      jump\t// in\n    tag_88:\n      mload(0x40)\n      dup1\n      swap2\n      sub\n      swap1\n      keccak256\n        /* \"contracts/ElectronicVoting.sol\":6716:6760  keccak256(bytes(votingStarted)) == \"ONGOING\" */\n      eq\n        /* \"contracts/ElectronicVoting.sol\":6708:6761  require(keccak256(bytes(votingStarted)) == \"ONGOING\") */\n      tag_89\n      jumpi\n      0x00\n      dup1\n      revert\n    tag_89:\n        /* \"contracts/ElectronicVoting.sol\":1845:1872  Candidate storage candidate */\n      0x00\n        /* \"contracts/ElectronicVoting.sol\":1875:1879  cand */\n      dup1\n        /* \"contracts/ElectronicVoting.sol\":1875:1887  cand[_owner] */\n      0x00\n        /* \"contracts/ElectronicVoting.sol\":1880:1886  _owner */\n      dup4\n        /* \"contracts/ElectronicVoting.sol\":1875:1887  cand[_owner] */\n      0xffffffffffffffffffffffffffffffffffffffff\n      and\n      0xffffffffffffffffffffffffffffffffffffffff\n      and\n      dup2\n      mstore\n      0x20\n      add\n      swap1\n      dup2\n      mstore\n      0x20\n      add\n      0x00\n      keccak256\n        /* \"contracts/ElectronicVoting.sol\":1845:1887  Candidate storage candidate = cand[_owner] */\n      swap1\n      pop\n        /* \"contracts/ElectronicVoting.sol\":1916:1922  _Cname */\n      dup4\n        /* \"contracts/ElectronicVoting.sol\":1898:1907  candidate */\n      dup2\n        /* \"contracts/ElectronicVoting.sol\":1898:1913  candidate.Cname */\n      0x00\n      add\n        /* \"contracts/ElectronicVoting.sol\":1898:1922  candidate.Cname = _Cname */\n      swap1\n      dup2\n      tag_91\n      swap2\n      swap1\n      tag_84\n      jump\t// in\n    tag_91:\n      pop\n        /* \"contracts/ElectronicVoting.sol\":1954:1963  _proposal */\n      dup3\n        /* \"contracts/ElectronicVoting.sol\":1933:1942  candidate */\n      dup2\n        /* \"contracts/ElectronicVoting.sol\":1933:1951  candidate.proposal */\n      0x02\n      add\n        /* \"contracts/ElectronicVoting.sol\":1933:1963  candidate.proposal = _proposal */\n      swap1\n      dup2\n      tag_92\n      swap2\n      swap1\n      tag_84\n      jump\t// in\n    tag_92:\n      pop\n        /* \"contracts/ElectronicVoting.sol\":2000:2004  cint */\n      0x09\n      0x00\n        /* \"contracts/ElectronicVoting.sol\":1998:2004  ++cint */\n      dup2\n      sload\n      tag_93\n      swap1\n      tag_94\n      jump\t// in\n    tag_93:\n      swap2\n      swap1\n      pop\n      dup2\n      swap1\n      sstore\n        /* \"contracts/ElectronicVoting.sol\":1974:1983  candidate */\n      dup2\n        /* \"contracts/ElectronicVoting.sol\":1974:1995  candidate.candidateId */\n      0x01\n      add\n        /* \"contracts/ElectronicVoting.sol\":1974:2004  candidate.candidateId = ++cint */\n      dup2\n      swap1\n      sstore\n      pop\n        /* \"contracts/ElectronicVoting.sol\":2017:2027  candidates */\n      0x06\n        /* \"contracts/ElectronicVoting.sol\":2033:2042  candidate */\n      dup2\n        /* \"contracts/ElectronicVoting.sol\":2017:2043  candidates.push(candidate) */\n      swap1\n      dup1\n      0x01\n      dup2\n      sload\n      add\n      dup1\n      dup3\n      sstore\n      dup1\n      swap2\n      pop\n      pop\n      0x01\n      swap1\n      sub\n      swap1\n      0x00\n      mstore\n      keccak256(0x00, 0x20)\n      swap1\n      0x04\n      mul\n      add\n      0x00\n      swap1\n      swap2\n      swap1\n      swap2\n      swap1\n      swap2\n      pop\n      0x00\n      dup3\n      add\n      dup2\n      0x00\n      add\n      swap1\n      dup2\n      tag_96\n      swap2\n      swap1\n      tag_97\n      jump\t// in\n    tag_96:\n      pop\n      0x01\n      dup3\n      add\n      sload\n      dup2\n      0x01\n      add\n      sstore\n      0x02\n      dup3\n      add\n      dup2\n      0x02\n      add\n      swap1\n      dup2\n      tag_98\n      swap2\n      swap1\n      tag_97\n      jump\t// in\n    tag_98:\n      pop\n      0x03\n      dup3\n      add\n      0x00\n      swap1\n      sload\n      swap1\n      0x0100\n      exp\n      swap1\n      div\n      0xffffffffffffffffffffffffffffffffffffffff\n      and\n      dup2\n      0x03\n      add\n      exp(0x0100, 0x00)\n      dup2\n      sload\n      dup2\n      0xffffffffffffffffffffffffffffffffffffffff\n      mul\n      not\n      and\n      swap1\n      dup4\n      0xffffffffffffffffffffffffffffffffffffffff\n      and\n      mul\n      or\n      swap1\n      sstore\n      pop\n      pop\n      pop\n        /* \"contracts/ElectronicVoting.sol\":1834:2051  {... */\n      pop\n        /* \"contracts/ElectronicVoting.sol\":1686:2051  function addCandidate(string memory _Cname, string memory _proposal, address _owner)... */\n      pop\n      pop\n      pop\n      jump\t// out\n        /* \"contracts/ElectronicVoting.sol\":6236:6591  function displayVoterProfile(address vEAddress)... */\n    tag_30:\n        /* \"contracts/ElectronicVoting.sol\":6332:6355  string memory voterName */\n      0x60\n        /* \"contracts/ElectronicVoting.sol\":6357:6379  uint256 votedCandidate */\n      0x00\n        /* \"contracts/ElectronicVoting.sol\":6381:6402  bool voterIsDelegated */\n      dup1\n        /* \"contracts/ElectronicVoting.sol\":6420:6439  Voter memory voter_ */\n      0x00\n        /* \"contracts/ElectronicVoting.sol\":6442:6447  voter */\n      0x01\n        /* \"contracts/ElectronicVoting.sol\":6442:6458  voter[vEAddress] */\n      0x00\n        /* \"contracts/ElectronicVoting.sol\":6448:6457  vEAddress */\n      dup7\n        /* \"contracts/ElectronicVoting.sol\":6442:6458  voter[vEAddress] */\n      0xffffffffffffffffffffffffffffffffffffffff\n      and\n      0xffffffffffffffffffffffffffffffffffffffff\n      and\n      dup2\n      mstore\n      0x20\n      add\n      swap1\n      dup2\n      mstore\n      0x20\n      add\n      0x00\n      keccak256\n        /* \"contracts/ElectronicVoting.sol\":6420:6458  Voter memory voter_ = voter[vEAddress] */\n      mload(0x40)\n      dup1\n      0xc0\n      add\n      0x40\n      mstore\n      swap1\n      dup2\n      0x00\n      dup3\n      add\n      sload\n      dup2\n      mstore\n      0x20\n      add\n      0x01\n      dup3\n      add\n      sload\n      dup2\n      mstore\n      0x20\n      add\n      0x02\n      dup3\n      add\n      dup1\n      sload\n      tag_100\n      swap1\n      tag_101\n      jump\t// in\n    tag_100:\n      dup1\n      0x1f\n      add\n      0x20\n      dup1\n      swap2\n      div\n      mul\n      0x20\n      add\n      mload(0x40)\n      swap1\n      dup2\n      add\n      0x40\n      mstore\n      dup1\n      swap3\n      swap2\n      swap1\n      dup2\n      dup2\n      mstore\n      0x20\n      add\n      dup3\n      dup1\n      sload\n      tag_102\n      swap1\n      tag_101\n      jump\t// in\n    tag_102:\n      dup1\n      iszero\n      tag_103\n      jumpi\n      dup1\n      0x1f\n      lt\n      tag_104\n      jumpi\n      0x0100\n      dup1\n      dup4\n      sload\n      div\n      mul\n      dup4\n      mstore\n      swap2\n      0x20\n      add\n      swap2\n      jump(tag_103)\n    tag_104:\n      dup3\n      add\n      swap2\n      swap1\n      0x00\n      mstore\n      keccak256(0x00, 0x20)\n      swap1\n    tag_105:\n      dup2\n      sload\n      dup2\n      mstore\n      swap1\n      0x01\n      add\n      swap1\n      0x20\n      add\n      dup1\n      dup4\n      gt\n      tag_105\n      jumpi\n      dup3\n      swap1\n      sub\n      0x1f\n      and\n      dup3\n      add\n      swap2\n    tag_103:\n      pop\n      pop\n      pop\n      pop\n      pop\n      dup2\n      mstore\n      0x20\n      add\n      0x03\n      dup3\n      add\n      0x00\n      swap1\n      sload\n      swap1\n      0x0100\n      exp\n      swap1\n      div\n      0xff\n      and\n      0xff\n      and\n      0xff\n      and\n      dup2\n      mstore\n      0x20\n      add\n      0x04\n      dup3\n      add\n      sload\n      dup2\n      mstore\n      0x20\n      add\n      0x05\n      dup3\n      add\n      0x00\n      swap1\n      sload\n      swap1\n      0x0100\n      exp\n      swap1\n      div\n      0xffffffffffffffffffffffffffffffffffffffff\n      and\n      0xffffffffffffffffffffffffffffffffffffffff\n      and\n      0xffffffffffffffffffffffffffffffffffffffff\n      and\n      dup2\n      mstore\n      pop\n      pop\n      swap1\n      pop\n        /* \"contracts/ElectronicVoting.sol\":6481:6487  voter_ */\n      dup1\n        /* \"contracts/ElectronicVoting.sol\":6481:6493  voter_.Vname */\n      0x40\n      add\n      mload\n        /* \"contracts/ElectronicVoting.sol\":6469:6493  voterName = voter_.Vname */\n      swap4\n      pop\n        /* \"contracts/ElectronicVoting.sol\":6521:6527  voter_ */\n      dup1\n        /* \"contracts/ElectronicVoting.sol\":6521:6535  voter_.votedTo */\n      0x80\n      add\n      mload\n        /* \"contracts/ElectronicVoting.sol\":6504:6535  votedCandidate = voter_.votedTo */\n      swap3\n      pop\n        /* \"contracts/ElectronicVoting.sol\":6582:6583  1 */\n      0x01\n        /* \"contracts/ElectronicVoting.sol\":6565:6571  voter_ */\n      dup2\n        /* \"contracts/ElectronicVoting.sol\":6565:6578  voter_.weight */\n      0x20\n      add\n      mload\n        /* \"contracts/ElectronicVoting.sol\":6565:6583  voter_.weight == 1 */\n      eq\n        /* \"contracts/ElectronicVoting.sol\":6546:6583  voterIsDelegated = voter_.weight == 1 */\n      swap2\n      pop\n        /* \"contracts/ElectronicVoting.sol\":6409:6591  {... */\n      pop\n        /* \"contracts/ElectronicVoting.sol\":6236:6591  function displayVoterProfile(address vEAddress)... */\n      swap2\n      swap4\n      swap1\n      swap3\n      pop\n      jump\t// out\n        /* \"contracts/ElectronicVoting.sol\":1164:1193  Candidate[] public candidates */\n    tag_36:\n      0x06\n      dup2\n      dup2\n      sload\n      dup2\n      lt\n      tag_106\n      jumpi\n      0x00\n      dup1\n      revert\n    tag_106:\n      swap1\n      0x00\n      mstore\n      keccak256(0x00, 0x20)\n      swap1\n      0x04\n      mul\n      add\n      0x00\n      swap2\n      pop\n      swap1\n      pop\n      dup1\n      0x00\n      add\n      dup1\n      sload\n      tag_108\n      swap1\n      tag_101\n      jump\t// in\n    tag_108:\n      dup1\n      0x1f\n      add\n      0x20\n      dup1\n      swap2\n      div\n      mul\n      0x20\n      add\n      mload(0x40)\n      swap1\n      dup2\n      add\n      0x40\n      mstore\n      dup1\n      swap3\n      swap2\n      swap1\n      dup2\n      dup2\n      mstore\n      0x20\n      add\n      dup3\n      dup1\n      sload\n      tag_109\n      swap1\n      tag_101\n      jump\t// in\n    tag_109:\n      dup1\n      iszero\n      tag_110\n      jumpi\n      dup1\n      0x1f\n      lt\n      tag_111\n      jumpi\n      0x0100\n      dup1\n      dup4\n      sload\n      div\n      mul\n      dup4\n      mstore\n      swap2\n      0x20\n      add\n      swap2\n      jump(tag_110)\n    tag_111:\n      dup3\n      add\n      swap2\n      swap1\n      0x00\n      mstore\n      keccak256(0x00, 0x20)\n      swap1\n    tag_112:\n      dup2\n      sload\n      dup2\n      mstore\n      swap1\n      0x01\n      add\n      swap1\n      0x20\n      add\n      dup1\n      dup4\n      gt\n      tag_112\n      jumpi\n      dup3\n      swap1\n      sub\n      0x1f\n      and\n      dup3\n      add\n      swap2\n    tag_110:\n      pop\n      pop\n      pop\n      pop\n      pop\n      swap1\n      dup1\n      0x01\n      add\n      sload\n      swap1\n      dup1\n      0x02\n      add\n      dup1\n      sload\n      tag_113\n      swap1\n      tag_101\n      jump\t// in\n    tag_113:\n      dup1\n      0x1f\n      add\n      0x20\n      dup1\n      swap2\n      div\n      mul\n      0x20\n      add\n      mload(0x40)\n      swap1\n      dup2\n      add\n      0x40\n      mstore\n      dup1\n      swap3\n      swap2\n      swap1\n      dup2\n      dup2\n      mstore\n      0x20\n      add\n      dup3\n      dup1\n      sload\n      tag_114\n      swap1\n      tag_101\n      jump\t// in\n    tag_114:\n      dup1\n      iszero\n      tag_115\n      jumpi\n      dup1\n      0x1f\n      lt\n      tag_116\n      jumpi\n      0x0100\n      dup1\n      dup4\n      sload\n      div\n      mul\n      dup4\n      mstore\n      swap2\n      0x20\n      add\n      swap2\n      jump(tag_115)\n    tag_116:\n      dup3\n      add\n      swap2\n      swap1\n      0x00\n      mstore\n      keccak256(0x00, 0x20)\n      swap1\n    tag_117:\n      dup2\n      sload\n      dup2\n      mstore\n      swap1\n      0x01\n      add\n      swap1\n      0x20\n      add\n      dup1\n      dup4\n      gt\n      tag_117\n      jumpi\n      dup3\n      swap1\n      sub\n      0x1f\n      and\n      dup3\n      add\n      swap2\n    tag_115:\n      pop\n      pop\n      pop\n      pop\n      pop\n      swap1\n      dup1\n      0x03\n      add\n      0x00\n      swap1\n      sload\n      swap1\n      0x0100\n      exp\n      swap1\n      div\n      0xffffffffffffffffffffffffffffffffffffffff\n      and\n      swap1\n      pop\n      dup5\n      jump\t// out\n        /* \"contracts/ElectronicVoting.sol\":2256:2645  function addVoter(string memory _Vname, address vEAddress, address _owner)... */\n    tag_42:\n        /* \"contracts/ElectronicVoting.sol\":6912:6917  admin */\n      0x08\n      0x00\n      swap1\n      sload\n      swap1\n      0x0100\n      exp\n      swap1\n      div\n      0xffffffffffffffffffffffffffffffffffffffff\n      and\n        /* \"contracts/ElectronicVoting.sol\":6898:6917  msg.sender == admin */\n      0xffffffffffffffffffffffffffffffffffffffff\n      and\n        /* \"contracts/ElectronicVoting.sol\":6898:6908  msg.sender */\n      caller\n        /* \"contracts/ElectronicVoting.sol\":6898:6917  msg.sender == admin */\n      0xffffffffffffffffffffffffffffffffffffffff\n      and\n      eq\n        /* \"contracts/ElectronicVoting.sol\":6890:6918  require(msg.sender == admin) */\n      tag_119\n      jumpi\n      0x00\n      dup1\n      revert\n    tag_119:\n        /* \"contracts/ElectronicVoting.sol\":6716:6760  keccak256(bytes(votingStarted)) == \"ONGOING\" */\n      0x4f4e474f494e4700000000000000000000000000000000000000000000000000\n        /* \"contracts/ElectronicVoting.sol\":6732:6745  votingStarted */\n      0x0b\n        /* \"contracts/ElectronicVoting.sol\":6716:6747  keccak256(bytes(votingStarted)) */\n      mload(0x40)\n      tag_121\n      swap2\n      swap1\n      tag_70\n      jump\t// in\n    tag_121:\n      mload(0x40)\n      dup1\n      swap2\n      sub\n      swap1\n      keccak256\n        /* \"contracts/ElectronicVoting.sol\":6716:6760  keccak256(bytes(votingStarted)) == \"ONGOING\" */\n      eq\n        /* \"contracts/ElectronicVoting.sol\":6708:6761  require(keccak256(bytes(votingStarted)) == \"ONGOING\") */\n      tag_122\n      jumpi\n      0x00\n      dup1\n      revert\n    tag_122:\n        /* \"contracts/ElectronicVoting.sol\":2405:2422  Voter storage vtr */\n      0x00\n        /* \"contracts/ElectronicVoting.sol\":2425:2430  voter */\n      0x01\n        /* \"contracts/ElectronicVoting.sol\":2425:2438  voter[_owner] */\n      0x00\n        /* \"contracts/ElectronicVoting.sol\":2431:2437  _owner */\n      dup4\n        /* \"contracts/ElectronicVoting.sol\":2425:2438  voter[_owner] */\n      0xffffffffffffffffffffffffffffffffffffffff\n      and\n      0xffffffffffffffffffffffffffffffffffffffff\n      and\n      dup2\n      mstore\n      0x20\n      add\n      swap1\n      dup2\n      mstore\n      0x20\n      add\n      0x00\n      keccak256\n        /* \"contracts/ElectronicVoting.sol\":2405:2438  Voter storage vtr = voter[_owner] */\n      swap1\n      pop\n        /* \"contracts/ElectronicVoting.sol\":2461:2467  _Vname */\n      dup4\n        /* \"contracts/ElectronicVoting.sol\":2449:2452  vtr */\n      dup2\n        /* \"contracts/ElectronicVoting.sol\":2449:2458  vtr.Vname */\n      0x02\n      add\n        /* \"contracts/ElectronicVoting.sol\":2449:2467  vtr.Vname = _Vname */\n      swap1\n      dup2\n      tag_124\n      swap2\n      swap1\n      tag_84\n      jump\t// in\n    tag_124:\n      pop\n        /* \"contracts/ElectronicVoting.sol\":2494:2503  vEAddress */\n      dup3\n        /* \"contracts/ElectronicVoting.sol\":2478:2481  vtr */\n      dup2\n        /* \"contracts/ElectronicVoting.sol\":2478:2491  vtr.VEAddress */\n      0x05\n      add\n      0x00\n        /* \"contracts/ElectronicVoting.sol\":2478:2503  vtr.VEAddress = vEAddress */\n      0x0100\n      exp\n      dup2\n      sload\n      dup2\n      0xffffffffffffffffffffffffffffffffffffffff\n      mul\n      not\n      and\n      swap1\n      dup4\n      0xffffffffffffffffffffffffffffffffffffffff\n      and\n      mul\n      or\n      swap1\n      sstore\n      pop\n        /* \"contracts/ElectronicVoting.sol\":2530:2534  vint */\n      0x0a\n      0x00\n        /* \"contracts/ElectronicVoting.sol\":2528:2534  ++vint */\n      dup2\n      sload\n      tag_125\n      swap1\n      tag_94\n      jump\t// in\n    tag_125:\n      swap2\n      swap1\n      pop\n      dup2\n      swap1\n      sstore\n        /* \"contracts/ElectronicVoting.sol\":2514:2517  vtr */\n      dup2\n        /* \"contracts/ElectronicVoting.sol\":2514:2525  vtr.voterId */\n      0x00\n      add\n        /* \"contracts/ElectronicVoting.sol\":2514:2534  vtr.voterId = ++vint */\n      dup2\n      swap1\n      sstore\n      pop\n        /* \"contracts/ElectronicVoting.sol\":2558:2559  0 */\n      0x00\n        /* \"contracts/ElectronicVoting.sol\":2545:2548  vtr */\n      dup2\n        /* \"contracts/ElectronicVoting.sol\":2545:2555  vtr.weight */\n      0x01\n      add\n        /* \"contracts/ElectronicVoting.sol\":2545:2559  vtr.weight = 0 */\n      dup2\n      swap1\n      sstore\n      pop\n        /* \"contracts/ElectronicVoting.sol\":2584:2585  0 */\n      0x00\n        /* \"contracts/ElectronicVoting.sol\":2570:2573  vtr */\n      dup2\n        /* \"contracts/ElectronicVoting.sol\":2570:2581  vtr.votedTo */\n      0x04\n      add\n        /* \"contracts/ElectronicVoting.sol\":2570:2585  vtr.votedTo = 0 */\n      dup2\n      swap1\n      sstore\n      pop\n        /* \"contracts/ElectronicVoting.sol\":2606:2608  19 */\n      0x13\n        /* \"contracts/ElectronicVoting.sol\":2596:2599  vtr */\n      dup2\n        /* \"contracts/ElectronicVoting.sol\":2596:2603  vtr.age */\n      0x03\n      add\n      0x00\n        /* \"contracts/ElectronicVoting.sol\":2596:2608  vtr.age = 19 */\n      0x0100\n      exp\n      dup2\n      sload\n      dup2\n      0xff\n      mul\n      not\n      and\n      swap1\n      dup4\n      0xff\n      and\n      mul\n      or\n      swap1\n      sstore\n      pop\n        /* \"contracts/ElectronicVoting.sol\":2621:2627  voters */\n      0x07\n        /* \"contracts/ElectronicVoting.sol\":2633:2636  vtr */\n      dup2\n        /* \"contracts/ElectronicVoting.sol\":2621:2637  voters.push(vtr) */\n      swap1\n      dup1\n      0x01\n      dup2\n      sload\n      add\n      dup1\n      dup3\n      sstore\n      dup1\n      swap2\n      pop\n      pop\n      0x01\n      swap1\n      sub\n      swap1\n      0x00\n      mstore\n      keccak256(0x00, 0x20)\n      swap1\n      0x06\n      mul\n      add\n      0x00\n      swap1\n      swap2\n      swap1\n      swap2\n      swap1\n      swap2\n      pop\n      0x00\n      dup3\n      add\n      sload\n      dup2\n      0x00\n      add\n      sstore\n      0x01\n      dup3\n      add\n      sload\n      dup2\n      0x01\n      add\n      sstore\n      0x02\n      dup3\n      add\n      dup2\n      0x02\n      add\n      swap1\n      dup2\n      tag_127\n      swap2\n      swap1\n      tag_97\n      jump\t// in\n    tag_127:\n      pop\n      0x03\n      dup3\n      add\n      0x00\n      swap1\n      sload\n      swap1\n      0x0100\n      exp\n      swap1\n      div\n      0xff\n      and\n      dup2\n      0x03\n      add\n      exp(0x0100, 0x00)\n      dup2\n      sload\n      dup2\n      0xff\n      mul\n      not\n      and\n      swap1\n      dup4\n      0xff\n      and\n      mul\n      or\n      swap1\n      sstore\n      pop\n      0x04\n      dup3\n      add\n      sload\n      dup2\n      0x04\n      add\n      sstore\n      0x05\n      dup3\n      add\n      0x00\n      swap1\n      sload\n      swap1\n      0x0100\n      exp\n      swap1\n      div\n      0xffffffffffffffffffffffffffffffffffffffff\n      and\n      dup2\n      0x05\n      add\n      exp(0x0100, 0x00)\n      dup2\n      sload\n      dup2\n      0xffffffffffffffffffffffffffffffffffffffff\n      mul\n      not\n      and\n      swap1\n      dup4\n      0xffffffffffffffffffffffffffffffffffffffff\n      and\n      mul\n      or\n      swap1\n      sstore\n      pop\n      pop\n      pop\n        /* \"contracts/ElectronicVoting.sol\":2394:2645  {... */\n      pop\n        /* \"contracts/ElectronicVoting.sol\":2256:2645  function addVoter(string memory _Vname, address vEAddress, address _owner)... */\n      pop\n      pop\n      pop\n      jump\t// out\n        /* \"contracts/ElectronicVoting.sol\":5048:5584  function getWinner()... */\n    tag_44:\n        /* \"contracts/ElectronicVoting.sol\":5117:5138  uint winningVoteCount */\n      0x00\n        /* \"contracts/ElectronicVoting.sol\":5140:5156  uint256 winnerId */\n      dup1\n        /* \"contracts/ElectronicVoting.sol\":5158:5182  string memory winnerName */\n      0x60\n        /* \"contracts/ElectronicVoting.sol\":5205:5211  uint p */\n      0x00\n        /* \"contracts/ElectronicVoting.sol\":5200:5577  for (uint p = 0; p < candidates.length; p++) {... */\n    tag_129:\n        /* \"contracts/ElectronicVoting.sol\":5221:5231  candidates */\n      0x06\n        /* \"contracts/ElectronicVoting.sol\":5221:5238  candidates.length */\n      dup1\n      sload\n      swap1\n      pop\n        /* \"contracts/ElectronicVoting.sol\":5217:5218  p */\n      dup2\n        /* \"contracts/ElectronicVoting.sol\":5217:5238  p < candidates.length */\n      lt\n        /* \"contracts/ElectronicVoting.sol\":5200:5577  for (uint p = 0; p < candidates.length; p++) {... */\n      iszero\n      tag_130\n      jumpi\n        /* \"contracts/ElectronicVoting.sol\":5260:5288  Candidate storage candidate_ */\n      0x00\n        /* \"contracts/ElectronicVoting.sol\":5291:5301  candidates */\n      0x06\n        /* \"contracts/ElectronicVoting.sol\":5302:5303  p */\n      dup3\n        /* \"contracts/ElectronicVoting.sol\":5291:5304  candidates[p] */\n      dup2\n      sload\n      dup2\n      lt\n      tag_132\n      jumpi\n      tag_133\n      tag_134\n      jump\t// in\n    tag_133:\n    tag_132:\n      swap1\n      0x00\n      mstore\n      keccak256(0x00, 0x20)\n      swap1\n      0x04\n      mul\n      add\n        /* \"contracts/ElectronicVoting.sol\":5260:5304  Candidate storage candidate_ = candidates[p] */\n      swap1\n      pop\n        /* \"contracts/ElectronicVoting.sol\":5360:5376  winningVoteCount */\n      dup5\n        /* \"contracts/ElectronicVoting.sol\":5323:5333  votesCount */\n      0x05\n        /* \"contracts/ElectronicVoting.sol\":5323:5357  votesCount[candidate_.candidateId] */\n      0x00\n        /* \"contracts/ElectronicVoting.sol\":5334:5344  candidate_ */\n      dup4\n        /* \"contracts/ElectronicVoting.sol\":5334:5356  candidate_.candidateId */\n      0x01\n      add\n      sload\n        /* \"contracts/ElectronicVoting.sol\":5323:5357  votesCount[candidate_.candidateId] */\n      dup2\n      mstore\n      0x20\n      add\n      swap1\n      dup2\n      mstore\n      0x20\n      add\n      0x00\n      keccak256\n      sload\n        /* \"contracts/ElectronicVoting.sol\":5323:5376  votesCount[candidate_.candidateId] > winningVoteCount */\n      gt\n        /* \"contracts/ElectronicVoting.sol\":5319:5566  if (votesCount[candidate_.candidateId] > winningVoteCount) {... */\n      iszero\n      tag_136\n      jumpi\n        /* \"contracts/ElectronicVoting.sol\":5416:5426  votesCount */\n      0x05\n        /* \"contracts/ElectronicVoting.sol\":5416:5450  votesCount[candidate_.candidateId] */\n      0x00\n        /* \"contracts/ElectronicVoting.sol\":5427:5437  candidate_ */\n      dup3\n        /* \"contracts/ElectronicVoting.sol\":5427:5449  candidate_.candidateId */\n      0x01\n      add\n      sload\n        /* \"contracts/ElectronicVoting.sol\":5416:5450  votesCount[candidate_.candidateId] */\n      dup2\n      mstore\n      0x20\n      add\n      swap1\n      dup2\n      mstore\n      0x20\n      add\n      0x00\n      keccak256\n      sload\n        /* \"contracts/ElectronicVoting.sol\":5397:5450  winningVoteCount = votesCount[candidate_.candidateId] */\n      swap5\n      pop\n        /* \"contracts/ElectronicVoting.sol\":5480:5490  candidate_ */\n      dup1\n        /* \"contracts/ElectronicVoting.sol\":5480:5502  candidate_.candidateId */\n      0x01\n      add\n      sload\n        /* \"contracts/ElectronicVoting.sol\":5469:5502  winnerId = candidate_.candidateId */\n      swap4\n      pop\n        /* \"contracts/ElectronicVoting.sol\":5534:5544  candidate_ */\n      dup1\n        /* \"contracts/ElectronicVoting.sol\":5534:5550  candidate_.Cname */\n      0x00\n      add\n        /* \"contracts/ElectronicVoting.sol\":5521:5550  winnerName = candidate_.Cname */\n      dup1\n      sload\n      tag_137\n      swap1\n      tag_101\n      jump\t// in\n    tag_137:\n      dup1\n      0x1f\n      add\n      0x20\n      dup1\n      swap2\n      div\n      mul\n      0x20\n      add\n      mload(0x40)\n      swap1\n      dup2\n      add\n      0x40\n      mstore\n      dup1\n      swap3\n      swap2\n      swap1\n      dup2\n      dup2\n      mstore\n      0x20\n      add\n      dup3\n      dup1\n      sload\n      tag_138\n      swap1\n      tag_101\n      jump\t// in\n    tag_138:\n      dup1\n      iszero\n      tag_139\n      jumpi\n      dup1\n      0x1f\n      lt\n      tag_140\n      jumpi\n      0x0100\n      dup1\n      dup4\n      sload\n      div\n      mul\n      dup4\n      mstore\n      swap2\n      0x20\n      add\n      swap2\n      jump(tag_139)\n    tag_140:\n      dup3\n      add\n      swap2\n      swap1\n      0x00\n      mstore\n      keccak256(0x00, 0x20)\n      swap1\n    tag_141:\n      dup2\n      sload\n      dup2\n      mstore\n      swap1\n      0x01\n      add\n      swap1\n      0x20\n      add\n      dup1\n      dup4\n      gt\n      tag_141\n      jumpi\n      dup3\n      swap1\n      sub\n      0x1f\n      and\n      dup3\n      add\n      swap2\n    tag_139:\n      pop\n      pop\n      pop\n      pop\n      pop\n      swap3\n      pop\n        /* \"contracts/ElectronicVoting.sol\":5319:5566  if (votesCount[candidate_.candidateId] > winningVoteCount) {... */\n    tag_136:\n        /* \"contracts/ElectronicVoting.sol\":5245:5577  {... */\n      pop\n        /* \"contracts/ElectronicVoting.sol\":5240:5243  p++ */\n      dup1\n      dup1\n      tag_142\n      swap1\n      tag_94\n      jump\t// in\n    tag_142:\n      swap2\n      pop\n      pop\n        /* \"contracts/ElectronicVoting.sol\":5200:5577  for (uint p = 0; p < candidates.length; p++) {... */\n      jump(tag_129)\n    tag_130:\n      pop\n        /* \"contracts/ElectronicVoting.sol\":5048:5584  function getWinner()... */\n      swap1\n      swap2\n      swap3\n      jump\t// out\n        /* \"contracts/ElectronicVoting.sol\":3479:3843  function getCandidateElectionEsult(uint256 candidateId)... */\n    tag_49:\n        /* \"contracts/ElectronicVoting.sol\":3583:3597  uint256 candId */\n      0x00\n        /* \"contracts/ElectronicVoting.sol\":3599:3626  string memory candidateName */\n      0x60\n        /* \"contracts/ElectronicVoting.sol\":3628:3641  uint256 votes */\n      0x00\n        /* \"contracts/ElectronicVoting.sol\":3659:3687  Candidate storage candidate_ */\n      dup1\n        /* \"contracts/ElectronicVoting.sol\":3690:3700  candWithId */\n      0x02\n        /* \"contracts/ElectronicVoting.sol\":3690:3713  candWithId[candidateId] */\n      0x00\n        /* \"contracts/ElectronicVoting.sol\":3701:3712  candidateId */\n      dup7\n        /* \"contracts/ElectronicVoting.sol\":3690:3713  candWithId[candidateId] */\n      dup2\n      mstore\n      0x20\n      add\n      swap1\n      dup2\n      mstore\n      0x20\n      add\n      0x00\n      keccak256\n        /* \"contracts/ElectronicVoting.sol\":3659:3713  Candidate storage candidate_ = candWithId[candidateId] */\n      swap1\n      pop\n        /* \"contracts/ElectronicVoting.sol\":3739:3750  candidateId */\n      dup5\n        /* \"contracts/ElectronicVoting.sol\":3730:3750  candId = candidateId */\n      swap4\n      pop\n        /* \"contracts/ElectronicVoting.sol\":3777:3787  candidate_ */\n      dup1\n        /* \"contracts/ElectronicVoting.sol\":3777:3793  candidate_.Cname */\n      0x00\n      add\n        /* \"contracts/ElectronicVoting.sol\":3761:3793  candidateName = candidate_.Cname */\n      dup1\n      sload\n      tag_144\n      swap1\n      tag_101\n      jump\t// in\n    tag_144:\n      dup1\n      0x1f\n      add\n      0x20\n      dup1\n      swap2\n      div\n      mul\n      0x20\n      add\n      mload(0x40)\n      swap1\n      dup2\n      add\n      0x40\n      mstore\n      dup1\n      swap3\n      swap2\n      swap1\n      dup2\n      dup2\n      mstore\n      0x20\n      add\n      dup3\n      dup1\n      sload\n      tag_145\n      swap1\n      tag_101\n      jump\t// in\n    tag_145:\n      dup1\n      iszero\n      tag_146\n      jumpi\n      dup1\n      0x1f\n      lt\n      tag_147\n      jumpi\n      0x0100\n      dup1\n      dup4\n      sload\n      div\n      mul\n      dup4\n      mstore\n      swap2\n      0x20\n      add\n      swap2\n      jump(tag_146)\n    tag_147:\n      dup3\n      add\n      swap2\n      swap1\n      0x00\n      mstore\n      keccak256(0x00, 0x20)\n      swap1\n    tag_148:\n      dup2\n      sload\n      dup2\n      mstore\n      swap1\n      0x01\n      add\n      swap1\n      0x20\n      add\n      dup1\n      dup4\n      gt\n      tag_148\n      jumpi\n      dup3\n      swap1\n      sub\n      0x1f\n      and\n      dup3\n      add\n      swap2\n    tag_146:\n      pop\n      pop\n      pop\n      pop\n      pop\n      swap3\n      pop\n        /* \"contracts/ElectronicVoting.sol\":3812:3822  votesCount */\n      0x05\n        /* \"contracts/ElectronicVoting.sol\":3812:3835  votesCount[candidateId] */\n      0x00\n        /* \"contracts/ElectronicVoting.sol\":3823:3834  candidateId */\n      dup7\n        /* \"contracts/ElectronicVoting.sol\":3812:3835  votesCount[candidateId] */\n      dup2\n      mstore\n      0x20\n      add\n      swap1\n      dup2\n      mstore\n      0x20\n      add\n      0x00\n      keccak256\n      sload\n        /* \"contracts/ElectronicVoting.sol\":3804:3835  votes = votesCount[candidateId] */\n      swap2\n      pop\n        /* \"contracts/ElectronicVoting.sol\":3648:3843  {... */\n      pop\n        /* \"contracts/ElectronicVoting.sol\":3479:3843  function getCandidateElectionEsult(uint256 candidateId)... */\n      swap2\n      swap4\n      swap1\n      swap3\n      pop\n      jump\t// out\n        /* \"contracts/ElectronicVoting.sol\":5737:6115  function giveRightToVote(uint256 voterId) public {... */\n    tag_54:\n        /* \"contracts/ElectronicVoting.sol\":5833:5838  admin */\n      0x08\n      0x00\n      swap1\n      sload\n      swap1\n      0x0100\n      exp\n      swap1\n      div\n      0xffffffffffffffffffffffffffffffffffffffff\n      and\n        /* \"contracts/ElectronicVoting.sol\":5819:5838  msg.sender == admin */\n      0xffffffffffffffffffffffffffffffffffffffff\n      and\n        /* \"contracts/ElectronicVoting.sol\":5819:5829  msg.sender */\n      caller\n        /* \"contracts/ElectronicVoting.sol\":5819:5838  msg.sender == admin */\n      0xffffffffffffffffffffffffffffffffffffffff\n      and\n      eq\n        /* \"contracts/ElectronicVoting.sol\":5797:5900  require(... */\n      tag_150\n      jumpi\n      mload(0x40)\n      0x08c379a000000000000000000000000000000000000000000000000000000000\n      dup2\n      mstore\n      0x04\n      add\n      tag_151\n      swap1\n      tag_152\n      jump\t// in\n    tag_151:\n      mload(0x40)\n      dup1\n      swap2\n      sub\n      swap1\n      revert\n    tag_150:\n        /* \"contracts/ElectronicVoting.sol\":5965:5966  0 */\n      0x00\n        /* \"contracts/ElectronicVoting.sol\":5933:5944  voterWithId */\n      0x03\n        /* \"contracts/ElectronicVoting.sol\":5933:5953  voterWithId[voterId] */\n      0x00\n        /* \"contracts/ElectronicVoting.sol\":5945:5952  voterId */\n      dup4\n        /* \"contracts/ElectronicVoting.sol\":5933:5953  voterWithId[voterId] */\n      dup2\n      mstore\n      0x20\n      add\n      swap1\n      dup2\n      mstore\n      0x20\n      add\n      0x00\n      keccak256\n        /* \"contracts/ElectronicVoting.sol\":5933:5961  voterWithId[voterId].votedTo */\n      0x04\n      add\n      sload\n        /* \"contracts/ElectronicVoting.sol\":5933:5966  voterWithId[voterId].votedTo != 0 */\n      sub\n        /* \"contracts/ElectronicVoting.sol\":5911:6018  require(... */\n      tag_153\n      jumpi\n      mload(0x40)\n      0x08c379a000000000000000000000000000000000000000000000000000000000\n      dup2\n      mstore\n      0x04\n      add\n      tag_154\n      swap1\n      tag_155\n      jump\t// in\n    tag_154:\n      mload(0x40)\n      dup1\n      swap2\n      sub\n      swap1\n      revert\n    tag_153:\n        /* \"contracts/ElectronicVoting.sol\":6068:6069  0 */\n      0x00\n        /* \"contracts/ElectronicVoting.sol\":6037:6048  voterWithId */\n      0x03\n        /* \"contracts/ElectronicVoting.sol\":6037:6057  voterWithId[voterId] */\n      0x00\n        /* \"contracts/ElectronicVoting.sol\":6049:6056  voterId */\n      dup4\n        /* \"contracts/ElectronicVoting.sol\":6037:6057  voterWithId[voterId] */\n      dup2\n      mstore\n      0x20\n      add\n      swap1\n      dup2\n      mstore\n      0x20\n      add\n      0x00\n      keccak256\n        /* \"contracts/ElectronicVoting.sol\":6037:6064  voterWithId[voterId].weight */\n      0x01\n      add\n      sload\n        /* \"contracts/ElectronicVoting.sol\":6037:6069  voterWithId[voterId].weight == 0 */\n      eq\n        /* \"contracts/ElectronicVoting.sol\":6029:6070  require(voterWithId[voterId].weight == 0) */\n      tag_156\n      jumpi\n      0x00\n      dup1\n      revert\n    tag_156:\n        /* \"contracts/ElectronicVoting.sol\":6106:6107  1 */\n      0x01\n        /* \"contracts/ElectronicVoting.sol\":6081:6087  voters */\n      0x07\n        /* \"contracts/ElectronicVoting.sol\":6088:6095  voterId */\n      dup3\n        /* \"contracts/ElectronicVoting.sol\":6081:6096  voters[voterId] */\n      dup2\n      sload\n      dup2\n      lt\n      tag_157\n      jumpi\n      tag_158\n      tag_134\n      jump\t// in\n    tag_158:\n    tag_157:\n      swap1\n      0x00\n      mstore\n      keccak256(0x00, 0x20)\n      swap1\n      0x06\n      mul\n      add\n        /* \"contracts/ElectronicVoting.sol\":6081:6103  voters[voterId].weight */\n      0x01\n      add\n        /* \"contracts/ElectronicVoting.sol\":6081:6107  voters[voterId].weight = 1 */\n      dup2\n      swap1\n      sstore\n      pop\n        /* \"contracts/ElectronicVoting.sol\":5737:6115  function giveRightToVote(uint256 voterId) public {... */\n      pop\n      jump\t// out\n        /* \"contracts/ElectronicVoting.sol\":1200:1221  Voter[] public voters */\n    tag_57:\n      0x07\n      dup2\n      dup2\n      sload\n      dup2\n      lt\n      tag_160\n      jumpi\n      0x00\n      dup1\n      revert\n    tag_160:\n      swap1\n      0x00\n      mstore\n      keccak256(0x00, 0x20)\n      swap1\n      0x06\n      mul\n      add\n      0x00\n      swap2\n      pop\n      swap1\n      pop\n      dup1\n      0x00\n      add\n      sload\n      swap1\n      dup1\n      0x01\n      add\n      sload\n      swap1\n      dup1\n      0x02\n      add\n      dup1\n      sload\n      tag_162\n      swap1\n      tag_101\n      jump\t// in\n    tag_162:\n      dup1\n      0x1f\n      add\n      0x20\n      dup1\n      swap2\n      div\n      mul\n      0x20\n      add\n      mload(0x40)\n      swap1\n      dup2\n      add\n      0x40\n      mstore\n      dup1\n      swap3\n      swap2\n      swap1\n      dup2\n      dup2\n      mstore\n      0x20\n      add\n      dup3\n      dup1\n      sload\n      tag_163\n      swap1\n      tag_101\n      jump\t// in\n    tag_163:\n      dup1\n      iszero\n      tag_164\n      jumpi\n      dup1\n      0x1f\n      lt\n      tag_165\n      jumpi\n      0x0100\n      dup1\n      dup4\n      sload\n      div\n      mul\n      dup4\n      mstore\n      swap2\n      0x20\n      add\n      swap2\n      jump(tag_164)\n    tag_165:\n      dup3\n      add\n      swap2\n      swap1\n      0x00\n      mstore\n      keccak256(0x00, 0x20)\n      swap1\n    tag_166:\n      dup2\n      sload\n      dup2\n      mstore\n      swap1\n      0x01\n      add\n      swap1\n      0x20\n      add\n      dup1\n      dup4\n      gt\n      tag_166\n      jumpi\n      dup3\n      swap1\n      sub\n      0x1f\n      and\n      dup3\n      add\n      swap2\n    tag_164:\n      pop\n      pop\n      pop\n      pop\n      pop\n      swap1\n      dup1\n      0x03\n      add\n      0x00\n      swap1\n      sload\n      swap1\n      0x0100\n      exp\n      swap1\n      div\n      0xff\n      and\n      swap1\n      dup1\n      0x04\n      add\n      sload\n      swap1\n      dup1\n      0x05\n      add\n      0x00\n      swap1\n      sload\n      swap1\n      0x0100\n      exp\n      swap1\n      div\n      0xffffffffffffffffffffffffffffffffffffffff\n      and\n      swap1\n      pop\n      dup7\n      jump\t// out\n        /* \"contracts/ElectronicVoting.sol\":2700:2859  function startElection(address owner)... */\n    tag_62:\n        /* \"contracts/ElectronicVoting.sol\":6912:6917  admin */\n      0x08\n      0x00\n      swap1\n      sload\n      swap1\n      0x0100\n      exp\n      swap1\n      div\n      0xffffffffffffffffffffffffffffffffffffffff\n      and\n        /* \"contracts/ElectronicVoting.sol\":6898:6917  msg.sender == admin */\n      0xffffffffffffffffffffffffffffffffffffffff\n      and\n        /* \"contracts/ElectronicVoting.sol\":6898:6908  msg.sender */\n      caller\n        /* \"contracts/ElectronicVoting.sol\":6898:6917  msg.sender == admin */\n      0xffffffffffffffffffffffffffffffffffffffff\n      and\n      eq\n        /* \"contracts/ElectronicVoting.sol\":6890:6918  require(msg.sender == admin) */\n      tag_168\n      jumpi\n      0x00\n      dup1\n      revert\n    tag_168:\n        /* \"contracts/ElectronicVoting.sol\":2809:2814  owner */\n      dup1\n        /* \"contracts/ElectronicVoting.sol\":2795:2814  msg.sender == owner */\n      0xffffffffffffffffffffffffffffffffffffffff\n      and\n        /* \"contracts/ElectronicVoting.sol\":2795:2805  msg.sender */\n      caller\n        /* \"contracts/ElectronicVoting.sol\":2795:2814  msg.sender == owner */\n      0xffffffffffffffffffffffffffffffffffffffff\n      and\n      eq\n        /* \"contracts/ElectronicVoting.sol\":2787:2815  require(msg.sender == owner) */\n      tag_170\n      jumpi\n      0x00\n      dup1\n      revert\n    tag_170:\n        /* \"contracts/ElectronicVoting.sol\":2826:2851  votingStarted = \"ONGOING\" */\n      mload(0x40)\n      dup1\n      0x40\n      add\n      0x40\n      mstore\n      dup1\n      0x07\n      dup2\n      mstore\n      0x20\n      add\n      0x4f4e474f494e4700000000000000000000000000000000000000000000000000\n      dup2\n      mstore\n      pop\n        /* \"contracts/ElectronicVoting.sol\":2826:2839  votingStarted */\n      0x0b\n        /* \"contracts/ElectronicVoting.sol\":2826:2851  votingStarted = \"ONGOING\" */\n      swap1\n      dup2\n      tag_171\n      swap2\n      swap1\n      tag_84\n      jump\t// in\n    tag_171:\n      pop\n        /* \"contracts/ElectronicVoting.sol\":2700:2859  function startElection(address owner)... */\n      pop\n      jump\t// out\n        /* \"contracts/ElectronicVoting.sol\":2982:3345  function displayCandidateProfile(uint256 candidateId)... */\n    tag_65:\n        /* \"contracts/ElectronicVoting.sol\":3084:3098  uint256 candId */\n      0x00\n        /* \"contracts/ElectronicVoting.sol\":3100:3122  string memory proposal */\n      0x60\n        /* \"contracts/ElectronicVoting.sol\":3124:3151  string memory candidateName */\n      dup1\n        /* \"contracts/ElectronicVoting.sol\":3169:3196  Candidate memory candidate_ */\n      0x00\n        /* \"contracts/ElectronicVoting.sol\":3199:3209  candWithId */\n      0x02\n        /* \"contracts/ElectronicVoting.sol\":3199:3222  candWithId[candidateId] */\n      0x00\n        /* \"contracts/ElectronicVoting.sol\":3210:3221  candidateId */\n      dup7\n        /* \"contracts/ElectronicVoting.sol\":3199:3222  candWithId[candidateId] */\n      dup2\n      mstore\n      0x20\n      add\n      swap1\n      dup2\n      mstore\n      0x20\n      add\n      0x00\n      keccak256\n        /* \"contracts/ElectronicVoting.sol\":3169:3222  Candidate memory candidate_ = candWithId[candidateId] */\n      mload(0x40)\n      dup1\n      0x80\n      add\n      0x40\n      mstore\n      swap1\n      dup2\n      0x00\n      dup3\n      add\n      dup1\n      sload\n      tag_173\n      swap1\n      tag_101\n      jump\t// in\n    tag_173:\n      dup1\n      0x1f\n      add\n      0x20\n      dup1\n      swap2\n      div\n      mul\n      0x20\n      add\n      mload(0x40)\n      swap1\n      dup2\n      add\n      0x40\n      mstore\n      dup1\n      swap3\n      swap2\n      swap1\n      dup2\n      dup2\n      mstore\n      0x20\n      add\n      dup3\n      dup1\n      sload\n      tag_174\n      swap1\n      tag_101\n      jump\t// in\n    tag_174:\n      dup1\n      iszero\n      tag_175\n      jumpi\n      dup1\n      0x1f\n      lt\n      tag_176\n      jumpi\n      0x0100\n      dup1\n      dup4\n      sload\n      div\n      mul\n      dup4\n      mstore\n      swap2\n      0x20\n      add\n      swap2\n      jump(tag_175)\n    tag_176:\n      dup3\n      add\n      swap2\n      swap1\n      0x00\n      mstore\n      keccak256(0x00, 0x20)\n      swap1\n    tag_177:\n      dup2\n      sload\n      dup2\n      mstore\n      swap1\n      0x01\n      add\n      swap1\n      0x20\n      add\n      dup1\n      dup4\n      gt\n      tag_177\n      jumpi\n      dup3\n      swap1\n      sub\n      0x1f\n      and\n      dup3\n      add\n      swap2\n    tag_175:\n      pop\n      pop\n      pop\n      pop\n      pop\n      dup2\n      mstore\n      0x20\n      add\n      0x01\n      dup3\n      add\n      sload\n      dup2\n      mstore\n      0x20\n      add\n      0x02\n      dup3\n      add\n      dup1\n      sload\n      tag_178\n      swap1\n      tag_101\n      jump\t// in\n    tag_178:\n      dup1\n      0x1f\n      add\n      0x20\n      dup1\n      swap2\n      div\n      mul\n      0x20\n      add\n      mload(0x40)\n      swap1\n      dup2\n      add\n      0x40\n      mstore\n      dup1\n      swap3\n      swap2\n      swap1\n      dup2\n      dup2\n      mstore\n      0x20\n      add\n      dup3\n      dup1\n      sload\n      tag_179\n      swap1\n      tag_101\n      jump\t// in\n    tag_179:\n      dup1\n      iszero\n      tag_180\n      jumpi\n      dup1\n      0x1f\n      lt\n      tag_181\n      jumpi\n      0x0100\n      dup1\n      dup4\n      sload\n      div\n      mul\n      dup4\n      mstore\n      swap2\n      0x20\n      add\n      swap2\n      jump(tag_180)\n    tag_181:\n      dup3\n      add\n      swap2\n      swap1\n      0x00\n      mstore\n      keccak256(0x00, 0x20)\n      swap1\n    tag_182:\n      dup2\n      sload\n      dup2\n      mstore\n      swap1\n      0x01\n      add\n      swap1\n      0x20\n      add\n      dup1\n      dup4\n      gt\n      tag_182\n      jumpi\n      dup3\n      swap1\n      sub\n      0x1f\n      and\n      dup3\n      add\n      swap2\n    tag_180:\n      pop\n      pop\n      pop\n      pop\n      pop\n      dup2\n      mstore\n      0x20\n      add\n      0x03\n      dup3\n      add\n      0x00\n      swap1\n      sload\n      swap1\n      0x0100\n      exp\n      swap1\n      div\n      0xffffffffffffffffffffffffffffffffffffffff\n      and\n      0xffffffffffffffffffffffffffffffffffffffff\n      and\n      0xffffffffffffffffffffffffffffffffffffffff\n      and\n      dup2\n      mstore\n      pop\n      pop\n      swap1\n      pop\n        /* \"contracts/ElectronicVoting.sol\":3242:3253  candidateId */\n      dup5\n        /* \"contracts/ElectronicVoting.sol\":3233:3253  candId = candidateId */\n      swap4\n      pop\n        /* \"contracts/ElectronicVoting.sol\":3275:3285  candidate_ */\n      dup1\n        /* \"contracts/ElectronicVoting.sol\":3275:3294  candidate_.proposal */\n      0x40\n      add\n      mload\n        /* \"contracts/ElectronicVoting.sol\":3264:3294  proposal = candidate_.proposal */\n      swap3\n      pop\n        /* \"contracts/ElectronicVoting.sol\":3321:3331  candidate_ */\n      dup1\n        /* \"contracts/ElectronicVoting.sol\":3321:3337  candidate_.Cname */\n      0x00\n      add\n      mload\n        /* \"contracts/ElectronicVoting.sol\":3305:3337  candidateName = candidate_.Cname */\n      swap2\n      pop\n        /* \"contracts/ElectronicVoting.sol\":3158:3345  {... */\n      pop\n        /* \"contracts/ElectronicVoting.sol\":2982:3345  function displayCandidateProfile(uint256 candidateId)... */\n      swap2\n      swap4\n      swap1\n      swap3\n      pop\n      jump\t// out\n        /* \"#utility.yul\":7:82   */\n    tag_183:\n        /* \"#utility.yul\":40:46   */\n      0x00\n        /* \"#utility.yul\":73:75   */\n      0x40\n        /* \"#utility.yul\":67:76   */\n      mload\n        /* \"#utility.yul\":57:76   */\n      swap1\n      pop\n        /* \"#utility.yul\":7:82   */\n      swap1\n      jump\t// out\n        /* \"#utility.yul\":88:205   */\n    tag_184:\n        /* \"#utility.yul\":197:198   */\n      0x00\n        /* \"#utility.yul\":194:195   */\n      dup1\n        /* \"#utility.yul\":187:199   */\n      revert\n        /* \"#utility.yul\":211:328   */\n    tag_185:\n        /* \"#utility.yul\":320:321   */\n      0x00\n        /* \"#utility.yul\":317:318   */\n      dup1\n        /* \"#utility.yul\":310:322   */\n      revert\n        /* \"#utility.yul\":334:411   */\n    tag_186:\n        /* \"#utility.yul\":371:378   */\n      0x00\n        /* \"#utility.yul\":400:405   */\n      dup2\n        /* \"#utility.yul\":389:405   */\n      swap1\n      pop\n        /* \"#utility.yul\":334:411   */\n      swap2\n      swap1\n      pop\n      jump\t// out\n        /* \"#utility.yul\":417:539   */\n    tag_187:\n        /* \"#utility.yul\":490:514   */\n      tag_244\n        /* \"#utility.yul\":508:513   */\n      dup2\n        /* \"#utility.yul\":490:514   */\n      tag_186\n      jump\t// in\n    tag_244:\n        /* \"#utility.yul\":483:488   */\n      dup2\n        /* \"#utility.yul\":480:515   */\n      eq\n        /* \"#utility.yul\":470:533   */\n      tag_245\n      jumpi\n        /* \"#utility.yul\":529:530   */\n      0x00\n        /* \"#utility.yul\":526:527   */\n      dup1\n        /* \"#utility.yul\":519:531   */\n      revert\n        /* \"#utility.yul\":470:533   */\n    tag_245:\n        /* \"#utility.yul\":417:539   */\n      pop\n      jump\t// out\n        /* \"#utility.yul\":545:684   */\n    tag_188:\n        /* \"#utility.yul\":591:596   */\n      0x00\n        /* \"#utility.yul\":629:635   */\n      dup2\n        /* \"#utility.yul\":616:636   */\n      calldataload\n        /* \"#utility.yul\":607:636   */\n      swap1\n      pop\n        /* \"#utility.yul\":645:678   */\n      tag_247\n        /* \"#utility.yul\":672:677   */\n      dup2\n        /* \"#utility.yul\":645:678   */\n      tag_187\n      jump\t// in\n    tag_247:\n        /* \"#utility.yul\":545:684   */\n      swap3\n      swap2\n      pop\n      pop\n      jump\t// out\n        /* \"#utility.yul\":690:816   */\n    tag_189:\n        /* \"#utility.yul\":727:734   */\n      0x00\n        /* \"#utility.yul\":767:809   */\n      0xffffffffffffffffffffffffffffffffffffffff\n        /* \"#utility.yul\":760:765   */\n      dup3\n        /* \"#utility.yul\":756:810   */\n      and\n        /* \"#utility.yul\":745:810   */\n      swap1\n      pop\n        /* \"#utility.yul\":690:816   */\n      swap2\n      swap1\n      pop\n      jump\t// out\n        /* \"#utility.yul\":822:918   */\n    tag_190:\n        /* \"#utility.yul\":859:866   */\n      0x00\n        /* \"#utility.yul\":888:912   */\n      tag_250\n        /* \"#utility.yul\":906:911   */\n      dup3\n        /* \"#utility.yul\":888:912   */\n      tag_189\n      jump\t// in\n    tag_250:\n        /* \"#utility.yul\":877:912   */\n      swap1\n      pop\n        /* \"#utility.yul\":822:918   */\n      swap2\n      swap1\n      pop\n      jump\t// out\n        /* \"#utility.yul\":924:1046   */\n    tag_191:\n        /* \"#utility.yul\":997:1021   */\n      tag_252\n        /* \"#utility.yul\":1015:1020   */\n      dup2\n        /* \"#utility.yul\":997:1021   */\n      tag_190\n      jump\t// in\n    tag_252:\n        /* \"#utility.yul\":990:995   */\n      dup2\n        /* \"#utility.yul\":987:1022   */\n      eq\n        /* \"#utility.yul\":977:1040   */\n      tag_253\n      jumpi\n        /* \"#utility.yul\":1036:1037   */\n      0x00\n        /* \"#utility.yul\":1033:1034   */\n      dup1\n        /* \"#utility.yul\":1026:1038   */\n      revert\n        /* \"#utility.yul\":977:1040   */\n    tag_253:\n        /* \"#utility.yul\":924:1046   */\n      pop\n      jump\t// out\n        /* \"#utility.yul\":1052:1191   */\n    tag_192:\n        /* \"#utility.yul\":1098:1103   */\n      0x00\n        /* \"#utility.yul\":1136:1142   */\n      dup2\n        /* \"#utility.yul\":1123:1143   */\n      calldataload\n        /* \"#utility.yul\":1114:1143   */\n      swap1\n      pop\n        /* \"#utility.yul\":1152:1185   */\n      tag_255\n        /* \"#utility.yul\":1179:1184   */\n      dup2\n        /* \"#utility.yul\":1152:1185   */\n      tag_191\n      jump\t// in\n    tag_255:\n        /* \"#utility.yul\":1052:1191   */\n      swap3\n      swap2\n      pop\n      pop\n      jump\t// out\n        /* \"#utility.yul\":1197:1671   */\n    tag_18:\n        /* \"#utility.yul\":1265:1271   */\n      0x00\n        /* \"#utility.yul\":1273:1279   */\n      dup1\n        /* \"#utility.yul\":1322:1324   */\n      0x40\n        /* \"#utility.yul\":1310:1319   */\n      dup4\n        /* \"#utility.yul\":1301:1308   */\n      dup6\n        /* \"#utility.yul\":1297:1320   */\n      sub\n        /* \"#utility.yul\":1293:1325   */\n      slt\n        /* \"#utility.yul\":1290:1409   */\n      iszero\n      tag_257\n      jumpi\n        /* \"#utility.yul\":1328:1407   */\n      tag_258\n      tag_184\n      jump\t// in\n    tag_258:\n        /* \"#utility.yul\":1290:1409   */\n    tag_257:\n        /* \"#utility.yul\":1448:1449   */\n      0x00\n        /* \"#utility.yul\":1473:1526   */\n      tag_259\n        /* \"#utility.yul\":1518:1525   */\n      dup6\n        /* \"#utility.yul\":1509:1515   */\n      dup3\n        /* \"#utility.yul\":1498:1507   */\n      dup7\n        /* \"#utility.yul\":1494:1516   */\n      add\n        /* \"#utility.yul\":1473:1526   */\n      tag_188\n      jump\t// in\n    tag_259:\n        /* \"#utility.yul\":1463:1526   */\n      swap3\n      pop\n        /* \"#utility.yul\":1419:1536   */\n      pop\n        /* \"#utility.yul\":1575:1577   */\n      0x20\n        /* \"#utility.yul\":1601:1654   */\n      tag_260\n        /* \"#utility.yul\":1646:1653   */\n      dup6\n        /* \"#utility.yul\":1637:1643   */\n      dup3\n        /* \"#utility.yul\":1626:1635   */\n      dup7\n        /* \"#utility.yul\":1622:1644   */\n      add\n        /* \"#utility.yul\":1601:1654   */\n      tag_192\n      jump\t// in\n    tag_260:\n        /* \"#utility.yul\":1591:1654   */\n      swap2\n      pop\n        /* \"#utility.yul\":1546:1664   */\n      pop\n        /* \"#utility.yul\":1197:1671   */\n      swap3\n      pop\n      swap3\n      swap1\n      pop\n      jump\t// out\n        /* \"#utility.yul\":1677:2006   */\n    tag_22:\n        /* \"#utility.yul\":1736:1742   */\n      0x00\n        /* \"#utility.yul\":1785:1787   */\n      0x20\n        /* \"#utility.yul\":1773:1782   */\n      dup3\n        /* \"#utility.yul\":1764:1771   */\n      dup5\n        /* \"#utility.yul\":1760:1783   */\n      sub\n        /* \"#utility.yul\":1756:1788   */\n      slt\n        /* \"#utility.yul\":1753:1872   */\n      iszero\n      tag_262\n      jumpi\n        /* \"#utility.yul\":1791:1870   */\n      tag_263\n      tag_184\n      jump\t// in\n    tag_263:\n        /* \"#utility.yul\":1753:1872   */\n    tag_262:\n        /* \"#utility.yul\":1911:1912   */\n      0x00\n        /* \"#utility.yul\":1936:1989   */\n      tag_264\n        /* \"#utility.yul\":1981:1988   */\n      dup5\n        /* \"#utility.yul\":1972:1978   */\n      dup3\n        /* \"#utility.yul\":1961:1970   */\n      dup6\n        /* \"#utility.yul\":1957:1979   */\n      add\n        /* \"#utility.yul\":1936:1989   */\n      tag_192\n      jump\t// in\n    tag_264:\n        /* \"#utility.yul\":1926:1989   */\n      swap2\n      pop\n        /* \"#utility.yul\":1882:1999   */\n      pop\n        /* \"#utility.yul\":1677:2006   */\n      swap3\n      swap2\n      pop\n      pop\n      jump\t// out\n        /* \"#utility.yul\":2012:2129   */\n    tag_193:\n        /* \"#utility.yul\":2121:2122   */\n      0x00\n        /* \"#utility.yul\":2118:2119   */\n      dup1\n        /* \"#utility.yul\":2111:2123   */\n      revert\n        /* \"#utility.yul\":2135:2252   */\n    tag_194:\n        /* \"#utility.yul\":2244:2245   */\n      0x00\n        /* \"#utility.yul\":2241:2242   */\n      dup1\n        /* \"#utility.yul\":2234:2246   */\n      revert\n        /* \"#utility.yul\":2258:2360   */\n    tag_195:\n        /* \"#utility.yul\":2299:2305   */\n      0x00\n        /* \"#utility.yul\":2350:2352   */\n      0x1f\n        /* \"#utility.yul\":2346:2353   */\n      not\n        /* \"#utility.yul\":2341:2343   */\n      0x1f\n        /* \"#utility.yul\":2334:2339   */\n      dup4\n        /* \"#utility.yul\":2330:2344   */\n      add\n        /* \"#utility.yul\":2326:2354   */\n      and\n        /* \"#utility.yul\":2316:2354   */\n      swap1\n      pop\n        /* \"#utility.yul\":2258:2360   */\n      swap2\n      swap1\n      pop\n      jump\t// out\n        /* \"#utility.yul\":2366:2546   */\n    tag_196:\n        /* \"#utility.yul\":2414:2491   */\n      0x4e487b7100000000000000000000000000000000000000000000000000000000\n        /* \"#utility.yul\":2411:2412   */\n      0x00\n        /* \"#utility.yul\":2404:2492   */\n      mstore\n        /* \"#utility.yul\":2511:2515   */\n      0x41\n        /* \"#utility.yul\":2508:2509   */\n      0x04\n        /* \"#utility.yul\":2501:2516   */\n      mstore\n        /* \"#utility.yul\":2535:2539   */\n      0x24\n        /* \"#utility.yul\":2532:2533   */\n      0x00\n        /* \"#utility.yul\":2525:2540   */\n      revert\n        /* \"#utility.yul\":2552:2833   */\n    tag_197:\n        /* \"#utility.yul\":2635:2662   */\n      tag_270\n        /* \"#utility.yul\":2657:2661   */\n      dup3\n        /* \"#utility.yul\":2635:2662   */\n      tag_195\n      jump\t// in\n    tag_270:\n        /* \"#utility.yul\":2627:2633   */\n      dup2\n        /* \"#utility.yul\":2623:2663   */\n      add\n        /* \"#utility.yul\":2765:2771   */\n      dup2\n        /* \"#utility.yul\":2753:2763   */\n      dup2\n        /* \"#utility.yul\":2750:2772   */\n      lt\n        /* \"#utility.yul\":2729:2747   */\n      0xffffffffffffffff\n        /* \"#utility.yul\":2717:2727   */\n      dup3\n        /* \"#utility.yul\":2714:2748   */\n      gt\n        /* \"#utility.yul\":2711:2773   */\n      or\n        /* \"#utility.yul\":2708:2796   */\n      iszero\n      tag_271\n      jumpi\n        /* \"#utility.yul\":2776:2794   */\n      tag_272\n      tag_196\n      jump\t// in\n    tag_272:\n        /* \"#utility.yul\":2708:2796   */\n    tag_271:\n        /* \"#utility.yul\":2816:2826   */\n      dup1\n        /* \"#utility.yul\":2812:2814   */\n      0x40\n        /* \"#utility.yul\":2805:2827   */\n      mstore\n        /* \"#utility.yul\":2595:2833   */\n      pop\n        /* \"#utility.yul\":2552:2833   */\n      pop\n      pop\n      jump\t// out\n        /* \"#utility.yul\":2839:2968   */\n    tag_198:\n        /* \"#utility.yul\":2873:2879   */\n      0x00\n        /* \"#utility.yul\":2900:2920   */\n      tag_274\n      tag_183\n      jump\t// in\n    tag_274:\n        /* \"#utility.yul\":2890:2920   */\n      swap1\n      pop\n        /* \"#utility.yul\":2929:2962   */\n      tag_275\n        /* \"#utility.yul\":2957:2961   */\n      dup3\n        /* \"#utility.yul\":2949:2955   */\n      dup3\n        /* \"#utility.yul\":2929:2962   */\n      tag_197\n      jump\t// in\n    tag_275:\n        /* \"#utility.yul\":2839:2968   */\n      swap2\n      swap1\n      pop\n      jump\t// out\n        /* \"#utility.yul\":2974:3282   */\n    tag_199:\n        /* \"#utility.yul\":3036:3040   */\n      0x00\n        /* \"#utility.yul\":3126:3144   */\n      0xffffffffffffffff\n        /* \"#utility.yul\":3118:3124   */\n      dup3\n        /* \"#utility.yul\":3115:3145   */\n      gt\n        /* \"#utility.yul\":3112:3168   */\n      iszero\n      tag_277\n      jumpi\n        /* \"#utility.yul\":3148:3166   */\n      tag_278\n      tag_196\n      jump\t// in\n    tag_278:\n        /* \"#utility.yul\":3112:3168   */\n    tag_277:\n        /* \"#utility.yul\":3186:3215   */\n      tag_279\n        /* \"#utility.yul\":3208:3214   */\n      dup3\n        /* \"#utility.yul\":3186:3215   */\n      tag_195\n      jump\t// in\n    tag_279:\n        /* \"#utility.yul\":3178:3215   */\n      swap1\n      pop\n        /* \"#utility.yul\":3270:3274   */\n      0x20\n        /* \"#utility.yul\":3264:3268   */\n      dup2\n        /* \"#utility.yul\":3260:3275   */\n      add\n        /* \"#utility.yul\":3252:3275   */\n      swap1\n      pop\n        /* \"#utility.yul\":2974:3282   */\n      swap2\n      swap1\n      pop\n      jump\t// out\n        /* \"#utility.yul\":3288:3434   */\n    tag_200:\n        /* \"#utility.yul\":3385:3391   */\n      dup3\n        /* \"#utility.yul\":3380:3383   */\n      dup2\n        /* \"#utility.yul\":3375:3378   */\n      dup4\n        /* \"#utility.yul\":3362:3392   */\n      calldatacopy\n        /* \"#utility.yul\":3426:3427   */\n      0x00\n        /* \"#utility.yul\":3417:3423   */\n      dup4\n        /* \"#utility.yul\":3412:3415   */\n      dup4\n        /* \"#utility.yul\":3408:3424   */\n      add\n        /* \"#utility.yul\":3401:3428   */\n      mstore\n        /* \"#utility.yul\":3288:3434   */\n      pop\n      pop\n      pop\n      jump\t// out\n        /* \"#utility.yul\":3440:3865   */\n    tag_201:\n        /* \"#utility.yul\":3518:3523   */\n      0x00\n        /* \"#utility.yul\":3543:3609   */\n      tag_282\n        /* \"#utility.yul\":3559:3608   */\n      tag_283\n        /* \"#utility.yul\":3601:3607   */\n      dup5\n        /* \"#utility.yul\":3559:3608   */\n      tag_199\n      jump\t// in\n    tag_283:\n        /* \"#utility.yul\":3543:3609   */\n      tag_198\n      jump\t// in\n    tag_282:\n        /* \"#utility.yul\":3534:3609   */\n      swap1\n      pop\n        /* \"#utility.yul\":3632:3638   */\n      dup3\n        /* \"#utility.yul\":3625:3630   */\n      dup2\n        /* \"#utility.yul\":3618:3639   */\n      mstore\n        /* \"#utility.yul\":3670:3674   */\n      0x20\n        /* \"#utility.yul\":3663:3668   */\n      dup2\n        /* \"#utility.yul\":3659:3675   */\n      add\n        /* \"#utility.yul\":3708:3711   */\n      dup5\n        /* \"#utility.yul\":3699:3705   */\n      dup5\n        /* \"#utility.yul\":3694:3697   */\n      dup5\n        /* \"#utility.yul\":3690:3706   */\n      add\n        /* \"#utility.yul\":3687:3712   */\n      gt\n        /* \"#utility.yul\":3684:3796   */\n      iszero\n      tag_284\n      jumpi\n        /* \"#utility.yul\":3715:3794   */\n      tag_285\n      tag_194\n      jump\t// in\n    tag_285:\n        /* \"#utility.yul\":3684:3796   */\n    tag_284:\n        /* \"#utility.yul\":3805:3859   */\n      tag_286\n        /* \"#utility.yul\":3852:3858   */\n      dup5\n        /* \"#utility.yul\":3847:3850   */\n      dup3\n        /* \"#utility.yul\":3842:3845   */\n      dup6\n        /* \"#utility.yul\":3805:3859   */\n      tag_200\n      jump\t// in\n    tag_286:\n        /* \"#utility.yul\":3524:3865   */\n      pop\n        /* \"#utility.yul\":3440:3865   */\n      swap4\n      swap3\n      pop\n      pop\n      pop\n      jump\t// out\n        /* \"#utility.yul\":3885:4225   */\n    tag_202:\n        /* \"#utility.yul\":3941:3946   */\n      0x00\n        /* \"#utility.yul\":3990:3993   */\n      dup3\n        /* \"#utility.yul\":3983:3987   */\n      0x1f\n        /* \"#utility.yul\":3975:3981   */\n      dup4\n        /* \"#utility.yul\":3971:3988   */\n      add\n        /* \"#utility.yul\":3967:3994   */\n      slt\n        /* \"#utility.yul\":3957:4079   */\n      tag_288\n      jumpi\n        /* \"#utility.yul\":3998:4077   */\n      tag_289\n      tag_193\n      jump\t// in\n    tag_289:\n        /* \"#utility.yul\":3957:4079   */\n    tag_288:\n        /* \"#utility.yul\":4115:4121   */\n      dup2\n        /* \"#utility.yul\":4102:4122   */\n      calldataload\n        /* \"#utility.yul\":4140:4219   */\n      tag_290\n        /* \"#utility.yul\":4215:4218   */\n      dup5\n        /* \"#utility.yul\":4207:4213   */\n      dup3\n        /* \"#utility.yul\":4200:4204   */\n      0x20\n        /* \"#utility.yul\":4192:4198   */\n      dup7\n        /* \"#utility.yul\":4188:4205   */\n      add\n        /* \"#utility.yul\":4140:4219   */\n      tag_201\n      jump\t// in\n    tag_290:\n        /* \"#utility.yul\":4131:4219   */\n      swap2\n      pop\n        /* \"#utility.yul\":3947:4225   */\n      pop\n        /* \"#utility.yul\":3885:4225   */\n      swap3\n      swap2\n      pop\n      pop\n      jump\t// out\n        /* \"#utility.yul\":4231:5210   */\n    tag_26:\n        /* \"#utility.yul\":4328:4334   */\n      0x00\n        /* \"#utility.yul\":4336:4342   */\n      dup1\n        /* \"#utility.yul\":4344:4350   */\n      0x00\n        /* \"#utility.yul\":4393:4395   */\n      0x60\n        /* \"#utility.yul\":4381:4390   */\n      dup5\n        /* \"#utility.yul\":4372:4379   */\n      dup7\n        /* \"#utility.yul\":4368:4391   */\n      sub\n        /* \"#utility.yul\":4364:4396   */\n      slt\n        /* \"#utility.yul\":4361:4480   */\n      iszero\n      tag_292\n      jumpi\n        /* \"#utility.yul\":4399:4478   */\n      tag_293\n      tag_184\n      jump\t// in\n    tag_293:\n        /* \"#utility.yul\":4361:4480   */\n    tag_292:\n        /* \"#utility.yul\":4547:4548   */\n      0x00\n        /* \"#utility.yul\":4536:4545   */\n      dup5\n        /* \"#utility.yul\":4532:4549   */\n      add\n        /* \"#utility.yul\":4519:4550   */\n      calldataload\n        /* \"#utility.yul\":4577:4595   */\n      0xffffffffffffffff\n        /* \"#utility.yul\":4569:4575   */\n      dup2\n        /* \"#utility.yul\":4566:4596   */\n      gt\n        /* \"#utility.yul\":4563:4680   */\n      iszero\n      tag_294\n      jumpi\n        /* \"#utility.yul\":4599:4678   */\n      tag_295\n      tag_185\n      jump\t// in\n    tag_295:\n        /* \"#utility.yul\":4563:4680   */\n    tag_294:\n        /* \"#utility.yul\":4704:4767   */\n      tag_296\n        /* \"#utility.yul\":4759:4766   */\n      dup7\n        /* \"#utility.yul\":4750:4756   */\n      dup3\n        /* \"#utility.yul\":4739:4748   */\n      dup8\n        /* \"#utility.yul\":4735:4757   */\n      add\n        /* \"#utility.yul\":4704:4767   */\n      tag_202\n      jump\t// in\n    tag_296:\n        /* \"#utility.yul\":4694:4767   */\n      swap4\n      pop\n        /* \"#utility.yul\":4490:4777   */\n      pop\n        /* \"#utility.yul\":4844:4846   */\n      0x20\n        /* \"#utility.yul\":4833:4842   */\n      dup5\n        /* \"#utility.yul\":4829:4847   */\n      add\n        /* \"#utility.yul\":4816:4848   */\n      calldataload\n        /* \"#utility.yul\":4875:4893   */\n      0xffffffffffffffff\n        /* \"#utility.yul\":4867:4873   */\n      dup2\n        /* \"#utility.yul\":4864:4894   */\n      gt\n        /* \"#utility.yul\":4861:4978   */\n      iszero\n      tag_297\n      jumpi\n        /* \"#utility.yul\":4897:4976   */\n      tag_298\n      tag_185\n      jump\t// in\n    tag_298:\n        /* \"#utility.yul\":4861:4978   */\n    tag_297:\n        /* \"#utility.yul\":5002:5065   */\n      tag_299\n        /* \"#utility.yul\":5057:5064   */\n      dup7\n        /* \"#utility.yul\":5048:5054   */\n      dup3\n        /* \"#utility.yul\":5037:5046   */\n      dup8\n        /* \"#utility.yul\":5033:5055   */\n      add\n        /* \"#utility.yul\":5002:5065   */\n      tag_202\n      jump\t// in\n    tag_299:\n        /* \"#utility.yul\":4992:5065   */\n      swap3\n      pop\n        /* \"#utility.yul\":4787:5075   */\n      pop\n        /* \"#utility.yul\":5114:5116   */\n      0x40\n        /* \"#utility.yul\":5140:5193   */\n      tag_300\n        /* \"#utility.yul\":5185:5192   */\n      dup7\n        /* \"#utility.yul\":5176:5182   */\n      dup3\n        /* \"#utility.yul\":5165:5174   */\n      dup8\n        /* \"#utility.yul\":5161:5183   */\n      add\n        /* \"#utility.yul\":5140:5193   */\n      tag_192\n      jump\t// in\n    tag_300:\n        /* \"#utility.yul\":5130:5193   */\n      swap2\n      pop\n        /* \"#utility.yul\":5085:5203   */\n      pop\n        /* \"#utility.yul\":4231:5210   */\n      swap3\n      pop\n      swap3\n      pop\n      swap3\n      jump\t// out\n        /* \"#utility.yul\":5216:5315   */\n    tag_203:\n        /* \"#utility.yul\":5268:5274   */\n      0x00\n        /* \"#utility.yul\":5302:5307   */\n      dup2\n        /* \"#utility.yul\":5296:5308   */\n      mload\n        /* \"#utility.yul\":5286:5308   */\n      swap1\n      pop\n        /* \"#utility.yul\":5216:5315   */\n      swap2\n      swap1\n      pop\n      jump\t// out\n        /* \"#utility.yul\":5321:5490   */\n    tag_204:\n        /* \"#utility.yul\":5405:5416   */\n      0x00\n        /* \"#utility.yul\":5439:5445   */\n      dup3\n        /* \"#utility.yul\":5434:5437   */\n      dup3\n        /* \"#utility.yul\":5427:5446   */\n      mstore\n        /* \"#utility.yul\":5479:5483   */\n      0x20\n        /* \"#utility.yul\":5474:5477   */\n      dup3\n        /* \"#utility.yul\":5470:5484   */\n      add\n        /* \"#utility.yul\":5455:5484   */\n      swap1\n      pop\n        /* \"#utility.yul\":5321:5490   */\n      swap3\n      swap2\n      pop\n      pop\n      jump\t// out\n        /* \"#utility.yul\":5496:5742   */\n    tag_205:\n        /* \"#utility.yul\":5577:5578   */\n      0x00\n        /* \"#utility.yul\":5587:5700   */\n    tag_304:\n        /* \"#utility.yul\":5601:5607   */\n      dup4\n        /* \"#utility.yul\":5598:5599   */\n      dup2\n        /* \"#utility.yul\":5595:5608   */\n      lt\n        /* \"#utility.yul\":5587:5700   */\n      iszero\n      tag_306\n      jumpi\n        /* \"#utility.yul\":5686:5687   */\n      dup1\n        /* \"#utility.yul\":5681:5684   */\n      dup3\n        /* \"#utility.yul\":5677:5688   */\n      add\n        /* \"#utility.yul\":5671:5689   */\n      mload\n        /* \"#utility.yul\":5667:5668   */\n      dup2\n        /* \"#utility.yul\":5662:5665   */\n      dup5\n        /* \"#utility.yul\":5658:5669   */\n      add\n        /* \"#utility.yul\":5651:5690   */\n      mstore\n        /* \"#utility.yul\":5623:5625   */\n      0x20\n        /* \"#utility.yul\":5620:5621   */\n      dup2\n        /* \"#utility.yul\":5616:5626   */\n      add\n        /* \"#utility.yul\":5611:5626   */\n      swap1\n      pop\n        /* \"#utility.yul\":5587:5700   */\n      jump(tag_304)\n    tag_306:\n        /* \"#utility.yul\":5734:5735   */\n      0x00\n        /* \"#utility.yul\":5725:5731   */\n      dup5\n        /* \"#utility.yul\":5720:5723   */\n      dup5\n        /* \"#utility.yul\":5716:5732   */\n      add\n        /* \"#utility.yul\":5709:5736   */\n      mstore\n        /* \"#utility.yul\":5558:5742   */\n      pop\n        /* \"#utility.yul\":5496:5742   */\n      pop\n      pop\n      pop\n      jump\t// out\n        /* \"#utility.yul\":5748:6125   */\n    tag_206:\n        /* \"#utility.yul\":5836:5839   */\n      0x00\n        /* \"#utility.yul\":5864:5903   */\n      tag_308\n        /* \"#utility.yul\":5897:5902   */\n      dup3\n        /* \"#utility.yul\":5864:5903   */\n      tag_203\n      jump\t// in\n    tag_308:\n        /* \"#utility.yul\":5919:5990   */\n      tag_309\n        /* \"#utility.yul\":5983:5989   */\n      dup2\n        /* \"#utility.yul\":5978:5981   */\n      dup6\n        /* \"#utility.yul\":5919:5990   */\n      tag_204\n      jump\t// in\n    tag_309:\n        /* \"#utility.yul\":5912:5990   */\n      swap4\n      pop\n        /* \"#utility.yul\":5999:6064   */\n      tag_310\n        /* \"#utility.yul\":6057:6063   */\n      dup2\n        /* \"#utility.yul\":6052:6055   */\n      dup6\n        /* \"#utility.yul\":6045:6049   */\n      0x20\n        /* \"#utility.yul\":6038:6043   */\n      dup7\n        /* \"#utility.yul\":6034:6050   */\n      add\n        /* \"#utility.yul\":5999:6064   */\n      tag_205\n      jump\t// in\n    tag_310:\n        /* \"#utility.yul\":6089:6118   */\n      tag_311\n        /* \"#utility.yul\":6111:6117   */\n      dup2\n        /* \"#utility.yul\":6089:6118   */\n      tag_195\n      jump\t// in\n    tag_311:\n        /* \"#utility.yul\":6084:6087   */\n      dup5\n        /* \"#utility.yul\":6080:6119   */\n      add\n        /* \"#utility.yul\":6073:6119   */\n      swap2\n      pop\n        /* \"#utility.yul\":5840:6125   */\n      pop\n        /* \"#utility.yul\":5748:6125   */\n      swap3\n      swap2\n      pop\n      pop\n      jump\t// out\n        /* \"#utility.yul\":6131:6249   */\n    tag_207:\n        /* \"#utility.yul\":6218:6242   */\n      tag_313\n        /* \"#utility.yul\":6236:6241   */\n      dup2\n        /* \"#utility.yul\":6218:6242   */\n      tag_186\n      jump\t// in\n    tag_313:\n        /* \"#utility.yul\":6213:6216   */\n      dup3\n        /* \"#utility.yul\":6206:6243   */\n      mstore\n        /* \"#utility.yul\":6131:6249   */\n      pop\n      pop\n      jump\t// out\n        /* \"#utility.yul\":6255:6345   */\n    tag_208:\n        /* \"#utility.yul\":6289:6296   */\n      0x00\n        /* \"#utility.yul\":6332:6337   */\n      dup2\n        /* \"#utility.yul\":6325:6338   */\n      iszero\n        /* \"#utility.yul\":6318:6339   */\n      iszero\n        /* \"#utility.yul\":6307:6339   */\n      swap1\n      pop\n        /* \"#utility.yul\":6255:6345   */\n      swap2\n      swap1\n      pop\n      jump\t// out\n        /* \"#utility.yul\":6351:6460   */\n    tag_209:\n        /* \"#utility.yul\":6432:6453   */\n      tag_316\n        /* \"#utility.yul\":6447:6452   */\n      dup2\n        /* \"#utility.yul\":6432:6453   */\n      tag_208\n      jump\t// in\n    tag_316:\n        /* \"#utility.yul\":6427:6430   */\n      dup3\n        /* \"#utility.yul\":6420:6454   */\n      mstore\n        /* \"#utility.yul\":6351:6460   */\n      pop\n      pop\n      jump\t// out\n        /* \"#utility.yul\":6466:6987   */\n    tag_32:\n        /* \"#utility.yul\":6629:6633   */\n      0x00\n        /* \"#utility.yul\":6667:6669   */\n      0x60\n        /* \"#utility.yul\":6656:6665   */\n      dup3\n        /* \"#utility.yul\":6652:6670   */\n      add\n        /* \"#utility.yul\":6644:6670   */\n      swap1\n      pop\n        /* \"#utility.yul\":6716:6725   */\n      dup2\n        /* \"#utility.yul\":6710:6714   */\n      dup2\n        /* \"#utility.yul\":6706:6726   */\n      sub\n        /* \"#utility.yul\":6702:6703   */\n      0x00\n        /* \"#utility.yul\":6691:6700   */\n      dup4\n        /* \"#utility.yul\":6687:6704   */\n      add\n        /* \"#utility.yul\":6680:6727   */\n      mstore\n        /* \"#utility.yul\":6744:6822   */\n      tag_318\n        /* \"#utility.yul\":6817:6821   */\n      dup2\n        /* \"#utility.yul\":6808:6814   */\n      dup7\n        /* \"#utility.yul\":6744:6822   */\n      tag_206\n      jump\t// in\n    tag_318:\n        /* \"#utility.yul\":6736:6822   */\n      swap1\n      pop\n        /* \"#utility.yul\":6832:6904   */\n      tag_319\n        /* \"#utility.yul\":6900:6902   */\n      0x20\n        /* \"#utility.yul\":6889:6898   */\n      dup4\n        /* \"#utility.yul\":6885:6903   */\n      add\n        /* \"#utility.yul\":6876:6882   */\n      dup6\n        /* \"#utility.yul\":6832:6904   */\n      tag_207\n      jump\t// in\n    tag_319:\n        /* \"#utility.yul\":6914:6980   */\n      tag_320\n        /* \"#utility.yul\":6976:6978   */\n      0x40\n        /* \"#utility.yul\":6965:6974   */\n      dup4\n        /* \"#utility.yul\":6961:6979   */\n      add\n        /* \"#utility.yul\":6952:6958   */\n      dup5\n        /* \"#utility.yul\":6914:6980   */\n      tag_209\n      jump\t// in\n    tag_320:\n        /* \"#utility.yul\":6466:6987   */\n      swap5\n      swap4\n      pop\n      pop\n      pop\n      pop\n      jump\t// out\n        /* \"#utility.yul\":6993:7322   */\n    tag_35:\n        /* \"#utility.yul\":7052:7058   */\n      0x00\n        /* \"#utility.yul\":7101:7103   */\n      0x20\n        /* \"#utility.yul\":7089:7098   */\n      dup3\n        /* \"#utility.yul\":7080:7087   */\n      dup5\n        /* \"#utility.yul\":7076:7099   */\n      sub\n        /* \"#utility.yul\":7072:7104   */\n      slt\n        /* \"#utility.yul\":7069:7188   */\n      iszero\n      tag_322\n      jumpi\n        /* \"#utility.yul\":7107:7186   */\n      tag_323\n      tag_184\n      jump\t// in\n    tag_323:\n        /* \"#utility.yul\":7069:7188   */\n    tag_322:\n        /* \"#utility.yul\":7227:7228   */\n      0x00\n        /* \"#utility.yul\":7252:7305   */\n      tag_324\n        /* \"#utility.yul\":7297:7304   */\n      dup5\n        /* \"#utility.yul\":7288:7294   */\n      dup3\n        /* \"#utility.yul\":7277:7286   */\n      dup6\n        /* \"#utility.yul\":7273:7295   */\n      add\n        /* \"#utility.yul\":7252:7305   */\n      tag_188\n      jump\t// in\n    tag_324:\n        /* \"#utility.yul\":7242:7305   */\n      swap2\n      pop\n        /* \"#utility.yul\":7198:7315   */\n      pop\n        /* \"#utility.yul\":6993:7322   */\n      swap3\n      swap2\n      pop\n      pop\n      jump\t// out\n        /* \"#utility.yul\":7328:7446   */\n    tag_210:\n        /* \"#utility.yul\":7415:7439   */\n      tag_326\n        /* \"#utility.yul\":7433:7438   */\n      dup2\n        /* \"#utility.yul\":7415:7439   */\n      tag_190\n      jump\t// in\n    tag_326:\n        /* \"#utility.yul\":7410:7413   */\n      dup3\n        /* \"#utility.yul\":7403:7440   */\n      mstore\n        /* \"#utility.yul\":7328:7446   */\n      pop\n      pop\n      jump\t// out\n        /* \"#utility.yul\":7452:8187   */\n    tag_38:\n        /* \"#utility.yul\":7669:7673   */\n      0x00\n        /* \"#utility.yul\":7707:7710   */\n      0x80\n        /* \"#utility.yul\":7696:7705   */\n      dup3\n        /* \"#utility.yul\":7692:7711   */\n      add\n        /* \"#utility.yul\":7684:7711   */\n      swap1\n      pop\n        /* \"#utility.yul\":7757:7766   */\n      dup2\n        /* \"#utility.yul\":7751:7755   */\n      dup2\n        /* \"#utility.yul\":7747:7767   */\n      sub\n        /* \"#utility.yul\":7743:7744   */\n      0x00\n        /* \"#utility.yul\":7732:7741   */\n      dup4\n        /* \"#utility.yul\":7728:7745   */\n      add\n        /* \"#utility.yul\":7721:7768   */\n      mstore\n        /* \"#utility.yul\":7785:7863   */\n      tag_328\n        /* \"#utility.yul\":7858:7862   */\n      dup2\n        /* \"#utility.yul\":7849:7855   */\n      dup8\n        /* \"#utility.yul\":7785:7863   */\n      tag_206\n      jump\t// in\n    tag_328:\n        /* \"#utility.yul\":7777:7863   */\n      swap1\n      pop\n        /* \"#utility.yul\":7873:7945   */\n      tag_329\n        /* \"#utility.yul\":7941:7943   */\n      0x20\n        /* \"#utility.yul\":7930:7939   */\n      dup4\n        /* \"#utility.yul\":7926:7944   */\n      add\n        /* \"#utility.yul\":7917:7923   */\n      dup7\n        /* \"#utility.yul\":7873:7945   */\n      tag_207\n      jump\t// in\n    tag_329:\n        /* \"#utility.yul\":7992:8001   */\n      dup2\n        /* \"#utility.yul\":7986:7990   */\n      dup2\n        /* \"#utility.yul\":7982:8002   */\n      sub\n        /* \"#utility.yul\":7977:7979   */\n      0x40\n        /* \"#utility.yul\":7966:7975   */\n      dup4\n        /* \"#utility.yul\":7962:7980   */\n      add\n        /* \"#utility.yul\":7955:8003   */\n      mstore\n        /* \"#utility.yul\":8020:8098   */\n      tag_330\n        /* \"#utility.yul\":8093:8097   */\n      dup2\n        /* \"#utility.yul\":8084:8090   */\n      dup6\n        /* \"#utility.yul\":8020:8098   */\n      tag_206\n      jump\t// in\n    tag_330:\n        /* \"#utility.yul\":8012:8098   */\n      swap1\n      pop\n        /* \"#utility.yul\":8108:8180   */\n      tag_331\n        /* \"#utility.yul\":8176:8178   */\n      0x60\n        /* \"#utility.yul\":8165:8174   */\n      dup4\n        /* \"#utility.yul\":8161:8179   */\n      add\n        /* \"#utility.yul\":8152:8158   */\n      dup5\n        /* \"#utility.yul\":8108:8180   */\n      tag_210\n      jump\t// in\n    tag_331:\n        /* \"#utility.yul\":7452:8187   */\n      swap6\n      swap5\n      pop\n      pop\n      pop\n      pop\n      pop\n      jump\t// out\n        /* \"#utility.yul\":8193:8992   */\n    tag_41:\n        /* \"#utility.yul\":8280:8286   */\n      0x00\n        /* \"#utility.yul\":8288:8294   */\n      dup1\n        /* \"#utility.yul\":8296:8302   */\n      0x00\n        /* \"#utility.yul\":8345:8347   */\n      0x60\n        /* \"#utility.yul\":8333:8342   */\n      dup5\n        /* \"#utility.yul\":8324:8331   */\n      dup7\n        /* \"#utility.yul\":8320:8343   */\n      sub\n        /* \"#utility.yul\":8316:8348   */\n      slt\n        /* \"#utility.yul\":8313:8432   */\n      iszero\n      tag_333\n      jumpi\n        /* \"#utility.yul\":8351:8430   */\n      tag_334\n      tag_184\n      jump\t// in\n    tag_334:\n        /* \"#utility.yul\":8313:8432   */\n    tag_333:\n        /* \"#utility.yul\":8499:8500   */\n      0x00\n        /* \"#utility.yul\":8488:8497   */\n      dup5\n        /* \"#utility.yul\":8484:8501   */\n      add\n        /* \"#utility.yul\":8471:8502   */\n      calldataload\n        /* \"#utility.yul\":8529:8547   */\n      0xffffffffffffffff\n        /* \"#utility.yul\":8521:8527   */\n      dup2\n        /* \"#utility.yul\":8518:8548   */\n      gt\n        /* \"#utility.yul\":8515:8632   */\n      iszero\n      tag_335\n      jumpi\n        /* \"#utility.yul\":8551:8630   */\n      tag_336\n      tag_185\n      jump\t// in\n    tag_336:\n        /* \"#utility.yul\":8515:8632   */\n    tag_335:\n        /* \"#utility.yul\":8656:8719   */\n      tag_337\n        /* \"#utility.yul\":8711:8718   */\n      dup7\n        /* \"#utility.yul\":8702:8708   */\n      dup3\n        /* \"#utility.yul\":8691:8700   */\n      dup8\n        /* \"#utility.yul\":8687:8709   */\n      add\n        /* \"#utility.yul\":8656:8719   */\n      tag_202\n      jump\t// in\n    tag_337:\n        /* \"#utility.yul\":8646:8719   */\n      swap4\n      pop\n        /* \"#utility.yul\":8442:8729   */\n      pop\n        /* \"#utility.yul\":8768:8770   */\n      0x20\n        /* \"#utility.yul\":8794:8847   */\n      tag_338\n        /* \"#utility.yul\":8839:8846   */\n      dup7\n        /* \"#utility.yul\":8830:8836   */\n      dup3\n        /* \"#utility.yul\":8819:8828   */\n      dup8\n        /* \"#utility.yul\":8815:8837   */\n      add\n        /* \"#utility.yul\":8794:8847   */\n      tag_192\n      jump\t// in\n    tag_338:\n        /* \"#utility.yul\":8784:8847   */\n      swap3\n      pop\n        /* \"#utility.yul\":8739:8857   */\n      pop\n        /* \"#utility.yul\":8896:8898   */\n      0x40\n        /* \"#utility.yul\":8922:8975   */\n      tag_339\n        /* \"#utility.yul\":8967:8974   */\n      dup7\n        /* \"#utility.yul\":8958:8964   */\n      dup3\n        /* \"#utility.yul\":8947:8956   */\n      dup8\n        /* \"#utility.yul\":8943:8965   */\n      add\n        /* \"#utility.yul\":8922:8975   */\n      tag_192\n      jump\t// in\n    tag_339:\n        /* \"#utility.yul\":8912:8975   */\n      swap2\n      pop\n        /* \"#utility.yul\":8867:8985   */\n      pop\n        /* \"#utility.yul\":8193:8992   */\n      swap3\n      pop\n      swap3\n      pop\n      swap3\n      jump\t// out\n        /* \"#utility.yul\":8998:9531   */\n    tag_46:\n        /* \"#utility.yul\":9167:9171   */\n      0x00\n        /* \"#utility.yul\":9205:9207   */\n      0x60\n        /* \"#utility.yul\":9194:9203   */\n      dup3\n        /* \"#utility.yul\":9190:9208   */\n      add\n        /* \"#utility.yul\":9182:9208   */\n      swap1\n      pop\n        /* \"#utility.yul\":9218:9289   */\n      tag_341\n        /* \"#utility.yul\":9286:9287   */\n      0x00\n        /* \"#utility.yul\":9275:9284   */\n      dup4\n        /* \"#utility.yul\":9271:9288   */\n      add\n        /* \"#utility.yul\":9262:9268   */\n      dup7\n        /* \"#utility.yul\":9218:9289   */\n      tag_207\n      jump\t// in\n    tag_341:\n        /* \"#utility.yul\":9299:9371   */\n      tag_342\n        /* \"#utility.yul\":9367:9369   */\n      0x20\n        /* \"#utility.yul\":9356:9365   */\n      dup4\n        /* \"#utility.yul\":9352:9370   */\n      add\n        /* \"#utility.yul\":9343:9349   */\n      dup6\n        /* \"#utility.yul\":9299:9371   */\n      tag_207\n      jump\t// in\n    tag_342:\n        /* \"#utility.yul\":9418:9427   */\n      dup2\n        /* \"#utility.yul\":9412:9416   */\n      dup2\n        /* \"#utility.yul\":9408:9428   */\n      sub\n        /* \"#utility.yul\":9403:9405   */\n      0x40\n        /* \"#utility.yul\":9392:9401   */\n      dup4\n        /* \"#utility.yul\":9388:9406   */\n      add\n        /* \"#utility.yul\":9381:9429   */\n      mstore\n        /* \"#utility.yul\":9446:9524   */\n      tag_343\n        /* \"#utility.yul\":9519:9523   */\n      dup2\n        /* \"#utility.yul\":9510:9516   */\n      dup5\n        /* \"#utility.yul\":9446:9524   */\n      tag_206\n      jump\t// in\n    tag_343:\n        /* \"#utility.yul\":9438:9524   */\n      swap1\n      pop\n        /* \"#utility.yul\":8998:9531   */\n      swap5\n      swap4\n      pop\n      pop\n      pop\n      pop\n      jump\t// out\n        /* \"#utility.yul\":9537:10070   */\n    tag_51:\n        /* \"#utility.yul\":9706:9710   */\n      0x00\n        /* \"#utility.yul\":9744:9746   */\n      0x60\n        /* \"#utility.yul\":9733:9742   */\n      dup3\n        /* \"#utility.yul\":9729:9747   */\n      add\n        /* \"#utility.yul\":9721:9747   */\n      swap1\n      pop\n        /* \"#utility.yul\":9757:9828   */\n      tag_345\n        /* \"#utility.yul\":9825:9826   */\n      0x00\n        /* \"#utility.yul\":9814:9823   */\n      dup4\n        /* \"#utility.yul\":9810:9827   */\n      add\n        /* \"#utility.yul\":9801:9807   */\n      dup7\n        /* \"#utility.yul\":9757:9828   */\n      tag_207\n      jump\t// in\n    tag_345:\n        /* \"#utility.yul\":9875:9884   */\n      dup2\n        /* \"#utility.yul\":9869:9873   */\n      dup2\n        /* \"#utility.yul\":9865:9885   */\n      sub\n        /* \"#utility.yul\":9860:9862   */\n      0x20\n        /* \"#utility.yul\":9849:9858   */\n      dup4\n        /* \"#utility.yul\":9845:9863   */\n      add\n        /* \"#utility.yul\":9838:9886   */\n      mstore\n        /* \"#utility.yul\":9903:9981   */\n      tag_346\n        /* \"#utility.yul\":9976:9980   */\n      dup2\n        /* \"#utility.yul\":9967:9973   */\n      dup6\n        /* \"#utility.yul\":9903:9981   */\n      tag_206\n      jump\t// in\n    tag_346:\n        /* \"#utility.yul\":9895:9981   */\n      swap1\n      pop\n        /* \"#utility.yul\":9991:10063   */\n      tag_347\n        /* \"#utility.yul\":10059:10061   */\n      0x40\n        /* \"#utility.yul\":10048:10057   */\n      dup4\n        /* \"#utility.yul\":10044:10062   */\n      add\n        /* \"#utility.yul\":10035:10041   */\n      dup5\n        /* \"#utility.yul\":9991:10063   */\n      tag_207\n      jump\t// in\n    tag_347:\n        /* \"#utility.yul\":9537:10070   */\n      swap5\n      swap4\n      pop\n      pop\n      pop\n      pop\n      jump\t// out\n        /* \"#utility.yul\":10076:10162   */\n    tag_211:\n        /* \"#utility.yul\":10111:10118   */\n      0x00\n        /* \"#utility.yul\":10151:10155   */\n      0xff\n        /* \"#utility.yul\":10144:10149   */\n      dup3\n        /* \"#utility.yul\":10140:10156   */\n      and\n        /* \"#utility.yul\":10129:10156   */\n      swap1\n      pop\n        /* \"#utility.yul\":10076:10162   */\n      swap2\n      swap1\n      pop\n      jump\t// out\n        /* \"#utility.yul\":10168:10280   */\n    tag_212:\n        /* \"#utility.yul\":10251:10273   */\n      tag_350\n        /* \"#utility.yul\":10267:10272   */\n      dup2\n        /* \"#utility.yul\":10251:10273   */\n      tag_211\n      jump\t// in\n    tag_350:\n        /* \"#utility.yul\":10246:10249   */\n      dup3\n        /* \"#utility.yul\":10239:10274   */\n      mstore\n        /* \"#utility.yul\":10168:10280   */\n      pop\n      pop\n      jump\t// out\n        /* \"#utility.yul\":10286:11144   */\n    tag_59:\n        /* \"#utility.yul\":10535:10539   */\n      0x00\n        /* \"#utility.yul\":10573:10576   */\n      0xc0\n        /* \"#utility.yul\":10562:10571   */\n      dup3\n        /* \"#utility.yul\":10558:10577   */\n      add\n        /* \"#utility.yul\":10550:10577   */\n      swap1\n      pop\n        /* \"#utility.yul\":10587:10658   */\n      tag_352\n        /* \"#utility.yul\":10655:10656   */\n      0x00\n        /* \"#utility.yul\":10644:10653   */\n      dup4\n        /* \"#utility.yul\":10640:10657   */\n      add\n        /* \"#utility.yul\":10631:10637   */\n      dup10\n        /* \"#utility.yul\":10587:10658   */\n      tag_207\n      jump\t// in\n    tag_352:\n        /* \"#utility.yul\":10668:10740   */\n      tag_353\n        /* \"#utility.yul\":10736:10738   */\n      0x20\n        /* \"#utility.yul\":10725:10734   */\n      dup4\n        /* \"#utility.yul\":10721:10739   */\n      add\n        /* \"#utility.yul\":10712:10718   */\n      dup9\n        /* \"#utility.yul\":10668:10740   */\n      tag_207\n      jump\t// in\n    tag_353:\n        /* \"#utility.yul\":10787:10796   */\n      dup2\n        /* \"#utility.yul\":10781:10785   */\n      dup2\n        /* \"#utility.yul\":10777:10797   */\n      sub\n        /* \"#utility.yul\":10772:10774   */\n      0x40\n        /* \"#utility.yul\":10761:10770   */\n      dup4\n        /* \"#utility.yul\":10757:10775   */\n      add\n        /* \"#utility.yul\":10750:10798   */\n      mstore\n        /* \"#utility.yul\":10815:10893   */\n      tag_354\n        /* \"#utility.yul\":10888:10892   */\n      dup2\n        /* \"#utility.yul\":10879:10885   */\n      dup8\n        /* \"#utility.yul\":10815:10893   */\n      tag_206\n      jump\t// in\n    tag_354:\n        /* \"#utility.yul\":10807:10893   */\n      swap1\n      pop\n        /* \"#utility.yul\":10903:10971   */\n      tag_355\n        /* \"#utility.yul\":10967:10969   */\n      0x60\n        /* \"#utility.yul\":10956:10965   */\n      dup4\n        /* \"#utility.yul\":10952:10970   */\n      add\n        /* \"#utility.yul\":10943:10949   */\n      dup7\n        /* \"#utility.yul\":10903:10971   */\n      tag_212\n      jump\t// in\n    tag_355:\n        /* \"#utility.yul\":10981:11054   */\n      tag_356\n        /* \"#utility.yul\":11049:11052   */\n      0x80\n        /* \"#utility.yul\":11038:11047   */\n      dup4\n        /* \"#utility.yul\":11034:11053   */\n      add\n        /* \"#utility.yul\":11025:11031   */\n      dup6\n        /* \"#utility.yul\":10981:11054   */\n      tag_207\n      jump\t// in\n    tag_356:\n        /* \"#utility.yul\":11064:11137   */\n      tag_357\n        /* \"#utility.yul\":11132:11135   */\n      0xa0\n        /* \"#utility.yul\":11121:11130   */\n      dup4\n        /* \"#utility.yul\":11117:11136   */\n      add\n        /* \"#utility.yul\":11108:11114   */\n      dup5\n        /* \"#utility.yul\":11064:11137   */\n      tag_210\n      jump\t// in\n    tag_357:\n        /* \"#utility.yul\":10286:11144   */\n      swap8\n      swap7\n      pop\n      pop\n      pop\n      pop\n      pop\n      pop\n      pop\n      jump\t// out\n        /* \"#utility.yul\":11150:11774   */\n    tag_67:\n        /* \"#utility.yul\":11339:11343   */\n      0x00\n        /* \"#utility.yul\":11377:11379   */\n      0x60\n        /* \"#utility.yul\":11366:11375   */\n      dup3\n        /* \"#utility.yul\":11362:11380   */\n      add\n        /* \"#utility.yul\":11354:11380   */\n      swap1\n      pop\n        /* \"#utility.yul\":11390:11461   */\n      tag_359\n        /* \"#utility.yul\":11458:11459   */\n      0x00\n        /* \"#utility.yul\":11447:11456   */\n      dup4\n        /* \"#utility.yul\":11443:11460   */\n      add\n        /* \"#utility.yul\":11434:11440   */\n      dup7\n        /* \"#utility.yul\":11390:11461   */\n      tag_207\n      jump\t// in\n    tag_359:\n        /* \"#utility.yul\":11508:11517   */\n      dup2\n        /* \"#utility.yul\":11502:11506   */\n      dup2\n        /* \"#utility.yul\":11498:11518   */\n      sub\n        /* \"#utility.yul\":11493:11495   */\n      0x20\n        /* \"#utility.yul\":11482:11491   */\n      dup4\n        /* \"#utility.yul\":11478:11496   */\n      add\n        /* \"#utility.yul\":11471:11519   */\n      mstore\n        /* \"#utility.yul\":11536:11614   */\n      tag_360\n        /* \"#utility.yul\":11609:11613   */\n      dup2\n        /* \"#utility.yul\":11600:11606   */\n      dup6\n        /* \"#utility.yul\":11536:11614   */\n      tag_206\n      jump\t// in\n    tag_360:\n        /* \"#utility.yul\":11528:11614   */\n      swap1\n      pop\n        /* \"#utility.yul\":11661:11670   */\n      dup2\n        /* \"#utility.yul\":11655:11659   */\n      dup2\n        /* \"#utility.yul\":11651:11671   */\n      sub\n        /* \"#utility.yul\":11646:11648   */\n      0x40\n        /* \"#utility.yul\":11635:11644   */\n      dup4\n        /* \"#utility.yul\":11631:11649   */\n      add\n        /* \"#utility.yul\":11624:11672   */\n      mstore\n        /* \"#utility.yul\":11689:11767   */\n      tag_361\n        /* \"#utility.yul\":11762:11766   */\n      dup2\n        /* \"#utility.yul\":11753:11759   */\n      dup5\n        /* \"#utility.yul\":11689:11767   */\n      tag_206\n      jump\t// in\n    tag_361:\n        /* \"#utility.yul\":11681:11767   */\n      swap1\n      pop\n        /* \"#utility.yul\":11150:11774   */\n      swap5\n      swap4\n      pop\n      pop\n      pop\n      pop\n      jump\t// out\n        /* \"#utility.yul\":11780:11960   */\n    tag_213:\n        /* \"#utility.yul\":11828:11905   */\n      0x4e487b7100000000000000000000000000000000000000000000000000000000\n        /* \"#utility.yul\":11825:11826   */\n      0x00\n        /* \"#utility.yul\":11818:11906   */\n      mstore\n        /* \"#utility.yul\":11925:11929   */\n      0x22\n        /* \"#utility.yul\":11922:11923   */\n      0x04\n        /* \"#utility.yul\":11915:11930   */\n      mstore\n        /* \"#utility.yul\":11949:11953   */\n      0x24\n        /* \"#utility.yul\":11946:11947   */\n      0x00\n        /* \"#utility.yul\":11939:11954   */\n      revert\n        /* \"#utility.yul\":11966:12286   */\n    tag_101:\n        /* \"#utility.yul\":12010:12016   */\n      0x00\n        /* \"#utility.yul\":12047:12048   */\n      0x02\n        /* \"#utility.yul\":12041:12045   */\n      dup3\n        /* \"#utility.yul\":12037:12049   */\n      div\n        /* \"#utility.yul\":12027:12049   */\n      swap1\n      pop\n        /* \"#utility.yul\":12094:12095   */\n      0x01\n        /* \"#utility.yul\":12088:12092   */\n      dup3\n        /* \"#utility.yul\":12084:12096   */\n      and\n        /* \"#utility.yul\":12115:12133   */\n      dup1\n        /* \"#utility.yul\":12105:12186   */\n      tag_364\n      jumpi\n        /* \"#utility.yul\":12171:12175   */\n      0x7f\n        /* \"#utility.yul\":12163:12169   */\n      dup3\n        /* \"#utility.yul\":12159:12176   */\n      and\n        /* \"#utility.yul\":12149:12176   */\n      swap2\n      pop\n        /* \"#utility.yul\":12105:12186   */\n    tag_364:\n        /* \"#utility.yul\":12233:12235   */\n      0x20\n        /* \"#utility.yul\":12225:12231   */\n      dup3\n        /* \"#utility.yul\":12222:12236   */\n      lt\n        /* \"#utility.yul\":12202:12220   */\n      dup2\n        /* \"#utility.yul\":12199:12237   */\n      sub\n        /* \"#utility.yul\":12196:12280   */\n      tag_365\n      jumpi\n        /* \"#utility.yul\":12252:12270   */\n      tag_366\n      tag_213\n      jump\t// in\n    tag_366:\n        /* \"#utility.yul\":12196:12280   */\n    tag_365:\n        /* \"#utility.yul\":12017:12286   */\n      pop\n        /* \"#utility.yul\":11966:12286   */\n      swap2\n      swap1\n      pop\n      jump\t// out\n        /* \"#utility.yul\":12292:12439   */\n    tag_214:\n        /* \"#utility.yul\":12393:12404   */\n      0x00\n        /* \"#utility.yul\":12430:12433   */\n      dup2\n        /* \"#utility.yul\":12415:12433   */\n      swap1\n      pop\n        /* \"#utility.yul\":12292:12439   */\n      swap3\n      swap2\n      pop\n      pop\n      jump\t// out\n        /* \"#utility.yul\":12445:12589   */\n    tag_215:\n        /* \"#utility.yul\":12497:12501   */\n      0x00\n        /* \"#utility.yul\":12520:12523   */\n      dup2\n        /* \"#utility.yul\":12512:12523   */\n      swap1\n      pop\n        /* \"#utility.yul\":12543:12546   */\n      dup2\n        /* \"#utility.yul\":12540:12541   */\n      0x00\n        /* \"#utility.yul\":12533:12547   */\n      mstore\n        /* \"#utility.yul\":12577:12581   */\n      0x20\n        /* \"#utility.yul\":12574:12575   */\n      0x00\n        /* \"#utility.yul\":12564:12582   */\n      keccak256\n        /* \"#utility.yul\":12556:12582   */\n      swap1\n      pop\n        /* \"#utility.yul\":12445:12589   */\n      swap2\n      swap1\n      pop\n      jump\t// out\n        /* \"#utility.yul\":12617:13495   */\n    tag_216:\n        /* \"#utility.yul\":12722:12725   */\n      0x00\n        /* \"#utility.yul\":12759:12764   */\n      dup2\n        /* \"#utility.yul\":12753:12765   */\n      sload\n        /* \"#utility.yul\":12788:12824   */\n      tag_370\n        /* \"#utility.yul\":12814:12823   */\n      dup2\n        /* \"#utility.yul\":12788:12824   */\n      tag_101\n      jump\t// in\n    tag_370:\n        /* \"#utility.yul\":12840:12928   */\n      tag_371\n        /* \"#utility.yul\":12921:12927   */\n      dup2\n        /* \"#utility.yul\":12916:12919   */\n      dup7\n        /* \"#utility.yul\":12840:12928   */\n      tag_214\n      jump\t// in\n    tag_371:\n        /* \"#utility.yul\":12833:12928   */\n      swap5\n      pop\n        /* \"#utility.yul\":12959:12960   */\n      0x01\n        /* \"#utility.yul\":12948:12957   */\n      dup3\n        /* \"#utility.yul\":12944:12961   */\n      and\n        /* \"#utility.yul\":12975:12976   */\n      0x00\n        /* \"#utility.yul\":12970:13136   */\n      dup2\n      eq\n      tag_373\n      jumpi\n        /* \"#utility.yul\":13150:13151   */\n      0x01\n        /* \"#utility.yul\":13145:13489   */\n      dup2\n      eq\n      tag_374\n      jumpi\n        /* \"#utility.yul\":12937:13489   */\n      jump(tag_372)\n        /* \"#utility.yul\":12970:13136   */\n    tag_373:\n        /* \"#utility.yul\":13054:13058   */\n      0xff\n        /* \"#utility.yul\":13050:13059   */\n      not\n        /* \"#utility.yul\":13039:13048   */\n      dup4\n        /* \"#utility.yul\":13035:13060   */\n      and\n        /* \"#utility.yul\":13030:13033   */\n      dup7\n        /* \"#utility.yul\":13023:13061   */\n      mstore\n        /* \"#utility.yul\":13116:13122   */\n      dup2\n        /* \"#utility.yul\":13109:13123   */\n      iszero\n        /* \"#utility.yul\":13102:13124   */\n      iszero\n        /* \"#utility.yul\":13094:13100   */\n      dup3\n        /* \"#utility.yul\":13090:13125   */\n      mul\n        /* \"#utility.yul\":13085:13088   */\n      dup7\n        /* \"#utility.yul\":13081:13126   */\n      add\n        /* \"#utility.yul\":13074:13126   */\n      swap4\n      pop\n        /* \"#utility.yul\":12970:13136   */\n      jump(tag_372)\n        /* \"#utility.yul\":13145:13489   */\n    tag_374:\n        /* \"#utility.yul\":13212:13253   */\n      tag_375\n        /* \"#utility.yul\":13247:13252   */\n      dup6\n        /* \"#utility.yul\":13212:13253   */\n      tag_215\n      jump\t// in\n    tag_375:\n        /* \"#utility.yul\":13275:13276   */\n      0x00\n        /* \"#utility.yul\":13289:13443   */\n    tag_376:\n        /* \"#utility.yul\":13303:13309   */\n      dup4\n        /* \"#utility.yul\":13300:13301   */\n      dup2\n        /* \"#utility.yul\":13297:13310   */\n      lt\n        /* \"#utility.yul\":13289:13443   */\n      iszero\n      tag_378\n      jumpi\n        /* \"#utility.yul\":13377:13384   */\n      dup2\n        /* \"#utility.yul\":13371:13385   */\n      sload\n        /* \"#utility.yul\":13367:13368   */\n      dup2\n        /* \"#utility.yul\":13362:13365   */\n      dup10\n        /* \"#utility.yul\":13358:13369   */\n      add\n        /* \"#utility.yul\":13351:13386   */\n      mstore\n        /* \"#utility.yul\":13427:13428   */\n      0x01\n        /* \"#utility.yul\":13418:13425   */\n      dup3\n        /* \"#utility.yul\":13414:13429   */\n      add\n        /* \"#utility.yul\":13403:13429   */\n      swap2\n      pop\n        /* \"#utility.yul\":13325:13329   */\n      0x20\n        /* \"#utility.yul\":13322:13323   */\n      dup2\n        /* \"#utility.yul\":13318:13330   */\n      add\n        /* \"#utility.yul\":13313:13330   */\n      swap1\n      pop\n        /* \"#utility.yul\":13289:13443   */\n      jump(tag_376)\n    tag_378:\n        /* \"#utility.yul\":13472:13478   */\n      dup4\n        /* \"#utility.yul\":13467:13470   */\n      dup9\n        /* \"#utility.yul\":13463:13479   */\n      add\n        /* \"#utility.yul\":13456:13479   */\n      swap6\n      pop\n        /* \"#utility.yul\":13152:13489   */\n      pop\n      pop\n        /* \"#utility.yul\":12937:13489   */\n    tag_372:\n      pop\n        /* \"#utility.yul\":12726:13495   */\n      pop\n      pop\n        /* \"#utility.yul\":12617:13495   */\n      swap3\n      swap2\n      pop\n      pop\n      jump\t// out\n        /* \"#utility.yul\":13501:13774   */\n    tag_70:\n        /* \"#utility.yul\":13632:13635   */\n      0x00\n        /* \"#utility.yul\":13654:13748   */\n      tag_380\n        /* \"#utility.yul\":13744:13747   */\n      dup3\n        /* \"#utility.yul\":13735:13741   */\n      dup5\n        /* \"#utility.yul\":13654:13748   */\n      tag_216\n      jump\t// in\n    tag_380:\n        /* \"#utility.yul\":13647:13748   */\n      swap2\n      pop\n        /* \"#utility.yul\":13765:13768   */\n      dup2\n        /* \"#utility.yul\":13758:13768   */\n      swap1\n      pop\n        /* \"#utility.yul\":13501:13774   */\n      swap3\n      swap2\n      pop\n      pop\n      jump\t// out\n        /* \"#utility.yul\":13780:13960   */\n    tag_217:\n        /* \"#utility.yul\":13828:13905   */\n      0x4e487b7100000000000000000000000000000000000000000000000000000000\n        /* \"#utility.yul\":13825:13826   */\n      0x00\n        /* \"#utility.yul\":13818:13906   */\n      mstore\n        /* \"#utility.yul\":13925:13929   */\n      0x11\n        /* \"#utility.yul\":13922:13923   */\n      0x04\n        /* \"#utility.yul\":13915:13930   */\n      mstore\n        /* \"#utility.yul\":13949:13953   */\n      0x24\n        /* \"#utility.yul\":13946:13947   */\n      0x00\n        /* \"#utility.yul\":13939:13954   */\n      revert\n        /* \"#utility.yul\":13966:14157   */\n    tag_78:\n        /* \"#utility.yul\":14006:14009   */\n      0x00\n        /* \"#utility.yul\":14025:14045   */\n      tag_383\n        /* \"#utility.yul\":14043:14044   */\n      dup3\n        /* \"#utility.yul\":14025:14045   */\n      tag_186\n      jump\t// in\n    tag_383:\n        /* \"#utility.yul\":14020:14045   */\n      swap2\n      pop\n        /* \"#utility.yul\":14059:14079   */\n      tag_384\n        /* \"#utility.yul\":14077:14078   */\n      dup4\n        /* \"#utility.yul\":14059:14079   */\n      tag_186\n      jump\t// in\n    tag_384:\n        /* \"#utility.yul\":14054:14079   */\n      swap3\n      pop\n        /* \"#utility.yul\":14102:14103   */\n      dup3\n        /* \"#utility.yul\":14099:14100   */\n      dup3\n        /* \"#utility.yul\":14095:14104   */\n      add\n        /* \"#utility.yul\":14088:14104   */\n      swap1\n      pop\n        /* \"#utility.yul\":14123:14126   */\n      dup1\n        /* \"#utility.yul\":14120:14121   */\n      dup3\n        /* \"#utility.yul\":14117:14127   */\n      gt\n        /* \"#utility.yul\":14114:14150   */\n      iszero\n      tag_385\n      jumpi\n        /* \"#utility.yul\":14130:14148   */\n      tag_386\n      tag_217\n      jump\t// in\n    tag_386:\n        /* \"#utility.yul\":14114:14150   */\n    tag_385:\n        /* \"#utility.yul\":13966:14157   */\n      swap3\n      swap2\n      pop\n      pop\n      jump\t// out\n        /* \"#utility.yul\":14163:14304   */\n    tag_218:\n        /* \"#utility.yul\":14212:14216   */\n      0x00\n        /* \"#utility.yul\":14235:14238   */\n      dup2\n        /* \"#utility.yul\":14227:14238   */\n      swap1\n      pop\n        /* \"#utility.yul\":14258:14261   */\n      dup2\n        /* \"#utility.yul\":14255:14256   */\n      0x00\n        /* \"#utility.yul\":14248:14262   */\n      mstore\n        /* \"#utility.yul\":14292:14296   */\n      0x20\n        /* \"#utility.yul\":14289:14290   */\n      0x00\n        /* \"#utility.yul\":14279:14297   */\n      keccak256\n        /* \"#utility.yul\":14271:14297   */\n      swap1\n      pop\n        /* \"#utility.yul\":14163:14304   */\n      swap2\n      swap1\n      pop\n      jump\t// out\n        /* \"#utility.yul\":14310:14403   */\n    tag_219:\n        /* \"#utility.yul\":14347:14353   */\n      0x00\n        /* \"#utility.yul\":14394:14396   */\n      0x20\n        /* \"#utility.yul\":14389:14391   */\n      0x1f\n        /* \"#utility.yul\":14382:14387   */\n      dup4\n        /* \"#utility.yul\":14378:14392   */\n      add\n        /* \"#utility.yul\":14374:14397   */\n      div\n        /* \"#utility.yul\":14364:14397   */\n      swap1\n      pop\n        /* \"#utility.yul\":14310:14403   */\n      swap2\n      swap1\n      pop\n      jump\t// out\n        /* \"#utility.yul\":14409:14516   */\n    tag_220:\n        /* \"#utility.yul\":14453:14461   */\n      0x00\n        /* \"#utility.yul\":14503:14508   */\n      dup3\n        /* \"#utility.yul\":14497:14501   */\n      dup3\n        /* \"#utility.yul\":14493:14509   */\n      shl\n        /* \"#utility.yul\":14472:14509   */\n      swap1\n      pop\n        /* \"#utility.yul\":14409:14516   */\n      swap3\n      swap2\n      pop\n      pop\n      jump\t// out\n        /* \"#utility.yul\":14522:14915   */\n    tag_221:\n        /* \"#utility.yul\":14591:14597   */\n      0x00\n        /* \"#utility.yul\":14641:14642   */\n      0x08\n        /* \"#utility.yul\":14629:14639   */\n      dup4\n        /* \"#utility.yul\":14625:14643   */\n      mul\n        /* \"#utility.yul\":14664:14761   */\n      tag_391\n        /* \"#utility.yul\":14694:14760   */\n      0xffffffffffffffffffffffffffffffffffffffffffffffffffffffffffffffff\n        /* \"#utility.yul\":14683:14692   */\n      dup3\n        /* \"#utility.yul\":14664:14761   */\n      tag_220\n      jump\t// in\n    tag_391:\n        /* \"#utility.yul\":14782:14821   */\n      tag_392\n        /* \"#utility.yul\":14812:14820   */\n      dup7\n        /* \"#utility.yul\":14801:14810   */\n      dup4\n        /* \"#utility.yul\":14782:14821   */\n      tag_220\n      jump\t// in\n    tag_392:\n        /* \"#utility.yul\":14770:14821   */\n      swap6\n      pop\n        /* \"#utility.yul\":14854:14858   */\n      dup1\n        /* \"#utility.yul\":14850:14859   */\n      not\n        /* \"#utility.yul\":14843:14848   */\n      dup5\n        /* \"#utility.yul\":14839:14860   */\n      and\n        /* \"#utility.yul\":14830:14860   */\n      swap4\n      pop\n        /* \"#utility.yul\":14903:14907   */\n      dup1\n        /* \"#utility.yul\":14893:14901   */\n      dup7\n        /* \"#utility.yul\":14889:14908   */\n      and\n        /* \"#utility.yul\":14882:14887   */\n      dup5\n        /* \"#utility.yul\":14879:14909   */\n      or\n        /* \"#utility.yul\":14869:14909   */\n      swap3\n      pop\n        /* \"#utility.yul\":14598:14915   */\n      pop\n      pop\n        /* \"#utility.yul\":14522:14915   */\n      swap4\n      swap3\n      pop\n      pop\n      pop\n      jump\t// out\n        /* \"#utility.yul\":14921:14981   */\n    tag_222:\n        /* \"#utility.yul\":14949:14952   */\n      0x00\n        /* \"#utility.yul\":14970:14975   */\n      dup2\n        /* \"#utility.yul\":14963:14975   */\n      swap1\n      pop\n        /* \"#utility.yul\":14921:14981   */\n      swap2\n      swap1\n      pop\n      jump\t// out\n        /* \"#utility.yul\":14987:15129   */\n    tag_223:\n        /* \"#utility.yul\":15037:15046   */\n      0x00\n        /* \"#utility.yul\":15070:15123   */\n      tag_395\n        /* \"#utility.yul\":15088:15122   */\n      tag_396\n        /* \"#utility.yul\":15097:15121   */\n      tag_397\n        /* \"#utility.yul\":15115:15120   */\n      dup5\n        /* \"#utility.yul\":15097:15121   */\n      tag_186\n      jump\t// in\n    tag_397:\n        /* \"#utility.yul\":15088:15122   */\n      tag_222\n      jump\t// in\n    tag_396:\n        /* \"#utility.yul\":15070:15123   */\n      tag_186\n      jump\t// in\n    tag_395:\n        /* \"#utility.yul\":15057:15123   */\n      swap1\n      pop\n        /* \"#utility.yul\":14987:15129   */\n      swap2\n      swap1\n      pop\n      jump\t// out\n        /* \"#utility.yul\":15135:15210   */\n    tag_224:\n        /* \"#utility.yul\":15178:15181   */\n      0x00\n        /* \"#utility.yul\":15199:15204   */\n      dup2\n        /* \"#utility.yul\":15192:15204   */\n      swap1\n      pop\n        /* \"#utility.yul\":15135:15210   */\n      swap2\n      swap1\n      pop\n      jump\t// out\n        /* \"#utility.yul\":15216:15485   */\n    tag_225:\n        /* \"#utility.yul\":15326:15365   */\n      tag_400\n        /* \"#utility.yul\":15357:15364   */\n      dup4\n        /* \"#utility.yul\":15326:15365   */\n      tag_223\n      jump\t// in\n    tag_400:\n        /* \"#utility.yul\":15387:15478   */\n      tag_401\n        /* \"#utility.yul\":15436:15477   */\n      tag_402\n        /* \"#utility.yul\":15460:15476   */\n      dup3\n        /* \"#utility.yul\":15436:15477   */\n      tag_224\n      jump\t// in\n    tag_402:\n        /* \"#utility.yul\":15428:15434   */\n      dup5\n        /* \"#utility.yul\":15421:15425   */\n      dup5\n        /* \"#utility.yul\":15415:15426   */\n      sload\n        /* \"#utility.yul\":15387:15478   */\n      tag_221\n      jump\t// in\n    tag_401:\n        /* \"#utility.yul\":15381:15385   */\n      dup3\n        /* \"#utility.yul\":15374:15479   */\n      sstore\n        /* \"#utility.yul\":15292:15485   */\n      pop\n        /* \"#utility.yul\":15216:15485   */\n      pop\n      pop\n      pop\n      jump\t// out\n        /* \"#utility.yul\":15491:15564   */\n    tag_226:\n        /* \"#utility.yul\":15536:15539   */\n      0x00\n        /* \"#utility.yul\":15491:15564   */\n      swap1\n      jump\t// out\n        /* \"#utility.yul\":15570:15759   */\n    tag_227:\n        /* \"#utility.yul\":15647:15679   */\n      tag_405\n      tag_226\n      jump\t// in\n    tag_405:\n        /* \"#utility.yul\":15688:15753   */\n      tag_406\n        /* \"#utility.yul\":15746:15752   */\n      dup2\n        /* \"#utility.yul\":15738:15744   */\n      dup5\n        /* \"#utility.yul\":15732:15736   */\n      dup5\n        /* \"#utility.yul\":15688:15753   */\n      tag_225\n      jump\t// in\n    tag_406:\n        /* \"#utility.yul\":15623:15759   */\n      pop\n        /* \"#utility.yul\":15570:15759   */\n      pop\n      pop\n      jump\t// out\n        /* \"#utility.yul\":15765:15951   */\n    tag_228:\n        /* \"#utility.yul\":15825:15945   */\n    tag_408:\n        /* \"#utility.yul\":15842:15845   */\n      dup2\n        /* \"#utility.yul\":15835:15840   */\n      dup2\n        /* \"#utility.yul\":15832:15846   */\n      lt\n        /* \"#utility.yul\":15825:15945   */\n      iszero\n      tag_410\n      jumpi\n        /* \"#utility.yul\":15896:15935   */\n      tag_411\n        /* \"#utility.yul\":15933:15934   */\n      0x00\n        /* \"#utility.yul\":15926:15931   */\n      dup3\n        /* \"#utility.yul\":15896:15935   */\n      tag_227\n      jump\t// in\n    tag_411:\n        /* \"#utility.yul\":15869:15870   */\n      0x01\n        /* \"#utility.yul\":15862:15867   */\n      dup2\n        /* \"#utility.yul\":15858:15871   */\n      add\n        /* \"#utility.yul\":15849:15871   */\n      swap1\n      pop\n        /* \"#utility.yul\":15825:15945   */\n      jump(tag_408)\n    tag_410:\n        /* \"#utility.yul\":15765:15951   */\n      pop\n      pop\n      jump\t// out\n        /* \"#utility.yul\":15957:16500   */\n    tag_229:\n        /* \"#utility.yul\":16058:16060   */\n      0x1f\n        /* \"#utility.yul\":16053:16056   */\n      dup3\n        /* \"#utility.yul\":16050:16061   */\n      gt\n        /* \"#utility.yul\":16047:16493   */\n      iszero\n      tag_413\n      jumpi\n        /* \"#utility.yul\":16092:16130   */\n      tag_414\n        /* \"#utility.yul\":16124:16129   */\n      dup2\n        /* \"#utility.yul\":16092:16130   */\n      tag_218\n      jump\t// in\n    tag_414:\n        /* \"#utility.yul\":16176:16205   */\n      tag_415\n        /* \"#utility.yul\":16194:16204   */\n      dup5\n        /* \"#utility.yul\":16176:16205   */\n      tag_219\n      jump\t// in\n    tag_415:\n        /* \"#utility.yul\":16166:16174   */\n      dup2\n        /* \"#utility.yul\":16162:16206   */\n      add\n        /* \"#utility.yul\":16359:16361   */\n      0x20\n        /* \"#utility.yul\":16347:16357   */\n      dup6\n        /* \"#utility.yul\":16344:16362   */\n      lt\n        /* \"#utility.yul\":16341:16390   */\n      iszero\n      tag_416\n      jumpi\n        /* \"#utility.yul\":16380:16388   */\n      dup2\n        /* \"#utility.yul\":16365:16388   */\n      swap1\n      pop\n        /* \"#utility.yul\":16341:16390   */\n    tag_416:\n        /* \"#utility.yul\":16403:16483   */\n      tag_417\n        /* \"#utility.yul\":16459:16481   */\n      tag_418\n        /* \"#utility.yul\":16477:16480   */\n      dup6\n        /* \"#utility.yul\":16459:16481   */\n      tag_219\n      jump\t// in\n    tag_418:\n        /* \"#utility.yul\":16449:16457   */\n      dup4\n        /* \"#utility.yul\":16445:16482   */\n      add\n        /* \"#utility.yul\":16432:16443   */\n      dup3\n        /* \"#utility.yul\":16403:16483   */\n      tag_228\n      jump\t// in\n    tag_417:\n        /* \"#utility.yul\":16062:16493   */\n      pop\n      pop\n        /* \"#utility.yul\":16047:16493   */\n    tag_413:\n        /* \"#utility.yul\":15957:16500   */\n      pop\n      pop\n      pop\n      jump\t// out\n        /* \"#utility.yul\":16506:16623   */\n    tag_230:\n        /* \"#utility.yul\":16560:16568   */\n      0x00\n        /* \"#utility.yul\":16610:16615   */\n      dup3\n        /* \"#utility.yul\":16604:16608   */\n      dup3\n        /* \"#utility.yul\":16600:16616   */\n      shr\n        /* \"#utility.yul\":16579:16616   */\n      swap1\n      pop\n        /* \"#utility.yul\":16506:16623   */\n      swap3\n      swap2\n      pop\n      pop\n      jump\t// out\n        /* \"#utility.yul\":16629:16798   */\n    tag_231:\n        /* \"#utility.yul\":16673:16679   */\n      0x00\n        /* \"#utility.yul\":16706:16757   */\n      tag_421\n        /* \"#utility.yul\":16754:16755   */\n      0x00\n        /* \"#utility.yul\":16750:16756   */\n      not\n        /* \"#utility.yul\":16742:16747   */\n      dup5\n        /* \"#utility.yul\":16739:16740   */\n      0x08\n        /* \"#utility.yul\":16735:16748   */\n      mul\n        /* \"#utility.yul\":16706:16757   */\n      tag_230\n      jump\t// in\n    tag_421:\n        /* \"#utility.yul\":16702:16758   */\n      not\n        /* \"#utility.yul\":16787:16791   */\n      dup1\n        /* \"#utility.yul\":16781:16785   */\n      dup4\n        /* \"#utility.yul\":16777:16792   */\n      and\n        /* \"#utility.yul\":16767:16792   */\n      swap2\n      pop\n        /* \"#utility.yul\":16680:16798   */\n      pop\n        /* \"#utility.yul\":16629:16798   */\n      swap3\n      swap2\n      pop\n      pop\n      jump\t// out\n        /* \"#utility.yul\":16803:17098   */\n    tag_232:\n        /* \"#utility.yul\":16879:16883   */\n      0x00\n        /* \"#utility.yul\":17025:17054   */\n      tag_423\n        /* \"#utility.yul\":17050:17053   */\n      dup4\n        /* \"#utility.yul\":17044:17048   */\n      dup4\n        /* \"#utility.yul\":17025:17054   */\n      tag_231\n      jump\t// in\n    tag_423:\n        /* \"#utility.yul\":17017:17054   */\n      swap2\n      pop\n        /* \"#utility.yul\":17087:17090   */\n      dup3\n        /* \"#utility.yul\":17084:17085   */\n      0x02\n        /* \"#utility.yul\":17080:17091   */\n      mul\n        /* \"#utility.yul\":17074:17078   */\n      dup3\n        /* \"#utility.yul\":17071:17092   */\n      or\n        /* \"#utility.yul\":17063:17092   */\n      swap1\n      pop\n        /* \"#utility.yul\":16803:17098   */\n      swap3\n      swap2\n      pop\n      pop\n      jump\t// out\n        /* \"#utility.yul\":17103:18498   */\n    tag_84:\n        /* \"#utility.yul\":17220:17257   */\n      tag_425\n        /* \"#utility.yul\":17253:17256   */\n      dup3\n        /* \"#utility.yul\":17220:17257   */\n      tag_203\n      jump\t// in\n    tag_425:\n        /* \"#utility.yul\":17322:17340   */\n      0xffffffffffffffff\n        /* \"#utility.yul\":17314:17320   */\n      dup2\n        /* \"#utility.yul\":17311:17341   */\n      gt\n        /* \"#utility.yul\":17308:17364   */\n      iszero\n      tag_426\n      jumpi\n        /* \"#utility.yul\":17344:17362   */\n      tag_427\n      tag_196\n      jump\t// in\n    tag_427:\n        /* \"#utility.yul\":17308:17364   */\n    tag_426:\n        /* \"#utility.yul\":17388:17426   */\n      tag_428\n        /* \"#utility.yul\":17420:17424   */\n      dup3\n        /* \"#utility.yul\":17414:17425   */\n      sload\n        /* \"#utility.yul\":17388:17426   */\n      tag_101\n      jump\t// in\n    tag_428:\n        /* \"#utility.yul\":17473:17540   */\n      tag_429\n        /* \"#utility.yul\":17533:17539   */\n      dup3\n        /* \"#utility.yul\":17525:17531   */\n      dup3\n        /* \"#utility.yul\":17519:17523   */\n      dup6\n        /* \"#utility.yul\":17473:17540   */\n      tag_229\n      jump\t// in\n    tag_429:\n        /* \"#utility.yul\":17567:17568   */\n      0x00\n        /* \"#utility.yul\":17591:17595   */\n      0x20\n        /* \"#utility.yul\":17578:17595   */\n      swap1\n      pop\n        /* \"#utility.yul\":17623:17625   */\n      0x1f\n        /* \"#utility.yul\":17615:17621   */\n      dup4\n        /* \"#utility.yul\":17612:17626   */\n      gt\n        /* \"#utility.yul\":17640:17641   */\n      0x01\n        /* \"#utility.yul\":17635:18253   */\n      dup2\n      eq\n      tag_431\n      jumpi\n        /* \"#utility.yul\":18297:18298   */\n      0x00\n        /* \"#utility.yul\":18314:18320   */\n      dup5\n        /* \"#utility.yul\":18311:18388   */\n      iszero\n      tag_432\n      jumpi\n        /* \"#utility.yul\":18363:18372   */\n      dup3\n        /* \"#utility.yul\":18358:18361   */\n      dup8\n        /* \"#utility.yul\":18354:18373   */\n      add\n        /* \"#utility.yul\":18348:18374   */\n      mload\n        /* \"#utility.yul\":18339:18374   */\n      swap1\n      pop\n        /* \"#utility.yul\":18311:18388   */\n    tag_432:\n        /* \"#utility.yul\":18414:18481   */\n      tag_433\n        /* \"#utility.yul\":18474:18480   */\n      dup6\n        /* \"#utility.yul\":18467:18472   */\n      dup3\n        /* \"#utility.yul\":18414:18481   */\n      tag_232\n      jump\t// in\n    tag_433:\n        /* \"#utility.yul\":18408:18412   */\n      dup7\n        /* \"#utility.yul\":18401:18482   */\n      sstore\n        /* \"#utility.yul\":18270:18492   */\n      pop\n        /* \"#utility.yul\":17605:18492   */\n      jump(tag_430)\n        /* \"#utility.yul\":17635:18253   */\n    tag_431:\n        /* \"#utility.yul\":17687:17691   */\n      0x1f\n        /* \"#utility.yul\":17683:17692   */\n      not\n        /* \"#utility.yul\":17675:17681   */\n      dup5\n        /* \"#utility.yul\":17671:17693   */\n      and\n        /* \"#utility.yul\":17721:17758   */\n      tag_434\n        /* \"#utility.yul\":17753:17757   */\n      dup7\n        /* \"#utility.yul\":17721:17758   */\n      tag_218\n      jump\t// in\n    tag_434:\n        /* \"#utility.yul\":17780:17781   */\n      0x00\n        /* \"#utility.yul\":17794:18002   */\n    tag_435:\n        /* \"#utility.yul\":17808:17815   */\n      dup3\n        /* \"#utility.yul\":17805:17806   */\n      dup2\n        /* \"#utility.yul\":17802:17816   */\n      lt\n        /* \"#utility.yul\":17794:18002   */\n      iszero\n      tag_437\n      jumpi\n        /* \"#utility.yul\":17887:17896   */\n      dup5\n        /* \"#utility.yul\":17882:17885   */\n      dup10\n        /* \"#utility.yul\":17878:17897   */\n      add\n        /* \"#utility.yul\":17872:17898   */\n      mload\n        /* \"#utility.yul\":17864:17870   */\n      dup3\n        /* \"#utility.yul\":17857:17899   */\n      sstore\n        /* \"#utility.yul\":17938:17939   */\n      0x01\n        /* \"#utility.yul\":17930:17936   */\n      dup3\n        /* \"#utility.yul\":17926:17940   */\n      add\n        /* \"#utility.yul\":17916:17940   */\n      swap2\n      pop\n        /* \"#utility.yul\":17985:17987   */\n      0x20\n        /* \"#utility.yul\":17974:17983   */\n      dup6\n        /* \"#utility.yul\":17970:17988   */\n      add\n        /* \"#utility.yul\":17957:17988   */\n      swap5\n      pop\n        /* \"#utility.yul\":17831:17835   */\n      0x20\n        /* \"#utility.yul\":17828:17829   */\n      dup2\n        /* \"#utility.yul\":17824:17836   */\n      add\n        /* \"#utility.yul\":17819:17836   */\n      swap1\n      pop\n        /* \"#utility.yul\":17794:18002   */\n      jump(tag_435)\n    tag_437:\n        /* \"#utility.yul\":18030:18036   */\n      dup7\n        /* \"#utility.yul\":18021:18028   */\n      dup4\n        /* \"#utility.yul\":18018:18037   */\n      lt\n        /* \"#utility.yul\":18015:18194   */\n      iszero\n      tag_438\n      jumpi\n        /* \"#utility.yul\":18088:18097   */\n      dup5\n        /* \"#utility.yul\":18083:18086   */\n      dup10\n        /* \"#utility.yul\":18079:18098   */\n      add\n        /* \"#utility.yul\":18073:18099   */\n      mload\n        /* \"#utility.yul\":18131:18179   */\n      tag_439\n        /* \"#utility.yul\":18173:18177   */\n      0x1f\n        /* \"#utility.yul\":18165:18171   */\n      dup10\n        /* \"#utility.yul\":18161:18178   */\n      and\n        /* \"#utility.yul\":18150:18159   */\n      dup3\n        /* \"#utility.yul\":18131:18179   */\n      tag_231\n      jump\t// in\n    tag_439:\n        /* \"#utility.yul\":18123:18129   */\n      dup4\n        /* \"#utility.yul\":18116:18180   */\n      sstore\n        /* \"#utility.yul\":18038:18194   */\n      pop\n        /* \"#utility.yul\":18015:18194   */\n    tag_438:\n        /* \"#utility.yul\":18240:18241   */\n      0x01\n        /* \"#utility.yul\":18236:18237   */\n      0x02\n        /* \"#utility.yul\":18228:18234   */\n      dup9\n        /* \"#utility.yul\":18224:18238   */\n      mul\n        /* \"#utility.yul\":18220:18242   */\n      add\n        /* \"#utility.yul\":18214:18218   */\n      dup9\n        /* \"#utility.yul\":18207:18243   */\n      sstore\n        /* \"#utility.yul\":17642:18253   */\n      pop\n      pop\n      pop\n        /* \"#utility.yul\":17605:18492   */\n    tag_430:\n      pop\n        /* \"#utility.yul\":17195:18498   */\n      pop\n      pop\n      pop\n        /* \"#utility.yul\":17103:18498   */\n      pop\n      pop\n      jump\t// out\n        /* \"#utility.yul\":18504:18737   */\n    tag_94:\n        /* \"#utility.yul\":18543:18546   */\n      0x00\n        /* \"#utility.yul\":18566:18590   */\n      tag_441\n        /* \"#utility.yul\":18584:18589   */\n      dup3\n        /* \"#utility.yul\":18566:18590   */\n      tag_186\n      jump\t// in\n    tag_441:\n        /* \"#utility.yul\":18557:18590   */\n      swap2\n      pop\n        /* \"#utility.yul\":18612:18678   */\n      0xffffffffffffffffffffffffffffffffffffffffffffffffffffffffffffffff\n        /* \"#utility.yul\":18605:18610   */\n      dup3\n        /* \"#utility.yul\":18602:18679   */\n      sub\n        /* \"#utility.yul\":18599:18702   */\n      tag_442\n      jumpi\n        /* \"#utility.yul\":18682:18700   */\n      tag_443\n      tag_217\n      jump\t// in\n    tag_443:\n        /* \"#utility.yul\":18599:18702   */\n    tag_442:\n        /* \"#utility.yul\":18729:18730   */\n      0x01\n        /* \"#utility.yul\":18722:18727   */\n      dup3\n        /* \"#utility.yul\":18718:18731   */\n      add\n        /* \"#utility.yul\":18711:18731   */\n      swap1\n      pop\n        /* \"#utility.yul\":18504:18737   */\n      swap2\n      swap1\n      pop\n      jump\t// out\n        /* \"#utility.yul\":18743:18892   */\n    tag_233:\n        /* \"#utility.yul\":18792:18798   */\n      0x00\n        /* \"#utility.yul\":18826:18831   */\n      dup2\n        /* \"#utility.yul\":18820:18832   */\n      sload\n        /* \"#utility.yul\":18810:18832   */\n      swap1\n      pop\n        /* \"#utility.yul\":18852:18885   */\n      tag_445\n        /* \"#utility.yul\":18878:18884   */\n      dup2\n        /* \"#utility.yul\":18852:18885   */\n      tag_101\n      jump\t// in\n    tag_445:\n        /* \"#utility.yul\":18842:18885   */\n      swap1\n      pop\n        /* \"#utility.yul\":18743:18892   */\n      swap2\n      swap1\n      pop\n      jump\t// out\n        /* \"#utility.yul\":18898:20349   */\n    tag_97:\n        /* \"#utility.yul\":19009:19012   */\n      dup2\n        /* \"#utility.yul\":19003:19007   */\n      dup2\n        /* \"#utility.yul\":19000:19013   */\n      sub\n        /* \"#utility.yul\":18997:19023   */\n      tag_447\n      jumpi\n        /* \"#utility.yul\":19016:19021   */\n      pop\n      pop\n      jump(tag_446)\n        /* \"#utility.yul\":18997:19023   */\n    tag_447:\n        /* \"#utility.yul\":19047:19081   */\n      tag_448\n        /* \"#utility.yul\":19077:19080   */\n      dup3\n        /* \"#utility.yul\":19047:19081   */\n      tag_233\n      jump\t// in\n    tag_448:\n        /* \"#utility.yul\":19146:19164   */\n      0xffffffffffffffff\n        /* \"#utility.yul\":19138:19144   */\n      dup2\n        /* \"#utility.yul\":19135:19165   */\n      gt\n        /* \"#utility.yul\":19132:19188   */\n      iszero\n      tag_449\n      jumpi\n        /* \"#utility.yul\":19168:19186   */\n      tag_450\n      tag_196\n      jump\t// in\n    tag_450:\n        /* \"#utility.yul\":19132:19188   */\n    tag_449:\n        /* \"#utility.yul\":19212:19250   */\n      tag_451\n        /* \"#utility.yul\":19244:19248   */\n      dup3\n        /* \"#utility.yul\":19238:19249   */\n      sload\n        /* \"#utility.yul\":19212:19250   */\n      tag_101\n      jump\t// in\n    tag_451:\n        /* \"#utility.yul\":19297:19364   */\n      tag_452\n        /* \"#utility.yul\":19357:19363   */\n      dup3\n        /* \"#utility.yul\":19349:19355   */\n      dup3\n        /* \"#utility.yul\":19343:19347   */\n      dup6\n        /* \"#utility.yul\":19297:19364   */\n      tag_229\n      jump\t// in\n    tag_452:\n        /* \"#utility.yul\":19391:19392   */\n      0x00\n        /* \"#utility.yul\":19420:19422   */\n      0x1f\n        /* \"#utility.yul\":19412:19418   */\n      dup4\n        /* \"#utility.yul\":19409:19423   */\n      gt\n        /* \"#utility.yul\":19437:19438   */\n      0x01\n        /* \"#utility.yul\":19432:20104   */\n      dup2\n      eq\n      tag_454\n      jumpi\n        /* \"#utility.yul\":20148:20149   */\n      0x00\n        /* \"#utility.yul\":20165:20171   */\n      dup5\n        /* \"#utility.yul\":20162:20239   */\n      iszero\n      tag_455\n      jumpi\n        /* \"#utility.yul\":20214:20223   */\n      dup3\n        /* \"#utility.yul\":20209:20212   */\n      dup8\n        /* \"#utility.yul\":20205:20224   */\n      add\n        /* \"#utility.yul\":20199:20225   */\n      sload\n        /* \"#utility.yul\":20190:20225   */\n      swap1\n      pop\n        /* \"#utility.yul\":20162:20239   */\n    tag_455:\n        /* \"#utility.yul\":20265:20332   */\n      tag_456\n        /* \"#utility.yul\":20325:20331   */\n      dup6\n        /* \"#utility.yul\":20318:20323   */\n      dup3\n        /* \"#utility.yul\":20265:20332   */\n      tag_232\n      jump\t// in\n    tag_456:\n        /* \"#utility.yul\":20259:20263   */\n      dup7\n        /* \"#utility.yul\":20252:20333   */\n      sstore\n        /* \"#utility.yul\":20121:20343   */\n      pop\n        /* \"#utility.yul\":19402:20343   */\n      jump(tag_453)\n        /* \"#utility.yul\":19432:20104   */\n    tag_454:\n        /* \"#utility.yul\":19484:19488   */\n      0x1f\n        /* \"#utility.yul\":19480:19489   */\n      not\n        /* \"#utility.yul\":19472:19478   */\n      dup5\n        /* \"#utility.yul\":19468:19490   */\n      and\n        /* \"#utility.yul\":19510:19546   */\n      tag_457\n        /* \"#utility.yul\":19542:19545   */\n      dup8\n        /* \"#utility.yul\":19510:19546   */\n      tag_218\n      jump\t// in\n    tag_457:\n        /* \"#utility.yul\":19503:19546   */\n      swap7\n      pop\n        /* \"#utility.yul\":19573:19610   */\n      tag_458\n        /* \"#utility.yul\":19605:19609   */\n      dup7\n        /* \"#utility.yul\":19573:19610   */\n      tag_218\n      jump\t// in\n    tag_458:\n        /* \"#utility.yul\":19632:19633   */\n      0x00\n        /* \"#utility.yul\":19646:19853   */\n    tag_459:\n        /* \"#utility.yul\":19660:19667   */\n      dup3\n        /* \"#utility.yul\":19657:19658   */\n      dup2\n        /* \"#utility.yul\":19654:19668   */\n      lt\n        /* \"#utility.yul\":19646:19853   */\n      iszero\n      tag_461\n      jumpi\n        /* \"#utility.yul\":19739:19748   */\n      dup5\n        /* \"#utility.yul\":19734:19737   */\n      dup10\n        /* \"#utility.yul\":19730:19749   */\n      add\n        /* \"#utility.yul\":19724:19750   */\n      sload\n        /* \"#utility.yul\":19716:19722   */\n      dup3\n        /* \"#utility.yul\":19709:19751   */\n      sstore\n        /* \"#utility.yul\":19790:19791   */\n      0x01\n        /* \"#utility.yul\":19782:19788   */\n      dup3\n        /* \"#utility.yul\":19778:19792   */\n      add\n        /* \"#utility.yul\":19768:19792   */\n      swap2\n      pop\n        /* \"#utility.yul\":19837:19838   */\n      0x01\n        /* \"#utility.yul\":19826:19835   */\n      dup6\n        /* \"#utility.yul\":19822:19839   */\n      add\n        /* \"#utility.yul\":19809:19839   */\n      swap5\n      pop\n        /* \"#utility.yul\":19683:19687   */\n      0x20\n        /* \"#utility.yul\":19680:19681   */\n      dup2\n        /* \"#utility.yul\":19676:19688   */\n      add\n        /* \"#utility.yul\":19671:19688   */\n      swap1\n      pop\n        /* \"#utility.yul\":19646:19853   */\n      jump(tag_459)\n    tag_461:\n        /* \"#utility.yul\":19881:19887   */\n      dup7\n        /* \"#utility.yul\":19872:19879   */\n      dup4\n        /* \"#utility.yul\":19869:19888   */\n      lt\n        /* \"#utility.yul\":19866:20045   */\n      iszero\n      tag_462\n      jumpi\n        /* \"#utility.yul\":19939:19948   */\n      dup5\n        /* \"#utility.yul\":19934:19937   */\n      dup10\n        /* \"#utility.yul\":19930:19949   */\n      add\n        /* \"#utility.yul\":19924:19950   */\n      sload\n        /* \"#utility.yul\":19982:20030   */\n      tag_463\n        /* \"#utility.yul\":20024:20028   */\n      0x1f\n        /* \"#utility.yul\":20016:20022   */\n      dup10\n        /* \"#utility.yul\":20012:20029   */\n      and\n        /* \"#utility.yul\":20001:20010   */\n      dup3\n        /* \"#utility.yul\":19982:20030   */\n      tag_231\n      jump\t// in\n    tag_463:\n        /* \"#utility.yul\":19974:19980   */\n      dup4\n        /* \"#utility.yul\":19967:20031   */\n      sstore\n        /* \"#utility.yul\":19889:20045   */\n      pop\n        /* \"#utility.yul\":19866:20045   */\n    tag_462:\n        /* \"#utility.yul\":20091:20092   */\n      0x01\n        /* \"#utility.yul\":20087:20088   */\n      0x02\n        /* \"#utility.yul\":20079:20085   */\n      dup9\n        /* \"#utility.yul\":20075:20089   */\n      mul\n        /* \"#utility.yul\":20071:20093   */\n      add\n        /* \"#utility.yul\":20065:20069   */\n      dup9\n        /* \"#utility.yul\":20058:20094   */\n      sstore\n        /* \"#utility.yul\":19439:20104   */\n      pop\n      pop\n      pop\n        /* \"#utility.yul\":19402:20343   */\n    tag_453:\n      pop\n        /* \"#utility.yul\":18987:20349   */\n      pop\n      pop\n      pop\n        /* \"#utility.yul\":18898:20349   */\n      pop\n      pop\n    tag_446:\n      jump\t// out\n        /* \"#utility.yul\":20355:20535   */\n    tag_134:\n        /* \"#utility.yul\":20403:20480   */\n      0x4e487b7100000000000000000000000000000000000000000000000000000000\n        /* \"#utility.yul\":20400:20401   */\n      0x00\n        /* \"#utility.yul\":20393:20481   */\n      mstore\n        /* \"#utility.yul\":20500:20504   */\n      0x32\n        /* \"#utility.yul\":20497:20498   */\n      0x04\n        /* \"#utility.yul\":20490:20505   */\n      mstore\n        /* \"#utility.yul\":20524:20528   */\n      0x24\n        /* \"#utility.yul\":20521:20522   */\n      0x00\n        /* \"#utility.yul\":20514:20529   */\n      revert\n        /* \"#utility.yul\":20541:20762   */\n    tag_234:\n        /* \"#utility.yul\":20681:20715   */\n      0x4f6e6c792061646d696e2063616e206769766520726967687420746f20766f74\n        /* \"#utility.yul\":20677:20678   */\n      0x00\n        /* \"#utility.yul\":20669:20675   */\n      dup3\n        /* \"#utility.yul\":20665:20679   */\n      add\n        /* \"#utility.yul\":20658:20716   */\n      mstore\n        /* \"#utility.yul\":20750:20754   */\n      0x652e000000000000000000000000000000000000000000000000000000000000\n        /* \"#utility.yul\":20745:20747   */\n      0x20\n        /* \"#utility.yul\":20737:20743   */\n      dup3\n        /* \"#utility.yul\":20733:20748   */\n      add\n        /* \"#utility.yul\":20726:20755   */\n      mstore\n        /* \"#utility.yul\":20541:20762   */\n      pop\n      jump\t// out\n        /* \"#utility.yul\":20768:21134   */\n    tag_235:\n        /* \"#utility.yul\":20910:20913   */\n      0x00\n        /* \"#utility.yul\":20931:20998   */\n      tag_467\n        /* \"#utility.yul\":20995:20997   */\n      0x22\n        /* \"#utility.yul\":20990:20993   */\n      dup4\n        /* \"#utility.yul\":20931:20998   */\n      tag_204\n      jump\t// in\n    tag_467:\n        /* \"#utility.yul\":20924:20998   */\n      swap2\n      pop\n        /* \"#utility.yul\":21007:21100   */\n      tag_468\n        /* \"#utility.yul\":21096:21099   */\n      dup3\n        /* \"#utility.yul\":21007:21100   */\n      tag_234\n      jump\t// in\n    tag_468:\n        /* \"#utility.yul\":21125:21127   */\n      0x40\n        /* \"#utility.yul\":21120:21123   */\n      dup3\n        /* \"#utility.yul\":21116:21128   */\n      add\n        /* \"#utility.yul\":21109:21128   */\n      swap1\n      pop\n        /* \"#utility.yul\":20768:21134   */\n      swap2\n      swap1\n      pop\n      jump\t// out\n        /* \"#utility.yul\":21140:21559   */\n    tag_152:\n        /* \"#utility.yul\":21306:21310   */\n      0x00\n        /* \"#utility.yul\":21344:21346   */\n      0x20\n        /* \"#utility.yul\":21333:21342   */\n      dup3\n        /* \"#utility.yul\":21329:21347   */\n      add\n        /* \"#utility.yul\":21321:21347   */\n      swap1\n      pop\n        /* \"#utility.yul\":21393:21402   */\n      dup2\n        /* \"#utility.yul\":21387:21391   */\n      dup2\n        /* \"#utility.yul\":21383:21403   */\n      sub\n        /* \"#utility.yul\":21379:21380   */\n      0x00\n        /* \"#utility.yul\":21368:21377   */\n      dup4\n        /* \"#utility.yul\":21364:21381   */\n      add\n        /* \"#utility.yul\":21357:21404   */\n      mstore\n        /* \"#utility.yul\":21421:21552   */\n      tag_470\n        /* \"#utility.yul\":21547:21551   */\n      dup2\n        /* \"#utility.yul\":21421:21552   */\n      tag_235\n      jump\t// in\n    tag_470:\n        /* \"#utility.yul\":21413:21552   */\n      swap1\n      pop\n        /* \"#utility.yul\":21140:21559   */\n      swap2\n      swap1\n      pop\n      jump\t// out\n        /* \"#utility.yul\":21565:21739   */\n    tag_236:\n        /* \"#utility.yul\":21705:21731   */\n      0x54686520766f74657220616c726561647920766f7465642e0000000000000000\n        /* \"#utility.yul\":21701:21702   */\n      0x00\n        /* \"#utility.yul\":21693:21699   */\n      dup3\n        /* \"#utility.yul\":21689:21703   */\n      add\n        /* \"#utility.yul\":21682:21732   */\n      mstore\n        /* \"#utility.yul\":21565:21739   */\n      pop\n      jump\t// out\n        /* \"#utility.yul\":21745:22111   */\n    tag_237:\n        /* \"#utility.yul\":21887:21890   */\n      0x00\n        /* \"#utility.yul\":21908:21975   */\n      tag_473\n        /* \"#utility.yul\":21972:21974   */\n      0x18\n        /* \"#utility.yul\":21967:21970   */\n      dup4\n        /* \"#utility.yul\":21908:21975   */\n      tag_204\n      jump\t// in\n    tag_473:\n        /* \"#utility.yul\":21901:21975   */\n      swap2\n      pop\n        /* \"#utility.yul\":21984:22077   */\n      tag_474\n        /* \"#utility.yul\":22073:22076   */\n      dup3\n        /* \"#utility.yul\":21984:22077   */\n      tag_236\n      jump\t// in\n    tag_474:\n        /* \"#utility.yul\":22102:22104   */\n      0x20\n        /* \"#utility.yul\":22097:22100   */\n      dup3\n        /* \"#utility.yul\":22093:22105   */\n      add\n        /* \"#utility.yul\":22086:22105   */\n      swap1\n      pop\n        /* \"#utility.yul\":21745:22111   */\n      swap2\n      swap1\n      pop\n      jump\t// out\n        /* \"#utility.yul\":22117:22536   */\n    tag_155:\n        /* \"#utility.yul\":22283:22287   */\n      0x00\n        /* \"#utility.yul\":22321:22323   */\n      0x20\n        /* \"#utility.yul\":22310:22319   */\n      dup3\n        /* \"#utility.yul\":22306:22324   */\n      add\n        /* \"#utility.yul\":22298:22324   */\n      swap1\n      pop\n        /* \"#utility.yul\":22370:22379   */\n      dup2\n        /* \"#utility.yul\":22364:22368   */\n      dup2\n        /* \"#utility.yul\":22360:22380   */\n      sub\n        /* \"#utility.yul\":22356:22357   */\n      0x00\n        /* \"#utility.yul\":22345:22354   */\n      dup4\n        /* \"#utility.yul\":22341:22358   */\n      add\n        /* \"#utility.yul\":22334:22381   */\n      mstore\n        /* \"#utility.yul\":22398:22529   */\n      tag_476\n        /* \"#utility.yul\":22524:22528   */\n      dup2\n        /* \"#utility.yul\":22398:22529   */\n      tag_237\n      jump\t// in\n    tag_476:\n        /* \"#utility.yul\":22390:22529   */\n      swap1\n      pop\n        /* \"#utility.yul\":22117:22536   */\n      swap2\n      swap1\n      pop\n      jump\t// out\n\n    auxdata: 0xa264697066735822122076c140ba0d96467de79891fd00574202c7deef1fc40b331db7fe264eae7441d464736f6c63430008120033\n}\n",
				"bytecode": {
					"linkReferences": {},
					"object": "608060405234801561001057600080fd5b5033600860006101000a81548173ffffffffffffffffffffffffffffffffffffffff021916908373ffffffffffffffffffffffffffffffffffffffff160217905550611f9e806100616000396000f3fe608060405234801561001057600080fd5b50600436106100b45760003560e01c80638e7ea5b2116100715780638e7ea5b21461018e578063b1a713e7146101ae578063bc23bd51146101e0578063da58c7d9146101fc578063e6a5e61d14610231578063e82a2d181461024d576100b4565b806302d947ef146100b957806307e4b70a146100d55780630b32ff77146100f15780632273b50a1461010d5780633477ee2e1461013f578063869d526d14610172575b600080fd5b6100d360048036038101906100ce9190611392565b61027f565b005b6100ef60048036038101906100ea91906113d2565b6103d3565b005b61010b60048036038101906101069190611545565b6104ad565b005b610127600480360381019061012291906113d2565b61069b565b60405161013693929190611679565b60405180910390f35b610159600480360381019061015491906116b7565b610831565b60405161016994939291906116f3565b60405180910390f35b61018c60048036038101906101879190611746565b6109a1565b005b610196610c20565b6040516101a5939291906117b5565b60405180910390f35b6101c860048036038101906101c391906116b7565b610d45565b6040516101d7939291906117f3565b60405180910390f35b6101fa60048036038101906101f591906116b7565b610e11565b005b610216600480360381019061021191906116b7565b610f4b565b6040516102289695949392919061184d565b60405180910390f35b61024b600480360381019061024691906113d2565b61104c565b005b610267600480360381019061026291906116b7565b611126565b604051610276939291906118b5565b60405180910390f35b7f4f4e474f494e4700000000000000000000000000000000000000000000000000600b6040516102af91906119fd565b6040518091039020146102c157600080fd5b806000600160008373ffffffffffffffffffffffffffffffffffffffff1673ffffffffffffffffffffffffffffffffffffffff168152602001908152602001600020905060128160030160009054906101000a900460ff1660ff16101561032757600080fd5b600081600401541461033857600080fd5b600181600101541461034957600080fd5b83600160008573ffffffffffffffffffffffffffffffffffffffff1673ffffffffffffffffffffffffffffffffffffffff168152602001908152602001600020600401819055506000600560008681526020019081526020016000205490506001816103b59190611a43565b60056000878152602001908152602001600020819055505050505050565b600860009054906101000a900473ffffffffffffffffffffffffffffffffffffffff1673ffffffffffffffffffffffffffffffffffffffff163373ffffffffffffffffffffffffffffffffffffffff161461042d57600080fd5b8073ffffffffffffffffffffffffffffffffffffffff163373ffffffffffffffffffffffffffffffffffffffff161461046557600080fd5b6040518060400160405280600581526020017f454e444544000000000000000000000000000000000000000000000000000000815250600b90816104a99190611c23565b5050565b600860009054906101000a900473ffffffffffffffffffffffffffffffffffffffff1673ffffffffffffffffffffffffffffffffffffffff163373ffffffffffffffffffffffffffffffffffffffff161461050757600080fd5b7f4f4e474f494e4700000000000000000000000000000000000000000000000000600b60405161053791906119fd565b60405180910390201461054957600080fd5b60008060008373ffffffffffffffffffffffffffffffffffffffff1673ffffffffffffffffffffffffffffffffffffffff16815260200190815260200160002090508381600001908161059c9190611c23565b50828160020190816105ae9190611c23565b506009600081546105be90611cf5565b919050819055816001018190555060068190806001815401808255809150506001900390600052602060002090600402016000909190919091506000820181600001908161060c9190611d53565b50600182015481600101556002820181600201908161062b9190611d53565b506003820160009054906101000a900473ffffffffffffffffffffffffffffffffffffffff168160030160006101000a81548173ffffffffffffffffffffffffffffffffffffffff021916908373ffffffffffffffffffffffffffffffffffffffff160217905550505050505050565b60606000806000600160008673ffffffffffffffffffffffffffffffffffffffff1673ffffffffffffffffffffffffffffffffffffffff1681526020019081526020016000206040518060c0016040529081600082015481526020016001820154815260200160028201805461071090611929565b80601f016020809104026020016040519081016040528092919081815260200182805461073c90611929565b80156107895780601f1061075e57610100808354040283529160200191610789565b820191906000526020600020905b81548152906001019060200180831161076c57829003601f168201915b505050505081526020016003820160009054906101000a900460ff1660ff1660ff168152602001600482015481526020016005820160009054906101000a900473ffffffffffffffffffffffffffffffffffffffff1673ffffffffffffffffffffffffffffffffffffffff1673ffffffffffffffffffffffffffffffffffffffff16815250509050806040015193508060800151925060018160200151149150509193909250565b6006818154811061084157600080fd5b906000526020600020906004020160009150905080600001805461086490611929565b80601f016020809104026020016040519081016040528092919081815260200182805461089090611929565b80156108dd5780601f106108b2576101008083540402835291602001916108dd565b820191906000526020600020905b8154815290600101906020018083116108c057829003601f168201915b5050505050908060010154908060020180546108f890611929565b80601f016020809104026020016040519081016040528092919081815260200182805461092490611929565b80156109715780601f1061094657610100808354040283529160200191610971565b820191906000526020600020905b81548152906001019060200180831161095457829003601f168201915b5050505050908060030160009054906101000a900473ffffffffffffffffffffffffffffffffffffffff16905084565b600860009054906101000a900473ffffffffffffffffffffffffffffffffffffffff1673ffffffffffffffffffffffffffffffffffffffff163373ffffffffffffffffffffffffffffffffffffffff16146109fb57600080fd5b7f4f4e474f494e4700000000000000000000000000000000000000000000000000600b604051610a2b91906119fd565b604051809103902014610a3d57600080fd5b6000600160008373ffffffffffffffffffffffffffffffffffffffff1673ffffffffffffffffffffffffffffffffffffffff168152602001908152602001600020905083816002019081610a919190611c23565b50828160050160006101000a81548173ffffffffffffffffffffffffffffffffffffffff021916908373ffffffffffffffffffffffffffffffffffffffff160217905550600a60008154610ae490611cf5565b9190508190558160000181905550600081600101819055506000816004018190555060138160030160006101000a81548160ff021916908360ff1602179055506007819080600181540180825580915050600190039060005260206000209060060201600090919091909150600082015481600001556001820154816001015560028201816002019081610b789190611d53565b506003820160009054906101000a900460ff168160030160006101000a81548160ff021916908360ff160217905550600482015481600401556005820160009054906101000a900473ffffffffffffffffffffffffffffffffffffffff168160050160006101000a81548173ffffffffffffffffffffffffffffffffffffffff021916908373ffffffffffffffffffffffffffffffffffffffff160217905550505050505050565b600080606060005b600680549050811015610d3f57600060068281548110610c4b57610c4a611e3b565b5b90600052602060002090600402019050846005600083600101548152602001908152602001600020541115610d2b57600560008260010154815260200190815260200160002054945080600101549350806000018054610caa90611929565b80601f0160208091040260200160405190810160405280929190818152602001828054610cd690611929565b8015610d235780601f10610cf857610100808354040283529160200191610d23565b820191906000526020600020905b815481529060010190602001808311610d0657829003601f168201915b505050505092505b508080610d3790611cf5565b915050610c28565b50909192565b60006060600080600260008681526020019081526020016000209050849350806000018054610d7390611929565b80601f0160208091040260200160405190810160405280929190818152602001828054610d9f90611929565b8015610dec5780601f10610dc157610100808354040283529160200191610dec565b820191906000526020600020905b815481529060010190602001808311610dcf57829003601f168201915b5050505050925060056000868152602001908152602001600020549150509193909250565b600860009054906101000a900473ffffffffffffffffffffffffffffffffffffffff1673ffffffffffffffffffffffffffffffffffffffff163373ffffffffffffffffffffffffffffffffffffffff1614610ea1576040517f08c379a0000000000000000000000000000000000000000000000000000000008152600401610e9890611edc565b60405180910390fd5b6000600360008381526020019081526020016000206004015403610efa576040517f08c379a0000000000000000000000000000000000000000000000000000000008152600401610ef190611f48565b60405180910390fd5b6000600360008381526020019081526020016000206001015414610f1d57600080fd5b600160078281548110610f3357610f32611e3b565b5b90600052602060002090600602016001018190555050565b60078181548110610f5b57600080fd5b9060005260206000209060060201600091509050806000015490806001015490806002018054610f8a90611929565b80601f0160208091040260200160405190810160405280929190818152602001828054610fb690611929565b80156110035780601f10610fd857610100808354040283529160200191611003565b820191906000526020600020905b815481529060010190602001808311610fe657829003601f168201915b5050505050908060030160009054906101000a900460ff16908060040154908060050160009054906101000a900473ffffffffffffffffffffffffffffffffffffffff16905086565b600860009054906101000a900473ffffffffffffffffffffffffffffffffffffffff1673ffffffffffffffffffffffffffffffffffffffff163373ffffffffffffffffffffffffffffffffffffffff16146110a657600080fd5b8073ffffffffffffffffffffffffffffffffffffffff163373ffffffffffffffffffffffffffffffffffffffff16146110de57600080fd5b6040518060400160405280600781526020017f4f4e474f494e4700000000000000000000000000000000000000000000000000815250600b90816111229190611c23565b5050565b600060608060006002600086815260200190815260200160002060405180608001604052908160008201805461115b90611929565b80601f016020809104026020016040519081016040528092919081815260200182805461118790611929565b80156111d45780601f106111a9576101008083540402835291602001916111d4565b820191906000526020600020905b8154815290600101906020018083116111b757829003601f168201915b50505050508152602001600182015481526020016002820180546111f790611929565b80601f016020809104026020016040519081016040528092919081815260200182805461122390611929565b80156112705780601f1061124557610100808354040283529160200191611270565b820191906000526020600020905b81548152906001019060200180831161125357829003601f168201915b505050505081526020016003820160009054906101000a900473ffffffffffffffffffffffffffffffffffffffff1673ffffffffffffffffffffffffffffffffffffffff1673ffffffffffffffffffffffffffffffffffffffff168152505090508493508060400151925080600001519150509193909250565b6000604051905090565b600080fd5b600080fd5b6000819050919050565b611311816112fe565b811461131c57600080fd5b50565b60008135905061132e81611308565b92915050565b600073ffffffffffffffffffffffffffffffffffffffff82169050919050565b600061135f82611334565b9050919050565b61136f81611354565b811461137a57600080fd5b50565b60008135905061138c81611366565b92915050565b600080604083850312156113a9576113a86112f4565b5b60006113b78582860161131f565b92505060206113c88582860161137d565b9150509250929050565b6000602082840312156113e8576113e76112f4565b5b60006113f68482850161137d565b91505092915050565b600080fd5b600080fd5b6000601f19601f8301169050919050565b7f4e487b7100000000000000000000000000000000000000000000000000000000600052604160045260246000fd5b61145282611409565b810181811067ffffffffffffffff821117156114715761147061141a565b5b80604052505050565b60006114846112ea565b90506114908282611449565b919050565b600067ffffffffffffffff8211156114b0576114af61141a565b5b6114b982611409565b9050602081019050919050565b82818337600083830152505050565b60006114e86114e384611495565b61147a565b90508281526020810184848401111561150457611503611404565b5b61150f8482856114c6565b509392505050565b600082601f83011261152c5761152b6113ff565b5b813561153c8482602086016114d5565b91505092915050565b60008060006060848603121561155e5761155d6112f4565b5b600084013567ffffffffffffffff81111561157c5761157b6112f9565b5b61158886828701611517565b935050602084013567ffffffffffffffff8111156115a9576115a86112f9565b5b6115b586828701611517565b92505060406115c68682870161137d565b9150509250925092565b600081519050919050565b600082825260208201905092915050565b60005b8381101561160a5780820151818401526020810190506115ef565b60008484015250505050565b6000611621826115d0565b61162b81856115db565b935061163b8185602086016115ec565b61164481611409565b840191505092915050565b611658816112fe565b82525050565b60008115159050919050565b6116738161165e565b82525050565b600060608201905081810360008301526116938186611616565b90506116a2602083018561164f565b6116af604083018461166a565b949350505050565b6000602082840312156116cd576116cc6112f4565b5b60006116db8482850161131f565b91505092915050565b6116ed81611354565b82525050565b6000608082019050818103600083015261170d8187611616565b905061171c602083018661164f565b818103604083015261172e8185611616565b905061173d60608301846116e4565b95945050505050565b60008060006060848603121561175f5761175e6112f4565b5b600084013567ffffffffffffffff81111561177d5761177c6112f9565b5b61178986828701611517565b935050602061179a8682870161137d565b92505060406117ab8682870161137d565b9150509250925092565b60006060820190506117ca600083018661164f565b6117d7602083018561164f565b81810360408301526117e98184611616565b9050949350505050565b6000606082019050611808600083018661164f565b818103602083015261181a8185611616565b9050611829604083018461164f565b949350505050565b600060ff82169050919050565b61184781611831565b82525050565b600060c082019050611862600083018961164f565b61186f602083018861164f565b81810360408301526118818187611616565b9050611890606083018661183e565b61189d608083018561164f565b6118aa60a08301846116e4565b979650505050505050565b60006060820190506118ca600083018661164f565b81810360208301526118dc8185611616565b905081810360408301526118f08184611616565b9050949350505050565b7f4e487b7100000000000000000000000000000000000000000000000000000000600052602260045260246000fd5b6000600282049050600182168061194157607f821691505b602082108103611954576119536118fa565b5b50919050565b600081905092915050565b60008190508160005260206000209050919050565b6000815461198781611929565b611991818661195a565b945060018216600081146119ac57600181146119c1576119f4565b60ff19831686528115158202860193506119f4565b6119ca85611965565b60005b838110156119ec578154818901526001820191506020810190506119cd565b838801955050505b50505092915050565b6000611a09828461197a565b915081905092915050565b7f4e487b7100000000000000000000000000000000000000000000000000000000600052601160045260246000fd5b6000611a4e826112fe565b9150611a59836112fe565b9250828201905080821115611a7157611a70611a14565b5b92915050565b60008190508160005260206000209050919050565b60006020601f8301049050919050565b600082821b905092915050565b600060088302611ad97fffffffffffffffffffffffffffffffffffffffffffffffffffffffffffffffff82611a9c565b611ae38683611a9c565b95508019841693508086168417925050509392505050565b6000819050919050565b6000611b20611b1b611b16846112fe565b611afb565b6112fe565b9050919050565b6000819050919050565b611b3a83611b05565b611b4e611b4682611b27565b848454611aa9565b825550505050565b600090565b611b63611b56565b611b6e818484611b31565b505050565b5b81811015611b9257611b87600082611b5b565b600181019050611b74565b5050565b601f821115611bd757611ba881611a77565b611bb184611a8c565b81016020851015611bc0578190505b611bd4611bcc85611a8c565b830182611b73565b50505b505050565b600082821c905092915050565b6000611bfa60001984600802611bdc565b1980831691505092915050565b6000611c138383611be9565b9150826002028217905092915050565b611c2c826115d0565b67ffffffffffffffff811115611c4557611c4461141a565b5b611c4f8254611929565b611c5a828285611b96565b600060209050601f831160018114611c8d5760008415611c7b578287015190505b611c858582611c07565b865550611ced565b601f198416611c9b86611a77565b60005b82811015611cc357848901518255600182019150602085019450602081019050611c9e565b86831015611ce05784890151611cdc601f891682611be9565b8355505b6001600288020188555050505b505050505050565b6000611d00826112fe565b91507fffffffffffffffffffffffffffffffffffffffffffffffffffffffffffffffff8203611d3257611d31611a14565b5b600182019050919050565b600081549050611d4c81611929565b9050919050565b818103611d61575050611e39565b611d6a82611d3d565b67ffffffffffffffff811115611d8357611d8261141a565b5b611d8d8254611929565b611d98828285611b96565b6000601f831160018114611dc75760008415611db5578287015490505b611dbf8582611c07565b865550611e32565b601f198416611dd587611a77565b9650611de086611a77565b60005b82811015611e0857848901548255600182019150600185019450602081019050611de3565b86831015611e255784890154611e21601f891682611be9565b8355505b6001600288020188555050505b5050505050505b565b7f4e487b7100000000000000000000000000000000000000000000000000000000600052603260045260246000fd5b7f4f6e6c792061646d696e2063616e206769766520726967687420746f20766f7460008201527f652e000000000000000000000000000000000000000000000000000000000000602082015250565b6000611ec66022836115db565b9150611ed182611e6a565b604082019050919050565b60006020820190508181036000830152611ef581611eb9565b9050919050565b7f54686520766f74657220616c726561647920766f7465642e0000000000000000600082015250565b6000611f326018836115db565b9150611f3d82611efc565b602082019050919050565b60006020820190508181036000830152611f6181611f25565b905091905056fea264697066735822122076c140ba0d96467de79891fd00574202c7deef1fc40b331db7fe264eae7441d464736f6c63430008120033",
					"opcodes": "PUSH1 0x80 PUSH1 0x40 MSTORE CALLVALUE DUP1 ISZERO PUSH2 0x10 JUMPI PUSH1 0x0 DUP1 REVERT JUMPDEST POP CALLER PUSH1 0x8 PUSH1 0x0 PUSH2 0x100 EXP DUP2 SLOAD DUP2 PUSH20 0xFFFFFFFFFFFFFFFFFFFFFFFFFFFFFFFFFFFFFFFF MUL NOT AND SWAP1 DUP4 PUSH20 0xFFFFFFFFFFFFFFFFFFFFFFFFFFFFFFFFFFFFFFFF AND MUL OR SWAP1 SSTORE POP PUSH2 0x1F9E DUP1 PUSH2 0x61 PUSH1 0x0 CODECOPY PUSH1 0x0 RETURN INVALID PUSH1 0x80 PUSH1 0x40 MSTORE CALLVALUE DUP1 ISZERO PUSH2 0x10 JUMPI PUSH1 0x0 DUP1 REVERT JUMPDEST POP PUSH1 0x4 CALLDATASIZE LT PUSH2 0xB4 JUMPI PUSH1 0x0 CALLDATALOAD PUSH1 0xE0 SHR DUP1 PUSH4 0x8E7EA5B2 GT PUSH2 0x71 JUMPI DUP1 PUSH4 0x8E7EA5B2 EQ PUSH2 0x18E JUMPI DUP1 PUSH4 0xB1A713E7 EQ PUSH2 0x1AE JUMPI DUP1 PUSH4 0xBC23BD51 EQ PUSH2 0x1E0 JUMPI DUP1 PUSH4 0xDA58C7D9 EQ PUSH2 0x1FC JUMPI DUP1 PUSH4 0xE6A5E61D EQ PUSH2 0x231 JUMPI DUP1 PUSH4 0xE82A2D18 EQ PUSH2 0x24D JUMPI PUSH2 0xB4 JUMP JUMPDEST DUP1 PUSH4 0x2D947EF EQ PUSH2 0xB9 JUMPI DUP1 PUSH4 0x7E4B70A EQ PUSH2 0xD5 JUMPI DUP1 PUSH4 0xB32FF77 EQ PUSH2 0xF1 JUMPI DUP1 PUSH4 0x2273B50A EQ PUSH2 0x10D JUMPI DUP1 PUSH4 0x3477EE2E EQ PUSH2 0x13F JUMPI DUP1 PUSH4 0x869D526D EQ PUSH2 0x172 JUMPI JUMPDEST PUSH1 0x0 DUP1 REVERT JUMPDEST PUSH2 0xD3 PUSH1 0x4 DUP1 CALLDATASIZE SUB DUP2 ADD SWAP1 PUSH2 0xCE SWAP2 SWAP1 PUSH2 0x1392 JUMP JUMPDEST PUSH2 0x27F JUMP JUMPDEST STOP JUMPDEST PUSH2 0xEF PUSH1 0x4 DUP1 CALLDATASIZE SUB DUP2 ADD SWAP1 PUSH2 0xEA SWAP2 SWAP1 PUSH2 0x13D2 JUMP JUMPDEST PUSH2 0x3D3 JUMP JUMPDEST STOP JUMPDEST PUSH2 0x10B PUSH1 0x4 DUP1 CALLDATASIZE SUB DUP2 ADD SWAP1 PUSH2 0x106 SWAP2 SWAP1 PUSH2 0x1545 JUMP JUMPDEST PUSH2 0x4AD JUMP JUMPDEST STOP JUMPDEST PUSH2 0x127 PUSH1 0x4 DUP1 CALLDATASIZE SUB DUP2 ADD SWAP1 PUSH2 0x122 SWAP2 SWAP1 PUSH2 0x13D2 JUMP JUMPDEST PUSH2 0x69B JUMP JUMPDEST PUSH1 0x40 MLOAD PUSH2 0x136 SWAP4 SWAP3 SWAP2 SWAP1 PUSH2 0x1679 JUMP JUMPDEST PUSH1 0x40 MLOAD DUP1 SWAP2 SUB SWAP1 RETURN JUMPDEST PUSH2 0x159 PUSH1 0x4 DUP1 CALLDATASIZE SUB DUP2 ADD SWAP1 PUSH2 0x154 SWAP2 SWAP1 PUSH2 0x16B7 JUMP JUMPDEST PUSH2 0x831 JUMP JUMPDEST PUSH1 0x40 MLOAD PUSH2 0x169 SWAP5 SWAP4 SWAP3 SWAP2 SWAP1 PUSH2 0x16F3 JUMP JUMPDEST PUSH1 0x40 MLOAD DUP1 SWAP2 SUB SWAP1 RETURN JUMPDEST PUSH2 0x18C PUSH1 0x4 DUP1 CALLDATASIZE SUB DUP2 ADD SWAP1 PUSH2 0x187 SWAP2 SWAP1 PUSH2 0x1746 JUMP JUMPDEST PUSH2 0x9A1 JUMP JUMPDEST STOP JUMPDEST PUSH2 0x196 PUSH2 0xC20 JUMP JUMPDEST PUSH1 0x40 MLOAD PUSH2 0x1A5 SWAP4 SWAP3 SWAP2 SWAP1 PUSH2 0x17B5 JUMP JUMPDEST PUSH1 0x40 MLOAD DUP1 SWAP2 SUB SWAP1 RETURN JUMPDEST PUSH2 0x1C8 PUSH1 0x4 DUP1 CALLDATASIZE SUB DUP2 ADD SWAP1 PUSH2 0x1C3 SWAP2 SWAP1 PUSH2 0x16B7 JUMP JUMPDEST PUSH2 0xD45 JUMP JUMPDEST PUSH1 0x40 MLOAD PUSH2 0x1D7 SWAP4 SWAP3 SWAP2 SWAP1 PUSH2 0x17F3 JUMP JUMPDEST PUSH1 0x40 MLOAD DUP1 SWAP2 SUB SWAP1 RETURN JUMPDEST PUSH2 0x1FA PUSH1 0x4 DUP1 CALLDATASIZE SUB DUP2 ADD SWAP1 PUSH2 0x1F5 SWAP2 SWAP1 PUSH2 0x16B7 JUMP JUMPDEST PUSH2 0xE11 JUMP JUMPDEST STOP JUMPDEST PUSH2 0x216 PUSH1 0x4 DUP1 CALLDATASIZE SUB DUP2 ADD SWAP1 PUSH2 0x211 SWAP2 SWAP1 PUSH2 0x16B7 JUMP JUMPDEST PUSH2 0xF4B JUMP JUMPDEST PUSH1 0x40 MLOAD PUSH2 0x228 SWAP7 SWAP6 SWAP5 SWAP4 SWAP3 SWAP2 SWAP1 PUSH2 0x184D JUMP JUMPDEST PUSH1 0x40 MLOAD DUP1 SWAP2 SUB SWAP1 RETURN JUMPDEST PUSH2 0x24B PUSH1 0x4 DUP1 CALLDATASIZE SUB DUP2 ADD SWAP1 PUSH2 0x246 SWAP2 SWAP1 PUSH2 0x13D2 JUMP JUMPDEST PUSH2 0x104C JUMP JUMPDEST STOP JUMPDEST PUSH2 0x267 PUSH1 0x4 DUP1 CALLDATASIZE SUB DUP2 ADD SWAP1 PUSH2 0x262 SWAP2 SWAP1 PUSH2 0x16B7 JUMP JUMPDEST PUSH2 0x1126 JUMP JUMPDEST PUSH1 0x40 MLOAD PUSH2 0x276 SWAP4 SWAP3 SWAP2 SWAP1 PUSH2 0x18B5 JUMP JUMPDEST PUSH1 0x40 MLOAD DUP1 SWAP2 SUB SWAP1 RETURN JUMPDEST PUSH32 0x4F4E474F494E4700000000000000000000000000000000000000000000000000 PUSH1 0xB PUSH1 0x40 MLOAD PUSH2 0x2AF SWAP2 SWAP1 PUSH2 0x19FD JUMP JUMPDEST PUSH1 0x40 MLOAD DUP1 SWAP2 SUB SWAP1 KECCAK256 EQ PUSH2 0x2C1 JUMPI PUSH1 0x0 DUP1 REVERT JUMPDEST DUP1 PUSH1 0x0 PUSH1 0x1 PUSH1 0x0 DUP4 PUSH20 0xFFFFFFFFFFFFFFFFFFFFFFFFFFFFFFFFFFFFFFFF AND PUSH20 0xFFFFFFFFFFFFFFFFFFFFFFFFFFFFFFFFFFFFFFFF AND DUP2 MSTORE PUSH1 0x20 ADD SWAP1 DUP2 MSTORE PUSH1 0x20 ADD PUSH1 0x0 KECCAK256 SWAP1 POP PUSH1 0x12 DUP2 PUSH1 0x3 ADD PUSH1 0x0 SWAP1 SLOAD SWAP1 PUSH2 0x100 EXP SWAP1 DIV PUSH1 0xFF AND PUSH1 0xFF AND LT ISZERO PUSH2 0x327 JUMPI PUSH1 0x0 DUP1 REVERT JUMPDEST PUSH1 0x0 DUP2 PUSH1 0x4 ADD SLOAD EQ PUSH2 0x338 JUMPI PUSH1 0x0 DUP1 REVERT JUMPDEST PUSH1 0x1 DUP2 PUSH1 0x1 ADD SLOAD EQ PUSH2 0x349 JUMPI PUSH1 0x0 DUP1 REVERT JUMPDEST DUP4 PUSH1 0x1 PUSH1 0x0 DUP6 PUSH20 0xFFFFFFFFFFFFFFFFFFFFFFFFFFFFFFFFFFFFFFFF AND PUSH20 0xFFFFFFFFFFFFFFFFFFFFFFFFFFFFFFFFFFFFFFFF AND DUP2 MSTORE PUSH1 0x20 ADD SWAP1 DUP2 MSTORE PUSH1 0x20 ADD PUSH1 0x0 KECCAK256 PUSH1 0x4 ADD DUP2 SWAP1 SSTORE POP PUSH1 0x0 PUSH1 0x5 PUSH1 0x0 DUP7 DUP2 MSTORE PUSH1 0x20 ADD SWAP1 DUP2 MSTORE PUSH1 0x20 ADD PUSH1 0x0 KECCAK256 SLOAD SWAP1 POP PUSH1 0x1 DUP2 PUSH2 0x3B5 SWAP2 SWAP1 PUSH2 0x1A43 JUMP JUMPDEST PUSH1 0x5 PUSH1 0x0 DUP8 DUP2 MSTORE PUSH1 0x20 ADD SWAP1 DUP2 MSTORE PUSH1 0x20 ADD PUSH1 0x0 KECCAK256 DUP2 SWAP1 SSTORE POP POP POP POP POP POP JUMP JUMPDEST PUSH1 0x8 PUSH1 0x0 SWAP1 SLOAD SWAP1 PUSH2 0x100 EXP SWAP1 DIV PUSH20 0xFFFFFFFFFFFFFFFFFFFFFFFFFFFFFFFFFFFFFFFF AND PUSH20 0xFFFFFFFFFFFFFFFFFFFFFFFFFFFFFFFFFFFFFFFF AND CALLER PUSH20 0xFFFFFFFFFFFFFFFFFFFFFFFFFFFFFFFFFFFFFFFF AND EQ PUSH2 0x42D JUMPI PUSH1 0x0 DUP1 REVERT JUMPDEST DUP1 PUSH20 0xFFFFFFFFFFFFFFFFFFFFFFFFFFFFFFFFFFFFFFFF AND CALLER PUSH20 0xFFFFFFFFFFFFFFFFFFFFFFFFFFFFFFFFFFFFFFFF AND EQ PUSH2 0x465 JUMPI PUSH1 0x0 DUP1 REVERT JUMPDEST PUSH1 0x40 MLOAD DUP1 PUSH1 0x40 ADD PUSH1 0x40 MSTORE DUP1 PUSH1 0x5 DUP2 MSTORE PUSH1 0x20 ADD PUSH32 0x454E444544000000000000000000000000000000000000000000000000000000 DUP2 MSTORE POP PUSH1 0xB SWAP1 DUP2 PUSH2 0x4A9 SWAP2 SWAP1 PUSH2 0x1C23 JUMP JUMPDEST POP POP JUMP JUMPDEST PUSH1 0x8 PUSH1 0x0 SWAP1 SLOAD SWAP1 PUSH2 0x100 EXP SWAP1 DIV PUSH20 0xFFFFFFFFFFFFFFFFFFFFFFFFFFFFFFFFFFFFFFFF AND PUSH20 0xFFFFFFFFFFFFFFFFFFFFFFFFFFFFFFFFFFFFFFFF AND CALLER PUSH20 0xFFFFFFFFFFFFFFFFFFFFFFFFFFFFFFFFFFFFFFFF AND EQ PUSH2 0x507 JUMPI PUSH1 0x0 DUP1 REVERT JUMPDEST PUSH32 0x4F4E474F494E4700000000000000000000000000000000000000000000000000 PUSH1 0xB PUSH1 0x40 MLOAD PUSH2 0x537 SWAP2 SWAP1 PUSH2 0x19FD JUMP JUMPDEST PUSH1 0x40 MLOAD DUP1 SWAP2 SUB SWAP1 KECCAK256 EQ PUSH2 0x549 JUMPI PUSH1 0x0 DUP1 REVERT JUMPDEST PUSH1 0x0 DUP1 PUSH1 0x0 DUP4 PUSH20 0xFFFFFFFFFFFFFFFFFFFFFFFFFFFFFFFFFFFFFFFF AND PUSH20 0xFFFFFFFFFFFFFFFFFFFFFFFFFFFFFFFFFFFFFFFF AND DUP2 MSTORE PUSH1 0x20 ADD SWAP1 DUP2 MSTORE PUSH1 0x20 ADD PUSH1 0x0 KECCAK256 SWAP1 POP DUP4 DUP2 PUSH1 0x0 ADD SWAP1 DUP2 PUSH2 0x59C SWAP2 SWAP1 PUSH2 0x1C23 JUMP JUMPDEST POP DUP3 DUP2 PUSH1 0x2 ADD SWAP1 DUP2 PUSH2 0x5AE SWAP2 SWAP1 PUSH2 0x1C23 JUMP JUMPDEST POP PUSH1 0x9 PUSH1 0x0 DUP2 SLOAD PUSH2 0x5BE SWAP1 PUSH2 0x1CF5 JUMP JUMPDEST SWAP2 SWAP1 POP DUP2 SWAP1 SSTORE DUP2 PUSH1 0x1 ADD DUP2 SWAP1 SSTORE POP PUSH1 0x6 DUP2 SWAP1 DUP1 PUSH1 0x1 DUP2 SLOAD ADD DUP1 DUP3 SSTORE DUP1 SWAP2 POP POP PUSH1 0x1 SWAP1 SUB SWAP1 PUSH1 0x0 MSTORE PUSH1 0x20 PUSH1 0x0 KECCAK256 SWAP1 PUSH1 0x4 MUL ADD PUSH1 0x0 SWAP1 SWAP2 SWAP1 SWAP2 SWAP1 SWAP2 POP PUSH1 0x0 DUP3 ADD DUP2 PUSH1 0x0 ADD SWAP1 DUP2 PUSH2 0x60C SWAP2 SWAP1 PUSH2 0x1D53 JUMP JUMPDEST POP PUSH1 0x1 DUP3 ADD SLOAD DUP2 PUSH1 0x1 ADD SSTORE PUSH1 0x2 DUP3 ADD DUP2 PUSH1 0x2 ADD SWAP1 DUP2 PUSH2 0x62B SWAP2 SWAP1 PUSH2 0x1D53 JUMP JUMPDEST POP PUSH1 0x3 DUP3 ADD PUSH1 0x0 SWAP1 SLOAD SWAP1 PUSH2 0x100 EXP SWAP1 DIV PUSH20 0xFFFFFFFFFFFFFFFFFFFFFFFFFFFFFFFFFFFFFFFF AND DUP2 PUSH1 0x3 ADD PUSH1 0x0 PUSH2 0x100 EXP DUP2 SLOAD DUP2 PUSH20 0xFFFFFFFFFFFFFFFFFFFFFFFFFFFFFFFFFFFFFFFF MUL NOT AND SWAP1 DUP4 PUSH20 0xFFFFFFFFFFFFFFFFFFFFFFFFFFFFFFFFFFFFFFFF AND MUL OR SWAP1 SSTORE POP POP POP POP POP POP POP JUMP JUMPDEST PUSH1 0x60 PUSH1 0x0 DUP1 PUSH1 0x0 PUSH1 0x1 PUSH1 0x0 DUP7 PUSH20 0xFFFFFFFFFFFFFFFFFFFFFFFFFFFFFFFFFFFFFFFF AND PUSH20 0xFFFFFFFFFFFFFFFFFFFFFFFFFFFFFFFFFFFFFFFF AND DUP2 MSTORE PUSH1 0x20 ADD SWAP1 DUP2 MSTORE PUSH1 0x20 ADD PUSH1 0x0 KECCAK256 PUSH1 0x40 MLOAD DUP1 PUSH1 0xC0 ADD PUSH1 0x40 MSTORE SWAP1 DUP2 PUSH1 0x0 DUP3 ADD SLOAD DUP2 MSTORE PUSH1 0x20 ADD PUSH1 0x1 DUP3 ADD SLOAD DUP2 MSTORE PUSH1 0x20 ADD PUSH1 0x2 DUP3 ADD DUP1 SLOAD PUSH2 0x710 SWAP1 PUSH2 0x1929 JUMP JUMPDEST DUP1 PUSH1 0x1F ADD PUSH1 0x20 DUP1 SWAP2 DIV MUL PUSH1 0x20 ADD PUSH1 0x40 MLOAD SWAP1 DUP2 ADD PUSH1 0x40 MSTORE DUP1 SWAP3 SWAP2 SWAP1 DUP2 DUP2 MSTORE PUSH1 0x20 ADD DUP3 DUP1 SLOAD PUSH2 0x73C SWAP1 PUSH2 0x1929 JUMP JUMPDEST DUP1 ISZERO PUSH2 0x789 JUMPI DUP1 PUSH1 0x1F LT PUSH2 0x75E JUMPI PUSH2 0x100 DUP1 DUP4 SLOAD DIV MUL DUP4 MSTORE SWAP2 PUSH1 0x20 ADD SWAP2 PUSH2 0x789 JUMP JUMPDEST DUP3 ADD SWAP2 SWAP1 PUSH1 0x0 MSTORE PUSH1 0x20 PUSH1 0x0 KECCAK256 SWAP1 JUMPDEST DUP2 SLOAD DUP2 MSTORE SWAP1 PUSH1 0x1 ADD SWAP1 PUSH1 0x20 ADD DUP1 DUP4 GT PUSH2 0x76C JUMPI DUP3 SWAP1 SUB PUSH1 0x1F AND DUP3 ADD SWAP2 JUMPDEST POP POP POP POP POP DUP2 MSTORE PUSH1 0x20 ADD PUSH1 0x3 DUP3 ADD PUSH1 0x0 SWAP1 SLOAD SWAP1 PUSH2 0x100 EXP SWAP1 DIV PUSH1 0xFF AND PUSH1 0xFF AND PUSH1 0xFF AND DUP2 MSTORE PUSH1 0x20 ADD PUSH1 0x4 DUP3 ADD SLOAD DUP2 MSTORE PUSH1 0x20 ADD PUSH1 0x5 DUP3 ADD PUSH1 0x0 SWAP1 SLOAD SWAP1 PUSH2 0x100 EXP SWAP1 DIV PUSH20 0xFFFFFFFFFFFFFFFFFFFFFFFFFFFFFFFFFFFFFFFF AND PUSH20 0xFFFFFFFFFFFFFFFFFFFFFFFFFFFFFFFFFFFFFFFF AND PUSH20 0xFFFFFFFFFFFFFFFFFFFFFFFFFFFFFFFFFFFFFFFF AND DUP2 MSTORE POP POP SWAP1 POP DUP1 PUSH1 0x40 ADD MLOAD SWAP4 POP DUP1 PUSH1 0x80 ADD MLOAD SWAP3 POP PUSH1 0x1 DUP2 PUSH1 0x20 ADD MLOAD EQ SWAP2 POP POP SWAP2 SWAP4 SWAP1 SWAP3 POP JUMP JUMPDEST PUSH1 0x6 DUP2 DUP2 SLOAD DUP2 LT PUSH2 0x841 JUMPI PUSH1 0x0 DUP1 REVERT JUMPDEST SWAP1 PUSH1 0x0 MSTORE PUSH1 0x20 PUSH1 0x0 KECCAK256 SWAP1 PUSH1 0x4 MUL ADD PUSH1 0x0 SWAP2 POP SWAP1 POP DUP1 PUSH1 0x0 ADD DUP1 SLOAD PUSH2 0x864 SWAP1 PUSH2 0x1929 JUMP JUMPDEST DUP1 PUSH1 0x1F ADD PUSH1 0x20 DUP1 SWAP2 DIV MUL PUSH1 0x20 ADD PUSH1 0x40 MLOAD SWAP1 DUP2 ADD PUSH1 0x40 MSTORE DUP1 SWAP3 SWAP2 SWAP1 DUP2 DUP2 MSTORE PUSH1 0x20 ADD DUP3 DUP1 SLOAD PUSH2 0x890 SWAP1 PUSH2 0x1929 JUMP JUMPDEST DUP1 ISZERO PUSH2 0x8DD JUMPI DUP1 PUSH1 0x1F LT PUSH2 0x8B2 JUMPI PUSH2 0x100 DUP1 DUP4 SLOAD DIV MUL DUP4 MSTORE SWAP2 PUSH1 0x20 ADD SWAP2 PUSH2 0x8DD JUMP JUMPDEST DUP3 ADD SWAP2 SWAP1 PUSH1 0x0 MSTORE PUSH1 0x20 PUSH1 0x0 KECCAK256 SWAP1 JUMPDEST DUP2 SLOAD DUP2 MSTORE SWAP1 PUSH1 0x1 ADD SWAP1 PUSH1 0x20 ADD DUP1 DUP4 GT PUSH2 0x8C0 JUMPI DUP3 SWAP1 SUB PUSH1 0x1F AND DUP3 ADD SWAP2 JUMPDEST POP POP POP POP POP SWAP1 DUP1 PUSH1 0x1 ADD SLOAD SWAP1 DUP1 PUSH1 0x2 ADD DUP1 SLOAD PUSH2 0x8F8 SWAP1 PUSH2 0x1929 JUMP JUMPDEST DUP1 PUSH1 0x1F ADD PUSH1 0x20 DUP1 SWAP2 DIV MUL PUSH1 0x20 ADD PUSH1 0x40 MLOAD SWAP1 DUP2 ADD PUSH1 0x40 MSTORE DUP1 SWAP3 SWAP2 SWAP1 DUP2 DUP2 MSTORE PUSH1 0x20 ADD DUP3 DUP1 SLOAD PUSH2 0x924 SWAP1 PUSH2 0x1929 JUMP JUMPDEST DUP1 ISZERO PUSH2 0x971 JUMPI DUP1 PUSH1 0x1F LT PUSH2 0x946 JUMPI PUSH2 0x100 DUP1 DUP4 SLOAD DIV MUL DUP4 MSTORE SWAP2 PUSH1 0x20 ADD SWAP2 PUSH2 0x971 JUMP JUMPDEST DUP3 ADD SWAP2 SWAP1 PUSH1 0x0 MSTORE PUSH1 0x20 PUSH1 0x0 KECCAK256 SWAP1 JUMPDEST DUP2 SLOAD DUP2 MSTORE SWAP1 PUSH1 0x1 ADD SWAP1 PUSH1 0x20 ADD DUP1 DUP4 GT PUSH2 0x954 JUMPI DUP3 SWAP1 SUB PUSH1 0x1F AND DUP3 ADD SWAP2 JUMPDEST POP POP POP POP POP SWAP1 DUP1 PUSH1 0x3 ADD PUSH1 0x0 SWAP1 SLOAD SWAP1 PUSH2 0x100 EXP SWAP1 DIV PUSH20 0xFFFFFFFFFFFFFFFFFFFFFFFFFFFFFFFFFFFFFFFF AND SWAP1 POP DUP5 JUMP JUMPDEST PUSH1 0x8 PUSH1 0x0 SWAP1 SLOAD SWAP1 PUSH2 0x100 EXP SWAP1 DIV PUSH20 0xFFFFFFFFFFFFFFFFFFFFFFFFFFFFFFFFFFFFFFFF AND PUSH20 0xFFFFFFFFFFFFFFFFFFFFFFFFFFFFFFFFFFFFFFFF AND CALLER PUSH20 0xFFFFFFFFFFFFFFFFFFFFFFFFFFFFFFFFFFFFFFFF AND EQ PUSH2 0x9FB JUMPI PUSH1 0x0 DUP1 REVERT JUMPDEST PUSH32 0x4F4E474F494E4700000000000000000000000000000000000000000000000000 PUSH1 0xB PUSH1 0x40 MLOAD PUSH2 0xA2B SWAP2 SWAP1 PUSH2 0x19FD JUMP JUMPDEST PUSH1 0x40 MLOAD DUP1 SWAP2 SUB SWAP1 KECCAK256 EQ PUSH2 0xA3D JUMPI PUSH1 0x0 DUP1 REVERT JUMPDEST PUSH1 0x0 PUSH1 0x1 PUSH1 0x0 DUP4 PUSH20 0xFFFFFFFFFFFFFFFFFFFFFFFFFFFFFFFFFFFFFFFF AND PUSH20 0xFFFFFFFFFFFFFFFFFFFFFFFFFFFFFFFFFFFFFFFF AND DUP2 MSTORE PUSH1 0x20 ADD SWAP1 DUP2 MSTORE PUSH1 0x20 ADD PUSH1 0x0 KECCAK256 SWAP1 POP DUP4 DUP2 PUSH1 0x2 ADD SWAP1 DUP2 PUSH2 0xA91 SWAP2 SWAP1 PUSH2 0x1C23 JUMP JUMPDEST POP DUP3 DUP2 PUSH1 0x5 ADD PUSH1 0x0 PUSH2 0x100 EXP DUP2 SLOAD DUP2 PUSH20 0xFFFFFFFFFFFFFFFFFFFFFFFFFFFFFFFFFFFFFFFF MUL NOT AND SWAP1 DUP4 PUSH20 0xFFFFFFFFFFFFFFFFFFFFFFFFFFFFFFFFFFFFFFFF AND MUL OR SWAP1 SSTORE POP PUSH1 0xA PUSH1 0x0 DUP2 SLOAD PUSH2 0xAE4 SWAP1 PUSH2 0x1CF5 JUMP JUMPDEST SWAP2 SWAP1 POP DUP2 SWAP1 SSTORE DUP2 PUSH1 0x0 ADD DUP2 SWAP1 SSTORE POP PUSH1 0x0 DUP2 PUSH1 0x1 ADD DUP2 SWAP1 SSTORE POP PUSH1 0x0 DUP2 PUSH1 0x4 ADD DUP2 SWAP1 SSTORE POP PUSH1 0x13 DUP2 PUSH1 0x3 ADD PUSH1 0x0 PUSH2 0x100 EXP DUP2 SLOAD DUP2 PUSH1 0xFF MUL NOT AND SWAP1 DUP4 PUSH1 0xFF AND MUL OR SWAP1 SSTORE POP PUSH1 0x7 DUP2 SWAP1 DUP1 PUSH1 0x1 DUP2 SLOAD ADD DUP1 DUP3 SSTORE DUP1 SWAP2 POP POP PUSH1 0x1 SWAP1 SUB SWAP1 PUSH1 0x0 MSTORE PUSH1 0x20 PUSH1 0x0 KECCAK256 SWAP1 PUSH1 0x6 MUL ADD PUSH1 0x0 SWAP1 SWAP2 SWAP1 SWAP2 SWAP1 SWAP2 POP PUSH1 0x0 DUP3 ADD SLOAD DUP2 PUSH1 0x0 ADD SSTORE PUSH1 0x1 DUP3 ADD SLOAD DUP2 PUSH1 0x1 ADD SSTORE PUSH1 0x2 DUP3 ADD DUP2 PUSH1 0x2 ADD SWAP1 DUP2 PUSH2 0xB78 SWAP2 SWAP1 PUSH2 0x1D53 JUMP JUMPDEST POP PUSH1 0x3 DUP3 ADD PUSH1 0x0 SWAP1 SLOAD SWAP1 PUSH2 0x100 EXP SWAP1 DIV PUSH1 0xFF AND DUP2 PUSH1 0x3 ADD PUSH1 0x0 PUSH2 0x100 EXP DUP2 SLOAD DUP2 PUSH1 0xFF MUL NOT AND SWAP1 DUP4 PUSH1 0xFF AND MUL OR SWAP1 SSTORE POP PUSH1 0x4 DUP3 ADD SLOAD DUP2 PUSH1 0x4 ADD SSTORE PUSH1 0x5 DUP3 ADD PUSH1 0x0 SWAP1 SLOAD SWAP1 PUSH2 0x100 EXP SWAP1 DIV PUSH20 0xFFFFFFFFFFFFFFFFFFFFFFFFFFFFFFFFFFFFFFFF AND DUP2 PUSH1 0x5 ADD PUSH1 0x0 PUSH2 0x100 EXP DUP2 SLOAD DUP2 PUSH20 0xFFFFFFFFFFFFFFFFFFFFFFFFFFFFFFFFFFFFFFFF MUL NOT AND SWAP1 DUP4 PUSH20 0xFFFFFFFFFFFFFFFFFFFFFFFFFFFFFFFFFFFFFFFF AND MUL OR SWAP1 SSTORE POP POP POP POP POP POP POP JUMP JUMPDEST PUSH1 0x0 DUP1 PUSH1 0x60 PUSH1 0x0 JUMPDEST PUSH1 0x6 DUP1 SLOAD SWAP1 POP DUP2 LT ISZERO PUSH2 0xD3F JUMPI PUSH1 0x0 PUSH1 0x6 DUP3 DUP2 SLOAD DUP2 LT PUSH2 0xC4B JUMPI PUSH2 0xC4A PUSH2 0x1E3B JUMP JUMPDEST JUMPDEST SWAP1 PUSH1 0x0 MSTORE PUSH1 0x20 PUSH1 0x0 KECCAK256 SWAP1 PUSH1 0x4 MUL ADD SWAP1 POP DUP5 PUSH1 0x5 PUSH1 0x0 DUP4 PUSH1 0x1 ADD SLOAD DUP2 MSTORE PUSH1 0x20 ADD SWAP1 DUP2 MSTORE PUSH1 0x20 ADD PUSH1 0x0 KECCAK256 SLOAD GT ISZERO PUSH2 0xD2B JUMPI PUSH1 0x5 PUSH1 0x0 DUP3 PUSH1 0x1 ADD SLOAD DUP2 MSTORE PUSH1 0x20 ADD SWAP1 DUP2 MSTORE PUSH1 0x20 ADD PUSH1 0x0 KECCAK256 SLOAD SWAP5 POP DUP1 PUSH1 0x1 ADD SLOAD SWAP4 POP DUP1 PUSH1 0x0 ADD DUP1 SLOAD PUSH2 0xCAA SWAP1 PUSH2 0x1929 JUMP JUMPDEST DUP1 PUSH1 0x1F ADD PUSH1 0x20 DUP1 SWAP2 DIV MUL PUSH1 0x20 ADD PUSH1 0x40 MLOAD SWAP1 DUP2 ADD PUSH1 0x40 MSTORE DUP1 SWAP3 SWAP2 SWAP1 DUP2 DUP2 MSTORE PUSH1 0x20 ADD DUP3 DUP1 SLOAD PUSH2 0xCD6 SWAP1 PUSH2 0x1929 JUMP JUMPDEST DUP1 ISZERO PUSH2 0xD23 JUMPI DUP1 PUSH1 0x1F LT PUSH2 0xCF8 JUMPI PUSH2 0x100 DUP1 DUP4 SLOAD DIV MUL DUP4 MSTORE SWAP2 PUSH1 0x20 ADD SWAP2 PUSH2 0xD23 JUMP JUMPDEST DUP3 ADD SWAP2 SWAP1 PUSH1 0x0 MSTORE PUSH1 0x20 PUSH1 0x0 KECCAK256 SWAP1 JUMPDEST DUP2 SLOAD DUP2 MSTORE SWAP1 PUSH1 0x1 ADD SWAP1 PUSH1 0x20 ADD DUP1 DUP4 GT PUSH2 0xD06 JUMPI DUP3 SWAP1 SUB PUSH1 0x1F AND DUP3 ADD SWAP2 JUMPDEST POP POP POP POP POP SWAP3 POP JUMPDEST POP DUP1 DUP1 PUSH2 0xD37 SWAP1 PUSH2 0x1CF5 JUMP JUMPDEST SWAP2 POP POP PUSH2 0xC28 JUMP JUMPDEST POP SWAP1 SWAP2 SWAP3 JUMP JUMPDEST PUSH1 0x0 PUSH1 0x60 PUSH1 0x0 DUP1 PUSH1 0x2 PUSH1 0x0 DUP7 DUP2 MSTORE PUSH1 0x20 ADD SWAP1 DUP2 MSTORE PUSH1 0x20 ADD PUSH1 0x0 KECCAK256 SWAP1 POP DUP5 SWAP4 POP DUP1 PUSH1 0x0 ADD DUP1 SLOAD PUSH2 0xD73 SWAP1 PUSH2 0x1929 JUMP JUMPDEST DUP1 PUSH1 0x1F ADD PUSH1 0x20 DUP1 SWAP2 DIV MUL PUSH1 0x20 ADD PUSH1 0x40 MLOAD SWAP1 DUP2 ADD PUSH1 0x40 MSTORE DUP1 SWAP3 SWAP2 SWAP1 DUP2 DUP2 MSTORE PUSH1 0x20 ADD DUP3 DUP1 SLOAD PUSH2 0xD9F SWAP1 PUSH2 0x1929 JUMP JUMPDEST DUP1 ISZERO PUSH2 0xDEC JUMPI DUP1 PUSH1 0x1F LT PUSH2 0xDC1 JUMPI PUSH2 0x100 DUP1 DUP4 SLOAD DIV MUL DUP4 MSTORE SWAP2 PUSH1 0x20 ADD SWAP2 PUSH2 0xDEC JUMP JUMPDEST DUP3 ADD SWAP2 SWAP1 PUSH1 0x0 MSTORE PUSH1 0x20 PUSH1 0x0 KECCAK256 SWAP1 JUMPDEST DUP2 SLOAD DUP2 MSTORE SWAP1 PUSH1 0x1 ADD SWAP1 PUSH1 0x20 ADD DUP1 DUP4 GT PUSH2 0xDCF JUMPI DUP3 SWAP1 SUB PUSH1 0x1F AND DUP3 ADD SWAP2 JUMPDEST POP POP POP POP POP SWAP3 POP PUSH1 0x5 PUSH1 0x0 DUP7 DUP2 MSTORE PUSH1 0x20 ADD SWAP1 DUP2 MSTORE PUSH1 0x20 ADD PUSH1 0x0 KECCAK256 SLOAD SWAP2 POP POP SWAP2 SWAP4 SWAP1 SWAP3 POP JUMP JUMPDEST PUSH1 0x8 PUSH1 0x0 SWAP1 SLOAD SWAP1 PUSH2 0x100 EXP SWAP1 DIV PUSH20 0xFFFFFFFFFFFFFFFFFFFFFFFFFFFFFFFFFFFFFFFF AND PUSH20 0xFFFFFFFFFFFFFFFFFFFFFFFFFFFFFFFFFFFFFFFF AND CALLER PUSH20 0xFFFFFFFFFFFFFFFFFFFFFFFFFFFFFFFFFFFFFFFF AND EQ PUSH2 0xEA1 JUMPI PUSH1 0x40 MLOAD PUSH32 0x8C379A000000000000000000000000000000000000000000000000000000000 DUP2 MSTORE PUSH1 0x4 ADD PUSH2 0xE98 SWAP1 PUSH2 0x1EDC JUMP JUMPDEST PUSH1 0x40 MLOAD DUP1 SWAP2 SUB SWAP1 REVERT JUMPDEST PUSH1 0x0 PUSH1 0x3 PUSH1 0x0 DUP4 DUP2 MSTORE PUSH1 0x20 ADD SWAP1 DUP2 MSTORE PUSH1 0x20 ADD PUSH1 0x0 KECCAK256 PUSH1 0x4 ADD SLOAD SUB PUSH2 0xEFA JUMPI PUSH1 0x40 MLOAD PUSH32 0x8C379A000000000000000000000000000000000000000000000000000000000 DUP2 MSTORE PUSH1 0x4 ADD PUSH2 0xEF1 SWAP1 PUSH2 0x1F48 JUMP JUMPDEST PUSH1 0x40 MLOAD DUP1 SWAP2 SUB SWAP1 REVERT JUMPDEST PUSH1 0x0 PUSH1 0x3 PUSH1 0x0 DUP4 DUP2 MSTORE PUSH1 0x20 ADD SWAP1 DUP2 MSTORE PUSH1 0x20 ADD PUSH1 0x0 KECCAK256 PUSH1 0x1 ADD SLOAD EQ PUSH2 0xF1D JUMPI PUSH1 0x0 DUP1 REVERT JUMPDEST PUSH1 0x1 PUSH1 0x7 DUP3 DUP2 SLOAD DUP2 LT PUSH2 0xF33 JUMPI PUSH2 0xF32 PUSH2 0x1E3B JUMP JUMPDEST JUMPDEST SWAP1 PUSH1 0x0 MSTORE PUSH1 0x20 PUSH1 0x0 KECCAK256 SWAP1 PUSH1 0x6 MUL ADD PUSH1 0x1 ADD DUP2 SWAP1 SSTORE POP POP JUMP JUMPDEST PUSH1 0x7 DUP2 DUP2 SLOAD DUP2 LT PUSH2 0xF5B JUMPI PUSH1 0x0 DUP1 REVERT JUMPDEST SWAP1 PUSH1 0x0 MSTORE PUSH1 0x20 PUSH1 0x0 KECCAK256 SWAP1 PUSH1 0x6 MUL ADD PUSH1 0x0 SWAP2 POP SWAP1 POP DUP1 PUSH1 0x0 ADD SLOAD SWAP1 DUP1 PUSH1 0x1 ADD SLOAD SWAP1 DUP1 PUSH1 0x2 ADD DUP1 SLOAD PUSH2 0xF8A SWAP1 PUSH2 0x1929 JUMP JUMPDEST DUP1 PUSH1 0x1F ADD PUSH1 0x20 DUP1 SWAP2 DIV MUL PUSH1 0x20 ADD PUSH1 0x40 MLOAD SWAP1 DUP2 ADD PUSH1 0x40 MSTORE DUP1 SWAP3 SWAP2 SWAP1 DUP2 DUP2 MSTORE PUSH1 0x20 ADD DUP3 DUP1 SLOAD PUSH2 0xFB6 SWAP1 PUSH2 0x1929 JUMP JUMPDEST DUP1 ISZERO PUSH2 0x1003 JUMPI DUP1 PUSH1 0x1F LT PUSH2 0xFD8 JUMPI PUSH2 0x100 DUP1 DUP4 SLOAD DIV MUL DUP4 MSTORE SWAP2 PUSH1 0x20 ADD SWAP2 PUSH2 0x1003 JUMP JUMPDEST DUP3 ADD SWAP2 SWAP1 PUSH1 0x0 MSTORE PUSH1 0x20 PUSH1 0x0 KECCAK256 SWAP1 JUMPDEST DUP2 SLOAD DUP2 MSTORE SWAP1 PUSH1 0x1 ADD SWAP1 PUSH1 0x20 ADD DUP1 DUP4 GT PUSH2 0xFE6 JUMPI DUP3 SWAP1 SUB PUSH1 0x1F AND DUP3 ADD SWAP2 JUMPDEST POP POP POP POP POP SWAP1 DUP1 PUSH1 0x3 ADD PUSH1 0x0 SWAP1 SLOAD SWAP1 PUSH2 0x100 EXP SWAP1 DIV PUSH1 0xFF AND SWAP1 DUP1 PUSH1 0x4 ADD SLOAD SWAP1 DUP1 PUSH1 0x5 ADD PUSH1 0x0 SWAP1 SLOAD SWAP1 PUSH2 0x100 EXP SWAP1 DIV PUSH20 0xFFFFFFFFFFFFFFFFFFFFFFFFFFFFFFFFFFFFFFFF AND SWAP1 POP DUP7 JUMP JUMPDEST PUSH1 0x8 PUSH1 0x0 SWAP1 SLOAD SWAP1 PUSH2 0x100 EXP SWAP1 DIV PUSH20 0xFFFFFFFFFFFFFFFFFFFFFFFFFFFFFFFFFFFFFFFF AND PUSH20 0xFFFFFFFFFFFFFFFFFFFFFFFFFFFFFFFFFFFFFFFF AND CALLER PUSH20 0xFFFFFFFFFFFFFFFFFFFFFFFFFFFFFFFFFFFFFFFF AND EQ PUSH2 0x10A6 JUMPI PUSH1 0x0 DUP1 REVERT JUMPDEST DUP1 PUSH20 0xFFFFFFFFFFFFFFFFFFFFFFFFFFFFFFFFFFFFFFFF AND CALLER PUSH20 0xFFFFFFFFFFFFFFFFFFFFFFFFFFFFFFFFFFFFFFFF AND EQ PUSH2 0x10DE JUMPI PUSH1 0x0 DUP1 REVERT JUMPDEST PUSH1 0x40 MLOAD DUP1 PUSH1 0x40 ADD PUSH1 0x40 MSTORE DUP1 PUSH1 0x7 DUP2 MSTORE PUSH1 0x20 ADD PUSH32 0x4F4E474F494E4700000000000000000000000000000000000000000000000000 DUP2 MSTORE POP PUSH1 0xB SWAP1 DUP2 PUSH2 0x1122 SWAP2 SWAP1 PUSH2 0x1C23 JUMP JUMPDEST POP POP JUMP JUMPDEST PUSH1 0x0 PUSH1 0x60 DUP1 PUSH1 0x0 PUSH1 0x2 PUSH1 0x0 DUP7 DUP2 MSTORE PUSH1 0x20 ADD SWAP1 DUP2 MSTORE PUSH1 0x20 ADD PUSH1 0x0 KECCAK256 PUSH1 0x40 MLOAD DUP1 PUSH1 0x80 ADD PUSH1 0x40 MSTORE SWAP1 DUP2 PUSH1 0x0 DUP3 ADD DUP1 SLOAD PUSH2 0x115B SWAP1 PUSH2 0x1929 JUMP JUMPDEST DUP1 PUSH1 0x1F ADD PUSH1 0x20 DUP1 SWAP2 DIV MUL PUSH1 0x20 ADD PUSH1 0x40 MLOAD SWAP1 DUP2 ADD PUSH1 0x40 MSTORE DUP1 SWAP3 SWAP2 SWAP1 DUP2 DUP2 MSTORE PUSH1 0x20 ADD DUP3 DUP1 SLOAD PUSH2 0x1187 SWAP1 PUSH2 0x1929 JUMP JUMPDEST DUP1 ISZERO PUSH2 0x11D4 JUMPI DUP1 PUSH1 0x1F LT PUSH2 0x11A9 JUMPI PUSH2 0x100 DUP1 DUP4 SLOAD DIV MUL DUP4 MSTORE SWAP2 PUSH1 0x20 ADD SWAP2 PUSH2 0x11D4 JUMP JUMPDEST DUP3 ADD SWAP2 SWAP1 PUSH1 0x0 MSTORE PUSH1 0x20 PUSH1 0x0 KECCAK256 SWAP1 JUMPDEST DUP2 SLOAD DUP2 MSTORE SWAP1 PUSH1 0x1 ADD SWAP1 PUSH1 0x20 ADD DUP1 DUP4 GT PUSH2 0x11B7 JUMPI DUP3 SWAP1 SUB PUSH1 0x1F AND DUP3 ADD SWAP2 JUMPDEST POP POP POP POP POP DUP2 MSTORE PUSH1 0x20 ADD PUSH1 0x1 DUP3 ADD SLOAD DUP2 MSTORE PUSH1 0x20 ADD PUSH1 0x2 DUP3 ADD DUP1 SLOAD PUSH2 0x11F7 SWAP1 PUSH2 0x1929 JUMP JUMPDEST DUP1 PUSH1 0x1F ADD PUSH1 0x20 DUP1 SWAP2 DIV MUL PUSH1 0x20 ADD PUSH1 0x40 MLOAD SWAP1 DUP2 ADD PUSH1 0x40 MSTORE DUP1 SWAP3 SWAP2 SWAP1 DUP2 DUP2 MSTORE PUSH1 0x20 ADD DUP3 DUP1 SLOAD PUSH2 0x1223 SWAP1 PUSH2 0x1929 JUMP JUMPDEST DUP1 ISZERO PUSH2 0x1270 JUMPI DUP1 PUSH1 0x1F LT PUSH2 0x1245 JUMPI PUSH2 0x100 DUP1 DUP4 SLOAD DIV MUL DUP4 MSTORE SWAP2 PUSH1 0x20 ADD SWAP2 PUSH2 0x1270 JUMP JUMPDEST DUP3 ADD SWAP2 SWAP1 PUSH1 0x0 MSTORE PUSH1 0x20 PUSH1 0x0 KECCAK256 SWAP1 JUMPDEST DUP2 SLOAD DUP2 MSTORE SWAP1 PUSH1 0x1 ADD SWAP1 PUSH1 0x20 ADD DUP1 DUP4 GT PUSH2 0x1253 JUMPI DUP3 SWAP1 SUB PUSH1 0x1F AND DUP3 ADD SWAP2 JUMPDEST POP POP POP POP POP DUP2 MSTORE PUSH1 0x20 ADD PUSH1 0x3 DUP3 ADD PUSH1 0x0 SWAP1 SLOAD SWAP1 PUSH2 0x100 EXP SWAP1 DIV PUSH20 0xFFFFFFFFFFFFFFFFFFFFFFFFFFFFFFFFFFFFFFFF AND PUSH20 0xFFFFFFFFFFFFFFFFFFFFFFFFFFFFFFFFFFFFFFFF AND PUSH20 0xFFFFFFFFFFFFFFFFFFFFFFFFFFFFFFFFFFFFFFFF AND DUP2 MSTORE POP POP SWAP1 POP DUP5 SWAP4 POP DUP1 PUSH1 0x40 ADD MLOAD SWAP3 POP DUP1 PUSH1 0x0 ADD MLOAD SWAP2 POP POP SWAP2 SWAP4 SWAP1 SWAP3 POP JUMP JUMPDEST PUSH1 0x0 PUSH1 0x40 MLOAD SWAP1 POP SWAP1 JUMP JUMPDEST PUSH1 0x0 DUP1 REVERT JUMPDEST PUSH1 0x0 DUP1 REVERT JUMPDEST PUSH1 0x0 DUP2 SWAP1 POP SWAP2 SWAP1 POP JUMP JUMPDEST PUSH2 0x1311 DUP2 PUSH2 0x12FE JUMP JUMPDEST DUP2 EQ PUSH2 0x131C JUMPI PUSH1 0x0 DUP1 REVERT JUMPDEST POP JUMP JUMPDEST PUSH1 0x0 DUP2 CALLDATALOAD SWAP1 POP PUSH2 0x132E DUP2 PUSH2 0x1308 JUMP JUMPDEST SWAP3 SWAP2 POP POP JUMP JUMPDEST PUSH1 0x0 PUSH20 0xFFFFFFFFFFFFFFFFFFFFFFFFFFFFFFFFFFFFFFFF DUP3 AND SWAP1 POP SWAP2 SWAP1 POP JUMP JUMPDEST PUSH1 0x0 PUSH2 0x135F DUP3 PUSH2 0x1334 JUMP JUMPDEST SWAP1 POP SWAP2 SWAP1 POP JUMP JUMPDEST PUSH2 0x136F DUP2 PUSH2 0x1354 JUMP JUMPDEST DUP2 EQ PUSH2 0x137A JUMPI PUSH1 0x0 DUP1 REVERT JUMPDEST POP JUMP JUMPDEST PUSH1 0x0 DUP2 CALLDATALOAD SWAP1 POP PUSH2 0x138C DUP2 PUSH2 0x1366 JUMP JUMPDEST SWAP3 SWAP2 POP POP JUMP JUMPDEST PUSH1 0x0 DUP1 PUSH1 0x40 DUP4 DUP6 SUB SLT ISZERO PUSH2 0x13A9 JUMPI PUSH2 0x13A8 PUSH2 0x12F4 JUMP JUMPDEST JUMPDEST PUSH1 0x0 PUSH2 0x13B7 DUP6 DUP3 DUP7 ADD PUSH2 0x131F JUMP JUMPDEST SWAP3 POP POP PUSH1 0x20 PUSH2 0x13C8 DUP6 DUP3 DUP7 ADD PUSH2 0x137D JUMP JUMPDEST SWAP2 POP POP SWAP3 POP SWAP3 SWAP1 POP JUMP JUMPDEST PUSH1 0x0 PUSH1 0x20 DUP3 DUP5 SUB SLT ISZERO PUSH2 0x13E8 JUMPI PUSH2 0x13E7 PUSH2 0x12F4 JUMP JUMPDEST JUMPDEST PUSH1 0x0 PUSH2 0x13F6 DUP5 DUP3 DUP6 ADD PUSH2 0x137D JUMP JUMPDEST SWAP2 POP POP SWAP3 SWAP2 POP POP JUMP JUMPDEST PUSH1 0x0 DUP1 REVERT JUMPDEST PUSH1 0x0 DUP1 REVERT JUMPDEST PUSH1 0x0 PUSH1 0x1F NOT PUSH1 0x1F DUP4 ADD AND SWAP1 POP SWAP2 SWAP1 POP JUMP JUMPDEST PUSH32 0x4E487B7100000000000000000000000000000000000000000000000000000000 PUSH1 0x0 MSTORE PUSH1 0x41 PUSH1 0x4 MSTORE PUSH1 0x24 PUSH1 0x0 REVERT JUMPDEST PUSH2 0x1452 DUP3 PUSH2 0x1409 JUMP JUMPDEST DUP2 ADD DUP2 DUP2 LT PUSH8 0xFFFFFFFFFFFFFFFF DUP3 GT OR ISZERO PUSH2 0x1471 JUMPI PUSH2 0x1470 PUSH2 0x141A JUMP JUMPDEST JUMPDEST DUP1 PUSH1 0x40 MSTORE POP POP POP JUMP JUMPDEST PUSH1 0x0 PUSH2 0x1484 PUSH2 0x12EA JUMP JUMPDEST SWAP1 POP PUSH2 0x1490 DUP3 DUP3 PUSH2 0x1449 JUMP JUMPDEST SWAP2 SWAP1 POP JUMP JUMPDEST PUSH1 0x0 PUSH8 0xFFFFFFFFFFFFFFFF DUP3 GT ISZERO PUSH2 0x14B0 JUMPI PUSH2 0x14AF PUSH2 0x141A JUMP JUMPDEST JUMPDEST PUSH2 0x14B9 DUP3 PUSH2 0x1409 JUMP JUMPDEST SWAP1 POP PUSH1 0x20 DUP2 ADD SWAP1 POP SWAP2 SWAP1 POP JUMP JUMPDEST DUP3 DUP2 DUP4 CALLDATACOPY PUSH1 0x0 DUP4 DUP4 ADD MSTORE POP POP POP JUMP JUMPDEST PUSH1 0x0 PUSH2 0x14E8 PUSH2 0x14E3 DUP5 PUSH2 0x1495 JUMP JUMPDEST PUSH2 0x147A JUMP JUMPDEST SWAP1 POP DUP3 DUP2 MSTORE PUSH1 0x20 DUP2 ADD DUP5 DUP5 DUP5 ADD GT ISZERO PUSH2 0x1504 JUMPI PUSH2 0x1503 PUSH2 0x1404 JUMP JUMPDEST JUMPDEST PUSH2 0x150F DUP5 DUP3 DUP6 PUSH2 0x14C6 JUMP JUMPDEST POP SWAP4 SWAP3 POP POP POP JUMP JUMPDEST PUSH1 0x0 DUP3 PUSH1 0x1F DUP4 ADD SLT PUSH2 0x152C JUMPI PUSH2 0x152B PUSH2 0x13FF JUMP JUMPDEST JUMPDEST DUP2 CALLDATALOAD PUSH2 0x153C DUP5 DUP3 PUSH1 0x20 DUP7 ADD PUSH2 0x14D5 JUMP JUMPDEST SWAP2 POP POP SWAP3 SWAP2 POP POP JUMP JUMPDEST PUSH1 0x0 DUP1 PUSH1 0x0 PUSH1 0x60 DUP5 DUP7 SUB SLT ISZERO PUSH2 0x155E JUMPI PUSH2 0x155D PUSH2 0x12F4 JUMP JUMPDEST JUMPDEST PUSH1 0x0 DUP5 ADD CALLDATALOAD PUSH8 0xFFFFFFFFFFFFFFFF DUP2 GT ISZERO PUSH2 0x157C JUMPI PUSH2 0x157B PUSH2 0x12F9 JUMP JUMPDEST JUMPDEST PUSH2 0x1588 DUP7 DUP3 DUP8 ADD PUSH2 0x1517 JUMP JUMPDEST SWAP4 POP POP PUSH1 0x20 DUP5 ADD CALLDATALOAD PUSH8 0xFFFFFFFFFFFFFFFF DUP2 GT ISZERO PUSH2 0x15A9 JUMPI PUSH2 0x15A8 PUSH2 0x12F9 JUMP JUMPDEST JUMPDEST PUSH2 0x15B5 DUP7 DUP3 DUP8 ADD PUSH2 0x1517 JUMP JUMPDEST SWAP3 POP POP PUSH1 0x40 PUSH2 0x15C6 DUP7 DUP3 DUP8 ADD PUSH2 0x137D JUMP JUMPDEST SWAP2 POP POP SWAP3 POP SWAP3 POP SWAP3 JUMP JUMPDEST PUSH1 0x0 DUP2 MLOAD SWAP1 POP SWAP2 SWAP1 POP JUMP JUMPDEST PUSH1 0x0 DUP3 DUP3 MSTORE PUSH1 0x20 DUP3 ADD SWAP1 POP SWAP3 SWAP2 POP POP JUMP JUMPDEST PUSH1 0x0 JUMPDEST DUP4 DUP2 LT ISZERO PUSH2 0x160A JUMPI DUP1 DUP3 ADD MLOAD DUP2 DUP5 ADD MSTORE PUSH1 0x20 DUP2 ADD SWAP1 POP PUSH2 0x15EF JUMP JUMPDEST PUSH1 0x0 DUP5 DUP5 ADD MSTORE POP POP POP POP JUMP JUMPDEST PUSH1 0x0 PUSH2 0x1621 DUP3 PUSH2 0x15D0 JUMP JUMPDEST PUSH2 0x162B DUP2 DUP6 PUSH2 0x15DB JUMP JUMPDEST SWAP4 POP PUSH2 0x163B DUP2 DUP6 PUSH1 0x20 DUP7 ADD PUSH2 0x15EC JUMP JUMPDEST PUSH2 0x1644 DUP2 PUSH2 0x1409 JUMP JUMPDEST DUP5 ADD SWAP2 POP POP SWAP3 SWAP2 POP POP JUMP JUMPDEST PUSH2 0x1658 DUP2 PUSH2 0x12FE JUMP JUMPDEST DUP3 MSTORE POP POP JUMP JUMPDEST PUSH1 0x0 DUP2 ISZERO ISZERO SWAP1 POP SWAP2 SWAP1 POP JUMP JUMPDEST PUSH2 0x1673 DUP2 PUSH2 0x165E JUMP JUMPDEST DUP3 MSTORE POP POP JUMP JUMPDEST PUSH1 0x0 PUSH1 0x60 DUP3 ADD SWAP1 POP DUP2 DUP2 SUB PUSH1 0x0 DUP4 ADD MSTORE PUSH2 0x1693 DUP2 DUP7 PUSH2 0x1616 JUMP JUMPDEST SWAP1 POP PUSH2 0x16A2 PUSH1 0x20 DUP4 ADD DUP6 PUSH2 0x164F JUMP JUMPDEST PUSH2 0x16AF PUSH1 0x40 DUP4 ADD DUP5 PUSH2 0x166A JUMP JUMPDEST SWAP5 SWAP4 POP POP POP POP JUMP JUMPDEST PUSH1 0x0 PUSH1 0x20 DUP3 DUP5 SUB SLT ISZERO PUSH2 0x16CD JUMPI PUSH2 0x16CC PUSH2 0x12F4 JUMP JUMPDEST JUMPDEST PUSH1 0x0 PUSH2 0x16DB DUP5 DUP3 DUP6 ADD PUSH2 0x131F JUMP JUMPDEST SWAP2 POP POP SWAP3 SWAP2 POP POP JUMP JUMPDEST PUSH2 0x16ED DUP2 PUSH2 0x1354 JUMP JUMPDEST DUP3 MSTORE POP POP JUMP JUMPDEST PUSH1 0x0 PUSH1 0x80 DUP3 ADD SWAP1 POP DUP2 DUP2 SUB PUSH1 0x0 DUP4 ADD MSTORE PUSH2 0x170D DUP2 DUP8 PUSH2 0x1616 JUMP JUMPDEST SWAP1 POP PUSH2 0x171C PUSH1 0x20 DUP4 ADD DUP7 PUSH2 0x164F JUMP JUMPDEST DUP2 DUP2 SUB PUSH1 0x40 DUP4 ADD MSTORE PUSH2 0x172E DUP2 DUP6 PUSH2 0x1616 JUMP JUMPDEST SWAP1 POP PUSH2 0x173D PUSH1 0x60 DUP4 ADD DUP5 PUSH2 0x16E4 JUMP JUMPDEST SWAP6 SWAP5 POP POP POP POP POP JUMP JUMPDEST PUSH1 0x0 DUP1 PUSH1 0x0 PUSH1 0x60 DUP5 DUP7 SUB SLT ISZERO PUSH2 0x175F JUMPI PUSH2 0x175E PUSH2 0x12F4 JUMP JUMPDEST JUMPDEST PUSH1 0x0 DUP5 ADD CALLDATALOAD PUSH8 0xFFFFFFFFFFFFFFFF DUP2 GT ISZERO PUSH2 0x177D JUMPI PUSH2 0x177C PUSH2 0x12F9 JUMP JUMPDEST JUMPDEST PUSH2 0x1789 DUP7 DUP3 DUP8 ADD PUSH2 0x1517 JUMP JUMPDEST SWAP4 POP POP PUSH1 0x20 PUSH2 0x179A DUP7 DUP3 DUP8 ADD PUSH2 0x137D JUMP JUMPDEST SWAP3 POP POP PUSH1 0x40 PUSH2 0x17AB DUP7 DUP3 DUP8 ADD PUSH2 0x137D JUMP JUMPDEST SWAP2 POP POP SWAP3 POP SWAP3 POP SWAP3 JUMP JUMPDEST PUSH1 0x0 PUSH1 0x60 DUP3 ADD SWAP1 POP PUSH2 0x17CA PUSH1 0x0 DUP4 ADD DUP7 PUSH2 0x164F JUMP JUMPDEST PUSH2 0x17D7 PUSH1 0x20 DUP4 ADD DUP6 PUSH2 0x164F JUMP JUMPDEST DUP2 DUP2 SUB PUSH1 0x40 DUP4 ADD MSTORE PUSH2 0x17E9 DUP2 DUP5 PUSH2 0x1616 JUMP JUMPDEST SWAP1 POP SWAP5 SWAP4 POP POP POP POP JUMP JUMPDEST PUSH1 0x0 PUSH1 0x60 DUP3 ADD SWAP1 POP PUSH2 0x1808 PUSH1 0x0 DUP4 ADD DUP7 PUSH2 0x164F JUMP JUMPDEST DUP2 DUP2 SUB PUSH1 0x20 DUP4 ADD MSTORE PUSH2 0x181A DUP2 DUP6 PUSH2 0x1616 JUMP JUMPDEST SWAP1 POP PUSH2 0x1829 PUSH1 0x40 DUP4 ADD DUP5 PUSH2 0x164F JUMP JUMPDEST SWAP5 SWAP4 POP POP POP POP JUMP JUMPDEST PUSH1 0x0 PUSH1 0xFF DUP3 AND SWAP1 POP SWAP2 SWAP1 POP JUMP JUMPDEST PUSH2 0x1847 DUP2 PUSH2 0x1831 JUMP JUMPDEST DUP3 MSTORE POP POP JUMP JUMPDEST PUSH1 0x0 PUSH1 0xC0 DUP3 ADD SWAP1 POP PUSH2 0x1862 PUSH1 0x0 DUP4 ADD DUP10 PUSH2 0x164F JUMP JUMPDEST PUSH2 0x186F PUSH1 0x20 DUP4 ADD DUP9 PUSH2 0x164F JUMP JUMPDEST DUP2 DUP2 SUB PUSH1 0x40 DUP4 ADD MSTORE PUSH2 0x1881 DUP2 DUP8 PUSH2 0x1616 JUMP JUMPDEST SWAP1 POP PUSH2 0x1890 PUSH1 0x60 DUP4 ADD DUP7 PUSH2 0x183E JUMP JUMPDEST PUSH2 0x189D PUSH1 0x80 DUP4 ADD DUP6 PUSH2 0x164F JUMP JUMPDEST PUSH2 0x18AA PUSH1 0xA0 DUP4 ADD DUP5 PUSH2 0x16E4 JUMP JUMPDEST SWAP8 SWAP7 POP POP POP POP POP POP POP JUMP JUMPDEST PUSH1 0x0 PUSH1 0x60 DUP3 ADD SWAP1 POP PUSH2 0x18CA PUSH1 0x0 DUP4 ADD DUP7 PUSH2 0x164F JUMP JUMPDEST DUP2 DUP2 SUB PUSH1 0x20 DUP4 ADD MSTORE PUSH2 0x18DC DUP2 DUP6 PUSH2 0x1616 JUMP JUMPDEST SWAP1 POP DUP2 DUP2 SUB PUSH1 0x40 DUP4 ADD MSTORE PUSH2 0x18F0 DUP2 DUP5 PUSH2 0x1616 JUMP JUMPDEST SWAP1 POP SWAP5 SWAP4 POP POP POP POP JUMP JUMPDEST PUSH32 0x4E487B7100000000000000000000000000000000000000000000000000000000 PUSH1 0x0 MSTORE PUSH1 0x22 PUSH1 0x4 MSTORE PUSH1 0x24 PUSH1 0x0 REVERT JUMPDEST PUSH1 0x0 PUSH1 0x2 DUP3 DIV SWAP1 POP PUSH1 0x1 DUP3 AND DUP1 PUSH2 0x1941 JUMPI PUSH1 0x7F DUP3 AND SWAP2 POP JUMPDEST PUSH1 0x20 DUP3 LT DUP2 SUB PUSH2 0x1954 JUMPI PUSH2 0x1953 PUSH2 0x18FA JUMP JUMPDEST JUMPDEST POP SWAP2 SWAP1 POP JUMP JUMPDEST PUSH1 0x0 DUP2 SWAP1 POP SWAP3 SWAP2 POP POP JUMP JUMPDEST PUSH1 0x0 DUP2 SWAP1 POP DUP2 PUSH1 0x0 MSTORE PUSH1 0x20 PUSH1 0x0 KECCAK256 SWAP1 POP SWAP2 SWAP1 POP JUMP JUMPDEST PUSH1 0x0 DUP2 SLOAD PUSH2 0x1987 DUP2 PUSH2 0x1929 JUMP JUMPDEST PUSH2 0x1991 DUP2 DUP7 PUSH2 0x195A JUMP JUMPDEST SWAP5 POP PUSH1 0x1 DUP3 AND PUSH1 0x0 DUP2 EQ PUSH2 0x19AC JUMPI PUSH1 0x1 DUP2 EQ PUSH2 0x19C1 JUMPI PUSH2 0x19F4 JUMP JUMPDEST PUSH1 0xFF NOT DUP4 AND DUP7 MSTORE DUP2 ISZERO ISZERO DUP3 MUL DUP7 ADD SWAP4 POP PUSH2 0x19F4 JUMP JUMPDEST PUSH2 0x19CA DUP6 PUSH2 0x1965 JUMP JUMPDEST PUSH1 0x0 JUMPDEST DUP4 DUP2 LT ISZERO PUSH2 0x19EC JUMPI DUP2 SLOAD DUP2 DUP10 ADD MSTORE PUSH1 0x1 DUP3 ADD SWAP2 POP PUSH1 0x20 DUP2 ADD SWAP1 POP PUSH2 0x19CD JUMP JUMPDEST DUP4 DUP9 ADD SWAP6 POP POP POP JUMPDEST POP POP POP SWAP3 SWAP2 POP POP JUMP JUMPDEST PUSH1 0x0 PUSH2 0x1A09 DUP3 DUP5 PUSH2 0x197A JUMP JUMPDEST SWAP2 POP DUP2 SWAP1 POP SWAP3 SWAP2 POP POP JUMP JUMPDEST PUSH32 0x4E487B7100000000000000000000000000000000000000000000000000000000 PUSH1 0x0 MSTORE PUSH1 0x11 PUSH1 0x4 MSTORE PUSH1 0x24 PUSH1 0x0 REVERT JUMPDEST PUSH1 0x0 PUSH2 0x1A4E DUP3 PUSH2 0x12FE JUMP JUMPDEST SWAP2 POP PUSH2 0x1A59 DUP4 PUSH2 0x12FE JUMP JUMPDEST SWAP3 POP DUP3 DUP3 ADD SWAP1 POP DUP1 DUP3 GT ISZERO PUSH2 0x1A71 JUMPI PUSH2 0x1A70 PUSH2 0x1A14 JUMP JUMPDEST JUMPDEST SWAP3 SWAP2 POP POP JUMP JUMPDEST PUSH1 0x0 DUP2 SWAP1 POP DUP2 PUSH1 0x0 MSTORE PUSH1 0x20 PUSH1 0x0 KECCAK256 SWAP1 POP SWAP2 SWAP1 POP JUMP JUMPDEST PUSH1 0x0 PUSH1 0x20 PUSH1 0x1F DUP4 ADD DIV SWAP1 POP SWAP2 SWAP1 POP JUMP JUMPDEST PUSH1 0x0 DUP3 DUP3 SHL SWAP1 POP SWAP3 SWAP2 POP POP JUMP JUMPDEST PUSH1 0x0 PUSH1 0x8 DUP4 MUL PUSH2 0x1AD9 PUSH32 0xFFFFFFFFFFFFFFFFFFFFFFFFFFFFFFFFFFFFFFFFFFFFFFFFFFFFFFFFFFFFFFFF DUP3 PUSH2 0x1A9C JUMP JUMPDEST PUSH2 0x1AE3 DUP7 DUP4 PUSH2 0x1A9C JUMP JUMPDEST SWAP6 POP DUP1 NOT DUP5 AND SWAP4 POP DUP1 DUP7 AND DUP5 OR SWAP3 POP POP POP SWAP4 SWAP3 POP POP POP JUMP JUMPDEST PUSH1 0x0 DUP2 SWAP1 POP SWAP2 SWAP1 POP JUMP JUMPDEST PUSH1 0x0 PUSH2 0x1B20 PUSH2 0x1B1B PUSH2 0x1B16 DUP5 PUSH2 0x12FE JUMP JUMPDEST PUSH2 0x1AFB JUMP JUMPDEST PUSH2 0x12FE JUMP JUMPDEST SWAP1 POP SWAP2 SWAP1 POP JUMP JUMPDEST PUSH1 0x0 DUP2 SWAP1 POP SWAP2 SWAP1 POP JUMP JUMPDEST PUSH2 0x1B3A DUP4 PUSH2 0x1B05 JUMP JUMPDEST PUSH2 0x1B4E PUSH2 0x1B46 DUP3 PUSH2 0x1B27 JUMP JUMPDEST DUP5 DUP5 SLOAD PUSH2 0x1AA9 JUMP JUMPDEST DUP3 SSTORE POP POP POP POP JUMP JUMPDEST PUSH1 0x0 SWAP1 JUMP JUMPDEST PUSH2 0x1B63 PUSH2 0x1B56 JUMP JUMPDEST PUSH2 0x1B6E DUP2 DUP5 DUP5 PUSH2 0x1B31 JUMP JUMPDEST POP POP POP JUMP JUMPDEST JUMPDEST DUP2 DUP2 LT ISZERO PUSH2 0x1B92 JUMPI PUSH2 0x1B87 PUSH1 0x0 DUP3 PUSH2 0x1B5B JUMP JUMPDEST PUSH1 0x1 DUP2 ADD SWAP1 POP PUSH2 0x1B74 JUMP JUMPDEST POP POP JUMP JUMPDEST PUSH1 0x1F DUP3 GT ISZERO PUSH2 0x1BD7 JUMPI PUSH2 0x1BA8 DUP2 PUSH2 0x1A77 JUMP JUMPDEST PUSH2 0x1BB1 DUP5 PUSH2 0x1A8C JUMP JUMPDEST DUP2 ADD PUSH1 0x20 DUP6 LT ISZERO PUSH2 0x1BC0 JUMPI DUP2 SWAP1 POP JUMPDEST PUSH2 0x1BD4 PUSH2 0x1BCC DUP6 PUSH2 0x1A8C JUMP JUMPDEST DUP4 ADD DUP3 PUSH2 0x1B73 JUMP JUMPDEST POP POP JUMPDEST POP POP POP JUMP JUMPDEST PUSH1 0x0 DUP3 DUP3 SHR SWAP1 POP SWAP3 SWAP2 POP POP JUMP JUMPDEST PUSH1 0x0 PUSH2 0x1BFA PUSH1 0x0 NOT DUP5 PUSH1 0x8 MUL PUSH2 0x1BDC JUMP JUMPDEST NOT DUP1 DUP4 AND SWAP2 POP POP SWAP3 SWAP2 POP POP JUMP JUMPDEST PUSH1 0x0 PUSH2 0x1C13 DUP4 DUP4 PUSH2 0x1BE9 JUMP JUMPDEST SWAP2 POP DUP3 PUSH1 0x2 MUL DUP3 OR SWAP1 POP SWAP3 SWAP2 POP POP JUMP JUMPDEST PUSH2 0x1C2C DUP3 PUSH2 0x15D0 JUMP JUMPDEST PUSH8 0xFFFFFFFFFFFFFFFF DUP2 GT ISZERO PUSH2 0x1C45 JUMPI PUSH2 0x1C44 PUSH2 0x141A JUMP JUMPDEST JUMPDEST PUSH2 0x1C4F DUP3 SLOAD PUSH2 0x1929 JUMP JUMPDEST PUSH2 0x1C5A DUP3 DUP3 DUP6 PUSH2 0x1B96 JUMP JUMPDEST PUSH1 0x0 PUSH1 0x20 SWAP1 POP PUSH1 0x1F DUP4 GT PUSH1 0x1 DUP2 EQ PUSH2 0x1C8D JUMPI PUSH1 0x0 DUP5 ISZERO PUSH2 0x1C7B JUMPI DUP3 DUP8 ADD MLOAD SWAP1 POP JUMPDEST PUSH2 0x1C85 DUP6 DUP3 PUSH2 0x1C07 JUMP JUMPDEST DUP7 SSTORE POP PUSH2 0x1CED JUMP JUMPDEST PUSH1 0x1F NOT DUP5 AND PUSH2 0x1C9B DUP7 PUSH2 0x1A77 JUMP JUMPDEST PUSH1 0x0 JUMPDEST DUP3 DUP2 LT ISZERO PUSH2 0x1CC3 JUMPI DUP5 DUP10 ADD MLOAD DUP3 SSTORE PUSH1 0x1 DUP3 ADD SWAP2 POP PUSH1 0x20 DUP6 ADD SWAP5 POP PUSH1 0x20 DUP2 ADD SWAP1 POP PUSH2 0x1C9E JUMP JUMPDEST DUP7 DUP4 LT ISZERO PUSH2 0x1CE0 JUMPI DUP5 DUP10 ADD MLOAD PUSH2 0x1CDC PUSH1 0x1F DUP10 AND DUP3 PUSH2 0x1BE9 JUMP JUMPDEST DUP4 SSTORE POP JUMPDEST PUSH1 0x1 PUSH1 0x2 DUP9 MUL ADD DUP9 SSTORE POP POP POP JUMPDEST POP POP POP POP POP POP JUMP JUMPDEST PUSH1 0x0 PUSH2 0x1D00 DUP3 PUSH2 0x12FE JUMP JUMPDEST SWAP2 POP PUSH32 0xFFFFFFFFFFFFFFFFFFFFFFFFFFFFFFFFFFFFFFFFFFFFFFFFFFFFFFFFFFFFFFFF DUP3 SUB PUSH2 0x1D32 JUMPI PUSH2 0x1D31 PUSH2 0x1A14 JUMP JUMPDEST JUMPDEST PUSH1 0x1 DUP3 ADD SWAP1 POP SWAP2 SWAP1 POP JUMP JUMPDEST PUSH1 0x0 DUP2 SLOAD SWAP1 POP PUSH2 0x1D4C DUP2 PUSH2 0x1929 JUMP JUMPDEST SWAP1 POP SWAP2 SWAP1 POP JUMP JUMPDEST DUP2 DUP2 SUB PUSH2 0x1D61 JUMPI POP POP PUSH2 0x1E39 JUMP JUMPDEST PUSH2 0x1D6A DUP3 PUSH2 0x1D3D JUMP JUMPDEST PUSH8 0xFFFFFFFFFFFFFFFF DUP2 GT ISZERO PUSH2 0x1D83 JUMPI PUSH2 0x1D82 PUSH2 0x141A JUMP JUMPDEST JUMPDEST PUSH2 0x1D8D DUP3 SLOAD PUSH2 0x1929 JUMP JUMPDEST PUSH2 0x1D98 DUP3 DUP3 DUP6 PUSH2 0x1B96 JUMP JUMPDEST PUSH1 0x0 PUSH1 0x1F DUP4 GT PUSH1 0x1 DUP2 EQ PUSH2 0x1DC7 JUMPI PUSH1 0x0 DUP5 ISZERO PUSH2 0x1DB5 JUMPI DUP3 DUP8 ADD SLOAD SWAP1 POP JUMPDEST PUSH2 0x1DBF DUP6 DUP3 PUSH2 0x1C07 JUMP JUMPDEST DUP7 SSTORE POP PUSH2 0x1E32 JUMP JUMPDEST PUSH1 0x1F NOT DUP5 AND PUSH2 0x1DD5 DUP8 PUSH2 0x1A77 JUMP JUMPDEST SWAP7 POP PUSH2 0x1DE0 DUP7 PUSH2 0x1A77 JUMP JUMPDEST PUSH1 0x0 JUMPDEST DUP3 DUP2 LT ISZERO PUSH2 0x1E08 JUMPI DUP5 DUP10 ADD SLOAD DUP3 SSTORE PUSH1 0x1 DUP3 ADD SWAP2 POP PUSH1 0x1 DUP6 ADD SWAP5 POP PUSH1 0x20 DUP2 ADD SWAP1 POP PUSH2 0x1DE3 JUMP JUMPDEST DUP7 DUP4 LT ISZERO PUSH2 0x1E25 JUMPI DUP5 DUP10 ADD SLOAD PUSH2 0x1E21 PUSH1 0x1F DUP10 AND DUP3 PUSH2 0x1BE9 JUMP JUMPDEST DUP4 SSTORE POP JUMPDEST PUSH1 0x1 PUSH1 0x2 DUP9 MUL ADD DUP9 SSTORE POP POP POP JUMPDEST POP POP POP POP POP POP JUMPDEST JUMP JUMPDEST PUSH32 0x4E487B7100000000000000000000000000000000000000000000000000000000 PUSH1 0x0 MSTORE PUSH1 0x32 PUSH1 0x4 MSTORE PUSH1 0x24 PUSH1 0x0 REVERT JUMPDEST PUSH32 0x4F6E6C792061646D696E2063616E206769766520726967687420746F20766F74 PUSH1 0x0 DUP3 ADD MSTORE PUSH32 0x652E000000000000000000000000000000000000000000000000000000000000 PUSH1 0x20 DUP3 ADD MSTORE POP JUMP JUMPDEST PUSH1 0x0 PUSH2 0x1EC6 PUSH1 0x22 DUP4 PUSH2 0x15DB JUMP JUMPDEST SWAP2 POP PUSH2 0x1ED1 DUP3 PUSH2 0x1E6A JUMP JUMPDEST PUSH1 0x40 DUP3 ADD SWAP1 POP SWAP2 SWAP1 POP JUMP JUMPDEST PUSH1 0x0 PUSH1 0x20 DUP3 ADD SWAP1 POP DUP2 DUP2 SUB PUSH1 0x0 DUP4 ADD MSTORE PUSH2 0x1EF5 DUP2 PUSH2 0x1EB9 JUMP JUMPDEST SWAP1 POP SWAP2 SWAP1 POP JUMP JUMPDEST PUSH32 0x54686520766F74657220616C726561647920766F7465642E0000000000000000 PUSH1 0x0 DUP3 ADD MSTORE POP JUMP JUMPDEST PUSH1 0x0 PUSH2 0x1F32 PUSH1 0x18 DUP4 PUSH2 0x15DB JUMP JUMPDEST SWAP2 POP PUSH2 0x1F3D DUP3 PUSH2 0x1EFC JUMP JUMPDEST PUSH1 0x20 DUP3 ADD SWAP1 POP SWAP2 SWAP1 POP JUMP JUMPDEST PUSH1 0x0 PUSH1 0x20 DUP3 ADD SWAP1 POP DUP2 DUP2 SUB PUSH1 0x0 DUP4 ADD MSTORE PUSH2 0x1F61 DUP2 PUSH2 0x1F25 JUMP JUMPDEST SWAP1 POP SWAP2 SWAP1 POP JUMP INVALID LOG2 PUSH5 0x6970667358 0x22 SLT KECCAK256 PUSH23 0xC140BA0D96467DE79891FD00574202C7DEEF1FC40B331D 0xB7 INVALID 0x26 0x4E 0xAE PUSH21 0x41D464736F6C634300081200330000000000000000 "
				},
				"gasEstimates": {
					"creation": {
						"codeDepositCost": "1618800",
						"executionCost": "25960",
						"totalCost": "1644760"
					},
					"external": {
						"addCandidate(string,string,address)": "infinite",
						"addVoter(string,address,address)": "infinite",
						"candidates(uint256)": "infinite",
						"displayCandidateProfile(uint256)": "infinite",
						"displayVoterProfile(address)": "infinite",
						"endElection(address)": "infinite",
						"getCandidateElectionEsult(uint256)": "infinite",
						"getWinner()": "infinite",
						"giveRightToVote(uint256)": "31345",
						"startElection(address)": "infinite",
						"vote(uint256,address)": "infinite",
						"voters(uint256)": "infinite"
					}
				},
				"methodIdentifiers": {
					"addCandidate(string,string,address)": "0b32ff77",
					"addVoter(string,address,address)": "869d526d",
					"candidates(uint256)": "3477ee2e",
					"displayCandidateProfile(uint256)": "e82a2d18",
					"displayVoterProfile(address)": "2273b50a",
					"endElection(address)": "07e4b70a",
					"getCandidateElectionEsult(uint256)": "b1a713e7",
					"getWinner()": "8e7ea5b2",
					"giveRightToVote(uint256)": "bc23bd51",
					"startElection(address)": "e6a5e61d",
					"vote(uint256,address)": "02d947ef",
					"voters(uint256)": "da58c7d9"
				}
			},
			"storageLayout": {
				"storage": [
					{
						"astId": 37,
						"contract": "contracts/ElectronicVoting.sol:ElectronicVoting",
						"label": "cand",
						"offset": 0,
						"slot": "0",
						"type": "t_mapping(t_address,t_struct(Candidate)12_storage)"
					},
					{
						"astId": 42,
						"contract": "contracts/ElectronicVoting.sol:ElectronicVoting",
						"label": "voter",
						"offset": 0,
						"slot": "1",
						"type": "t_mapping(t_address,t_struct(Voter)25_storage)"
					},
					{
						"astId": 47,
						"contract": "contracts/ElectronicVoting.sol:ElectronicVoting",
						"label": "candWithId",
						"offset": 0,
						"slot": "2",
						"type": "t_mapping(t_uint256,t_struct(Candidate)12_storage)"
					},
					{
						"astId": 52,
						"contract": "contracts/ElectronicVoting.sol:ElectronicVoting",
						"label": "voterWithId",
						"offset": 0,
						"slot": "3",
						"type": "t_mapping(t_uint256,t_struct(Voter)25_storage)"
					},
					{
						"astId": 57,
						"contract": "contracts/ElectronicVoting.sol:ElectronicVoting",
						"label": "canResult",
						"offset": 0,
						"slot": "4",
						"type": "t_mapping(t_uint256,t_struct(CandidateResult)32_storage)"
					},
					{
						"astId": 61,
						"contract": "contracts/ElectronicVoting.sol:ElectronicVoting",
						"label": "votesCount",
						"offset": 0,
						"slot": "5",
						"type": "t_mapping(t_uint256,t_uint256)"
					},
					{
						"astId": 65,
						"contract": "contracts/ElectronicVoting.sol:ElectronicVoting",
						"label": "candidates",
						"offset": 0,
						"slot": "6",
						"type": "t_array(t_struct(Candidate)12_storage)dyn_storage"
					},
					{
						"astId": 69,
						"contract": "contracts/ElectronicVoting.sol:ElectronicVoting",
						"label": "voters",
						"offset": 0,
						"slot": "7",
						"type": "t_array(t_struct(Voter)25_storage)dyn_storage"
					},
					{
						"astId": 71,
						"contract": "contracts/ElectronicVoting.sol:ElectronicVoting",
						"label": "admin",
						"offset": 0,
						"slot": "8",
						"type": "t_address"
					},
					{
						"astId": 73,
						"contract": "contracts/ElectronicVoting.sol:ElectronicVoting",
						"label": "cint",
						"offset": 0,
						"slot": "9",
						"type": "t_uint256"
					},
					{
						"astId": 75,
						"contract": "contracts/ElectronicVoting.sol:ElectronicVoting",
						"label": "vint",
						"offset": 0,
						"slot": "10",
						"type": "t_uint256"
					},
					{
						"astId": 77,
						"contract": "contracts/ElectronicVoting.sol:ElectronicVoting",
						"label": "votingStarted",
						"offset": 0,
						"slot": "11",
						"type": "t_string_storage"
					}
				],
				"types": {
					"t_address": {
						"encoding": "inplace",
						"label": "address",
						"numberOfBytes": "20"
					},
					"t_array(t_struct(Candidate)12_storage)dyn_storage": {
						"base": "t_struct(Candidate)12_storage",
						"encoding": "dynamic_array",
						"label": "struct ElectronicVoting.Candidate[]",
						"numberOfBytes": "32"
					},
					"t_array(t_struct(Voter)25_storage)dyn_storage": {
						"base": "t_struct(Voter)25_storage",
						"encoding": "dynamic_array",
						"label": "struct ElectronicVoting.Voter[]",
						"numberOfBytes": "32"
					},
					"t_mapping(t_address,t_struct(Candidate)12_storage)": {
						"encoding": "mapping",
						"key": "t_address",
						"label": "mapping(address => struct ElectronicVoting.Candidate)",
						"numberOfBytes": "32",
						"value": "t_struct(Candidate)12_storage"
					},
					"t_mapping(t_address,t_struct(Voter)25_storage)": {
						"encoding": "mapping",
						"key": "t_address",
						"label": "mapping(address => struct ElectronicVoting.Voter)",
						"numberOfBytes": "32",
						"value": "t_struct(Voter)25_storage"
					},
					"t_mapping(t_uint256,t_struct(Candidate)12_storage)": {
						"encoding": "mapping",
						"key": "t_uint256",
						"label": "mapping(uint256 => struct ElectronicVoting.Candidate)",
						"numberOfBytes": "32",
						"value": "t_struct(Candidate)12_storage"
					},
					"t_mapping(t_uint256,t_struct(CandidateResult)32_storage)": {
						"encoding": "mapping",
						"key": "t_uint256",
						"label": "mapping(uint256 => struct ElectronicVoting.CandidateResult)",
						"numberOfBytes": "32",
						"value": "t_struct(CandidateResult)32_storage"
					},
					"t_mapping(t_uint256,t_struct(Voter)25_storage)": {
						"encoding": "mapping",
						"key": "t_uint256",
						"label": "mapping(uint256 => struct ElectronicVoting.Voter)",
						"numberOfBytes": "32",
						"value": "t_struct(Voter)25_storage"
					},
					"t_mapping(t_uint256,t_uint256)": {
						"encoding": "mapping",
						"key": "t_uint256",
						"label": "mapping(uint256 => uint256)",
						"numberOfBytes": "32",
						"value": "t_uint256"
					},
					"t_string_storage": {
						"encoding": "bytes",
						"label": "string",
						"numberOfBytes": "32"
					},
					"t_struct(Candidate)12_storage": {
						"encoding": "inplace",
						"label": "struct ElectronicVoting.Candidate",
						"members": [
							{
								"astId": 5,
								"contract": "contracts/ElectronicVoting.sol:ElectronicVoting",
								"label": "Cname",
								"offset": 0,
								"slot": "0",
								"type": "t_string_storage"
							},
							{
								"astId": 7,
								"contract": "contracts/ElectronicVoting.sol:ElectronicVoting",
								"label": "candidateId",
								"offset": 0,
								"slot": "1",
								"type": "t_uint256"
							},
							{
								"astId": 9,
								"contract": "contracts/ElectronicVoting.sol:ElectronicVoting",
								"label": "proposal",
								"offset": 0,
								"slot": "2",
								"type": "t_string_storage"
							},
							{
								"astId": 11,
								"contract": "contracts/ElectronicVoting.sol:ElectronicVoting",
								"label": "CEAddress",
								"offset": 0,
								"slot": "3",
								"type": "t_address"
							}
						],
						"numberOfBytes": "128"
					},
					"t_struct(CandidateResult)32_storage": {
						"encoding": "inplace",
						"label": "struct ElectronicVoting.CandidateResult",
						"members": [
							{
								"astId": 27,
								"contract": "contracts/ElectronicVoting.sol:ElectronicVoting",
								"label": "candidateId",
								"offset": 0,
								"slot": "0",
								"type": "t_uint256"
							},
							{
								"astId": 29,
								"contract": "contracts/ElectronicVoting.sol:ElectronicVoting",
								"label": "candidateName",
								"offset": 0,
								"slot": "1",
								"type": "t_string_storage"
							},
							{
								"astId": 31,
								"contract": "contracts/ElectronicVoting.sol:ElectronicVoting",
								"label": "votesCount",
								"offset": 0,
								"slot": "2",
								"type": "t_uint256"
							}
						],
						"numberOfBytes": "96"
					},
					"t_struct(Voter)25_storage": {
						"encoding": "inplace",
						"label": "struct ElectronicVoting.Voter",
						"members": [
							{
								"astId": 14,
								"contract": "contracts/ElectronicVoting.sol:ElectronicVoting",
								"label": "voterId",
								"offset": 0,
								"slot": "0",
								"type": "t_uint256"
							},
							{
								"astId": 16,
								"contract": "contracts/ElectronicVoting.sol:ElectronicVoting",
								"label": "weight",
								"offset": 0,
								"slot": "1",
								"type": "t_uint256"
							},
							{
								"astId": 18,
								"contract": "contracts/ElectronicVoting.sol:ElectronicVoting",
								"label": "Vname",
								"offset": 0,
								"slot": "2",
								"type": "t_string_storage"
							},
							{
								"astId": 20,
								"contract": "contracts/ElectronicVoting.sol:ElectronicVoting",
								"label": "age",
								"offset": 0,
								"slot": "3",
								"type": "t_uint8"
							},
							{
								"astId": 22,
								"contract": "contracts/ElectronicVoting.sol:ElectronicVoting",
								"label": "votedTo",
								"offset": 0,
								"slot": "4",
								"type": "t_uint256"
							},
							{
								"astId": 24,
								"contract": "contracts/ElectronicVoting.sol:ElectronicVoting",
								"label": "VEAddress",
								"offset": 0,
								"slot": "5",
								"type": "t_address"
							}
						],
						"numberOfBytes": "192"
					},
					"t_uint256": {
						"encoding": "inplace",
						"label": "uint256",
						"numberOfBytes": "32"
					},
					"t_uint8": {
						"encoding": "inplace",
						"label": "uint8",
						"numberOfBytes": "1"
					}
				}
			},
			"userdoc": {
				"kind": "user",
				"methods": {},
				"version": 1
			}
		}
	}
}