{
	"data": {
		"bytecode": {
			"linkReferences": {},
			"object": "608060405234801562000010575f80fd5b50604051620048b9380380620048b9833981810160405281019062000036919062002623565b62000046620000ac60201b60201c565b6200005662000f1e60201b60201c565b81600581905550806006819055503360045f6101000a81548173ffffffffffffffffffffffffffffffffffffffff021916908373ffffffffffffffffffffffffffffffffffffffff160217905550505062002a4d565b5f600e67ffffffffffffffff811115620000cb57620000ca62002668565b5b6040519080825280602002602001820160405280156200010857816020015b620000f4620025ae565b815260200190600190039081620000ea5790505b5090506040518060c001604052806040518060400160405280601281526020017f4368616e6472612042616275204e61696475000000000000000000000000000081525081526020016040518060400160405280600381526020017f544450000000000000000000000000000000000000000000000000000000000081525081526020016040518060800160405280604c81526020016200486d604c9139815260200164a96106e5a68152602001600a60ff168152602001600160ff16815250815f81518110620001de57620001dd62002695565b5b60200260200101819052506040518060c001604052806040518060400160405280601181526020017f4a6167616e204d6f68616e20526564647900000000000000000000000000000081525081526020016040518060400160405280600581526020017f595352435000000000000000000000000000000000000000000000000000000081525081526020016040518060800160405280604e8152602001620046d6604e9139815260200164c27e5da76e8152602001600a60ff168152602001600160ff1681525081600181518110620002bd57620002bc62002695565b5b60200260200101819052506040518060c001604052806040518060400160405280600e81526020017f47205620416e6a616e6579756c7500000000000000000000000000000000000081525081526020016040518060400160405280600381526020017f544450000000000000000000000000000000000000000000000000000000000081525081526020016040518060800160405280604c81526020016200486d604c9139815260200164e19f3e55b78152602001600a60ff168152602001600260ff16815250816002815181106200039c576200039b62002695565b5b60200260200101819052506040518060c001604052806040518060400160405280601081526020017f416e696c204b756d61722059616461760000000000000000000000000000000081525081526020016040518060400160405280600581526020017f595352435000000000000000000000000000000000000000000000000000000081525081526020016040518060800160405280604e8152602001620046d6604e913981526020016463f451cce28152602001600a60ff168152602001600260ff16815250816003815181106200047b576200047a62002695565b5b60200260200101819052506040518060c001604052806040518060400160405280600d81526020017f4e6172656e647261204d6f64690000000000000000000000000000000000000081525081526020016040518060400160405280600381526020017f424a50000000000000000000000000000000000000000000000000000000000081525081526020016040518060800160405280604c815260200162004724604c9139815260200164d077cd0b7d8152602001600b60ff168152602001600160ff16815250816004815181106200055a576200055962002695565b5b60200260200101819052506040518060c001604052806040518060400160405280600c81526020017f526168756c2047616e646869000000000000000000000000000000000000000081525081526020016040518060400160405280600381526020017f494e43000000000000000000000000000000000000000000000000000000000081525081526020016040518060800160405280604c8152602001620047bc604c9139815260200164ccd999a21c8152602001600b60ff168152602001600160ff168152508160058151811062000639576200063862002695565b5b60200260200101819052506040518060c001604052806040518060400160405280600d81526020017f54656a617377692059616461760000000000000000000000000000000000000081525081526020016040518060400160405280600381526020017f524a44000000000000000000000000000000000000000000000000000000000081525081526020016040518060800160405280605c81526020016200467a605c9139815260200164e773cd9afe8152602001600b60ff168152602001600160ff168152508160068151811062000718576200071762002695565b5b60200260200101819052506040518060c001604052806040518060400160405280600f81526020017f417276696e64204b656a726977616c000000000000000000000000000000000081525081526020016040518060400160405280600381526020017f414150000000000000000000000000000000000000000000000000000000000081525081526020016040518060800160405280604c815260200162004770604c9139815260200164bbe6eb29d58152602001600b60ff168152602001600160ff1681525081600781518110620007f757620007f662002695565b5b60200260200101819052506040518060c001604052806040518060400160405280600a81526020017f4a796f746920426173750000000000000000000000000000000000000000000081525081526020016040518060400160405280600481526020017f4350494d0000000000000000000000000000000000000000000000000000000081525081526020016040518060a001604052806065815260200162004808606591398152602001648f444202748152602001600b60ff168152602001600160ff1681525081600881518110620008d657620008d562002695565b5b60200260200101819052506040518060c001604052806040518060400160405280600981526020017f416d69742053686168000000000000000000000000000000000000000000000081525081526020016040518060400160405280600381526020017f424a50000000000000000000000000000000000000000000000000000000000081525081526020016040518060800160405280604c815260200162004724604c91398152602001648e7ddb11c28152602001600b60ff168152602001600260ff1681525081600981518110620009b557620009b462002695565b5b60200260200101819052506040518060c001604052806040518060400160405280600f81526020017f50726979616e6b612047616e646869000000000000000000000000000000000081525081526020016040518060400160405280600381526020017f494e43000000000000000000000000000000000000000000000000000000000081525081526020016040518060800160405280604c8152602001620047bc604c9139815260200164c9c70244b08152602001600b60ff168152602001600260ff1681525081600a8151811062000a945762000a9362002695565b5b60200260200101819052506040518060c001604052806040518060400160405280600a81526020017f4c616c752059616461760000000000000000000000000000000000000000000081525081526020016040518060400160405280600381526020017f524a44000000000000000000000000000000000000000000000000000000000081525081526020016040518060800160405280605c81526020016200467a605c9139815260200164b248bcb8c18152602001600b60ff168152602001600260ff1681525081600b8151811062000b735762000b7262002695565b5b60200260200101819052506040518060c001604052806040518060400160405280600e81526020017f4d616e697368205369736f64696100000000000000000000000000000000000081525081526020016040518060400160405280600381526020017f414150000000000000000000000000000000000000000000000000000000000081525081526020016040518060800160405280604c815260200162004770604c9139815260200164d10c6172548152602001600b60ff168152602001600260ff1681525081600c8151811062000c525762000c5162002695565b5b60200260200101819052506040518060c001604052806040518060400160405280600d81526020017f5072616b617368204b617261740000000000000000000000000000000000000081525081526020016040518060400160405280600481526020017f4350494d0000000000000000000000000000000000000000000000000000000081525081526020016040518060a001604052806065815260200162004808606591398152602001646bfb1a26268152602001600b60ff168152602001600260ff1681525081600d8151811062000d315762000d3062002695565b5b60200260200101819052505f5b815181101562000f1a5781818151811062000d5e5762000d5d62002695565b5b602002602001015160025f84848151811062000d7f5762000d7e62002695565b5b60200260200101516060015181526020019081526020015f205f820151815f01908162000dad9190620028f0565b50602082015181600101908162000dc59190620028f0565b50604082015181600201908162000ddd9190620028f0565b50606082015181600301556080820151816004015f6101000a81548160ff021916908360ff16021790555060a08201518160040160016101000a81548160ff021916908360ff1602179055509050505f82828151811062000e435762000e4262002695565b5b6020026020010151908060018154018082558091505060019003905f5260205f2090600502015f909190919091505f820151815f01908162000e869190620028f0565b50602082015181600101908162000e9e9190620028f0565b50604082015181600201908162000eb69190620028f0565b50606082015181600301556080820151816004015f6101000a81548160ff021916908360ff16021790555060a08201518160040160016101000a81548160ff021916908360ff1602179055505050808062000f119062002a01565b91505062000d3e565b5050565b6040518060e0016040528064704892d02481526020016040518060400160405280600681526020017f53757265736800000000000000000000000000000000000000000000000000008152508152602001601560ff168152602001600a60ff168152602001600160ff1681526020016001151581526020015f81525060015f64704892d02481526020019081526020015f205f820151815f0155602082015181600101908162000fcf9190620028f0565b506040820151816002015f6101000a81548160ff021916908360ff16021790555060608201518160020160016101000a81548160ff021916908360ff16021790555060808201518160020160026101000a81548160ff021916908360ff16021790555060a08201518160020160036101000a81548160ff02191690831515021790555060c082015181600301559050506040518060e00160405280647be4f5771b81526020016040518060400160405280600681526020017f52616d65736800000000000000000000000000000000000000000000000000008152508152602001602560ff168152602001600a60ff168152602001600160ff1681526020015f151581526020015f81525060015f647be4f5771b81526020019081526020015f205f820151815f015560208201518160010190816200110f9190620028f0565b506040820151816002015f6101000a81548160ff021916908360ff16021790555060608201518160020160016101000a81548160ff021916908360ff16021790555060808201518160020160026101000a81548160ff021916908360ff16021790555060a08201518160020160036101000a81548160ff02191690831515021790555060c082015181600301559050506040518060e00160405280646cfae753fe81526020016040518060400160405280600681526020017f4d616865736800000000000000000000000000000000000000000000000000008152508152602001601a60ff168152602001600a60ff168152602001600160ff1681526020016001151581526020015f81525060015f646cfae753fe81526020019081526020015f205f820151815f01556020820151816001019081620012509190620028f0565b506040820151816002015f6101000a81548160ff021916908360ff16021790555060608201518160020160016101000a81548160ff021916908360ff16021790555060808201518160020160026101000a81548160ff021916908360ff16021790555060a08201518160020160036101000a81548160ff02191690831515021790555060c082015181600301559050506040518060e0016040528064bc95724c2d81526020016040518060400160405280600781526020017f4b726973686e61000000000000000000000000000000000000000000000000008152508152602001601360ff168152602001600a60ff168152602001600260ff1681526020016001151581526020015f81525060015f64bc95724c2d81526020019081526020015f205f820151815f01556020820151816001019081620013919190620028f0565b506040820151816002015f6101000a81548160ff021916908360ff16021790555060608201518160020160016101000a81548160ff021916908360ff16021790555060808201518160020160026101000a81548160ff021916908360ff16021790555060a08201518160020160036101000a81548160ff02191690831515021790555060c082015181600301559050506040518060e0016040528064d38e2fd0d681526020016040518060400160405280600881526020017f4e6172656e6472610000000000000000000000000000000000000000000000008152508152602001602460ff168152602001600a60ff168152602001600260ff1681526020016001151581526020015f81525060015f64d38e2fd0d681526020019081526020015f205f820151815f01556020820151816001019081620014d29190620028f0565b506040820151816002015f6101000a81548160ff021916908360ff16021790555060608201518160020160016101000a81548160ff021916908360ff16021790555060808201518160020160026101000a81548160ff021916908360ff16021790555060a08201518160020160036101000a81548160ff02191690831515021790555060c082015181600301559050506040518060e0016040528064b1081230bf81526020016040518060400160405280600581526020017f52616768750000000000000000000000000000000000000000000000000000008152508152602001602a60ff168152602001600a60ff168152602001600260ff1681526020016001151581526020015f81525060015f64b1081230bf81526020019081526020015f205f820151815f01556020820151816001019081620016139190620028f0565b506040820151816002015f6101000a81548160ff021916908360ff16021790555060608201518160020160016101000a81548160ff021916908360ff16021790555060808201518160020160026101000a81548160ff021916908360ff16021790555060a08201518160020160036101000a81548160ff02191690831515021790555060c082015181600301559050506040518060e0016040528064d392fd0ce681526020016040518060400160405280600d81526020017f507573686b6172204b756d6172000000000000000000000000000000000000008152508152602001601960ff168152602001600b60ff168152602001600160ff1681526020016001151581526020015f81525060015f64d392fd0ce681526020019081526020015f205f820151815f01556020820151816001019081620017549190620028f0565b506040820151816002015f6101000a81548160ff021916908360ff16021790555060608201518160020160016101000a81548160ff021916908360ff16021790555060808201518160020160026101000a81548160ff021916908360ff16021790555060a08201518160020160036101000a81548160ff02191690831515021790555060c082015181600301559050506040518060e0016040528064b55b93624481526020016040518060400160405280600b81526020017f4b756e616c204b756d61720000000000000000000000000000000000000000008152508152602001602560ff168152602001600b60ff168152602001600160ff1681526020016001151581526020015f81525060015f64b55b93624481526020019081526020015f205f820151815f01556020820151816001019081620018959190620028f0565b506040820151816002015f6101000a81548160ff021916908360ff16021790555060608201518160020160016101000a81548160ff021916908360ff16021790555060808201518160020160026101000a81548160ff021916908360ff16021790555060a08201518160020160036101000a81548160ff02191690831515021790555060c082015181600301559050506040518060e00160405280645b84e787e781526020016040518060400160405280600c81526020017f4b756d61722053616e6b657400000000000000000000000000000000000000008152508152602001601d60ff168152602001600b60ff168152602001600260ff1681526020016001151581526020015f81525060015f645b84e787e781526020019081526020015f205f820151815f01556020820151816001019081620019d69190620028f0565b506040820151816002015f6101000a81548160ff021916908360ff16021790555060608201518160020160016101000a81548160ff021916908360ff16021790555060808201518160020160026101000a81548160ff021916908360ff16021790555060a08201518160020160036101000a81548160ff02191690831515021790555060c082015181600301559050506040518060e0016040528064e513eca33181526020016040518060400160405280600681526020017f50726174696b00000000000000000000000000000000000000000000000000008152508152602001602860ff168152602001600b60ff168152602001600260ff1681526020016001151581526020015f81525060015f64e513eca33181526020019081526020015f205f820151815f0155602082015181600101908162001b179190620028f0565b506040820151816002015f6101000a81548160ff021916908360ff16021790555060608201518160020160016101000a81548160ff021916908360ff16021790555060808201518160020160026101000a81548160ff021916908360ff16021790555060a08201518160020160036101000a81548160ff02191690831515021790555060c082015181600301559050506040518060e0016040528064b02a4c06cd81526020016040518060400160405280600581526020017f41617573690000000000000000000000000000000000000000000000000000008152508152602001605560ff168152602001600b60ff168152602001600160ff1681526020015f151581526020015f81525060015f64b02a4c06cd81526020019081526020015f205f820151815f0155602082015181600101908162001c579190620028f0565b506040820151816002015f6101000a81548160ff021916908360ff16021790555060608201518160020160016101000a81548160ff021916908360ff16021790555060808201518160020160026101000a81548160ff021916908360ff16021790555060a08201518160020160036101000a81548160ff02191690831515021790555060c082015181600301559050506040518060e001604052806488ee0e303181526020016040518060400160405280600781526020017f50726174696261000000000000000000000000000000000000000000000000008152508152602001604460ff168152602001600b60ff168152602001600260ff1681526020015f151581526020015f81525060015f6488ee0e303181526020019081526020015f205f820151815f0155602082015181600101908162001d979190620028f0565b506040820151816002015f6101000a81548160ff021916908360ff16021790555060608201518160020160016101000a81548160ff021916908360ff16021790555060808201518160020160026101000a81548160ff021916908360ff16021790555060a08201518160020160036101000a81548160ff02191690831515021790555060c082015181600301559050506040518060e0016040528064e1522cf91581526020016040518060400160405280600781526020017f52756368696b61000000000000000000000000000000000000000000000000008152508152602001601a60ff168152602001600b60ff168152602001600160ff1681526020016001151581526020015f81525060015f64e1522cf91581526020019081526020015f205f820151815f0155602082015181600101908162001ed89190620028f0565b506040820151816002015f6101000a81548160ff021916908360ff16021790555060608201518160020160016101000a81548160ff021916908360ff16021790555060808201518160020160026101000a81548160ff021916908360ff16021790555060a08201518160020160036101000a81548160ff02191690831515021790555060c082015181600301559050506040518060e0016040528064a97c7f00ef81526020016040518060400160405280600781526020017f52616d62616275000000000000000000000000000000000000000000000000008152508152602001601160ff168152602001600b60ff168152602001600160ff1681526020016001151581526020015f81525060015f64a97c7f00ef81526020019081526020015f205f820151815f01556020820151816001019081620020199190620028f0565b506040820151816002015f6101000a81548160ff021916908360ff16021790555060608201518160020160016101000a81548160ff021916908360ff16021790555060808201518160020160026101000a81548160ff021916908360ff16021790555060a08201518160020160036101000a81548160ff02191690831515021790555060c082015181600301559050506040518060e00160405280648dcc2d6c7881526020016040518060400160405280600781526020017f4d6174616a6969000000000000000000000000000000000000000000000000008152508152602001606260ff168152602001600b60ff168152602001600160ff1681526020016001151581526020015f81525060015f648dcc2d6c7881526020019081526020015f205f820151815f015560208201518160010190816200215a9190620028f0565b506040820151816002015f6101000a81548160ff021916908360ff16021790555060608201518160020160016101000a81548160ff021916908360ff16021790555060808201518160020160026101000a81548160ff021916908360ff16021790555060a08201518160020160036101000a81548160ff02191690831515021790555060c082015181600301559050506040518060e001604052806490614c757c81526020016040518060400160405280600681526020017f4d616d61746100000000000000000000000000000000000000000000000000008152508152602001603f60ff168152602001600b60ff168152602001600260ff1681526020015f151581526020015f81525060015f6490614c757c81526020019081526020015f205f820151815f015560208201518160010190816200229a9190620028f0565b506040820151816002015f6101000a81548160ff021916908360ff16021790555060608201518160020160016101000a81548160ff021916908360ff16021790555060808201518160020160026101000a81548160ff021916908360ff16021790555060a08201518160020160036101000a81548160ff02191690831515021790555060c082015181600301559050506040518060e00160405280645df6210bd181526020016040518060400160405280600a81526020017f52617669205661726d61000000000000000000000000000000000000000000008152508152602001602a60ff168152602001600b60ff168152602001600260ff1681526020016001151581526020015f81525060015f645df6210bd181526020019081526020015f205f820151815f01556020820151816001019081620023db9190620028f0565b506040820151816002015f6101000a81548160ff021916908360ff16021790555060608201518160020160016101000a81548160ff021916908360ff16021790555060808201518160020160026101000a81548160ff021916908360ff16021790555060a08201518160020160036101000a81548160ff02191690831515021790555060c082015181600301559050506040518060e0016040528064c31aeaf9aa81526020016040518060400160405280600581526020017f526168756c0000000000000000000000000000000000000000000000000000008152508152602001603860ff168152602001600b60ff168152602001600260ff1681526020016001151581526020015f81525060015f64c31aeaf9aa81526020019081526020015f205f820151815f015560208201518160010190816200251c9190620028f0565b506040820151816002015f6101000a81548160ff021916908360ff16021790555060608201518160020160016101000a81548160ff021916908360ff16021790555060808201518160020160026101000a81548160ff021916908360ff16021790555060a08201518160020160036101000a81548160ff02191690831515021790555060c08201518160030155905050565b6040518060c001604052806060815260200160608152602001606081526020015f81526020015f60ff1681526020015f60ff1681525090565b5f80fd5b5f819050919050565b620025ff81620025eb565b81146200260a575f80fd5b50565b5f815190506200261d81620025f4565b92915050565b5f80604083850312156200263c576200263b620025e7565b5b5f6200264b858286016200260d565b92505060206200265e858286016200260d565b9150509250929050565b7f4e487b71000000000000000000000000000000000000000000000000000000005f52604160045260245ffd5b7f4e487b71000000000000000000000000000000000000000000000000000000005f52603260045260245ffd5b5f81519050919050565b7f4e487b71000000000000000000000000000000000000000000000000000000005f52602260045260245ffd5b5f60028204905060018216806200271157607f821691505b602082108103620027275762002726620026cc565b5b50919050565b5f819050815f5260205f209050919050565b5f6020601f8301049050919050565b5f82821b905092915050565b5f600883026200278b7fffffffffffffffffffffffffffffffffffffffffffffffffffffffffffffffff826200274e565b6200279786836200274e565b95508019841693508086168417925050509392505050565b5f819050919050565b5f620027d8620027d2620027cc84620025eb565b620027af565b620025eb565b9050919050565b5f819050919050565b620027f383620027b8565b6200280b6200280282620027df565b8484546200275a565b825550505050565b5f90565b6200282162002813565b6200282e818484620027e8565b505050565b5b818110156200285557620028495f8262002817565b60018101905062002834565b5050565b601f821115620028a4576200286e816200272d565b62002879846200273f565b8101602085101562002889578190505b620028a162002898856200273f565b83018262002833565b50505b505050565b5f82821c905092915050565b5f620028c65f1984600802620028a9565b1980831691505092915050565b5f620028e08383620028b5565b9150826002028217905092915050565b620028fb82620026c2565b67ffffffffffffffff81111562002917576200291662002668565b5b620029238254620026f9565b6200293082828562002859565b5f60209050601f83116001811462002966575f841562002951578287015190505b6200295d8582620028d3565b865550620029cc565b601f19841662002976866200272d565b5f5b828110156200299f5784890151825560018201915060208501945060208101905062002978565b86831015620029bf5784890151620029bb601f891682620028b5565b8355505b6001600288020188555050505b505050505050565b7f4e487b71000000000000000000000000000000000000000000000000000000005f52601160045260245ffd5b5f62002a0d82620025eb565b91507fffffffffffffffffffffffffffffffffffffffffffffffffffffffffffffffff820362002a425762002a41620029d4565b5b600182019050919050565b611c1f8062002a5b5f395ff3fe608060405234801561000f575f80fd5b5060043610610091575f3560e01c806381a60c0d1161006457806381a60c0d146101475780638a6655d614610177578063b1bf87b014610193578063b9d84552146101b1578063dce8d8a3146101cd57610091565b80633477ee2e146100955780635d816e22146100ca5780635e23c37c146100e6578063618bde0a14610117575b5f80fd5b6100af60048036038101906100aa9190611445565b6101fd565b6040516100c196959493929190611524565b60405180910390f35b6100e460048036038101906100df9190611598565b6103ee565b005b61010060048036038101906100fb9190611445565b61046b565b60405161010e9291906116ea565b60405180910390f35b610131600480360381019061012c9190611445565b6106be565b60405161013e9190611867565b60405180910390f35b610161600480360381019061015c9190611445565b610b11565b60405161016e91906119e9565b60405180910390f35b610191600480360381019061018c9190611a09565b610ea6565b005b61019b6112c6565b6040516101a89190611a59565b60405180910390f35b6101cb60048036038101906101c69190611598565b6112cf565b005b6101e760048036038101906101e29190611445565b61133f565b6040516101f49190611a72565b60405180910390f35b5f818154811061020b575f80fd5b905f5260205f2090600502015f91509050805f01805461022a90611ab8565b80601f016020809104026020016040519081016040528092919081815260200182805461025690611ab8565b80156102a15780601f10610278576101008083540402835291602001916102a1565b820191905f5260205f20905b81548152906001019060200180831161028457829003601f168201915b5050505050908060010180546102b690611ab8565b80601f01602080910402602001604051908101604052809291908181526020018280546102e290611ab8565b801561032d5780601f106103045761010080835404028352916020019161032d565b820191905f5260205f20905b81548152906001019060200180831161031057829003601f168201915b50505050509080600201805461034290611ab8565b80601f016020809104026020016040519081016040528092919081815260200182805461036e90611ab8565b80156103b95780601f10610390576101008083540402835291602001916103b9565b820191905f5260205f20905b81548152906001019060200180831161039c57829003601f168201915b505050505090806003015490806004015f9054906101000a900460ff16908060040160019054906101000a900460ff16905086565b60045f9054906101000a900473ffffffffffffffffffffffffffffffffffffffff1673ffffffffffffffffffffffffffffffffffffffff163373ffffffffffffffffffffffffffffffffffffffff1614610446575f80fd5b8060055410610453575f80fd5b8060065411610460575f80fd5b816006819055505050565b5f610474611396565b5f60015f8581526020019081526020015f20600301541415915081156106b95760025f60015f8681526020019081526020015f206003015481526020019081526020015f206040518060c00160405290815f820180546104d390611ab8565b80601f01602080910402602001604051908101604052809291908181526020018280546104ff90611ab8565b801561054a5780601f106105215761010080835404028352916020019161054a565b820191905f5260205f20905b81548152906001019060200180831161052d57829003601f168201915b5050505050815260200160018201805461056390611ab8565b80601f016020809104026020016040519081016040528092919081815260200182805461058f90611ab8565b80156105da5780601f106105b1576101008083540402835291602001916105da565b820191905f5260205f20905b8154815290600101906020018083116105bd57829003601f168201915b505050505081526020016002820180546105f390611ab8565b80601f016020809104026020016040519081016040528092919081815260200182805461061f90611ab8565b801561066a5780601f106106415761010080835404028352916020019161066a565b820191905f5260205f20905b81548152906001019060200180831161064d57829003601f168201915b5050505050815260200160038201548152602001600482015f9054906101000a900460ff1660ff1660ff1681526020016004820160019054906101000a900460ff1660ff1660ff168152505090505b915091565b60605f60015f8481526020019081526020015f2090505f805b5f805490508110156107a3575f81815481106106f6576106f5611ae8565b5b905f5260205f2090600502016004015f9054906101000a900460ff1660ff168360020160019054906101000a900460ff1660ff1614801561077c57505f818154811061074557610744611ae8565b5b905f5260205f20906005020160040160019054906101000a900460ff1660ff168360020160029054906101000a900460ff1660ff16145b1561079057818061078c90611b42565b9250505b808061079b90611b42565b9150506106d7565b505f8167ffffffffffffffff8111156107bf576107be611b89565b5b6040519080825280602002602001820160405280156107f857816020015b6107e5611396565b8152602001906001900390816107dd5790505b5090505f805b5f80549050811015610b04575f818154811061081d5761081c611ae8565b5b905f5260205f2090600502016004015f9054906101000a900460ff1660ff168560020160019054906101000a900460ff1660ff161480156108a357505f818154811061086c5761086b611ae8565b5b905f5260205f20906005020160040160019054906101000a900460ff1660ff168560020160029054906101000a900460ff1660ff16145b15610af1575f81815481106108bb576108ba611ae8565b5b905f5260205f2090600502016040518060c00160405290815f820180546108e190611ab8565b80601f016020809104026020016040519081016040528092919081815260200182805461090d90611ab8565b80156109585780601f1061092f57610100808354040283529160200191610958565b820191905f5260205f20905b81548152906001019060200180831161093b57829003601f168201915b5050505050815260200160018201805461097190611ab8565b80601f016020809104026020016040519081016040528092919081815260200182805461099d90611ab8565b80156109e85780601f106109bf576101008083540402835291602001916109e8565b820191905f5260205f20905b8154815290600101906020018083116109cb57829003601f168201915b50505050508152602001600282018054610a0190611ab8565b80601f0160208091040260200160405190810160405280929190818152602001828054610a2d90611ab8565b8015610a785780601f10610a4f57610100808354040283529160200191610a78565b820191905f5260205f20905b815481529060010190602001808311610a5b57829003601f168201915b5050505050815260200160038201548152602001600482015f9054906101000a900460ff1660ff1660ff1681526020016004820160019054906101000a900460ff1660ff1660ff1681525050838381518110610ad757610ad6611ae8565b5b60200260200101819052508180610aed90611b42565b9250505b8080610afc90611b42565b9150506107fe565b5081945050505050919050565b60608160065410610b20575f80fd5b5f808054905067ffffffffffffffff811115610b3f57610b3e611b89565b5b604051908082528060200260200182016040528015610b7857816020015b610b656113cf565b815260200190600190039081610b5d5790505b5090505f5b5f80549050811015610e9c576040518060e001604052805f8381548110610ba757610ba6611ae8565b5b905f5260205f2090600502015f018054610bc090611ab8565b80601f0160208091040260200160405190810160405280929190818152602001828054610bec90611ab8565b8015610c375780601f10610c0e57610100808354040283529160200191610c37565b820191905f5260205f20905b815481529060010190602001808311610c1a57829003601f168201915b505050505081526020015f8381548110610c5457610c53611ae8565b5b905f5260205f2090600502016001018054610c6e90611ab8565b80601f0160208091040260200160405190810160405280929190818152602001828054610c9a90611ab8565b8015610ce55780601f10610cbc57610100808354040283529160200191610ce5565b820191905f5260205f20905b815481529060010190602001808311610cc857829003601f168201915b505050505081526020015f8381548110610d0257610d01611ae8565b5b905f5260205f2090600502016002018054610d1c90611ab8565b80601f0160208091040260200160405190810160405280929190818152602001828054610d4890611ab8565b8015610d935780601f10610d6a57610100808354040283529160200191610d93565b820191905f5260205f20905b815481529060010190602001808311610d7657829003601f168201915b5050505050815260200160035f808581548110610db357610db2611ae8565b5b905f5260205f2090600502016003015481526020019081526020015f205481526020015f8381548110610de957610de8611ae8565b5b905f5260205f2090600502016003015481526020015f8381548110610e1157610e10611ae8565b5b905f5260205f2090600502016004015f9054906101000a900460ff1660ff1681526020015f8381548110610e4857610e47611ae8565b5b905f5260205f20906005020160040160019054906101000a900460ff1660ff16815250828281518110610e7e57610e7d611ae8565b5b60200260200101819052508080610e9490611b42565b915050610b7d565b5080915050919050565b80600554811015610eb5575f80fd5b600654811115610ec3575f80fd5b82845f60015f8481526020019081526020015f206040518060e00160405290815f8201548152602001600182018054610efb90611ab8565b80601f0160208091040260200160405190810160405280929190818152602001828054610f2790611ab8565b8015610f725780601f10610f4957610100808354040283529160200191610f72565b820191905f5260205f20905b815481529060010190602001808311610f5557829003601f168201915b50505050508152602001600282015f9054906101000a900460ff1660ff1660ff1681526020016002820160019054906101000a900460ff1660ff1660ff1681526020016002820160029054906101000a900460ff1660ff1660ff1681526020016002820160039054906101000a900460ff1615151515815260200160038201548152505090505f60025f8481526020019081526020015f206040518060c00160405290815f8201805461102490611ab8565b80601f016020809104026020016040519081016040528092919081815260200182805461105090611ab8565b801561109b5780601f106110725761010080835404028352916020019161109b565b820191905f5260205f20905b81548152906001019060200180831161107e57829003601f168201915b505050505081526020016001820180546110b490611ab8565b80601f01602080910402602001604051908101604052809291908181526020018280546110e090611ab8565b801561112b5780601f106111025761010080835404028352916020019161112b565b820191905f5260205f20905b81548152906001019060200180831161110e57829003601f168201915b5050505050815260200160028201805461114490611ab8565b80601f016020809104026020016040519081016040528092919081815260200182805461117090611ab8565b80156111bb5780601f10611192576101008083540402835291602001916111bb565b820191905f5260205f20905b81548152906001019060200180831161119e57829003601f168201915b5050505050815260200160038201548152602001600482015f9054906101000a900460ff1660ff1660ff1681526020016004820160019054906101000a900460ff1660ff1660ff168152505090506012826040015160ff16101561121d575f80fd5b8160a0015161122a575f80fd5b5f8260c0015114611239575f80fd5b816060015160ff16816080015160ff161480156112635750816080015160ff168160a0015160ff16145b61126b575f80fd5b8760015f8981526020019081526020015f20600301819055505f60035f8a81526020019081526020015f205490506001816112a69190611bb6565b60035f8b81526020019081526020015f2081905550505050505050505050565b5f600654905090565b60045f9054906101000a900473ffffffffffffffffffffffffffffffffffffffff1673ffffffffffffffffffffffffffffffffffffffff163373ffffffffffffffffffffffffffffffffffffffff1614611327575f80fd5b8060055411611334575f80fd5b816005819055505050565b5f8060015f8481526020019081526020015f2090506012816002015f9054906101000a900460ff1660ff161015801561138657508060020160039054906101000a900460ff165b1561139057600191505b50919050565b6040518060c001604052806060815260200160608152602001606081526020015f81526020015f60ff1681526020015f60ff1681525090565b6040518060e001604052806060815260200160608152602001606081526020015f81526020015f81526020015f60ff1681526020015f60ff1681525090565b5f80fd5b5f819050919050565b61142481611412565b811461142e575f80fd5b50565b5f8135905061143f8161141b565b92915050565b5f6020828403121561145a5761145961140e565b5b5f61146784828501611431565b91505092915050565b5f81519050919050565b5f82825260208201905092915050565b5f5b838110156114a757808201518184015260208101905061148c565b5f8484015250505050565b5f601f19601f8301169050919050565b5f6114cc82611470565b6114d6818561147a565b93506114e681856020860161148a565b6114ef816114b2565b840191505092915050565b61150381611412565b82525050565b5f60ff82169050919050565b61151e81611509565b82525050565b5f60c0820190508181035f83015261153c81896114c2565b9050818103602083015261155081886114c2565b9050818103604083015261156481876114c2565b905061157360608301866114fa565b6115806080830185611515565b61158d60a0830184611515565b979650505050505050565b5f80604083850312156115ae576115ad61140e565b5b5f6115bb85828601611431565b92505060206115cc85828601611431565b9150509250929050565b5f8115159050919050565b6115ea816115d6565b82525050565b5f82825260208201905092915050565b5f61160a82611470565b61161481856115f0565b935061162481856020860161148a565b61162d816114b2565b840191505092915050565b61164181611412565b82525050565b61165081611509565b82525050565b5f60c083015f8301518482035f8601526116708282611600565b9150506020830151848203602086015261168a8282611600565b915050604083015184820360408601526116a48282611600565b91505060608301516116b96060860182611638565b5060808301516116cc6080860182611647565b5060a08301516116df60a0860182611647565b508091505092915050565b5f6040820190506116fd5f8301856115e1565b818103602083015261170f8184611656565b90509392505050565b5f81519050919050565b5f82825260208201905092915050565b5f819050602082019050919050565b5f60c083015f8301518482035f86015261175b8282611600565b915050602083015184820360208601526117758282611600565b9150506040830151848203604086015261178f8282611600565b91505060608301516117a46060860182611638565b5060808301516117b76080860182611647565b5060a08301516117ca60a0860182611647565b508091505092915050565b5f6117e08383611741565b905092915050565b5f602082019050919050565b5f6117fe82611718565b6118088185611722565b93508360208202850161181a85611732565b805f5b85811015611855578484038952815161183685826117d5565b9450611841836117e8565b925060208a0199505060018101905061181d565b50829750879550505050505092915050565b5f6020820190508181035f83015261187f81846117f4565b905092915050565b5f81519050919050565b5f82825260208201905092915050565b5f819050602082019050919050565b5f60e083015f8301518482035f8601526118ca8282611600565b915050602083015184820360208601526118e48282611600565b915050604083015184820360408601526118fe8282611600565b91505060608301516119136060860182611638565b5060808301516119266080860182611638565b5060a083015161193960a0860182611647565b5060c083015161194c60c0860182611647565b508091505092915050565b5f61196283836118b0565b905092915050565b5f602082019050919050565b5f61198082611887565b61198a8185611891565b93508360208202850161199c856118a1565b805f5b858110156119d757848403895281516119b88582611957565b94506119c38361196a565b925060208a0199505060018101905061199f565b50829750879550505050505092915050565b5f6020820190508181035f830152611a018184611976565b905092915050565b5f805f60608486031215611a2057611a1f61140e565b5b5f611a2d86828701611431565b9350506020611a3e86828701611431565b9250506040611a4f86828701611431565b9150509250925092565b5f602082019050611a6c5f8301846114fa565b92915050565b5f602082019050611a855f8301846115e1565b92915050565b7f4e487b71000000000000000000000000000000000000000000000000000000005f52602260045260245ffd5b5f6002820490506001821680611acf57607f821691505b602082108103611ae257611ae1611a8b565b5b50919050565b7f4e487b71000000000000000000000000000000000000000000000000000000005f52603260045260245ffd5b7f4e487b71000000000000000000000000000000000000000000000000000000005f52601160045260245ffd5b5f611b4c82611412565b91507fffffffffffffffffffffffffffffffffffffffffffffffffffffffffffffffff8203611b7e57611b7d611b15565b5b600182019050919050565b7f4e487b71000000000000000000000000000000000000000000000000000000005f52604160045260245ffd5b5f611bc082611412565b9150611bcb83611412565b9250828201905080821115611be357611be2611b15565b5b9291505056fea2646970667358221220ee0960042bea5cc3e5abc91279907ce428d569285726bd32b9a2d279ffc1b3ad64736f6c6343000814003368747470733a2f2f7265732e636c6f7564696e6172792e636f6d2f646a3974747362676d2f696d6167652f75706c6f61642f76313634383130313036352f3132303070782d524a445f466c61672e7376675f6172727276742e706e6768747470733a2f2f7265732e636c6f7564696e6172792e636f6d2f646a3974747362676d2f696d6167652f75706c6f61642f76313634383130313036352f79737263705f7361733331312e706e6768747470733a2f2f7265732e636c6f7564696e6172792e636f6d2f646a3974747362676d2f696d6167652f75706c6f61642f76313634383130313036342f626a705f6e6b34736e772e706e6768747470733a2f2f7265732e636c6f7564696e6172792e636f6d2f646a3974747362676d2f696d6167652f75706c6f61642f76313634383130313036352f6161705f756a6775796c2e706e6768747470733a2f2f7265732e636c6f7564696e6172792e636f6d2f646a3974747362676d2f696d6167652f75706c6f61642f76313634383130313036342f696e635f73316f716e352e706e6768747470733a2f2f7265732e636c6f7564696e6172792e636f6d2f646a3974747362676d2f696d6167652f75706c6f61642f76313634383130313036342f3130323470782d4370696d5f70617274795f73796d626f6c2e7376675f6d75316770702e706e6768747470733a2f2f7265732e636c6f7564696e6172792e636f6d2f646a3974747362676d2f696d6167652f75706c6f61642f76313634383130313036352f7464705f716831726b6a2e706e67",
			"opcodes": "PUSH1 0x80 PUSH1 0x40 MSTORE CALLVALUE DUP1 ISZERO PUSH3 0x10 JUMPI PUSH0 DUP1 REVERT JUMPDEST POP PUSH1 0x40 MLOAD PUSH3 0x48B9 CODESIZE SUB DUP1 PUSH3 0x48B9 DUP4 CODECOPY DUP2 DUP2 ADD PUSH1 0x40 MSTORE DUP2 ADD SWAP1 PUSH3 0x36 SWAP2 SWAP1 PUSH3 0x2623 JUMP JUMPDEST PUSH3 0x46 PUSH3 0xAC PUSH1 0x20 SHL PUSH1 0x20 SHR JUMP JUMPDEST PUSH3 0x56 PUSH3 0xF1E PUSH1 0x20 SHL PUSH1 0x20 SHR JUMP JUMPDEST DUP2 PUSH1 0x5 DUP2 SWAP1 SSTORE POP DUP1 PUSH1 0x6 DUP2 SWAP1 SSTORE POP CALLER PUSH1 0x4 PUSH0 PUSH2 0x100 EXP DUP2 SLOAD DUP2 PUSH20 0xFFFFFFFFFFFFFFFFFFFFFFFFFFFFFFFFFFFFFFFF MUL NOT AND SWAP1 DUP4 PUSH20 0xFFFFFFFFFFFFFFFFFFFFFFFFFFFFFFFFFFFFFFFF AND MUL OR SWAP1 SSTORE POP POP POP PUSH3 0x2A4D JUMP JUMPDEST PUSH0 PUSH1 0xE PUSH8 0xFFFFFFFFFFFFFFFF DUP2 GT ISZERO PUSH3 0xCB JUMPI PUSH3 0xCA PUSH3 0x2668 JUMP JUMPDEST JUMPDEST PUSH1 0x40 MLOAD SWAP1 DUP1 DUP3 MSTORE DUP1 PUSH1 0x20 MUL PUSH1 0x20 ADD DUP3 ADD PUSH1 0x40 MSTORE DUP1 ISZERO PUSH3 0x108 JUMPI DUP2 PUSH1 0x20 ADD JUMPDEST PUSH3 0xF4 PUSH3 0x25AE JUMP JUMPDEST DUP2 MSTORE PUSH1 0x20 ADD SWAP1 PUSH1 0x1 SWAP1 SUB SWAP1 DUP2 PUSH3 0xEA JUMPI SWAP1 POP JUMPDEST POP SWAP1 POP PUSH1 0x40 MLOAD DUP1 PUSH1 0xC0 ADD PUSH1 0x40 MSTORE DUP1 PUSH1 0x40 MLOAD DUP1 PUSH1 0x40 ADD PUSH1 0x40 MSTORE DUP1 PUSH1 0x12 DUP2 MSTORE PUSH1 0x20 ADD PUSH32 0x4368616E6472612042616275204E616964750000000000000000000000000000 DUP2 MSTORE POP DUP2 MSTORE PUSH1 0x20 ADD PUSH1 0x40 MLOAD DUP1 PUSH1 0x40 ADD PUSH1 0x40 MSTORE DUP1 PUSH1 0x3 DUP2 MSTORE PUSH1 0x20 ADD PUSH32 0x5444500000000000000000000000000000000000000000000000000000000000 DUP2 MSTORE POP DUP2 MSTORE PUSH1 0x20 ADD PUSH1 0x40 MLOAD DUP1 PUSH1 0x80 ADD PUSH1 0x40 MSTORE DUP1 PUSH1 0x4C DUP2 MSTORE PUSH1 0x20 ADD PUSH3 0x486D PUSH1 0x4C SWAP2 CODECOPY DUP2 MSTORE PUSH1 0x20 ADD PUSH5 0xA96106E5A6 DUP2 MSTORE PUSH1 0x20 ADD PUSH1 0xA PUSH1 0xFF AND DUP2 MSTORE PUSH1 0x20 ADD PUSH1 0x1 PUSH1 0xFF AND DUP2 MSTORE POP DUP2 PUSH0 DUP2 MLOAD DUP2 LT PUSH3 0x1DE JUMPI PUSH3 0x1DD PUSH3 0x2695 JUMP JUMPDEST JUMPDEST PUSH1 0x20 MUL PUSH1 0x20 ADD ADD DUP2 SWAP1 MSTORE POP PUSH1 0x40 MLOAD DUP1 PUSH1 0xC0 ADD PUSH1 0x40 MSTORE DUP1 PUSH1 0x40 MLOAD DUP1 PUSH1 0x40 ADD PUSH1 0x40 MSTORE DUP1 PUSH1 0x11 DUP2 MSTORE PUSH1 0x20 ADD PUSH32 0x4A6167616E204D6F68616E205265646479000000000000000000000000000000 DUP2 MSTORE POP DUP2 MSTORE PUSH1 0x20 ADD PUSH1 0x40 MLOAD DUP1 PUSH1 0x40 ADD PUSH1 0x40 MSTORE DUP1 PUSH1 0x5 DUP2 MSTORE PUSH1 0x20 ADD PUSH32 0x5953524350000000000000000000000000000000000000000000000000000000 DUP2 MSTORE POP DUP2 MSTORE PUSH1 0x20 ADD PUSH1 0x40 MLOAD DUP1 PUSH1 0x80 ADD PUSH1 0x40 MSTORE DUP1 PUSH1 0x4E DUP2 MSTORE PUSH1 0x20 ADD PUSH3 0x46D6 PUSH1 0x4E SWAP2 CODECOPY DUP2 MSTORE PUSH1 0x20 ADD PUSH5 0xC27E5DA76E DUP2 MSTORE PUSH1 0x20 ADD PUSH1 0xA PUSH1 0xFF AND DUP2 MSTORE PUSH1 0x20 ADD PUSH1 0x1 PUSH1 0xFF AND DUP2 MSTORE POP DUP2 PUSH1 0x1 DUP2 MLOAD DUP2 LT PUSH3 0x2BD JUMPI PUSH3 0x2BC PUSH3 0x2695 JUMP JUMPDEST JUMPDEST PUSH1 0x20 MUL PUSH1 0x20 ADD ADD DUP2 SWAP1 MSTORE POP PUSH1 0x40 MLOAD DUP1 PUSH1 0xC0 ADD PUSH1 0x40 MSTORE DUP1 PUSH1 0x40 MLOAD DUP1 PUSH1 0x40 ADD PUSH1 0x40 MSTORE DUP1 PUSH1 0xE DUP2 MSTORE PUSH1 0x20 ADD PUSH32 0x47205620416E6A616E6579756C75000000000000000000000000000000000000 DUP2 MSTORE POP DUP2 MSTORE PUSH1 0x20 ADD PUSH1 0x40 MLOAD DUP1 PUSH1 0x40 ADD PUSH1 0x40 MSTORE DUP1 PUSH1 0x3 DUP2 MSTORE PUSH1 0x20 ADD PUSH32 0x5444500000000000000000000000000000000000000000000000000000000000 DUP2 MSTORE POP DUP2 MSTORE PUSH1 0x20 ADD PUSH1 0x40 MLOAD DUP1 PUSH1 0x80 ADD PUSH1 0x40 MSTORE DUP1 PUSH1 0x4C DUP2 MSTORE PUSH1 0x20 ADD PUSH3 0x486D PUSH1 0x4C SWAP2 CODECOPY DUP2 MSTORE PUSH1 0x20 ADD PUSH5 0xE19F3E55B7 DUP2 MSTORE PUSH1 0x20 ADD PUSH1 0xA PUSH1 0xFF AND DUP2 MSTORE PUSH1 0x20 ADD PUSH1 0x2 PUSH1 0xFF AND DUP2 MSTORE POP DUP2 PUSH1 0x2 DUP2 MLOAD DUP2 LT PUSH3 0x39C JUMPI PUSH3 0x39B PUSH3 0x2695 JUMP JUMPDEST JUMPDEST PUSH1 0x20 MUL PUSH1 0x20 ADD ADD DUP2 SWAP1 MSTORE POP PUSH1 0x40 MLOAD DUP1 PUSH1 0xC0 ADD PUSH1 0x40 MSTORE DUP1 PUSH1 0x40 MLOAD DUP1 PUSH1 0x40 ADD PUSH1 0x40 MSTORE DUP1 PUSH1 0x10 DUP2 MSTORE PUSH1 0x20 ADD PUSH32 0x416E696C204B756D617220596164617600000000000000000000000000000000 DUP2 MSTORE POP DUP2 MSTORE PUSH1 0x20 ADD PUSH1 0x40 MLOAD DUP1 PUSH1 0x40 ADD PUSH1 0x40 MSTORE DUP1 PUSH1 0x5 DUP2 MSTORE PUSH1 0x20 ADD PUSH32 0x5953524350000000000000000000000000000000000000000000000000000000 DUP2 MSTORE POP DUP2 MSTORE PUSH1 0x20 ADD PUSH1 0x40 MLOAD DUP1 PUSH1 0x80 ADD PUSH1 0x40 MSTORE DUP1 PUSH1 0x4E DUP2 MSTORE PUSH1 0x20 ADD PUSH3 0x46D6 PUSH1 0x4E SWAP2 CODECOPY DUP2 MSTORE PUSH1 0x20 ADD PUSH5 0x63F451CCE2 DUP2 MSTORE PUSH1 0x20 ADD PUSH1 0xA PUSH1 0xFF AND DUP2 MSTORE PUSH1 0x20 ADD PUSH1 0x2 PUSH1 0xFF AND DUP2 MSTORE POP DUP2 PUSH1 0x3 DUP2 MLOAD DUP2 LT PUSH3 0x47B JUMPI PUSH3 0x47A PUSH3 0x2695 JUMP JUMPDEST JUMPDEST PUSH1 0x20 MUL PUSH1 0x20 ADD ADD DUP2 SWAP1 MSTORE POP PUSH1 0x40 MLOAD DUP1 PUSH1 0xC0 ADD PUSH1 0x40 MSTORE DUP1 PUSH1 0x40 MLOAD DUP1 PUSH1 0x40 ADD PUSH1 0x40 MSTORE DUP1 PUSH1 0xD DUP2 MSTORE PUSH1 0x20 ADD PUSH32 0x4E6172656E647261204D6F646900000000000000000000000000000000000000 DUP2 MSTORE POP DUP2 MSTORE PUSH1 0x20 ADD PUSH1 0x40 MLOAD DUP1 PUSH1 0x40 ADD PUSH1 0x40 MSTORE DUP1 PUSH1 0x3 DUP2 MSTORE PUSH1 0x20 ADD PUSH32 0x424A500000000000000000000000000000000000000000000000000000000000 DUP2 MSTORE POP DUP2 MSTORE PUSH1 0x20 ADD PUSH1 0x40 MLOAD DUP1 PUSH1 0x80 ADD PUSH1 0x40 MSTORE DUP1 PUSH1 0x4C DUP2 MSTORE PUSH1 0x20 ADD PUSH3 0x4724 PUSH1 0x4C SWAP2 CODECOPY DUP2 MSTORE PUSH1 0x20 ADD PUSH5 0xD077CD0B7D DUP2 MSTORE PUSH1 0x20 ADD PUSH1 0xB PUSH1 0xFF AND DUP2 MSTORE PUSH1 0x20 ADD PUSH1 0x1 PUSH1 0xFF AND DUP2 MSTORE POP DUP2 PUSH1 0x4 DUP2 MLOAD DUP2 LT PUSH3 0x55A JUMPI PUSH3 0x559 PUSH3 0x2695 JUMP JUMPDEST JUMPDEST PUSH1 0x20 MUL PUSH1 0x20 ADD ADD DUP2 SWAP1 MSTORE POP PUSH1 0x40 MLOAD DUP1 PUSH1 0xC0 ADD PUSH1 0x40 MSTORE DUP1 PUSH1 0x40 MLOAD DUP1 PUSH1 0x40 ADD PUSH1 0x40 MSTORE DUP1 PUSH1 0xC DUP2 MSTORE PUSH1 0x20 ADD PUSH32 0x526168756C2047616E6468690000000000000000000000000000000000000000 DUP2 MSTORE POP DUP2 MSTORE PUSH1 0x20 ADD PUSH1 0x40 MLOAD DUP1 PUSH1 0x40 ADD PUSH1 0x40 MSTORE DUP1 PUSH1 0x3 DUP2 MSTORE PUSH1 0x20 ADD PUSH32 0x494E430000000000000000000000000000000000000000000000000000000000 DUP2 MSTORE POP DUP2 MSTORE PUSH1 0x20 ADD PUSH1 0x40 MLOAD DUP1 PUSH1 0x80 ADD PUSH1 0x40 MSTORE DUP1 PUSH1 0x4C DUP2 MSTORE PUSH1 0x20 ADD PUSH3 0x47BC PUSH1 0x4C SWAP2 CODECOPY DUP2 MSTORE PUSH1 0x20 ADD PUSH5 0xCCD999A21C DUP2 MSTORE PUSH1 0x20 ADD PUSH1 0xB PUSH1 0xFF AND DUP2 MSTORE PUSH1 0x20 ADD PUSH1 0x1 PUSH1 0xFF AND DUP2 MSTORE POP DUP2 PUSH1 0x5 DUP2 MLOAD DUP2 LT PUSH3 0x639 JUMPI PUSH3 0x638 PUSH3 0x2695 JUMP JUMPDEST JUMPDEST PUSH1 0x20 MUL PUSH1 0x20 ADD ADD DUP2 SWAP1 MSTORE POP PUSH1 0x40 MLOAD DUP1 PUSH1 0xC0 ADD PUSH1 0x40 MSTORE DUP1 PUSH1 0x40 MLOAD DUP1 PUSH1 0x40 ADD PUSH1 0x40 MSTORE DUP1 PUSH1 0xD DUP2 MSTORE PUSH1 0x20 ADD PUSH32 0x54656A6173776920596164617600000000000000000000000000000000000000 DUP2 MSTORE POP DUP2 MSTORE PUSH1 0x20 ADD PUSH1 0x40 MLOAD DUP1 PUSH1 0x40 ADD PUSH1 0x40 MSTORE DUP1 PUSH1 0x3 DUP2 MSTORE PUSH1 0x20 ADD PUSH32 0x524A440000000000000000000000000000000000000000000000000000000000 DUP2 MSTORE POP DUP2 MSTORE PUSH1 0x20 ADD PUSH1 0x40 MLOAD DUP1 PUSH1 0x80 ADD PUSH1 0x40 MSTORE DUP1 PUSH1 0x5C DUP2 MSTORE PUSH1 0x20 ADD PUSH3 0x467A PUSH1 0x5C SWAP2 CODECOPY DUP2 MSTORE PUSH1 0x20 ADD PUSH5 0xE773CD9AFE DUP2 MSTORE PUSH1 0x20 ADD PUSH1 0xB PUSH1 0xFF AND DUP2 MSTORE PUSH1 0x20 ADD PUSH1 0x1 PUSH1 0xFF AND DUP2 MSTORE POP DUP2 PUSH1 0x6 DUP2 MLOAD DUP2 LT PUSH3 0x718 JUMPI PUSH3 0x717 PUSH3 0x2695 JUMP JUMPDEST JUMPDEST PUSH1 0x20 MUL PUSH1 0x20 ADD ADD DUP2 SWAP1 MSTORE POP PUSH1 0x40 MLOAD DUP1 PUSH1 0xC0 ADD PUSH1 0x40 MSTORE DUP1 PUSH1 0x40 MLOAD DUP1 PUSH1 0x40 ADD PUSH1 0x40 MSTORE DUP1 PUSH1 0xF DUP2 MSTORE PUSH1 0x20 ADD PUSH32 0x417276696E64204B656A726977616C0000000000000000000000000000000000 DUP2 MSTORE POP DUP2 MSTORE PUSH1 0x20 ADD PUSH1 0x40 MLOAD DUP1 PUSH1 0x40 ADD PUSH1 0x40 MSTORE DUP1 PUSH1 0x3 DUP2 MSTORE PUSH1 0x20 ADD PUSH32 0x4141500000000000000000000000000000000000000000000000000000000000 DUP2 MSTORE POP DUP2 MSTORE PUSH1 0x20 ADD PUSH1 0x40 MLOAD DUP1 PUSH1 0x80 ADD PUSH1 0x40 MSTORE DUP1 PUSH1 0x4C DUP2 MSTORE PUSH1 0x20 ADD PUSH3 0x4770 PUSH1 0x4C SWAP2 CODECOPY DUP2 MSTORE PUSH1 0x20 ADD PUSH5 0xBBE6EB29D5 DUP2 MSTORE PUSH1 0x20 ADD PUSH1 0xB PUSH1 0xFF AND DUP2 MSTORE PUSH1 0x20 ADD PUSH1 0x1 PUSH1 0xFF AND DUP2 MSTORE POP DUP2 PUSH1 0x7 DUP2 MLOAD DUP2 LT PUSH3 0x7F7 JUMPI PUSH3 0x7F6 PUSH3 0x2695 JUMP JUMPDEST JUMPDEST PUSH1 0x20 MUL PUSH1 0x20 ADD ADD DUP2 SWAP1 MSTORE POP PUSH1 0x40 MLOAD DUP1 PUSH1 0xC0 ADD PUSH1 0x40 MSTORE DUP1 PUSH1 0x40 MLOAD DUP1 PUSH1 0x40 ADD PUSH1 0x40 MSTORE DUP1 PUSH1 0xA DUP2 MSTORE PUSH1 0x20 ADD PUSH32 0x4A796F7469204261737500000000000000000000000000000000000000000000 DUP2 MSTORE POP DUP2 MSTORE PUSH1 0x20 ADD PUSH1 0x40 MLOAD DUP1 PUSH1 0x40 ADD PUSH1 0x40 MSTORE DUP1 PUSH1 0x4 DUP2 MSTORE PUSH1 0x20 ADD PUSH32 0x4350494D00000000000000000000000000000000000000000000000000000000 DUP2 MSTORE POP DUP2 MSTORE PUSH1 0x20 ADD PUSH1 0x40 MLOAD DUP1 PUSH1 0xA0 ADD PUSH1 0x40 MSTORE DUP1 PUSH1 0x65 DUP2 MSTORE PUSH1 0x20 ADD PUSH3 0x4808 PUSH1 0x65 SWAP2 CODECOPY DUP2 MSTORE PUSH1 0x20 ADD PUSH5 0x8F44420274 DUP2 MSTORE PUSH1 0x20 ADD PUSH1 0xB PUSH1 0xFF AND DUP2 MSTORE PUSH1 0x20 ADD PUSH1 0x1 PUSH1 0xFF AND DUP2 MSTORE POP DUP2 PUSH1 0x8 DUP2 MLOAD DUP2 LT PUSH3 0x8D6 JUMPI PUSH3 0x8D5 PUSH3 0x2695 JUMP JUMPDEST JUMPDEST PUSH1 0x20 MUL PUSH1 0x20 ADD ADD DUP2 SWAP1 MSTORE POP PUSH1 0x40 MLOAD DUP1 PUSH1 0xC0 ADD PUSH1 0x40 MSTORE DUP1 PUSH1 0x40 MLOAD DUP1 PUSH1 0x40 ADD PUSH1 0x40 MSTORE DUP1 PUSH1 0x9 DUP2 MSTORE PUSH1 0x20 ADD PUSH32 0x416D697420536861680000000000000000000000000000000000000000000000 DUP2 MSTORE POP DUP2 MSTORE PUSH1 0x20 ADD PUSH1 0x40 MLOAD DUP1 PUSH1 0x40 ADD PUSH1 0x40 MSTORE DUP1 PUSH1 0x3 DUP2 MSTORE PUSH1 0x20 ADD PUSH32 0x424A500000000000000000000000000000000000000000000000000000000000 DUP2 MSTORE POP DUP2 MSTORE PUSH1 0x20 ADD PUSH1 0x40 MLOAD DUP1 PUSH1 0x80 ADD PUSH1 0x40 MSTORE DUP1 PUSH1 0x4C DUP2 MSTORE PUSH1 0x20 ADD PUSH3 0x4724 PUSH1 0x4C SWAP2 CODECOPY DUP2 MSTORE PUSH1 0x20 ADD PUSH5 0x8E7DDB11C2 DUP2 MSTORE PUSH1 0x20 ADD PUSH1 0xB PUSH1 0xFF AND DUP2 MSTORE PUSH1 0x20 ADD PUSH1 0x2 PUSH1 0xFF AND DUP2 MSTORE POP DUP2 PUSH1 0x9 DUP2 MLOAD DUP2 LT PUSH3 0x9B5 JUMPI PUSH3 0x9B4 PUSH3 0x2695 JUMP JUMPDEST JUMPDEST PUSH1 0x20 MUL PUSH1 0x20 ADD ADD DUP2 SWAP1 MSTORE POP PUSH1 0x40 MLOAD DUP1 PUSH1 0xC0 ADD PUSH1 0x40 MSTORE DUP1 PUSH1 0x40 MLOAD DUP1 PUSH1 0x40 ADD PUSH1 0x40 MSTORE DUP1 PUSH1 0xF DUP2 MSTORE PUSH1 0x20 ADD PUSH32 0x50726979616E6B612047616E6468690000000000000000000000000000000000 DUP2 MSTORE POP DUP2 MSTORE PUSH1 0x20 ADD PUSH1 0x40 MLOAD DUP1 PUSH1 0x40 ADD PUSH1 0x40 MSTORE DUP1 PUSH1 0x3 DUP2 MSTORE PUSH1 0x20 ADD PUSH32 0x494E430000000000000000000000000000000000000000000000000000000000 DUP2 MSTORE POP DUP2 MSTORE PUSH1 0x20 ADD PUSH1 0x40 MLOAD DUP1 PUSH1 0x80 ADD PUSH1 0x40 MSTORE DUP1 PUSH1 0x4C DUP2 MSTORE PUSH1 0x20 ADD PUSH3 0x47BC PUSH1 0x4C SWAP2 CODECOPY DUP2 MSTORE PUSH1 0x20 ADD PUSH5 0xC9C70244B0 DUP2 MSTORE PUSH1 0x20 ADD PUSH1 0xB PUSH1 0xFF AND DUP2 MSTORE PUSH1 0x20 ADD PUSH1 0x2 PUSH1 0xFF AND DUP2 MSTORE POP DUP2 PUSH1 0xA DUP2 MLOAD DUP2 LT PUSH3 0xA94 JUMPI PUSH3 0xA93 PUSH3 0x2695 JUMP JUMPDEST JUMPDEST PUSH1 0x20 MUL PUSH1 0x20 ADD ADD DUP2 SWAP1 MSTORE POP PUSH1 0x40 MLOAD DUP1 PUSH1 0xC0 ADD PUSH1 0x40 MSTORE DUP1 PUSH1 0x40 MLOAD DUP1 PUSH1 0x40 ADD PUSH1 0x40 MSTORE DUP1 PUSH1 0xA DUP2 MSTORE PUSH1 0x20 ADD PUSH32 0x4C616C7520596164617600000000000000000000000000000000000000000000 DUP2 MSTORE POP DUP2 MSTORE PUSH1 0x20 ADD PUSH1 0x40 MLOAD DUP1 PUSH1 0x40 ADD PUSH1 0x40 MSTORE DUP1 PUSH1 0x3 DUP2 MSTORE PUSH1 0x20 ADD PUSH32 0x524A440000000000000000000000000000000000000000000000000000000000 DUP2 MSTORE POP DUP2 MSTORE PUSH1 0x20 ADD PUSH1 0x40 MLOAD DUP1 PUSH1 0x80 ADD PUSH1 0x40 MSTORE DUP1 PUSH1 0x5C DUP2 MSTORE PUSH1 0x20 ADD PUSH3 0x467A PUSH1 0x5C SWAP2 CODECOPY DUP2 MSTORE PUSH1 0x20 ADD PUSH5 0xB248BCB8C1 DUP2 MSTORE PUSH1 0x20 ADD PUSH1 0xB PUSH1 0xFF AND DUP2 MSTORE PUSH1 0x20 ADD PUSH1 0x2 PUSH1 0xFF AND DUP2 MSTORE POP DUP2 PUSH1 0xB DUP2 MLOAD DUP2 LT PUSH3 0xB73 JUMPI PUSH3 0xB72 PUSH3 0x2695 JUMP JUMPDEST JUMPDEST PUSH1 0x20 MUL PUSH1 0x20 ADD ADD DUP2 SWAP1 MSTORE POP PUSH1 0x40 MLOAD DUP1 PUSH1 0xC0 ADD PUSH1 0x40 MSTORE DUP1 PUSH1 0x40 MLOAD DUP1 PUSH1 0x40 ADD PUSH1 0x40 MSTORE DUP1 PUSH1 0xE DUP2 MSTORE PUSH1 0x20 ADD PUSH32 0x4D616E697368205369736F646961000000000000000000000000000000000000 DUP2 MSTORE POP DUP2 MSTORE PUSH1 0x20 ADD PUSH1 0x40 MLOAD DUP1 PUSH1 0x40 ADD PUSH1 0x40 MSTORE DUP1 PUSH1 0x3 DUP2 MSTORE PUSH1 0x20 ADD PUSH32 0x4141500000000000000000000000000000000000000000000000000000000000 DUP2 MSTORE POP DUP2 MSTORE PUSH1 0x20 ADD PUSH1 0x40 MLOAD DUP1 PUSH1 0x80 ADD PUSH1 0x40 MSTORE DUP1 PUSH1 0x4C DUP2 MSTORE PUSH1 0x20 ADD PUSH3 0x4770 PUSH1 0x4C SWAP2 CODECOPY DUP2 MSTORE PUSH1 0x20 ADD PUSH5 0xD10C617254 DUP2 MSTORE PUSH1 0x20 ADD PUSH1 0xB PUSH1 0xFF AND DUP2 MSTORE PUSH1 0x20 ADD PUSH1 0x2 PUSH1 0xFF AND DUP2 MSTORE POP DUP2 PUSH1 0xC DUP2 MLOAD DUP2 LT PUSH3 0xC52 JUMPI PUSH3 0xC51 PUSH3 0x2695 JUMP JUMPDEST JUMPDEST PUSH1 0x20 MUL PUSH1 0x20 ADD ADD DUP2 SWAP1 MSTORE POP PUSH1 0x40 MLOAD DUP1 PUSH1 0xC0 ADD PUSH1 0x40 MSTORE DUP1 PUSH1 0x40 MLOAD DUP1 PUSH1 0x40 ADD PUSH1 0x40 MSTORE DUP1 PUSH1 0xD DUP2 MSTORE PUSH1 0x20 ADD PUSH32 0x5072616B617368204B6172617400000000000000000000000000000000000000 DUP2 MSTORE POP DUP2 MSTORE PUSH1 0x20 ADD PUSH1 0x40 MLOAD DUP1 PUSH1 0x40 ADD PUSH1 0x40 MSTORE DUP1 PUSH1 0x4 DUP2 MSTORE PUSH1 0x20 ADD PUSH32 0x4350494D00000000000000000000000000000000000000000000000000000000 DUP2 MSTORE POP DUP2 MSTORE PUSH1 0x20 ADD PUSH1 0x40 MLOAD DUP1 PUSH1 0xA0 ADD PUSH1 0x40 MSTORE DUP1 PUSH1 0x65 DUP2 MSTORE PUSH1 0x20 ADD PUSH3 0x4808 PUSH1 0x65 SWAP2 CODECOPY DUP2 MSTORE PUSH1 0x20 ADD PUSH5 0x6BFB1A2626 DUP2 MSTORE PUSH1 0x20 ADD PUSH1 0xB PUSH1 0xFF AND DUP2 MSTORE PUSH1 0x20 ADD PUSH1 0x2 PUSH1 0xFF AND DUP2 MSTORE POP DUP2 PUSH1 0xD DUP2 MLOAD DUP2 LT PUSH3 0xD31 JUMPI PUSH3 0xD30 PUSH3 0x2695 JUMP JUMPDEST JUMPDEST PUSH1 0x20 MUL PUSH1 0x20 ADD ADD DUP2 SWAP1 MSTORE POP PUSH0 JUMPDEST DUP2 MLOAD DUP2 LT ISZERO PUSH3 0xF1A JUMPI DUP2 DUP2 DUP2 MLOAD DUP2 LT PUSH3 0xD5E JUMPI PUSH3 0xD5D PUSH3 0x2695 JUMP JUMPDEST JUMPDEST PUSH1 0x20 MUL PUSH1 0x20 ADD ADD MLOAD PUSH1 0x2 PUSH0 DUP5 DUP5 DUP2 MLOAD DUP2 LT PUSH3 0xD7F JUMPI PUSH3 0xD7E PUSH3 0x2695 JUMP JUMPDEST JUMPDEST PUSH1 0x20 MUL PUSH1 0x20 ADD ADD MLOAD PUSH1 0x60 ADD MLOAD DUP2 MSTORE PUSH1 0x20 ADD SWAP1 DUP2 MSTORE PUSH1 0x20 ADD PUSH0 KECCAK256 PUSH0 DUP3 ADD MLOAD DUP2 PUSH0 ADD SWAP1 DUP2 PUSH3 0xDAD SWAP2 SWAP1 PUSH3 0x28F0 JUMP JUMPDEST POP PUSH1 0x20 DUP3 ADD MLOAD DUP2 PUSH1 0x1 ADD SWAP1 DUP2 PUSH3 0xDC5 SWAP2 SWAP1 PUSH3 0x28F0 JUMP JUMPDEST POP PUSH1 0x40 DUP3 ADD MLOAD DUP2 PUSH1 0x2 ADD SWAP1 DUP2 PUSH3 0xDDD SWAP2 SWAP1 PUSH3 0x28F0 JUMP JUMPDEST POP PUSH1 0x60 DUP3 ADD MLOAD DUP2 PUSH1 0x3 ADD SSTORE PUSH1 0x80 DUP3 ADD MLOAD DUP2 PUSH1 0x4 ADD PUSH0 PUSH2 0x100 EXP DUP2 SLOAD DUP2 PUSH1 0xFF MUL NOT AND SWAP1 DUP4 PUSH1 0xFF AND MUL OR SWAP1 SSTORE POP PUSH1 0xA0 DUP3 ADD MLOAD DUP2 PUSH1 0x4 ADD PUSH1 0x1 PUSH2 0x100 EXP DUP2 SLOAD DUP2 PUSH1 0xFF MUL NOT AND SWAP1 DUP4 PUSH1 0xFF AND MUL OR SWAP1 SSTORE POP SWAP1 POP POP PUSH0 DUP3 DUP3 DUP2 MLOAD DUP2 LT PUSH3 0xE43 JUMPI PUSH3 0xE42 PUSH3 0x2695 JUMP JUMPDEST JUMPDEST PUSH1 0x20 MUL PUSH1 0x20 ADD ADD MLOAD SWAP1 DUP1 PUSH1 0x1 DUP2 SLOAD ADD DUP1 DUP3 SSTORE DUP1 SWAP2 POP POP PUSH1 0x1 SWAP1 SUB SWAP1 PUSH0 MSTORE PUSH1 0x20 PUSH0 KECCAK256 SWAP1 PUSH1 0x5 MUL ADD PUSH0 SWAP1 SWAP2 SWAP1 SWAP2 SWAP1 SWAP2 POP PUSH0 DUP3 ADD MLOAD DUP2 PUSH0 ADD SWAP1 DUP2 PUSH3 0xE86 SWAP2 SWAP1 PUSH3 0x28F0 JUMP JUMPDEST POP PUSH1 0x20 DUP3 ADD MLOAD DUP2 PUSH1 0x1 ADD SWAP1 DUP2 PUSH3 0xE9E SWAP2 SWAP1 PUSH3 0x28F0 JUMP JUMPDEST POP PUSH1 0x40 DUP3 ADD MLOAD DUP2 PUSH1 0x2 ADD SWAP1 DUP2 PUSH3 0xEB6 SWAP2 SWAP1 PUSH3 0x28F0 JUMP JUMPDEST POP PUSH1 0x60 DUP3 ADD MLOAD DUP2 PUSH1 0x3 ADD SSTORE PUSH1 0x80 DUP3 ADD MLOAD DUP2 PUSH1 0x4 ADD PUSH0 PUSH2 0x100 EXP DUP2 SLOAD DUP2 PUSH1 0xFF MUL NOT AND SWAP1 DUP4 PUSH1 0xFF AND MUL OR SWAP1 SSTORE POP PUSH1 0xA0 DUP3 ADD MLOAD DUP2 PUSH1 0x4 ADD PUSH1 0x1 PUSH2 0x100 EXP DUP2 SLOAD DUP2 PUSH1 0xFF MUL NOT AND SWAP1 DUP4 PUSH1 0xFF AND MUL OR SWAP1 SSTORE POP POP POP DUP1 DUP1 PUSH3 0xF11 SWAP1 PUSH3 0x2A01 JUMP JUMPDEST SWAP2 POP POP PUSH3 0xD3E JUMP JUMPDEST POP POP JUMP JUMPDEST PUSH1 0x40 MLOAD DUP1 PUSH1 0xE0 ADD PUSH1 0x40 MSTORE DUP1 PUSH5 0x704892D024 DUP2 MSTORE PUSH1 0x20 ADD PUSH1 0x40 MLOAD DUP1 PUSH1 0x40 ADD PUSH1 0x40 MSTORE DUP1 PUSH1 0x6 DUP2 MSTORE PUSH1 0x20 ADD PUSH32 0x5375726573680000000000000000000000000000000000000000000000000000 DUP2 MSTORE POP DUP2 MSTORE PUSH1 0x20 ADD PUSH1 0x15 PUSH1 0xFF AND DUP2 MSTORE PUSH1 0x20 ADD PUSH1 0xA PUSH1 0xFF AND DUP2 MSTORE PUSH1 0x20 ADD PUSH1 0x1 PUSH1 0xFF AND DUP2 MSTORE PUSH1 0x20 ADD PUSH1 0x1 ISZERO ISZERO DUP2 MSTORE PUSH1 0x20 ADD PUSH0 DUP2 MSTORE POP PUSH1 0x1 PUSH0 PUSH5 0x704892D024 DUP2 MSTORE PUSH1 0x20 ADD SWAP1 DUP2 MSTORE PUSH1 0x20 ADD PUSH0 KECCAK256 PUSH0 DUP3 ADD MLOAD DUP2 PUSH0 ADD SSTORE PUSH1 0x20 DUP3 ADD MLOAD DUP2 PUSH1 0x1 ADD SWAP1 DUP2 PUSH3 0xFCF SWAP2 SWAP1 PUSH3 0x28F0 JUMP JUMPDEST POP PUSH1 0x40 DUP3 ADD MLOAD DUP2 PUSH1 0x2 ADD PUSH0 PUSH2 0x100 EXP DUP2 SLOAD DUP2 PUSH1 0xFF MUL NOT AND SWAP1 DUP4 PUSH1 0xFF AND MUL OR SWAP1 SSTORE POP PUSH1 0x60 DUP3 ADD MLOAD DUP2 PUSH1 0x2 ADD PUSH1 0x1 PUSH2 0x100 EXP DUP2 SLOAD DUP2 PUSH1 0xFF MUL NOT AND SWAP1 DUP4 PUSH1 0xFF AND MUL OR SWAP1 SSTORE POP PUSH1 0x80 DUP3 ADD MLOAD DUP2 PUSH1 0x2 ADD PUSH1 0x2 PUSH2 0x100 EXP DUP2 SLOAD DUP2 PUSH1 0xFF MUL NOT AND SWAP1 DUP4 PUSH1 0xFF AND MUL OR SWAP1 SSTORE POP PUSH1 0xA0 DUP3 ADD MLOAD DUP2 PUSH1 0x2 ADD PUSH1 0x3 PUSH2 0x100 EXP DUP2 SLOAD DUP2 PUSH1 0xFF MUL NOT AND SWAP1 DUP4 ISZERO ISZERO MUL OR SWAP1 SSTORE POP PUSH1 0xC0 DUP3 ADD MLOAD DUP2 PUSH1 0x3 ADD SSTORE SWAP1 POP POP PUSH1 0x40 MLOAD DUP1 PUSH1 0xE0 ADD PUSH1 0x40 MSTORE DUP1 PUSH5 0x7BE4F5771B DUP2 MSTORE PUSH1 0x20 ADD PUSH1 0x40 MLOAD DUP1 PUSH1 0x40 ADD PUSH1 0x40 MSTORE DUP1 PUSH1 0x6 DUP2 MSTORE PUSH1 0x20 ADD PUSH32 0x52616D6573680000000000000000000000000000000000000000000000000000 DUP2 MSTORE POP DUP2 MSTORE PUSH1 0x20 ADD PUSH1 0x25 PUSH1 0xFF AND DUP2 MSTORE PUSH1 0x20 ADD PUSH1 0xA PUSH1 0xFF AND DUP2 MSTORE PUSH1 0x20 ADD PUSH1 0x1 PUSH1 0xFF AND DUP2 MSTORE PUSH1 0x20 ADD PUSH0 ISZERO ISZERO DUP2 MSTORE PUSH1 0x20 ADD PUSH0 DUP2 MSTORE POP PUSH1 0x1 PUSH0 PUSH5 0x7BE4F5771B DUP2 MSTORE PUSH1 0x20 ADD SWAP1 DUP2 MSTORE PUSH1 0x20 ADD PUSH0 KECCAK256 PUSH0 DUP3 ADD MLOAD DUP2 PUSH0 ADD SSTORE PUSH1 0x20 DUP3 ADD MLOAD DUP2 PUSH1 0x1 ADD SWAP1 DUP2 PUSH3 0x110F SWAP2 SWAP1 PUSH3 0x28F0 JUMP JUMPDEST POP PUSH1 0x40 DUP3 ADD MLOAD DUP2 PUSH1 0x2 ADD PUSH0 PUSH2 0x100 EXP DUP2 SLOAD DUP2 PUSH1 0xFF MUL NOT AND SWAP1 DUP4 PUSH1 0xFF AND MUL OR SWAP1 SSTORE POP PUSH1 0x60 DUP3 ADD MLOAD DUP2 PUSH1 0x2 ADD PUSH1 0x1 PUSH2 0x100 EXP DUP2 SLOAD DUP2 PUSH1 0xFF MUL NOT AND SWAP1 DUP4 PUSH1 0xFF AND MUL OR SWAP1 SSTORE POP PUSH1 0x80 DUP3 ADD MLOAD DUP2 PUSH1 0x2 ADD PUSH1 0x2 PUSH2 0x100 EXP DUP2 SLOAD DUP2 PUSH1 0xFF MUL NOT AND SWAP1 DUP4 PUSH1 0xFF AND MUL OR SWAP1 SSTORE POP PUSH1 0xA0 DUP3 ADD MLOAD DUP2 PUSH1 0x2 ADD PUSH1 0x3 PUSH2 0x100 EXP DUP2 SLOAD DUP2 PUSH1 0xFF MUL NOT AND SWAP1 DUP4 ISZERO ISZERO MUL OR SWAP1 SSTORE POP PUSH1 0xC0 DUP3 ADD MLOAD DUP2 PUSH1 0x3 ADD SSTORE SWAP1 POP POP PUSH1 0x40 MLOAD DUP1 PUSH1 0xE0 ADD PUSH1 0x40 MSTORE DUP1 PUSH5 0x6CFAE753FE DUP2 MSTORE PUSH1 0x20 ADD PUSH1 0x40 MLOAD DUP1 PUSH1 0x40 ADD PUSH1 0x40 MSTORE DUP1 PUSH1 0x6 DUP2 MSTORE PUSH1 0x20 ADD PUSH32 0x4D61686573680000000000000000000000000000000000000000000000000000 DUP2 MSTORE POP DUP2 MSTORE PUSH1 0x20 ADD PUSH1 0x1A PUSH1 0xFF AND DUP2 MSTORE PUSH1 0x20 ADD PUSH1 0xA PUSH1 0xFF AND DUP2 MSTORE PUSH1 0x20 ADD PUSH1 0x1 PUSH1 0xFF AND DUP2 MSTORE PUSH1 0x20 ADD PUSH1 0x1 ISZERO ISZERO DUP2 MSTORE PUSH1 0x20 ADD PUSH0 DUP2 MSTORE POP PUSH1 0x1 PUSH0 PUSH5 0x6CFAE753FE DUP2 MSTORE PUSH1 0x20 ADD SWAP1 DUP2 MSTORE PUSH1 0x20 ADD PUSH0 KECCAK256 PUSH0 DUP3 ADD MLOAD DUP2 PUSH0 ADD SSTORE PUSH1 0x20 DUP3 ADD MLOAD DUP2 PUSH1 0x1 ADD SWAP1 DUP2 PUSH3 0x1250 SWAP2 SWAP1 PUSH3 0x28F0 JUMP JUMPDEST POP PUSH1 0x40 DUP3 ADD MLOAD DUP2 PUSH1 0x2 ADD PUSH0 PUSH2 0x100 EXP DUP2 SLOAD DUP2 PUSH1 0xFF MUL NOT AND SWAP1 DUP4 PUSH1 0xFF AND MUL OR SWAP1 SSTORE POP PUSH1 0x60 DUP3 ADD MLOAD DUP2 PUSH1 0x2 ADD PUSH1 0x1 PUSH2 0x100 EXP DUP2 SLOAD DUP2 PUSH1 0xFF MUL NOT AND SWAP1 DUP4 PUSH1 0xFF AND MUL OR SWAP1 SSTORE POP PUSH1 0x80 DUP3 ADD MLOAD DUP2 PUSH1 0x2 ADD PUSH1 0x2 PUSH2 0x100 EXP DUP2 SLOAD DUP2 PUSH1 0xFF MUL NOT AND SWAP1 DUP4 PUSH1 0xFF AND MUL OR SWAP1 SSTORE POP PUSH1 0xA0 DUP3 ADD MLOAD DUP2 PUSH1 0x2 ADD PUSH1 0x3 PUSH2 0x100 EXP DUP2 SLOAD DUP2 PUSH1 0xFF MUL NOT AND SWAP1 DUP4 ISZERO ISZERO MUL OR SWAP1 SSTORE POP PUSH1 0xC0 DUP3 ADD MLOAD DUP2 PUSH1 0x3 ADD SSTORE SWAP1 POP POP PUSH1 0x40 MLOAD DUP1 PUSH1 0xE0 ADD PUSH1 0x40 MSTORE DUP1 PUSH5 0xBC95724C2D DUP2 MSTORE PUSH1 0x20 ADD PUSH1 0x40 MLOAD DUP1 PUSH1 0x40 ADD PUSH1 0x40 MSTORE DUP1 PUSH1 0x7 DUP2 MSTORE PUSH1 0x20 ADD PUSH32 0x4B726973686E6100000000000000000000000000000000000000000000000000 DUP2 MSTORE POP DUP2 MSTORE PUSH1 0x20 ADD PUSH1 0x13 PUSH1 0xFF AND DUP2 MSTORE PUSH1 0x20 ADD PUSH1 0xA PUSH1 0xFF AND DUP2 MSTORE PUSH1 0x20 ADD PUSH1 0x2 PUSH1 0xFF AND DUP2 MSTORE PUSH1 0x20 ADD PUSH1 0x1 ISZERO ISZERO DUP2 MSTORE PUSH1 0x20 ADD PUSH0 DUP2 MSTORE POP PUSH1 0x1 PUSH0 PUSH5 0xBC95724C2D DUP2 MSTORE PUSH1 0x20 ADD SWAP1 DUP2 MSTORE PUSH1 0x20 ADD PUSH0 KECCAK256 PUSH0 DUP3 ADD MLOAD DUP2 PUSH0 ADD SSTORE PUSH1 0x20 DUP3 ADD MLOAD DUP2 PUSH1 0x1 ADD SWAP1 DUP2 PUSH3 0x1391 SWAP2 SWAP1 PUSH3 0x28F0 JUMP JUMPDEST POP PUSH1 0x40 DUP3 ADD MLOAD DUP2 PUSH1 0x2 ADD PUSH0 PUSH2 0x100 EXP DUP2 SLOAD DUP2 PUSH1 0xFF MUL NOT AND SWAP1 DUP4 PUSH1 0xFF AND MUL OR SWAP1 SSTORE POP PUSH1 0x60 DUP3 ADD MLOAD DUP2 PUSH1 0x2 ADD PUSH1 0x1 PUSH2 0x100 EXP DUP2 SLOAD DUP2 PUSH1 0xFF MUL NOT AND SWAP1 DUP4 PUSH1 0xFF AND MUL OR SWAP1 SSTORE POP PUSH1 0x80 DUP3 ADD MLOAD DUP2 PUSH1 0x2 ADD PUSH1 0x2 PUSH2 0x100 EXP DUP2 SLOAD DUP2 PUSH1 0xFF MUL NOT AND SWAP1 DUP4 PUSH1 0xFF AND MUL OR SWAP1 SSTORE POP PUSH1 0xA0 DUP3 ADD MLOAD DUP2 PUSH1 0x2 ADD PUSH1 0x3 PUSH2 0x100 EXP DUP2 SLOAD DUP2 PUSH1 0xFF MUL NOT AND SWAP1 DUP4 ISZERO ISZERO MUL OR SWAP1 SSTORE POP PUSH1 0xC0 DUP3 ADD MLOAD DUP2 PUSH1 0x3 ADD SSTORE SWAP1 POP POP PUSH1 0x40 MLOAD DUP1 PUSH1 0xE0 ADD PUSH1 0x40 MSTORE DUP1 PUSH5 0xD38E2FD0D6 DUP2 MSTORE PUSH1 0x20 ADD PUSH1 0x40 MLOAD DUP1 PUSH1 0x40 ADD PUSH1 0x40 MSTORE DUP1 PUSH1 0x8 DUP2 MSTORE PUSH1 0x20 ADD PUSH32 0x4E6172656E647261000000000000000000000000000000000000000000000000 DUP2 MSTORE POP DUP2 MSTORE PUSH1 0x20 ADD PUSH1 0x24 PUSH1 0xFF AND DUP2 MSTORE PUSH1 0x20 ADD PUSH1 0xA PUSH1 0xFF AND DUP2 MSTORE PUSH1 0x20 ADD PUSH1 0x2 PUSH1 0xFF AND DUP2 MSTORE PUSH1 0x20 ADD PUSH1 0x1 ISZERO ISZERO DUP2 MSTORE PUSH1 0x20 ADD PUSH0 DUP2 MSTORE POP PUSH1 0x1 PUSH0 PUSH5 0xD38E2FD0D6 DUP2 MSTORE PUSH1 0x20 ADD SWAP1 DUP2 MSTORE PUSH1 0x20 ADD PUSH0 KECCAK256 PUSH0 DUP3 ADD MLOAD DUP2 PUSH0 ADD SSTORE PUSH1 0x20 DUP3 ADD MLOAD DUP2 PUSH1 0x1 ADD SWAP1 DUP2 PUSH3 0x14D2 SWAP2 SWAP1 PUSH3 0x28F0 JUMP JUMPDEST POP PUSH1 0x40 DUP3 ADD MLOAD DUP2 PUSH1 0x2 ADD PUSH0 PUSH2 0x100 EXP DUP2 SLOAD DUP2 PUSH1 0xFF MUL NOT AND SWAP1 DUP4 PUSH1 0xFF AND MUL OR SWAP1 SSTORE POP PUSH1 0x60 DUP3 ADD MLOAD DUP2 PUSH1 0x2 ADD PUSH1 0x1 PUSH2 0x100 EXP DUP2 SLOAD DUP2 PUSH1 0xFF MUL NOT AND SWAP1 DUP4 PUSH1 0xFF AND MUL OR SWAP1 SSTORE POP PUSH1 0x80 DUP3 ADD MLOAD DUP2 PUSH1 0x2 ADD PUSH1 0x2 PUSH2 0x100 EXP DUP2 SLOAD DUP2 PUSH1 0xFF MUL NOT AND SWAP1 DUP4 PUSH1 0xFF AND MUL OR SWAP1 SSTORE POP PUSH1 0xA0 DUP3 ADD MLOAD DUP2 PUSH1 0x2 ADD PUSH1 0x3 PUSH2 0x100 EXP DUP2 SLOAD DUP2 PUSH1 0xFF MUL NOT AND SWAP1 DUP4 ISZERO ISZERO MUL OR SWAP1 SSTORE POP PUSH1 0xC0 DUP3 ADD MLOAD DUP2 PUSH1 0x3 ADD SSTORE SWAP1 POP POP PUSH1 0x40 MLOAD DUP1 PUSH1 0xE0 ADD PUSH1 0x40 MSTORE DUP1 PUSH5 0xB1081230BF DUP2 MSTORE PUSH1 0x20 ADD PUSH1 0x40 MLOAD DUP1 PUSH1 0x40 ADD PUSH1 0x40 MSTORE DUP1 PUSH1 0x5 DUP2 MSTORE PUSH1 0x20 ADD PUSH32 0x5261676875000000000000000000000000000000000000000000000000000000 DUP2 MSTORE POP DUP2 MSTORE PUSH1 0x20 ADD PUSH1 0x2A PUSH1 0xFF AND DUP2 MSTORE PUSH1 0x20 ADD PUSH1 0xA PUSH1 0xFF AND DUP2 MSTORE PUSH1 0x20 ADD PUSH1 0x2 PUSH1 0xFF AND DUP2 MSTORE PUSH1 0x20 ADD PUSH1 0x1 ISZERO ISZERO DUP2 MSTORE PUSH1 0x20 ADD PUSH0 DUP2 MSTORE POP PUSH1 0x1 PUSH0 PUSH5 0xB1081230BF DUP2 MSTORE PUSH1 0x20 ADD SWAP1 DUP2 MSTORE PUSH1 0x20 ADD PUSH0 KECCAK256 PUSH0 DUP3 ADD MLOAD DUP2 PUSH0 ADD SSTORE PUSH1 0x20 DUP3 ADD MLOAD DUP2 PUSH1 0x1 ADD SWAP1 DUP2 PUSH3 0x1613 SWAP2 SWAP1 PUSH3 0x28F0 JUMP JUMPDEST POP PUSH1 0x40 DUP3 ADD MLOAD DUP2 PUSH1 0x2 ADD PUSH0 PUSH2 0x100 EXP DUP2 SLOAD DUP2 PUSH1 0xFF MUL NOT AND SWAP1 DUP4 PUSH1 0xFF AND MUL OR SWAP1 SSTORE POP PUSH1 0x60 DUP3 ADD MLOAD DUP2 PUSH1 0x2 ADD PUSH1 0x1 PUSH2 0x100 EXP DUP2 SLOAD DUP2 PUSH1 0xFF MUL NOT AND SWAP1 DUP4 PUSH1 0xFF AND MUL OR SWAP1 SSTORE POP PUSH1 0x80 DUP3 ADD MLOAD DUP2 PUSH1 0x2 ADD PUSH1 0x2 PUSH2 0x100 EXP DUP2 SLOAD DUP2 PUSH1 0xFF MUL NOT AND SWAP1 DUP4 PUSH1 0xFF AND MUL OR SWAP1 SSTORE POP PUSH1 0xA0 DUP3 ADD MLOAD DUP2 PUSH1 0x2 ADD PUSH1 0x3 PUSH2 0x100 EXP DUP2 SLOAD DUP2 PUSH1 0xFF MUL NOT AND SWAP1 DUP4 ISZERO ISZERO MUL OR SWAP1 SSTORE POP PUSH1 0xC0 DUP3 ADD MLOAD DUP2 PUSH1 0x3 ADD SSTORE SWAP1 POP POP PUSH1 0x40 MLOAD DUP1 PUSH1 0xE0 ADD PUSH1 0x40 MSTORE DUP1 PUSH5 0xD392FD0CE6 DUP2 MSTORE PUSH1 0x20 ADD PUSH1 0x40 MLOAD DUP1 PUSH1 0x40 ADD PUSH1 0x40 MSTORE DUP1 PUSH1 0xD DUP2 MSTORE PUSH1 0x20 ADD PUSH32 0x507573686B6172204B756D617200000000000000000000000000000000000000 DUP2 MSTORE POP DUP2 MSTORE PUSH1 0x20 ADD PUSH1 0x19 PUSH1 0xFF AND DUP2 MSTORE PUSH1 0x20 ADD PUSH1 0xB PUSH1 0xFF AND DUP2 MSTORE PUSH1 0x20 ADD PUSH1 0x1 PUSH1 0xFF AND DUP2 MSTORE PUSH1 0x20 ADD PUSH1 0x1 ISZERO ISZERO DUP2 MSTORE PUSH1 0x20 ADD PUSH0 DUP2 MSTORE POP PUSH1 0x1 PUSH0 PUSH5 0xD392FD0CE6 DUP2 MSTORE PUSH1 0x20 ADD SWAP1 DUP2 MSTORE PUSH1 0x20 ADD PUSH0 KECCAK256 PUSH0 DUP3 ADD MLOAD DUP2 PUSH0 ADD SSTORE PUSH1 0x20 DUP3 ADD MLOAD DUP2 PUSH1 0x1 ADD SWAP1 DUP2 PUSH3 0x1754 SWAP2 SWAP1 PUSH3 0x28F0 JUMP JUMPDEST POP PUSH1 0x40 DUP3 ADD MLOAD DUP2 PUSH1 0x2 ADD PUSH0 PUSH2 0x100 EXP DUP2 SLOAD DUP2 PUSH1 0xFF MUL NOT AND SWAP1 DUP4 PUSH1 0xFF AND MUL OR SWAP1 SSTORE POP PUSH1 0x60 DUP3 ADD MLOAD DUP2 PUSH1 0x2 ADD PUSH1 0x1 PUSH2 0x100 EXP DUP2 SLOAD DUP2 PUSH1 0xFF MUL NOT AND SWAP1 DUP4 PUSH1 0xFF AND MUL OR SWAP1 SSTORE POP PUSH1 0x80 DUP3 ADD MLOAD DUP2 PUSH1 0x2 ADD PUSH1 0x2 PUSH2 0x100 EXP DUP2 SLOAD DUP2 PUSH1 0xFF MUL NOT AND SWAP1 DUP4 PUSH1 0xFF AND MUL OR SWAP1 SSTORE POP PUSH1 0xA0 DUP3 ADD MLOAD DUP2 PUSH1 0x2 ADD PUSH1 0x3 PUSH2 0x100 EXP DUP2 SLOAD DUP2 PUSH1 0xFF MUL NOT AND SWAP1 DUP4 ISZERO ISZERO MUL OR SWAP1 SSTORE POP PUSH1 0xC0 DUP3 ADD MLOAD DUP2 PUSH1 0x3 ADD SSTORE SWAP1 POP POP PUSH1 0x40 MLOAD DUP1 PUSH1 0xE0 ADD PUSH1 0x40 MSTORE DUP1 PUSH5 0xB55B936244 DUP2 MSTORE PUSH1 0x20 ADD PUSH1 0x40 MLOAD DUP1 PUSH1 0x40 ADD PUSH1 0x40 MSTORE DUP1 PUSH1 0xB DUP2 MSTORE PUSH1 0x20 ADD PUSH32 0x4B756E616C204B756D6172000000000000000000000000000000000000000000 DUP2 MSTORE POP DUP2 MSTORE PUSH1 0x20 ADD PUSH1 0x25 PUSH1 0xFF AND DUP2 MSTORE PUSH1 0x20 ADD PUSH1 0xB PUSH1 0xFF AND DUP2 MSTORE PUSH1 0x20 ADD PUSH1 0x1 PUSH1 0xFF AND DUP2 MSTORE PUSH1 0x20 ADD PUSH1 0x1 ISZERO ISZERO DUP2 MSTORE PUSH1 0x20 ADD PUSH0 DUP2 MSTORE POP PUSH1 0x1 PUSH0 PUSH5 0xB55B936244 DUP2 MSTORE PUSH1 0x20 ADD SWAP1 DUP2 MSTORE PUSH1 0x20 ADD PUSH0 KECCAK256 PUSH0 DUP3 ADD MLOAD DUP2 PUSH0 ADD SSTORE PUSH1 0x20 DUP3 ADD MLOAD DUP2 PUSH1 0x1 ADD SWAP1 DUP2 PUSH3 0x1895 SWAP2 SWAP1 PUSH3 0x28F0 JUMP JUMPDEST POP PUSH1 0x40 DUP3 ADD MLOAD DUP2 PUSH1 0x2 ADD PUSH0 PUSH2 0x100 EXP DUP2 SLOAD DUP2 PUSH1 0xFF MUL NOT AND SWAP1 DUP4 PUSH1 0xFF AND MUL OR SWAP1 SSTORE POP PUSH1 0x60 DUP3 ADD MLOAD DUP2 PUSH1 0x2 ADD PUSH1 0x1 PUSH2 0x100 EXP DUP2 SLOAD DUP2 PUSH1 0xFF MUL NOT AND SWAP1 DUP4 PUSH1 0xFF AND MUL OR SWAP1 SSTORE POP PUSH1 0x80 DUP3 ADD MLOAD DUP2 PUSH1 0x2 ADD PUSH1 0x2 PUSH2 0x100 EXP DUP2 SLOAD DUP2 PUSH1 0xFF MUL NOT AND SWAP1 DUP4 PUSH1 0xFF AND MUL OR SWAP1 SSTORE POP PUSH1 0xA0 DUP3 ADD MLOAD DUP2 PUSH1 0x2 ADD PUSH1 0x3 PUSH2 0x100 EXP DUP2 SLOAD DUP2 PUSH1 0xFF MUL NOT AND SWAP1 DUP4 ISZERO ISZERO MUL OR SWAP1 SSTORE POP PUSH1 0xC0 DUP3 ADD MLOAD DUP2 PUSH1 0x3 ADD SSTORE SWAP1 POP POP PUSH1 0x40 MLOAD DUP1 PUSH1 0xE0 ADD PUSH1 0x40 MSTORE DUP1 PUSH5 0x5B84E787E7 DUP2 MSTORE PUSH1 0x20 ADD PUSH1 0x40 MLOAD DUP1 PUSH1 0x40 ADD PUSH1 0x40 MSTORE DUP1 PUSH1 0xC DUP2 MSTORE PUSH1 0x20 ADD PUSH32 0x4B756D61722053616E6B65740000000000000000000000000000000000000000 DUP2 MSTORE POP DUP2 MSTORE PUSH1 0x20 ADD PUSH1 0x1D PUSH1 0xFF AND DUP2 MSTORE PUSH1 0x20 ADD PUSH1 0xB PUSH1 0xFF AND DUP2 MSTORE PUSH1 0x20 ADD PUSH1 0x2 PUSH1 0xFF AND DUP2 MSTORE PUSH1 0x20 ADD PUSH1 0x1 ISZERO ISZERO DUP2 MSTORE PUSH1 0x20 ADD PUSH0 DUP2 MSTORE POP PUSH1 0x1 PUSH0 PUSH5 0x5B84E787E7 DUP2 MSTORE PUSH1 0x20 ADD SWAP1 DUP2 MSTORE PUSH1 0x20 ADD PUSH0 KECCAK256 PUSH0 DUP3 ADD MLOAD DUP2 PUSH0 ADD SSTORE PUSH1 0x20 DUP3 ADD MLOAD DUP2 PUSH1 0x1 ADD SWAP1 DUP2 PUSH3 0x19D6 SWAP2 SWAP1 PUSH3 0x28F0 JUMP JUMPDEST POP PUSH1 0x40 DUP3 ADD MLOAD DUP2 PUSH1 0x2 ADD PUSH0 PUSH2 0x100 EXP DUP2 SLOAD DUP2 PUSH1 0xFF MUL NOT AND SWAP1 DUP4 PUSH1 0xFF AND MUL OR SWAP1 SSTORE POP PUSH1 0x60 DUP3 ADD MLOAD DUP2 PUSH1 0x2 ADD PUSH1 0x1 PUSH2 0x100 EXP DUP2 SLOAD DUP2 PUSH1 0xFF MUL NOT AND SWAP1 DUP4 PUSH1 0xFF AND MUL OR SWAP1 SSTORE POP PUSH1 0x80 DUP3 ADD MLOAD DUP2 PUSH1 0x2 ADD PUSH1 0x2 PUSH2 0x100 EXP DUP2 SLOAD DUP2 PUSH1 0xFF MUL NOT AND SWAP1 DUP4 PUSH1 0xFF AND MUL OR SWAP1 SSTORE POP PUSH1 0xA0 DUP3 ADD MLOAD DUP2 PUSH1 0x2 ADD PUSH1 0x3 PUSH2 0x100 EXP DUP2 SLOAD DUP2 PUSH1 0xFF MUL NOT AND SWAP1 DUP4 ISZERO ISZERO MUL OR SWAP1 SSTORE POP PUSH1 0xC0 DUP3 ADD MLOAD DUP2 PUSH1 0x3 ADD SSTORE SWAP1 POP POP PUSH1 0x40 MLOAD DUP1 PUSH1 0xE0 ADD PUSH1 0x40 MSTORE DUP1 PUSH5 0xE513ECA331 DUP2 MSTORE PUSH1 0x20 ADD PUSH1 0x40 MLOAD DUP1 PUSH1 0x40 ADD PUSH1 0x40 MSTORE DUP1 PUSH1 0x6 DUP2 MSTORE PUSH1 0x20 ADD PUSH32 0x50726174696B0000000000000000000000000000000000000000000000000000 DUP2 MSTORE POP DUP2 MSTORE PUSH1 0x20 ADD PUSH1 0x28 PUSH1 0xFF AND DUP2 MSTORE PUSH1 0x20 ADD PUSH1 0xB PUSH1 0xFF AND DUP2 MSTORE PUSH1 0x20 ADD PUSH1 0x2 PUSH1 0xFF AND DUP2 MSTORE PUSH1 0x20 ADD PUSH1 0x1 ISZERO ISZERO DUP2 MSTORE PUSH1 0x20 ADD PUSH0 DUP2 MSTORE POP PUSH1 0x1 PUSH0 PUSH5 0xE513ECA331 DUP2 MSTORE PUSH1 0x20 ADD SWAP1 DUP2 MSTORE PUSH1 0x20 ADD PUSH0 KECCAK256 PUSH0 DUP3 ADD MLOAD DUP2 PUSH0 ADD SSTORE PUSH1 0x20 DUP3 ADD MLOAD DUP2 PUSH1 0x1 ADD SWAP1 DUP2 PUSH3 0x1B17 SWAP2 SWAP1 PUSH3 0x28F0 JUMP JUMPDEST POP PUSH1 0x40 DUP3 ADD MLOAD DUP2 PUSH1 0x2 ADD PUSH0 PUSH2 0x100 EXP DUP2 SLOAD DUP2 PUSH1 0xFF MUL NOT AND SWAP1 DUP4 PUSH1 0xFF AND MUL OR SWAP1 SSTORE POP PUSH1 0x60 DUP3 ADD MLOAD DUP2 PUSH1 0x2 ADD PUSH1 0x1 PUSH2 0x100 EXP DUP2 SLOAD DUP2 PUSH1 0xFF MUL NOT AND SWAP1 DUP4 PUSH1 0xFF AND MUL OR SWAP1 SSTORE POP PUSH1 0x80 DUP3 ADD MLOAD DUP2 PUSH1 0x2 ADD PUSH1 0x2 PUSH2 0x100 EXP DUP2 SLOAD DUP2 PUSH1 0xFF MUL NOT AND SWAP1 DUP4 PUSH1 0xFF AND MUL OR SWAP1 SSTORE POP PUSH1 0xA0 DUP3 ADD MLOAD DUP2 PUSH1 0x2 ADD PUSH1 0x3 PUSH2 0x100 EXP DUP2 SLOAD DUP2 PUSH1 0xFF MUL NOT AND SWAP1 DUP4 ISZERO ISZERO MUL OR SWAP1 SSTORE POP PUSH1 0xC0 DUP3 ADD MLOAD DUP2 PUSH1 0x3 ADD SSTORE SWAP1 POP POP PUSH1 0x40 MLOAD DUP1 PUSH1 0xE0 ADD PUSH1 0x40 MSTORE DUP1 PUSH5 0xB02A4C06CD DUP2 MSTORE PUSH1 0x20 ADD PUSH1 0x40 MLOAD DUP1 PUSH1 0x40 ADD PUSH1 0x40 MSTORE DUP1 PUSH1 0x5 DUP2 MSTORE PUSH1 0x20 ADD PUSH32 0x4161757369000000000000000000000000000000000000000000000000000000 DUP2 MSTORE POP DUP2 MSTORE PUSH1 0x20 ADD PUSH1 0x55 PUSH1 0xFF AND DUP2 MSTORE PUSH1 0x20 ADD PUSH1 0xB PUSH1 0xFF AND DUP2 MSTORE PUSH1 0x20 ADD PUSH1 0x1 PUSH1 0xFF AND DUP2 MSTORE PUSH1 0x20 ADD PUSH0 ISZERO ISZERO DUP2 MSTORE PUSH1 0x20 ADD PUSH0 DUP2 MSTORE POP PUSH1 0x1 PUSH0 PUSH5 0xB02A4C06CD DUP2 MSTORE PUSH1 0x20 ADD SWAP1 DUP2 MSTORE PUSH1 0x20 ADD PUSH0 KECCAK256 PUSH0 DUP3 ADD MLOAD DUP2 PUSH0 ADD SSTORE PUSH1 0x20 DUP3 ADD MLOAD DUP2 PUSH1 0x1 ADD SWAP1 DUP2 PUSH3 0x1C57 SWAP2 SWAP1 PUSH3 0x28F0 JUMP JUMPDEST POP PUSH1 0x40 DUP3 ADD MLOAD DUP2 PUSH1 0x2 ADD PUSH0 PUSH2 0x100 EXP DUP2 SLOAD DUP2 PUSH1 0xFF MUL NOT AND SWAP1 DUP4 PUSH1 0xFF AND MUL OR SWAP1 SSTORE POP PUSH1 0x60 DUP3 ADD MLOAD DUP2 PUSH1 0x2 ADD PUSH1 0x1 PUSH2 0x100 EXP DUP2 SLOAD DUP2 PUSH1 0xFF MUL NOT AND SWAP1 DUP4 PUSH1 0xFF AND MUL OR SWAP1 SSTORE POP PUSH1 0x80 DUP3 ADD MLOAD DUP2 PUSH1 0x2 ADD PUSH1 0x2 PUSH2 0x100 EXP DUP2 SLOAD DUP2 PUSH1 0xFF MUL NOT AND SWAP1 DUP4 PUSH1 0xFF AND MUL OR SWAP1 SSTORE POP PUSH1 0xA0 DUP3 ADD MLOAD DUP2 PUSH1 0x2 ADD PUSH1 0x3 PUSH2 0x100 EXP DUP2 SLOAD DUP2 PUSH1 0xFF MUL NOT AND SWAP1 DUP4 ISZERO ISZERO MUL OR SWAP1 SSTORE POP PUSH1 0xC0 DUP3 ADD MLOAD DUP2 PUSH1 0x3 ADD SSTORE SWAP1 POP POP PUSH1 0x40 MLOAD DUP1 PUSH1 0xE0 ADD PUSH1 0x40 MSTORE DUP1 PUSH5 0x88EE0E3031 DUP2 MSTORE PUSH1 0x20 ADD PUSH1 0x40 MLOAD DUP1 PUSH1 0x40 ADD PUSH1 0x40 MSTORE DUP1 PUSH1 0x7 DUP2 MSTORE PUSH1 0x20 ADD PUSH32 0x5072617469626100000000000000000000000000000000000000000000000000 DUP2 MSTORE POP DUP2 MSTORE PUSH1 0x20 ADD PUSH1 0x44 PUSH1 0xFF AND DUP2 MSTORE PUSH1 0x20 ADD PUSH1 0xB PUSH1 0xFF AND DUP2 MSTORE PUSH1 0x20 ADD PUSH1 0x2 PUSH1 0xFF AND DUP2 MSTORE PUSH1 0x20 ADD PUSH0 ISZERO ISZERO DUP2 MSTORE PUSH1 0x20 ADD PUSH0 DUP2 MSTORE POP PUSH1 0x1 PUSH0 PUSH5 0x88EE0E3031 DUP2 MSTORE PUSH1 0x20 ADD SWAP1 DUP2 MSTORE PUSH1 0x20 ADD PUSH0 KECCAK256 PUSH0 DUP3 ADD MLOAD DUP2 PUSH0 ADD SSTORE PUSH1 0x20 DUP3 ADD MLOAD DUP2 PUSH1 0x1 ADD SWAP1 DUP2 PUSH3 0x1D97 SWAP2 SWAP1 PUSH3 0x28F0 JUMP JUMPDEST POP PUSH1 0x40 DUP3 ADD MLOAD DUP2 PUSH1 0x2 ADD PUSH0 PUSH2 0x100 EXP DUP2 SLOAD DUP2 PUSH1 0xFF MUL NOT AND SWAP1 DUP4 PUSH1 0xFF AND MUL OR SWAP1 SSTORE POP PUSH1 0x60 DUP3 ADD MLOAD DUP2 PUSH1 0x2 ADD PUSH1 0x1 PUSH2 0x100 EXP DUP2 SLOAD DUP2 PUSH1 0xFF MUL NOT AND SWAP1 DUP4 PUSH1 0xFF AND MUL OR SWAP1 SSTORE POP PUSH1 0x80 DUP3 ADD MLOAD DUP2 PUSH1 0x2 ADD PUSH1 0x2 PUSH2 0x100 EXP DUP2 SLOAD DUP2 PUSH1 0xFF MUL NOT AND SWAP1 DUP4 PUSH1 0xFF AND MUL OR SWAP1 SSTORE POP PUSH1 0xA0 DUP3 ADD MLOAD DUP2 PUSH1 0x2 ADD PUSH1 0x3 PUSH2 0x100 EXP DUP2 SLOAD DUP2 PUSH1 0xFF MUL NOT AND SWAP1 DUP4 ISZERO ISZERO MUL OR SWAP1 SSTORE POP PUSH1 0xC0 DUP3 ADD MLOAD DUP2 PUSH1 0x3 ADD SSTORE SWAP1 POP POP PUSH1 0x40 MLOAD DUP1 PUSH1 0xE0 ADD PUSH1 0x40 MSTORE DUP1 PUSH5 0xE1522CF915 DUP2 MSTORE PUSH1 0x20 ADD PUSH1 0x40 MLOAD DUP1 PUSH1 0x40 ADD PUSH1 0x40 MSTORE DUP1 PUSH1 0x7 DUP2 MSTORE PUSH1 0x20 ADD PUSH32 0x52756368696B6100000000000000000000000000000000000000000000000000 DUP2 MSTORE POP DUP2 MSTORE PUSH1 0x20 ADD PUSH1 0x1A PUSH1 0xFF AND DUP2 MSTORE PUSH1 0x20 ADD PUSH1 0xB PUSH1 0xFF AND DUP2 MSTORE PUSH1 0x20 ADD PUSH1 0x1 PUSH1 0xFF AND DUP2 MSTORE PUSH1 0x20 ADD PUSH1 0x1 ISZERO ISZERO DUP2 MSTORE PUSH1 0x20 ADD PUSH0 DUP2 MSTORE POP PUSH1 0x1 PUSH0 PUSH5 0xE1522CF915 DUP2 MSTORE PUSH1 0x20 ADD SWAP1 DUP2 MSTORE PUSH1 0x20 ADD PUSH0 KECCAK256 PUSH0 DUP3 ADD MLOAD DUP2 PUSH0 ADD SSTORE PUSH1 0x20 DUP3 ADD MLOAD DUP2 PUSH1 0x1 ADD SWAP1 DUP2 PUSH3 0x1ED8 SWAP2 SWAP1 PUSH3 0x28F0 JUMP JUMPDEST POP PUSH1 0x40 DUP3 ADD MLOAD DUP2 PUSH1 0x2 ADD PUSH0 PUSH2 0x100 EXP DUP2 SLOAD DUP2 PUSH1 0xFF MUL NOT AND SWAP1 DUP4 PUSH1 0xFF AND MUL OR SWAP1 SSTORE POP PUSH1 0x60 DUP3 ADD MLOAD DUP2 PUSH1 0x2 ADD PUSH1 0x1 PUSH2 0x100 EXP DUP2 SLOAD DUP2 PUSH1 0xFF MUL NOT AND SWAP1 DUP4 PUSH1 0xFF AND MUL OR SWAP1 SSTORE POP PUSH1 0x80 DUP3 ADD MLOAD DUP2 PUSH1 0x2 ADD PUSH1 0x2 PUSH2 0x100 EXP DUP2 SLOAD DUP2 PUSH1 0xFF MUL NOT AND SWAP1 DUP4 PUSH1 0xFF AND MUL OR SWAP1 SSTORE POP PUSH1 0xA0 DUP3 ADD MLOAD DUP2 PUSH1 0x2 ADD PUSH1 0x3 PUSH2 0x100 EXP DUP2 SLOAD DUP2 PUSH1 0xFF MUL NOT AND SWAP1 DUP4 ISZERO ISZERO MUL OR SWAP1 SSTORE POP PUSH1 0xC0 DUP3 ADD MLOAD DUP2 PUSH1 0x3 ADD SSTORE SWAP1 POP POP PUSH1 0x40 MLOAD DUP1 PUSH1 0xE0 ADD PUSH1 0x40 MSTORE DUP1 PUSH5 0xA97C7F00EF DUP2 MSTORE PUSH1 0x20 ADD PUSH1 0x40 MLOAD DUP1 PUSH1 0x40 ADD PUSH1 0x40 MSTORE DUP1 PUSH1 0x7 DUP2 MSTORE PUSH1 0x20 ADD PUSH32 0x52616D6261627500000000000000000000000000000000000000000000000000 DUP2 MSTORE POP DUP2 MSTORE PUSH1 0x20 ADD PUSH1 0x11 PUSH1 0xFF AND DUP2 MSTORE PUSH1 0x20 ADD PUSH1 0xB PUSH1 0xFF AND DUP2 MSTORE PUSH1 0x20 ADD PUSH1 0x1 PUSH1 0xFF AND DUP2 MSTORE PUSH1 0x20 ADD PUSH1 0x1 ISZERO ISZERO DUP2 MSTORE PUSH1 0x20 ADD PUSH0 DUP2 MSTORE POP PUSH1 0x1 PUSH0 PUSH5 0xA97C7F00EF DUP2 MSTORE PUSH1 0x20 ADD SWAP1 DUP2 MSTORE PUSH1 0x20 ADD PUSH0 KECCAK256 PUSH0 DUP3 ADD MLOAD DUP2 PUSH0 ADD SSTORE PUSH1 0x20 DUP3 ADD MLOAD DUP2 PUSH1 0x1 ADD SWAP1 DUP2 PUSH3 0x2019 SWAP2 SWAP1 PUSH3 0x28F0 JUMP JUMPDEST POP PUSH1 0x40 DUP3 ADD MLOAD DUP2 PUSH1 0x2 ADD PUSH0 PUSH2 0x100 EXP DUP2 SLOAD DUP2 PUSH1 0xFF MUL NOT AND SWAP1 DUP4 PUSH1 0xFF AND MUL OR SWAP1 SSTORE POP PUSH1 0x60 DUP3 ADD MLOAD DUP2 PUSH1 0x2 ADD PUSH1 0x1 PUSH2 0x100 EXP DUP2 SLOAD DUP2 PUSH1 0xFF MUL NOT AND SWAP1 DUP4 PUSH1 0xFF AND MUL OR SWAP1 SSTORE POP PUSH1 0x80 DUP3 ADD MLOAD DUP2 PUSH1 0x2 ADD PUSH1 0x2 PUSH2 0x100 EXP DUP2 SLOAD DUP2 PUSH1 0xFF MUL NOT AND SWAP1 DUP4 PUSH1 0xFF AND MUL OR SWAP1 SSTORE POP PUSH1 0xA0 DUP3 ADD MLOAD DUP2 PUSH1 0x2 ADD PUSH1 0x3 PUSH2 0x100 EXP DUP2 SLOAD DUP2 PUSH1 0xFF MUL NOT AND SWAP1 DUP4 ISZERO ISZERO MUL OR SWAP1 SSTORE POP PUSH1 0xC0 DUP3 ADD MLOAD DUP2 PUSH1 0x3 ADD SSTORE SWAP1 POP POP PUSH1 0x40 MLOAD DUP1 PUSH1 0xE0 ADD PUSH1 0x40 MSTORE DUP1 PUSH5 0x8DCC2D6C78 DUP2 MSTORE PUSH1 0x20 ADD PUSH1 0x40 MLOAD DUP1 PUSH1 0x40 ADD PUSH1 0x40 MSTORE DUP1 PUSH1 0x7 DUP2 MSTORE PUSH1 0x20 ADD PUSH32 0x4D6174616A696900000000000000000000000000000000000000000000000000 DUP2 MSTORE POP DUP2 MSTORE PUSH1 0x20 ADD PUSH1 0x62 PUSH1 0xFF AND DUP2 MSTORE PUSH1 0x20 ADD PUSH1 0xB PUSH1 0xFF AND DUP2 MSTORE PUSH1 0x20 ADD PUSH1 0x1 PUSH1 0xFF AND DUP2 MSTORE PUSH1 0x20 ADD PUSH1 0x1 ISZERO ISZERO DUP2 MSTORE PUSH1 0x20 ADD PUSH0 DUP2 MSTORE POP PUSH1 0x1 PUSH0 PUSH5 0x8DCC2D6C78 DUP2 MSTORE PUSH1 0x20 ADD SWAP1 DUP2 MSTORE PUSH1 0x20 ADD PUSH0 KECCAK256 PUSH0 DUP3 ADD MLOAD DUP2 PUSH0 ADD SSTORE PUSH1 0x20 DUP3 ADD MLOAD DUP2 PUSH1 0x1 ADD SWAP1 DUP2 PUSH3 0x215A SWAP2 SWAP1 PUSH3 0x28F0 JUMP JUMPDEST POP PUSH1 0x40 DUP3 ADD MLOAD DUP2 PUSH1 0x2 ADD PUSH0 PUSH2 0x100 EXP DUP2 SLOAD DUP2 PUSH1 0xFF MUL NOT AND SWAP1 DUP4 PUSH1 0xFF AND MUL OR SWAP1 SSTORE POP PUSH1 0x60 DUP3 ADD MLOAD DUP2 PUSH1 0x2 ADD PUSH1 0x1 PUSH2 0x100 EXP DUP2 SLOAD DUP2 PUSH1 0xFF MUL NOT AND SWAP1 DUP4 PUSH1 0xFF AND MUL OR SWAP1 SSTORE POP PUSH1 0x80 DUP3 ADD MLOAD DUP2 PUSH1 0x2 ADD PUSH1 0x2 PUSH2 0x100 EXP DUP2 SLOAD DUP2 PUSH1 0xFF MUL NOT AND SWAP1 DUP4 PUSH1 0xFF AND MUL OR SWAP1 SSTORE POP PUSH1 0xA0 DUP3 ADD MLOAD DUP2 PUSH1 0x2 ADD PUSH1 0x3 PUSH2 0x100 EXP DUP2 SLOAD DUP2 PUSH1 0xFF MUL NOT AND SWAP1 DUP4 ISZERO ISZERO MUL OR SWAP1 SSTORE POP PUSH1 0xC0 DUP3 ADD MLOAD DUP2 PUSH1 0x3 ADD SSTORE SWAP1 POP POP PUSH1 0x40 MLOAD DUP1 PUSH1 0xE0 ADD PUSH1 0x40 MSTORE DUP1 PUSH5 0x90614C757C DUP2 MSTORE PUSH1 0x20 ADD PUSH1 0x40 MLOAD DUP1 PUSH1 0x40 ADD PUSH1 0x40 MSTORE DUP1 PUSH1 0x6 DUP2 MSTORE PUSH1 0x20 ADD PUSH32 0x4D616D6174610000000000000000000000000000000000000000000000000000 DUP2 MSTORE POP DUP2 MSTORE PUSH1 0x20 ADD PUSH1 0x3F PUSH1 0xFF AND DUP2 MSTORE PUSH1 0x20 ADD PUSH1 0xB PUSH1 0xFF AND DUP2 MSTORE PUSH1 0x20 ADD PUSH1 0x2 PUSH1 0xFF AND DUP2 MSTORE PUSH1 0x20 ADD PUSH0 ISZERO ISZERO DUP2 MSTORE PUSH1 0x20 ADD PUSH0 DUP2 MSTORE POP PUSH1 0x1 PUSH0 PUSH5 0x90614C757C DUP2 MSTORE PUSH1 0x20 ADD SWAP1 DUP2 MSTORE PUSH1 0x20 ADD PUSH0 KECCAK256 PUSH0 DUP3 ADD MLOAD DUP2 PUSH0 ADD SSTORE PUSH1 0x20 DUP3 ADD MLOAD DUP2 PUSH1 0x1 ADD SWAP1 DUP2 PUSH3 0x229A SWAP2 SWAP1 PUSH3 0x28F0 JUMP JUMPDEST POP PUSH1 0x40 DUP3 ADD MLOAD DUP2 PUSH1 0x2 ADD PUSH0 PUSH2 0x100 EXP DUP2 SLOAD DUP2 PUSH1 0xFF MUL NOT AND SWAP1 DUP4 PUSH1 0xFF AND MUL OR SWAP1 SSTORE POP PUSH1 0x60 DUP3 ADD MLOAD DUP2 PUSH1 0x2 ADD PUSH1 0x1 PUSH2 0x100 EXP DUP2 SLOAD DUP2 PUSH1 0xFF MUL NOT AND SWAP1 DUP4 PUSH1 0xFF AND MUL OR SWAP1 SSTORE POP PUSH1 0x80 DUP3 ADD MLOAD DUP2 PUSH1 0x2 ADD PUSH1 0x2 PUSH2 0x100 EXP DUP2 SLOAD DUP2 PUSH1 0xFF MUL NOT AND SWAP1 DUP4 PUSH1 0xFF AND MUL OR SWAP1 SSTORE POP PUSH1 0xA0 DUP3 ADD MLOAD DUP2 PUSH1 0x2 ADD PUSH1 0x3 PUSH2 0x100 EXP DUP2 SLOAD DUP2 PUSH1 0xFF MUL NOT AND SWAP1 DUP4 ISZERO ISZERO MUL OR SWAP1 SSTORE POP PUSH1 0xC0 DUP3 ADD MLOAD DUP2 PUSH1 0x3 ADD SSTORE SWAP1 POP POP PUSH1 0x40 MLOAD DUP1 PUSH1 0xE0 ADD PUSH1 0x40 MSTORE DUP1 PUSH5 0x5DF6210BD1 DUP2 MSTORE PUSH1 0x20 ADD PUSH1 0x40 MLOAD DUP1 PUSH1 0x40 ADD PUSH1 0x40 MSTORE DUP1 PUSH1 0xA DUP2 MSTORE PUSH1 0x20 ADD PUSH32 0x52617669205661726D6100000000000000000000000000000000000000000000 DUP2 MSTORE POP DUP2 MSTORE PUSH1 0x20 ADD PUSH1 0x2A PUSH1 0xFF AND DUP2 MSTORE PUSH1 0x20 ADD PUSH1 0xB PUSH1 0xFF AND DUP2 MSTORE PUSH1 0x20 ADD PUSH1 0x2 PUSH1 0xFF AND DUP2 MSTORE PUSH1 0x20 ADD PUSH1 0x1 ISZERO ISZERO DUP2 MSTORE PUSH1 0x20 ADD PUSH0 DUP2 MSTORE POP PUSH1 0x1 PUSH0 PUSH5 0x5DF6210BD1 DUP2 MSTORE PUSH1 0x20 ADD SWAP1 DUP2 MSTORE PUSH1 0x20 ADD PUSH0 KECCAK256 PUSH0 DUP3 ADD MLOAD DUP2 PUSH0 ADD SSTORE PUSH1 0x20 DUP3 ADD MLOAD DUP2 PUSH1 0x1 ADD SWAP1 DUP2 PUSH3 0x23DB SWAP2 SWAP1 PUSH3 0x28F0 JUMP JUMPDEST POP PUSH1 0x40 DUP3 ADD MLOAD DUP2 PUSH1 0x2 ADD PUSH0 PUSH2 0x100 EXP DUP2 SLOAD DUP2 PUSH1 0xFF MUL NOT AND SWAP1 DUP4 PUSH1 0xFF AND MUL OR SWAP1 SSTORE POP PUSH1 0x60 DUP3 ADD MLOAD DUP2 PUSH1 0x2 ADD PUSH1 0x1 PUSH2 0x100 EXP DUP2 SLOAD DUP2 PUSH1 0xFF MUL NOT AND SWAP1 DUP4 PUSH1 0xFF AND MUL OR SWAP1 SSTORE POP PUSH1 0x80 DUP3 ADD MLOAD DUP2 PUSH1 0x2 ADD PUSH1 0x2 PUSH2 0x100 EXP DUP2 SLOAD DUP2 PUSH1 0xFF MUL NOT AND SWAP1 DUP4 PUSH1 0xFF AND MUL OR SWAP1 SSTORE POP PUSH1 0xA0 DUP3 ADD MLOAD DUP2 PUSH1 0x2 ADD PUSH1 0x3 PUSH2 0x100 EXP DUP2 SLOAD DUP2 PUSH1 0xFF MUL NOT AND SWAP1 DUP4 ISZERO ISZERO MUL OR SWAP1 SSTORE POP PUSH1 0xC0 DUP3 ADD MLOAD DUP2 PUSH1 0x3 ADD SSTORE SWAP1 POP POP PUSH1 0x40 MLOAD DUP1 PUSH1 0xE0 ADD PUSH1 0x40 MSTORE DUP1 PUSH5 0xC31AEAF9AA DUP2 MSTORE PUSH1 0x20 ADD PUSH1 0x40 MLOAD DUP1 PUSH1 0x40 ADD PUSH1 0x40 MSTORE DUP1 PUSH1 0x5 DUP2 MSTORE PUSH1 0x20 ADD PUSH32 0x526168756C000000000000000000000000000000000000000000000000000000 DUP2 MSTORE POP DUP2 MSTORE PUSH1 0x20 ADD PUSH1 0x38 PUSH1 0xFF AND DUP2 MSTORE PUSH1 0x20 ADD PUSH1 0xB PUSH1 0xFF AND DUP2 MSTORE PUSH1 0x20 ADD PUSH1 0x2 PUSH1 0xFF AND DUP2 MSTORE PUSH1 0x20 ADD PUSH1 0x1 ISZERO ISZERO DUP2 MSTORE PUSH1 0x20 ADD PUSH0 DUP2 MSTORE POP PUSH1 0x1 PUSH0 PUSH5 0xC31AEAF9AA DUP2 MSTORE PUSH1 0x20 ADD SWAP1 DUP2 MSTORE PUSH1 0x20 ADD PUSH0 KECCAK256 PUSH0 DUP3 ADD MLOAD DUP2 PUSH0 ADD SSTORE PUSH1 0x20 DUP3 ADD MLOAD DUP2 PUSH1 0x1 ADD SWAP1 DUP2 PUSH3 0x251C SWAP2 SWAP1 PUSH3 0x28F0 JUMP JUMPDEST POP PUSH1 0x40 DUP3 ADD MLOAD DUP2 PUSH1 0x2 ADD PUSH0 PUSH2 0x100 EXP DUP2 SLOAD DUP2 PUSH1 0xFF MUL NOT AND SWAP1 DUP4 PUSH1 0xFF AND MUL OR SWAP1 SSTORE POP PUSH1 0x60 DUP3 ADD MLOAD DUP2 PUSH1 0x2 ADD PUSH1 0x1 PUSH2 0x100 EXP DUP2 SLOAD DUP2 PUSH1 0xFF MUL NOT AND SWAP1 DUP4 PUSH1 0xFF AND MUL OR SWAP1 SSTORE POP PUSH1 0x80 DUP3 ADD MLOAD DUP2 PUSH1 0x2 ADD PUSH1 0x2 PUSH2 0x100 EXP DUP2 SLOAD DUP2 PUSH1 0xFF MUL NOT AND SWAP1 DUP4 PUSH1 0xFF AND MUL OR SWAP1 SSTORE POP PUSH1 0xA0 DUP3 ADD MLOAD DUP2 PUSH1 0x2 ADD PUSH1 0x3 PUSH2 0x100 EXP DUP2 SLOAD DUP2 PUSH1 0xFF MUL NOT AND SWAP1 DUP4 ISZERO ISZERO MUL OR SWAP1 SSTORE POP PUSH1 0xC0 DUP3 ADD MLOAD DUP2 PUSH1 0x3 ADD SSTORE SWAP1 POP POP JUMP JUMPDEST PUSH1 0x40 MLOAD DUP1 PUSH1 0xC0 ADD PUSH1 0x40 MSTORE DUP1 PUSH1 0x60 DUP2 MSTORE PUSH1 0x20 ADD PUSH1 0x60 DUP2 MSTORE PUSH1 0x20 ADD PUSH1 0x60 DUP2 MSTORE PUSH1 0x20 ADD PUSH0 DUP2 MSTORE PUSH1 0x20 ADD PUSH0 PUSH1 0xFF AND DUP2 MSTORE PUSH1 0x20 ADD PUSH0 PUSH1 0xFF AND DUP2 MSTORE POP SWAP1 JUMP JUMPDEST PUSH0 DUP1 REVERT JUMPDEST PUSH0 DUP2 SWAP1 POP SWAP2 SWAP1 POP JUMP JUMPDEST PUSH3 0x25FF DUP2 PUSH3 0x25EB JUMP JUMPDEST DUP2 EQ PUSH3 0x260A JUMPI PUSH0 DUP1 REVERT JUMPDEST POP JUMP JUMPDEST PUSH0 DUP2 MLOAD SWAP1 POP PUSH3 0x261D DUP2 PUSH3 0x25F4 JUMP JUMPDEST SWAP3 SWAP2 POP POP JUMP JUMPDEST PUSH0 DUP1 PUSH1 0x40 DUP4 DUP6 SUB SLT ISZERO PUSH3 0x263C JUMPI PUSH3 0x263B PUSH3 0x25E7 JUMP JUMPDEST JUMPDEST PUSH0 PUSH3 0x264B DUP6 DUP3 DUP7 ADD PUSH3 0x260D JUMP JUMPDEST SWAP3 POP POP PUSH1 0x20 PUSH3 0x265E DUP6 DUP3 DUP7 ADD PUSH3 0x260D JUMP JUMPDEST SWAP2 POP POP SWAP3 POP SWAP3 SWAP1 POP JUMP JUMPDEST PUSH32 0x4E487B7100000000000000000000000000000000000000000000000000000000 PUSH0 MSTORE PUSH1 0x41 PUSH1 0x4 MSTORE PUSH1 0x24 PUSH0 REVERT JUMPDEST PUSH32 0x4E487B7100000000000000000000000000000000000000000000000000000000 PUSH0 MSTORE PUSH1 0x32 PUSH1 0x4 MSTORE PUSH1 0x24 PUSH0 REVERT JUMPDEST PUSH0 DUP2 MLOAD SWAP1 POP SWAP2 SWAP1 POP JUMP JUMPDEST PUSH32 0x4E487B7100000000000000000000000000000000000000000000000000000000 PUSH0 MSTORE PUSH1 0x22 PUSH1 0x4 MSTORE PUSH1 0x24 PUSH0 REVERT JUMPDEST PUSH0 PUSH1 0x2 DUP3 DIV SWAP1 POP PUSH1 0x1 DUP3 AND DUP1 PUSH3 0x2711 JUMPI PUSH1 0x7F DUP3 AND SWAP2 POP JUMPDEST PUSH1 0x20 DUP3 LT DUP2 SUB PUSH3 0x2727 JUMPI PUSH3 0x2726 PUSH3 0x26CC JUMP JUMPDEST JUMPDEST POP SWAP2 SWAP1 POP JUMP JUMPDEST PUSH0 DUP2 SWAP1 POP DUP2 PUSH0 MSTORE PUSH1 0x20 PUSH0 KECCAK256 SWAP1 POP SWAP2 SWAP1 POP JUMP JUMPDEST PUSH0 PUSH1 0x20 PUSH1 0x1F DUP4 ADD DIV SWAP1 POP SWAP2 SWAP1 POP JUMP JUMPDEST PUSH0 DUP3 DUP3 SHL SWAP1 POP SWAP3 SWAP2 POP POP JUMP JUMPDEST PUSH0 PUSH1 0x8 DUP4 MUL PUSH3 0x278B PUSH32 0xFFFFFFFFFFFFFFFFFFFFFFFFFFFFFFFFFFFFFFFFFFFFFFFFFFFFFFFFFFFFFFFF DUP3 PUSH3 0x274E JUMP JUMPDEST PUSH3 0x2797 DUP7 DUP4 PUSH3 0x274E JUMP JUMPDEST SWAP6 POP DUP1 NOT DUP5 AND SWAP4 POP DUP1 DUP7 AND DUP5 OR SWAP3 POP POP POP SWAP4 SWAP3 POP POP POP JUMP JUMPDEST PUSH0 DUP2 SWAP1 POP SWAP2 SWAP1 POP JUMP JUMPDEST PUSH0 PUSH3 0x27D8 PUSH3 0x27D2 PUSH3 0x27CC DUP5 PUSH3 0x25EB JUMP JUMPDEST PUSH3 0x27AF JUMP JUMPDEST PUSH3 0x25EB JUMP JUMPDEST SWAP1 POP SWAP2 SWAP1 POP JUMP JUMPDEST PUSH0 DUP2 SWAP1 POP SWAP2 SWAP1 POP JUMP JUMPDEST PUSH3 0x27F3 DUP4 PUSH3 0x27B8 JUMP JUMPDEST PUSH3 0x280B PUSH3 0x2802 DUP3 PUSH3 0x27DF JUMP JUMPDEST DUP5 DUP5 SLOAD PUSH3 0x275A JUMP JUMPDEST DUP3 SSTORE POP POP POP POP JUMP JUMPDEST PUSH0 SWAP1 JUMP JUMPDEST PUSH3 0x2821 PUSH3 0x2813 JUMP JUMPDEST PUSH3 0x282E DUP2 DUP5 DUP5 PUSH3 0x27E8 JUMP JUMPDEST POP POP POP JUMP JUMPDEST JUMPDEST DUP2 DUP2 LT ISZERO PUSH3 0x2855 JUMPI PUSH3 0x2849 PUSH0 DUP3 PUSH3 0x2817 JUMP JUMPDEST PUSH1 0x1 DUP2 ADD SWAP1 POP PUSH3 0x2834 JUMP JUMPDEST POP POP JUMP JUMPDEST PUSH1 0x1F DUP3 GT ISZERO PUSH3 0x28A4 JUMPI PUSH3 0x286E DUP2 PUSH3 0x272D JUMP JUMPDEST PUSH3 0x2879 DUP5 PUSH3 0x273F JUMP JUMPDEST DUP2 ADD PUSH1 0x20 DUP6 LT ISZERO PUSH3 0x2889 JUMPI DUP2 SWAP1 POP JUMPDEST PUSH3 0x28A1 PUSH3 0x2898 DUP6 PUSH3 0x273F JUMP JUMPDEST DUP4 ADD DUP3 PUSH3 0x2833 JUMP JUMPDEST POP POP JUMPDEST POP POP POP JUMP JUMPDEST PUSH0 DUP3 DUP3 SHR SWAP1 POP SWAP3 SWAP2 POP POP JUMP JUMPDEST PUSH0 PUSH3 0x28C6 PUSH0 NOT DUP5 PUSH1 0x8 MUL PUSH3 0x28A9 JUMP JUMPDEST NOT DUP1 DUP4 AND SWAP2 POP POP SWAP3 SWAP2 POP POP JUMP JUMPDEST PUSH0 PUSH3 0x28E0 DUP4 DUP4 PUSH3 0x28B5 JUMP JUMPDEST SWAP2 POP DUP3 PUSH1 0x2 MUL DUP3 OR SWAP1 POP SWAP3 SWAP2 POP POP JUMP JUMPDEST PUSH3 0x28FB DUP3 PUSH3 0x26C2 JUMP JUMPDEST PUSH8 0xFFFFFFFFFFFFFFFF DUP2 GT ISZERO PUSH3 0x2917 JUMPI PUSH3 0x2916 PUSH3 0x2668 JUMP JUMPDEST JUMPDEST PUSH3 0x2923 DUP3 SLOAD PUSH3 0x26F9 JUMP JUMPDEST PUSH3 0x2930 DUP3 DUP3 DUP6 PUSH3 0x2859 JUMP JUMPDEST PUSH0 PUSH1 0x20 SWAP1 POP PUSH1 0x1F DUP4 GT PUSH1 0x1 DUP2 EQ PUSH3 0x2966 JUMPI PUSH0 DUP5 ISZERO PUSH3 0x2951 JUMPI DUP3 DUP8 ADD MLOAD SWAP1 POP JUMPDEST PUSH3 0x295D DUP6 DUP3 PUSH3 0x28D3 JUMP JUMPDEST DUP7 SSTORE POP PUSH3 0x29CC JUMP JUMPDEST PUSH1 0x1F NOT DUP5 AND PUSH3 0x2976 DUP7 PUSH3 0x272D JUMP JUMPDEST PUSH0 JUMPDEST DUP3 DUP2 LT ISZERO PUSH3 0x299F JUMPI DUP5 DUP10 ADD MLOAD DUP3 SSTORE PUSH1 0x1 DUP3 ADD SWAP2 POP PUSH1 0x20 DUP6 ADD SWAP5 POP PUSH1 0x20 DUP2 ADD SWAP1 POP PUSH3 0x2978 JUMP JUMPDEST DUP7 DUP4 LT ISZERO PUSH3 0x29BF JUMPI DUP5 DUP10 ADD MLOAD PUSH3 0x29BB PUSH1 0x1F DUP10 AND DUP3 PUSH3 0x28B5 JUMP JUMPDEST DUP4 SSTORE POP JUMPDEST PUSH1 0x1 PUSH1 0x2 DUP9 MUL ADD DUP9 SSTORE POP POP POP JUMPDEST POP POP POP POP POP POP JUMP JUMPDEST PUSH32 0x4E487B7100000000000000000000000000000000000000000000000000000000 PUSH0 MSTORE PUSH1 0x11 PUSH1 0x4 MSTORE PUSH1 0x24 PUSH0 REVERT JUMPDEST PUSH0 PUSH3 0x2A0D DUP3 PUSH3 0x25EB JUMP JUMPDEST SWAP2 POP PUSH32 0xFFFFFFFFFFFFFFFFFFFFFFFFFFFFFFFFFFFFFFFFFFFFFFFFFFFFFFFFFFFFFFFF DUP3 SUB PUSH3 0x2A42 JUMPI PUSH3 0x2A41 PUSH3 0x29D4 JUMP JUMPDEST JUMPDEST PUSH1 0x1 DUP3 ADD SWAP1 POP SWAP2 SWAP1 POP JUMP JUMPDEST PUSH2 0x1C1F DUP1 PUSH3 0x2A5B PUSH0 CODECOPY PUSH0 RETURN INVALID PUSH1 0x80 PUSH1 0x40 MSTORE CALLVALUE DUP1 ISZERO PUSH2 0xF JUMPI PUSH0 DUP1 REVERT JUMPDEST POP PUSH1 0x4 CALLDATASIZE LT PUSH2 0x91 JUMPI PUSH0 CALLDATALOAD PUSH1 0xE0 SHR DUP1 PUSH4 0x81A60C0D GT PUSH2 0x64 JUMPI DUP1 PUSH4 0x81A60C0D EQ PUSH2 0x147 JUMPI DUP1 PUSH4 0x8A6655D6 EQ PUSH2 0x177 JUMPI DUP1 PUSH4 0xB1BF87B0 EQ PUSH2 0x193 JUMPI DUP1 PUSH4 0xB9D84552 EQ PUSH2 0x1B1 JUMPI DUP1 PUSH4 0xDCE8D8A3 EQ PUSH2 0x1CD JUMPI PUSH2 0x91 JUMP JUMPDEST DUP1 PUSH4 0x3477EE2E EQ PUSH2 0x95 JUMPI DUP1 PUSH4 0x5D816E22 EQ PUSH2 0xCA JUMPI DUP1 PUSH4 0x5E23C37C EQ PUSH2 0xE6 JUMPI DUP1 PUSH4 0x618BDE0A EQ PUSH2 0x117 JUMPI JUMPDEST PUSH0 DUP1 REVERT JUMPDEST PUSH2 0xAF PUSH1 0x4 DUP1 CALLDATASIZE SUB DUP2 ADD SWAP1 PUSH2 0xAA SWAP2 SWAP1 PUSH2 0x1445 JUMP JUMPDEST PUSH2 0x1FD JUMP JUMPDEST PUSH1 0x40 MLOAD PUSH2 0xC1 SWAP7 SWAP6 SWAP5 SWAP4 SWAP3 SWAP2 SWAP1 PUSH2 0x1524 JUMP JUMPDEST PUSH1 0x40 MLOAD DUP1 SWAP2 SUB SWAP1 RETURN JUMPDEST PUSH2 0xE4 PUSH1 0x4 DUP1 CALLDATASIZE SUB DUP2 ADD SWAP1 PUSH2 0xDF SWAP2 SWAP1 PUSH2 0x1598 JUMP JUMPDEST PUSH2 0x3EE JUMP JUMPDEST STOP JUMPDEST PUSH2 0x100 PUSH1 0x4 DUP1 CALLDATASIZE SUB DUP2 ADD SWAP1 PUSH2 0xFB SWAP2 SWAP1 PUSH2 0x1445 JUMP JUMPDEST PUSH2 0x46B JUMP JUMPDEST PUSH1 0x40 MLOAD PUSH2 0x10E SWAP3 SWAP2 SWAP1 PUSH2 0x16EA JUMP JUMPDEST PUSH1 0x40 MLOAD DUP1 SWAP2 SUB SWAP1 RETURN JUMPDEST PUSH2 0x131 PUSH1 0x4 DUP1 CALLDATASIZE SUB DUP2 ADD SWAP1 PUSH2 0x12C SWAP2 SWAP1 PUSH2 0x1445 JUMP JUMPDEST PUSH2 0x6BE JUMP JUMPDEST PUSH1 0x40 MLOAD PUSH2 0x13E SWAP2 SWAP1 PUSH2 0x1867 JUMP JUMPDEST PUSH1 0x40 MLOAD DUP1 SWAP2 SUB SWAP1 RETURN JUMPDEST PUSH2 0x161 PUSH1 0x4 DUP1 CALLDATASIZE SUB DUP2 ADD SWAP1 PUSH2 0x15C SWAP2 SWAP1 PUSH2 0x1445 JUMP JUMPDEST PUSH2 0xB11 JUMP JUMPDEST PUSH1 0x40 MLOAD PUSH2 0x16E SWAP2 SWAP1 PUSH2 0x19E9 JUMP JUMPDEST PUSH1 0x40 MLOAD DUP1 SWAP2 SUB SWAP1 RETURN JUMPDEST PUSH2 0x191 PUSH1 0x4 DUP1 CALLDATASIZE SUB DUP2 ADD SWAP1 PUSH2 0x18C SWAP2 SWAP1 PUSH2 0x1A09 JUMP JUMPDEST PUSH2 0xEA6 JUMP JUMPDEST STOP JUMPDEST PUSH2 0x19B PUSH2 0x12C6 JUMP JUMPDEST PUSH1 0x40 MLOAD PUSH2 0x1A8 SWAP2 SWAP1 PUSH2 0x1A59 JUMP JUMPDEST PUSH1 0x40 MLOAD DUP1 SWAP2 SUB SWAP1 RETURN JUMPDEST PUSH2 0x1CB PUSH1 0x4 DUP1 CALLDATASIZE SUB DUP2 ADD SWAP1 PUSH2 0x1C6 SWAP2 SWAP1 PUSH2 0x1598 JUMP JUMPDEST PUSH2 0x12CF JUMP JUMPDEST STOP JUMPDEST PUSH2 0x1E7 PUSH1 0x4 DUP1 CALLDATASIZE SUB DUP2 ADD SWAP1 PUSH2 0x1E2 SWAP2 SWAP1 PUSH2 0x1445 JUMP JUMPDEST PUSH2 0x133F JUMP JUMPDEST PUSH1 0x40 MLOAD PUSH2 0x1F4 SWAP2 SWAP1 PUSH2 0x1A72 JUMP JUMPDEST PUSH1 0x40 MLOAD DUP1 SWAP2 SUB SWAP1 RETURN JUMPDEST PUSH0 DUP2 DUP2 SLOAD DUP2 LT PUSH2 0x20B JUMPI PUSH0 DUP1 REVERT JUMPDEST SWAP1 PUSH0 MSTORE PUSH1 0x20 PUSH0 KECCAK256 SWAP1 PUSH1 0x5 MUL ADD PUSH0 SWAP2 POP SWAP1 POP DUP1 PUSH0 ADD DUP1 SLOAD PUSH2 0x22A SWAP1 PUSH2 0x1AB8 JUMP JUMPDEST DUP1 PUSH1 0x1F ADD PUSH1 0x20 DUP1 SWAP2 DIV MUL PUSH1 0x20 ADD PUSH1 0x40 MLOAD SWAP1 DUP2 ADD PUSH1 0x40 MSTORE DUP1 SWAP3 SWAP2 SWAP1 DUP2 DUP2 MSTORE PUSH1 0x20 ADD DUP3 DUP1 SLOAD PUSH2 0x256 SWAP1 PUSH2 0x1AB8 JUMP JUMPDEST DUP1 ISZERO PUSH2 0x2A1 JUMPI DUP1 PUSH1 0x1F LT PUSH2 0x278 JUMPI PUSH2 0x100 DUP1 DUP4 SLOAD DIV MUL DUP4 MSTORE SWAP2 PUSH1 0x20 ADD SWAP2 PUSH2 0x2A1 JUMP JUMPDEST DUP3 ADD SWAP2 SWAP1 PUSH0 MSTORE PUSH1 0x20 PUSH0 KECCAK256 SWAP1 JUMPDEST DUP2 SLOAD DUP2 MSTORE SWAP1 PUSH1 0x1 ADD SWAP1 PUSH1 0x20 ADD DUP1 DUP4 GT PUSH2 0x284 JUMPI DUP3 SWAP1 SUB PUSH1 0x1F AND DUP3 ADD SWAP2 JUMPDEST POP POP POP POP POP SWAP1 DUP1 PUSH1 0x1 ADD DUP1 SLOAD PUSH2 0x2B6 SWAP1 PUSH2 0x1AB8 JUMP JUMPDEST DUP1 PUSH1 0x1F ADD PUSH1 0x20 DUP1 SWAP2 DIV MUL PUSH1 0x20 ADD PUSH1 0x40 MLOAD SWAP1 DUP2 ADD PUSH1 0x40 MSTORE DUP1 SWAP3 SWAP2 SWAP1 DUP2 DUP2 MSTORE PUSH1 0x20 ADD DUP3 DUP1 SLOAD PUSH2 0x2E2 SWAP1 PUSH2 0x1AB8 JUMP JUMPDEST DUP1 ISZERO PUSH2 0x32D JUMPI DUP1 PUSH1 0x1F LT PUSH2 0x304 JUMPI PUSH2 0x100 DUP1 DUP4 SLOAD DIV MUL DUP4 MSTORE SWAP2 PUSH1 0x20 ADD SWAP2 PUSH2 0x32D JUMP JUMPDEST DUP3 ADD SWAP2 SWAP1 PUSH0 MSTORE PUSH1 0x20 PUSH0 KECCAK256 SWAP1 JUMPDEST DUP2 SLOAD DUP2 MSTORE SWAP1 PUSH1 0x1 ADD SWAP1 PUSH1 0x20 ADD DUP1 DUP4 GT PUSH2 0x310 JUMPI DUP3 SWAP1 SUB PUSH1 0x1F AND DUP3 ADD SWAP2 JUMPDEST POP POP POP POP POP SWAP1 DUP1 PUSH1 0x2 ADD DUP1 SLOAD PUSH2 0x342 SWAP1 PUSH2 0x1AB8 JUMP JUMPDEST DUP1 PUSH1 0x1F ADD PUSH1 0x20 DUP1 SWAP2 DIV MUL PUSH1 0x20 ADD PUSH1 0x40 MLOAD SWAP1 DUP2 ADD PUSH1 0x40 MSTORE DUP1 SWAP3 SWAP2 SWAP1 DUP2 DUP2 MSTORE PUSH1 0x20 ADD DUP3 DUP1 SLOAD PUSH2 0x36E SWAP1 PUSH2 0x1AB8 JUMP JUMPDEST DUP1 ISZERO PUSH2 0x3B9 JUMPI DUP1 PUSH1 0x1F LT PUSH2 0x390 JUMPI PUSH2 0x100 DUP1 DUP4 SLOAD DIV MUL DUP4 MSTORE SWAP2 PUSH1 0x20 ADD SWAP2 PUSH2 0x3B9 JUMP JUMPDEST DUP3 ADD SWAP2 SWAP1 PUSH0 MSTORE PUSH1 0x20 PUSH0 KECCAK256 SWAP1 JUMPDEST DUP2 SLOAD DUP2 MSTORE SWAP1 PUSH1 0x1 ADD SWAP1 PUSH1 0x20 ADD DUP1 DUP4 GT PUSH2 0x39C JUMPI DUP3 SWAP1 SUB PUSH1 0x1F AND DUP3 ADD SWAP2 JUMPDEST POP POP POP POP POP SWAP1 DUP1 PUSH1 0x3 ADD SLOAD SWAP1 DUP1 PUSH1 0x4 ADD PUSH0 SWAP1 SLOAD SWAP1 PUSH2 0x100 EXP SWAP1 DIV PUSH1 0xFF AND SWAP1 DUP1 PUSH1 0x4 ADD PUSH1 0x1 SWAP1 SLOAD SWAP1 PUSH2 0x100 EXP SWAP1 DIV PUSH1 0xFF AND SWAP1 POP DUP7 JUMP JUMPDEST PUSH1 0x4 PUSH0 SWAP1 SLOAD SWAP1 PUSH2 0x100 EXP SWAP1 DIV PUSH20 0xFFFFFFFFFFFFFFFFFFFFFFFFFFFFFFFFFFFFFFFF AND PUSH20 0xFFFFFFFFFFFFFFFFFFFFFFFFFFFFFFFFFFFFFFFF AND CALLER PUSH20 0xFFFFFFFFFFFFFFFFFFFFFFFFFFFFFFFFFFFFFFFF AND EQ PUSH2 0x446 JUMPI PUSH0 DUP1 REVERT JUMPDEST DUP1 PUSH1 0x5 SLOAD LT PUSH2 0x453 JUMPI PUSH0 DUP1 REVERT JUMPDEST DUP1 PUSH1 0x6 SLOAD GT PUSH2 0x460 JUMPI PUSH0 DUP1 REVERT JUMPDEST DUP2 PUSH1 0x6 DUP2 SWAP1 SSTORE POP POP POP JUMP JUMPDEST PUSH0 PUSH2 0x474 PUSH2 0x1396 JUMP JUMPDEST PUSH0 PUSH1 0x1 PUSH0 DUP6 DUP2 MSTORE PUSH1 0x20 ADD SWAP1 DUP2 MSTORE PUSH1 0x20 ADD PUSH0 KECCAK256 PUSH1 0x3 ADD SLOAD EQ ISZERO SWAP2 POP DUP2 ISZERO PUSH2 0x6B9 JUMPI PUSH1 0x2 PUSH0 PUSH1 0x1 PUSH0 DUP7 DUP2 MSTORE PUSH1 0x20 ADD SWAP1 DUP2 MSTORE PUSH1 0x20 ADD PUSH0 KECCAK256 PUSH1 0x3 ADD SLOAD DUP2 MSTORE PUSH1 0x20 ADD SWAP1 DUP2 MSTORE PUSH1 0x20 ADD PUSH0 KECCAK256 PUSH1 0x40 MLOAD DUP1 PUSH1 0xC0 ADD PUSH1 0x40 MSTORE SWAP1 DUP2 PUSH0 DUP3 ADD DUP1 SLOAD PUSH2 0x4D3 SWAP1 PUSH2 0x1AB8 JUMP JUMPDEST DUP1 PUSH1 0x1F ADD PUSH1 0x20 DUP1 SWAP2 DIV MUL PUSH1 0x20 ADD PUSH1 0x40 MLOAD SWAP1 DUP2 ADD PUSH1 0x40 MSTORE DUP1 SWAP3 SWAP2 SWAP1 DUP2 DUP2 MSTORE PUSH1 0x20 ADD DUP3 DUP1 SLOAD PUSH2 0x4FF SWAP1 PUSH2 0x1AB8 JUMP JUMPDEST DUP1 ISZERO PUSH2 0x54A JUMPI DUP1 PUSH1 0x1F LT PUSH2 0x521 JUMPI PUSH2 0x100 DUP1 DUP4 SLOAD DIV MUL DUP4 MSTORE SWAP2 PUSH1 0x20 ADD SWAP2 PUSH2 0x54A JUMP JUMPDEST DUP3 ADD SWAP2 SWAP1 PUSH0 MSTORE PUSH1 0x20 PUSH0 KECCAK256 SWAP1 JUMPDEST DUP2 SLOAD DUP2 MSTORE SWAP1 PUSH1 0x1 ADD SWAP1 PUSH1 0x20 ADD DUP1 DUP4 GT PUSH2 0x52D JUMPI DUP3 SWAP1 SUB PUSH1 0x1F AND DUP3 ADD SWAP2 JUMPDEST POP POP POP POP POP DUP2 MSTORE PUSH1 0x20 ADD PUSH1 0x1 DUP3 ADD DUP1 SLOAD PUSH2 0x563 SWAP1 PUSH2 0x1AB8 JUMP JUMPDEST DUP1 PUSH1 0x1F ADD PUSH1 0x20 DUP1 SWAP2 DIV MUL PUSH1 0x20 ADD PUSH1 0x40 MLOAD SWAP1 DUP2 ADD PUSH1 0x40 MSTORE DUP1 SWAP3 SWAP2 SWAP1 DUP2 DUP2 MSTORE PUSH1 0x20 ADD DUP3 DUP1 SLOAD PUSH2 0x58F SWAP1 PUSH2 0x1AB8 JUMP JUMPDEST DUP1 ISZERO PUSH2 0x5DA JUMPI DUP1 PUSH1 0x1F LT PUSH2 0x5B1 JUMPI PUSH2 0x100 DUP1 DUP4 SLOAD DIV MUL DUP4 MSTORE SWAP2 PUSH1 0x20 ADD SWAP2 PUSH2 0x5DA JUMP JUMPDEST DUP3 ADD SWAP2 SWAP1 PUSH0 MSTORE PUSH1 0x20 PUSH0 KECCAK256 SWAP1 JUMPDEST DUP2 SLOAD DUP2 MSTORE SWAP1 PUSH1 0x1 ADD SWAP1 PUSH1 0x20 ADD DUP1 DUP4 GT PUSH2 0x5BD JUMPI DUP3 SWAP1 SUB PUSH1 0x1F AND DUP3 ADD SWAP2 JUMPDEST POP POP POP POP POP DUP2 MSTORE PUSH1 0x20 ADD PUSH1 0x2 DUP3 ADD DUP1 SLOAD PUSH2 0x5F3 SWAP1 PUSH2 0x1AB8 JUMP JUMPDEST DUP1 PUSH1 0x1F ADD PUSH1 0x20 DUP1 SWAP2 DIV MUL PUSH1 0x20 ADD PUSH1 0x40 MLOAD SWAP1 DUP2 ADD PUSH1 0x40 MSTORE DUP1 SWAP3 SWAP2 SWAP1 DUP2 DUP2 MSTORE PUSH1 0x20 ADD DUP3 DUP1 SLOAD PUSH2 0x61F SWAP1 PUSH2 0x1AB8 JUMP JUMPDEST DUP1 ISZERO PUSH2 0x66A JUMPI DUP1 PUSH1 0x1F LT PUSH2 0x641 JUMPI PUSH2 0x100 DUP1 DUP4 SLOAD DIV MUL DUP4 MSTORE SWAP2 PUSH1 0x20 ADD SWAP2 PUSH2 0x66A JUMP JUMPDEST DUP3 ADD SWAP2 SWAP1 PUSH0 MSTORE PUSH1 0x20 PUSH0 KECCAK256 SWAP1 JUMPDEST DUP2 SLOAD DUP2 MSTORE SWAP1 PUSH1 0x1 ADD SWAP1 PUSH1 0x20 ADD DUP1 DUP4 GT PUSH2 0x64D JUMPI DUP3 SWAP1 SUB PUSH1 0x1F AND DUP3 ADD SWAP2 JUMPDEST POP POP POP POP POP DUP2 MSTORE PUSH1 0x20 ADD PUSH1 0x3 DUP3 ADD SLOAD DUP2 MSTORE PUSH1 0x20 ADD PUSH1 0x4 DUP3 ADD PUSH0 SWAP1 SLOAD SWAP1 PUSH2 0x100 EXP SWAP1 DIV PUSH1 0xFF AND PUSH1 0xFF AND PUSH1 0xFF AND DUP2 MSTORE PUSH1 0x20 ADD PUSH1 0x4 DUP3 ADD PUSH1 0x1 SWAP1 SLOAD SWAP1 PUSH2 0x100 EXP SWAP1 DIV PUSH1 0xFF AND PUSH1 0xFF AND PUSH1 0xFF AND DUP2 MSTORE POP POP SWAP1 POP JUMPDEST SWAP2 POP SWAP2 JUMP JUMPDEST PUSH1 0x60 PUSH0 PUSH1 0x1 PUSH0 DUP5 DUP2 MSTORE PUSH1 0x20 ADD SWAP1 DUP2 MSTORE PUSH1 0x20 ADD PUSH0 KECCAK256 SWAP1 POP PUSH0 DUP1 JUMPDEST PUSH0 DUP1 SLOAD SWAP1 POP DUP2 LT ISZERO PUSH2 0x7A3 JUMPI PUSH0 DUP2 DUP2 SLOAD DUP2 LT PUSH2 0x6F6 JUMPI PUSH2 0x6F5 PUSH2 0x1AE8 JUMP JUMPDEST JUMPDEST SWAP1 PUSH0 MSTORE PUSH1 0x20 PUSH0 KECCAK256 SWAP1 PUSH1 0x5 MUL ADD PUSH1 0x4 ADD PUSH0 SWAP1 SLOAD SWAP1 PUSH2 0x100 EXP SWAP1 DIV PUSH1 0xFF AND PUSH1 0xFF AND DUP4 PUSH1 0x2 ADD PUSH1 0x1 SWAP1 SLOAD SWAP1 PUSH2 0x100 EXP SWAP1 DIV PUSH1 0xFF AND PUSH1 0xFF AND EQ DUP1 ISZERO PUSH2 0x77C JUMPI POP PUSH0 DUP2 DUP2 SLOAD DUP2 LT PUSH2 0x745 JUMPI PUSH2 0x744 PUSH2 0x1AE8 JUMP JUMPDEST JUMPDEST SWAP1 PUSH0 MSTORE PUSH1 0x20 PUSH0 KECCAK256 SWAP1 PUSH1 0x5 MUL ADD PUSH1 0x4 ADD PUSH1 0x1 SWAP1 SLOAD SWAP1 PUSH2 0x100 EXP SWAP1 DIV PUSH1 0xFF AND PUSH1 0xFF AND DUP4 PUSH1 0x2 ADD PUSH1 0x2 SWAP1 SLOAD SWAP1 PUSH2 0x100 EXP SWAP1 DIV PUSH1 0xFF AND PUSH1 0xFF AND EQ JUMPDEST ISZERO PUSH2 0x790 JUMPI DUP2 DUP1 PUSH2 0x78C SWAP1 PUSH2 0x1B42 JUMP JUMPDEST SWAP3 POP POP JUMPDEST DUP1 DUP1 PUSH2 0x79B SWAP1 PUSH2 0x1B42 JUMP JUMPDEST SWAP2 POP POP PUSH2 0x6D7 JUMP JUMPDEST POP PUSH0 DUP2 PUSH8 0xFFFFFFFFFFFFFFFF DUP2 GT ISZERO PUSH2 0x7BF JUMPI PUSH2 0x7BE PUSH2 0x1B89 JUMP JUMPDEST JUMPDEST PUSH1 0x40 MLOAD SWAP1 DUP1 DUP3 MSTORE DUP1 PUSH1 0x20 MUL PUSH1 0x20 ADD DUP3 ADD PUSH1 0x40 MSTORE DUP1 ISZERO PUSH2 0x7F8 JUMPI DUP2 PUSH1 0x20 ADD JUMPDEST PUSH2 0x7E5 PUSH2 0x1396 JUMP JUMPDEST DUP2 MSTORE PUSH1 0x20 ADD SWAP1 PUSH1 0x1 SWAP1 SUB SWAP1 DUP2 PUSH2 0x7DD JUMPI SWAP1 POP JUMPDEST POP SWAP1 POP PUSH0 DUP1 JUMPDEST PUSH0 DUP1 SLOAD SWAP1 POP DUP2 LT ISZERO PUSH2 0xB04 JUMPI PUSH0 DUP2 DUP2 SLOAD DUP2 LT PUSH2 0x81D JUMPI PUSH2 0x81C PUSH2 0x1AE8 JUMP JUMPDEST JUMPDEST SWAP1 PUSH0 MSTORE PUSH1 0x20 PUSH0 KECCAK256 SWAP1 PUSH1 0x5 MUL ADD PUSH1 0x4 ADD PUSH0 SWAP1 SLOAD SWAP1 PUSH2 0x100 EXP SWAP1 DIV PUSH1 0xFF AND PUSH1 0xFF AND DUP6 PUSH1 0x2 ADD PUSH1 0x1 SWAP1 SLOAD SWAP1 PUSH2 0x100 EXP SWAP1 DIV PUSH1 0xFF AND PUSH1 0xFF AND EQ DUP1 ISZERO PUSH2 0x8A3 JUMPI POP PUSH0 DUP2 DUP2 SLOAD DUP2 LT PUSH2 0x86C JUMPI PUSH2 0x86B PUSH2 0x1AE8 JUMP JUMPDEST JUMPDEST SWAP1 PUSH0 MSTORE PUSH1 0x20 PUSH0 KECCAK256 SWAP1 PUSH1 0x5 MUL ADD PUSH1 0x4 ADD PUSH1 0x1 SWAP1 SLOAD SWAP1 PUSH2 0x100 EXP SWAP1 DIV PUSH1 0xFF AND PUSH1 0xFF AND DUP6 PUSH1 0x2 ADD PUSH1 0x2 SWAP1 SLOAD SWAP1 PUSH2 0x100 EXP SWAP1 DIV PUSH1 0xFF AND PUSH1 0xFF AND EQ JUMPDEST ISZERO PUSH2 0xAF1 JUMPI PUSH0 DUP2 DUP2 SLOAD DUP2 LT PUSH2 0x8BB JUMPI PUSH2 0x8BA PUSH2 0x1AE8 JUMP JUMPDEST JUMPDEST SWAP1 PUSH0 MSTORE PUSH1 0x20 PUSH0 KECCAK256 SWAP1 PUSH1 0x5 MUL ADD PUSH1 0x40 MLOAD DUP1 PUSH1 0xC0 ADD PUSH1 0x40 MSTORE SWAP1 DUP2 PUSH0 DUP3 ADD DUP1 SLOAD PUSH2 0x8E1 SWAP1 PUSH2 0x1AB8 JUMP JUMPDEST DUP1 PUSH1 0x1F ADD PUSH1 0x20 DUP1 SWAP2 DIV MUL PUSH1 0x20 ADD PUSH1 0x40 MLOAD SWAP1 DUP2 ADD PUSH1 0x40 MSTORE DUP1 SWAP3 SWAP2 SWAP1 DUP2 DUP2 MSTORE PUSH1 0x20 ADD DUP3 DUP1 SLOAD PUSH2 0x90D SWAP1 PUSH2 0x1AB8 JUMP JUMPDEST DUP1 ISZERO PUSH2 0x958 JUMPI DUP1 PUSH1 0x1F LT PUSH2 0x92F JUMPI PUSH2 0x100 DUP1 DUP4 SLOAD DIV MUL DUP4 MSTORE SWAP2 PUSH1 0x20 ADD SWAP2 PUSH2 0x958 JUMP JUMPDEST DUP3 ADD SWAP2 SWAP1 PUSH0 MSTORE PUSH1 0x20 PUSH0 KECCAK256 SWAP1 JUMPDEST DUP2 SLOAD DUP2 MSTORE SWAP1 PUSH1 0x1 ADD SWAP1 PUSH1 0x20 ADD DUP1 DUP4 GT PUSH2 0x93B JUMPI DUP3 SWAP1 SUB PUSH1 0x1F AND DUP3 ADD SWAP2 JUMPDEST POP POP POP POP POP DUP2 MSTORE PUSH1 0x20 ADD PUSH1 0x1 DUP3 ADD DUP1 SLOAD PUSH2 0x971 SWAP1 PUSH2 0x1AB8 JUMP JUMPDEST DUP1 PUSH1 0x1F ADD PUSH1 0x20 DUP1 SWAP2 DIV MUL PUSH1 0x20 ADD PUSH1 0x40 MLOAD SWAP1 DUP2 ADD PUSH1 0x40 MSTORE DUP1 SWAP3 SWAP2 SWAP1 DUP2 DUP2 MSTORE PUSH1 0x20 ADD DUP3 DUP1 SLOAD PUSH2 0x99D SWAP1 PUSH2 0x1AB8 JUMP JUMPDEST DUP1 ISZERO PUSH2 0x9E8 JUMPI DUP1 PUSH1 0x1F LT PUSH2 0x9BF JUMPI PUSH2 0x100 DUP1 DUP4 SLOAD DIV MUL DUP4 MSTORE SWAP2 PUSH1 0x20 ADD SWAP2 PUSH2 0x9E8 JUMP JUMPDEST DUP3 ADD SWAP2 SWAP1 PUSH0 MSTORE PUSH1 0x20 PUSH0 KECCAK256 SWAP1 JUMPDEST DUP2 SLOAD DUP2 MSTORE SWAP1 PUSH1 0x1 ADD SWAP1 PUSH1 0x20 ADD DUP1 DUP4 GT PUSH2 0x9CB JUMPI DUP3 SWAP1 SUB PUSH1 0x1F AND DUP3 ADD SWAP2 JUMPDEST POP POP POP POP POP DUP2 MSTORE PUSH1 0x20 ADD PUSH1 0x2 DUP3 ADD DUP1 SLOAD PUSH2 0xA01 SWAP1 PUSH2 0x1AB8 JUMP JUMPDEST DUP1 PUSH1 0x1F ADD PUSH1 0x20 DUP1 SWAP2 DIV MUL PUSH1 0x20 ADD PUSH1 0x40 MLOAD SWAP1 DUP2 ADD PUSH1 0x40 MSTORE DUP1 SWAP3 SWAP2 SWAP1 DUP2 DUP2 MSTORE PUSH1 0x20 ADD DUP3 DUP1 SLOAD PUSH2 0xA2D SWAP1 PUSH2 0x1AB8 JUMP JUMPDEST DUP1 ISZERO PUSH2 0xA78 JUMPI DUP1 PUSH1 0x1F LT PUSH2 0xA4F JUMPI PUSH2 0x100 DUP1 DUP4 SLOAD DIV MUL DUP4 MSTORE SWAP2 PUSH1 0x20 ADD SWAP2 PUSH2 0xA78 JUMP JUMPDEST DUP3 ADD SWAP2 SWAP1 PUSH0 MSTORE PUSH1 0x20 PUSH0 KECCAK256 SWAP1 JUMPDEST DUP2 SLOAD DUP2 MSTORE SWAP1 PUSH1 0x1 ADD SWAP1 PUSH1 0x20 ADD DUP1 DUP4 GT PUSH2 0xA5B JUMPI DUP3 SWAP1 SUB PUSH1 0x1F AND DUP3 ADD SWAP2 JUMPDEST POP POP POP POP POP DUP2 MSTORE PUSH1 0x20 ADD PUSH1 0x3 DUP3 ADD SLOAD DUP2 MSTORE PUSH1 0x20 ADD PUSH1 0x4 DUP3 ADD PUSH0 SWAP1 SLOAD SWAP1 PUSH2 0x100 EXP SWAP1 DIV PUSH1 0xFF AND PUSH1 0xFF AND PUSH1 0xFF AND DUP2 MSTORE PUSH1 0x20 ADD PUSH1 0x4 DUP3 ADD PUSH1 0x1 SWAP1 SLOAD SWAP1 PUSH2 0x100 EXP SWAP1 DIV PUSH1 0xFF AND PUSH1 0xFF AND PUSH1 0xFF AND DUP2 MSTORE POP POP DUP4 DUP4 DUP2 MLOAD DUP2 LT PUSH2 0xAD7 JUMPI PUSH2 0xAD6 PUSH2 0x1AE8 JUMP JUMPDEST JUMPDEST PUSH1 0x20 MUL PUSH1 0x20 ADD ADD DUP2 SWAP1 MSTORE POP DUP2 DUP1 PUSH2 0xAED SWAP1 PUSH2 0x1B42 JUMP JUMPDEST SWAP3 POP POP JUMPDEST DUP1 DUP1 PUSH2 0xAFC SWAP1 PUSH2 0x1B42 JUMP JUMPDEST SWAP2 POP POP PUSH2 0x7FE JUMP JUMPDEST POP DUP2 SWAP5 POP POP POP POP POP SWAP2 SWAP1 POP JUMP JUMPDEST PUSH1 0x60 DUP2 PUSH1 0x6 SLOAD LT PUSH2 0xB20 JUMPI PUSH0 DUP1 REVERT JUMPDEST PUSH0 DUP1 DUP1 SLOAD SWAP1 POP PUSH8 0xFFFFFFFFFFFFFFFF DUP2 GT ISZERO PUSH2 0xB3F JUMPI PUSH2 0xB3E PUSH2 0x1B89 JUMP JUMPDEST JUMPDEST PUSH1 0x40 MLOAD SWAP1 DUP1 DUP3 MSTORE DUP1 PUSH1 0x20 MUL PUSH1 0x20 ADD DUP3 ADD PUSH1 0x40 MSTORE DUP1 ISZERO PUSH2 0xB78 JUMPI DUP2 PUSH1 0x20 ADD JUMPDEST PUSH2 0xB65 PUSH2 0x13CF JUMP JUMPDEST DUP2 MSTORE PUSH1 0x20 ADD SWAP1 PUSH1 0x1 SWAP1 SUB SWAP1 DUP2 PUSH2 0xB5D JUMPI SWAP1 POP JUMPDEST POP SWAP1 POP PUSH0 JUMPDEST PUSH0 DUP1 SLOAD SWAP1 POP DUP2 LT ISZERO PUSH2 0xE9C JUMPI PUSH1 0x40 MLOAD DUP1 PUSH1 0xE0 ADD PUSH1 0x40 MSTORE DUP1 PUSH0 DUP4 DUP2 SLOAD DUP2 LT PUSH2 0xBA7 JUMPI PUSH2 0xBA6 PUSH2 0x1AE8 JUMP JUMPDEST JUMPDEST SWAP1 PUSH0 MSTORE PUSH1 0x20 PUSH0 KECCAK256 SWAP1 PUSH1 0x5 MUL ADD PUSH0 ADD DUP1 SLOAD PUSH2 0xBC0 SWAP1 PUSH2 0x1AB8 JUMP JUMPDEST DUP1 PUSH1 0x1F ADD PUSH1 0x20 DUP1 SWAP2 DIV MUL PUSH1 0x20 ADD PUSH1 0x40 MLOAD SWAP1 DUP2 ADD PUSH1 0x40 MSTORE DUP1 SWAP3 SWAP2 SWAP1 DUP2 DUP2 MSTORE PUSH1 0x20 ADD DUP3 DUP1 SLOAD PUSH2 0xBEC SWAP1 PUSH2 0x1AB8 JUMP JUMPDEST DUP1 ISZERO PUSH2 0xC37 JUMPI DUP1 PUSH1 0x1F LT PUSH2 0xC0E JUMPI PUSH2 0x100 DUP1 DUP4 SLOAD DIV MUL DUP4 MSTORE SWAP2 PUSH1 0x20 ADD SWAP2 PUSH2 0xC37 JUMP JUMPDEST DUP3 ADD SWAP2 SWAP1 PUSH0 MSTORE PUSH1 0x20 PUSH0 KECCAK256 SWAP1 JUMPDEST DUP2 SLOAD DUP2 MSTORE SWAP1 PUSH1 0x1 ADD SWAP1 PUSH1 0x20 ADD DUP1 DUP4 GT PUSH2 0xC1A JUMPI DUP3 SWAP1 SUB PUSH1 0x1F AND DUP3 ADD SWAP2 JUMPDEST POP POP POP POP POP DUP2 MSTORE PUSH1 0x20 ADD PUSH0 DUP4 DUP2 SLOAD DUP2 LT PUSH2 0xC54 JUMPI PUSH2 0xC53 PUSH2 0x1AE8 JUMP JUMPDEST JUMPDEST SWAP1 PUSH0 MSTORE PUSH1 0x20 PUSH0 KECCAK256 SWAP1 PUSH1 0x5 MUL ADD PUSH1 0x1 ADD DUP1 SLOAD PUSH2 0xC6E SWAP1 PUSH2 0x1AB8 JUMP JUMPDEST DUP1 PUSH1 0x1F ADD PUSH1 0x20 DUP1 SWAP2 DIV MUL PUSH1 0x20 ADD PUSH1 0x40 MLOAD SWAP1 DUP2 ADD PUSH1 0x40 MSTORE DUP1 SWAP3 SWAP2 SWAP1 DUP2 DUP2 MSTORE PUSH1 0x20 ADD DUP3 DUP1 SLOAD PUSH2 0xC9A SWAP1 PUSH2 0x1AB8 JUMP JUMPDEST DUP1 ISZERO PUSH2 0xCE5 JUMPI DUP1 PUSH1 0x1F LT PUSH2 0xCBC JUMPI PUSH2 0x100 DUP1 DUP4 SLOAD DIV MUL DUP4 MSTORE SWAP2 PUSH1 0x20 ADD SWAP2 PUSH2 0xCE5 JUMP JUMPDEST DUP3 ADD SWAP2 SWAP1 PUSH0 MSTORE PUSH1 0x20 PUSH0 KECCAK256 SWAP1 JUMPDEST DUP2 SLOAD DUP2 MSTORE SWAP1 PUSH1 0x1 ADD SWAP1 PUSH1 0x20 ADD DUP1 DUP4 GT PUSH2 0xCC8 JUMPI DUP3 SWAP1 SUB PUSH1 0x1F AND DUP3 ADD SWAP2 JUMPDEST POP POP POP POP POP DUP2 MSTORE PUSH1 0x20 ADD PUSH0 DUP4 DUP2 SLOAD DUP2 LT PUSH2 0xD02 JUMPI PUSH2 0xD01 PUSH2 0x1AE8 JUMP JUMPDEST JUMPDEST SWAP1 PUSH0 MSTORE PUSH1 0x20 PUSH0 KECCAK256 SWAP1 PUSH1 0x5 MUL ADD PUSH1 0x2 ADD DUP1 SLOAD PUSH2 0xD1C SWAP1 PUSH2 0x1AB8 JUMP JUMPDEST DUP1 PUSH1 0x1F ADD PUSH1 0x20 DUP1 SWAP2 DIV MUL PUSH1 0x20 ADD PUSH1 0x40 MLOAD SWAP1 DUP2 ADD PUSH1 0x40 MSTORE DUP1 SWAP3 SWAP2 SWAP1 DUP2 DUP2 MSTORE PUSH1 0x20 ADD DUP3 DUP1 SLOAD PUSH2 0xD48 SWAP1 PUSH2 0x1AB8 JUMP JUMPDEST DUP1 ISZERO PUSH2 0xD93 JUMPI DUP1 PUSH1 0x1F LT PUSH2 0xD6A JUMPI PUSH2 0x100 DUP1 DUP4 SLOAD DIV MUL DUP4 MSTORE SWAP2 PUSH1 0x20 ADD SWAP2 PUSH2 0xD93 JUMP JUMPDEST DUP3 ADD SWAP2 SWAP1 PUSH0 MSTORE PUSH1 0x20 PUSH0 KECCAK256 SWAP1 JUMPDEST DUP2 SLOAD DUP2 MSTORE SWAP1 PUSH1 0x1 ADD SWAP1 PUSH1 0x20 ADD DUP1 DUP4 GT PUSH2 0xD76 JUMPI DUP3 SWAP1 SUB PUSH1 0x1F AND DUP3 ADD SWAP2 JUMPDEST POP POP POP POP POP DUP2 MSTORE PUSH1 0x20 ADD PUSH1 0x3 PUSH0 DUP1 DUP6 DUP2 SLOAD DUP2 LT PUSH2 0xDB3 JUMPI PUSH2 0xDB2 PUSH2 0x1AE8 JUMP JUMPDEST JUMPDEST SWAP1 PUSH0 MSTORE PUSH1 0x20 PUSH0 KECCAK256 SWAP1 PUSH1 0x5 MUL ADD PUSH1 0x3 ADD SLOAD DUP2 MSTORE PUSH1 0x20 ADD SWAP1 DUP2 MSTORE PUSH1 0x20 ADD PUSH0 KECCAK256 SLOAD DUP2 MSTORE PUSH1 0x20 ADD PUSH0 DUP4 DUP2 SLOAD DUP2 LT PUSH2 0xDE9 JUMPI PUSH2 0xDE8 PUSH2 0x1AE8 JUMP JUMPDEST JUMPDEST SWAP1 PUSH0 MSTORE PUSH1 0x20 PUSH0 KECCAK256 SWAP1 PUSH1 0x5 MUL ADD PUSH1 0x3 ADD SLOAD DUP2 MSTORE PUSH1 0x20 ADD PUSH0 DUP4 DUP2 SLOAD DUP2 LT PUSH2 0xE11 JUMPI PUSH2 0xE10 PUSH2 0x1AE8 JUMP JUMPDEST JUMPDEST SWAP1 PUSH0 MSTORE PUSH1 0x20 PUSH0 KECCAK256 SWAP1 PUSH1 0x5 MUL ADD PUSH1 0x4 ADD PUSH0 SWAP1 SLOAD SWAP1 PUSH2 0x100 EXP SWAP1 DIV PUSH1 0xFF AND PUSH1 0xFF AND DUP2 MSTORE PUSH1 0x20 ADD PUSH0 DUP4 DUP2 SLOAD DUP2 LT PUSH2 0xE48 JUMPI PUSH2 0xE47 PUSH2 0x1AE8 JUMP JUMPDEST JUMPDEST SWAP1 PUSH0 MSTORE PUSH1 0x20 PUSH0 KECCAK256 SWAP1 PUSH1 0x5 MUL ADD PUSH1 0x4 ADD PUSH1 0x1 SWAP1 SLOAD SWAP1 PUSH2 0x100 EXP SWAP1 DIV PUSH1 0xFF AND PUSH1 0xFF AND DUP2 MSTORE POP DUP3 DUP3 DUP2 MLOAD DUP2 LT PUSH2 0xE7E JUMPI PUSH2 0xE7D PUSH2 0x1AE8 JUMP JUMPDEST JUMPDEST PUSH1 0x20 MUL PUSH1 0x20 ADD ADD DUP2 SWAP1 MSTORE POP DUP1 DUP1 PUSH2 0xE94 SWAP1 PUSH2 0x1B42 JUMP JUMPDEST SWAP2 POP POP PUSH2 0xB7D JUMP JUMPDEST POP DUP1 SWAP2 POP POP SWAP2 SWAP1 POP JUMP JUMPDEST DUP1 PUSH1 0x5 SLOAD DUP2 LT ISZERO PUSH2 0xEB5 JUMPI PUSH0 DUP1 REVERT JUMPDEST PUSH1 0x6 SLOAD DUP2 GT ISZERO PUSH2 0xEC3 JUMPI PUSH0 DUP1 REVERT JUMPDEST DUP3 DUP5 PUSH0 PUSH1 0x1 PUSH0 DUP5 DUP2 MSTORE PUSH1 0x20 ADD SWAP1 DUP2 MSTORE PUSH1 0x20 ADD PUSH0 KECCAK256 PUSH1 0x40 MLOAD DUP1 PUSH1 0xE0 ADD PUSH1 0x40 MSTORE SWAP1 DUP2 PUSH0 DUP3 ADD SLOAD DUP2 MSTORE PUSH1 0x20 ADD PUSH1 0x1 DUP3 ADD DUP1 SLOAD PUSH2 0xEFB SWAP1 PUSH2 0x1AB8 JUMP JUMPDEST DUP1 PUSH1 0x1F ADD PUSH1 0x20 DUP1 SWAP2 DIV MUL PUSH1 0x20 ADD PUSH1 0x40 MLOAD SWAP1 DUP2 ADD PUSH1 0x40 MSTORE DUP1 SWAP3 SWAP2 SWAP1 DUP2 DUP2 MSTORE PUSH1 0x20 ADD DUP3 DUP1 SLOAD PUSH2 0xF27 SWAP1 PUSH2 0x1AB8 JUMP JUMPDEST DUP1 ISZERO PUSH2 0xF72 JUMPI DUP1 PUSH1 0x1F LT PUSH2 0xF49 JUMPI PUSH2 0x100 DUP1 DUP4 SLOAD DIV MUL DUP4 MSTORE SWAP2 PUSH1 0x20 ADD SWAP2 PUSH2 0xF72 JUMP JUMPDEST DUP3 ADD SWAP2 SWAP1 PUSH0 MSTORE PUSH1 0x20 PUSH0 KECCAK256 SWAP1 JUMPDEST DUP2 SLOAD DUP2 MSTORE SWAP1 PUSH1 0x1 ADD SWAP1 PUSH1 0x20 ADD DUP1 DUP4 GT PUSH2 0xF55 JUMPI DUP3 SWAP1 SUB PUSH1 0x1F AND DUP3 ADD SWAP2 JUMPDEST POP POP POP POP POP DUP2 MSTORE PUSH1 0x20 ADD PUSH1 0x2 DUP3 ADD PUSH0 SWAP1 SLOAD SWAP1 PUSH2 0x100 EXP SWAP1 DIV PUSH1 0xFF AND PUSH1 0xFF AND PUSH1 0xFF AND DUP2 MSTORE PUSH1 0x20 ADD PUSH1 0x2 DUP3 ADD PUSH1 0x1 SWAP1 SLOAD SWAP1 PUSH2 0x100 EXP SWAP1 DIV PUSH1 0xFF AND PUSH1 0xFF AND PUSH1 0xFF AND DUP2 MSTORE PUSH1 0x20 ADD PUSH1 0x2 DUP3 ADD PUSH1 0x2 SWAP1 SLOAD SWAP1 PUSH2 0x100 EXP SWAP1 DIV PUSH1 0xFF AND PUSH1 0xFF AND PUSH1 0xFF AND DUP2 MSTORE PUSH1 0x20 ADD PUSH1 0x2 DUP3 ADD PUSH1 0x3 SWAP1 SLOAD SWAP1 PUSH2 0x100 EXP SWAP1 DIV PUSH1 0xFF AND ISZERO ISZERO ISZERO ISZERO DUP2 MSTORE PUSH1 0x20 ADD PUSH1 0x3 DUP3 ADD SLOAD DUP2 MSTORE POP POP SWAP1 POP PUSH0 PUSH1 0x2 PUSH0 DUP5 DUP2 MSTORE PUSH1 0x20 ADD SWAP1 DUP2 MSTORE PUSH1 0x20 ADD PUSH0 KECCAK256 PUSH1 0x40 MLOAD DUP1 PUSH1 0xC0 ADD PUSH1 0x40 MSTORE SWAP1 DUP2 PUSH0 DUP3 ADD DUP1 SLOAD PUSH2 0x1024 SWAP1 PUSH2 0x1AB8 JUMP JUMPDEST DUP1 PUSH1 0x1F ADD PUSH1 0x20 DUP1 SWAP2 DIV MUL PUSH1 0x20 ADD PUSH1 0x40 MLOAD SWAP1 DUP2 ADD PUSH1 0x40 MSTORE DUP1 SWAP3 SWAP2 SWAP1 DUP2 DUP2 MSTORE PUSH1 0x20 ADD DUP3 DUP1 SLOAD PUSH2 0x1050 SWAP1 PUSH2 0x1AB8 JUMP JUMPDEST DUP1 ISZERO PUSH2 0x109B JUMPI DUP1 PUSH1 0x1F LT PUSH2 0x1072 JUMPI PUSH2 0x100 DUP1 DUP4 SLOAD DIV MUL DUP4 MSTORE SWAP2 PUSH1 0x20 ADD SWAP2 PUSH2 0x109B JUMP JUMPDEST DUP3 ADD SWAP2 SWAP1 PUSH0 MSTORE PUSH1 0x20 PUSH0 KECCAK256 SWAP1 JUMPDEST DUP2 SLOAD DUP2 MSTORE SWAP1 PUSH1 0x1 ADD SWAP1 PUSH1 0x20 ADD DUP1 DUP4 GT PUSH2 0x107E JUMPI DUP3 SWAP1 SUB PUSH1 0x1F AND DUP3 ADD SWAP2 JUMPDEST POP POP POP POP POP DUP2 MSTORE PUSH1 0x20 ADD PUSH1 0x1 DUP3 ADD DUP1 SLOAD PUSH2 0x10B4 SWAP1 PUSH2 0x1AB8 JUMP JUMPDEST DUP1 PUSH1 0x1F ADD PUSH1 0x20 DUP1 SWAP2 DIV MUL PUSH1 0x20 ADD PUSH1 0x40 MLOAD SWAP1 DUP2 ADD PUSH1 0x40 MSTORE DUP1 SWAP3 SWAP2 SWAP1 DUP2 DUP2 MSTORE PUSH1 0x20 ADD DUP3 DUP1 SLOAD PUSH2 0x10E0 SWAP1 PUSH2 0x1AB8 JUMP JUMPDEST DUP1 ISZERO PUSH2 0x112B JUMPI DUP1 PUSH1 0x1F LT PUSH2 0x1102 JUMPI PUSH2 0x100 DUP1 DUP4 SLOAD DIV MUL DUP4 MSTORE SWAP2 PUSH1 0x20 ADD SWAP2 PUSH2 0x112B JUMP JUMPDEST DUP3 ADD SWAP2 SWAP1 PUSH0 MSTORE PUSH1 0x20 PUSH0 KECCAK256 SWAP1 JUMPDEST DUP2 SLOAD DUP2 MSTORE SWAP1 PUSH1 0x1 ADD SWAP1 PUSH1 0x20 ADD DUP1 DUP4 GT PUSH2 0x110E JUMPI DUP3 SWAP1 SUB PUSH1 0x1F AND DUP3 ADD SWAP2 JUMPDEST POP POP POP POP POP DUP2 MSTORE PUSH1 0x20 ADD PUSH1 0x2 DUP3 ADD DUP1 SLOAD PUSH2 0x1144 SWAP1 PUSH2 0x1AB8 JUMP JUMPDEST DUP1 PUSH1 0x1F ADD PUSH1 0x20 DUP1 SWAP2 DIV MUL PUSH1 0x20 ADD PUSH1 0x40 MLOAD SWAP1 DUP2 ADD PUSH1 0x40 MSTORE DUP1 SWAP3 SWAP2 SWAP1 DUP2 DUP2 MSTORE PUSH1 0x20 ADD DUP3 DUP1 SLOAD PUSH2 0x1170 SWAP1 PUSH2 0x1AB8 JUMP JUMPDEST DUP1 ISZERO PUSH2 0x11BB JUMPI DUP1 PUSH1 0x1F LT PUSH2 0x1192 JUMPI PUSH2 0x100 DUP1 DUP4 SLOAD DIV MUL DUP4 MSTORE SWAP2 PUSH1 0x20 ADD SWAP2 PUSH2 0x11BB JUMP JUMPDEST DUP3 ADD SWAP2 SWAP1 PUSH0 MSTORE PUSH1 0x20 PUSH0 KECCAK256 SWAP1 JUMPDEST DUP2 SLOAD DUP2 MSTORE SWAP1 PUSH1 0x1 ADD SWAP1 PUSH1 0x20 ADD DUP1 DUP4 GT PUSH2 0x119E JUMPI DUP3 SWAP1 SUB PUSH1 0x1F AND DUP3 ADD SWAP2 JUMPDEST POP POP POP POP POP DUP2 MSTORE PUSH1 0x20 ADD PUSH1 0x3 DUP3 ADD SLOAD DUP2 MSTORE PUSH1 0x20 ADD PUSH1 0x4 DUP3 ADD PUSH0 SWAP1 SLOAD SWAP1 PUSH2 0x100 EXP SWAP1 DIV PUSH1 0xFF AND PUSH1 0xFF AND PUSH1 0xFF AND DUP2 MSTORE PUSH1 0x20 ADD PUSH1 0x4 DUP3 ADD PUSH1 0x1 SWAP1 SLOAD SWAP1 PUSH2 0x100 EXP SWAP1 DIV PUSH1 0xFF AND PUSH1 0xFF AND PUSH1 0xFF AND DUP2 MSTORE POP POP SWAP1 POP PUSH1 0x12 DUP3 PUSH1 0x40 ADD MLOAD PUSH1 0xFF AND LT ISZERO PUSH2 0x121D JUMPI PUSH0 DUP1 REVERT JUMPDEST DUP2 PUSH1 0xA0 ADD MLOAD PUSH2 0x122A JUMPI PUSH0 DUP1 REVERT JUMPDEST PUSH0 DUP3 PUSH1 0xC0 ADD MLOAD EQ PUSH2 0x1239 JUMPI PUSH0 DUP1 REVERT JUMPDEST DUP2 PUSH1 0x60 ADD MLOAD PUSH1 0xFF AND DUP2 PUSH1 0x80 ADD MLOAD PUSH1 0xFF AND EQ DUP1 ISZERO PUSH2 0x1263 JUMPI POP DUP2 PUSH1 0x80 ADD MLOAD PUSH1 0xFF AND DUP2 PUSH1 0xA0 ADD MLOAD PUSH1 0xFF AND EQ JUMPDEST PUSH2 0x126B JUMPI PUSH0 DUP1 REVERT JUMPDEST DUP8 PUSH1 0x1 PUSH0 DUP10 DUP2 MSTORE PUSH1 0x20 ADD SWAP1 DUP2 MSTORE PUSH1 0x20 ADD PUSH0 KECCAK256 PUSH1 0x3 ADD DUP2 SWAP1 SSTORE POP PUSH0 PUSH1 0x3 PUSH0 DUP11 DUP2 MSTORE PUSH1 0x20 ADD SWAP1 DUP2 MSTORE PUSH1 0x20 ADD PUSH0 KECCAK256 SLOAD SWAP1 POP PUSH1 0x1 DUP2 PUSH2 0x12A6 SWAP2 SWAP1 PUSH2 0x1BB6 JUMP JUMPDEST PUSH1 0x3 PUSH0 DUP12 DUP2 MSTORE PUSH1 0x20 ADD SWAP1 DUP2 MSTORE PUSH1 0x20 ADD PUSH0 KECCAK256 DUP2 SWAP1 SSTORE POP POP POP POP POP POP POP POP POP POP JUMP JUMPDEST PUSH0 PUSH1 0x6 SLOAD SWAP1 POP SWAP1 JUMP JUMPDEST PUSH1 0x4 PUSH0 SWAP1 SLOAD SWAP1 PUSH2 0x100 EXP SWAP1 DIV PUSH20 0xFFFFFFFFFFFFFFFFFFFFFFFFFFFFFFFFFFFFFFFF AND PUSH20 0xFFFFFFFFFFFFFFFFFFFFFFFFFFFFFFFFFFFFFFFF AND CALLER PUSH20 0xFFFFFFFFFFFFFFFFFFFFFFFFFFFFFFFFFFFFFFFF AND EQ PUSH2 0x1327 JUMPI PUSH0 DUP1 REVERT JUMPDEST DUP1 PUSH1 0x5 SLOAD GT PUSH2 0x1334 JUMPI PUSH0 DUP1 REVERT JUMPDEST DUP2 PUSH1 0x5 DUP2 SWAP1 SSTORE POP POP POP JUMP JUMPDEST PUSH0 DUP1 PUSH1 0x1 PUSH0 DUP5 DUP2 MSTORE PUSH1 0x20 ADD SWAP1 DUP2 MSTORE PUSH1 0x20 ADD PUSH0 KECCAK256 SWAP1 POP PUSH1 0x12 DUP2 PUSH1 0x2 ADD PUSH0 SWAP1 SLOAD SWAP1 PUSH2 0x100 EXP SWAP1 DIV PUSH1 0xFF AND PUSH1 0xFF AND LT ISZERO DUP1 ISZERO PUSH2 0x1386 JUMPI POP DUP1 PUSH1 0x2 ADD PUSH1 0x3 SWAP1 SLOAD SWAP1 PUSH2 0x100 EXP SWAP1 DIV PUSH1 0xFF AND JUMPDEST ISZERO PUSH2 0x1390 JUMPI PUSH1 0x1 SWAP2 POP JUMPDEST POP SWAP2 SWAP1 POP JUMP JUMPDEST PUSH1 0x40 MLOAD DUP1 PUSH1 0xC0 ADD PUSH1 0x40 MSTORE DUP1 PUSH1 0x60 DUP2 MSTORE PUSH1 0x20 ADD PUSH1 0x60 DUP2 MSTORE PUSH1 0x20 ADD PUSH1 0x60 DUP2 MSTORE PUSH1 0x20 ADD PUSH0 DUP2 MSTORE PUSH1 0x20 ADD PUSH0 PUSH1 0xFF AND DUP2 MSTORE PUSH1 0x20 ADD PUSH0 PUSH1 0xFF AND DUP2 MSTORE POP SWAP1 JUMP JUMPDEST PUSH1 0x40 MLOAD DUP1 PUSH1 0xE0 ADD PUSH1 0x40 MSTORE DUP1 PUSH1 0x60 DUP2 MSTORE PUSH1 0x20 ADD PUSH1 0x60 DUP2 MSTORE PUSH1 0x20 ADD PUSH1 0x60 DUP2 MSTORE PUSH1 0x20 ADD PUSH0 DUP2 MSTORE PUSH1 0x20 ADD PUSH0 DUP2 MSTORE PUSH1 0x20 ADD PUSH0 PUSH1 0xFF AND DUP2 MSTORE PUSH1 0x20 ADD PUSH0 PUSH1 0xFF AND DUP2 MSTORE POP SWAP1 JUMP JUMPDEST PUSH0 DUP1 REVERT JUMPDEST PUSH0 DUP2 SWAP1 POP SWAP2 SWAP1 POP JUMP JUMPDEST PUSH2 0x1424 DUP2 PUSH2 0x1412 JUMP JUMPDEST DUP2 EQ PUSH2 0x142E JUMPI PUSH0 DUP1 REVERT JUMPDEST POP JUMP JUMPDEST PUSH0 DUP2 CALLDATALOAD SWAP1 POP PUSH2 0x143F DUP2 PUSH2 0x141B JUMP JUMPDEST SWAP3 SWAP2 POP POP JUMP JUMPDEST PUSH0 PUSH1 0x20 DUP3 DUP5 SUB SLT ISZERO PUSH2 0x145A JUMPI PUSH2 0x1459 PUSH2 0x140E JUMP JUMPDEST JUMPDEST PUSH0 PUSH2 0x1467 DUP5 DUP3 DUP6 ADD PUSH2 0x1431 JUMP JUMPDEST SWAP2 POP POP SWAP3 SWAP2 POP POP JUMP JUMPDEST PUSH0 DUP2 MLOAD SWAP1 POP SWAP2 SWAP1 POP JUMP JUMPDEST PUSH0 DUP3 DUP3 MSTORE PUSH1 0x20 DUP3 ADD SWAP1 POP SWAP3 SWAP2 POP POP JUMP JUMPDEST PUSH0 JUMPDEST DUP4 DUP2 LT ISZERO PUSH2 0x14A7 JUMPI DUP1 DUP3 ADD MLOAD DUP2 DUP5 ADD MSTORE PUSH1 0x20 DUP2 ADD SWAP1 POP PUSH2 0x148C JUMP JUMPDEST PUSH0 DUP5 DUP5 ADD MSTORE POP POP POP POP JUMP JUMPDEST PUSH0 PUSH1 0x1F NOT PUSH1 0x1F DUP4 ADD AND SWAP1 POP SWAP2 SWAP1 POP JUMP JUMPDEST PUSH0 PUSH2 0x14CC DUP3 PUSH2 0x1470 JUMP JUMPDEST PUSH2 0x14D6 DUP2 DUP6 PUSH2 0x147A JUMP JUMPDEST SWAP4 POP PUSH2 0x14E6 DUP2 DUP6 PUSH1 0x20 DUP7 ADD PUSH2 0x148A JUMP JUMPDEST PUSH2 0x14EF DUP2 PUSH2 0x14B2 JUMP JUMPDEST DUP5 ADD SWAP2 POP POP SWAP3 SWAP2 POP POP JUMP JUMPDEST PUSH2 0x1503 DUP2 PUSH2 0x1412 JUMP JUMPDEST DUP3 MSTORE POP POP JUMP JUMPDEST PUSH0 PUSH1 0xFF DUP3 AND SWAP1 POP SWAP2 SWAP1 POP JUMP JUMPDEST PUSH2 0x151E DUP2 PUSH2 0x1509 JUMP JUMPDEST DUP3 MSTORE POP POP JUMP JUMPDEST PUSH0 PUSH1 0xC0 DUP3 ADD SWAP1 POP DUP2 DUP2 SUB PUSH0 DUP4 ADD MSTORE PUSH2 0x153C DUP2 DUP10 PUSH2 0x14C2 JUMP JUMPDEST SWAP1 POP DUP2 DUP2 SUB PUSH1 0x20 DUP4 ADD MSTORE PUSH2 0x1550 DUP2 DUP9 PUSH2 0x14C2 JUMP JUMPDEST SWAP1 POP DUP2 DUP2 SUB PUSH1 0x40 DUP4 ADD MSTORE PUSH2 0x1564 DUP2 DUP8 PUSH2 0x14C2 JUMP JUMPDEST SWAP1 POP PUSH2 0x1573 PUSH1 0x60 DUP4 ADD DUP7 PUSH2 0x14FA JUMP JUMPDEST PUSH2 0x1580 PUSH1 0x80 DUP4 ADD DUP6 PUSH2 0x1515 JUMP JUMPDEST PUSH2 0x158D PUSH1 0xA0 DUP4 ADD DUP5 PUSH2 0x1515 JUMP JUMPDEST SWAP8 SWAP7 POP POP POP POP POP POP POP JUMP JUMPDEST PUSH0 DUP1 PUSH1 0x40 DUP4 DUP6 SUB SLT ISZERO PUSH2 0x15AE JUMPI PUSH2 0x15AD PUSH2 0x140E JUMP JUMPDEST JUMPDEST PUSH0 PUSH2 0x15BB DUP6 DUP3 DUP7 ADD PUSH2 0x1431 JUMP JUMPDEST SWAP3 POP POP PUSH1 0x20 PUSH2 0x15CC DUP6 DUP3 DUP7 ADD PUSH2 0x1431 JUMP JUMPDEST SWAP2 POP POP SWAP3 POP SWAP3 SWAP1 POP JUMP JUMPDEST PUSH0 DUP2 ISZERO ISZERO SWAP1 POP SWAP2 SWAP1 POP JUMP JUMPDEST PUSH2 0x15EA DUP2 PUSH2 0x15D6 JUMP JUMPDEST DUP3 MSTORE POP POP JUMP JUMPDEST PUSH0 DUP3 DUP3 MSTORE PUSH1 0x20 DUP3 ADD SWAP1 POP SWAP3 SWAP2 POP POP JUMP JUMPDEST PUSH0 PUSH2 0x160A DUP3 PUSH2 0x1470 JUMP JUMPDEST PUSH2 0x1614 DUP2 DUP6 PUSH2 0x15F0 JUMP JUMPDEST SWAP4 POP PUSH2 0x1624 DUP2 DUP6 PUSH1 0x20 DUP7 ADD PUSH2 0x148A JUMP JUMPDEST PUSH2 0x162D DUP2 PUSH2 0x14B2 JUMP JUMPDEST DUP5 ADD SWAP2 POP POP SWAP3 SWAP2 POP POP JUMP JUMPDEST PUSH2 0x1641 DUP2 PUSH2 0x1412 JUMP JUMPDEST DUP3 MSTORE POP POP JUMP JUMPDEST PUSH2 0x1650 DUP2 PUSH2 0x1509 JUMP JUMPDEST DUP3 MSTORE POP POP JUMP JUMPDEST PUSH0 PUSH1 0xC0 DUP4 ADD PUSH0 DUP4 ADD MLOAD DUP5 DUP3 SUB PUSH0 DUP7 ADD MSTORE PUSH2 0x1670 DUP3 DUP3 PUSH2 0x1600 JUMP JUMPDEST SWAP2 POP POP PUSH1 0x20 DUP4 ADD MLOAD DUP5 DUP3 SUB PUSH1 0x20 DUP7 ADD MSTORE PUSH2 0x168A DUP3 DUP3 PUSH2 0x1600 JUMP JUMPDEST SWAP2 POP POP PUSH1 0x40 DUP4 ADD MLOAD DUP5 DUP3 SUB PUSH1 0x40 DUP7 ADD MSTORE PUSH2 0x16A4 DUP3 DUP3 PUSH2 0x1600 JUMP JUMPDEST SWAP2 POP POP PUSH1 0x60 DUP4 ADD MLOAD PUSH2 0x16B9 PUSH1 0x60 DUP7 ADD DUP3 PUSH2 0x1638 JUMP JUMPDEST POP PUSH1 0x80 DUP4 ADD MLOAD PUSH2 0x16CC PUSH1 0x80 DUP7 ADD DUP3 PUSH2 0x1647 JUMP JUMPDEST POP PUSH1 0xA0 DUP4 ADD MLOAD PUSH2 0x16DF PUSH1 0xA0 DUP7 ADD DUP3 PUSH2 0x1647 JUMP JUMPDEST POP DUP1 SWAP2 POP POP SWAP3 SWAP2 POP POP JUMP JUMPDEST PUSH0 PUSH1 0x40 DUP3 ADD SWAP1 POP PUSH2 0x16FD PUSH0 DUP4 ADD DUP6 PUSH2 0x15E1 JUMP JUMPDEST DUP2 DUP2 SUB PUSH1 0x20 DUP4 ADD MSTORE PUSH2 0x170F DUP2 DUP5 PUSH2 0x1656 JUMP JUMPDEST SWAP1 POP SWAP4 SWAP3 POP POP POP JUMP JUMPDEST PUSH0 DUP2 MLOAD SWAP1 POP SWAP2 SWAP1 POP JUMP JUMPDEST PUSH0 DUP3 DUP3 MSTORE PUSH1 0x20 DUP3 ADD SWAP1 POP SWAP3 SWAP2 POP POP JUMP JUMPDEST PUSH0 DUP2 SWAP1 POP PUSH1 0x20 DUP3 ADD SWAP1 POP SWAP2 SWAP1 POP JUMP JUMPDEST PUSH0 PUSH1 0xC0 DUP4 ADD PUSH0 DUP4 ADD MLOAD DUP5 DUP3 SUB PUSH0 DUP7 ADD MSTORE PUSH2 0x175B DUP3 DUP3 PUSH2 0x1600 JUMP JUMPDEST SWAP2 POP POP PUSH1 0x20 DUP4 ADD MLOAD DUP5 DUP3 SUB PUSH1 0x20 DUP7 ADD MSTORE PUSH2 0x1775 DUP3 DUP3 PUSH2 0x1600 JUMP JUMPDEST SWAP2 POP POP PUSH1 0x40 DUP4 ADD MLOAD DUP5 DUP3 SUB PUSH1 0x40 DUP7 ADD MSTORE PUSH2 0x178F DUP3 DUP3 PUSH2 0x1600 JUMP JUMPDEST SWAP2 POP POP PUSH1 0x60 DUP4 ADD MLOAD PUSH2 0x17A4 PUSH1 0x60 DUP7 ADD DUP3 PUSH2 0x1638 JUMP JUMPDEST POP PUSH1 0x80 DUP4 ADD MLOAD PUSH2 0x17B7 PUSH1 0x80 DUP7 ADD DUP3 PUSH2 0x1647 JUMP JUMPDEST POP PUSH1 0xA0 DUP4 ADD MLOAD PUSH2 0x17CA PUSH1 0xA0 DUP7 ADD DUP3 PUSH2 0x1647 JUMP JUMPDEST POP DUP1 SWAP2 POP POP SWAP3 SWAP2 POP POP JUMP JUMPDEST PUSH0 PUSH2 0x17E0 DUP4 DUP4 PUSH2 0x1741 JUMP JUMPDEST SWAP1 POP SWAP3 SWAP2 POP POP JUMP JUMPDEST PUSH0 PUSH1 0x20 DUP3 ADD SWAP1 POP SWAP2 SWAP1 POP JUMP JUMPDEST PUSH0 PUSH2 0x17FE DUP3 PUSH2 0x1718 JUMP JUMPDEST PUSH2 0x1808 DUP2 DUP6 PUSH2 0x1722 JUMP JUMPDEST SWAP4 POP DUP4 PUSH1 0x20 DUP3 MUL DUP6 ADD PUSH2 0x181A DUP6 PUSH2 0x1732 JUMP JUMPDEST DUP1 PUSH0 JUMPDEST DUP6 DUP2 LT ISZERO PUSH2 0x1855 JUMPI DUP5 DUP5 SUB DUP10 MSTORE DUP2 MLOAD PUSH2 0x1836 DUP6 DUP3 PUSH2 0x17D5 JUMP JUMPDEST SWAP5 POP PUSH2 0x1841 DUP4 PUSH2 0x17E8 JUMP JUMPDEST SWAP3 POP PUSH1 0x20 DUP11 ADD SWAP10 POP POP PUSH1 0x1 DUP2 ADD SWAP1 POP PUSH2 0x181D JUMP JUMPDEST POP DUP3 SWAP8 POP DUP8 SWAP6 POP POP POP POP POP POP SWAP3 SWAP2 POP POP JUMP JUMPDEST PUSH0 PUSH1 0x20 DUP3 ADD SWAP1 POP DUP2 DUP2 SUB PUSH0 DUP4 ADD MSTORE PUSH2 0x187F DUP2 DUP5 PUSH2 0x17F4 JUMP JUMPDEST SWAP1 POP SWAP3 SWAP2 POP POP JUMP JUMPDEST PUSH0 DUP2 MLOAD SWAP1 POP SWAP2 SWAP1 POP JUMP JUMPDEST PUSH0 DUP3 DUP3 MSTORE PUSH1 0x20 DUP3 ADD SWAP1 POP SWAP3 SWAP2 POP POP JUMP JUMPDEST PUSH0 DUP2 SWAP1 POP PUSH1 0x20 DUP3 ADD SWAP1 POP SWAP2 SWAP1 POP JUMP JUMPDEST PUSH0 PUSH1 0xE0 DUP4 ADD PUSH0 DUP4 ADD MLOAD DUP5 DUP3 SUB PUSH0 DUP7 ADD MSTORE PUSH2 0x18CA DUP3 DUP3 PUSH2 0x1600 JUMP JUMPDEST SWAP2 POP POP PUSH1 0x20 DUP4 ADD MLOAD DUP5 DUP3 SUB PUSH1 0x20 DUP7 ADD MSTORE PUSH2 0x18E4 DUP3 DUP3 PUSH2 0x1600 JUMP JUMPDEST SWAP2 POP POP PUSH1 0x40 DUP4 ADD MLOAD DUP5 DUP3 SUB PUSH1 0x40 DUP7 ADD MSTORE PUSH2 0x18FE DUP3 DUP3 PUSH2 0x1600 JUMP JUMPDEST SWAP2 POP POP PUSH1 0x60 DUP4 ADD MLOAD PUSH2 0x1913 PUSH1 0x60 DUP7 ADD DUP3 PUSH2 0x1638 JUMP JUMPDEST POP PUSH1 0x80 DUP4 ADD MLOAD PUSH2 0x1926 PUSH1 0x80 DUP7 ADD DUP3 PUSH2 0x1638 JUMP JUMPDEST POP PUSH1 0xA0 DUP4 ADD MLOAD PUSH2 0x1939 PUSH1 0xA0 DUP7 ADD DUP3 PUSH2 0x1647 JUMP JUMPDEST POP PUSH1 0xC0 DUP4 ADD MLOAD PUSH2 0x194C PUSH1 0xC0 DUP7 ADD DUP3 PUSH2 0x1647 JUMP JUMPDEST POP DUP1 SWAP2 POP POP SWAP3 SWAP2 POP POP JUMP JUMPDEST PUSH0 PUSH2 0x1962 DUP4 DUP4 PUSH2 0x18B0 JUMP JUMPDEST SWAP1 POP SWAP3 SWAP2 POP POP JUMP JUMPDEST PUSH0 PUSH1 0x20 DUP3 ADD SWAP1 POP SWAP2 SWAP1 POP JUMP JUMPDEST PUSH0 PUSH2 0x1980 DUP3 PUSH2 0x1887 JUMP JUMPDEST PUSH2 0x198A DUP2 DUP6 PUSH2 0x1891 JUMP JUMPDEST SWAP4 POP DUP4 PUSH1 0x20 DUP3 MUL DUP6 ADD PUSH2 0x199C DUP6 PUSH2 0x18A1 JUMP JUMPDEST DUP1 PUSH0 JUMPDEST DUP6 DUP2 LT ISZERO PUSH2 0x19D7 JUMPI DUP5 DUP5 SUB DUP10 MSTORE DUP2 MLOAD PUSH2 0x19B8 DUP6 DUP3 PUSH2 0x1957 JUMP JUMPDEST SWAP5 POP PUSH2 0x19C3 DUP4 PUSH2 0x196A JUMP JUMPDEST SWAP3 POP PUSH1 0x20 DUP11 ADD SWAP10 POP POP PUSH1 0x1 DUP2 ADD SWAP1 POP PUSH2 0x199F JUMP JUMPDEST POP DUP3 SWAP8 POP DUP8 SWAP6 POP POP POP POP POP POP SWAP3 SWAP2 POP POP JUMP JUMPDEST PUSH0 PUSH1 0x20 DUP3 ADD SWAP1 POP DUP2 DUP2 SUB PUSH0 DUP4 ADD MSTORE PUSH2 0x1A01 DUP2 DUP5 PUSH2 0x1976 JUMP JUMPDEST SWAP1 POP SWAP3 SWAP2 POP POP JUMP JUMPDEST PUSH0 DUP1 PUSH0 PUSH1 0x60 DUP5 DUP7 SUB SLT ISZERO PUSH2 0x1A20 JUMPI PUSH2 0x1A1F PUSH2 0x140E JUMP JUMPDEST JUMPDEST PUSH0 PUSH2 0x1A2D DUP7 DUP3 DUP8 ADD PUSH2 0x1431 JUMP JUMPDEST SWAP4 POP POP PUSH1 0x20 PUSH2 0x1A3E DUP7 DUP3 DUP8 ADD PUSH2 0x1431 JUMP JUMPDEST SWAP3 POP POP PUSH1 0x40 PUSH2 0x1A4F DUP7 DUP3 DUP8 ADD PUSH2 0x1431 JUMP JUMPDEST SWAP2 POP POP SWAP3 POP SWAP3 POP SWAP3 JUMP JUMPDEST PUSH0 PUSH1 0x20 DUP3 ADD SWAP1 POP PUSH2 0x1A6C PUSH0 DUP4 ADD DUP5 PUSH2 0x14FA JUMP JUMPDEST SWAP3 SWAP2 POP POP JUMP JUMPDEST PUSH0 PUSH1 0x20 DUP3 ADD SWAP1 POP PUSH2 0x1A85 PUSH0 DUP4 ADD DUP5 PUSH2 0x15E1 JUMP JUMPDEST SWAP3 SWAP2 POP POP JUMP JUMPDEST PUSH32 0x4E487B7100000000000000000000000000000000000000000000000000000000 PUSH0 MSTORE PUSH1 0x22 PUSH1 0x4 MSTORE PUSH1 0x24 PUSH0 REVERT JUMPDEST PUSH0 PUSH1 0x2 DUP3 DIV SWAP1 POP PUSH1 0x1 DUP3 AND DUP1 PUSH2 0x1ACF JUMPI PUSH1 0x7F DUP3 AND SWAP2 POP JUMPDEST PUSH1 0x20 DUP3 LT DUP2 SUB PUSH2 0x1AE2 JUMPI PUSH2 0x1AE1 PUSH2 0x1A8B JUMP JUMPDEST JUMPDEST POP SWAP2 SWAP1 POP JUMP JUMPDEST PUSH32 0x4E487B7100000000000000000000000000000000000000000000000000000000 PUSH0 MSTORE PUSH1 0x32 PUSH1 0x4 MSTORE PUSH1 0x24 PUSH0 REVERT JUMPDEST PUSH32 0x4E487B7100000000000000000000000000000000000000000000000000000000 PUSH0 MSTORE PUSH1 0x11 PUSH1 0x4 MSTORE PUSH1 0x24 PUSH0 REVERT JUMPDEST PUSH0 PUSH2 0x1B4C DUP3 PUSH2 0x1412 JUMP JUMPDEST SWAP2 POP PUSH32 0xFFFFFFFFFFFFFFFFFFFFFFFFFFFFFFFFFFFFFFFFFFFFFFFFFFFFFFFFFFFFFFFF DUP3 SUB PUSH2 0x1B7E JUMPI PUSH2 0x1B7D PUSH2 0x1B15 JUMP JUMPDEST JUMPDEST PUSH1 0x1 DUP3 ADD SWAP1 POP SWAP2 SWAP1 POP JUMP JUMPDEST PUSH32 0x4E487B7100000000000000000000000000000000000000000000000000000000 PUSH0 MSTORE PUSH1 0x41 PUSH1 0x4 MSTORE PUSH1 0x24 PUSH0 REVERT JUMPDEST PUSH0 PUSH2 0x1BC0 DUP3 PUSH2 0x1412 JUMP JUMPDEST SWAP2 POP PUSH2 0x1BCB DUP4 PUSH2 0x1412 JUMP JUMPDEST SWAP3 POP DUP3 DUP3 ADD SWAP1 POP DUP1 DUP3 GT ISZERO PUSH2 0x1BE3 JUMPI PUSH2 0x1BE2 PUSH2 0x1B15 JUMP JUMPDEST JUMPDEST SWAP3 SWAP2 POP POP JUMP INVALID LOG2 PUSH5 0x6970667358 0x22 SLT KECCAK256 0xEE MULMOD PUSH1 0x4 0x2B 0xEA 0x5C 0xC3 0xE5 0xAB 0xC9 SLT PUSH26 0x907CE428D569285726BD32B9A2D279FFC1B3AD64736F6C634300 ADDMOD EQ STOP CALLER PUSH9 0x747470733A2F2F7265 PUSH20 0x2E636C6F7564696E6172792E636F6D2F646A3974 PUSH21 0x7362676D2F696D6167652F75706C6F61642F763136 CALLVALUE CODESIZE BALANCE ADDRESS BALANCE ADDRESS CALLDATASIZE CALLDATALOAD 0x2F BALANCE ORIGIN ADDRESS ADDRESS PUSH17 0x782D524A445F466C61672E7376675F6172 PUSH19 0x7276742E706E6768747470733A2F2F7265732E PUSH4 0x6C6F7564 PUSH10 0x6E6172792E636F6D2F64 PUSH11 0x3974747362676D2F696D61 PUSH8 0x652F75706C6F6164 0x2F PUSH23 0x313634383130313036352F79737263705F736173333131 0x2E PUSH17 0x6E6768747470733A2F2F7265732E636C6F PUSH22 0x64696E6172792E636F6D2F646A3974747362676D2F69 PUSH14 0x6167652F75706C6F61642F763136 CALLVALUE CODESIZE BALANCE ADDRESS BALANCE ADDRESS CALLDATASIZE CALLVALUE 0x2F PUSH3 0x6A705F PUSH15 0x6B34736E772E706E6768747470733A 0x2F 0x2F PUSH19 0x65732E636C6F7564696E6172792E636F6D2F64 PUSH11 0x3974747362676D2F696D61 PUSH8 0x652F75706C6F6164 0x2F PUSH23 0x313634383130313036352F6161705F756A6775796C2E70 PUSH15 0x6768747470733A2F2F7265732E636C PUSH16 0x7564696E6172792E636F6D2F646A3974 PUSH21 0x7362676D2F696D6167652F75706C6F61642F763136 CALLVALUE CODESIZE BALANCE ADDRESS BALANCE ADDRESS CALLDATASIZE CALLVALUE 0x2F PUSH10 0x6E635F73316F716E352E PUSH17 0x6E6768747470733A2F2F7265732E636C6F PUSH22 0x64696E6172792E636F6D2F646A3974747362676D2F69 PUSH14 0x6167652F75706C6F61642F763136 CALLVALUE CODESIZE BALANCE ADDRESS BALANCE ADDRESS CALLDATASIZE CALLVALUE 0x2F BALANCE ADDRESS ORIGIN CALLVALUE PUSH17 0x782D4370696D5F70617274795F73796D62 PUSH16 0x6C2E7376675F6D75316770702E706E67 PUSH9 0x747470733A2F2F7265 PUSH20 0x2E636C6F7564696E6172792E636F6D2F646A3974 PUSH21 0x7362676D2F696D6167652F75706C6F61642F763136 CALLVALUE CODESIZE BALANCE ADDRESS BALANCE ADDRESS CALLDATASIZE CALLDATALOAD 0x2F PUSH21 0x64705F716831726B6A2E706E670000000000000000 "
		},
		"gasEstimates": {
			"creation": {
				"codeDepositCost": "1439800",
				"executionCost": "infinite",
				"totalCost": "infinite"
			},
			"external": {
				"candidates(uint256)": "infinite",
				"didCurrentVoterVoted(uint256)": "infinite",
				"extendVotingTime(uint256,uint256)": "infinite",
				"getCandidateList(uint256)": "infinite",
				"getResults(uint256)": "infinite",
				"getVotingEndTime()": "2476",
				"isVoterEligible(uint256)": "5169",
				"updateVotingStartTime(uint256,uint256)": "infinite",
				"vote(uint256,uint256,uint256)": "infinite"
			},
			"internal": {
				"initializeCandidateDatabase_()": "infinite",
				"initializeVoterDatabase_()": "infinite"
			}
		},
		"methodIdentifiers": {
			"candidates(uint256)": "3477ee2e",
			"didCurrentVoterVoted(uint256)": "5e23c37c",
			"extendVotingTime(uint256,uint256)": "5d816e22",
			"getCandidateList(uint256)": "618bde0a",
			"getResults(uint256)": "81a60c0d",
			"getVotingEndTime()": "b1bf87b0",
			"isVoterEligible(uint256)": "dce8d8a3",
			"updateVotingStartTime(uint256,uint256)": "b9d84552",
			"vote(uint256,uint256,uint256)": "8a6655d6"
		}
	},
	"abi": [
		{
			"inputs": [
				{
					"internalType": "uint256",
					"name": "startTime_",
					"type": "uint256"
				},
				{
					"internalType": "uint256",
					"name": "endTime_",
					"type": "uint256"
				}
			],
			"stateMutability": "nonpayable",
			"type": "constructor"
		},
		{
			"inputs": [
				{
					"internalType": "uint256",
					"name": "",
					"type": "uint256"
				}
			],
			"name": "candidates",
			"outputs": [
				{
					"internalType": "string",
					"name": "name",
					"type": "string"
				},
				{
					"internalType": "string",
					"name": "partyShortcut",
					"type": "string"
				},
				{
					"internalType": "string",
					"name": "partyFlag",
					"type": "string"
				},
				{
					"internalType": "uint256",
					"name": "nominationNumber",
					"type": "uint256"
				},
				{
					"internalType": "uint8",
					"name": "stateCode",
					"type": "uint8"
				},
				{
					"internalType": "uint8",
					"name": "constituencyCode",
					"type": "uint8"
				}
			],
			"stateMutability": "view",
			"type": "function"
		},
		{
			"inputs": [
				{
					"internalType": "uint256",
					"name": "voterAadharNumber",
					"type": "uint256"
				}
			],
			"name": "didCurrentVoterVoted",
			"outputs": [
				{
					"internalType": "bool",
					"name": "userVoted_",
					"type": "bool"
				},
				{
					"components": [
						{
							"internalType": "string",
							"name": "name",
							"type": "string"
						},
						{
							"internalType": "string",
							"name": "partyShortcut",
							"type": "string"
						},
						{
							"internalType": "string",
							"name": "partyFlag",
							"type": "string"
						},
						{
							"internalType": "uint256",
							"name": "nominationNumber",
							"type": "uint256"
						},
						{
							"internalType": "uint8",
							"name": "stateCode",
							"type": "uint8"
						},
						{
							"internalType": "uint8",
							"name": "constituencyCode",
							"type": "uint8"
						}
					],
					"internalType": "struct Types.Candidate",
					"name": "candidate_",
					"type": "tuple"
				}
			],
			"stateMutability": "view",
			"type": "function"
		},
		{
			"inputs": [
				{
					"internalType": "uint256",
					"name": "endTime_",
					"type": "uint256"
				},
				{
					"internalType": "uint256",
					"name": "currentTime_",
					"type": "uint256"
				}
			],
			"name": "extendVotingTime",
			"outputs": [],
			"stateMutability": "nonpayable",
			"type": "function"
		},
		{
			"inputs": [
				{
					"internalType": "uint256",
					"name": "voterAadharNumber",
					"type": "uint256"
				}
			],
			"name": "getCandidateList",
			"outputs": [
				{
					"components": [
						{
							"internalType": "string",
							"name": "name",
							"type": "string"
						},
						{
							"internalType": "string",
							"name": "partyShortcut",
							"type": "string"
						},
						{
							"internalType": "string",
							"name": "partyFlag",
							"type": "string"
						},
						{
							"internalType": "uint256",
							"name": "nominationNumber",
							"type": "uint256"
						},
						{
							"internalType": "uint8",
							"name": "stateCode",
							"type": "uint8"
						},
						{
							"internalType": "uint8",
							"name": "constituencyCode",
							"type": "uint8"
						}
					],
					"internalType": "struct Types.Candidate[]",
					"name": "",
					"type": "tuple[]"
				}
			],
			"stateMutability": "view",
			"type": "function"
		},
		{
			"inputs": [
				{
					"internalType": "uint256",
					"name": "currentTime_",
					"type": "uint256"
				}
			],
			"name": "getResults",
			"outputs": [
				{
					"components": [
						{
							"internalType": "string",
							"name": "name",
							"type": "string"
						},
						{
							"internalType": "string",
							"name": "partyShortcut",
							"type": "string"
						},
						{
							"internalType": "string",
							"name": "partyFlag",
							"type": "string"
						},
						{
							"internalType": "uint256",
							"name": "voteCount",
							"type": "uint256"
						},
						{
							"internalType": "uint256",
							"name": "nominationNumber",
							"type": "uint256"
						},
						{
							"internalType": "uint8",
							"name": "stateCode",
							"type": "uint8"
						},
						{
							"internalType": "uint8",
							"name": "constituencyCode",
							"type": "uint8"
						}
					],
					"internalType": "struct Types.Results[]",
					"name": "",
					"type": "tuple[]"
				}
			],
			"stateMutability": "view",
			"type": "function"
		},
		{
			"inputs": [],
			"name": "getVotingEndTime",
			"outputs": [
				{
					"internalType": "uint256",
					"name": "endTime_",
					"type": "uint256"
				}
			],
			"stateMutability": "view",
			"type": "function"
		},
		{
			"inputs": [
				{
					"internalType": "uint256",
					"name": "voterAadharNumber",
					"type": "uint256"
				}
			],
			"name": "isVoterEligible",
			"outputs": [
				{
					"internalType": "bool",
					"name": "voterEligible_",
					"type": "bool"
				}
			],
			"stateMutability": "view",
			"type": "function"
		},
		{
			"inputs": [
				{
					"internalType": "uint256",
					"name": "startTime_",
					"type": "uint256"
				},
				{
					"internalType": "uint256",
					"name": "currentTime_",
					"type": "uint256"
				}
			],
			"name": "updateVotingStartTime",
			"outputs": [],
			"stateMutability": "nonpayable",
			"type": "function"
		},
		{
			"inputs": [
				{
					"internalType": "uint256",
					"name": "nominationNumber",
					"type": "uint256"
				},
				{
					"internalType": "uint256",
					"name": "voterAadharNumber",
					"type": "uint256"
				},
				{
					"internalType": "uint256",
					"name": "currentTime_",
					"type": "uint256"
				}
			],
			"name": "vote",
			"outputs": [],
			"stateMutability": "nonpayable",
			"type": "function"
		}
	]
}