{
	"data": {
		"bytecode": {
			"linkReferences": {},
			"object": "608060405234801561000f575f80fd5b503360085f6101000a81548173ffffffffffffffffffffffffffffffffffffffff021916908373ffffffffffffffffffffffffffffffffffffffff160217905550611eb98061005d5f395ff3fe608060405234801561000f575f80fd5b50600436106100b2575f3560e01c80638e7ea5b21161006f5780638e7ea5b21461018b578063b1a713e7146101ab578063bc23bd51146101dd578063da58c7d9146101f9578063e6a5e61d1461022e578063e82a2d181461024a576100b2565b806302d947ef146100b657806307e4b70a146100d25780630b32ff77146100ee5780632273b50a1461010a5780633477ee2e1461013c578063869d526d1461016f575b5f80fd5b6100d060048036038101906100cb9190611305565b61027c565b005b6100ec60048036038101906100e79190611343565b6103c0565b005b610108600480360381019061010391906114aa565b610497565b005b610124600480360381019061011f9190611343565b610676565b604051610133939291906115d5565b60405180910390f35b61015660048036038101906101519190611611565b610803565b604051610166949392919061164b565b60405180910390f35b6101896004803603810190610184919061169c565b610969565b005b610193610bd3565b6040516101a293929190611708565b60405180910390f35b6101c560048036038101906101c09190611611565b610cec565b6040516101d493929190611744565b60405180910390f35b6101f760048036038101906101f29190611611565b610daf565b005b610213600480360381019061020e9190611611565b610edf565b6040516102259695949392919061179b565b60405180910390f35b61024860048036038101906102439190611343565b610fd7565b005b610264600480360381019061025f9190611611565b6110ae565b60405161027393929190611801565b60405180910390f35b7f4f4e474f494e4700000000000000000000000000000000000000000000000000600b6040516102ac919061193d565b6040518091039020146102bd575f80fd5b805f60015f8373ffffffffffffffffffffffffffffffffffffffff1673ffffffffffffffffffffffffffffffffffffffff1681526020019081526020015f2090506012816003015f9054906101000a900460ff1660ff16101561031e575f80fd5b5f81600401541461032d575f80fd5b600181600101541461033d575f80fd5b8360015f8573ffffffffffffffffffffffffffffffffffffffff1673ffffffffffffffffffffffffffffffffffffffff1681526020019081526020015f20600401819055505f60055f8681526020019081526020015f205490506001816103a49190611980565b60055f8781526020019081526020015f20819055505050505050565b60085f9054906101000a900473ffffffffffffffffffffffffffffffffffffffff1673ffffffffffffffffffffffffffffffffffffffff163373ffffffffffffffffffffffffffffffffffffffff1614610418575f80fd5b8073ffffffffffffffffffffffffffffffffffffffff163373ffffffffffffffffffffffffffffffffffffffff161461044f575f80fd5b6040518060400160405280600581526020017f454e444544000000000000000000000000000000000000000000000000000000815250600b90816104939190611b50565b5050565b60085f9054906101000a900473ffffffffffffffffffffffffffffffffffffffff1673ffffffffffffffffffffffffffffffffffffffff163373ffffffffffffffffffffffffffffffffffffffff16146104ef575f80fd5b7f4f4e474f494e4700000000000000000000000000000000000000000000000000600b60405161051f919061193d565b604051809103902014610530575f80fd5b5f805f8373ffffffffffffffffffffffffffffffffffffffff1673ffffffffffffffffffffffffffffffffffffffff1681526020019081526020015f20905083815f01908161057f9190611b50565b50828160020190816105919190611b50565b5060095f81546105a090611c1f565b9190508190558160010181905550600681908060018154018082558091505060019003905f5260205f2090600402015f909190919091505f8201815f0190816105e99190611c7b565b5060018201548160010155600282018160020190816106089190611c7b565b50600382015f9054906101000a900473ffffffffffffffffffffffffffffffffffffffff16816003015f6101000a81548173ffffffffffffffffffffffffffffffffffffffff021916908373ffffffffffffffffffffffffffffffffffffffff160217905550505050505050565b60605f805f60015f8673ffffffffffffffffffffffffffffffffffffffff1673ffffffffffffffffffffffffffffffffffffffff1681526020019081526020015f206040518060c00160405290815f8201548152602001600182015481526020016002820180546106e690611871565b80601f016020809104026020016040519081016040528092919081815260200182805461071290611871565b801561075d5780601f106107345761010080835404028352916020019161075d565b820191905f5260205f20905b81548152906001019060200180831161074057829003601f168201915b50505050508152602001600382015f9054906101000a900460ff1660ff1660ff16815260200160048201548152602001600582015f9054906101000a900473ffffffffffffffffffffffffffffffffffffffff1673ffffffffffffffffffffffffffffffffffffffff1673ffffffffffffffffffffffffffffffffffffffff16815250509050806040015193508060800151925060018160200151149150509193909250565b60068181548110610812575f80fd5b905f5260205f2090600402015f91509050805f01805461083190611871565b80601f016020809104026020016040519081016040528092919081815260200182805461085d90611871565b80156108a85780601f1061087f576101008083540402835291602001916108a8565b820191905f5260205f20905b81548152906001019060200180831161088b57829003601f168201915b5050505050908060010154908060020180546108c390611871565b80601f01602080910402602001604051908101604052809291908181526020018280546108ef90611871565b801561093a5780601f106109115761010080835404028352916020019161093a565b820191905f5260205f20905b81548152906001019060200180831161091d57829003601f168201915b505050505090806003015f9054906101000a900473ffffffffffffffffffffffffffffffffffffffff16905084565b60085f9054906101000a900473ffffffffffffffffffffffffffffffffffffffff1673ffffffffffffffffffffffffffffffffffffffff163373ffffffffffffffffffffffffffffffffffffffff16146109c1575f80fd5b7f4f4e474f494e4700000000000000000000000000000000000000000000000000600b6040516109f1919061193d565b604051809103902014610a02575f80fd5b5f60015f8373ffffffffffffffffffffffffffffffffffffffff1673ffffffffffffffffffffffffffffffffffffffff1681526020019081526020015f20905083816002019081610a539190611b50565b5082816005015f6101000a81548173ffffffffffffffffffffffffffffffffffffffff021916908373ffffffffffffffffffffffffffffffffffffffff160217905550600a5f8154610aa490611c1f565b919050819055815f01819055505f81600101819055505f81600401819055506013816003015f6101000a81548160ff021916908360ff160217905550600781908060018154018082558091505060019003905f5260205f2090600602015f909190919091505f820154815f01556001820154816001015560028201816002019081610b2f9190611c7b565b50600382015f9054906101000a900460ff16816003015f6101000a81548160ff021916908360ff16021790555060048201548160040155600582015f9054906101000a900473ffffffffffffffffffffffffffffffffffffffff16816005015f6101000a81548173ffffffffffffffffffffffffffffffffffffffff021916908373ffffffffffffffffffffffffffffffffffffffff160217905550505050505050565b5f8060605f5b600680549050811015610ce6575f60068281548110610bfb57610bfa611d60565b5b905f5260205f20906004020190508460055f836001015481526020019081526020015f20541115610cd25760055f826001015481526020019081526020015f2054945080600101549350805f018054610c5390611871565b80601f0160208091040260200160405190810160405280929190818152602001828054610c7f90611871565b8015610cca5780601f10610ca157610100808354040283529160200191610cca565b820191905f5260205f20905b815481529060010190602001808311610cad57829003601f168201915b505050505092505b508080610cde90611c1f565b915050610bd9565b50909192565b5f60605f8060025f8681526020019081526020015f209050849350805f018054610d1590611871565b80601f0160208091040260200160405190810160405280929190818152602001828054610d4190611871565b8015610d8c5780601f10610d6357610100808354040283529160200191610d8c565b820191905f5260205f20905b815481529060010190602001808311610d6f57829003601f168201915b5050505050925060055f8681526020019081526020015f20549150509193909250565b60085f9054906101000a900473ffffffffffffffffffffffffffffffffffffffff1673ffffffffffffffffffffffffffffffffffffffff163373ffffffffffffffffffffffffffffffffffffffff1614610e3e576040517f08c379a0000000000000000000000000000000000000000000000000000000008152600401610e3590611dfd565b60405180910390fd5b5f60035f8381526020019081526020015f206004015403610e94576040517f08c379a0000000000000000000000000000000000000000000000000000000008152600401610e8b90611e65565b60405180910390fd5b5f60035f8381526020019081526020015f206001015414610eb3575f80fd5b600160078281548110610ec957610ec8611d60565b5b905f5260205f2090600602016001018190555050565b60078181548110610eee575f80fd5b905f5260205f2090600602015f91509050805f015490806001015490806002018054610f1990611871565b80601f0160208091040260200160405190810160405280929190818152602001828054610f4590611871565b8015610f905780601f10610f6757610100808354040283529160200191610f90565b820191905f5260205f20905b815481529060010190602001808311610f7357829003601f168201915b505050505090806003015f9054906101000a900460ff1690806004015490806005015f9054906101000a900473ffffffffffffffffffffffffffffffffffffffff16905086565b60085f9054906101000a900473ffffffffffffffffffffffffffffffffffffffff1673ffffffffffffffffffffffffffffffffffffffff163373ffffffffffffffffffffffffffffffffffffffff161461102f575f80fd5b8073ffffffffffffffffffffffffffffffffffffffff163373ffffffffffffffffffffffffffffffffffffffff1614611066575f80fd5b6040518060400160405280600781526020017f4f4e474f494e4700000000000000000000000000000000000000000000000000815250600b90816110aa9190611b50565b5050565b5f6060805f60025f8681526020019081526020015f206040518060800160405290815f820180546110de90611871565b80601f016020809104026020016040519081016040528092919081815260200182805461110a90611871565b80156111555780601f1061112c57610100808354040283529160200191611155565b820191905f5260205f20905b81548152906001019060200180831161113857829003601f168201915b505050505081526020016001820154815260200160028201805461117890611871565b80601f01602080910402602001604051908101604052809291908181526020018280546111a490611871565b80156111ef5780601f106111c6576101008083540402835291602001916111ef565b820191905f5260205f20905b8154815290600101906020018083116111d257829003601f168201915b50505050508152602001600382015f9054906101000a900473ffffffffffffffffffffffffffffffffffffffff1673ffffffffffffffffffffffffffffffffffffffff1673ffffffffffffffffffffffffffffffffffffffff1681525050905084935080604001519250805f01519150509193909250565b5f604051905090565b5f80fd5b5f80fd5b5f819050919050565b61128a81611278565b8114611294575f80fd5b50565b5f813590506112a581611281565b92915050565b5f73ffffffffffffffffffffffffffffffffffffffff82169050919050565b5f6112d4826112ab565b9050919050565b6112e4816112ca565b81146112ee575f80fd5b50565b5f813590506112ff816112db565b92915050565b5f806040838503121561131b5761131a611270565b5b5f61132885828601611297565b9250506020611339858286016112f1565b9150509250929050565b5f6020828403121561135857611357611270565b5b5f611365848285016112f1565b91505092915050565b5f80fd5b5f80fd5b5f601f19601f8301169050919050565b7f4e487b71000000000000000000000000000000000000000000000000000000005f52604160045260245ffd5b6113bc82611376565b810181811067ffffffffffffffff821117156113db576113da611386565b5b80604052505050565b5f6113ed611267565b90506113f982826113b3565b919050565b5f67ffffffffffffffff82111561141857611417611386565b5b61142182611376565b9050602081019050919050565b828183375f83830152505050565b5f61144e611449846113fe565b6113e4565b90508281526020810184848401111561146a57611469611372565b5b61147584828561142e565b509392505050565b5f82601f8301126114915761149061136e565b5b81356114a184826020860161143c565b91505092915050565b5f805f606084860312156114c1576114c0611270565b5b5f84013567ffffffffffffffff8111156114de576114dd611274565b5b6114ea8682870161147d565b935050602084013567ffffffffffffffff81111561150b5761150a611274565b5b6115178682870161147d565b9250506040611528868287016112f1565b9150509250925092565b5f81519050919050565b5f82825260208201905092915050565b5f5b8381101561156957808201518184015260208101905061154e565b5f8484015250505050565b5f61157e82611532565b611588818561153c565b935061159881856020860161154c565b6115a181611376565b840191505092915050565b6115b581611278565b82525050565b5f8115159050919050565b6115cf816115bb565b82525050565b5f6060820190508181035f8301526115ed8186611574565b90506115fc60208301856115ac565b61160960408301846115c6565b949350505050565b5f6020828403121561162657611625611270565b5b5f61163384828501611297565b91505092915050565b611645816112ca565b82525050565b5f6080820190508181035f8301526116638187611574565b905061167260208301866115ac565b81810360408301526116848185611574565b9050611693606083018461163c565b95945050505050565b5f805f606084860312156116b3576116b2611270565b5b5f84013567ffffffffffffffff8111156116d0576116cf611274565b5b6116dc8682870161147d565b93505060206116ed868287016112f1565b92505060406116fe868287016112f1565b9150509250925092565b5f60608201905061171b5f8301866115ac565b61172860208301856115ac565b818103604083015261173a8184611574565b9050949350505050565b5f6060820190506117575f8301866115ac565b81810360208301526117698185611574565b905061177860408301846115ac565b949350505050565b5f60ff82169050919050565b61179581611780565b82525050565b5f60c0820190506117ae5f8301896115ac565b6117bb60208301886115ac565b81810360408301526117cd8187611574565b90506117dc606083018661178c565b6117e960808301856115ac565b6117f660a083018461163c565b979650505050505050565b5f6060820190506118145f8301866115ac565b81810360208301526118268185611574565b9050818103604083015261183a8184611574565b9050949350505050565b7f4e487b71000000000000000000000000000000000000000000000000000000005f52602260045260245ffd5b5f600282049050600182168061188857607f821691505b60208210810361189b5761189a611844565b5b50919050565b5f81905092915050565b5f819050815f5260205f209050919050565b5f81546118c981611871565b6118d381866118a1565b9450600182165f81146118ed576001811461190257611934565b60ff1983168652811515820286019350611934565b61190b856118ab565b5f5b8381101561192c5781548189015260018201915060208101905061190d565b838801955050505b50505092915050565b5f61194882846118bd565b915081905092915050565b7f4e487b71000000000000000000000000000000000000000000000000000000005f52601160045260245ffd5b5f61198a82611278565b915061199583611278565b92508282019050808211156119ad576119ac611953565b5b92915050565b5f819050815f5260205f209050919050565b5f6020601f8301049050919050565b5f82821b905092915050565b5f60088302611a0f7fffffffffffffffffffffffffffffffffffffffffffffffffffffffffffffffff826119d4565b611a1986836119d4565b95508019841693508086168417925050509392505050565b5f819050919050565b5f611a54611a4f611a4a84611278565b611a31565b611278565b9050919050565b5f819050919050565b611a6d83611a3a565b611a81611a7982611a5b565b8484546119e0565b825550505050565b5f90565b611a95611a89565b611aa0818484611a64565b505050565b5b81811015611ac357611ab85f82611a8d565b600181019050611aa6565b5050565b601f821115611b0857611ad9816119b3565b611ae2846119c5565b81016020851015611af1578190505b611b05611afd856119c5565b830182611aa5565b50505b505050565b5f82821c905092915050565b5f611b285f1984600802611b0d565b1980831691505092915050565b5f611b408383611b19565b9150826002028217905092915050565b611b5982611532565b67ffffffffffffffff811115611b7257611b71611386565b5b611b7c8254611871565b611b87828285611ac7565b5f60209050601f831160018114611bb8575f8415611ba6578287015190505b611bb08582611b35565b865550611c17565b601f198416611bc6866119b3565b5f5b82811015611bed57848901518255600182019150602085019450602081019050611bc8565b86831015611c0a5784890151611c06601f891682611b19565b8355505b6001600288020188555050505b505050505050565b5f611c2982611278565b91507fffffffffffffffffffffffffffffffffffffffffffffffffffffffffffffffff8203611c5b57611c5a611953565b5b600182019050919050565b5f81549050611c7481611871565b9050919050565b818103611c89575050611d5e565b611c9282611c66565b67ffffffffffffffff811115611cab57611caa611386565b5b611cb58254611871565b611cc0828285611ac7565b5f601f831160018114611ced575f8415611cdb578287015490505b611ce58582611b35565b865550611d57565b601f198416611cfb876119b3565b9650611d06866119b3565b5f5b82811015611d2d57848901548255600182019150600185019450602081019050611d08565b86831015611d4a5784890154611d46601f891682611b19565b8355505b6001600288020188555050505b5050505050505b565b7f4e487b71000000000000000000000000000000000000000000000000000000005f52603260045260245ffd5b7f4f6e6c792061646d696e2063616e206769766520726967687420746f20766f745f8201527f652e000000000000000000000000000000000000000000000000000000000000602082015250565b5f611de760228361153c565b9150611df282611d8d565b604082019050919050565b5f6020820190508181035f830152611e1481611ddb565b9050919050565b7f54686520766f74657220616c726561647920766f7465642e00000000000000005f82015250565b5f611e4f60188361153c565b9150611e5a82611e1b565b602082019050919050565b5f6020820190508181035f830152611e7c81611e43565b905091905056fea264697066735822122027aee1bbaaa55b28b907c94105289aa3b58629e3e80237b708a6cefd0dbf309164736f6c63430008140033",
			"opcodes": "PUSH1 0x80 PUSH1 0x40 MSTORE CALLVALUE DUP1 ISZERO PUSH2 0xF JUMPI PUSH0 DUP1 REVERT JUMPDEST POP CALLER PUSH1 0x8 PUSH0 PUSH2 0x100 EXP DUP2 SLOAD DUP2 PUSH20 0xFFFFFFFFFFFFFFFFFFFFFFFFFFFFFFFFFFFFFFFF MUL NOT AND SWAP1 DUP4 PUSH20 0xFFFFFFFFFFFFFFFFFFFFFFFFFFFFFFFFFFFFFFFF AND MUL OR SWAP1 SSTORE POP PUSH2 0x1EB9 DUP1 PUSH2 0x5D PUSH0 CODECOPY PUSH0 RETURN INVALID PUSH1 0x80 PUSH1 0x40 MSTORE CALLVALUE DUP1 ISZERO PUSH2 0xF JUMPI PUSH0 DUP1 REVERT JUMPDEST POP PUSH1 0x4 CALLDATASIZE LT PUSH2 0xB2 JUMPI PUSH0 CALLDATALOAD PUSH1 0xE0 SHR DUP1 PUSH4 0x8E7EA5B2 GT PUSH2 0x6F JUMPI DUP1 PUSH4 0x8E7EA5B2 EQ PUSH2 0x18B JUMPI DUP1 PUSH4 0xB1A713E7 EQ PUSH2 0x1AB JUMPI DUP1 PUSH4 0xBC23BD51 EQ PUSH2 0x1DD JUMPI DUP1 PUSH4 0xDA58C7D9 EQ PUSH2 0x1F9 JUMPI DUP1 PUSH4 0xE6A5E61D EQ PUSH2 0x22E JUMPI DUP1 PUSH4 0xE82A2D18 EQ PUSH2 0x24A JUMPI PUSH2 0xB2 JUMP JUMPDEST DUP1 PUSH4 0x2D947EF EQ PUSH2 0xB6 JUMPI DUP1 PUSH4 0x7E4B70A EQ PUSH2 0xD2 JUMPI DUP1 PUSH4 0xB32FF77 EQ PUSH2 0xEE JUMPI DUP1 PUSH4 0x2273B50A EQ PUSH2 0x10A JUMPI DUP1 PUSH4 0x3477EE2E EQ PUSH2 0x13C JUMPI DUP1 PUSH4 0x869D526D EQ PUSH2 0x16F JUMPI JUMPDEST PUSH0 DUP1 REVERT JUMPDEST PUSH2 0xD0 PUSH1 0x4 DUP1 CALLDATASIZE SUB DUP2 ADD SWAP1 PUSH2 0xCB SWAP2 SWAP1 PUSH2 0x1305 JUMP JUMPDEST PUSH2 0x27C JUMP JUMPDEST STOP JUMPDEST PUSH2 0xEC PUSH1 0x4 DUP1 CALLDATASIZE SUB DUP2 ADD SWAP1 PUSH2 0xE7 SWAP2 SWAP1 PUSH2 0x1343 JUMP JUMPDEST PUSH2 0x3C0 JUMP JUMPDEST STOP JUMPDEST PUSH2 0x108 PUSH1 0x4 DUP1 CALLDATASIZE SUB DUP2 ADD SWAP1 PUSH2 0x103 SWAP2 SWAP1 PUSH2 0x14AA JUMP JUMPDEST PUSH2 0x497 JUMP JUMPDEST STOP JUMPDEST PUSH2 0x124 PUSH1 0x4 DUP1 CALLDATASIZE SUB DUP2 ADD SWAP1 PUSH2 0x11F SWAP2 SWAP1 PUSH2 0x1343 JUMP JUMPDEST PUSH2 0x676 JUMP JUMPDEST PUSH1 0x40 MLOAD PUSH2 0x133 SWAP4 SWAP3 SWAP2 SWAP1 PUSH2 0x15D5 JUMP JUMPDEST PUSH1 0x40 MLOAD DUP1 SWAP2 SUB SWAP1 RETURN JUMPDEST PUSH2 0x156 PUSH1 0x4 DUP1 CALLDATASIZE SUB DUP2 ADD SWAP1 PUSH2 0x151 SWAP2 SWAP1 PUSH2 0x1611 JUMP JUMPDEST PUSH2 0x803 JUMP JUMPDEST PUSH1 0x40 MLOAD PUSH2 0x166 SWAP5 SWAP4 SWAP3 SWAP2 SWAP1 PUSH2 0x164B JUMP JUMPDEST PUSH1 0x40 MLOAD DUP1 SWAP2 SUB SWAP1 RETURN JUMPDEST PUSH2 0x189 PUSH1 0x4 DUP1 CALLDATASIZE SUB DUP2 ADD SWAP1 PUSH2 0x184 SWAP2 SWAP1 PUSH2 0x169C JUMP JUMPDEST PUSH2 0x969 JUMP JUMPDEST STOP JUMPDEST PUSH2 0x193 PUSH2 0xBD3 JUMP JUMPDEST PUSH1 0x40 MLOAD PUSH2 0x1A2 SWAP4 SWAP3 SWAP2 SWAP1 PUSH2 0x1708 JUMP JUMPDEST PUSH1 0x40 MLOAD DUP1 SWAP2 SUB SWAP1 RETURN JUMPDEST PUSH2 0x1C5 PUSH1 0x4 DUP1 CALLDATASIZE SUB DUP2 ADD SWAP1 PUSH2 0x1C0 SWAP2 SWAP1 PUSH2 0x1611 JUMP JUMPDEST PUSH2 0xCEC JUMP JUMPDEST PUSH1 0x40 MLOAD PUSH2 0x1D4 SWAP4 SWAP3 SWAP2 SWAP1 PUSH2 0x1744 JUMP JUMPDEST PUSH1 0x40 MLOAD DUP1 SWAP2 SUB SWAP1 RETURN JUMPDEST PUSH2 0x1F7 PUSH1 0x4 DUP1 CALLDATASIZE SUB DUP2 ADD SWAP1 PUSH2 0x1F2 SWAP2 SWAP1 PUSH2 0x1611 JUMP JUMPDEST PUSH2 0xDAF JUMP JUMPDEST STOP JUMPDEST PUSH2 0x213 PUSH1 0x4 DUP1 CALLDATASIZE SUB DUP2 ADD SWAP1 PUSH2 0x20E SWAP2 SWAP1 PUSH2 0x1611 JUMP JUMPDEST PUSH2 0xEDF JUMP JUMPDEST PUSH1 0x40 MLOAD PUSH2 0x225 SWAP7 SWAP6 SWAP5 SWAP4 SWAP3 SWAP2 SWAP1 PUSH2 0x179B JUMP JUMPDEST PUSH1 0x40 MLOAD DUP1 SWAP2 SUB SWAP1 RETURN JUMPDEST PUSH2 0x248 PUSH1 0x4 DUP1 CALLDATASIZE SUB DUP2 ADD SWAP1 PUSH2 0x243 SWAP2 SWAP1 PUSH2 0x1343 JUMP JUMPDEST PUSH2 0xFD7 JUMP JUMPDEST STOP JUMPDEST PUSH2 0x264 PUSH1 0x4 DUP1 CALLDATASIZE SUB DUP2 ADD SWAP1 PUSH2 0x25F SWAP2 SWAP1 PUSH2 0x1611 JUMP JUMPDEST PUSH2 0x10AE JUMP JUMPDEST PUSH1 0x40 MLOAD PUSH2 0x273 SWAP4 SWAP3 SWAP2 SWAP1 PUSH2 0x1801 JUMP JUMPDEST PUSH1 0x40 MLOAD DUP1 SWAP2 SUB SWAP1 RETURN JUMPDEST PUSH32 0x4F4E474F494E4700000000000000000000000000000000000000000000000000 PUSH1 0xB PUSH1 0x40 MLOAD PUSH2 0x2AC SWAP2 SWAP1 PUSH2 0x193D JUMP JUMPDEST PUSH1 0x40 MLOAD DUP1 SWAP2 SUB SWAP1 KECCAK256 EQ PUSH2 0x2BD JUMPI PUSH0 DUP1 REVERT JUMPDEST DUP1 PUSH0 PUSH1 0x1 PUSH0 DUP4 PUSH20 0xFFFFFFFFFFFFFFFFFFFFFFFFFFFFFFFFFFFFFFFF AND PUSH20 0xFFFFFFFFFFFFFFFFFFFFFFFFFFFFFFFFFFFFFFFF AND DUP2 MSTORE PUSH1 0x20 ADD SWAP1 DUP2 MSTORE PUSH1 0x20 ADD PUSH0 KECCAK256 SWAP1 POP PUSH1 0x12 DUP2 PUSH1 0x3 ADD PUSH0 SWAP1 SLOAD SWAP1 PUSH2 0x100 EXP SWAP1 DIV PUSH1 0xFF AND PUSH1 0xFF AND LT ISZERO PUSH2 0x31E JUMPI PUSH0 DUP1 REVERT JUMPDEST PUSH0 DUP2 PUSH1 0x4 ADD SLOAD EQ PUSH2 0x32D JUMPI PUSH0 DUP1 REVERT JUMPDEST PUSH1 0x1 DUP2 PUSH1 0x1 ADD SLOAD EQ PUSH2 0x33D JUMPI PUSH0 DUP1 REVERT JUMPDEST DUP4 PUSH1 0x1 PUSH0 DUP6 PUSH20 0xFFFFFFFFFFFFFFFFFFFFFFFFFFFFFFFFFFFFFFFF AND PUSH20 0xFFFFFFFFFFFFFFFFFFFFFFFFFFFFFFFFFFFFFFFF AND DUP2 MSTORE PUSH1 0x20 ADD SWAP1 DUP2 MSTORE PUSH1 0x20 ADD PUSH0 KECCAK256 PUSH1 0x4 ADD DUP2 SWAP1 SSTORE POP PUSH0 PUSH1 0x5 PUSH0 DUP7 DUP2 MSTORE PUSH1 0x20 ADD SWAP1 DUP2 MSTORE PUSH1 0x20 ADD PUSH0 KECCAK256 SLOAD SWAP1 POP PUSH1 0x1 DUP2 PUSH2 0x3A4 SWAP2 SWAP1 PUSH2 0x1980 JUMP JUMPDEST PUSH1 0x5 PUSH0 DUP8 DUP2 MSTORE PUSH1 0x20 ADD SWAP1 DUP2 MSTORE PUSH1 0x20 ADD PUSH0 KECCAK256 DUP2 SWAP1 SSTORE POP POP POP POP POP POP JUMP JUMPDEST PUSH1 0x8 PUSH0 SWAP1 SLOAD SWAP1 PUSH2 0x100 EXP SWAP1 DIV PUSH20 0xFFFFFFFFFFFFFFFFFFFFFFFFFFFFFFFFFFFFFFFF AND PUSH20 0xFFFFFFFFFFFFFFFFFFFFFFFFFFFFFFFFFFFFFFFF AND CALLER PUSH20 0xFFFFFFFFFFFFFFFFFFFFFFFFFFFFFFFFFFFFFFFF AND EQ PUSH2 0x418 JUMPI PUSH0 DUP1 REVERT JUMPDEST DUP1 PUSH20 0xFFFFFFFFFFFFFFFFFFFFFFFFFFFFFFFFFFFFFFFF AND CALLER PUSH20 0xFFFFFFFFFFFFFFFFFFFFFFFFFFFFFFFFFFFFFFFF AND EQ PUSH2 0x44F JUMPI PUSH0 DUP1 REVERT JUMPDEST PUSH1 0x40 MLOAD DUP1 PUSH1 0x40 ADD PUSH1 0x40 MSTORE DUP1 PUSH1 0x5 DUP2 MSTORE PUSH1 0x20 ADD PUSH32 0x454E444544000000000000000000000000000000000000000000000000000000 DUP2 MSTORE POP PUSH1 0xB SWAP1 DUP2 PUSH2 0x493 SWAP2 SWAP1 PUSH2 0x1B50 JUMP JUMPDEST POP POP JUMP JUMPDEST PUSH1 0x8 PUSH0 SWAP1 SLOAD SWAP1 PUSH2 0x100 EXP SWAP1 DIV PUSH20 0xFFFFFFFFFFFFFFFFFFFFFFFFFFFFFFFFFFFFFFFF AND PUSH20 0xFFFFFFFFFFFFFFFFFFFFFFFFFFFFFFFFFFFFFFFF AND CALLER PUSH20 0xFFFFFFFFFFFFFFFFFFFFFFFFFFFFFFFFFFFFFFFF AND EQ PUSH2 0x4EF JUMPI PUSH0 DUP1 REVERT JUMPDEST PUSH32 0x4F4E474F494E4700000000000000000000000000000000000000000000000000 PUSH1 0xB PUSH1 0x40 MLOAD PUSH2 0x51F SWAP2 SWAP1 PUSH2 0x193D JUMP JUMPDEST PUSH1 0x40 MLOAD DUP1 SWAP2 SUB SWAP1 KECCAK256 EQ PUSH2 0x530 JUMPI PUSH0 DUP1 REVERT JUMPDEST PUSH0 DUP1 PUSH0 DUP4 PUSH20 0xFFFFFFFFFFFFFFFFFFFFFFFFFFFFFFFFFFFFFFFF AND PUSH20 0xFFFFFFFFFFFFFFFFFFFFFFFFFFFFFFFFFFFFFFFF AND DUP2 MSTORE PUSH1 0x20 ADD SWAP1 DUP2 MSTORE PUSH1 0x20 ADD PUSH0 KECCAK256 SWAP1 POP DUP4 DUP2 PUSH0 ADD SWAP1 DUP2 PUSH2 0x57F SWAP2 SWAP1 PUSH2 0x1B50 JUMP JUMPDEST POP DUP3 DUP2 PUSH1 0x2 ADD SWAP1 DUP2 PUSH2 0x591 SWAP2 SWAP1 PUSH2 0x1B50 JUMP JUMPDEST POP PUSH1 0x9 PUSH0 DUP2 SLOAD PUSH2 0x5A0 SWAP1 PUSH2 0x1C1F JUMP JUMPDEST SWAP2 SWAP1 POP DUP2 SWAP1 SSTORE DUP2 PUSH1 0x1 ADD DUP2 SWAP1 SSTORE POP PUSH1 0x6 DUP2 SWAP1 DUP1 PUSH1 0x1 DUP2 SLOAD ADD DUP1 DUP3 SSTORE DUP1 SWAP2 POP POP PUSH1 0x1 SWAP1 SUB SWAP1 PUSH0 MSTORE PUSH1 0x20 PUSH0 KECCAK256 SWAP1 PUSH1 0x4 MUL ADD PUSH0 SWAP1 SWAP2 SWAP1 SWAP2 SWAP1 SWAP2 POP PUSH0 DUP3 ADD DUP2 PUSH0 ADD SWAP1 DUP2 PUSH2 0x5E9 SWAP2 SWAP1 PUSH2 0x1C7B JUMP JUMPDEST POP PUSH1 0x1 DUP3 ADD SLOAD DUP2 PUSH1 0x1 ADD SSTORE PUSH1 0x2 DUP3 ADD DUP2 PUSH1 0x2 ADD SWAP1 DUP2 PUSH2 0x608 SWAP2 SWAP1 PUSH2 0x1C7B JUMP JUMPDEST POP PUSH1 0x3 DUP3 ADD PUSH0 SWAP1 SLOAD SWAP1 PUSH2 0x100 EXP SWAP1 DIV PUSH20 0xFFFFFFFFFFFFFFFFFFFFFFFFFFFFFFFFFFFFFFFF AND DUP2 PUSH1 0x3 ADD PUSH0 PUSH2 0x100 EXP DUP2 SLOAD DUP2 PUSH20 0xFFFFFFFFFFFFFFFFFFFFFFFFFFFFFFFFFFFFFFFF MUL NOT AND SWAP1 DUP4 PUSH20 0xFFFFFFFFFFFFFFFFFFFFFFFFFFFFFFFFFFFFFFFF AND MUL OR SWAP1 SSTORE POP POP POP POP POP POP POP JUMP JUMPDEST PUSH1 0x60 PUSH0 DUP1 PUSH0 PUSH1 0x1 PUSH0 DUP7 PUSH20 0xFFFFFFFFFFFFFFFFFFFFFFFFFFFFFFFFFFFFFFFF AND PUSH20 0xFFFFFFFFFFFFFFFFFFFFFFFFFFFFFFFFFFFFFFFF AND DUP2 MSTORE PUSH1 0x20 ADD SWAP1 DUP2 MSTORE PUSH1 0x20 ADD PUSH0 KECCAK256 PUSH1 0x40 MLOAD DUP1 PUSH1 0xC0 ADD PUSH1 0x40 MSTORE SWAP1 DUP2 PUSH0 DUP3 ADD SLOAD DUP2 MSTORE PUSH1 0x20 ADD PUSH1 0x1 DUP3 ADD SLOAD DUP2 MSTORE PUSH1 0x20 ADD PUSH1 0x2 DUP3 ADD DUP1 SLOAD PUSH2 0x6E6 SWAP1 PUSH2 0x1871 JUMP JUMPDEST DUP1 PUSH1 0x1F ADD PUSH1 0x20 DUP1 SWAP2 DIV MUL PUSH1 0x20 ADD PUSH1 0x40 MLOAD SWAP1 DUP2 ADD PUSH1 0x40 MSTORE DUP1 SWAP3 SWAP2 SWAP1 DUP2 DUP2 MSTORE PUSH1 0x20 ADD DUP3 DUP1 SLOAD PUSH2 0x712 SWAP1 PUSH2 0x1871 JUMP JUMPDEST DUP1 ISZERO PUSH2 0x75D JUMPI DUP1 PUSH1 0x1F LT PUSH2 0x734 JUMPI PUSH2 0x100 DUP1 DUP4 SLOAD DIV MUL DUP4 MSTORE SWAP2 PUSH1 0x20 ADD SWAP2 PUSH2 0x75D JUMP JUMPDEST DUP3 ADD SWAP2 SWAP1 PUSH0 MSTORE PUSH1 0x20 PUSH0 KECCAK256 SWAP1 JUMPDEST DUP2 SLOAD DUP2 MSTORE SWAP1 PUSH1 0x1 ADD SWAP1 PUSH1 0x20 ADD DUP1 DUP4 GT PUSH2 0x740 JUMPI DUP3 SWAP1 SUB PUSH1 0x1F AND DUP3 ADD SWAP2 JUMPDEST POP POP POP POP POP DUP2 MSTORE PUSH1 0x20 ADD PUSH1 0x3 DUP3 ADD PUSH0 SWAP1 SLOAD SWAP1 PUSH2 0x100 EXP SWAP1 DIV PUSH1 0xFF AND PUSH1 0xFF AND PUSH1 0xFF AND DUP2 MSTORE PUSH1 0x20 ADD PUSH1 0x4 DUP3 ADD SLOAD DUP2 MSTORE PUSH1 0x20 ADD PUSH1 0x5 DUP3 ADD PUSH0 SWAP1 SLOAD SWAP1 PUSH2 0x100 EXP SWAP1 DIV PUSH20 0xFFFFFFFFFFFFFFFFFFFFFFFFFFFFFFFFFFFFFFFF AND PUSH20 0xFFFFFFFFFFFFFFFFFFFFFFFFFFFFFFFFFFFFFFFF AND PUSH20 0xFFFFFFFFFFFFFFFFFFFFFFFFFFFFFFFFFFFFFFFF AND DUP2 MSTORE POP POP SWAP1 POP DUP1 PUSH1 0x40 ADD MLOAD SWAP4 POP DUP1 PUSH1 0x80 ADD MLOAD SWAP3 POP PUSH1 0x1 DUP2 PUSH1 0x20 ADD MLOAD EQ SWAP2 POP POP SWAP2 SWAP4 SWAP1 SWAP3 POP JUMP JUMPDEST PUSH1 0x6 DUP2 DUP2 SLOAD DUP2 LT PUSH2 0x812 JUMPI PUSH0 DUP1 REVERT JUMPDEST SWAP1 PUSH0 MSTORE PUSH1 0x20 PUSH0 KECCAK256 SWAP1 PUSH1 0x4 MUL ADD PUSH0 SWAP2 POP SWAP1 POP DUP1 PUSH0 ADD DUP1 SLOAD PUSH2 0x831 SWAP1 PUSH2 0x1871 JUMP JUMPDEST DUP1 PUSH1 0x1F ADD PUSH1 0x20 DUP1 SWAP2 DIV MUL PUSH1 0x20 ADD PUSH1 0x40 MLOAD SWAP1 DUP2 ADD PUSH1 0x40 MSTORE DUP1 SWAP3 SWAP2 SWAP1 DUP2 DUP2 MSTORE PUSH1 0x20 ADD DUP3 DUP1 SLOAD PUSH2 0x85D SWAP1 PUSH2 0x1871 JUMP JUMPDEST DUP1 ISZERO PUSH2 0x8A8 JUMPI DUP1 PUSH1 0x1F LT PUSH2 0x87F JUMPI PUSH2 0x100 DUP1 DUP4 SLOAD DIV MUL DUP4 MSTORE SWAP2 PUSH1 0x20 ADD SWAP2 PUSH2 0x8A8 JUMP JUMPDEST DUP3 ADD SWAP2 SWAP1 PUSH0 MSTORE PUSH1 0x20 PUSH0 KECCAK256 SWAP1 JUMPDEST DUP2 SLOAD DUP2 MSTORE SWAP1 PUSH1 0x1 ADD SWAP1 PUSH1 0x20 ADD DUP1 DUP4 GT PUSH2 0x88B JUMPI DUP3 SWAP1 SUB PUSH1 0x1F AND DUP3 ADD SWAP2 JUMPDEST POP POP POP POP POP SWAP1 DUP1 PUSH1 0x1 ADD SLOAD SWAP1 DUP1 PUSH1 0x2 ADD DUP1 SLOAD PUSH2 0x8C3 SWAP1 PUSH2 0x1871 JUMP JUMPDEST DUP1 PUSH1 0x1F ADD PUSH1 0x20 DUP1 SWAP2 DIV MUL PUSH1 0x20 ADD PUSH1 0x40 MLOAD SWAP1 DUP2 ADD PUSH1 0x40 MSTORE DUP1 SWAP3 SWAP2 SWAP1 DUP2 DUP2 MSTORE PUSH1 0x20 ADD DUP3 DUP1 SLOAD PUSH2 0x8EF SWAP1 PUSH2 0x1871 JUMP JUMPDEST DUP1 ISZERO PUSH2 0x93A JUMPI DUP1 PUSH1 0x1F LT PUSH2 0x911 JUMPI PUSH2 0x100 DUP1 DUP4 SLOAD DIV MUL DUP4 MSTORE SWAP2 PUSH1 0x20 ADD SWAP2 PUSH2 0x93A JUMP JUMPDEST DUP3 ADD SWAP2 SWAP1 PUSH0 MSTORE PUSH1 0x20 PUSH0 KECCAK256 SWAP1 JUMPDEST DUP2 SLOAD DUP2 MSTORE SWAP1 PUSH1 0x1 ADD SWAP1 PUSH1 0x20 ADD DUP1 DUP4 GT PUSH2 0x91D JUMPI DUP3 SWAP1 SUB PUSH1 0x1F AND DUP3 ADD SWAP2 JUMPDEST POP POP POP POP POP SWAP1 DUP1 PUSH1 0x3 ADD PUSH0 SWAP1 SLOAD SWAP1 PUSH2 0x100 EXP SWAP1 DIV PUSH20 0xFFFFFFFFFFFFFFFFFFFFFFFFFFFFFFFFFFFFFFFF AND SWAP1 POP DUP5 JUMP JUMPDEST PUSH1 0x8 PUSH0 SWAP1 SLOAD SWAP1 PUSH2 0x100 EXP SWAP1 DIV PUSH20 0xFFFFFFFFFFFFFFFFFFFFFFFFFFFFFFFFFFFFFFFF AND PUSH20 0xFFFFFFFFFFFFFFFFFFFFFFFFFFFFFFFFFFFFFFFF AND CALLER PUSH20 0xFFFFFFFFFFFFFFFFFFFFFFFFFFFFFFFFFFFFFFFF AND EQ PUSH2 0x9C1 JUMPI PUSH0 DUP1 REVERT JUMPDEST PUSH32 0x4F4E474F494E4700000000000000000000000000000000000000000000000000 PUSH1 0xB PUSH1 0x40 MLOAD PUSH2 0x9F1 SWAP2 SWAP1 PUSH2 0x193D JUMP JUMPDEST PUSH1 0x40 MLOAD DUP1 SWAP2 SUB SWAP1 KECCAK256 EQ PUSH2 0xA02 JUMPI PUSH0 DUP1 REVERT JUMPDEST PUSH0 PUSH1 0x1 PUSH0 DUP4 PUSH20 0xFFFFFFFFFFFFFFFFFFFFFFFFFFFFFFFFFFFFFFFF AND PUSH20 0xFFFFFFFFFFFFFFFFFFFFFFFFFFFFFFFFFFFFFFFF AND DUP2 MSTORE PUSH1 0x20 ADD SWAP1 DUP2 MSTORE PUSH1 0x20 ADD PUSH0 KECCAK256 SWAP1 POP DUP4 DUP2 PUSH1 0x2 ADD SWAP1 DUP2 PUSH2 0xA53 SWAP2 SWAP1 PUSH2 0x1B50 JUMP JUMPDEST POP DUP3 DUP2 PUSH1 0x5 ADD PUSH0 PUSH2 0x100 EXP DUP2 SLOAD DUP2 PUSH20 0xFFFFFFFFFFFFFFFFFFFFFFFFFFFFFFFFFFFFFFFF MUL NOT AND SWAP1 DUP4 PUSH20 0xFFFFFFFFFFFFFFFFFFFFFFFFFFFFFFFFFFFFFFFF AND MUL OR SWAP1 SSTORE POP PUSH1 0xA PUSH0 DUP2 SLOAD PUSH2 0xAA4 SWAP1 PUSH2 0x1C1F JUMP JUMPDEST SWAP2 SWAP1 POP DUP2 SWAP1 SSTORE DUP2 PUSH0 ADD DUP2 SWAP1 SSTORE POP PUSH0 DUP2 PUSH1 0x1 ADD DUP2 SWAP1 SSTORE POP PUSH0 DUP2 PUSH1 0x4 ADD DUP2 SWAP1 SSTORE POP PUSH1 0x13 DUP2 PUSH1 0x3 ADD PUSH0 PUSH2 0x100 EXP DUP2 SLOAD DUP2 PUSH1 0xFF MUL NOT AND SWAP1 DUP4 PUSH1 0xFF AND MUL OR SWAP1 SSTORE POP PUSH1 0x7 DUP2 SWAP1 DUP1 PUSH1 0x1 DUP2 SLOAD ADD DUP1 DUP3 SSTORE DUP1 SWAP2 POP POP PUSH1 0x1 SWAP1 SUB SWAP1 PUSH0 MSTORE PUSH1 0x20 PUSH0 KECCAK256 SWAP1 PUSH1 0x6 MUL ADD PUSH0 SWAP1 SWAP2 SWAP1 SWAP2 SWAP1 SWAP2 POP PUSH0 DUP3 ADD SLOAD DUP2 PUSH0 ADD SSTORE PUSH1 0x1 DUP3 ADD SLOAD DUP2 PUSH1 0x1 ADD SSTORE PUSH1 0x2 DUP3 ADD DUP2 PUSH1 0x2 ADD SWAP1 DUP2 PUSH2 0xB2F SWAP2 SWAP1 PUSH2 0x1C7B JUMP JUMPDEST POP PUSH1 0x3 DUP3 ADD PUSH0 SWAP1 SLOAD SWAP1 PUSH2 0x100 EXP SWAP1 DIV PUSH1 0xFF AND DUP2 PUSH1 0x3 ADD PUSH0 PUSH2 0x100 EXP DUP2 SLOAD DUP2 PUSH1 0xFF MUL NOT AND SWAP1 DUP4 PUSH1 0xFF AND MUL OR SWAP1 SSTORE POP PUSH1 0x4 DUP3 ADD SLOAD DUP2 PUSH1 0x4 ADD SSTORE PUSH1 0x5 DUP3 ADD PUSH0 SWAP1 SLOAD SWAP1 PUSH2 0x100 EXP SWAP1 DIV PUSH20 0xFFFFFFFFFFFFFFFFFFFFFFFFFFFFFFFFFFFFFFFF AND DUP2 PUSH1 0x5 ADD PUSH0 PUSH2 0x100 EXP DUP2 SLOAD DUP2 PUSH20 0xFFFFFFFFFFFFFFFFFFFFFFFFFFFFFFFFFFFFFFFF MUL NOT AND SWAP1 DUP4 PUSH20 0xFFFFFFFFFFFFFFFFFFFFFFFFFFFFFFFFFFFFFFFF AND MUL OR SWAP1 SSTORE POP POP POP POP POP POP POP JUMP JUMPDEST PUSH0 DUP1 PUSH1 0x60 PUSH0 JUMPDEST PUSH1 0x6 DUP1 SLOAD SWAP1 POP DUP2 LT ISZERO PUSH2 0xCE6 JUMPI PUSH0 PUSH1 0x6 DUP3 DUP2 SLOAD DUP2 LT PUSH2 0xBFB JUMPI PUSH2 0xBFA PUSH2 0x1D60 JUMP JUMPDEST JUMPDEST SWAP1 PUSH0 MSTORE PUSH1 0x20 PUSH0 KECCAK256 SWAP1 PUSH1 0x4 MUL ADD SWAP1 POP DUP5 PUSH1 0x5 PUSH0 DUP4 PUSH1 0x1 ADD SLOAD DUP2 MSTORE PUSH1 0x20 ADD SWAP1 DUP2 MSTORE PUSH1 0x20 ADD PUSH0 KECCAK256 SLOAD GT ISZERO PUSH2 0xCD2 JUMPI PUSH1 0x5 PUSH0 DUP3 PUSH1 0x1 ADD SLOAD DUP2 MSTORE PUSH1 0x20 ADD SWAP1 DUP2 MSTORE PUSH1 0x20 ADD PUSH0 KECCAK256 SLOAD SWAP5 POP DUP1 PUSH1 0x1 ADD SLOAD SWAP4 POP DUP1 PUSH0 ADD DUP1 SLOAD PUSH2 0xC53 SWAP1 PUSH2 0x1871 JUMP JUMPDEST DUP1 PUSH1 0x1F ADD PUSH1 0x20 DUP1 SWAP2 DIV MUL PUSH1 0x20 ADD PUSH1 0x40 MLOAD SWAP1 DUP2 ADD PUSH1 0x40 MSTORE DUP1 SWAP3 SWAP2 SWAP1 DUP2 DUP2 MSTORE PUSH1 0x20 ADD DUP3 DUP1 SLOAD PUSH2 0xC7F SWAP1 PUSH2 0x1871 JUMP JUMPDEST DUP1 ISZERO PUSH2 0xCCA JUMPI DUP1 PUSH1 0x1F LT PUSH2 0xCA1 JUMPI PUSH2 0x100 DUP1 DUP4 SLOAD DIV MUL DUP4 MSTORE SWAP2 PUSH1 0x20 ADD SWAP2 PUSH2 0xCCA JUMP JUMPDEST DUP3 ADD SWAP2 SWAP1 PUSH0 MSTORE PUSH1 0x20 PUSH0 KECCAK256 SWAP1 JUMPDEST DUP2 SLOAD DUP2 MSTORE SWAP1 PUSH1 0x1 ADD SWAP1 PUSH1 0x20 ADD DUP1 DUP4 GT PUSH2 0xCAD JUMPI DUP3 SWAP1 SUB PUSH1 0x1F AND DUP3 ADD SWAP2 JUMPDEST POP POP POP POP POP SWAP3 POP JUMPDEST POP DUP1 DUP1 PUSH2 0xCDE SWAP1 PUSH2 0x1C1F JUMP JUMPDEST SWAP2 POP POP PUSH2 0xBD9 JUMP JUMPDEST POP SWAP1 SWAP2 SWAP3 JUMP JUMPDEST PUSH0 PUSH1 0x60 PUSH0 DUP1 PUSH1 0x2 PUSH0 DUP7 DUP2 MSTORE PUSH1 0x20 ADD SWAP1 DUP2 MSTORE PUSH1 0x20 ADD PUSH0 KECCAK256 SWAP1 POP DUP5 SWAP4 POP DUP1 PUSH0 ADD DUP1 SLOAD PUSH2 0xD15 SWAP1 PUSH2 0x1871 JUMP JUMPDEST DUP1 PUSH1 0x1F ADD PUSH1 0x20 DUP1 SWAP2 DIV MUL PUSH1 0x20 ADD PUSH1 0x40 MLOAD SWAP1 DUP2 ADD PUSH1 0x40 MSTORE DUP1 SWAP3 SWAP2 SWAP1 DUP2 DUP2 MSTORE PUSH1 0x20 ADD DUP3 DUP1 SLOAD PUSH2 0xD41 SWAP1 PUSH2 0x1871 JUMP JUMPDEST DUP1 ISZERO PUSH2 0xD8C JUMPI DUP1 PUSH1 0x1F LT PUSH2 0xD63 JUMPI PUSH2 0x100 DUP1 DUP4 SLOAD DIV MUL DUP4 MSTORE SWAP2 PUSH1 0x20 ADD SWAP2 PUSH2 0xD8C JUMP JUMPDEST DUP3 ADD SWAP2 SWAP1 PUSH0 MSTORE PUSH1 0x20 PUSH0 KECCAK256 SWAP1 JUMPDEST DUP2 SLOAD DUP2 MSTORE SWAP1 PUSH1 0x1 ADD SWAP1 PUSH1 0x20 ADD DUP1 DUP4 GT PUSH2 0xD6F JUMPI DUP3 SWAP1 SUB PUSH1 0x1F AND DUP3 ADD SWAP2 JUMPDEST POP POP POP POP POP SWAP3 POP PUSH1 0x5 PUSH0 DUP7 DUP2 MSTORE PUSH1 0x20 ADD SWAP1 DUP2 MSTORE PUSH1 0x20 ADD PUSH0 KECCAK256 SLOAD SWAP2 POP POP SWAP2 SWAP4 SWAP1 SWAP3 POP JUMP JUMPDEST PUSH1 0x8 PUSH0 SWAP1 SLOAD SWAP1 PUSH2 0x100 EXP SWAP1 DIV PUSH20 0xFFFFFFFFFFFFFFFFFFFFFFFFFFFFFFFFFFFFFFFF AND PUSH20 0xFFFFFFFFFFFFFFFFFFFFFFFFFFFFFFFFFFFFFFFF AND CALLER PUSH20 0xFFFFFFFFFFFFFFFFFFFFFFFFFFFFFFFFFFFFFFFF AND EQ PUSH2 0xE3E JUMPI PUSH1 0x40 MLOAD PUSH32 0x8C379A000000000000000000000000000000000000000000000000000000000 DUP2 MSTORE PUSH1 0x4 ADD PUSH2 0xE35 SWAP1 PUSH2 0x1DFD JUMP JUMPDEST PUSH1 0x40 MLOAD DUP1 SWAP2 SUB SWAP1 REVERT JUMPDEST PUSH0 PUSH1 0x3 PUSH0 DUP4 DUP2 MSTORE PUSH1 0x20 ADD SWAP1 DUP2 MSTORE PUSH1 0x20 ADD PUSH0 KECCAK256 PUSH1 0x4 ADD SLOAD SUB PUSH2 0xE94 JUMPI PUSH1 0x40 MLOAD PUSH32 0x8C379A000000000000000000000000000000000000000000000000000000000 DUP2 MSTORE PUSH1 0x4 ADD PUSH2 0xE8B SWAP1 PUSH2 0x1E65 JUMP JUMPDEST PUSH1 0x40 MLOAD DUP1 SWAP2 SUB SWAP1 REVERT JUMPDEST PUSH0 PUSH1 0x3 PUSH0 DUP4 DUP2 MSTORE PUSH1 0x20 ADD SWAP1 DUP2 MSTORE PUSH1 0x20 ADD PUSH0 KECCAK256 PUSH1 0x1 ADD SLOAD EQ PUSH2 0xEB3 JUMPI PUSH0 DUP1 REVERT JUMPDEST PUSH1 0x1 PUSH1 0x7 DUP3 DUP2 SLOAD DUP2 LT PUSH2 0xEC9 JUMPI PUSH2 0xEC8 PUSH2 0x1D60 JUMP JUMPDEST JUMPDEST SWAP1 PUSH0 MSTORE PUSH1 0x20 PUSH0 KECCAK256 SWAP1 PUSH1 0x6 MUL ADD PUSH1 0x1 ADD DUP2 SWAP1 SSTORE POP POP JUMP JUMPDEST PUSH1 0x7 DUP2 DUP2 SLOAD DUP2 LT PUSH2 0xEEE JUMPI PUSH0 DUP1 REVERT JUMPDEST SWAP1 PUSH0 MSTORE PUSH1 0x20 PUSH0 KECCAK256 SWAP1 PUSH1 0x6 MUL ADD PUSH0 SWAP2 POP SWAP1 POP DUP1 PUSH0 ADD SLOAD SWAP1 DUP1 PUSH1 0x1 ADD SLOAD SWAP1 DUP1 PUSH1 0x2 ADD DUP1 SLOAD PUSH2 0xF19 SWAP1 PUSH2 0x1871 JUMP JUMPDEST DUP1 PUSH1 0x1F ADD PUSH1 0x20 DUP1 SWAP2 DIV MUL PUSH1 0x20 ADD PUSH1 0x40 MLOAD SWAP1 DUP2 ADD PUSH1 0x40 MSTORE DUP1 SWAP3 SWAP2 SWAP1 DUP2 DUP2 MSTORE PUSH1 0x20 ADD DUP3 DUP1 SLOAD PUSH2 0xF45 SWAP1 PUSH2 0x1871 JUMP JUMPDEST DUP1 ISZERO PUSH2 0xF90 JUMPI DUP1 PUSH1 0x1F LT PUSH2 0xF67 JUMPI PUSH2 0x100 DUP1 DUP4 SLOAD DIV MUL DUP4 MSTORE SWAP2 PUSH1 0x20 ADD SWAP2 PUSH2 0xF90 JUMP JUMPDEST DUP3 ADD SWAP2 SWAP1 PUSH0 MSTORE PUSH1 0x20 PUSH0 KECCAK256 SWAP1 JUMPDEST DUP2 SLOAD DUP2 MSTORE SWAP1 PUSH1 0x1 ADD SWAP1 PUSH1 0x20 ADD DUP1 DUP4 GT PUSH2 0xF73 JUMPI DUP3 SWAP1 SUB PUSH1 0x1F AND DUP3 ADD SWAP2 JUMPDEST POP POP POP POP POP SWAP1 DUP1 PUSH1 0x3 ADD PUSH0 SWAP1 SLOAD SWAP1 PUSH2 0x100 EXP SWAP1 DIV PUSH1 0xFF AND SWAP1 DUP1 PUSH1 0x4 ADD SLOAD SWAP1 DUP1 PUSH1 0x5 ADD PUSH0 SWAP1 SLOAD SWAP1 PUSH2 0x100 EXP SWAP1 DIV PUSH20 0xFFFFFFFFFFFFFFFFFFFFFFFFFFFFFFFFFFFFFFFF AND SWAP1 POP DUP7 JUMP JUMPDEST PUSH1 0x8 PUSH0 SWAP1 SLOAD SWAP1 PUSH2 0x100 EXP SWAP1 DIV PUSH20 0xFFFFFFFFFFFFFFFFFFFFFFFFFFFFFFFFFFFFFFFF AND PUSH20 0xFFFFFFFFFFFFFFFFFFFFFFFFFFFFFFFFFFFFFFFF AND CALLER PUSH20 0xFFFFFFFFFFFFFFFFFFFFFFFFFFFFFFFFFFFFFFFF AND EQ PUSH2 0x102F JUMPI PUSH0 DUP1 REVERT JUMPDEST DUP1 PUSH20 0xFFFFFFFFFFFFFFFFFFFFFFFFFFFFFFFFFFFFFFFF AND CALLER PUSH20 0xFFFFFFFFFFFFFFFFFFFFFFFFFFFFFFFFFFFFFFFF AND EQ PUSH2 0x1066 JUMPI PUSH0 DUP1 REVERT JUMPDEST PUSH1 0x40 MLOAD DUP1 PUSH1 0x40 ADD PUSH1 0x40 MSTORE DUP1 PUSH1 0x7 DUP2 MSTORE PUSH1 0x20 ADD PUSH32 0x4F4E474F494E4700000000000000000000000000000000000000000000000000 DUP2 MSTORE POP PUSH1 0xB SWAP1 DUP2 PUSH2 0x10AA SWAP2 SWAP1 PUSH2 0x1B50 JUMP JUMPDEST POP POP JUMP JUMPDEST PUSH0 PUSH1 0x60 DUP1 PUSH0 PUSH1 0x2 PUSH0 DUP7 DUP2 MSTORE PUSH1 0x20 ADD SWAP1 DUP2 MSTORE PUSH1 0x20 ADD PUSH0 KECCAK256 PUSH1 0x40 MLOAD DUP1 PUSH1 0x80 ADD PUSH1 0x40 MSTORE SWAP1 DUP2 PUSH0 DUP3 ADD DUP1 SLOAD PUSH2 0x10DE SWAP1 PUSH2 0x1871 JUMP JUMPDEST DUP1 PUSH1 0x1F ADD PUSH1 0x20 DUP1 SWAP2 DIV MUL PUSH1 0x20 ADD PUSH1 0x40 MLOAD SWAP1 DUP2 ADD PUSH1 0x40 MSTORE DUP1 SWAP3 SWAP2 SWAP1 DUP2 DUP2 MSTORE PUSH1 0x20 ADD DUP3 DUP1 SLOAD PUSH2 0x110A SWAP1 PUSH2 0x1871 JUMP JUMPDEST DUP1 ISZERO PUSH2 0x1155 JUMPI DUP1 PUSH1 0x1F LT PUSH2 0x112C JUMPI PUSH2 0x100 DUP1 DUP4 SLOAD DIV MUL DUP4 MSTORE SWAP2 PUSH1 0x20 ADD SWAP2 PUSH2 0x1155 JUMP JUMPDEST DUP3 ADD SWAP2 SWAP1 PUSH0 MSTORE PUSH1 0x20 PUSH0 KECCAK256 SWAP1 JUMPDEST DUP2 SLOAD DUP2 MSTORE SWAP1 PUSH1 0x1 ADD SWAP1 PUSH1 0x20 ADD DUP1 DUP4 GT PUSH2 0x1138 JUMPI DUP3 SWAP1 SUB PUSH1 0x1F AND DUP3 ADD SWAP2 JUMPDEST POP POP POP POP POP DUP2 MSTORE PUSH1 0x20 ADD PUSH1 0x1 DUP3 ADD SLOAD DUP2 MSTORE PUSH1 0x20 ADD PUSH1 0x2 DUP3 ADD DUP1 SLOAD PUSH2 0x1178 SWAP1 PUSH2 0x1871 JUMP JUMPDEST DUP1 PUSH1 0x1F ADD PUSH1 0x20 DUP1 SWAP2 DIV MUL PUSH1 0x20 ADD PUSH1 0x40 MLOAD SWAP1 DUP2 ADD PUSH1 0x40 MSTORE DUP1 SWAP3 SWAP2 SWAP1 DUP2 DUP2 MSTORE PUSH1 0x20 ADD DUP3 DUP1 SLOAD PUSH2 0x11A4 SWAP1 PUSH2 0x1871 JUMP JUMPDEST DUP1 ISZERO PUSH2 0x11EF JUMPI DUP1 PUSH1 0x1F LT PUSH2 0x11C6 JUMPI PUSH2 0x100 DUP1 DUP4 SLOAD DIV MUL DUP4 MSTORE SWAP2 PUSH1 0x20 ADD SWAP2 PUSH2 0x11EF JUMP JUMPDEST DUP3 ADD SWAP2 SWAP1 PUSH0 MSTORE PUSH1 0x20 PUSH0 KECCAK256 SWAP1 JUMPDEST DUP2 SLOAD DUP2 MSTORE SWAP1 PUSH1 0x1 ADD SWAP1 PUSH1 0x20 ADD DUP1 DUP4 GT PUSH2 0x11D2 JUMPI DUP3 SWAP1 SUB PUSH1 0x1F AND DUP3 ADD SWAP2 JUMPDEST POP POP POP POP POP DUP2 MSTORE PUSH1 0x20 ADD PUSH1 0x3 DUP3 ADD PUSH0 SWAP1 SLOAD SWAP1 PUSH2 0x100 EXP SWAP1 DIV PUSH20 0xFFFFFFFFFFFFFFFFFFFFFFFFFFFFFFFFFFFFFFFF AND PUSH20 0xFFFFFFFFFFFFFFFFFFFFFFFFFFFFFFFFFFFFFFFF AND PUSH20 0xFFFFFFFFFFFFFFFFFFFFFFFFFFFFFFFFFFFFFFFF AND DUP2 MSTORE POP POP SWAP1 POP DUP5 SWAP4 POP DUP1 PUSH1 0x40 ADD MLOAD SWAP3 POP DUP1 PUSH0 ADD MLOAD SWAP2 POP POP SWAP2 SWAP4 SWAP1 SWAP3 POP JUMP JUMPDEST PUSH0 PUSH1 0x40 MLOAD SWAP1 POP SWAP1 JUMP JUMPDEST PUSH0 DUP1 REVERT JUMPDEST PUSH0 DUP1 REVERT JUMPDEST PUSH0 DUP2 SWAP1 POP SWAP2 SWAP1 POP JUMP JUMPDEST PUSH2 0x128A DUP2 PUSH2 0x1278 JUMP JUMPDEST DUP2 EQ PUSH2 0x1294 JUMPI PUSH0 DUP1 REVERT JUMPDEST POP JUMP JUMPDEST PUSH0 DUP2 CALLDATALOAD SWAP1 POP PUSH2 0x12A5 DUP2 PUSH2 0x1281 JUMP JUMPDEST SWAP3 SWAP2 POP POP JUMP JUMPDEST PUSH0 PUSH20 0xFFFFFFFFFFFFFFFFFFFFFFFFFFFFFFFFFFFFFFFF DUP3 AND SWAP1 POP SWAP2 SWAP1 POP JUMP JUMPDEST PUSH0 PUSH2 0x12D4 DUP3 PUSH2 0x12AB JUMP JUMPDEST SWAP1 POP SWAP2 SWAP1 POP JUMP JUMPDEST PUSH2 0x12E4 DUP2 PUSH2 0x12CA JUMP JUMPDEST DUP2 EQ PUSH2 0x12EE JUMPI PUSH0 DUP1 REVERT JUMPDEST POP JUMP JUMPDEST PUSH0 DUP2 CALLDATALOAD SWAP1 POP PUSH2 0x12FF DUP2 PUSH2 0x12DB JUMP JUMPDEST SWAP3 SWAP2 POP POP JUMP JUMPDEST PUSH0 DUP1 PUSH1 0x40 DUP4 DUP6 SUB SLT ISZERO PUSH2 0x131B JUMPI PUSH2 0x131A PUSH2 0x1270 JUMP JUMPDEST JUMPDEST PUSH0 PUSH2 0x1328 DUP6 DUP3 DUP7 ADD PUSH2 0x1297 JUMP JUMPDEST SWAP3 POP POP PUSH1 0x20 PUSH2 0x1339 DUP6 DUP3 DUP7 ADD PUSH2 0x12F1 JUMP JUMPDEST SWAP2 POP POP SWAP3 POP SWAP3 SWAP1 POP JUMP JUMPDEST PUSH0 PUSH1 0x20 DUP3 DUP5 SUB SLT ISZERO PUSH2 0x1358 JUMPI PUSH2 0x1357 PUSH2 0x1270 JUMP JUMPDEST JUMPDEST PUSH0 PUSH2 0x1365 DUP5 DUP3 DUP6 ADD PUSH2 0x12F1 JUMP JUMPDEST SWAP2 POP POP SWAP3 SWAP2 POP POP JUMP JUMPDEST PUSH0 DUP1 REVERT JUMPDEST PUSH0 DUP1 REVERT JUMPDEST PUSH0 PUSH1 0x1F NOT PUSH1 0x1F DUP4 ADD AND SWAP1 POP SWAP2 SWAP1 POP JUMP JUMPDEST PUSH32 0x4E487B7100000000000000000000000000000000000000000000000000000000 PUSH0 MSTORE PUSH1 0x41 PUSH1 0x4 MSTORE PUSH1 0x24 PUSH0 REVERT JUMPDEST PUSH2 0x13BC DUP3 PUSH2 0x1376 JUMP JUMPDEST DUP2 ADD DUP2 DUP2 LT PUSH8 0xFFFFFFFFFFFFFFFF DUP3 GT OR ISZERO PUSH2 0x13DB JUMPI PUSH2 0x13DA PUSH2 0x1386 JUMP JUMPDEST JUMPDEST DUP1 PUSH1 0x40 MSTORE POP POP POP JUMP JUMPDEST PUSH0 PUSH2 0x13ED PUSH2 0x1267 JUMP JUMPDEST SWAP1 POP PUSH2 0x13F9 DUP3 DUP3 PUSH2 0x13B3 JUMP JUMPDEST SWAP2 SWAP1 POP JUMP JUMPDEST PUSH0 PUSH8 0xFFFFFFFFFFFFFFFF DUP3 GT ISZERO PUSH2 0x1418 JUMPI PUSH2 0x1417 PUSH2 0x1386 JUMP JUMPDEST JUMPDEST PUSH2 0x1421 DUP3 PUSH2 0x1376 JUMP JUMPDEST SWAP1 POP PUSH1 0x20 DUP2 ADD SWAP1 POP SWAP2 SWAP1 POP JUMP JUMPDEST DUP3 DUP2 DUP4 CALLDATACOPY PUSH0 DUP4 DUP4 ADD MSTORE POP POP POP JUMP JUMPDEST PUSH0 PUSH2 0x144E PUSH2 0x1449 DUP5 PUSH2 0x13FE JUMP JUMPDEST PUSH2 0x13E4 JUMP JUMPDEST SWAP1 POP DUP3 DUP2 MSTORE PUSH1 0x20 DUP2 ADD DUP5 DUP5 DUP5 ADD GT ISZERO PUSH2 0x146A JUMPI PUSH2 0x1469 PUSH2 0x1372 JUMP JUMPDEST JUMPDEST PUSH2 0x1475 DUP5 DUP3 DUP6 PUSH2 0x142E JUMP JUMPDEST POP SWAP4 SWAP3 POP POP POP JUMP JUMPDEST PUSH0 DUP3 PUSH1 0x1F DUP4 ADD SLT PUSH2 0x1491 JUMPI PUSH2 0x1490 PUSH2 0x136E JUMP JUMPDEST JUMPDEST DUP2 CALLDATALOAD PUSH2 0x14A1 DUP5 DUP3 PUSH1 0x20 DUP7 ADD PUSH2 0x143C JUMP JUMPDEST SWAP2 POP POP SWAP3 SWAP2 POP POP JUMP JUMPDEST PUSH0 DUP1 PUSH0 PUSH1 0x60 DUP5 DUP7 SUB SLT ISZERO PUSH2 0x14C1 JUMPI PUSH2 0x14C0 PUSH2 0x1270 JUMP JUMPDEST JUMPDEST PUSH0 DUP5 ADD CALLDATALOAD PUSH8 0xFFFFFFFFFFFFFFFF DUP2 GT ISZERO PUSH2 0x14DE JUMPI PUSH2 0x14DD PUSH2 0x1274 JUMP JUMPDEST JUMPDEST PUSH2 0x14EA DUP7 DUP3 DUP8 ADD PUSH2 0x147D JUMP JUMPDEST SWAP4 POP POP PUSH1 0x20 DUP5 ADD CALLDATALOAD PUSH8 0xFFFFFFFFFFFFFFFF DUP2 GT ISZERO PUSH2 0x150B JUMPI PUSH2 0x150A PUSH2 0x1274 JUMP JUMPDEST JUMPDEST PUSH2 0x1517 DUP7 DUP3 DUP8 ADD PUSH2 0x147D JUMP JUMPDEST SWAP3 POP POP PUSH1 0x40 PUSH2 0x1528 DUP7 DUP3 DUP8 ADD PUSH2 0x12F1 JUMP JUMPDEST SWAP2 POP POP SWAP3 POP SWAP3 POP SWAP3 JUMP JUMPDEST PUSH0 DUP2 MLOAD SWAP1 POP SWAP2 SWAP1 POP JUMP JUMPDEST PUSH0 DUP3 DUP3 MSTORE PUSH1 0x20 DUP3 ADD SWAP1 POP SWAP3 SWAP2 POP POP JUMP JUMPDEST PUSH0 JUMPDEST DUP4 DUP2 LT ISZERO PUSH2 0x1569 JUMPI DUP1 DUP3 ADD MLOAD DUP2 DUP5 ADD MSTORE PUSH1 0x20 DUP2 ADD SWAP1 POP PUSH2 0x154E JUMP JUMPDEST PUSH0 DUP5 DUP5 ADD MSTORE POP POP POP POP JUMP JUMPDEST PUSH0 PUSH2 0x157E DUP3 PUSH2 0x1532 JUMP JUMPDEST PUSH2 0x1588 DUP2 DUP6 PUSH2 0x153C JUMP JUMPDEST SWAP4 POP PUSH2 0x1598 DUP2 DUP6 PUSH1 0x20 DUP7 ADD PUSH2 0x154C JUMP JUMPDEST PUSH2 0x15A1 DUP2 PUSH2 0x1376 JUMP JUMPDEST DUP5 ADD SWAP2 POP POP SWAP3 SWAP2 POP POP JUMP JUMPDEST PUSH2 0x15B5 DUP2 PUSH2 0x1278 JUMP JUMPDEST DUP3 MSTORE POP POP JUMP JUMPDEST PUSH0 DUP2 ISZERO ISZERO SWAP1 POP SWAP2 SWAP1 POP JUMP JUMPDEST PUSH2 0x15CF DUP2 PUSH2 0x15BB JUMP JUMPDEST DUP3 MSTORE POP POP JUMP JUMPDEST PUSH0 PUSH1 0x60 DUP3 ADD SWAP1 POP DUP2 DUP2 SUB PUSH0 DUP4 ADD MSTORE PUSH2 0x15ED DUP2 DUP7 PUSH2 0x1574 JUMP JUMPDEST SWAP1 POP PUSH2 0x15FC PUSH1 0x20 DUP4 ADD DUP6 PUSH2 0x15AC JUMP JUMPDEST PUSH2 0x1609 PUSH1 0x40 DUP4 ADD DUP5 PUSH2 0x15C6 JUMP JUMPDEST SWAP5 SWAP4 POP POP POP POP JUMP JUMPDEST PUSH0 PUSH1 0x20 DUP3 DUP5 SUB SLT ISZERO PUSH2 0x1626 JUMPI PUSH2 0x1625 PUSH2 0x1270 JUMP JUMPDEST JUMPDEST PUSH0 PUSH2 0x1633 DUP5 DUP3 DUP6 ADD PUSH2 0x1297 JUMP JUMPDEST SWAP2 POP POP SWAP3 SWAP2 POP POP JUMP JUMPDEST PUSH2 0x1645 DUP2 PUSH2 0x12CA JUMP JUMPDEST DUP3 MSTORE POP POP JUMP JUMPDEST PUSH0 PUSH1 0x80 DUP3 ADD SWAP1 POP DUP2 DUP2 SUB PUSH0 DUP4 ADD MSTORE PUSH2 0x1663 DUP2 DUP8 PUSH2 0x1574 JUMP JUMPDEST SWAP1 POP PUSH2 0x1672 PUSH1 0x20 DUP4 ADD DUP7 PUSH2 0x15AC JUMP JUMPDEST DUP2 DUP2 SUB PUSH1 0x40 DUP4 ADD MSTORE PUSH2 0x1684 DUP2 DUP6 PUSH2 0x1574 JUMP JUMPDEST SWAP1 POP PUSH2 0x1693 PUSH1 0x60 DUP4 ADD DUP5 PUSH2 0x163C JUMP JUMPDEST SWAP6 SWAP5 POP POP POP POP POP JUMP JUMPDEST PUSH0 DUP1 PUSH0 PUSH1 0x60 DUP5 DUP7 SUB SLT ISZERO PUSH2 0x16B3 JUMPI PUSH2 0x16B2 PUSH2 0x1270 JUMP JUMPDEST JUMPDEST PUSH0 DUP5 ADD CALLDATALOAD PUSH8 0xFFFFFFFFFFFFFFFF DUP2 GT ISZERO PUSH2 0x16D0 JUMPI PUSH2 0x16CF PUSH2 0x1274 JUMP JUMPDEST JUMPDEST PUSH2 0x16DC DUP7 DUP3 DUP8 ADD PUSH2 0x147D JUMP JUMPDEST SWAP4 POP POP PUSH1 0x20 PUSH2 0x16ED DUP7 DUP3 DUP8 ADD PUSH2 0x12F1 JUMP JUMPDEST SWAP3 POP POP PUSH1 0x40 PUSH2 0x16FE DUP7 DUP3 DUP8 ADD PUSH2 0x12F1 JUMP JUMPDEST SWAP2 POP POP SWAP3 POP SWAP3 POP SWAP3 JUMP JUMPDEST PUSH0 PUSH1 0x60 DUP3 ADD SWAP1 POP PUSH2 0x171B PUSH0 DUP4 ADD DUP7 PUSH2 0x15AC JUMP JUMPDEST PUSH2 0x1728 PUSH1 0x20 DUP4 ADD DUP6 PUSH2 0x15AC JUMP JUMPDEST DUP2 DUP2 SUB PUSH1 0x40 DUP4 ADD MSTORE PUSH2 0x173A DUP2 DUP5 PUSH2 0x1574 JUMP JUMPDEST SWAP1 POP SWAP5 SWAP4 POP POP POP POP JUMP JUMPDEST PUSH0 PUSH1 0x60 DUP3 ADD SWAP1 POP PUSH2 0x1757 PUSH0 DUP4 ADD DUP7 PUSH2 0x15AC JUMP JUMPDEST DUP2 DUP2 SUB PUSH1 0x20 DUP4 ADD MSTORE PUSH2 0x1769 DUP2 DUP6 PUSH2 0x1574 JUMP JUMPDEST SWAP1 POP PUSH2 0x1778 PUSH1 0x40 DUP4 ADD DUP5 PUSH2 0x15AC JUMP JUMPDEST SWAP5 SWAP4 POP POP POP POP JUMP JUMPDEST PUSH0 PUSH1 0xFF DUP3 AND SWAP1 POP SWAP2 SWAP1 POP JUMP JUMPDEST PUSH2 0x1795 DUP2 PUSH2 0x1780 JUMP JUMPDEST DUP3 MSTORE POP POP JUMP JUMPDEST PUSH0 PUSH1 0xC0 DUP3 ADD SWAP1 POP PUSH2 0x17AE PUSH0 DUP4 ADD DUP10 PUSH2 0x15AC JUMP JUMPDEST PUSH2 0x17BB PUSH1 0x20 DUP4 ADD DUP9 PUSH2 0x15AC JUMP JUMPDEST DUP2 DUP2 SUB PUSH1 0x40 DUP4 ADD MSTORE PUSH2 0x17CD DUP2 DUP8 PUSH2 0x1574 JUMP JUMPDEST SWAP1 POP PUSH2 0x17DC PUSH1 0x60 DUP4 ADD DUP7 PUSH2 0x178C JUMP JUMPDEST PUSH2 0x17E9 PUSH1 0x80 DUP4 ADD DUP6 PUSH2 0x15AC JUMP JUMPDEST PUSH2 0x17F6 PUSH1 0xA0 DUP4 ADD DUP5 PUSH2 0x163C JUMP JUMPDEST SWAP8 SWAP7 POP POP POP POP POP POP POP JUMP JUMPDEST PUSH0 PUSH1 0x60 DUP3 ADD SWAP1 POP PUSH2 0x1814 PUSH0 DUP4 ADD DUP7 PUSH2 0x15AC JUMP JUMPDEST DUP2 DUP2 SUB PUSH1 0x20 DUP4 ADD MSTORE PUSH2 0x1826 DUP2 DUP6 PUSH2 0x1574 JUMP JUMPDEST SWAP1 POP DUP2 DUP2 SUB PUSH1 0x40 DUP4 ADD MSTORE PUSH2 0x183A DUP2 DUP5 PUSH2 0x1574 JUMP JUMPDEST SWAP1 POP SWAP5 SWAP4 POP POP POP POP JUMP JUMPDEST PUSH32 0x4E487B7100000000000000000000000000000000000000000000000000000000 PUSH0 MSTORE PUSH1 0x22 PUSH1 0x4 MSTORE PUSH1 0x24 PUSH0 REVERT JUMPDEST PUSH0 PUSH1 0x2 DUP3 DIV SWAP1 POP PUSH1 0x1 DUP3 AND DUP1 PUSH2 0x1888 JUMPI PUSH1 0x7F DUP3 AND SWAP2 POP JUMPDEST PUSH1 0x20 DUP3 LT DUP2 SUB PUSH2 0x189B JUMPI PUSH2 0x189A PUSH2 0x1844 JUMP JUMPDEST JUMPDEST POP SWAP2 SWAP1 POP JUMP JUMPDEST PUSH0 DUP2 SWAP1 POP SWAP3 SWAP2 POP POP JUMP JUMPDEST PUSH0 DUP2 SWAP1 POP DUP2 PUSH0 MSTORE PUSH1 0x20 PUSH0 KECCAK256 SWAP1 POP SWAP2 SWAP1 POP JUMP JUMPDEST PUSH0 DUP2 SLOAD PUSH2 0x18C9 DUP2 PUSH2 0x1871 JUMP JUMPDEST PUSH2 0x18D3 DUP2 DUP7 PUSH2 0x18A1 JUMP JUMPDEST SWAP5 POP PUSH1 0x1 DUP3 AND PUSH0 DUP2 EQ PUSH2 0x18ED JUMPI PUSH1 0x1 DUP2 EQ PUSH2 0x1902 JUMPI PUSH2 0x1934 JUMP JUMPDEST PUSH1 0xFF NOT DUP4 AND DUP7 MSTORE DUP2 ISZERO ISZERO DUP3 MUL DUP7 ADD SWAP4 POP PUSH2 0x1934 JUMP JUMPDEST PUSH2 0x190B DUP6 PUSH2 0x18AB JUMP JUMPDEST PUSH0 JUMPDEST DUP4 DUP2 LT ISZERO PUSH2 0x192C JUMPI DUP2 SLOAD DUP2 DUP10 ADD MSTORE PUSH1 0x1 DUP3 ADD SWAP2 POP PUSH1 0x20 DUP2 ADD SWAP1 POP PUSH2 0x190D JUMP JUMPDEST DUP4 DUP9 ADD SWAP6 POP POP POP JUMPDEST POP POP POP SWAP3 SWAP2 POP POP JUMP JUMPDEST PUSH0 PUSH2 0x1948 DUP3 DUP5 PUSH2 0x18BD JUMP JUMPDEST SWAP2 POP DUP2 SWAP1 POP SWAP3 SWAP2 POP POP JUMP JUMPDEST PUSH32 0x4E487B7100000000000000000000000000000000000000000000000000000000 PUSH0 MSTORE PUSH1 0x11 PUSH1 0x4 MSTORE PUSH1 0x24 PUSH0 REVERT JUMPDEST PUSH0 PUSH2 0x198A DUP3 PUSH2 0x1278 JUMP JUMPDEST SWAP2 POP PUSH2 0x1995 DUP4 PUSH2 0x1278 JUMP JUMPDEST SWAP3 POP DUP3 DUP3 ADD SWAP1 POP DUP1 DUP3 GT ISZERO PUSH2 0x19AD JUMPI PUSH2 0x19AC PUSH2 0x1953 JUMP JUMPDEST JUMPDEST SWAP3 SWAP2 POP POP JUMP JUMPDEST PUSH0 DUP2 SWAP1 POP DUP2 PUSH0 MSTORE PUSH1 0x20 PUSH0 KECCAK256 SWAP1 POP SWAP2 SWAP1 POP JUMP JUMPDEST PUSH0 PUSH1 0x20 PUSH1 0x1F DUP4 ADD DIV SWAP1 POP SWAP2 SWAP1 POP JUMP JUMPDEST PUSH0 DUP3 DUP3 SHL SWAP1 POP SWAP3 SWAP2 POP POP JUMP JUMPDEST PUSH0 PUSH1 0x8 DUP4 MUL PUSH2 0x1A0F PUSH32 0xFFFFFFFFFFFFFFFFFFFFFFFFFFFFFFFFFFFFFFFFFFFFFFFFFFFFFFFFFFFFFFFF DUP3 PUSH2 0x19D4 JUMP JUMPDEST PUSH2 0x1A19 DUP7 DUP4 PUSH2 0x19D4 JUMP JUMPDEST SWAP6 POP DUP1 NOT DUP5 AND SWAP4 POP DUP1 DUP7 AND DUP5 OR SWAP3 POP POP POP SWAP4 SWAP3 POP POP POP JUMP JUMPDEST PUSH0 DUP2 SWAP1 POP SWAP2 SWAP1 POP JUMP JUMPDEST PUSH0 PUSH2 0x1A54 PUSH2 0x1A4F PUSH2 0x1A4A DUP5 PUSH2 0x1278 JUMP JUMPDEST PUSH2 0x1A31 JUMP JUMPDEST PUSH2 0x1278 JUMP JUMPDEST SWAP1 POP SWAP2 SWAP1 POP JUMP JUMPDEST PUSH0 DUP2 SWAP1 POP SWAP2 SWAP1 POP JUMP JUMPDEST PUSH2 0x1A6D DUP4 PUSH2 0x1A3A JUMP JUMPDEST PUSH2 0x1A81 PUSH2 0x1A79 DUP3 PUSH2 0x1A5B JUMP JUMPDEST DUP5 DUP5 SLOAD PUSH2 0x19E0 JUMP JUMPDEST DUP3 SSTORE POP POP POP POP JUMP JUMPDEST PUSH0 SWAP1 JUMP JUMPDEST PUSH2 0x1A95 PUSH2 0x1A89 JUMP JUMPDEST PUSH2 0x1AA0 DUP2 DUP5 DUP5 PUSH2 0x1A64 JUMP JUMPDEST POP POP POP JUMP JUMPDEST JUMPDEST DUP2 DUP2 LT ISZERO PUSH2 0x1AC3 JUMPI PUSH2 0x1AB8 PUSH0 DUP3 PUSH2 0x1A8D JUMP JUMPDEST PUSH1 0x1 DUP2 ADD SWAP1 POP PUSH2 0x1AA6 JUMP JUMPDEST POP POP JUMP JUMPDEST PUSH1 0x1F DUP3 GT ISZERO PUSH2 0x1B08 JUMPI PUSH2 0x1AD9 DUP2 PUSH2 0x19B3 JUMP JUMPDEST PUSH2 0x1AE2 DUP5 PUSH2 0x19C5 JUMP JUMPDEST DUP2 ADD PUSH1 0x20 DUP6 LT ISZERO PUSH2 0x1AF1 JUMPI DUP2 SWAP1 POP JUMPDEST PUSH2 0x1B05 PUSH2 0x1AFD DUP6 PUSH2 0x19C5 JUMP JUMPDEST DUP4 ADD DUP3 PUSH2 0x1AA5 JUMP JUMPDEST POP POP JUMPDEST POP POP POP JUMP JUMPDEST PUSH0 DUP3 DUP3 SHR SWAP1 POP SWAP3 SWAP2 POP POP JUMP JUMPDEST PUSH0 PUSH2 0x1B28 PUSH0 NOT DUP5 PUSH1 0x8 MUL PUSH2 0x1B0D JUMP JUMPDEST NOT DUP1 DUP4 AND SWAP2 POP POP SWAP3 SWAP2 POP POP JUMP JUMPDEST PUSH0 PUSH2 0x1B40 DUP4 DUP4 PUSH2 0x1B19 JUMP JUMPDEST SWAP2 POP DUP3 PUSH1 0x2 MUL DUP3 OR SWAP1 POP SWAP3 SWAP2 POP POP JUMP JUMPDEST PUSH2 0x1B59 DUP3 PUSH2 0x1532 JUMP JUMPDEST PUSH8 0xFFFFFFFFFFFFFFFF DUP2 GT ISZERO PUSH2 0x1B72 JUMPI PUSH2 0x1B71 PUSH2 0x1386 JUMP JUMPDEST JUMPDEST PUSH2 0x1B7C DUP3 SLOAD PUSH2 0x1871 JUMP JUMPDEST PUSH2 0x1B87 DUP3 DUP3 DUP6 PUSH2 0x1AC7 JUMP JUMPDEST PUSH0 PUSH1 0x20 SWAP1 POP PUSH1 0x1F DUP4 GT PUSH1 0x1 DUP2 EQ PUSH2 0x1BB8 JUMPI PUSH0 DUP5 ISZERO PUSH2 0x1BA6 JUMPI DUP3 DUP8 ADD MLOAD SWAP1 POP JUMPDEST PUSH2 0x1BB0 DUP6 DUP3 PUSH2 0x1B35 JUMP JUMPDEST DUP7 SSTORE POP PUSH2 0x1C17 JUMP JUMPDEST PUSH1 0x1F NOT DUP5 AND PUSH2 0x1BC6 DUP7 PUSH2 0x19B3 JUMP JUMPDEST PUSH0 JUMPDEST DUP3 DUP2 LT ISZERO PUSH2 0x1BED JUMPI DUP5 DUP10 ADD MLOAD DUP3 SSTORE PUSH1 0x1 DUP3 ADD SWAP2 POP PUSH1 0x20 DUP6 ADD SWAP5 POP PUSH1 0x20 DUP2 ADD SWAP1 POP PUSH2 0x1BC8 JUMP JUMPDEST DUP7 DUP4 LT ISZERO PUSH2 0x1C0A JUMPI DUP5 DUP10 ADD MLOAD PUSH2 0x1C06 PUSH1 0x1F DUP10 AND DUP3 PUSH2 0x1B19 JUMP JUMPDEST DUP4 SSTORE POP JUMPDEST PUSH1 0x1 PUSH1 0x2 DUP9 MUL ADD DUP9 SSTORE POP POP POP JUMPDEST POP POP POP POP POP POP JUMP JUMPDEST PUSH0 PUSH2 0x1C29 DUP3 PUSH2 0x1278 JUMP JUMPDEST SWAP2 POP PUSH32 0xFFFFFFFFFFFFFFFFFFFFFFFFFFFFFFFFFFFFFFFFFFFFFFFFFFFFFFFFFFFFFFFF DUP3 SUB PUSH2 0x1C5B JUMPI PUSH2 0x1C5A PUSH2 0x1953 JUMP JUMPDEST JUMPDEST PUSH1 0x1 DUP3 ADD SWAP1 POP SWAP2 SWAP1 POP JUMP JUMPDEST PUSH0 DUP2 SLOAD SWAP1 POP PUSH2 0x1C74 DUP2 PUSH2 0x1871 JUMP JUMPDEST SWAP1 POP SWAP2 SWAP1 POP JUMP JUMPDEST DUP2 DUP2 SUB PUSH2 0x1C89 JUMPI POP POP PUSH2 0x1D5E JUMP JUMPDEST PUSH2 0x1C92 DUP3 PUSH2 0x1C66 JUMP JUMPDEST PUSH8 0xFFFFFFFFFFFFFFFF DUP2 GT ISZERO PUSH2 0x1CAB JUMPI PUSH2 0x1CAA PUSH2 0x1386 JUMP JUMPDEST JUMPDEST PUSH2 0x1CB5 DUP3 SLOAD PUSH2 0x1871 JUMP JUMPDEST PUSH2 0x1CC0 DUP3 DUP3 DUP6 PUSH2 0x1AC7 JUMP JUMPDEST PUSH0 PUSH1 0x1F DUP4 GT PUSH1 0x1 DUP2 EQ PUSH2 0x1CED JUMPI PUSH0 DUP5 ISZERO PUSH2 0x1CDB JUMPI DUP3 DUP8 ADD SLOAD SWAP1 POP JUMPDEST PUSH2 0x1CE5 DUP6 DUP3 PUSH2 0x1B35 JUMP JUMPDEST DUP7 SSTORE POP PUSH2 0x1D57 JUMP JUMPDEST PUSH1 0x1F NOT DUP5 AND PUSH2 0x1CFB DUP8 PUSH2 0x19B3 JUMP JUMPDEST SWAP7 POP PUSH2 0x1D06 DUP7 PUSH2 0x19B3 JUMP JUMPDEST PUSH0 JUMPDEST DUP3 DUP2 LT ISZERO PUSH2 0x1D2D JUMPI DUP5 DUP10 ADD SLOAD DUP3 SSTORE PUSH1 0x1 DUP3 ADD SWAP2 POP PUSH1 0x1 DUP6 ADD SWAP5 POP PUSH1 0x20 DUP2 ADD SWAP1 POP PUSH2 0x1D08 JUMP JUMPDEST DUP7 DUP4 LT ISZERO PUSH2 0x1D4A JUMPI DUP5 DUP10 ADD SLOAD PUSH2 0x1D46 PUSH1 0x1F DUP10 AND DUP3 PUSH2 0x1B19 JUMP JUMPDEST DUP4 SSTORE POP JUMPDEST PUSH1 0x1 PUSH1 0x2 DUP9 MUL ADD DUP9 SSTORE POP POP POP JUMPDEST POP POP POP POP POP POP JUMPDEST JUMP JUMPDEST PUSH32 0x4E487B7100000000000000000000000000000000000000000000000000000000 PUSH0 MSTORE PUSH1 0x32 PUSH1 0x4 MSTORE PUSH1 0x24 PUSH0 REVERT JUMPDEST PUSH32 0x4F6E6C792061646D696E2063616E206769766520726967687420746F20766F74 PUSH0 DUP3 ADD MSTORE PUSH32 0x652E000000000000000000000000000000000000000000000000000000000000 PUSH1 0x20 DUP3 ADD MSTORE POP JUMP JUMPDEST PUSH0 PUSH2 0x1DE7 PUSH1 0x22 DUP4 PUSH2 0x153C JUMP JUMPDEST SWAP2 POP PUSH2 0x1DF2 DUP3 PUSH2 0x1D8D JUMP JUMPDEST PUSH1 0x40 DUP3 ADD SWAP1 POP SWAP2 SWAP1 POP JUMP JUMPDEST PUSH0 PUSH1 0x20 DUP3 ADD SWAP1 POP DUP2 DUP2 SUB PUSH0 DUP4 ADD MSTORE PUSH2 0x1E14 DUP2 PUSH2 0x1DDB JUMP JUMPDEST SWAP1 POP SWAP2 SWAP1 POP JUMP JUMPDEST PUSH32 0x54686520766F74657220616C726561647920766F7465642E0000000000000000 PUSH0 DUP3 ADD MSTORE POP JUMP JUMPDEST PUSH0 PUSH2 0x1E4F PUSH1 0x18 DUP4 PUSH2 0x153C JUMP JUMPDEST SWAP2 POP PUSH2 0x1E5A DUP3 PUSH2 0x1E1B JUMP JUMPDEST PUSH1 0x20 DUP3 ADD SWAP1 POP SWAP2 SWAP1 POP JUMP JUMPDEST PUSH0 PUSH1 0x20 DUP3 ADD SWAP1 POP DUP2 DUP2 SUB PUSH0 DUP4 ADD MSTORE PUSH2 0x1E7C DUP2 PUSH2 0x1E43 JUMP JUMPDEST SWAP1 POP SWAP2 SWAP1 POP JUMP INVALID LOG2 PUSH5 0x6970667358 0x22 SLT KECCAK256 0x27 0xAE 0xE1 0xBB 0xAA 0xA5 JUMPDEST 0x28 0xB9 SMOD 0xC9 COINBASE SDIV 0x28 SWAP11 LOG3 0xB5 DUP7 0x29 0xE3 0xE8 MUL CALLDATACOPY 0xB7 ADDMOD 0xA6 0xCE REVERT 0xD 0xBF ADDRESS SWAP2 PUSH5 0x736F6C6343 STOP ADDMOD EQ STOP CALLER "
		},
		"gasEstimates": {
			"creation": {
				"codeDepositCost": "1573000",
				"executionCost": "25908",
				"totalCost": "1598908"
			},
			"external": {
				"addCandidate(string,string,address)": "infinite",
				"addVoter(string,address,address)": "infinite",
				"candidates(uint256)": "infinite",
				"displayCandidateProfile(uint256)": "infinite",
				"displayVoterProfile(address)": "infinite",
				"endElection(address)": "infinite",
				"getCandidateElectionEsult(uint256)": "infinite",
				"getWinner()": "infinite",
				"giveRightToVote(uint256)": "31331",
				"startElection(address)": "infinite",
				"vote(uint256,address)": "infinite",
				"voters(uint256)": "infinite"
			}
		},
		"methodIdentifiers": {
			"addCandidate(string,string,address)": "0b32ff77",
			"addVoter(string,address,address)": "869d526d",
			"candidates(uint256)": "3477ee2e",
			"displayCandidateProfile(uint256)": "e82a2d18",
			"displayVoterProfile(address)": "2273b50a",
			"endElection(address)": "07e4b70a",
			"getCandidateElectionEsult(uint256)": "b1a713e7",
			"getWinner()": "8e7ea5b2",
			"giveRightToVote(uint256)": "bc23bd51",
			"startElection(address)": "e6a5e61d",
			"vote(uint256,address)": "02d947ef",
			"voters(uint256)": "da58c7d9"
		}
	},
	"abi": [
		{
			"inputs": [],
			"stateMutability": "nonpayable",
			"type": "constructor"
		},
		{
			"inputs": [
				{
					"internalType": "string",
					"name": "_Cname",
					"type": "string"
				},
				{
					"internalType": "string",
					"name": "_proposal",
					"type": "string"
				},
				{
					"internalType": "address",
					"name": "_owner",
					"type": "address"
				}
			],
			"name": "addCandidate",
			"outputs": [],
			"stateMutability": "nonpayable",
			"type": "function"
		},
		{
			"inputs": [
				{
					"internalType": "string",
					"name": "_Vname",
					"type": "string"
				},
				{
					"internalType": "address",
					"name": "vEAddress",
					"type": "address"
				},
				{
					"internalType": "address",
					"name": "_owner",
					"type": "address"
				}
			],
			"name": "addVoter",
			"outputs": [],
			"stateMutability": "nonpayable",
			"type": "function"
		},
		{
			"inputs": [
				{
					"internalType": "uint256",
					"name": "",
					"type": "uint256"
				}
			],
			"name": "candidates",
			"outputs": [
				{
					"internalType": "string",
					"name": "Cname",
					"type": "string"
				},
				{
					"internalType": "uint256",
					"name": "candidateId",
					"type": "uint256"
				},
				{
					"internalType": "string",
					"name": "proposal",
					"type": "string"
				},
				{
					"internalType": "address",
					"name": "CEAddress",
					"type": "address"
				}
			],
			"stateMutability": "view",
			"type": "function"
		},
		{
			"inputs": [
				{
					"internalType": "uint256",
					"name": "candidateId",
					"type": "uint256"
				}
			],
			"name": "displayCandidateProfile",
			"outputs": [
				{
					"internalType": "uint256",
					"name": "candId",
					"type": "uint256"
				},
				{
					"internalType": "string",
					"name": "proposal",
					"type": "string"
				},
				{
					"internalType": "string",
					"name": "candidateName",
					"type": "string"
				}
			],
			"stateMutability": "view",
			"type": "function"
		},
		{
			"inputs": [
				{
					"internalType": "address",
					"name": "vEAddress",
					"type": "address"
				}
			],
			"name": "displayVoterProfile",
			"outputs": [
				{
					"internalType": "string",
					"name": "voterName",
					"type": "string"
				},
				{
					"internalType": "uint256",
					"name": "votedCandidate",
					"type": "uint256"
				},
				{
					"internalType": "bool",
					"name": "voterIsDelegated",
					"type": "bool"
				}
			],
			"stateMutability": "view",
			"type": "function"
		},
		{
			"inputs": [
				{
					"internalType": "address",
					"name": "owner",
					"type": "address"
				}
			],
			"name": "endElection",
			"outputs": [],
			"stateMutability": "nonpayable",
			"type": "function"
		},
		{
			"inputs": [
				{
					"internalType": "uint256",
					"name": "candidateId",
					"type": "uint256"
				}
			],
			"name": "getCandidateElectionEsult",
			"outputs": [
				{
					"internalType": "uint256",
					"name": "candId",
					"type": "uint256"
				},
				{
					"internalType": "string",
					"name": "candidateName",
					"type": "string"
				},
				{
					"internalType": "uint256",
					"name": "votes",
					"type": "uint256"
				}
			],
			"stateMutability": "view",
			"type": "function"
		},
		{
			"inputs": [],
			"name": "getWinner",
			"outputs": [
				{
					"internalType": "uint256",
					"name": "winningVoteCount",
					"type": "uint256"
				},
				{
					"internalType": "uint256",
					"name": "winnerId",
					"type": "uint256"
				},
				{
					"internalType": "string",
					"name": "winnerName",
					"type": "string"
				}
			],
			"stateMutability": "view",
			"type": "function"
		},
		{
			"inputs": [
				{
					"internalType": "uint256",
					"name": "voterId",
					"type": "uint256"
				}
			],
			"name": "giveRightToVote",
			"outputs": [],
			"stateMutability": "nonpayable",
			"type": "function"
		},
		{
			"inputs": [
				{
					"internalType": "address",
					"name": "owner",
					"type": "address"
				}
			],
			"name": "startElection",
			"outputs": [],
			"stateMutability": "nonpayable",
			"type": "function"
		},
		{
			"inputs": [
				{
					"internalType": "uint256",
					"name": "candidateId",
					"type": "uint256"
				},
				{
					"internalType": "address",
					"name": "vEAddress",
					"type": "address"
				}
			],
			"name": "vote",
			"outputs": [],
			"stateMutability": "nonpayable",
			"type": "function"
		},
		{
			"inputs": [
				{
					"internalType": "uint256",
					"name": "",
					"type": "uint256"
				}
			],
			"name": "voters",
			"outputs": [
				{
					"internalType": "uint256",
					"name": "voterId",
					"type": "uint256"
				},
				{
					"internalType": "uint256",
					"name": "weight",
					"type": "uint256"
				},
				{
					"internalType": "string",
					"name": "Vname",
					"type": "string"
				},
				{
					"internalType": "uint8",
					"name": "age",
					"type": "uint8"
				},
				{
					"internalType": "uint256",
					"name": "votedTo",
					"type": "uint256"
				},
				{
					"internalType": "address",
					"name": "VEAddress",
					"type": "address"
				}
			],
			"stateMutability": "view",
			"type": "function"
		}
	]
}